{
	"contracts/cp/GuessTheNumber.sol": {
		"SolutionGuessTheNumber": {
			"abi": [
				{
					"inputs": [],
					"name": "askComplete",
					"outputs": [
						{
							"internalType": "bool",
							"name": "",
							"type": "bool"
						}
					],
					"stateMutability": "nonpayable",
					"type": "function"
				},
				{
					"inputs": [
						{
							"internalType": "uint8",
							"name": "n",
							"type": "uint8"
						}
					],
					"name": "guess",
					"outputs": [],
					"stateMutability": "nonpayable",
					"type": "function"
				}
			],
			"devdoc": {
				"kind": "dev",
				"methods": {},
				"version": 1
			},
			"evm": {
				"assembly": "    /* \"contracts/cp/GuessTheNumber.sol\":241:565  contract SolutionGuessTheNumber{... */\n  mstore(0x40, 0x80)\n    /* \"contracts/cp/GuessTheNumber.sol\":295:337  0xa361754cC42f718204D8E2266dfCDade004C2b9E */\n  0xa361754cc42f718204d8e2266dfcdade004c2b9e\n    /* \"contracts/cp/GuessTheNumber.sol\":278:337  address target = 0xa361754cC42f718204D8E2266dfCDade004C2b9E */\n  0x00\n  dup1\n  0x0100\n  exp\n  dup2\n  sload\n  dup2\n  0xffffffffffffffffffffffffffffffffffffffff\n  mul\n  not\n  and\n  swap1\n  dup4\n  0xffffffffffffffffffffffffffffffffffffffff\n  and\n  mul\n  or\n  swap1\n  sstore\n  pop\n    /* \"contracts/cp/GuessTheNumber.sol\":386:392  target */\n  0x00\n  dup1\n  sload\n  swap1\n  0x0100\n  exp\n  swap1\n  div\n  0xffffffffffffffffffffffffffffffffffffffff\n  and\n    /* \"contracts/cp/GuessTheNumber.sol\":343:393  IGuessTheNumber instance = IGuessTheNumber(target) */\n  0x01\n  exp(0x0100, 0x00)\n  dup2\n  sload\n  dup2\n  0xffffffffffffffffffffffffffffffffffffffff\n  mul\n  not\n  and\n  swap1\n  dup4\n  0xffffffffffffffffffffffffffffffffffffffff\n  and\n  mul\n  or\n  swap1\n  sstore\n  pop\n    /* \"contracts/cp/GuessTheNumber.sol\":241:565  contract SolutionGuessTheNumber{... */\n  callvalue\n  dup1\n  iszero\n  tag_1\n  jumpi\n  0x00\n  dup1\n  revert\ntag_1:\n  pop\n  dataSize(sub_0)\n  dup1\n  dataOffset(sub_0)\n  0x00\n  codecopy\n  0x00\n  return\nstop\n\nsub_0: assembly {\n        /* \"contracts/cp/GuessTheNumber.sol\":241:565  contract SolutionGuessTheNumber{... */\n      mstore(0x40, 0x80)\n      callvalue\n      dup1\n      iszero\n      tag_1\n      jumpi\n      0x00\n      dup1\n      revert\n    tag_1:\n      pop\n      jumpi(tag_2, lt(calldatasize, 0x04))\n      shr(0xe0, calldataload(0x00))\n      dup1\n      0x4ba4c16b\n      eq\n      tag_3\n      jumpi\n      dup1\n      0x61c7e6c8\n      eq\n      tag_4\n      jumpi\n    tag_2:\n      0x00\n      dup1\n      revert\n        /* \"contracts/cp/GuessTheNumber.sol\":497:562  function guess(uint8 n) public {... */\n    tag_3:\n      tag_5\n      0x04\n      dup1\n      calldatasize\n      sub\n      dup2\n      add\n      swap1\n      tag_6\n      swap2\n      swap1\n      tag_7\n      jump\t// in\n    tag_6:\n      tag_8\n      jump\t// in\n    tag_5:\n      stop\n        /* \"contracts/cp/GuessTheNumber.sol\":400:491  function askComplete() public  returns (bool) {... */\n    tag_4:\n      tag_9\n      tag_10\n      jump\t// in\n    tag_9:\n      mload(0x40)\n      tag_11\n      swap2\n      swap1\n      tag_12\n      jump\t// in\n    tag_11:\n      mload(0x40)\n      dup1\n      swap2\n      sub\n      swap1\n      return\n        /* \"contracts/cp/GuessTheNumber.sol\":497:562  function guess(uint8 n) public {... */\n    tag_8:\n        /* \"contracts/cp/GuessTheNumber.sol\":538:546  instance */\n      0x01\n      0x00\n      swap1\n      sload\n      swap1\n      0x0100\n      exp\n      swap1\n      div\n      0xffffffffffffffffffffffffffffffffffffffff\n      and\n        /* \"contracts/cp/GuessTheNumber.sol\":538:552  instance.guess */\n      0xffffffffffffffffffffffffffffffffffffffff\n      and\n      0x4ba4c16b\n        /* \"contracts/cp/GuessTheNumber.sol\":553:554  n */\n      dup3\n        /* \"contracts/cp/GuessTheNumber.sol\":538:555  instance.guess(n) */\n      mload(0x40)\n      dup3\n      0xffffffff\n      and\n      0xe0\n      shl\n      dup2\n      mstore\n      0x04\n      add\n      tag_14\n      swap2\n      swap1\n      tag_15\n      jump\t// in\n    tag_14:\n      0x00\n      mload(0x40)\n      dup1\n      dup4\n      sub\n      dup2\n      0x00\n      dup8\n      dup1\n      extcodesize\n      iszero\n      dup1\n      iszero\n      tag_16\n      jumpi\n      0x00\n      dup1\n      revert\n    tag_16:\n      pop\n      gas\n      call\n      iszero\n      dup1\n      iszero\n      tag_18\n      jumpi\n      returndatasize\n      0x00\n      dup1\n      returndatacopy\n      revert(0x00, returndatasize)\n    tag_18:\n      pop\n      pop\n      pop\n      pop\n        /* \"contracts/cp/GuessTheNumber.sol\":497:562  function guess(uint8 n) public {... */\n      pop\n      jump\t// out\n        /* \"contracts/cp/GuessTheNumber.sol\":400:491  function askComplete() public  returns (bool) {... */\n    tag_10:\n        /* \"contracts/cp/GuessTheNumber.sol\":440:444  bool */\n      0x00\n        /* \"contracts/cp/GuessTheNumber.sol\":463:471  instance */\n      0x01\n      0x00\n      swap1\n      sload\n      swap1\n      0x0100\n      exp\n      swap1\n      div\n      0xffffffffffffffffffffffffffffffffffffffff\n      and\n        /* \"contracts/cp/GuessTheNumber.sol\":463:482  instance.isComplete */\n      0xffffffffffffffffffffffffffffffffffffffff\n      and\n      0xb2fa1c9e\n        /* \"contracts/cp/GuessTheNumber.sol\":463:484  instance.isComplete() */\n      mload(0x40)\n      dup2\n      0xffffffff\n      and\n      0xe0\n      shl\n      dup2\n      mstore\n      0x04\n      add\n      0x20\n      mload(0x40)\n      dup1\n      dup4\n      sub\n      dup2\n      0x00\n      dup8\n      gas\n      call\n      iszero\n      dup1\n      iszero\n      tag_21\n      jumpi\n      returndatasize\n      0x00\n      dup1\n      returndatacopy\n      revert(0x00, returndatasize)\n    tag_21:\n      pop\n      pop\n      pop\n      pop\n      mload(0x40)\n      returndatasize\n      not(0x1f)\n      0x1f\n      dup3\n      add\n      and\n      dup3\n      add\n      dup1\n      0x40\n      mstore\n      pop\n      dup2\n      add\n      swap1\n      tag_22\n      swap2\n      swap1\n      tag_23\n      jump\t// in\n    tag_22:\n        /* \"contracts/cp/GuessTheNumber.sol\":456:484  return instance.isComplete() */\n      swap1\n      pop\n        /* \"contracts/cp/GuessTheNumber.sol\":400:491  function askComplete() public  returns (bool) {... */\n      swap1\n      jump\t// out\n        /* \"#utility.yul\":88:205   */\n    tag_25:\n        /* \"#utility.yul\":197:198   */\n      0x00\n        /* \"#utility.yul\":194:195   */\n      dup1\n        /* \"#utility.yul\":187:199   */\n      revert\n        /* \"#utility.yul\":334:420   */\n    tag_27:\n        /* \"#utility.yul\":369:376   */\n      0x00\n        /* \"#utility.yul\":409:413   */\n      0xff\n        /* \"#utility.yul\":402:407   */\n      dup3\n        /* \"#utility.yul\":398:414   */\n      and\n        /* \"#utility.yul\":387:414   */\n      swap1\n      pop\n        /* \"#utility.yul\":334:420   */\n      swap2\n      swap1\n      pop\n      jump\t// out\n        /* \"#utility.yul\":426:544   */\n    tag_28:\n        /* \"#utility.yul\":497:519   */\n      tag_41\n        /* \"#utility.yul\":513:518   */\n      dup2\n        /* \"#utility.yul\":497:519   */\n      tag_27\n      jump\t// in\n    tag_41:\n        /* \"#utility.yul\":490:495   */\n      dup2\n        /* \"#utility.yul\":487:520   */\n      eq\n        /* \"#utility.yul\":477:538   */\n      tag_42\n      jumpi\n        /* \"#utility.yul\":534:535   */\n      0x00\n        /* \"#utility.yul\":531:532   */\n      dup1\n        /* \"#utility.yul\":524:536   */\n      revert\n        /* \"#utility.yul\":477:538   */\n    tag_42:\n        /* \"#utility.yul\":426:544   */\n      pop\n      jump\t// out\n        /* \"#utility.yul\":550:685   */\n    tag_29:\n        /* \"#utility.yul\":594:599   */\n      0x00\n        /* \"#utility.yul\":632:638   */\n      dup2\n        /* \"#utility.yul\":619:639   */\n      calldataload\n        /* \"#utility.yul\":610:639   */\n      swap1\n      pop\n        /* \"#utility.yul\":648:679   */\n      tag_44\n        /* \"#utility.yul\":673:678   */\n      dup2\n        /* \"#utility.yul\":648:679   */\n      tag_28\n      jump\t// in\n    tag_44:\n        /* \"#utility.yul\":550:685   */\n      swap3\n      swap2\n      pop\n      pop\n      jump\t// out\n        /* \"#utility.yul\":691:1016   */\n    tag_7:\n        /* \"#utility.yul\":748:754   */\n      0x00\n        /* \"#utility.yul\":797:799   */\n      0x20\n        /* \"#utility.yul\":785:794   */\n      dup3\n        /* \"#utility.yul\":776:783   */\n      dup5\n        /* \"#utility.yul\":772:795   */\n      sub\n        /* \"#utility.yul\":768:800   */\n      slt\n        /* \"#utility.yul\":765:884   */\n      iszero\n      tag_46\n      jumpi\n        /* \"#utility.yul\":803:882   */\n      tag_47\n      tag_25\n      jump\t// in\n    tag_47:\n        /* \"#utility.yul\":765:884   */\n    tag_46:\n        /* \"#utility.yul\":923:924   */\n      0x00\n        /* \"#utility.yul\":948:999   */\n      tag_48\n        /* \"#utility.yul\":991:998   */\n      dup5\n        /* \"#utility.yul\":982:988   */\n      dup3\n        /* \"#utility.yul\":971:980   */\n      dup6\n        /* \"#utility.yul\":967:989   */\n      add\n        /* \"#utility.yul\":948:999   */\n      tag_29\n      jump\t// in\n    tag_48:\n        /* \"#utility.yul\":938:999   */\n      swap2\n      pop\n        /* \"#utility.yul\":894:1009   */\n      pop\n        /* \"#utility.yul\":691:1016   */\n      swap3\n      swap2\n      pop\n      pop\n      jump\t// out\n        /* \"#utility.yul\":1022:1112   */\n    tag_30:\n        /* \"#utility.yul\":1056:1063   */\n      0x00\n        /* \"#utility.yul\":1099:1104   */\n      dup2\n        /* \"#utility.yul\":1092:1105   */\n      iszero\n        /* \"#utility.yul\":1085:1106   */\n      iszero\n        /* \"#utility.yul\":1074:1106   */\n      swap1\n      pop\n        /* \"#utility.yul\":1022:1112   */\n      swap2\n      swap1\n      pop\n      jump\t// out\n        /* \"#utility.yul\":1118:1227   */\n    tag_31:\n        /* \"#utility.yul\":1199:1220   */\n      tag_51\n        /* \"#utility.yul\":1214:1219   */\n      dup2\n        /* \"#utility.yul\":1199:1220   */\n      tag_30\n      jump\t// in\n    tag_51:\n        /* \"#utility.yul\":1194:1197   */\n      dup3\n        /* \"#utility.yul\":1187:1221   */\n      mstore\n        /* \"#utility.yul\":1118:1227   */\n      pop\n      pop\n      jump\t// out\n        /* \"#utility.yul\":1233:1443   */\n    tag_12:\n        /* \"#utility.yul\":1320:1324   */\n      0x00\n        /* \"#utility.yul\":1358:1360   */\n      0x20\n        /* \"#utility.yul\":1347:1356   */\n      dup3\n        /* \"#utility.yul\":1343:1361   */\n      add\n        /* \"#utility.yul\":1335:1361   */\n      swap1\n      pop\n        /* \"#utility.yul\":1371:1436   */\n      tag_53\n        /* \"#utility.yul\":1433:1434   */\n      0x00\n        /* \"#utility.yul\":1422:1431   */\n      dup4\n        /* \"#utility.yul\":1418:1435   */\n      add\n        /* \"#utility.yul\":1409:1415   */\n      dup5\n        /* \"#utility.yul\":1371:1436   */\n      tag_31\n      jump\t// in\n    tag_53:\n        /* \"#utility.yul\":1233:1443   */\n      swap3\n      swap2\n      pop\n      pop\n      jump\t// out\n        /* \"#utility.yul\":1449:1561   */\n    tag_32:\n        /* \"#utility.yul\":1532:1554   */\n      tag_55\n        /* \"#utility.yul\":1548:1553   */\n      dup2\n        /* \"#utility.yul\":1532:1554   */\n      tag_27\n      jump\t// in\n    tag_55:\n        /* \"#utility.yul\":1527:1530   */\n      dup3\n        /* \"#utility.yul\":1520:1555   */\n      mstore\n        /* \"#utility.yul\":1449:1561   */\n      pop\n      pop\n      jump\t// out\n        /* \"#utility.yul\":1567:1781   */\n    tag_15:\n        /* \"#utility.yul\":1656:1660   */\n      0x00\n        /* \"#utility.yul\":1694:1696   */\n      0x20\n        /* \"#utility.yul\":1683:1692   */\n      dup3\n        /* \"#utility.yul\":1679:1697   */\n      add\n        /* \"#utility.yul\":1671:1697   */\n      swap1\n      pop\n        /* \"#utility.yul\":1707:1774   */\n      tag_57\n        /* \"#utility.yul\":1771:1772   */\n      0x00\n        /* \"#utility.yul\":1760:1769   */\n      dup4\n        /* \"#utility.yul\":1756:1773   */\n      add\n        /* \"#utility.yul\":1747:1753   */\n      dup5\n        /* \"#utility.yul\":1707:1774   */\n      tag_32\n      jump\t// in\n    tag_57:\n        /* \"#utility.yul\":1567:1781   */\n      swap3\n      swap2\n      pop\n      pop\n      jump\t// out\n        /* \"#utility.yul\":1787:1903   */\n    tag_33:\n        /* \"#utility.yul\":1857:1878   */\n      tag_59\n        /* \"#utility.yul\":1872:1877   */\n      dup2\n        /* \"#utility.yul\":1857:1878   */\n      tag_30\n      jump\t// in\n    tag_59:\n        /* \"#utility.yul\":1850:1855   */\n      dup2\n        /* \"#utility.yul\":1847:1879   */\n      eq\n        /* \"#utility.yul\":1837:1897   */\n      tag_60\n      jumpi\n        /* \"#utility.yul\":1893:1894   */\n      0x00\n        /* \"#utility.yul\":1890:1891   */\n      dup1\n        /* \"#utility.yul\":1883:1895   */\n      revert\n        /* \"#utility.yul\":1837:1897   */\n    tag_60:\n        /* \"#utility.yul\":1787:1903   */\n      pop\n      jump\t// out\n        /* \"#utility.yul\":1909:2046   */\n    tag_34:\n        /* \"#utility.yul\":1963:1968   */\n      0x00\n        /* \"#utility.yul\":1994:2000   */\n      dup2\n        /* \"#utility.yul\":1988:2001   */\n      mload\n        /* \"#utility.yul\":1979:2001   */\n      swap1\n      pop\n        /* \"#utility.yul\":2010:2040   */\n      tag_62\n        /* \"#utility.yul\":2034:2039   */\n      dup2\n        /* \"#utility.yul\":2010:2040   */\n      tag_33\n      jump\t// in\n    tag_62:\n        /* \"#utility.yul\":1909:2046   */\n      swap3\n      swap2\n      pop\n      pop\n      jump\t// out\n        /* \"#utility.yul\":2052:2397   */\n    tag_23:\n        /* \"#utility.yul\":2119:2125   */\n      0x00\n        /* \"#utility.yul\":2168:2170   */\n      0x20\n        /* \"#utility.yul\":2156:2165   */\n      dup3\n        /* \"#utility.yul\":2147:2154   */\n      dup5\n        /* \"#utility.yul\":2143:2166   */\n      sub\n        /* \"#utility.yul\":2139:2171   */\n      slt\n        /* \"#utility.yul\":2136:2255   */\n      iszero\n      tag_64\n      jumpi\n        /* \"#utility.yul\":2174:2253   */\n      tag_65\n      tag_25\n      jump\t// in\n    tag_65:\n        /* \"#utility.yul\":2136:2255   */\n    tag_64:\n        /* \"#utility.yul\":2294:2295   */\n      0x00\n        /* \"#utility.yul\":2319:2380   */\n      tag_66\n        /* \"#utility.yul\":2372:2379   */\n      dup5\n        /* \"#utility.yul\":2363:2369   */\n      dup3\n        /* \"#utility.yul\":2352:2361   */\n      dup6\n        /* \"#utility.yul\":2348:2370   */\n      add\n        /* \"#utility.yul\":2319:2380   */\n      tag_34\n      jump\t// in\n    tag_66:\n        /* \"#utility.yul\":2309:2380   */\n      swap2\n      pop\n        /* \"#utility.yul\":2265:2390   */\n      pop\n        /* \"#utility.yul\":2052:2397   */\n      swap3\n      swap2\n      pop\n      pop\n      jump\t// out\n\n    auxdata: 0xa2646970667358221220dcca7735aa1e8557220628f45b85665b792891591a3808d552292533cf290e3b64736f6c634300080d0033\n}\n",
				"bytecode": {
					"linkReferences": {},
					"object": "608060405273a361754cc42f718204d8e2266dfcdade004c2b9e6000806101000a81548173ffffffffffffffffffffffffffffffffffffffff021916908373ffffffffffffffffffffffffffffffffffffffff16021790555060008054906101000a900473ffffffffffffffffffffffffffffffffffffffff16600160006101000a81548173ffffffffffffffffffffffffffffffffffffffff021916908373ffffffffffffffffffffffffffffffffffffffff1602179055503480156100c557600080fd5b506102f9806100d56000396000f3fe608060405234801561001057600080fd5b50600436106100365760003560e01c80634ba4c16b1461003b57806361c7e6c814610057575b600080fd5b610055600480360381019061005091906101dd565b610075565b005b61005f610105565b60405161006c9190610225565b60405180910390f35b600160009054906101000a900473ffffffffffffffffffffffffffffffffffffffff1673ffffffffffffffffffffffffffffffffffffffff16634ba4c16b826040518263ffffffff1660e01b81526004016100d0919061024f565b600060405180830381600087803b1580156100ea57600080fd5b505af11580156100fe573d6000803e3d6000fd5b5050505050565b6000600160009054906101000a900473ffffffffffffffffffffffffffffffffffffffff1673ffffffffffffffffffffffffffffffffffffffff1663b2fa1c9e6040518163ffffffff1660e01b81526004016020604051808303816000875af1158015610176573d6000803e3d6000fd5b505050506040513d601f19601f8201168201806040525081019061019a9190610296565b905090565b600080fd5b600060ff82169050919050565b6101ba816101a4565b81146101c557600080fd5b50565b6000813590506101d7816101b1565b92915050565b6000602082840312156101f3576101f261019f565b5b6000610201848285016101c8565b91505092915050565b60008115159050919050565b61021f8161020a565b82525050565b600060208201905061023a6000830184610216565b92915050565b610249816101a4565b82525050565b60006020820190506102646000830184610240565b92915050565b6102738161020a565b811461027e57600080fd5b50565b6000815190506102908161026a565b92915050565b6000602082840312156102ac576102ab61019f565b5b60006102ba84828501610281565b9150509291505056fea2646970667358221220dcca7735aa1e8557220628f45b85665b792891591a3808d552292533cf290e3b64736f6c634300080d0033",
					"opcodes": "PUSH1 0x80 PUSH1 0x40 MSTORE PUSH20 0xA361754CC42F718204D8E2266DFCDADE004C2B9E PUSH1 0x0 DUP1 PUSH2 0x100 EXP DUP2 SLOAD DUP2 PUSH20 0xFFFFFFFFFFFFFFFFFFFFFFFFFFFFFFFFFFFFFFFF MUL NOT AND SWAP1 DUP4 PUSH20 0xFFFFFFFFFFFFFFFFFFFFFFFFFFFFFFFFFFFFFFFF AND MUL OR SWAP1 SSTORE POP PUSH1 0x0 DUP1 SLOAD SWAP1 PUSH2 0x100 EXP SWAP1 DIV PUSH20 0xFFFFFFFFFFFFFFFFFFFFFFFFFFFFFFFFFFFFFFFF AND PUSH1 0x1 PUSH1 0x0 PUSH2 0x100 EXP DUP2 SLOAD DUP2 PUSH20 0xFFFFFFFFFFFFFFFFFFFFFFFFFFFFFFFFFFFFFFFF MUL NOT AND SWAP1 DUP4 PUSH20 0xFFFFFFFFFFFFFFFFFFFFFFFFFFFFFFFFFFFFFFFF AND MUL OR SWAP1 SSTORE POP CALLVALUE DUP1 ISZERO PUSH2 0xC5 JUMPI PUSH1 0x0 DUP1 REVERT JUMPDEST POP PUSH2 0x2F9 DUP1 PUSH2 0xD5 PUSH1 0x0 CODECOPY PUSH1 0x0 RETURN INVALID PUSH1 0x80 PUSH1 0x40 MSTORE CALLVALUE DUP1 ISZERO PUSH2 0x10 JUMPI PUSH1 0x0 DUP1 REVERT JUMPDEST POP PUSH1 0x4 CALLDATASIZE LT PUSH2 0x36 JUMPI PUSH1 0x0 CALLDATALOAD PUSH1 0xE0 SHR DUP1 PUSH4 0x4BA4C16B EQ PUSH2 0x3B JUMPI DUP1 PUSH4 0x61C7E6C8 EQ PUSH2 0x57 JUMPI JUMPDEST PUSH1 0x0 DUP1 REVERT JUMPDEST PUSH2 0x55 PUSH1 0x4 DUP1 CALLDATASIZE SUB DUP2 ADD SWAP1 PUSH2 0x50 SWAP2 SWAP1 PUSH2 0x1DD JUMP JUMPDEST PUSH2 0x75 JUMP JUMPDEST STOP JUMPDEST PUSH2 0x5F PUSH2 0x105 JUMP JUMPDEST PUSH1 0x40 MLOAD PUSH2 0x6C SWAP2 SWAP1 PUSH2 0x225 JUMP JUMPDEST PUSH1 0x40 MLOAD DUP1 SWAP2 SUB SWAP1 RETURN JUMPDEST PUSH1 0x1 PUSH1 0x0 SWAP1 SLOAD SWAP1 PUSH2 0x100 EXP SWAP1 DIV PUSH20 0xFFFFFFFFFFFFFFFFFFFFFFFFFFFFFFFFFFFFFFFF AND PUSH20 0xFFFFFFFFFFFFFFFFFFFFFFFFFFFFFFFFFFFFFFFF AND PUSH4 0x4BA4C16B DUP3 PUSH1 0x40 MLOAD DUP3 PUSH4 0xFFFFFFFF AND PUSH1 0xE0 SHL DUP2 MSTORE PUSH1 0x4 ADD PUSH2 0xD0 SWAP2 SWAP1 PUSH2 0x24F JUMP JUMPDEST PUSH1 0x0 PUSH1 0x40 MLOAD DUP1 DUP4 SUB DUP2 PUSH1 0x0 DUP8 DUP1 EXTCODESIZE ISZERO DUP1 ISZERO PUSH2 0xEA JUMPI PUSH1 0x0 DUP1 REVERT JUMPDEST POP GAS CALL ISZERO DUP1 ISZERO PUSH2 0xFE JUMPI RETURNDATASIZE PUSH1 0x0 DUP1 RETURNDATACOPY RETURNDATASIZE PUSH1 0x0 REVERT JUMPDEST POP POP POP POP POP JUMP JUMPDEST PUSH1 0x0 PUSH1 0x1 PUSH1 0x0 SWAP1 SLOAD SWAP1 PUSH2 0x100 EXP SWAP1 DIV PUSH20 0xFFFFFFFFFFFFFFFFFFFFFFFFFFFFFFFFFFFFFFFF AND PUSH20 0xFFFFFFFFFFFFFFFFFFFFFFFFFFFFFFFFFFFFFFFF AND PUSH4 0xB2FA1C9E PUSH1 0x40 MLOAD DUP2 PUSH4 0xFFFFFFFF AND PUSH1 0xE0 SHL DUP2 MSTORE PUSH1 0x4 ADD PUSH1 0x20 PUSH1 0x40 MLOAD DUP1 DUP4 SUB DUP2 PUSH1 0x0 DUP8 GAS CALL ISZERO DUP1 ISZERO PUSH2 0x176 JUMPI RETURNDATASIZE PUSH1 0x0 DUP1 RETURNDATACOPY RETURNDATASIZE PUSH1 0x0 REVERT JUMPDEST POP POP POP POP PUSH1 0x40 MLOAD RETURNDATASIZE PUSH1 0x1F NOT PUSH1 0x1F DUP3 ADD AND DUP3 ADD DUP1 PUSH1 0x40 MSTORE POP DUP2 ADD SWAP1 PUSH2 0x19A SWAP2 SWAP1 PUSH2 0x296 JUMP JUMPDEST SWAP1 POP SWAP1 JUMP JUMPDEST PUSH1 0x0 DUP1 REVERT JUMPDEST PUSH1 0x0 PUSH1 0xFF DUP3 AND SWAP1 POP SWAP2 SWAP1 POP JUMP JUMPDEST PUSH2 0x1BA DUP2 PUSH2 0x1A4 JUMP JUMPDEST DUP2 EQ PUSH2 0x1C5 JUMPI PUSH1 0x0 DUP1 REVERT JUMPDEST POP JUMP JUMPDEST PUSH1 0x0 DUP2 CALLDATALOAD SWAP1 POP PUSH2 0x1D7 DUP2 PUSH2 0x1B1 JUMP JUMPDEST SWAP3 SWAP2 POP POP JUMP JUMPDEST PUSH1 0x0 PUSH1 0x20 DUP3 DUP5 SUB SLT ISZERO PUSH2 0x1F3 JUMPI PUSH2 0x1F2 PUSH2 0x19F JUMP JUMPDEST JUMPDEST PUSH1 0x0 PUSH2 0x201 DUP5 DUP3 DUP6 ADD PUSH2 0x1C8 JUMP JUMPDEST SWAP2 POP POP SWAP3 SWAP2 POP POP JUMP JUMPDEST PUSH1 0x0 DUP2 ISZERO ISZERO SWAP1 POP SWAP2 SWAP1 POP JUMP JUMPDEST PUSH2 0x21F DUP2 PUSH2 0x20A JUMP JUMPDEST DUP3 MSTORE POP POP JUMP JUMPDEST PUSH1 0x0 PUSH1 0x20 DUP3 ADD SWAP1 POP PUSH2 0x23A PUSH1 0x0 DUP4 ADD DUP5 PUSH2 0x216 JUMP JUMPDEST SWAP3 SWAP2 POP POP JUMP JUMPDEST PUSH2 0x249 DUP2 PUSH2 0x1A4 JUMP JUMPDEST DUP3 MSTORE POP POP JUMP JUMPDEST PUSH1 0x0 PUSH1 0x20 DUP3 ADD SWAP1 POP PUSH2 0x264 PUSH1 0x0 DUP4 ADD DUP5 PUSH2 0x240 JUMP JUMPDEST SWAP3 SWAP2 POP POP JUMP JUMPDEST PUSH2 0x273 DUP2 PUSH2 0x20A JUMP JUMPDEST DUP2 EQ PUSH2 0x27E JUMPI PUSH1 0x0 DUP1 REVERT JUMPDEST POP JUMP JUMPDEST PUSH1 0x0 DUP2 MLOAD SWAP1 POP PUSH2 0x290 DUP2 PUSH2 0x26A JUMP JUMPDEST SWAP3 SWAP2 POP POP JUMP JUMPDEST PUSH1 0x0 PUSH1 0x20 DUP3 DUP5 SUB SLT ISZERO PUSH2 0x2AC JUMPI PUSH2 0x2AB PUSH2 0x19F JUMP JUMPDEST JUMPDEST PUSH1 0x0 PUSH2 0x2BA DUP5 DUP3 DUP6 ADD PUSH2 0x281 JUMP JUMPDEST SWAP2 POP POP SWAP3 SWAP2 POP POP JUMP INVALID LOG2 PUSH5 0x6970667358 0x22 SLT KECCAK256 0xDC 0xCA PUSH24 0x35AA1E8557220628F45B85665B792891591A3808D5522925 CALLER 0xCF 0x29 0xE EXTCODESIZE PUSH5 0x736F6C6343 STOP ADDMOD 0xD STOP CALLER "
				},
				"gasEstimates": {
					"creation": {
						"codeDepositCost": "152200",
						"executionCost": "50863",
						"totalCost": "203063"
					},
					"external": {
						"askComplete()": "infinite",
						"guess(uint8)": "infinite"
					}
				},
				"methodIdentifiers": {
					"askComplete()": "61c7e6c8",
					"guess(uint8)": "4ba4c16b"
				}
			},
			"storageLayout": {
				"storage": [
					{
						"astId": 18,
						"contract": "contracts/cp/GuessTheNumber.sol:SolutionGuessTheNumber",
						"label": "target",
						"offset": 0,
						"slot": "0",
						"type": "t_address"
					},
					{
						"astId": 24,
						"contract": "contracts/cp/GuessTheNumber.sol:SolutionGuessTheNumber",
						"label": "instance",
						"offset": 0,
						"slot": "1",
						"type": "t_contract(IGuessTheNumber)15"
					}
				],
				"types": {
					"t_address": {
						"encoding": "inplace",
						"label": "address",
						"numberOfBytes": "20"
					},
					"t_contract(IGuessTheNumber)15": {
						"encoding": "inplace",
						"label": "contract IGuessTheNumber",
						"numberOfBytes": "20"
					}
				}
			},
			"userdoc": {
				"kind": "user",
				"methods": {},
				"version": 1
			}
		}
	}
}