{
	"data": {
		"bytecode": {
			"linkReferences": {},
			"object": "60a06040523073ffffffffffffffffffffffffffffffffffffffff1660809073ffffffffffffffffffffffffffffffffffffffff168152503480156200004457600080fd5b5060008060019054906101000a900460ff16159050808015620000775750600160008054906101000a900460ff1660ff16105b80620000b3575062000094306200019660201b62002e431760201c565b158015620000b25750600160008054906101000a900460ff1660ff16145b5b620000f5576040517f08c379a0000000000000000000000000000000000000000000000000000000008152600401620000ec9062000240565b60405180910390fd5b60016000806101000a81548160ff021916908360ff160217905550801562000133576001600060016101000a81548160ff0219169083151502179055505b80156200018f5760008060016101000a81548160ff0219169083151502179055507f7f26b83ff96e1f2b6a682f133852f6798a09c465da95921460cefb38474024986001604051620001869190620002bc565b60405180910390a15b50620002d9565b6000808273ffffffffffffffffffffffffffffffffffffffff163b119050919050565b600082825260208201905092915050565b7f496e697469616c697a61626c653a20636f6e747261637420697320616c72656160008201527f647920696e697469616c697a6564000000000000000000000000000000000000602082015250565b600062000228602e83620001b9565b91506200023582620001ca565b604082019050919050565b600060208201905081810360008301526200025b8162000219565b9050919050565b6000819050919050565b600060ff82169050919050565b6000819050919050565b6000620002a46200029e620002988462000262565b62000279565b6200026c565b9050919050565b620002b68162000283565b82525050565b6000602082019050620002d36000830184620002ab565b92915050565b608051618e6d6200031160003960008181611365015281816113f301528181611860015281816118ee015261199e0152618e6d6000f3fe60806040526004361061036f5760003560e01c80636817c76c116101c6578063a75d961e116100f7578063d6bfc22f11610095578063e63ab1e91161006f578063e63ab1e914610d00578063e985e9c514610d2b578063f4a0a52814610d68578063f72c0d8b14610d9157610376565b8063d6bfc22f14610c83578063dab45bbd14610cae578063dc8e92ea14610cd757610376565b8063c3cda520116100d1578063c3cda52014610bc9578063c87b56dd14610bf2578063d539139314610c2f578063d547741f14610c5a57610376565b8063a75d961e14610b3a578063b88d4fde14610b63578063c0da9bcd14610b8c57610376565b806391d1485411610164578063990711901161013e5780639907119014610a8d5780639ab24eb014610aa9578063a217fddf14610ae6578063a22cb46514610b1157610376565b806391d14854146109fa57806392ff0d3114610a3757806395d89b4114610a6257610376565b8063726b83b6116101a0578063726b83b61461091857806372b1d8cf146109435780637ecebe00146109805780638e539e8c146109bd57610376565b80636817c76c146108875780636c4a4149146108b257806370a08231146108db57610376565b80633c683cff116102a057806354fd4d501161023e5780635c19a95c116102185780635c19a95c146107cb5780635c975abb146107f457806361b8ce8c1461081f5780636352211e1461084a57610376565b806354fd4d501461073a578063587cde1e14610765578063591e4065146107a257610376565b806342966c681161027a57806342966c681461069f5780634bf365df146106c85780634f1ef286146106f357806352d1902d1461070f57610376565b80633c683cff146106225780633ccfd60b1461065f57806342842e0e1461067657610376565b806323bd4d7a1161030d5780633644e515116102e75780633644e5151461056857806336568abe146105935780633659cfe6146105bc5780633a46b1a8146105e557610376565b806323bd4d7a146104d7578063248a9ca3146105025780632f2ff15d1461053f57610376565b8063095ea7b311610349578063095ea7b31461041d57806314afba3b146104465780631620245d1461047157806323b872dd146104ae57610376565b806301ffc9a71461037857806306fdde03146103b5578063081812fc146103e057610376565b3661037657005b005b34801561038457600080fd5b5061039f600480360381019061039a9190615a86565b610dbc565b6040516103ac9190615ace565b60405180910390f35b3480156103c157600080fd5b506103ca610dce565b6040516103d79190615b82565b60405180910390f35b3480156103ec57600080fd5b5061040760048036038101906104029190615bda565b610e60565b6040516104149190615c48565b60405180910390f35b34801561042957600080fd5b50610444600480360381019061043f9190615c8f565b610ea6565b005b34801561045257600080fd5b5061045b61100b565b6040516104689190615b82565b60405180910390f35b34801561047d57600080fd5b5061049860048036038101906104939190615bda565b61109e565b6040516104a59190615b82565b60405180910390f35b3480156104ba57600080fd5b506104d560048036038101906104d09190615ccf565b611147565b005b3480156104e357600080fd5b506104ec6111fd565b6040516104f99190615b82565b60405180910390f35b34801561050e57600080fd5b5061052960048036038101906105249190615d58565b611290565b6040516105369190615d94565b60405180910390f35b34801561054b57600080fd5b5061056660048036038101906105619190615daf565b6112b0565b005b34801561057457600080fd5b5061057d6112d1565b60405161058a9190615d94565b60405180910390f35b34801561059f57600080fd5b506105ba60048036038101906105b59190615daf565b6112e0565b005b3480156105c857600080fd5b506105e360048036038101906105de9190615def565b611363565b005b3480156105f157600080fd5b5061060c60048036038101906106079190615c8f565b6114eb565b6040516106199190615e2b565b60405180910390f35b34801561062e57600080fd5b5061064960048036038101906106449190615bda565b611546565b6040516106569190615c48565b60405180910390f35b34801561066b57600080fd5b50610674611584565b005b34801561068257600080fd5b5061069d60048036038101906106989190615ccf565b6116d8565b005b3480156106ab57600080fd5b506106c660048036038101906106c19190615bda565b6116f8565b005b3480156106d457600080fd5b506106dd611846565b6040516106ea9190615ace565b60405180910390f35b61070d60048036038101906107089190615f7b565b61185e565b005b34801561071b57600080fd5b5061072461199a565b6040516107319190615d94565b60405180910390f35b34801561074657600080fd5b5061074f611a53565b60405161075c9190615e2b565b60405180910390f35b34801561077157600080fd5b5061078c60048036038101906107879190615def565b611a5c565b6040516107999190615c48565b60405180910390f35b3480156107ae57600080fd5b506107c960048036038101906107c491906160a4565b611ac5565b005b3480156107d757600080fd5b506107f260048036038101906107ed9190615def565b611db3565b005b34801561080057600080fd5b50610809611dcd565b6040516108169190615ace565b60405180910390f35b34801561082b57600080fd5b50610834611de5565b6040516108419190615e2b565b60405180910390f35b34801561085657600080fd5b50610871600480360381019061086c9190615bda565b611df7565b60405161087e9190615c48565b60405180910390f35b34801561089357600080fd5b5061089c611ea8565b6040516108a99190615e2b565b60405180910390f35b3480156108be57600080fd5b506108d960048036038101906108d491906161ca565b611eb3565b005b3480156108e757600080fd5b5061090260048036038101906108fd9190615def565b611ef9565b60405161090f9190615e2b565b60405180910390f35b34801561092457600080fd5b5061092d611fb0565b60405161093a9190615ace565b60405180910390f35b34801561094f57600080fd5b5061096a60048036038101906109659190615bda565b61208e565b6040516109779190615b82565b60405180910390f35b34801561098c57600080fd5b506109a760048036038101906109a29190615def565b612137565b6040516109b49190615e2b565b60405180910390f35b3480156109c957600080fd5b506109e460048036038101906109df9190615bda565b612188565b6040516109f19190615e2b565b60405180910390f35b348015610a0657600080fd5b50610a216004803603810190610a1c9190615daf565b6121e7565b604051610a2e9190615ace565b60405180910390f35b348015610a4357600080fd5b50610a4c612252565b604051610a599190615ace565b60405180910390f35b348015610a6e57600080fd5b50610a7761226a565b604051610a849190615b82565b60405180910390f35b610aa76004803603810190610aa29190616273565b6122fc565b005b348015610ab557600080fd5b50610ad06004803603810190610acb9190615def565b612576565b604051610add9190615e2b565b60405180910390f35b348015610af257600080fd5b50610afb6125c6565b604051610b089190615d94565b60405180910390f35b348015610b1d57600080fd5b50610b386004803603810190610b339190616308565b6125cd565b005b348015610b4657600080fd5b50610b616004803603810190610b5c9190616348565b6125e3565b005b348015610b6f57600080fd5b50610b8a6004803603810190610b859190616395565b612625565b005b348015610b9857600080fd5b50610bb36004803603810190610bae9190615bda565b6126dd565b604051610bc09190616531565b60405180910390f35b348015610bd557600080fd5b50610bf06004803603810190610beb919061658c565b61277f565b005b348015610bfe57600080fd5b50610c196004803603810190610c149190615bda565b612883565b604051610c269190615b82565b60405180910390f35b348015610c3b57600080fd5b50610c4461294d565b604051610c519190615d94565b60405180910390f35b348015610c6657600080fd5b50610c816004803603810190610c7c9190615daf565b612971565b005b348015610c8f57600080fd5b50610c98612992565b604051610ca59190615ace565b60405180910390f35b348015610cba57600080fd5b50610cd56004803603810190610cd091906166c5565b612a70565b005b348015610ce357600080fd5b50610cfe6004803603810190610cf991906167cf565b612c5d565b005b348015610d0c57600080fd5b50610d15612d31565b604051610d229190615d94565b60405180910390f35b348015610d3757600080fd5b50610d526004803603810190610d4d919061681c565b612d55565b604051610d5f9190615ace565b60405180910390f35b348015610d7457600080fd5b50610d8f6004803603810190610d8a9190615bda565b612de9565b005b348015610d9d57600080fd5b50610da6612e1f565b604051610db39190615d94565b60405180910390f35b6000610dc782612e66565b9050919050565b606060978054610ddd9061688b565b80601f0160208091040260200160405190810160405280929190818152602001828054610e099061688b565b8015610e565780601f10610e2b57610100808354040283529160200191610e56565b820191906000526020600020905b815481529060010190602001808311610e3957829003601f168201915b5050505050905090565b6000610e6b82612f48565b609b600083815260200190815260200160002060009054906101000a900473ffffffffffffffffffffffffffffffffffffffff169050919050565b60011515610eb2612252565b151514610ef4576040517f08c379a0000000000000000000000000000000000000000000000000000000008152600401610eeb90616908565b60405180910390fd5b6000610eff82611df7565b90508073ffffffffffffffffffffffffffffffffffffffff168373ffffffffffffffffffffffffffffffffffffffff1603610f6f576040517f08c379a0000000000000000000000000000000000000000000000000000000008152600401610f669061699a565b60405180910390fd5b8073ffffffffffffffffffffffffffffffffffffffff16610f8e612f93565b73ffffffffffffffffffffffffffffffffffffffff161480610fbd5750610fbc81610fb7612f93565b612d55565b5b610ffc576040517f08c379a0000000000000000000000000000000000000000000000000000000008152600401610ff390616a2c565b60405180910390fd5b6110068383612f9b565b505050565b606061022c805461101b9061688b565b80601f01602080910402602001604051908101604052809291908181526020018280546110479061688b565b80156110945780601f1061106957610100808354040283529160200191611094565b820191906000526020600020905b81548152906001019060200180831161107757829003601f168201915b5050505050905090565b6060610231600083815260200190815260200160002060000180546110c29061688b565b80601f01602080910402602001604051908101604052809291908181526020018280546110ee9061688b565b801561113b5780601f106111105761010080835404028352916020019161113b565b820191906000526020600020905b81548152906001019060200180831161111e57829003601f168201915b50505050509050919050565b60011515611153612252565b151514611195576040517f08c379a000000000000000000000000000000000000000000000000000000000815260040161118c90616908565b60405180910390fd5b61119d613054565b6111ae6111a8612f93565b8261309e565b6111ed576040517f08c379a00000000000000000000000000000000000000000000000000000000081526004016111e490616abe565b60405180910390fd5b6111f8838383613133565b505050565b606061022b805461120d9061688b565b80601f01602080910402602001604051908101604052809291908181526020018280546112399061688b565b80156112865780601f1061125b57610100808354040283529160200191611286565b820191906000526020600020905b81548152906001019060200180831161126957829003601f168201915b5050505050905090565b600060656000838152602001908152602001600020600101549050919050565b6112b982611290565b6112c281613399565b6112cc83836133ad565b505050565b60006112db61348e565b905090565b6112e8612f93565b73ffffffffffffffffffffffffffffffffffffffff168173ffffffffffffffffffffffffffffffffffffffff1614611355576040517f08c379a000000000000000000000000000000000000000000000000000000000815260040161134c90616b50565b60405180910390fd5b61135f82826134ce565b5050565b7f000000000000000000000000000000000000000000000000000000000000000073ffffffffffffffffffffffffffffffffffffffff163073ffffffffffffffffffffffffffffffffffffffff16036113f1576040517f08c379a00000000000000000000000000000000000000000000000000000000081526004016113e890616be2565b60405180910390fd5b7f000000000000000000000000000000000000000000000000000000000000000073ffffffffffffffffffffffffffffffffffffffff166114306135b0565b73ffffffffffffffffffffffffffffffffffffffff1614611486576040517f08c379a000000000000000000000000000000000000000000000000000000000815260040161147d90616c74565b60405180910390fd5b61148f81613607565b6114e881600067ffffffffffffffff8111156114ae576114ad615e50565b5b6040519080825280601f01601f1916602001820160405280156114e05781602001600182028036833780820191505090505b506000613673565b50565b600061153e8260fe60008673ffffffffffffffffffffffffffffffffffffffff1673ffffffffffffffffffffffffffffffffffffffff1681526020019081526020016000206137e190919063ffffffff16565b905092915050565b6000610232600083815260200190815260200160002060009054906101000a900473ffffffffffffffffffffffffffffffffffffffff169050919050565b600060016064476115959190616cf2565b61159f9190616d23565b9050600061022a60009054906101000a900473ffffffffffffffffffffffffffffffffffffffff1673ffffffffffffffffffffffffffffffffffffffff16826040516115ea90616dae565b60006040518083038185875af1925050503d8060008114611627576040519150601f19603f3d011682016040523d82523d6000602084013e61162c565b606091505b505090508061163a57600080fd5b600061022f60009054906101000a900473ffffffffffffffffffffffffffffffffffffffff1673ffffffffffffffffffffffffffffffffffffffff164760405161168390616dae565b60006040518083038185875af1925050503d80600081146116c0576040519150601f19603f3d011682016040523d82523d6000602084013e6116c5565b606091505b50509050806116d357600080fd5b505050565b6116f383838360405180602001604052806000815250612625565b505050565b8061170281613939565b611741576040517f08c379a000000000000000000000000000000000000000000000000000000000815260040161173890616e35565b60405180910390fd5b8161174b81613939565b61178a576040517f08c379a000000000000000000000000000000000000000000000000000000000815260040161178190616e35565b60405180910390fd5b61179381611df7565b73ffffffffffffffffffffffffffffffffffffffff166117b1612f93565b73ffffffffffffffffffffffffffffffffffffffff1614806117f957506117f87f9f2df0fed2c77648de5860a4cc508cd0818c85b8b8a1ab4ceeef8d981c8956a6336121e7565b5b611838576040517f08c379a000000000000000000000000000000000000000000000000000000000815260040161182f90616ea1565b60405180910390fd5b611841836139a5565b505050565b600061022d60019054906101000a900460ff16905090565b7f000000000000000000000000000000000000000000000000000000000000000073ffffffffffffffffffffffffffffffffffffffff163073ffffffffffffffffffffffffffffffffffffffff16036118ec576040517f08c379a00000000000000000000000000000000000000000000000000000000081526004016118e390616be2565b60405180910390fd5b7f000000000000000000000000000000000000000000000000000000000000000073ffffffffffffffffffffffffffffffffffffffff1661192b6135b0565b73ffffffffffffffffffffffffffffffffffffffff1614611981576040517f08c379a000000000000000000000000000000000000000000000000000000000815260040161197890616c74565b60405180910390fd5b61198a82613607565b61199682826001613673565b5050565b60007f000000000000000000000000000000000000000000000000000000000000000073ffffffffffffffffffffffffffffffffffffffff163073ffffffffffffffffffffffffffffffffffffffff1614611a2a576040517f08c379a0000000000000000000000000000000000000000000000000000000008152600401611a2190616f33565b60405180910390fd5b7f360894a13ba1a3210667c828492db98dca3e2076cc3735a920a3ca505d382bbc60001b905090565b60006001905090565b600060fd60008373ffffffffffffffffffffffffffffffffffffffff1673ffffffffffffffffffffffffffffffffffffffff16815260200190815260200160002060009054906101000a900473ffffffffffffffffffffffffffffffffffffffff169050919050565b60008060019054906101000a900460ff16159050808015611af65750600160008054906101000a900460ff1660ff16105b80611b235750611b0530612e43565b158015611b225750600160008054906101000a900460ff1660ff16145b5b611b62576040517f08c379a0000000000000000000000000000000000000000000000000000000008152600401611b5990616fc5565b60405180910390fd5b60016000806101000a81548160ff021916908360ff1602179055508015611b9f576001600060016101000a81548160ff0219169083151502179055505b611ba98989613ac2565b611bb1613b1f565b73f4553cde05fa9fc35f8f1b860bac7fa15777938261022a60006101000a81548173ffffffffffffffffffffffffffffffffffffffff021916908373ffffffffffffffffffffffffffffffffffffffff1602179055508661022b9080519060200190611c1e929190615888565b508561022c9080519060200190611c36929190615888565b508461022d60006101000a81548160ff0219169083151502179055508361022d60016101000a81548160ff0219169083151502179055508261022e819055508161022f60006101000a81548173ffffffffffffffffffffffffffffffffffffffff021916908373ffffffffffffffffffffffffffffffffffffffff160217905550611cc46000801b336133ad565b611cee7f189ab7a9244df0848122154315af71fe140f3db0fe014031783b0946b8c9d2e3336133ad565b611cfb6000801b836133ad565b611d257f65d7a28e3265b37a6474929f336521b332c1681b933f6cb9f3376673440d862a836133ad565b611d4f7f9f2df0fed2c77648de5860a4cc508cd0818c85b8b8a1ab4ceeef8d981c8956a6836133ad565b8015611da85760008060016101000a81548160ff0219169083151502179055507f7f26b83ff96e1f2b6a682f133852f6798a09c465da95921460cefb38474024986001604051611d9f919061702a565b60405180910390a15b505050505050505050565b6000611dbd612f93565b9050611dc98183613b70565b5050565b600061019360009054906101000a900460ff16905090565b6000611df2610229613c84565b905090565b6000806099600084815260200190815260200160002060009054906101000a900473ffffffffffffffffffffffffffffffffffffffff169050600073ffffffffffffffffffffffffffffffffffffffff168173ffffffffffffffffffffffffffffffffffffffff1603611e9f576040517f08c379a0000000000000000000000000000000000000000000000000000000008152600401611e9690617091565b60405180910390fd5b80915050919050565b600061022e54905090565b7f9f2df0fed2c77648de5860a4cc508cd0818c85b8b8a1ab4ceeef8d981c8956a6611edd81613399565b8161022c9080519060200190611ef4929190615888565b505050565b60008073ffffffffffffffffffffffffffffffffffffffff168273ffffffffffffffffffffffffffffffffffffffff1603611f69576040517f08c379a0000000000000000000000000000000000000000000000000000000008152600401611f6090617123565b60405180910390fd5b609a60008373ffffffffffffffffffffffffffffffffffffffff1673ffffffffffffffffffffffffffffffffffffffff168152602001908152602001600020549050919050565b60007f9f2df0fed2c77648de5860a4cc508cd0818c85b8b8a1ab4ceeef8d981c8956a6611fdc81613399565b61022d60019054906101000a900460ff161561201357600061022d60016101000a81548160ff021916908315150217905550612030565b600161022d60016101000a81548160ff0219169083151502179055505b7f53cd659204fadcb4e69b0dcc6bbe24499267a1adef5c9e89926f5b4e1973ee6761022d60019054906101000a900460ff1660405161206f9190615ace565b60405180910390a161022d60019054906101000a900460ff1691505090565b6060610231600083815260200190815260200160002060010180546120b29061688b565b80601f01602080910402602001604051908101604052809291908181526020018280546120de9061688b565b801561212b5780601f106121005761010080835404028352916020019161212b565b820191906000526020600020905b81548152906001019060200180831161210e57829003601f168201915b50505050509050919050565b600061218161010060008473ffffffffffffffffffffffffffffffffffffffff1673ffffffffffffffffffffffffffffffffffffffff168152602001908152602001600020613c92565b9050919050565b60004382106121cc576040517f08c379a00000000000000000000000000000000000000000000000000000000081526004016121c39061718f565b60405180910390fd5b6121e08260ff6137e190919063ffffffff16565b9050919050565b60006065600084815260200190815260200160002060000160008373ffffffffffffffffffffffffffffffffffffffff1673ffffffffffffffffffffffffffffffffffffffff16815260200190815260200160002060009054906101000a900460ff16905092915050565b600061022d60009054906101000a900460ff16905090565b6060609880546122799061688b565b80601f01602080910402602001604051908101604052809291908181526020018280546122a59061688b565b80156122f25780601f106122c7576101008083540402835291602001916122f2565b820191906000526020600020905b8154815290600101906020018083116122d557829003601f168201915b5050505050905090565b612304613054565b61022d60019054906101000a900460ff16801561234857506123467f9f2df0fed2c77648de5860a4cc508cd0818c85b8b8a1ab4ceeef8d981c8956a6336121e7565b155b156124725761022e54341015612393576040517f08c379a000000000000000000000000000000000000000000000000000000000815260040161238a90617221565b60405180910390fd5b61246d8585858080601f016020809104026020016040519081016040528093929190818152602001838380828437600081840152601f19601f8201169050808301925050505050505061022c80546123ea9061688b565b80601f01602080910402602001604051908101604052809291908181526020018280546124169061688b565b80156124635780601f1061243857610100808354040283529160200191612463565b820191906000526020600020905b81548152906001019060200180831161244657829003601f168201915b5050505050613ca0565b61256f565b61249c7f9f2df0fed2c77648de5860a4cc508cd0818c85b8b8a1ab4ceeef8d981c8956a6336121e7565b6124db576040517f08c379a00000000000000000000000000000000000000000000000000000000081526004016124d2906172b3565b60405180910390fd5b61256e8585858080601f016020809104026020016040519081016040528093929190818152602001838380828437600081840152601f19601f8201169050808301925050505050505084848080601f016020809104026020016040519081016040528093929190818152602001838380828437600081840152601f19601f82011690508083019250505050505050613ca0565b5b5050505050565b60006125bf60fe60008473ffffffffffffffffffffffffffffffffffffffff1673ffffffffffffffffffffffffffffffffffffffff168152602001908152602001600020613d7d565b9050919050565b6000801b81565b6125df6125d8612f93565b8383613e18565b5050565b7f9f2df0fed2c77648de5860a4cc508cd0818c85b8b8a1ab4ceeef8d981c8956a661260d81613399565b8282610230919061261f92919061590e565b50505050565b60011515612631612252565b151514612673576040517f08c379a000000000000000000000000000000000000000000000000000000000815260040161266a90616908565b60405180910390fd5b61267b613054565b61268c612686612f93565b8361309e565b6126cb576040517f08c379a00000000000000000000000000000000000000000000000000000000081526004016126c290616abe565b60405180910390fd5b6126d784848484613f84565b50505050565b6126e5615994565b60006040518060e0016040528084815260200161270185611df7565b73ffffffffffffffffffffffffffffffffffffffff16815260200161272585611546565b73ffffffffffffffffffffffffffffffffffffffff1681526020016127498561109e565b81526020016127578561208e565b81526020016127646111fd565b8152602001612771610dce565b815250905080915050919050565b834211156127c2576040517f08c379a00000000000000000000000000000000000000000000000000000000081526004016127b99061731f565b60405180910390fd5b600061282461281c7fe48329057bfd03d55e49b547132e39cffd9c1820ad7b9d4c5307691425d15adf898989604051602001612801949392919061733f565b60405160208183030381529060405280519060200120613fe0565b858585613ffa565b905061282f81614025565b8614612870576040517f08c379a0000000000000000000000000000000000000000000000000000000008152600401612867906173d0565b60405180910390fd5b61287a8188613b70565b50505050505050565b60608161288f81613939565b6128ce576040517f08c379a00000000000000000000000000000000000000000000000000000000081526004016128c590616e35565b60405180910390fd5b60006040518060c001604052808581526020016128ea86611546565b73ffffffffffffffffffffffffffffffffffffffff16815260200161290e8661109e565b815260200161291c8661208e565b81526020016129296111fd565b8152602001612936610dce565b815250905061294481614084565b92505050919050565b7f9f2df0fed2c77648de5860a4cc508cd0818c85b8b8a1ab4ceeef8d981c8956a681565b61297a82611290565b61298381613399565b61298d83836134ce565b505050565b60007f65d7a28e3265b37a6474929f336521b332c1681b933f6cb9f3376673440d862a6129be81613399565b61022d60009054906101000a900460ff16156129f557600061022d60006101000a81548160ff021916908315150217905550612a12565b600161022d60006101000a81548160ff0219169083151502179055505b7f40cec7445e6af82a2c1482720f9cde27ef6cc85136e8b7abd3efd8c6a0ee566f61022d60009054906101000a900460ff16604051612a519190615ace565b60405180910390a161022d60009054906101000a900460ff1691505090565b7f9f2df0fed2c77648de5860a4cc508cd0818c85b8b8a1ab4ceeef8d981c8956a6612a9a81613399565b612aa2613054565b848490508787905014612aea576040517f08c379a0000000000000000000000000000000000000000000000000000000008152600401612ae190617462565b60405180910390fd5b828290508787905014612b32576040517f08c379a0000000000000000000000000000000000000000000000000000000008152600401612b2990617462565b60405180910390fd5b60005b87879050811015612c5357612c40888883818110612b5657612b55617482565b5b9050602002016020810190612b6b9190615def565b878784818110612b7e57612b7d617482565b5b9050602002810190612b9091906174c0565b8080601f016020809104026020016040519081016040528093929190818152602001838380828437600081840152601f19601f82011690508083019250505050505050868685818110612be657612be5617482565b5b9050602002810190612bf891906174c0565b8080601f016020809104026020016040519081016040528093929190818152602001838380828437600081840152601f19601f82011690508083019250505050505050613ca0565b8080612c4b90617523565b915050612b35565b5050505050505050565b7f9f2df0fed2c77648de5860a4cc508cd0818c85b8b8a1ab4ceeef8d981c8956a6612c8781613399565b60005b83839050811015612d2b57612cb7848483818110612cab57612caa617482565b5b90506020020135613939565b612cf6576040517f08c379a0000000000000000000000000000000000000000000000000000000008152600401612ced906175b7565b60405180910390fd5b612d18848483818110612d0c57612d0b617482565b5b905060200201356116f8565b8080612d2390617523565b915050612c8a565b50505050565b7f65d7a28e3265b37a6474929f336521b332c1681b933f6cb9f3376673440d862a81565b6000609c60008473ffffffffffffffffffffffffffffffffffffffff1673ffffffffffffffffffffffffffffffffffffffff16815260200190815260200160002060008373ffffffffffffffffffffffffffffffffffffffff1673ffffffffffffffffffffffffffffffffffffffff16815260200190815260200160002060009054906101000a900460ff16905092915050565b7f9f2df0fed2c77648de5860a4cc508cd0818c85b8b8a1ab4ceeef8d981c8956a6612e1381613399565b8161022e819055505050565b7f189ab7a9244df0848122154315af71fe140f3db0fe014031783b0946b8c9d2e381565b6000808273ffffffffffffffffffffffffffffffffffffffff163b119050919050565b60007f80ac58cd000000000000000000000000000000000000000000000000000000007bffffffffffffffffffffffffffffffffffffffffffffffffffffffff1916827bffffffffffffffffffffffffffffffffffffffffffffffffffffffff19161480612f3157507f5b5e139f000000000000000000000000000000000000000000000000000000007bffffffffffffffffffffffffffffffffffffffffffffffffffffffff1916827bffffffffffffffffffffffffffffffffffffffffffffffffffffffff1916145b80612f415750612f4082614137565b5b9050919050565b612f5181613939565b612f90576040517f08c379a0000000000000000000000000000000000000000000000000000000008152600401612f8790617091565b60405180910390fd5b50565b600033905090565b81609b600083815260200190815260200160002060006101000a81548173ffffffffffffffffffffffffffffffffffffffff021916908373ffffffffffffffffffffffffffffffffffffffff160217905550808273ffffffffffffffffffffffffffffffffffffffff1661300e83611df7565b73ffffffffffffffffffffffffffffffffffffffff167f8c5be1e5ebec7d5bd14f71427d1e84f3dd0314c0f7b2291e5b200ac8c7c3b92560405160405180910390a45050565b61305c611dcd565b1561309c576040517f08c379a000000000000000000000000000000000000000000000000000000000815260040161309390617623565b60405180910390fd5b565b6000806130aa83611df7565b90508073ffffffffffffffffffffffffffffffffffffffff168473ffffffffffffffffffffffffffffffffffffffff1614806130ec57506130eb8185612d55565b5b8061312a57508373ffffffffffffffffffffffffffffffffffffffff1661311284610e60565b73ffffffffffffffffffffffffffffffffffffffff16145b91505092915050565b8273ffffffffffffffffffffffffffffffffffffffff1661315382611df7565b73ffffffffffffffffffffffffffffffffffffffff16146131a9576040517f08c379a00000000000000000000000000000000000000000000000000000000081526004016131a0906176b5565b60405180910390fd5b600073ffffffffffffffffffffffffffffffffffffffff168273ffffffffffffffffffffffffffffffffffffffff1603613218576040517f08c379a000000000000000000000000000000000000000000000000000000000815260040161320f90617747565b60405180910390fd5b6132238383836141b1565b61322e600082612f9b565b6001609a60008573ffffffffffffffffffffffffffffffffffffffff1673ffffffffffffffffffffffffffffffffffffffff168152602001908152602001600020600082825461327e9190617767565b925050819055506001609a60008473ffffffffffffffffffffffffffffffffffffffff1673ffffffffffffffffffffffffffffffffffffffff16815260200190815260200160002060008282546132d5919061779b565b92505081905550816099600083815260200190815260200160002060006101000a81548173ffffffffffffffffffffffffffffffffffffffff021916908373ffffffffffffffffffffffffffffffffffffffff160217905550808273ffffffffffffffffffffffffffffffffffffffff168473ffffffffffffffffffffffffffffffffffffffff167fddf252ad1be2c89b69c2b068fc378daa952ba7f163c4a11628f55a4df523b3ef60405160405180910390a46133948383836141b6565b505050565b6133aa816133a5612f93565b6141d2565b50565b6133b782826121e7565b61348a5760016065600084815260200190815260200160002060000160008373ffffffffffffffffffffffffffffffffffffffff1673ffffffffffffffffffffffffffffffffffffffff16815260200190815260200160002060006101000a81548160ff02191690831515021790555061342f612f93565b73ffffffffffffffffffffffffffffffffffffffff168173ffffffffffffffffffffffffffffffffffffffff16837f2f8788117e7eff1d82e926ec794901d17c78024a50270940304540a733656f0d60405160405180910390a45b5050565b60006134c97f8b73c3c69bb8fe3d512ecc4cf759cc79239f7b179b0ffacaa9a75d522b39400f6134bc61426f565b6134c4614279565b614283565b905090565b6134d882826121e7565b156135ac5760006065600084815260200190815260200160002060000160008373ffffffffffffffffffffffffffffffffffffffff1673ffffffffffffffffffffffffffffffffffffffff16815260200190815260200160002060006101000a81548160ff021916908315150217905550613551612f93565b73ffffffffffffffffffffffffffffffffffffffff168173ffffffffffffffffffffffffffffffffffffffff16837ff6391f5c32d9c69d2a47ea670b442974b53935d1edc7fd64eb21e047a839171b60405160405180910390a45b5050565b60006135de7f360894a13ba1a3210667c828492db98dca3e2076cc3735a920a3ca505d382bbc60001b6142bd565b60000160009054906101000a900473ffffffffffffffffffffffffffffffffffffffff16905090565b6136317f189ab7a9244df0848122154315af71fe140f3db0fe014031783b0946b8c9d2e3336121e7565b613670576040517f08c379a00000000000000000000000000000000000000000000000000000000081526004016136679061783d565b60405180910390fd5b50565b61369f7f4910fdfa16fed3260ed0e7147f7cc6da11a60208b5b9406d12a635614ffd914360001b6142c7565b60000160009054906101000a900460ff16156136c3576136be836142d1565b6137dc565b8273ffffffffffffffffffffffffffffffffffffffff166352d1902d6040518163ffffffff1660e01b8152600401602060405180830381865afa92505050801561372b57506040513d601f19601f820116820180604052508101906137289190617872565b60015b61376a576040517f08c379a000000000000000000000000000000000000000000000000000000000815260040161376190617911565b60405180910390fd5b7f360894a13ba1a3210667c828492db98dca3e2076cc3735a920a3ca505d382bbc60001b81146137cf576040517f08c379a00000000000000000000000000000000000000000000000000000000081526004016137c6906179a3565b60405180910390fd5b506137db83838361438a565b5b505050565b6000438210613825576040517f08c379a000000000000000000000000000000000000000000000000000000000815260040161381c90617a0f565b60405180910390fd5b60008360000180549050905060005b818110156138a957600061384882846143b6565b90508486600001828154811061386157613860617482565b5b9060005260206000200160000160009054906101000a900463ffffffff1663ffffffff161115613893578092506138a3565b6001816138a0919061779b565b91505b50613834565b6000821461390e57846000016001836138c29190617767565b815481106138d3576138d2617482565b5b9060005260206000200160000160049054906101000a90047bffffffffffffffffffffffffffffffffffffffffffffffffffffffff16613911565b60005b7bffffffffffffffffffffffffffffffffffffffffffffffffffffffff169250505092915050565b60008073ffffffffffffffffffffffffffffffffffffffff166099600084815260200190815260200160002060009054906101000a900473ffffffffffffffffffffffffffffffffffffffff1673ffffffffffffffffffffffffffffffffffffffff1614159050919050565b60006139b082611df7565b90506139be816000846141b1565b6139c9600083612f9b565b6001609a60008373ffffffffffffffffffffffffffffffffffffffff1673ffffffffffffffffffffffffffffffffffffffff1681526020019081526020016000206000828254613a199190617767565b925050819055506099600083815260200190815260200160002060006101000a81549073ffffffffffffffffffffffffffffffffffffffff021916905581600073ffffffffffffffffffffffffffffffffffffffff168273ffffffffffffffffffffffffffffffffffffffff167fddf252ad1be2c89b69c2b068fc378daa952ba7f163c4a11628f55a4df523b3ef60405160405180910390a4613abe816000846141b6565b5050565b600060019054906101000a900460ff16613b11576040517f08c379a0000000000000000000000000000000000000000000000000000000008152600401613b0890617aa1565b60405180910390fd5b613b1b82826143dc565b5050565b600060019054906101000a900460ff16613b6e576040517f08c379a0000000000000000000000000000000000000000000000000000000008152600401613b6590617aa1565b60405180910390fd5b565b6000613b7b83611a5c565b90508160fd60008573ffffffffffffffffffffffffffffffffffffffff1673ffffffffffffffffffffffffffffffffffffffff16815260200190815260200160002060006101000a81548173ffffffffffffffffffffffffffffffffffffffff021916908373ffffffffffffffffffffffffffffffffffffffff1602179055508173ffffffffffffffffffffffffffffffffffffffff168173ffffffffffffffffffffffffffffffffffffffff168473ffffffffffffffffffffffffffffffffffffffff167f3134e8a2e6d97e929a7e54011ea5485d7d196dd5f0ba4d4ef95803e8e3fc257f60405160405180910390a4613c7f8183613c7a8661445d565b61446f565b505050565b600081600001549050919050565b600081600001549050919050565b613ca8613054565b6000613cb5610229613c84565b90508261023160008381526020019081526020016000206000019080519060200190613ce2929190615888565b508161023160008381526020019081526020016000206001019080519060200190613d0e929190615888565b5083610232600083815260200190815260200160002060006101000a81548173ffffffffffffffffffffffffffffffffffffffff021916908373ffffffffffffffffffffffffffffffffffffffff160217905550613d6c848261467c565b613d7761022961469a565b50505050565b6000808260000180549050905060008114613def5782600001600182613da39190617767565b81548110613db457613db3617482565b5b9060005260206000200160000160049054906101000a90047bffffffffffffffffffffffffffffffffffffffffffffffffffffffff16613df2565b60005b7bffffffffffffffffffffffffffffffffffffffffffffffffffffffff16915050919050565b8173ffffffffffffffffffffffffffffffffffffffff168373ffffffffffffffffffffffffffffffffffffffff1603613e86576040517f08c379a0000000000000000000000000000000000000000000000000000000008152600401613e7d90617b0d565b60405180910390fd5b80609c60008573ffffffffffffffffffffffffffffffffffffffff1673ffffffffffffffffffffffffffffffffffffffff16815260200190815260200160002060008473ffffffffffffffffffffffffffffffffffffffff1673ffffffffffffffffffffffffffffffffffffffff16815260200190815260200160002060006101000a81548160ff0219169083151502179055508173ffffffffffffffffffffffffffffffffffffffff168373ffffffffffffffffffffffffffffffffffffffff167f17307eab39ab6107e8899845ad3d59bd9653f200f220920489ca2b5937696c3183604051613f779190615ace565b60405180910390a3505050565b613f8f848484613133565b613f9b848484846146b0565b613fda576040517f08c379a0000000000000000000000000000000000000000000000000000000008152600401613fd190617b9f565b60405180910390fd5b50505050565b6000613ff3613fed61348e565b83614837565b9050919050565b600080600061400b8787878761486a565b9150915061401881614976565b8192505050949350505050565b60008061010060008473ffffffffffffffffffffffffffffffffffffffff1673ffffffffffffffffffffffffffffffffffffffff168152602001908152602001600020905061407381613c92565b915061407e81614b42565b50919050565b606060006140c26102308460400151856060015161022b6040516020016140ae949392919061806b565b604051602081830303815290604052614b58565b905060006140d38460000151614cbb565b8460400151856060015186608001518760a00151866040516020016140fd9695949392919061833b565b60405160208183030381529060405290508060405160200161411f919061842c565b60405160208183030381529060405292505050919050565b60007f7965db0b000000000000000000000000000000000000000000000000000000007bffffffffffffffffffffffffffffffffffffffffffffffffffffffff1916827bffffffffffffffffffffffffffffffffffffffffffffffffffffffff191614806141aa57506141a982614e1b565b5b9050919050565b505050565b6141c283836001614e85565b6141cd838383614f43565b505050565b6141dc82826121e7565b61426b576142018173ffffffffffffffffffffffffffffffffffffffff166014614f5f565b61420f8360001c6020614f5f565b6040516020016142209291906184e6565b6040516020818303038152906040526040517f08c379a00000000000000000000000000000000000000000000000000000000081526004016142629190615b82565b60405180910390fd5b5050565b600060c954905090565b600060ca54905090565b6000838383463060405160200161429e959493929190618520565b6040516020818303038152906040528051906020012090509392505050565b6000819050919050565b6000819050919050565b6142da81612e43565b614319576040517f08c379a0000000000000000000000000000000000000000000000000000000008152600401614310906185e5565b60405180910390fd5b806143467f360894a13ba1a3210667c828492db98dca3e2076cc3735a920a3ca505d382bbc60001b6142bd565b60000160006101000a81548173ffffffffffffffffffffffffffffffffffffffff021916908373ffffffffffffffffffffffffffffffffffffffff16021790555050565b6143938361519b565b6000825111806143a05750805b156143b1576143af83836151ea565b505b505050565b600060028284186143c79190616cf2565b8284166143d4919061779b565b905092915050565b600060019054906101000a900460ff1661442b576040517f08c379a000000000000000000000000000000000000000000000000000000000815260040161442290617aa1565b60405180910390fd5b8160979080519060200190614441929190615888565b508060989080519060200190614458929190615888565b505050565b600061446882611ef9565b9050919050565b8173ffffffffffffffffffffffffffffffffffffffff168373ffffffffffffffffffffffffffffffffffffffff16141580156144ab5750600081115b1561467757600073ffffffffffffffffffffffffffffffffffffffff168373ffffffffffffffffffffffffffffffffffffffff16146145935760008061453c6152ce8460fe60008973ffffffffffffffffffffffffffffffffffffffff1673ffffffffffffffffffffffffffffffffffffffff1681526020019081526020016000206152e49092919063ffffffff16565b915091508473ffffffffffffffffffffffffffffffffffffffff167fdec2bacdd2f05b59de34da9b523dff8be42e5e38e818c82fdb0bae774387a7248383604051614588929190618605565b60405180910390a250505b600073ffffffffffffffffffffffffffffffffffffffff168273ffffffffffffffffffffffffffffffffffffffff16146146765760008061461f6153128460fe60008873ffffffffffffffffffffffffffffffffffffffff1673ffffffffffffffffffffffffffffffffffffffff1681526020019081526020016000206152e49092919063ffffffff16565b915091508373ffffffffffffffffffffffffffffffffffffffff167fdec2bacdd2f05b59de34da9b523dff8be42e5e38e818c82fdb0bae774387a724838360405161466b929190618605565b60405180910390a250505b5b505050565b614696828260405180602001604052806000815250615328565b5050565b6001816000016000828254019250508190555050565b60006146d18473ffffffffffffffffffffffffffffffffffffffff16612e43565b1561482a578373ffffffffffffffffffffffffffffffffffffffff1663150b7a026146fa612f93565b8786866040518563ffffffff1660e01b815260040161471c9493929190618683565b6020604051808303816000875af192505050801561475857506040513d601f19601f8201168201806040525081019061475591906186e4565b60015b6147da573d8060008114614788576040519150601f19603f3d011682016040523d82523d6000602084013e61478d565b606091505b5060008151036147d2576040517f08c379a00000000000000000000000000000000000000000000000000000000081526004016147c990617b9f565b60405180910390fd5b805181602001fd5b63150b7a0260e01b7bffffffffffffffffffffffffffffffffffffffffffffffffffffffff1916817bffffffffffffffffffffffffffffffffffffffffffffffffffffffff19161491505061482f565b600190505b949350505050565b6000828260405160200161484c92919061877e565b60405160208183030381529060405280519060200120905092915050565b6000807f7fffffffffffffffffffffffffffffff5d576e7357a4501ddfe92f46681b20a08360001c11156148a557600060039150915061496d565b601b8560ff16141580156148bd5750601c8560ff1614155b156148cf57600060049150915061496d565b6000600187878787604051600081526020016040526040516148f494939291906187c4565b6020604051602081039080840390855afa158015614916573d6000803e3d6000fd5b505050602060405103519050600073ffffffffffffffffffffffffffffffffffffffff168173ffffffffffffffffffffffffffffffffffffffff16036149645760006001925092505061496d565b80600092509250505b94509492505050565b6000600481111561498a57614989618809565b5b81600481111561499d5761499c618809565b5b0315614b3f57600160048111156149b7576149b6618809565b5b8160048111156149ca576149c9618809565b5b03614a0a576040517f08c379a0000000000000000000000000000000000000000000000000000000008152600401614a0190618884565b60405180910390fd5b60026004811115614a1e57614a1d618809565b5b816004811115614a3157614a30618809565b5b03614a71576040517f08c379a0000000000000000000000000000000000000000000000000000000008152600401614a68906188f0565b60405180910390fd5b60036004811115614a8557614a84618809565b5b816004811115614a9857614a97618809565b5b03614ad8576040517f08c379a0000000000000000000000000000000000000000000000000000000008152600401614acf90618982565b60405180910390fd5b600480811115614aeb57614aea618809565b5b816004811115614afe57614afd618809565b5b03614b3e576040517f08c379a0000000000000000000000000000000000000000000000000000000008152600401614b3590618a14565b60405180910390fd5b5b50565b6001816000016000828254019250508190555050565b60606000825103614b7a57604051806020016040528060008152509050614cb6565b6000604051806060016040528060408152602001618dd16040913990506000600360028551614ba9919061779b565b614bb39190616cf2565b6004614bbf9190616d23565b67ffffffffffffffff811115614bd857614bd7615e50565b5b6040519080825280601f01601f191660200182016040528015614c0a5781602001600182028036833780820191505090505b509050600182016020820185865187015b80821015614c76576003820191508151603f8160121c168501518453600184019350603f81600c1c168501518453600184019350603f8160061c168501518453600184019350603f8116850151845360018401935050614c1b565b5050600386510660018114614c925760028114614ca557614cad565b603d6001830353603d6002830353614cad565b603d60018303535b50505080925050505b919050565b606060008203614d02576040518060400160405280600181526020017f30000000000000000000000000000000000000000000000000000000000000008152509050614e16565b600082905060005b60008214614d34578080614d1d90617523565b915050600a82614d2d9190616cf2565b9150614d0a565b60008167ffffffffffffffff811115614d5057614d4f615e50565b5b6040519080825280601f01601f191660200182016040528015614d825781602001600182028036833780820191505090505b5090505b60008514614e0f57600182614d9b9190617767565b9150600a85614daa9190618a34565b6030614db6919061779b565b60f81b818381518110614dcc57614dcb617482565b5b60200101907effffffffffffffffffffffffffffffffffffffffffffffffffffffffffffff1916908160001a905350600a85614e089190616cf2565b9450614d86565b8093505050505b919050565b60007f01ffc9a7000000000000000000000000000000000000000000000000000000007bffffffffffffffffffffffffffffffffffffffffffffffffffffffff1916827bffffffffffffffffffffffffffffffffffffffffffffffffffffffff1916149050919050565b600073ffffffffffffffffffffffffffffffffffffffff168373ffffffffffffffffffffffffffffffffffffffff1603614ed457614ed16153128260ff6152e49092919063ffffffff16565b50505b600073ffffffffffffffffffffffffffffffffffffffff168273ffffffffffffffffffffffffffffffffffffffff1603614f2357614f206152ce8260ff6152e49092919063ffffffff16565b50505b614f3e614f2f84611a5c565b614f3884611a5c565b8361446f565b505050565b614f4f83836001614e85565b614f5a838383615383565b505050565b606060006002836002614f729190616d23565b614f7c919061779b565b67ffffffffffffffff811115614f9557614f94615e50565b5b6040519080825280601f01601f191660200182016040528015614fc75781602001600182028036833780820191505090505b5090507f300000000000000000000000000000000000000000000000000000000000000081600081518110614fff57614ffe617482565b5b60200101907effffffffffffffffffffffffffffffffffffffffffffffffffffffffffffff1916908160001a9053507f78000000000000000000000000000000000000000000000000000000000000008160018151811061506357615062617482565b5b60200101907effffffffffffffffffffffffffffffffffffffffffffffffffffffffffffff1916908160001a905350600060018460026150a39190616d23565b6150ad919061779b565b90505b600181111561514d577f3031323334353637383961626364656600000000000000000000000000000000600f8616601081106150ef576150ee617482565b5b1a60f81b82828151811061510657615105617482565b5b60200101907effffffffffffffffffffffffffffffffffffffffffffffffffffffffffffff1916908160001a905350600485901c94508061514690618a65565b90506150b0565b5060008414615191576040517f08c379a000000000000000000000000000000000000000000000000000000000815260040161518890618ada565b60405180910390fd5b8091505092915050565b6151a4816142d1565b8073ffffffffffffffffffffffffffffffffffffffff167fbc7cd75a20ee27fd9adebab32041f755214dbc6bffa90cc0225b39da2e5c2d3b60405160405180910390a250565b60606151f583612e43565b615234576040517f08c379a000000000000000000000000000000000000000000000000000000000815260040161522b90618b6c565b60405180910390fd5b6000808473ffffffffffffffffffffffffffffffffffffffff168460405161525c9190618bbd565b600060405180830381855af49150503d8060008114615297576040519150601f19603f3d011682016040523d82523d6000602084013e61529c565b606091505b50915091506152c48282604051806060016040528060278152602001618e1160279139615388565b9250505092915050565b600081836152dc9190617767565b905092915050565b600080615306856153016152f788613d7d565b868863ffffffff16565b6153ef565b91509150935093915050565b60008183615320919061779b565b905092915050565b61533283836155f1565b61533f60008484846146b0565b61537e576040517f08c379a000000000000000000000000000000000000000000000000000000000815260040161537590617b9f565b60405180910390fd5b505050565b505050565b60608315615398578290506153e8565b6000835111156153ab5782518084602001fd5b816040517f08c379a00000000000000000000000000000000000000000000000000000000081526004016153df9190615b82565b60405180910390fd5b9392505050565b600080600084600001805490509050600061540986613d7d565b905060008211801561545f575043866000016001846154289190617767565b8154811061543957615438617482565b5b9060005260206000200160000160009054906101000a900463ffffffff1663ffffffff16145b156154ef5761546d856157ca565b8660000160018461547e9190617767565b8154811061548f5761548e617482565b5b9060005260206000200160000160046101000a8154817bffffffffffffffffffffffffffffffffffffffffffffffffffffffff02191690837bffffffffffffffffffffffffffffffffffffffffffffffffffffffff1602179055506155e2565b85600001604051806040016040528061550743615835565b63ffffffff16815260200161551b886157ca565b7bffffffffffffffffffffffffffffffffffffffffffffffffffffffff168152509080600181540180825580915050600190039060005260206000200160009091909190915060008201518160000160006101000a81548163ffffffff021916908363ffffffff16021790555060208201518160000160046101000a8154817bffffffffffffffffffffffffffffffffffffffffffffffffffffffff02191690837bffffffffffffffffffffffffffffffffffffffffffffffffffffffff16021790555050505b80859350935050509250929050565b600073ffffffffffffffffffffffffffffffffffffffff168273ffffffffffffffffffffffffffffffffffffffff1603615660576040517f08c379a000000000000000000000000000000000000000000000000000000000815260040161565790618c20565b60405180910390fd5b61566981613939565b156156a9576040517f08c379a00000000000000000000000000000000000000000000000000000000081526004016156a090618c8c565b60405180910390fd5b6156b5600083836141b1565b6001609a60008473ffffffffffffffffffffffffffffffffffffffff1673ffffffffffffffffffffffffffffffffffffffff1681526020019081526020016000206000828254615705919061779b565b92505081905550816099600083815260200190815260200160002060006101000a81548173ffffffffffffffffffffffffffffffffffffffff021916908373ffffffffffffffffffffffffffffffffffffffff160217905550808273ffffffffffffffffffffffffffffffffffffffff16600073ffffffffffffffffffffffffffffffffffffffff167fddf252ad1be2c89b69c2b068fc378daa952ba7f163c4a11628f55a4df523b3ef60405160405180910390a46157c6600083836141b6565b5050565b60007bffffffffffffffffffffffffffffffffffffffffffffffffffffffff801682111561582d576040517f08c379a000000000000000000000000000000000000000000000000000000000815260040161582490618d1e565b60405180910390fd5b819050919050565b600063ffffffff8016821115615880576040517f08c379a000000000000000000000000000000000000000000000000000000000815260040161587790618db0565b60405180910390fd5b819050919050565b8280546158949061688b565b90600052602060002090601f0160209004810192826158b657600085556158fd565b82601f106158cf57805160ff19168380011785556158fd565b828001600101855582156158fd579182015b828111156158fc5782518255916020019190600101906158e1565b5b50905061590a91906159fd565b5090565b82805461591a9061688b565b90600052602060002090601f01602090048101928261593c5760008555615983565b82601f1061595557803560ff1916838001178555615983565b82800160010185558215615983579182015b82811115615982578235825591602001919060010190615967565b5b50905061599091906159fd565b5090565b6040518060e0016040528060008152602001600073ffffffffffffffffffffffffffffffffffffffff168152602001600073ffffffffffffffffffffffffffffffffffffffff168152602001606081526020016060815260200160608152602001606081525090565b5b80821115615a165760008160009055506001016159fe565b5090565b6000604051905090565b600080fd5b600080fd5b60007fffffffff0000000000000000000000000000000000000000000000000000000082169050919050565b615a6381615a2e565b8114615a6e57600080fd5b50565b600081359050615a8081615a5a565b92915050565b600060208284031215615a9c57615a9b615a24565b5b6000615aaa84828501615a71565b91505092915050565b60008115159050919050565b615ac881615ab3565b82525050565b6000602082019050615ae36000830184615abf565b92915050565b600081519050919050565b600082825260208201905092915050565b60005b83811015615b23578082015181840152602081019050615b08565b83811115615b32576000848401525b50505050565b6000601f19601f8301169050919050565b6000615b5482615ae9565b615b5e8185615af4565b9350615b6e818560208601615b05565b615b7781615b38565b840191505092915050565b60006020820190508181036000830152615b9c8184615b49565b905092915050565b6000819050919050565b615bb781615ba4565b8114615bc257600080fd5b50565b600081359050615bd481615bae565b92915050565b600060208284031215615bf057615bef615a24565b5b6000615bfe84828501615bc5565b91505092915050565b600073ffffffffffffffffffffffffffffffffffffffff82169050919050565b6000615c3282615c07565b9050919050565b615c4281615c27565b82525050565b6000602082019050615c5d6000830184615c39565b92915050565b615c6c81615c27565b8114615c7757600080fd5b50565b600081359050615c8981615c63565b92915050565b60008060408385031215615ca657615ca5615a24565b5b6000615cb485828601615c7a565b9250506020615cc585828601615bc5565b9150509250929050565b600080600060608486031215615ce857615ce7615a24565b5b6000615cf686828701615c7a565b9350506020615d0786828701615c7a565b9250506040615d1886828701615bc5565b9150509250925092565b6000819050919050565b615d3581615d22565b8114615d4057600080fd5b50565b600081359050615d5281615d2c565b92915050565b600060208284031215615d6e57615d6d615a24565b5b6000615d7c84828501615d43565b91505092915050565b615d8e81615d22565b82525050565b6000602082019050615da96000830184615d85565b92915050565b60008060408385031215615dc657615dc5615a24565b5b6000615dd485828601615d43565b9250506020615de585828601615c7a565b9150509250929050565b600060208284031215615e0557615e04615a24565b5b6000615e1384828501615c7a565b91505092915050565b615e2581615ba4565b82525050565b6000602082019050615e406000830184615e1c565b92915050565b600080fd5b600080fd5b7f4e487b7100000000000000000000000000000000000000000000000000000000600052604160045260246000fd5b615e8882615b38565b810181811067ffffffffffffffff82111715615ea757615ea6615e50565b5b80604052505050565b6000615eba615a1a565b9050615ec68282615e7f565b919050565b600067ffffffffffffffff821115615ee657615ee5615e50565b5b615eef82615b38565b9050602081019050919050565b82818337600083830152505050565b6000615f1e615f1984615ecb565b615eb0565b905082815260208101848484011115615f3a57615f39615e4b565b5b615f45848285615efc565b509392505050565b600082601f830112615f6257615f61615e46565b5b8135615f72848260208601615f0b565b91505092915050565b60008060408385031215615f9257615f91615a24565b5b6000615fa085828601615c7a565b925050602083013567ffffffffffffffff811115615fc157615fc0615a29565b5b615fcd85828601615f4d565b9150509250929050565b600067ffffffffffffffff821115615ff257615ff1615e50565b5b615ffb82615b38565b9050602081019050919050565b600061601b61601684615fd7565b615eb0565b90508281526020810184848401111561603757616036615e4b565b5b616042848285615efc565b509392505050565b600082601f83011261605f5761605e615e46565b5b813561606f848260208601616008565b91505092915050565b61608181615ab3565b811461608c57600080fd5b50565b60008135905061609e81616078565b92915050565b600080600080600080600080610100898b0312156160c5576160c4615a24565b5b600089013567ffffffffffffffff8111156160e3576160e2615a29565b5b6160ef8b828c0161604a565b985050602089013567ffffffffffffffff8111156161105761610f615a29565b5b61611c8b828c0161604a565b975050604089013567ffffffffffffffff81111561613d5761613c615a29565b5b6161498b828c0161604a565b965050606089013567ffffffffffffffff81111561616a57616169615a29565b5b6161768b828c0161604a565b95505060806161878b828c0161608f565b94505060a06161988b828c0161608f565b93505060c06161a98b828c01615bc5565b92505060e06161ba8b828c01615c7a565b9150509295985092959890939650565b6000602082840312156161e0576161df615a24565b5b600082013567ffffffffffffffff8111156161fe576161fd615a29565b5b61620a8482850161604a565b91505092915050565b600080fd5b600080fd5b60008083601f84011261623357616232615e46565b5b8235905067ffffffffffffffff8111156162505761624f616213565b5b60208301915083600182028301111561626c5761626b616218565b5b9250929050565b60008060008060006060868803121561628f5761628e615a24565b5b600061629d88828901615c7a565b955050602086013567ffffffffffffffff8111156162be576162bd615a29565b5b6162ca8882890161621d565b9450945050604086013567ffffffffffffffff8111156162ed576162ec615a29565b5b6162f98882890161621d565b92509250509295509295909350565b6000806040838503121561631f5761631e615a24565b5b600061632d85828601615c7a565b925050602061633e8582860161608f565b9150509250929050565b6000806020838503121561635f5761635e615a24565b5b600083013567ffffffffffffffff81111561637d5761637c615a29565b5b6163898582860161621d565b92509250509250929050565b600080600080608085870312156163af576163ae615a24565b5b60006163bd87828801615c7a565b94505060206163ce87828801615c7a565b93505060406163df87828801615bc5565b925050606085013567ffffffffffffffff811115616400576163ff615a29565b5b61640c87828801615f4d565b91505092959194509250565b61642181615ba4565b82525050565b61643081615c27565b82525050565b600082825260208201905092915050565b600061645282615ae9565b61645c8185616436565b935061646c818560208601615b05565b61647581615b38565b840191505092915050565b600060e0830160008301516164986000860182616418565b5060208301516164ab6020860182616427565b5060408301516164be6040860182616427565b50606083015184820360608601526164d68282616447565b915050608083015184820360808601526164f08282616447565b91505060a083015184820360a086015261650a8282616447565b91505060c083015184820360c08601526165248282616447565b9150508091505092915050565b6000602082019050818103600083015261654b8184616480565b905092915050565b600060ff82169050919050565b61656981616553565b811461657457600080fd5b50565b60008135905061658681616560565b92915050565b60008060008060008060c087890312156165a9576165a8615a24565b5b60006165b789828a01615c7a565b96505060206165c889828a01615bc5565b95505060406165d989828a01615bc5565b94505060606165ea89828a01616577565b93505060806165fb89828a01615d43565b92505060a061660c89828a01615d43565b9150509295509295509295565b60008083601f84011261662f5761662e615e46565b5b8235905067ffffffffffffffff81111561664c5761664b616213565b5b60208301915083602082028301111561666857616667616218565b5b9250929050565b60008083601f84011261668557616684615e46565b5b8235905067ffffffffffffffff8111156166a2576166a1616213565b5b6020830191508360208202830111156166be576166bd616218565b5b9250929050565b600080600080600080606087890312156166e2576166e1615a24565b5b600087013567ffffffffffffffff811115616700576166ff615a29565b5b61670c89828a01616619565b9650965050602087013567ffffffffffffffff81111561672f5761672e615a29565b5b61673b89828a0161666f565b9450945050604087013567ffffffffffffffff81111561675e5761675d615a29565b5b61676a89828a0161666f565b92509250509295509295509295565b60008083601f84011261678f5761678e615e46565b5b8235905067ffffffffffffffff8111156167ac576167ab616213565b5b6020830191508360208202830111156167c8576167c7616218565b5b9250929050565b600080602083850312156167e6576167e5615a24565b5b600083013567ffffffffffffffff81111561680457616803615a29565b5b61681085828601616779565b92509250509250929050565b6000806040838503121561683357616832615a24565b5b600061684185828601615c7a565b925050602061685285828601615c7a565b9150509250929050565b7f4e487b7100000000000000000000000000000000000000000000000000000000600052602260045260246000fd5b600060028204905060018216806168a357607f821691505b6020821081036168b6576168b561685c565b5b50919050565b7f536f756c426f756e644e46543a206e6f74207472616e7366657261626c650000600082015250565b60006168f2601e83615af4565b91506168fd826168bc565b602082019050919050565b60006020820190508181036000830152616921816168e5565b9050919050565b7f4552433732313a20617070726f76616c20746f2063757272656e74206f776e6560008201527f7200000000000000000000000000000000000000000000000000000000000000602082015250565b6000616984602183615af4565b915061698f82616928565b604082019050919050565b600060208201905081810360008301526169b381616977565b9050919050565b7f4552433732313a20617070726f76652063616c6c6572206973206e6f74206f7760008201527f6e6572206e6f7220617070726f76656420666f7220616c6c0000000000000000602082015250565b6000616a16603883615af4565b9150616a21826169ba565b604082019050919050565b60006020820190508181036000830152616a4581616a09565b9050919050565b7f4552433732313a207472616e736665722063616c6c6572206973206e6f74206f60008201527f776e6572206e6f7220617070726f766564000000000000000000000000000000602082015250565b6000616aa8603183615af4565b9150616ab382616a4c565b604082019050919050565b60006020820190508181036000830152616ad781616a9b565b9050919050565b7f416363657373436f6e74726f6c3a2063616e206f6e6c792072656e6f756e636560008201527f20726f6c657320666f722073656c660000000000000000000000000000000000602082015250565b6000616b3a602f83615af4565b9150616b4582616ade565b604082019050919050565b60006020820190508181036000830152616b6981616b2d565b9050919050565b7f46756e6374696f6e206d7573742062652063616c6c6564207468726f7567682060008201527f64656c656761746563616c6c0000000000000000000000000000000000000000602082015250565b6000616bcc602c83615af4565b9150616bd782616b70565b604082019050919050565b60006020820190508181036000830152616bfb81616bbf565b9050919050565b7f46756e6374696f6e206d7573742062652063616c6c6564207468726f7567682060008201527f6163746976652070726f78790000000000000000000000000000000000000000602082015250565b6000616c5e602c83615af4565b9150616c6982616c02565b604082019050919050565b60006020820190508181036000830152616c8d81616c51565b9050919050565b7f4e487b7100000000000000000000000000000000000000000000000000000000600052601260045260246000fd5b7f4e487b7100000000000000000000000000000000000000000000000000000000600052601160045260246000fd5b6000616cfd82615ba4565b9150616d0883615ba4565b925082616d1857616d17616c94565b5b828204905092915050565b6000616d2e82615ba4565b9150616d3983615ba4565b9250817fffffffffffffffffffffffffffffffffffffffffffffffffffffffffffffffff0483118215151615616d7257616d71616cc3565b5b828202905092915050565b600081905092915050565b50565b6000616d98600083616d7d565b9150616da382616d88565b600082019050919050565b6000616db982616d8b565b9150819050919050565b7f746f6b656e20646f65736e2774206578697374206f7220686173206265656e2060008201527f6275726e74000000000000000000000000000000000000000000000000000000602082015250565b6000616e1f602583615af4565b9150616e2a82616dc3565b604082019050919050565b60006020820190508181036000830152616e4e81616e12565b9050919050565b7f73656e646572206e6f74206f776e6572206f7220746f6b656e206f776e657200600082015250565b6000616e8b601f83615af4565b9150616e9682616e55565b602082019050919050565b60006020820190508181036000830152616eba81616e7e565b9050919050565b7f555550535570677261646561626c653a206d757374206e6f742062652063616c60008201527f6c6564207468726f7567682064656c656761746563616c6c0000000000000000602082015250565b6000616f1d603883615af4565b9150616f2882616ec1565b604082019050919050565b60006020820190508181036000830152616f4c81616f10565b9050919050565b7f496e697469616c697a61626c653a20636f6e747261637420697320616c72656160008201527f647920696e697469616c697a6564000000000000000000000000000000000000602082015250565b6000616faf602e83615af4565b9150616fba82616f53565b604082019050919050565b60006020820190508181036000830152616fde81616fa2565b9050919050565b6000819050919050565b6000819050919050565b600061701461700f61700a84616fe5565b616fef565b616553565b9050919050565b61702481616ff9565b82525050565b600060208201905061703f600083018461701b565b92915050565b7f4552433732313a20696e76616c696420746f6b656e2049440000000000000000600082015250565b600061707b601883615af4565b915061708682617045565b602082019050919050565b600060208201905081810360008301526170aa8161706e565b9050919050565b7f4552433732313a2061646472657373207a65726f206973206e6f74206120766160008201527f6c6964206f776e65720000000000000000000000000000000000000000000000602082015250565b600061710d602983615af4565b9150617118826170b1565b604082019050919050565b6000602082019050818103600083015261713c81617100565b9050919050565b7f566f7465733a20626c6f636b206e6f7420796574206d696e6564000000000000600082015250565b6000617179601a83615af4565b915061718482617143565b602082019050919050565b600060208201905081810360008301526171a88161716c565b9050919050565b7f536f756c426f756e644e46543a20696e73756666696369656e742066756e647360008201527f2100000000000000000000000000000000000000000000000000000000000000602082015250565b600061720b602183615af4565b9150617216826171af565b604082019050919050565b6000602082019050818103600083015261723a816171fe565b9050919050565b7f536f756c426f756e644e46543a206e6f7420616c6c6f77656420746f206d696e60008201527f7421000000000000000000000000000000000000000000000000000000000000602082015250565b600061729d602283615af4565b91506172a882617241565b604082019050919050565b600060208201905081810360008301526172cc81617290565b9050919050565b7f566f7465733a207369676e617475726520657870697265640000000000000000600082015250565b6000617309601883615af4565b9150617314826172d3565b602082019050919050565b60006020820190508181036000830152617338816172fc565b9050919050565b60006080820190506173546000830187615d85565b6173616020830186615c39565b61736e6040830185615e1c565b61737b6060830184615e1c565b95945050505050565b7f566f7465733a20696e76616c6964206e6f6e6365000000000000000000000000600082015250565b60006173ba601483615af4565b91506173c582617384565b602082019050919050565b600060208201905081810360008301526173e9816173ad565b9050919050565b7f536f756c426f756e644e46543a204172726179206c656e677468206d69736d6160008201527f7463680000000000000000000000000000000000000000000000000000000000602082015250565b600061744c602383615af4565b9150617457826173f0565b604082019050919050565b6000602082019050818103600083015261747b8161743f565b9050919050565b7f4e487b7100000000000000000000000000000000000000000000000000000000600052603260045260246000fd5b600080fd5b600080fd5b600080fd5b600080833560016020038436030381126174dd576174dc6174b1565b5b80840192508235915067ffffffffffffffff8211156174ff576174fe6174b6565b5b60208301925060018202360383131561751b5761751a6174bb565b5b509250929050565b600061752e82615ba4565b91507fffffffffffffffffffffffffffffffffffffffffffffffffffffffffffffffff82036175605761755f616cc3565b5b600182019050919050565b7f536f756c426f756e644e46543a204e6f6e2d6578697374656e7420746f6b656e600082015250565b60006175a1602083615af4565b91506175ac8261756b565b602082019050919050565b600060208201905081810360008301526175d081617594565b9050919050565b7f5061757361626c653a2070617573656400000000000000000000000000000000600082015250565b600061760d601083615af4565b9150617618826175d7565b602082019050919050565b6000602082019050818103600083015261763c81617600565b9050919050565b7f4552433732313a207472616e736665722066726f6d20696e636f72726563742060008201527f6f776e6572000000000000000000000000000000000000000000000000000000602082015250565b600061769f602583615af4565b91506176aa82617643565b604082019050919050565b600060208201905081810360008301526176ce81617692565b9050919050565b7f4552433732313a207472616e7366657220746f20746865207a65726f2061646460008201527f7265737300000000000000000000000000000000000000000000000000000000602082015250565b6000617731602483615af4565b915061773c826176d5565b604082019050919050565b6000602082019050818103600083015261776081617724565b9050919050565b600061777282615ba4565b915061777d83615ba4565b9250828210156177905761778f616cc3565b5b828203905092915050565b60006177a682615ba4565b91506177b183615ba4565b9250827fffffffffffffffffffffffffffffffffffffffffffffffffffffffffffffffff038211156177e6576177e5616cc3565b5b828201905092915050565b7f556e617574686f72697a65642055706772616465000000000000000000000000600082015250565b6000617827601483615af4565b9150617832826177f1565b602082019050919050565b600060208201905081810360008301526178568161781a565b9050919050565b60008151905061786c81615d2c565b92915050565b60006020828403121561788857617887615a24565b5b60006178968482850161785d565b91505092915050565b7f45524331393637557067726164653a206e657720696d706c656d656e7461746960008201527f6f6e206973206e6f742055555053000000000000000000000000000000000000602082015250565b60006178fb602e83615af4565b91506179068261789f565b604082019050919050565b6000602082019050818103600083015261792a816178ee565b9050919050565b7f45524331393637557067726164653a20756e737570706f727465642070726f7860008201527f6961626c65555549440000000000000000000000000000000000000000000000602082015250565b600061798d602983615af4565b915061799882617931565b604082019050919050565b600060208201905081810360008301526179bc81617980565b9050919050565b7f436865636b706f696e74733a20626c6f636b206e6f7420796574206d696e6564600082015250565b60006179f9602083615af4565b9150617a04826179c3565b602082019050919050565b60006020820190508181036000830152617a28816179ec565b9050919050565b7f496e697469616c697a61626c653a20636f6e7472616374206973206e6f74206960008201527f6e697469616c697a696e67000000000000000000000000000000000000000000602082015250565b6000617a8b602b83615af4565b9150617a9682617a2f565b604082019050919050565b60006020820190508181036000830152617aba81617a7e565b9050919050565b7f4552433732313a20617070726f766520746f2063616c6c657200000000000000600082015250565b6000617af7601983615af4565b9150617b0282617ac1565b602082019050919050565b60006020820190508181036000830152617b2681617aea565b9050919050565b7f4552433732313a207472616e7366657220746f206e6f6e20455243373231526560008201527f63656976657220696d706c656d656e7465720000000000000000000000000000602082015250565b6000617b89603283615af4565b9150617b9482617b2d565b604082019050919050565b60006020820190508181036000830152617bb881617b7c565b9050919050565b600081905092915050565b7f3c73766720786d6c6e733d27687474703a2f2f7777772e77332e6f72672f323060008201527f30302f7376672720786d6c6e733a786c696e6b3d27687474703a2f2f7777772e60208201527f77332e6f72672f313939392f786c696e6b272076696577426f783d273020302060408201527f313230302031363030272077696474683d273132303027206865696768743d2760608201527f3136303027207374796c653d276261636b67726f756e642d636f6c6f723a776860808201527f697465273e00000000000000000000000000000000000000000000000000000060a082015250565b6000617cbe60a583617bbf565b9150617cc982617bca565b60a582019050919050565b60008190508160005260206000209050919050565b60008154617cf68161688b565b617d008186617bbf565b94506001821660008114617d1b5760018114617d2c57617d5f565b60ff19831686528186019350617d5f565b617d3585617cd4565b60005b83811015617d5757815481890152600182019150602081019050617d38565b838801955050505b50505092915050565b7f3c74657874207374796c653d27666f6e743a20626f6c6420313030707820736160008201527f6e732d73657269663b2720746578742d616e63686f723d276d6964646c65272060208201527f616c69676e6d656e742d626173656c696e653d2763656e7472616c2720783d2760408201527f3630302720793d2731323530273e000000000000000000000000000000000000606082015250565b6000617e10606e83617bbf565b9150617e1b82617d68565b606e82019050919050565b6000617e3182615ae9565b617e3b8185617bbf565b9350617e4b818560208601615b05565b80840191505092915050565b7f3c2f746578743e00000000000000000000000000000000000000000000000000600082015250565b6000617e8d600783617bbf565b9150617e9882617e57565b600782019050919050565b7f3c74657874207374796c653d27666f6e743a20626f6c6420313030707820736160008201527f6e732d73657269663b2720746578742d616e63686f723d276d6964646c65272060208201527f616c69676e6d656e742d626173656c696e653d2763656e7472616c2720783d2760408201527f3630302720793d2731333530273e000000000000000000000000000000000000606082015250565b6000617f4b606e83617bbf565b9150617f5682617ea3565b606e82019050919050565b7f3c74657874207374796c653d27666f6e743a20626f6c6420313030707820736160008201527f6e732d73657269663b2720746578742d616e63686f723d276d6964646c65272060208201527f616c69676e6d656e742d626173656c696e653d2763656e7472616c2720783d2760408201527f3630302720793d2731343530273e000000000000000000000000000000000000606082015250565b6000618009606e83617bbf565b915061801482617f61565b606e82019050919050565b7f3c2f7376673e0000000000000000000000000000000000000000000000000000600082015250565b6000618055600683617bbf565b91506180608261801f565b600682019050919050565b600061807682617cb1565b91506180828287617ce9565b915061808d82617e03565b91506180998286617e26565b91506180a482617e80565b91506180af82617f3e565b91506180bb8285617e26565b91506180c682617e80565b91506180d182617ffc565b91506180dd8284617ce9565b91506180e882617e80565b91506180f382618048565b915081905095945050505050565b7f7b20226964223a20000000000000000000000000000000000000000000000000600082015250565b6000618137600883617bbf565b915061814282618101565b600882019050919050565b7f2c20226e69636b4e616d65223a20220000000000000000000000000000000000600082015250565b6000618183600f83617bbf565b915061818e8261814d565b600f82019050919050565b7f222c2022726f6c65223a20220000000000000000000000000000000000000000600082015250565b60006181cf600c83617bbf565b91506181da82618199565b600c82019050919050565b7f222c20226f7267616e697a6174696f6e223a2022000000000000000000000000600082015250565b600061821b601483617bbf565b9150618226826181e5565b601482019050919050565b7f222c2022746f6b656e4e616d65223a2022000000000000000000000000000000600082015250565b6000618267601183617bbf565b915061827282618231565b601182019050919050565b7f222c2022696d616765223a2022646174613a696d6167652f7376672b786d6c3b60008201527f6261736536342c00000000000000000000000000000000000000000000000000602082015250565b60006182d9602783617bbf565b91506182e48261827d565b602782019050919050565b7f22207d0000000000000000000000000000000000000000000000000000000000600082015250565b6000618325600383617bbf565b9150618330826182ef565b600382019050919050565b60006183468261812a565b91506183528289617e26565b915061835d82618176565b91506183698288617e26565b9150618374826181c2565b91506183808287617e26565b915061838b8261820e565b91506183978286617e26565b91506183a28261825a565b91506183ae8285617e26565b91506183b9826182cc565b91506183c58284617e26565b91506183d082618318565b9150819050979650505050505050565b7f646174613a6170706c69636174696f6e2f6a736f6e3b757466382c0000000000600082015250565b6000618416601b83617bbf565b9150618421826183e0565b601b82019050919050565b600061843782618409565b91506184438284617e26565b915081905092915050565b7f416363657373436f6e74726f6c3a206163636f756e7420000000000000000000600082015250565b6000618484601783617bbf565b915061848f8261844e565b601782019050919050565b7f206973206d697373696e6720726f6c6520000000000000000000000000000000600082015250565b60006184d0601183617bbf565b91506184db8261849a565b601182019050919050565b60006184f182618477565b91506184fd8285617e26565b9150618508826184c3565b91506185148284617e26565b91508190509392505050565b600060a0820190506185356000830188615d85565b6185426020830187615d85565b61854f6040830186615d85565b61855c6060830185615e1c565b6185696080830184615c39565b9695505050505050565b7f455243313936373a206e657720696d706c656d656e746174696f6e206973206e60008201527f6f74206120636f6e747261637400000000000000000000000000000000000000602082015250565b60006185cf602d83615af4565b91506185da82618573565b604082019050919050565b600060208201905081810360008301526185fe816185c2565b9050919050565b600060408201905061861a6000830185615e1c565b6186276020830184615e1c565b9392505050565b600081519050919050565b600082825260208201905092915050565b60006186558261862e565b61865f8185618639565b935061866f818560208601615b05565b61867881615b38565b840191505092915050565b60006080820190506186986000830187615c39565b6186a56020830186615c39565b6186b26040830185615e1c565b81810360608301526186c4818461864a565b905095945050505050565b6000815190506186de81615a5a565b92915050565b6000602082840312156186fa576186f9615a24565b5b6000618708848285016186cf565b91505092915050565b7f1901000000000000000000000000000000000000000000000000000000000000600082015250565b6000618747600283617bbf565b915061875282618711565b600282019050919050565b6000819050919050565b61877861877382615d22565b61875d565b82525050565b60006187898261873a565b91506187958285618767565b6020820191506187a58284618767565b6020820191508190509392505050565b6187be81616553565b82525050565b60006080820190506187d96000830187615d85565b6187e660208301866187b5565b6187f36040830185615d85565b6188006060830184615d85565b95945050505050565b7f4e487b7100000000000000000000000000000000000000000000000000000000600052602160045260246000fd5b7f45434453413a20696e76616c6964207369676e61747572650000000000000000600082015250565b600061886e601883615af4565b915061887982618838565b602082019050919050565b6000602082019050818103600083015261889d81618861565b9050919050565b7f45434453413a20696e76616c6964207369676e6174757265206c656e67746800600082015250565b60006188da601f83615af4565b91506188e5826188a4565b602082019050919050565b60006020820190508181036000830152618909816188cd565b9050919050565b7f45434453413a20696e76616c6964207369676e6174757265202773272076616c60008201527f7565000000000000000000000000000000000000000000000000000000000000602082015250565b600061896c602283615af4565b915061897782618910565b604082019050919050565b6000602082019050818103600083015261899b8161895f565b9050919050565b7f45434453413a20696e76616c6964207369676e6174757265202776272076616c60008201527f7565000000000000000000000000000000000000000000000000000000000000602082015250565b60006189fe602283615af4565b9150618a09826189a2565b604082019050919050565b60006020820190508181036000830152618a2d816189f1565b9050919050565b6000618a3f82615ba4565b9150618a4a83615ba4565b925082618a5a57618a59616c94565b5b828206905092915050565b6000618a7082615ba4565b915060008203618a8357618a82616cc3565b5b600182039050919050565b7f537472696e67733a20686578206c656e67746820696e73756666696369656e74600082015250565b6000618ac4602083615af4565b9150618acf82618a8e565b602082019050919050565b60006020820190508181036000830152618af381618ab7565b9050919050565b7f416464726573733a2064656c65676174652063616c6c20746f206e6f6e2d636f60008201527f6e74726163740000000000000000000000000000000000000000000000000000602082015250565b6000618b56602683615af4565b9150618b6182618afa565b604082019050919050565b60006020820190508181036000830152618b8581618b49565b9050919050565b6000618b978261862e565b618ba18185616d7d565b9350618bb1818560208601615b05565b80840191505092915050565b6000618bc98284618b8c565b915081905092915050565b7f4552433732313a206d696e7420746f20746865207a65726f2061646472657373600082015250565b6000618c0a602083615af4565b9150618c1582618bd4565b602082019050919050565b60006020820190508181036000830152618c3981618bfd565b9050919050565b7f4552433732313a20746f6b656e20616c7265616479206d696e74656400000000600082015250565b6000618c76601c83615af4565b9150618c8182618c40565b602082019050919050565b60006020820190508181036000830152618ca581618c69565b9050919050565b7f53616665436173743a2076616c756520646f65736e27742066697420696e203260008201527f3234206269747300000000000000000000000000000000000000000000000000602082015250565b6000618d08602783615af4565b9150618d1382618cac565b604082019050919050565b60006020820190508181036000830152618d3781618cfb565b9050919050565b7f53616665436173743a2076616c756520646f65736e27742066697420696e203360008201527f3220626974730000000000000000000000000000000000000000000000000000602082015250565b6000618d9a602683615af4565b9150618da582618d3e565b604082019050919050565b60006020820190508181036000830152618dc981618d8d565b905091905056fe4142434445464748494a4b4c4d4e4f505152535455565758595a6162636465666768696a6b6c6d6e6f707172737475767778797a303132333435363738392b2f416464726573733a206c6f772d6c6576656c2064656c65676174652063616c6c206661696c6564a2646970667358221220969761e5d2bb20da57dce2a7a5ef252321748b70aaaf120b714a8346d401a2f064736f6c634300080d0033",
			"opcodes": "PUSH1 0xA0 PUSH1 0x40 MSTORE ADDRESS PUSH20 0xFFFFFFFFFFFFFFFFFFFFFFFFFFFFFFFFFFFFFFFF AND PUSH1 0x80 SWAP1 PUSH20 0xFFFFFFFFFFFFFFFFFFFFFFFFFFFFFFFFFFFFFFFF AND DUP2 MSTORE POP CALLVALUE DUP1 ISZERO PUSH3 0x44 JUMPI PUSH1 0x0 DUP1 REVERT JUMPDEST POP PUSH1 0x0 DUP1 PUSH1 0x1 SWAP1 SLOAD SWAP1 PUSH2 0x100 EXP SWAP1 DIV PUSH1 0xFF AND ISZERO SWAP1 POP DUP1 DUP1 ISZERO PUSH3 0x77 JUMPI POP PUSH1 0x1 PUSH1 0x0 DUP1 SLOAD SWAP1 PUSH2 0x100 EXP SWAP1 DIV PUSH1 0xFF AND PUSH1 0xFF AND LT JUMPDEST DUP1 PUSH3 0xB3 JUMPI POP PUSH3 0x94 ADDRESS PUSH3 0x196 PUSH1 0x20 SHL PUSH3 0x2E43 OR PUSH1 0x20 SHR JUMP JUMPDEST ISZERO DUP1 ISZERO PUSH3 0xB2 JUMPI POP PUSH1 0x1 PUSH1 0x0 DUP1 SLOAD SWAP1 PUSH2 0x100 EXP SWAP1 DIV PUSH1 0xFF AND PUSH1 0xFF AND EQ JUMPDEST JUMPDEST PUSH3 0xF5 JUMPI PUSH1 0x40 MLOAD PUSH32 0x8C379A000000000000000000000000000000000000000000000000000000000 DUP2 MSTORE PUSH1 0x4 ADD PUSH3 0xEC SWAP1 PUSH3 0x240 JUMP JUMPDEST PUSH1 0x40 MLOAD DUP1 SWAP2 SUB SWAP1 REVERT JUMPDEST PUSH1 0x1 PUSH1 0x0 DUP1 PUSH2 0x100 EXP DUP2 SLOAD DUP2 PUSH1 0xFF MUL NOT AND SWAP1 DUP4 PUSH1 0xFF AND MUL OR SWAP1 SSTORE POP DUP1 ISZERO PUSH3 0x133 JUMPI PUSH1 0x1 PUSH1 0x0 PUSH1 0x1 PUSH2 0x100 EXP DUP2 SLOAD DUP2 PUSH1 0xFF MUL NOT AND SWAP1 DUP4 ISZERO ISZERO MUL OR SWAP1 SSTORE POP JUMPDEST DUP1 ISZERO PUSH3 0x18F JUMPI PUSH1 0x0 DUP1 PUSH1 0x1 PUSH2 0x100 EXP DUP2 SLOAD DUP2 PUSH1 0xFF MUL NOT AND SWAP1 DUP4 ISZERO ISZERO MUL OR SWAP1 SSTORE POP PUSH32 0x7F26B83FF96E1F2B6A682F133852F6798A09C465DA95921460CEFB3847402498 PUSH1 0x1 PUSH1 0x40 MLOAD PUSH3 0x186 SWAP2 SWAP1 PUSH3 0x2BC JUMP JUMPDEST PUSH1 0x40 MLOAD DUP1 SWAP2 SUB SWAP1 LOG1 JUMPDEST POP PUSH3 0x2D9 JUMP JUMPDEST PUSH1 0x0 DUP1 DUP3 PUSH20 0xFFFFFFFFFFFFFFFFFFFFFFFFFFFFFFFFFFFFFFFF AND EXTCODESIZE GT SWAP1 POP SWAP2 SWAP1 POP JUMP JUMPDEST PUSH1 0x0 DUP3 DUP3 MSTORE PUSH1 0x20 DUP3 ADD SWAP1 POP SWAP3 SWAP2 POP POP JUMP JUMPDEST PUSH32 0x496E697469616C697A61626C653A20636F6E747261637420697320616C726561 PUSH1 0x0 DUP3 ADD MSTORE PUSH32 0x647920696E697469616C697A6564000000000000000000000000000000000000 PUSH1 0x20 DUP3 ADD MSTORE POP JUMP JUMPDEST PUSH1 0x0 PUSH3 0x228 PUSH1 0x2E DUP4 PUSH3 0x1B9 JUMP JUMPDEST SWAP2 POP PUSH3 0x235 DUP3 PUSH3 0x1CA JUMP JUMPDEST PUSH1 0x40 DUP3 ADD SWAP1 POP SWAP2 SWAP1 POP JUMP JUMPDEST PUSH1 0x0 PUSH1 0x20 DUP3 ADD SWAP1 POP DUP2 DUP2 SUB PUSH1 0x0 DUP4 ADD MSTORE PUSH3 0x25B DUP2 PUSH3 0x219 JUMP JUMPDEST SWAP1 POP SWAP2 SWAP1 POP JUMP JUMPDEST PUSH1 0x0 DUP2 SWAP1 POP SWAP2 SWAP1 POP JUMP JUMPDEST PUSH1 0x0 PUSH1 0xFF DUP3 AND SWAP1 POP SWAP2 SWAP1 POP JUMP JUMPDEST PUSH1 0x0 DUP2 SWAP1 POP SWAP2 SWAP1 POP JUMP JUMPDEST PUSH1 0x0 PUSH3 0x2A4 PUSH3 0x29E PUSH3 0x298 DUP5 PUSH3 0x262 JUMP JUMPDEST PUSH3 0x279 JUMP JUMPDEST PUSH3 0x26C JUMP JUMPDEST SWAP1 POP SWAP2 SWAP1 POP JUMP JUMPDEST PUSH3 0x2B6 DUP2 PUSH3 0x283 JUMP JUMPDEST DUP3 MSTORE POP POP JUMP JUMPDEST PUSH1 0x0 PUSH1 0x20 DUP3 ADD SWAP1 POP PUSH3 0x2D3 PUSH1 0x0 DUP4 ADD DUP5 PUSH3 0x2AB JUMP JUMPDEST SWAP3 SWAP2 POP POP JUMP JUMPDEST PUSH1 0x80 MLOAD PUSH2 0x8E6D PUSH3 0x311 PUSH1 0x0 CODECOPY PUSH1 0x0 DUP2 DUP2 PUSH2 0x1365 ADD MSTORE DUP2 DUP2 PUSH2 0x13F3 ADD MSTORE DUP2 DUP2 PUSH2 0x1860 ADD MSTORE DUP2 DUP2 PUSH2 0x18EE ADD MSTORE PUSH2 0x199E ADD MSTORE PUSH2 0x8E6D PUSH1 0x0 RETURN INVALID PUSH1 0x80 PUSH1 0x40 MSTORE PUSH1 0x4 CALLDATASIZE LT PUSH2 0x36F JUMPI PUSH1 0x0 CALLDATALOAD PUSH1 0xE0 SHR DUP1 PUSH4 0x6817C76C GT PUSH2 0x1C6 JUMPI DUP1 PUSH4 0xA75D961E GT PUSH2 0xF7 JUMPI DUP1 PUSH4 0xD6BFC22F GT PUSH2 0x95 JUMPI DUP1 PUSH4 0xE63AB1E9 GT PUSH2 0x6F JUMPI DUP1 PUSH4 0xE63AB1E9 EQ PUSH2 0xD00 JUMPI DUP1 PUSH4 0xE985E9C5 EQ PUSH2 0xD2B JUMPI DUP1 PUSH4 0xF4A0A528 EQ PUSH2 0xD68 JUMPI DUP1 PUSH4 0xF72C0D8B EQ PUSH2 0xD91 JUMPI PUSH2 0x376 JUMP JUMPDEST DUP1 PUSH4 0xD6BFC22F EQ PUSH2 0xC83 JUMPI DUP1 PUSH4 0xDAB45BBD EQ PUSH2 0xCAE JUMPI DUP1 PUSH4 0xDC8E92EA EQ PUSH2 0xCD7 JUMPI PUSH2 0x376 JUMP JUMPDEST DUP1 PUSH4 0xC3CDA520 GT PUSH2 0xD1 JUMPI DUP1 PUSH4 0xC3CDA520 EQ PUSH2 0xBC9 JUMPI DUP1 PUSH4 0xC87B56DD EQ PUSH2 0xBF2 JUMPI DUP1 PUSH4 0xD5391393 EQ PUSH2 0xC2F JUMPI DUP1 PUSH4 0xD547741F EQ PUSH2 0xC5A JUMPI PUSH2 0x376 JUMP JUMPDEST DUP1 PUSH4 0xA75D961E EQ PUSH2 0xB3A JUMPI DUP1 PUSH4 0xB88D4FDE EQ PUSH2 0xB63 JUMPI DUP1 PUSH4 0xC0DA9BCD EQ PUSH2 0xB8C JUMPI PUSH2 0x376 JUMP JUMPDEST DUP1 PUSH4 0x91D14854 GT PUSH2 0x164 JUMPI DUP1 PUSH4 0x99071190 GT PUSH2 0x13E JUMPI DUP1 PUSH4 0x99071190 EQ PUSH2 0xA8D JUMPI DUP1 PUSH4 0x9AB24EB0 EQ PUSH2 0xAA9 JUMPI DUP1 PUSH4 0xA217FDDF EQ PUSH2 0xAE6 JUMPI DUP1 PUSH4 0xA22CB465 EQ PUSH2 0xB11 JUMPI PUSH2 0x376 JUMP JUMPDEST DUP1 PUSH4 0x91D14854 EQ PUSH2 0x9FA JUMPI DUP1 PUSH4 0x92FF0D31 EQ PUSH2 0xA37 JUMPI DUP1 PUSH4 0x95D89B41 EQ PUSH2 0xA62 JUMPI PUSH2 0x376 JUMP JUMPDEST DUP1 PUSH4 0x726B83B6 GT PUSH2 0x1A0 JUMPI DUP1 PUSH4 0x726B83B6 EQ PUSH2 0x918 JUMPI DUP1 PUSH4 0x72B1D8CF EQ PUSH2 0x943 JUMPI DUP1 PUSH4 0x7ECEBE00 EQ PUSH2 0x980 JUMPI DUP1 PUSH4 0x8E539E8C EQ PUSH2 0x9BD JUMPI PUSH2 0x376 JUMP JUMPDEST DUP1 PUSH4 0x6817C76C EQ PUSH2 0x887 JUMPI DUP1 PUSH4 0x6C4A4149 EQ PUSH2 0x8B2 JUMPI DUP1 PUSH4 0x70A08231 EQ PUSH2 0x8DB JUMPI PUSH2 0x376 JUMP JUMPDEST DUP1 PUSH4 0x3C683CFF GT PUSH2 0x2A0 JUMPI DUP1 PUSH4 0x54FD4D50 GT PUSH2 0x23E JUMPI DUP1 PUSH4 0x5C19A95C GT PUSH2 0x218 JUMPI DUP1 PUSH4 0x5C19A95C EQ PUSH2 0x7CB JUMPI DUP1 PUSH4 0x5C975ABB EQ PUSH2 0x7F4 JUMPI DUP1 PUSH4 0x61B8CE8C EQ PUSH2 0x81F JUMPI DUP1 PUSH4 0x6352211E EQ PUSH2 0x84A JUMPI PUSH2 0x376 JUMP JUMPDEST DUP1 PUSH4 0x54FD4D50 EQ PUSH2 0x73A JUMPI DUP1 PUSH4 0x587CDE1E EQ PUSH2 0x765 JUMPI DUP1 PUSH4 0x591E4065 EQ PUSH2 0x7A2 JUMPI PUSH2 0x376 JUMP JUMPDEST DUP1 PUSH4 0x42966C68 GT PUSH2 0x27A JUMPI DUP1 PUSH4 0x42966C68 EQ PUSH2 0x69F JUMPI DUP1 PUSH4 0x4BF365DF EQ PUSH2 0x6C8 JUMPI DUP1 PUSH4 0x4F1EF286 EQ PUSH2 0x6F3 JUMPI DUP1 PUSH4 0x52D1902D EQ PUSH2 0x70F JUMPI PUSH2 0x376 JUMP JUMPDEST DUP1 PUSH4 0x3C683CFF EQ PUSH2 0x622 JUMPI DUP1 PUSH4 0x3CCFD60B EQ PUSH2 0x65F JUMPI DUP1 PUSH4 0x42842E0E EQ PUSH2 0x676 JUMPI PUSH2 0x376 JUMP JUMPDEST DUP1 PUSH4 0x23BD4D7A GT PUSH2 0x30D JUMPI DUP1 PUSH4 0x3644E515 GT PUSH2 0x2E7 JUMPI DUP1 PUSH4 0x3644E515 EQ PUSH2 0x568 JUMPI DUP1 PUSH4 0x36568ABE EQ PUSH2 0x593 JUMPI DUP1 PUSH4 0x3659CFE6 EQ PUSH2 0x5BC JUMPI DUP1 PUSH4 0x3A46B1A8 EQ PUSH2 0x5E5 JUMPI PUSH2 0x376 JUMP JUMPDEST DUP1 PUSH4 0x23BD4D7A EQ PUSH2 0x4D7 JUMPI DUP1 PUSH4 0x248A9CA3 EQ PUSH2 0x502 JUMPI DUP1 PUSH4 0x2F2FF15D EQ PUSH2 0x53F JUMPI PUSH2 0x376 JUMP JUMPDEST DUP1 PUSH4 0x95EA7B3 GT PUSH2 0x349 JUMPI DUP1 PUSH4 0x95EA7B3 EQ PUSH2 0x41D JUMPI DUP1 PUSH4 0x14AFBA3B EQ PUSH2 0x446 JUMPI DUP1 PUSH4 0x1620245D EQ PUSH2 0x471 JUMPI DUP1 PUSH4 0x23B872DD EQ PUSH2 0x4AE JUMPI PUSH2 0x376 JUMP JUMPDEST DUP1 PUSH4 0x1FFC9A7 EQ PUSH2 0x378 JUMPI DUP1 PUSH4 0x6FDDE03 EQ PUSH2 0x3B5 JUMPI DUP1 PUSH4 0x81812FC EQ PUSH2 0x3E0 JUMPI PUSH2 0x376 JUMP JUMPDEST CALLDATASIZE PUSH2 0x376 JUMPI STOP JUMPDEST STOP JUMPDEST CALLVALUE DUP1 ISZERO PUSH2 0x384 JUMPI PUSH1 0x0 DUP1 REVERT JUMPDEST POP PUSH2 0x39F PUSH1 0x4 DUP1 CALLDATASIZE SUB DUP2 ADD SWAP1 PUSH2 0x39A SWAP2 SWAP1 PUSH2 0x5A86 JUMP JUMPDEST PUSH2 0xDBC JUMP JUMPDEST PUSH1 0x40 MLOAD PUSH2 0x3AC SWAP2 SWAP1 PUSH2 0x5ACE JUMP JUMPDEST PUSH1 0x40 MLOAD DUP1 SWAP2 SUB SWAP1 RETURN JUMPDEST CALLVALUE DUP1 ISZERO PUSH2 0x3C1 JUMPI PUSH1 0x0 DUP1 REVERT JUMPDEST POP PUSH2 0x3CA PUSH2 0xDCE JUMP JUMPDEST PUSH1 0x40 MLOAD PUSH2 0x3D7 SWAP2 SWAP1 PUSH2 0x5B82 JUMP JUMPDEST PUSH1 0x40 MLOAD DUP1 SWAP2 SUB SWAP1 RETURN JUMPDEST CALLVALUE DUP1 ISZERO PUSH2 0x3EC JUMPI PUSH1 0x0 DUP1 REVERT JUMPDEST POP PUSH2 0x407 PUSH1 0x4 DUP1 CALLDATASIZE SUB DUP2 ADD SWAP1 PUSH2 0x402 SWAP2 SWAP1 PUSH2 0x5BDA JUMP JUMPDEST PUSH2 0xE60 JUMP JUMPDEST PUSH1 0x40 MLOAD PUSH2 0x414 SWAP2 SWAP1 PUSH2 0x5C48 JUMP JUMPDEST PUSH1 0x40 MLOAD DUP1 SWAP2 SUB SWAP1 RETURN JUMPDEST CALLVALUE DUP1 ISZERO PUSH2 0x429 JUMPI PUSH1 0x0 DUP1 REVERT JUMPDEST POP PUSH2 0x444 PUSH1 0x4 DUP1 CALLDATASIZE SUB DUP2 ADD SWAP1 PUSH2 0x43F SWAP2 SWAP1 PUSH2 0x5C8F JUMP JUMPDEST PUSH2 0xEA6 JUMP JUMPDEST STOP JUMPDEST CALLVALUE DUP1 ISZERO PUSH2 0x452 JUMPI PUSH1 0x0 DUP1 REVERT JUMPDEST POP PUSH2 0x45B PUSH2 0x100B JUMP JUMPDEST PUSH1 0x40 MLOAD PUSH2 0x468 SWAP2 SWAP1 PUSH2 0x5B82 JUMP JUMPDEST PUSH1 0x40 MLOAD DUP1 SWAP2 SUB SWAP1 RETURN JUMPDEST CALLVALUE DUP1 ISZERO PUSH2 0x47D JUMPI PUSH1 0x0 DUP1 REVERT JUMPDEST POP PUSH2 0x498 PUSH1 0x4 DUP1 CALLDATASIZE SUB DUP2 ADD SWAP1 PUSH2 0x493 SWAP2 SWAP1 PUSH2 0x5BDA JUMP JUMPDEST PUSH2 0x109E JUMP JUMPDEST PUSH1 0x40 MLOAD PUSH2 0x4A5 SWAP2 SWAP1 PUSH2 0x5B82 JUMP JUMPDEST PUSH1 0x40 MLOAD DUP1 SWAP2 SUB SWAP1 RETURN JUMPDEST CALLVALUE DUP1 ISZERO PUSH2 0x4BA JUMPI PUSH1 0x0 DUP1 REVERT JUMPDEST POP PUSH2 0x4D5 PUSH1 0x4 DUP1 CALLDATASIZE SUB DUP2 ADD SWAP1 PUSH2 0x4D0 SWAP2 SWAP1 PUSH2 0x5CCF JUMP JUMPDEST PUSH2 0x1147 JUMP JUMPDEST STOP JUMPDEST CALLVALUE DUP1 ISZERO PUSH2 0x4E3 JUMPI PUSH1 0x0 DUP1 REVERT JUMPDEST POP PUSH2 0x4EC PUSH2 0x11FD JUMP JUMPDEST PUSH1 0x40 MLOAD PUSH2 0x4F9 SWAP2 SWAP1 PUSH2 0x5B82 JUMP JUMPDEST PUSH1 0x40 MLOAD DUP1 SWAP2 SUB SWAP1 RETURN JUMPDEST CALLVALUE DUP1 ISZERO PUSH2 0x50E JUMPI PUSH1 0x0 DUP1 REVERT JUMPDEST POP PUSH2 0x529 PUSH1 0x4 DUP1 CALLDATASIZE SUB DUP2 ADD SWAP1 PUSH2 0x524 SWAP2 SWAP1 PUSH2 0x5D58 JUMP JUMPDEST PUSH2 0x1290 JUMP JUMPDEST PUSH1 0x40 MLOAD PUSH2 0x536 SWAP2 SWAP1 PUSH2 0x5D94 JUMP JUMPDEST PUSH1 0x40 MLOAD DUP1 SWAP2 SUB SWAP1 RETURN JUMPDEST CALLVALUE DUP1 ISZERO PUSH2 0x54B JUMPI PUSH1 0x0 DUP1 REVERT JUMPDEST POP PUSH2 0x566 PUSH1 0x4 DUP1 CALLDATASIZE SUB DUP2 ADD SWAP1 PUSH2 0x561 SWAP2 SWAP1 PUSH2 0x5DAF JUMP JUMPDEST PUSH2 0x12B0 JUMP JUMPDEST STOP JUMPDEST CALLVALUE DUP1 ISZERO PUSH2 0x574 JUMPI PUSH1 0x0 DUP1 REVERT JUMPDEST POP PUSH2 0x57D PUSH2 0x12D1 JUMP JUMPDEST PUSH1 0x40 MLOAD PUSH2 0x58A SWAP2 SWAP1 PUSH2 0x5D94 JUMP JUMPDEST PUSH1 0x40 MLOAD DUP1 SWAP2 SUB SWAP1 RETURN JUMPDEST CALLVALUE DUP1 ISZERO PUSH2 0x59F JUMPI PUSH1 0x0 DUP1 REVERT JUMPDEST POP PUSH2 0x5BA PUSH1 0x4 DUP1 CALLDATASIZE SUB DUP2 ADD SWAP1 PUSH2 0x5B5 SWAP2 SWAP1 PUSH2 0x5DAF JUMP JUMPDEST PUSH2 0x12E0 JUMP JUMPDEST STOP JUMPDEST CALLVALUE DUP1 ISZERO PUSH2 0x5C8 JUMPI PUSH1 0x0 DUP1 REVERT JUMPDEST POP PUSH2 0x5E3 PUSH1 0x4 DUP1 CALLDATASIZE SUB DUP2 ADD SWAP1 PUSH2 0x5DE SWAP2 SWAP1 PUSH2 0x5DEF JUMP JUMPDEST PUSH2 0x1363 JUMP JUMPDEST STOP JUMPDEST CALLVALUE DUP1 ISZERO PUSH2 0x5F1 JUMPI PUSH1 0x0 DUP1 REVERT JUMPDEST POP PUSH2 0x60C PUSH1 0x4 DUP1 CALLDATASIZE SUB DUP2 ADD SWAP1 PUSH2 0x607 SWAP2 SWAP1 PUSH2 0x5C8F JUMP JUMPDEST PUSH2 0x14EB JUMP JUMPDEST PUSH1 0x40 MLOAD PUSH2 0x619 SWAP2 SWAP1 PUSH2 0x5E2B JUMP JUMPDEST PUSH1 0x40 MLOAD DUP1 SWAP2 SUB SWAP1 RETURN JUMPDEST CALLVALUE DUP1 ISZERO PUSH2 0x62E JUMPI PUSH1 0x0 DUP1 REVERT JUMPDEST POP PUSH2 0x649 PUSH1 0x4 DUP1 CALLDATASIZE SUB DUP2 ADD SWAP1 PUSH2 0x644 SWAP2 SWAP1 PUSH2 0x5BDA JUMP JUMPDEST PUSH2 0x1546 JUMP JUMPDEST PUSH1 0x40 MLOAD PUSH2 0x656 SWAP2 SWAP1 PUSH2 0x5C48 JUMP JUMPDEST PUSH1 0x40 MLOAD DUP1 SWAP2 SUB SWAP1 RETURN JUMPDEST CALLVALUE DUP1 ISZERO PUSH2 0x66B JUMPI PUSH1 0x0 DUP1 REVERT JUMPDEST POP PUSH2 0x674 PUSH2 0x1584 JUMP JUMPDEST STOP JUMPDEST CALLVALUE DUP1 ISZERO PUSH2 0x682 JUMPI PUSH1 0x0 DUP1 REVERT JUMPDEST POP PUSH2 0x69D PUSH1 0x4 DUP1 CALLDATASIZE SUB DUP2 ADD SWAP1 PUSH2 0x698 SWAP2 SWAP1 PUSH2 0x5CCF JUMP JUMPDEST PUSH2 0x16D8 JUMP JUMPDEST STOP JUMPDEST CALLVALUE DUP1 ISZERO PUSH2 0x6AB JUMPI PUSH1 0x0 DUP1 REVERT JUMPDEST POP PUSH2 0x6C6 PUSH1 0x4 DUP1 CALLDATASIZE SUB DUP2 ADD SWAP1 PUSH2 0x6C1 SWAP2 SWAP1 PUSH2 0x5BDA JUMP JUMPDEST PUSH2 0x16F8 JUMP JUMPDEST STOP JUMPDEST CALLVALUE DUP1 ISZERO PUSH2 0x6D4 JUMPI PUSH1 0x0 DUP1 REVERT JUMPDEST POP PUSH2 0x6DD PUSH2 0x1846 JUMP JUMPDEST PUSH1 0x40 MLOAD PUSH2 0x6EA SWAP2 SWAP1 PUSH2 0x5ACE JUMP JUMPDEST PUSH1 0x40 MLOAD DUP1 SWAP2 SUB SWAP1 RETURN JUMPDEST PUSH2 0x70D PUSH1 0x4 DUP1 CALLDATASIZE SUB DUP2 ADD SWAP1 PUSH2 0x708 SWAP2 SWAP1 PUSH2 0x5F7B JUMP JUMPDEST PUSH2 0x185E JUMP JUMPDEST STOP JUMPDEST CALLVALUE DUP1 ISZERO PUSH2 0x71B JUMPI PUSH1 0x0 DUP1 REVERT JUMPDEST POP PUSH2 0x724 PUSH2 0x199A JUMP JUMPDEST PUSH1 0x40 MLOAD PUSH2 0x731 SWAP2 SWAP1 PUSH2 0x5D94 JUMP JUMPDEST PUSH1 0x40 MLOAD DUP1 SWAP2 SUB SWAP1 RETURN JUMPDEST CALLVALUE DUP1 ISZERO PUSH2 0x746 JUMPI PUSH1 0x0 DUP1 REVERT JUMPDEST POP PUSH2 0x74F PUSH2 0x1A53 JUMP JUMPDEST PUSH1 0x40 MLOAD PUSH2 0x75C SWAP2 SWAP1 PUSH2 0x5E2B JUMP JUMPDEST PUSH1 0x40 MLOAD DUP1 SWAP2 SUB SWAP1 RETURN JUMPDEST CALLVALUE DUP1 ISZERO PUSH2 0x771 JUMPI PUSH1 0x0 DUP1 REVERT JUMPDEST POP PUSH2 0x78C PUSH1 0x4 DUP1 CALLDATASIZE SUB DUP2 ADD SWAP1 PUSH2 0x787 SWAP2 SWAP1 PUSH2 0x5DEF JUMP JUMPDEST PUSH2 0x1A5C JUMP JUMPDEST PUSH1 0x40 MLOAD PUSH2 0x799 SWAP2 SWAP1 PUSH2 0x5C48 JUMP JUMPDEST PUSH1 0x40 MLOAD DUP1 SWAP2 SUB SWAP1 RETURN JUMPDEST CALLVALUE DUP1 ISZERO PUSH2 0x7AE JUMPI PUSH1 0x0 DUP1 REVERT JUMPDEST POP PUSH2 0x7C9 PUSH1 0x4 DUP1 CALLDATASIZE SUB DUP2 ADD SWAP1 PUSH2 0x7C4 SWAP2 SWAP1 PUSH2 0x60A4 JUMP JUMPDEST PUSH2 0x1AC5 JUMP JUMPDEST STOP JUMPDEST CALLVALUE DUP1 ISZERO PUSH2 0x7D7 JUMPI PUSH1 0x0 DUP1 REVERT JUMPDEST POP PUSH2 0x7F2 PUSH1 0x4 DUP1 CALLDATASIZE SUB DUP2 ADD SWAP1 PUSH2 0x7ED SWAP2 SWAP1 PUSH2 0x5DEF JUMP JUMPDEST PUSH2 0x1DB3 JUMP JUMPDEST STOP JUMPDEST CALLVALUE DUP1 ISZERO PUSH2 0x800 JUMPI PUSH1 0x0 DUP1 REVERT JUMPDEST POP PUSH2 0x809 PUSH2 0x1DCD JUMP JUMPDEST PUSH1 0x40 MLOAD PUSH2 0x816 SWAP2 SWAP1 PUSH2 0x5ACE JUMP JUMPDEST PUSH1 0x40 MLOAD DUP1 SWAP2 SUB SWAP1 RETURN JUMPDEST CALLVALUE DUP1 ISZERO PUSH2 0x82B JUMPI PUSH1 0x0 DUP1 REVERT JUMPDEST POP PUSH2 0x834 PUSH2 0x1DE5 JUMP JUMPDEST PUSH1 0x40 MLOAD PUSH2 0x841 SWAP2 SWAP1 PUSH2 0x5E2B JUMP JUMPDEST PUSH1 0x40 MLOAD DUP1 SWAP2 SUB SWAP1 RETURN JUMPDEST CALLVALUE DUP1 ISZERO PUSH2 0x856 JUMPI PUSH1 0x0 DUP1 REVERT JUMPDEST POP PUSH2 0x871 PUSH1 0x4 DUP1 CALLDATASIZE SUB DUP2 ADD SWAP1 PUSH2 0x86C SWAP2 SWAP1 PUSH2 0x5BDA JUMP JUMPDEST PUSH2 0x1DF7 JUMP JUMPDEST PUSH1 0x40 MLOAD PUSH2 0x87E SWAP2 SWAP1 PUSH2 0x5C48 JUMP JUMPDEST PUSH1 0x40 MLOAD DUP1 SWAP2 SUB SWAP1 RETURN JUMPDEST CALLVALUE DUP1 ISZERO PUSH2 0x893 JUMPI PUSH1 0x0 DUP1 REVERT JUMPDEST POP PUSH2 0x89C PUSH2 0x1EA8 JUMP JUMPDEST PUSH1 0x40 MLOAD PUSH2 0x8A9 SWAP2 SWAP1 PUSH2 0x5E2B JUMP JUMPDEST PUSH1 0x40 MLOAD DUP1 SWAP2 SUB SWAP1 RETURN JUMPDEST CALLVALUE DUP1 ISZERO PUSH2 0x8BE JUMPI PUSH1 0x0 DUP1 REVERT JUMPDEST POP PUSH2 0x8D9 PUSH1 0x4 DUP1 CALLDATASIZE SUB DUP2 ADD SWAP1 PUSH2 0x8D4 SWAP2 SWAP1 PUSH2 0x61CA JUMP JUMPDEST PUSH2 0x1EB3 JUMP JUMPDEST STOP JUMPDEST CALLVALUE DUP1 ISZERO PUSH2 0x8E7 JUMPI PUSH1 0x0 DUP1 REVERT JUMPDEST POP PUSH2 0x902 PUSH1 0x4 DUP1 CALLDATASIZE SUB DUP2 ADD SWAP1 PUSH2 0x8FD SWAP2 SWAP1 PUSH2 0x5DEF JUMP JUMPDEST PUSH2 0x1EF9 JUMP JUMPDEST PUSH1 0x40 MLOAD PUSH2 0x90F SWAP2 SWAP1 PUSH2 0x5E2B JUMP JUMPDEST PUSH1 0x40 MLOAD DUP1 SWAP2 SUB SWAP1 RETURN JUMPDEST CALLVALUE DUP1 ISZERO PUSH2 0x924 JUMPI PUSH1 0x0 DUP1 REVERT JUMPDEST POP PUSH2 0x92D PUSH2 0x1FB0 JUMP JUMPDEST PUSH1 0x40 MLOAD PUSH2 0x93A SWAP2 SWAP1 PUSH2 0x5ACE JUMP JUMPDEST PUSH1 0x40 MLOAD DUP1 SWAP2 SUB SWAP1 RETURN JUMPDEST CALLVALUE DUP1 ISZERO PUSH2 0x94F JUMPI PUSH1 0x0 DUP1 REVERT JUMPDEST POP PUSH2 0x96A PUSH1 0x4 DUP1 CALLDATASIZE SUB DUP2 ADD SWAP1 PUSH2 0x965 SWAP2 SWAP1 PUSH2 0x5BDA JUMP JUMPDEST PUSH2 0x208E JUMP JUMPDEST PUSH1 0x40 MLOAD PUSH2 0x977 SWAP2 SWAP1 PUSH2 0x5B82 JUMP JUMPDEST PUSH1 0x40 MLOAD DUP1 SWAP2 SUB SWAP1 RETURN JUMPDEST CALLVALUE DUP1 ISZERO PUSH2 0x98C JUMPI PUSH1 0x0 DUP1 REVERT JUMPDEST POP PUSH2 0x9A7 PUSH1 0x4 DUP1 CALLDATASIZE SUB DUP2 ADD SWAP1 PUSH2 0x9A2 SWAP2 SWAP1 PUSH2 0x5DEF JUMP JUMPDEST PUSH2 0x2137 JUMP JUMPDEST PUSH1 0x40 MLOAD PUSH2 0x9B4 SWAP2 SWAP1 PUSH2 0x5E2B JUMP JUMPDEST PUSH1 0x40 MLOAD DUP1 SWAP2 SUB SWAP1 RETURN JUMPDEST CALLVALUE DUP1 ISZERO PUSH2 0x9C9 JUMPI PUSH1 0x0 DUP1 REVERT JUMPDEST POP PUSH2 0x9E4 PUSH1 0x4 DUP1 CALLDATASIZE SUB DUP2 ADD SWAP1 PUSH2 0x9DF SWAP2 SWAP1 PUSH2 0x5BDA JUMP JUMPDEST PUSH2 0x2188 JUMP JUMPDEST PUSH1 0x40 MLOAD PUSH2 0x9F1 SWAP2 SWAP1 PUSH2 0x5E2B JUMP JUMPDEST PUSH1 0x40 MLOAD DUP1 SWAP2 SUB SWAP1 RETURN JUMPDEST CALLVALUE DUP1 ISZERO PUSH2 0xA06 JUMPI PUSH1 0x0 DUP1 REVERT JUMPDEST POP PUSH2 0xA21 PUSH1 0x4 DUP1 CALLDATASIZE SUB DUP2 ADD SWAP1 PUSH2 0xA1C SWAP2 SWAP1 PUSH2 0x5DAF JUMP JUMPDEST PUSH2 0x21E7 JUMP JUMPDEST PUSH1 0x40 MLOAD PUSH2 0xA2E SWAP2 SWAP1 PUSH2 0x5ACE JUMP JUMPDEST PUSH1 0x40 MLOAD DUP1 SWAP2 SUB SWAP1 RETURN JUMPDEST CALLVALUE DUP1 ISZERO PUSH2 0xA43 JUMPI PUSH1 0x0 DUP1 REVERT JUMPDEST POP PUSH2 0xA4C PUSH2 0x2252 JUMP JUMPDEST PUSH1 0x40 MLOAD PUSH2 0xA59 SWAP2 SWAP1 PUSH2 0x5ACE JUMP JUMPDEST PUSH1 0x40 MLOAD DUP1 SWAP2 SUB SWAP1 RETURN JUMPDEST CALLVALUE DUP1 ISZERO PUSH2 0xA6E JUMPI PUSH1 0x0 DUP1 REVERT JUMPDEST POP PUSH2 0xA77 PUSH2 0x226A JUMP JUMPDEST PUSH1 0x40 MLOAD PUSH2 0xA84 SWAP2 SWAP1 PUSH2 0x5B82 JUMP JUMPDEST PUSH1 0x40 MLOAD DUP1 SWAP2 SUB SWAP1 RETURN JUMPDEST PUSH2 0xAA7 PUSH1 0x4 DUP1 CALLDATASIZE SUB DUP2 ADD SWAP1 PUSH2 0xAA2 SWAP2 SWAP1 PUSH2 0x6273 JUMP JUMPDEST PUSH2 0x22FC JUMP JUMPDEST STOP JUMPDEST CALLVALUE DUP1 ISZERO PUSH2 0xAB5 JUMPI PUSH1 0x0 DUP1 REVERT JUMPDEST POP PUSH2 0xAD0 PUSH1 0x4 DUP1 CALLDATASIZE SUB DUP2 ADD SWAP1 PUSH2 0xACB SWAP2 SWAP1 PUSH2 0x5DEF JUMP JUMPDEST PUSH2 0x2576 JUMP JUMPDEST PUSH1 0x40 MLOAD PUSH2 0xADD SWAP2 SWAP1 PUSH2 0x5E2B JUMP JUMPDEST PUSH1 0x40 MLOAD DUP1 SWAP2 SUB SWAP1 RETURN JUMPDEST CALLVALUE DUP1 ISZERO PUSH2 0xAF2 JUMPI PUSH1 0x0 DUP1 REVERT JUMPDEST POP PUSH2 0xAFB PUSH2 0x25C6 JUMP JUMPDEST PUSH1 0x40 MLOAD PUSH2 0xB08 SWAP2 SWAP1 PUSH2 0x5D94 JUMP JUMPDEST PUSH1 0x40 MLOAD DUP1 SWAP2 SUB SWAP1 RETURN JUMPDEST CALLVALUE DUP1 ISZERO PUSH2 0xB1D JUMPI PUSH1 0x0 DUP1 REVERT JUMPDEST POP PUSH2 0xB38 PUSH1 0x4 DUP1 CALLDATASIZE SUB DUP2 ADD SWAP1 PUSH2 0xB33 SWAP2 SWAP1 PUSH2 0x6308 JUMP JUMPDEST PUSH2 0x25CD JUMP JUMPDEST STOP JUMPDEST CALLVALUE DUP1 ISZERO PUSH2 0xB46 JUMPI PUSH1 0x0 DUP1 REVERT JUMPDEST POP PUSH2 0xB61 PUSH1 0x4 DUP1 CALLDATASIZE SUB DUP2 ADD SWAP1 PUSH2 0xB5C SWAP2 SWAP1 PUSH2 0x6348 JUMP JUMPDEST PUSH2 0x25E3 JUMP JUMPDEST STOP JUMPDEST CALLVALUE DUP1 ISZERO PUSH2 0xB6F JUMPI PUSH1 0x0 DUP1 REVERT JUMPDEST POP PUSH2 0xB8A PUSH1 0x4 DUP1 CALLDATASIZE SUB DUP2 ADD SWAP1 PUSH2 0xB85 SWAP2 SWAP1 PUSH2 0x6395 JUMP JUMPDEST PUSH2 0x2625 JUMP JUMPDEST STOP JUMPDEST CALLVALUE DUP1 ISZERO PUSH2 0xB98 JUMPI PUSH1 0x0 DUP1 REVERT JUMPDEST POP PUSH2 0xBB3 PUSH1 0x4 DUP1 CALLDATASIZE SUB DUP2 ADD SWAP1 PUSH2 0xBAE SWAP2 SWAP1 PUSH2 0x5BDA JUMP JUMPDEST PUSH2 0x26DD JUMP JUMPDEST PUSH1 0x40 MLOAD PUSH2 0xBC0 SWAP2 SWAP1 PUSH2 0x6531 JUMP JUMPDEST PUSH1 0x40 MLOAD DUP1 SWAP2 SUB SWAP1 RETURN JUMPDEST CALLVALUE DUP1 ISZERO PUSH2 0xBD5 JUMPI PUSH1 0x0 DUP1 REVERT JUMPDEST POP PUSH2 0xBF0 PUSH1 0x4 DUP1 CALLDATASIZE SUB DUP2 ADD SWAP1 PUSH2 0xBEB SWAP2 SWAP1 PUSH2 0x658C JUMP JUMPDEST PUSH2 0x277F JUMP JUMPDEST STOP JUMPDEST CALLVALUE DUP1 ISZERO PUSH2 0xBFE JUMPI PUSH1 0x0 DUP1 REVERT JUMPDEST POP PUSH2 0xC19 PUSH1 0x4 DUP1 CALLDATASIZE SUB DUP2 ADD SWAP1 PUSH2 0xC14 SWAP2 SWAP1 PUSH2 0x5BDA JUMP JUMPDEST PUSH2 0x2883 JUMP JUMPDEST PUSH1 0x40 MLOAD PUSH2 0xC26 SWAP2 SWAP1 PUSH2 0x5B82 JUMP JUMPDEST PUSH1 0x40 MLOAD DUP1 SWAP2 SUB SWAP1 RETURN JUMPDEST CALLVALUE DUP1 ISZERO PUSH2 0xC3B JUMPI PUSH1 0x0 DUP1 REVERT JUMPDEST POP PUSH2 0xC44 PUSH2 0x294D JUMP JUMPDEST PUSH1 0x40 MLOAD PUSH2 0xC51 SWAP2 SWAP1 PUSH2 0x5D94 JUMP JUMPDEST PUSH1 0x40 MLOAD DUP1 SWAP2 SUB SWAP1 RETURN JUMPDEST CALLVALUE DUP1 ISZERO PUSH2 0xC66 JUMPI PUSH1 0x0 DUP1 REVERT JUMPDEST POP PUSH2 0xC81 PUSH1 0x4 DUP1 CALLDATASIZE SUB DUP2 ADD SWAP1 PUSH2 0xC7C SWAP2 SWAP1 PUSH2 0x5DAF JUMP JUMPDEST PUSH2 0x2971 JUMP JUMPDEST STOP JUMPDEST CALLVALUE DUP1 ISZERO PUSH2 0xC8F JUMPI PUSH1 0x0 DUP1 REVERT JUMPDEST POP PUSH2 0xC98 PUSH2 0x2992 JUMP JUMPDEST PUSH1 0x40 MLOAD PUSH2 0xCA5 SWAP2 SWAP1 PUSH2 0x5ACE JUMP JUMPDEST PUSH1 0x40 MLOAD DUP1 SWAP2 SUB SWAP1 RETURN JUMPDEST CALLVALUE DUP1 ISZERO PUSH2 0xCBA JUMPI PUSH1 0x0 DUP1 REVERT JUMPDEST POP PUSH2 0xCD5 PUSH1 0x4 DUP1 CALLDATASIZE SUB DUP2 ADD SWAP1 PUSH2 0xCD0 SWAP2 SWAP1 PUSH2 0x66C5 JUMP JUMPDEST PUSH2 0x2A70 JUMP JUMPDEST STOP JUMPDEST CALLVALUE DUP1 ISZERO PUSH2 0xCE3 JUMPI PUSH1 0x0 DUP1 REVERT JUMPDEST POP PUSH2 0xCFE PUSH1 0x4 DUP1 CALLDATASIZE SUB DUP2 ADD SWAP1 PUSH2 0xCF9 SWAP2 SWAP1 PUSH2 0x67CF JUMP JUMPDEST PUSH2 0x2C5D JUMP JUMPDEST STOP JUMPDEST CALLVALUE DUP1 ISZERO PUSH2 0xD0C JUMPI PUSH1 0x0 DUP1 REVERT JUMPDEST POP PUSH2 0xD15 PUSH2 0x2D31 JUMP JUMPDEST PUSH1 0x40 MLOAD PUSH2 0xD22 SWAP2 SWAP1 PUSH2 0x5D94 JUMP JUMPDEST PUSH1 0x40 MLOAD DUP1 SWAP2 SUB SWAP1 RETURN JUMPDEST CALLVALUE DUP1 ISZERO PUSH2 0xD37 JUMPI PUSH1 0x0 DUP1 REVERT JUMPDEST POP PUSH2 0xD52 PUSH1 0x4 DUP1 CALLDATASIZE SUB DUP2 ADD SWAP1 PUSH2 0xD4D SWAP2 SWAP1 PUSH2 0x681C JUMP JUMPDEST PUSH2 0x2D55 JUMP JUMPDEST PUSH1 0x40 MLOAD PUSH2 0xD5F SWAP2 SWAP1 PUSH2 0x5ACE JUMP JUMPDEST PUSH1 0x40 MLOAD DUP1 SWAP2 SUB SWAP1 RETURN JUMPDEST CALLVALUE DUP1 ISZERO PUSH2 0xD74 JUMPI PUSH1 0x0 DUP1 REVERT JUMPDEST POP PUSH2 0xD8F PUSH1 0x4 DUP1 CALLDATASIZE SUB DUP2 ADD SWAP1 PUSH2 0xD8A SWAP2 SWAP1 PUSH2 0x5BDA JUMP JUMPDEST PUSH2 0x2DE9 JUMP JUMPDEST STOP JUMPDEST CALLVALUE DUP1 ISZERO PUSH2 0xD9D JUMPI PUSH1 0x0 DUP1 REVERT JUMPDEST POP PUSH2 0xDA6 PUSH2 0x2E1F JUMP JUMPDEST PUSH1 0x40 MLOAD PUSH2 0xDB3 SWAP2 SWAP1 PUSH2 0x5D94 JUMP JUMPDEST PUSH1 0x40 MLOAD DUP1 SWAP2 SUB SWAP1 RETURN JUMPDEST PUSH1 0x0 PUSH2 0xDC7 DUP3 PUSH2 0x2E66 JUMP JUMPDEST SWAP1 POP SWAP2 SWAP1 POP JUMP JUMPDEST PUSH1 0x60 PUSH1 0x97 DUP1 SLOAD PUSH2 0xDDD SWAP1 PUSH2 0x688B JUMP JUMPDEST DUP1 PUSH1 0x1F ADD PUSH1 0x20 DUP1 SWAP2 DIV MUL PUSH1 0x20 ADD PUSH1 0x40 MLOAD SWAP1 DUP2 ADD PUSH1 0x40 MSTORE DUP1 SWAP3 SWAP2 SWAP1 DUP2 DUP2 MSTORE PUSH1 0x20 ADD DUP3 DUP1 SLOAD PUSH2 0xE09 SWAP1 PUSH2 0x688B JUMP JUMPDEST DUP1 ISZERO PUSH2 0xE56 JUMPI DUP1 PUSH1 0x1F LT PUSH2 0xE2B JUMPI PUSH2 0x100 DUP1 DUP4 SLOAD DIV MUL DUP4 MSTORE SWAP2 PUSH1 0x20 ADD SWAP2 PUSH2 0xE56 JUMP JUMPDEST DUP3 ADD SWAP2 SWAP1 PUSH1 0x0 MSTORE PUSH1 0x20 PUSH1 0x0 KECCAK256 SWAP1 JUMPDEST DUP2 SLOAD DUP2 MSTORE SWAP1 PUSH1 0x1 ADD SWAP1 PUSH1 0x20 ADD DUP1 DUP4 GT PUSH2 0xE39 JUMPI DUP3 SWAP1 SUB PUSH1 0x1F AND DUP3 ADD SWAP2 JUMPDEST POP POP POP POP POP SWAP1 POP SWAP1 JUMP JUMPDEST PUSH1 0x0 PUSH2 0xE6B DUP3 PUSH2 0x2F48 JUMP JUMPDEST PUSH1 0x9B PUSH1 0x0 DUP4 DUP2 MSTORE PUSH1 0x20 ADD SWAP1 DUP2 MSTORE PUSH1 0x20 ADD PUSH1 0x0 KECCAK256 PUSH1 0x0 SWAP1 SLOAD SWAP1 PUSH2 0x100 EXP SWAP1 DIV PUSH20 0xFFFFFFFFFFFFFFFFFFFFFFFFFFFFFFFFFFFFFFFF AND SWAP1 POP SWAP2 SWAP1 POP JUMP JUMPDEST PUSH1 0x1 ISZERO ISZERO PUSH2 0xEB2 PUSH2 0x2252 JUMP JUMPDEST ISZERO ISZERO EQ PUSH2 0xEF4 JUMPI PUSH1 0x40 MLOAD PUSH32 0x8C379A000000000000000000000000000000000000000000000000000000000 DUP2 MSTORE PUSH1 0x4 ADD PUSH2 0xEEB SWAP1 PUSH2 0x6908 JUMP JUMPDEST PUSH1 0x40 MLOAD DUP1 SWAP2 SUB SWAP1 REVERT JUMPDEST PUSH1 0x0 PUSH2 0xEFF DUP3 PUSH2 0x1DF7 JUMP JUMPDEST SWAP1 POP DUP1 PUSH20 0xFFFFFFFFFFFFFFFFFFFFFFFFFFFFFFFFFFFFFFFF AND DUP4 PUSH20 0xFFFFFFFFFFFFFFFFFFFFFFFFFFFFFFFFFFFFFFFF AND SUB PUSH2 0xF6F JUMPI PUSH1 0x40 MLOAD PUSH32 0x8C379A000000000000000000000000000000000000000000000000000000000 DUP2 MSTORE PUSH1 0x4 ADD PUSH2 0xF66 SWAP1 PUSH2 0x699A JUMP JUMPDEST PUSH1 0x40 MLOAD DUP1 SWAP2 SUB SWAP1 REVERT JUMPDEST DUP1 PUSH20 0xFFFFFFFFFFFFFFFFFFFFFFFFFFFFFFFFFFFFFFFF AND PUSH2 0xF8E PUSH2 0x2F93 JUMP JUMPDEST PUSH20 0xFFFFFFFFFFFFFFFFFFFFFFFFFFFFFFFFFFFFFFFF AND EQ DUP1 PUSH2 0xFBD JUMPI POP PUSH2 0xFBC DUP2 PUSH2 0xFB7 PUSH2 0x2F93 JUMP JUMPDEST PUSH2 0x2D55 JUMP JUMPDEST JUMPDEST PUSH2 0xFFC JUMPI PUSH1 0x40 MLOAD PUSH32 0x8C379A000000000000000000000000000000000000000000000000000000000 DUP2 MSTORE PUSH1 0x4 ADD PUSH2 0xFF3 SWAP1 PUSH2 0x6A2C JUMP JUMPDEST PUSH1 0x40 MLOAD DUP1 SWAP2 SUB SWAP1 REVERT JUMPDEST PUSH2 0x1006 DUP4 DUP4 PUSH2 0x2F9B JUMP JUMPDEST POP POP POP JUMP JUMPDEST PUSH1 0x60 PUSH2 0x22C DUP1 SLOAD PUSH2 0x101B SWAP1 PUSH2 0x688B JUMP JUMPDEST DUP1 PUSH1 0x1F ADD PUSH1 0x20 DUP1 SWAP2 DIV MUL PUSH1 0x20 ADD PUSH1 0x40 MLOAD SWAP1 DUP2 ADD PUSH1 0x40 MSTORE DUP1 SWAP3 SWAP2 SWAP1 DUP2 DUP2 MSTORE PUSH1 0x20 ADD DUP3 DUP1 SLOAD PUSH2 0x1047 SWAP1 PUSH2 0x688B JUMP JUMPDEST DUP1 ISZERO PUSH2 0x1094 JUMPI DUP1 PUSH1 0x1F LT PUSH2 0x1069 JUMPI PUSH2 0x100 DUP1 DUP4 SLOAD DIV MUL DUP4 MSTORE SWAP2 PUSH1 0x20 ADD SWAP2 PUSH2 0x1094 JUMP JUMPDEST DUP3 ADD SWAP2 SWAP1 PUSH1 0x0 MSTORE PUSH1 0x20 PUSH1 0x0 KECCAK256 SWAP1 JUMPDEST DUP2 SLOAD DUP2 MSTORE SWAP1 PUSH1 0x1 ADD SWAP1 PUSH1 0x20 ADD DUP1 DUP4 GT PUSH2 0x1077 JUMPI DUP3 SWAP1 SUB PUSH1 0x1F AND DUP3 ADD SWAP2 JUMPDEST POP POP POP POP POP SWAP1 POP SWAP1 JUMP JUMPDEST PUSH1 0x60 PUSH2 0x231 PUSH1 0x0 DUP4 DUP2 MSTORE PUSH1 0x20 ADD SWAP1 DUP2 MSTORE PUSH1 0x20 ADD PUSH1 0x0 KECCAK256 PUSH1 0x0 ADD DUP1 SLOAD PUSH2 0x10C2 SWAP1 PUSH2 0x688B JUMP JUMPDEST DUP1 PUSH1 0x1F ADD PUSH1 0x20 DUP1 SWAP2 DIV MUL PUSH1 0x20 ADD PUSH1 0x40 MLOAD SWAP1 DUP2 ADD PUSH1 0x40 MSTORE DUP1 SWAP3 SWAP2 SWAP1 DUP2 DUP2 MSTORE PUSH1 0x20 ADD DUP3 DUP1 SLOAD PUSH2 0x10EE SWAP1 PUSH2 0x688B JUMP JUMPDEST DUP1 ISZERO PUSH2 0x113B JUMPI DUP1 PUSH1 0x1F LT PUSH2 0x1110 JUMPI PUSH2 0x100 DUP1 DUP4 SLOAD DIV MUL DUP4 MSTORE SWAP2 PUSH1 0x20 ADD SWAP2 PUSH2 0x113B JUMP JUMPDEST DUP3 ADD SWAP2 SWAP1 PUSH1 0x0 MSTORE PUSH1 0x20 PUSH1 0x0 KECCAK256 SWAP1 JUMPDEST DUP2 SLOAD DUP2 MSTORE SWAP1 PUSH1 0x1 ADD SWAP1 PUSH1 0x20 ADD DUP1 DUP4 GT PUSH2 0x111E JUMPI DUP3 SWAP1 SUB PUSH1 0x1F AND DUP3 ADD SWAP2 JUMPDEST POP POP POP POP POP SWAP1 POP SWAP2 SWAP1 POP JUMP JUMPDEST PUSH1 0x1 ISZERO ISZERO PUSH2 0x1153 PUSH2 0x2252 JUMP JUMPDEST ISZERO ISZERO EQ PUSH2 0x1195 JUMPI PUSH1 0x40 MLOAD PUSH32 0x8C379A000000000000000000000000000000000000000000000000000000000 DUP2 MSTORE PUSH1 0x4 ADD PUSH2 0x118C SWAP1 PUSH2 0x6908 JUMP JUMPDEST PUSH1 0x40 MLOAD DUP1 SWAP2 SUB SWAP1 REVERT JUMPDEST PUSH2 0x119D PUSH2 0x3054 JUMP JUMPDEST PUSH2 0x11AE PUSH2 0x11A8 PUSH2 0x2F93 JUMP JUMPDEST DUP3 PUSH2 0x309E JUMP JUMPDEST PUSH2 0x11ED JUMPI PUSH1 0x40 MLOAD PUSH32 0x8C379A000000000000000000000000000000000000000000000000000000000 DUP2 MSTORE PUSH1 0x4 ADD PUSH2 0x11E4 SWAP1 PUSH2 0x6ABE JUMP JUMPDEST PUSH1 0x40 MLOAD DUP1 SWAP2 SUB SWAP1 REVERT JUMPDEST PUSH2 0x11F8 DUP4 DUP4 DUP4 PUSH2 0x3133 JUMP JUMPDEST POP POP POP JUMP JUMPDEST PUSH1 0x60 PUSH2 0x22B DUP1 SLOAD PUSH2 0x120D SWAP1 PUSH2 0x688B JUMP JUMPDEST DUP1 PUSH1 0x1F ADD PUSH1 0x20 DUP1 SWAP2 DIV MUL PUSH1 0x20 ADD PUSH1 0x40 MLOAD SWAP1 DUP2 ADD PUSH1 0x40 MSTORE DUP1 SWAP3 SWAP2 SWAP1 DUP2 DUP2 MSTORE PUSH1 0x20 ADD DUP3 DUP1 SLOAD PUSH2 0x1239 SWAP1 PUSH2 0x688B JUMP JUMPDEST DUP1 ISZERO PUSH2 0x1286 JUMPI DUP1 PUSH1 0x1F LT PUSH2 0x125B JUMPI PUSH2 0x100 DUP1 DUP4 SLOAD DIV MUL DUP4 MSTORE SWAP2 PUSH1 0x20 ADD SWAP2 PUSH2 0x1286 JUMP JUMPDEST DUP3 ADD SWAP2 SWAP1 PUSH1 0x0 MSTORE PUSH1 0x20 PUSH1 0x0 KECCAK256 SWAP1 JUMPDEST DUP2 SLOAD DUP2 MSTORE SWAP1 PUSH1 0x1 ADD SWAP1 PUSH1 0x20 ADD DUP1 DUP4 GT PUSH2 0x1269 JUMPI DUP3 SWAP1 SUB PUSH1 0x1F AND DUP3 ADD SWAP2 JUMPDEST POP POP POP POP POP SWAP1 POP SWAP1 JUMP JUMPDEST PUSH1 0x0 PUSH1 0x65 PUSH1 0x0 DUP4 DUP2 MSTORE PUSH1 0x20 ADD SWAP1 DUP2 MSTORE PUSH1 0x20 ADD PUSH1 0x0 KECCAK256 PUSH1 0x1 ADD SLOAD SWAP1 POP SWAP2 SWAP1 POP JUMP JUMPDEST PUSH2 0x12B9 DUP3 PUSH2 0x1290 JUMP JUMPDEST PUSH2 0x12C2 DUP2 PUSH2 0x3399 JUMP JUMPDEST PUSH2 0x12CC DUP4 DUP4 PUSH2 0x33AD JUMP JUMPDEST POP POP POP JUMP JUMPDEST PUSH1 0x0 PUSH2 0x12DB PUSH2 0x348E JUMP JUMPDEST SWAP1 POP SWAP1 JUMP JUMPDEST PUSH2 0x12E8 PUSH2 0x2F93 JUMP JUMPDEST PUSH20 0xFFFFFFFFFFFFFFFFFFFFFFFFFFFFFFFFFFFFFFFF AND DUP2 PUSH20 0xFFFFFFFFFFFFFFFFFFFFFFFFFFFFFFFFFFFFFFFF AND EQ PUSH2 0x1355 JUMPI PUSH1 0x40 MLOAD PUSH32 0x8C379A000000000000000000000000000000000000000000000000000000000 DUP2 MSTORE PUSH1 0x4 ADD PUSH2 0x134C SWAP1 PUSH2 0x6B50 JUMP JUMPDEST PUSH1 0x40 MLOAD DUP1 SWAP2 SUB SWAP1 REVERT JUMPDEST PUSH2 0x135F DUP3 DUP3 PUSH2 0x34CE JUMP JUMPDEST POP POP JUMP JUMPDEST PUSH32 0x0 PUSH20 0xFFFFFFFFFFFFFFFFFFFFFFFFFFFFFFFFFFFFFFFF AND ADDRESS PUSH20 0xFFFFFFFFFFFFFFFFFFFFFFFFFFFFFFFFFFFFFFFF AND SUB PUSH2 0x13F1 JUMPI PUSH1 0x40 MLOAD PUSH32 0x8C379A000000000000000000000000000000000000000000000000000000000 DUP2 MSTORE PUSH1 0x4 ADD PUSH2 0x13E8 SWAP1 PUSH2 0x6BE2 JUMP JUMPDEST PUSH1 0x40 MLOAD DUP1 SWAP2 SUB SWAP1 REVERT JUMPDEST PUSH32 0x0 PUSH20 0xFFFFFFFFFFFFFFFFFFFFFFFFFFFFFFFFFFFFFFFF AND PUSH2 0x1430 PUSH2 0x35B0 JUMP JUMPDEST PUSH20 0xFFFFFFFFFFFFFFFFFFFFFFFFFFFFFFFFFFFFFFFF AND EQ PUSH2 0x1486 JUMPI PUSH1 0x40 MLOAD PUSH32 0x8C379A000000000000000000000000000000000000000000000000000000000 DUP2 MSTORE PUSH1 0x4 ADD PUSH2 0x147D SWAP1 PUSH2 0x6C74 JUMP JUMPDEST PUSH1 0x40 MLOAD DUP1 SWAP2 SUB SWAP1 REVERT JUMPDEST PUSH2 0x148F DUP2 PUSH2 0x3607 JUMP JUMPDEST PUSH2 0x14E8 DUP2 PUSH1 0x0 PUSH8 0xFFFFFFFFFFFFFFFF DUP2 GT ISZERO PUSH2 0x14AE JUMPI PUSH2 0x14AD PUSH2 0x5E50 JUMP JUMPDEST JUMPDEST PUSH1 0x40 MLOAD SWAP1 DUP1 DUP3 MSTORE DUP1 PUSH1 0x1F ADD PUSH1 0x1F NOT AND PUSH1 0x20 ADD DUP3 ADD PUSH1 0x40 MSTORE DUP1 ISZERO PUSH2 0x14E0 JUMPI DUP2 PUSH1 0x20 ADD PUSH1 0x1 DUP3 MUL DUP1 CALLDATASIZE DUP4 CALLDATACOPY DUP1 DUP3 ADD SWAP2 POP POP SWAP1 POP JUMPDEST POP PUSH1 0x0 PUSH2 0x3673 JUMP JUMPDEST POP JUMP JUMPDEST PUSH1 0x0 PUSH2 0x153E DUP3 PUSH1 0xFE PUSH1 0x0 DUP7 PUSH20 0xFFFFFFFFFFFFFFFFFFFFFFFFFFFFFFFFFFFFFFFF AND PUSH20 0xFFFFFFFFFFFFFFFFFFFFFFFFFFFFFFFFFFFFFFFF AND DUP2 MSTORE PUSH1 0x20 ADD SWAP1 DUP2 MSTORE PUSH1 0x20 ADD PUSH1 0x0 KECCAK256 PUSH2 0x37E1 SWAP1 SWAP2 SWAP1 PUSH4 0xFFFFFFFF AND JUMP JUMPDEST SWAP1 POP SWAP3 SWAP2 POP POP JUMP JUMPDEST PUSH1 0x0 PUSH2 0x232 PUSH1 0x0 DUP4 DUP2 MSTORE PUSH1 0x20 ADD SWAP1 DUP2 MSTORE PUSH1 0x20 ADD PUSH1 0x0 KECCAK256 PUSH1 0x0 SWAP1 SLOAD SWAP1 PUSH2 0x100 EXP SWAP1 DIV PUSH20 0xFFFFFFFFFFFFFFFFFFFFFFFFFFFFFFFFFFFFFFFF AND SWAP1 POP SWAP2 SWAP1 POP JUMP JUMPDEST PUSH1 0x0 PUSH1 0x1 PUSH1 0x64 SELFBALANCE PUSH2 0x1595 SWAP2 SWAP1 PUSH2 0x6CF2 JUMP JUMPDEST PUSH2 0x159F SWAP2 SWAP1 PUSH2 0x6D23 JUMP JUMPDEST SWAP1 POP PUSH1 0x0 PUSH2 0x22A PUSH1 0x0 SWAP1 SLOAD SWAP1 PUSH2 0x100 EXP SWAP1 DIV PUSH20 0xFFFFFFFFFFFFFFFFFFFFFFFFFFFFFFFFFFFFFFFF AND PUSH20 0xFFFFFFFFFFFFFFFFFFFFFFFFFFFFFFFFFFFFFFFF AND DUP3 PUSH1 0x40 MLOAD PUSH2 0x15EA SWAP1 PUSH2 0x6DAE JUMP JUMPDEST PUSH1 0x0 PUSH1 0x40 MLOAD DUP1 DUP4 SUB DUP2 DUP6 DUP8 GAS CALL SWAP3 POP POP POP RETURNDATASIZE DUP1 PUSH1 0x0 DUP2 EQ PUSH2 0x1627 JUMPI PUSH1 0x40 MLOAD SWAP2 POP PUSH1 0x1F NOT PUSH1 0x3F RETURNDATASIZE ADD AND DUP3 ADD PUSH1 0x40 MSTORE RETURNDATASIZE DUP3 MSTORE RETURNDATASIZE PUSH1 0x0 PUSH1 0x20 DUP5 ADD RETURNDATACOPY PUSH2 0x162C JUMP JUMPDEST PUSH1 0x60 SWAP2 POP JUMPDEST POP POP SWAP1 POP DUP1 PUSH2 0x163A JUMPI PUSH1 0x0 DUP1 REVERT JUMPDEST PUSH1 0x0 PUSH2 0x22F PUSH1 0x0 SWAP1 SLOAD SWAP1 PUSH2 0x100 EXP SWAP1 DIV PUSH20 0xFFFFFFFFFFFFFFFFFFFFFFFFFFFFFFFFFFFFFFFF AND PUSH20 0xFFFFFFFFFFFFFFFFFFFFFFFFFFFFFFFFFFFFFFFF AND SELFBALANCE PUSH1 0x40 MLOAD PUSH2 0x1683 SWAP1 PUSH2 0x6DAE JUMP JUMPDEST PUSH1 0x0 PUSH1 0x40 MLOAD DUP1 DUP4 SUB DUP2 DUP6 DUP8 GAS CALL SWAP3 POP POP POP RETURNDATASIZE DUP1 PUSH1 0x0 DUP2 EQ PUSH2 0x16C0 JUMPI PUSH1 0x40 MLOAD SWAP2 POP PUSH1 0x1F NOT PUSH1 0x3F RETURNDATASIZE ADD AND DUP3 ADD PUSH1 0x40 MSTORE RETURNDATASIZE DUP3 MSTORE RETURNDATASIZE PUSH1 0x0 PUSH1 0x20 DUP5 ADD RETURNDATACOPY PUSH2 0x16C5 JUMP JUMPDEST PUSH1 0x60 SWAP2 POP JUMPDEST POP POP SWAP1 POP DUP1 PUSH2 0x16D3 JUMPI PUSH1 0x0 DUP1 REVERT JUMPDEST POP POP POP JUMP JUMPDEST PUSH2 0x16F3 DUP4 DUP4 DUP4 PUSH1 0x40 MLOAD DUP1 PUSH1 0x20 ADD PUSH1 0x40 MSTORE DUP1 PUSH1 0x0 DUP2 MSTORE POP PUSH2 0x2625 JUMP JUMPDEST POP POP POP JUMP JUMPDEST DUP1 PUSH2 0x1702 DUP2 PUSH2 0x3939 JUMP JUMPDEST PUSH2 0x1741 JUMPI PUSH1 0x40 MLOAD PUSH32 0x8C379A000000000000000000000000000000000000000000000000000000000 DUP2 MSTORE PUSH1 0x4 ADD PUSH2 0x1738 SWAP1 PUSH2 0x6E35 JUMP JUMPDEST PUSH1 0x40 MLOAD DUP1 SWAP2 SUB SWAP1 REVERT JUMPDEST DUP2 PUSH2 0x174B DUP2 PUSH2 0x3939 JUMP JUMPDEST PUSH2 0x178A JUMPI PUSH1 0x40 MLOAD PUSH32 0x8C379A000000000000000000000000000000000000000000000000000000000 DUP2 MSTORE PUSH1 0x4 ADD PUSH2 0x1781 SWAP1 PUSH2 0x6E35 JUMP JUMPDEST PUSH1 0x40 MLOAD DUP1 SWAP2 SUB SWAP1 REVERT JUMPDEST PUSH2 0x1793 DUP2 PUSH2 0x1DF7 JUMP JUMPDEST PUSH20 0xFFFFFFFFFFFFFFFFFFFFFFFFFFFFFFFFFFFFFFFF AND PUSH2 0x17B1 PUSH2 0x2F93 JUMP JUMPDEST PUSH20 0xFFFFFFFFFFFFFFFFFFFFFFFFFFFFFFFFFFFFFFFF AND EQ DUP1 PUSH2 0x17F9 JUMPI POP PUSH2 0x17F8 PUSH32 0x9F2DF0FED2C77648DE5860A4CC508CD0818C85B8B8A1AB4CEEEF8D981C8956A6 CALLER PUSH2 0x21E7 JUMP JUMPDEST JUMPDEST PUSH2 0x1838 JUMPI PUSH1 0x40 MLOAD PUSH32 0x8C379A000000000000000000000000000000000000000000000000000000000 DUP2 MSTORE PUSH1 0x4 ADD PUSH2 0x182F SWAP1 PUSH2 0x6EA1 JUMP JUMPDEST PUSH1 0x40 MLOAD DUP1 SWAP2 SUB SWAP1 REVERT JUMPDEST PUSH2 0x1841 DUP4 PUSH2 0x39A5 JUMP JUMPDEST POP POP POP JUMP JUMPDEST PUSH1 0x0 PUSH2 0x22D PUSH1 0x1 SWAP1 SLOAD SWAP1 PUSH2 0x100 EXP SWAP1 DIV PUSH1 0xFF AND SWAP1 POP SWAP1 JUMP JUMPDEST PUSH32 0x0 PUSH20 0xFFFFFFFFFFFFFFFFFFFFFFFFFFFFFFFFFFFFFFFF AND ADDRESS PUSH20 0xFFFFFFFFFFFFFFFFFFFFFFFFFFFFFFFFFFFFFFFF AND SUB PUSH2 0x18EC JUMPI PUSH1 0x40 MLOAD PUSH32 0x8C379A000000000000000000000000000000000000000000000000000000000 DUP2 MSTORE PUSH1 0x4 ADD PUSH2 0x18E3 SWAP1 PUSH2 0x6BE2 JUMP JUMPDEST PUSH1 0x40 MLOAD DUP1 SWAP2 SUB SWAP1 REVERT JUMPDEST PUSH32 0x0 PUSH20 0xFFFFFFFFFFFFFFFFFFFFFFFFFFFFFFFFFFFFFFFF AND PUSH2 0x192B PUSH2 0x35B0 JUMP JUMPDEST PUSH20 0xFFFFFFFFFFFFFFFFFFFFFFFFFFFFFFFFFFFFFFFF AND EQ PUSH2 0x1981 JUMPI PUSH1 0x40 MLOAD PUSH32 0x8C379A000000000000000000000000000000000000000000000000000000000 DUP2 MSTORE PUSH1 0x4 ADD PUSH2 0x1978 SWAP1 PUSH2 0x6C74 JUMP JUMPDEST PUSH1 0x40 MLOAD DUP1 SWAP2 SUB SWAP1 REVERT JUMPDEST PUSH2 0x198A DUP3 PUSH2 0x3607 JUMP JUMPDEST PUSH2 0x1996 DUP3 DUP3 PUSH1 0x1 PUSH2 0x3673 JUMP JUMPDEST POP POP JUMP JUMPDEST PUSH1 0x0 PUSH32 0x0 PUSH20 0xFFFFFFFFFFFFFFFFFFFFFFFFFFFFFFFFFFFFFFFF AND ADDRESS PUSH20 0xFFFFFFFFFFFFFFFFFFFFFFFFFFFFFFFFFFFFFFFF AND EQ PUSH2 0x1A2A JUMPI PUSH1 0x40 MLOAD PUSH32 0x8C379A000000000000000000000000000000000000000000000000000000000 DUP2 MSTORE PUSH1 0x4 ADD PUSH2 0x1A21 SWAP1 PUSH2 0x6F33 JUMP JUMPDEST PUSH1 0x40 MLOAD DUP1 SWAP2 SUB SWAP1 REVERT JUMPDEST PUSH32 0x360894A13BA1A3210667C828492DB98DCA3E2076CC3735A920A3CA505D382BBC PUSH1 0x0 SHL SWAP1 POP SWAP1 JUMP JUMPDEST PUSH1 0x0 PUSH1 0x1 SWAP1 POP SWAP1 JUMP JUMPDEST PUSH1 0x0 PUSH1 0xFD PUSH1 0x0 DUP4 PUSH20 0xFFFFFFFFFFFFFFFFFFFFFFFFFFFFFFFFFFFFFFFF AND PUSH20 0xFFFFFFFFFFFFFFFFFFFFFFFFFFFFFFFFFFFFFFFF AND DUP2 MSTORE PUSH1 0x20 ADD SWAP1 DUP2 MSTORE PUSH1 0x20 ADD PUSH1 0x0 KECCAK256 PUSH1 0x0 SWAP1 SLOAD SWAP1 PUSH2 0x100 EXP SWAP1 DIV PUSH20 0xFFFFFFFFFFFFFFFFFFFFFFFFFFFFFFFFFFFFFFFF AND SWAP1 POP SWAP2 SWAP1 POP JUMP JUMPDEST PUSH1 0x0 DUP1 PUSH1 0x1 SWAP1 SLOAD SWAP1 PUSH2 0x100 EXP SWAP1 DIV PUSH1 0xFF AND ISZERO SWAP1 POP DUP1 DUP1 ISZERO PUSH2 0x1AF6 JUMPI POP PUSH1 0x1 PUSH1 0x0 DUP1 SLOAD SWAP1 PUSH2 0x100 EXP SWAP1 DIV PUSH1 0xFF AND PUSH1 0xFF AND LT JUMPDEST DUP1 PUSH2 0x1B23 JUMPI POP PUSH2 0x1B05 ADDRESS PUSH2 0x2E43 JUMP JUMPDEST ISZERO DUP1 ISZERO PUSH2 0x1B22 JUMPI POP PUSH1 0x1 PUSH1 0x0 DUP1 SLOAD SWAP1 PUSH2 0x100 EXP SWAP1 DIV PUSH1 0xFF AND PUSH1 0xFF AND EQ JUMPDEST JUMPDEST PUSH2 0x1B62 JUMPI PUSH1 0x40 MLOAD PUSH32 0x8C379A000000000000000000000000000000000000000000000000000000000 DUP2 MSTORE PUSH1 0x4 ADD PUSH2 0x1B59 SWAP1 PUSH2 0x6FC5 JUMP JUMPDEST PUSH1 0x40 MLOAD DUP1 SWAP2 SUB SWAP1 REVERT JUMPDEST PUSH1 0x1 PUSH1 0x0 DUP1 PUSH2 0x100 EXP DUP2 SLOAD DUP2 PUSH1 0xFF MUL NOT AND SWAP1 DUP4 PUSH1 0xFF AND MUL OR SWAP1 SSTORE POP DUP1 ISZERO PUSH2 0x1B9F JUMPI PUSH1 0x1 PUSH1 0x0 PUSH1 0x1 PUSH2 0x100 EXP DUP2 SLOAD DUP2 PUSH1 0xFF MUL NOT AND SWAP1 DUP4 ISZERO ISZERO MUL OR SWAP1 SSTORE POP JUMPDEST PUSH2 0x1BA9 DUP10 DUP10 PUSH2 0x3AC2 JUMP JUMPDEST PUSH2 0x1BB1 PUSH2 0x3B1F JUMP JUMPDEST PUSH20 0xF4553CDE05FA9FC35F8F1B860BAC7FA157779382 PUSH2 0x22A PUSH1 0x0 PUSH2 0x100 EXP DUP2 SLOAD DUP2 PUSH20 0xFFFFFFFFFFFFFFFFFFFFFFFFFFFFFFFFFFFFFFFF MUL NOT AND SWAP1 DUP4 PUSH20 0xFFFFFFFFFFFFFFFFFFFFFFFFFFFFFFFFFFFFFFFF AND MUL OR SWAP1 SSTORE POP DUP7 PUSH2 0x22B SWAP1 DUP1 MLOAD SWAP1 PUSH1 0x20 ADD SWAP1 PUSH2 0x1C1E SWAP3 SWAP2 SWAP1 PUSH2 0x5888 JUMP JUMPDEST POP DUP6 PUSH2 0x22C SWAP1 DUP1 MLOAD SWAP1 PUSH1 0x20 ADD SWAP1 PUSH2 0x1C36 SWAP3 SWAP2 SWAP1 PUSH2 0x5888 JUMP JUMPDEST POP DUP5 PUSH2 0x22D PUSH1 0x0 PUSH2 0x100 EXP DUP2 SLOAD DUP2 PUSH1 0xFF MUL NOT AND SWAP1 DUP4 ISZERO ISZERO MUL OR SWAP1 SSTORE POP DUP4 PUSH2 0x22D PUSH1 0x1 PUSH2 0x100 EXP DUP2 SLOAD DUP2 PUSH1 0xFF MUL NOT AND SWAP1 DUP4 ISZERO ISZERO MUL OR SWAP1 SSTORE POP DUP3 PUSH2 0x22E DUP2 SWAP1 SSTORE POP DUP2 PUSH2 0x22F PUSH1 0x0 PUSH2 0x100 EXP DUP2 SLOAD DUP2 PUSH20 0xFFFFFFFFFFFFFFFFFFFFFFFFFFFFFFFFFFFFFFFF MUL NOT AND SWAP1 DUP4 PUSH20 0xFFFFFFFFFFFFFFFFFFFFFFFFFFFFFFFFFFFFFFFF AND MUL OR SWAP1 SSTORE POP PUSH2 0x1CC4 PUSH1 0x0 DUP1 SHL CALLER PUSH2 0x33AD JUMP JUMPDEST PUSH2 0x1CEE PUSH32 0x189AB7A9244DF0848122154315AF71FE140F3DB0FE014031783B0946B8C9D2E3 CALLER PUSH2 0x33AD JUMP JUMPDEST PUSH2 0x1CFB PUSH1 0x0 DUP1 SHL DUP4 PUSH2 0x33AD JUMP JUMPDEST PUSH2 0x1D25 PUSH32 0x65D7A28E3265B37A6474929F336521B332C1681B933F6CB9F3376673440D862A DUP4 PUSH2 0x33AD JUMP JUMPDEST PUSH2 0x1D4F PUSH32 0x9F2DF0FED2C77648DE5860A4CC508CD0818C85B8B8A1AB4CEEEF8D981C8956A6 DUP4 PUSH2 0x33AD JUMP JUMPDEST DUP1 ISZERO PUSH2 0x1DA8 JUMPI PUSH1 0x0 DUP1 PUSH1 0x1 PUSH2 0x100 EXP DUP2 SLOAD DUP2 PUSH1 0xFF MUL NOT AND SWAP1 DUP4 ISZERO ISZERO MUL OR SWAP1 SSTORE POP PUSH32 0x7F26B83FF96E1F2B6A682F133852F6798A09C465DA95921460CEFB3847402498 PUSH1 0x1 PUSH1 0x40 MLOAD PUSH2 0x1D9F SWAP2 SWAP1 PUSH2 0x702A JUMP JUMPDEST PUSH1 0x40 MLOAD DUP1 SWAP2 SUB SWAP1 LOG1 JUMPDEST POP POP POP POP POP POP POP POP POP JUMP JUMPDEST PUSH1 0x0 PUSH2 0x1DBD PUSH2 0x2F93 JUMP JUMPDEST SWAP1 POP PUSH2 0x1DC9 DUP2 DUP4 PUSH2 0x3B70 JUMP JUMPDEST POP POP JUMP JUMPDEST PUSH1 0x0 PUSH2 0x193 PUSH1 0x0 SWAP1 SLOAD SWAP1 PUSH2 0x100 EXP SWAP1 DIV PUSH1 0xFF AND SWAP1 POP SWAP1 JUMP JUMPDEST PUSH1 0x0 PUSH2 0x1DF2 PUSH2 0x229 PUSH2 0x3C84 JUMP JUMPDEST SWAP1 POP SWAP1 JUMP JUMPDEST PUSH1 0x0 DUP1 PUSH1 0x99 PUSH1 0x0 DUP5 DUP2 MSTORE PUSH1 0x20 ADD SWAP1 DUP2 MSTORE PUSH1 0x20 ADD PUSH1 0x0 KECCAK256 PUSH1 0x0 SWAP1 SLOAD SWAP1 PUSH2 0x100 EXP SWAP1 DIV PUSH20 0xFFFFFFFFFFFFFFFFFFFFFFFFFFFFFFFFFFFFFFFF AND SWAP1 POP PUSH1 0x0 PUSH20 0xFFFFFFFFFFFFFFFFFFFFFFFFFFFFFFFFFFFFFFFF AND DUP2 PUSH20 0xFFFFFFFFFFFFFFFFFFFFFFFFFFFFFFFFFFFFFFFF AND SUB PUSH2 0x1E9F JUMPI PUSH1 0x40 MLOAD PUSH32 0x8C379A000000000000000000000000000000000000000000000000000000000 DUP2 MSTORE PUSH1 0x4 ADD PUSH2 0x1E96 SWAP1 PUSH2 0x7091 JUMP JUMPDEST PUSH1 0x40 MLOAD DUP1 SWAP2 SUB SWAP1 REVERT JUMPDEST DUP1 SWAP2 POP POP SWAP2 SWAP1 POP JUMP JUMPDEST PUSH1 0x0 PUSH2 0x22E SLOAD SWAP1 POP SWAP1 JUMP JUMPDEST PUSH32 0x9F2DF0FED2C77648DE5860A4CC508CD0818C85B8B8A1AB4CEEEF8D981C8956A6 PUSH2 0x1EDD DUP2 PUSH2 0x3399 JUMP JUMPDEST DUP2 PUSH2 0x22C SWAP1 DUP1 MLOAD SWAP1 PUSH1 0x20 ADD SWAP1 PUSH2 0x1EF4 SWAP3 SWAP2 SWAP1 PUSH2 0x5888 JUMP JUMPDEST POP POP POP JUMP JUMPDEST PUSH1 0x0 DUP1 PUSH20 0xFFFFFFFFFFFFFFFFFFFFFFFFFFFFFFFFFFFFFFFF AND DUP3 PUSH20 0xFFFFFFFFFFFFFFFFFFFFFFFFFFFFFFFFFFFFFFFF AND SUB PUSH2 0x1F69 JUMPI PUSH1 0x40 MLOAD PUSH32 0x8C379A000000000000000000000000000000000000000000000000000000000 DUP2 MSTORE PUSH1 0x4 ADD PUSH2 0x1F60 SWAP1 PUSH2 0x7123 JUMP JUMPDEST PUSH1 0x40 MLOAD DUP1 SWAP2 SUB SWAP1 REVERT JUMPDEST PUSH1 0x9A PUSH1 0x0 DUP4 PUSH20 0xFFFFFFFFFFFFFFFFFFFFFFFFFFFFFFFFFFFFFFFF AND PUSH20 0xFFFFFFFFFFFFFFFFFFFFFFFFFFFFFFFFFFFFFFFF AND DUP2 MSTORE PUSH1 0x20 ADD SWAP1 DUP2 MSTORE PUSH1 0x20 ADD PUSH1 0x0 KECCAK256 SLOAD SWAP1 POP SWAP2 SWAP1 POP JUMP JUMPDEST PUSH1 0x0 PUSH32 0x9F2DF0FED2C77648DE5860A4CC508CD0818C85B8B8A1AB4CEEEF8D981C8956A6 PUSH2 0x1FDC DUP2 PUSH2 0x3399 JUMP JUMPDEST PUSH2 0x22D PUSH1 0x1 SWAP1 SLOAD SWAP1 PUSH2 0x100 EXP SWAP1 DIV PUSH1 0xFF AND ISZERO PUSH2 0x2013 JUMPI PUSH1 0x0 PUSH2 0x22D PUSH1 0x1 PUSH2 0x100 EXP DUP2 SLOAD DUP2 PUSH1 0xFF MUL NOT AND SWAP1 DUP4 ISZERO ISZERO MUL OR SWAP1 SSTORE POP PUSH2 0x2030 JUMP JUMPDEST PUSH1 0x1 PUSH2 0x22D PUSH1 0x1 PUSH2 0x100 EXP DUP2 SLOAD DUP2 PUSH1 0xFF MUL NOT AND SWAP1 DUP4 ISZERO ISZERO MUL OR SWAP1 SSTORE POP JUMPDEST PUSH32 0x53CD659204FADCB4E69B0DCC6BBE24499267A1ADEF5C9E89926F5B4E1973EE67 PUSH2 0x22D PUSH1 0x1 SWAP1 SLOAD SWAP1 PUSH2 0x100 EXP SWAP1 DIV PUSH1 0xFF AND PUSH1 0x40 MLOAD PUSH2 0x206F SWAP2 SWAP1 PUSH2 0x5ACE JUMP JUMPDEST PUSH1 0x40 MLOAD DUP1 SWAP2 SUB SWAP1 LOG1 PUSH2 0x22D PUSH1 0x1 SWAP1 SLOAD SWAP1 PUSH2 0x100 EXP SWAP1 DIV PUSH1 0xFF AND SWAP2 POP POP SWAP1 JUMP JUMPDEST PUSH1 0x60 PUSH2 0x231 PUSH1 0x0 DUP4 DUP2 MSTORE PUSH1 0x20 ADD SWAP1 DUP2 MSTORE PUSH1 0x20 ADD PUSH1 0x0 KECCAK256 PUSH1 0x1 ADD DUP1 SLOAD PUSH2 0x20B2 SWAP1 PUSH2 0x688B JUMP JUMPDEST DUP1 PUSH1 0x1F ADD PUSH1 0x20 DUP1 SWAP2 DIV MUL PUSH1 0x20 ADD PUSH1 0x40 MLOAD SWAP1 DUP2 ADD PUSH1 0x40 MSTORE DUP1 SWAP3 SWAP2 SWAP1 DUP2 DUP2 MSTORE PUSH1 0x20 ADD DUP3 DUP1 SLOAD PUSH2 0x20DE SWAP1 PUSH2 0x688B JUMP JUMPDEST DUP1 ISZERO PUSH2 0x212B JUMPI DUP1 PUSH1 0x1F LT PUSH2 0x2100 JUMPI PUSH2 0x100 DUP1 DUP4 SLOAD DIV MUL DUP4 MSTORE SWAP2 PUSH1 0x20 ADD SWAP2 PUSH2 0x212B JUMP JUMPDEST DUP3 ADD SWAP2 SWAP1 PUSH1 0x0 MSTORE PUSH1 0x20 PUSH1 0x0 KECCAK256 SWAP1 JUMPDEST DUP2 SLOAD DUP2 MSTORE SWAP1 PUSH1 0x1 ADD SWAP1 PUSH1 0x20 ADD DUP1 DUP4 GT PUSH2 0x210E JUMPI DUP3 SWAP1 SUB PUSH1 0x1F AND DUP3 ADD SWAP2 JUMPDEST POP POP POP POP POP SWAP1 POP SWAP2 SWAP1 POP JUMP JUMPDEST PUSH1 0x0 PUSH2 0x2181 PUSH2 0x100 PUSH1 0x0 DUP5 PUSH20 0xFFFFFFFFFFFFFFFFFFFFFFFFFFFFFFFFFFFFFFFF AND PUSH20 0xFFFFFFFFFFFFFFFFFFFFFFFFFFFFFFFFFFFFFFFF AND DUP2 MSTORE PUSH1 0x20 ADD SWAP1 DUP2 MSTORE PUSH1 0x20 ADD PUSH1 0x0 KECCAK256 PUSH2 0x3C92 JUMP JUMPDEST SWAP1 POP SWAP2 SWAP1 POP JUMP JUMPDEST PUSH1 0x0 NUMBER DUP3 LT PUSH2 0x21CC JUMPI PUSH1 0x40 MLOAD PUSH32 0x8C379A000000000000000000000000000000000000000000000000000000000 DUP2 MSTORE PUSH1 0x4 ADD PUSH2 0x21C3 SWAP1 PUSH2 0x718F JUMP JUMPDEST PUSH1 0x40 MLOAD DUP1 SWAP2 SUB SWAP1 REVERT JUMPDEST PUSH2 0x21E0 DUP3 PUSH1 0xFF PUSH2 0x37E1 SWAP1 SWAP2 SWAP1 PUSH4 0xFFFFFFFF AND JUMP JUMPDEST SWAP1 POP SWAP2 SWAP1 POP JUMP JUMPDEST PUSH1 0x0 PUSH1 0x65 PUSH1 0x0 DUP5 DUP2 MSTORE PUSH1 0x20 ADD SWAP1 DUP2 MSTORE PUSH1 0x20 ADD PUSH1 0x0 KECCAK256 PUSH1 0x0 ADD PUSH1 0x0 DUP4 PUSH20 0xFFFFFFFFFFFFFFFFFFFFFFFFFFFFFFFFFFFFFFFF AND PUSH20 0xFFFFFFFFFFFFFFFFFFFFFFFFFFFFFFFFFFFFFFFF AND DUP2 MSTORE PUSH1 0x20 ADD SWAP1 DUP2 MSTORE PUSH1 0x20 ADD PUSH1 0x0 KECCAK256 PUSH1 0x0 SWAP1 SLOAD SWAP1 PUSH2 0x100 EXP SWAP1 DIV PUSH1 0xFF AND SWAP1 POP SWAP3 SWAP2 POP POP JUMP JUMPDEST PUSH1 0x0 PUSH2 0x22D PUSH1 0x0 SWAP1 SLOAD SWAP1 PUSH2 0x100 EXP SWAP1 DIV PUSH1 0xFF AND SWAP1 POP SWAP1 JUMP JUMPDEST PUSH1 0x60 PUSH1 0x98 DUP1 SLOAD PUSH2 0x2279 SWAP1 PUSH2 0x688B JUMP JUMPDEST DUP1 PUSH1 0x1F ADD PUSH1 0x20 DUP1 SWAP2 DIV MUL PUSH1 0x20 ADD PUSH1 0x40 MLOAD SWAP1 DUP2 ADD PUSH1 0x40 MSTORE DUP1 SWAP3 SWAP2 SWAP1 DUP2 DUP2 MSTORE PUSH1 0x20 ADD DUP3 DUP1 SLOAD PUSH2 0x22A5 SWAP1 PUSH2 0x688B JUMP JUMPDEST DUP1 ISZERO PUSH2 0x22F2 JUMPI DUP1 PUSH1 0x1F LT PUSH2 0x22C7 JUMPI PUSH2 0x100 DUP1 DUP4 SLOAD DIV MUL DUP4 MSTORE SWAP2 PUSH1 0x20 ADD SWAP2 PUSH2 0x22F2 JUMP JUMPDEST DUP3 ADD SWAP2 SWAP1 PUSH1 0x0 MSTORE PUSH1 0x20 PUSH1 0x0 KECCAK256 SWAP1 JUMPDEST DUP2 SLOAD DUP2 MSTORE SWAP1 PUSH1 0x1 ADD SWAP1 PUSH1 0x20 ADD DUP1 DUP4 GT PUSH2 0x22D5 JUMPI DUP3 SWAP1 SUB PUSH1 0x1F AND DUP3 ADD SWAP2 JUMPDEST POP POP POP POP POP SWAP1 POP SWAP1 JUMP JUMPDEST PUSH2 0x2304 PUSH2 0x3054 JUMP JUMPDEST PUSH2 0x22D PUSH1 0x1 SWAP1 SLOAD SWAP1 PUSH2 0x100 EXP SWAP1 DIV PUSH1 0xFF AND DUP1 ISZERO PUSH2 0x2348 JUMPI POP PUSH2 0x2346 PUSH32 0x9F2DF0FED2C77648DE5860A4CC508CD0818C85B8B8A1AB4CEEEF8D981C8956A6 CALLER PUSH2 0x21E7 JUMP JUMPDEST ISZERO JUMPDEST ISZERO PUSH2 0x2472 JUMPI PUSH2 0x22E SLOAD CALLVALUE LT ISZERO PUSH2 0x2393 JUMPI PUSH1 0x40 MLOAD PUSH32 0x8C379A000000000000000000000000000000000000000000000000000000000 DUP2 MSTORE PUSH1 0x4 ADD PUSH2 0x238A SWAP1 PUSH2 0x7221 JUMP JUMPDEST PUSH1 0x40 MLOAD DUP1 SWAP2 SUB SWAP1 REVERT JUMPDEST PUSH2 0x246D DUP6 DUP6 DUP6 DUP1 DUP1 PUSH1 0x1F ADD PUSH1 0x20 DUP1 SWAP2 DIV MUL PUSH1 0x20 ADD PUSH1 0x40 MLOAD SWAP1 DUP2 ADD PUSH1 0x40 MSTORE DUP1 SWAP4 SWAP3 SWAP2 SWAP1 DUP2 DUP2 MSTORE PUSH1 0x20 ADD DUP4 DUP4 DUP1 DUP3 DUP5 CALLDATACOPY PUSH1 0x0 DUP2 DUP5 ADD MSTORE PUSH1 0x1F NOT PUSH1 0x1F DUP3 ADD AND SWAP1 POP DUP1 DUP4 ADD SWAP3 POP POP POP POP POP POP POP PUSH2 0x22C DUP1 SLOAD PUSH2 0x23EA SWAP1 PUSH2 0x688B JUMP JUMPDEST DUP1 PUSH1 0x1F ADD PUSH1 0x20 DUP1 SWAP2 DIV MUL PUSH1 0x20 ADD PUSH1 0x40 MLOAD SWAP1 DUP2 ADD PUSH1 0x40 MSTORE DUP1 SWAP3 SWAP2 SWAP1 DUP2 DUP2 MSTORE PUSH1 0x20 ADD DUP3 DUP1 SLOAD PUSH2 0x2416 SWAP1 PUSH2 0x688B JUMP JUMPDEST DUP1 ISZERO PUSH2 0x2463 JUMPI DUP1 PUSH1 0x1F LT PUSH2 0x2438 JUMPI PUSH2 0x100 DUP1 DUP4 SLOAD DIV MUL DUP4 MSTORE SWAP2 PUSH1 0x20 ADD SWAP2 PUSH2 0x2463 JUMP JUMPDEST DUP3 ADD SWAP2 SWAP1 PUSH1 0x0 MSTORE PUSH1 0x20 PUSH1 0x0 KECCAK256 SWAP1 JUMPDEST DUP2 SLOAD DUP2 MSTORE SWAP1 PUSH1 0x1 ADD SWAP1 PUSH1 0x20 ADD DUP1 DUP4 GT PUSH2 0x2446 JUMPI DUP3 SWAP1 SUB PUSH1 0x1F AND DUP3 ADD SWAP2 JUMPDEST POP POP POP POP POP PUSH2 0x3CA0 JUMP JUMPDEST PUSH2 0x256F JUMP JUMPDEST PUSH2 0x249C PUSH32 0x9F2DF0FED2C77648DE5860A4CC508CD0818C85B8B8A1AB4CEEEF8D981C8956A6 CALLER PUSH2 0x21E7 JUMP JUMPDEST PUSH2 0x24DB JUMPI PUSH1 0x40 MLOAD PUSH32 0x8C379A000000000000000000000000000000000000000000000000000000000 DUP2 MSTORE PUSH1 0x4 ADD PUSH2 0x24D2 SWAP1 PUSH2 0x72B3 JUMP JUMPDEST PUSH1 0x40 MLOAD DUP1 SWAP2 SUB SWAP1 REVERT JUMPDEST PUSH2 0x256E DUP6 DUP6 DUP6 DUP1 DUP1 PUSH1 0x1F ADD PUSH1 0x20 DUP1 SWAP2 DIV MUL PUSH1 0x20 ADD PUSH1 0x40 MLOAD SWAP1 DUP2 ADD PUSH1 0x40 MSTORE DUP1 SWAP4 SWAP3 SWAP2 SWAP1 DUP2 DUP2 MSTORE PUSH1 0x20 ADD DUP4 DUP4 DUP1 DUP3 DUP5 CALLDATACOPY PUSH1 0x0 DUP2 DUP5 ADD MSTORE PUSH1 0x1F NOT PUSH1 0x1F DUP3 ADD AND SWAP1 POP DUP1 DUP4 ADD SWAP3 POP POP POP POP POP POP POP DUP5 DUP5 DUP1 DUP1 PUSH1 0x1F ADD PUSH1 0x20 DUP1 SWAP2 DIV MUL PUSH1 0x20 ADD PUSH1 0x40 MLOAD SWAP1 DUP2 ADD PUSH1 0x40 MSTORE DUP1 SWAP4 SWAP3 SWAP2 SWAP1 DUP2 DUP2 MSTORE PUSH1 0x20 ADD DUP4 DUP4 DUP1 DUP3 DUP5 CALLDATACOPY PUSH1 0x0 DUP2 DUP5 ADD MSTORE PUSH1 0x1F NOT PUSH1 0x1F DUP3 ADD AND SWAP1 POP DUP1 DUP4 ADD SWAP3 POP POP POP POP POP POP POP PUSH2 0x3CA0 JUMP JUMPDEST JUMPDEST POP POP POP POP POP JUMP JUMPDEST PUSH1 0x0 PUSH2 0x25BF PUSH1 0xFE PUSH1 0x0 DUP5 PUSH20 0xFFFFFFFFFFFFFFFFFFFFFFFFFFFFFFFFFFFFFFFF AND PUSH20 0xFFFFFFFFFFFFFFFFFFFFFFFFFFFFFFFFFFFFFFFF AND DUP2 MSTORE PUSH1 0x20 ADD SWAP1 DUP2 MSTORE PUSH1 0x20 ADD PUSH1 0x0 KECCAK256 PUSH2 0x3D7D JUMP JUMPDEST SWAP1 POP SWAP2 SWAP1 POP JUMP JUMPDEST PUSH1 0x0 DUP1 SHL DUP2 JUMP JUMPDEST PUSH2 0x25DF PUSH2 0x25D8 PUSH2 0x2F93 JUMP JUMPDEST DUP4 DUP4 PUSH2 0x3E18 JUMP JUMPDEST POP POP JUMP JUMPDEST PUSH32 0x9F2DF0FED2C77648DE5860A4CC508CD0818C85B8B8A1AB4CEEEF8D981C8956A6 PUSH2 0x260D DUP2 PUSH2 0x3399 JUMP JUMPDEST DUP3 DUP3 PUSH2 0x230 SWAP2 SWAP1 PUSH2 0x261F SWAP3 SWAP2 SWAP1 PUSH2 0x590E JUMP JUMPDEST POP POP POP POP JUMP JUMPDEST PUSH1 0x1 ISZERO ISZERO PUSH2 0x2631 PUSH2 0x2252 JUMP JUMPDEST ISZERO ISZERO EQ PUSH2 0x2673 JUMPI PUSH1 0x40 MLOAD PUSH32 0x8C379A000000000000000000000000000000000000000000000000000000000 DUP2 MSTORE PUSH1 0x4 ADD PUSH2 0x266A SWAP1 PUSH2 0x6908 JUMP JUMPDEST PUSH1 0x40 MLOAD DUP1 SWAP2 SUB SWAP1 REVERT JUMPDEST PUSH2 0x267B PUSH2 0x3054 JUMP JUMPDEST PUSH2 0x268C PUSH2 0x2686 PUSH2 0x2F93 JUMP JUMPDEST DUP4 PUSH2 0x309E JUMP JUMPDEST PUSH2 0x26CB JUMPI PUSH1 0x40 MLOAD PUSH32 0x8C379A000000000000000000000000000000000000000000000000000000000 DUP2 MSTORE PUSH1 0x4 ADD PUSH2 0x26C2 SWAP1 PUSH2 0x6ABE JUMP JUMPDEST PUSH1 0x40 MLOAD DUP1 SWAP2 SUB SWAP1 REVERT JUMPDEST PUSH2 0x26D7 DUP5 DUP5 DUP5 DUP5 PUSH2 0x3F84 JUMP JUMPDEST POP POP POP POP JUMP JUMPDEST PUSH2 0x26E5 PUSH2 0x5994 JUMP JUMPDEST PUSH1 0x0 PUSH1 0x40 MLOAD DUP1 PUSH1 0xE0 ADD PUSH1 0x40 MSTORE DUP1 DUP5 DUP2 MSTORE PUSH1 0x20 ADD PUSH2 0x2701 DUP6 PUSH2 0x1DF7 JUMP JUMPDEST PUSH20 0xFFFFFFFFFFFFFFFFFFFFFFFFFFFFFFFFFFFFFFFF AND DUP2 MSTORE PUSH1 0x20 ADD PUSH2 0x2725 DUP6 PUSH2 0x1546 JUMP JUMPDEST PUSH20 0xFFFFFFFFFFFFFFFFFFFFFFFFFFFFFFFFFFFFFFFF AND DUP2 MSTORE PUSH1 0x20 ADD PUSH2 0x2749 DUP6 PUSH2 0x109E JUMP JUMPDEST DUP2 MSTORE PUSH1 0x20 ADD PUSH2 0x2757 DUP6 PUSH2 0x208E JUMP JUMPDEST DUP2 MSTORE PUSH1 0x20 ADD PUSH2 0x2764 PUSH2 0x11FD JUMP JUMPDEST DUP2 MSTORE PUSH1 0x20 ADD PUSH2 0x2771 PUSH2 0xDCE JUMP JUMPDEST DUP2 MSTORE POP SWAP1 POP DUP1 SWAP2 POP POP SWAP2 SWAP1 POP JUMP JUMPDEST DUP4 TIMESTAMP GT ISZERO PUSH2 0x27C2 JUMPI PUSH1 0x40 MLOAD PUSH32 0x8C379A000000000000000000000000000000000000000000000000000000000 DUP2 MSTORE PUSH1 0x4 ADD PUSH2 0x27B9 SWAP1 PUSH2 0x731F JUMP JUMPDEST PUSH1 0x40 MLOAD DUP1 SWAP2 SUB SWAP1 REVERT JUMPDEST PUSH1 0x0 PUSH2 0x2824 PUSH2 0x281C PUSH32 0xE48329057BFD03D55E49B547132E39CFFD9C1820AD7B9D4C5307691425D15ADF DUP10 DUP10 DUP10 PUSH1 0x40 MLOAD PUSH1 0x20 ADD PUSH2 0x2801 SWAP5 SWAP4 SWAP3 SWAP2 SWAP1 PUSH2 0x733F JUMP JUMPDEST PUSH1 0x40 MLOAD PUSH1 0x20 DUP2 DUP4 SUB SUB DUP2 MSTORE SWAP1 PUSH1 0x40 MSTORE DUP1 MLOAD SWAP1 PUSH1 0x20 ADD KECCAK256 PUSH2 0x3FE0 JUMP JUMPDEST DUP6 DUP6 DUP6 PUSH2 0x3FFA JUMP JUMPDEST SWAP1 POP PUSH2 0x282F DUP2 PUSH2 0x4025 JUMP JUMPDEST DUP7 EQ PUSH2 0x2870 JUMPI PUSH1 0x40 MLOAD PUSH32 0x8C379A000000000000000000000000000000000000000000000000000000000 DUP2 MSTORE PUSH1 0x4 ADD PUSH2 0x2867 SWAP1 PUSH2 0x73D0 JUMP JUMPDEST PUSH1 0x40 MLOAD DUP1 SWAP2 SUB SWAP1 REVERT JUMPDEST PUSH2 0x287A DUP2 DUP9 PUSH2 0x3B70 JUMP JUMPDEST POP POP POP POP POP POP POP JUMP JUMPDEST PUSH1 0x60 DUP2 PUSH2 0x288F DUP2 PUSH2 0x3939 JUMP JUMPDEST PUSH2 0x28CE JUMPI PUSH1 0x40 MLOAD PUSH32 0x8C379A000000000000000000000000000000000000000000000000000000000 DUP2 MSTORE PUSH1 0x4 ADD PUSH2 0x28C5 SWAP1 PUSH2 0x6E35 JUMP JUMPDEST PUSH1 0x40 MLOAD DUP1 SWAP2 SUB SWAP1 REVERT JUMPDEST PUSH1 0x0 PUSH1 0x40 MLOAD DUP1 PUSH1 0xC0 ADD PUSH1 0x40 MSTORE DUP1 DUP6 DUP2 MSTORE PUSH1 0x20 ADD PUSH2 0x28EA DUP7 PUSH2 0x1546 JUMP JUMPDEST PUSH20 0xFFFFFFFFFFFFFFFFFFFFFFFFFFFFFFFFFFFFFFFF AND DUP2 MSTORE PUSH1 0x20 ADD PUSH2 0x290E DUP7 PUSH2 0x109E JUMP JUMPDEST DUP2 MSTORE PUSH1 0x20 ADD PUSH2 0x291C DUP7 PUSH2 0x208E JUMP JUMPDEST DUP2 MSTORE PUSH1 0x20 ADD PUSH2 0x2929 PUSH2 0x11FD JUMP JUMPDEST DUP2 MSTORE PUSH1 0x20 ADD PUSH2 0x2936 PUSH2 0xDCE JUMP JUMPDEST DUP2 MSTORE POP SWAP1 POP PUSH2 0x2944 DUP2 PUSH2 0x4084 JUMP JUMPDEST SWAP3 POP POP POP SWAP2 SWAP1 POP JUMP JUMPDEST PUSH32 0x9F2DF0FED2C77648DE5860A4CC508CD0818C85B8B8A1AB4CEEEF8D981C8956A6 DUP2 JUMP JUMPDEST PUSH2 0x297A DUP3 PUSH2 0x1290 JUMP JUMPDEST PUSH2 0x2983 DUP2 PUSH2 0x3399 JUMP JUMPDEST PUSH2 0x298D DUP4 DUP4 PUSH2 0x34CE JUMP JUMPDEST POP POP POP JUMP JUMPDEST PUSH1 0x0 PUSH32 0x65D7A28E3265B37A6474929F336521B332C1681B933F6CB9F3376673440D862A PUSH2 0x29BE DUP2 PUSH2 0x3399 JUMP JUMPDEST PUSH2 0x22D PUSH1 0x0 SWAP1 SLOAD SWAP1 PUSH2 0x100 EXP SWAP1 DIV PUSH1 0xFF AND ISZERO PUSH2 0x29F5 JUMPI PUSH1 0x0 PUSH2 0x22D PUSH1 0x0 PUSH2 0x100 EXP DUP2 SLOAD DUP2 PUSH1 0xFF MUL NOT AND SWAP1 DUP4 ISZERO ISZERO MUL OR SWAP1 SSTORE POP PUSH2 0x2A12 JUMP JUMPDEST PUSH1 0x1 PUSH2 0x22D PUSH1 0x0 PUSH2 0x100 EXP DUP2 SLOAD DUP2 PUSH1 0xFF MUL NOT AND SWAP1 DUP4 ISZERO ISZERO MUL OR SWAP1 SSTORE POP JUMPDEST PUSH32 0x40CEC7445E6AF82A2C1482720F9CDE27EF6CC85136E8B7ABD3EFD8C6A0EE566F PUSH2 0x22D PUSH1 0x0 SWAP1 SLOAD SWAP1 PUSH2 0x100 EXP SWAP1 DIV PUSH1 0xFF AND PUSH1 0x40 MLOAD PUSH2 0x2A51 SWAP2 SWAP1 PUSH2 0x5ACE JUMP JUMPDEST PUSH1 0x40 MLOAD DUP1 SWAP2 SUB SWAP1 LOG1 PUSH2 0x22D PUSH1 0x0 SWAP1 SLOAD SWAP1 PUSH2 0x100 EXP SWAP1 DIV PUSH1 0xFF AND SWAP2 POP POP SWAP1 JUMP JUMPDEST PUSH32 0x9F2DF0FED2C77648DE5860A4CC508CD0818C85B8B8A1AB4CEEEF8D981C8956A6 PUSH2 0x2A9A DUP2 PUSH2 0x3399 JUMP JUMPDEST PUSH2 0x2AA2 PUSH2 0x3054 JUMP JUMPDEST DUP5 DUP5 SWAP1 POP DUP8 DUP8 SWAP1 POP EQ PUSH2 0x2AEA JUMPI PUSH1 0x40 MLOAD PUSH32 0x8C379A000000000000000000000000000000000000000000000000000000000 DUP2 MSTORE PUSH1 0x4 ADD PUSH2 0x2AE1 SWAP1 PUSH2 0x7462 JUMP JUMPDEST PUSH1 0x40 MLOAD DUP1 SWAP2 SUB SWAP1 REVERT JUMPDEST DUP3 DUP3 SWAP1 POP DUP8 DUP8 SWAP1 POP EQ PUSH2 0x2B32 JUMPI PUSH1 0x40 MLOAD PUSH32 0x8C379A000000000000000000000000000000000000000000000000000000000 DUP2 MSTORE PUSH1 0x4 ADD PUSH2 0x2B29 SWAP1 PUSH2 0x7462 JUMP JUMPDEST PUSH1 0x40 MLOAD DUP1 SWAP2 SUB SWAP1 REVERT JUMPDEST PUSH1 0x0 JUMPDEST DUP8 DUP8 SWAP1 POP DUP2 LT ISZERO PUSH2 0x2C53 JUMPI PUSH2 0x2C40 DUP9 DUP9 DUP4 DUP2 DUP2 LT PUSH2 0x2B56 JUMPI PUSH2 0x2B55 PUSH2 0x7482 JUMP JUMPDEST JUMPDEST SWAP1 POP PUSH1 0x20 MUL ADD PUSH1 0x20 DUP2 ADD SWAP1 PUSH2 0x2B6B SWAP2 SWAP1 PUSH2 0x5DEF JUMP JUMPDEST DUP8 DUP8 DUP5 DUP2 DUP2 LT PUSH2 0x2B7E JUMPI PUSH2 0x2B7D PUSH2 0x7482 JUMP JUMPDEST JUMPDEST SWAP1 POP PUSH1 0x20 MUL DUP2 ADD SWAP1 PUSH2 0x2B90 SWAP2 SWAP1 PUSH2 0x74C0 JUMP JUMPDEST DUP1 DUP1 PUSH1 0x1F ADD PUSH1 0x20 DUP1 SWAP2 DIV MUL PUSH1 0x20 ADD PUSH1 0x40 MLOAD SWAP1 DUP2 ADD PUSH1 0x40 MSTORE DUP1 SWAP4 SWAP3 SWAP2 SWAP1 DUP2 DUP2 MSTORE PUSH1 0x20 ADD DUP4 DUP4 DUP1 DUP3 DUP5 CALLDATACOPY PUSH1 0x0 DUP2 DUP5 ADD MSTORE PUSH1 0x1F NOT PUSH1 0x1F DUP3 ADD AND SWAP1 POP DUP1 DUP4 ADD SWAP3 POP POP POP POP POP POP POP DUP7 DUP7 DUP6 DUP2 DUP2 LT PUSH2 0x2BE6 JUMPI PUSH2 0x2BE5 PUSH2 0x7482 JUMP JUMPDEST JUMPDEST SWAP1 POP PUSH1 0x20 MUL DUP2 ADD SWAP1 PUSH2 0x2BF8 SWAP2 SWAP1 PUSH2 0x74C0 JUMP JUMPDEST DUP1 DUP1 PUSH1 0x1F ADD PUSH1 0x20 DUP1 SWAP2 DIV MUL PUSH1 0x20 ADD PUSH1 0x40 MLOAD SWAP1 DUP2 ADD PUSH1 0x40 MSTORE DUP1 SWAP4 SWAP3 SWAP2 SWAP1 DUP2 DUP2 MSTORE PUSH1 0x20 ADD DUP4 DUP4 DUP1 DUP3 DUP5 CALLDATACOPY PUSH1 0x0 DUP2 DUP5 ADD MSTORE PUSH1 0x1F NOT PUSH1 0x1F DUP3 ADD AND SWAP1 POP DUP1 DUP4 ADD SWAP3 POP POP POP POP POP POP POP PUSH2 0x3CA0 JUMP JUMPDEST DUP1 DUP1 PUSH2 0x2C4B SWAP1 PUSH2 0x7523 JUMP JUMPDEST SWAP2 POP POP PUSH2 0x2B35 JUMP JUMPDEST POP POP POP POP POP POP POP POP JUMP JUMPDEST PUSH32 0x9F2DF0FED2C77648DE5860A4CC508CD0818C85B8B8A1AB4CEEEF8D981C8956A6 PUSH2 0x2C87 DUP2 PUSH2 0x3399 JUMP JUMPDEST PUSH1 0x0 JUMPDEST DUP4 DUP4 SWAP1 POP DUP2 LT ISZERO PUSH2 0x2D2B JUMPI PUSH2 0x2CB7 DUP5 DUP5 DUP4 DUP2 DUP2 LT PUSH2 0x2CAB JUMPI PUSH2 0x2CAA PUSH2 0x7482 JUMP JUMPDEST JUMPDEST SWAP1 POP PUSH1 0x20 MUL ADD CALLDATALOAD PUSH2 0x3939 JUMP JUMPDEST PUSH2 0x2CF6 JUMPI PUSH1 0x40 MLOAD PUSH32 0x8C379A000000000000000000000000000000000000000000000000000000000 DUP2 MSTORE PUSH1 0x4 ADD PUSH2 0x2CED SWAP1 PUSH2 0x75B7 JUMP JUMPDEST PUSH1 0x40 MLOAD DUP1 SWAP2 SUB SWAP1 REVERT JUMPDEST PUSH2 0x2D18 DUP5 DUP5 DUP4 DUP2 DUP2 LT PUSH2 0x2D0C JUMPI PUSH2 0x2D0B PUSH2 0x7482 JUMP JUMPDEST JUMPDEST SWAP1 POP PUSH1 0x20 MUL ADD CALLDATALOAD PUSH2 0x16F8 JUMP JUMPDEST DUP1 DUP1 PUSH2 0x2D23 SWAP1 PUSH2 0x7523 JUMP JUMPDEST SWAP2 POP POP PUSH2 0x2C8A JUMP JUMPDEST POP POP POP POP JUMP JUMPDEST PUSH32 0x65D7A28E3265B37A6474929F336521B332C1681B933F6CB9F3376673440D862A DUP2 JUMP JUMPDEST PUSH1 0x0 PUSH1 0x9C PUSH1 0x0 DUP5 PUSH20 0xFFFFFFFFFFFFFFFFFFFFFFFFFFFFFFFFFFFFFFFF AND PUSH20 0xFFFFFFFFFFFFFFFFFFFFFFFFFFFFFFFFFFFFFFFF AND DUP2 MSTORE PUSH1 0x20 ADD SWAP1 DUP2 MSTORE PUSH1 0x20 ADD PUSH1 0x0 KECCAK256 PUSH1 0x0 DUP4 PUSH20 0xFFFFFFFFFFFFFFFFFFFFFFFFFFFFFFFFFFFFFFFF AND PUSH20 0xFFFFFFFFFFFFFFFFFFFFFFFFFFFFFFFFFFFFFFFF AND DUP2 MSTORE PUSH1 0x20 ADD SWAP1 DUP2 MSTORE PUSH1 0x20 ADD PUSH1 0x0 KECCAK256 PUSH1 0x0 SWAP1 SLOAD SWAP1 PUSH2 0x100 EXP SWAP1 DIV PUSH1 0xFF AND SWAP1 POP SWAP3 SWAP2 POP POP JUMP JUMPDEST PUSH32 0x9F2DF0FED2C77648DE5860A4CC508CD0818C85B8B8A1AB4CEEEF8D981C8956A6 PUSH2 0x2E13 DUP2 PUSH2 0x3399 JUMP JUMPDEST DUP2 PUSH2 0x22E DUP2 SWAP1 SSTORE POP POP POP JUMP JUMPDEST PUSH32 0x189AB7A9244DF0848122154315AF71FE140F3DB0FE014031783B0946B8C9D2E3 DUP2 JUMP JUMPDEST PUSH1 0x0 DUP1 DUP3 PUSH20 0xFFFFFFFFFFFFFFFFFFFFFFFFFFFFFFFFFFFFFFFF AND EXTCODESIZE GT SWAP1 POP SWAP2 SWAP1 POP JUMP JUMPDEST PUSH1 0x0 PUSH32 0x80AC58CD00000000000000000000000000000000000000000000000000000000 PUSH28 0xFFFFFFFFFFFFFFFFFFFFFFFFFFFFFFFFFFFFFFFFFFFFFFFFFFFFFFFF NOT AND DUP3 PUSH28 0xFFFFFFFFFFFFFFFFFFFFFFFFFFFFFFFFFFFFFFFFFFFFFFFFFFFFFFFF NOT AND EQ DUP1 PUSH2 0x2F31 JUMPI POP PUSH32 0x5B5E139F00000000000000000000000000000000000000000000000000000000 PUSH28 0xFFFFFFFFFFFFFFFFFFFFFFFFFFFFFFFFFFFFFFFFFFFFFFFFFFFFFFFF NOT AND DUP3 PUSH28 0xFFFFFFFFFFFFFFFFFFFFFFFFFFFFFFFFFFFFFFFFFFFFFFFFFFFFFFFF NOT AND EQ JUMPDEST DUP1 PUSH2 0x2F41 JUMPI POP PUSH2 0x2F40 DUP3 PUSH2 0x4137 JUMP JUMPDEST JUMPDEST SWAP1 POP SWAP2 SWAP1 POP JUMP JUMPDEST PUSH2 0x2F51 DUP2 PUSH2 0x3939 JUMP JUMPDEST PUSH2 0x2F90 JUMPI PUSH1 0x40 MLOAD PUSH32 0x8C379A000000000000000000000000000000000000000000000000000000000 DUP2 MSTORE PUSH1 0x4 ADD PUSH2 0x2F87 SWAP1 PUSH2 0x7091 JUMP JUMPDEST PUSH1 0x40 MLOAD DUP1 SWAP2 SUB SWAP1 REVERT JUMPDEST POP JUMP JUMPDEST PUSH1 0x0 CALLER SWAP1 POP SWAP1 JUMP JUMPDEST DUP2 PUSH1 0x9B PUSH1 0x0 DUP4 DUP2 MSTORE PUSH1 0x20 ADD SWAP1 DUP2 MSTORE PUSH1 0x20 ADD PUSH1 0x0 KECCAK256 PUSH1 0x0 PUSH2 0x100 EXP DUP2 SLOAD DUP2 PUSH20 0xFFFFFFFFFFFFFFFFFFFFFFFFFFFFFFFFFFFFFFFF MUL NOT AND SWAP1 DUP4 PUSH20 0xFFFFFFFFFFFFFFFFFFFFFFFFFFFFFFFFFFFFFFFF AND MUL OR SWAP1 SSTORE POP DUP1 DUP3 PUSH20 0xFFFFFFFFFFFFFFFFFFFFFFFFFFFFFFFFFFFFFFFF AND PUSH2 0x300E DUP4 PUSH2 0x1DF7 JUMP JUMPDEST PUSH20 0xFFFFFFFFFFFFFFFFFFFFFFFFFFFFFFFFFFFFFFFF AND PUSH32 0x8C5BE1E5EBEC7D5BD14F71427D1E84F3DD0314C0F7B2291E5B200AC8C7C3B925 PUSH1 0x40 MLOAD PUSH1 0x40 MLOAD DUP1 SWAP2 SUB SWAP1 LOG4 POP POP JUMP JUMPDEST PUSH2 0x305C PUSH2 0x1DCD JUMP JUMPDEST ISZERO PUSH2 0x309C JUMPI PUSH1 0x40 MLOAD PUSH32 0x8C379A000000000000000000000000000000000000000000000000000000000 DUP2 MSTORE PUSH1 0x4 ADD PUSH2 0x3093 SWAP1 PUSH2 0x7623 JUMP JUMPDEST PUSH1 0x40 MLOAD DUP1 SWAP2 SUB SWAP1 REVERT JUMPDEST JUMP JUMPDEST PUSH1 0x0 DUP1 PUSH2 0x30AA DUP4 PUSH2 0x1DF7 JUMP JUMPDEST SWAP1 POP DUP1 PUSH20 0xFFFFFFFFFFFFFFFFFFFFFFFFFFFFFFFFFFFFFFFF AND DUP5 PUSH20 0xFFFFFFFFFFFFFFFFFFFFFFFFFFFFFFFFFFFFFFFF AND EQ DUP1 PUSH2 0x30EC JUMPI POP PUSH2 0x30EB DUP2 DUP6 PUSH2 0x2D55 JUMP JUMPDEST JUMPDEST DUP1 PUSH2 0x312A JUMPI POP DUP4 PUSH20 0xFFFFFFFFFFFFFFFFFFFFFFFFFFFFFFFFFFFFFFFF AND PUSH2 0x3112 DUP5 PUSH2 0xE60 JUMP JUMPDEST PUSH20 0xFFFFFFFFFFFFFFFFFFFFFFFFFFFFFFFFFFFFFFFF AND EQ JUMPDEST SWAP2 POP POP SWAP3 SWAP2 POP POP JUMP JUMPDEST DUP3 PUSH20 0xFFFFFFFFFFFFFFFFFFFFFFFFFFFFFFFFFFFFFFFF AND PUSH2 0x3153 DUP3 PUSH2 0x1DF7 JUMP JUMPDEST PUSH20 0xFFFFFFFFFFFFFFFFFFFFFFFFFFFFFFFFFFFFFFFF AND EQ PUSH2 0x31A9 JUMPI PUSH1 0x40 MLOAD PUSH32 0x8C379A000000000000000000000000000000000000000000000000000000000 DUP2 MSTORE PUSH1 0x4 ADD PUSH2 0x31A0 SWAP1 PUSH2 0x76B5 JUMP JUMPDEST PUSH1 0x40 MLOAD DUP1 SWAP2 SUB SWAP1 REVERT JUMPDEST PUSH1 0x0 PUSH20 0xFFFFFFFFFFFFFFFFFFFFFFFFFFFFFFFFFFFFFFFF AND DUP3 PUSH20 0xFFFFFFFFFFFFFFFFFFFFFFFFFFFFFFFFFFFFFFFF AND SUB PUSH2 0x3218 JUMPI PUSH1 0x40 MLOAD PUSH32 0x8C379A000000000000000000000000000000000000000000000000000000000 DUP2 MSTORE PUSH1 0x4 ADD PUSH2 0x320F SWAP1 PUSH2 0x7747 JUMP JUMPDEST PUSH1 0x40 MLOAD DUP1 SWAP2 SUB SWAP1 REVERT JUMPDEST PUSH2 0x3223 DUP4 DUP4 DUP4 PUSH2 0x41B1 JUMP JUMPDEST PUSH2 0x322E PUSH1 0x0 DUP3 PUSH2 0x2F9B JUMP JUMPDEST PUSH1 0x1 PUSH1 0x9A PUSH1 0x0 DUP6 PUSH20 0xFFFFFFFFFFFFFFFFFFFFFFFFFFFFFFFFFFFFFFFF AND PUSH20 0xFFFFFFFFFFFFFFFFFFFFFFFFFFFFFFFFFFFFFFFF AND DUP2 MSTORE PUSH1 0x20 ADD SWAP1 DUP2 MSTORE PUSH1 0x20 ADD PUSH1 0x0 KECCAK256 PUSH1 0x0 DUP3 DUP3 SLOAD PUSH2 0x327E SWAP2 SWAP1 PUSH2 0x7767 JUMP JUMPDEST SWAP3 POP POP DUP2 SWAP1 SSTORE POP PUSH1 0x1 PUSH1 0x9A PUSH1 0x0 DUP5 PUSH20 0xFFFFFFFFFFFFFFFFFFFFFFFFFFFFFFFFFFFFFFFF AND PUSH20 0xFFFFFFFFFFFFFFFFFFFFFFFFFFFFFFFFFFFFFFFF AND DUP2 MSTORE PUSH1 0x20 ADD SWAP1 DUP2 MSTORE PUSH1 0x20 ADD PUSH1 0x0 KECCAK256 PUSH1 0x0 DUP3 DUP3 SLOAD PUSH2 0x32D5 SWAP2 SWAP1 PUSH2 0x779B JUMP JUMPDEST SWAP3 POP POP DUP2 SWAP1 SSTORE POP DUP2 PUSH1 0x99 PUSH1 0x0 DUP4 DUP2 MSTORE PUSH1 0x20 ADD SWAP1 DUP2 MSTORE PUSH1 0x20 ADD PUSH1 0x0 KECCAK256 PUSH1 0x0 PUSH2 0x100 EXP DUP2 SLOAD DUP2 PUSH20 0xFFFFFFFFFFFFFFFFFFFFFFFFFFFFFFFFFFFFFFFF MUL NOT AND SWAP1 DUP4 PUSH20 0xFFFFFFFFFFFFFFFFFFFFFFFFFFFFFFFFFFFFFFFF AND MUL OR SWAP1 SSTORE POP DUP1 DUP3 PUSH20 0xFFFFFFFFFFFFFFFFFFFFFFFFFFFFFFFFFFFFFFFF AND DUP5 PUSH20 0xFFFFFFFFFFFFFFFFFFFFFFFFFFFFFFFFFFFFFFFF AND PUSH32 0xDDF252AD1BE2C89B69C2B068FC378DAA952BA7F163C4A11628F55A4DF523B3EF PUSH1 0x40 MLOAD PUSH1 0x40 MLOAD DUP1 SWAP2 SUB SWAP1 LOG4 PUSH2 0x3394 DUP4 DUP4 DUP4 PUSH2 0x41B6 JUMP JUMPDEST POP POP POP JUMP JUMPDEST PUSH2 0x33AA DUP2 PUSH2 0x33A5 PUSH2 0x2F93 JUMP JUMPDEST PUSH2 0x41D2 JUMP JUMPDEST POP JUMP JUMPDEST PUSH2 0x33B7 DUP3 DUP3 PUSH2 0x21E7 JUMP JUMPDEST PUSH2 0x348A JUMPI PUSH1 0x1 PUSH1 0x65 PUSH1 0x0 DUP5 DUP2 MSTORE PUSH1 0x20 ADD SWAP1 DUP2 MSTORE PUSH1 0x20 ADD PUSH1 0x0 KECCAK256 PUSH1 0x0 ADD PUSH1 0x0 DUP4 PUSH20 0xFFFFFFFFFFFFFFFFFFFFFFFFFFFFFFFFFFFFFFFF AND PUSH20 0xFFFFFFFFFFFFFFFFFFFFFFFFFFFFFFFFFFFFFFFF AND DUP2 MSTORE PUSH1 0x20 ADD SWAP1 DUP2 MSTORE PUSH1 0x20 ADD PUSH1 0x0 KECCAK256 PUSH1 0x0 PUSH2 0x100 EXP DUP2 SLOAD DUP2 PUSH1 0xFF MUL NOT AND SWAP1 DUP4 ISZERO ISZERO MUL OR SWAP1 SSTORE POP PUSH2 0x342F PUSH2 0x2F93 JUMP JUMPDEST PUSH20 0xFFFFFFFFFFFFFFFFFFFFFFFFFFFFFFFFFFFFFFFF AND DUP2 PUSH20 0xFFFFFFFFFFFFFFFFFFFFFFFFFFFFFFFFFFFFFFFF AND DUP4 PUSH32 0x2F8788117E7EFF1D82E926EC794901D17C78024A50270940304540A733656F0D PUSH1 0x40 MLOAD PUSH1 0x40 MLOAD DUP1 SWAP2 SUB SWAP1 LOG4 JUMPDEST POP POP JUMP JUMPDEST PUSH1 0x0 PUSH2 0x34C9 PUSH32 0x8B73C3C69BB8FE3D512ECC4CF759CC79239F7B179B0FFACAA9A75D522B39400F PUSH2 0x34BC PUSH2 0x426F JUMP JUMPDEST PUSH2 0x34C4 PUSH2 0x4279 JUMP JUMPDEST PUSH2 0x4283 JUMP JUMPDEST SWAP1 POP SWAP1 JUMP JUMPDEST PUSH2 0x34D8 DUP3 DUP3 PUSH2 0x21E7 JUMP JUMPDEST ISZERO PUSH2 0x35AC JUMPI PUSH1 0x0 PUSH1 0x65 PUSH1 0x0 DUP5 DUP2 MSTORE PUSH1 0x20 ADD SWAP1 DUP2 MSTORE PUSH1 0x20 ADD PUSH1 0x0 KECCAK256 PUSH1 0x0 ADD PUSH1 0x0 DUP4 PUSH20 0xFFFFFFFFFFFFFFFFFFFFFFFFFFFFFFFFFFFFFFFF AND PUSH20 0xFFFFFFFFFFFFFFFFFFFFFFFFFFFFFFFFFFFFFFFF AND DUP2 MSTORE PUSH1 0x20 ADD SWAP1 DUP2 MSTORE PUSH1 0x20 ADD PUSH1 0x0 KECCAK256 PUSH1 0x0 PUSH2 0x100 EXP DUP2 SLOAD DUP2 PUSH1 0xFF MUL NOT AND SWAP1 DUP4 ISZERO ISZERO MUL OR SWAP1 SSTORE POP PUSH2 0x3551 PUSH2 0x2F93 JUMP JUMPDEST PUSH20 0xFFFFFFFFFFFFFFFFFFFFFFFFFFFFFFFFFFFFFFFF AND DUP2 PUSH20 0xFFFFFFFFFFFFFFFFFFFFFFFFFFFFFFFFFFFFFFFF AND DUP4 PUSH32 0xF6391F5C32D9C69D2A47EA670B442974B53935D1EDC7FD64EB21E047A839171B PUSH1 0x40 MLOAD PUSH1 0x40 MLOAD DUP1 SWAP2 SUB SWAP1 LOG4 JUMPDEST POP POP JUMP JUMPDEST PUSH1 0x0 PUSH2 0x35DE PUSH32 0x360894A13BA1A3210667C828492DB98DCA3E2076CC3735A920A3CA505D382BBC PUSH1 0x0 SHL PUSH2 0x42BD JUMP JUMPDEST PUSH1 0x0 ADD PUSH1 0x0 SWAP1 SLOAD SWAP1 PUSH2 0x100 EXP SWAP1 DIV PUSH20 0xFFFFFFFFFFFFFFFFFFFFFFFFFFFFFFFFFFFFFFFF AND SWAP1 POP SWAP1 JUMP JUMPDEST PUSH2 0x3631 PUSH32 0x189AB7A9244DF0848122154315AF71FE140F3DB0FE014031783B0946B8C9D2E3 CALLER PUSH2 0x21E7 JUMP JUMPDEST PUSH2 0x3670 JUMPI PUSH1 0x40 MLOAD PUSH32 0x8C379A000000000000000000000000000000000000000000000000000000000 DUP2 MSTORE PUSH1 0x4 ADD PUSH2 0x3667 SWAP1 PUSH2 0x783D JUMP JUMPDEST PUSH1 0x40 MLOAD DUP1 SWAP2 SUB SWAP1 REVERT JUMPDEST POP JUMP JUMPDEST PUSH2 0x369F PUSH32 0x4910FDFA16FED3260ED0E7147F7CC6DA11A60208B5B9406D12A635614FFD9143 PUSH1 0x0 SHL PUSH2 0x42C7 JUMP JUMPDEST PUSH1 0x0 ADD PUSH1 0x0 SWAP1 SLOAD SWAP1 PUSH2 0x100 EXP SWAP1 DIV PUSH1 0xFF AND ISZERO PUSH2 0x36C3 JUMPI PUSH2 0x36BE DUP4 PUSH2 0x42D1 JUMP JUMPDEST PUSH2 0x37DC JUMP JUMPDEST DUP3 PUSH20 0xFFFFFFFFFFFFFFFFFFFFFFFFFFFFFFFFFFFFFFFF AND PUSH4 0x52D1902D PUSH1 0x40 MLOAD DUP2 PUSH4 0xFFFFFFFF AND PUSH1 0xE0 SHL DUP2 MSTORE PUSH1 0x4 ADD PUSH1 0x20 PUSH1 0x40 MLOAD DUP1 DUP4 SUB DUP2 DUP7 GAS STATICCALL SWAP3 POP POP POP DUP1 ISZERO PUSH2 0x372B JUMPI POP PUSH1 0x40 MLOAD RETURNDATASIZE PUSH1 0x1F NOT PUSH1 0x1F DUP3 ADD AND DUP3 ADD DUP1 PUSH1 0x40 MSTORE POP DUP2 ADD SWAP1 PUSH2 0x3728 SWAP2 SWAP1 PUSH2 0x7872 JUMP JUMPDEST PUSH1 0x1 JUMPDEST PUSH2 0x376A JUMPI PUSH1 0x40 MLOAD PUSH32 0x8C379A000000000000000000000000000000000000000000000000000000000 DUP2 MSTORE PUSH1 0x4 ADD PUSH2 0x3761 SWAP1 PUSH2 0x7911 JUMP JUMPDEST PUSH1 0x40 MLOAD DUP1 SWAP2 SUB SWAP1 REVERT JUMPDEST PUSH32 0x360894A13BA1A3210667C828492DB98DCA3E2076CC3735A920A3CA505D382BBC PUSH1 0x0 SHL DUP2 EQ PUSH2 0x37CF JUMPI PUSH1 0x40 MLOAD PUSH32 0x8C379A000000000000000000000000000000000000000000000000000000000 DUP2 MSTORE PUSH1 0x4 ADD PUSH2 0x37C6 SWAP1 PUSH2 0x79A3 JUMP JUMPDEST PUSH1 0x40 MLOAD DUP1 SWAP2 SUB SWAP1 REVERT JUMPDEST POP PUSH2 0x37DB DUP4 DUP4 DUP4 PUSH2 0x438A JUMP JUMPDEST JUMPDEST POP POP POP JUMP JUMPDEST PUSH1 0x0 NUMBER DUP3 LT PUSH2 0x3825 JUMPI PUSH1 0x40 MLOAD PUSH32 0x8C379A000000000000000000000000000000000000000000000000000000000 DUP2 MSTORE PUSH1 0x4 ADD PUSH2 0x381C SWAP1 PUSH2 0x7A0F JUMP JUMPDEST PUSH1 0x40 MLOAD DUP1 SWAP2 SUB SWAP1 REVERT JUMPDEST PUSH1 0x0 DUP4 PUSH1 0x0 ADD DUP1 SLOAD SWAP1 POP SWAP1 POP PUSH1 0x0 JUMPDEST DUP2 DUP2 LT ISZERO PUSH2 0x38A9 JUMPI PUSH1 0x0 PUSH2 0x3848 DUP3 DUP5 PUSH2 0x43B6 JUMP JUMPDEST SWAP1 POP DUP5 DUP7 PUSH1 0x0 ADD DUP3 DUP2 SLOAD DUP2 LT PUSH2 0x3861 JUMPI PUSH2 0x3860 PUSH2 0x7482 JUMP JUMPDEST JUMPDEST SWAP1 PUSH1 0x0 MSTORE PUSH1 0x20 PUSH1 0x0 KECCAK256 ADD PUSH1 0x0 ADD PUSH1 0x0 SWAP1 SLOAD SWAP1 PUSH2 0x100 EXP SWAP1 DIV PUSH4 0xFFFFFFFF AND PUSH4 0xFFFFFFFF AND GT ISZERO PUSH2 0x3893 JUMPI DUP1 SWAP3 POP PUSH2 0x38A3 JUMP JUMPDEST PUSH1 0x1 DUP2 PUSH2 0x38A0 SWAP2 SWAP1 PUSH2 0x779B JUMP JUMPDEST SWAP2 POP JUMPDEST POP PUSH2 0x3834 JUMP JUMPDEST PUSH1 0x0 DUP3 EQ PUSH2 0x390E JUMPI DUP5 PUSH1 0x0 ADD PUSH1 0x1 DUP4 PUSH2 0x38C2 SWAP2 SWAP1 PUSH2 0x7767 JUMP JUMPDEST DUP2 SLOAD DUP2 LT PUSH2 0x38D3 JUMPI PUSH2 0x38D2 PUSH2 0x7482 JUMP JUMPDEST JUMPDEST SWAP1 PUSH1 0x0 MSTORE PUSH1 0x20 PUSH1 0x0 KECCAK256 ADD PUSH1 0x0 ADD PUSH1 0x4 SWAP1 SLOAD SWAP1 PUSH2 0x100 EXP SWAP1 DIV PUSH28 0xFFFFFFFFFFFFFFFFFFFFFFFFFFFFFFFFFFFFFFFFFFFFFFFFFFFFFFFF AND PUSH2 0x3911 JUMP JUMPDEST PUSH1 0x0 JUMPDEST PUSH28 0xFFFFFFFFFFFFFFFFFFFFFFFFFFFFFFFFFFFFFFFFFFFFFFFFFFFFFFFF AND SWAP3 POP POP POP SWAP3 SWAP2 POP POP JUMP JUMPDEST PUSH1 0x0 DUP1 PUSH20 0xFFFFFFFFFFFFFFFFFFFFFFFFFFFFFFFFFFFFFFFF AND PUSH1 0x99 PUSH1 0x0 DUP5 DUP2 MSTORE PUSH1 0x20 ADD SWAP1 DUP2 MSTORE PUSH1 0x20 ADD PUSH1 0x0 KECCAK256 PUSH1 0x0 SWAP1 SLOAD SWAP1 PUSH2 0x100 EXP SWAP1 DIV PUSH20 0xFFFFFFFFFFFFFFFFFFFFFFFFFFFFFFFFFFFFFFFF AND PUSH20 0xFFFFFFFFFFFFFFFFFFFFFFFFFFFFFFFFFFFFFFFF AND EQ ISZERO SWAP1 POP SWAP2 SWAP1 POP JUMP JUMPDEST PUSH1 0x0 PUSH2 0x39B0 DUP3 PUSH2 0x1DF7 JUMP JUMPDEST SWAP1 POP PUSH2 0x39BE DUP2 PUSH1 0x0 DUP5 PUSH2 0x41B1 JUMP JUMPDEST PUSH2 0x39C9 PUSH1 0x0 DUP4 PUSH2 0x2F9B JUMP JUMPDEST PUSH1 0x1 PUSH1 0x9A PUSH1 0x0 DUP4 PUSH20 0xFFFFFFFFFFFFFFFFFFFFFFFFFFFFFFFFFFFFFFFF AND PUSH20 0xFFFFFFFFFFFFFFFFFFFFFFFFFFFFFFFFFFFFFFFF AND DUP2 MSTORE PUSH1 0x20 ADD SWAP1 DUP2 MSTORE PUSH1 0x20 ADD PUSH1 0x0 KECCAK256 PUSH1 0x0 DUP3 DUP3 SLOAD PUSH2 0x3A19 SWAP2 SWAP1 PUSH2 0x7767 JUMP JUMPDEST SWAP3 POP POP DUP2 SWAP1 SSTORE POP PUSH1 0x99 PUSH1 0x0 DUP4 DUP2 MSTORE PUSH1 0x20 ADD SWAP1 DUP2 MSTORE PUSH1 0x20 ADD PUSH1 0x0 KECCAK256 PUSH1 0x0 PUSH2 0x100 EXP DUP2 SLOAD SWAP1 PUSH20 0xFFFFFFFFFFFFFFFFFFFFFFFFFFFFFFFFFFFFFFFF MUL NOT AND SWAP1 SSTORE DUP2 PUSH1 0x0 PUSH20 0xFFFFFFFFFFFFFFFFFFFFFFFFFFFFFFFFFFFFFFFF AND DUP3 PUSH20 0xFFFFFFFFFFFFFFFFFFFFFFFFFFFFFFFFFFFFFFFF AND PUSH32 0xDDF252AD1BE2C89B69C2B068FC378DAA952BA7F163C4A11628F55A4DF523B3EF PUSH1 0x40 MLOAD PUSH1 0x40 MLOAD DUP1 SWAP2 SUB SWAP1 LOG4 PUSH2 0x3ABE DUP2 PUSH1 0x0 DUP5 PUSH2 0x41B6 JUMP JUMPDEST POP POP JUMP JUMPDEST PUSH1 0x0 PUSH1 0x1 SWAP1 SLOAD SWAP1 PUSH2 0x100 EXP SWAP1 DIV PUSH1 0xFF AND PUSH2 0x3B11 JUMPI PUSH1 0x40 MLOAD PUSH32 0x8C379A000000000000000000000000000000000000000000000000000000000 DUP2 MSTORE PUSH1 0x4 ADD PUSH2 0x3B08 SWAP1 PUSH2 0x7AA1 JUMP JUMPDEST PUSH1 0x40 MLOAD DUP1 SWAP2 SUB SWAP1 REVERT JUMPDEST PUSH2 0x3B1B DUP3 DUP3 PUSH2 0x43DC JUMP JUMPDEST POP POP JUMP JUMPDEST PUSH1 0x0 PUSH1 0x1 SWAP1 SLOAD SWAP1 PUSH2 0x100 EXP SWAP1 DIV PUSH1 0xFF AND PUSH2 0x3B6E JUMPI PUSH1 0x40 MLOAD PUSH32 0x8C379A000000000000000000000000000000000000000000000000000000000 DUP2 MSTORE PUSH1 0x4 ADD PUSH2 0x3B65 SWAP1 PUSH2 0x7AA1 JUMP JUMPDEST PUSH1 0x40 MLOAD DUP1 SWAP2 SUB SWAP1 REVERT JUMPDEST JUMP JUMPDEST PUSH1 0x0 PUSH2 0x3B7B DUP4 PUSH2 0x1A5C JUMP JUMPDEST SWAP1 POP DUP2 PUSH1 0xFD PUSH1 0x0 DUP6 PUSH20 0xFFFFFFFFFFFFFFFFFFFFFFFFFFFFFFFFFFFFFFFF AND PUSH20 0xFFFFFFFFFFFFFFFFFFFFFFFFFFFFFFFFFFFFFFFF AND DUP2 MSTORE PUSH1 0x20 ADD SWAP1 DUP2 MSTORE PUSH1 0x20 ADD PUSH1 0x0 KECCAK256 PUSH1 0x0 PUSH2 0x100 EXP DUP2 SLOAD DUP2 PUSH20 0xFFFFFFFFFFFFFFFFFFFFFFFFFFFFFFFFFFFFFFFF MUL NOT AND SWAP1 DUP4 PUSH20 0xFFFFFFFFFFFFFFFFFFFFFFFFFFFFFFFFFFFFFFFF AND MUL OR SWAP1 SSTORE POP DUP2 PUSH20 0xFFFFFFFFFFFFFFFFFFFFFFFFFFFFFFFFFFFFFFFF AND DUP2 PUSH20 0xFFFFFFFFFFFFFFFFFFFFFFFFFFFFFFFFFFFFFFFF AND DUP5 PUSH20 0xFFFFFFFFFFFFFFFFFFFFFFFFFFFFFFFFFFFFFFFF AND PUSH32 0x3134E8A2E6D97E929A7E54011EA5485D7D196DD5F0BA4D4EF95803E8E3FC257F PUSH1 0x40 MLOAD PUSH1 0x40 MLOAD DUP1 SWAP2 SUB SWAP1 LOG4 PUSH2 0x3C7F DUP2 DUP4 PUSH2 0x3C7A DUP7 PUSH2 0x445D JUMP JUMPDEST PUSH2 0x446F JUMP JUMPDEST POP POP POP JUMP JUMPDEST PUSH1 0x0 DUP2 PUSH1 0x0 ADD SLOAD SWAP1 POP SWAP2 SWAP1 POP JUMP JUMPDEST PUSH1 0x0 DUP2 PUSH1 0x0 ADD SLOAD SWAP1 POP SWAP2 SWAP1 POP JUMP JUMPDEST PUSH2 0x3CA8 PUSH2 0x3054 JUMP JUMPDEST PUSH1 0x0 PUSH2 0x3CB5 PUSH2 0x229 PUSH2 0x3C84 JUMP JUMPDEST SWAP1 POP DUP3 PUSH2 0x231 PUSH1 0x0 DUP4 DUP2 MSTORE PUSH1 0x20 ADD SWAP1 DUP2 MSTORE PUSH1 0x20 ADD PUSH1 0x0 KECCAK256 PUSH1 0x0 ADD SWAP1 DUP1 MLOAD SWAP1 PUSH1 0x20 ADD SWAP1 PUSH2 0x3CE2 SWAP3 SWAP2 SWAP1 PUSH2 0x5888 JUMP JUMPDEST POP DUP2 PUSH2 0x231 PUSH1 0x0 DUP4 DUP2 MSTORE PUSH1 0x20 ADD SWAP1 DUP2 MSTORE PUSH1 0x20 ADD PUSH1 0x0 KECCAK256 PUSH1 0x1 ADD SWAP1 DUP1 MLOAD SWAP1 PUSH1 0x20 ADD SWAP1 PUSH2 0x3D0E SWAP3 SWAP2 SWAP1 PUSH2 0x5888 JUMP JUMPDEST POP DUP4 PUSH2 0x232 PUSH1 0x0 DUP4 DUP2 MSTORE PUSH1 0x20 ADD SWAP1 DUP2 MSTORE PUSH1 0x20 ADD PUSH1 0x0 KECCAK256 PUSH1 0x0 PUSH2 0x100 EXP DUP2 SLOAD DUP2 PUSH20 0xFFFFFFFFFFFFFFFFFFFFFFFFFFFFFFFFFFFFFFFF MUL NOT AND SWAP1 DUP4 PUSH20 0xFFFFFFFFFFFFFFFFFFFFFFFFFFFFFFFFFFFFFFFF AND MUL OR SWAP1 SSTORE POP PUSH2 0x3D6C DUP5 DUP3 PUSH2 0x467C JUMP JUMPDEST PUSH2 0x3D77 PUSH2 0x229 PUSH2 0x469A JUMP JUMPDEST POP POP POP POP JUMP JUMPDEST PUSH1 0x0 DUP1 DUP3 PUSH1 0x0 ADD DUP1 SLOAD SWAP1 POP SWAP1 POP PUSH1 0x0 DUP2 EQ PUSH2 0x3DEF JUMPI DUP3 PUSH1 0x0 ADD PUSH1 0x1 DUP3 PUSH2 0x3DA3 SWAP2 SWAP1 PUSH2 0x7767 JUMP JUMPDEST DUP2 SLOAD DUP2 LT PUSH2 0x3DB4 JUMPI PUSH2 0x3DB3 PUSH2 0x7482 JUMP JUMPDEST JUMPDEST SWAP1 PUSH1 0x0 MSTORE PUSH1 0x20 PUSH1 0x0 KECCAK256 ADD PUSH1 0x0 ADD PUSH1 0x4 SWAP1 SLOAD SWAP1 PUSH2 0x100 EXP SWAP1 DIV PUSH28 0xFFFFFFFFFFFFFFFFFFFFFFFFFFFFFFFFFFFFFFFFFFFFFFFFFFFFFFFF AND PUSH2 0x3DF2 JUMP JUMPDEST PUSH1 0x0 JUMPDEST PUSH28 0xFFFFFFFFFFFFFFFFFFFFFFFFFFFFFFFFFFFFFFFFFFFFFFFFFFFFFFFF AND SWAP2 POP POP SWAP2 SWAP1 POP JUMP JUMPDEST DUP2 PUSH20 0xFFFFFFFFFFFFFFFFFFFFFFFFFFFFFFFFFFFFFFFF AND DUP4 PUSH20 0xFFFFFFFFFFFFFFFFFFFFFFFFFFFFFFFFFFFFFFFF AND SUB PUSH2 0x3E86 JUMPI PUSH1 0x40 MLOAD PUSH32 0x8C379A000000000000000000000000000000000000000000000000000000000 DUP2 MSTORE PUSH1 0x4 ADD PUSH2 0x3E7D SWAP1 PUSH2 0x7B0D JUMP JUMPDEST PUSH1 0x40 MLOAD DUP1 SWAP2 SUB SWAP1 REVERT JUMPDEST DUP1 PUSH1 0x9C PUSH1 0x0 DUP6 PUSH20 0xFFFFFFFFFFFFFFFFFFFFFFFFFFFFFFFFFFFFFFFF AND PUSH20 0xFFFFFFFFFFFFFFFFFFFFFFFFFFFFFFFFFFFFFFFF AND DUP2 MSTORE PUSH1 0x20 ADD SWAP1 DUP2 MSTORE PUSH1 0x20 ADD PUSH1 0x0 KECCAK256 PUSH1 0x0 DUP5 PUSH20 0xFFFFFFFFFFFFFFFFFFFFFFFFFFFFFFFFFFFFFFFF AND PUSH20 0xFFFFFFFFFFFFFFFFFFFFFFFFFFFFFFFFFFFFFFFF AND DUP2 MSTORE PUSH1 0x20 ADD SWAP1 DUP2 MSTORE PUSH1 0x20 ADD PUSH1 0x0 KECCAK256 PUSH1 0x0 PUSH2 0x100 EXP DUP2 SLOAD DUP2 PUSH1 0xFF MUL NOT AND SWAP1 DUP4 ISZERO ISZERO MUL OR SWAP1 SSTORE POP DUP2 PUSH20 0xFFFFFFFFFFFFFFFFFFFFFFFFFFFFFFFFFFFFFFFF AND DUP4 PUSH20 0xFFFFFFFFFFFFFFFFFFFFFFFFFFFFFFFFFFFFFFFF AND PUSH32 0x17307EAB39AB6107E8899845AD3D59BD9653F200F220920489CA2B5937696C31 DUP4 PUSH1 0x40 MLOAD PUSH2 0x3F77 SWAP2 SWAP1 PUSH2 0x5ACE JUMP JUMPDEST PUSH1 0x40 MLOAD DUP1 SWAP2 SUB SWAP1 LOG3 POP POP POP JUMP JUMPDEST PUSH2 0x3F8F DUP5 DUP5 DUP5 PUSH2 0x3133 JUMP JUMPDEST PUSH2 0x3F9B DUP5 DUP5 DUP5 DUP5 PUSH2 0x46B0 JUMP JUMPDEST PUSH2 0x3FDA JUMPI PUSH1 0x40 MLOAD PUSH32 0x8C379A000000000000000000000000000000000000000000000000000000000 DUP2 MSTORE PUSH1 0x4 ADD PUSH2 0x3FD1 SWAP1 PUSH2 0x7B9F JUMP JUMPDEST PUSH1 0x40 MLOAD DUP1 SWAP2 SUB SWAP1 REVERT JUMPDEST POP POP POP POP JUMP JUMPDEST PUSH1 0x0 PUSH2 0x3FF3 PUSH2 0x3FED PUSH2 0x348E JUMP JUMPDEST DUP4 PUSH2 0x4837 JUMP JUMPDEST SWAP1 POP SWAP2 SWAP1 POP JUMP JUMPDEST PUSH1 0x0 DUP1 PUSH1 0x0 PUSH2 0x400B DUP8 DUP8 DUP8 DUP8 PUSH2 0x486A JUMP JUMPDEST SWAP2 POP SWAP2 POP PUSH2 0x4018 DUP2 PUSH2 0x4976 JUMP JUMPDEST DUP2 SWAP3 POP POP POP SWAP5 SWAP4 POP POP POP POP JUMP JUMPDEST PUSH1 0x0 DUP1 PUSH2 0x100 PUSH1 0x0 DUP5 PUSH20 0xFFFFFFFFFFFFFFFFFFFFFFFFFFFFFFFFFFFFFFFF AND PUSH20 0xFFFFFFFFFFFFFFFFFFFFFFFFFFFFFFFFFFFFFFFF AND DUP2 MSTORE PUSH1 0x20 ADD SWAP1 DUP2 MSTORE PUSH1 0x20 ADD PUSH1 0x0 KECCAK256 SWAP1 POP PUSH2 0x4073 DUP2 PUSH2 0x3C92 JUMP JUMPDEST SWAP2 POP PUSH2 0x407E DUP2 PUSH2 0x4B42 JUMP JUMPDEST POP SWAP2 SWAP1 POP JUMP JUMPDEST PUSH1 0x60 PUSH1 0x0 PUSH2 0x40C2 PUSH2 0x230 DUP5 PUSH1 0x40 ADD MLOAD DUP6 PUSH1 0x60 ADD MLOAD PUSH2 0x22B PUSH1 0x40 MLOAD PUSH1 0x20 ADD PUSH2 0x40AE SWAP5 SWAP4 SWAP3 SWAP2 SWAP1 PUSH2 0x806B JUMP JUMPDEST PUSH1 0x40 MLOAD PUSH1 0x20 DUP2 DUP4 SUB SUB DUP2 MSTORE SWAP1 PUSH1 0x40 MSTORE PUSH2 0x4B58 JUMP JUMPDEST SWAP1 POP PUSH1 0x0 PUSH2 0x40D3 DUP5 PUSH1 0x0 ADD MLOAD PUSH2 0x4CBB JUMP JUMPDEST DUP5 PUSH1 0x40 ADD MLOAD DUP6 PUSH1 0x60 ADD MLOAD DUP7 PUSH1 0x80 ADD MLOAD DUP8 PUSH1 0xA0 ADD MLOAD DUP7 PUSH1 0x40 MLOAD PUSH1 0x20 ADD PUSH2 0x40FD SWAP7 SWAP6 SWAP5 SWAP4 SWAP3 SWAP2 SWAP1 PUSH2 0x833B JUMP JUMPDEST PUSH1 0x40 MLOAD PUSH1 0x20 DUP2 DUP4 SUB SUB DUP2 MSTORE SWAP1 PUSH1 0x40 MSTORE SWAP1 POP DUP1 PUSH1 0x40 MLOAD PUSH1 0x20 ADD PUSH2 0x411F SWAP2 SWAP1 PUSH2 0x842C JUMP JUMPDEST PUSH1 0x40 MLOAD PUSH1 0x20 DUP2 DUP4 SUB SUB DUP2 MSTORE SWAP1 PUSH1 0x40 MSTORE SWAP3 POP POP POP SWAP2 SWAP1 POP JUMP JUMPDEST PUSH1 0x0 PUSH32 0x7965DB0B00000000000000000000000000000000000000000000000000000000 PUSH28 0xFFFFFFFFFFFFFFFFFFFFFFFFFFFFFFFFFFFFFFFFFFFFFFFFFFFFFFFF NOT AND DUP3 PUSH28 0xFFFFFFFFFFFFFFFFFFFFFFFFFFFFFFFFFFFFFFFFFFFFFFFFFFFFFFFF NOT AND EQ DUP1 PUSH2 0x41AA JUMPI POP PUSH2 0x41A9 DUP3 PUSH2 0x4E1B JUMP JUMPDEST JUMPDEST SWAP1 POP SWAP2 SWAP1 POP JUMP JUMPDEST POP POP POP JUMP JUMPDEST PUSH2 0x41C2 DUP4 DUP4 PUSH1 0x1 PUSH2 0x4E85 JUMP JUMPDEST PUSH2 0x41CD DUP4 DUP4 DUP4 PUSH2 0x4F43 JUMP JUMPDEST POP POP POP JUMP JUMPDEST PUSH2 0x41DC DUP3 DUP3 PUSH2 0x21E7 JUMP JUMPDEST PUSH2 0x426B JUMPI PUSH2 0x4201 DUP2 PUSH20 0xFFFFFFFFFFFFFFFFFFFFFFFFFFFFFFFFFFFFFFFF AND PUSH1 0x14 PUSH2 0x4F5F JUMP JUMPDEST PUSH2 0x420F DUP4 PUSH1 0x0 SHR PUSH1 0x20 PUSH2 0x4F5F JUMP JUMPDEST PUSH1 0x40 MLOAD PUSH1 0x20 ADD PUSH2 0x4220 SWAP3 SWAP2 SWAP1 PUSH2 0x84E6 JUMP JUMPDEST PUSH1 0x40 MLOAD PUSH1 0x20 DUP2 DUP4 SUB SUB DUP2 MSTORE SWAP1 PUSH1 0x40 MSTORE PUSH1 0x40 MLOAD PUSH32 0x8C379A000000000000000000000000000000000000000000000000000000000 DUP2 MSTORE PUSH1 0x4 ADD PUSH2 0x4262 SWAP2 SWAP1 PUSH2 0x5B82 JUMP JUMPDEST PUSH1 0x40 MLOAD DUP1 SWAP2 SUB SWAP1 REVERT JUMPDEST POP POP JUMP JUMPDEST PUSH1 0x0 PUSH1 0xC9 SLOAD SWAP1 POP SWAP1 JUMP JUMPDEST PUSH1 0x0 PUSH1 0xCA SLOAD SWAP1 POP SWAP1 JUMP JUMPDEST PUSH1 0x0 DUP4 DUP4 DUP4 CHAINID ADDRESS PUSH1 0x40 MLOAD PUSH1 0x20 ADD PUSH2 0x429E SWAP6 SWAP5 SWAP4 SWAP3 SWAP2 SWAP1 PUSH2 0x8520 JUMP JUMPDEST PUSH1 0x40 MLOAD PUSH1 0x20 DUP2 DUP4 SUB SUB DUP2 MSTORE SWAP1 PUSH1 0x40 MSTORE DUP1 MLOAD SWAP1 PUSH1 0x20 ADD KECCAK256 SWAP1 POP SWAP4 SWAP3 POP POP POP JUMP JUMPDEST PUSH1 0x0 DUP2 SWAP1 POP SWAP2 SWAP1 POP JUMP JUMPDEST PUSH1 0x0 DUP2 SWAP1 POP SWAP2 SWAP1 POP JUMP JUMPDEST PUSH2 0x42DA DUP2 PUSH2 0x2E43 JUMP JUMPDEST PUSH2 0x4319 JUMPI PUSH1 0x40 MLOAD PUSH32 0x8C379A000000000000000000000000000000000000000000000000000000000 DUP2 MSTORE PUSH1 0x4 ADD PUSH2 0x4310 SWAP1 PUSH2 0x85E5 JUMP JUMPDEST PUSH1 0x40 MLOAD DUP1 SWAP2 SUB SWAP1 REVERT JUMPDEST DUP1 PUSH2 0x4346 PUSH32 0x360894A13BA1A3210667C828492DB98DCA3E2076CC3735A920A3CA505D382BBC PUSH1 0x0 SHL PUSH2 0x42BD JUMP JUMPDEST PUSH1 0x0 ADD PUSH1 0x0 PUSH2 0x100 EXP DUP2 SLOAD DUP2 PUSH20 0xFFFFFFFFFFFFFFFFFFFFFFFFFFFFFFFFFFFFFFFF MUL NOT AND SWAP1 DUP4 PUSH20 0xFFFFFFFFFFFFFFFFFFFFFFFFFFFFFFFFFFFFFFFF AND MUL OR SWAP1 SSTORE POP POP JUMP JUMPDEST PUSH2 0x4393 DUP4 PUSH2 0x519B JUMP JUMPDEST PUSH1 0x0 DUP3 MLOAD GT DUP1 PUSH2 0x43A0 JUMPI POP DUP1 JUMPDEST ISZERO PUSH2 0x43B1 JUMPI PUSH2 0x43AF DUP4 DUP4 PUSH2 0x51EA JUMP JUMPDEST POP JUMPDEST POP POP POP JUMP JUMPDEST PUSH1 0x0 PUSH1 0x2 DUP3 DUP5 XOR PUSH2 0x43C7 SWAP2 SWAP1 PUSH2 0x6CF2 JUMP JUMPDEST DUP3 DUP5 AND PUSH2 0x43D4 SWAP2 SWAP1 PUSH2 0x779B JUMP JUMPDEST SWAP1 POP SWAP3 SWAP2 POP POP JUMP JUMPDEST PUSH1 0x0 PUSH1 0x1 SWAP1 SLOAD SWAP1 PUSH2 0x100 EXP SWAP1 DIV PUSH1 0xFF AND PUSH2 0x442B JUMPI PUSH1 0x40 MLOAD PUSH32 0x8C379A000000000000000000000000000000000000000000000000000000000 DUP2 MSTORE PUSH1 0x4 ADD PUSH2 0x4422 SWAP1 PUSH2 0x7AA1 JUMP JUMPDEST PUSH1 0x40 MLOAD DUP1 SWAP2 SUB SWAP1 REVERT JUMPDEST DUP2 PUSH1 0x97 SWAP1 DUP1 MLOAD SWAP1 PUSH1 0x20 ADD SWAP1 PUSH2 0x4441 SWAP3 SWAP2 SWAP1 PUSH2 0x5888 JUMP JUMPDEST POP DUP1 PUSH1 0x98 SWAP1 DUP1 MLOAD SWAP1 PUSH1 0x20 ADD SWAP1 PUSH2 0x4458 SWAP3 SWAP2 SWAP1 PUSH2 0x5888 JUMP JUMPDEST POP POP POP JUMP JUMPDEST PUSH1 0x0 PUSH2 0x4468 DUP3 PUSH2 0x1EF9 JUMP JUMPDEST SWAP1 POP SWAP2 SWAP1 POP JUMP JUMPDEST DUP2 PUSH20 0xFFFFFFFFFFFFFFFFFFFFFFFFFFFFFFFFFFFFFFFF AND DUP4 PUSH20 0xFFFFFFFFFFFFFFFFFFFFFFFFFFFFFFFFFFFFFFFF AND EQ ISZERO DUP1 ISZERO PUSH2 0x44AB JUMPI POP PUSH1 0x0 DUP2 GT JUMPDEST ISZERO PUSH2 0x4677 JUMPI PUSH1 0x0 PUSH20 0xFFFFFFFFFFFFFFFFFFFFFFFFFFFFFFFFFFFFFFFF AND DUP4 PUSH20 0xFFFFFFFFFFFFFFFFFFFFFFFFFFFFFFFFFFFFFFFF AND EQ PUSH2 0x4593 JUMPI PUSH1 0x0 DUP1 PUSH2 0x453C PUSH2 0x52CE DUP5 PUSH1 0xFE PUSH1 0x0 DUP10 PUSH20 0xFFFFFFFFFFFFFFFFFFFFFFFFFFFFFFFFFFFFFFFF AND PUSH20 0xFFFFFFFFFFFFFFFFFFFFFFFFFFFFFFFFFFFFFFFF AND DUP2 MSTORE PUSH1 0x20 ADD SWAP1 DUP2 MSTORE PUSH1 0x20 ADD PUSH1 0x0 KECCAK256 PUSH2 0x52E4 SWAP1 SWAP3 SWAP2 SWAP1 PUSH4 0xFFFFFFFF AND JUMP JUMPDEST SWAP2 POP SWAP2 POP DUP5 PUSH20 0xFFFFFFFFFFFFFFFFFFFFFFFFFFFFFFFFFFFFFFFF AND PUSH32 0xDEC2BACDD2F05B59DE34DA9B523DFF8BE42E5E38E818C82FDB0BAE774387A724 DUP4 DUP4 PUSH1 0x40 MLOAD PUSH2 0x4588 SWAP3 SWAP2 SWAP1 PUSH2 0x8605 JUMP JUMPDEST PUSH1 0x40 MLOAD DUP1 SWAP2 SUB SWAP1 LOG2 POP POP JUMPDEST PUSH1 0x0 PUSH20 0xFFFFFFFFFFFFFFFFFFFFFFFFFFFFFFFFFFFFFFFF AND DUP3 PUSH20 0xFFFFFFFFFFFFFFFFFFFFFFFFFFFFFFFFFFFFFFFF AND EQ PUSH2 0x4676 JUMPI PUSH1 0x0 DUP1 PUSH2 0x461F PUSH2 0x5312 DUP5 PUSH1 0xFE PUSH1 0x0 DUP9 PUSH20 0xFFFFFFFFFFFFFFFFFFFFFFFFFFFFFFFFFFFFFFFF AND PUSH20 0xFFFFFFFFFFFFFFFFFFFFFFFFFFFFFFFFFFFFFFFF AND DUP2 MSTORE PUSH1 0x20 ADD SWAP1 DUP2 MSTORE PUSH1 0x20 ADD PUSH1 0x0 KECCAK256 PUSH2 0x52E4 SWAP1 SWAP3 SWAP2 SWAP1 PUSH4 0xFFFFFFFF AND JUMP JUMPDEST SWAP2 POP SWAP2 POP DUP4 PUSH20 0xFFFFFFFFFFFFFFFFFFFFFFFFFFFFFFFFFFFFFFFF AND PUSH32 0xDEC2BACDD2F05B59DE34DA9B523DFF8BE42E5E38E818C82FDB0BAE774387A724 DUP4 DUP4 PUSH1 0x40 MLOAD PUSH2 0x466B SWAP3 SWAP2 SWAP1 PUSH2 0x8605 JUMP JUMPDEST PUSH1 0x40 MLOAD DUP1 SWAP2 SUB SWAP1 LOG2 POP POP JUMPDEST JUMPDEST POP POP POP JUMP JUMPDEST PUSH2 0x4696 DUP3 DUP3 PUSH1 0x40 MLOAD DUP1 PUSH1 0x20 ADD PUSH1 0x40 MSTORE DUP1 PUSH1 0x0 DUP2 MSTORE POP PUSH2 0x5328 JUMP JUMPDEST POP POP JUMP JUMPDEST PUSH1 0x1 DUP2 PUSH1 0x0 ADD PUSH1 0x0 DUP3 DUP3 SLOAD ADD SWAP3 POP POP DUP2 SWAP1 SSTORE POP POP JUMP JUMPDEST PUSH1 0x0 PUSH2 0x46D1 DUP5 PUSH20 0xFFFFFFFFFFFFFFFFFFFFFFFFFFFFFFFFFFFFFFFF AND PUSH2 0x2E43 JUMP JUMPDEST ISZERO PUSH2 0x482A JUMPI DUP4 PUSH20 0xFFFFFFFFFFFFFFFFFFFFFFFFFFFFFFFFFFFFFFFF AND PUSH4 0x150B7A02 PUSH2 0x46FA PUSH2 0x2F93 JUMP JUMPDEST DUP8 DUP7 DUP7 PUSH1 0x40 MLOAD DUP6 PUSH4 0xFFFFFFFF AND PUSH1 0xE0 SHL DUP2 MSTORE PUSH1 0x4 ADD PUSH2 0x471C SWAP5 SWAP4 SWAP3 SWAP2 SWAP1 PUSH2 0x8683 JUMP JUMPDEST PUSH1 0x20 PUSH1 0x40 MLOAD DUP1 DUP4 SUB DUP2 PUSH1 0x0 DUP8 GAS CALL SWAP3 POP POP POP DUP1 ISZERO PUSH2 0x4758 JUMPI POP PUSH1 0x40 MLOAD RETURNDATASIZE PUSH1 0x1F NOT PUSH1 0x1F DUP3 ADD AND DUP3 ADD DUP1 PUSH1 0x40 MSTORE POP DUP2 ADD SWAP1 PUSH2 0x4755 SWAP2 SWAP1 PUSH2 0x86E4 JUMP JUMPDEST PUSH1 0x1 JUMPDEST PUSH2 0x47DA JUMPI RETURNDATASIZE DUP1 PUSH1 0x0 DUP2 EQ PUSH2 0x4788 JUMPI PUSH1 0x40 MLOAD SWAP2 POP PUSH1 0x1F NOT PUSH1 0x3F RETURNDATASIZE ADD AND DUP3 ADD PUSH1 0x40 MSTORE RETURNDATASIZE DUP3 MSTORE RETURNDATASIZE PUSH1 0x0 PUSH1 0x20 DUP5 ADD RETURNDATACOPY PUSH2 0x478D JUMP JUMPDEST PUSH1 0x60 SWAP2 POP JUMPDEST POP PUSH1 0x0 DUP2 MLOAD SUB PUSH2 0x47D2 JUMPI PUSH1 0x40 MLOAD PUSH32 0x8C379A000000000000000000000000000000000000000000000000000000000 DUP2 MSTORE PUSH1 0x4 ADD PUSH2 0x47C9 SWAP1 PUSH2 0x7B9F JUMP JUMPDEST PUSH1 0x40 MLOAD DUP1 SWAP2 SUB SWAP1 REVERT JUMPDEST DUP1 MLOAD DUP2 PUSH1 0x20 ADD REVERT JUMPDEST PUSH4 0x150B7A02 PUSH1 0xE0 SHL PUSH28 0xFFFFFFFFFFFFFFFFFFFFFFFFFFFFFFFFFFFFFFFFFFFFFFFFFFFFFFFF NOT AND DUP2 PUSH28 0xFFFFFFFFFFFFFFFFFFFFFFFFFFFFFFFFFFFFFFFFFFFFFFFFFFFFFFFF NOT AND EQ SWAP2 POP POP PUSH2 0x482F JUMP JUMPDEST PUSH1 0x1 SWAP1 POP JUMPDEST SWAP5 SWAP4 POP POP POP POP JUMP JUMPDEST PUSH1 0x0 DUP3 DUP3 PUSH1 0x40 MLOAD PUSH1 0x20 ADD PUSH2 0x484C SWAP3 SWAP2 SWAP1 PUSH2 0x877E JUMP JUMPDEST PUSH1 0x40 MLOAD PUSH1 0x20 DUP2 DUP4 SUB SUB DUP2 MSTORE SWAP1 PUSH1 0x40 MSTORE DUP1 MLOAD SWAP1 PUSH1 0x20 ADD KECCAK256 SWAP1 POP SWAP3 SWAP2 POP POP JUMP JUMPDEST PUSH1 0x0 DUP1 PUSH32 0x7FFFFFFFFFFFFFFFFFFFFFFFFFFFFFFF5D576E7357A4501DDFE92F46681B20A0 DUP4 PUSH1 0x0 SHR GT ISZERO PUSH2 0x48A5 JUMPI PUSH1 0x0 PUSH1 0x3 SWAP2 POP SWAP2 POP PUSH2 0x496D JUMP JUMPDEST PUSH1 0x1B DUP6 PUSH1 0xFF AND EQ ISZERO DUP1 ISZERO PUSH2 0x48BD JUMPI POP PUSH1 0x1C DUP6 PUSH1 0xFF AND EQ ISZERO JUMPDEST ISZERO PUSH2 0x48CF JUMPI PUSH1 0x0 PUSH1 0x4 SWAP2 POP SWAP2 POP PUSH2 0x496D JUMP JUMPDEST PUSH1 0x0 PUSH1 0x1 DUP8 DUP8 DUP8 DUP8 PUSH1 0x40 MLOAD PUSH1 0x0 DUP2 MSTORE PUSH1 0x20 ADD PUSH1 0x40 MSTORE PUSH1 0x40 MLOAD PUSH2 0x48F4 SWAP5 SWAP4 SWAP3 SWAP2 SWAP1 PUSH2 0x87C4 JUMP JUMPDEST PUSH1 0x20 PUSH1 0x40 MLOAD PUSH1 0x20 DUP2 SUB SWAP1 DUP1 DUP5 SUB SWAP1 DUP6 GAS STATICCALL ISZERO DUP1 ISZERO PUSH2 0x4916 JUMPI RETURNDATASIZE PUSH1 0x0 DUP1 RETURNDATACOPY RETURNDATASIZE PUSH1 0x0 REVERT JUMPDEST POP POP POP PUSH1 0x20 PUSH1 0x40 MLOAD SUB MLOAD SWAP1 POP PUSH1 0x0 PUSH20 0xFFFFFFFFFFFFFFFFFFFFFFFFFFFFFFFFFFFFFFFF AND DUP2 PUSH20 0xFFFFFFFFFFFFFFFFFFFFFFFFFFFFFFFFFFFFFFFF AND SUB PUSH2 0x4964 JUMPI PUSH1 0x0 PUSH1 0x1 SWAP3 POP SWAP3 POP POP PUSH2 0x496D JUMP JUMPDEST DUP1 PUSH1 0x0 SWAP3 POP SWAP3 POP POP JUMPDEST SWAP5 POP SWAP5 SWAP3 POP POP POP JUMP JUMPDEST PUSH1 0x0 PUSH1 0x4 DUP2 GT ISZERO PUSH2 0x498A JUMPI PUSH2 0x4989 PUSH2 0x8809 JUMP JUMPDEST JUMPDEST DUP2 PUSH1 0x4 DUP2 GT ISZERO PUSH2 0x499D JUMPI PUSH2 0x499C PUSH2 0x8809 JUMP JUMPDEST JUMPDEST SUB ISZERO PUSH2 0x4B3F JUMPI PUSH1 0x1 PUSH1 0x4 DUP2 GT ISZERO PUSH2 0x49B7 JUMPI PUSH2 0x49B6 PUSH2 0x8809 JUMP JUMPDEST JUMPDEST DUP2 PUSH1 0x4 DUP2 GT ISZERO PUSH2 0x49CA JUMPI PUSH2 0x49C9 PUSH2 0x8809 JUMP JUMPDEST JUMPDEST SUB PUSH2 0x4A0A JUMPI PUSH1 0x40 MLOAD PUSH32 0x8C379A000000000000000000000000000000000000000000000000000000000 DUP2 MSTORE PUSH1 0x4 ADD PUSH2 0x4A01 SWAP1 PUSH2 0x8884 JUMP JUMPDEST PUSH1 0x40 MLOAD DUP1 SWAP2 SUB SWAP1 REVERT JUMPDEST PUSH1 0x2 PUSH1 0x4 DUP2 GT ISZERO PUSH2 0x4A1E JUMPI PUSH2 0x4A1D PUSH2 0x8809 JUMP JUMPDEST JUMPDEST DUP2 PUSH1 0x4 DUP2 GT ISZERO PUSH2 0x4A31 JUMPI PUSH2 0x4A30 PUSH2 0x8809 JUMP JUMPDEST JUMPDEST SUB PUSH2 0x4A71 JUMPI PUSH1 0x40 MLOAD PUSH32 0x8C379A000000000000000000000000000000000000000000000000000000000 DUP2 MSTORE PUSH1 0x4 ADD PUSH2 0x4A68 SWAP1 PUSH2 0x88F0 JUMP JUMPDEST PUSH1 0x40 MLOAD DUP1 SWAP2 SUB SWAP1 REVERT JUMPDEST PUSH1 0x3 PUSH1 0x4 DUP2 GT ISZERO PUSH2 0x4A85 JUMPI PUSH2 0x4A84 PUSH2 0x8809 JUMP JUMPDEST JUMPDEST DUP2 PUSH1 0x4 DUP2 GT ISZERO PUSH2 0x4A98 JUMPI PUSH2 0x4A97 PUSH2 0x8809 JUMP JUMPDEST JUMPDEST SUB PUSH2 0x4AD8 JUMPI PUSH1 0x40 MLOAD PUSH32 0x8C379A000000000000000000000000000000000000000000000000000000000 DUP2 MSTORE PUSH1 0x4 ADD PUSH2 0x4ACF SWAP1 PUSH2 0x8982 JUMP JUMPDEST PUSH1 0x40 MLOAD DUP1 SWAP2 SUB SWAP1 REVERT JUMPDEST PUSH1 0x4 DUP1 DUP2 GT ISZERO PUSH2 0x4AEB JUMPI PUSH2 0x4AEA PUSH2 0x8809 JUMP JUMPDEST JUMPDEST DUP2 PUSH1 0x4 DUP2 GT ISZERO PUSH2 0x4AFE JUMPI PUSH2 0x4AFD PUSH2 0x8809 JUMP JUMPDEST JUMPDEST SUB PUSH2 0x4B3E JUMPI PUSH1 0x40 MLOAD PUSH32 0x8C379A000000000000000000000000000000000000000000000000000000000 DUP2 MSTORE PUSH1 0x4 ADD PUSH2 0x4B35 SWAP1 PUSH2 0x8A14 JUMP JUMPDEST PUSH1 0x40 MLOAD DUP1 SWAP2 SUB SWAP1 REVERT JUMPDEST JUMPDEST POP JUMP JUMPDEST PUSH1 0x1 DUP2 PUSH1 0x0 ADD PUSH1 0x0 DUP3 DUP3 SLOAD ADD SWAP3 POP POP DUP2 SWAP1 SSTORE POP POP JUMP JUMPDEST PUSH1 0x60 PUSH1 0x0 DUP3 MLOAD SUB PUSH2 0x4B7A JUMPI PUSH1 0x40 MLOAD DUP1 PUSH1 0x20 ADD PUSH1 0x40 MSTORE DUP1 PUSH1 0x0 DUP2 MSTORE POP SWAP1 POP PUSH2 0x4CB6 JUMP JUMPDEST PUSH1 0x0 PUSH1 0x40 MLOAD DUP1 PUSH1 0x60 ADD PUSH1 0x40 MSTORE DUP1 PUSH1 0x40 DUP2 MSTORE PUSH1 0x20 ADD PUSH2 0x8DD1 PUSH1 0x40 SWAP2 CODECOPY SWAP1 POP PUSH1 0x0 PUSH1 0x3 PUSH1 0x2 DUP6 MLOAD PUSH2 0x4BA9 SWAP2 SWAP1 PUSH2 0x779B JUMP JUMPDEST PUSH2 0x4BB3 SWAP2 SWAP1 PUSH2 0x6CF2 JUMP JUMPDEST PUSH1 0x4 PUSH2 0x4BBF SWAP2 SWAP1 PUSH2 0x6D23 JUMP JUMPDEST PUSH8 0xFFFFFFFFFFFFFFFF DUP2 GT ISZERO PUSH2 0x4BD8 JUMPI PUSH2 0x4BD7 PUSH2 0x5E50 JUMP JUMPDEST JUMPDEST PUSH1 0x40 MLOAD SWAP1 DUP1 DUP3 MSTORE DUP1 PUSH1 0x1F ADD PUSH1 0x1F NOT AND PUSH1 0x20 ADD DUP3 ADD PUSH1 0x40 MSTORE DUP1 ISZERO PUSH2 0x4C0A JUMPI DUP2 PUSH1 0x20 ADD PUSH1 0x1 DUP3 MUL DUP1 CALLDATASIZE DUP4 CALLDATACOPY DUP1 DUP3 ADD SWAP2 POP POP SWAP1 POP JUMPDEST POP SWAP1 POP PUSH1 0x1 DUP3 ADD PUSH1 0x20 DUP3 ADD DUP6 DUP7 MLOAD DUP8 ADD JUMPDEST DUP1 DUP3 LT ISZERO PUSH2 0x4C76 JUMPI PUSH1 0x3 DUP3 ADD SWAP2 POP DUP2 MLOAD PUSH1 0x3F DUP2 PUSH1 0x12 SHR AND DUP6 ADD MLOAD DUP5 MSTORE8 PUSH1 0x1 DUP5 ADD SWAP4 POP PUSH1 0x3F DUP2 PUSH1 0xC SHR AND DUP6 ADD MLOAD DUP5 MSTORE8 PUSH1 0x1 DUP5 ADD SWAP4 POP PUSH1 0x3F DUP2 PUSH1 0x6 SHR AND DUP6 ADD MLOAD DUP5 MSTORE8 PUSH1 0x1 DUP5 ADD SWAP4 POP PUSH1 0x3F DUP2 AND DUP6 ADD MLOAD DUP5 MSTORE8 PUSH1 0x1 DUP5 ADD SWAP4 POP POP PUSH2 0x4C1B JUMP JUMPDEST POP POP PUSH1 0x3 DUP7 MLOAD MOD PUSH1 0x1 DUP2 EQ PUSH2 0x4C92 JUMPI PUSH1 0x2 DUP2 EQ PUSH2 0x4CA5 JUMPI PUSH2 0x4CAD JUMP JUMPDEST PUSH1 0x3D PUSH1 0x1 DUP4 SUB MSTORE8 PUSH1 0x3D PUSH1 0x2 DUP4 SUB MSTORE8 PUSH2 0x4CAD JUMP JUMPDEST PUSH1 0x3D PUSH1 0x1 DUP4 SUB MSTORE8 JUMPDEST POP POP POP DUP1 SWAP3 POP POP POP JUMPDEST SWAP2 SWAP1 POP JUMP JUMPDEST PUSH1 0x60 PUSH1 0x0 DUP3 SUB PUSH2 0x4D02 JUMPI PUSH1 0x40 MLOAD DUP1 PUSH1 0x40 ADD PUSH1 0x40 MSTORE DUP1 PUSH1 0x1 DUP2 MSTORE PUSH1 0x20 ADD PUSH32 0x3000000000000000000000000000000000000000000000000000000000000000 DUP2 MSTORE POP SWAP1 POP PUSH2 0x4E16 JUMP JUMPDEST PUSH1 0x0 DUP3 SWAP1 POP PUSH1 0x0 JUMPDEST PUSH1 0x0 DUP3 EQ PUSH2 0x4D34 JUMPI DUP1 DUP1 PUSH2 0x4D1D SWAP1 PUSH2 0x7523 JUMP JUMPDEST SWAP2 POP POP PUSH1 0xA DUP3 PUSH2 0x4D2D SWAP2 SWAP1 PUSH2 0x6CF2 JUMP JUMPDEST SWAP2 POP PUSH2 0x4D0A JUMP JUMPDEST PUSH1 0x0 DUP2 PUSH8 0xFFFFFFFFFFFFFFFF DUP2 GT ISZERO PUSH2 0x4D50 JUMPI PUSH2 0x4D4F PUSH2 0x5E50 JUMP JUMPDEST JUMPDEST PUSH1 0x40 MLOAD SWAP1 DUP1 DUP3 MSTORE DUP1 PUSH1 0x1F ADD PUSH1 0x1F NOT AND PUSH1 0x20 ADD DUP3 ADD PUSH1 0x40 MSTORE DUP1 ISZERO PUSH2 0x4D82 JUMPI DUP2 PUSH1 0x20 ADD PUSH1 0x1 DUP3 MUL DUP1 CALLDATASIZE DUP4 CALLDATACOPY DUP1 DUP3 ADD SWAP2 POP POP SWAP1 POP JUMPDEST POP SWAP1 POP JUMPDEST PUSH1 0x0 DUP6 EQ PUSH2 0x4E0F JUMPI PUSH1 0x1 DUP3 PUSH2 0x4D9B SWAP2 SWAP1 PUSH2 0x7767 JUMP JUMPDEST SWAP2 POP PUSH1 0xA DUP6 PUSH2 0x4DAA SWAP2 SWAP1 PUSH2 0x8A34 JUMP JUMPDEST PUSH1 0x30 PUSH2 0x4DB6 SWAP2 SWAP1 PUSH2 0x779B JUMP JUMPDEST PUSH1 0xF8 SHL DUP2 DUP4 DUP2 MLOAD DUP2 LT PUSH2 0x4DCC JUMPI PUSH2 0x4DCB PUSH2 0x7482 JUMP JUMPDEST JUMPDEST PUSH1 0x20 ADD ADD SWAP1 PUSH31 0xFFFFFFFFFFFFFFFFFFFFFFFFFFFFFFFFFFFFFFFFFFFFFFFFFFFFFFFFFFFFFF NOT AND SWAP1 DUP2 PUSH1 0x0 BYTE SWAP1 MSTORE8 POP PUSH1 0xA DUP6 PUSH2 0x4E08 SWAP2 SWAP1 PUSH2 0x6CF2 JUMP JUMPDEST SWAP5 POP PUSH2 0x4D86 JUMP JUMPDEST DUP1 SWAP4 POP POP POP POP JUMPDEST SWAP2 SWAP1 POP JUMP JUMPDEST PUSH1 0x0 PUSH32 0x1FFC9A700000000000000000000000000000000000000000000000000000000 PUSH28 0xFFFFFFFFFFFFFFFFFFFFFFFFFFFFFFFFFFFFFFFFFFFFFFFFFFFFFFFF NOT AND DUP3 PUSH28 0xFFFFFFFFFFFFFFFFFFFFFFFFFFFFFFFFFFFFFFFFFFFFFFFFFFFFFFFF NOT AND EQ SWAP1 POP SWAP2 SWAP1 POP JUMP JUMPDEST PUSH1 0x0 PUSH20 0xFFFFFFFFFFFFFFFFFFFFFFFFFFFFFFFFFFFFFFFF AND DUP4 PUSH20 0xFFFFFFFFFFFFFFFFFFFFFFFFFFFFFFFFFFFFFFFF AND SUB PUSH2 0x4ED4 JUMPI PUSH2 0x4ED1 PUSH2 0x5312 DUP3 PUSH1 0xFF PUSH2 0x52E4 SWAP1 SWAP3 SWAP2 SWAP1 PUSH4 0xFFFFFFFF AND JUMP JUMPDEST POP POP JUMPDEST PUSH1 0x0 PUSH20 0xFFFFFFFFFFFFFFFFFFFFFFFFFFFFFFFFFFFFFFFF AND DUP3 PUSH20 0xFFFFFFFFFFFFFFFFFFFFFFFFFFFFFFFFFFFFFFFF AND SUB PUSH2 0x4F23 JUMPI PUSH2 0x4F20 PUSH2 0x52CE DUP3 PUSH1 0xFF PUSH2 0x52E4 SWAP1 SWAP3 SWAP2 SWAP1 PUSH4 0xFFFFFFFF AND JUMP JUMPDEST POP POP JUMPDEST PUSH2 0x4F3E PUSH2 0x4F2F DUP5 PUSH2 0x1A5C JUMP JUMPDEST PUSH2 0x4F38 DUP5 PUSH2 0x1A5C JUMP JUMPDEST DUP4 PUSH2 0x446F JUMP JUMPDEST POP POP POP JUMP JUMPDEST PUSH2 0x4F4F DUP4 DUP4 PUSH1 0x1 PUSH2 0x4E85 JUMP JUMPDEST PUSH2 0x4F5A DUP4 DUP4 DUP4 PUSH2 0x5383 JUMP JUMPDEST POP POP POP JUMP JUMPDEST PUSH1 0x60 PUSH1 0x0 PUSH1 0x2 DUP4 PUSH1 0x2 PUSH2 0x4F72 SWAP2 SWAP1 PUSH2 0x6D23 JUMP JUMPDEST PUSH2 0x4F7C SWAP2 SWAP1 PUSH2 0x779B JUMP JUMPDEST PUSH8 0xFFFFFFFFFFFFFFFF DUP2 GT ISZERO PUSH2 0x4F95 JUMPI PUSH2 0x4F94 PUSH2 0x5E50 JUMP JUMPDEST JUMPDEST PUSH1 0x40 MLOAD SWAP1 DUP1 DUP3 MSTORE DUP1 PUSH1 0x1F ADD PUSH1 0x1F NOT AND PUSH1 0x20 ADD DUP3 ADD PUSH1 0x40 MSTORE DUP1 ISZERO PUSH2 0x4FC7 JUMPI DUP2 PUSH1 0x20 ADD PUSH1 0x1 DUP3 MUL DUP1 CALLDATASIZE DUP4 CALLDATACOPY DUP1 DUP3 ADD SWAP2 POP POP SWAP1 POP JUMPDEST POP SWAP1 POP PUSH32 0x3000000000000000000000000000000000000000000000000000000000000000 DUP2 PUSH1 0x0 DUP2 MLOAD DUP2 LT PUSH2 0x4FFF JUMPI PUSH2 0x4FFE PUSH2 0x7482 JUMP JUMPDEST JUMPDEST PUSH1 0x20 ADD ADD SWAP1 PUSH31 0xFFFFFFFFFFFFFFFFFFFFFFFFFFFFFFFFFFFFFFFFFFFFFFFFFFFFFFFFFFFFFF NOT AND SWAP1 DUP2 PUSH1 0x0 BYTE SWAP1 MSTORE8 POP PUSH32 0x7800000000000000000000000000000000000000000000000000000000000000 DUP2 PUSH1 0x1 DUP2 MLOAD DUP2 LT PUSH2 0x5063 JUMPI PUSH2 0x5062 PUSH2 0x7482 JUMP JUMPDEST JUMPDEST PUSH1 0x20 ADD ADD SWAP1 PUSH31 0xFFFFFFFFFFFFFFFFFFFFFFFFFFFFFFFFFFFFFFFFFFFFFFFFFFFFFFFFFFFFFF NOT AND SWAP1 DUP2 PUSH1 0x0 BYTE SWAP1 MSTORE8 POP PUSH1 0x0 PUSH1 0x1 DUP5 PUSH1 0x2 PUSH2 0x50A3 SWAP2 SWAP1 PUSH2 0x6D23 JUMP JUMPDEST PUSH2 0x50AD SWAP2 SWAP1 PUSH2 0x779B JUMP JUMPDEST SWAP1 POP JUMPDEST PUSH1 0x1 DUP2 GT ISZERO PUSH2 0x514D JUMPI PUSH32 0x3031323334353637383961626364656600000000000000000000000000000000 PUSH1 0xF DUP7 AND PUSH1 0x10 DUP2 LT PUSH2 0x50EF JUMPI PUSH2 0x50EE PUSH2 0x7482 JUMP JUMPDEST JUMPDEST BYTE PUSH1 0xF8 SHL DUP3 DUP3 DUP2 MLOAD DUP2 LT PUSH2 0x5106 JUMPI PUSH2 0x5105 PUSH2 0x7482 JUMP JUMPDEST JUMPDEST PUSH1 0x20 ADD ADD SWAP1 PUSH31 0xFFFFFFFFFFFFFFFFFFFFFFFFFFFFFFFFFFFFFFFFFFFFFFFFFFFFFFFFFFFFFF NOT AND SWAP1 DUP2 PUSH1 0x0 BYTE SWAP1 MSTORE8 POP PUSH1 0x4 DUP6 SWAP1 SHR SWAP5 POP DUP1 PUSH2 0x5146 SWAP1 PUSH2 0x8A65 JUMP JUMPDEST SWAP1 POP PUSH2 0x50B0 JUMP JUMPDEST POP PUSH1 0x0 DUP5 EQ PUSH2 0x5191 JUMPI PUSH1 0x40 MLOAD PUSH32 0x8C379A000000000000000000000000000000000000000000000000000000000 DUP2 MSTORE PUSH1 0x4 ADD PUSH2 0x5188 SWAP1 PUSH2 0x8ADA JUMP JUMPDEST PUSH1 0x40 MLOAD DUP1 SWAP2 SUB SWAP1 REVERT JUMPDEST DUP1 SWAP2 POP POP SWAP3 SWAP2 POP POP JUMP JUMPDEST PUSH2 0x51A4 DUP2 PUSH2 0x42D1 JUMP JUMPDEST DUP1 PUSH20 0xFFFFFFFFFFFFFFFFFFFFFFFFFFFFFFFFFFFFFFFF AND PUSH32 0xBC7CD75A20EE27FD9ADEBAB32041F755214DBC6BFFA90CC0225B39DA2E5C2D3B PUSH1 0x40 MLOAD PUSH1 0x40 MLOAD DUP1 SWAP2 SUB SWAP1 LOG2 POP JUMP JUMPDEST PUSH1 0x60 PUSH2 0x51F5 DUP4 PUSH2 0x2E43 JUMP JUMPDEST PUSH2 0x5234 JUMPI PUSH1 0x40 MLOAD PUSH32 0x8C379A000000000000000000000000000000000000000000000000000000000 DUP2 MSTORE PUSH1 0x4 ADD PUSH2 0x522B SWAP1 PUSH2 0x8B6C JUMP JUMPDEST PUSH1 0x40 MLOAD DUP1 SWAP2 SUB SWAP1 REVERT JUMPDEST PUSH1 0x0 DUP1 DUP5 PUSH20 0xFFFFFFFFFFFFFFFFFFFFFFFFFFFFFFFFFFFFFFFF AND DUP5 PUSH1 0x40 MLOAD PUSH2 0x525C SWAP2 SWAP1 PUSH2 0x8BBD JUMP JUMPDEST PUSH1 0x0 PUSH1 0x40 MLOAD DUP1 DUP4 SUB DUP2 DUP6 GAS DELEGATECALL SWAP2 POP POP RETURNDATASIZE DUP1 PUSH1 0x0 DUP2 EQ PUSH2 0x5297 JUMPI PUSH1 0x40 MLOAD SWAP2 POP PUSH1 0x1F NOT PUSH1 0x3F RETURNDATASIZE ADD AND DUP3 ADD PUSH1 0x40 MSTORE RETURNDATASIZE DUP3 MSTORE RETURNDATASIZE PUSH1 0x0 PUSH1 0x20 DUP5 ADD RETURNDATACOPY PUSH2 0x529C JUMP JUMPDEST PUSH1 0x60 SWAP2 POP JUMPDEST POP SWAP2 POP SWAP2 POP PUSH2 0x52C4 DUP3 DUP3 PUSH1 0x40 MLOAD DUP1 PUSH1 0x60 ADD PUSH1 0x40 MSTORE DUP1 PUSH1 0x27 DUP2 MSTORE PUSH1 0x20 ADD PUSH2 0x8E11 PUSH1 0x27 SWAP2 CODECOPY PUSH2 0x5388 JUMP JUMPDEST SWAP3 POP POP POP SWAP3 SWAP2 POP POP JUMP JUMPDEST PUSH1 0x0 DUP2 DUP4 PUSH2 0x52DC SWAP2 SWAP1 PUSH2 0x7767 JUMP JUMPDEST SWAP1 POP SWAP3 SWAP2 POP POP JUMP JUMPDEST PUSH1 0x0 DUP1 PUSH2 0x5306 DUP6 PUSH2 0x5301 PUSH2 0x52F7 DUP9 PUSH2 0x3D7D JUMP JUMPDEST DUP7 DUP9 PUSH4 0xFFFFFFFF AND JUMP JUMPDEST PUSH2 0x53EF JUMP JUMPDEST SWAP2 POP SWAP2 POP SWAP4 POP SWAP4 SWAP2 POP POP JUMP JUMPDEST PUSH1 0x0 DUP2 DUP4 PUSH2 0x5320 SWAP2 SWAP1 PUSH2 0x779B JUMP JUMPDEST SWAP1 POP SWAP3 SWAP2 POP POP JUMP JUMPDEST PUSH2 0x5332 DUP4 DUP4 PUSH2 0x55F1 JUMP JUMPDEST PUSH2 0x533F PUSH1 0x0 DUP5 DUP5 DUP5 PUSH2 0x46B0 JUMP JUMPDEST PUSH2 0x537E JUMPI PUSH1 0x40 MLOAD PUSH32 0x8C379A000000000000000000000000000000000000000000000000000000000 DUP2 MSTORE PUSH1 0x4 ADD PUSH2 0x5375 SWAP1 PUSH2 0x7B9F JUMP JUMPDEST PUSH1 0x40 MLOAD DUP1 SWAP2 SUB SWAP1 REVERT JUMPDEST POP POP POP JUMP JUMPDEST POP POP POP JUMP JUMPDEST PUSH1 0x60 DUP4 ISZERO PUSH2 0x5398 JUMPI DUP3 SWAP1 POP PUSH2 0x53E8 JUMP JUMPDEST PUSH1 0x0 DUP4 MLOAD GT ISZERO PUSH2 0x53AB JUMPI DUP3 MLOAD DUP1 DUP5 PUSH1 0x20 ADD REVERT JUMPDEST DUP2 PUSH1 0x40 MLOAD PUSH32 0x8C379A000000000000000000000000000000000000000000000000000000000 DUP2 MSTORE PUSH1 0x4 ADD PUSH2 0x53DF SWAP2 SWAP1 PUSH2 0x5B82 JUMP JUMPDEST PUSH1 0x40 MLOAD DUP1 SWAP2 SUB SWAP1 REVERT JUMPDEST SWAP4 SWAP3 POP POP POP JUMP JUMPDEST PUSH1 0x0 DUP1 PUSH1 0x0 DUP5 PUSH1 0x0 ADD DUP1 SLOAD SWAP1 POP SWAP1 POP PUSH1 0x0 PUSH2 0x5409 DUP7 PUSH2 0x3D7D JUMP JUMPDEST SWAP1 POP PUSH1 0x0 DUP3 GT DUP1 ISZERO PUSH2 0x545F JUMPI POP NUMBER DUP7 PUSH1 0x0 ADD PUSH1 0x1 DUP5 PUSH2 0x5428 SWAP2 SWAP1 PUSH2 0x7767 JUMP JUMPDEST DUP2 SLOAD DUP2 LT PUSH2 0x5439 JUMPI PUSH2 0x5438 PUSH2 0x7482 JUMP JUMPDEST JUMPDEST SWAP1 PUSH1 0x0 MSTORE PUSH1 0x20 PUSH1 0x0 KECCAK256 ADD PUSH1 0x0 ADD PUSH1 0x0 SWAP1 SLOAD SWAP1 PUSH2 0x100 EXP SWAP1 DIV PUSH4 0xFFFFFFFF AND PUSH4 0xFFFFFFFF AND EQ JUMPDEST ISZERO PUSH2 0x54EF JUMPI PUSH2 0x546D DUP6 PUSH2 0x57CA JUMP JUMPDEST DUP7 PUSH1 0x0 ADD PUSH1 0x1 DUP5 PUSH2 0x547E SWAP2 SWAP1 PUSH2 0x7767 JUMP JUMPDEST DUP2 SLOAD DUP2 LT PUSH2 0x548F JUMPI PUSH2 0x548E PUSH2 0x7482 JUMP JUMPDEST JUMPDEST SWAP1 PUSH1 0x0 MSTORE PUSH1 0x20 PUSH1 0x0 KECCAK256 ADD PUSH1 0x0 ADD PUSH1 0x4 PUSH2 0x100 EXP DUP2 SLOAD DUP2 PUSH28 0xFFFFFFFFFFFFFFFFFFFFFFFFFFFFFFFFFFFFFFFFFFFFFFFFFFFFFFFF MUL NOT AND SWAP1 DUP4 PUSH28 0xFFFFFFFFFFFFFFFFFFFFFFFFFFFFFFFFFFFFFFFFFFFFFFFFFFFFFFFF AND MUL OR SWAP1 SSTORE POP PUSH2 0x55E2 JUMP JUMPDEST DUP6 PUSH1 0x0 ADD PUSH1 0x40 MLOAD DUP1 PUSH1 0x40 ADD PUSH1 0x40 MSTORE DUP1 PUSH2 0x5507 NUMBER PUSH2 0x5835 JUMP JUMPDEST PUSH4 0xFFFFFFFF AND DUP2 MSTORE PUSH1 0x20 ADD PUSH2 0x551B DUP9 PUSH2 0x57CA JUMP JUMPDEST PUSH28 0xFFFFFFFFFFFFFFFFFFFFFFFFFFFFFFFFFFFFFFFFFFFFFFFFFFFFFFFF AND DUP2 MSTORE POP SWAP1 DUP1 PUSH1 0x1 DUP2 SLOAD ADD DUP1 DUP3 SSTORE DUP1 SWAP2 POP POP PUSH1 0x1 SWAP1 SUB SWAP1 PUSH1 0x0 MSTORE PUSH1 0x20 PUSH1 0x0 KECCAK256 ADD PUSH1 0x0 SWAP1 SWAP2 SWAP1 SWAP2 SWAP1 SWAP2 POP PUSH1 0x0 DUP3 ADD MLOAD DUP2 PUSH1 0x0 ADD PUSH1 0x0 PUSH2 0x100 EXP DUP2 SLOAD DUP2 PUSH4 0xFFFFFFFF MUL NOT AND SWAP1 DUP4 PUSH4 0xFFFFFFFF AND MUL OR SWAP1 SSTORE POP PUSH1 0x20 DUP3 ADD MLOAD DUP2 PUSH1 0x0 ADD PUSH1 0x4 PUSH2 0x100 EXP DUP2 SLOAD DUP2 PUSH28 0xFFFFFFFFFFFFFFFFFFFFFFFFFFFFFFFFFFFFFFFFFFFFFFFFFFFFFFFF MUL NOT AND SWAP1 DUP4 PUSH28 0xFFFFFFFFFFFFFFFFFFFFFFFFFFFFFFFFFFFFFFFFFFFFFFFFFFFFFFFF AND MUL OR SWAP1 SSTORE POP POP POP JUMPDEST DUP1 DUP6 SWAP4 POP SWAP4 POP POP POP SWAP3 POP SWAP3 SWAP1 POP JUMP JUMPDEST PUSH1 0x0 PUSH20 0xFFFFFFFFFFFFFFFFFFFFFFFFFFFFFFFFFFFFFFFF AND DUP3 PUSH20 0xFFFFFFFFFFFFFFFFFFFFFFFFFFFFFFFFFFFFFFFF AND SUB PUSH2 0x5660 JUMPI PUSH1 0x40 MLOAD PUSH32 0x8C379A000000000000000000000000000000000000000000000000000000000 DUP2 MSTORE PUSH1 0x4 ADD PUSH2 0x5657 SWAP1 PUSH2 0x8C20 JUMP JUMPDEST PUSH1 0x40 MLOAD DUP1 SWAP2 SUB SWAP1 REVERT JUMPDEST PUSH2 0x5669 DUP2 PUSH2 0x3939 JUMP JUMPDEST ISZERO PUSH2 0x56A9 JUMPI PUSH1 0x40 MLOAD PUSH32 0x8C379A000000000000000000000000000000000000000000000000000000000 DUP2 MSTORE PUSH1 0x4 ADD PUSH2 0x56A0 SWAP1 PUSH2 0x8C8C JUMP JUMPDEST PUSH1 0x40 MLOAD DUP1 SWAP2 SUB SWAP1 REVERT JUMPDEST PUSH2 0x56B5 PUSH1 0x0 DUP4 DUP4 PUSH2 0x41B1 JUMP JUMPDEST PUSH1 0x1 PUSH1 0x9A PUSH1 0x0 DUP5 PUSH20 0xFFFFFFFFFFFFFFFFFFFFFFFFFFFFFFFFFFFFFFFF AND PUSH20 0xFFFFFFFFFFFFFFFFFFFFFFFFFFFFFFFFFFFFFFFF AND DUP2 MSTORE PUSH1 0x20 ADD SWAP1 DUP2 MSTORE PUSH1 0x20 ADD PUSH1 0x0 KECCAK256 PUSH1 0x0 DUP3 DUP3 SLOAD PUSH2 0x5705 SWAP2 SWAP1 PUSH2 0x779B JUMP JUMPDEST SWAP3 POP POP DUP2 SWAP1 SSTORE POP DUP2 PUSH1 0x99 PUSH1 0x0 DUP4 DUP2 MSTORE PUSH1 0x20 ADD SWAP1 DUP2 MSTORE PUSH1 0x20 ADD PUSH1 0x0 KECCAK256 PUSH1 0x0 PUSH2 0x100 EXP DUP2 SLOAD DUP2 PUSH20 0xFFFFFFFFFFFFFFFFFFFFFFFFFFFFFFFFFFFFFFFF MUL NOT AND SWAP1 DUP4 PUSH20 0xFFFFFFFFFFFFFFFFFFFFFFFFFFFFFFFFFFFFFFFF AND MUL OR SWAP1 SSTORE POP DUP1 DUP3 PUSH20 0xFFFFFFFFFFFFFFFFFFFFFFFFFFFFFFFFFFFFFFFF AND PUSH1 0x0 PUSH20 0xFFFFFFFFFFFFFFFFFFFFFFFFFFFFFFFFFFFFFFFF AND PUSH32 0xDDF252AD1BE2C89B69C2B068FC378DAA952BA7F163C4A11628F55A4DF523B3EF PUSH1 0x40 MLOAD PUSH1 0x40 MLOAD DUP1 SWAP2 SUB SWAP1 LOG4 PUSH2 0x57C6 PUSH1 0x0 DUP4 DUP4 PUSH2 0x41B6 JUMP JUMPDEST POP POP JUMP JUMPDEST PUSH1 0x0 PUSH28 0xFFFFFFFFFFFFFFFFFFFFFFFFFFFFFFFFFFFFFFFFFFFFFFFFFFFFFFFF DUP1 AND DUP3 GT ISZERO PUSH2 0x582D JUMPI PUSH1 0x40 MLOAD PUSH32 0x8C379A000000000000000000000000000000000000000000000000000000000 DUP2 MSTORE PUSH1 0x4 ADD PUSH2 0x5824 SWAP1 PUSH2 0x8D1E JUMP JUMPDEST PUSH1 0x40 MLOAD DUP1 SWAP2 SUB SWAP1 REVERT JUMPDEST DUP2 SWAP1 POP SWAP2 SWAP1 POP JUMP JUMPDEST PUSH1 0x0 PUSH4 0xFFFFFFFF DUP1 AND DUP3 GT ISZERO PUSH2 0x5880 JUMPI PUSH1 0x40 MLOAD PUSH32 0x8C379A000000000000000000000000000000000000000000000000000000000 DUP2 MSTORE PUSH1 0x4 ADD PUSH2 0x5877 SWAP1 PUSH2 0x8DB0 JUMP JUMPDEST PUSH1 0x40 MLOAD DUP1 SWAP2 SUB SWAP1 REVERT JUMPDEST DUP2 SWAP1 POP SWAP2 SWAP1 POP JUMP JUMPDEST DUP3 DUP1 SLOAD PUSH2 0x5894 SWAP1 PUSH2 0x688B JUMP JUMPDEST SWAP1 PUSH1 0x0 MSTORE PUSH1 0x20 PUSH1 0x0 KECCAK256 SWAP1 PUSH1 0x1F ADD PUSH1 0x20 SWAP1 DIV DUP2 ADD SWAP3 DUP3 PUSH2 0x58B6 JUMPI PUSH1 0x0 DUP6 SSTORE PUSH2 0x58FD JUMP JUMPDEST DUP3 PUSH1 0x1F LT PUSH2 0x58CF JUMPI DUP1 MLOAD PUSH1 0xFF NOT AND DUP4 DUP1 ADD OR DUP6 SSTORE PUSH2 0x58FD JUMP JUMPDEST DUP3 DUP1 ADD PUSH1 0x1 ADD DUP6 SSTORE DUP3 ISZERO PUSH2 0x58FD JUMPI SWAP2 DUP3 ADD JUMPDEST DUP3 DUP2 GT ISZERO PUSH2 0x58FC JUMPI DUP3 MLOAD DUP3 SSTORE SWAP2 PUSH1 0x20 ADD SWAP2 SWAP1 PUSH1 0x1 ADD SWAP1 PUSH2 0x58E1 JUMP JUMPDEST JUMPDEST POP SWAP1 POP PUSH2 0x590A SWAP2 SWAP1 PUSH2 0x59FD JUMP JUMPDEST POP SWAP1 JUMP JUMPDEST DUP3 DUP1 SLOAD PUSH2 0x591A SWAP1 PUSH2 0x688B JUMP JUMPDEST SWAP1 PUSH1 0x0 MSTORE PUSH1 0x20 PUSH1 0x0 KECCAK256 SWAP1 PUSH1 0x1F ADD PUSH1 0x20 SWAP1 DIV DUP2 ADD SWAP3 DUP3 PUSH2 0x593C JUMPI PUSH1 0x0 DUP6 SSTORE PUSH2 0x5983 JUMP JUMPDEST DUP3 PUSH1 0x1F LT PUSH2 0x5955 JUMPI DUP1 CALLDATALOAD PUSH1 0xFF NOT AND DUP4 DUP1 ADD OR DUP6 SSTORE PUSH2 0x5983 JUMP JUMPDEST DUP3 DUP1 ADD PUSH1 0x1 ADD DUP6 SSTORE DUP3 ISZERO PUSH2 0x5983 JUMPI SWAP2 DUP3 ADD JUMPDEST DUP3 DUP2 GT ISZERO PUSH2 0x5982 JUMPI DUP3 CALLDATALOAD DUP3 SSTORE SWAP2 PUSH1 0x20 ADD SWAP2 SWAP1 PUSH1 0x1 ADD SWAP1 PUSH2 0x5967 JUMP JUMPDEST JUMPDEST POP SWAP1 POP PUSH2 0x5990 SWAP2 SWAP1 PUSH2 0x59FD JUMP JUMPDEST POP SWAP1 JUMP JUMPDEST PUSH1 0x40 MLOAD DUP1 PUSH1 0xE0 ADD PUSH1 0x40 MSTORE DUP1 PUSH1 0x0 DUP2 MSTORE PUSH1 0x20 ADD PUSH1 0x0 PUSH20 0xFFFFFFFFFFFFFFFFFFFFFFFFFFFFFFFFFFFFFFFF AND DUP2 MSTORE PUSH1 0x20 ADD PUSH1 0x0 PUSH20 0xFFFFFFFFFFFFFFFFFFFFFFFFFFFFFFFFFFFFFFFF AND DUP2 MSTORE PUSH1 0x20 ADD PUSH1 0x60 DUP2 MSTORE PUSH1 0x20 ADD PUSH1 0x60 DUP2 MSTORE PUSH1 0x20 ADD PUSH1 0x60 DUP2 MSTORE PUSH1 0x20 ADD PUSH1 0x60 DUP2 MSTORE POP SWAP1 JUMP JUMPDEST JUMPDEST DUP1 DUP3 GT ISZERO PUSH2 0x5A16 JUMPI PUSH1 0x0 DUP2 PUSH1 0x0 SWAP1 SSTORE POP PUSH1 0x1 ADD PUSH2 0x59FE JUMP JUMPDEST POP SWAP1 JUMP JUMPDEST PUSH1 0x0 PUSH1 0x40 MLOAD SWAP1 POP SWAP1 JUMP JUMPDEST PUSH1 0x0 DUP1 REVERT JUMPDEST PUSH1 0x0 DUP1 REVERT JUMPDEST PUSH1 0x0 PUSH32 0xFFFFFFFF00000000000000000000000000000000000000000000000000000000 DUP3 AND SWAP1 POP SWAP2 SWAP1 POP JUMP JUMPDEST PUSH2 0x5A63 DUP2 PUSH2 0x5A2E JUMP JUMPDEST DUP2 EQ PUSH2 0x5A6E JUMPI PUSH1 0x0 DUP1 REVERT JUMPDEST POP JUMP JUMPDEST PUSH1 0x0 DUP2 CALLDATALOAD SWAP1 POP PUSH2 0x5A80 DUP2 PUSH2 0x5A5A JUMP JUMPDEST SWAP3 SWAP2 POP POP JUMP JUMPDEST PUSH1 0x0 PUSH1 0x20 DUP3 DUP5 SUB SLT ISZERO PUSH2 0x5A9C JUMPI PUSH2 0x5A9B PUSH2 0x5A24 JUMP JUMPDEST JUMPDEST PUSH1 0x0 PUSH2 0x5AAA DUP5 DUP3 DUP6 ADD PUSH2 0x5A71 JUMP JUMPDEST SWAP2 POP POP SWAP3 SWAP2 POP POP JUMP JUMPDEST PUSH1 0x0 DUP2 ISZERO ISZERO SWAP1 POP SWAP2 SWAP1 POP JUMP JUMPDEST PUSH2 0x5AC8 DUP2 PUSH2 0x5AB3 JUMP JUMPDEST DUP3 MSTORE POP POP JUMP JUMPDEST PUSH1 0x0 PUSH1 0x20 DUP3 ADD SWAP1 POP PUSH2 0x5AE3 PUSH1 0x0 DUP4 ADD DUP5 PUSH2 0x5ABF JUMP JUMPDEST SWAP3 SWAP2 POP POP JUMP JUMPDEST PUSH1 0x0 DUP2 MLOAD SWAP1 POP SWAP2 SWAP1 POP JUMP JUMPDEST PUSH1 0x0 DUP3 DUP3 MSTORE PUSH1 0x20 DUP3 ADD SWAP1 POP SWAP3 SWAP2 POP POP JUMP JUMPDEST PUSH1 0x0 JUMPDEST DUP4 DUP2 LT ISZERO PUSH2 0x5B23 JUMPI DUP1 DUP3 ADD MLOAD DUP2 DUP5 ADD MSTORE PUSH1 0x20 DUP2 ADD SWAP1 POP PUSH2 0x5B08 JUMP JUMPDEST DUP4 DUP2 GT ISZERO PUSH2 0x5B32 JUMPI PUSH1 0x0 DUP5 DUP5 ADD MSTORE JUMPDEST POP POP POP POP JUMP JUMPDEST PUSH1 0x0 PUSH1 0x1F NOT PUSH1 0x1F DUP4 ADD AND SWAP1 POP SWAP2 SWAP1 POP JUMP JUMPDEST PUSH1 0x0 PUSH2 0x5B54 DUP3 PUSH2 0x5AE9 JUMP JUMPDEST PUSH2 0x5B5E DUP2 DUP6 PUSH2 0x5AF4 JUMP JUMPDEST SWAP4 POP PUSH2 0x5B6E DUP2 DUP6 PUSH1 0x20 DUP7 ADD PUSH2 0x5B05 JUMP JUMPDEST PUSH2 0x5B77 DUP2 PUSH2 0x5B38 JUMP JUMPDEST DUP5 ADD SWAP2 POP POP SWAP3 SWAP2 POP POP JUMP JUMPDEST PUSH1 0x0 PUSH1 0x20 DUP3 ADD SWAP1 POP DUP2 DUP2 SUB PUSH1 0x0 DUP4 ADD MSTORE PUSH2 0x5B9C DUP2 DUP5 PUSH2 0x5B49 JUMP JUMPDEST SWAP1 POP SWAP3 SWAP2 POP POP JUMP JUMPDEST PUSH1 0x0 DUP2 SWAP1 POP SWAP2 SWAP1 POP JUMP JUMPDEST PUSH2 0x5BB7 DUP2 PUSH2 0x5BA4 JUMP JUMPDEST DUP2 EQ PUSH2 0x5BC2 JUMPI PUSH1 0x0 DUP1 REVERT JUMPDEST POP JUMP JUMPDEST PUSH1 0x0 DUP2 CALLDATALOAD SWAP1 POP PUSH2 0x5BD4 DUP2 PUSH2 0x5BAE JUMP JUMPDEST SWAP3 SWAP2 POP POP JUMP JUMPDEST PUSH1 0x0 PUSH1 0x20 DUP3 DUP5 SUB SLT ISZERO PUSH2 0x5BF0 JUMPI PUSH2 0x5BEF PUSH2 0x5A24 JUMP JUMPDEST JUMPDEST PUSH1 0x0 PUSH2 0x5BFE DUP5 DUP3 DUP6 ADD PUSH2 0x5BC5 JUMP JUMPDEST SWAP2 POP POP SWAP3 SWAP2 POP POP JUMP JUMPDEST PUSH1 0x0 PUSH20 0xFFFFFFFFFFFFFFFFFFFFFFFFFFFFFFFFFFFFFFFF DUP3 AND SWAP1 POP SWAP2 SWAP1 POP JUMP JUMPDEST PUSH1 0x0 PUSH2 0x5C32 DUP3 PUSH2 0x5C07 JUMP JUMPDEST SWAP1 POP SWAP2 SWAP1 POP JUMP JUMPDEST PUSH2 0x5C42 DUP2 PUSH2 0x5C27 JUMP JUMPDEST DUP3 MSTORE POP POP JUMP JUMPDEST PUSH1 0x0 PUSH1 0x20 DUP3 ADD SWAP1 POP PUSH2 0x5C5D PUSH1 0x0 DUP4 ADD DUP5 PUSH2 0x5C39 JUMP JUMPDEST SWAP3 SWAP2 POP POP JUMP JUMPDEST PUSH2 0x5C6C DUP2 PUSH2 0x5C27 JUMP JUMPDEST DUP2 EQ PUSH2 0x5C77 JUMPI PUSH1 0x0 DUP1 REVERT JUMPDEST POP JUMP JUMPDEST PUSH1 0x0 DUP2 CALLDATALOAD SWAP1 POP PUSH2 0x5C89 DUP2 PUSH2 0x5C63 JUMP JUMPDEST SWAP3 SWAP2 POP POP JUMP JUMPDEST PUSH1 0x0 DUP1 PUSH1 0x40 DUP4 DUP6 SUB SLT ISZERO PUSH2 0x5CA6 JUMPI PUSH2 0x5CA5 PUSH2 0x5A24 JUMP JUMPDEST JUMPDEST PUSH1 0x0 PUSH2 0x5CB4 DUP6 DUP3 DUP7 ADD PUSH2 0x5C7A JUMP JUMPDEST SWAP3 POP POP PUSH1 0x20 PUSH2 0x5CC5 DUP6 DUP3 DUP7 ADD PUSH2 0x5BC5 JUMP JUMPDEST SWAP2 POP POP SWAP3 POP SWAP3 SWAP1 POP JUMP JUMPDEST PUSH1 0x0 DUP1 PUSH1 0x0 PUSH1 0x60 DUP5 DUP7 SUB SLT ISZERO PUSH2 0x5CE8 JUMPI PUSH2 0x5CE7 PUSH2 0x5A24 JUMP JUMPDEST JUMPDEST PUSH1 0x0 PUSH2 0x5CF6 DUP7 DUP3 DUP8 ADD PUSH2 0x5C7A JUMP JUMPDEST SWAP4 POP POP PUSH1 0x20 PUSH2 0x5D07 DUP7 DUP3 DUP8 ADD PUSH2 0x5C7A JUMP JUMPDEST SWAP3 POP POP PUSH1 0x40 PUSH2 0x5D18 DUP7 DUP3 DUP8 ADD PUSH2 0x5BC5 JUMP JUMPDEST SWAP2 POP POP SWAP3 POP SWAP3 POP SWAP3 JUMP JUMPDEST PUSH1 0x0 DUP2 SWAP1 POP SWAP2 SWAP1 POP JUMP JUMPDEST PUSH2 0x5D35 DUP2 PUSH2 0x5D22 JUMP JUMPDEST DUP2 EQ PUSH2 0x5D40 JUMPI PUSH1 0x0 DUP1 REVERT JUMPDEST POP JUMP JUMPDEST PUSH1 0x0 DUP2 CALLDATALOAD SWAP1 POP PUSH2 0x5D52 DUP2 PUSH2 0x5D2C JUMP JUMPDEST SWAP3 SWAP2 POP POP JUMP JUMPDEST PUSH1 0x0 PUSH1 0x20 DUP3 DUP5 SUB SLT ISZERO PUSH2 0x5D6E JUMPI PUSH2 0x5D6D PUSH2 0x5A24 JUMP JUMPDEST JUMPDEST PUSH1 0x0 PUSH2 0x5D7C DUP5 DUP3 DUP6 ADD PUSH2 0x5D43 JUMP JUMPDEST SWAP2 POP POP SWAP3 SWAP2 POP POP JUMP JUMPDEST PUSH2 0x5D8E DUP2 PUSH2 0x5D22 JUMP JUMPDEST DUP3 MSTORE POP POP JUMP JUMPDEST PUSH1 0x0 PUSH1 0x20 DUP3 ADD SWAP1 POP PUSH2 0x5DA9 PUSH1 0x0 DUP4 ADD DUP5 PUSH2 0x5D85 JUMP JUMPDEST SWAP3 SWAP2 POP POP JUMP JUMPDEST PUSH1 0x0 DUP1 PUSH1 0x40 DUP4 DUP6 SUB SLT ISZERO PUSH2 0x5DC6 JUMPI PUSH2 0x5DC5 PUSH2 0x5A24 JUMP JUMPDEST JUMPDEST PUSH1 0x0 PUSH2 0x5DD4 DUP6 DUP3 DUP7 ADD PUSH2 0x5D43 JUMP JUMPDEST SWAP3 POP POP PUSH1 0x20 PUSH2 0x5DE5 DUP6 DUP3 DUP7 ADD PUSH2 0x5C7A JUMP JUMPDEST SWAP2 POP POP SWAP3 POP SWAP3 SWAP1 POP JUMP JUMPDEST PUSH1 0x0 PUSH1 0x20 DUP3 DUP5 SUB SLT ISZERO PUSH2 0x5E05 JUMPI PUSH2 0x5E04 PUSH2 0x5A24 JUMP JUMPDEST JUMPDEST PUSH1 0x0 PUSH2 0x5E13 DUP5 DUP3 DUP6 ADD PUSH2 0x5C7A JUMP JUMPDEST SWAP2 POP POP SWAP3 SWAP2 POP POP JUMP JUMPDEST PUSH2 0x5E25 DUP2 PUSH2 0x5BA4 JUMP JUMPDEST DUP3 MSTORE POP POP JUMP JUMPDEST PUSH1 0x0 PUSH1 0x20 DUP3 ADD SWAP1 POP PUSH2 0x5E40 PUSH1 0x0 DUP4 ADD DUP5 PUSH2 0x5E1C JUMP JUMPDEST SWAP3 SWAP2 POP POP JUMP JUMPDEST PUSH1 0x0 DUP1 REVERT JUMPDEST PUSH1 0x0 DUP1 REVERT JUMPDEST PUSH32 0x4E487B7100000000000000000000000000000000000000000000000000000000 PUSH1 0x0 MSTORE PUSH1 0x41 PUSH1 0x4 MSTORE PUSH1 0x24 PUSH1 0x0 REVERT JUMPDEST PUSH2 0x5E88 DUP3 PUSH2 0x5B38 JUMP JUMPDEST DUP2 ADD DUP2 DUP2 LT PUSH8 0xFFFFFFFFFFFFFFFF DUP3 GT OR ISZERO PUSH2 0x5EA7 JUMPI PUSH2 0x5EA6 PUSH2 0x5E50 JUMP JUMPDEST JUMPDEST DUP1 PUSH1 0x40 MSTORE POP POP POP JUMP JUMPDEST PUSH1 0x0 PUSH2 0x5EBA PUSH2 0x5A1A JUMP JUMPDEST SWAP1 POP PUSH2 0x5EC6 DUP3 DUP3 PUSH2 0x5E7F JUMP JUMPDEST SWAP2 SWAP1 POP JUMP JUMPDEST PUSH1 0x0 PUSH8 0xFFFFFFFFFFFFFFFF DUP3 GT ISZERO PUSH2 0x5EE6 JUMPI PUSH2 0x5EE5 PUSH2 0x5E50 JUMP JUMPDEST JUMPDEST PUSH2 0x5EEF DUP3 PUSH2 0x5B38 JUMP JUMPDEST SWAP1 POP PUSH1 0x20 DUP2 ADD SWAP1 POP SWAP2 SWAP1 POP JUMP JUMPDEST DUP3 DUP2 DUP4 CALLDATACOPY PUSH1 0x0 DUP4 DUP4 ADD MSTORE POP POP POP JUMP JUMPDEST PUSH1 0x0 PUSH2 0x5F1E PUSH2 0x5F19 DUP5 PUSH2 0x5ECB JUMP JUMPDEST PUSH2 0x5EB0 JUMP JUMPDEST SWAP1 POP DUP3 DUP2 MSTORE PUSH1 0x20 DUP2 ADD DUP5 DUP5 DUP5 ADD GT ISZERO PUSH2 0x5F3A JUMPI PUSH2 0x5F39 PUSH2 0x5E4B JUMP JUMPDEST JUMPDEST PUSH2 0x5F45 DUP5 DUP3 DUP6 PUSH2 0x5EFC JUMP JUMPDEST POP SWAP4 SWAP3 POP POP POP JUMP JUMPDEST PUSH1 0x0 DUP3 PUSH1 0x1F DUP4 ADD SLT PUSH2 0x5F62 JUMPI PUSH2 0x5F61 PUSH2 0x5E46 JUMP JUMPDEST JUMPDEST DUP2 CALLDATALOAD PUSH2 0x5F72 DUP5 DUP3 PUSH1 0x20 DUP7 ADD PUSH2 0x5F0B JUMP JUMPDEST SWAP2 POP POP SWAP3 SWAP2 POP POP JUMP JUMPDEST PUSH1 0x0 DUP1 PUSH1 0x40 DUP4 DUP6 SUB SLT ISZERO PUSH2 0x5F92 JUMPI PUSH2 0x5F91 PUSH2 0x5A24 JUMP JUMPDEST JUMPDEST PUSH1 0x0 PUSH2 0x5FA0 DUP6 DUP3 DUP7 ADD PUSH2 0x5C7A JUMP JUMPDEST SWAP3 POP POP PUSH1 0x20 DUP4 ADD CALLDATALOAD PUSH8 0xFFFFFFFFFFFFFFFF DUP2 GT ISZERO PUSH2 0x5FC1 JUMPI PUSH2 0x5FC0 PUSH2 0x5A29 JUMP JUMPDEST JUMPDEST PUSH2 0x5FCD DUP6 DUP3 DUP7 ADD PUSH2 0x5F4D JUMP JUMPDEST SWAP2 POP POP SWAP3 POP SWAP3 SWAP1 POP JUMP JUMPDEST PUSH1 0x0 PUSH8 0xFFFFFFFFFFFFFFFF DUP3 GT ISZERO PUSH2 0x5FF2 JUMPI PUSH2 0x5FF1 PUSH2 0x5E50 JUMP JUMPDEST JUMPDEST PUSH2 0x5FFB DUP3 PUSH2 0x5B38 JUMP JUMPDEST SWAP1 POP PUSH1 0x20 DUP2 ADD SWAP1 POP SWAP2 SWAP1 POP JUMP JUMPDEST PUSH1 0x0 PUSH2 0x601B PUSH2 0x6016 DUP5 PUSH2 0x5FD7 JUMP JUMPDEST PUSH2 0x5EB0 JUMP JUMPDEST SWAP1 POP DUP3 DUP2 MSTORE PUSH1 0x20 DUP2 ADD DUP5 DUP5 DUP5 ADD GT ISZERO PUSH2 0x6037 JUMPI PUSH2 0x6036 PUSH2 0x5E4B JUMP JUMPDEST JUMPDEST PUSH2 0x6042 DUP5 DUP3 DUP6 PUSH2 0x5EFC JUMP JUMPDEST POP SWAP4 SWAP3 POP POP POP JUMP JUMPDEST PUSH1 0x0 DUP3 PUSH1 0x1F DUP4 ADD SLT PUSH2 0x605F JUMPI PUSH2 0x605E PUSH2 0x5E46 JUMP JUMPDEST JUMPDEST DUP2 CALLDATALOAD PUSH2 0x606F DUP5 DUP3 PUSH1 0x20 DUP7 ADD PUSH2 0x6008 JUMP JUMPDEST SWAP2 POP POP SWAP3 SWAP2 POP POP JUMP JUMPDEST PUSH2 0x6081 DUP2 PUSH2 0x5AB3 JUMP JUMPDEST DUP2 EQ PUSH2 0x608C JUMPI PUSH1 0x0 DUP1 REVERT JUMPDEST POP JUMP JUMPDEST PUSH1 0x0 DUP2 CALLDATALOAD SWAP1 POP PUSH2 0x609E DUP2 PUSH2 0x6078 JUMP JUMPDEST SWAP3 SWAP2 POP POP JUMP JUMPDEST PUSH1 0x0 DUP1 PUSH1 0x0 DUP1 PUSH1 0x0 DUP1 PUSH1 0x0 DUP1 PUSH2 0x100 DUP10 DUP12 SUB SLT ISZERO PUSH2 0x60C5 JUMPI PUSH2 0x60C4 PUSH2 0x5A24 JUMP JUMPDEST JUMPDEST PUSH1 0x0 DUP10 ADD CALLDATALOAD PUSH8 0xFFFFFFFFFFFFFFFF DUP2 GT ISZERO PUSH2 0x60E3 JUMPI PUSH2 0x60E2 PUSH2 0x5A29 JUMP JUMPDEST JUMPDEST PUSH2 0x60EF DUP12 DUP3 DUP13 ADD PUSH2 0x604A JUMP JUMPDEST SWAP9 POP POP PUSH1 0x20 DUP10 ADD CALLDATALOAD PUSH8 0xFFFFFFFFFFFFFFFF DUP2 GT ISZERO PUSH2 0x6110 JUMPI PUSH2 0x610F PUSH2 0x5A29 JUMP JUMPDEST JUMPDEST PUSH2 0x611C DUP12 DUP3 DUP13 ADD PUSH2 0x604A JUMP JUMPDEST SWAP8 POP POP PUSH1 0x40 DUP10 ADD CALLDATALOAD PUSH8 0xFFFFFFFFFFFFFFFF DUP2 GT ISZERO PUSH2 0x613D JUMPI PUSH2 0x613C PUSH2 0x5A29 JUMP JUMPDEST JUMPDEST PUSH2 0x6149 DUP12 DUP3 DUP13 ADD PUSH2 0x604A JUMP JUMPDEST SWAP7 POP POP PUSH1 0x60 DUP10 ADD CALLDATALOAD PUSH8 0xFFFFFFFFFFFFFFFF DUP2 GT ISZERO PUSH2 0x616A JUMPI PUSH2 0x6169 PUSH2 0x5A29 JUMP JUMPDEST JUMPDEST PUSH2 0x6176 DUP12 DUP3 DUP13 ADD PUSH2 0x604A JUMP JUMPDEST SWAP6 POP POP PUSH1 0x80 PUSH2 0x6187 DUP12 DUP3 DUP13 ADD PUSH2 0x608F JUMP JUMPDEST SWAP5 POP POP PUSH1 0xA0 PUSH2 0x6198 DUP12 DUP3 DUP13 ADD PUSH2 0x608F JUMP JUMPDEST SWAP4 POP POP PUSH1 0xC0 PUSH2 0x61A9 DUP12 DUP3 DUP13 ADD PUSH2 0x5BC5 JUMP JUMPDEST SWAP3 POP POP PUSH1 0xE0 PUSH2 0x61BA DUP12 DUP3 DUP13 ADD PUSH2 0x5C7A JUMP JUMPDEST SWAP2 POP POP SWAP3 SWAP6 SWAP9 POP SWAP3 SWAP6 SWAP9 SWAP1 SWAP4 SWAP7 POP JUMP JUMPDEST PUSH1 0x0 PUSH1 0x20 DUP3 DUP5 SUB SLT ISZERO PUSH2 0x61E0 JUMPI PUSH2 0x61DF PUSH2 0x5A24 JUMP JUMPDEST JUMPDEST PUSH1 0x0 DUP3 ADD CALLDATALOAD PUSH8 0xFFFFFFFFFFFFFFFF DUP2 GT ISZERO PUSH2 0x61FE JUMPI PUSH2 0x61FD PUSH2 0x5A29 JUMP JUMPDEST JUMPDEST PUSH2 0x620A DUP5 DUP3 DUP6 ADD PUSH2 0x604A JUMP JUMPDEST SWAP2 POP POP SWAP3 SWAP2 POP POP JUMP JUMPDEST PUSH1 0x0 DUP1 REVERT JUMPDEST PUSH1 0x0 DUP1 REVERT JUMPDEST PUSH1 0x0 DUP1 DUP4 PUSH1 0x1F DUP5 ADD SLT PUSH2 0x6233 JUMPI PUSH2 0x6232 PUSH2 0x5E46 JUMP JUMPDEST JUMPDEST DUP3 CALLDATALOAD SWAP1 POP PUSH8 0xFFFFFFFFFFFFFFFF DUP2 GT ISZERO PUSH2 0x6250 JUMPI PUSH2 0x624F PUSH2 0x6213 JUMP JUMPDEST JUMPDEST PUSH1 0x20 DUP4 ADD SWAP2 POP DUP4 PUSH1 0x1 DUP3 MUL DUP4 ADD GT ISZERO PUSH2 0x626C JUMPI PUSH2 0x626B PUSH2 0x6218 JUMP JUMPDEST JUMPDEST SWAP3 POP SWAP3 SWAP1 POP JUMP JUMPDEST PUSH1 0x0 DUP1 PUSH1 0x0 DUP1 PUSH1 0x0 PUSH1 0x60 DUP7 DUP9 SUB SLT ISZERO PUSH2 0x628F JUMPI PUSH2 0x628E PUSH2 0x5A24 JUMP JUMPDEST JUMPDEST PUSH1 0x0 PUSH2 0x629D DUP9 DUP3 DUP10 ADD PUSH2 0x5C7A JUMP JUMPDEST SWAP6 POP POP PUSH1 0x20 DUP7 ADD CALLDATALOAD PUSH8 0xFFFFFFFFFFFFFFFF DUP2 GT ISZERO PUSH2 0x62BE JUMPI PUSH2 0x62BD PUSH2 0x5A29 JUMP JUMPDEST JUMPDEST PUSH2 0x62CA DUP9 DUP3 DUP10 ADD PUSH2 0x621D JUMP JUMPDEST SWAP5 POP SWAP5 POP POP PUSH1 0x40 DUP7 ADD CALLDATALOAD PUSH8 0xFFFFFFFFFFFFFFFF DUP2 GT ISZERO PUSH2 0x62ED JUMPI PUSH2 0x62EC PUSH2 0x5A29 JUMP JUMPDEST JUMPDEST PUSH2 0x62F9 DUP9 DUP3 DUP10 ADD PUSH2 0x621D JUMP JUMPDEST SWAP3 POP SWAP3 POP POP SWAP3 SWAP6 POP SWAP3 SWAP6 SWAP1 SWAP4 POP JUMP JUMPDEST PUSH1 0x0 DUP1 PUSH1 0x40 DUP4 DUP6 SUB SLT ISZERO PUSH2 0x631F JUMPI PUSH2 0x631E PUSH2 0x5A24 JUMP JUMPDEST JUMPDEST PUSH1 0x0 PUSH2 0x632D DUP6 DUP3 DUP7 ADD PUSH2 0x5C7A JUMP JUMPDEST SWAP3 POP POP PUSH1 0x20 PUSH2 0x633E DUP6 DUP3 DUP7 ADD PUSH2 0x608F JUMP JUMPDEST SWAP2 POP POP SWAP3 POP SWAP3 SWAP1 POP JUMP JUMPDEST PUSH1 0x0 DUP1 PUSH1 0x20 DUP4 DUP6 SUB SLT ISZERO PUSH2 0x635F JUMPI PUSH2 0x635E PUSH2 0x5A24 JUMP JUMPDEST JUMPDEST PUSH1 0x0 DUP4 ADD CALLDATALOAD PUSH8 0xFFFFFFFFFFFFFFFF DUP2 GT ISZERO PUSH2 0x637D JUMPI PUSH2 0x637C PUSH2 0x5A29 JUMP JUMPDEST JUMPDEST PUSH2 0x6389 DUP6 DUP3 DUP7 ADD PUSH2 0x621D JUMP JUMPDEST SWAP3 POP SWAP3 POP POP SWAP3 POP SWAP3 SWAP1 POP JUMP JUMPDEST PUSH1 0x0 DUP1 PUSH1 0x0 DUP1 PUSH1 0x80 DUP6 DUP8 SUB SLT ISZERO PUSH2 0x63AF JUMPI PUSH2 0x63AE PUSH2 0x5A24 JUMP JUMPDEST JUMPDEST PUSH1 0x0 PUSH2 0x63BD DUP8 DUP3 DUP9 ADD PUSH2 0x5C7A JUMP JUMPDEST SWAP5 POP POP PUSH1 0x20 PUSH2 0x63CE DUP8 DUP3 DUP9 ADD PUSH2 0x5C7A JUMP JUMPDEST SWAP4 POP POP PUSH1 0x40 PUSH2 0x63DF DUP8 DUP3 DUP9 ADD PUSH2 0x5BC5 JUMP JUMPDEST SWAP3 POP POP PUSH1 0x60 DUP6 ADD CALLDATALOAD PUSH8 0xFFFFFFFFFFFFFFFF DUP2 GT ISZERO PUSH2 0x6400 JUMPI PUSH2 0x63FF PUSH2 0x5A29 JUMP JUMPDEST JUMPDEST PUSH2 0x640C DUP8 DUP3 DUP9 ADD PUSH2 0x5F4D JUMP JUMPDEST SWAP2 POP POP SWAP3 SWAP6 SWAP2 SWAP5 POP SWAP3 POP JUMP JUMPDEST PUSH2 0x6421 DUP2 PUSH2 0x5BA4 JUMP JUMPDEST DUP3 MSTORE POP POP JUMP JUMPDEST PUSH2 0x6430 DUP2 PUSH2 0x5C27 JUMP JUMPDEST DUP3 MSTORE POP POP JUMP JUMPDEST PUSH1 0x0 DUP3 DUP3 MSTORE PUSH1 0x20 DUP3 ADD SWAP1 POP SWAP3 SWAP2 POP POP JUMP JUMPDEST PUSH1 0x0 PUSH2 0x6452 DUP3 PUSH2 0x5AE9 JUMP JUMPDEST PUSH2 0x645C DUP2 DUP6 PUSH2 0x6436 JUMP JUMPDEST SWAP4 POP PUSH2 0x646C DUP2 DUP6 PUSH1 0x20 DUP7 ADD PUSH2 0x5B05 JUMP JUMPDEST PUSH2 0x6475 DUP2 PUSH2 0x5B38 JUMP JUMPDEST DUP5 ADD SWAP2 POP POP SWAP3 SWAP2 POP POP JUMP JUMPDEST PUSH1 0x0 PUSH1 0xE0 DUP4 ADD PUSH1 0x0 DUP4 ADD MLOAD PUSH2 0x6498 PUSH1 0x0 DUP7 ADD DUP3 PUSH2 0x6418 JUMP JUMPDEST POP PUSH1 0x20 DUP4 ADD MLOAD PUSH2 0x64AB PUSH1 0x20 DUP7 ADD DUP3 PUSH2 0x6427 JUMP JUMPDEST POP PUSH1 0x40 DUP4 ADD MLOAD PUSH2 0x64BE PUSH1 0x40 DUP7 ADD DUP3 PUSH2 0x6427 JUMP JUMPDEST POP PUSH1 0x60 DUP4 ADD MLOAD DUP5 DUP3 SUB PUSH1 0x60 DUP7 ADD MSTORE PUSH2 0x64D6 DUP3 DUP3 PUSH2 0x6447 JUMP JUMPDEST SWAP2 POP POP PUSH1 0x80 DUP4 ADD MLOAD DUP5 DUP3 SUB PUSH1 0x80 DUP7 ADD MSTORE PUSH2 0x64F0 DUP3 DUP3 PUSH2 0x6447 JUMP JUMPDEST SWAP2 POP POP PUSH1 0xA0 DUP4 ADD MLOAD DUP5 DUP3 SUB PUSH1 0xA0 DUP7 ADD MSTORE PUSH2 0x650A DUP3 DUP3 PUSH2 0x6447 JUMP JUMPDEST SWAP2 POP POP PUSH1 0xC0 DUP4 ADD MLOAD DUP5 DUP3 SUB PUSH1 0xC0 DUP7 ADD MSTORE PUSH2 0x6524 DUP3 DUP3 PUSH2 0x6447 JUMP JUMPDEST SWAP2 POP POP DUP1 SWAP2 POP POP SWAP3 SWAP2 POP POP JUMP JUMPDEST PUSH1 0x0 PUSH1 0x20 DUP3 ADD SWAP1 POP DUP2 DUP2 SUB PUSH1 0x0 DUP4 ADD MSTORE PUSH2 0x654B DUP2 DUP5 PUSH2 0x6480 JUMP JUMPDEST SWAP1 POP SWAP3 SWAP2 POP POP JUMP JUMPDEST PUSH1 0x0 PUSH1 0xFF DUP3 AND SWAP1 POP SWAP2 SWAP1 POP JUMP JUMPDEST PUSH2 0x6569 DUP2 PUSH2 0x6553 JUMP JUMPDEST DUP2 EQ PUSH2 0x6574 JUMPI PUSH1 0x0 DUP1 REVERT JUMPDEST POP JUMP JUMPDEST PUSH1 0x0 DUP2 CALLDATALOAD SWAP1 POP PUSH2 0x6586 DUP2 PUSH2 0x6560 JUMP JUMPDEST SWAP3 SWAP2 POP POP JUMP JUMPDEST PUSH1 0x0 DUP1 PUSH1 0x0 DUP1 PUSH1 0x0 DUP1 PUSH1 0xC0 DUP8 DUP10 SUB SLT ISZERO PUSH2 0x65A9 JUMPI PUSH2 0x65A8 PUSH2 0x5A24 JUMP JUMPDEST JUMPDEST PUSH1 0x0 PUSH2 0x65B7 DUP10 DUP3 DUP11 ADD PUSH2 0x5C7A JUMP JUMPDEST SWAP7 POP POP PUSH1 0x20 PUSH2 0x65C8 DUP10 DUP3 DUP11 ADD PUSH2 0x5BC5 JUMP JUMPDEST SWAP6 POP POP PUSH1 0x40 PUSH2 0x65D9 DUP10 DUP3 DUP11 ADD PUSH2 0x5BC5 JUMP JUMPDEST SWAP5 POP POP PUSH1 0x60 PUSH2 0x65EA DUP10 DUP3 DUP11 ADD PUSH2 0x6577 JUMP JUMPDEST SWAP4 POP POP PUSH1 0x80 PUSH2 0x65FB DUP10 DUP3 DUP11 ADD PUSH2 0x5D43 JUMP JUMPDEST SWAP3 POP POP PUSH1 0xA0 PUSH2 0x660C DUP10 DUP3 DUP11 ADD PUSH2 0x5D43 JUMP JUMPDEST SWAP2 POP POP SWAP3 SWAP6 POP SWAP3 SWAP6 POP SWAP3 SWAP6 JUMP JUMPDEST PUSH1 0x0 DUP1 DUP4 PUSH1 0x1F DUP5 ADD SLT PUSH2 0x662F JUMPI PUSH2 0x662E PUSH2 0x5E46 JUMP JUMPDEST JUMPDEST DUP3 CALLDATALOAD SWAP1 POP PUSH8 0xFFFFFFFFFFFFFFFF DUP2 GT ISZERO PUSH2 0x664C JUMPI PUSH2 0x664B PUSH2 0x6213 JUMP JUMPDEST JUMPDEST PUSH1 0x20 DUP4 ADD SWAP2 POP DUP4 PUSH1 0x20 DUP3 MUL DUP4 ADD GT ISZERO PUSH2 0x6668 JUMPI PUSH2 0x6667 PUSH2 0x6218 JUMP JUMPDEST JUMPDEST SWAP3 POP SWAP3 SWAP1 POP JUMP JUMPDEST PUSH1 0x0 DUP1 DUP4 PUSH1 0x1F DUP5 ADD SLT PUSH2 0x6685 JUMPI PUSH2 0x6684 PUSH2 0x5E46 JUMP JUMPDEST JUMPDEST DUP3 CALLDATALOAD SWAP1 POP PUSH8 0xFFFFFFFFFFFFFFFF DUP2 GT ISZERO PUSH2 0x66A2 JUMPI PUSH2 0x66A1 PUSH2 0x6213 JUMP JUMPDEST JUMPDEST PUSH1 0x20 DUP4 ADD SWAP2 POP DUP4 PUSH1 0x20 DUP3 MUL DUP4 ADD GT ISZERO PUSH2 0x66BE JUMPI PUSH2 0x66BD PUSH2 0x6218 JUMP JUMPDEST JUMPDEST SWAP3 POP SWAP3 SWAP1 POP JUMP JUMPDEST PUSH1 0x0 DUP1 PUSH1 0x0 DUP1 PUSH1 0x0 DUP1 PUSH1 0x60 DUP8 DUP10 SUB SLT ISZERO PUSH2 0x66E2 JUMPI PUSH2 0x66E1 PUSH2 0x5A24 JUMP JUMPDEST JUMPDEST PUSH1 0x0 DUP8 ADD CALLDATALOAD PUSH8 0xFFFFFFFFFFFFFFFF DUP2 GT ISZERO PUSH2 0x6700 JUMPI PUSH2 0x66FF PUSH2 0x5A29 JUMP JUMPDEST JUMPDEST PUSH2 0x670C DUP10 DUP3 DUP11 ADD PUSH2 0x6619 JUMP JUMPDEST SWAP7 POP SWAP7 POP POP PUSH1 0x20 DUP8 ADD CALLDATALOAD PUSH8 0xFFFFFFFFFFFFFFFF DUP2 GT ISZERO PUSH2 0x672F JUMPI PUSH2 0x672E PUSH2 0x5A29 JUMP JUMPDEST JUMPDEST PUSH2 0x673B DUP10 DUP3 DUP11 ADD PUSH2 0x666F JUMP JUMPDEST SWAP5 POP SWAP5 POP POP PUSH1 0x40 DUP8 ADD CALLDATALOAD PUSH8 0xFFFFFFFFFFFFFFFF DUP2 GT ISZERO PUSH2 0x675E JUMPI PUSH2 0x675D PUSH2 0x5A29 JUMP JUMPDEST JUMPDEST PUSH2 0x676A DUP10 DUP3 DUP11 ADD PUSH2 0x666F JUMP JUMPDEST SWAP3 POP SWAP3 POP POP SWAP3 SWAP6 POP SWAP3 SWAP6 POP SWAP3 SWAP6 JUMP JUMPDEST PUSH1 0x0 DUP1 DUP4 PUSH1 0x1F DUP5 ADD SLT PUSH2 0x678F JUMPI PUSH2 0x678E PUSH2 0x5E46 JUMP JUMPDEST JUMPDEST DUP3 CALLDATALOAD SWAP1 POP PUSH8 0xFFFFFFFFFFFFFFFF DUP2 GT ISZERO PUSH2 0x67AC JUMPI PUSH2 0x67AB PUSH2 0x6213 JUMP JUMPDEST JUMPDEST PUSH1 0x20 DUP4 ADD SWAP2 POP DUP4 PUSH1 0x20 DUP3 MUL DUP4 ADD GT ISZERO PUSH2 0x67C8 JUMPI PUSH2 0x67C7 PUSH2 0x6218 JUMP JUMPDEST JUMPDEST SWAP3 POP SWAP3 SWAP1 POP JUMP JUMPDEST PUSH1 0x0 DUP1 PUSH1 0x20 DUP4 DUP6 SUB SLT ISZERO PUSH2 0x67E6 JUMPI PUSH2 0x67E5 PUSH2 0x5A24 JUMP JUMPDEST JUMPDEST PUSH1 0x0 DUP4 ADD CALLDATALOAD PUSH8 0xFFFFFFFFFFFFFFFF DUP2 GT ISZERO PUSH2 0x6804 JUMPI PUSH2 0x6803 PUSH2 0x5A29 JUMP JUMPDEST JUMPDEST PUSH2 0x6810 DUP6 DUP3 DUP7 ADD PUSH2 0x6779 JUMP JUMPDEST SWAP3 POP SWAP3 POP POP SWAP3 POP SWAP3 SWAP1 POP JUMP JUMPDEST PUSH1 0x0 DUP1 PUSH1 0x40 DUP4 DUP6 SUB SLT ISZERO PUSH2 0x6833 JUMPI PUSH2 0x6832 PUSH2 0x5A24 JUMP JUMPDEST JUMPDEST PUSH1 0x0 PUSH2 0x6841 DUP6 DUP3 DUP7 ADD PUSH2 0x5C7A JUMP JUMPDEST SWAP3 POP POP PUSH1 0x20 PUSH2 0x6852 DUP6 DUP3 DUP7 ADD PUSH2 0x5C7A JUMP JUMPDEST SWAP2 POP POP SWAP3 POP SWAP3 SWAP1 POP JUMP JUMPDEST PUSH32 0x4E487B7100000000000000000000000000000000000000000000000000000000 PUSH1 0x0 MSTORE PUSH1 0x22 PUSH1 0x4 MSTORE PUSH1 0x24 PUSH1 0x0 REVERT JUMPDEST PUSH1 0x0 PUSH1 0x2 DUP3 DIV SWAP1 POP PUSH1 0x1 DUP3 AND DUP1 PUSH2 0x68A3 JUMPI PUSH1 0x7F DUP3 AND SWAP2 POP JUMPDEST PUSH1 0x20 DUP3 LT DUP2 SUB PUSH2 0x68B6 JUMPI PUSH2 0x68B5 PUSH2 0x685C JUMP JUMPDEST JUMPDEST POP SWAP2 SWAP1 POP JUMP JUMPDEST PUSH32 0x536F756C426F756E644E46543A206E6F74207472616E7366657261626C650000 PUSH1 0x0 DUP3 ADD MSTORE POP JUMP JUMPDEST PUSH1 0x0 PUSH2 0x68F2 PUSH1 0x1E DUP4 PUSH2 0x5AF4 JUMP JUMPDEST SWAP2 POP PUSH2 0x68FD DUP3 PUSH2 0x68BC JUMP JUMPDEST PUSH1 0x20 DUP3 ADD SWAP1 POP SWAP2 SWAP1 POP JUMP JUMPDEST PUSH1 0x0 PUSH1 0x20 DUP3 ADD SWAP1 POP DUP2 DUP2 SUB PUSH1 0x0 DUP4 ADD MSTORE PUSH2 0x6921 DUP2 PUSH2 0x68E5 JUMP JUMPDEST SWAP1 POP SWAP2 SWAP1 POP JUMP JUMPDEST PUSH32 0x4552433732313A20617070726F76616C20746F2063757272656E74206F776E65 PUSH1 0x0 DUP3 ADD MSTORE PUSH32 0x7200000000000000000000000000000000000000000000000000000000000000 PUSH1 0x20 DUP3 ADD MSTORE POP JUMP JUMPDEST PUSH1 0x0 PUSH2 0x6984 PUSH1 0x21 DUP4 PUSH2 0x5AF4 JUMP JUMPDEST SWAP2 POP PUSH2 0x698F DUP3 PUSH2 0x6928 JUMP JUMPDEST PUSH1 0x40 DUP3 ADD SWAP1 POP SWAP2 SWAP1 POP JUMP JUMPDEST PUSH1 0x0 PUSH1 0x20 DUP3 ADD SWAP1 POP DUP2 DUP2 SUB PUSH1 0x0 DUP4 ADD MSTORE PUSH2 0x69B3 DUP2 PUSH2 0x6977 JUMP JUMPDEST SWAP1 POP SWAP2 SWAP1 POP JUMP JUMPDEST PUSH32 0x4552433732313A20617070726F76652063616C6C6572206973206E6F74206F77 PUSH1 0x0 DUP3 ADD MSTORE PUSH32 0x6E6572206E6F7220617070726F76656420666F7220616C6C0000000000000000 PUSH1 0x20 DUP3 ADD MSTORE POP JUMP JUMPDEST PUSH1 0x0 PUSH2 0x6A16 PUSH1 0x38 DUP4 PUSH2 0x5AF4 JUMP JUMPDEST SWAP2 POP PUSH2 0x6A21 DUP3 PUSH2 0x69BA JUMP JUMPDEST PUSH1 0x40 DUP3 ADD SWAP1 POP SWAP2 SWAP1 POP JUMP JUMPDEST PUSH1 0x0 PUSH1 0x20 DUP3 ADD SWAP1 POP DUP2 DUP2 SUB PUSH1 0x0 DUP4 ADD MSTORE PUSH2 0x6A45 DUP2 PUSH2 0x6A09 JUMP JUMPDEST SWAP1 POP SWAP2 SWAP1 POP JUMP JUMPDEST PUSH32 0x4552433732313A207472616E736665722063616C6C6572206973206E6F74206F PUSH1 0x0 DUP3 ADD MSTORE PUSH32 0x776E6572206E6F7220617070726F766564000000000000000000000000000000 PUSH1 0x20 DUP3 ADD MSTORE POP JUMP JUMPDEST PUSH1 0x0 PUSH2 0x6AA8 PUSH1 0x31 DUP4 PUSH2 0x5AF4 JUMP JUMPDEST SWAP2 POP PUSH2 0x6AB3 DUP3 PUSH2 0x6A4C JUMP JUMPDEST PUSH1 0x40 DUP3 ADD SWAP1 POP SWAP2 SWAP1 POP JUMP JUMPDEST PUSH1 0x0 PUSH1 0x20 DUP3 ADD SWAP1 POP DUP2 DUP2 SUB PUSH1 0x0 DUP4 ADD MSTORE PUSH2 0x6AD7 DUP2 PUSH2 0x6A9B JUMP JUMPDEST SWAP1 POP SWAP2 SWAP1 POP JUMP JUMPDEST PUSH32 0x416363657373436F6E74726F6C3A2063616E206F6E6C792072656E6F756E6365 PUSH1 0x0 DUP3 ADD MSTORE PUSH32 0x20726F6C657320666F722073656C660000000000000000000000000000000000 PUSH1 0x20 DUP3 ADD MSTORE POP JUMP JUMPDEST PUSH1 0x0 PUSH2 0x6B3A PUSH1 0x2F DUP4 PUSH2 0x5AF4 JUMP JUMPDEST SWAP2 POP PUSH2 0x6B45 DUP3 PUSH2 0x6ADE JUMP JUMPDEST PUSH1 0x40 DUP3 ADD SWAP1 POP SWAP2 SWAP1 POP JUMP JUMPDEST PUSH1 0x0 PUSH1 0x20 DUP3 ADD SWAP1 POP DUP2 DUP2 SUB PUSH1 0x0 DUP4 ADD MSTORE PUSH2 0x6B69 DUP2 PUSH2 0x6B2D JUMP JUMPDEST SWAP1 POP SWAP2 SWAP1 POP JUMP JUMPDEST PUSH32 0x46756E6374696F6E206D7573742062652063616C6C6564207468726F75676820 PUSH1 0x0 DUP3 ADD MSTORE PUSH32 0x64656C656761746563616C6C0000000000000000000000000000000000000000 PUSH1 0x20 DUP3 ADD MSTORE POP JUMP JUMPDEST PUSH1 0x0 PUSH2 0x6BCC PUSH1 0x2C DUP4 PUSH2 0x5AF4 JUMP JUMPDEST SWAP2 POP PUSH2 0x6BD7 DUP3 PUSH2 0x6B70 JUMP JUMPDEST PUSH1 0x40 DUP3 ADD SWAP1 POP SWAP2 SWAP1 POP JUMP JUMPDEST PUSH1 0x0 PUSH1 0x20 DUP3 ADD SWAP1 POP DUP2 DUP2 SUB PUSH1 0x0 DUP4 ADD MSTORE PUSH2 0x6BFB DUP2 PUSH2 0x6BBF JUMP JUMPDEST SWAP1 POP SWAP2 SWAP1 POP JUMP JUMPDEST PUSH32 0x46756E6374696F6E206D7573742062652063616C6C6564207468726F75676820 PUSH1 0x0 DUP3 ADD MSTORE PUSH32 0x6163746976652070726F78790000000000000000000000000000000000000000 PUSH1 0x20 DUP3 ADD MSTORE POP JUMP JUMPDEST PUSH1 0x0 PUSH2 0x6C5E PUSH1 0x2C DUP4 PUSH2 0x5AF4 JUMP JUMPDEST SWAP2 POP PUSH2 0x6C69 DUP3 PUSH2 0x6C02 JUMP JUMPDEST PUSH1 0x40 DUP3 ADD SWAP1 POP SWAP2 SWAP1 POP JUMP JUMPDEST PUSH1 0x0 PUSH1 0x20 DUP3 ADD SWAP1 POP DUP2 DUP2 SUB PUSH1 0x0 DUP4 ADD MSTORE PUSH2 0x6C8D DUP2 PUSH2 0x6C51 JUMP JUMPDEST SWAP1 POP SWAP2 SWAP1 POP JUMP JUMPDEST PUSH32 0x4E487B7100000000000000000000000000000000000000000000000000000000 PUSH1 0x0 MSTORE PUSH1 0x12 PUSH1 0x4 MSTORE PUSH1 0x24 PUSH1 0x0 REVERT JUMPDEST PUSH32 0x4E487B7100000000000000000000000000000000000000000000000000000000 PUSH1 0x0 MSTORE PUSH1 0x11 PUSH1 0x4 MSTORE PUSH1 0x24 PUSH1 0x0 REVERT JUMPDEST PUSH1 0x0 PUSH2 0x6CFD DUP3 PUSH2 0x5BA4 JUMP JUMPDEST SWAP2 POP PUSH2 0x6D08 DUP4 PUSH2 0x5BA4 JUMP JUMPDEST SWAP3 POP DUP3 PUSH2 0x6D18 JUMPI PUSH2 0x6D17 PUSH2 0x6C94 JUMP JUMPDEST JUMPDEST DUP3 DUP3 DIV SWAP1 POP SWAP3 SWAP2 POP POP JUMP JUMPDEST PUSH1 0x0 PUSH2 0x6D2E DUP3 PUSH2 0x5BA4 JUMP JUMPDEST SWAP2 POP PUSH2 0x6D39 DUP4 PUSH2 0x5BA4 JUMP JUMPDEST SWAP3 POP DUP2 PUSH32 0xFFFFFFFFFFFFFFFFFFFFFFFFFFFFFFFFFFFFFFFFFFFFFFFFFFFFFFFFFFFFFFFF DIV DUP4 GT DUP3 ISZERO ISZERO AND ISZERO PUSH2 0x6D72 JUMPI PUSH2 0x6D71 PUSH2 0x6CC3 JUMP JUMPDEST JUMPDEST DUP3 DUP3 MUL SWAP1 POP SWAP3 SWAP2 POP POP JUMP JUMPDEST PUSH1 0x0 DUP2 SWAP1 POP SWAP3 SWAP2 POP POP JUMP JUMPDEST POP JUMP JUMPDEST PUSH1 0x0 PUSH2 0x6D98 PUSH1 0x0 DUP4 PUSH2 0x6D7D JUMP JUMPDEST SWAP2 POP PUSH2 0x6DA3 DUP3 PUSH2 0x6D88 JUMP JUMPDEST PUSH1 0x0 DUP3 ADD SWAP1 POP SWAP2 SWAP1 POP JUMP JUMPDEST PUSH1 0x0 PUSH2 0x6DB9 DUP3 PUSH2 0x6D8B JUMP JUMPDEST SWAP2 POP DUP2 SWAP1 POP SWAP2 SWAP1 POP JUMP JUMPDEST PUSH32 0x746F6B656E20646F65736E2774206578697374206F7220686173206265656E20 PUSH1 0x0 DUP3 ADD MSTORE PUSH32 0x6275726E74000000000000000000000000000000000000000000000000000000 PUSH1 0x20 DUP3 ADD MSTORE POP JUMP JUMPDEST PUSH1 0x0 PUSH2 0x6E1F PUSH1 0x25 DUP4 PUSH2 0x5AF4 JUMP JUMPDEST SWAP2 POP PUSH2 0x6E2A DUP3 PUSH2 0x6DC3 JUMP JUMPDEST PUSH1 0x40 DUP3 ADD SWAP1 POP SWAP2 SWAP1 POP JUMP JUMPDEST PUSH1 0x0 PUSH1 0x20 DUP3 ADD SWAP1 POP DUP2 DUP2 SUB PUSH1 0x0 DUP4 ADD MSTORE PUSH2 0x6E4E DUP2 PUSH2 0x6E12 JUMP JUMPDEST SWAP1 POP SWAP2 SWAP1 POP JUMP JUMPDEST PUSH32 0x73656E646572206E6F74206F776E6572206F7220746F6B656E206F776E657200 PUSH1 0x0 DUP3 ADD MSTORE POP JUMP JUMPDEST PUSH1 0x0 PUSH2 0x6E8B PUSH1 0x1F DUP4 PUSH2 0x5AF4 JUMP JUMPDEST SWAP2 POP PUSH2 0x6E96 DUP3 PUSH2 0x6E55 JUMP JUMPDEST PUSH1 0x20 DUP3 ADD SWAP1 POP SWAP2 SWAP1 POP JUMP JUMPDEST PUSH1 0x0 PUSH1 0x20 DUP3 ADD SWAP1 POP DUP2 DUP2 SUB PUSH1 0x0 DUP4 ADD MSTORE PUSH2 0x6EBA DUP2 PUSH2 0x6E7E JUMP JUMPDEST SWAP1 POP SWAP2 SWAP1 POP JUMP JUMPDEST PUSH32 0x555550535570677261646561626C653A206D757374206E6F742062652063616C PUSH1 0x0 DUP3 ADD MSTORE PUSH32 0x6C6564207468726F7567682064656C656761746563616C6C0000000000000000 PUSH1 0x20 DUP3 ADD MSTORE POP JUMP JUMPDEST PUSH1 0x0 PUSH2 0x6F1D PUSH1 0x38 DUP4 PUSH2 0x5AF4 JUMP JUMPDEST SWAP2 POP PUSH2 0x6F28 DUP3 PUSH2 0x6EC1 JUMP JUMPDEST PUSH1 0x40 DUP3 ADD SWAP1 POP SWAP2 SWAP1 POP JUMP JUMPDEST PUSH1 0x0 PUSH1 0x20 DUP3 ADD SWAP1 POP DUP2 DUP2 SUB PUSH1 0x0 DUP4 ADD MSTORE PUSH2 0x6F4C DUP2 PUSH2 0x6F10 JUMP JUMPDEST SWAP1 POP SWAP2 SWAP1 POP JUMP JUMPDEST PUSH32 0x496E697469616C697A61626C653A20636F6E747261637420697320616C726561 PUSH1 0x0 DUP3 ADD MSTORE PUSH32 0x647920696E697469616C697A6564000000000000000000000000000000000000 PUSH1 0x20 DUP3 ADD MSTORE POP JUMP JUMPDEST PUSH1 0x0 PUSH2 0x6FAF PUSH1 0x2E DUP4 PUSH2 0x5AF4 JUMP JUMPDEST SWAP2 POP PUSH2 0x6FBA DUP3 PUSH2 0x6F53 JUMP JUMPDEST PUSH1 0x40 DUP3 ADD SWAP1 POP SWAP2 SWAP1 POP JUMP JUMPDEST PUSH1 0x0 PUSH1 0x20 DUP3 ADD SWAP1 POP DUP2 DUP2 SUB PUSH1 0x0 DUP4 ADD MSTORE PUSH2 0x6FDE DUP2 PUSH2 0x6FA2 JUMP JUMPDEST SWAP1 POP SWAP2 SWAP1 POP JUMP JUMPDEST PUSH1 0x0 DUP2 SWAP1 POP SWAP2 SWAP1 POP JUMP JUMPDEST PUSH1 0x0 DUP2 SWAP1 POP SWAP2 SWAP1 POP JUMP JUMPDEST PUSH1 0x0 PUSH2 0x7014 PUSH2 0x700F PUSH2 0x700A DUP5 PUSH2 0x6FE5 JUMP JUMPDEST PUSH2 0x6FEF JUMP JUMPDEST PUSH2 0x6553 JUMP JUMPDEST SWAP1 POP SWAP2 SWAP1 POP JUMP JUMPDEST PUSH2 0x7024 DUP2 PUSH2 0x6FF9 JUMP JUMPDEST DUP3 MSTORE POP POP JUMP JUMPDEST PUSH1 0x0 PUSH1 0x20 DUP3 ADD SWAP1 POP PUSH2 0x703F PUSH1 0x0 DUP4 ADD DUP5 PUSH2 0x701B JUMP JUMPDEST SWAP3 SWAP2 POP POP JUMP JUMPDEST PUSH32 0x4552433732313A20696E76616C696420746F6B656E2049440000000000000000 PUSH1 0x0 DUP3 ADD MSTORE POP JUMP JUMPDEST PUSH1 0x0 PUSH2 0x707B PUSH1 0x18 DUP4 PUSH2 0x5AF4 JUMP JUMPDEST SWAP2 POP PUSH2 0x7086 DUP3 PUSH2 0x7045 JUMP JUMPDEST PUSH1 0x20 DUP3 ADD SWAP1 POP SWAP2 SWAP1 POP JUMP JUMPDEST PUSH1 0x0 PUSH1 0x20 DUP3 ADD SWAP1 POP DUP2 DUP2 SUB PUSH1 0x0 DUP4 ADD MSTORE PUSH2 0x70AA DUP2 PUSH2 0x706E JUMP JUMPDEST SWAP1 POP SWAP2 SWAP1 POP JUMP JUMPDEST PUSH32 0x4552433732313A2061646472657373207A65726F206973206E6F742061207661 PUSH1 0x0 DUP3 ADD MSTORE PUSH32 0x6C6964206F776E65720000000000000000000000000000000000000000000000 PUSH1 0x20 DUP3 ADD MSTORE POP JUMP JUMPDEST PUSH1 0x0 PUSH2 0x710D PUSH1 0x29 DUP4 PUSH2 0x5AF4 JUMP JUMPDEST SWAP2 POP PUSH2 0x7118 DUP3 PUSH2 0x70B1 JUMP JUMPDEST PUSH1 0x40 DUP3 ADD SWAP1 POP SWAP2 SWAP1 POP JUMP JUMPDEST PUSH1 0x0 PUSH1 0x20 DUP3 ADD SWAP1 POP DUP2 DUP2 SUB PUSH1 0x0 DUP4 ADD MSTORE PUSH2 0x713C DUP2 PUSH2 0x7100 JUMP JUMPDEST SWAP1 POP SWAP2 SWAP1 POP JUMP JUMPDEST PUSH32 0x566F7465733A20626C6F636B206E6F7420796574206D696E6564000000000000 PUSH1 0x0 DUP3 ADD MSTORE POP JUMP JUMPDEST PUSH1 0x0 PUSH2 0x7179 PUSH1 0x1A DUP4 PUSH2 0x5AF4 JUMP JUMPDEST SWAP2 POP PUSH2 0x7184 DUP3 PUSH2 0x7143 JUMP JUMPDEST PUSH1 0x20 DUP3 ADD SWAP1 POP SWAP2 SWAP1 POP JUMP JUMPDEST PUSH1 0x0 PUSH1 0x20 DUP3 ADD SWAP1 POP DUP2 DUP2 SUB PUSH1 0x0 DUP4 ADD MSTORE PUSH2 0x71A8 DUP2 PUSH2 0x716C JUMP JUMPDEST SWAP1 POP SWAP2 SWAP1 POP JUMP JUMPDEST PUSH32 0x536F756C426F756E644E46543A20696E73756666696369656E742066756E6473 PUSH1 0x0 DUP3 ADD MSTORE PUSH32 0x2100000000000000000000000000000000000000000000000000000000000000 PUSH1 0x20 DUP3 ADD MSTORE POP JUMP JUMPDEST PUSH1 0x0 PUSH2 0x720B PUSH1 0x21 DUP4 PUSH2 0x5AF4 JUMP JUMPDEST SWAP2 POP PUSH2 0x7216 DUP3 PUSH2 0x71AF JUMP JUMPDEST PUSH1 0x40 DUP3 ADD SWAP1 POP SWAP2 SWAP1 POP JUMP JUMPDEST PUSH1 0x0 PUSH1 0x20 DUP3 ADD SWAP1 POP DUP2 DUP2 SUB PUSH1 0x0 DUP4 ADD MSTORE PUSH2 0x723A DUP2 PUSH2 0x71FE JUMP JUMPDEST SWAP1 POP SWAP2 SWAP1 POP JUMP JUMPDEST PUSH32 0x536F756C426F756E644E46543A206E6F7420616C6C6F77656420746F206D696E PUSH1 0x0 DUP3 ADD MSTORE PUSH32 0x7421000000000000000000000000000000000000000000000000000000000000 PUSH1 0x20 DUP3 ADD MSTORE POP JUMP JUMPDEST PUSH1 0x0 PUSH2 0x729D PUSH1 0x22 DUP4 PUSH2 0x5AF4 JUMP JUMPDEST SWAP2 POP PUSH2 0x72A8 DUP3 PUSH2 0x7241 JUMP JUMPDEST PUSH1 0x40 DUP3 ADD SWAP1 POP SWAP2 SWAP1 POP JUMP JUMPDEST PUSH1 0x0 PUSH1 0x20 DUP3 ADD SWAP1 POP DUP2 DUP2 SUB PUSH1 0x0 DUP4 ADD MSTORE PUSH2 0x72CC DUP2 PUSH2 0x7290 JUMP JUMPDEST SWAP1 POP SWAP2 SWAP1 POP JUMP JUMPDEST PUSH32 0x566F7465733A207369676E617475726520657870697265640000000000000000 PUSH1 0x0 DUP3 ADD MSTORE POP JUMP JUMPDEST PUSH1 0x0 PUSH2 0x7309 PUSH1 0x18 DUP4 PUSH2 0x5AF4 JUMP JUMPDEST SWAP2 POP PUSH2 0x7314 DUP3 PUSH2 0x72D3 JUMP JUMPDEST PUSH1 0x20 DUP3 ADD SWAP1 POP SWAP2 SWAP1 POP JUMP JUMPDEST PUSH1 0x0 PUSH1 0x20 DUP3 ADD SWAP1 POP DUP2 DUP2 SUB PUSH1 0x0 DUP4 ADD MSTORE PUSH2 0x7338 DUP2 PUSH2 0x72FC JUMP JUMPDEST SWAP1 POP SWAP2 SWAP1 POP JUMP JUMPDEST PUSH1 0x0 PUSH1 0x80 DUP3 ADD SWAP1 POP PUSH2 0x7354 PUSH1 0x0 DUP4 ADD DUP8 PUSH2 0x5D85 JUMP JUMPDEST PUSH2 0x7361 PUSH1 0x20 DUP4 ADD DUP7 PUSH2 0x5C39 JUMP JUMPDEST PUSH2 0x736E PUSH1 0x40 DUP4 ADD DUP6 PUSH2 0x5E1C JUMP JUMPDEST PUSH2 0x737B PUSH1 0x60 DUP4 ADD DUP5 PUSH2 0x5E1C JUMP JUMPDEST SWAP6 SWAP5 POP POP POP POP POP JUMP JUMPDEST PUSH32 0x566F7465733A20696E76616C6964206E6F6E6365000000000000000000000000 PUSH1 0x0 DUP3 ADD MSTORE POP JUMP JUMPDEST PUSH1 0x0 PUSH2 0x73BA PUSH1 0x14 DUP4 PUSH2 0x5AF4 JUMP JUMPDEST SWAP2 POP PUSH2 0x73C5 DUP3 PUSH2 0x7384 JUMP JUMPDEST PUSH1 0x20 DUP3 ADD SWAP1 POP SWAP2 SWAP1 POP JUMP JUMPDEST PUSH1 0x0 PUSH1 0x20 DUP3 ADD SWAP1 POP DUP2 DUP2 SUB PUSH1 0x0 DUP4 ADD MSTORE PUSH2 0x73E9 DUP2 PUSH2 0x73AD JUMP JUMPDEST SWAP1 POP SWAP2 SWAP1 POP JUMP JUMPDEST PUSH32 0x536F756C426F756E644E46543A204172726179206C656E677468206D69736D61 PUSH1 0x0 DUP3 ADD MSTORE PUSH32 0x7463680000000000000000000000000000000000000000000000000000000000 PUSH1 0x20 DUP3 ADD MSTORE POP JUMP JUMPDEST PUSH1 0x0 PUSH2 0x744C PUSH1 0x23 DUP4 PUSH2 0x5AF4 JUMP JUMPDEST SWAP2 POP PUSH2 0x7457 DUP3 PUSH2 0x73F0 JUMP JUMPDEST PUSH1 0x40 DUP3 ADD SWAP1 POP SWAP2 SWAP1 POP JUMP JUMPDEST PUSH1 0x0 PUSH1 0x20 DUP3 ADD SWAP1 POP DUP2 DUP2 SUB PUSH1 0x0 DUP4 ADD MSTORE PUSH2 0x747B DUP2 PUSH2 0x743F JUMP JUMPDEST SWAP1 POP SWAP2 SWAP1 POP JUMP JUMPDEST PUSH32 0x4E487B7100000000000000000000000000000000000000000000000000000000 PUSH1 0x0 MSTORE PUSH1 0x32 PUSH1 0x4 MSTORE PUSH1 0x24 PUSH1 0x0 REVERT JUMPDEST PUSH1 0x0 DUP1 REVERT JUMPDEST PUSH1 0x0 DUP1 REVERT JUMPDEST PUSH1 0x0 DUP1 REVERT JUMPDEST PUSH1 0x0 DUP1 DUP4 CALLDATALOAD PUSH1 0x1 PUSH1 0x20 SUB DUP5 CALLDATASIZE SUB SUB DUP2 SLT PUSH2 0x74DD JUMPI PUSH2 0x74DC PUSH2 0x74B1 JUMP JUMPDEST JUMPDEST DUP1 DUP5 ADD SWAP3 POP DUP3 CALLDATALOAD SWAP2 POP PUSH8 0xFFFFFFFFFFFFFFFF DUP3 GT ISZERO PUSH2 0x74FF JUMPI PUSH2 0x74FE PUSH2 0x74B6 JUMP JUMPDEST JUMPDEST PUSH1 0x20 DUP4 ADD SWAP3 POP PUSH1 0x1 DUP3 MUL CALLDATASIZE SUB DUP4 SGT ISZERO PUSH2 0x751B JUMPI PUSH2 0x751A PUSH2 0x74BB JUMP JUMPDEST JUMPDEST POP SWAP3 POP SWAP3 SWAP1 POP JUMP JUMPDEST PUSH1 0x0 PUSH2 0x752E DUP3 PUSH2 0x5BA4 JUMP JUMPDEST SWAP2 POP PUSH32 0xFFFFFFFFFFFFFFFFFFFFFFFFFFFFFFFFFFFFFFFFFFFFFFFFFFFFFFFFFFFFFFFF DUP3 SUB PUSH2 0x7560 JUMPI PUSH2 0x755F PUSH2 0x6CC3 JUMP JUMPDEST JUMPDEST PUSH1 0x1 DUP3 ADD SWAP1 POP SWAP2 SWAP1 POP JUMP JUMPDEST PUSH32 0x536F756C426F756E644E46543A204E6F6E2D6578697374656E7420746F6B656E PUSH1 0x0 DUP3 ADD MSTORE POP JUMP JUMPDEST PUSH1 0x0 PUSH2 0x75A1 PUSH1 0x20 DUP4 PUSH2 0x5AF4 JUMP JUMPDEST SWAP2 POP PUSH2 0x75AC DUP3 PUSH2 0x756B JUMP JUMPDEST PUSH1 0x20 DUP3 ADD SWAP1 POP SWAP2 SWAP1 POP JUMP JUMPDEST PUSH1 0x0 PUSH1 0x20 DUP3 ADD SWAP1 POP DUP2 DUP2 SUB PUSH1 0x0 DUP4 ADD MSTORE PUSH2 0x75D0 DUP2 PUSH2 0x7594 JUMP JUMPDEST SWAP1 POP SWAP2 SWAP1 POP JUMP JUMPDEST PUSH32 0x5061757361626C653A2070617573656400000000000000000000000000000000 PUSH1 0x0 DUP3 ADD MSTORE POP JUMP JUMPDEST PUSH1 0x0 PUSH2 0x760D PUSH1 0x10 DUP4 PUSH2 0x5AF4 JUMP JUMPDEST SWAP2 POP PUSH2 0x7618 DUP3 PUSH2 0x75D7 JUMP JUMPDEST PUSH1 0x20 DUP3 ADD SWAP1 POP SWAP2 SWAP1 POP JUMP JUMPDEST PUSH1 0x0 PUSH1 0x20 DUP3 ADD SWAP1 POP DUP2 DUP2 SUB PUSH1 0x0 DUP4 ADD MSTORE PUSH2 0x763C DUP2 PUSH2 0x7600 JUMP JUMPDEST SWAP1 POP SWAP2 SWAP1 POP JUMP JUMPDEST PUSH32 0x4552433732313A207472616E736665722066726F6D20696E636F727265637420 PUSH1 0x0 DUP3 ADD MSTORE PUSH32 0x6F776E6572000000000000000000000000000000000000000000000000000000 PUSH1 0x20 DUP3 ADD MSTORE POP JUMP JUMPDEST PUSH1 0x0 PUSH2 0x769F PUSH1 0x25 DUP4 PUSH2 0x5AF4 JUMP JUMPDEST SWAP2 POP PUSH2 0x76AA DUP3 PUSH2 0x7643 JUMP JUMPDEST PUSH1 0x40 DUP3 ADD SWAP1 POP SWAP2 SWAP1 POP JUMP JUMPDEST PUSH1 0x0 PUSH1 0x20 DUP3 ADD SWAP1 POP DUP2 DUP2 SUB PUSH1 0x0 DUP4 ADD MSTORE PUSH2 0x76CE DUP2 PUSH2 0x7692 JUMP JUMPDEST SWAP1 POP SWAP2 SWAP1 POP JUMP JUMPDEST PUSH32 0x4552433732313A207472616E7366657220746F20746865207A65726F20616464 PUSH1 0x0 DUP3 ADD MSTORE PUSH32 0x7265737300000000000000000000000000000000000000000000000000000000 PUSH1 0x20 DUP3 ADD MSTORE POP JUMP JUMPDEST PUSH1 0x0 PUSH2 0x7731 PUSH1 0x24 DUP4 PUSH2 0x5AF4 JUMP JUMPDEST SWAP2 POP PUSH2 0x773C DUP3 PUSH2 0x76D5 JUMP JUMPDEST PUSH1 0x40 DUP3 ADD SWAP1 POP SWAP2 SWAP1 POP JUMP JUMPDEST PUSH1 0x0 PUSH1 0x20 DUP3 ADD SWAP1 POP DUP2 DUP2 SUB PUSH1 0x0 DUP4 ADD MSTORE PUSH2 0x7760 DUP2 PUSH2 0x7724 JUMP JUMPDEST SWAP1 POP SWAP2 SWAP1 POP JUMP JUMPDEST PUSH1 0x0 PUSH2 0x7772 DUP3 PUSH2 0x5BA4 JUMP JUMPDEST SWAP2 POP PUSH2 0x777D DUP4 PUSH2 0x5BA4 JUMP JUMPDEST SWAP3 POP DUP3 DUP3 LT ISZERO PUSH2 0x7790 JUMPI PUSH2 0x778F PUSH2 0x6CC3 JUMP JUMPDEST JUMPDEST DUP3 DUP3 SUB SWAP1 POP SWAP3 SWAP2 POP POP JUMP JUMPDEST PUSH1 0x0 PUSH2 0x77A6 DUP3 PUSH2 0x5BA4 JUMP JUMPDEST SWAP2 POP PUSH2 0x77B1 DUP4 PUSH2 0x5BA4 JUMP JUMPDEST SWAP3 POP DUP3 PUSH32 0xFFFFFFFFFFFFFFFFFFFFFFFFFFFFFFFFFFFFFFFFFFFFFFFFFFFFFFFFFFFFFFFF SUB DUP3 GT ISZERO PUSH2 0x77E6 JUMPI PUSH2 0x77E5 PUSH2 0x6CC3 JUMP JUMPDEST JUMPDEST DUP3 DUP3 ADD SWAP1 POP SWAP3 SWAP2 POP POP JUMP JUMPDEST PUSH32 0x556E617574686F72697A65642055706772616465000000000000000000000000 PUSH1 0x0 DUP3 ADD MSTORE POP JUMP JUMPDEST PUSH1 0x0 PUSH2 0x7827 PUSH1 0x14 DUP4 PUSH2 0x5AF4 JUMP JUMPDEST SWAP2 POP PUSH2 0x7832 DUP3 PUSH2 0x77F1 JUMP JUMPDEST PUSH1 0x20 DUP3 ADD SWAP1 POP SWAP2 SWAP1 POP JUMP JUMPDEST PUSH1 0x0 PUSH1 0x20 DUP3 ADD SWAP1 POP DUP2 DUP2 SUB PUSH1 0x0 DUP4 ADD MSTORE PUSH2 0x7856 DUP2 PUSH2 0x781A JUMP JUMPDEST SWAP1 POP SWAP2 SWAP1 POP JUMP JUMPDEST PUSH1 0x0 DUP2 MLOAD SWAP1 POP PUSH2 0x786C DUP2 PUSH2 0x5D2C JUMP JUMPDEST SWAP3 SWAP2 POP POP JUMP JUMPDEST PUSH1 0x0 PUSH1 0x20 DUP3 DUP5 SUB SLT ISZERO PUSH2 0x7888 JUMPI PUSH2 0x7887 PUSH2 0x5A24 JUMP JUMPDEST JUMPDEST PUSH1 0x0 PUSH2 0x7896 DUP5 DUP3 DUP6 ADD PUSH2 0x785D JUMP JUMPDEST SWAP2 POP POP SWAP3 SWAP2 POP POP JUMP JUMPDEST PUSH32 0x45524331393637557067726164653A206E657720696D706C656D656E74617469 PUSH1 0x0 DUP3 ADD MSTORE PUSH32 0x6F6E206973206E6F742055555053000000000000000000000000000000000000 PUSH1 0x20 DUP3 ADD MSTORE POP JUMP JUMPDEST PUSH1 0x0 PUSH2 0x78FB PUSH1 0x2E DUP4 PUSH2 0x5AF4 JUMP JUMPDEST SWAP2 POP PUSH2 0x7906 DUP3 PUSH2 0x789F JUMP JUMPDEST PUSH1 0x40 DUP3 ADD SWAP1 POP SWAP2 SWAP1 POP JUMP JUMPDEST PUSH1 0x0 PUSH1 0x20 DUP3 ADD SWAP1 POP DUP2 DUP2 SUB PUSH1 0x0 DUP4 ADD MSTORE PUSH2 0x792A DUP2 PUSH2 0x78EE JUMP JUMPDEST SWAP1 POP SWAP2 SWAP1 POP JUMP JUMPDEST PUSH32 0x45524331393637557067726164653A20756E737570706F727465642070726F78 PUSH1 0x0 DUP3 ADD MSTORE PUSH32 0x6961626C65555549440000000000000000000000000000000000000000000000 PUSH1 0x20 DUP3 ADD MSTORE POP JUMP JUMPDEST PUSH1 0x0 PUSH2 0x798D PUSH1 0x29 DUP4 PUSH2 0x5AF4 JUMP JUMPDEST SWAP2 POP PUSH2 0x7998 DUP3 PUSH2 0x7931 JUMP JUMPDEST PUSH1 0x40 DUP3 ADD SWAP1 POP SWAP2 SWAP1 POP JUMP JUMPDEST PUSH1 0x0 PUSH1 0x20 DUP3 ADD SWAP1 POP DUP2 DUP2 SUB PUSH1 0x0 DUP4 ADD MSTORE PUSH2 0x79BC DUP2 PUSH2 0x7980 JUMP JUMPDEST SWAP1 POP SWAP2 SWAP1 POP JUMP JUMPDEST PUSH32 0x436865636B706F696E74733A20626C6F636B206E6F7420796574206D696E6564 PUSH1 0x0 DUP3 ADD MSTORE POP JUMP JUMPDEST PUSH1 0x0 PUSH2 0x79F9 PUSH1 0x20 DUP4 PUSH2 0x5AF4 JUMP JUMPDEST SWAP2 POP PUSH2 0x7A04 DUP3 PUSH2 0x79C3 JUMP JUMPDEST PUSH1 0x20 DUP3 ADD SWAP1 POP SWAP2 SWAP1 POP JUMP JUMPDEST PUSH1 0x0 PUSH1 0x20 DUP3 ADD SWAP1 POP DUP2 DUP2 SUB PUSH1 0x0 DUP4 ADD MSTORE PUSH2 0x7A28 DUP2 PUSH2 0x79EC JUMP JUMPDEST SWAP1 POP SWAP2 SWAP1 POP JUMP JUMPDEST PUSH32 0x496E697469616C697A61626C653A20636F6E7472616374206973206E6F742069 PUSH1 0x0 DUP3 ADD MSTORE PUSH32 0x6E697469616C697A696E67000000000000000000000000000000000000000000 PUSH1 0x20 DUP3 ADD MSTORE POP JUMP JUMPDEST PUSH1 0x0 PUSH2 0x7A8B PUSH1 0x2B DUP4 PUSH2 0x5AF4 JUMP JUMPDEST SWAP2 POP PUSH2 0x7A96 DUP3 PUSH2 0x7A2F JUMP JUMPDEST PUSH1 0x40 DUP3 ADD SWAP1 POP SWAP2 SWAP1 POP JUMP JUMPDEST PUSH1 0x0 PUSH1 0x20 DUP3 ADD SWAP1 POP DUP2 DUP2 SUB PUSH1 0x0 DUP4 ADD MSTORE PUSH2 0x7ABA DUP2 PUSH2 0x7A7E JUMP JUMPDEST SWAP1 POP SWAP2 SWAP1 POP JUMP JUMPDEST PUSH32 0x4552433732313A20617070726F766520746F2063616C6C657200000000000000 PUSH1 0x0 DUP3 ADD MSTORE POP JUMP JUMPDEST PUSH1 0x0 PUSH2 0x7AF7 PUSH1 0x19 DUP4 PUSH2 0x5AF4 JUMP JUMPDEST SWAP2 POP PUSH2 0x7B02 DUP3 PUSH2 0x7AC1 JUMP JUMPDEST PUSH1 0x20 DUP3 ADD SWAP1 POP SWAP2 SWAP1 POP JUMP JUMPDEST PUSH1 0x0 PUSH1 0x20 DUP3 ADD SWAP1 POP DUP2 DUP2 SUB PUSH1 0x0 DUP4 ADD MSTORE PUSH2 0x7B26 DUP2 PUSH2 0x7AEA JUMP JUMPDEST SWAP1 POP SWAP2 SWAP1 POP JUMP JUMPDEST PUSH32 0x4552433732313A207472616E7366657220746F206E6F6E204552433732315265 PUSH1 0x0 DUP3 ADD MSTORE PUSH32 0x63656976657220696D706C656D656E7465720000000000000000000000000000 PUSH1 0x20 DUP3 ADD MSTORE POP JUMP JUMPDEST PUSH1 0x0 PUSH2 0x7B89 PUSH1 0x32 DUP4 PUSH2 0x5AF4 JUMP JUMPDEST SWAP2 POP PUSH2 0x7B94 DUP3 PUSH2 0x7B2D JUMP JUMPDEST PUSH1 0x40 DUP3 ADD SWAP1 POP SWAP2 SWAP1 POP JUMP JUMPDEST PUSH1 0x0 PUSH1 0x20 DUP3 ADD SWAP1 POP DUP2 DUP2 SUB PUSH1 0x0 DUP4 ADD MSTORE PUSH2 0x7BB8 DUP2 PUSH2 0x7B7C JUMP JUMPDEST SWAP1 POP SWAP2 SWAP1 POP JUMP JUMPDEST PUSH1 0x0 DUP2 SWAP1 POP SWAP3 SWAP2 POP POP JUMP JUMPDEST PUSH32 0x3C73766720786D6C6E733D27687474703A2F2F7777772E77332E6F72672F3230 PUSH1 0x0 DUP3 ADD MSTORE PUSH32 0x30302F7376672720786D6C6E733A786C696E6B3D27687474703A2F2F7777772E PUSH1 0x20 DUP3 ADD MSTORE PUSH32 0x77332E6F72672F313939392F786C696E6B272076696577426F783D2730203020 PUSH1 0x40 DUP3 ADD MSTORE PUSH32 0x313230302031363030272077696474683D273132303027206865696768743D27 PUSH1 0x60 DUP3 ADD MSTORE PUSH32 0x3136303027207374796C653D276261636B67726F756E642D636F6C6F723A7768 PUSH1 0x80 DUP3 ADD MSTORE PUSH32 0x697465273E000000000000000000000000000000000000000000000000000000 PUSH1 0xA0 DUP3 ADD MSTORE POP JUMP JUMPDEST PUSH1 0x0 PUSH2 0x7CBE PUSH1 0xA5 DUP4 PUSH2 0x7BBF JUMP JUMPDEST SWAP2 POP PUSH2 0x7CC9 DUP3 PUSH2 0x7BCA JUMP JUMPDEST PUSH1 0xA5 DUP3 ADD SWAP1 POP SWAP2 SWAP1 POP JUMP JUMPDEST PUSH1 0x0 DUP2 SWAP1 POP DUP2 PUSH1 0x0 MSTORE PUSH1 0x20 PUSH1 0x0 KECCAK256 SWAP1 POP SWAP2 SWAP1 POP JUMP JUMPDEST PUSH1 0x0 DUP2 SLOAD PUSH2 0x7CF6 DUP2 PUSH2 0x688B JUMP JUMPDEST PUSH2 0x7D00 DUP2 DUP7 PUSH2 0x7BBF JUMP JUMPDEST SWAP5 POP PUSH1 0x1 DUP3 AND PUSH1 0x0 DUP2 EQ PUSH2 0x7D1B JUMPI PUSH1 0x1 DUP2 EQ PUSH2 0x7D2C JUMPI PUSH2 0x7D5F JUMP JUMPDEST PUSH1 0xFF NOT DUP4 AND DUP7 MSTORE DUP2 DUP7 ADD SWAP4 POP PUSH2 0x7D5F JUMP JUMPDEST PUSH2 0x7D35 DUP6 PUSH2 0x7CD4 JUMP JUMPDEST PUSH1 0x0 JUMPDEST DUP4 DUP2 LT ISZERO PUSH2 0x7D57 JUMPI DUP2 SLOAD DUP2 DUP10 ADD MSTORE PUSH1 0x1 DUP3 ADD SWAP2 POP PUSH1 0x20 DUP2 ADD SWAP1 POP PUSH2 0x7D38 JUMP JUMPDEST DUP4 DUP9 ADD SWAP6 POP POP POP JUMPDEST POP POP POP SWAP3 SWAP2 POP POP JUMP JUMPDEST PUSH32 0x3C74657874207374796C653D27666F6E743A20626F6C64203130307078207361 PUSH1 0x0 DUP3 ADD MSTORE PUSH32 0x6E732D73657269663B2720746578742D616E63686F723D276D6964646C652720 PUSH1 0x20 DUP3 ADD MSTORE PUSH32 0x616C69676E6D656E742D626173656C696E653D2763656E7472616C2720783D27 PUSH1 0x40 DUP3 ADD MSTORE PUSH32 0x3630302720793D2731323530273E000000000000000000000000000000000000 PUSH1 0x60 DUP3 ADD MSTORE POP JUMP JUMPDEST PUSH1 0x0 PUSH2 0x7E10 PUSH1 0x6E DUP4 PUSH2 0x7BBF JUMP JUMPDEST SWAP2 POP PUSH2 0x7E1B DUP3 PUSH2 0x7D68 JUMP JUMPDEST PUSH1 0x6E DUP3 ADD SWAP1 POP SWAP2 SWAP1 POP JUMP JUMPDEST PUSH1 0x0 PUSH2 0x7E31 DUP3 PUSH2 0x5AE9 JUMP JUMPDEST PUSH2 0x7E3B DUP2 DUP6 PUSH2 0x7BBF JUMP JUMPDEST SWAP4 POP PUSH2 0x7E4B DUP2 DUP6 PUSH1 0x20 DUP7 ADD PUSH2 0x5B05 JUMP JUMPDEST DUP1 DUP5 ADD SWAP2 POP POP SWAP3 SWAP2 POP POP JUMP JUMPDEST PUSH32 0x3C2F746578743E00000000000000000000000000000000000000000000000000 PUSH1 0x0 DUP3 ADD MSTORE POP JUMP JUMPDEST PUSH1 0x0 PUSH2 0x7E8D PUSH1 0x7 DUP4 PUSH2 0x7BBF JUMP JUMPDEST SWAP2 POP PUSH2 0x7E98 DUP3 PUSH2 0x7E57 JUMP JUMPDEST PUSH1 0x7 DUP3 ADD SWAP1 POP SWAP2 SWAP1 POP JUMP JUMPDEST PUSH32 0x3C74657874207374796C653D27666F6E743A20626F6C64203130307078207361 PUSH1 0x0 DUP3 ADD MSTORE PUSH32 0x6E732D73657269663B2720746578742D616E63686F723D276D6964646C652720 PUSH1 0x20 DUP3 ADD MSTORE PUSH32 0x616C69676E6D656E742D626173656C696E653D2763656E7472616C2720783D27 PUSH1 0x40 DUP3 ADD MSTORE PUSH32 0x3630302720793D2731333530273E000000000000000000000000000000000000 PUSH1 0x60 DUP3 ADD MSTORE POP JUMP JUMPDEST PUSH1 0x0 PUSH2 0x7F4B PUSH1 0x6E DUP4 PUSH2 0x7BBF JUMP JUMPDEST SWAP2 POP PUSH2 0x7F56 DUP3 PUSH2 0x7EA3 JUMP JUMPDEST PUSH1 0x6E DUP3 ADD SWAP1 POP SWAP2 SWAP1 POP JUMP JUMPDEST PUSH32 0x3C74657874207374796C653D27666F6E743A20626F6C64203130307078207361 PUSH1 0x0 DUP3 ADD MSTORE PUSH32 0x6E732D73657269663B2720746578742D616E63686F723D276D6964646C652720 PUSH1 0x20 DUP3 ADD MSTORE PUSH32 0x616C69676E6D656E742D626173656C696E653D2763656E7472616C2720783D27 PUSH1 0x40 DUP3 ADD MSTORE PUSH32 0x3630302720793D2731343530273E000000000000000000000000000000000000 PUSH1 0x60 DUP3 ADD MSTORE POP JUMP JUMPDEST PUSH1 0x0 PUSH2 0x8009 PUSH1 0x6E DUP4 PUSH2 0x7BBF JUMP JUMPDEST SWAP2 POP PUSH2 0x8014 DUP3 PUSH2 0x7F61 JUMP JUMPDEST PUSH1 0x6E DUP3 ADD SWAP1 POP SWAP2 SWAP1 POP JUMP JUMPDEST PUSH32 0x3C2F7376673E0000000000000000000000000000000000000000000000000000 PUSH1 0x0 DUP3 ADD MSTORE POP JUMP JUMPDEST PUSH1 0x0 PUSH2 0x8055 PUSH1 0x6 DUP4 PUSH2 0x7BBF JUMP JUMPDEST SWAP2 POP PUSH2 0x8060 DUP3 PUSH2 0x801F JUMP JUMPDEST PUSH1 0x6 DUP3 ADD SWAP1 POP SWAP2 SWAP1 POP JUMP JUMPDEST PUSH1 0x0 PUSH2 0x8076 DUP3 PUSH2 0x7CB1 JUMP JUMPDEST SWAP2 POP PUSH2 0x8082 DUP3 DUP8 PUSH2 0x7CE9 JUMP JUMPDEST SWAP2 POP PUSH2 0x808D DUP3 PUSH2 0x7E03 JUMP JUMPDEST SWAP2 POP PUSH2 0x8099 DUP3 DUP7 PUSH2 0x7E26 JUMP JUMPDEST SWAP2 POP PUSH2 0x80A4 DUP3 PUSH2 0x7E80 JUMP JUMPDEST SWAP2 POP PUSH2 0x80AF DUP3 PUSH2 0x7F3E JUMP JUMPDEST SWAP2 POP PUSH2 0x80BB DUP3 DUP6 PUSH2 0x7E26 JUMP JUMPDEST SWAP2 POP PUSH2 0x80C6 DUP3 PUSH2 0x7E80 JUMP JUMPDEST SWAP2 POP PUSH2 0x80D1 DUP3 PUSH2 0x7FFC JUMP JUMPDEST SWAP2 POP PUSH2 0x80DD DUP3 DUP5 PUSH2 0x7CE9 JUMP JUMPDEST SWAP2 POP PUSH2 0x80E8 DUP3 PUSH2 0x7E80 JUMP JUMPDEST SWAP2 POP PUSH2 0x80F3 DUP3 PUSH2 0x8048 JUMP JUMPDEST SWAP2 POP DUP2 SWAP1 POP SWAP6 SWAP5 POP POP POP POP POP JUMP JUMPDEST PUSH32 0x7B20226964223A20000000000000000000000000000000000000000000000000 PUSH1 0x0 DUP3 ADD MSTORE POP JUMP JUMPDEST PUSH1 0x0 PUSH2 0x8137 PUSH1 0x8 DUP4 PUSH2 0x7BBF JUMP JUMPDEST SWAP2 POP PUSH2 0x8142 DUP3 PUSH2 0x8101 JUMP JUMPDEST PUSH1 0x8 DUP3 ADD SWAP1 POP SWAP2 SWAP1 POP JUMP JUMPDEST PUSH32 0x2C20226E69636B4E616D65223A20220000000000000000000000000000000000 PUSH1 0x0 DUP3 ADD MSTORE POP JUMP JUMPDEST PUSH1 0x0 PUSH2 0x8183 PUSH1 0xF DUP4 PUSH2 0x7BBF JUMP JUMPDEST SWAP2 POP PUSH2 0x818E DUP3 PUSH2 0x814D JUMP JUMPDEST PUSH1 0xF DUP3 ADD SWAP1 POP SWAP2 SWAP1 POP JUMP JUMPDEST PUSH32 0x222C2022726F6C65223A20220000000000000000000000000000000000000000 PUSH1 0x0 DUP3 ADD MSTORE POP JUMP JUMPDEST PUSH1 0x0 PUSH2 0x81CF PUSH1 0xC DUP4 PUSH2 0x7BBF JUMP JUMPDEST SWAP2 POP PUSH2 0x81DA DUP3 PUSH2 0x8199 JUMP JUMPDEST PUSH1 0xC DUP3 ADD SWAP1 POP SWAP2 SWAP1 POP JUMP JUMPDEST PUSH32 0x222C20226F7267616E697A6174696F6E223A2022000000000000000000000000 PUSH1 0x0 DUP3 ADD MSTORE POP JUMP JUMPDEST PUSH1 0x0 PUSH2 0x821B PUSH1 0x14 DUP4 PUSH2 0x7BBF JUMP JUMPDEST SWAP2 POP PUSH2 0x8226 DUP3 PUSH2 0x81E5 JUMP JUMPDEST PUSH1 0x14 DUP3 ADD SWAP1 POP SWAP2 SWAP1 POP JUMP JUMPDEST PUSH32 0x222C2022746F6B656E4E616D65223A2022000000000000000000000000000000 PUSH1 0x0 DUP3 ADD MSTORE POP JUMP JUMPDEST PUSH1 0x0 PUSH2 0x8267 PUSH1 0x11 DUP4 PUSH2 0x7BBF JUMP JUMPDEST SWAP2 POP PUSH2 0x8272 DUP3 PUSH2 0x8231 JUMP JUMPDEST PUSH1 0x11 DUP3 ADD SWAP1 POP SWAP2 SWAP1 POP JUMP JUMPDEST PUSH32 0x222C2022696D616765223A2022646174613A696D6167652F7376672B786D6C3B PUSH1 0x0 DUP3 ADD MSTORE PUSH32 0x6261736536342C00000000000000000000000000000000000000000000000000 PUSH1 0x20 DUP3 ADD MSTORE POP JUMP JUMPDEST PUSH1 0x0 PUSH2 0x82D9 PUSH1 0x27 DUP4 PUSH2 0x7BBF JUMP JUMPDEST SWAP2 POP PUSH2 0x82E4 DUP3 PUSH2 0x827D JUMP JUMPDEST PUSH1 0x27 DUP3 ADD SWAP1 POP SWAP2 SWAP1 POP JUMP JUMPDEST PUSH32 0x22207D0000000000000000000000000000000000000000000000000000000000 PUSH1 0x0 DUP3 ADD MSTORE POP JUMP JUMPDEST PUSH1 0x0 PUSH2 0x8325 PUSH1 0x3 DUP4 PUSH2 0x7BBF JUMP JUMPDEST SWAP2 POP PUSH2 0x8330 DUP3 PUSH2 0x82EF JUMP JUMPDEST PUSH1 0x3 DUP3 ADD SWAP1 POP SWAP2 SWAP1 POP JUMP JUMPDEST PUSH1 0x0 PUSH2 0x8346 DUP3 PUSH2 0x812A JUMP JUMPDEST SWAP2 POP PUSH2 0x8352 DUP3 DUP10 PUSH2 0x7E26 JUMP JUMPDEST SWAP2 POP PUSH2 0x835D DUP3 PUSH2 0x8176 JUMP JUMPDEST SWAP2 POP PUSH2 0x8369 DUP3 DUP9 PUSH2 0x7E26 JUMP JUMPDEST SWAP2 POP PUSH2 0x8374 DUP3 PUSH2 0x81C2 JUMP JUMPDEST SWAP2 POP PUSH2 0x8380 DUP3 DUP8 PUSH2 0x7E26 JUMP JUMPDEST SWAP2 POP PUSH2 0x838B DUP3 PUSH2 0x820E JUMP JUMPDEST SWAP2 POP PUSH2 0x8397 DUP3 DUP7 PUSH2 0x7E26 JUMP JUMPDEST SWAP2 POP PUSH2 0x83A2 DUP3 PUSH2 0x825A JUMP JUMPDEST SWAP2 POP PUSH2 0x83AE DUP3 DUP6 PUSH2 0x7E26 JUMP JUMPDEST SWAP2 POP PUSH2 0x83B9 DUP3 PUSH2 0x82CC JUMP JUMPDEST SWAP2 POP PUSH2 0x83C5 DUP3 DUP5 PUSH2 0x7E26 JUMP JUMPDEST SWAP2 POP PUSH2 0x83D0 DUP3 PUSH2 0x8318 JUMP JUMPDEST SWAP2 POP DUP2 SWAP1 POP SWAP8 SWAP7 POP POP POP POP POP POP POP JUMP JUMPDEST PUSH32 0x646174613A6170706C69636174696F6E2F6A736F6E3B757466382C0000000000 PUSH1 0x0 DUP3 ADD MSTORE POP JUMP JUMPDEST PUSH1 0x0 PUSH2 0x8416 PUSH1 0x1B DUP4 PUSH2 0x7BBF JUMP JUMPDEST SWAP2 POP PUSH2 0x8421 DUP3 PUSH2 0x83E0 JUMP JUMPDEST PUSH1 0x1B DUP3 ADD SWAP1 POP SWAP2 SWAP1 POP JUMP JUMPDEST PUSH1 0x0 PUSH2 0x8437 DUP3 PUSH2 0x8409 JUMP JUMPDEST SWAP2 POP PUSH2 0x8443 DUP3 DUP5 PUSH2 0x7E26 JUMP JUMPDEST SWAP2 POP DUP2 SWAP1 POP SWAP3 SWAP2 POP POP JUMP JUMPDEST PUSH32 0x416363657373436F6E74726F6C3A206163636F756E7420000000000000000000 PUSH1 0x0 DUP3 ADD MSTORE POP JUMP JUMPDEST PUSH1 0x0 PUSH2 0x8484 PUSH1 0x17 DUP4 PUSH2 0x7BBF JUMP JUMPDEST SWAP2 POP PUSH2 0x848F DUP3 PUSH2 0x844E JUMP JUMPDEST PUSH1 0x17 DUP3 ADD SWAP1 POP SWAP2 SWAP1 POP JUMP JUMPDEST PUSH32 0x206973206D697373696E6720726F6C6520000000000000000000000000000000 PUSH1 0x0 DUP3 ADD MSTORE POP JUMP JUMPDEST PUSH1 0x0 PUSH2 0x84D0 PUSH1 0x11 DUP4 PUSH2 0x7BBF JUMP JUMPDEST SWAP2 POP PUSH2 0x84DB DUP3 PUSH2 0x849A JUMP JUMPDEST PUSH1 0x11 DUP3 ADD SWAP1 POP SWAP2 SWAP1 POP JUMP JUMPDEST PUSH1 0x0 PUSH2 0x84F1 DUP3 PUSH2 0x8477 JUMP JUMPDEST SWAP2 POP PUSH2 0x84FD DUP3 DUP6 PUSH2 0x7E26 JUMP JUMPDEST SWAP2 POP PUSH2 0x8508 DUP3 PUSH2 0x84C3 JUMP JUMPDEST SWAP2 POP PUSH2 0x8514 DUP3 DUP5 PUSH2 0x7E26 JUMP JUMPDEST SWAP2 POP DUP2 SWAP1 POP SWAP4 SWAP3 POP POP POP JUMP JUMPDEST PUSH1 0x0 PUSH1 0xA0 DUP3 ADD SWAP1 POP PUSH2 0x8535 PUSH1 0x0 DUP4 ADD DUP9 PUSH2 0x5D85 JUMP JUMPDEST PUSH2 0x8542 PUSH1 0x20 DUP4 ADD DUP8 PUSH2 0x5D85 JUMP JUMPDEST PUSH2 0x854F PUSH1 0x40 DUP4 ADD DUP7 PUSH2 0x5D85 JUMP JUMPDEST PUSH2 0x855C PUSH1 0x60 DUP4 ADD DUP6 PUSH2 0x5E1C JUMP JUMPDEST PUSH2 0x8569 PUSH1 0x80 DUP4 ADD DUP5 PUSH2 0x5C39 JUMP JUMPDEST SWAP7 SWAP6 POP POP POP POP POP POP JUMP JUMPDEST PUSH32 0x455243313936373A206E657720696D706C656D656E746174696F6E206973206E PUSH1 0x0 DUP3 ADD MSTORE PUSH32 0x6F74206120636F6E747261637400000000000000000000000000000000000000 PUSH1 0x20 DUP3 ADD MSTORE POP JUMP JUMPDEST PUSH1 0x0 PUSH2 0x85CF PUSH1 0x2D DUP4 PUSH2 0x5AF4 JUMP JUMPDEST SWAP2 POP PUSH2 0x85DA DUP3 PUSH2 0x8573 JUMP JUMPDEST PUSH1 0x40 DUP3 ADD SWAP1 POP SWAP2 SWAP1 POP JUMP JUMPDEST PUSH1 0x0 PUSH1 0x20 DUP3 ADD SWAP1 POP DUP2 DUP2 SUB PUSH1 0x0 DUP4 ADD MSTORE PUSH2 0x85FE DUP2 PUSH2 0x85C2 JUMP JUMPDEST SWAP1 POP SWAP2 SWAP1 POP JUMP JUMPDEST PUSH1 0x0 PUSH1 0x40 DUP3 ADD SWAP1 POP PUSH2 0x861A PUSH1 0x0 DUP4 ADD DUP6 PUSH2 0x5E1C JUMP JUMPDEST PUSH2 0x8627 PUSH1 0x20 DUP4 ADD DUP5 PUSH2 0x5E1C JUMP JUMPDEST SWAP4 SWAP3 POP POP POP JUMP JUMPDEST PUSH1 0x0 DUP2 MLOAD SWAP1 POP SWAP2 SWAP1 POP JUMP JUMPDEST PUSH1 0x0 DUP3 DUP3 MSTORE PUSH1 0x20 DUP3 ADD SWAP1 POP SWAP3 SWAP2 POP POP JUMP JUMPDEST PUSH1 0x0 PUSH2 0x8655 DUP3 PUSH2 0x862E JUMP JUMPDEST PUSH2 0x865F DUP2 DUP6 PUSH2 0x8639 JUMP JUMPDEST SWAP4 POP PUSH2 0x866F DUP2 DUP6 PUSH1 0x20 DUP7 ADD PUSH2 0x5B05 JUMP JUMPDEST PUSH2 0x8678 DUP2 PUSH2 0x5B38 JUMP JUMPDEST DUP5 ADD SWAP2 POP POP SWAP3 SWAP2 POP POP JUMP JUMPDEST PUSH1 0x0 PUSH1 0x80 DUP3 ADD SWAP1 POP PUSH2 0x8698 PUSH1 0x0 DUP4 ADD DUP8 PUSH2 0x5C39 JUMP JUMPDEST PUSH2 0x86A5 PUSH1 0x20 DUP4 ADD DUP7 PUSH2 0x5C39 JUMP JUMPDEST PUSH2 0x86B2 PUSH1 0x40 DUP4 ADD DUP6 PUSH2 0x5E1C JUMP JUMPDEST DUP2 DUP2 SUB PUSH1 0x60 DUP4 ADD MSTORE PUSH2 0x86C4 DUP2 DUP5 PUSH2 0x864A JUMP JUMPDEST SWAP1 POP SWAP6 SWAP5 POP POP POP POP POP JUMP JUMPDEST PUSH1 0x0 DUP2 MLOAD SWAP1 POP PUSH2 0x86DE DUP2 PUSH2 0x5A5A JUMP JUMPDEST SWAP3 SWAP2 POP POP JUMP JUMPDEST PUSH1 0x0 PUSH1 0x20 DUP3 DUP5 SUB SLT ISZERO PUSH2 0x86FA JUMPI PUSH2 0x86F9 PUSH2 0x5A24 JUMP JUMPDEST JUMPDEST PUSH1 0x0 PUSH2 0x8708 DUP5 DUP3 DUP6 ADD PUSH2 0x86CF JUMP JUMPDEST SWAP2 POP POP SWAP3 SWAP2 POP POP JUMP JUMPDEST PUSH32 0x1901000000000000000000000000000000000000000000000000000000000000 PUSH1 0x0 DUP3 ADD MSTORE POP JUMP JUMPDEST PUSH1 0x0 PUSH2 0x8747 PUSH1 0x2 DUP4 PUSH2 0x7BBF JUMP JUMPDEST SWAP2 POP PUSH2 0x8752 DUP3 PUSH2 0x8711 JUMP JUMPDEST PUSH1 0x2 DUP3 ADD SWAP1 POP SWAP2 SWAP1 POP JUMP JUMPDEST PUSH1 0x0 DUP2 SWAP1 POP SWAP2 SWAP1 POP JUMP JUMPDEST PUSH2 0x8778 PUSH2 0x8773 DUP3 PUSH2 0x5D22 JUMP JUMPDEST PUSH2 0x875D JUMP JUMPDEST DUP3 MSTORE POP POP JUMP JUMPDEST PUSH1 0x0 PUSH2 0x8789 DUP3 PUSH2 0x873A JUMP JUMPDEST SWAP2 POP PUSH2 0x8795 DUP3 DUP6 PUSH2 0x8767 JUMP JUMPDEST PUSH1 0x20 DUP3 ADD SWAP2 POP PUSH2 0x87A5 DUP3 DUP5 PUSH2 0x8767 JUMP JUMPDEST PUSH1 0x20 DUP3 ADD SWAP2 POP DUP2 SWAP1 POP SWAP4 SWAP3 POP POP POP JUMP JUMPDEST PUSH2 0x87BE DUP2 PUSH2 0x6553 JUMP JUMPDEST DUP3 MSTORE POP POP JUMP JUMPDEST PUSH1 0x0 PUSH1 0x80 DUP3 ADD SWAP1 POP PUSH2 0x87D9 PUSH1 0x0 DUP4 ADD DUP8 PUSH2 0x5D85 JUMP JUMPDEST PUSH2 0x87E6 PUSH1 0x20 DUP4 ADD DUP7 PUSH2 0x87B5 JUMP JUMPDEST PUSH2 0x87F3 PUSH1 0x40 DUP4 ADD DUP6 PUSH2 0x5D85 JUMP JUMPDEST PUSH2 0x8800 PUSH1 0x60 DUP4 ADD DUP5 PUSH2 0x5D85 JUMP JUMPDEST SWAP6 SWAP5 POP POP POP POP POP JUMP JUMPDEST PUSH32 0x4E487B7100000000000000000000000000000000000000000000000000000000 PUSH1 0x0 MSTORE PUSH1 0x21 PUSH1 0x4 MSTORE PUSH1 0x24 PUSH1 0x0 REVERT JUMPDEST PUSH32 0x45434453413A20696E76616C6964207369676E61747572650000000000000000 PUSH1 0x0 DUP3 ADD MSTORE POP JUMP JUMPDEST PUSH1 0x0 PUSH2 0x886E PUSH1 0x18 DUP4 PUSH2 0x5AF4 JUMP JUMPDEST SWAP2 POP PUSH2 0x8879 DUP3 PUSH2 0x8838 JUMP JUMPDEST PUSH1 0x20 DUP3 ADD SWAP1 POP SWAP2 SWAP1 POP JUMP JUMPDEST PUSH1 0x0 PUSH1 0x20 DUP3 ADD SWAP1 POP DUP2 DUP2 SUB PUSH1 0x0 DUP4 ADD MSTORE PUSH2 0x889D DUP2 PUSH2 0x8861 JUMP JUMPDEST SWAP1 POP SWAP2 SWAP1 POP JUMP JUMPDEST PUSH32 0x45434453413A20696E76616C6964207369676E6174757265206C656E67746800 PUSH1 0x0 DUP3 ADD MSTORE POP JUMP JUMPDEST PUSH1 0x0 PUSH2 0x88DA PUSH1 0x1F DUP4 PUSH2 0x5AF4 JUMP JUMPDEST SWAP2 POP PUSH2 0x88E5 DUP3 PUSH2 0x88A4 JUMP JUMPDEST PUSH1 0x20 DUP3 ADD SWAP1 POP SWAP2 SWAP1 POP JUMP JUMPDEST PUSH1 0x0 PUSH1 0x20 DUP3 ADD SWAP1 POP DUP2 DUP2 SUB PUSH1 0x0 DUP4 ADD MSTORE PUSH2 0x8909 DUP2 PUSH2 0x88CD JUMP JUMPDEST SWAP1 POP SWAP2 SWAP1 POP JUMP JUMPDEST PUSH32 0x45434453413A20696E76616C6964207369676E6174757265202773272076616C PUSH1 0x0 DUP3 ADD MSTORE PUSH32 0x7565000000000000000000000000000000000000000000000000000000000000 PUSH1 0x20 DUP3 ADD MSTORE POP JUMP JUMPDEST PUSH1 0x0 PUSH2 0x896C PUSH1 0x22 DUP4 PUSH2 0x5AF4 JUMP JUMPDEST SWAP2 POP PUSH2 0x8977 DUP3 PUSH2 0x8910 JUMP JUMPDEST PUSH1 0x40 DUP3 ADD SWAP1 POP SWAP2 SWAP1 POP JUMP JUMPDEST PUSH1 0x0 PUSH1 0x20 DUP3 ADD SWAP1 POP DUP2 DUP2 SUB PUSH1 0x0 DUP4 ADD MSTORE PUSH2 0x899B DUP2 PUSH2 0x895F JUMP JUMPDEST SWAP1 POP SWAP2 SWAP1 POP JUMP JUMPDEST PUSH32 0x45434453413A20696E76616C6964207369676E6174757265202776272076616C PUSH1 0x0 DUP3 ADD MSTORE PUSH32 0x7565000000000000000000000000000000000000000000000000000000000000 PUSH1 0x20 DUP3 ADD MSTORE POP JUMP JUMPDEST PUSH1 0x0 PUSH2 0x89FE PUSH1 0x22 DUP4 PUSH2 0x5AF4 JUMP JUMPDEST SWAP2 POP PUSH2 0x8A09 DUP3 PUSH2 0x89A2 JUMP JUMPDEST PUSH1 0x40 DUP3 ADD SWAP1 POP SWAP2 SWAP1 POP JUMP JUMPDEST PUSH1 0x0 PUSH1 0x20 DUP3 ADD SWAP1 POP DUP2 DUP2 SUB PUSH1 0x0 DUP4 ADD MSTORE PUSH2 0x8A2D DUP2 PUSH2 0x89F1 JUMP JUMPDEST SWAP1 POP SWAP2 SWAP1 POP JUMP JUMPDEST PUSH1 0x0 PUSH2 0x8A3F DUP3 PUSH2 0x5BA4 JUMP JUMPDEST SWAP2 POP PUSH2 0x8A4A DUP4 PUSH2 0x5BA4 JUMP JUMPDEST SWAP3 POP DUP3 PUSH2 0x8A5A JUMPI PUSH2 0x8A59 PUSH2 0x6C94 JUMP JUMPDEST JUMPDEST DUP3 DUP3 MOD SWAP1 POP SWAP3 SWAP2 POP POP JUMP JUMPDEST PUSH1 0x0 PUSH2 0x8A70 DUP3 PUSH2 0x5BA4 JUMP JUMPDEST SWAP2 POP PUSH1 0x0 DUP3 SUB PUSH2 0x8A83 JUMPI PUSH2 0x8A82 PUSH2 0x6CC3 JUMP JUMPDEST JUMPDEST PUSH1 0x1 DUP3 SUB SWAP1 POP SWAP2 SWAP1 POP JUMP JUMPDEST PUSH32 0x537472696E67733A20686578206C656E67746820696E73756666696369656E74 PUSH1 0x0 DUP3 ADD MSTORE POP JUMP JUMPDEST PUSH1 0x0 PUSH2 0x8AC4 PUSH1 0x20 DUP4 PUSH2 0x5AF4 JUMP JUMPDEST SWAP2 POP PUSH2 0x8ACF DUP3 PUSH2 0x8A8E JUMP JUMPDEST PUSH1 0x20 DUP3 ADD SWAP1 POP SWAP2 SWAP1 POP JUMP JUMPDEST PUSH1 0x0 PUSH1 0x20 DUP3 ADD SWAP1 POP DUP2 DUP2 SUB PUSH1 0x0 DUP4 ADD MSTORE PUSH2 0x8AF3 DUP2 PUSH2 0x8AB7 JUMP JUMPDEST SWAP1 POP SWAP2 SWAP1 POP JUMP JUMPDEST PUSH32 0x416464726573733A2064656C65676174652063616C6C20746F206E6F6E2D636F PUSH1 0x0 DUP3 ADD MSTORE PUSH32 0x6E74726163740000000000000000000000000000000000000000000000000000 PUSH1 0x20 DUP3 ADD MSTORE POP JUMP JUMPDEST PUSH1 0x0 PUSH2 0x8B56 PUSH1 0x26 DUP4 PUSH2 0x5AF4 JUMP JUMPDEST SWAP2 POP PUSH2 0x8B61 DUP3 PUSH2 0x8AFA JUMP JUMPDEST PUSH1 0x40 DUP3 ADD SWAP1 POP SWAP2 SWAP1 POP JUMP JUMPDEST PUSH1 0x0 PUSH1 0x20 DUP3 ADD SWAP1 POP DUP2 DUP2 SUB PUSH1 0x0 DUP4 ADD MSTORE PUSH2 0x8B85 DUP2 PUSH2 0x8B49 JUMP JUMPDEST SWAP1 POP SWAP2 SWAP1 POP JUMP JUMPDEST PUSH1 0x0 PUSH2 0x8B97 DUP3 PUSH2 0x862E JUMP JUMPDEST PUSH2 0x8BA1 DUP2 DUP6 PUSH2 0x6D7D JUMP JUMPDEST SWAP4 POP PUSH2 0x8BB1 DUP2 DUP6 PUSH1 0x20 DUP7 ADD PUSH2 0x5B05 JUMP JUMPDEST DUP1 DUP5 ADD SWAP2 POP POP SWAP3 SWAP2 POP POP JUMP JUMPDEST PUSH1 0x0 PUSH2 0x8BC9 DUP3 DUP5 PUSH2 0x8B8C JUMP JUMPDEST SWAP2 POP DUP2 SWAP1 POP SWAP3 SWAP2 POP POP JUMP JUMPDEST PUSH32 0x4552433732313A206D696E7420746F20746865207A65726F2061646472657373 PUSH1 0x0 DUP3 ADD MSTORE POP JUMP JUMPDEST PUSH1 0x0 PUSH2 0x8C0A PUSH1 0x20 DUP4 PUSH2 0x5AF4 JUMP JUMPDEST SWAP2 POP PUSH2 0x8C15 DUP3 PUSH2 0x8BD4 JUMP JUMPDEST PUSH1 0x20 DUP3 ADD SWAP1 POP SWAP2 SWAP1 POP JUMP JUMPDEST PUSH1 0x0 PUSH1 0x20 DUP3 ADD SWAP1 POP DUP2 DUP2 SUB PUSH1 0x0 DUP4 ADD MSTORE PUSH2 0x8C39 DUP2 PUSH2 0x8BFD JUMP JUMPDEST SWAP1 POP SWAP2 SWAP1 POP JUMP JUMPDEST PUSH32 0x4552433732313A20746F6B656E20616C7265616479206D696E74656400000000 PUSH1 0x0 DUP3 ADD MSTORE POP JUMP JUMPDEST PUSH1 0x0 PUSH2 0x8C76 PUSH1 0x1C DUP4 PUSH2 0x5AF4 JUMP JUMPDEST SWAP2 POP PUSH2 0x8C81 DUP3 PUSH2 0x8C40 JUMP JUMPDEST PUSH1 0x20 DUP3 ADD SWAP1 POP SWAP2 SWAP1 POP JUMP JUMPDEST PUSH1 0x0 PUSH1 0x20 DUP3 ADD SWAP1 POP DUP2 DUP2 SUB PUSH1 0x0 DUP4 ADD MSTORE PUSH2 0x8CA5 DUP2 PUSH2 0x8C69 JUMP JUMPDEST SWAP1 POP SWAP2 SWAP1 POP JUMP JUMPDEST PUSH32 0x53616665436173743A2076616C756520646F65736E27742066697420696E2032 PUSH1 0x0 DUP3 ADD MSTORE PUSH32 0x3234206269747300000000000000000000000000000000000000000000000000 PUSH1 0x20 DUP3 ADD MSTORE POP JUMP JUMPDEST PUSH1 0x0 PUSH2 0x8D08 PUSH1 0x27 DUP4 PUSH2 0x5AF4 JUMP JUMPDEST SWAP2 POP PUSH2 0x8D13 DUP3 PUSH2 0x8CAC JUMP JUMPDEST PUSH1 0x40 DUP3 ADD SWAP1 POP SWAP2 SWAP1 POP JUMP JUMPDEST PUSH1 0x0 PUSH1 0x20 DUP3 ADD SWAP1 POP DUP2 DUP2 SUB PUSH1 0x0 DUP4 ADD MSTORE PUSH2 0x8D37 DUP2 PUSH2 0x8CFB JUMP JUMPDEST SWAP1 POP SWAP2 SWAP1 POP JUMP JUMPDEST PUSH32 0x53616665436173743A2076616C756520646F65736E27742066697420696E2033 PUSH1 0x0 DUP3 ADD MSTORE PUSH32 0x3220626974730000000000000000000000000000000000000000000000000000 PUSH1 0x20 DUP3 ADD MSTORE POP JUMP JUMPDEST PUSH1 0x0 PUSH2 0x8D9A PUSH1 0x26 DUP4 PUSH2 0x5AF4 JUMP JUMPDEST SWAP2 POP PUSH2 0x8DA5 DUP3 PUSH2 0x8D3E JUMP JUMPDEST PUSH1 0x40 DUP3 ADD SWAP1 POP SWAP2 SWAP1 POP JUMP JUMPDEST PUSH1 0x0 PUSH1 0x20 DUP3 ADD SWAP1 POP DUP2 DUP2 SUB PUSH1 0x0 DUP4 ADD MSTORE PUSH2 0x8DC9 DUP2 PUSH2 0x8D8D JUMP JUMPDEST SWAP1 POP SWAP2 SWAP1 POP JUMP INVALID COINBASE TIMESTAMP NUMBER DIFFICULTY GASLIMIT CHAINID SELFBALANCE BASEFEE 0x49 0x4A 0x4B 0x4C 0x4D 0x4E 0x4F POP MLOAD MSTORE MSTORE8 SLOAD SSTORE JUMP JUMPI PC MSIZE GAS PUSH2 0x6263 PUSH5 0x6566676869 PUSH11 0x6B6C6D6E6F707172737475 PUSH23 0x7778797A303132333435363738392B2F41646472657373 GASPRICE KECCAK256 PUSH13 0x6F772D6C6576656C2064656C65 PUSH8 0x6174652063616C6C KECCAK256 PUSH7 0x61696C6564A264 PUSH10 0x70667358221220969761 0xE5 0xD2 0xBB KECCAK256 0xDA JUMPI 0xDC 0xE2 0xA7 0xA5 0xEF 0x25 0x23 0x21 PUSH21 0x8B70AAAF120B714A8346D401A2F064736F6C634300 ADDMOD 0xD STOP CALLER "
		},
		"gasEstimates": {
			"creation": {
				"codeDepositCost": "7292200",
				"executionCost": "infinite",
				"totalCost": "infinite"
			},
			"external": {
				"": "221",
				"DEFAULT_ADMIN_ROLE()": "446",
				"DOMAIN_SEPARATOR()": "infinite",
				"MINTER_ROLE()": "440",
				"PAUSER_ROLE()": "395",
				"UPGRADER_ROLE()": "461",
				"approve(address,uint256)": "infinite",
				"balanceOf(address)": "2989",
				"batchBurn(uint256[])": "infinite",
				"batchMint(address[],string[],string[])": "infinite",
				"burn(uint256)": "infinite",
				"defaultRole()": "infinite",
				"delegate(address)": "infinite",
				"delegateBySig(address,uint256,uint256,uint8,bytes32,bytes32)": "infinite",
				"delegates(address)": "infinite",
				"getApproved(uint256)": "5303",
				"getPastTotalSupply(uint256)": "infinite",
				"getPastVotes(address,uint256)": "infinite",
				"getRoleAdmin(bytes32)": "infinite",
				"getVotes(address)": "infinite",
				"grantRole(bytes32,address)": "infinite",
				"hasRole(bytes32,address)": "3208",
				"initialize(string,string,string,string,bool,bool,uint256,address)": "infinite",
				"isApprovedForAll(address,address)": "infinite",
				"mint(address,string,string)": "infinite",
				"mintPrice()": "2506",
				"mintable()": "2619",
				"mintedTo(uint256)": "2934",
				"name()": "infinite",
				"nextId()": "2597",
				"nickNameOf(uint256)": "infinite",
				"nonces(address)": "3002",
				"organization()": "infinite",
				"ownerOf(uint256)": "3089",
				"paused()": "2568",
				"proxiableUUID()": "infinite",
				"renounceRole(bytes32,address)": "infinite",
				"revokeRole(bytes32,address)": "infinite",
				"roleOf(uint256)": "infinite",
				"safeTransferFrom(address,address,uint256)": "infinite",
				"safeTransferFrom(address,address,uint256,bytes)": "infinite",
				"setApprovalForAll(address,bool)": "infinite",
				"setDefaultRole(string)": "infinite",
				"setMintPrice(uint256)": "infinite",
				"setSvgLogo(string)": "infinite",
				"supportsInterface(bytes4)": "975",
				"symbol()": "infinite",
				"toggleMintable()": "infinite",
				"toggleTransferable()": "infinite",
				"tokenDataOf(uint256)": "infinite",
				"tokenURI(uint256)": "infinite",
				"transferFrom(address,address,uint256)": "infinite",
				"transferable()": "2569",
				"upgradeTo(address)": "infinite",
				"upgradeToAndCall(address,bytes)": "infinite",
				"version()": "405",
				"withdraw()": "infinite"
			},
			"internal": {
				"_afterTokenTransfer(address,address,uint256)": "infinite",
				"_authorizeUpgrade(address)": "infinite",
				"_mint(address,string memory,string memory)": "infinite",
				"constructTokenURI(struct ProofOfVisit.TokenURIParams memory)": "infinite"
			}
		},
		"methodIdentifiers": {
			"DEFAULT_ADMIN_ROLE()": "a217fddf",
			"DOMAIN_SEPARATOR()": "3644e515",
			"MINTER_ROLE()": "d5391393",
			"PAUSER_ROLE()": "e63ab1e9",
			"UPGRADER_ROLE()": "f72c0d8b",
			"approve(address,uint256)": "095ea7b3",
			"balanceOf(address)": "70a08231",
			"batchBurn(uint256[])": "dc8e92ea",
			"batchMint(address[],string[],string[])": "dab45bbd",
			"burn(uint256)": "42966c68",
			"defaultRole()": "14afba3b",
			"delegate(address)": "5c19a95c",
			"delegateBySig(address,uint256,uint256,uint8,bytes32,bytes32)": "c3cda520",
			"delegates(address)": "587cde1e",
			"getApproved(uint256)": "081812fc",
			"getPastTotalSupply(uint256)": "8e539e8c",
			"getPastVotes(address,uint256)": "3a46b1a8",
			"getRoleAdmin(bytes32)": "248a9ca3",
			"getVotes(address)": "9ab24eb0",
			"grantRole(bytes32,address)": "2f2ff15d",
			"hasRole(bytes32,address)": "91d14854",
			"initialize(string,string,string,string,bool,bool,uint256,address)": "591e4065",
			"isApprovedForAll(address,address)": "e985e9c5",
			"mint(address,string,string)": "99071190",
			"mintPrice()": "6817c76c",
			"mintable()": "4bf365df",
			"mintedTo(uint256)": "3c683cff",
			"name()": "06fdde03",
			"nextId()": "61b8ce8c",
			"nickNameOf(uint256)": "1620245d",
			"nonces(address)": "7ecebe00",
			"organization()": "23bd4d7a",
			"ownerOf(uint256)": "6352211e",
			"paused()": "5c975abb",
			"proxiableUUID()": "52d1902d",
			"renounceRole(bytes32,address)": "36568abe",
			"revokeRole(bytes32,address)": "d547741f",
			"roleOf(uint256)": "72b1d8cf",
			"safeTransferFrom(address,address,uint256)": "42842e0e",
			"safeTransferFrom(address,address,uint256,bytes)": "b88d4fde",
			"setApprovalForAll(address,bool)": "a22cb465",
			"setDefaultRole(string)": "6c4a4149",
			"setMintPrice(uint256)": "f4a0a528",
			"setSvgLogo(string)": "a75d961e",
			"supportsInterface(bytes4)": "01ffc9a7",
			"symbol()": "95d89b41",
			"toggleMintable()": "726b83b6",
			"toggleTransferable()": "d6bfc22f",
			"tokenDataOf(uint256)": "c0da9bcd",
			"tokenURI(uint256)": "c87b56dd",
			"transferFrom(address,address,uint256)": "23b872dd",
			"transferable()": "92ff0d31",
			"upgradeTo(address)": "3659cfe6",
			"upgradeToAndCall(address,bytes)": "4f1ef286",
			"version()": "54fd4d50",
			"withdraw()": "3ccfd60b"
		}
	},
	"abi": [
		{
			"inputs": [],
			"stateMutability": "nonpayable",
			"type": "constructor"
		},
		{
			"anonymous": false,
			"inputs": [
				{
					"indexed": false,
					"internalType": "address",
					"name": "previousAdmin",
					"type": "address"
				},
				{
					"indexed": false,
					"internalType": "address",
					"name": "newAdmin",
					"type": "address"
				}
			],
			"name": "AdminChanged",
			"type": "event"
		},
		{
			"anonymous": false,
			"inputs": [
				{
					"indexed": true,
					"internalType": "address",
					"name": "owner",
					"type": "address"
				},
				{
					"indexed": true,
					"internalType": "address",
					"name": "approved",
					"type": "address"
				},
				{
					"indexed": true,
					"internalType": "uint256",
					"name": "tokenId",
					"type": "uint256"
				}
			],
			"name": "Approval",
			"type": "event"
		},
		{
			"anonymous": false,
			"inputs": [
				{
					"indexed": true,
					"internalType": "address",
					"name": "owner",
					"type": "address"
				},
				{
					"indexed": true,
					"internalType": "address",
					"name": "operator",
					"type": "address"
				},
				{
					"indexed": false,
					"internalType": "bool",
					"name": "approved",
					"type": "bool"
				}
			],
			"name": "ApprovalForAll",
			"type": "event"
		},
		{
			"anonymous": false,
			"inputs": [
				{
					"indexed": true,
					"internalType": "address",
					"name": "beacon",
					"type": "address"
				}
			],
			"name": "BeaconUpgraded",
			"type": "event"
		},
		{
			"anonymous": false,
			"inputs": [
				{
					"indexed": true,
					"internalType": "address",
					"name": "delegator",
					"type": "address"
				},
				{
					"indexed": true,
					"internalType": "address",
					"name": "fromDelegate",
					"type": "address"
				},
				{
					"indexed": true,
					"internalType": "address",
					"name": "toDelegate",
					"type": "address"
				}
			],
			"name": "DelegateChanged",
			"type": "event"
		},
		{
			"anonymous": false,
			"inputs": [
				{
					"indexed": true,
					"internalType": "address",
					"name": "delegate",
					"type": "address"
				},
				{
					"indexed": false,
					"internalType": "uint256",
					"name": "previousBalance",
					"type": "uint256"
				},
				{
					"indexed": false,
					"internalType": "uint256",
					"name": "newBalance",
					"type": "uint256"
				}
			],
			"name": "DelegateVotesChanged",
			"type": "event"
		},
		{
			"anonymous": false,
			"inputs": [
				{
					"indexed": false,
					"internalType": "uint8",
					"name": "version",
					"type": "uint8"
				}
			],
			"name": "Initialized",
			"type": "event"
		},
		{
			"anonymous": false,
			"inputs": [
				{
					"indexed": false,
					"internalType": "address",
					"name": "account",
					"type": "address"
				}
			],
			"name": "Paused",
			"type": "event"
		},
		{
			"anonymous": false,
			"inputs": [
				{
					"indexed": true,
					"internalType": "bytes32",
					"name": "role",
					"type": "bytes32"
				},
				{
					"indexed": true,
					"internalType": "bytes32",
					"name": "previousAdminRole",
					"type": "bytes32"
				},
				{
					"indexed": true,
					"internalType": "bytes32",
					"name": "newAdminRole",
					"type": "bytes32"
				}
			],
			"name": "RoleAdminChanged",
			"type": "event"
		},
		{
			"anonymous": false,
			"inputs": [
				{
					"indexed": true,
					"internalType": "bytes32",
					"name": "role",
					"type": "bytes32"
				},
				{
					"indexed": true,
					"internalType": "address",
					"name": "account",
					"type": "address"
				},
				{
					"indexed": true,
					"internalType": "address",
					"name": "sender",
					"type": "address"
				}
			],
			"name": "RoleGranted",
			"type": "event"
		},
		{
			"anonymous": false,
			"inputs": [
				{
					"indexed": true,
					"internalType": "bytes32",
					"name": "role",
					"type": "bytes32"
				},
				{
					"indexed": true,
					"internalType": "address",
					"name": "account",
					"type": "address"
				},
				{
					"indexed": true,
					"internalType": "address",
					"name": "sender",
					"type": "address"
				}
			],
			"name": "RoleRevoked",
			"type": "event"
		},
		{
			"anonymous": false,
			"inputs": [
				{
					"indexed": false,
					"internalType": "bool",
					"name": "mintable",
					"type": "bool"
				}
			],
			"name": "ToggleMintable",
			"type": "event"
		},
		{
			"anonymous": false,
			"inputs": [
				{
					"indexed": false,
					"internalType": "bool",
					"name": "transferable",
					"type": "bool"
				}
			],
			"name": "ToggleTransferable",
			"type": "event"
		},
		{
			"anonymous": false,
			"inputs": [
				{
					"indexed": true,
					"internalType": "address",
					"name": "from",
					"type": "address"
				},
				{
					"indexed": true,
					"internalType": "address",
					"name": "to",
					"type": "address"
				},
				{
					"indexed": true,
					"internalType": "uint256",
					"name": "tokenId",
					"type": "uint256"
				}
			],
			"name": "Transfer",
			"type": "event"
		},
		{
			"anonymous": false,
			"inputs": [
				{
					"indexed": false,
					"internalType": "address",
					"name": "account",
					"type": "address"
				}
			],
			"name": "Unpaused",
			"type": "event"
		},
		{
			"anonymous": false,
			"inputs": [
				{
					"indexed": true,
					"internalType": "address",
					"name": "implementation",
					"type": "address"
				}
			],
			"name": "Upgraded",
			"type": "event"
		},
		{
			"stateMutability": "payable",
			"type": "fallback"
		},
		{
			"inputs": [],
			"name": "DEFAULT_ADMIN_ROLE",
			"outputs": [
				{
					"internalType": "bytes32",
					"name": "",
					"type": "bytes32"
				}
			],
			"stateMutability": "view",
			"type": "function"
		},
		{
			"inputs": [],
			"name": "DOMAIN_SEPARATOR",
			"outputs": [
				{
					"internalType": "bytes32",
					"name": "",
					"type": "bytes32"
				}
			],
			"stateMutability": "view",
			"type": "function"
		},
		{
			"inputs": [],
			"name": "MINTER_ROLE",
			"outputs": [
				{
					"internalType": "bytes32",
					"name": "",
					"type": "bytes32"
				}
			],
			"stateMutability": "view",
			"type": "function"
		},
		{
			"inputs": [],
			"name": "PAUSER_ROLE",
			"outputs": [
				{
					"internalType": "bytes32",
					"name": "",
					"type": "bytes32"
				}
			],
			"stateMutability": "view",
			"type": "function"
		},
		{
			"inputs": [],
			"name": "UPGRADER_ROLE",
			"outputs": [
				{
					"internalType": "bytes32",
					"name": "",
					"type": "bytes32"
				}
			],
			"stateMutability": "view",
			"type": "function"
		},
		{
			"inputs": [
				{
					"internalType": "address",
					"name": "to",
					"type": "address"
				},
				{
					"internalType": "uint256",
					"name": "tokenId",
					"type": "uint256"
				}
			],
			"name": "approve",
			"outputs": [],
			"stateMutability": "nonpayable",
			"type": "function"
		},
		{
			"inputs": [
				{
					"internalType": "address",
					"name": "owner",
					"type": "address"
				}
			],
			"name": "balanceOf",
			"outputs": [
				{
					"internalType": "uint256",
					"name": "",
					"type": "uint256"
				}
			],
			"stateMutability": "view",
			"type": "function"
		},
		{
			"inputs": [
				{
					"internalType": "uint256[]",
					"name": "tokenIds",
					"type": "uint256[]"
				}
			],
			"name": "batchBurn",
			"outputs": [],
			"stateMutability": "nonpayable",
			"type": "function"
		},
		{
			"inputs": [
				{
					"internalType": "address[]",
					"name": "toAddresses",
					"type": "address[]"
				},
				{
					"internalType": "string[]",
					"name": "nickNames",
					"type": "string[]"
				},
				{
					"internalType": "string[]",
					"name": "roles",
					"type": "string[]"
				}
			],
			"name": "batchMint",
			"outputs": [],
			"stateMutability": "nonpayable",
			"type": "function"
		},
		{
			"inputs": [
				{
					"internalType": "uint256",
					"name": "tokenId",
					"type": "uint256"
				}
			],
			"name": "burn",
			"outputs": [],
			"stateMutability": "nonpayable",
			"type": "function"
		},
		{
			"inputs": [],
			"name": "defaultRole",
			"outputs": [
				{
					"internalType": "string",
					"name": "",
					"type": "string"
				}
			],
			"stateMutability": "view",
			"type": "function"
		},
		{
			"inputs": [
				{
					"internalType": "address",
					"name": "delegatee",
					"type": "address"
				}
			],
			"name": "delegate",
			"outputs": [],
			"stateMutability": "nonpayable",
			"type": "function"
		},
		{
			"inputs": [
				{
					"internalType": "address",
					"name": "delegatee",
					"type": "address"
				},
				{
					"internalType": "uint256",
					"name": "nonce",
					"type": "uint256"
				},
				{
					"internalType": "uint256",
					"name": "expiry",
					"type": "uint256"
				},
				{
					"internalType": "uint8",
					"name": "v",
					"type": "uint8"
				},
				{
					"internalType": "bytes32",
					"name": "r",
					"type": "bytes32"
				},
				{
					"internalType": "bytes32",
					"name": "s",
					"type": "bytes32"
				}
			],
			"name": "delegateBySig",
			"outputs": [],
			"stateMutability": "nonpayable",
			"type": "function"
		},
		{
			"inputs": [
				{
					"internalType": "address",
					"name": "account",
					"type": "address"
				}
			],
			"name": "delegates",
			"outputs": [
				{
					"internalType": "address",
					"name": "",
					"type": "address"
				}
			],
			"stateMutability": "view",
			"type": "function"
		},
		{
			"inputs": [
				{
					"internalType": "uint256",
					"name": "tokenId",
					"type": "uint256"
				}
			],
			"name": "getApproved",
			"outputs": [
				{
					"internalType": "address",
					"name": "",
					"type": "address"
				}
			],
			"stateMutability": "view",
			"type": "function"
		},
		{
			"inputs": [
				{
					"internalType": "uint256",
					"name": "blockNumber",
					"type": "uint256"
				}
			],
			"name": "getPastTotalSupply",
			"outputs": [
				{
					"internalType": "uint256",
					"name": "",
					"type": "uint256"
				}
			],
			"stateMutability": "view",
			"type": "function"
		},
		{
			"inputs": [
				{
					"internalType": "address",
					"name": "account",
					"type": "address"
				},
				{
					"internalType": "uint256",
					"name": "blockNumber",
					"type": "uint256"
				}
			],
			"name": "getPastVotes",
			"outputs": [
				{
					"internalType": "uint256",
					"name": "",
					"type": "uint256"
				}
			],
			"stateMutability": "view",
			"type": "function"
		},
		{
			"inputs": [
				{
					"internalType": "bytes32",
					"name": "role",
					"type": "bytes32"
				}
			],
			"name": "getRoleAdmin",
			"outputs": [
				{
					"internalType": "bytes32",
					"name": "",
					"type": "bytes32"
				}
			],
			"stateMutability": "view",
			"type": "function"
		},
		{
			"inputs": [
				{
					"internalType": "address",
					"name": "account",
					"type": "address"
				}
			],
			"name": "getVotes",
			"outputs": [
				{
					"internalType": "uint256",
					"name": "",
					"type": "uint256"
				}
			],
			"stateMutability": "view",
			"type": "function"
		},
		{
			"inputs": [
				{
					"internalType": "bytes32",
					"name": "role",
					"type": "bytes32"
				},
				{
					"internalType": "address",
					"name": "account",
					"type": "address"
				}
			],
			"name": "grantRole",
			"outputs": [],
			"stateMutability": "nonpayable",
			"type": "function"
		},
		{
			"inputs": [
				{
					"internalType": "bytes32",
					"name": "role",
					"type": "bytes32"
				},
				{
					"internalType": "address",
					"name": "account",
					"type": "address"
				}
			],
			"name": "hasRole",
			"outputs": [
				{
					"internalType": "bool",
					"name": "",
					"type": "bool"
				}
			],
			"stateMutability": "view",
			"type": "function"
		},
		{
			"inputs": [
				{
					"internalType": "string",
					"name": "name_",
					"type": "string"
				},
				{
					"internalType": "string",
					"name": "symbol_",
					"type": "string"
				},
				{
					"internalType": "string",
					"name": "organization_",
					"type": "string"
				},
				{
					"internalType": "string",
					"name": "defaultRole_",
					"type": "string"
				},
				{
					"internalType": "bool",
					"name": "transferable_",
					"type": "bool"
				},
				{
					"internalType": "bool",
					"name": "mintable_",
					"type": "bool"
				},
				{
					"internalType": "uint256",
					"name": "mintPrice_",
					"type": "uint256"
				},
				{
					"internalType": "address",
					"name": "ownerOfToken",
					"type": "address"
				}
			],
			"name": "initialize",
			"outputs": [],
			"stateMutability": "nonpayable",
			"type": "function"
		},
		{
			"inputs": [
				{
					"internalType": "address",
					"name": "owner",
					"type": "address"
				},
				{
					"internalType": "address",
					"name": "operator",
					"type": "address"
				}
			],
			"name": "isApprovedForAll",
			"outputs": [
				{
					"internalType": "bool",
					"name": "",
					"type": "bool"
				}
			],
			"stateMutability": "view",
			"type": "function"
		},
		{
			"inputs": [
				{
					"internalType": "address",
					"name": "to",
					"type": "address"
				},
				{
					"internalType": "string",
					"name": "nickName",
					"type": "string"
				},
				{
					"internalType": "string",
					"name": "role",
					"type": "string"
				}
			],
			"name": "mint",
			"outputs": [],
			"stateMutability": "payable",
			"type": "function"
		},
		{
			"inputs": [],
			"name": "mintPrice",
			"outputs": [
				{
					"internalType": "uint256",
					"name": "",
					"type": "uint256"
				}
			],
			"stateMutability": "view",
			"type": "function"
		},
		{
			"inputs": [],
			"name": "mintable",
			"outputs": [
				{
					"internalType": "bool",
					"name": "",
					"type": "bool"
				}
			],
			"stateMutability": "view",
			"type": "function"
		},
		{
			"inputs": [
				{
					"internalType": "uint256",
					"name": "tokenId",
					"type": "uint256"
				}
			],
			"name": "mintedTo",
			"outputs": [
				{
					"internalType": "address",
					"name": "",
					"type": "address"
				}
			],
			"stateMutability": "view",
			"type": "function"
		},
		{
			"inputs": [],
			"name": "name",
			"outputs": [
				{
					"internalType": "string",
					"name": "",
					"type": "string"
				}
			],
			"stateMutability": "view",
			"type": "function"
		},
		{
			"inputs": [],
			"name": "nextId",
			"outputs": [
				{
					"internalType": "uint256",
					"name": "",
					"type": "uint256"
				}
			],
			"stateMutability": "view",
			"type": "function"
		},
		{
			"inputs": [
				{
					"internalType": "uint256",
					"name": "tokenId",
					"type": "uint256"
				}
			],
			"name": "nickNameOf",
			"outputs": [
				{
					"internalType": "string",
					"name": "",
					"type": "string"
				}
			],
			"stateMutability": "view",
			"type": "function"
		},
		{
			"inputs": [
				{
					"internalType": "address",
					"name": "owner",
					"type": "address"
				}
			],
			"name": "nonces",
			"outputs": [
				{
					"internalType": "uint256",
					"name": "",
					"type": "uint256"
				}
			],
			"stateMutability": "view",
			"type": "function"
		},
		{
			"inputs": [],
			"name": "organization",
			"outputs": [
				{
					"internalType": "string",
					"name": "",
					"type": "string"
				}
			],
			"stateMutability": "view",
			"type": "function"
		},
		{
			"inputs": [
				{
					"internalType": "uint256",
					"name": "tokenId",
					"type": "uint256"
				}
			],
			"name": "ownerOf",
			"outputs": [
				{
					"internalType": "address",
					"name": "",
					"type": "address"
				}
			],
			"stateMutability": "view",
			"type": "function"
		},
		{
			"inputs": [],
			"name": "paused",
			"outputs": [
				{
					"internalType": "bool",
					"name": "",
					"type": "bool"
				}
			],
			"stateMutability": "view",
			"type": "function"
		},
		{
			"inputs": [],
			"name": "proxiableUUID",
			"outputs": [
				{
					"internalType": "bytes32",
					"name": "",
					"type": "bytes32"
				}
			],
			"stateMutability": "view",
			"type": "function"
		},
		{
			"inputs": [
				{
					"internalType": "bytes32",
					"name": "role",
					"type": "bytes32"
				},
				{
					"internalType": "address",
					"name": "account",
					"type": "address"
				}
			],
			"name": "renounceRole",
			"outputs": [],
			"stateMutability": "nonpayable",
			"type": "function"
		},
		{
			"inputs": [
				{
					"internalType": "bytes32",
					"name": "role",
					"type": "bytes32"
				},
				{
					"internalType": "address",
					"name": "account",
					"type": "address"
				}
			],
			"name": "revokeRole",
			"outputs": [],
			"stateMutability": "nonpayable",
			"type": "function"
		},
		{
			"inputs": [
				{
					"internalType": "uint256",
					"name": "tokenId",
					"type": "uint256"
				}
			],
			"name": "roleOf",
			"outputs": [
				{
					"internalType": "string",
					"name": "",
					"type": "string"
				}
			],
			"stateMutability": "view",
			"type": "function"
		},
		{
			"inputs": [
				{
					"internalType": "address",
					"name": "from",
					"type": "address"
				},
				{
					"internalType": "address",
					"name": "to",
					"type": "address"
				},
				{
					"internalType": "uint256",
					"name": "tokenId",
					"type": "uint256"
				}
			],
			"name": "safeTransferFrom",
			"outputs": [],
			"stateMutability": "nonpayable",
			"type": "function"
		},
		{
			"inputs": [
				{
					"internalType": "address",
					"name": "from",
					"type": "address"
				},
				{
					"internalType": "address",
					"name": "to",
					"type": "address"
				},
				{
					"internalType": "uint256",
					"name": "tokenId",
					"type": "uint256"
				},
				{
					"internalType": "bytes",
					"name": "_data",
					"type": "bytes"
				}
			],
			"name": "safeTransferFrom",
			"outputs": [],
			"stateMutability": "nonpayable",
			"type": "function"
		},
		{
			"inputs": [
				{
					"internalType": "address",
					"name": "operator",
					"type": "address"
				},
				{
					"internalType": "bool",
					"name": "approved",
					"type": "bool"
				}
			],
			"name": "setApprovalForAll",
			"outputs": [],
			"stateMutability": "nonpayable",
			"type": "function"
		},
		{
			"inputs": [
				{
					"internalType": "string",
					"name": "defaultRole_",
					"type": "string"
				}
			],
			"name": "setDefaultRole",
			"outputs": [],
			"stateMutability": "nonpayable",
			"type": "function"
		},
		{
			"inputs": [
				{
					"internalType": "uint256",
					"name": "mintPrice_",
					"type": "uint256"
				}
			],
			"name": "setMintPrice",
			"outputs": [],
			"stateMutability": "nonpayable",
			"type": "function"
		},
		{
			"inputs": [
				{
					"internalType": "string",
					"name": "_svgLogo",
					"type": "string"
				}
			],
			"name": "setSvgLogo",
			"outputs": [],
			"stateMutability": "nonpayable",
			"type": "function"
		},
		{
			"inputs": [
				{
					"internalType": "bytes4",
					"name": "interfaceId",
					"type": "bytes4"
				}
			],
			"name": "supportsInterface",
			"outputs": [
				{
					"internalType": "bool",
					"name": "",
					"type": "bool"
				}
			],
			"stateMutability": "view",
			"type": "function"
		},
		{
			"inputs": [],
			"name": "symbol",
			"outputs": [
				{
					"internalType": "string",
					"name": "",
					"type": "string"
				}
			],
			"stateMutability": "view",
			"type": "function"
		},
		{
			"inputs": [],
			"name": "toggleMintable",
			"outputs": [
				{
					"internalType": "bool",
					"name": "",
					"type": "bool"
				}
			],
			"stateMutability": "nonpayable",
			"type": "function"
		},
		{
			"inputs": [],
			"name": "toggleTransferable",
			"outputs": [
				{
					"internalType": "bool",
					"name": "",
					"type": "bool"
				}
			],
			"stateMutability": "nonpayable",
			"type": "function"
		},
		{
			"inputs": [
				{
					"internalType": "uint256",
					"name": "tokenId",
					"type": "uint256"
				}
			],
			"name": "tokenDataOf",
			"outputs": [
				{
					"components": [
						{
							"internalType": "uint256",
							"name": "id",
							"type": "uint256"
						},
						{
							"internalType": "address",
							"name": "owner",
							"type": "address"
						},
						{
							"internalType": "address",
							"name": "mintedTo",
							"type": "address"
						},
						{
							"internalType": "string",
							"name": "nickName",
							"type": "string"
						},
						{
							"internalType": "string",
							"name": "role",
							"type": "string"
						},
						{
							"internalType": "string",
							"name": "organization",
							"type": "string"
						},
						{
							"internalType": "string",
							"name": "tokenName",
							"type": "string"
						}
					],
					"internalType": "struct ProofOfVisit.TokenData",
					"name": "",
					"type": "tuple"
				}
			],
			"stateMutability": "view",
			"type": "function"
		},
		{
			"inputs": [
				{
					"internalType": "uint256",
					"name": "tokenId",
					"type": "uint256"
				}
			],
			"name": "tokenURI",
			"outputs": [
				{
					"internalType": "string",
					"name": "",
					"type": "string"
				}
			],
			"stateMutability": "view",
			"type": "function"
		},
		{
			"inputs": [
				{
					"internalType": "address",
					"name": "from",
					"type": "address"
				},
				{
					"internalType": "address",
					"name": "to",
					"type": "address"
				},
				{
					"internalType": "uint256",
					"name": "tokenId",
					"type": "uint256"
				}
			],
			"name": "transferFrom",
			"outputs": [],
			"stateMutability": "nonpayable",
			"type": "function"
		},
		{
			"inputs": [],
			"name": "transferable",
			"outputs": [
				{
					"internalType": "bool",
					"name": "",
					"type": "bool"
				}
			],
			"stateMutability": "view",
			"type": "function"
		},
		{
			"inputs": [
				{
					"internalType": "address",
					"name": "newImplementation",
					"type": "address"
				}
			],
			"name": "upgradeTo",
			"outputs": [],
			"stateMutability": "nonpayable",
			"type": "function"
		},
		{
			"inputs": [
				{
					"internalType": "address",
					"name": "newImplementation",
					"type": "address"
				},
				{
					"internalType": "bytes",
					"name": "data",
					"type": "bytes"
				}
			],
			"name": "upgradeToAndCall",
			"outputs": [],
			"stateMutability": "payable",
			"type": "function"
		},
		{
			"inputs": [],
			"name": "version",
			"outputs": [
				{
					"internalType": "uint256",
					"name": "",
					"type": "uint256"
				}
			],
			"stateMutability": "pure",
			"type": "function"
		},
		{
			"inputs": [],
			"name": "withdraw",
			"outputs": [],
			"stateMutability": "nonpayable",
			"type": "function"
		},
		{
			"stateMutability": "payable",
			"type": "receive"
		}
	]
}