{
	"contracts/Pentagon/DPDRepository.sol": {
		"DPDRepository": {
			"abi": [
				{
					"anonymous": false,
					"inputs": [
						{
							"indexed": true,
							"internalType": "uint256",
							"name": "dpdId",
							"type": "uint256"
						},
						{
							"indexed": false,
							"internalType": "address",
							"name": "owner",
							"type": "address"
						},
						{
							"indexed": false,
							"internalType": "address",
							"name": "updater",
							"type": "address"
						},
						{
							"indexed": false,
							"internalType": "bytes32",
							"name": "cid",
							"type": "bytes32"
						}
					],
					"name": "DPDAdded",
					"type": "event"
				},
				{
					"anonymous": false,
					"inputs": [
						{
							"indexed": true,
							"internalType": "uint256",
							"name": "dpdId",
							"type": "uint256"
						},
						{
							"indexed": false,
							"internalType": "address",
							"name": "newOwner",
							"type": "address"
						}
					],
					"name": "DPDOwnerChanged",
					"type": "event"
				},
				{
					"anonymous": false,
					"inputs": [
						{
							"indexed": true,
							"internalType": "uint256",
							"name": "dpdId",
							"type": "uint256"
						},
						{
							"indexed": true,
							"internalType": "uint256",
							"name": "version",
							"type": "uint256"
						},
						{
							"indexed": false,
							"internalType": "bytes32",
							"name": "cid",
							"type": "bytes32"
						}
					],
					"name": "DPDUpdated",
					"type": "event"
				},
				{
					"anonymous": false,
					"inputs": [
						{
							"indexed": true,
							"internalType": "uint256",
							"name": "dpdId",
							"type": "uint256"
						},
						{
							"indexed": false,
							"internalType": "address",
							"name": "newUpdater",
							"type": "address"
						}
					],
					"name": "DPDUpdaterChanged",
					"type": "event"
				},
				{
					"inputs": [
						{
							"internalType": "uint256",
							"name": "dpdId",
							"type": "uint256"
						},
						{
							"internalType": "address",
							"name": "owner",
							"type": "address"
						},
						{
							"internalType": "address",
							"name": "newUpdater",
							"type": "address"
						},
						{
							"internalType": "bytes32",
							"name": "cid",
							"type": "bytes32"
						}
					],
					"name": "addDpd",
					"outputs": [],
					"stateMutability": "nonpayable",
					"type": "function"
				},
				{
					"inputs": [
						{
							"internalType": "uint256",
							"name": "",
							"type": "uint256"
						}
					],
					"name": "dpds",
					"outputs": [
						{
							"internalType": "bytes32",
							"name": "cid",
							"type": "bytes32"
						},
						{
							"internalType": "address",
							"name": "owner",
							"type": "address"
						}
					],
					"stateMutability": "view",
					"type": "function"
				},
				{
					"inputs": [
						{
							"internalType": "uint256",
							"name": "dpdId",
							"type": "uint256"
						},
						{
							"internalType": "bytes32",
							"name": "cid",
							"type": "bytes32"
						}
					],
					"name": "updateDpdData",
					"outputs": [
						{
							"internalType": "uint256",
							"name": "",
							"type": "uint256"
						}
					],
					"stateMutability": "nonpayable",
					"type": "function"
				},
				{
					"inputs": [
						{
							"internalType": "uint256",
							"name": "dpdId",
							"type": "uint256"
						},
						{
							"internalType": "address",
							"name": "newOwner",
							"type": "address"
						}
					],
					"name": "updateDpdOwner",
					"outputs": [],
					"stateMutability": "nonpayable",
					"type": "function"
				},
				{
					"inputs": [
						{
							"internalType": "uint256",
							"name": "dpdId",
							"type": "uint256"
						},
						{
							"internalType": "address",
							"name": "newUpdater",
							"type": "address"
						}
					],
					"name": "updateDpdUpdater",
					"outputs": [],
					"stateMutability": "nonpayable",
					"type": "function"
				},
				{
					"inputs": [
						{
							"internalType": "uint256",
							"name": "",
							"type": "uint256"
						}
					],
					"name": "updater",
					"outputs": [
						{
							"internalType": "address",
							"name": "",
							"type": "address"
						}
					],
					"stateMutability": "view",
					"type": "function"
				},
				{
					"inputs": [
						{
							"internalType": "uint256",
							"name": "",
							"type": "uint256"
						}
					],
					"name": "versions",
					"outputs": [
						{
							"internalType": "uint256",
							"name": "",
							"type": "uint256"
						}
					],
					"stateMutability": "view",
					"type": "function"
				}
			],
			"devdoc": {
				"author": "David Lucid <david@pentagon.xyz>",
				"kind": "dev",
				"methods": {
					"addDpd(uint256,address,address,bytes32)": {
						"params": {
							"cid": "DPD CID (content identifier).",
							"newUpdater": "DPD updater address.",
							"owner": "DPD owner address."
						}
					},
					"updateDpdData(uint256,bytes32)": {
						"params": {
							"cid": "New DPD CID (content identifier).",
							"dpdId": "DPD's ID in this repository."
						}
					},
					"updateDpdOwner(uint256,address)": {
						"params": {
							"dpdId": "DPD's ID in this repository.",
							"newOwner": "New owner address for this DPD."
						}
					},
					"updateDpdUpdater(uint256,address)": {
						"params": {
							"dpdId": "DPD's ID in this repository.",
							"newUpdater": "New updater address for this DPD."
						}
					}
				},
				"stateVariables": {
					"updater": {
						"details": "Excluded from DPD struct to avoid unnecessary allocation memory."
					},
					"versions": {
						"details": "Excluded from DPD struct to avoid unnecessary allocation memory."
					}
				},
				"title": "DPDRepository",
				"version": 1
			},
			"evm": {
				"assembly": "    /* \"contracts/Pentagon/DPDRepository.sol\":276:3614  contract DPDRepository {... */\n  mstore(0x40, 0x80)\n  callvalue\n  dup1\n  iszero\n  tag_1\n  jumpi\n  0x00\n  dup1\n  revert\ntag_1:\n  pop\n  dataSize(sub_0)\n  dup1\n  dataOffset(sub_0)\n  0x00\n  codecopy\n  0x00\n  return\nstop\n\nsub_0: assembly {\n        /* \"contracts/Pentagon/DPDRepository.sol\":276:3614  contract DPDRepository {... */\n      mstore(0x40, 0x80)\n      callvalue\n      dup1\n      iszero\n      tag_1\n      jumpi\n      0x00\n      dup1\n      revert\n    tag_1:\n      pop\n      jumpi(tag_2, lt(calldatasize, 0x04))\n      shr(0xe0, calldataload(0x00))\n      dup1\n      0x7c6e99a4\n      gt\n      tag_10\n      jumpi\n      dup1\n      0x7c6e99a4\n      eq\n      tag_6\n      jumpi\n      dup1\n      0x87aee00e\n      eq\n      tag_7\n      jumpi\n      dup1\n      0x9e82b5d6\n      eq\n      tag_8\n      jumpi\n      dup1\n      0xf9124637\n      eq\n      tag_9\n      jumpi\n      jump(tag_2)\n    tag_10:\n      dup1\n      0x2acb38eb\n      eq\n      tag_3\n      jumpi\n      dup1\n      0x32bb50b2\n      eq\n      tag_4\n      jumpi\n      dup1\n      0x70424ffb\n      eq\n      tag_5\n      jumpi\n    tag_2:\n      0x00\n      dup1\n      revert\n        /* \"contracts/Pentagon/DPDRepository.sol\":461:496  mapping(uint256 => DPD) public dpds */\n    tag_3:\n      tag_11\n      0x04\n      dup1\n      calldatasize\n      sub\n      dup2\n      add\n      swap1\n      tag_12\n      swap2\n      swap1\n      tag_13\n      jump\t// in\n    tag_12:\n      tag_14\n      jump\t// in\n    tag_11:\n      mload(0x40)\n      tag_15\n      swap3\n      swap2\n      swap1\n      tag_16\n      jump\t// in\n    tag_15:\n      mload(0x40)\n      dup1\n      swap2\n      sub\n      swap1\n      return\n        /* \"contracts/Pentagon/DPDRepository.sol\":1609:2112  function addDpd(... */\n    tag_4:\n      tag_17\n      0x04\n      dup1\n      calldatasize\n      sub\n      dup2\n      add\n      swap1\n      tag_18\n      swap2\n      swap1\n      tag_19\n      jump\t// in\n    tag_18:\n      tag_20\n      jump\t// in\n    tag_17:\n      stop\n        /* \"contracts/Pentagon/DPDRepository.sol\":795:837  mapping(uint256 => address) public updater */\n    tag_5:\n      tag_21\n      0x04\n      dup1\n      calldatasize\n      sub\n      dup2\n      add\n      swap1\n      tag_22\n      swap2\n      swap1\n      tag_13\n      jump\t// in\n    tag_22:\n      tag_23\n      jump\t// in\n    tag_21:\n      mload(0x40)\n      tag_24\n      swap2\n      swap1\n      tag_25\n      jump\t// in\n    tag_24:\n      mload(0x40)\n      dup1\n      swap2\n      sub\n      swap1\n      return\n        /* \"contracts/Pentagon/DPDRepository.sol\":2269:2768  function updateDpdData(uint256 dpdId, bytes32 cid) external returns (uint256) {... */\n    tag_6:\n      tag_26\n      0x04\n      dup1\n      calldatasize\n      sub\n      dup2\n      add\n      swap1\n      tag_27\n      swap2\n      swap1\n      tag_28\n      jump\t// in\n    tag_27:\n      tag_29\n      jump\t// in\n    tag_26:\n      mload(0x40)\n      tag_30\n      swap2\n      swap1\n      tag_31\n      jump\t// in\n    tag_30:\n      mload(0x40)\n      dup1\n      swap2\n      sub\n      swap1\n      return\n        /* \"contracts/Pentagon/DPDRepository.sol\":624:667  mapping(uint256 => uint256) public versions */\n    tag_7:\n      tag_32\n      0x04\n      dup1\n      calldatasize\n      sub\n      dup2\n      add\n      swap1\n      tag_33\n      swap2\n      swap1\n      tag_13\n      jump\t// in\n    tag_33:\n      tag_34\n      jump\t// in\n    tag_32:\n      mload(0x40)\n      tag_35\n      swap2\n      swap1\n      tag_31\n      jump\t// in\n    tag_35:\n      mload(0x40)\n      dup1\n      swap2\n      sub\n      swap1\n      return\n        /* \"contracts/Pentagon/DPDRepository.sol\":3348:3612  function updateDpdUpdater(uint256 dpdId, address newUpdater) external {... */\n    tag_8:\n      tag_36\n      0x04\n      dup1\n      calldatasize\n      sub\n      dup2\n      add\n      swap1\n      tag_37\n      swap2\n      swap1\n      tag_38\n      jump\t// in\n    tag_37:\n      tag_39\n      jump\t// in\n    tag_36:\n      stop\n        /* \"contracts/Pentagon/DPDRepository.sol\":2927:3182  function updateDpdOwner(uint256 dpdId, address newOwner) external {... */\n    tag_9:\n      tag_40\n      0x04\n      dup1\n      calldatasize\n      sub\n      dup2\n      add\n      swap1\n      tag_41\n      swap2\n      swap1\n      tag_38\n      jump\t// in\n    tag_41:\n      tag_42\n      jump\t// in\n    tag_40:\n      stop\n        /* \"contracts/Pentagon/DPDRepository.sol\":461:496  mapping(uint256 => DPD) public dpds */\n    tag_14:\n      mstore(0x20, 0x00)\n      dup1\n      0x00\n      mstore\n      keccak256(0x00, 0x40)\n      0x00\n      swap2\n      pop\n      swap1\n      pop\n      dup1\n      0x00\n      add\n      sload\n      swap1\n      dup1\n      0x01\n      add\n      0x00\n      swap1\n      sload\n      swap1\n      0x0100\n      exp\n      swap1\n      div\n      0xffffffffffffffffffffffffffffffffffffffff\n      and\n      swap1\n      pop\n      dup3\n      jump\t// out\n        /* \"contracts/Pentagon/DPDRepository.sol\":1609:2112  function addDpd(... */\n    tag_20:\n        /* \"contracts/Pentagon/DPDRepository.sol\":1785:1786  0 */\n      0x00\n        /* \"contracts/Pentagon/DPDRepository.sol\":1766:1786  dpds[dpdId].cid == 0 */\n      dup1\n      shl\n        /* \"contracts/Pentagon/DPDRepository.sol\":1766:1770  dpds */\n      0x00\n        /* \"contracts/Pentagon/DPDRepository.sol\":1766:1777  dpds[dpdId] */\n      dup1\n        /* \"contracts/Pentagon/DPDRepository.sol\":1771:1776  dpdId */\n      dup7\n        /* \"contracts/Pentagon/DPDRepository.sol\":1766:1777  dpds[dpdId] */\n      dup2\n      mstore\n      0x20\n      add\n      swap1\n      dup2\n      mstore\n      0x20\n      add\n      0x00\n      keccak256\n        /* \"contracts/Pentagon/DPDRepository.sol\":1766:1781  dpds[dpdId].cid */\n      0x00\n      add\n      sload\n        /* \"contracts/Pentagon/DPDRepository.sol\":1766:1786  dpds[dpdId].cid == 0 */\n      eq\n        /* \"contracts/Pentagon/DPDRepository.sol\":1766:1837  dpds[dpdId].cid == 0 &&... */\n      dup1\n      iszero\n      tag_44\n      jumpi\n      pop\n        /* \"contracts/Pentagon/DPDRepository.sol\":1835:1836  0 */\n      0x00\n        /* \"contracts/Pentagon/DPDRepository.sol\":1806:1837  dpds[dpdId].owner == address(0) */\n      0xffffffffffffffffffffffffffffffffffffffff\n      and\n        /* \"contracts/Pentagon/DPDRepository.sol\":1806:1810  dpds */\n      0x00\n        /* \"contracts/Pentagon/DPDRepository.sol\":1806:1817  dpds[dpdId] */\n      dup1\n        /* \"contracts/Pentagon/DPDRepository.sol\":1811:1816  dpdId */\n      dup7\n        /* \"contracts/Pentagon/DPDRepository.sol\":1806:1817  dpds[dpdId] */\n      dup2\n      mstore\n      0x20\n      add\n      swap1\n      dup2\n      mstore\n      0x20\n      add\n      0x00\n      keccak256\n        /* \"contracts/Pentagon/DPDRepository.sol\":1806:1823  dpds[dpdId].owner */\n      0x01\n      add\n      0x00\n      swap1\n      sload\n      swap1\n      0x0100\n      exp\n      swap1\n      div\n      0xffffffffffffffffffffffffffffffffffffffff\n      and\n        /* \"contracts/Pentagon/DPDRepository.sol\":1806:1837  dpds[dpdId].owner == address(0) */\n      0xffffffffffffffffffffffffffffffffffffffff\n      and\n      eq\n        /* \"contracts/Pentagon/DPDRepository.sol\":1766:1837  dpds[dpdId].cid == 0 &&... */\n    tag_44:\n        /* \"contracts/Pentagon/DPDRepository.sol\":1766:1877  dpds[dpdId].cid == 0 &&... */\n      dup1\n      iszero\n      tag_45\n      jumpi\n      pop\n        /* \"contracts/Pentagon/DPDRepository.sol\":1876:1877  0 */\n      0x00\n        /* \"contracts/Pentagon/DPDRepository.sol\":1857:1865  versions */\n      0x01\n        /* \"contracts/Pentagon/DPDRepository.sol\":1857:1872  versions[dpdId] */\n      0x00\n        /* \"contracts/Pentagon/DPDRepository.sol\":1866:1871  dpdId */\n      dup7\n        /* \"contracts/Pentagon/DPDRepository.sol\":1857:1872  versions[dpdId] */\n      dup2\n      mstore\n      0x20\n      add\n      swap1\n      dup2\n      mstore\n      0x20\n      add\n      0x00\n      keccak256\n      sload\n        /* \"contracts/Pentagon/DPDRepository.sol\":1857:1877  versions[dpdId] == 0 */\n      eq\n        /* \"contracts/Pentagon/DPDRepository.sol\":1766:1877  dpds[dpdId].cid == 0 &&... */\n    tag_45:\n        /* \"contracts/Pentagon/DPDRepository.sol\":1766:1925  dpds[dpdId].cid == 0 &&... */\n      dup1\n      iszero\n      tag_46\n      jumpi\n      pop\n        /* \"contracts/Pentagon/DPDRepository.sol\":1923:1924  0 */\n      0x00\n        /* \"contracts/Pentagon/DPDRepository.sol\":1897:1925  updater[dpdId] == address(0) */\n      0xffffffffffffffffffffffffffffffffffffffff\n      and\n        /* \"contracts/Pentagon/DPDRepository.sol\":1897:1904  updater */\n      0x02\n        /* \"contracts/Pentagon/DPDRepository.sol\":1897:1911  updater[dpdId] */\n      0x00\n        /* \"contracts/Pentagon/DPDRepository.sol\":1905:1910  dpdId */\n      dup7\n        /* \"contracts/Pentagon/DPDRepository.sol\":1897:1911  updater[dpdId] */\n      dup2\n      mstore\n      0x20\n      add\n      swap1\n      dup2\n      mstore\n      0x20\n      add\n      0x00\n      keccak256\n      0x00\n      swap1\n      sload\n      swap1\n      0x0100\n      exp\n      swap1\n      div\n      0xffffffffffffffffffffffffffffffffffffffff\n      and\n        /* \"contracts/Pentagon/DPDRepository.sol\":1897:1925  updater[dpdId] == address(0) */\n      0xffffffffffffffffffffffffffffffffffffffff\n      and\n      eq\n        /* \"contracts/Pentagon/DPDRepository.sol\":1766:1925  dpds[dpdId].cid == 0 &&... */\n    tag_46:\n        /* \"contracts/Pentagon/DPDRepository.sol\":1745:1975  require(... */\n      tag_47\n      jumpi\n      mload(0x40)\n      0x08c379a000000000000000000000000000000000000000000000000000000000\n      dup2\n      mstore\n      0x04\n      add\n      tag_48\n      swap1\n      tag_49\n      jump\t// in\n    tag_48:\n      mload(0x40)\n      dup1\n      swap2\n      sub\n      swap1\n      revert\n    tag_47:\n        /* \"contracts/Pentagon/DPDRepository.sol\":1999:2014  DPD(cid, owner) */\n      mload(0x40)\n      dup1\n      0x40\n      add\n      0x40\n      mstore\n      dup1\n        /* \"contracts/Pentagon/DPDRepository.sol\":2003:2006  cid */\n      dup3\n        /* \"contracts/Pentagon/DPDRepository.sol\":1999:2014  DPD(cid, owner) */\n      dup2\n      mstore\n      0x20\n      add\n        /* \"contracts/Pentagon/DPDRepository.sol\":2008:2013  owner */\n      dup5\n        /* \"contracts/Pentagon/DPDRepository.sol\":1999:2014  DPD(cid, owner) */\n      0xffffffffffffffffffffffffffffffffffffffff\n      and\n      dup2\n      mstore\n      pop\n        /* \"contracts/Pentagon/DPDRepository.sol\":1985:1989  dpds */\n      0x00\n        /* \"contracts/Pentagon/DPDRepository.sol\":1985:1996  dpds[dpdId] */\n      dup1\n        /* \"contracts/Pentagon/DPDRepository.sol\":1990:1995  dpdId */\n      dup7\n        /* \"contracts/Pentagon/DPDRepository.sol\":1985:1996  dpds[dpdId] */\n      dup2\n      mstore\n      0x20\n      add\n      swap1\n      dup2\n      mstore\n      0x20\n      add\n      0x00\n      keccak256\n        /* \"contracts/Pentagon/DPDRepository.sol\":1985:2014  dpds[dpdId] = DPD(cid, owner) */\n      0x00\n      dup3\n      add\n      mload\n      dup2\n      0x00\n      add\n      sstore\n      0x20\n      dup3\n      add\n      mload\n      dup2\n      0x01\n      add\n      exp(0x0100, 0x00)\n      dup2\n      sload\n      dup2\n      0xffffffffffffffffffffffffffffffffffffffff\n      mul\n      not\n      and\n      swap1\n      dup4\n      0xffffffffffffffffffffffffffffffffffffffff\n      and\n      mul\n      or\n      swap1\n      sstore\n      pop\n      swap1\n      pop\n      pop\n        /* \"contracts/Pentagon/DPDRepository.sol\":2041:2051  newUpdater */\n      dup2\n        /* \"contracts/Pentagon/DPDRepository.sol\":2024:2031  updater */\n      0x02\n        /* \"contracts/Pentagon/DPDRepository.sol\":2024:2038  updater[dpdId] */\n      0x00\n        /* \"contracts/Pentagon/DPDRepository.sol\":2032:2037  dpdId */\n      dup7\n        /* \"contracts/Pentagon/DPDRepository.sol\":2024:2038  updater[dpdId] */\n      dup2\n      mstore\n      0x20\n      add\n      swap1\n      dup2\n      mstore\n      0x20\n      add\n      0x00\n      keccak256\n      0x00\n        /* \"contracts/Pentagon/DPDRepository.sol\":2024:2051  updater[dpdId] = newUpdater */\n      0x0100\n      exp\n      dup2\n      sload\n      dup2\n      0xffffffffffffffffffffffffffffffffffffffff\n      mul\n      not\n      and\n      swap1\n      dup4\n      0xffffffffffffffffffffffffffffffffffffffff\n      and\n      mul\n      or\n      swap1\n      sstore\n      pop\n        /* \"contracts/Pentagon/DPDRepository.sol\":2075:2080  dpdId */\n      dup4\n        /* \"contracts/Pentagon/DPDRepository.sol\":2066:2105  DPDAdded(dpdId, owner, newUpdater, cid) */\n      0x7a819bc189e5af9af3ca3a3f88cf6a58af007f71d6787675371248daebe2c3c1\n        /* \"contracts/Pentagon/DPDRepository.sol\":2082:2087  owner */\n      dup5\n        /* \"contracts/Pentagon/DPDRepository.sol\":2089:2099  newUpdater */\n      dup5\n        /* \"contracts/Pentagon/DPDRepository.sol\":2101:2104  cid */\n      dup5\n        /* \"contracts/Pentagon/DPDRepository.sol\":2066:2105  DPDAdded(dpdId, owner, newUpdater, cid) */\n      mload(0x40)\n      tag_50\n      swap4\n      swap3\n      swap2\n      swap1\n      tag_51\n      jump\t// in\n    tag_50:\n      mload(0x40)\n      dup1\n      swap2\n      sub\n      swap1\n      log2\n        /* \"contracts/Pentagon/DPDRepository.sol\":1609:2112  function addDpd(... */\n      pop\n      pop\n      pop\n      pop\n      jump\t// out\n        /* \"contracts/Pentagon/DPDRepository.sol\":795:837  mapping(uint256 => address) public updater */\n    tag_23:\n      mstore(0x20, 0x02)\n      dup1\n      0x00\n      mstore\n      keccak256(0x00, 0x40)\n      0x00\n      swap2\n      pop\n      sload\n      swap1\n      0x0100\n      exp\n      swap1\n      div\n      0xffffffffffffffffffffffffffffffffffffffff\n      and\n      dup2\n      jump\t// out\n        /* \"contracts/Pentagon/DPDRepository.sol\":2269:2768  function updateDpdData(uint256 dpdId, bytes32 cid) external returns (uint256) {... */\n    tag_29:\n        /* \"contracts/Pentagon/DPDRepository.sol\":2338:2345  uint256 */\n      0x00\n        /* \"contracts/Pentagon/DPDRepository.sol\":2357:2377  address this_updater */\n      dup1\n        /* \"contracts/Pentagon/DPDRepository.sol\":2380:2387  updater */\n      0x02\n        /* \"contracts/Pentagon/DPDRepository.sol\":2380:2394  updater[dpdId] */\n      0x00\n        /* \"contracts/Pentagon/DPDRepository.sol\":2388:2393  dpdId */\n      dup6\n        /* \"contracts/Pentagon/DPDRepository.sol\":2380:2394  updater[dpdId] */\n      dup2\n      mstore\n      0x20\n      add\n      swap1\n      dup2\n      mstore\n      0x20\n      add\n      0x00\n      keccak256\n      0x00\n      swap1\n      sload\n      swap1\n      0x0100\n      exp\n      swap1\n      div\n      0xffffffffffffffffffffffffffffffffffffffff\n      and\n        /* \"contracts/Pentagon/DPDRepository.sol\":2357:2394  address this_updater = updater[dpdId] */\n      swap1\n      pop\n        /* \"contracts/Pentagon/DPDRepository.sol\":2439:2451  this_updater */\n      dup1\n        /* \"contracts/Pentagon/DPDRepository.sol\":2425:2451  msg.sender == this_updater */\n      0xffffffffffffffffffffffffffffffffffffffff\n      and\n        /* \"contracts/Pentagon/DPDRepository.sol\":2425:2435  msg.sender */\n      caller\n        /* \"contracts/Pentagon/DPDRepository.sol\":2425:2451  msg.sender == this_updater */\n      0xffffffffffffffffffffffffffffffffffffffff\n      and\n      eq\n        /* \"contracts/Pentagon/DPDRepository.sol\":2425:2518  msg.sender == this_updater || (msg.sender == dpds[dpdId].owner && this_updater == address(0)) */\n      dup1\n      tag_53\n      jumpi\n      pop\n        /* \"contracts/Pentagon/DPDRepository.sol\":2470:2474  dpds */\n      0x00\n        /* \"contracts/Pentagon/DPDRepository.sol\":2470:2481  dpds[dpdId] */\n      dup1\n        /* \"contracts/Pentagon/DPDRepository.sol\":2475:2480  dpdId */\n      dup6\n        /* \"contracts/Pentagon/DPDRepository.sol\":2470:2481  dpds[dpdId] */\n      dup2\n      mstore\n      0x20\n      add\n      swap1\n      dup2\n      mstore\n      0x20\n      add\n      0x00\n      keccak256\n        /* \"contracts/Pentagon/DPDRepository.sol\":2470:2487  dpds[dpdId].owner */\n      0x01\n      add\n      0x00\n      swap1\n      sload\n      swap1\n      0x0100\n      exp\n      swap1\n      div\n      0xffffffffffffffffffffffffffffffffffffffff\n      and\n        /* \"contracts/Pentagon/DPDRepository.sol\":2456:2487  msg.sender == dpds[dpdId].owner */\n      0xffffffffffffffffffffffffffffffffffffffff\n      and\n        /* \"contracts/Pentagon/DPDRepository.sol\":2456:2466  msg.sender */\n      caller\n        /* \"contracts/Pentagon/DPDRepository.sol\":2456:2487  msg.sender == dpds[dpdId].owner */\n      0xffffffffffffffffffffffffffffffffffffffff\n      and\n      eq\n        /* \"contracts/Pentagon/DPDRepository.sol\":2456:2517  msg.sender == dpds[dpdId].owner && this_updater == address(0) */\n      dup1\n      iszero\n      tag_54\n      jumpi\n      pop\n        /* \"contracts/Pentagon/DPDRepository.sol\":2515:2516  0 */\n      0x00\n        /* \"contracts/Pentagon/DPDRepository.sol\":2491:2517  this_updater == address(0) */\n      0xffffffffffffffffffffffffffffffffffffffff\n      and\n        /* \"contracts/Pentagon/DPDRepository.sol\":2491:2503  this_updater */\n      dup2\n        /* \"contracts/Pentagon/DPDRepository.sol\":2491:2517  this_updater == address(0) */\n      0xffffffffffffffffffffffffffffffffffffffff\n      and\n      eq\n        /* \"contracts/Pentagon/DPDRepository.sol\":2456:2517  msg.sender == dpds[dpdId].owner && this_updater == address(0) */\n    tag_54:\n        /* \"contracts/Pentagon/DPDRepository.sol\":2425:2518  msg.sender == this_updater || (msg.sender == dpds[dpdId].owner && this_updater == address(0)) */\n    tag_53:\n        /* \"contracts/Pentagon/DPDRepository.sol\":2404:2606  require(... */\n      tag_55\n      jumpi\n      mload(0x40)\n      0x08c379a000000000000000000000000000000000000000000000000000000000\n      dup2\n      mstore\n      0x04\n      add\n      tag_56\n      swap1\n      tag_57\n      jump\t// in\n    tag_56:\n      mload(0x40)\n      dup1\n      swap2\n      sub\n      swap1\n      revert\n    tag_55:\n        /* \"contracts/Pentagon/DPDRepository.sol\":2634:2637  cid */\n      dup3\n        /* \"contracts/Pentagon/DPDRepository.sol\":2616:2620  dpds */\n      0x00\n        /* \"contracts/Pentagon/DPDRepository.sol\":2616:2627  dpds[dpdId] */\n      dup1\n        /* \"contracts/Pentagon/DPDRepository.sol\":2621:2626  dpdId */\n      dup7\n        /* \"contracts/Pentagon/DPDRepository.sol\":2616:2627  dpds[dpdId] */\n      dup2\n      mstore\n      0x20\n      add\n      swap1\n      dup2\n      mstore\n      0x20\n      add\n      0x00\n      keccak256\n        /* \"contracts/Pentagon/DPDRepository.sol\":2616:2631  dpds[dpdId].cid */\n      0x00\n      add\n        /* \"contracts/Pentagon/DPDRepository.sol\":2616:2637  dpds[dpdId].cid = cid */\n      dup2\n      swap1\n      sstore\n      pop\n        /* \"contracts/Pentagon/DPDRepository.sol\":2647:2665  uint256 newVersion */\n      0x00\n        /* \"contracts/Pentagon/DPDRepository.sol\":2668:2676  versions */\n      0x01\n        /* \"contracts/Pentagon/DPDRepository.sol\":2668:2683  versions[dpdId] */\n      0x00\n        /* \"contracts/Pentagon/DPDRepository.sol\":2677:2682  dpdId */\n      dup7\n        /* \"contracts/Pentagon/DPDRepository.sol\":2668:2683  versions[dpdId] */\n      dup2\n      mstore\n      0x20\n      add\n      swap1\n      dup2\n      mstore\n      0x20\n      add\n      0x00\n      keccak256\n      0x00\n        /* \"contracts/Pentagon/DPDRepository.sol\":2668:2685  versions[dpdId]++ */\n      dup2\n      sload\n      dup1\n      swap3\n      swap2\n      swap1\n      tag_58\n      swap1\n      tag_59\n      jump\t// in\n    tag_58:\n      swap2\n      swap1\n      pop\n      sstore\n        /* \"contracts/Pentagon/DPDRepository.sol\":2647:2685  uint256 newVersion = versions[dpdId]++ */\n      swap1\n      pop\n        /* \"contracts/Pentagon/DPDRepository.sol\":2718:2728  newVersion */\n      dup1\n        /* \"contracts/Pentagon/DPDRepository.sol\":2711:2716  dpdId */\n      dup6\n        /* \"contracts/Pentagon/DPDRepository.sol\":2700:2734  DPDUpdated(dpdId, newVersion, cid) */\n      0x21ce53a2bcaeac0d4b11cf79c3c34cebb8b2d3bec47f12d3715a271232c7346f\n        /* \"contracts/Pentagon/DPDRepository.sol\":2730:2733  cid */\n      dup7\n        /* \"contracts/Pentagon/DPDRepository.sol\":2700:2734  DPDUpdated(dpdId, newVersion, cid) */\n      mload(0x40)\n      tag_60\n      swap2\n      swap1\n      tag_61\n      jump\t// in\n    tag_60:\n      mload(0x40)\n      dup1\n      swap2\n      sub\n      swap1\n      log3\n        /* \"contracts/Pentagon/DPDRepository.sol\":2751:2761  newVersion */\n      dup1\n        /* \"contracts/Pentagon/DPDRepository.sol\":2744:2761  return newVersion */\n      swap3\n      pop\n      pop\n      pop\n        /* \"contracts/Pentagon/DPDRepository.sol\":2269:2768  function updateDpdData(uint256 dpdId, bytes32 cid) external returns (uint256) {... */\n      swap3\n      swap2\n      pop\n      pop\n      jump\t// out\n        /* \"contracts/Pentagon/DPDRepository.sol\":624:667  mapping(uint256 => uint256) public versions */\n    tag_34:\n      mstore(0x20, 0x01)\n      dup1\n      0x00\n      mstore\n      keccak256(0x00, 0x40)\n      0x00\n      swap2\n      pop\n      swap1\n      pop\n      sload\n      dup2\n      jump\t// out\n        /* \"contracts/Pentagon/DPDRepository.sol\":3348:3612  function updateDpdUpdater(uint256 dpdId, address newUpdater) external {... */\n    tag_39:\n        /* \"contracts/Pentagon/DPDRepository.sol\":3450:3454  dpds */\n      0x00\n        /* \"contracts/Pentagon/DPDRepository.sol\":3450:3461  dpds[dpdId] */\n      dup1\n        /* \"contracts/Pentagon/DPDRepository.sol\":3455:3460  dpdId */\n      dup4\n        /* \"contracts/Pentagon/DPDRepository.sol\":3450:3461  dpds[dpdId] */\n      dup2\n      mstore\n      0x20\n      add\n      swap1\n      dup2\n      mstore\n      0x20\n      add\n      0x00\n      keccak256\n        /* \"contracts/Pentagon/DPDRepository.sol\":3450:3467  dpds[dpdId].owner */\n      0x01\n      add\n      0x00\n      swap1\n      sload\n      swap1\n      0x0100\n      exp\n      swap1\n      div\n      0xffffffffffffffffffffffffffffffffffffffff\n      and\n        /* \"contracts/Pentagon/DPDRepository.sol\":3436:3467  msg.sender == dpds[dpdId].owner */\n      0xffffffffffffffffffffffffffffffffffffffff\n      and\n        /* \"contracts/Pentagon/DPDRepository.sol\":3436:3446  msg.sender */\n      caller\n        /* \"contracts/Pentagon/DPDRepository.sol\":3436:3467  msg.sender == dpds[dpdId].owner */\n      0xffffffffffffffffffffffffffffffffffffffff\n      and\n      eq\n        /* \"contracts/Pentagon/DPDRepository.sol\":3428:3517  require(msg.sender == dpds[dpdId].owner, \"Only DPD owner can update this DPD's updater.\") */\n      tag_63\n      jumpi\n      mload(0x40)\n      0x08c379a000000000000000000000000000000000000000000000000000000000\n      dup2\n      mstore\n      0x04\n      add\n      tag_64\n      swap1\n      tag_65\n      jump\t// in\n    tag_64:\n      mload(0x40)\n      dup1\n      swap2\n      sub\n      swap1\n      revert\n    tag_63:\n        /* \"contracts/Pentagon/DPDRepository.sol\":3544:3554  newUpdater */\n      dup1\n        /* \"contracts/Pentagon/DPDRepository.sol\":3527:3534  updater */\n      0x02\n        /* \"contracts/Pentagon/DPDRepository.sol\":3527:3541  updater[dpdId] */\n      0x00\n        /* \"contracts/Pentagon/DPDRepository.sol\":3535:3540  dpdId */\n      dup5\n        /* \"contracts/Pentagon/DPDRepository.sol\":3527:3541  updater[dpdId] */\n      dup2\n      mstore\n      0x20\n      add\n      swap1\n      dup2\n      mstore\n      0x20\n      add\n      0x00\n      keccak256\n      0x00\n        /* \"contracts/Pentagon/DPDRepository.sol\":3527:3554  updater[dpdId] = newUpdater */\n      0x0100\n      exp\n      dup2\n      sload\n      dup2\n      0xffffffffffffffffffffffffffffffffffffffff\n      mul\n      not\n      and\n      swap1\n      dup4\n      0xffffffffffffffffffffffffffffffffffffffff\n      and\n      mul\n      or\n      swap1\n      sstore\n      pop\n        /* \"contracts/Pentagon/DPDRepository.sol\":3587:3592  dpdId */\n      dup2\n        /* \"contracts/Pentagon/DPDRepository.sol\":3569:3605  DPDUpdaterChanged(dpdId, newUpdater) */\n      0x79e446654be92d32ba07e4935511105931d7b6dfbe59a0eb00e2ee27f6b5bf8e\n        /* \"contracts/Pentagon/DPDRepository.sol\":3594:3604  newUpdater */\n      dup3\n        /* \"contracts/Pentagon/DPDRepository.sol\":3569:3605  DPDUpdaterChanged(dpdId, newUpdater) */\n      mload(0x40)\n      tag_66\n      swap2\n      swap1\n      tag_25\n      jump\t// in\n    tag_66:\n      mload(0x40)\n      dup1\n      swap2\n      sub\n      swap1\n      log2\n        /* \"contracts/Pentagon/DPDRepository.sol\":3348:3612  function updateDpdUpdater(uint256 dpdId, address newUpdater) external {... */\n      pop\n      pop\n      jump\t// out\n        /* \"contracts/Pentagon/DPDRepository.sol\":2927:3182  function updateDpdOwner(uint256 dpdId, address newOwner) external {... */\n    tag_42:\n        /* \"contracts/Pentagon/DPDRepository.sol\":3025:3029  dpds */\n      0x00\n        /* \"contracts/Pentagon/DPDRepository.sol\":3025:3036  dpds[dpdId] */\n      dup1\n        /* \"contracts/Pentagon/DPDRepository.sol\":3030:3035  dpdId */\n      dup4\n        /* \"contracts/Pentagon/DPDRepository.sol\":3025:3036  dpds[dpdId] */\n      dup2\n      mstore\n      0x20\n      add\n      swap1\n      dup2\n      mstore\n      0x20\n      add\n      0x00\n      keccak256\n        /* \"contracts/Pentagon/DPDRepository.sol\":3025:3042  dpds[dpdId].owner */\n      0x01\n      add\n      0x00\n      swap1\n      sload\n      swap1\n      0x0100\n      exp\n      swap1\n      div\n      0xffffffffffffffffffffffffffffffffffffffff\n      and\n        /* \"contracts/Pentagon/DPDRepository.sol\":3011:3042  msg.sender == dpds[dpdId].owner */\n      0xffffffffffffffffffffffffffffffffffffffff\n      and\n        /* \"contracts/Pentagon/DPDRepository.sol\":3011:3021  msg.sender */\n      caller\n        /* \"contracts/Pentagon/DPDRepository.sol\":3011:3042  msg.sender == dpds[dpdId].owner */\n      0xffffffffffffffffffffffffffffffffffffffff\n      and\n      eq\n        /* \"contracts/Pentagon/DPDRepository.sol\":3003:3090  require(msg.sender == dpds[dpdId].owner, \"Only DPD owner can update this DPD's owner.\") */\n      tag_68\n      jumpi\n      mload(0x40)\n      0x08c379a000000000000000000000000000000000000000000000000000000000\n      dup2\n      mstore\n      0x04\n      add\n      tag_69\n      swap1\n      tag_70\n      jump\t// in\n    tag_69:\n      mload(0x40)\n      dup1\n      swap2\n      sub\n      swap1\n      revert\n    tag_68:\n        /* \"contracts/Pentagon/DPDRepository.sol\":3120:3128  newOwner */\n      dup1\n        /* \"contracts/Pentagon/DPDRepository.sol\":3100:3104  dpds */\n      0x00\n        /* \"contracts/Pentagon/DPDRepository.sol\":3100:3111  dpds[dpdId] */\n      dup1\n        /* \"contracts/Pentagon/DPDRepository.sol\":3105:3110  dpdId */\n      dup5\n        /* \"contracts/Pentagon/DPDRepository.sol\":3100:3111  dpds[dpdId] */\n      dup2\n      mstore\n      0x20\n      add\n      swap1\n      dup2\n      mstore\n      0x20\n      add\n      0x00\n      keccak256\n        /* \"contracts/Pentagon/DPDRepository.sol\":3100:3117  dpds[dpdId].owner */\n      0x01\n      add\n      0x00\n        /* \"contracts/Pentagon/DPDRepository.sol\":3100:3128  dpds[dpdId].owner = newOwner */\n      0x0100\n      exp\n      dup2\n      sload\n      dup2\n      0xffffffffffffffffffffffffffffffffffffffff\n      mul\n      not\n      and\n      swap1\n      dup4\n      0xffffffffffffffffffffffffffffffffffffffff\n      and\n      mul\n      or\n      swap1\n      sstore\n      pop\n        /* \"contracts/Pentagon/DPDRepository.sol\":3159:3164  dpdId */\n      dup2\n        /* \"contracts/Pentagon/DPDRepository.sol\":3143:3175  DPDOwnerChanged(dpdId, newOwner) */\n      0xaccf2a113cd975e46358a972cc76275e3d1f21b97ca3f668c911f91b0e9bf14a\n        /* \"contracts/Pentagon/DPDRepository.sol\":3166:3174  newOwner */\n      dup3\n        /* \"contracts/Pentagon/DPDRepository.sol\":3143:3175  DPDOwnerChanged(dpdId, newOwner) */\n      mload(0x40)\n      tag_71\n      swap2\n      swap1\n      tag_25\n      jump\t// in\n    tag_71:\n      mload(0x40)\n      dup1\n      swap2\n      sub\n      swap1\n      log2\n        /* \"contracts/Pentagon/DPDRepository.sol\":2927:3182  function updateDpdOwner(uint256 dpdId, address newOwner) external {... */\n      pop\n      pop\n      jump\t// out\n        /* \"#utility.yul\":88:205   */\n    tag_73:\n        /* \"#utility.yul\":197:198   */\n      0x00\n        /* \"#utility.yul\":194:195   */\n      dup1\n        /* \"#utility.yul\":187:199   */\n      revert\n        /* \"#utility.yul\":334:411   */\n    tag_75:\n        /* \"#utility.yul\":371:378   */\n      0x00\n        /* \"#utility.yul\":400:405   */\n      dup2\n        /* \"#utility.yul\":389:405   */\n      swap1\n      pop\n        /* \"#utility.yul\":334:411   */\n      swap2\n      swap1\n      pop\n      jump\t// out\n        /* \"#utility.yul\":417:539   */\n    tag_76:\n        /* \"#utility.yul\":490:514   */\n      tag_104\n        /* \"#utility.yul\":508:513   */\n      dup2\n        /* \"#utility.yul\":490:514   */\n      tag_75\n      jump\t// in\n    tag_104:\n        /* \"#utility.yul\":483:488   */\n      dup2\n        /* \"#utility.yul\":480:515   */\n      eq\n        /* \"#utility.yul\":470:533   */\n      tag_105\n      jumpi\n        /* \"#utility.yul\":529:530   */\n      0x00\n        /* \"#utility.yul\":526:527   */\n      dup1\n        /* \"#utility.yul\":519:531   */\n      revert\n        /* \"#utility.yul\":470:533   */\n    tag_105:\n        /* \"#utility.yul\":417:539   */\n      pop\n      jump\t// out\n        /* \"#utility.yul\":545:684   */\n    tag_77:\n        /* \"#utility.yul\":591:596   */\n      0x00\n        /* \"#utility.yul\":629:635   */\n      dup2\n        /* \"#utility.yul\":616:636   */\n      calldataload\n        /* \"#utility.yul\":607:636   */\n      swap1\n      pop\n        /* \"#utility.yul\":645:678   */\n      tag_107\n        /* \"#utility.yul\":672:677   */\n      dup2\n        /* \"#utility.yul\":645:678   */\n      tag_76\n      jump\t// in\n    tag_107:\n        /* \"#utility.yul\":545:684   */\n      swap3\n      swap2\n      pop\n      pop\n      jump\t// out\n        /* \"#utility.yul\":690:1019   */\n    tag_13:\n        /* \"#utility.yul\":749:755   */\n      0x00\n        /* \"#utility.yul\":798:800   */\n      0x20\n        /* \"#utility.yul\":786:795   */\n      dup3\n        /* \"#utility.yul\":777:784   */\n      dup5\n        /* \"#utility.yul\":773:796   */\n      sub\n        /* \"#utility.yul\":769:801   */\n      slt\n        /* \"#utility.yul\":766:885   */\n      iszero\n      tag_109\n      jumpi\n        /* \"#utility.yul\":804:883   */\n      tag_110\n      tag_73\n      jump\t// in\n    tag_110:\n        /* \"#utility.yul\":766:885   */\n    tag_109:\n        /* \"#utility.yul\":924:925   */\n      0x00\n        /* \"#utility.yul\":949:1002   */\n      tag_111\n        /* \"#utility.yul\":994:1001   */\n      dup5\n        /* \"#utility.yul\":985:991   */\n      dup3\n        /* \"#utility.yul\":974:983   */\n      dup6\n        /* \"#utility.yul\":970:992   */\n      add\n        /* \"#utility.yul\":949:1002   */\n      tag_77\n      jump\t// in\n    tag_111:\n        /* \"#utility.yul\":939:1002   */\n      swap2\n      pop\n        /* \"#utility.yul\":895:1012   */\n      pop\n        /* \"#utility.yul\":690:1019   */\n      swap3\n      swap2\n      pop\n      pop\n      jump\t// out\n        /* \"#utility.yul\":1025:1102   */\n    tag_78:\n        /* \"#utility.yul\":1062:1069   */\n      0x00\n        /* \"#utility.yul\":1091:1096   */\n      dup2\n        /* \"#utility.yul\":1080:1096   */\n      swap1\n      pop\n        /* \"#utility.yul\":1025:1102   */\n      swap2\n      swap1\n      pop\n      jump\t// out\n        /* \"#utility.yul\":1108:1226   */\n    tag_79:\n        /* \"#utility.yul\":1195:1219   */\n      tag_114\n        /* \"#utility.yul\":1213:1218   */\n      dup2\n        /* \"#utility.yul\":1195:1219   */\n      tag_78\n      jump\t// in\n    tag_114:\n        /* \"#utility.yul\":1190:1193   */\n      dup3\n        /* \"#utility.yul\":1183:1220   */\n      mstore\n        /* \"#utility.yul\":1108:1226   */\n      pop\n      pop\n      jump\t// out\n        /* \"#utility.yul\":1232:1358   */\n    tag_80:\n        /* \"#utility.yul\":1269:1276   */\n      0x00\n        /* \"#utility.yul\":1309:1351   */\n      0xffffffffffffffffffffffffffffffffffffffff\n        /* \"#utility.yul\":1302:1307   */\n      dup3\n        /* \"#utility.yul\":1298:1352   */\n      and\n        /* \"#utility.yul\":1287:1352   */\n      swap1\n      pop\n        /* \"#utility.yul\":1232:1358   */\n      swap2\n      swap1\n      pop\n      jump\t// out\n        /* \"#utility.yul\":1364:1460   */\n    tag_81:\n        /* \"#utility.yul\":1401:1408   */\n      0x00\n        /* \"#utility.yul\":1430:1454   */\n      tag_117\n        /* \"#utility.yul\":1448:1453   */\n      dup3\n        /* \"#utility.yul\":1430:1454   */\n      tag_80\n      jump\t// in\n    tag_117:\n        /* \"#utility.yul\":1419:1454   */\n      swap1\n      pop\n        /* \"#utility.yul\":1364:1460   */\n      swap2\n      swap1\n      pop\n      jump\t// out\n        /* \"#utility.yul\":1466:1584   */\n    tag_82:\n        /* \"#utility.yul\":1553:1577   */\n      tag_119\n        /* \"#utility.yul\":1571:1576   */\n      dup2\n        /* \"#utility.yul\":1553:1577   */\n      tag_81\n      jump\t// in\n    tag_119:\n        /* \"#utility.yul\":1548:1551   */\n      dup3\n        /* \"#utility.yul\":1541:1578   */\n      mstore\n        /* \"#utility.yul\":1466:1584   */\n      pop\n      pop\n      jump\t// out\n        /* \"#utility.yul\":1590:1922   */\n    tag_16:\n        /* \"#utility.yul\":1711:1715   */\n      0x00\n        /* \"#utility.yul\":1749:1751   */\n      0x40\n        /* \"#utility.yul\":1738:1747   */\n      dup3\n        /* \"#utility.yul\":1734:1752   */\n      add\n        /* \"#utility.yul\":1726:1752   */\n      swap1\n      pop\n        /* \"#utility.yul\":1762:1833   */\n      tag_121\n        /* \"#utility.yul\":1830:1831   */\n      0x00\n        /* \"#utility.yul\":1819:1828   */\n      dup4\n        /* \"#utility.yul\":1815:1832   */\n      add\n        /* \"#utility.yul\":1806:1812   */\n      dup6\n        /* \"#utility.yul\":1762:1833   */\n      tag_79\n      jump\t// in\n    tag_121:\n        /* \"#utility.yul\":1843:1915   */\n      tag_122\n        /* \"#utility.yul\":1911:1913   */\n      0x20\n        /* \"#utility.yul\":1900:1909   */\n      dup4\n        /* \"#utility.yul\":1896:1914   */\n      add\n        /* \"#utility.yul\":1887:1893   */\n      dup5\n        /* \"#utility.yul\":1843:1915   */\n      tag_82\n      jump\t// in\n    tag_122:\n        /* \"#utility.yul\":1590:1922   */\n      swap4\n      swap3\n      pop\n      pop\n      pop\n      jump\t// out\n        /* \"#utility.yul\":1928:2050   */\n    tag_83:\n        /* \"#utility.yul\":2001:2025   */\n      tag_124\n        /* \"#utility.yul\":2019:2024   */\n      dup2\n        /* \"#utility.yul\":2001:2025   */\n      tag_81\n      jump\t// in\n    tag_124:\n        /* \"#utility.yul\":1994:1999   */\n      dup2\n        /* \"#utility.yul\":1991:2026   */\n      eq\n        /* \"#utility.yul\":1981:2044   */\n      tag_125\n      jumpi\n        /* \"#utility.yul\":2040:2041   */\n      0x00\n        /* \"#utility.yul\":2037:2038   */\n      dup1\n        /* \"#utility.yul\":2030:2042   */\n      revert\n        /* \"#utility.yul\":1981:2044   */\n    tag_125:\n        /* \"#utility.yul\":1928:2050   */\n      pop\n      jump\t// out\n        /* \"#utility.yul\":2056:2195   */\n    tag_84:\n        /* \"#utility.yul\":2102:2107   */\n      0x00\n        /* \"#utility.yul\":2140:2146   */\n      dup2\n        /* \"#utility.yul\":2127:2147   */\n      calldataload\n        /* \"#utility.yul\":2118:2147   */\n      swap1\n      pop\n        /* \"#utility.yul\":2156:2189   */\n      tag_127\n        /* \"#utility.yul\":2183:2188   */\n      dup2\n        /* \"#utility.yul\":2156:2189   */\n      tag_83\n      jump\t// in\n    tag_127:\n        /* \"#utility.yul\":2056:2195   */\n      swap3\n      swap2\n      pop\n      pop\n      jump\t// out\n        /* \"#utility.yul\":2201:2323   */\n    tag_85:\n        /* \"#utility.yul\":2274:2298   */\n      tag_129\n        /* \"#utility.yul\":2292:2297   */\n      dup2\n        /* \"#utility.yul\":2274:2298   */\n      tag_78\n      jump\t// in\n    tag_129:\n        /* \"#utility.yul\":2267:2272   */\n      dup2\n        /* \"#utility.yul\":2264:2299   */\n      eq\n        /* \"#utility.yul\":2254:2317   */\n      tag_130\n      jumpi\n        /* \"#utility.yul\":2313:2314   */\n      0x00\n        /* \"#utility.yul\":2310:2311   */\n      dup1\n        /* \"#utility.yul\":2303:2315   */\n      revert\n        /* \"#utility.yul\":2254:2317   */\n    tag_130:\n        /* \"#utility.yul\":2201:2323   */\n      pop\n      jump\t// out\n        /* \"#utility.yul\":2329:2468   */\n    tag_86:\n        /* \"#utility.yul\":2375:2380   */\n      0x00\n        /* \"#utility.yul\":2413:2419   */\n      dup2\n        /* \"#utility.yul\":2400:2420   */\n      calldataload\n        /* \"#utility.yul\":2391:2420   */\n      swap1\n      pop\n        /* \"#utility.yul\":2429:2462   */\n      tag_132\n        /* \"#utility.yul\":2456:2461   */\n      dup2\n        /* \"#utility.yul\":2429:2462   */\n      tag_85\n      jump\t// in\n    tag_132:\n        /* \"#utility.yul\":2329:2468   */\n      swap3\n      swap2\n      pop\n      pop\n      jump\t// out\n        /* \"#utility.yul\":2474:3239   */\n    tag_19:\n        /* \"#utility.yul\":2560:2566   */\n      0x00\n        /* \"#utility.yul\":2568:2574   */\n      dup1\n        /* \"#utility.yul\":2576:2582   */\n      0x00\n        /* \"#utility.yul\":2584:2590   */\n      dup1\n        /* \"#utility.yul\":2633:2636   */\n      0x80\n        /* \"#utility.yul\":2621:2630   */\n      dup6\n        /* \"#utility.yul\":2612:2619   */\n      dup8\n        /* \"#utility.yul\":2608:2631   */\n      sub\n        /* \"#utility.yul\":2604:2637   */\n      slt\n        /* \"#utility.yul\":2601:2721   */\n      iszero\n      tag_134\n      jumpi\n        /* \"#utility.yul\":2640:2719   */\n      tag_135\n      tag_73\n      jump\t// in\n    tag_135:\n        /* \"#utility.yul\":2601:2721   */\n    tag_134:\n        /* \"#utility.yul\":2760:2761   */\n      0x00\n        /* \"#utility.yul\":2785:2838   */\n      tag_136\n        /* \"#utility.yul\":2830:2837   */\n      dup8\n        /* \"#utility.yul\":2821:2827   */\n      dup3\n        /* \"#utility.yul\":2810:2819   */\n      dup9\n        /* \"#utility.yul\":2806:2828   */\n      add\n        /* \"#utility.yul\":2785:2838   */\n      tag_77\n      jump\t// in\n    tag_136:\n        /* \"#utility.yul\":2775:2838   */\n      swap5\n      pop\n        /* \"#utility.yul\":2731:2848   */\n      pop\n        /* \"#utility.yul\":2887:2889   */\n      0x20\n        /* \"#utility.yul\":2913:2966   */\n      tag_137\n        /* \"#utility.yul\":2958:2965   */\n      dup8\n        /* \"#utility.yul\":2949:2955   */\n      dup3\n        /* \"#utility.yul\":2938:2947   */\n      dup9\n        /* \"#utility.yul\":2934:2956   */\n      add\n        /* \"#utility.yul\":2913:2966   */\n      tag_84\n      jump\t// in\n    tag_137:\n        /* \"#utility.yul\":2903:2966   */\n      swap4\n      pop\n        /* \"#utility.yul\":2858:2976   */\n      pop\n        /* \"#utility.yul\":3015:3017   */\n      0x40\n        /* \"#utility.yul\":3041:3094   */\n      tag_138\n        /* \"#utility.yul\":3086:3093   */\n      dup8\n        /* \"#utility.yul\":3077:3083   */\n      dup3\n        /* \"#utility.yul\":3066:3075   */\n      dup9\n        /* \"#utility.yul\":3062:3084   */\n      add\n        /* \"#utility.yul\":3041:3094   */\n      tag_84\n      jump\t// in\n    tag_138:\n        /* \"#utility.yul\":3031:3094   */\n      swap3\n      pop\n        /* \"#utility.yul\":2986:3104   */\n      pop\n        /* \"#utility.yul\":3143:3145   */\n      0x60\n        /* \"#utility.yul\":3169:3222   */\n      tag_139\n        /* \"#utility.yul\":3214:3221   */\n      dup8\n        /* \"#utility.yul\":3205:3211   */\n      dup3\n        /* \"#utility.yul\":3194:3203   */\n      dup9\n        /* \"#utility.yul\":3190:3212   */\n      add\n        /* \"#utility.yul\":3169:3222   */\n      tag_86\n      jump\t// in\n    tag_139:\n        /* \"#utility.yul\":3159:3222   */\n      swap2\n      pop\n        /* \"#utility.yul\":3114:3232   */\n      pop\n        /* \"#utility.yul\":2474:3239   */\n      swap3\n      swap6\n      swap2\n      swap5\n      pop\n      swap3\n      pop\n      jump\t// out\n        /* \"#utility.yul\":3245:3467   */\n    tag_25:\n        /* \"#utility.yul\":3338:3342   */\n      0x00\n        /* \"#utility.yul\":3376:3378   */\n      0x20\n        /* \"#utility.yul\":3365:3374   */\n      dup3\n        /* \"#utility.yul\":3361:3379   */\n      add\n        /* \"#utility.yul\":3353:3379   */\n      swap1\n      pop\n        /* \"#utility.yul\":3389:3460   */\n      tag_141\n        /* \"#utility.yul\":3457:3458   */\n      0x00\n        /* \"#utility.yul\":3446:3455   */\n      dup4\n        /* \"#utility.yul\":3442:3459   */\n      add\n        /* \"#utility.yul\":3433:3439   */\n      dup5\n        /* \"#utility.yul\":3389:3460   */\n      tag_82\n      jump\t// in\n    tag_141:\n        /* \"#utility.yul\":3245:3467   */\n      swap3\n      swap2\n      pop\n      pop\n      jump\t// out\n        /* \"#utility.yul\":3473:3947   */\n    tag_28:\n        /* \"#utility.yul\":3541:3547   */\n      0x00\n        /* \"#utility.yul\":3549:3555   */\n      dup1\n        /* \"#utility.yul\":3598:3600   */\n      0x40\n        /* \"#utility.yul\":3586:3595   */\n      dup4\n        /* \"#utility.yul\":3577:3584   */\n      dup6\n        /* \"#utility.yul\":3573:3596   */\n      sub\n        /* \"#utility.yul\":3569:3601   */\n      slt\n        /* \"#utility.yul\":3566:3685   */\n      iszero\n      tag_143\n      jumpi\n        /* \"#utility.yul\":3604:3683   */\n      tag_144\n      tag_73\n      jump\t// in\n    tag_144:\n        /* \"#utility.yul\":3566:3685   */\n    tag_143:\n        /* \"#utility.yul\":3724:3725   */\n      0x00\n        /* \"#utility.yul\":3749:3802   */\n      tag_145\n        /* \"#utility.yul\":3794:3801   */\n      dup6\n        /* \"#utility.yul\":3785:3791   */\n      dup3\n        /* \"#utility.yul\":3774:3783   */\n      dup7\n        /* \"#utility.yul\":3770:3792   */\n      add\n        /* \"#utility.yul\":3749:3802   */\n      tag_77\n      jump\t// in\n    tag_145:\n        /* \"#utility.yul\":3739:3802   */\n      swap3\n      pop\n        /* \"#utility.yul\":3695:3812   */\n      pop\n        /* \"#utility.yul\":3851:3853   */\n      0x20\n        /* \"#utility.yul\":3877:3930   */\n      tag_146\n        /* \"#utility.yul\":3922:3929   */\n      dup6\n        /* \"#utility.yul\":3913:3919   */\n      dup3\n        /* \"#utility.yul\":3902:3911   */\n      dup7\n        /* \"#utility.yul\":3898:3920   */\n      add\n        /* \"#utility.yul\":3877:3930   */\n      tag_86\n      jump\t// in\n    tag_146:\n        /* \"#utility.yul\":3867:3930   */\n      swap2\n      pop\n        /* \"#utility.yul\":3822:3940   */\n      pop\n        /* \"#utility.yul\":3473:3947   */\n      swap3\n      pop\n      swap3\n      swap1\n      pop\n      jump\t// out\n        /* \"#utility.yul\":3953:4071   */\n    tag_87:\n        /* \"#utility.yul\":4040:4064   */\n      tag_148\n        /* \"#utility.yul\":4058:4063   */\n      dup2\n        /* \"#utility.yul\":4040:4064   */\n      tag_75\n      jump\t// in\n    tag_148:\n        /* \"#utility.yul\":4035:4038   */\n      dup3\n        /* \"#utility.yul\":4028:4065   */\n      mstore\n        /* \"#utility.yul\":3953:4071   */\n      pop\n      pop\n      jump\t// out\n        /* \"#utility.yul\":4077:4299   */\n    tag_31:\n        /* \"#utility.yul\":4170:4174   */\n      0x00\n        /* \"#utility.yul\":4208:4210   */\n      0x20\n        /* \"#utility.yul\":4197:4206   */\n      dup3\n        /* \"#utility.yul\":4193:4211   */\n      add\n        /* \"#utility.yul\":4185:4211   */\n      swap1\n      pop\n        /* \"#utility.yul\":4221:4292   */\n      tag_150\n        /* \"#utility.yul\":4289:4290   */\n      0x00\n        /* \"#utility.yul\":4278:4287   */\n      dup4\n        /* \"#utility.yul\":4274:4291   */\n      add\n        /* \"#utility.yul\":4265:4271   */\n      dup5\n        /* \"#utility.yul\":4221:4292   */\n      tag_87\n      jump\t// in\n    tag_150:\n        /* \"#utility.yul\":4077:4299   */\n      swap3\n      swap2\n      pop\n      pop\n      jump\t// out\n        /* \"#utility.yul\":4305:4779   */\n    tag_38:\n        /* \"#utility.yul\":4373:4379   */\n      0x00\n        /* \"#utility.yul\":4381:4387   */\n      dup1\n        /* \"#utility.yul\":4430:4432   */\n      0x40\n        /* \"#utility.yul\":4418:4427   */\n      dup4\n        /* \"#utility.yul\":4409:4416   */\n      dup6\n        /* \"#utility.yul\":4405:4428   */\n      sub\n        /* \"#utility.yul\":4401:4433   */\n      slt\n        /* \"#utility.yul\":4398:4517   */\n      iszero\n      tag_152\n      jumpi\n        /* \"#utility.yul\":4436:4515   */\n      tag_153\n      tag_73\n      jump\t// in\n    tag_153:\n        /* \"#utility.yul\":4398:4517   */\n    tag_152:\n        /* \"#utility.yul\":4556:4557   */\n      0x00\n        /* \"#utility.yul\":4581:4634   */\n      tag_154\n        /* \"#utility.yul\":4626:4633   */\n      dup6\n        /* \"#utility.yul\":4617:4623   */\n      dup3\n        /* \"#utility.yul\":4606:4615   */\n      dup7\n        /* \"#utility.yul\":4602:4624   */\n      add\n        /* \"#utility.yul\":4581:4634   */\n      tag_77\n      jump\t// in\n    tag_154:\n        /* \"#utility.yul\":4571:4634   */\n      swap3\n      pop\n        /* \"#utility.yul\":4527:4644   */\n      pop\n        /* \"#utility.yul\":4683:4685   */\n      0x20\n        /* \"#utility.yul\":4709:4762   */\n      tag_155\n        /* \"#utility.yul\":4754:4761   */\n      dup6\n        /* \"#utility.yul\":4745:4751   */\n      dup3\n        /* \"#utility.yul\":4734:4743   */\n      dup7\n        /* \"#utility.yul\":4730:4752   */\n      add\n        /* \"#utility.yul\":4709:4762   */\n      tag_84\n      jump\t// in\n    tag_155:\n        /* \"#utility.yul\":4699:4762   */\n      swap2\n      pop\n        /* \"#utility.yul\":4654:4772   */\n      pop\n        /* \"#utility.yul\":4305:4779   */\n      swap3\n      pop\n      swap3\n      swap1\n      pop\n      jump\t// out\n        /* \"#utility.yul\":4785:4954   */\n    tag_88:\n        /* \"#utility.yul\":4869:4880   */\n      0x00\n        /* \"#utility.yul\":4903:4909   */\n      dup3\n        /* \"#utility.yul\":4898:4901   */\n      dup3\n        /* \"#utility.yul\":4891:4910   */\n      mstore\n        /* \"#utility.yul\":4943:4947   */\n      0x20\n        /* \"#utility.yul\":4938:4941   */\n      dup3\n        /* \"#utility.yul\":4934:4948   */\n      add\n        /* \"#utility.yul\":4919:4948   */\n      swap1\n      pop\n        /* \"#utility.yul\":4785:4954   */\n      swap3\n      swap2\n      pop\n      pop\n      jump\t// out\n        /* \"#utility.yul\":4960:5134   */\n    tag_89:\n        /* \"#utility.yul\":5100:5126   */\n      0x44504420616c726561647920696e697469616c697a65642e0000000000000000\n        /* \"#utility.yul\":5096:5097   */\n      0x00\n        /* \"#utility.yul\":5088:5094   */\n      dup3\n        /* \"#utility.yul\":5084:5098   */\n      add\n        /* \"#utility.yul\":5077:5127   */\n      mstore\n        /* \"#utility.yul\":4960:5134   */\n      pop\n      jump\t// out\n        /* \"#utility.yul\":5140:5506   */\n    tag_90:\n        /* \"#utility.yul\":5282:5285   */\n      0x00\n        /* \"#utility.yul\":5303:5370   */\n      tag_159\n        /* \"#utility.yul\":5367:5369   */\n      0x18\n        /* \"#utility.yul\":5362:5365   */\n      dup4\n        /* \"#utility.yul\":5303:5370   */\n      tag_88\n      jump\t// in\n    tag_159:\n        /* \"#utility.yul\":5296:5370   */\n      swap2\n      pop\n        /* \"#utility.yul\":5379:5472   */\n      tag_160\n        /* \"#utility.yul\":5468:5471   */\n      dup3\n        /* \"#utility.yul\":5379:5472   */\n      tag_89\n      jump\t// in\n    tag_160:\n        /* \"#utility.yul\":5497:5499   */\n      0x20\n        /* \"#utility.yul\":5492:5495   */\n      dup3\n        /* \"#utility.yul\":5488:5500   */\n      add\n        /* \"#utility.yul\":5481:5500   */\n      swap1\n      pop\n        /* \"#utility.yul\":5140:5506   */\n      swap2\n      swap1\n      pop\n      jump\t// out\n        /* \"#utility.yul\":5512:5931   */\n    tag_49:\n        /* \"#utility.yul\":5678:5682   */\n      0x00\n        /* \"#utility.yul\":5716:5718   */\n      0x20\n        /* \"#utility.yul\":5705:5714   */\n      dup3\n        /* \"#utility.yul\":5701:5719   */\n      add\n        /* \"#utility.yul\":5693:5719   */\n      swap1\n      pop\n        /* \"#utility.yul\":5765:5774   */\n      dup2\n        /* \"#utility.yul\":5759:5763   */\n      dup2\n        /* \"#utility.yul\":5755:5775   */\n      sub\n        /* \"#utility.yul\":5751:5752   */\n      0x00\n        /* \"#utility.yul\":5740:5749   */\n      dup4\n        /* \"#utility.yul\":5736:5753   */\n      add\n        /* \"#utility.yul\":5729:5776   */\n      mstore\n        /* \"#utility.yul\":5793:5924   */\n      tag_162\n        /* \"#utility.yul\":5919:5923   */\n      dup2\n        /* \"#utility.yul\":5793:5924   */\n      tag_90\n      jump\t// in\n    tag_162:\n        /* \"#utility.yul\":5785:5924   */\n      swap1\n      pop\n        /* \"#utility.yul\":5512:5931   */\n      swap2\n      swap1\n      pop\n      jump\t// out\n        /* \"#utility.yul\":5937:6379   */\n    tag_51:\n        /* \"#utility.yul\":6086:6090   */\n      0x00\n        /* \"#utility.yul\":6124:6126   */\n      0x60\n        /* \"#utility.yul\":6113:6122   */\n      dup3\n        /* \"#utility.yul\":6109:6127   */\n      add\n        /* \"#utility.yul\":6101:6127   */\n      swap1\n      pop\n        /* \"#utility.yul\":6137:6208   */\n      tag_164\n        /* \"#utility.yul\":6205:6206   */\n      0x00\n        /* \"#utility.yul\":6194:6203   */\n      dup4\n        /* \"#utility.yul\":6190:6207   */\n      add\n        /* \"#utility.yul\":6181:6187   */\n      dup7\n        /* \"#utility.yul\":6137:6208   */\n      tag_82\n      jump\t// in\n    tag_164:\n        /* \"#utility.yul\":6218:6290   */\n      tag_165\n        /* \"#utility.yul\":6286:6288   */\n      0x20\n        /* \"#utility.yul\":6275:6284   */\n      dup4\n        /* \"#utility.yul\":6271:6289   */\n      add\n        /* \"#utility.yul\":6262:6268   */\n      dup6\n        /* \"#utility.yul\":6218:6290   */\n      tag_82\n      jump\t// in\n    tag_165:\n        /* \"#utility.yul\":6300:6372   */\n      tag_166\n        /* \"#utility.yul\":6368:6370   */\n      0x40\n        /* \"#utility.yul\":6357:6366   */\n      dup4\n        /* \"#utility.yul\":6353:6371   */\n      add\n        /* \"#utility.yul\":6344:6350   */\n      dup5\n        /* \"#utility.yul\":6300:6372   */\n      tag_79\n      jump\t// in\n    tag_166:\n        /* \"#utility.yul\":5937:6379   */\n      swap5\n      swap4\n      pop\n      pop\n      pop\n      pop\n      jump\t// out\n        /* \"#utility.yul\":6385:6634   */\n    tag_91:\n        /* \"#utility.yul\":6525:6559   */\n      0x4f6e6c7920445044207570646174657220286f72206f776e6572206966206e6f\n        /* \"#utility.yul\":6521:6522   */\n      0x00\n        /* \"#utility.yul\":6513:6519   */\n      dup3\n        /* \"#utility.yul\":6509:6523   */\n      add\n        /* \"#utility.yul\":6502:6560   */\n      mstore\n        /* \"#utility.yul\":6594:6626   */\n      0x2075706461746572292063616e207570646174652074686973204450442e0000\n        /* \"#utility.yul\":6589:6591   */\n      0x20\n        /* \"#utility.yul\":6581:6587   */\n      dup3\n        /* \"#utility.yul\":6577:6592   */\n      add\n        /* \"#utility.yul\":6570:6627   */\n      mstore\n        /* \"#utility.yul\":6385:6634   */\n      pop\n      jump\t// out\n        /* \"#utility.yul\":6640:7006   */\n    tag_92:\n        /* \"#utility.yul\":6782:6785   */\n      0x00\n        /* \"#utility.yul\":6803:6870   */\n      tag_169\n        /* \"#utility.yul\":6867:6869   */\n      0x3e\n        /* \"#utility.yul\":6862:6865   */\n      dup4\n        /* \"#utility.yul\":6803:6870   */\n      tag_88\n      jump\t// in\n    tag_169:\n        /* \"#utility.yul\":6796:6870   */\n      swap2\n      pop\n        /* \"#utility.yul\":6879:6972   */\n      tag_170\n        /* \"#utility.yul\":6968:6971   */\n      dup3\n        /* \"#utility.yul\":6879:6972   */\n      tag_91\n      jump\t// in\n    tag_170:\n        /* \"#utility.yul\":6997:6999   */\n      0x40\n        /* \"#utility.yul\":6992:6995   */\n      dup3\n        /* \"#utility.yul\":6988:7000   */\n      add\n        /* \"#utility.yul\":6981:7000   */\n      swap1\n      pop\n        /* \"#utility.yul\":6640:7006   */\n      swap2\n      swap1\n      pop\n      jump\t// out\n        /* \"#utility.yul\":7012:7431   */\n    tag_57:\n        /* \"#utility.yul\":7178:7182   */\n      0x00\n        /* \"#utility.yul\":7216:7218   */\n      0x20\n        /* \"#utility.yul\":7205:7214   */\n      dup3\n        /* \"#utility.yul\":7201:7219   */\n      add\n        /* \"#utility.yul\":7193:7219   */\n      swap1\n      pop\n        /* \"#utility.yul\":7265:7274   */\n      dup2\n        /* \"#utility.yul\":7259:7263   */\n      dup2\n        /* \"#utility.yul\":7255:7275   */\n      sub\n        /* \"#utility.yul\":7251:7252   */\n      0x00\n        /* \"#utility.yul\":7240:7249   */\n      dup4\n        /* \"#utility.yul\":7236:7253   */\n      add\n        /* \"#utility.yul\":7229:7276   */\n      mstore\n        /* \"#utility.yul\":7293:7424   */\n      tag_172\n        /* \"#utility.yul\":7419:7423   */\n      dup2\n        /* \"#utility.yul\":7293:7424   */\n      tag_92\n      jump\t// in\n    tag_172:\n        /* \"#utility.yul\":7285:7424   */\n      swap1\n      pop\n        /* \"#utility.yul\":7012:7431   */\n      swap2\n      swap1\n      pop\n      jump\t// out\n        /* \"#utility.yul\":7437:7617   */\n    tag_93:\n        /* \"#utility.yul\":7485:7562   */\n      0x4e487b7100000000000000000000000000000000000000000000000000000000\n        /* \"#utility.yul\":7482:7483   */\n      0x00\n        /* \"#utility.yul\":7475:7563   */\n      mstore\n        /* \"#utility.yul\":7582:7586   */\n      0x11\n        /* \"#utility.yul\":7579:7580   */\n      0x04\n        /* \"#utility.yul\":7572:7587   */\n      mstore\n        /* \"#utility.yul\":7606:7610   */\n      0x24\n        /* \"#utility.yul\":7603:7604   */\n      0x00\n        /* \"#utility.yul\":7596:7611   */\n      revert\n        /* \"#utility.yul\":7623:7856   */\n    tag_59:\n        /* \"#utility.yul\":7662:7665   */\n      0x00\n        /* \"#utility.yul\":7685:7709   */\n      tag_175\n        /* \"#utility.yul\":7703:7708   */\n      dup3\n        /* \"#utility.yul\":7685:7709   */\n      tag_75\n      jump\t// in\n    tag_175:\n        /* \"#utility.yul\":7676:7709   */\n      swap2\n      pop\n        /* \"#utility.yul\":7731:7797   */\n      0xffffffffffffffffffffffffffffffffffffffffffffffffffffffffffffffff\n        /* \"#utility.yul\":7724:7729   */\n      dup3\n        /* \"#utility.yul\":7721:7798   */\n      sub\n        /* \"#utility.yul\":7718:7821   */\n      tag_176\n      jumpi\n        /* \"#utility.yul\":7801:7819   */\n      tag_177\n      tag_93\n      jump\t// in\n    tag_177:\n        /* \"#utility.yul\":7718:7821   */\n    tag_176:\n        /* \"#utility.yul\":7848:7849   */\n      0x01\n        /* \"#utility.yul\":7841:7846   */\n      dup3\n        /* \"#utility.yul\":7837:7850   */\n      add\n        /* \"#utility.yul\":7830:7850   */\n      swap1\n      pop\n        /* \"#utility.yul\":7623:7856   */\n      swap2\n      swap1\n      pop\n      jump\t// out\n        /* \"#utility.yul\":7862:8084   */\n    tag_61:\n        /* \"#utility.yul\":7955:7959   */\n      0x00\n        /* \"#utility.yul\":7993:7995   */\n      0x20\n        /* \"#utility.yul\":7982:7991   */\n      dup3\n        /* \"#utility.yul\":7978:7996   */\n      add\n        /* \"#utility.yul\":7970:7996   */\n      swap1\n      pop\n        /* \"#utility.yul\":8006:8077   */\n      tag_179\n        /* \"#utility.yul\":8074:8075   */\n      0x00\n        /* \"#utility.yul\":8063:8072   */\n      dup4\n        /* \"#utility.yul\":8059:8076   */\n      add\n        /* \"#utility.yul\":8050:8056   */\n      dup5\n        /* \"#utility.yul\":8006:8077   */\n      tag_79\n      jump\t// in\n    tag_179:\n        /* \"#utility.yul\":7862:8084   */\n      swap3\n      swap2\n      pop\n      pop\n      jump\t// out\n        /* \"#utility.yul\":8090:8322   */\n    tag_94:\n        /* \"#utility.yul\":8230:8264   */\n      0x4f6e6c7920445044206f776e65722063616e2075706461746520746869732044\n        /* \"#utility.yul\":8226:8227   */\n      0x00\n        /* \"#utility.yul\":8218:8224   */\n      dup3\n        /* \"#utility.yul\":8214:8228   */\n      add\n        /* \"#utility.yul\":8207:8265   */\n      mstore\n        /* \"#utility.yul\":8299:8314   */\n      0x5044277320757064617465722e00000000000000000000000000000000000000\n        /* \"#utility.yul\":8294:8296   */\n      0x20\n        /* \"#utility.yul\":8286:8292   */\n      dup3\n        /* \"#utility.yul\":8282:8297   */\n      add\n        /* \"#utility.yul\":8275:8315   */\n      mstore\n        /* \"#utility.yul\":8090:8322   */\n      pop\n      jump\t// out\n        /* \"#utility.yul\":8328:8694   */\n    tag_95:\n        /* \"#utility.yul\":8470:8473   */\n      0x00\n        /* \"#utility.yul\":8491:8558   */\n      tag_182\n        /* \"#utility.yul\":8555:8557   */\n      0x2d\n        /* \"#utility.yul\":8550:8553   */\n      dup4\n        /* \"#utility.yul\":8491:8558   */\n      tag_88\n      jump\t// in\n    tag_182:\n        /* \"#utility.yul\":8484:8558   */\n      swap2\n      pop\n        /* \"#utility.yul\":8567:8660   */\n      tag_183\n        /* \"#utility.yul\":8656:8659   */\n      dup3\n        /* \"#utility.yul\":8567:8660   */\n      tag_94\n      jump\t// in\n    tag_183:\n        /* \"#utility.yul\":8685:8687   */\n      0x40\n        /* \"#utility.yul\":8680:8683   */\n      dup3\n        /* \"#utility.yul\":8676:8688   */\n      add\n        /* \"#utility.yul\":8669:8688   */\n      swap1\n      pop\n        /* \"#utility.yul\":8328:8694   */\n      swap2\n      swap1\n      pop\n      jump\t// out\n        /* \"#utility.yul\":8700:9119   */\n    tag_65:\n        /* \"#utility.yul\":8866:8870   */\n      0x00\n        /* \"#utility.yul\":8904:8906   */\n      0x20\n        /* \"#utility.yul\":8893:8902   */\n      dup3\n        /* \"#utility.yul\":8889:8907   */\n      add\n        /* \"#utility.yul\":8881:8907   */\n      swap1\n      pop\n        /* \"#utility.yul\":8953:8962   */\n      dup2\n        /* \"#utility.yul\":8947:8951   */\n      dup2\n        /* \"#utility.yul\":8943:8963   */\n      sub\n        /* \"#utility.yul\":8939:8940   */\n      0x00\n        /* \"#utility.yul\":8928:8937   */\n      dup4\n        /* \"#utility.yul\":8924:8941   */\n      add\n        /* \"#utility.yul\":8917:8964   */\n      mstore\n        /* \"#utility.yul\":8981:9112   */\n      tag_185\n        /* \"#utility.yul\":9107:9111   */\n      dup2\n        /* \"#utility.yul\":8981:9112   */\n      tag_95\n      jump\t// in\n    tag_185:\n        /* \"#utility.yul\":8973:9112   */\n      swap1\n      pop\n        /* \"#utility.yul\":8700:9119   */\n      swap2\n      swap1\n      pop\n      jump\t// out\n        /* \"#utility.yul\":9125:9355   */\n    tag_96:\n        /* \"#utility.yul\":9265:9299   */\n      0x4f6e6c7920445044206f776e65722063616e2075706461746520746869732044\n        /* \"#utility.yul\":9261:9262   */\n      0x00\n        /* \"#utility.yul\":9253:9259   */\n      dup3\n        /* \"#utility.yul\":9249:9263   */\n      add\n        /* \"#utility.yul\":9242:9300   */\n      mstore\n        /* \"#utility.yul\":9334:9347   */\n      0x50442773206f776e65722e000000000000000000000000000000000000000000\n        /* \"#utility.yul\":9329:9331   */\n      0x20\n        /* \"#utility.yul\":9321:9327   */\n      dup3\n        /* \"#utility.yul\":9317:9332   */\n      add\n        /* \"#utility.yul\":9310:9348   */\n      mstore\n        /* \"#utility.yul\":9125:9355   */\n      pop\n      jump\t// out\n        /* \"#utility.yul\":9361:9727   */\n    tag_97:\n        /* \"#utility.yul\":9503:9506   */\n      0x00\n        /* \"#utility.yul\":9524:9591   */\n      tag_188\n        /* \"#utility.yul\":9588:9590   */\n      0x2b\n        /* \"#utility.yul\":9583:9586   */\n      dup4\n        /* \"#utility.yul\":9524:9591   */\n      tag_88\n      jump\t// in\n    tag_188:\n        /* \"#utility.yul\":9517:9591   */\n      swap2\n      pop\n        /* \"#utility.yul\":9600:9693   */\n      tag_189\n        /* \"#utility.yul\":9689:9692   */\n      dup3\n        /* \"#utility.yul\":9600:9693   */\n      tag_96\n      jump\t// in\n    tag_189:\n        /* \"#utility.yul\":9718:9720   */\n      0x40\n        /* \"#utility.yul\":9713:9716   */\n      dup3\n        /* \"#utility.yul\":9709:9721   */\n      add\n        /* \"#utility.yul\":9702:9721   */\n      swap1\n      pop\n        /* \"#utility.yul\":9361:9727   */\n      swap2\n      swap1\n      pop\n      jump\t// out\n        /* \"#utility.yul\":9733:10152   */\n    tag_70:\n        /* \"#utility.yul\":9899:9903   */\n      0x00\n        /* \"#utility.yul\":9937:9939   */\n      0x20\n        /* \"#utility.yul\":9926:9935   */\n      dup3\n        /* \"#utility.yul\":9922:9940   */\n      add\n        /* \"#utility.yul\":9914:9940   */\n      swap1\n      pop\n        /* \"#utility.yul\":9986:9995   */\n      dup2\n        /* \"#utility.yul\":9980:9984   */\n      dup2\n        /* \"#utility.yul\":9976:9996   */\n      sub\n        /* \"#utility.yul\":9972:9973   */\n      0x00\n        /* \"#utility.yul\":9961:9970   */\n      dup4\n        /* \"#utility.yul\":9957:9974   */\n      add\n        /* \"#utility.yul\":9950:9997   */\n      mstore\n        /* \"#utility.yul\":10014:10145   */\n      tag_191\n        /* \"#utility.yul\":10140:10144   */\n      dup2\n        /* \"#utility.yul\":10014:10145   */\n      tag_97\n      jump\t// in\n    tag_191:\n        /* \"#utility.yul\":10006:10145   */\n      swap1\n      pop\n        /* \"#utility.yul\":9733:10152   */\n      swap2\n      swap1\n      pop\n      jump\t// out\n\n    auxdata: 0xa2646970667358221220790e63f6574bf8f3ee59e5c105e93b6e8fb0a9bcfbf36551b9099460d7a064de64736f6c634300080d0033\n}\n",
				"bytecode": {
					"linkReferences": {},
					"object": "608060405234801561001057600080fd5b50610e75806100206000396000f3fe608060405234801561001057600080fd5b506004361061007d5760003560e01c80637c6e99a41161005b5780637c6e99a4146100ff57806387aee00e1461012f5780639e82b5d61461015f578063f91246371461017b5761007d565b80632acb38eb1461008257806332bb50b2146100b357806370424ffb146100cf575b600080fd5b61009c6004803603810190610097919061090f565b610197565b6040516100aa929190610996565b60405180910390f35b6100cd60048036038101906100c89190610a17565b6101db565b005b6100e960048036038101906100e4919061090f565b610451565b6040516100f69190610a7e565b60405180910390f35b61011960048036038101906101149190610a99565b610484565b6040516101269190610ae8565b60405180910390f35b6101496004803603810190610144919061090f565b610658565b6040516101569190610ae8565b60405180910390f35b61017960048036038101906101749190610b03565b610670565b005b61019560048036038101906101909190610b03565b6107a1565b005b60006020528060005260406000206000915090508060000154908060010160009054906101000a900473ffffffffffffffffffffffffffffffffffffffff16905082565b6000801b600080868152602001908152602001600020600001541480156102635750600073ffffffffffffffffffffffffffffffffffffffff1660008086815260200190815260200160002060010160009054906101000a900473ffffffffffffffffffffffffffffffffffffffff1673ffffffffffffffffffffffffffffffffffffffff16145b8015610282575060006001600086815260200190815260200160002054145b80156102ed5750600073ffffffffffffffffffffffffffffffffffffffff166002600086815260200190815260200160002060009054906101000a900473ffffffffffffffffffffffffffffffffffffffff1673ffffffffffffffffffffffffffffffffffffffff16145b61032c576040517f08c379a000000000000000000000000000000000000000000000000000000000815260040161032390610ba0565b60405180910390fd5b60405180604001604052808281526020018473ffffffffffffffffffffffffffffffffffffffff168152506000808681526020019081526020016000206000820151816000015560208201518160010160006101000a81548173ffffffffffffffffffffffffffffffffffffffff021916908373ffffffffffffffffffffffffffffffffffffffff160217905550905050816002600086815260200190815260200160002060006101000a81548173ffffffffffffffffffffffffffffffffffffffff021916908373ffffffffffffffffffffffffffffffffffffffff160217905550837f7a819bc189e5af9af3ca3a3f88cf6a58af007f71d6787675371248daebe2c3c184848460405161044393929190610bc0565b60405180910390a250505050565b60026020528060005260406000206000915054906101000a900473ffffffffffffffffffffffffffffffffffffffff1681565b6000806002600085815260200190815260200160002060009054906101000a900473ffffffffffffffffffffffffffffffffffffffff1690508073ffffffffffffffffffffffffffffffffffffffff163373ffffffffffffffffffffffffffffffffffffffff16148061058f575060008085815260200190815260200160002060010160009054906101000a900473ffffffffffffffffffffffffffffffffffffffff1673ffffffffffffffffffffffffffffffffffffffff163373ffffffffffffffffffffffffffffffffffffffff1614801561058e5750600073ffffffffffffffffffffffffffffffffffffffff168173ffffffffffffffffffffffffffffffffffffffff16145b5b6105ce576040517f08c379a00000000000000000000000000000000000000000000000000000000081526004016105c590610c69565b60405180910390fd5b8260008086815260200190815260200160002060000181905550600060016000868152602001908152602001600020600081548092919061060e90610cb8565b91905055905080857f21ce53a2bcaeac0d4b11cf79c3c34cebb8b2d3bec47f12d3715a271232c7346f866040516106459190610d00565b60405180910390a3809250505092915050565b60016020528060005260406000206000915090505481565b60008083815260200190815260200160002060010160009054906101000a900473ffffffffffffffffffffffffffffffffffffffff1673ffffffffffffffffffffffffffffffffffffffff163373ffffffffffffffffffffffffffffffffffffffff1614610713576040517f08c379a000000000000000000000000000000000000000000000000000000000815260040161070a90610d8d565b60405180910390fd5b806002600084815260200190815260200160002060006101000a81548173ffffffffffffffffffffffffffffffffffffffff021916908373ffffffffffffffffffffffffffffffffffffffff160217905550817f79e446654be92d32ba07e4935511105931d7b6dfbe59a0eb00e2ee27f6b5bf8e826040516107959190610a7e565b60405180910390a25050565b60008083815260200190815260200160002060010160009054906101000a900473ffffffffffffffffffffffffffffffffffffffff1673ffffffffffffffffffffffffffffffffffffffff163373ffffffffffffffffffffffffffffffffffffffff1614610844576040517f08c379a000000000000000000000000000000000000000000000000000000000815260040161083b90610e1f565b60405180910390fd5b8060008084815260200190815260200160002060010160006101000a81548173ffffffffffffffffffffffffffffffffffffffff021916908373ffffffffffffffffffffffffffffffffffffffff160217905550817faccf2a113cd975e46358a972cc76275e3d1f21b97ca3f668c911f91b0e9bf14a826040516108c89190610a7e565b60405180910390a25050565b600080fd5b6000819050919050565b6108ec816108d9565b81146108f757600080fd5b50565b600081359050610909816108e3565b92915050565b600060208284031215610925576109246108d4565b5b6000610933848285016108fa565b91505092915050565b6000819050919050565b61094f8161093c565b82525050565b600073ffffffffffffffffffffffffffffffffffffffff82169050919050565b600061098082610955565b9050919050565b61099081610975565b82525050565b60006040820190506109ab6000830185610946565b6109b86020830184610987565b9392505050565b6109c881610975565b81146109d357600080fd5b50565b6000813590506109e5816109bf565b92915050565b6109f48161093c565b81146109ff57600080fd5b50565b600081359050610a11816109eb565b92915050565b60008060008060808587031215610a3157610a306108d4565b5b6000610a3f878288016108fa565b9450506020610a50878288016109d6565b9350506040610a61878288016109d6565b9250506060610a7287828801610a02565b91505092959194509250565b6000602082019050610a936000830184610987565b92915050565b60008060408385031215610ab057610aaf6108d4565b5b6000610abe858286016108fa565b9250506020610acf85828601610a02565b9150509250929050565b610ae2816108d9565b82525050565b6000602082019050610afd6000830184610ad9565b92915050565b60008060408385031215610b1a57610b196108d4565b5b6000610b28858286016108fa565b9250506020610b39858286016109d6565b9150509250929050565b600082825260208201905092915050565b7f44504420616c726561647920696e697469616c697a65642e0000000000000000600082015250565b6000610b8a601883610b43565b9150610b9582610b54565b602082019050919050565b60006020820190508181036000830152610bb981610b7d565b9050919050565b6000606082019050610bd56000830186610987565b610be26020830185610987565b610bef6040830184610946565b949350505050565b7f4f6e6c7920445044207570646174657220286f72206f776e6572206966206e6f60008201527f2075706461746572292063616e207570646174652074686973204450442e0000602082015250565b6000610c53603e83610b43565b9150610c5e82610bf7565b604082019050919050565b60006020820190508181036000830152610c8281610c46565b9050919050565b7f4e487b7100000000000000000000000000000000000000000000000000000000600052601160045260246000fd5b6000610cc3826108d9565b91507fffffffffffffffffffffffffffffffffffffffffffffffffffffffffffffffff8203610cf557610cf4610c89565b5b600182019050919050565b6000602082019050610d156000830184610946565b92915050565b7f4f6e6c7920445044206f776e65722063616e207570646174652074686973204460008201527f5044277320757064617465722e00000000000000000000000000000000000000602082015250565b6000610d77602d83610b43565b9150610d8282610d1b565b604082019050919050565b60006020820190508181036000830152610da681610d6a565b9050919050565b7f4f6e6c7920445044206f776e65722063616e207570646174652074686973204460008201527f50442773206f776e65722e000000000000000000000000000000000000000000602082015250565b6000610e09602b83610b43565b9150610e1482610dad565b604082019050919050565b60006020820190508181036000830152610e3881610dfc565b905091905056fea2646970667358221220790e63f6574bf8f3ee59e5c105e93b6e8fb0a9bcfbf36551b9099460d7a064de64736f6c634300080d0033",
					"opcodes": "PUSH1 0x80 PUSH1 0x40 MSTORE CALLVALUE DUP1 ISZERO PUSH2 0x10 JUMPI PUSH1 0x0 DUP1 REVERT JUMPDEST POP PUSH2 0xE75 DUP1 PUSH2 0x20 PUSH1 0x0 CODECOPY PUSH1 0x0 RETURN INVALID PUSH1 0x80 PUSH1 0x40 MSTORE CALLVALUE DUP1 ISZERO PUSH2 0x10 JUMPI PUSH1 0x0 DUP1 REVERT JUMPDEST POP PUSH1 0x4 CALLDATASIZE LT PUSH2 0x7D JUMPI PUSH1 0x0 CALLDATALOAD PUSH1 0xE0 SHR DUP1 PUSH4 0x7C6E99A4 GT PUSH2 0x5B JUMPI DUP1 PUSH4 0x7C6E99A4 EQ PUSH2 0xFF JUMPI DUP1 PUSH4 0x87AEE00E EQ PUSH2 0x12F JUMPI DUP1 PUSH4 0x9E82B5D6 EQ PUSH2 0x15F JUMPI DUP1 PUSH4 0xF9124637 EQ PUSH2 0x17B JUMPI PUSH2 0x7D JUMP JUMPDEST DUP1 PUSH4 0x2ACB38EB EQ PUSH2 0x82 JUMPI DUP1 PUSH4 0x32BB50B2 EQ PUSH2 0xB3 JUMPI DUP1 PUSH4 0x70424FFB EQ PUSH2 0xCF JUMPI JUMPDEST PUSH1 0x0 DUP1 REVERT JUMPDEST PUSH2 0x9C PUSH1 0x4 DUP1 CALLDATASIZE SUB DUP2 ADD SWAP1 PUSH2 0x97 SWAP2 SWAP1 PUSH2 0x90F JUMP JUMPDEST PUSH2 0x197 JUMP JUMPDEST PUSH1 0x40 MLOAD PUSH2 0xAA SWAP3 SWAP2 SWAP1 PUSH2 0x996 JUMP JUMPDEST PUSH1 0x40 MLOAD DUP1 SWAP2 SUB SWAP1 RETURN JUMPDEST PUSH2 0xCD PUSH1 0x4 DUP1 CALLDATASIZE SUB DUP2 ADD SWAP1 PUSH2 0xC8 SWAP2 SWAP1 PUSH2 0xA17 JUMP JUMPDEST PUSH2 0x1DB JUMP JUMPDEST STOP JUMPDEST PUSH2 0xE9 PUSH1 0x4 DUP1 CALLDATASIZE SUB DUP2 ADD SWAP1 PUSH2 0xE4 SWAP2 SWAP1 PUSH2 0x90F JUMP JUMPDEST PUSH2 0x451 JUMP JUMPDEST PUSH1 0x40 MLOAD PUSH2 0xF6 SWAP2 SWAP1 PUSH2 0xA7E JUMP JUMPDEST PUSH1 0x40 MLOAD DUP1 SWAP2 SUB SWAP1 RETURN JUMPDEST PUSH2 0x119 PUSH1 0x4 DUP1 CALLDATASIZE SUB DUP2 ADD SWAP1 PUSH2 0x114 SWAP2 SWAP1 PUSH2 0xA99 JUMP JUMPDEST PUSH2 0x484 JUMP JUMPDEST PUSH1 0x40 MLOAD PUSH2 0x126 SWAP2 SWAP1 PUSH2 0xAE8 JUMP JUMPDEST PUSH1 0x40 MLOAD DUP1 SWAP2 SUB SWAP1 RETURN JUMPDEST PUSH2 0x149 PUSH1 0x4 DUP1 CALLDATASIZE SUB DUP2 ADD SWAP1 PUSH2 0x144 SWAP2 SWAP1 PUSH2 0x90F JUMP JUMPDEST PUSH2 0x658 JUMP JUMPDEST PUSH1 0x40 MLOAD PUSH2 0x156 SWAP2 SWAP1 PUSH2 0xAE8 JUMP JUMPDEST PUSH1 0x40 MLOAD DUP1 SWAP2 SUB SWAP1 RETURN JUMPDEST PUSH2 0x179 PUSH1 0x4 DUP1 CALLDATASIZE SUB DUP2 ADD SWAP1 PUSH2 0x174 SWAP2 SWAP1 PUSH2 0xB03 JUMP JUMPDEST PUSH2 0x670 JUMP JUMPDEST STOP JUMPDEST PUSH2 0x195 PUSH1 0x4 DUP1 CALLDATASIZE SUB DUP2 ADD SWAP1 PUSH2 0x190 SWAP2 SWAP1 PUSH2 0xB03 JUMP JUMPDEST PUSH2 0x7A1 JUMP JUMPDEST STOP JUMPDEST PUSH1 0x0 PUSH1 0x20 MSTORE DUP1 PUSH1 0x0 MSTORE PUSH1 0x40 PUSH1 0x0 KECCAK256 PUSH1 0x0 SWAP2 POP SWAP1 POP DUP1 PUSH1 0x0 ADD SLOAD SWAP1 DUP1 PUSH1 0x1 ADD PUSH1 0x0 SWAP1 SLOAD SWAP1 PUSH2 0x100 EXP SWAP1 DIV PUSH20 0xFFFFFFFFFFFFFFFFFFFFFFFFFFFFFFFFFFFFFFFF AND SWAP1 POP DUP3 JUMP JUMPDEST PUSH1 0x0 DUP1 SHL PUSH1 0x0 DUP1 DUP7 DUP2 MSTORE PUSH1 0x20 ADD SWAP1 DUP2 MSTORE PUSH1 0x20 ADD PUSH1 0x0 KECCAK256 PUSH1 0x0 ADD SLOAD EQ DUP1 ISZERO PUSH2 0x263 JUMPI POP PUSH1 0x0 PUSH20 0xFFFFFFFFFFFFFFFFFFFFFFFFFFFFFFFFFFFFFFFF AND PUSH1 0x0 DUP1 DUP7 DUP2 MSTORE PUSH1 0x20 ADD SWAP1 DUP2 MSTORE PUSH1 0x20 ADD PUSH1 0x0 KECCAK256 PUSH1 0x1 ADD PUSH1 0x0 SWAP1 SLOAD SWAP1 PUSH2 0x100 EXP SWAP1 DIV PUSH20 0xFFFFFFFFFFFFFFFFFFFFFFFFFFFFFFFFFFFFFFFF AND PUSH20 0xFFFFFFFFFFFFFFFFFFFFFFFFFFFFFFFFFFFFFFFF AND EQ JUMPDEST DUP1 ISZERO PUSH2 0x282 JUMPI POP PUSH1 0x0 PUSH1 0x1 PUSH1 0x0 DUP7 DUP2 MSTORE PUSH1 0x20 ADD SWAP1 DUP2 MSTORE PUSH1 0x20 ADD PUSH1 0x0 KECCAK256 SLOAD EQ JUMPDEST DUP1 ISZERO PUSH2 0x2ED JUMPI POP PUSH1 0x0 PUSH20 0xFFFFFFFFFFFFFFFFFFFFFFFFFFFFFFFFFFFFFFFF AND PUSH1 0x2 PUSH1 0x0 DUP7 DUP2 MSTORE PUSH1 0x20 ADD SWAP1 DUP2 MSTORE PUSH1 0x20 ADD PUSH1 0x0 KECCAK256 PUSH1 0x0 SWAP1 SLOAD SWAP1 PUSH2 0x100 EXP SWAP1 DIV PUSH20 0xFFFFFFFFFFFFFFFFFFFFFFFFFFFFFFFFFFFFFFFF AND PUSH20 0xFFFFFFFFFFFFFFFFFFFFFFFFFFFFFFFFFFFFFFFF AND EQ JUMPDEST PUSH2 0x32C JUMPI PUSH1 0x40 MLOAD PUSH32 0x8C379A000000000000000000000000000000000000000000000000000000000 DUP2 MSTORE PUSH1 0x4 ADD PUSH2 0x323 SWAP1 PUSH2 0xBA0 JUMP JUMPDEST PUSH1 0x40 MLOAD DUP1 SWAP2 SUB SWAP1 REVERT JUMPDEST PUSH1 0x40 MLOAD DUP1 PUSH1 0x40 ADD PUSH1 0x40 MSTORE DUP1 DUP3 DUP2 MSTORE PUSH1 0x20 ADD DUP5 PUSH20 0xFFFFFFFFFFFFFFFFFFFFFFFFFFFFFFFFFFFFFFFF AND DUP2 MSTORE POP PUSH1 0x0 DUP1 DUP7 DUP2 MSTORE PUSH1 0x20 ADD SWAP1 DUP2 MSTORE PUSH1 0x20 ADD PUSH1 0x0 KECCAK256 PUSH1 0x0 DUP3 ADD MLOAD DUP2 PUSH1 0x0 ADD SSTORE PUSH1 0x20 DUP3 ADD MLOAD DUP2 PUSH1 0x1 ADD PUSH1 0x0 PUSH2 0x100 EXP DUP2 SLOAD DUP2 PUSH20 0xFFFFFFFFFFFFFFFFFFFFFFFFFFFFFFFFFFFFFFFF MUL NOT AND SWAP1 DUP4 PUSH20 0xFFFFFFFFFFFFFFFFFFFFFFFFFFFFFFFFFFFFFFFF AND MUL OR SWAP1 SSTORE POP SWAP1 POP POP DUP2 PUSH1 0x2 PUSH1 0x0 DUP7 DUP2 MSTORE PUSH1 0x20 ADD SWAP1 DUP2 MSTORE PUSH1 0x20 ADD PUSH1 0x0 KECCAK256 PUSH1 0x0 PUSH2 0x100 EXP DUP2 SLOAD DUP2 PUSH20 0xFFFFFFFFFFFFFFFFFFFFFFFFFFFFFFFFFFFFFFFF MUL NOT AND SWAP1 DUP4 PUSH20 0xFFFFFFFFFFFFFFFFFFFFFFFFFFFFFFFFFFFFFFFF AND MUL OR SWAP1 SSTORE POP DUP4 PUSH32 0x7A819BC189E5AF9AF3CA3A3F88CF6A58AF007F71D6787675371248DAEBE2C3C1 DUP5 DUP5 DUP5 PUSH1 0x40 MLOAD PUSH2 0x443 SWAP4 SWAP3 SWAP2 SWAP1 PUSH2 0xBC0 JUMP JUMPDEST PUSH1 0x40 MLOAD DUP1 SWAP2 SUB SWAP1 LOG2 POP POP POP POP JUMP JUMPDEST PUSH1 0x2 PUSH1 0x20 MSTORE DUP1 PUSH1 0x0 MSTORE PUSH1 0x40 PUSH1 0x0 KECCAK256 PUSH1 0x0 SWAP2 POP SLOAD SWAP1 PUSH2 0x100 EXP SWAP1 DIV PUSH20 0xFFFFFFFFFFFFFFFFFFFFFFFFFFFFFFFFFFFFFFFF AND DUP2 JUMP JUMPDEST PUSH1 0x0 DUP1 PUSH1 0x2 PUSH1 0x0 DUP6 DUP2 MSTORE PUSH1 0x20 ADD SWAP1 DUP2 MSTORE PUSH1 0x20 ADD PUSH1 0x0 KECCAK256 PUSH1 0x0 SWAP1 SLOAD SWAP1 PUSH2 0x100 EXP SWAP1 DIV PUSH20 0xFFFFFFFFFFFFFFFFFFFFFFFFFFFFFFFFFFFFFFFF AND SWAP1 POP DUP1 PUSH20 0xFFFFFFFFFFFFFFFFFFFFFFFFFFFFFFFFFFFFFFFF AND CALLER PUSH20 0xFFFFFFFFFFFFFFFFFFFFFFFFFFFFFFFFFFFFFFFF AND EQ DUP1 PUSH2 0x58F JUMPI POP PUSH1 0x0 DUP1 DUP6 DUP2 MSTORE PUSH1 0x20 ADD SWAP1 DUP2 MSTORE PUSH1 0x20 ADD PUSH1 0x0 KECCAK256 PUSH1 0x1 ADD PUSH1 0x0 SWAP1 SLOAD SWAP1 PUSH2 0x100 EXP SWAP1 DIV PUSH20 0xFFFFFFFFFFFFFFFFFFFFFFFFFFFFFFFFFFFFFFFF AND PUSH20 0xFFFFFFFFFFFFFFFFFFFFFFFFFFFFFFFFFFFFFFFF AND CALLER PUSH20 0xFFFFFFFFFFFFFFFFFFFFFFFFFFFFFFFFFFFFFFFF AND EQ DUP1 ISZERO PUSH2 0x58E JUMPI POP PUSH1 0x0 PUSH20 0xFFFFFFFFFFFFFFFFFFFFFFFFFFFFFFFFFFFFFFFF AND DUP2 PUSH20 0xFFFFFFFFFFFFFFFFFFFFFFFFFFFFFFFFFFFFFFFF AND EQ JUMPDEST JUMPDEST PUSH2 0x5CE JUMPI PUSH1 0x40 MLOAD PUSH32 0x8C379A000000000000000000000000000000000000000000000000000000000 DUP2 MSTORE PUSH1 0x4 ADD PUSH2 0x5C5 SWAP1 PUSH2 0xC69 JUMP JUMPDEST PUSH1 0x40 MLOAD DUP1 SWAP2 SUB SWAP1 REVERT JUMPDEST DUP3 PUSH1 0x0 DUP1 DUP7 DUP2 MSTORE PUSH1 0x20 ADD SWAP1 DUP2 MSTORE PUSH1 0x20 ADD PUSH1 0x0 KECCAK256 PUSH1 0x0 ADD DUP2 SWAP1 SSTORE POP PUSH1 0x0 PUSH1 0x1 PUSH1 0x0 DUP7 DUP2 MSTORE PUSH1 0x20 ADD SWAP1 DUP2 MSTORE PUSH1 0x20 ADD PUSH1 0x0 KECCAK256 PUSH1 0x0 DUP2 SLOAD DUP1 SWAP3 SWAP2 SWAP1 PUSH2 0x60E SWAP1 PUSH2 0xCB8 JUMP JUMPDEST SWAP2 SWAP1 POP SSTORE SWAP1 POP DUP1 DUP6 PUSH32 0x21CE53A2BCAEAC0D4B11CF79C3C34CEBB8B2D3BEC47F12D3715A271232C7346F DUP7 PUSH1 0x40 MLOAD PUSH2 0x645 SWAP2 SWAP1 PUSH2 0xD00 JUMP JUMPDEST PUSH1 0x40 MLOAD DUP1 SWAP2 SUB SWAP1 LOG3 DUP1 SWAP3 POP POP POP SWAP3 SWAP2 POP POP JUMP JUMPDEST PUSH1 0x1 PUSH1 0x20 MSTORE DUP1 PUSH1 0x0 MSTORE PUSH1 0x40 PUSH1 0x0 KECCAK256 PUSH1 0x0 SWAP2 POP SWAP1 POP SLOAD DUP2 JUMP JUMPDEST PUSH1 0x0 DUP1 DUP4 DUP2 MSTORE PUSH1 0x20 ADD SWAP1 DUP2 MSTORE PUSH1 0x20 ADD PUSH1 0x0 KECCAK256 PUSH1 0x1 ADD PUSH1 0x0 SWAP1 SLOAD SWAP1 PUSH2 0x100 EXP SWAP1 DIV PUSH20 0xFFFFFFFFFFFFFFFFFFFFFFFFFFFFFFFFFFFFFFFF AND PUSH20 0xFFFFFFFFFFFFFFFFFFFFFFFFFFFFFFFFFFFFFFFF AND CALLER PUSH20 0xFFFFFFFFFFFFFFFFFFFFFFFFFFFFFFFFFFFFFFFF AND EQ PUSH2 0x713 JUMPI PUSH1 0x40 MLOAD PUSH32 0x8C379A000000000000000000000000000000000000000000000000000000000 DUP2 MSTORE PUSH1 0x4 ADD PUSH2 0x70A SWAP1 PUSH2 0xD8D JUMP JUMPDEST PUSH1 0x40 MLOAD DUP1 SWAP2 SUB SWAP1 REVERT JUMPDEST DUP1 PUSH1 0x2 PUSH1 0x0 DUP5 DUP2 MSTORE PUSH1 0x20 ADD SWAP1 DUP2 MSTORE PUSH1 0x20 ADD PUSH1 0x0 KECCAK256 PUSH1 0x0 PUSH2 0x100 EXP DUP2 SLOAD DUP2 PUSH20 0xFFFFFFFFFFFFFFFFFFFFFFFFFFFFFFFFFFFFFFFF MUL NOT AND SWAP1 DUP4 PUSH20 0xFFFFFFFFFFFFFFFFFFFFFFFFFFFFFFFFFFFFFFFF AND MUL OR SWAP1 SSTORE POP DUP2 PUSH32 0x79E446654BE92D32BA07E4935511105931D7B6DFBE59A0EB00E2EE27F6B5BF8E DUP3 PUSH1 0x40 MLOAD PUSH2 0x795 SWAP2 SWAP1 PUSH2 0xA7E JUMP JUMPDEST PUSH1 0x40 MLOAD DUP1 SWAP2 SUB SWAP1 LOG2 POP POP JUMP JUMPDEST PUSH1 0x0 DUP1 DUP4 DUP2 MSTORE PUSH1 0x20 ADD SWAP1 DUP2 MSTORE PUSH1 0x20 ADD PUSH1 0x0 KECCAK256 PUSH1 0x1 ADD PUSH1 0x0 SWAP1 SLOAD SWAP1 PUSH2 0x100 EXP SWAP1 DIV PUSH20 0xFFFFFFFFFFFFFFFFFFFFFFFFFFFFFFFFFFFFFFFF AND PUSH20 0xFFFFFFFFFFFFFFFFFFFFFFFFFFFFFFFFFFFFFFFF AND CALLER PUSH20 0xFFFFFFFFFFFFFFFFFFFFFFFFFFFFFFFFFFFFFFFF AND EQ PUSH2 0x844 JUMPI PUSH1 0x40 MLOAD PUSH32 0x8C379A000000000000000000000000000000000000000000000000000000000 DUP2 MSTORE PUSH1 0x4 ADD PUSH2 0x83B SWAP1 PUSH2 0xE1F JUMP JUMPDEST PUSH1 0x40 MLOAD DUP1 SWAP2 SUB SWAP1 REVERT JUMPDEST DUP1 PUSH1 0x0 DUP1 DUP5 DUP2 MSTORE PUSH1 0x20 ADD SWAP1 DUP2 MSTORE PUSH1 0x20 ADD PUSH1 0x0 KECCAK256 PUSH1 0x1 ADD PUSH1 0x0 PUSH2 0x100 EXP DUP2 SLOAD DUP2 PUSH20 0xFFFFFFFFFFFFFFFFFFFFFFFFFFFFFFFFFFFFFFFF MUL NOT AND SWAP1 DUP4 PUSH20 0xFFFFFFFFFFFFFFFFFFFFFFFFFFFFFFFFFFFFFFFF AND MUL OR SWAP1 SSTORE POP DUP2 PUSH32 0xACCF2A113CD975E46358A972CC76275E3D1F21B97CA3F668C911F91B0E9BF14A DUP3 PUSH1 0x40 MLOAD PUSH2 0x8C8 SWAP2 SWAP1 PUSH2 0xA7E JUMP JUMPDEST PUSH1 0x40 MLOAD DUP1 SWAP2 SUB SWAP1 LOG2 POP POP JUMP JUMPDEST PUSH1 0x0 DUP1 REVERT JUMPDEST PUSH1 0x0 DUP2 SWAP1 POP SWAP2 SWAP1 POP JUMP JUMPDEST PUSH2 0x8EC DUP2 PUSH2 0x8D9 JUMP JUMPDEST DUP2 EQ PUSH2 0x8F7 JUMPI PUSH1 0x0 DUP1 REVERT JUMPDEST POP JUMP JUMPDEST PUSH1 0x0 DUP2 CALLDATALOAD SWAP1 POP PUSH2 0x909 DUP2 PUSH2 0x8E3 JUMP JUMPDEST SWAP3 SWAP2 POP POP JUMP JUMPDEST PUSH1 0x0 PUSH1 0x20 DUP3 DUP5 SUB SLT ISZERO PUSH2 0x925 JUMPI PUSH2 0x924 PUSH2 0x8D4 JUMP JUMPDEST JUMPDEST PUSH1 0x0 PUSH2 0x933 DUP5 DUP3 DUP6 ADD PUSH2 0x8FA JUMP JUMPDEST SWAP2 POP POP SWAP3 SWAP2 POP POP JUMP JUMPDEST PUSH1 0x0 DUP2 SWAP1 POP SWAP2 SWAP1 POP JUMP JUMPDEST PUSH2 0x94F DUP2 PUSH2 0x93C JUMP JUMPDEST DUP3 MSTORE POP POP JUMP JUMPDEST PUSH1 0x0 PUSH20 0xFFFFFFFFFFFFFFFFFFFFFFFFFFFFFFFFFFFFFFFF DUP3 AND SWAP1 POP SWAP2 SWAP1 POP JUMP JUMPDEST PUSH1 0x0 PUSH2 0x980 DUP3 PUSH2 0x955 JUMP JUMPDEST SWAP1 POP SWAP2 SWAP1 POP JUMP JUMPDEST PUSH2 0x990 DUP2 PUSH2 0x975 JUMP JUMPDEST DUP3 MSTORE POP POP JUMP JUMPDEST PUSH1 0x0 PUSH1 0x40 DUP3 ADD SWAP1 POP PUSH2 0x9AB PUSH1 0x0 DUP4 ADD DUP6 PUSH2 0x946 JUMP JUMPDEST PUSH2 0x9B8 PUSH1 0x20 DUP4 ADD DUP5 PUSH2 0x987 JUMP JUMPDEST SWAP4 SWAP3 POP POP POP JUMP JUMPDEST PUSH2 0x9C8 DUP2 PUSH2 0x975 JUMP JUMPDEST DUP2 EQ PUSH2 0x9D3 JUMPI PUSH1 0x0 DUP1 REVERT JUMPDEST POP JUMP JUMPDEST PUSH1 0x0 DUP2 CALLDATALOAD SWAP1 POP PUSH2 0x9E5 DUP2 PUSH2 0x9BF JUMP JUMPDEST SWAP3 SWAP2 POP POP JUMP JUMPDEST PUSH2 0x9F4 DUP2 PUSH2 0x93C JUMP JUMPDEST DUP2 EQ PUSH2 0x9FF JUMPI PUSH1 0x0 DUP1 REVERT JUMPDEST POP JUMP JUMPDEST PUSH1 0x0 DUP2 CALLDATALOAD SWAP1 POP PUSH2 0xA11 DUP2 PUSH2 0x9EB JUMP JUMPDEST SWAP3 SWAP2 POP POP JUMP JUMPDEST PUSH1 0x0 DUP1 PUSH1 0x0 DUP1 PUSH1 0x80 DUP6 DUP8 SUB SLT ISZERO PUSH2 0xA31 JUMPI PUSH2 0xA30 PUSH2 0x8D4 JUMP JUMPDEST JUMPDEST PUSH1 0x0 PUSH2 0xA3F DUP8 DUP3 DUP9 ADD PUSH2 0x8FA JUMP JUMPDEST SWAP5 POP POP PUSH1 0x20 PUSH2 0xA50 DUP8 DUP3 DUP9 ADD PUSH2 0x9D6 JUMP JUMPDEST SWAP4 POP POP PUSH1 0x40 PUSH2 0xA61 DUP8 DUP3 DUP9 ADD PUSH2 0x9D6 JUMP JUMPDEST SWAP3 POP POP PUSH1 0x60 PUSH2 0xA72 DUP8 DUP3 DUP9 ADD PUSH2 0xA02 JUMP JUMPDEST SWAP2 POP POP SWAP3 SWAP6 SWAP2 SWAP5 POP SWAP3 POP JUMP JUMPDEST PUSH1 0x0 PUSH1 0x20 DUP3 ADD SWAP1 POP PUSH2 0xA93 PUSH1 0x0 DUP4 ADD DUP5 PUSH2 0x987 JUMP JUMPDEST SWAP3 SWAP2 POP POP JUMP JUMPDEST PUSH1 0x0 DUP1 PUSH1 0x40 DUP4 DUP6 SUB SLT ISZERO PUSH2 0xAB0 JUMPI PUSH2 0xAAF PUSH2 0x8D4 JUMP JUMPDEST JUMPDEST PUSH1 0x0 PUSH2 0xABE DUP6 DUP3 DUP7 ADD PUSH2 0x8FA JUMP JUMPDEST SWAP3 POP POP PUSH1 0x20 PUSH2 0xACF DUP6 DUP3 DUP7 ADD PUSH2 0xA02 JUMP JUMPDEST SWAP2 POP POP SWAP3 POP SWAP3 SWAP1 POP JUMP JUMPDEST PUSH2 0xAE2 DUP2 PUSH2 0x8D9 JUMP JUMPDEST DUP3 MSTORE POP POP JUMP JUMPDEST PUSH1 0x0 PUSH1 0x20 DUP3 ADD SWAP1 POP PUSH2 0xAFD PUSH1 0x0 DUP4 ADD DUP5 PUSH2 0xAD9 JUMP JUMPDEST SWAP3 SWAP2 POP POP JUMP JUMPDEST PUSH1 0x0 DUP1 PUSH1 0x40 DUP4 DUP6 SUB SLT ISZERO PUSH2 0xB1A JUMPI PUSH2 0xB19 PUSH2 0x8D4 JUMP JUMPDEST JUMPDEST PUSH1 0x0 PUSH2 0xB28 DUP6 DUP3 DUP7 ADD PUSH2 0x8FA JUMP JUMPDEST SWAP3 POP POP PUSH1 0x20 PUSH2 0xB39 DUP6 DUP3 DUP7 ADD PUSH2 0x9D6 JUMP JUMPDEST SWAP2 POP POP SWAP3 POP SWAP3 SWAP1 POP JUMP JUMPDEST PUSH1 0x0 DUP3 DUP3 MSTORE PUSH1 0x20 DUP3 ADD SWAP1 POP SWAP3 SWAP2 POP POP JUMP JUMPDEST PUSH32 0x44504420616C726561647920696E697469616C697A65642E0000000000000000 PUSH1 0x0 DUP3 ADD MSTORE POP JUMP JUMPDEST PUSH1 0x0 PUSH2 0xB8A PUSH1 0x18 DUP4 PUSH2 0xB43 JUMP JUMPDEST SWAP2 POP PUSH2 0xB95 DUP3 PUSH2 0xB54 JUMP JUMPDEST PUSH1 0x20 DUP3 ADD SWAP1 POP SWAP2 SWAP1 POP JUMP JUMPDEST PUSH1 0x0 PUSH1 0x20 DUP3 ADD SWAP1 POP DUP2 DUP2 SUB PUSH1 0x0 DUP4 ADD MSTORE PUSH2 0xBB9 DUP2 PUSH2 0xB7D JUMP JUMPDEST SWAP1 POP SWAP2 SWAP1 POP JUMP JUMPDEST PUSH1 0x0 PUSH1 0x60 DUP3 ADD SWAP1 POP PUSH2 0xBD5 PUSH1 0x0 DUP4 ADD DUP7 PUSH2 0x987 JUMP JUMPDEST PUSH2 0xBE2 PUSH1 0x20 DUP4 ADD DUP6 PUSH2 0x987 JUMP JUMPDEST PUSH2 0xBEF PUSH1 0x40 DUP4 ADD DUP5 PUSH2 0x946 JUMP JUMPDEST SWAP5 SWAP4 POP POP POP POP JUMP JUMPDEST PUSH32 0x4F6E6C7920445044207570646174657220286F72206F776E6572206966206E6F PUSH1 0x0 DUP3 ADD MSTORE PUSH32 0x2075706461746572292063616E207570646174652074686973204450442E0000 PUSH1 0x20 DUP3 ADD MSTORE POP JUMP JUMPDEST PUSH1 0x0 PUSH2 0xC53 PUSH1 0x3E DUP4 PUSH2 0xB43 JUMP JUMPDEST SWAP2 POP PUSH2 0xC5E DUP3 PUSH2 0xBF7 JUMP JUMPDEST PUSH1 0x40 DUP3 ADD SWAP1 POP SWAP2 SWAP1 POP JUMP JUMPDEST PUSH1 0x0 PUSH1 0x20 DUP3 ADD SWAP1 POP DUP2 DUP2 SUB PUSH1 0x0 DUP4 ADD MSTORE PUSH2 0xC82 DUP2 PUSH2 0xC46 JUMP JUMPDEST SWAP1 POP SWAP2 SWAP1 POP JUMP JUMPDEST PUSH32 0x4E487B7100000000000000000000000000000000000000000000000000000000 PUSH1 0x0 MSTORE PUSH1 0x11 PUSH1 0x4 MSTORE PUSH1 0x24 PUSH1 0x0 REVERT JUMPDEST PUSH1 0x0 PUSH2 0xCC3 DUP3 PUSH2 0x8D9 JUMP JUMPDEST SWAP2 POP PUSH32 0xFFFFFFFFFFFFFFFFFFFFFFFFFFFFFFFFFFFFFFFFFFFFFFFFFFFFFFFFFFFFFFFF DUP3 SUB PUSH2 0xCF5 JUMPI PUSH2 0xCF4 PUSH2 0xC89 JUMP JUMPDEST JUMPDEST PUSH1 0x1 DUP3 ADD SWAP1 POP SWAP2 SWAP1 POP JUMP JUMPDEST PUSH1 0x0 PUSH1 0x20 DUP3 ADD SWAP1 POP PUSH2 0xD15 PUSH1 0x0 DUP4 ADD DUP5 PUSH2 0x946 JUMP JUMPDEST SWAP3 SWAP2 POP POP JUMP JUMPDEST PUSH32 0x4F6E6C7920445044206F776E65722063616E2075706461746520746869732044 PUSH1 0x0 DUP3 ADD MSTORE PUSH32 0x5044277320757064617465722E00000000000000000000000000000000000000 PUSH1 0x20 DUP3 ADD MSTORE POP JUMP JUMPDEST PUSH1 0x0 PUSH2 0xD77 PUSH1 0x2D DUP4 PUSH2 0xB43 JUMP JUMPDEST SWAP2 POP PUSH2 0xD82 DUP3 PUSH2 0xD1B JUMP JUMPDEST PUSH1 0x40 DUP3 ADD SWAP1 POP SWAP2 SWAP1 POP JUMP JUMPDEST PUSH1 0x0 PUSH1 0x20 DUP3 ADD SWAP1 POP DUP2 DUP2 SUB PUSH1 0x0 DUP4 ADD MSTORE PUSH2 0xDA6 DUP2 PUSH2 0xD6A JUMP JUMPDEST SWAP1 POP SWAP2 SWAP1 POP JUMP JUMPDEST PUSH32 0x4F6E6C7920445044206F776E65722063616E2075706461746520746869732044 PUSH1 0x0 DUP3 ADD MSTORE PUSH32 0x50442773206F776E65722E000000000000000000000000000000000000000000 PUSH1 0x20 DUP3 ADD MSTORE POP JUMP JUMPDEST PUSH1 0x0 PUSH2 0xE09 PUSH1 0x2B DUP4 PUSH2 0xB43 JUMP JUMPDEST SWAP2 POP PUSH2 0xE14 DUP3 PUSH2 0xDAD JUMP JUMPDEST PUSH1 0x40 DUP3 ADD SWAP1 POP SWAP2 SWAP1 POP JUMP JUMPDEST PUSH1 0x0 PUSH1 0x20 DUP3 ADD SWAP1 POP DUP2 DUP2 SUB PUSH1 0x0 DUP4 ADD MSTORE PUSH2 0xE38 DUP2 PUSH2 0xDFC JUMP JUMPDEST SWAP1 POP SWAP2 SWAP1 POP JUMP INVALID LOG2 PUSH5 0x6970667358 0x22 SLT KECCAK256 PUSH26 0xE63F6574BF8F3EE59E5C105E93B6E8FB0A9BCFBF36551B90994 PUSH1 0xD7 LOG0 PUSH5 0xDE64736F6C PUSH4 0x4300080D STOP CALLER "
				},
				"gasEstimates": {
					"creation": {
						"codeDepositCost": "740200",
						"executionCost": "773",
						"totalCost": "740973"
					},
					"external": {
						"addDpd(uint256,address,address,bytes32)": "infinite",
						"dpds(uint256)": "5077",
						"updateDpdData(uint256,bytes32)": "infinite",
						"updateDpdOwner(uint256,address)": "infinite",
						"updateDpdUpdater(uint256,address)": "infinite",
						"updater(uint256)": "2884",
						"versions(uint256)": "infinite"
					}
				},
				"methodIdentifiers": {
					"addDpd(uint256,address,address,bytes32)": "32bb50b2",
					"dpds(uint256)": "2acb38eb",
					"updateDpdData(uint256,bytes32)": "7c6e99a4",
					"updateDpdOwner(uint256,address)": "f9124637",
					"updateDpdUpdater(uint256,address)": "9e82b5d6",
					"updater(uint256)": "70424ffb",
					"versions(uint256)": "87aee00e"
				}
			},
			"storageLayout": {
				"storage": [
					{
						"astId": 13,
						"contract": "contracts/Pentagon/DPDRepository.sol:DPDRepository",
						"label": "dpds",
						"offset": 0,
						"slot": "0",
						"type": "t_mapping(t_uint256,t_struct(DPD)7_storage)"
					},
					{
						"astId": 18,
						"contract": "contracts/Pentagon/DPDRepository.sol:DPDRepository",
						"label": "versions",
						"offset": 0,
						"slot": "1",
						"type": "t_mapping(t_uint256,t_uint256)"
					},
					{
						"astId": 23,
						"contract": "contracts/Pentagon/DPDRepository.sol:DPDRepository",
						"label": "updater",
						"offset": 0,
						"slot": "2",
						"type": "t_mapping(t_uint256,t_address)"
					}
				],
				"types": {
					"t_address": {
						"encoding": "inplace",
						"label": "address",
						"numberOfBytes": "20"
					},
					"t_bytes32": {
						"encoding": "inplace",
						"label": "bytes32",
						"numberOfBytes": "32"
					},
					"t_mapping(t_uint256,t_address)": {
						"encoding": "mapping",
						"key": "t_uint256",
						"label": "mapping(uint256 => address)",
						"numberOfBytes": "32",
						"value": "t_address"
					},
					"t_mapping(t_uint256,t_struct(DPD)7_storage)": {
						"encoding": "mapping",
						"key": "t_uint256",
						"label": "mapping(uint256 => struct DPDRepository.DPD)",
						"numberOfBytes": "32",
						"value": "t_struct(DPD)7_storage"
					},
					"t_mapping(t_uint256,t_uint256)": {
						"encoding": "mapping",
						"key": "t_uint256",
						"label": "mapping(uint256 => uint256)",
						"numberOfBytes": "32",
						"value": "t_uint256"
					},
					"t_struct(DPD)7_storage": {
						"encoding": "inplace",
						"label": "struct DPDRepository.DPD",
						"members": [
							{
								"astId": 4,
								"contract": "contracts/Pentagon/DPDRepository.sol:DPDRepository",
								"label": "cid",
								"offset": 0,
								"slot": "0",
								"type": "t_bytes32"
							},
							{
								"astId": 6,
								"contract": "contracts/Pentagon/DPDRepository.sol:DPDRepository",
								"label": "owner",
								"offset": 0,
								"slot": "1",
								"type": "t_address"
							}
						],
						"numberOfBytes": "64"
					},
					"t_uint256": {
						"encoding": "inplace",
						"label": "uint256",
						"numberOfBytes": "32"
					}
				}
			},
			"userdoc": {
				"events": {
					"DPDAdded(uint256,address,address,bytes32)": {
						"notice": "Event emitted when a new DPD is added to the repository."
					},
					"DPDOwnerChanged(uint256,address)": {
						"notice": "Event emitted when a DPD's owner is changed."
					},
					"DPDUpdated(uint256,uint256,bytes32)": {
						"notice": "Event emitted when a new DPD is added to the repository."
					},
					"DPDUpdaterChanged(uint256,address)": {
						"notice": "Event emitted when a DPD's upgrader is changed."
					}
				},
				"kind": "user",
				"methods": {
					"addDpd(uint256,address,address,bytes32)": {
						"notice": "Function to add a new DPD."
					},
					"dpds(uint256)": {
						"notice": "DPD CIDs and owners mapped by DPD ID."
					},
					"updateDpdData(uint256,bytes32)": {
						"notice": "Function to update a DPD's CID."
					},
					"updateDpdOwner(uint256,address)": {
						"notice": "Function to set a DPD's owner."
					},
					"updateDpdUpdater(uint256,address)": {
						"notice": "Function to set a DPD's upgrader."
					},
					"updater(uint256)": {
						"notice": "Updaters mapped by DPD ID."
					},
					"versions(uint256)": {
						"notice": "Versions mapped by DPD ID."
					}
				},
				"notice": "The Decentralized Programmable Data (DPD) Repository stores data content identifiers, versions, authorized owners, and upgraders.",
				"version": 1
			}
		}
	}
}