{
	"contracts/UnderstandEVMbytecode/part1.sol": {
		"Demo1": {
			"abi": [
				{
					"constant": false,
					"inputs": [
						{
							"name": "value",
							"type": "uint256"
						}
					],
					"name": "add",
					"outputs": [
						{
							"name": "",
							"type": "uint256"
						}
					],
					"payable": false,
					"stateMutability": "nonpayable",
					"type": "function"
				},
				{
					"constant": true,
					"inputs": [],
					"name": "balance",
					"outputs": [
						{
							"name": "",
							"type": "uint256"
						}
					],
					"payable": false,
					"stateMutability": "view",
					"type": "function"
				}
			],
			"devdoc": {
				"methods": {}
			},
			"evm": {
				"assembly": "    /* \"contracts/UnderstandEVMbytecode/part1.sol\":61:224  contract Demo1 {... */\n  mstore(0x40, 0x80)\n  callvalue\n    /* \"--CODEGEN--\":8:17   */\n  dup1\n    /* \"--CODEGEN--\":5:7   */\n  iszero\n  tag_1\n  jumpi\n    /* \"--CODEGEN--\":30:31   */\n  0x0\n    /* \"--CODEGEN--\":27:28   */\n  dup1\n    /* \"--CODEGEN--\":20:32   */\n  revert\n    /* \"--CODEGEN--\":5:7   */\ntag_1:\n    /* \"contracts/UnderstandEVMbytecode/part1.sol\":61:224  contract Demo1 {... */\n  pop\n  dataSize(sub_0)\n  dup1\n  dataOffset(sub_0)\n  0x0\n  codecopy\n  0x0\n  return\nstop\n\nsub_0: assembly {\n        /* \"contracts/UnderstandEVMbytecode/part1.sol\":61:224  contract Demo1 {... */\n      mstore(0x40, 0x80)\n      jumpi(tag_1, lt(calldatasize, 0x4))\n      calldataload(0x0)\n      0x100000000000000000000000000000000000000000000000000000000\n      swap1\n      div\n      0xffffffff\n      and\n      dup1\n      0x1003e2d2\n      eq\n      tag_2\n      jumpi\n      dup1\n      0xb69ef8a8\n      eq\n      tag_3\n      jumpi\n    tag_1:\n      0x0\n      dup1\n      revert\n        /* \"contracts/UnderstandEVMbytecode/part1.sol\":106:222  function add(uint value) public returns (uint256) {... */\n    tag_2:\n      callvalue\n        /* \"--CODEGEN--\":8:17   */\n      dup1\n        /* \"--CODEGEN--\":5:7   */\n      iszero\n      tag_4\n      jumpi\n        /* \"--CODEGEN--\":30:31   */\n      0x0\n        /* \"--CODEGEN--\":27:28   */\n      dup1\n        /* \"--CODEGEN--\":20:32   */\n      revert\n        /* \"--CODEGEN--\":5:7   */\n    tag_4:\n        /* \"contracts/UnderstandEVMbytecode/part1.sol\":106:222  function add(uint value) public returns (uint256) {... */\n      pop\n      tag_5\n      0x4\n      dup1\n      calldatasize\n      sub\n      dup2\n      add\n      swap1\n      dup1\n      dup1\n      calldataload\n      swap1\n      0x20\n      add\n      swap1\n      swap3\n      swap2\n      swap1\n      pop\n      pop\n      pop\n      jump(tag_6)\n    tag_5:\n      mload(0x40)\n      dup1\n      dup3\n      dup2\n      mstore\n      0x20\n      add\n      swap2\n      pop\n      pop\n      mload(0x40)\n      dup1\n      swap2\n      sub\n      swap1\n      return\n        /* \"contracts/UnderstandEVMbytecode/part1.sol\":80:99  uint public balance */\n    tag_3:\n      callvalue\n        /* \"--CODEGEN--\":8:17   */\n      dup1\n        /* \"--CODEGEN--\":5:7   */\n      iszero\n      tag_7\n      jumpi\n        /* \"--CODEGEN--\":30:31   */\n      0x0\n        /* \"--CODEGEN--\":27:28   */\n      dup1\n        /* \"--CODEGEN--\":20:32   */\n      revert\n        /* \"--CODEGEN--\":5:7   */\n    tag_7:\n        /* \"contracts/UnderstandEVMbytecode/part1.sol\":80:99  uint public balance */\n      pop\n      tag_8\n      jump(tag_9)\n    tag_8:\n      mload(0x40)\n      dup1\n      dup3\n      dup2\n      mstore\n      0x20\n      add\n      swap2\n      pop\n      pop\n      mload(0x40)\n      dup1\n      swap2\n      sub\n      swap1\n      return\n        /* \"contracts/UnderstandEVMbytecode/part1.sol\":106:222  function add(uint value) public returns (uint256) {... */\n    tag_6:\n        /* \"contracts/UnderstandEVMbytecode/part1.sol\":147:154  uint256 */\n      0x0\n        /* \"contracts/UnderstandEVMbytecode/part1.sol\":186:191  value */\n      dup2\n        /* \"contracts/UnderstandEVMbytecode/part1.sol\":176:183  balance */\n      sload(0x0)\n        /* \"contracts/UnderstandEVMbytecode/part1.sol\":176:191  balance + value */\n      add\n        /* \"contracts/UnderstandEVMbytecode/part1.sol\":166:173  balance */\n      0x0\n        /* \"contracts/UnderstandEVMbytecode/part1.sol\":166:191  balance = balance + value */\n      dup2\n      swap1\n      sstore\n      pop\n        /* \"contracts/UnderstandEVMbytecode/part1.sol\":208:215  balance */\n      sload(0x0)\n        /* \"contracts/UnderstandEVMbytecode/part1.sol\":201:215  return balance */\n      swap1\n      pop\n        /* \"contracts/UnderstandEVMbytecode/part1.sol\":106:222  function add(uint value) public returns (uint256) {... */\n      swap2\n      swap1\n      pop\n      jump\t// out\n        /* \"contracts/UnderstandEVMbytecode/part1.sol\":80:99  uint public balance */\n    tag_9:\n      sload(0x0)\n      dup2\n      jump\t// out\n\n    auxdata: 0xa165627a7a72305820291a39ed57155087d9e277df8de2fe6090c9373c7e5cfb4a73bc823ac45a12570029\n}\n",
				"bytecode": {
					"linkReferences": {},
					"object": "608060405234801561001057600080fd5b5060fd8061001f6000396000f3006080604052600436106049576000357c0100000000000000000000000000000000000000000000000000000000900463ffffffff1680631003e2d214604e578063b69ef8a814608c575b600080fd5b348015605957600080fd5b5060766004803603810190808035906020019092919050505060b4565b6040518082815260200191505060405180910390f35b348015609757600080fd5b50609e60cb565b6040518082815260200191505060405180910390f35b600081600054016000819055506000549050919050565b600054815600a165627a7a72305820291a39ed57155087d9e277df8de2fe6090c9373c7e5cfb4a73bc823ac45a12570029",
					"opcodes": "PUSH1 0x80 PUSH1 0x40 MSTORE CALLVALUE DUP1 ISZERO PUSH2 0x10 JUMPI PUSH1 0x0 DUP1 REVERT JUMPDEST POP PUSH1 0xFD DUP1 PUSH2 0x1F PUSH1 0x0 CODECOPY PUSH1 0x0 RETURN STOP PUSH1 0x80 PUSH1 0x40 MSTORE PUSH1 0x4 CALLDATASIZE LT PUSH1 0x49 JUMPI PUSH1 0x0 CALLDATALOAD PUSH29 0x100000000000000000000000000000000000000000000000000000000 SWAP1 DIV PUSH4 0xFFFFFFFF AND DUP1 PUSH4 0x1003E2D2 EQ PUSH1 0x4E JUMPI DUP1 PUSH4 0xB69EF8A8 EQ PUSH1 0x8C JUMPI JUMPDEST PUSH1 0x0 DUP1 REVERT JUMPDEST CALLVALUE DUP1 ISZERO PUSH1 0x59 JUMPI PUSH1 0x0 DUP1 REVERT JUMPDEST POP PUSH1 0x76 PUSH1 0x4 DUP1 CALLDATASIZE SUB DUP2 ADD SWAP1 DUP1 DUP1 CALLDATALOAD SWAP1 PUSH1 0x20 ADD SWAP1 SWAP3 SWAP2 SWAP1 POP POP POP PUSH1 0xB4 JUMP JUMPDEST PUSH1 0x40 MLOAD DUP1 DUP3 DUP2 MSTORE PUSH1 0x20 ADD SWAP2 POP POP PUSH1 0x40 MLOAD DUP1 SWAP2 SUB SWAP1 RETURN JUMPDEST CALLVALUE DUP1 ISZERO PUSH1 0x97 JUMPI PUSH1 0x0 DUP1 REVERT JUMPDEST POP PUSH1 0x9E PUSH1 0xCB JUMP JUMPDEST PUSH1 0x40 MLOAD DUP1 DUP3 DUP2 MSTORE PUSH1 0x20 ADD SWAP2 POP POP PUSH1 0x40 MLOAD DUP1 SWAP2 SUB SWAP1 RETURN JUMPDEST PUSH1 0x0 DUP2 PUSH1 0x0 SLOAD ADD PUSH1 0x0 DUP2 SWAP1 SSTORE POP PUSH1 0x0 SLOAD SWAP1 POP SWAP2 SWAP1 POP JUMP JUMPDEST PUSH1 0x0 SLOAD DUP2 JUMP STOP LOG1 PUSH6 0x627A7A723058 KECCAK256 0x29 BYTE CODECOPY 0xed JUMPI ISZERO POP DUP8 0xd9 0xe2 PUSH24 0xDF8DE2FE6090C9373C7E5CFB4A73BC823AC45A1257002900 "
				},
				"gasEstimates": {
					"creation": {
						"codeDepositCost": "50600",
						"executionCost": "99",
						"totalCost": "50699"
					},
					"external": {
						"add(uint256)": "20683",
						"balance()": "416"
					}
				},
				"methodIdentifiers": {
					"add(uint256)": "1003e2d2",
					"balance()": "b69ef8a8"
				}
			},
			"userdoc": {
				"methods": {}
			}
		}
	}
}