{
	"contracts/10_reentranncyhack.sol": {
		"ReentrancyHack": {
			"abi": [
				{
					"inputs": [],
					"name": "give",
					"outputs": [
						{
							"internalType": "uint256",
							"name": "",
							"type": "uint256"
						}
					],
					"stateMutability": "payable",
					"type": "function"
				},
				{
					"inputs": [],
					"name": "hackLevel",
					"outputs": [],
					"stateMutability": "nonpayable",
					"type": "function"
				}
			],
			"devdoc": {
				"kind": "dev",
				"methods": {},
				"version": 1
			},
			"evm": {
				"assembly": "    /* \"contracts/10_reentranncyhack.sol\":191:478  contract ReentrancyHack {... */\n  mstore(0x40, 0x80)\n    /* \"contracts/10_reentranncyhack.sol\":260:302  0x34889C648705e531acfB0561D77bB5b29C06AAb5 */\n  0x34889c648705e531acfb0561d77bb5b29c06aab5\n    /* \"contracts/10_reentranncyhack.sol\":221:303  IReentranncy reentrancy = IReentranncy(0x34889C648705e531acfB0561D77bB5b29C06AAb5) */\n  0x00\n  dup1\n  0x0100\n  exp\n  dup2\n  sload\n  dup2\n  0xffffffffffffffffffffffffffffffffffffffff\n  mul\n  not\n  and\n  swap1\n  dup4\n  0xffffffffffffffffffffffffffffffffffffffff\n  and\n  mul\n  or\n  swap1\n  sstore\n  pop\n    /* \"contracts/10_reentranncyhack.sol\":191:478  contract ReentrancyHack {... */\n  callvalue\n  dup1\n  iszero\n  tag_1\n  jumpi\n  0x00\n  dup1\n  revert\ntag_1:\n  pop\n  dataSize(sub_0)\n  dup1\n  dataOffset(sub_0)\n  0x00\n  codecopy\n  0x00\n  return\nstop\n\nsub_0: assembly {\n        /* \"contracts/10_reentranncyhack.sol\":191:478  contract ReentrancyHack {... */\n      mstore(0x40, 0x80)\n      jumpi(tag_1, lt(calldatasize, 0x04))\n      shr(0xe0, calldataload(0x00))\n      dup1\n      0x9e96a23a\n      eq\n      tag_2\n      jumpi\n      dup1\n      0xcd6b4b55\n      eq\n      tag_3\n      jumpi\n    tag_1:\n      0x00\n      dup1\n      revert\n        /* \"contracts/10_reentranncyhack.sol\":310:432  function give() public payable returns(uint) {... */\n    tag_2:\n      tag_4\n      tag_5\n      jump\t// in\n    tag_4:\n      mload(0x40)\n      tag_6\n      swap2\n      swap1\n      tag_7\n      jump\t// in\n    tag_6:\n      mload(0x40)\n      dup1\n      swap2\n      sub\n      swap1\n      return\n        /* \"contracts/10_reentranncyhack.sol\":437:475  function hackLevel() external {... */\n    tag_3:\n      callvalue\n      dup1\n      iszero\n      tag_8\n      jumpi\n      0x00\n      dup1\n      revert\n    tag_8:\n      pop\n      tag_9\n      tag_10\n      jump\t// in\n    tag_9:\n      stop\n        /* \"contracts/10_reentranncyhack.sol\":310:432  function give() public payable returns(uint) {... */\n    tag_5:\n        /* \"contracts/10_reentranncyhack.sol\":349:353  uint */\n      0x00\n        /* \"contracts/10_reentranncyhack.sol\":385:386  0 */\n      dup1\n        /* \"contracts/10_reentranncyhack.sol\":373:382  msg.value */\n      callvalue\n        /* \"contracts/10_reentranncyhack.sol\":373:386  msg.value > 0 */\n      gt\n        /* \"contracts/10_reentranncyhack.sol\":365:387  require(msg.value > 0) */\n      tag_12\n      jumpi\n      0x00\n      dup1\n      revert\n    tag_12:\n        /* \"contracts/10_reentranncyhack.sol\":404:425  address(this).balance */\n      selfbalance\n        /* \"contracts/10_reentranncyhack.sol\":397:425  return address(this).balance */\n      swap1\n      pop\n        /* \"contracts/10_reentranncyhack.sol\":310:432  function give() public payable returns(uint) {... */\n      swap1\n      jump\t// out\n        /* \"contracts/10_reentranncyhack.sol\":437:475  function hackLevel() external {... */\n    tag_10:\n      jump\t// out\n        /* \"#utility.yul\":7:84   */\n    tag_14:\n        /* \"#utility.yul\":44:51   */\n      0x00\n        /* \"#utility.yul\":73:78   */\n      dup2\n        /* \"#utility.yul\":62:78   */\n      swap1\n      pop\n        /* \"#utility.yul\":7:84   */\n      swap2\n      swap1\n      pop\n      jump\t// out\n        /* \"#utility.yul\":90:208   */\n    tag_15:\n        /* \"#utility.yul\":177:201   */\n      tag_19\n        /* \"#utility.yul\":195:200   */\n      dup2\n        /* \"#utility.yul\":177:201   */\n      tag_14\n      jump\t// in\n    tag_19:\n        /* \"#utility.yul\":172:175   */\n      dup3\n        /* \"#utility.yul\":165:202   */\n      mstore\n        /* \"#utility.yul\":90:208   */\n      pop\n      pop\n      jump\t// out\n        /* \"#utility.yul\":214:436   */\n    tag_7:\n        /* \"#utility.yul\":307:311   */\n      0x00\n        /* \"#utility.yul\":345:347   */\n      0x20\n        /* \"#utility.yul\":334:343   */\n      dup3\n        /* \"#utility.yul\":330:348   */\n      add\n        /* \"#utility.yul\":322:348   */\n      swap1\n      pop\n        /* \"#utility.yul\":358:429   */\n      tag_21\n        /* \"#utility.yul\":426:427   */\n      0x00\n        /* \"#utility.yul\":415:424   */\n      dup4\n        /* \"#utility.yul\":411:428   */\n      add\n        /* \"#utility.yul\":402:408   */\n      dup5\n        /* \"#utility.yul\":358:429   */\n      tag_15\n      jump\t// in\n    tag_21:\n        /* \"#utility.yul\":214:436   */\n      swap3\n      swap2\n      pop\n      pop\n      jump\t// out\n\n    auxdata: 0xa26469706673582212206e4f85a288f74662f2e0573bdcef5273163bcc76a48fb56f6410a42fad4bfbcd64736f6c634300080d0033\n}\n",
				"bytecode": {
					"linkReferences": {},
					"object": "60806040527334889c648705e531acfb0561d77bb5b29c06aab56000806101000a81548173ffffffffffffffffffffffffffffffffffffffff021916908373ffffffffffffffffffffffffffffffffffffffff16021790555034801561006457600080fd5b5060d4806100736000396000f3fe60806040526004361060265760003560e01c80639e96a23a14602b578063cd6b4b55146045575b600080fd5b60316059565b604051603c91906085565b60405180910390f35b348015605057600080fd5b506057606c565b005b6000803411606657600080fd5b47905090565b565b6000819050919050565b607f81606e565b82525050565b6000602082019050609860008301846078565b9291505056fea26469706673582212206e4f85a288f74662f2e0573bdcef5273163bcc76a48fb56f6410a42fad4bfbcd64736f6c634300080d0033",
					"opcodes": "PUSH1 0x80 PUSH1 0x40 MSTORE PUSH20 0x34889C648705E531ACFB0561D77BB5B29C06AAB5 PUSH1 0x0 DUP1 PUSH2 0x100 EXP DUP2 SLOAD DUP2 PUSH20 0xFFFFFFFFFFFFFFFFFFFFFFFFFFFFFFFFFFFFFFFF MUL NOT AND SWAP1 DUP4 PUSH20 0xFFFFFFFFFFFFFFFFFFFFFFFFFFFFFFFFFFFFFFFF AND MUL OR SWAP1 SSTORE POP CALLVALUE DUP1 ISZERO PUSH2 0x64 JUMPI PUSH1 0x0 DUP1 REVERT JUMPDEST POP PUSH1 0xD4 DUP1 PUSH2 0x73 PUSH1 0x0 CODECOPY PUSH1 0x0 RETURN INVALID PUSH1 0x80 PUSH1 0x40 MSTORE PUSH1 0x4 CALLDATASIZE LT PUSH1 0x26 JUMPI PUSH1 0x0 CALLDATALOAD PUSH1 0xE0 SHR DUP1 PUSH4 0x9E96A23A EQ PUSH1 0x2B JUMPI DUP1 PUSH4 0xCD6B4B55 EQ PUSH1 0x45 JUMPI JUMPDEST PUSH1 0x0 DUP1 REVERT JUMPDEST PUSH1 0x31 PUSH1 0x59 JUMP JUMPDEST PUSH1 0x40 MLOAD PUSH1 0x3C SWAP2 SWAP1 PUSH1 0x85 JUMP JUMPDEST PUSH1 0x40 MLOAD DUP1 SWAP2 SUB SWAP1 RETURN JUMPDEST CALLVALUE DUP1 ISZERO PUSH1 0x50 JUMPI PUSH1 0x0 DUP1 REVERT JUMPDEST POP PUSH1 0x57 PUSH1 0x6C JUMP JUMPDEST STOP JUMPDEST PUSH1 0x0 DUP1 CALLVALUE GT PUSH1 0x66 JUMPI PUSH1 0x0 DUP1 REVERT JUMPDEST SELFBALANCE SWAP1 POP SWAP1 JUMP JUMPDEST JUMP JUMPDEST PUSH1 0x0 DUP2 SWAP1 POP SWAP2 SWAP1 POP JUMP JUMPDEST PUSH1 0x7F DUP2 PUSH1 0x6E JUMP JUMPDEST DUP3 MSTORE POP POP JUMP JUMPDEST PUSH1 0x0 PUSH1 0x20 DUP3 ADD SWAP1 POP PUSH1 0x98 PUSH1 0x0 DUP4 ADD DUP5 PUSH1 0x78 JUMP JUMPDEST SWAP3 SWAP2 POP POP JUMP INVALID LOG2 PUSH5 0x6970667358 0x22 SLT KECCAK256 PUSH15 0x4F85A288F74662F2E0573BDCEF5273 AND EXTCODESIZE 0xCC PUSH23 0xA48FB56F6410A42FAD4BFBCD64736F6C634300080D0033 "
				},
				"gasEstimates": {
					"creation": {
						"codeDepositCost": "42400",
						"executionCost": "24360",
						"totalCost": "66760"
					},
					"external": {
						"give()": "315",
						"hackLevel()": "144"
					}
				},
				"methodIdentifiers": {
					"give()": "9e96a23a",
					"hackLevel()": "cd6b4b55"
				}
			},
			"storageLayout": {
				"storage": [
					{
						"astId": 20,
						"contract": "contracts/10_reentranncyhack.sol:ReentrancyHack",
						"label": "reentrancy",
						"offset": 0,
						"slot": "0",
						"type": "t_contract(IReentranncy)14"
					}
				],
				"types": {
					"t_contract(IReentranncy)14": {
						"encoding": "inplace",
						"label": "contract IReentranncy",
						"numberOfBytes": "20"
					}
				}
			},
			"userdoc": {
				"kind": "user",
				"methods": {},
				"version": 1
			}
		}
	}
}