{
	"contracts/NestedStruct.sol": {
		"Nest": {
			"abi": [
				{
					"inputs": [
						{
							"internalType": "uint256",
							"name": "id",
							"type": "uint256"
						},
						{
							"internalType": "bytes32",
							"name": "hash",
							"type": "bytes32"
						},
						{
							"internalType": "uint256",
							"name": "size",
							"type": "uint256"
						}
					],
					"name": "addMember",
					"outputs": [
						{
							"internalType": "bool",
							"name": "success",
							"type": "bool"
						}
					],
					"stateMutability": "nonpayable",
					"type": "function"
				},
				{
					"inputs": [
						{
							"internalType": "uint256",
							"name": "id",
							"type": "uint256"
						}
					],
					"name": "getMember",
					"outputs": [
						{
							"internalType": "bytes32",
							"name": "hash",
							"type": "bytes32"
						},
						{
							"internalType": "uint256",
							"name": "hashSize",
							"type": "uint256"
						}
					],
					"stateMutability": "view",
					"type": "function"
				}
			],
			"devdoc": {
				"kind": "dev",
				"methods": {},
				"version": 1
			},
			"evm": {
				"assembly": "    /* \"contracts/NestedStruct.sol\":778:1283  contract Nest {... */\n  mstore(0x40, 0x80)\n  callvalue\n  dup1\n  iszero\n  tag_1\n  jumpi\n  0x00\n  dup1\n  revert\ntag_1:\n  pop\n  dataSize(sub_0)\n  dup1\n  dataOffset(sub_0)\n  0x00\n  codecopy\n  0x00\n  return\nstop\n\nsub_0: assembly {\n        /* \"contracts/NestedStruct.sol\":778:1283  contract Nest {... */\n      mstore(0x40, 0x80)\n      callvalue\n      dup1\n      iszero\n      tag_1\n      jumpi\n      0x00\n      dup1\n      revert\n    tag_1:\n      pop\n      jumpi(tag_2, lt(calldatasize, 0x04))\n      shr(0xe0, calldataload(0x00))\n      dup1\n      0x77fab391\n      eq\n      tag_3\n      jumpi\n      dup1\n      0xab3545e5\n      eq\n      tag_4\n      jumpi\n    tag_2:\n      0x00\n      dup1\n      revert\n        /* \"contracts/NestedStruct.sol\":941:1125  function addMember(uint id, bytes32 hash, uint size) public returns(bool success) {... */\n    tag_3:\n      tag_5\n      0x04\n      dup1\n      calldatasize\n      sub\n      dup2\n      add\n      swap1\n      tag_6\n      swap2\n      swap1\n      tag_7\n      jump\t// in\n    tag_6:\n      tag_8\n      jump\t// in\n    tag_5:\n      mload(0x40)\n      tag_9\n      swap2\n      swap1\n      tag_10\n      jump\t// in\n    tag_9:\n      mload(0x40)\n      dup1\n      swap2\n      sub\n      swap1\n      return\n        /* \"contracts/NestedStruct.sol\":1129:1281  function getMember(uint id) public view returns(bytes32 hash, uint hashSize) {... */\n    tag_4:\n      tag_11\n      0x04\n      dup1\n      calldatasize\n      sub\n      dup2\n      add\n      swap1\n      tag_12\n      swap2\n      swap1\n      tag_13\n      jump\t// in\n    tag_12:\n      tag_14\n      jump\t// in\n    tag_11:\n      mload(0x40)\n      tag_15\n      swap3\n      swap2\n      swap1\n      tag_16\n      jump\t// in\n    tag_15:\n      mload(0x40)\n      dup1\n      swap2\n      sub\n      swap1\n      return\n        /* \"contracts/NestedStruct.sol\":941:1125  function addMember(uint id, bytes32 hash, uint size) public returns(bool success) {... */\n    tag_8:\n        /* \"contracts/NestedStruct.sol\":1009:1021  bool success */\n      0x00\n        /* \"contracts/NestedStruct.sol\":1057:1061  hash */\n      dup3\n        /* \"contracts/NestedStruct.sol\":1029:1036  members */\n      0x00\n        /* \"contracts/NestedStruct.sol\":1029:1040  members[id] */\n      dup1\n        /* \"contracts/NestedStruct.sol\":1037:1039  id */\n      dup7\n        /* \"contracts/NestedStruct.sol\":1029:1040  members[id] */\n      dup2\n      mstore\n      0x20\n      add\n      swap1\n      dup2\n      mstore\n      0x20\n      add\n      0x00\n      keccak256\n        /* \"contracts/NestedStruct.sol\":1029:1049  members[id].ipfsHash */\n      0x00\n      add\n        /* \"contracts/NestedStruct.sol\":1029:1054  members[id].ipfsHash.hash */\n      0x00\n      add\n        /* \"contracts/NestedStruct.sol\":1029:1061  members[id].ipfsHash.hash = hash */\n      dup2\n      swap1\n      sstore\n      pop\n        /* \"contracts/NestedStruct.sol\":1099:1103  size */\n      dup2\n        /* \"contracts/NestedStruct.sol\":1067:1074  members */\n      0x00\n        /* \"contracts/NestedStruct.sol\":1067:1078  members[id] */\n      dup1\n        /* \"contracts/NestedStruct.sol\":1075:1077  id */\n      dup7\n        /* \"contracts/NestedStruct.sol\":1067:1078  members[id] */\n      dup2\n      mstore\n      0x20\n      add\n      swap1\n      dup2\n      mstore\n      0x20\n      add\n      0x00\n      keccak256\n        /* \"contracts/NestedStruct.sol\":1067:1087  members[id].ipfsHash */\n      0x00\n      add\n        /* \"contracts/NestedStruct.sol\":1067:1096  members[id].ipfsHash.hashSize */\n      0x01\n      add\n        /* \"contracts/NestedStruct.sol\":1067:1103  members[id].ipfsHash.hashSize = size */\n      dup2\n      swap1\n      sstore\n      pop\n        /* \"contracts/NestedStruct.sol\":1116:1120  true */\n      0x01\n        /* \"contracts/NestedStruct.sol\":1109:1120  return true */\n      swap1\n      pop\n        /* \"contracts/NestedStruct.sol\":941:1125  function addMember(uint id, bytes32 hash, uint size) public returns(bool success) {... */\n      swap4\n      swap3\n      pop\n      pop\n      pop\n      jump\t// out\n        /* \"contracts/NestedStruct.sol\":1129:1281  function getMember(uint id) public view returns(bytes32 hash, uint hashSize) {... */\n    tag_14:\n        /* \"contracts/NestedStruct.sol\":1177:1189  bytes32 hash */\n      0x00\n        /* \"contracts/NestedStruct.sol\":1191:1204  uint hashSize */\n      dup1\n        /* \"contracts/NestedStruct.sol\":1219:1226  members */\n      0x00\n        /* \"contracts/NestedStruct.sol\":1219:1230  members[id] */\n      dup1\n        /* \"contracts/NestedStruct.sol\":1227:1229  id */\n      dup5\n        /* \"contracts/NestedStruct.sol\":1219:1230  members[id] */\n      dup2\n      mstore\n      0x20\n      add\n      swap1\n      dup2\n      mstore\n      0x20\n      add\n      0x00\n      keccak256\n        /* \"contracts/NestedStruct.sol\":1219:1239  members[id].ipfsHash */\n      0x00\n      add\n        /* \"contracts/NestedStruct.sol\":1219:1244  members[id].ipfsHash.hash */\n      0x00\n      add\n      sload\n        /* \"contracts/NestedStruct.sol\":1246:1253  members */\n      0x00\n        /* \"contracts/NestedStruct.sol\":1246:1257  members[id] */\n      dup1\n        /* \"contracts/NestedStruct.sol\":1254:1256  id */\n      dup6\n        /* \"contracts/NestedStruct.sol\":1246:1257  members[id] */\n      dup2\n      mstore\n      0x20\n      add\n      swap1\n      dup2\n      mstore\n      0x20\n      add\n      0x00\n      keccak256\n        /* \"contracts/NestedStruct.sol\":1246:1266  members[id].ipfsHash */\n      0x00\n      add\n        /* \"contracts/NestedStruct.sol\":1246:1275  members[id].ipfsHash.hashSize */\n      0x01\n      add\n      sload\n        /* \"contracts/NestedStruct.sol\":1212:1276  return(members[id].ipfsHash.hash, members[id].ipfsHash.hashSize) */\n      swap2\n      pop\n      swap2\n      pop\n        /* \"contracts/NestedStruct.sol\":1129:1281  function getMember(uint id) public view returns(bytes32 hash, uint hashSize) {... */\n      swap2\n      pop\n      swap2\n      jump\t// out\n        /* \"#utility.yul\":88:205   */\n    tag_20:\n        /* \"#utility.yul\":197:198   */\n      0x00\n        /* \"#utility.yul\":194:195   */\n      dup1\n        /* \"#utility.yul\":187:199   */\n      revert\n        /* \"#utility.yul\":334:411   */\n    tag_22:\n        /* \"#utility.yul\":371:378   */\n      0x00\n        /* \"#utility.yul\":400:405   */\n      dup2\n        /* \"#utility.yul\":389:405   */\n      swap1\n      pop\n        /* \"#utility.yul\":334:411   */\n      swap2\n      swap1\n      pop\n      jump\t// out\n        /* \"#utility.yul\":417:539   */\n    tag_23:\n        /* \"#utility.yul\":490:514   */\n      tag_38\n        /* \"#utility.yul\":508:513   */\n      dup2\n        /* \"#utility.yul\":490:514   */\n      tag_22\n      jump\t// in\n    tag_38:\n        /* \"#utility.yul\":483:488   */\n      dup2\n        /* \"#utility.yul\":480:515   */\n      eq\n        /* \"#utility.yul\":470:533   */\n      tag_39\n      jumpi\n        /* \"#utility.yul\":529:530   */\n      0x00\n        /* \"#utility.yul\":526:527   */\n      dup1\n        /* \"#utility.yul\":519:531   */\n      revert\n        /* \"#utility.yul\":470:533   */\n    tag_39:\n        /* \"#utility.yul\":417:539   */\n      pop\n      jump\t// out\n        /* \"#utility.yul\":545:684   */\n    tag_24:\n        /* \"#utility.yul\":591:596   */\n      0x00\n        /* \"#utility.yul\":629:635   */\n      dup2\n        /* \"#utility.yul\":616:636   */\n      calldataload\n        /* \"#utility.yul\":607:636   */\n      swap1\n      pop\n        /* \"#utility.yul\":645:678   */\n      tag_41\n        /* \"#utility.yul\":672:677   */\n      dup2\n        /* \"#utility.yul\":645:678   */\n      tag_23\n      jump\t// in\n    tag_41:\n        /* \"#utility.yul\":545:684   */\n      swap3\n      swap2\n      pop\n      pop\n      jump\t// out\n        /* \"#utility.yul\":690:767   */\n    tag_25:\n        /* \"#utility.yul\":727:734   */\n      0x00\n        /* \"#utility.yul\":756:761   */\n      dup2\n        /* \"#utility.yul\":745:761   */\n      swap1\n      pop\n        /* \"#utility.yul\":690:767   */\n      swap2\n      swap1\n      pop\n      jump\t// out\n        /* \"#utility.yul\":773:895   */\n    tag_26:\n        /* \"#utility.yul\":846:870   */\n      tag_44\n        /* \"#utility.yul\":864:869   */\n      dup2\n        /* \"#utility.yul\":846:870   */\n      tag_25\n      jump\t// in\n    tag_44:\n        /* \"#utility.yul\":839:844   */\n      dup2\n        /* \"#utility.yul\":836:871   */\n      eq\n        /* \"#utility.yul\":826:889   */\n      tag_45\n      jumpi\n        /* \"#utility.yul\":885:886   */\n      0x00\n        /* \"#utility.yul\":882:883   */\n      dup1\n        /* \"#utility.yul\":875:887   */\n      revert\n        /* \"#utility.yul\":826:889   */\n    tag_45:\n        /* \"#utility.yul\":773:895   */\n      pop\n      jump\t// out\n        /* \"#utility.yul\":901:1040   */\n    tag_27:\n        /* \"#utility.yul\":947:952   */\n      0x00\n        /* \"#utility.yul\":985:991   */\n      dup2\n        /* \"#utility.yul\":972:992   */\n      calldataload\n        /* \"#utility.yul\":963:992   */\n      swap1\n      pop\n        /* \"#utility.yul\":1001:1034   */\n      tag_47\n        /* \"#utility.yul\":1028:1033   */\n      dup2\n        /* \"#utility.yul\":1001:1034   */\n      tag_26\n      jump\t// in\n    tag_47:\n        /* \"#utility.yul\":901:1040   */\n      swap3\n      swap2\n      pop\n      pop\n      jump\t// out\n        /* \"#utility.yul\":1046:1665   */\n    tag_7:\n        /* \"#utility.yul\":1123:1129   */\n      0x00\n        /* \"#utility.yul\":1131:1137   */\n      dup1\n        /* \"#utility.yul\":1139:1145   */\n      0x00\n        /* \"#utility.yul\":1188:1190   */\n      0x60\n        /* \"#utility.yul\":1176:1185   */\n      dup5\n        /* \"#utility.yul\":1167:1174   */\n      dup7\n        /* \"#utility.yul\":1163:1186   */\n      sub\n        /* \"#utility.yul\":1159:1191   */\n      slt\n        /* \"#utility.yul\":1156:1275   */\n      iszero\n      tag_49\n      jumpi\n        /* \"#utility.yul\":1194:1273   */\n      tag_50\n      tag_20\n      jump\t// in\n    tag_50:\n        /* \"#utility.yul\":1156:1275   */\n    tag_49:\n        /* \"#utility.yul\":1314:1315   */\n      0x00\n        /* \"#utility.yul\":1339:1392   */\n      tag_51\n        /* \"#utility.yul\":1384:1391   */\n      dup7\n        /* \"#utility.yul\":1375:1381   */\n      dup3\n        /* \"#utility.yul\":1364:1373   */\n      dup8\n        /* \"#utility.yul\":1360:1382   */\n      add\n        /* \"#utility.yul\":1339:1392   */\n      tag_24\n      jump\t// in\n    tag_51:\n        /* \"#utility.yul\":1329:1392   */\n      swap4\n      pop\n        /* \"#utility.yul\":1285:1402   */\n      pop\n        /* \"#utility.yul\":1441:1443   */\n      0x20\n        /* \"#utility.yul\":1467:1520   */\n      tag_52\n        /* \"#utility.yul\":1512:1519   */\n      dup7\n        /* \"#utility.yul\":1503:1509   */\n      dup3\n        /* \"#utility.yul\":1492:1501   */\n      dup8\n        /* \"#utility.yul\":1488:1510   */\n      add\n        /* \"#utility.yul\":1467:1520   */\n      tag_27\n      jump\t// in\n    tag_52:\n        /* \"#utility.yul\":1457:1520   */\n      swap3\n      pop\n        /* \"#utility.yul\":1412:1530   */\n      pop\n        /* \"#utility.yul\":1569:1571   */\n      0x40\n        /* \"#utility.yul\":1595:1648   */\n      tag_53\n        /* \"#utility.yul\":1640:1647   */\n      dup7\n        /* \"#utility.yul\":1631:1637   */\n      dup3\n        /* \"#utility.yul\":1620:1629   */\n      dup8\n        /* \"#utility.yul\":1616:1638   */\n      add\n        /* \"#utility.yul\":1595:1648   */\n      tag_24\n      jump\t// in\n    tag_53:\n        /* \"#utility.yul\":1585:1648   */\n      swap2\n      pop\n        /* \"#utility.yul\":1540:1658   */\n      pop\n        /* \"#utility.yul\":1046:1665   */\n      swap3\n      pop\n      swap3\n      pop\n      swap3\n      jump\t// out\n        /* \"#utility.yul\":1671:1761   */\n    tag_28:\n        /* \"#utility.yul\":1705:1712   */\n      0x00\n        /* \"#utility.yul\":1748:1753   */\n      dup2\n        /* \"#utility.yul\":1741:1754   */\n      iszero\n        /* \"#utility.yul\":1734:1755   */\n      iszero\n        /* \"#utility.yul\":1723:1755   */\n      swap1\n      pop\n        /* \"#utility.yul\":1671:1761   */\n      swap2\n      swap1\n      pop\n      jump\t// out\n        /* \"#utility.yul\":1767:1876   */\n    tag_29:\n        /* \"#utility.yul\":1848:1869   */\n      tag_56\n        /* \"#utility.yul\":1863:1868   */\n      dup2\n        /* \"#utility.yul\":1848:1869   */\n      tag_28\n      jump\t// in\n    tag_56:\n        /* \"#utility.yul\":1843:1846   */\n      dup3\n        /* \"#utility.yul\":1836:1870   */\n      mstore\n        /* \"#utility.yul\":1767:1876   */\n      pop\n      pop\n      jump\t// out\n        /* \"#utility.yul\":1882:2092   */\n    tag_10:\n        /* \"#utility.yul\":1969:1973   */\n      0x00\n        /* \"#utility.yul\":2007:2009   */\n      0x20\n        /* \"#utility.yul\":1996:2005   */\n      dup3\n        /* \"#utility.yul\":1992:2010   */\n      add\n        /* \"#utility.yul\":1984:2010   */\n      swap1\n      pop\n        /* \"#utility.yul\":2020:2085   */\n      tag_58\n        /* \"#utility.yul\":2082:2083   */\n      0x00\n        /* \"#utility.yul\":2071:2080   */\n      dup4\n        /* \"#utility.yul\":2067:2084   */\n      add\n        /* \"#utility.yul\":2058:2064   */\n      dup5\n        /* \"#utility.yul\":2020:2085   */\n      tag_29\n      jump\t// in\n    tag_58:\n        /* \"#utility.yul\":1882:2092   */\n      swap3\n      swap2\n      pop\n      pop\n      jump\t// out\n        /* \"#utility.yul\":2098:2427   */\n    tag_13:\n        /* \"#utility.yul\":2157:2163   */\n      0x00\n        /* \"#utility.yul\":2206:2208   */\n      0x20\n        /* \"#utility.yul\":2194:2203   */\n      dup3\n        /* \"#utility.yul\":2185:2192   */\n      dup5\n        /* \"#utility.yul\":2181:2204   */\n      sub\n        /* \"#utility.yul\":2177:2209   */\n      slt\n        /* \"#utility.yul\":2174:2293   */\n      iszero\n      tag_60\n      jumpi\n        /* \"#utility.yul\":2212:2291   */\n      tag_61\n      tag_20\n      jump\t// in\n    tag_61:\n        /* \"#utility.yul\":2174:2293   */\n    tag_60:\n        /* \"#utility.yul\":2332:2333   */\n      0x00\n        /* \"#utility.yul\":2357:2410   */\n      tag_62\n        /* \"#utility.yul\":2402:2409   */\n      dup5\n        /* \"#utility.yul\":2393:2399   */\n      dup3\n        /* \"#utility.yul\":2382:2391   */\n      dup6\n        /* \"#utility.yul\":2378:2400   */\n      add\n        /* \"#utility.yul\":2357:2410   */\n      tag_24\n      jump\t// in\n    tag_62:\n        /* \"#utility.yul\":2347:2410   */\n      swap2\n      pop\n        /* \"#utility.yul\":2303:2420   */\n      pop\n        /* \"#utility.yul\":2098:2427   */\n      swap3\n      swap2\n      pop\n      pop\n      jump\t// out\n        /* \"#utility.yul\":2433:2551   */\n    tag_30:\n        /* \"#utility.yul\":2520:2544   */\n      tag_64\n        /* \"#utility.yul\":2538:2543   */\n      dup2\n        /* \"#utility.yul\":2520:2544   */\n      tag_25\n      jump\t// in\n    tag_64:\n        /* \"#utility.yul\":2515:2518   */\n      dup3\n        /* \"#utility.yul\":2508:2545   */\n      mstore\n        /* \"#utility.yul\":2433:2551   */\n      pop\n      pop\n      jump\t// out\n        /* \"#utility.yul\":2557:2675   */\n    tag_31:\n        /* \"#utility.yul\":2644:2668   */\n      tag_66\n        /* \"#utility.yul\":2662:2667   */\n      dup2\n        /* \"#utility.yul\":2644:2668   */\n      tag_22\n      jump\t// in\n    tag_66:\n        /* \"#utility.yul\":2639:2642   */\n      dup3\n        /* \"#utility.yul\":2632:2669   */\n      mstore\n        /* \"#utility.yul\":2557:2675   */\n      pop\n      pop\n      jump\t// out\n        /* \"#utility.yul\":2681:3013   */\n    tag_16:\n        /* \"#utility.yul\":2802:2806   */\n      0x00\n        /* \"#utility.yul\":2840:2842   */\n      0x40\n        /* \"#utility.yul\":2829:2838   */\n      dup3\n        /* \"#utility.yul\":2825:2843   */\n      add\n        /* \"#utility.yul\":2817:2843   */\n      swap1\n      pop\n        /* \"#utility.yul\":2853:2924   */\n      tag_68\n        /* \"#utility.yul\":2921:2922   */\n      0x00\n        /* \"#utility.yul\":2910:2919   */\n      dup4\n        /* \"#utility.yul\":2906:2923   */\n      add\n        /* \"#utility.yul\":2897:2903   */\n      dup6\n        /* \"#utility.yul\":2853:2924   */\n      tag_30\n      jump\t// in\n    tag_68:\n        /* \"#utility.yul\":2934:3006   */\n      tag_69\n        /* \"#utility.yul\":3002:3004   */\n      0x20\n        /* \"#utility.yul\":2991:3000   */\n      dup4\n        /* \"#utility.yul\":2987:3005   */\n      add\n        /* \"#utility.yul\":2978:2984   */\n      dup5\n        /* \"#utility.yul\":2934:3006   */\n      tag_31\n      jump\t// in\n    tag_69:\n        /* \"#utility.yul\":2681:3013   */\n      swap4\n      swap3\n      pop\n      pop\n      pop\n      jump\t// out\n\n    auxdata: 0xa264697066735822122007671e8054ac9ab4a748d7585ea37ffa22dcffd05206eedb95dfef92863d4fa764736f6c63430008110033\n}\n",
				"bytecode": {
					"linkReferences": {},
					"object": "608060405234801561001057600080fd5b506102c5806100206000396000f3fe608060405234801561001057600080fd5b50600436106100365760003560e01c806377fab3911461003b578063ab3545e51461006b575b600080fd5b61005560048036038101906100509190610192565b61009c565b6040516100629190610200565b60405180910390f35b6100856004803603810190610080919061021b565b6100e3565b604051610093929190610266565b60405180910390f35b600082600080868152602001908152602001600020600001600001819055508160008086815260200190815260200160002060000160010181905550600190509392505050565b600080600080848152602001908152602001600020600001600001546000808581526020019081526020016000206000016001015491509150915091565b600080fd5b6000819050919050565b61013981610126565b811461014457600080fd5b50565b60008135905061015681610130565b92915050565b6000819050919050565b61016f8161015c565b811461017a57600080fd5b50565b60008135905061018c81610166565b92915050565b6000806000606084860312156101ab576101aa610121565b5b60006101b986828701610147565b93505060206101ca8682870161017d565b92505060406101db86828701610147565b9150509250925092565b60008115159050919050565b6101fa816101e5565b82525050565b600060208201905061021560008301846101f1565b92915050565b60006020828403121561023157610230610121565b5b600061023f84828501610147565b91505092915050565b6102518161015c565b82525050565b61026081610126565b82525050565b600060408201905061027b6000830185610248565b6102886020830184610257565b939250505056fea264697066735822122007671e8054ac9ab4a748d7585ea37ffa22dcffd05206eedb95dfef92863d4fa764736f6c63430008110033",
					"opcodes": "PUSH1 0x80 PUSH1 0x40 MSTORE CALLVALUE DUP1 ISZERO PUSH2 0x10 JUMPI PUSH1 0x0 DUP1 REVERT JUMPDEST POP PUSH2 0x2C5 DUP1 PUSH2 0x20 PUSH1 0x0 CODECOPY PUSH1 0x0 RETURN INVALID PUSH1 0x80 PUSH1 0x40 MSTORE CALLVALUE DUP1 ISZERO PUSH2 0x10 JUMPI PUSH1 0x0 DUP1 REVERT JUMPDEST POP PUSH1 0x4 CALLDATASIZE LT PUSH2 0x36 JUMPI PUSH1 0x0 CALLDATALOAD PUSH1 0xE0 SHR DUP1 PUSH4 0x77FAB391 EQ PUSH2 0x3B JUMPI DUP1 PUSH4 0xAB3545E5 EQ PUSH2 0x6B JUMPI JUMPDEST PUSH1 0x0 DUP1 REVERT JUMPDEST PUSH2 0x55 PUSH1 0x4 DUP1 CALLDATASIZE SUB DUP2 ADD SWAP1 PUSH2 0x50 SWAP2 SWAP1 PUSH2 0x192 JUMP JUMPDEST PUSH2 0x9C JUMP JUMPDEST PUSH1 0x40 MLOAD PUSH2 0x62 SWAP2 SWAP1 PUSH2 0x200 JUMP JUMPDEST PUSH1 0x40 MLOAD DUP1 SWAP2 SUB SWAP1 RETURN JUMPDEST PUSH2 0x85 PUSH1 0x4 DUP1 CALLDATASIZE SUB DUP2 ADD SWAP1 PUSH2 0x80 SWAP2 SWAP1 PUSH2 0x21B JUMP JUMPDEST PUSH2 0xE3 JUMP JUMPDEST PUSH1 0x40 MLOAD PUSH2 0x93 SWAP3 SWAP2 SWAP1 PUSH2 0x266 JUMP JUMPDEST PUSH1 0x40 MLOAD DUP1 SWAP2 SUB SWAP1 RETURN JUMPDEST PUSH1 0x0 DUP3 PUSH1 0x0 DUP1 DUP7 DUP2 MSTORE PUSH1 0x20 ADD SWAP1 DUP2 MSTORE PUSH1 0x20 ADD PUSH1 0x0 KECCAK256 PUSH1 0x0 ADD PUSH1 0x0 ADD DUP2 SWAP1 SSTORE POP DUP2 PUSH1 0x0 DUP1 DUP7 DUP2 MSTORE PUSH1 0x20 ADD SWAP1 DUP2 MSTORE PUSH1 0x20 ADD PUSH1 0x0 KECCAK256 PUSH1 0x0 ADD PUSH1 0x1 ADD DUP2 SWAP1 SSTORE POP PUSH1 0x1 SWAP1 POP SWAP4 SWAP3 POP POP POP JUMP JUMPDEST PUSH1 0x0 DUP1 PUSH1 0x0 DUP1 DUP5 DUP2 MSTORE PUSH1 0x20 ADD SWAP1 DUP2 MSTORE PUSH1 0x20 ADD PUSH1 0x0 KECCAK256 PUSH1 0x0 ADD PUSH1 0x0 ADD SLOAD PUSH1 0x0 DUP1 DUP6 DUP2 MSTORE PUSH1 0x20 ADD SWAP1 DUP2 MSTORE PUSH1 0x20 ADD PUSH1 0x0 KECCAK256 PUSH1 0x0 ADD PUSH1 0x1 ADD SLOAD SWAP2 POP SWAP2 POP SWAP2 POP SWAP2 JUMP JUMPDEST PUSH1 0x0 DUP1 REVERT JUMPDEST PUSH1 0x0 DUP2 SWAP1 POP SWAP2 SWAP1 POP JUMP JUMPDEST PUSH2 0x139 DUP2 PUSH2 0x126 JUMP JUMPDEST DUP2 EQ PUSH2 0x144 JUMPI PUSH1 0x0 DUP1 REVERT JUMPDEST POP JUMP JUMPDEST PUSH1 0x0 DUP2 CALLDATALOAD SWAP1 POP PUSH2 0x156 DUP2 PUSH2 0x130 JUMP JUMPDEST SWAP3 SWAP2 POP POP JUMP JUMPDEST PUSH1 0x0 DUP2 SWAP1 POP SWAP2 SWAP1 POP JUMP JUMPDEST PUSH2 0x16F DUP2 PUSH2 0x15C JUMP JUMPDEST DUP2 EQ PUSH2 0x17A JUMPI PUSH1 0x0 DUP1 REVERT JUMPDEST POP JUMP JUMPDEST PUSH1 0x0 DUP2 CALLDATALOAD SWAP1 POP PUSH2 0x18C DUP2 PUSH2 0x166 JUMP JUMPDEST SWAP3 SWAP2 POP POP JUMP JUMPDEST PUSH1 0x0 DUP1 PUSH1 0x0 PUSH1 0x60 DUP5 DUP7 SUB SLT ISZERO PUSH2 0x1AB JUMPI PUSH2 0x1AA PUSH2 0x121 JUMP JUMPDEST JUMPDEST PUSH1 0x0 PUSH2 0x1B9 DUP7 DUP3 DUP8 ADD PUSH2 0x147 JUMP JUMPDEST SWAP4 POP POP PUSH1 0x20 PUSH2 0x1CA DUP7 DUP3 DUP8 ADD PUSH2 0x17D JUMP JUMPDEST SWAP3 POP POP PUSH1 0x40 PUSH2 0x1DB DUP7 DUP3 DUP8 ADD PUSH2 0x147 JUMP JUMPDEST SWAP2 POP POP SWAP3 POP SWAP3 POP SWAP3 JUMP JUMPDEST PUSH1 0x0 DUP2 ISZERO ISZERO SWAP1 POP SWAP2 SWAP1 POP JUMP JUMPDEST PUSH2 0x1FA DUP2 PUSH2 0x1E5 JUMP JUMPDEST DUP3 MSTORE POP POP JUMP JUMPDEST PUSH1 0x0 PUSH1 0x20 DUP3 ADD SWAP1 POP PUSH2 0x215 PUSH1 0x0 DUP4 ADD DUP5 PUSH2 0x1F1 JUMP JUMPDEST SWAP3 SWAP2 POP POP JUMP JUMPDEST PUSH1 0x0 PUSH1 0x20 DUP3 DUP5 SUB SLT ISZERO PUSH2 0x231 JUMPI PUSH2 0x230 PUSH2 0x121 JUMP JUMPDEST JUMPDEST PUSH1 0x0 PUSH2 0x23F DUP5 DUP3 DUP6 ADD PUSH2 0x147 JUMP JUMPDEST SWAP2 POP POP SWAP3 SWAP2 POP POP JUMP JUMPDEST PUSH2 0x251 DUP2 PUSH2 0x15C JUMP JUMPDEST DUP3 MSTORE POP POP JUMP JUMPDEST PUSH2 0x260 DUP2 PUSH2 0x126 JUMP JUMPDEST DUP3 MSTORE POP POP JUMP JUMPDEST PUSH1 0x0 PUSH1 0x40 DUP3 ADD SWAP1 POP PUSH2 0x27B PUSH1 0x0 DUP4 ADD DUP6 PUSH2 0x248 JUMP JUMPDEST PUSH2 0x288 PUSH1 0x20 DUP4 ADD DUP5 PUSH2 0x257 JUMP JUMPDEST SWAP4 SWAP3 POP POP POP JUMP INVALID LOG2 PUSH5 0x6970667358 0x22 SLT KECCAK256 SMOD PUSH8 0x1E8054AC9AB4A748 0xD7 PC 0x5E LOG3 PUSH32 0xFA22DCFFD05206EEDB95DFEF92863D4FA764736F6C6343000811003300000000 "
				},
				"gasEstimates": {
					"creation": {
						"codeDepositCost": "141800",
						"executionCost": "190",
						"totalCost": "141990"
					},
					"external": {
						"addMember(uint256,bytes32,uint256)": "infinite",
						"getMember(uint256)": "infinite"
					}
				},
				"methodIdentifiers": {
					"addMember(uint256,bytes32,uint256)": "77fab391",
					"getMember(uint256)": "ab3545e5"
				}
			},
			"storageLayout": {
				"storage": [
					{
						"astId": 88,
						"contract": "contracts/NestedStruct.sol:Nest",
						"label": "members",
						"offset": 0,
						"slot": "0",
						"type": "t_mapping(t_uint256,t_struct(Member)83_storage)"
					}
				],
				"types": {
					"t_bytes32": {
						"encoding": "inplace",
						"label": "bytes32",
						"numberOfBytes": "32"
					},
					"t_mapping(t_uint256,t_struct(Member)83_storage)": {
						"encoding": "mapping",
						"key": "t_uint256",
						"label": "mapping(uint256 => struct Nest.Member)",
						"numberOfBytes": "32",
						"value": "t_struct(Member)83_storage"
					},
					"t_struct(IpfsHash)79_storage": {
						"encoding": "inplace",
						"label": "struct Nest.IpfsHash",
						"members": [
							{
								"astId": 76,
								"contract": "contracts/NestedStruct.sol:Nest",
								"label": "hash",
								"offset": 0,
								"slot": "0",
								"type": "t_bytes32"
							},
							{
								"astId": 78,
								"contract": "contracts/NestedStruct.sol:Nest",
								"label": "hashSize",
								"offset": 0,
								"slot": "1",
								"type": "t_uint256"
							}
						],
						"numberOfBytes": "64"
					},
					"t_struct(Member)83_storage": {
						"encoding": "inplace",
						"label": "struct Nest.Member",
						"members": [
							{
								"astId": 82,
								"contract": "contracts/NestedStruct.sol:Nest",
								"label": "ipfsHash",
								"offset": 0,
								"slot": "0",
								"type": "t_struct(IpfsHash)79_storage"
							}
						],
						"numberOfBytes": "64"
					},
					"t_uint256": {
						"encoding": "inplace",
						"label": "uint256",
						"numberOfBytes": "32"
					}
				}
			},
			"userdoc": {
				"kind": "user",
				"methods": {},
				"version": 1
			}
		}
	}
}