{
	"contracts/DeployByteCode.sol": {
		"Attack": {
			"abi": [
				{
					"constant": true,
					"inputs": [],
					"name": "whatIsTheMeaningOfLife",
					"outputs": [
						{
							"name": "",
							"type": "uint256"
						}
					],
					"payable": false,
					"stateMutability": "view",
					"type": "function"
				}
			],
			"devdoc": {
				"methods": {}
			},
			"evm": {
				"assembly": "    /* \"contracts/DeployByteCode.sol\":57:171  contract Attack {... */\n  mstore(0x40, 0x80)\n  callvalue\n    /* \"--CODEGEN--\":8:17   */\n  dup1\n    /* \"--CODEGEN--\":5:7   */\n  iszero\n  tag_1\n  jumpi\n    /* \"--CODEGEN--\":30:31   */\n  0x00\n    /* \"--CODEGEN--\":27:28   */\n  dup1\n    /* \"--CODEGEN--\":20:32   */\n  revert\n    /* \"--CODEGEN--\":5:7   */\ntag_1:\n    /* \"contracts/DeployByteCode.sol\":57:171  contract Attack {... */\n  pop\n  dataSize(sub_0)\n  dup1\n  dataOffset(sub_0)\n  0x00\n  codecopy\n  0x00\n  return\nstop\n\nsub_0: assembly {\n        /* \"contracts/DeployByteCode.sol\":57:171  contract Attack {... */\n      mstore(0x40, 0x80)\n      callvalue\n        /* \"--CODEGEN--\":8:17   */\n      dup1\n        /* \"--CODEGEN--\":5:7   */\n      iszero\n      tag_1\n      jumpi\n        /* \"--CODEGEN--\":30:31   */\n      0x00\n        /* \"--CODEGEN--\":27:28   */\n      dup1\n        /* \"--CODEGEN--\":20:32   */\n      revert\n        /* \"--CODEGEN--\":5:7   */\n    tag_1:\n        /* \"contracts/DeployByteCode.sol\":57:171  contract Attack {... */\n      pop\n      jumpi(tag_2, lt(calldatasize, 0x04))\n      shr(0xe0, calldataload(0x00))\n      dup1\n      0x650500c1\n      eq\n      tag_3\n      jumpi\n    tag_2:\n      0x00\n      dup1\n      revert\n        /* \"contracts/DeployByteCode.sol\":79:169  function whatIsTheMeaningOfLife() public pure returns (uint256 ){... */\n    tag_3:\n      tag_4\n      tag_5\n      jump\t// in\n    tag_4:\n      mload(0x40)\n      dup1\n      dup3\n      dup2\n      mstore\n      0x20\n      add\n      swap2\n      pop\n      pop\n      mload(0x40)\n      dup1\n      swap2\n      sub\n      swap1\n      return\n    tag_5:\n        /* \"contracts/DeployByteCode.sol\":134:141  uint256 */\n      0x00\n        /* \"contracts/DeployByteCode.sol\":160:162  42 */\n      0x2a\n        /* \"contracts/DeployByteCode.sol\":153:162  return 42 */\n      swap1\n      pop\n        /* \"contracts/DeployByteCode.sol\":79:169  function whatIsTheMeaningOfLife() public pure returns (uint256 ){... */\n      swap1\n      jump\t// out\n\n    auxdata: 0xa265627a7a7230582028305eb7fccbb0d1db8ca6b01d32045ccc36faea0f0020c11b910e9ddcaa55e864736f6c634300050a0032\n}\n",
				"bytecode": {
					"linkReferences": {},
					"object": "6080604052348015600f57600080fd5b5060878061001e6000396000f3fe6080604052348015600f57600080fd5b506004361060285760003560e01c8063650500c114602d575b600080fd5b60336049565b6040518082815260200191505060405180910390f35b6000602a90509056fea265627a7a7230582028305eb7fccbb0d1db8ca6b01d32045ccc36faea0f0020c11b910e9ddcaa55e864736f6c634300050a0032",
					"opcodes": "PUSH1 0x80 PUSH1 0x40 MSTORE CALLVALUE DUP1 ISZERO PUSH1 0xF JUMPI PUSH1 0x0 DUP1 REVERT JUMPDEST POP PUSH1 0x87 DUP1 PUSH2 0x1E PUSH1 0x0 CODECOPY PUSH1 0x0 RETURN INVALID PUSH1 0x80 PUSH1 0x40 MSTORE CALLVALUE DUP1 ISZERO PUSH1 0xF JUMPI PUSH1 0x0 DUP1 REVERT JUMPDEST POP PUSH1 0x4 CALLDATASIZE LT PUSH1 0x28 JUMPI PUSH1 0x0 CALLDATALOAD PUSH1 0xE0 SHR DUP1 PUSH4 0x650500C1 EQ PUSH1 0x2D JUMPI JUMPDEST PUSH1 0x0 DUP1 REVERT JUMPDEST PUSH1 0x33 PUSH1 0x49 JUMP JUMPDEST PUSH1 0x40 MLOAD DUP1 DUP3 DUP2 MSTORE PUSH1 0x20 ADD SWAP2 POP POP PUSH1 0x40 MLOAD DUP1 SWAP2 SUB SWAP1 RETURN JUMPDEST PUSH1 0x0 PUSH1 0x2A SWAP1 POP SWAP1 JUMP INVALID LOG2 PUSH6 0x627A7A723058 KECCAK256 0x28 ADDRESS 0x5e 0xb7 0xfc 0xcb 0xb0 0xd1 0xdb DUP13 0xa6 0xb0 SAR ORIGIN DIV 0x5c 0xcc CALLDATASIZE STATICCALL 0xea 0xf STOP KECCAK256 0xc1 SHL SWAP2 0xe SWAP14 0xdc 0xaa SSTORE 0xe8 PUSH5 0x736F6C6343 STOP SDIV EXP STOP ORIGIN "
				},
				"gasEstimates": {
					"creation": {
						"codeDepositCost": "27000",
						"executionCost": "81",
						"totalCost": "27081"
					},
					"external": {
						"whatIsTheMeaningOfLife()": "191"
					}
				},
				"methodIdentifiers": {
					"whatIsTheMeaningOfLife()": "650500c1"
				}
			},
			"userdoc": {
				"methods": {}
			}
		}
	}
}