{
	"contracts/10_reentranncyhack.sol": {
		"ReentrancyHack": {
			"abi": [
				{
					"inputs": [],
					"name": "give",
					"outputs": [
						{
							"internalType": "uint256",
							"name": "",
							"type": "uint256"
						}
					],
					"stateMutability": "payable",
					"type": "function"
				},
				{
					"inputs": [
						{
							"internalType": "uint256",
							"name": "val",
							"type": "uint256"
						}
					],
					"name": "hack",
					"outputs": [],
					"stateMutability": "nonpayable",
					"type": "function"
				}
			],
			"devdoc": {
				"kind": "dev",
				"methods": {},
				"version": 1
			},
			"evm": {
				"assembly": "    /* \"contracts/10_reentranncyhack.sol\":178:498  contract ReentrancyHack {... */\n  mstore(0x40, 0x80)\n    /* \"contracts/10_reentranncyhack.sol\":247:289  0xCA04c9bdD57177A0BADA1e1eaE3E0E682B29E28F */\n  0xca04c9bdd57177a0bada1e1eae3e0e682b29e28f\n    /* \"contracts/10_reentranncyhack.sol\":208:290  IReentranncy reentrancy = IReentranncy(0xCA04c9bdD57177A0BADA1e1eaE3E0E682B29E28F) */\n  0x00\n  dup1\n  0x0100\n  exp\n  dup2\n  sload\n  dup2\n  0xffffffffffffffffffffffffffffffffffffffff\n  mul\n  not\n  and\n  swap1\n  dup4\n  0xffffffffffffffffffffffffffffffffffffffff\n  and\n  mul\n  or\n  swap1\n  sstore\n  pop\n    /* \"contracts/10_reentranncyhack.sol\":178:498  contract ReentrancyHack {... */\n  callvalue\n  dup1\n  iszero\n  tag_1\n  jumpi\n  0x00\n  dup1\n  revert\ntag_1:\n  pop\n  dataSize(sub_0)\n  dup1\n  dataOffset(sub_0)\n  0x00\n  codecopy\n  0x00\n  return\nstop\n\nsub_0: assembly {\n        /* \"contracts/10_reentranncyhack.sol\":178:498  contract ReentrancyHack {... */\n      mstore(0x40, 0x80)\n      jumpi(tag_1, lt(calldatasize, 0x04))\n      shr(0xe0, calldataload(0x00))\n      dup1\n      0x25565cdd\n      eq\n      tag_2\n      jumpi\n      dup1\n      0x9e96a23a\n      eq\n      tag_3\n      jumpi\n    tag_1:\n      0x00\n      dup1\n      revert\n        /* \"contracts/10_reentranncyhack.sol\":424:496  function hack(uint val) public {... */\n    tag_2:\n      callvalue\n      dup1\n      iszero\n      tag_4\n      jumpi\n      0x00\n      dup1\n      revert\n    tag_4:\n      pop\n      tag_5\n      0x04\n      dup1\n      calldatasize\n      sub\n      dup2\n      add\n      swap1\n      tag_6\n      swap2\n      swap1\n      tag_7\n      jump\t// in\n    tag_6:\n      tag_8\n      jump\t// in\n    tag_5:\n      stop\n        /* \"contracts/10_reentranncyhack.sol\":297:419  function give() public payable returns(uint) {... */\n    tag_3:\n      tag_9\n      tag_10\n      jump\t// in\n    tag_9:\n      mload(0x40)\n      tag_11\n      swap2\n      swap1\n      tag_12\n      jump\t// in\n    tag_11:\n      mload(0x40)\n      dup1\n      swap2\n      sub\n      swap1\n      return\n        /* \"contracts/10_reentranncyhack.sol\":424:496  function hack(uint val) public {... */\n    tag_8:\n        /* \"contracts/10_reentranncyhack.sol\":465:475  reentrancy */\n      0x00\n      dup1\n      sload\n      swap1\n      0x0100\n      exp\n      swap1\n      div\n      0xffffffffffffffffffffffffffffffffffffffff\n      and\n        /* \"contracts/10_reentranncyhack.sol\":465:484  reentrancy.withdraw */\n      0xffffffffffffffffffffffffffffffffffffffff\n      and\n      0x2e1a7d4d\n        /* \"contracts/10_reentranncyhack.sol\":485:488  val */\n      dup3\n        /* \"contracts/10_reentranncyhack.sol\":465:489  reentrancy.withdraw(val) */\n      mload(0x40)\n      dup3\n      0xffffffff\n      and\n      0xe0\n      shl\n      dup2\n      mstore\n      0x04\n      add\n      tag_14\n      swap2\n      swap1\n      tag_12\n      jump\t// in\n    tag_14:\n      0x00\n      mload(0x40)\n      dup1\n      dup4\n      sub\n      dup2\n      0x00\n      dup8\n      dup1\n      extcodesize\n      iszero\n      dup1\n      iszero\n      tag_15\n      jumpi\n      0x00\n      dup1\n      revert\n    tag_15:\n      pop\n      gas\n      call\n      iszero\n      dup1\n      iszero\n      tag_17\n      jumpi\n      returndatasize\n      0x00\n      dup1\n      returndatacopy\n      revert(0x00, returndatasize)\n    tag_17:\n      pop\n      pop\n      pop\n      pop\n        /* \"contracts/10_reentranncyhack.sol\":424:496  function hack(uint val) public {... */\n      pop\n      jump\t// out\n        /* \"contracts/10_reentranncyhack.sol\":297:419  function give() public payable returns(uint) {... */\n    tag_10:\n        /* \"contracts/10_reentranncyhack.sol\":336:340  uint */\n      0x00\n        /* \"contracts/10_reentranncyhack.sol\":372:373  0 */\n      dup1\n        /* \"contracts/10_reentranncyhack.sol\":360:369  msg.value */\n      callvalue\n        /* \"contracts/10_reentranncyhack.sol\":360:373  msg.value > 0 */\n      gt\n        /* \"contracts/10_reentranncyhack.sol\":352:374  require(msg.value > 0) */\n      tag_19\n      jumpi\n      0x00\n      dup1\n      revert\n    tag_19:\n        /* \"contracts/10_reentranncyhack.sol\":391:412  address(this).balance */\n      selfbalance\n        /* \"contracts/10_reentranncyhack.sol\":384:412  return address(this).balance */\n      swap1\n      pop\n        /* \"contracts/10_reentranncyhack.sol\":297:419  function give() public payable returns(uint) {... */\n      swap1\n      jump\t// out\n        /* \"#utility.yul\":88:205   */\n    tag_21:\n        /* \"#utility.yul\":197:198   */\n      0x00\n        /* \"#utility.yul\":194:195   */\n      dup1\n        /* \"#utility.yul\":187:199   */\n      revert\n        /* \"#utility.yul\":334:411   */\n    tag_23:\n        /* \"#utility.yul\":371:378   */\n      0x00\n        /* \"#utility.yul\":400:405   */\n      dup2\n        /* \"#utility.yul\":389:405   */\n      swap1\n      pop\n        /* \"#utility.yul\":334:411   */\n      swap2\n      swap1\n      pop\n      jump\t// out\n        /* \"#utility.yul\":417:539   */\n    tag_24:\n        /* \"#utility.yul\":490:514   */\n      tag_33\n        /* \"#utility.yul\":508:513   */\n      dup2\n        /* \"#utility.yul\":490:514   */\n      tag_23\n      jump\t// in\n    tag_33:\n        /* \"#utility.yul\":483:488   */\n      dup2\n        /* \"#utility.yul\":480:515   */\n      eq\n        /* \"#utility.yul\":470:533   */\n      tag_34\n      jumpi\n        /* \"#utility.yul\":529:530   */\n      0x00\n        /* \"#utility.yul\":526:527   */\n      dup1\n        /* \"#utility.yul\":519:531   */\n      revert\n        /* \"#utility.yul\":470:533   */\n    tag_34:\n        /* \"#utility.yul\":417:539   */\n      pop\n      jump\t// out\n        /* \"#utility.yul\":545:684   */\n    tag_25:\n        /* \"#utility.yul\":591:596   */\n      0x00\n        /* \"#utility.yul\":629:635   */\n      dup2\n        /* \"#utility.yul\":616:636   */\n      calldataload\n        /* \"#utility.yul\":607:636   */\n      swap1\n      pop\n        /* \"#utility.yul\":645:678   */\n      tag_36\n        /* \"#utility.yul\":672:677   */\n      dup2\n        /* \"#utility.yul\":645:678   */\n      tag_24\n      jump\t// in\n    tag_36:\n        /* \"#utility.yul\":545:684   */\n      swap3\n      swap2\n      pop\n      pop\n      jump\t// out\n        /* \"#utility.yul\":690:1019   */\n    tag_7:\n        /* \"#utility.yul\":749:755   */\n      0x00\n        /* \"#utility.yul\":798:800   */\n      0x20\n        /* \"#utility.yul\":786:795   */\n      dup3\n        /* \"#utility.yul\":777:784   */\n      dup5\n        /* \"#utility.yul\":773:796   */\n      sub\n        /* \"#utility.yul\":769:801   */\n      slt\n        /* \"#utility.yul\":766:885   */\n      iszero\n      tag_38\n      jumpi\n        /* \"#utility.yul\":804:883   */\n      tag_39\n      tag_21\n      jump\t// in\n    tag_39:\n        /* \"#utility.yul\":766:885   */\n    tag_38:\n        /* \"#utility.yul\":924:925   */\n      0x00\n        /* \"#utility.yul\":949:1002   */\n      tag_40\n        /* \"#utility.yul\":994:1001   */\n      dup5\n        /* \"#utility.yul\":985:991   */\n      dup3\n        /* \"#utility.yul\":974:983   */\n      dup6\n        /* \"#utility.yul\":970:992   */\n      add\n        /* \"#utility.yul\":949:1002   */\n      tag_25\n      jump\t// in\n    tag_40:\n        /* \"#utility.yul\":939:1002   */\n      swap2\n      pop\n        /* \"#utility.yul\":895:1012   */\n      pop\n        /* \"#utility.yul\":690:1019   */\n      swap3\n      swap2\n      pop\n      pop\n      jump\t// out\n        /* \"#utility.yul\":1025:1143   */\n    tag_26:\n        /* \"#utility.yul\":1112:1136   */\n      tag_42\n        /* \"#utility.yul\":1130:1135   */\n      dup2\n        /* \"#utility.yul\":1112:1136   */\n      tag_23\n      jump\t// in\n    tag_42:\n        /* \"#utility.yul\":1107:1110   */\n      dup3\n        /* \"#utility.yul\":1100:1137   */\n      mstore\n        /* \"#utility.yul\":1025:1143   */\n      pop\n      pop\n      jump\t// out\n        /* \"#utility.yul\":1149:1371   */\n    tag_12:\n        /* \"#utility.yul\":1242:1246   */\n      0x00\n        /* \"#utility.yul\":1280:1282   */\n      0x20\n        /* \"#utility.yul\":1269:1278   */\n      dup3\n        /* \"#utility.yul\":1265:1283   */\n      add\n        /* \"#utility.yul\":1257:1283   */\n      swap1\n      pop\n        /* \"#utility.yul\":1293:1364   */\n      tag_44\n        /* \"#utility.yul\":1361:1362   */\n      0x00\n        /* \"#utility.yul\":1350:1359   */\n      dup4\n        /* \"#utility.yul\":1346:1363   */\n      add\n        /* \"#utility.yul\":1337:1343   */\n      dup5\n        /* \"#utility.yul\":1293:1364   */\n      tag_26\n      jump\t// in\n    tag_44:\n        /* \"#utility.yul\":1149:1371   */\n      swap3\n      swap2\n      pop\n      pop\n      jump\t// out\n\n    auxdata: 0xa26469706673582212204a15a2fdd62ff0c5997c3c7c93de3049aca2ce11d6b8ebc283f96742d60504a364736f6c634300080d0033\n}\n",
				"bytecode": {
					"linkReferences": {},
					"object": "608060405273ca04c9bdd57177a0bada1e1eae3e0e682b29e28f6000806101000a81548173ffffffffffffffffffffffffffffffffffffffff021916908373ffffffffffffffffffffffffffffffffffffffff16021790555034801561006457600080fd5b506101df806100746000396000f3fe6080604052600436106100295760003560e01c806325565cdd1461002e5780639e96a23a14610057575b600080fd5b34801561003a57600080fd5b5061005560048036038101906100509190610152565b610075565b005b61005f610103565b60405161006c919061018e565b60405180910390f35b60008054906101000a900473ffffffffffffffffffffffffffffffffffffffff1673ffffffffffffffffffffffffffffffffffffffff16632e1a7d4d826040518263ffffffff1660e01b81526004016100ce919061018e565b600060405180830381600087803b1580156100e857600080fd5b505af11580156100fc573d6000803e3d6000fd5b5050505050565b600080341161011157600080fd5b47905090565b600080fd5b6000819050919050565b61012f8161011c565b811461013a57600080fd5b50565b60008135905061014c81610126565b92915050565b60006020828403121561016857610167610117565b5b60006101768482850161013d565b91505092915050565b6101888161011c565b82525050565b60006020820190506101a3600083018461017f565b9291505056fea26469706673582212204a15a2fdd62ff0c5997c3c7c93de3049aca2ce11d6b8ebc283f96742d60504a364736f6c634300080d0033",
					"opcodes": "PUSH1 0x80 PUSH1 0x40 MSTORE PUSH20 0xCA04C9BDD57177A0BADA1E1EAE3E0E682B29E28F PUSH1 0x0 DUP1 PUSH2 0x100 EXP DUP2 SLOAD DUP2 PUSH20 0xFFFFFFFFFFFFFFFFFFFFFFFFFFFFFFFFFFFFFFFF MUL NOT AND SWAP1 DUP4 PUSH20 0xFFFFFFFFFFFFFFFFFFFFFFFFFFFFFFFFFFFFFFFF AND MUL OR SWAP1 SSTORE POP CALLVALUE DUP1 ISZERO PUSH2 0x64 JUMPI PUSH1 0x0 DUP1 REVERT JUMPDEST POP PUSH2 0x1DF DUP1 PUSH2 0x74 PUSH1 0x0 CODECOPY PUSH1 0x0 RETURN INVALID PUSH1 0x80 PUSH1 0x40 MSTORE PUSH1 0x4 CALLDATASIZE LT PUSH2 0x29 JUMPI PUSH1 0x0 CALLDATALOAD PUSH1 0xE0 SHR DUP1 PUSH4 0x25565CDD EQ PUSH2 0x2E JUMPI DUP1 PUSH4 0x9E96A23A EQ PUSH2 0x57 JUMPI JUMPDEST PUSH1 0x0 DUP1 REVERT JUMPDEST CALLVALUE DUP1 ISZERO PUSH2 0x3A JUMPI PUSH1 0x0 DUP1 REVERT JUMPDEST POP PUSH2 0x55 PUSH1 0x4 DUP1 CALLDATASIZE SUB DUP2 ADD SWAP1 PUSH2 0x50 SWAP2 SWAP1 PUSH2 0x152 JUMP JUMPDEST PUSH2 0x75 JUMP JUMPDEST STOP JUMPDEST PUSH2 0x5F PUSH2 0x103 JUMP JUMPDEST PUSH1 0x40 MLOAD PUSH2 0x6C SWAP2 SWAP1 PUSH2 0x18E JUMP JUMPDEST PUSH1 0x40 MLOAD DUP1 SWAP2 SUB SWAP1 RETURN JUMPDEST PUSH1 0x0 DUP1 SLOAD SWAP1 PUSH2 0x100 EXP SWAP1 DIV PUSH20 0xFFFFFFFFFFFFFFFFFFFFFFFFFFFFFFFFFFFFFFFF AND PUSH20 0xFFFFFFFFFFFFFFFFFFFFFFFFFFFFFFFFFFFFFFFF AND PUSH4 0x2E1A7D4D DUP3 PUSH1 0x40 MLOAD DUP3 PUSH4 0xFFFFFFFF AND PUSH1 0xE0 SHL DUP2 MSTORE PUSH1 0x4 ADD PUSH2 0xCE SWAP2 SWAP1 PUSH2 0x18E JUMP JUMPDEST PUSH1 0x0 PUSH1 0x40 MLOAD DUP1 DUP4 SUB DUP2 PUSH1 0x0 DUP8 DUP1 EXTCODESIZE ISZERO DUP1 ISZERO PUSH2 0xE8 JUMPI PUSH1 0x0 DUP1 REVERT JUMPDEST POP GAS CALL ISZERO DUP1 ISZERO PUSH2 0xFC JUMPI RETURNDATASIZE PUSH1 0x0 DUP1 RETURNDATACOPY RETURNDATASIZE PUSH1 0x0 REVERT JUMPDEST POP POP POP POP POP JUMP JUMPDEST PUSH1 0x0 DUP1 CALLVALUE GT PUSH2 0x111 JUMPI PUSH1 0x0 DUP1 REVERT JUMPDEST SELFBALANCE SWAP1 POP SWAP1 JUMP JUMPDEST PUSH1 0x0 DUP1 REVERT JUMPDEST PUSH1 0x0 DUP2 SWAP1 POP SWAP2 SWAP1 POP JUMP JUMPDEST PUSH2 0x12F DUP2 PUSH2 0x11C JUMP JUMPDEST DUP2 EQ PUSH2 0x13A JUMPI PUSH1 0x0 DUP1 REVERT JUMPDEST POP JUMP JUMPDEST PUSH1 0x0 DUP2 CALLDATALOAD SWAP1 POP PUSH2 0x14C DUP2 PUSH2 0x126 JUMP JUMPDEST SWAP3 SWAP2 POP POP JUMP JUMPDEST PUSH1 0x0 PUSH1 0x20 DUP3 DUP5 SUB SLT ISZERO PUSH2 0x168 JUMPI PUSH2 0x167 PUSH2 0x117 JUMP JUMPDEST JUMPDEST PUSH1 0x0 PUSH2 0x176 DUP5 DUP3 DUP6 ADD PUSH2 0x13D JUMP JUMPDEST SWAP2 POP POP SWAP3 SWAP2 POP POP JUMP JUMPDEST PUSH2 0x188 DUP2 PUSH2 0x11C JUMP JUMPDEST DUP3 MSTORE POP POP JUMP JUMPDEST PUSH1 0x0 PUSH1 0x20 DUP3 ADD SWAP1 POP PUSH2 0x1A3 PUSH1 0x0 DUP4 ADD DUP5 PUSH2 0x17F JUMP JUMPDEST SWAP3 SWAP2 POP POP JUMP INVALID LOG2 PUSH5 0x6970667358 0x22 SLT KECCAK256 0x4A ISZERO LOG2 REVERT 0xD6 0x2F CREATE 0xC5 SWAP10 PUSH29 0x3C7C93DE3049ACA2CE11D6B8EBC283F96742D60504A364736F6C634300 ADDMOD 0xD STOP CALLER "
				},
				"gasEstimates": {
					"creation": {
						"codeDepositCost": "95800",
						"executionCost": "24408",
						"totalCost": "120208"
					},
					"external": {
						"give()": "337",
						"hack(uint256)": "infinite"
					}
				},
				"methodIdentifiers": {
					"give()": "9e96a23a",
					"hack(uint256)": "25565cdd"
				}
			},
			"storageLayout": {
				"storage": [
					{
						"astId": 18,
						"contract": "contracts/10_reentranncyhack.sol:ReentrancyHack",
						"label": "reentrancy",
						"offset": 0,
						"slot": "0",
						"type": "t_contract(IReentranncy)12"
					}
				],
				"types": {
					"t_contract(IReentranncy)12": {
						"encoding": "inplace",
						"label": "contract IReentranncy",
						"numberOfBytes": "20"
					}
				}
			},
			"userdoc": {
				"kind": "user",
				"methods": {},
				"version": 1
			}
		}
	}
}