{
	"contracts/library_geeks.sol": {
		"libraryExample": {
			"abi": [
				{
					"inputs": [
						{
							"internalType": "string",
							"name": "_In1",
							"type": "string"
						},
						{
							"internalType": "string",
							"name": "_In2",
							"type": "string"
						}
					],
					"name": "concatenate",
					"outputs": [
						{
							"internalType": "string",
							"name": "",
							"type": "string"
						}
					],
					"stateMutability": "view",
					"type": "function"
				}
			],
			"devdoc": {
				"kind": "dev",
				"methods": {},
				"version": 1
			},
			"evm": {
				"assembly": "    /* \"contracts/library_geeks.sol\":136:644  library libraryExample {... */\n  dataSize(sub_0)\n  dataOffset(sub_0)\n  0x0b\n  dup3\n  dup3\n  dup3\n  codecopy\n  dup1\n  mload\n  0x00\n  byte\n  0x73\n  eq\n  tag_1\n  jumpi\n  mstore(0x00, 0x4e487b7100000000000000000000000000000000000000000000000000000000)\n  mstore(0x04, 0x00)\n  revert(0x00, 0x24)\ntag_1:\n  mstore(0x00, address)\n  0x73\n  dup2\n  mstore8\n  dup3\n  dup2\n  return\nstop\n\nsub_0: assembly {\n        /* \"contracts/library_geeks.sol\":136:644  library libraryExample {... */\n      eq(address, deployTimeAddress())\n      mstore(0x40, 0x80)\n      jumpi(tag_1, lt(calldatasize, 0x04))\n      shr(0xe0, calldataload(0x00))\n      dup1\n      0x266001d3\n      eq\n      tag_2\n      jumpi\n    tag_1:\n      0x00\n      dup1\n      revert\n        /* \"contracts/library_geeks.sol\":417:641  function concatenate(... */\n    tag_2:\n      tag_3\n      0x04\n      dup1\n      calldatasize\n      sub\n      dup2\n      add\n      swap1\n      tag_4\n      swap2\n      swap1\n      tag_5\n      jump\t// in\n    tag_4:\n      tag_6\n      jump\t// in\n    tag_3:\n      mload(0x40)\n      tag_7\n      swap2\n      swap1\n      tag_8\n      jump\t// in\n    tag_7:\n      mload(0x40)\n      dup1\n      swap2\n      sub\n      swap1\n      return\n    tag_6:\n        /* \"contracts/library_geeks.sol\":545:558  string memory */\n      0x60\n        /* \"contracts/library_geeks.sol\":615:619  _In1 */\n      dup3\n        /* \"contracts/library_geeks.sol\":621:625  _In2 */\n      dup3\n        /* \"contracts/library_geeks.sol\":598:626  abi.encodePacked(_In1, _In2) */\n      add(0x20, mload(0x40))\n      tag_10\n      swap3\n      swap2\n      swap1\n      tag_11\n      jump\t// in\n    tag_10:\n      mload(0x40)\n      0x20\n      dup2\n      dup4\n      sub\n      sub\n      dup2\n      mstore\n      swap1\n      0x40\n      mstore\n        /* \"contracts/library_geeks.sol\":572:627  return string(... */\n      swap1\n      pop\n        /* \"contracts/library_geeks.sol\":417:641  function concatenate(... */\n      swap3\n      swap2\n      pop\n      pop\n      jump\t// out\n        /* \"#utility.yul\":7:82   */\n    tag_12:\n        /* \"#utility.yul\":40:46   */\n      0x00\n        /* \"#utility.yul\":73:75   */\n      0x40\n        /* \"#utility.yul\":67:76   */\n      mload\n        /* \"#utility.yul\":57:76   */\n      swap1\n      pop\n        /* \"#utility.yul\":7:82   */\n      swap1\n      jump\t// out\n        /* \"#utility.yul\":88:205   */\n    tag_13:\n        /* \"#utility.yul\":197:198   */\n      0x00\n        /* \"#utility.yul\":194:195   */\n      dup1\n        /* \"#utility.yul\":187:199   */\n      revert\n        /* \"#utility.yul\":211:328   */\n    tag_14:\n        /* \"#utility.yul\":320:321   */\n      0x00\n        /* \"#utility.yul\":317:318   */\n      dup1\n        /* \"#utility.yul\":310:322   */\n      revert\n        /* \"#utility.yul\":334:451   */\n    tag_15:\n        /* \"#utility.yul\":443:444   */\n      0x00\n        /* \"#utility.yul\":440:441   */\n      dup1\n        /* \"#utility.yul\":433:445   */\n      revert\n        /* \"#utility.yul\":457:574   */\n    tag_16:\n        /* \"#utility.yul\":566:567   */\n      0x00\n        /* \"#utility.yul\":563:564   */\n      dup1\n        /* \"#utility.yul\":556:568   */\n      revert\n        /* \"#utility.yul\":580:682   */\n    tag_17:\n        /* \"#utility.yul\":621:627   */\n      0x00\n        /* \"#utility.yul\":672:674   */\n      0x1f\n        /* \"#utility.yul\":668:675   */\n      not\n        /* \"#utility.yul\":663:665   */\n      0x1f\n        /* \"#utility.yul\":656:661   */\n      dup4\n        /* \"#utility.yul\":652:666   */\n      add\n        /* \"#utility.yul\":648:676   */\n      and\n        /* \"#utility.yul\":638:676   */\n      swap1\n      pop\n        /* \"#utility.yul\":580:682   */\n      swap2\n      swap1\n      pop\n      jump\t// out\n        /* \"#utility.yul\":688:868   */\n    tag_18:\n        /* \"#utility.yul\":736:813   */\n      0x4e487b7100000000000000000000000000000000000000000000000000000000\n        /* \"#utility.yul\":733:734   */\n      0x00\n        /* \"#utility.yul\":726:814   */\n      mstore\n        /* \"#utility.yul\":833:837   */\n      0x41\n        /* \"#utility.yul\":830:831   */\n      0x04\n        /* \"#utility.yul\":823:838   */\n      mstore\n        /* \"#utility.yul\":857:861   */\n      0x24\n        /* \"#utility.yul\":854:855   */\n      0x00\n        /* \"#utility.yul\":847:862   */\n      revert\n        /* \"#utility.yul\":874:1155   */\n    tag_19:\n        /* \"#utility.yul\":957:984   */\n      tag_40\n        /* \"#utility.yul\":979:983   */\n      dup3\n        /* \"#utility.yul\":957:984   */\n      tag_17\n      jump\t// in\n    tag_40:\n        /* \"#utility.yul\":949:955   */\n      dup2\n        /* \"#utility.yul\":945:985   */\n      add\n        /* \"#utility.yul\":1087:1093   */\n      dup2\n        /* \"#utility.yul\":1075:1085   */\n      dup2\n        /* \"#utility.yul\":1072:1094   */\n      lt\n        /* \"#utility.yul\":1051:1069   */\n      0xffffffffffffffff\n        /* \"#utility.yul\":1039:1049   */\n      dup3\n        /* \"#utility.yul\":1036:1070   */\n      gt\n        /* \"#utility.yul\":1033:1095   */\n      or\n        /* \"#utility.yul\":1030:1118   */\n      iszero\n      tag_41\n      jumpi\n        /* \"#utility.yul\":1098:1116   */\n      tag_42\n      tag_18\n      jump\t// in\n    tag_42:\n        /* \"#utility.yul\":1030:1118   */\n    tag_41:\n        /* \"#utility.yul\":1138:1148   */\n      dup1\n        /* \"#utility.yul\":1134:1136   */\n      0x40\n        /* \"#utility.yul\":1127:1149   */\n      mstore\n        /* \"#utility.yul\":917:1155   */\n      pop\n        /* \"#utility.yul\":874:1155   */\n      pop\n      pop\n      jump\t// out\n        /* \"#utility.yul\":1161:1290   */\n    tag_20:\n        /* \"#utility.yul\":1195:1201   */\n      0x00\n        /* \"#utility.yul\":1222:1242   */\n      tag_44\n      tag_12\n      jump\t// in\n    tag_44:\n        /* \"#utility.yul\":1212:1242   */\n      swap1\n      pop\n        /* \"#utility.yul\":1251:1284   */\n      tag_45\n        /* \"#utility.yul\":1279:1283   */\n      dup3\n        /* \"#utility.yul\":1271:1277   */\n      dup3\n        /* \"#utility.yul\":1251:1284   */\n      tag_19\n      jump\t// in\n    tag_45:\n        /* \"#utility.yul\":1161:1290   */\n      swap2\n      swap1\n      pop\n      jump\t// out\n        /* \"#utility.yul\":1296:1604   */\n    tag_21:\n        /* \"#utility.yul\":1358:1362   */\n      0x00\n        /* \"#utility.yul\":1448:1466   */\n      0xffffffffffffffff\n        /* \"#utility.yul\":1440:1446   */\n      dup3\n        /* \"#utility.yul\":1437:1467   */\n      gt\n        /* \"#utility.yul\":1434:1490   */\n      iszero\n      tag_47\n      jumpi\n        /* \"#utility.yul\":1470:1488   */\n      tag_48\n      tag_18\n      jump\t// in\n    tag_48:\n        /* \"#utility.yul\":1434:1490   */\n    tag_47:\n        /* \"#utility.yul\":1508:1537   */\n      tag_49\n        /* \"#utility.yul\":1530:1536   */\n      dup3\n        /* \"#utility.yul\":1508:1537   */\n      tag_17\n      jump\t// in\n    tag_49:\n        /* \"#utility.yul\":1500:1537   */\n      swap1\n      pop\n        /* \"#utility.yul\":1592:1596   */\n      0x20\n        /* \"#utility.yul\":1586:1590   */\n      dup2\n        /* \"#utility.yul\":1582:1597   */\n      add\n        /* \"#utility.yul\":1574:1597   */\n      swap1\n      pop\n        /* \"#utility.yul\":1296:1604   */\n      swap2\n      swap1\n      pop\n      jump\t// out\n        /* \"#utility.yul\":1610:1764   */\n    tag_22:\n        /* \"#utility.yul\":1694:1700   */\n      dup3\n        /* \"#utility.yul\":1689:1692   */\n      dup2\n        /* \"#utility.yul\":1684:1687   */\n      dup4\n        /* \"#utility.yul\":1671:1701   */\n      calldatacopy\n        /* \"#utility.yul\":1756:1757   */\n      0x00\n        /* \"#utility.yul\":1747:1753   */\n      dup4\n        /* \"#utility.yul\":1742:1745   */\n      dup4\n        /* \"#utility.yul\":1738:1754   */\n      add\n        /* \"#utility.yul\":1731:1758   */\n      mstore\n        /* \"#utility.yul\":1610:1764   */\n      pop\n      pop\n      pop\n      jump\t// out\n        /* \"#utility.yul\":1770:2182   */\n    tag_23:\n        /* \"#utility.yul\":1848:1853   */\n      0x00\n        /* \"#utility.yul\":1873:1939   */\n      tag_52\n        /* \"#utility.yul\":1889:1938   */\n      tag_53\n        /* \"#utility.yul\":1931:1937   */\n      dup5\n        /* \"#utility.yul\":1889:1938   */\n      tag_21\n      jump\t// in\n    tag_53:\n        /* \"#utility.yul\":1873:1939   */\n      tag_20\n      jump\t// in\n    tag_52:\n        /* \"#utility.yul\":1864:1939   */\n      swap1\n      pop\n        /* \"#utility.yul\":1962:1968   */\n      dup3\n        /* \"#utility.yul\":1955:1960   */\n      dup2\n        /* \"#utility.yul\":1948:1969   */\n      mstore\n        /* \"#utility.yul\":2000:2004   */\n      0x20\n        /* \"#utility.yul\":1993:1998   */\n      dup2\n        /* \"#utility.yul\":1989:2005   */\n      add\n        /* \"#utility.yul\":2038:2041   */\n      dup5\n        /* \"#utility.yul\":2029:2035   */\n      dup5\n        /* \"#utility.yul\":2024:2027   */\n      dup5\n        /* \"#utility.yul\":2020:2036   */\n      add\n        /* \"#utility.yul\":2017:2042   */\n      gt\n        /* \"#utility.yul\":2014:2126   */\n      iszero\n      tag_54\n      jumpi\n        /* \"#utility.yul\":2045:2124   */\n      tag_55\n      tag_16\n      jump\t// in\n    tag_55:\n        /* \"#utility.yul\":2014:2126   */\n    tag_54:\n        /* \"#utility.yul\":2135:2176   */\n      tag_56\n        /* \"#utility.yul\":2169:2175   */\n      dup5\n        /* \"#utility.yul\":2164:2167   */\n      dup3\n        /* \"#utility.yul\":2159:2162   */\n      dup6\n        /* \"#utility.yul\":2135:2176   */\n      tag_22\n      jump\t// in\n    tag_56:\n        /* \"#utility.yul\":1854:2182   */\n      pop\n        /* \"#utility.yul\":1770:2182   */\n      swap4\n      swap3\n      pop\n      pop\n      pop\n      jump\t// out\n        /* \"#utility.yul\":2202:2542   */\n    tag_24:\n        /* \"#utility.yul\":2258:2263   */\n      0x00\n        /* \"#utility.yul\":2307:2310   */\n      dup3\n        /* \"#utility.yul\":2300:2304   */\n      0x1f\n        /* \"#utility.yul\":2292:2298   */\n      dup4\n        /* \"#utility.yul\":2288:2305   */\n      add\n        /* \"#utility.yul\":2284:2311   */\n      slt\n        /* \"#utility.yul\":2274:2396   */\n      tag_58\n      jumpi\n        /* \"#utility.yul\":2315:2394   */\n      tag_59\n      tag_15\n      jump\t// in\n    tag_59:\n        /* \"#utility.yul\":2274:2396   */\n    tag_58:\n        /* \"#utility.yul\":2432:2438   */\n      dup2\n        /* \"#utility.yul\":2419:2439   */\n      calldataload\n        /* \"#utility.yul\":2457:2536   */\n      tag_60\n        /* \"#utility.yul\":2532:2535   */\n      dup5\n        /* \"#utility.yul\":2524:2530   */\n      dup3\n        /* \"#utility.yul\":2517:2521   */\n      0x20\n        /* \"#utility.yul\":2509:2515   */\n      dup7\n        /* \"#utility.yul\":2505:2522   */\n      add\n        /* \"#utility.yul\":2457:2536   */\n      tag_23\n      jump\t// in\n    tag_60:\n        /* \"#utility.yul\":2448:2536   */\n      swap2\n      pop\n        /* \"#utility.yul\":2264:2542   */\n      pop\n        /* \"#utility.yul\":2202:2542   */\n      swap3\n      swap2\n      pop\n      pop\n      jump\t// out\n        /* \"#utility.yul\":2548:3382   */\n    tag_5:\n        /* \"#utility.yul\":2636:2642   */\n      0x00\n        /* \"#utility.yul\":2644:2650   */\n      dup1\n        /* \"#utility.yul\":2693:2695   */\n      0x40\n        /* \"#utility.yul\":2681:2690   */\n      dup4\n        /* \"#utility.yul\":2672:2679   */\n      dup6\n        /* \"#utility.yul\":2668:2691   */\n      sub\n        /* \"#utility.yul\":2664:2696   */\n      slt\n        /* \"#utility.yul\":2661:2780   */\n      iszero\n      tag_62\n      jumpi\n        /* \"#utility.yul\":2699:2778   */\n      tag_63\n      tag_13\n      jump\t// in\n    tag_63:\n        /* \"#utility.yul\":2661:2780   */\n    tag_62:\n        /* \"#utility.yul\":2847:2848   */\n      0x00\n        /* \"#utility.yul\":2836:2845   */\n      dup4\n        /* \"#utility.yul\":2832:2849   */\n      add\n        /* \"#utility.yul\":2819:2850   */\n      calldataload\n        /* \"#utility.yul\":2877:2895   */\n      0xffffffffffffffff\n        /* \"#utility.yul\":2869:2875   */\n      dup2\n        /* \"#utility.yul\":2866:2896   */\n      gt\n        /* \"#utility.yul\":2863:2980   */\n      iszero\n      tag_64\n      jumpi\n        /* \"#utility.yul\":2899:2978   */\n      tag_65\n      tag_14\n      jump\t// in\n    tag_65:\n        /* \"#utility.yul\":2863:2980   */\n    tag_64:\n        /* \"#utility.yul\":3004:3067   */\n      tag_66\n        /* \"#utility.yul\":3059:3066   */\n      dup6\n        /* \"#utility.yul\":3050:3056   */\n      dup3\n        /* \"#utility.yul\":3039:3048   */\n      dup7\n        /* \"#utility.yul\":3035:3057   */\n      add\n        /* \"#utility.yul\":3004:3067   */\n      tag_24\n      jump\t// in\n    tag_66:\n        /* \"#utility.yul\":2994:3067   */\n      swap3\n      pop\n        /* \"#utility.yul\":2790:3077   */\n      pop\n        /* \"#utility.yul\":3144:3146   */\n      0x20\n        /* \"#utility.yul\":3133:3142   */\n      dup4\n        /* \"#utility.yul\":3129:3147   */\n      add\n        /* \"#utility.yul\":3116:3148   */\n      calldataload\n        /* \"#utility.yul\":3175:3193   */\n      0xffffffffffffffff\n        /* \"#utility.yul\":3167:3173   */\n      dup2\n        /* \"#utility.yul\":3164:3194   */\n      gt\n        /* \"#utility.yul\":3161:3278   */\n      iszero\n      tag_67\n      jumpi\n        /* \"#utility.yul\":3197:3276   */\n      tag_68\n      tag_14\n      jump\t// in\n    tag_68:\n        /* \"#utility.yul\":3161:3278   */\n    tag_67:\n        /* \"#utility.yul\":3302:3365   */\n      tag_69\n        /* \"#utility.yul\":3357:3364   */\n      dup6\n        /* \"#utility.yul\":3348:3354   */\n      dup3\n        /* \"#utility.yul\":3337:3346   */\n      dup7\n        /* \"#utility.yul\":3333:3355   */\n      add\n        /* \"#utility.yul\":3302:3365   */\n      tag_24\n      jump\t// in\n    tag_69:\n        /* \"#utility.yul\":3292:3365   */\n      swap2\n      pop\n        /* \"#utility.yul\":3087:3375   */\n      pop\n        /* \"#utility.yul\":2548:3382   */\n      swap3\n      pop\n      swap3\n      swap1\n      pop\n      jump\t// out\n        /* \"#utility.yul\":3388:3487   */\n    tag_25:\n        /* \"#utility.yul\":3440:3446   */\n      0x00\n        /* \"#utility.yul\":3474:3479   */\n      dup2\n        /* \"#utility.yul\":3468:3480   */\n      mload\n        /* \"#utility.yul\":3458:3480   */\n      swap1\n      pop\n        /* \"#utility.yul\":3388:3487   */\n      swap2\n      swap1\n      pop\n      jump\t// out\n        /* \"#utility.yul\":3493:3670   */\n    tag_26:\n        /* \"#utility.yul\":3585:3596   */\n      0x00\n        /* \"#utility.yul\":3619:3625   */\n      dup3\n        /* \"#utility.yul\":3614:3617   */\n      dup3\n        /* \"#utility.yul\":3607:3626   */\n      mstore\n        /* \"#utility.yul\":3659:3663   */\n      0x20\n        /* \"#utility.yul\":3654:3657   */\n      dup3\n        /* \"#utility.yul\":3650:3664   */\n      add\n        /* \"#utility.yul\":3635:3664   */\n      swap1\n      pop\n        /* \"#utility.yul\":3493:3670   */\n      swap3\n      swap2\n      pop\n      pop\n      jump\t// out\n        /* \"#utility.yul\":3676:3983   */\n    tag_27:\n        /* \"#utility.yul\":3744:3745   */\n      0x00\n        /* \"#utility.yul\":3754:3867   */\n    tag_73:\n        /* \"#utility.yul\":3768:3774   */\n      dup4\n        /* \"#utility.yul\":3765:3766   */\n      dup2\n        /* \"#utility.yul\":3762:3775   */\n      lt\n        /* \"#utility.yul\":3754:3867   */\n      iszero\n      tag_75\n      jumpi\n        /* \"#utility.yul\":3853:3854   */\n      dup1\n        /* \"#utility.yul\":3848:3851   */\n      dup3\n        /* \"#utility.yul\":3844:3855   */\n      add\n        /* \"#utility.yul\":3838:3856   */\n      mload\n        /* \"#utility.yul\":3834:3835   */\n      dup2\n        /* \"#utility.yul\":3829:3832   */\n      dup5\n        /* \"#utility.yul\":3825:3836   */\n      add\n        /* \"#utility.yul\":3818:3857   */\n      mstore\n        /* \"#utility.yul\":3790:3792   */\n      0x20\n        /* \"#utility.yul\":3787:3788   */\n      dup2\n        /* \"#utility.yul\":3783:3793   */\n      add\n        /* \"#utility.yul\":3778:3793   */\n      swap1\n      pop\n        /* \"#utility.yul\":3754:3867   */\n      jump(tag_73)\n    tag_75:\n        /* \"#utility.yul\":3885:3891   */\n      dup4\n        /* \"#utility.yul\":3882:3883   */\n      dup2\n        /* \"#utility.yul\":3879:3892   */\n      gt\n        /* \"#utility.yul\":3876:3977   */\n      iszero\n      tag_76\n      jumpi\n        /* \"#utility.yul\":3965:3966   */\n      0x00\n        /* \"#utility.yul\":3956:3962   */\n      dup5\n        /* \"#utility.yul\":3951:3954   */\n      dup5\n        /* \"#utility.yul\":3947:3963   */\n      add\n        /* \"#utility.yul\":3940:3967   */\n      mstore\n        /* \"#utility.yul\":3876:3977   */\n    tag_76:\n        /* \"#utility.yul\":3725:3983   */\n      pop\n        /* \"#utility.yul\":3676:3983   */\n      pop\n      pop\n      pop\n      jump\t// out\n        /* \"#utility.yul\":3989:4369   */\n    tag_28:\n        /* \"#utility.yul\":4085:4088   */\n      0x00\n        /* \"#utility.yul\":4113:4152   */\n      tag_78\n        /* \"#utility.yul\":4146:4151   */\n      dup3\n        /* \"#utility.yul\":4113:4152   */\n      tag_25\n      jump\t// in\n    tag_78:\n        /* \"#utility.yul\":4168:4247   */\n      tag_79\n        /* \"#utility.yul\":4240:4246   */\n      dup2\n        /* \"#utility.yul\":4235:4238   */\n      dup6\n        /* \"#utility.yul\":4168:4247   */\n      tag_26\n      jump\t// in\n    tag_79:\n        /* \"#utility.yul\":4161:4247   */\n      swap4\n      pop\n        /* \"#utility.yul\":4256:4308   */\n      tag_80\n        /* \"#utility.yul\":4301:4307   */\n      dup2\n        /* \"#utility.yul\":4296:4299   */\n      dup6\n        /* \"#utility.yul\":4289:4293   */\n      0x20\n        /* \"#utility.yul\":4282:4287   */\n      dup7\n        /* \"#utility.yul\":4278:4294   */\n      add\n        /* \"#utility.yul\":4256:4308   */\n      tag_27\n      jump\t// in\n    tag_80:\n        /* \"#utility.yul\":4333:4362   */\n      tag_81\n        /* \"#utility.yul\":4355:4361   */\n      dup2\n        /* \"#utility.yul\":4333:4362   */\n      tag_17\n      jump\t// in\n    tag_81:\n        /* \"#utility.yul\":4328:4331   */\n      dup5\n        /* \"#utility.yul\":4324:4363   */\n      add\n        /* \"#utility.yul\":4317:4363   */\n      swap2\n      pop\n        /* \"#utility.yul\":4089:4369   */\n      pop\n        /* \"#utility.yul\":3989:4369   */\n      swap3\n      swap2\n      pop\n      pop\n      jump\t// out\n        /* \"#utility.yul\":4375:4704   */\n    tag_8:\n        /* \"#utility.yul\":4496:4500   */\n      0x00\n        /* \"#utility.yul\":4534:4536   */\n      0x20\n        /* \"#utility.yul\":4523:4532   */\n      dup3\n        /* \"#utility.yul\":4519:4537   */\n      add\n        /* \"#utility.yul\":4511:4537   */\n      swap1\n      pop\n        /* \"#utility.yul\":4583:4592   */\n      dup2\n        /* \"#utility.yul\":4577:4581   */\n      dup2\n        /* \"#utility.yul\":4573:4593   */\n      sub\n        /* \"#utility.yul\":4569:4570   */\n      0x00\n        /* \"#utility.yul\":4558:4567   */\n      dup4\n        /* \"#utility.yul\":4554:4571   */\n      add\n        /* \"#utility.yul\":4547:4594   */\n      mstore\n        /* \"#utility.yul\":4611:4697   */\n      tag_83\n        /* \"#utility.yul\":4692:4696   */\n      dup2\n        /* \"#utility.yul\":4683:4689   */\n      dup5\n        /* \"#utility.yul\":4611:4697   */\n      tag_28\n      jump\t// in\n    tag_83:\n        /* \"#utility.yul\":4603:4697   */\n      swap1\n      pop\n        /* \"#utility.yul\":4375:4704   */\n      swap3\n      swap2\n      pop\n      pop\n      jump\t// out\n        /* \"#utility.yul\":4710:4858   */\n    tag_29:\n        /* \"#utility.yul\":4812:4823   */\n      0x00\n        /* \"#utility.yul\":4849:4852   */\n      dup2\n        /* \"#utility.yul\":4834:4852   */\n      swap1\n      pop\n        /* \"#utility.yul\":4710:4858   */\n      swap3\n      swap2\n      pop\n      pop\n      jump\t// out\n        /* \"#utility.yul\":4864:5241   */\n    tag_30:\n        /* \"#utility.yul\":4970:4973   */\n      0x00\n        /* \"#utility.yul\":4998:5037   */\n      tag_86\n        /* \"#utility.yul\":5031:5036   */\n      dup3\n        /* \"#utility.yul\":4998:5037   */\n      tag_25\n      jump\t// in\n    tag_86:\n        /* \"#utility.yul\":5053:5142   */\n      tag_87\n        /* \"#utility.yul\":5135:5141   */\n      dup2\n        /* \"#utility.yul\":5130:5133   */\n      dup6\n        /* \"#utility.yul\":5053:5142   */\n      tag_29\n      jump\t// in\n    tag_87:\n        /* \"#utility.yul\":5046:5142   */\n      swap4\n      pop\n        /* \"#utility.yul\":5151:5203   */\n      tag_88\n        /* \"#utility.yul\":5196:5202   */\n      dup2\n        /* \"#utility.yul\":5191:5194   */\n      dup6\n        /* \"#utility.yul\":5184:5188   */\n      0x20\n        /* \"#utility.yul\":5177:5182   */\n      dup7\n        /* \"#utility.yul\":5173:5189   */\n      add\n        /* \"#utility.yul\":5151:5203   */\n      tag_27\n      jump\t// in\n    tag_88:\n        /* \"#utility.yul\":5228:5234   */\n      dup1\n        /* \"#utility.yul\":5223:5226   */\n      dup5\n        /* \"#utility.yul\":5219:5235   */\n      add\n        /* \"#utility.yul\":5212:5235   */\n      swap2\n      pop\n        /* \"#utility.yul\":4974:5241   */\n      pop\n        /* \"#utility.yul\":4864:5241   */\n      swap3\n      swap2\n      pop\n      pop\n      jump\t// out\n        /* \"#utility.yul\":5247:5682   */\n    tag_11:\n        /* \"#utility.yul\":5427:5430   */\n      0x00\n        /* \"#utility.yul\":5449:5544   */\n      tag_90\n        /* \"#utility.yul\":5540:5543   */\n      dup3\n        /* \"#utility.yul\":5531:5537   */\n      dup6\n        /* \"#utility.yul\":5449:5544   */\n      tag_30\n      jump\t// in\n    tag_90:\n        /* \"#utility.yul\":5442:5544   */\n      swap2\n      pop\n        /* \"#utility.yul\":5561:5656   */\n      tag_91\n        /* \"#utility.yul\":5652:5655   */\n      dup3\n        /* \"#utility.yul\":5643:5649   */\n      dup5\n        /* \"#utility.yul\":5561:5656   */\n      tag_30\n      jump\t// in\n    tag_91:\n        /* \"#utility.yul\":5554:5656   */\n      swap2\n      pop\n        /* \"#utility.yul\":5673:5676   */\n      dup2\n        /* \"#utility.yul\":5666:5676   */\n      swap1\n      pop\n        /* \"#utility.yul\":5247:5682   */\n      swap4\n      swap3\n      pop\n      pop\n      pop\n      jump\t// out\n\n    auxdata: 0xa26469706673582212201a32bdb4479f96a1e65f53b9d63f54597e9985188c081c62be4d841d364b27b164736f6c634300080d0033\n}\n",
				"bytecode": {
					"linkReferences": {},
					"object": "6103a8610053600b82828239805160001a607314610046577f4e487b7100000000000000000000000000000000000000000000000000000000600052600060045260246000fd5b30600052607381538281f3fe73000000000000000000000000000000000000000030146080604052600436106100355760003560e01c8063266001d31461003a575b600080fd5b610054600480360381019061004f91906101f0565b61006a565b60405161006191906102f0565b60405180910390f35b6060828260405160200161007f92919061034e565b604051602081830303815290604052905092915050565b6000604051905090565b600080fd5b600080fd5b600080fd5b600080fd5b6000601f19601f8301169050919050565b7f4e487b7100000000000000000000000000000000000000000000000000000000600052604160045260246000fd5b6100fd826100b4565b810181811067ffffffffffffffff8211171561011c5761011b6100c5565b5b80604052505050565b600061012f610096565b905061013b82826100f4565b919050565b600067ffffffffffffffff82111561015b5761015a6100c5565b5b610164826100b4565b9050602081019050919050565b82818337600083830152505050565b600061019361018e84610140565b610125565b9050828152602081018484840111156101af576101ae6100af565b5b6101ba848285610171565b509392505050565b600082601f8301126101d7576101d66100aa565b5b81356101e7848260208601610180565b91505092915050565b60008060408385031215610207576102066100a0565b5b600083013567ffffffffffffffff811115610225576102246100a5565b5b610231858286016101c2565b925050602083013567ffffffffffffffff811115610252576102516100a5565b5b61025e858286016101c2565b9150509250929050565b600081519050919050565b600082825260208201905092915050565b60005b838110156102a2578082015181840152602081019050610287565b838111156102b1576000848401525b50505050565b60006102c282610268565b6102cc8185610273565b93506102dc818560208601610284565b6102e5816100b4565b840191505092915050565b6000602082019050818103600083015261030a81846102b7565b905092915050565b600081905092915050565b600061032882610268565b6103328185610312565b9350610342818560208601610284565b80840191505092915050565b600061035a828561031d565b9150610366828461031d565b9150819050939250505056fea26469706673582212201a32bdb4479f96a1e65f53b9d63f54597e9985188c081c62be4d841d364b27b164736f6c634300080d0033",
					"opcodes": "PUSH2 0x3A8 PUSH2 0x53 PUSH1 0xB DUP3 DUP3 DUP3 CODECOPY DUP1 MLOAD PUSH1 0x0 BYTE PUSH1 0x73 EQ PUSH2 0x46 JUMPI PUSH32 0x4E487B7100000000000000000000000000000000000000000000000000000000 PUSH1 0x0 MSTORE PUSH1 0x0 PUSH1 0x4 MSTORE PUSH1 0x24 PUSH1 0x0 REVERT JUMPDEST ADDRESS PUSH1 0x0 MSTORE PUSH1 0x73 DUP2 MSTORE8 DUP3 DUP2 RETURN INVALID PUSH20 0x0 ADDRESS EQ PUSH1 0x80 PUSH1 0x40 MSTORE PUSH1 0x4 CALLDATASIZE LT PUSH2 0x35 JUMPI PUSH1 0x0 CALLDATALOAD PUSH1 0xE0 SHR DUP1 PUSH4 0x266001D3 EQ PUSH2 0x3A JUMPI JUMPDEST PUSH1 0x0 DUP1 REVERT JUMPDEST PUSH2 0x54 PUSH1 0x4 DUP1 CALLDATASIZE SUB DUP2 ADD SWAP1 PUSH2 0x4F SWAP2 SWAP1 PUSH2 0x1F0 JUMP JUMPDEST PUSH2 0x6A JUMP JUMPDEST PUSH1 0x40 MLOAD PUSH2 0x61 SWAP2 SWAP1 PUSH2 0x2F0 JUMP JUMPDEST PUSH1 0x40 MLOAD DUP1 SWAP2 SUB SWAP1 RETURN JUMPDEST PUSH1 0x60 DUP3 DUP3 PUSH1 0x40 MLOAD PUSH1 0x20 ADD PUSH2 0x7F SWAP3 SWAP2 SWAP1 PUSH2 0x34E JUMP JUMPDEST PUSH1 0x40 MLOAD PUSH1 0x20 DUP2 DUP4 SUB SUB DUP2 MSTORE SWAP1 PUSH1 0x40 MSTORE SWAP1 POP SWAP3 SWAP2 POP POP JUMP JUMPDEST PUSH1 0x0 PUSH1 0x40 MLOAD SWAP1 POP SWAP1 JUMP JUMPDEST PUSH1 0x0 DUP1 REVERT JUMPDEST PUSH1 0x0 DUP1 REVERT JUMPDEST PUSH1 0x0 DUP1 REVERT JUMPDEST PUSH1 0x0 DUP1 REVERT JUMPDEST PUSH1 0x0 PUSH1 0x1F NOT PUSH1 0x1F DUP4 ADD AND SWAP1 POP SWAP2 SWAP1 POP JUMP JUMPDEST PUSH32 0x4E487B7100000000000000000000000000000000000000000000000000000000 PUSH1 0x0 MSTORE PUSH1 0x41 PUSH1 0x4 MSTORE PUSH1 0x24 PUSH1 0x0 REVERT JUMPDEST PUSH2 0xFD DUP3 PUSH2 0xB4 JUMP JUMPDEST DUP2 ADD DUP2 DUP2 LT PUSH8 0xFFFFFFFFFFFFFFFF DUP3 GT OR ISZERO PUSH2 0x11C JUMPI PUSH2 0x11B PUSH2 0xC5 JUMP JUMPDEST JUMPDEST DUP1 PUSH1 0x40 MSTORE POP POP POP JUMP JUMPDEST PUSH1 0x0 PUSH2 0x12F PUSH2 0x96 JUMP JUMPDEST SWAP1 POP PUSH2 0x13B DUP3 DUP3 PUSH2 0xF4 JUMP JUMPDEST SWAP2 SWAP1 POP JUMP JUMPDEST PUSH1 0x0 PUSH8 0xFFFFFFFFFFFFFFFF DUP3 GT ISZERO PUSH2 0x15B JUMPI PUSH2 0x15A PUSH2 0xC5 JUMP JUMPDEST JUMPDEST PUSH2 0x164 DUP3 PUSH2 0xB4 JUMP JUMPDEST SWAP1 POP PUSH1 0x20 DUP2 ADD SWAP1 POP SWAP2 SWAP1 POP JUMP JUMPDEST DUP3 DUP2 DUP4 CALLDATACOPY PUSH1 0x0 DUP4 DUP4 ADD MSTORE POP POP POP JUMP JUMPDEST PUSH1 0x0 PUSH2 0x193 PUSH2 0x18E DUP5 PUSH2 0x140 JUMP JUMPDEST PUSH2 0x125 JUMP JUMPDEST SWAP1 POP DUP3 DUP2 MSTORE PUSH1 0x20 DUP2 ADD DUP5 DUP5 DUP5 ADD GT ISZERO PUSH2 0x1AF JUMPI PUSH2 0x1AE PUSH2 0xAF JUMP JUMPDEST JUMPDEST PUSH2 0x1BA DUP5 DUP3 DUP6 PUSH2 0x171 JUMP JUMPDEST POP SWAP4 SWAP3 POP POP POP JUMP JUMPDEST PUSH1 0x0 DUP3 PUSH1 0x1F DUP4 ADD SLT PUSH2 0x1D7 JUMPI PUSH2 0x1D6 PUSH2 0xAA JUMP JUMPDEST JUMPDEST DUP2 CALLDATALOAD PUSH2 0x1E7 DUP5 DUP3 PUSH1 0x20 DUP7 ADD PUSH2 0x180 JUMP JUMPDEST SWAP2 POP POP SWAP3 SWAP2 POP POP JUMP JUMPDEST PUSH1 0x0 DUP1 PUSH1 0x40 DUP4 DUP6 SUB SLT ISZERO PUSH2 0x207 JUMPI PUSH2 0x206 PUSH2 0xA0 JUMP JUMPDEST JUMPDEST PUSH1 0x0 DUP4 ADD CALLDATALOAD PUSH8 0xFFFFFFFFFFFFFFFF DUP2 GT ISZERO PUSH2 0x225 JUMPI PUSH2 0x224 PUSH2 0xA5 JUMP JUMPDEST JUMPDEST PUSH2 0x231 DUP6 DUP3 DUP7 ADD PUSH2 0x1C2 JUMP JUMPDEST SWAP3 POP POP PUSH1 0x20 DUP4 ADD CALLDATALOAD PUSH8 0xFFFFFFFFFFFFFFFF DUP2 GT ISZERO PUSH2 0x252 JUMPI PUSH2 0x251 PUSH2 0xA5 JUMP JUMPDEST JUMPDEST PUSH2 0x25E DUP6 DUP3 DUP7 ADD PUSH2 0x1C2 JUMP JUMPDEST SWAP2 POP POP SWAP3 POP SWAP3 SWAP1 POP JUMP JUMPDEST PUSH1 0x0 DUP2 MLOAD SWAP1 POP SWAP2 SWAP1 POP JUMP JUMPDEST PUSH1 0x0 DUP3 DUP3 MSTORE PUSH1 0x20 DUP3 ADD SWAP1 POP SWAP3 SWAP2 POP POP JUMP JUMPDEST PUSH1 0x0 JUMPDEST DUP4 DUP2 LT ISZERO PUSH2 0x2A2 JUMPI DUP1 DUP3 ADD MLOAD DUP2 DUP5 ADD MSTORE PUSH1 0x20 DUP2 ADD SWAP1 POP PUSH2 0x287 JUMP JUMPDEST DUP4 DUP2 GT ISZERO PUSH2 0x2B1 JUMPI PUSH1 0x0 DUP5 DUP5 ADD MSTORE JUMPDEST POP POP POP POP JUMP JUMPDEST PUSH1 0x0 PUSH2 0x2C2 DUP3 PUSH2 0x268 JUMP JUMPDEST PUSH2 0x2CC DUP2 DUP6 PUSH2 0x273 JUMP JUMPDEST SWAP4 POP PUSH2 0x2DC DUP2 DUP6 PUSH1 0x20 DUP7 ADD PUSH2 0x284 JUMP JUMPDEST PUSH2 0x2E5 DUP2 PUSH2 0xB4 JUMP JUMPDEST DUP5 ADD SWAP2 POP POP SWAP3 SWAP2 POP POP JUMP JUMPDEST PUSH1 0x0 PUSH1 0x20 DUP3 ADD SWAP1 POP DUP2 DUP2 SUB PUSH1 0x0 DUP4 ADD MSTORE PUSH2 0x30A DUP2 DUP5 PUSH2 0x2B7 JUMP JUMPDEST SWAP1 POP SWAP3 SWAP2 POP POP JUMP JUMPDEST PUSH1 0x0 DUP2 SWAP1 POP SWAP3 SWAP2 POP POP JUMP JUMPDEST PUSH1 0x0 PUSH2 0x328 DUP3 PUSH2 0x268 JUMP JUMPDEST PUSH2 0x332 DUP2 DUP6 PUSH2 0x312 JUMP JUMPDEST SWAP4 POP PUSH2 0x342 DUP2 DUP6 PUSH1 0x20 DUP7 ADD PUSH2 0x284 JUMP JUMPDEST DUP1 DUP5 ADD SWAP2 POP POP SWAP3 SWAP2 POP POP JUMP JUMPDEST PUSH1 0x0 PUSH2 0x35A DUP3 DUP6 PUSH2 0x31D JUMP JUMPDEST SWAP2 POP PUSH2 0x366 DUP3 DUP5 PUSH2 0x31D JUMP JUMPDEST SWAP2 POP DUP2 SWAP1 POP SWAP4 SWAP3 POP POP POP JUMP INVALID LOG2 PUSH5 0x6970667358 0x22 SLT KECCAK256 BYTE ORIGIN 0xBD 0xB4 SELFBALANCE SWAP16 SWAP7 LOG1 0xE6 0x5F MSTORE8 0xB9 0xD6 EXTCODEHASH SLOAD MSIZE PUSH31 0x9985188C081C62BE4D841D364B27B164736F6C634300080D00330000000000 "
				},
				"gasEstimates": {
					"creation": {
						"codeDepositCost": "187200",
						"executionCost": "257",
						"totalCost": "187457"
					},
					"external": {
						"concatenate(string,string)": "infinite"
					}
				},
				"methodIdentifiers": {
					"concatenate(string,string)": "266001d3"
				}
			},
			"storageLayout": {
				"storage": [],
				"types": null
			},
			"userdoc": {
				"kind": "user",
				"methods": {},
				"version": 1
			}
		}
	}
}