{
	"contracts/CutByte32.sol": {
		"cutByte32": {
			"abi": [
				{
					"anonymous": false,
					"inputs": [
						{
							"indexed": false,
							"internalType": "bytes32",
							"name": "sha",
							"type": "bytes32"
						},
						{
							"indexed": false,
							"internalType": "bytes16",
							"name": "half1",
							"type": "bytes16"
						},
						{
							"indexed": false,
							"internalType": "bytes16",
							"name": "half2",
							"type": "bytes16"
						}
					],
					"name": "trace",
					"type": "event"
				},
				{
					"inputs": [
						{
							"internalType": "bytes32",
							"name": "sha",
							"type": "bytes32"
						}
					],
					"name": "cut",
					"outputs": [
						{
							"internalType": "bytes16",
							"name": "half1",
							"type": "bytes16"
						},
						{
							"internalType": "bytes16",
							"name": "half2",
							"type": "bytes16"
						}
					],
					"stateMutability": "nonpayable",
					"type": "function"
				}
			],
			"devdoc": {
				"kind": "dev",
				"methods": {},
				"version": 1
			},
			"evm": {
				"assembly": "    /* \"contracts/CutByte32.sol\":59:647  contract cutByte32 {... */\n  mstore(0x40, 0x80)\n  callvalue\n  dup1\n  iszero\n  tag_1\n  jumpi\n  0x00\n  dup1\n  revert\ntag_1:\n  pop\n  dataSize(sub_0)\n  dup1\n  dataOffset(sub_0)\n  0x00\n  codecopy\n  0x00\n  return\nstop\n\nsub_0: assembly {\n        /* \"contracts/CutByte32.sol\":59:647  contract cutByte32 {... */\n      mstore(0x40, 0x80)\n      callvalue\n      dup1\n      iszero\n      tag_1\n      jumpi\n      0x00\n      dup1\n      revert\n    tag_1:\n      pop\n      jumpi(tag_2, lt(calldatasize, 0x04))\n      shr(0xe0, calldataload(0x00))\n      dup1\n      0xa42372fe\n      eq\n      tag_3\n      jumpi\n    tag_2:\n      0x00\n      dup1\n      revert\n        /* \"contracts/CutByte32.sol\":247:645  function cut(bytes32 sha) public returns (bytes16 half1, bytes16 half2) {... */\n    tag_3:\n      tag_4\n      0x04\n      dup1\n      calldatasize\n      sub\n      dup2\n      add\n      swap1\n      tag_5\n      swap2\n      swap1\n      tag_6\n      jump\t// in\n    tag_5:\n      tag_7\n      jump\t// in\n    tag_4:\n      mload(0x40)\n      tag_8\n      swap3\n      swap2\n      swap1\n      tag_9\n      jump\t// in\n    tag_8:\n      mload(0x40)\n      dup1\n      swap2\n      sub\n      swap1\n      return\n    tag_7:\n        /* \"contracts/CutByte32.sol\":289:302  bytes16 half1 */\n      0x00\n        /* \"contracts/CutByte32.sol\":304:317  bytes16 half2 */\n      dup1\n        /* \"contracts/CutByte32.sol\":377:381  0x40 */\n      0x40\n        /* \"contracts/CutByte32.sol\":371:382  mload(0x40) */\n      mload\n        /* \"contracts/CutByte32.sol\":525:528  sha */\n      dup4\n        /* \"contracts/CutByte32.sol\":518:522  0x00 */\n      0x00\n        /* \"contracts/CutByte32.sol\":502:517  freemem_pointer */\n      dup3\n        /* \"contracts/CutByte32.sol\":498:523  add(freemem_pointer,0x00) */\n      add\n        /* \"contracts/CutByte32.sol\":491:529  mstore(add(freemem_pointer,0x00), sha) */\n      mstore\n        /* \"contracts/CutByte32.sol\":573:577  0x00 */\n      0x00\n        /* \"contracts/CutByte32.sol\":557:572  freemem_pointer */\n      dup2\n        /* \"contracts/CutByte32.sol\":553:578  add(freemem_pointer,0x00) */\n      add\n        /* \"contracts/CutByte32.sol\":547:579  mload(add(freemem_pointer,0x00)) */\n      mload\n        /* \"contracts/CutByte32.sol\":538:579  half1 := mload(add(freemem_pointer,0x00)) */\n      swap3\n      pop\n        /* \"contracts/CutByte32.sol\":623:627  0x10 */\n      0x10\n        /* \"contracts/CutByte32.sol\":607:622  freemem_pointer */\n      dup2\n        /* \"contracts/CutByte32.sol\":603:628  add(freemem_pointer,0x10) */\n      add\n        /* \"contracts/CutByte32.sol\":597:629  mload(add(freemem_pointer,0x10)) */\n      mload\n        /* \"contracts/CutByte32.sol\":588:629  half2 := mload(add(freemem_pointer,0x10)) */\n      swap2\n      pop\n        /* \"contracts/CutByte32.sol\":338:639  {... */\n      pop\n        /* \"contracts/CutByte32.sol\":247:645  function cut(bytes32 sha) public returns (bytes16 half1, bytes16 half2) {... */\n      swap2\n      pop\n      swap2\n      jump\t// out\n        /* \"#utility.yul\":88:205   */\n    tag_12:\n        /* \"#utility.yul\":197:198   */\n      0x00\n        /* \"#utility.yul\":194:195   */\n      dup1\n        /* \"#utility.yul\":187:199   */\n      revert\n        /* \"#utility.yul\":334:411   */\n    tag_14:\n        /* \"#utility.yul\":371:378   */\n      0x00\n        /* \"#utility.yul\":400:405   */\n      dup2\n        /* \"#utility.yul\":389:405   */\n      swap1\n      pop\n        /* \"#utility.yul\":334:411   */\n      swap2\n      swap1\n      pop\n      jump\t// out\n        /* \"#utility.yul\":417:539   */\n    tag_15:\n        /* \"#utility.yul\":490:514   */\n      tag_25\n        /* \"#utility.yul\":508:513   */\n      dup2\n        /* \"#utility.yul\":490:514   */\n      tag_14\n      jump\t// in\n    tag_25:\n        /* \"#utility.yul\":483:488   */\n      dup2\n        /* \"#utility.yul\":480:515   */\n      eq\n        /* \"#utility.yul\":470:533   */\n      tag_26\n      jumpi\n        /* \"#utility.yul\":529:530   */\n      0x00\n        /* \"#utility.yul\":526:527   */\n      dup1\n        /* \"#utility.yul\":519:531   */\n      revert\n        /* \"#utility.yul\":470:533   */\n    tag_26:\n        /* \"#utility.yul\":417:539   */\n      pop\n      jump\t// out\n        /* \"#utility.yul\":545:684   */\n    tag_16:\n        /* \"#utility.yul\":591:596   */\n      0x00\n        /* \"#utility.yul\":629:635   */\n      dup2\n        /* \"#utility.yul\":616:636   */\n      calldataload\n        /* \"#utility.yul\":607:636   */\n      swap1\n      pop\n        /* \"#utility.yul\":645:678   */\n      tag_28\n        /* \"#utility.yul\":672:677   */\n      dup2\n        /* \"#utility.yul\":645:678   */\n      tag_15\n      jump\t// in\n    tag_28:\n        /* \"#utility.yul\":545:684   */\n      swap3\n      swap2\n      pop\n      pop\n      jump\t// out\n        /* \"#utility.yul\":690:1019   */\n    tag_6:\n        /* \"#utility.yul\":749:755   */\n      0x00\n        /* \"#utility.yul\":798:800   */\n      0x20\n        /* \"#utility.yul\":786:795   */\n      dup3\n        /* \"#utility.yul\":777:784   */\n      dup5\n        /* \"#utility.yul\":773:796   */\n      sub\n        /* \"#utility.yul\":769:801   */\n      slt\n        /* \"#utility.yul\":766:885   */\n      iszero\n      tag_30\n      jumpi\n        /* \"#utility.yul\":804:883   */\n      tag_31\n      tag_12\n      jump\t// in\n    tag_31:\n        /* \"#utility.yul\":766:885   */\n    tag_30:\n        /* \"#utility.yul\":924:925   */\n      0x00\n        /* \"#utility.yul\":949:1002   */\n      tag_32\n        /* \"#utility.yul\":994:1001   */\n      dup5\n        /* \"#utility.yul\":985:991   */\n      dup3\n        /* \"#utility.yul\":974:983   */\n      dup6\n        /* \"#utility.yul\":970:992   */\n      add\n        /* \"#utility.yul\":949:1002   */\n      tag_16\n      jump\t// in\n    tag_32:\n        /* \"#utility.yul\":939:1002   */\n      swap2\n      pop\n        /* \"#utility.yul\":895:1012   */\n      pop\n        /* \"#utility.yul\":690:1019   */\n      swap3\n      swap2\n      pop\n      pop\n      jump\t// out\n        /* \"#utility.yul\":1025:1175   */\n    tag_17:\n        /* \"#utility.yul\":1062:1069   */\n      0x00\n        /* \"#utility.yul\":1102:1168   */\n      0xffffffffffffffffffffffffffffffff00000000000000000000000000000000\n        /* \"#utility.yul\":1095:1100   */\n      dup3\n        /* \"#utility.yul\":1091:1169   */\n      and\n        /* \"#utility.yul\":1080:1169   */\n      swap1\n      pop\n        /* \"#utility.yul\":1025:1175   */\n      swap2\n      swap1\n      pop\n      jump\t// out\n        /* \"#utility.yul\":1181:1299   */\n    tag_18:\n        /* \"#utility.yul\":1268:1292   */\n      tag_35\n        /* \"#utility.yul\":1286:1291   */\n      dup2\n        /* \"#utility.yul\":1268:1292   */\n      tag_17\n      jump\t// in\n    tag_35:\n        /* \"#utility.yul\":1263:1266   */\n      dup3\n        /* \"#utility.yul\":1256:1293   */\n      mstore\n        /* \"#utility.yul\":1181:1299   */\n      pop\n      pop\n      jump\t// out\n        /* \"#utility.yul\":1305:1637   */\n    tag_9:\n        /* \"#utility.yul\":1426:1430   */\n      0x00\n        /* \"#utility.yul\":1464:1466   */\n      0x40\n        /* \"#utility.yul\":1453:1462   */\n      dup3\n        /* \"#utility.yul\":1449:1467   */\n      add\n        /* \"#utility.yul\":1441:1467   */\n      swap1\n      pop\n        /* \"#utility.yul\":1477:1548   */\n      tag_37\n        /* \"#utility.yul\":1545:1546   */\n      0x00\n        /* \"#utility.yul\":1534:1543   */\n      dup4\n        /* \"#utility.yul\":1530:1547   */\n      add\n        /* \"#utility.yul\":1521:1527   */\n      dup6\n        /* \"#utility.yul\":1477:1548   */\n      tag_18\n      jump\t// in\n    tag_37:\n        /* \"#utility.yul\":1558:1630   */\n      tag_38\n        /* \"#utility.yul\":1626:1628   */\n      0x20\n        /* \"#utility.yul\":1615:1624   */\n      dup4\n        /* \"#utility.yul\":1611:1629   */\n      add\n        /* \"#utility.yul\":1602:1608   */\n      dup5\n        /* \"#utility.yul\":1558:1630   */\n      tag_18\n      jump\t// in\n    tag_38:\n        /* \"#utility.yul\":1305:1637   */\n      swap4\n      swap3\n      pop\n      pop\n      pop\n      jump\t// out\n\n    auxdata: 0xa2646970667358221220dc2a4978f40a16894b28d78aadaa1092d7700f5007debd35a6bd3ac03286d38564736f6c634300080b0033\n}\n",
				"bytecode": {
					"linkReferences": {},
					"object": "608060405234801561001057600080fd5b50610183806100206000396000f3fe608060405234801561001057600080fd5b506004361061002b5760003560e01c8063a42372fe14610030575b600080fd5b61004a600480360381019061004591906100bc565b610061565b604051610058929190610124565b60405180910390f35b600080604051836000820152600081015192506010810151915050915091565b600080fd5b6000819050919050565b61009981610086565b81146100a457600080fd5b50565b6000813590506100b681610090565b92915050565b6000602082840312156100d2576100d1610081565b5b60006100e0848285016100a7565b91505092915050565b60007fffffffffffffffffffffffffffffffff0000000000000000000000000000000082169050919050565b61011e816100e9565b82525050565b60006040820190506101396000830185610115565b6101466020830184610115565b939250505056fea2646970667358221220dc2a4978f40a16894b28d78aadaa1092d7700f5007debd35a6bd3ac03286d38564736f6c634300080b0033",
					"opcodes": "PUSH1 0x80 PUSH1 0x40 MSTORE CALLVALUE DUP1 ISZERO PUSH2 0x10 JUMPI PUSH1 0x0 DUP1 REVERT JUMPDEST POP PUSH2 0x183 DUP1 PUSH2 0x20 PUSH1 0x0 CODECOPY PUSH1 0x0 RETURN INVALID PUSH1 0x80 PUSH1 0x40 MSTORE CALLVALUE DUP1 ISZERO PUSH2 0x10 JUMPI PUSH1 0x0 DUP1 REVERT JUMPDEST POP PUSH1 0x4 CALLDATASIZE LT PUSH2 0x2B JUMPI PUSH1 0x0 CALLDATALOAD PUSH1 0xE0 SHR DUP1 PUSH4 0xA42372FE EQ PUSH2 0x30 JUMPI JUMPDEST PUSH1 0x0 DUP1 REVERT JUMPDEST PUSH2 0x4A PUSH1 0x4 DUP1 CALLDATASIZE SUB DUP2 ADD SWAP1 PUSH2 0x45 SWAP2 SWAP1 PUSH2 0xBC JUMP JUMPDEST PUSH2 0x61 JUMP JUMPDEST PUSH1 0x40 MLOAD PUSH2 0x58 SWAP3 SWAP2 SWAP1 PUSH2 0x124 JUMP JUMPDEST PUSH1 0x40 MLOAD DUP1 SWAP2 SUB SWAP1 RETURN JUMPDEST PUSH1 0x0 DUP1 PUSH1 0x40 MLOAD DUP4 PUSH1 0x0 DUP3 ADD MSTORE PUSH1 0x0 DUP2 ADD MLOAD SWAP3 POP PUSH1 0x10 DUP2 ADD MLOAD SWAP2 POP POP SWAP2 POP SWAP2 JUMP JUMPDEST PUSH1 0x0 DUP1 REVERT JUMPDEST PUSH1 0x0 DUP2 SWAP1 POP SWAP2 SWAP1 POP JUMP JUMPDEST PUSH2 0x99 DUP2 PUSH2 0x86 JUMP JUMPDEST DUP2 EQ PUSH2 0xA4 JUMPI PUSH1 0x0 DUP1 REVERT JUMPDEST POP JUMP JUMPDEST PUSH1 0x0 DUP2 CALLDATALOAD SWAP1 POP PUSH2 0xB6 DUP2 PUSH2 0x90 JUMP JUMPDEST SWAP3 SWAP2 POP POP JUMP JUMPDEST PUSH1 0x0 PUSH1 0x20 DUP3 DUP5 SUB SLT ISZERO PUSH2 0xD2 JUMPI PUSH2 0xD1 PUSH2 0x81 JUMP JUMPDEST JUMPDEST PUSH1 0x0 PUSH2 0xE0 DUP5 DUP3 DUP6 ADD PUSH2 0xA7 JUMP JUMPDEST SWAP2 POP POP SWAP3 SWAP2 POP POP JUMP JUMPDEST PUSH1 0x0 PUSH32 0xFFFFFFFFFFFFFFFFFFFFFFFFFFFFFFFF00000000000000000000000000000000 DUP3 AND SWAP1 POP SWAP2 SWAP1 POP JUMP JUMPDEST PUSH2 0x11E DUP2 PUSH2 0xE9 JUMP JUMPDEST DUP3 MSTORE POP POP JUMP JUMPDEST PUSH1 0x0 PUSH1 0x40 DUP3 ADD SWAP1 POP PUSH2 0x139 PUSH1 0x0 DUP4 ADD DUP6 PUSH2 0x115 JUMP JUMPDEST PUSH2 0x146 PUSH1 0x20 DUP4 ADD DUP5 PUSH2 0x115 JUMP JUMPDEST SWAP4 SWAP3 POP POP POP JUMP INVALID LOG2 PUSH5 0x6970667358 0x22 SLT KECCAK256 0xDC 0x2A 0x49 PUSH25 0xF40A16894B28D78AADAA1092D7700F5007DEBD35A6BD3AC032 DUP7 0xD3 DUP6 PUSH5 0x736F6C6343 STOP ADDMOD SIGNEXTEND STOP CALLER "
				},
				"gasEstimates": {
					"creation": {
						"codeDepositCost": "77400",
						"executionCost": "129",
						"totalCost": "77529"
					},
					"external": {
						"cut(bytes32)": "infinite"
					}
				},
				"methodIdentifiers": {
					"cut(bytes32)": "a42372fe"
				}
			},
			"storageLayout": {
				"storage": [],
				"types": null
			},
			"userdoc": {
				"kind": "user",
				"methods": {},
				"version": 1
			}
		}
	}
}