{
	"contracts/7_Forcehack.sol": {
		"ForceHack": {
			"abi": [
				{
					"inputs": [],
					"name": "collect",
					"outputs": [
						{
							"internalType": "uint256",
							"name": "",
							"type": "uint256"
						}
					],
					"stateMutability": "nonpayable",
					"type": "function"
				},
				{
					"inputs": [],
					"name": "give",
					"outputs": [
						{
							"internalType": "uint256",
							"name": "",
							"type": "uint256"
						}
					],
					"stateMutability": "payable",
					"type": "function"
				},
				{
					"inputs": [],
					"name": "owner",
					"outputs": [
						{
							"internalType": "address payable",
							"name": "",
							"type": "address"
						}
					],
					"stateMutability": "view",
					"type": "function"
				},
				{
					"inputs": [
						{
							"internalType": "address payable",
							"name": "target",
							"type": "address"
						}
					],
					"name": "selfDestroy",
					"outputs": [],
					"stateMutability": "payable",
					"type": "function"
				}
			],
			"devdoc": {
				"kind": "dev",
				"methods": {},
				"version": 1
			},
			"evm": {
				"assembly": "    /* \"contracts/7_Forcehack.sol\":70:445  contract ForceHack{... */\n  mstore(0x40, 0x80)\n  callvalue\n  dup1\n  iszero\n  tag_1\n  jumpi\n  0x00\n  dup1\n  revert\ntag_1:\n  pop\n  dataSize(sub_0)\n  dup1\n  dataOffset(sub_0)\n  0x00\n  codecopy\n  0x00\n  return\nstop\n\nsub_0: assembly {\n        /* \"contracts/7_Forcehack.sol\":70:445  contract ForceHack{... */\n      mstore(0x40, 0x80)\n      jumpi(tag_1, lt(calldatasize, 0x04))\n      shr(0xe0, calldataload(0x00))\n      dup1\n      0x7a5e6db4\n      eq\n      tag_2\n      jumpi\n      dup1\n      0x8da5cb5b\n      eq\n      tag_3\n      jumpi\n      dup1\n      0x9e96a23a\n      eq\n      tag_4\n      jumpi\n      dup1\n      0xe5225381\n      eq\n      tag_5\n      jumpi\n    tag_1:\n      0x00\n      dup1\n      revert\n        /* \"contracts/7_Forcehack.sol\":315:442  function selfDestroy(address payable target) payable public {... */\n    tag_2:\n      tag_6\n      0x04\n      dup1\n      calldatasize\n      sub\n      dup2\n      add\n      swap1\n      tag_7\n      swap2\n      swap1\n      tag_8\n      jump\t// in\n    tag_7:\n      tag_9\n      jump\t// in\n    tag_6:\n      stop\n        /* \"contracts/7_Forcehack.sol\":94:122  address payable public owner */\n    tag_3:\n      callvalue\n      dup1\n      iszero\n      tag_10\n      jumpi\n      0x00\n      dup1\n      revert\n    tag_10:\n      pop\n      tag_11\n      tag_12\n      jump\t// in\n    tag_11:\n      mload(0x40)\n      tag_13\n      swap2\n      swap1\n      tag_14\n      jump\t// in\n    tag_13:\n      mload(0x40)\n      dup1\n      swap2\n      sub\n      swap1\n      return\n        /* \"contracts/7_Forcehack.sol\":220:310  function give() public payable returns(uint) {... */\n    tag_4:\n      tag_15\n      tag_16\n      jump\t// in\n    tag_15:\n      mload(0x40)\n      tag_17\n      swap2\n      swap1\n      tag_18\n      jump\t// in\n    tag_17:\n      mload(0x40)\n      dup1\n      swap2\n      sub\n      swap1\n      return\n        /* \"contracts/7_Forcehack.sol\":129:214  function collect() public returns(uint) {... */\n    tag_5:\n      callvalue\n      dup1\n      iszero\n      tag_19\n      jumpi\n      0x00\n      dup1\n      revert\n    tag_19:\n      pop\n      tag_20\n      tag_21\n      jump\t// in\n    tag_20:\n      mload(0x40)\n      tag_22\n      swap2\n      swap1\n      tag_18\n      jump\t// in\n    tag_22:\n      mload(0x40)\n      dup1\n      swap2\n      sub\n      swap1\n      return\n        /* \"contracts/7_Forcehack.sol\":315:442  function selfDestroy(address payable target) payable public {... */\n    tag_9:\n        /* \"contracts/7_Forcehack.sol\":403:404  0 */\n      0x00\n        /* \"contracts/7_Forcehack.sol\":393:402  msg.value */\n      callvalue\n        /* \"contracts/7_Forcehack.sol\":393:404  msg.value>0 */\n      gt\n        /* \"contracts/7_Forcehack.sol\":385:405  require(msg.value>0) */\n      tag_24\n      jumpi\n      0x00\n      dup1\n      revert\n    tag_24:\n        /* \"contracts/7_Forcehack.sol\":428:434  target */\n      dup1\n        /* \"contracts/7_Forcehack.sol\":415:435  selfdestruct(target) */\n      0xffffffffffffffffffffffffffffffffffffffff\n      and\n      selfdestruct\n        /* \"contracts/7_Forcehack.sol\":94:122  address payable public owner */\n    tag_12:\n      0x00\n      dup1\n      sload\n      swap1\n      0x0100\n      exp\n      swap1\n      div\n      0xffffffffffffffffffffffffffffffffffffffff\n      and\n      dup2\n      jump\t// out\n        /* \"contracts/7_Forcehack.sol\":220:310  function give() public payable returns(uint) {... */\n    tag_16:\n        /* \"contracts/7_Forcehack.sol\":259:263  uint */\n      0x00\n        /* \"contracts/7_Forcehack.sol\":282:303  address(this).balance */\n      selfbalance\n        /* \"contracts/7_Forcehack.sol\":275:303  return address(this).balance */\n      swap1\n      pop\n        /* \"contracts/7_Forcehack.sol\":220:310  function give() public payable returns(uint) {... */\n      swap1\n      jump\t// out\n        /* \"contracts/7_Forcehack.sol\":129:214  function collect() public returns(uint) {... */\n    tag_21:\n        /* \"contracts/7_Forcehack.sol\":163:167  uint */\n      0x00\n        /* \"contracts/7_Forcehack.sol\":186:207  address(this).balance */\n      selfbalance\n        /* \"contracts/7_Forcehack.sol\":179:207  return address(this).balance */\n      swap1\n      pop\n        /* \"contracts/7_Forcehack.sol\":129:214  function collect() public returns(uint) {... */\n      swap1\n      jump\t// out\n        /* \"#utility.yul\":88:205   */\n    tag_28:\n        /* \"#utility.yul\":197:198   */\n      0x00\n        /* \"#utility.yul\":194:195   */\n      dup1\n        /* \"#utility.yul\":187:199   */\n      revert\n        /* \"#utility.yul\":334:460   */\n    tag_30:\n        /* \"#utility.yul\":371:378   */\n      0x00\n        /* \"#utility.yul\":411:453   */\n      0xffffffffffffffffffffffffffffffffffffffff\n        /* \"#utility.yul\":404:409   */\n      dup3\n        /* \"#utility.yul\":400:454   */\n      and\n        /* \"#utility.yul\":389:454   */\n      swap1\n      pop\n        /* \"#utility.yul\":334:460   */\n      swap2\n      swap1\n      pop\n      jump\t// out\n        /* \"#utility.yul\":466:570   */\n    tag_31:\n        /* \"#utility.yul\":511:518   */\n      0x00\n        /* \"#utility.yul\":540:564   */\n      tag_43\n        /* \"#utility.yul\":558:563   */\n      dup3\n        /* \"#utility.yul\":540:564   */\n      tag_30\n      jump\t// in\n    tag_43:\n        /* \"#utility.yul\":529:564   */\n      swap1\n      pop\n        /* \"#utility.yul\":466:570   */\n      swap2\n      swap1\n      pop\n      jump\t// out\n        /* \"#utility.yul\":576:714   */\n    tag_32:\n        /* \"#utility.yul\":657:689   */\n      tag_45\n        /* \"#utility.yul\":683:688   */\n      dup2\n        /* \"#utility.yul\":657:689   */\n      tag_31\n      jump\t// in\n    tag_45:\n        /* \"#utility.yul\":650:655   */\n      dup2\n        /* \"#utility.yul\":647:690   */\n      eq\n        /* \"#utility.yul\":637:708   */\n      tag_46\n      jumpi\n        /* \"#utility.yul\":704:705   */\n      0x00\n        /* \"#utility.yul\":701:702   */\n      dup1\n        /* \"#utility.yul\":694:706   */\n      revert\n        /* \"#utility.yul\":637:708   */\n    tag_46:\n        /* \"#utility.yul\":576:714   */\n      pop\n      jump\t// out\n        /* \"#utility.yul\":720:875   */\n    tag_33:\n        /* \"#utility.yul\":774:779   */\n      0x00\n        /* \"#utility.yul\":812:818   */\n      dup2\n        /* \"#utility.yul\":799:819   */\n      calldataload\n        /* \"#utility.yul\":790:819   */\n      swap1\n      pop\n        /* \"#utility.yul\":828:869   */\n      tag_48\n        /* \"#utility.yul\":863:868   */\n      dup2\n        /* \"#utility.yul\":828:869   */\n      tag_32\n      jump\t// in\n    tag_48:\n        /* \"#utility.yul\":720:875   */\n      swap3\n      swap2\n      pop\n      pop\n      jump\t// out\n        /* \"#utility.yul\":881:1226   */\n    tag_8:\n        /* \"#utility.yul\":948:954   */\n      0x00\n        /* \"#utility.yul\":997:999   */\n      0x20\n        /* \"#utility.yul\":985:994   */\n      dup3\n        /* \"#utility.yul\":976:983   */\n      dup5\n        /* \"#utility.yul\":972:995   */\n      sub\n        /* \"#utility.yul\":968:1000   */\n      slt\n        /* \"#utility.yul\":965:1084   */\n      iszero\n      tag_50\n      jumpi\n        /* \"#utility.yul\":1003:1082   */\n      tag_51\n      tag_28\n      jump\t// in\n    tag_51:\n        /* \"#utility.yul\":965:1084   */\n    tag_50:\n        /* \"#utility.yul\":1123:1124   */\n      0x00\n        /* \"#utility.yul\":1148:1209   */\n      tag_52\n        /* \"#utility.yul\":1201:1208   */\n      dup5\n        /* \"#utility.yul\":1192:1198   */\n      dup3\n        /* \"#utility.yul\":1181:1190   */\n      dup6\n        /* \"#utility.yul\":1177:1199   */\n      add\n        /* \"#utility.yul\":1148:1209   */\n      tag_33\n      jump\t// in\n    tag_52:\n        /* \"#utility.yul\":1138:1209   */\n      swap2\n      pop\n        /* \"#utility.yul\":1094:1219   */\n      pop\n        /* \"#utility.yul\":881:1226   */\n      swap3\n      swap2\n      pop\n      pop\n      jump\t// out\n        /* \"#utility.yul\":1232:1374   */\n    tag_34:\n        /* \"#utility.yul\":1335:1367   */\n      tag_54\n        /* \"#utility.yul\":1361:1366   */\n      dup2\n        /* \"#utility.yul\":1335:1367   */\n      tag_31\n      jump\t// in\n    tag_54:\n        /* \"#utility.yul\":1330:1333   */\n      dup3\n        /* \"#utility.yul\":1323:1368   */\n      mstore\n        /* \"#utility.yul\":1232:1374   */\n      pop\n      pop\n      jump\t// out\n        /* \"#utility.yul\":1380:1634   */\n    tag_14:\n        /* \"#utility.yul\":1489:1493   */\n      0x00\n        /* \"#utility.yul\":1527:1529   */\n      0x20\n        /* \"#utility.yul\":1516:1525   */\n      dup3\n        /* \"#utility.yul\":1512:1530   */\n      add\n        /* \"#utility.yul\":1504:1530   */\n      swap1\n      pop\n        /* \"#utility.yul\":1540:1627   */\n      tag_56\n        /* \"#utility.yul\":1624:1625   */\n      0x00\n        /* \"#utility.yul\":1613:1622   */\n      dup4\n        /* \"#utility.yul\":1609:1626   */\n      add\n        /* \"#utility.yul\":1600:1606   */\n      dup5\n        /* \"#utility.yul\":1540:1627   */\n      tag_34\n      jump\t// in\n    tag_56:\n        /* \"#utility.yul\":1380:1634   */\n      swap3\n      swap2\n      pop\n      pop\n      jump\t// out\n        /* \"#utility.yul\":1640:1717   */\n    tag_35:\n        /* \"#utility.yul\":1677:1684   */\n      0x00\n        /* \"#utility.yul\":1706:1711   */\n      dup2\n        /* \"#utility.yul\":1695:1711   */\n      swap1\n      pop\n        /* \"#utility.yul\":1640:1717   */\n      swap2\n      swap1\n      pop\n      jump\t// out\n        /* \"#utility.yul\":1723:1841   */\n    tag_36:\n        /* \"#utility.yul\":1810:1834   */\n      tag_59\n        /* \"#utility.yul\":1828:1833   */\n      dup2\n        /* \"#utility.yul\":1810:1834   */\n      tag_35\n      jump\t// in\n    tag_59:\n        /* \"#utility.yul\":1805:1808   */\n      dup3\n        /* \"#utility.yul\":1798:1835   */\n      mstore\n        /* \"#utility.yul\":1723:1841   */\n      pop\n      pop\n      jump\t// out\n        /* \"#utility.yul\":1847:2069   */\n    tag_18:\n        /* \"#utility.yul\":1940:1944   */\n      0x00\n        /* \"#utility.yul\":1978:1980   */\n      0x20\n        /* \"#utility.yul\":1967:1976   */\n      dup3\n        /* \"#utility.yul\":1963:1981   */\n      add\n        /* \"#utility.yul\":1955:1981   */\n      swap1\n      pop\n        /* \"#utility.yul\":1991:2062   */\n      tag_61\n        /* \"#utility.yul\":2059:2060   */\n      0x00\n        /* \"#utility.yul\":2048:2057   */\n      dup4\n        /* \"#utility.yul\":2044:2061   */\n      add\n        /* \"#utility.yul\":2035:2041   */\n      dup5\n        /* \"#utility.yul\":1991:2062   */\n      tag_36\n      jump\t// in\n    tag_61:\n        /* \"#utility.yul\":1847:2069   */\n      swap3\n      swap2\n      pop\n      pop\n      jump\t// out\n\n    auxdata: 0xa264697066735822122014f1c83ff2528ca563958340d01eef452cc8ab8ef701e120459c32d69f40027e64736f6c634300080d0033\n}\n",
				"bytecode": {
					"linkReferences": {},
					"object": "608060405234801561001057600080fd5b50610252806100206000396000f3fe60806040526004361061003f5760003560e01c80637a5e6db4146100445780638da5cb5b146100605780639e96a23a1461008b578063e5225381146100a9575b600080fd5b61005e60048036038101906100599190610191565b6100d4565b005b34801561006c57600080fd5b506100756100fa565b60405161008291906101cd565b60405180910390f35b61009361011e565b6040516100a09190610201565b60405180910390f35b3480156100b557600080fd5b506100be610126565b6040516100cb9190610201565b60405180910390f35b600034116100e157600080fd5b8073ffffffffffffffffffffffffffffffffffffffff16ff5b60008054906101000a900473ffffffffffffffffffffffffffffffffffffffff1681565b600047905090565b600047905090565b600080fd5b600073ffffffffffffffffffffffffffffffffffffffff82169050919050565b600061015e82610133565b9050919050565b61016e81610153565b811461017957600080fd5b50565b60008135905061018b81610165565b92915050565b6000602082840312156101a7576101a661012e565b5b60006101b58482850161017c565b91505092915050565b6101c781610153565b82525050565b60006020820190506101e260008301846101be565b92915050565b6000819050919050565b6101fb816101e8565b82525050565b600060208201905061021660008301846101f2565b9291505056fea264697066735822122014f1c83ff2528ca563958340d01eef452cc8ab8ef701e120459c32d69f40027e64736f6c634300080d0033",
					"opcodes": "PUSH1 0x80 PUSH1 0x40 MSTORE CALLVALUE DUP1 ISZERO PUSH2 0x10 JUMPI PUSH1 0x0 DUP1 REVERT JUMPDEST POP PUSH2 0x252 DUP1 PUSH2 0x20 PUSH1 0x0 CODECOPY PUSH1 0x0 RETURN INVALID PUSH1 0x80 PUSH1 0x40 MSTORE PUSH1 0x4 CALLDATASIZE LT PUSH2 0x3F JUMPI PUSH1 0x0 CALLDATALOAD PUSH1 0xE0 SHR DUP1 PUSH4 0x7A5E6DB4 EQ PUSH2 0x44 JUMPI DUP1 PUSH4 0x8DA5CB5B EQ PUSH2 0x60 JUMPI DUP1 PUSH4 0x9E96A23A EQ PUSH2 0x8B JUMPI DUP1 PUSH4 0xE5225381 EQ PUSH2 0xA9 JUMPI JUMPDEST PUSH1 0x0 DUP1 REVERT JUMPDEST PUSH2 0x5E PUSH1 0x4 DUP1 CALLDATASIZE SUB DUP2 ADD SWAP1 PUSH2 0x59 SWAP2 SWAP1 PUSH2 0x191 JUMP JUMPDEST PUSH2 0xD4 JUMP JUMPDEST STOP JUMPDEST CALLVALUE DUP1 ISZERO PUSH2 0x6C JUMPI PUSH1 0x0 DUP1 REVERT JUMPDEST POP PUSH2 0x75 PUSH2 0xFA JUMP JUMPDEST PUSH1 0x40 MLOAD PUSH2 0x82 SWAP2 SWAP1 PUSH2 0x1CD JUMP JUMPDEST PUSH1 0x40 MLOAD DUP1 SWAP2 SUB SWAP1 RETURN JUMPDEST PUSH2 0x93 PUSH2 0x11E JUMP JUMPDEST PUSH1 0x40 MLOAD PUSH2 0xA0 SWAP2 SWAP1 PUSH2 0x201 JUMP JUMPDEST PUSH1 0x40 MLOAD DUP1 SWAP2 SUB SWAP1 RETURN JUMPDEST CALLVALUE DUP1 ISZERO PUSH2 0xB5 JUMPI PUSH1 0x0 DUP1 REVERT JUMPDEST POP PUSH2 0xBE PUSH2 0x126 JUMP JUMPDEST PUSH1 0x40 MLOAD PUSH2 0xCB SWAP2 SWAP1 PUSH2 0x201 JUMP JUMPDEST PUSH1 0x40 MLOAD DUP1 SWAP2 SUB SWAP1 RETURN JUMPDEST PUSH1 0x0 CALLVALUE GT PUSH2 0xE1 JUMPI PUSH1 0x0 DUP1 REVERT JUMPDEST DUP1 PUSH20 0xFFFFFFFFFFFFFFFFFFFFFFFFFFFFFFFFFFFFFFFF AND SELFDESTRUCT JUMPDEST PUSH1 0x0 DUP1 SLOAD SWAP1 PUSH2 0x100 EXP SWAP1 DIV PUSH20 0xFFFFFFFFFFFFFFFFFFFFFFFFFFFFFFFFFFFFFFFF AND DUP2 JUMP JUMPDEST PUSH1 0x0 SELFBALANCE SWAP1 POP SWAP1 JUMP JUMPDEST PUSH1 0x0 SELFBALANCE SWAP1 POP SWAP1 JUMP JUMPDEST PUSH1 0x0 DUP1 REVERT JUMPDEST PUSH1 0x0 PUSH20 0xFFFFFFFFFFFFFFFFFFFFFFFFFFFFFFFFFFFFFFFF DUP3 AND SWAP1 POP SWAP2 SWAP1 POP JUMP JUMPDEST PUSH1 0x0 PUSH2 0x15E DUP3 PUSH2 0x133 JUMP JUMPDEST SWAP1 POP SWAP2 SWAP1 POP JUMP JUMPDEST PUSH2 0x16E DUP2 PUSH2 0x153 JUMP JUMPDEST DUP2 EQ PUSH2 0x179 JUMPI PUSH1 0x0 DUP1 REVERT JUMPDEST POP JUMP JUMPDEST PUSH1 0x0 DUP2 CALLDATALOAD SWAP1 POP PUSH2 0x18B DUP2 PUSH2 0x165 JUMP JUMPDEST SWAP3 SWAP2 POP POP JUMP JUMPDEST PUSH1 0x0 PUSH1 0x20 DUP3 DUP5 SUB SLT ISZERO PUSH2 0x1A7 JUMPI PUSH2 0x1A6 PUSH2 0x12E JUMP JUMPDEST JUMPDEST PUSH1 0x0 PUSH2 0x1B5 DUP5 DUP3 DUP6 ADD PUSH2 0x17C JUMP JUMPDEST SWAP2 POP POP SWAP3 SWAP2 POP POP JUMP JUMPDEST PUSH2 0x1C7 DUP2 PUSH2 0x153 JUMP JUMPDEST DUP3 MSTORE POP POP JUMP JUMPDEST PUSH1 0x0 PUSH1 0x20 DUP3 ADD SWAP1 POP PUSH2 0x1E2 PUSH1 0x0 DUP4 ADD DUP5 PUSH2 0x1BE JUMP JUMPDEST SWAP3 SWAP2 POP POP JUMP JUMPDEST PUSH1 0x0 DUP2 SWAP1 POP SWAP2 SWAP1 POP JUMP JUMPDEST PUSH2 0x1FB DUP2 PUSH2 0x1E8 JUMP JUMPDEST DUP3 MSTORE POP POP JUMP JUMPDEST PUSH1 0x0 PUSH1 0x20 DUP3 ADD SWAP1 POP PUSH2 0x216 PUSH1 0x0 DUP4 ADD DUP5 PUSH2 0x1F2 JUMP JUMPDEST SWAP3 SWAP2 POP POP JUMP INVALID LOG2 PUSH5 0x6970667358 0x22 SLT KECCAK256 EQ CALL 0xC8 EXTCODEHASH CALLCODE MSTORE DUP13 0xA5 PUSH4 0x958340D0 0x1E 0xEF GASLIMIT 0x2C 0xC8 0xAB DUP15 0xF7 ADD 0xE1 KECCAK256 GASLIMIT SWAP13 ORIGIN 0xD6 SWAP16 BLOCKHASH MUL PUSH31 0x64736F6C634300080D00330000000000000000000000000000000000000000 "
				},
				"gasEstimates": {
					"creation": {
						"codeDepositCost": "118800",
						"executionCost": "165",
						"totalCost": "118965"
					},
					"external": {
						"collect()": "383",
						"give()": "337",
						"owner()": "2511",
						"selfDestroy(address)": "28029"
					}
				},
				"methodIdentifiers": {
					"collect()": "e5225381",
					"give()": "9e96a23a",
					"owner()": "8da5cb5b",
					"selfDestroy(address)": "7a5e6db4"
				}
			},
			"storageLayout": {
				"storage": [
					{
						"astId": 3,
						"contract": "contracts/7_Forcehack.sol:ForceHack",
						"label": "owner",
						"offset": 0,
						"slot": "0",
						"type": "t_address_payable"
					}
				],
				"types": {
					"t_address_payable": {
						"encoding": "inplace",
						"label": "address payable",
						"numberOfBytes": "20"
					}
				}
			},
			"userdoc": {
				"kind": "user",
				"methods": {},
				"version": 1
			}
		}
	}
}