{
	"contracts/10_reentranncyhack.sol": {
		"ReentrancyHack": {
			"abi": [
				{
					"inputs": [
						{
							"internalType": "address",
							"name": "_who",
							"type": "address"
						}
					],
					"name": "balanceOf",
					"outputs": [
						{
							"internalType": "uint256",
							"name": "balance",
							"type": "uint256"
						}
					],
					"stateMutability": "view",
					"type": "function"
				},
				{
					"inputs": [],
					"name": "give",
					"outputs": [
						{
							"internalType": "uint256",
							"name": "",
							"type": "uint256"
						}
					],
					"stateMutability": "payable",
					"type": "function"
				},
				{
					"inputs": [
						{
							"internalType": "uint256",
							"name": "val",
							"type": "uint256"
						}
					],
					"name": "withdraw",
					"outputs": [],
					"stateMutability": "nonpayable",
					"type": "function"
				}
			],
			"devdoc": {
				"kind": "dev",
				"methods": {},
				"version": 1
			},
			"evm": {
				"assembly": "    /* \"contracts/10_reentranncyhack.sol\":178:621  contract ReentrancyHack {... */\n  mstore(0x40, 0x80)\n    /* \"contracts/10_reentranncyhack.sol\":247:289  0xCA04c9bdD57177A0BADA1e1eaE3E0E682B29E28F */\n  0xca04c9bdd57177a0bada1e1eae3e0e682b29e28f\n    /* \"contracts/10_reentranncyhack.sol\":208:290  IReentranncy reentrancy = IReentranncy(0xCA04c9bdD57177A0BADA1e1eaE3E0E682B29E28F) */\n  0x00\n  dup1\n  0x0100\n  exp\n  dup2\n  sload\n  dup2\n  0xffffffffffffffffffffffffffffffffffffffff\n  mul\n  not\n  and\n  swap1\n  dup4\n  0xffffffffffffffffffffffffffffffffffffffff\n  and\n  mul\n  or\n  swap1\n  sstore\n  pop\n    /* \"contracts/10_reentranncyhack.sol\":178:621  contract ReentrancyHack {... */\n  callvalue\n  dup1\n  iszero\n  tag_1\n  jumpi\n  0x00\n  dup1\n  revert\ntag_1:\n  pop\n  dataSize(sub_0)\n  dup1\n  dataOffset(sub_0)\n  0x00\n  codecopy\n  0x00\n  return\nstop\n\nsub_0: assembly {\n        /* \"contracts/10_reentranncyhack.sol\":178:621  contract ReentrancyHack {... */\n      mstore(0x40, 0x80)\n      jumpi(tag_1, lt(calldatasize, 0x04))\n      shr(0xe0, calldataload(0x00))\n      dup1\n      0x2e1a7d4d\n      eq\n      tag_2\n      jumpi\n      dup1\n      0x70a08231\n      eq\n      tag_3\n      jumpi\n      dup1\n      0x9e96a23a\n      eq\n      tag_4\n      jumpi\n    tag_1:\n      0x00\n      dup1\n      revert\n        /* \"contracts/10_reentranncyhack.sol\":541:619  function withdraw(uint val) external {... */\n    tag_2:\n      callvalue\n      dup1\n      iszero\n      tag_5\n      jumpi\n      0x00\n      dup1\n      revert\n    tag_5:\n      pop\n      tag_6\n      0x04\n      dup1\n      calldatasize\n      sub\n      dup2\n      add\n      swap1\n      tag_7\n      swap2\n      swap1\n      tag_8\n      jump\t// in\n    tag_7:\n      tag_9\n      jump\t// in\n    tag_6:\n      stop\n        /* \"contracts/10_reentranncyhack.sol\":296:409  function balanceOf(address _who) public view returns (uint balance) {... */\n    tag_3:\n      callvalue\n      dup1\n      iszero\n      tag_10\n      jumpi\n      0x00\n      dup1\n      revert\n    tag_10:\n      pop\n      tag_11\n      0x04\n      dup1\n      calldatasize\n      sub\n      dup2\n      add\n      swap1\n      tag_12\n      swap2\n      swap1\n      tag_13\n      jump\t// in\n    tag_12:\n      tag_14\n      jump\t// in\n    tag_11:\n      mload(0x40)\n      tag_15\n      swap2\n      swap1\n      tag_16\n      jump\t// in\n    tag_15:\n      mload(0x40)\n      dup1\n      swap2\n      sub\n      swap1\n      return\n        /* \"contracts/10_reentranncyhack.sol\":414:536  function give() public payable returns(uint) {... */\n    tag_4:\n      tag_17\n      tag_18\n      jump\t// in\n    tag_17:\n      mload(0x40)\n      tag_19\n      swap2\n      swap1\n      tag_16\n      jump\t// in\n    tag_19:\n      mload(0x40)\n      dup1\n      swap2\n      sub\n      swap1\n      return\n        /* \"contracts/10_reentranncyhack.sol\":541:619  function withdraw(uint val) external {... */\n    tag_9:\n        /* \"contracts/10_reentranncyhack.sol\":588:598  reentrancy */\n      0x00\n      dup1\n      sload\n      swap1\n      0x0100\n      exp\n      swap1\n      div\n      0xffffffffffffffffffffffffffffffffffffffff\n      and\n        /* \"contracts/10_reentranncyhack.sol\":588:607  reentrancy.withdraw */\n      0xffffffffffffffffffffffffffffffffffffffff\n      and\n      0x2e1a7d4d\n        /* \"contracts/10_reentranncyhack.sol\":608:611  val */\n      dup3\n        /* \"contracts/10_reentranncyhack.sol\":588:612  reentrancy.withdraw(val) */\n      mload(0x40)\n      dup3\n      0xffffffff\n      and\n      0xe0\n      shl\n      dup2\n      mstore\n      0x04\n      add\n      tag_21\n      swap2\n      swap1\n      tag_16\n      jump\t// in\n    tag_21:\n      0x00\n      mload(0x40)\n      dup1\n      dup4\n      sub\n      dup2\n      0x00\n      dup8\n      dup1\n      extcodesize\n      iszero\n      dup1\n      iszero\n      tag_22\n      jumpi\n      0x00\n      dup1\n      revert\n    tag_22:\n      pop\n      gas\n      call\n      iszero\n      dup1\n      iszero\n      tag_24\n      jumpi\n      returndatasize\n      0x00\n      dup1\n      returndatacopy\n      revert(0x00, returndatasize)\n    tag_24:\n      pop\n      pop\n      pop\n      pop\n        /* \"contracts/10_reentranncyhack.sol\":541:619  function withdraw(uint val) external {... */\n      pop\n      jump\t// out\n        /* \"contracts/10_reentranncyhack.sol\":296:409  function balanceOf(address _who) public view returns (uint balance) {... */\n    tag_14:\n        /* \"contracts/10_reentranncyhack.sol\":350:362  uint balance */\n      0x00\n        /* \"contracts/10_reentranncyhack.sol\":381:402  address(this).balance */\n      selfbalance\n        /* \"contracts/10_reentranncyhack.sol\":374:402  return address(this).balance */\n      swap1\n      pop\n        /* \"contracts/10_reentranncyhack.sol\":296:409  function balanceOf(address _who) public view returns (uint balance) {... */\n      swap2\n      swap1\n      pop\n      jump\t// out\n        /* \"contracts/10_reentranncyhack.sol\":414:536  function give() public payable returns(uint) {... */\n    tag_18:\n        /* \"contracts/10_reentranncyhack.sol\":453:457  uint */\n      0x00\n        /* \"contracts/10_reentranncyhack.sol\":489:490  0 */\n      dup1\n        /* \"contracts/10_reentranncyhack.sol\":477:486  msg.value */\n      callvalue\n        /* \"contracts/10_reentranncyhack.sol\":477:490  msg.value > 0 */\n      gt\n        /* \"contracts/10_reentranncyhack.sol\":469:491  require(msg.value > 0) */\n      tag_27\n      jumpi\n      0x00\n      dup1\n      revert\n    tag_27:\n        /* \"contracts/10_reentranncyhack.sol\":508:529  address(this).balance */\n      selfbalance\n        /* \"contracts/10_reentranncyhack.sol\":501:529  return address(this).balance */\n      swap1\n      pop\n        /* \"contracts/10_reentranncyhack.sol\":414:536  function give() public payable returns(uint) {... */\n      swap1\n      jump\t// out\n        /* \"#utility.yul\":88:205   */\n    tag_29:\n        /* \"#utility.yul\":197:198   */\n      0x00\n        /* \"#utility.yul\":194:195   */\n      dup1\n        /* \"#utility.yul\":187:199   */\n      revert\n        /* \"#utility.yul\":334:411   */\n    tag_31:\n        /* \"#utility.yul\":371:378   */\n      0x00\n        /* \"#utility.yul\":400:405   */\n      dup2\n        /* \"#utility.yul\":389:405   */\n      swap1\n      pop\n        /* \"#utility.yul\":334:411   */\n      swap2\n      swap1\n      pop\n      jump\t// out\n        /* \"#utility.yul\":417:539   */\n    tag_32:\n        /* \"#utility.yul\":490:514   */\n      tag_45\n        /* \"#utility.yul\":508:513   */\n      dup2\n        /* \"#utility.yul\":490:514   */\n      tag_31\n      jump\t// in\n    tag_45:\n        /* \"#utility.yul\":483:488   */\n      dup2\n        /* \"#utility.yul\":480:515   */\n      eq\n        /* \"#utility.yul\":470:533   */\n      tag_46\n      jumpi\n        /* \"#utility.yul\":529:530   */\n      0x00\n        /* \"#utility.yul\":526:527   */\n      dup1\n        /* \"#utility.yul\":519:531   */\n      revert\n        /* \"#utility.yul\":470:533   */\n    tag_46:\n        /* \"#utility.yul\":417:539   */\n      pop\n      jump\t// out\n        /* \"#utility.yul\":545:684   */\n    tag_33:\n        /* \"#utility.yul\":591:596   */\n      0x00\n        /* \"#utility.yul\":629:635   */\n      dup2\n        /* \"#utility.yul\":616:636   */\n      calldataload\n        /* \"#utility.yul\":607:636   */\n      swap1\n      pop\n        /* \"#utility.yul\":645:678   */\n      tag_48\n        /* \"#utility.yul\":672:677   */\n      dup2\n        /* \"#utility.yul\":645:678   */\n      tag_32\n      jump\t// in\n    tag_48:\n        /* \"#utility.yul\":545:684   */\n      swap3\n      swap2\n      pop\n      pop\n      jump\t// out\n        /* \"#utility.yul\":690:1019   */\n    tag_8:\n        /* \"#utility.yul\":749:755   */\n      0x00\n        /* \"#utility.yul\":798:800   */\n      0x20\n        /* \"#utility.yul\":786:795   */\n      dup3\n        /* \"#utility.yul\":777:784   */\n      dup5\n        /* \"#utility.yul\":773:796   */\n      sub\n        /* \"#utility.yul\":769:801   */\n      slt\n        /* \"#utility.yul\":766:885   */\n      iszero\n      tag_50\n      jumpi\n        /* \"#utility.yul\":804:883   */\n      tag_51\n      tag_29\n      jump\t// in\n    tag_51:\n        /* \"#utility.yul\":766:885   */\n    tag_50:\n        /* \"#utility.yul\":924:925   */\n      0x00\n        /* \"#utility.yul\":949:1002   */\n      tag_52\n        /* \"#utility.yul\":994:1001   */\n      dup5\n        /* \"#utility.yul\":985:991   */\n      dup3\n        /* \"#utility.yul\":974:983   */\n      dup6\n        /* \"#utility.yul\":970:992   */\n      add\n        /* \"#utility.yul\":949:1002   */\n      tag_33\n      jump\t// in\n    tag_52:\n        /* \"#utility.yul\":939:1002   */\n      swap2\n      pop\n        /* \"#utility.yul\":895:1012   */\n      pop\n        /* \"#utility.yul\":690:1019   */\n      swap3\n      swap2\n      pop\n      pop\n      jump\t// out\n        /* \"#utility.yul\":1025:1151   */\n    tag_34:\n        /* \"#utility.yul\":1062:1069   */\n      0x00\n        /* \"#utility.yul\":1102:1144   */\n      0xffffffffffffffffffffffffffffffffffffffff\n        /* \"#utility.yul\":1095:1100   */\n      dup3\n        /* \"#utility.yul\":1091:1145   */\n      and\n        /* \"#utility.yul\":1080:1145   */\n      swap1\n      pop\n        /* \"#utility.yul\":1025:1151   */\n      swap2\n      swap1\n      pop\n      jump\t// out\n        /* \"#utility.yul\":1157:1253   */\n    tag_35:\n        /* \"#utility.yul\":1194:1201   */\n      0x00\n        /* \"#utility.yul\":1223:1247   */\n      tag_55\n        /* \"#utility.yul\":1241:1246   */\n      dup3\n        /* \"#utility.yul\":1223:1247   */\n      tag_34\n      jump\t// in\n    tag_55:\n        /* \"#utility.yul\":1212:1247   */\n      swap1\n      pop\n        /* \"#utility.yul\":1157:1253   */\n      swap2\n      swap1\n      pop\n      jump\t// out\n        /* \"#utility.yul\":1259:1381   */\n    tag_36:\n        /* \"#utility.yul\":1332:1356   */\n      tag_57\n        /* \"#utility.yul\":1350:1355   */\n      dup2\n        /* \"#utility.yul\":1332:1356   */\n      tag_35\n      jump\t// in\n    tag_57:\n        /* \"#utility.yul\":1325:1330   */\n      dup2\n        /* \"#utility.yul\":1322:1357   */\n      eq\n        /* \"#utility.yul\":1312:1375   */\n      tag_58\n      jumpi\n        /* \"#utility.yul\":1371:1372   */\n      0x00\n        /* \"#utility.yul\":1368:1369   */\n      dup1\n        /* \"#utility.yul\":1361:1373   */\n      revert\n        /* \"#utility.yul\":1312:1375   */\n    tag_58:\n        /* \"#utility.yul\":1259:1381   */\n      pop\n      jump\t// out\n        /* \"#utility.yul\":1387:1526   */\n    tag_37:\n        /* \"#utility.yul\":1433:1438   */\n      0x00\n        /* \"#utility.yul\":1471:1477   */\n      dup2\n        /* \"#utility.yul\":1458:1478   */\n      calldataload\n        /* \"#utility.yul\":1449:1478   */\n      swap1\n      pop\n        /* \"#utility.yul\":1487:1520   */\n      tag_60\n        /* \"#utility.yul\":1514:1519   */\n      dup2\n        /* \"#utility.yul\":1487:1520   */\n      tag_36\n      jump\t// in\n    tag_60:\n        /* \"#utility.yul\":1387:1526   */\n      swap3\n      swap2\n      pop\n      pop\n      jump\t// out\n        /* \"#utility.yul\":1532:1861   */\n    tag_13:\n        /* \"#utility.yul\":1591:1597   */\n      0x00\n        /* \"#utility.yul\":1640:1642   */\n      0x20\n        /* \"#utility.yul\":1628:1637   */\n      dup3\n        /* \"#utility.yul\":1619:1626   */\n      dup5\n        /* \"#utility.yul\":1615:1638   */\n      sub\n        /* \"#utility.yul\":1611:1643   */\n      slt\n        /* \"#utility.yul\":1608:1727   */\n      iszero\n      tag_62\n      jumpi\n        /* \"#utility.yul\":1646:1725   */\n      tag_63\n      tag_29\n      jump\t// in\n    tag_63:\n        /* \"#utility.yul\":1608:1727   */\n    tag_62:\n        /* \"#utility.yul\":1766:1767   */\n      0x00\n        /* \"#utility.yul\":1791:1844   */\n      tag_64\n        /* \"#utility.yul\":1836:1843   */\n      dup5\n        /* \"#utility.yul\":1827:1833   */\n      dup3\n        /* \"#utility.yul\":1816:1825   */\n      dup6\n        /* \"#utility.yul\":1812:1834   */\n      add\n        /* \"#utility.yul\":1791:1844   */\n      tag_37\n      jump\t// in\n    tag_64:\n        /* \"#utility.yul\":1781:1844   */\n      swap2\n      pop\n        /* \"#utility.yul\":1737:1854   */\n      pop\n        /* \"#utility.yul\":1532:1861   */\n      swap3\n      swap2\n      pop\n      pop\n      jump\t// out\n        /* \"#utility.yul\":1867:1985   */\n    tag_38:\n        /* \"#utility.yul\":1954:1978   */\n      tag_66\n        /* \"#utility.yul\":1972:1977   */\n      dup2\n        /* \"#utility.yul\":1954:1978   */\n      tag_31\n      jump\t// in\n    tag_66:\n        /* \"#utility.yul\":1949:1952   */\n      dup3\n        /* \"#utility.yul\":1942:1979   */\n      mstore\n        /* \"#utility.yul\":1867:1985   */\n      pop\n      pop\n      jump\t// out\n        /* \"#utility.yul\":1991:2213   */\n    tag_16:\n        /* \"#utility.yul\":2084:2088   */\n      0x00\n        /* \"#utility.yul\":2122:2124   */\n      0x20\n        /* \"#utility.yul\":2111:2120   */\n      dup3\n        /* \"#utility.yul\":2107:2125   */\n      add\n        /* \"#utility.yul\":2099:2125   */\n      swap1\n      pop\n        /* \"#utility.yul\":2135:2206   */\n      tag_68\n        /* \"#utility.yul\":2203:2204   */\n      0x00\n        /* \"#utility.yul\":2192:2201   */\n      dup4\n        /* \"#utility.yul\":2188:2205   */\n      add\n        /* \"#utility.yul\":2179:2185   */\n      dup5\n        /* \"#utility.yul\":2135:2206   */\n      tag_38\n      jump\t// in\n    tag_68:\n        /* \"#utility.yul\":1991:2213   */\n      swap3\n      swap2\n      pop\n      pop\n      jump\t// out\n\n    auxdata: 0xa2646970667358221220d31598ddb5b49b50725e318d793eb53c7db284cfc494f1645e24b9af94c96f6764736f6c634300080d0033\n}\n",
				"bytecode": {
					"linkReferences": {},
					"object": "608060405273ca04c9bdd57177a0bada1e1eae3e0e682b29e28f6000806101000a81548173ffffffffffffffffffffffffffffffffffffffff021916908373ffffffffffffffffffffffffffffffffffffffff16021790555034801561006457600080fd5b506102bc806100746000396000f3fe6080604052600436106100345760003560e01c80632e1a7d4d1461003957806370a08231146100625780639e96a23a1461009f575b600080fd5b34801561004557600080fd5b50610060600480360381019061005b91906101a4565b6100bd565b005b34801561006e57600080fd5b506100896004803603810190610084919061022f565b61014b565b604051610096919061026b565b60405180910390f35b6100a7610155565b6040516100b4919061026b565b60405180910390f35b60008054906101000a900473ffffffffffffffffffffffffffffffffffffffff1673ffffffffffffffffffffffffffffffffffffffff16632e1a7d4d826040518263ffffffff1660e01b8152600401610116919061026b565b600060405180830381600087803b15801561013057600080fd5b505af1158015610144573d6000803e3d6000fd5b5050505050565b6000479050919050565b600080341161016357600080fd5b47905090565b600080fd5b6000819050919050565b6101818161016e565b811461018c57600080fd5b50565b60008135905061019e81610178565b92915050565b6000602082840312156101ba576101b9610169565b5b60006101c88482850161018f565b91505092915050565b600073ffffffffffffffffffffffffffffffffffffffff82169050919050565b60006101fc826101d1565b9050919050565b61020c816101f1565b811461021757600080fd5b50565b60008135905061022981610203565b92915050565b60006020828403121561024557610244610169565b5b60006102538482850161021a565b91505092915050565b6102658161016e565b82525050565b6000602082019050610280600083018461025c565b9291505056fea2646970667358221220d31598ddb5b49b50725e318d793eb53c7db284cfc494f1645e24b9af94c96f6764736f6c634300080d0033",
					"opcodes": "PUSH1 0x80 PUSH1 0x40 MSTORE PUSH20 0xCA04C9BDD57177A0BADA1E1EAE3E0E682B29E28F PUSH1 0x0 DUP1 PUSH2 0x100 EXP DUP2 SLOAD DUP2 PUSH20 0xFFFFFFFFFFFFFFFFFFFFFFFFFFFFFFFFFFFFFFFF MUL NOT AND SWAP1 DUP4 PUSH20 0xFFFFFFFFFFFFFFFFFFFFFFFFFFFFFFFFFFFFFFFF AND MUL OR SWAP1 SSTORE POP CALLVALUE DUP1 ISZERO PUSH2 0x64 JUMPI PUSH1 0x0 DUP1 REVERT JUMPDEST POP PUSH2 0x2BC DUP1 PUSH2 0x74 PUSH1 0x0 CODECOPY PUSH1 0x0 RETURN INVALID PUSH1 0x80 PUSH1 0x40 MSTORE PUSH1 0x4 CALLDATASIZE LT PUSH2 0x34 JUMPI PUSH1 0x0 CALLDATALOAD PUSH1 0xE0 SHR DUP1 PUSH4 0x2E1A7D4D EQ PUSH2 0x39 JUMPI DUP1 PUSH4 0x70A08231 EQ PUSH2 0x62 JUMPI DUP1 PUSH4 0x9E96A23A EQ PUSH2 0x9F JUMPI JUMPDEST PUSH1 0x0 DUP1 REVERT JUMPDEST CALLVALUE DUP1 ISZERO PUSH2 0x45 JUMPI PUSH1 0x0 DUP1 REVERT JUMPDEST POP PUSH2 0x60 PUSH1 0x4 DUP1 CALLDATASIZE SUB DUP2 ADD SWAP1 PUSH2 0x5B SWAP2 SWAP1 PUSH2 0x1A4 JUMP JUMPDEST PUSH2 0xBD JUMP JUMPDEST STOP JUMPDEST CALLVALUE DUP1 ISZERO PUSH2 0x6E JUMPI PUSH1 0x0 DUP1 REVERT JUMPDEST POP PUSH2 0x89 PUSH1 0x4 DUP1 CALLDATASIZE SUB DUP2 ADD SWAP1 PUSH2 0x84 SWAP2 SWAP1 PUSH2 0x22F JUMP JUMPDEST PUSH2 0x14B JUMP JUMPDEST PUSH1 0x40 MLOAD PUSH2 0x96 SWAP2 SWAP1 PUSH2 0x26B JUMP JUMPDEST PUSH1 0x40 MLOAD DUP1 SWAP2 SUB SWAP1 RETURN JUMPDEST PUSH2 0xA7 PUSH2 0x155 JUMP JUMPDEST PUSH1 0x40 MLOAD PUSH2 0xB4 SWAP2 SWAP1 PUSH2 0x26B JUMP JUMPDEST PUSH1 0x40 MLOAD DUP1 SWAP2 SUB SWAP1 RETURN JUMPDEST PUSH1 0x0 DUP1 SLOAD SWAP1 PUSH2 0x100 EXP SWAP1 DIV PUSH20 0xFFFFFFFFFFFFFFFFFFFFFFFFFFFFFFFFFFFFFFFF AND PUSH20 0xFFFFFFFFFFFFFFFFFFFFFFFFFFFFFFFFFFFFFFFF AND PUSH4 0x2E1A7D4D DUP3 PUSH1 0x40 MLOAD DUP3 PUSH4 0xFFFFFFFF AND PUSH1 0xE0 SHL DUP2 MSTORE PUSH1 0x4 ADD PUSH2 0x116 SWAP2 SWAP1 PUSH2 0x26B JUMP JUMPDEST PUSH1 0x0 PUSH1 0x40 MLOAD DUP1 DUP4 SUB DUP2 PUSH1 0x0 DUP8 DUP1 EXTCODESIZE ISZERO DUP1 ISZERO PUSH2 0x130 JUMPI PUSH1 0x0 DUP1 REVERT JUMPDEST POP GAS CALL ISZERO DUP1 ISZERO PUSH2 0x144 JUMPI RETURNDATASIZE PUSH1 0x0 DUP1 RETURNDATACOPY RETURNDATASIZE PUSH1 0x0 REVERT JUMPDEST POP POP POP POP POP JUMP JUMPDEST PUSH1 0x0 SELFBALANCE SWAP1 POP SWAP2 SWAP1 POP JUMP JUMPDEST PUSH1 0x0 DUP1 CALLVALUE GT PUSH2 0x163 JUMPI PUSH1 0x0 DUP1 REVERT JUMPDEST SELFBALANCE SWAP1 POP SWAP1 JUMP JUMPDEST PUSH1 0x0 DUP1 REVERT JUMPDEST PUSH1 0x0 DUP2 SWAP1 POP SWAP2 SWAP1 POP JUMP JUMPDEST PUSH2 0x181 DUP2 PUSH2 0x16E JUMP JUMPDEST DUP2 EQ PUSH2 0x18C JUMPI PUSH1 0x0 DUP1 REVERT JUMPDEST POP JUMP JUMPDEST PUSH1 0x0 DUP2 CALLDATALOAD SWAP1 POP PUSH2 0x19E DUP2 PUSH2 0x178 JUMP JUMPDEST SWAP3 SWAP2 POP POP JUMP JUMPDEST PUSH1 0x0 PUSH1 0x20 DUP3 DUP5 SUB SLT ISZERO PUSH2 0x1BA JUMPI PUSH2 0x1B9 PUSH2 0x169 JUMP JUMPDEST JUMPDEST PUSH1 0x0 PUSH2 0x1C8 DUP5 DUP3 DUP6 ADD PUSH2 0x18F JUMP JUMPDEST SWAP2 POP POP SWAP3 SWAP2 POP POP JUMP JUMPDEST PUSH1 0x0 PUSH20 0xFFFFFFFFFFFFFFFFFFFFFFFFFFFFFFFFFFFFFFFF DUP3 AND SWAP1 POP SWAP2 SWAP1 POP JUMP JUMPDEST PUSH1 0x0 PUSH2 0x1FC DUP3 PUSH2 0x1D1 JUMP JUMPDEST SWAP1 POP SWAP2 SWAP1 POP JUMP JUMPDEST PUSH2 0x20C DUP2 PUSH2 0x1F1 JUMP JUMPDEST DUP2 EQ PUSH2 0x217 JUMPI PUSH1 0x0 DUP1 REVERT JUMPDEST POP JUMP JUMPDEST PUSH1 0x0 DUP2 CALLDATALOAD SWAP1 POP PUSH2 0x229 DUP2 PUSH2 0x203 JUMP JUMPDEST SWAP3 SWAP2 POP POP JUMP JUMPDEST PUSH1 0x0 PUSH1 0x20 DUP3 DUP5 SUB SLT ISZERO PUSH2 0x245 JUMPI PUSH2 0x244 PUSH2 0x169 JUMP JUMPDEST JUMPDEST PUSH1 0x0 PUSH2 0x253 DUP5 DUP3 DUP6 ADD PUSH2 0x21A JUMP JUMPDEST SWAP2 POP POP SWAP3 SWAP2 POP POP JUMP JUMPDEST PUSH2 0x265 DUP2 PUSH2 0x16E JUMP JUMPDEST DUP3 MSTORE POP POP JUMP JUMPDEST PUSH1 0x0 PUSH1 0x20 DUP3 ADD SWAP1 POP PUSH2 0x280 PUSH1 0x0 DUP4 ADD DUP5 PUSH2 0x25C JUMP JUMPDEST SWAP3 SWAP2 POP POP JUMP INVALID LOG2 PUSH5 0x6970667358 0x22 SLT KECCAK256 0xD3 ISZERO SWAP9 0xDD 0xB5 0xB4 SWAP12 POP PUSH19 0x5E318D793EB53C7DB284CFC494F1645E24B9AF SWAP5 0xC9 PUSH16 0x6764736F6C634300080D003300000000 "
				},
				"gasEstimates": {
					"creation": {
						"codeDepositCost": "140000",
						"executionCost": "24450",
						"totalCost": "164450"
					},
					"external": {
						"balanceOf(address)": "653",
						"give()": "359",
						"withdraw(uint256)": "infinite"
					}
				},
				"methodIdentifiers": {
					"balanceOf(address)": "70a08231",
					"give()": "9e96a23a",
					"withdraw(uint256)": "2e1a7d4d"
				}
			},
			"storageLayout": {
				"storage": [
					{
						"astId": 18,
						"contract": "contracts/10_reentranncyhack.sol:ReentrancyHack",
						"label": "reentrancy",
						"offset": 0,
						"slot": "0",
						"type": "t_contract(IReentranncy)12"
					}
				],
				"types": {
					"t_contract(IReentranncy)12": {
						"encoding": "inplace",
						"label": "contract IReentranncy",
						"numberOfBytes": "20"
					}
				}
			},
			"userdoc": {
				"kind": "user",
				"methods": {},
				"version": 1
			}
		}
	}
}