{
	"contracts/NestedStruct.sol": {
		"NestedStruct": {
			"abi": [
				{
					"inputs": [],
					"name": "valueFromStruct",
					"outputs": [
						{
							"internalType": "uint256",
							"name": "age",
							"type": "uint256"
						},
						{
							"internalType": "string",
							"name": "name",
							"type": "string"
						}
					],
					"stateMutability": "view",
					"type": "function"
				}
			],
			"devdoc": {
				"kind": "dev",
				"methods": {},
				"version": 1
			},
			"evm": {
				"assembly": "    /* \"contracts/NestedStruct.sol\":57:557  contract NestedStruct {... */\n  mstore(0x40, 0x80)\n    /* \"contracts/NestedStruct.sol\":283:312  Identity(29, 'Issei Kumagai') */\n  mload(0x40)\n  dup1\n  0x40\n  add\n  0x40\n  mstore\n  dup1\n    /* \"contracts/NestedStruct.sol\":292:294  29 */\n  0x1d\n    /* \"contracts/NestedStruct.sol\":283:312  Identity(29, 'Issei Kumagai') */\n  dup2\n  mstore\n  0x20\n  add\n  mload(0x40)\n  dup1\n  0x40\n  add\n  0x40\n  mstore\n  dup1\n  0x0d\n  dup2\n  mstore\n  0x20\n  add\n  0x4973736569204b756d6167616900000000000000000000000000000000000000\n  dup2\n  mstore\n  pop\n  dup2\n  mstore\n  pop\n    /* \"contracts/NestedStruct.sol\":263:312  Identity identity = Identity(29, 'Issei Kumagai') */\n  0x01\n  0x00\n  dup3\n  add\n  mload\n  dup2\n  0x00\n  add\n  sstore\n  0x20\n  dup3\n  add\n  mload\n  dup2\n  0x01\n  add\n  swap1\n  dup2\n  tag_1\n  swap2\n  swap1\n  tag_2\n  jump\t// in\ntag_1:\n  pop\n  pop\n  pop\n    /* \"contracts/NestedStruct.sol\":356:380  NestedIdentity(identity) */\n  mload(0x40)\n  dup1\n  0x20\n  add\n  0x40\n  mstore\n  dup1\n    /* \"contracts/NestedStruct.sol\":371:379  identity */\n  0x01\n    /* \"contracts/NestedStruct.sol\":356:380  NestedIdentity(identity) */\n  mload(0x40)\n  dup1\n  0x40\n  add\n  0x40\n  mstore\n  swap1\n  dup2\n  0x00\n  dup3\n  add\n  sload\n  dup2\n  mstore\n  0x20\n  add\n  0x01\n  dup3\n  add\n  dup1\n  sload\n  tag_3\n  swap1\n  tag_4\n  jump\t// in\ntag_3:\n  dup1\n  0x1f\n  add\n  0x20\n  dup1\n  swap2\n  div\n  mul\n  0x20\n  add\n  mload(0x40)\n  swap1\n  dup2\n  add\n  0x40\n  mstore\n  dup1\n  swap3\n  swap2\n  swap1\n  dup2\n  dup2\n  mstore\n  0x20\n  add\n  dup3\n  dup1\n  sload\n  tag_5\n  swap1\n  tag_4\n  jump\t// in\ntag_5:\n  dup1\n  iszero\n  tag_6\n  jumpi\n  dup1\n  0x1f\n  lt\n  tag_7\n  jumpi\n  0x0100\n  dup1\n  dup4\n  sload\n  div\n  mul\n  dup4\n  mstore\n  swap2\n  0x20\n  add\n  swap2\n  jump(tag_6)\ntag_7:\n  dup3\n  add\n  swap2\n  swap1\n  0x00\n  mstore\n  keccak256(0x00, 0x20)\n  swap1\ntag_8:\n  dup2\n  sload\n  dup2\n  mstore\n  swap1\n  0x01\n  add\n  swap1\n  0x20\n  add\n  dup1\n  dup4\n  gt\n  tag_8\n  jumpi\n  dup3\n  swap1\n  sub\n  0x1f\n  and\n  dup3\n  add\n  swap2\ntag_6:\n  pop\n  pop\n  pop\n  pop\n  pop\n  dup2\n  mstore\n  pop\n  pop\n  dup2\n  mstore\n  pop\n    /* \"contracts/NestedStruct.sol\":323:380  NestedIdentity nested_identity = NestedIdentity(identity) */\n  0x03\n  0x00\n  dup3\n  add\n  mload\n  dup2\n  0x00\n  add\n  0x00\n  dup3\n  add\n  mload\n  dup2\n  0x00\n  add\n  sstore\n  0x20\n  dup3\n  add\n  mload\n  dup2\n  0x01\n  add\n  swap1\n  dup2\n  tag_9\n  swap2\n  swap1\n  tag_2\n  jump\t// in\ntag_9:\n  pop\n  pop\n  pop\n  pop\n  pop\n    /* \"contracts/NestedStruct.sol\":57:557  contract NestedStruct {... */\n  callvalue\n  dup1\n  iszero\n  tag_10\n  jumpi\n  0x00\n  dup1\n  revert\ntag_10:\n  pop\n  jump(tag_11)\n    /* \"#utility.yul\":7:106   */\ntag_12:\n    /* \"#utility.yul\":59:65   */\n  0x00\n    /* \"#utility.yul\":93:98   */\n  dup2\n    /* \"#utility.yul\":87:99   */\n  mload\n    /* \"#utility.yul\":77:99   */\n  swap1\n  pop\n    /* \"#utility.yul\":7:106   */\n  swap2\n  swap1\n  pop\n  jump\t// out\n    /* \"#utility.yul\":112:292   */\ntag_13:\n    /* \"#utility.yul\":160:237   */\n  0x4e487b7100000000000000000000000000000000000000000000000000000000\n    /* \"#utility.yul\":157:158   */\n  0x00\n    /* \"#utility.yul\":150:238   */\n  mstore\n    /* \"#utility.yul\":257:261   */\n  0x41\n    /* \"#utility.yul\":254:255   */\n  0x04\n    /* \"#utility.yul\":247:262   */\n  mstore\n    /* \"#utility.yul\":281:285   */\n  0x24\n    /* \"#utility.yul\":278:279   */\n  0x00\n    /* \"#utility.yul\":271:286   */\n  revert\n    /* \"#utility.yul\":298:478   */\ntag_14:\n    /* \"#utility.yul\":346:423   */\n  0x4e487b7100000000000000000000000000000000000000000000000000000000\n    /* \"#utility.yul\":343:344   */\n  0x00\n    /* \"#utility.yul\":336:424   */\n  mstore\n    /* \"#utility.yul\":443:447   */\n  0x22\n    /* \"#utility.yul\":440:441   */\n  0x04\n    /* \"#utility.yul\":433:448   */\n  mstore\n    /* \"#utility.yul\":467:471   */\n  0x24\n    /* \"#utility.yul\":464:465   */\n  0x00\n    /* \"#utility.yul\":457:472   */\n  revert\n    /* \"#utility.yul\":484:804   */\ntag_4:\n    /* \"#utility.yul\":528:534   */\n  0x00\n    /* \"#utility.yul\":565:566   */\n  0x02\n    /* \"#utility.yul\":559:563   */\n  dup3\n    /* \"#utility.yul\":555:567   */\n  div\n    /* \"#utility.yul\":545:567   */\n  swap1\n  pop\n    /* \"#utility.yul\":612:613   */\n  0x01\n    /* \"#utility.yul\":606:610   */\n  dup3\n    /* \"#utility.yul\":602:614   */\n  and\n    /* \"#utility.yul\":633:651   */\n  dup1\n    /* \"#utility.yul\":623:704   */\n  tag_36\n  jumpi\n    /* \"#utility.yul\":689:693   */\n  0x7f\n    /* \"#utility.yul\":681:687   */\n  dup3\n    /* \"#utility.yul\":677:694   */\n  and\n    /* \"#utility.yul\":667:694   */\n  swap2\n  pop\n    /* \"#utility.yul\":623:704   */\ntag_36:\n    /* \"#utility.yul\":751:753   */\n  0x20\n    /* \"#utility.yul\":743:749   */\n  dup3\n    /* \"#utility.yul\":740:754   */\n  lt\n    /* \"#utility.yul\":720:738   */\n  dup2\n    /* \"#utility.yul\":717:755   */\n  sub\n    /* \"#utility.yul\":714:798   */\n  tag_37\n  jumpi\n    /* \"#utility.yul\":770:788   */\n  tag_38\n  tag_14\n  jump\t// in\ntag_38:\n    /* \"#utility.yul\":714:798   */\ntag_37:\n    /* \"#utility.yul\":535:804   */\n  pop\n    /* \"#utility.yul\":484:804   */\n  swap2\n  swap1\n  pop\n  jump\t// out\n    /* \"#utility.yul\":810:951   */\ntag_15:\n    /* \"#utility.yul\":859:863   */\n  0x00\n    /* \"#utility.yul\":882:885   */\n  dup2\n    /* \"#utility.yul\":874:885   */\n  swap1\n  pop\n    /* \"#utility.yul\":905:908   */\n  dup2\n    /* \"#utility.yul\":902:903   */\n  0x00\n    /* \"#utility.yul\":895:909   */\n  mstore\n    /* \"#utility.yul\":939:943   */\n  0x20\n    /* \"#utility.yul\":936:937   */\n  0x00\n    /* \"#utility.yul\":926:944   */\n  keccak256\n    /* \"#utility.yul\":918:944   */\n  swap1\n  pop\n    /* \"#utility.yul\":810:951   */\n  swap2\n  swap1\n  pop\n  jump\t// out\n    /* \"#utility.yul\":957:1050   */\ntag_16:\n    /* \"#utility.yul\":994:1000   */\n  0x00\n    /* \"#utility.yul\":1041:1043   */\n  0x20\n    /* \"#utility.yul\":1036:1038   */\n  0x1f\n    /* \"#utility.yul\":1029:1034   */\n  dup4\n    /* \"#utility.yul\":1025:1039   */\n  add\n    /* \"#utility.yul\":1021:1044   */\n  div\n    /* \"#utility.yul\":1011:1044   */\n  swap1\n  pop\n    /* \"#utility.yul\":957:1050   */\n  swap2\n  swap1\n  pop\n  jump\t// out\n    /* \"#utility.yul\":1056:1163   */\ntag_17:\n    /* \"#utility.yul\":1100:1108   */\n  0x00\n    /* \"#utility.yul\":1150:1155   */\n  dup3\n    /* \"#utility.yul\":1144:1148   */\n  dup3\n    /* \"#utility.yul\":1140:1156   */\n  shl\n    /* \"#utility.yul\":1119:1156   */\n  swap1\n  pop\n    /* \"#utility.yul\":1056:1163   */\n  swap3\n  swap2\n  pop\n  pop\n  jump\t// out\n    /* \"#utility.yul\":1169:1562   */\ntag_18:\n    /* \"#utility.yul\":1238:1244   */\n  0x00\n    /* \"#utility.yul\":1288:1289   */\n  0x08\n    /* \"#utility.yul\":1276:1286   */\n  dup4\n    /* \"#utility.yul\":1272:1290   */\n  mul\n    /* \"#utility.yul\":1311:1408   */\n  tag_43\n    /* \"#utility.yul\":1341:1407   */\n  0xffffffffffffffffffffffffffffffffffffffffffffffffffffffffffffffff\n    /* \"#utility.yul\":1330:1339   */\n  dup3\n    /* \"#utility.yul\":1311:1408   */\n  tag_17\n  jump\t// in\ntag_43:\n    /* \"#utility.yul\":1429:1468   */\n  tag_44\n    /* \"#utility.yul\":1459:1467   */\n  dup7\n    /* \"#utility.yul\":1448:1457   */\n  dup4\n    /* \"#utility.yul\":1429:1468   */\n  tag_17\n  jump\t// in\ntag_44:\n    /* \"#utility.yul\":1417:1468   */\n  swap6\n  pop\n    /* \"#utility.yul\":1501:1505   */\n  dup1\n    /* \"#utility.yul\":1497:1506   */\n  not\n    /* \"#utility.yul\":1490:1495   */\n  dup5\n    /* \"#utility.yul\":1486:1507   */\n  and\n    /* \"#utility.yul\":1477:1507   */\n  swap4\n  pop\n    /* \"#utility.yul\":1550:1554   */\n  dup1\n    /* \"#utility.yul\":1540:1548   */\n  dup7\n    /* \"#utility.yul\":1536:1555   */\n  and\n    /* \"#utility.yul\":1529:1534   */\n  dup5\n    /* \"#utility.yul\":1526:1556   */\n  or\n    /* \"#utility.yul\":1516:1556   */\n  swap3\n  pop\n    /* \"#utility.yul\":1245:1562   */\n  pop\n  pop\n    /* \"#utility.yul\":1169:1562   */\n  swap4\n  swap3\n  pop\n  pop\n  pop\n  jump\t// out\n    /* \"#utility.yul\":1568:1645   */\ntag_19:\n    /* \"#utility.yul\":1605:1612   */\n  0x00\n    /* \"#utility.yul\":1634:1639   */\n  dup2\n    /* \"#utility.yul\":1623:1639   */\n  swap1\n  pop\n    /* \"#utility.yul\":1568:1645   */\n  swap2\n  swap1\n  pop\n  jump\t// out\n    /* \"#utility.yul\":1651:1711   */\ntag_20:\n    /* \"#utility.yul\":1679:1682   */\n  0x00\n    /* \"#utility.yul\":1700:1705   */\n  dup2\n    /* \"#utility.yul\":1693:1705   */\n  swap1\n  pop\n    /* \"#utility.yul\":1651:1711   */\n  swap2\n  swap1\n  pop\n  jump\t// out\n    /* \"#utility.yul\":1717:1859   */\ntag_21:\n    /* \"#utility.yul\":1767:1776   */\n  0x00\n    /* \"#utility.yul\":1800:1853   */\n  tag_48\n    /* \"#utility.yul\":1818:1852   */\n  tag_49\n    /* \"#utility.yul\":1827:1851   */\n  tag_50\n    /* \"#utility.yul\":1845:1850   */\n  dup5\n    /* \"#utility.yul\":1827:1851   */\n  tag_19\n  jump\t// in\ntag_50:\n    /* \"#utility.yul\":1818:1852   */\n  tag_20\n  jump\t// in\ntag_49:\n    /* \"#utility.yul\":1800:1853   */\n  tag_19\n  jump\t// in\ntag_48:\n    /* \"#utility.yul\":1787:1853   */\n  swap1\n  pop\n    /* \"#utility.yul\":1717:1859   */\n  swap2\n  swap1\n  pop\n  jump\t// out\n    /* \"#utility.yul\":1865:1940   */\ntag_22:\n    /* \"#utility.yul\":1908:1911   */\n  0x00\n    /* \"#utility.yul\":1929:1934   */\n  dup2\n    /* \"#utility.yul\":1922:1934   */\n  swap1\n  pop\n    /* \"#utility.yul\":1865:1940   */\n  swap2\n  swap1\n  pop\n  jump\t// out\n    /* \"#utility.yul\":1946:2215   */\ntag_23:\n    /* \"#utility.yul\":2056:2095   */\n  tag_53\n    /* \"#utility.yul\":2087:2094   */\n  dup4\n    /* \"#utility.yul\":2056:2095   */\n  tag_21\n  jump\t// in\ntag_53:\n    /* \"#utility.yul\":2117:2208   */\n  tag_54\n    /* \"#utility.yul\":2166:2207   */\n  tag_55\n    /* \"#utility.yul\":2190:2206   */\n  dup3\n    /* \"#utility.yul\":2166:2207   */\n  tag_22\n  jump\t// in\ntag_55:\n    /* \"#utility.yul\":2158:2164   */\n  dup5\n    /* \"#utility.yul\":2151:2155   */\n  dup5\n    /* \"#utility.yul\":2145:2156   */\n  sload\n    /* \"#utility.yul\":2117:2208   */\n  tag_18\n  jump\t// in\ntag_54:\n    /* \"#utility.yul\":2111:2115   */\n  dup3\n    /* \"#utility.yul\":2104:2209   */\n  sstore\n    /* \"#utility.yul\":2022:2215   */\n  pop\n    /* \"#utility.yul\":1946:2215   */\n  pop\n  pop\n  pop\n  jump\t// out\n    /* \"#utility.yul\":2221:2294   */\ntag_24:\n    /* \"#utility.yul\":2266:2269   */\n  0x00\n    /* \"#utility.yul\":2221:2294   */\n  swap1\n  jump\t// out\n    /* \"#utility.yul\":2300:2489   */\ntag_25:\n    /* \"#utility.yul\":2377:2409   */\n  tag_58\n  tag_24\n  jump\t// in\ntag_58:\n    /* \"#utility.yul\":2418:2483   */\n  tag_59\n    /* \"#utility.yul\":2476:2482   */\n  dup2\n    /* \"#utility.yul\":2468:2474   */\n  dup5\n    /* \"#utility.yul\":2462:2466   */\n  dup5\n    /* \"#utility.yul\":2418:2483   */\n  tag_23\n  jump\t// in\ntag_59:\n    /* \"#utility.yul\":2353:2489   */\n  pop\n    /* \"#utility.yul\":2300:2489   */\n  pop\n  pop\n  jump\t// out\n    /* \"#utility.yul\":2495:2681   */\ntag_26:\n    /* \"#utility.yul\":2555:2675   */\ntag_61:\n    /* \"#utility.yul\":2572:2575   */\n  dup2\n    /* \"#utility.yul\":2565:2570   */\n  dup2\n    /* \"#utility.yul\":2562:2576   */\n  lt\n    /* \"#utility.yul\":2555:2675   */\n  iszero\n  tag_63\n  jumpi\n    /* \"#utility.yul\":2626:2665   */\n  tag_64\n    /* \"#utility.yul\":2663:2664   */\n  0x00\n    /* \"#utility.yul\":2656:2661   */\n  dup3\n    /* \"#utility.yul\":2626:2665   */\n  tag_25\n  jump\t// in\ntag_64:\n    /* \"#utility.yul\":2599:2600   */\n  0x01\n    /* \"#utility.yul\":2592:2597   */\n  dup2\n    /* \"#utility.yul\":2588:2601   */\n  add\n    /* \"#utility.yul\":2579:2601   */\n  swap1\n  pop\n    /* \"#utility.yul\":2555:2675   */\n  jump(tag_61)\ntag_63:\n    /* \"#utility.yul\":2495:2681   */\n  pop\n  pop\n  jump\t// out\n    /* \"#utility.yul\":2687:3230   */\ntag_27:\n    /* \"#utility.yul\":2788:2790   */\n  0x1f\n    /* \"#utility.yul\":2783:2786   */\n  dup3\n    /* \"#utility.yul\":2780:2791   */\n  gt\n    /* \"#utility.yul\":2777:3223   */\n  iszero\n  tag_66\n  jumpi\n    /* \"#utility.yul\":2822:2860   */\n  tag_67\n    /* \"#utility.yul\":2854:2859   */\n  dup2\n    /* \"#utility.yul\":2822:2860   */\n  tag_15\n  jump\t// in\ntag_67:\n    /* \"#utility.yul\":2906:2935   */\n  tag_68\n    /* \"#utility.yul\":2924:2934   */\n  dup5\n    /* \"#utility.yul\":2906:2935   */\n  tag_16\n  jump\t// in\ntag_68:\n    /* \"#utility.yul\":2896:2904   */\n  dup2\n    /* \"#utility.yul\":2892:2936   */\n  add\n    /* \"#utility.yul\":3089:3091   */\n  0x20\n    /* \"#utility.yul\":3077:3087   */\n  dup6\n    /* \"#utility.yul\":3074:3092   */\n  lt\n    /* \"#utility.yul\":3071:3120   */\n  iszero\n  tag_69\n  jumpi\n    /* \"#utility.yul\":3110:3118   */\n  dup2\n    /* \"#utility.yul\":3095:3118   */\n  swap1\n  pop\n    /* \"#utility.yul\":3071:3120   */\ntag_69:\n    /* \"#utility.yul\":3133:3213   */\n  tag_70\n    /* \"#utility.yul\":3189:3211   */\n  tag_71\n    /* \"#utility.yul\":3207:3210   */\n  dup6\n    /* \"#utility.yul\":3189:3211   */\n  tag_16\n  jump\t// in\ntag_71:\n    /* \"#utility.yul\":3179:3187   */\n  dup4\n    /* \"#utility.yul\":3175:3212   */\n  add\n    /* \"#utility.yul\":3162:3173   */\n  dup3\n    /* \"#utility.yul\":3133:3213   */\n  tag_26\n  jump\t// in\ntag_70:\n    /* \"#utility.yul\":2792:3223   */\n  pop\n  pop\n    /* \"#utility.yul\":2777:3223   */\ntag_66:\n    /* \"#utility.yul\":2687:3230   */\n  pop\n  pop\n  pop\n  jump\t// out\n    /* \"#utility.yul\":3236:3353   */\ntag_28:\n    /* \"#utility.yul\":3290:3298   */\n  0x00\n    /* \"#utility.yul\":3340:3345   */\n  dup3\n    /* \"#utility.yul\":3334:3338   */\n  dup3\n    /* \"#utility.yul\":3330:3346   */\n  shr\n    /* \"#utility.yul\":3309:3346   */\n  swap1\n  pop\n    /* \"#utility.yul\":3236:3353   */\n  swap3\n  swap2\n  pop\n  pop\n  jump\t// out\n    /* \"#utility.yul\":3359:3528   */\ntag_29:\n    /* \"#utility.yul\":3403:3409   */\n  0x00\n    /* \"#utility.yul\":3436:3487   */\n  tag_74\n    /* \"#utility.yul\":3484:3485   */\n  0x00\n    /* \"#utility.yul\":3480:3486   */\n  not\n    /* \"#utility.yul\":3472:3477   */\n  dup5\n    /* \"#utility.yul\":3469:3470   */\n  0x08\n    /* \"#utility.yul\":3465:3478   */\n  mul\n    /* \"#utility.yul\":3436:3487   */\n  tag_28\n  jump\t// in\ntag_74:\n    /* \"#utility.yul\":3432:3488   */\n  not\n    /* \"#utility.yul\":3517:3521   */\n  dup1\n    /* \"#utility.yul\":3511:3515   */\n  dup4\n    /* \"#utility.yul\":3507:3522   */\n  and\n    /* \"#utility.yul\":3497:3522   */\n  swap2\n  pop\n    /* \"#utility.yul\":3410:3528   */\n  pop\n    /* \"#utility.yul\":3359:3528   */\n  swap3\n  swap2\n  pop\n  pop\n  jump\t// out\n    /* \"#utility.yul\":3533:3828   */\ntag_30:\n    /* \"#utility.yul\":3609:3613   */\n  0x00\n    /* \"#utility.yul\":3755:3784   */\n  tag_76\n    /* \"#utility.yul\":3780:3783   */\n  dup4\n    /* \"#utility.yul\":3774:3778   */\n  dup4\n    /* \"#utility.yul\":3755:3784   */\n  tag_29\n  jump\t// in\ntag_76:\n    /* \"#utility.yul\":3747:3784   */\n  swap2\n  pop\n    /* \"#utility.yul\":3817:3820   */\n  dup3\n    /* \"#utility.yul\":3814:3815   */\n  0x02\n    /* \"#utility.yul\":3810:3821   */\n  mul\n    /* \"#utility.yul\":3804:3808   */\n  dup3\n    /* \"#utility.yul\":3801:3822   */\n  or\n    /* \"#utility.yul\":3793:3822   */\n  swap1\n  pop\n    /* \"#utility.yul\":3533:3828   */\n  swap3\n  swap2\n  pop\n  pop\n  jump\t// out\n    /* \"#utility.yul\":3833:5228   */\ntag_2:\n    /* \"#utility.yul\":3950:3987   */\n  tag_78\n    /* \"#utility.yul\":3983:3986   */\n  dup3\n    /* \"#utility.yul\":3950:3987   */\n  tag_12\n  jump\t// in\ntag_78:\n    /* \"#utility.yul\":4052:4070   */\n  0xffffffffffffffff\n    /* \"#utility.yul\":4044:4050   */\n  dup2\n    /* \"#utility.yul\":4041:4071   */\n  gt\n    /* \"#utility.yul\":4038:4094   */\n  iszero\n  tag_79\n  jumpi\n    /* \"#utility.yul\":4074:4092   */\n  tag_80\n  tag_13\n  jump\t// in\ntag_80:\n    /* \"#utility.yul\":4038:4094   */\ntag_79:\n    /* \"#utility.yul\":4118:4156   */\n  tag_81\n    /* \"#utility.yul\":4150:4154   */\n  dup3\n    /* \"#utility.yul\":4144:4155   */\n  sload\n    /* \"#utility.yul\":4118:4156   */\n  tag_4\n  jump\t// in\ntag_81:\n    /* \"#utility.yul\":4203:4270   */\n  tag_82\n    /* \"#utility.yul\":4263:4269   */\n  dup3\n    /* \"#utility.yul\":4255:4261   */\n  dup3\n    /* \"#utility.yul\":4249:4253   */\n  dup6\n    /* \"#utility.yul\":4203:4270   */\n  tag_27\n  jump\t// in\ntag_82:\n    /* \"#utility.yul\":4297:4298   */\n  0x00\n    /* \"#utility.yul\":4321:4325   */\n  0x20\n    /* \"#utility.yul\":4308:4325   */\n  swap1\n  pop\n    /* \"#utility.yul\":4353:4355   */\n  0x1f\n    /* \"#utility.yul\":4345:4351   */\n  dup4\n    /* \"#utility.yul\":4342:4356   */\n  gt\n    /* \"#utility.yul\":4370:4371   */\n  0x01\n    /* \"#utility.yul\":4365:4983   */\n  dup2\n  eq\n  tag_84\n  jumpi\n    /* \"#utility.yul\":5027:5028   */\n  0x00\n    /* \"#utility.yul\":5044:5050   */\n  dup5\n    /* \"#utility.yul\":5041:5118   */\n  iszero\n  tag_85\n  jumpi\n    /* \"#utility.yul\":5093:5102   */\n  dup3\n    /* \"#utility.yul\":5088:5091   */\n  dup8\n    /* \"#utility.yul\":5084:5103   */\n  add\n    /* \"#utility.yul\":5078:5104   */\n  mload\n    /* \"#utility.yul\":5069:5104   */\n  swap1\n  pop\n    /* \"#utility.yul\":5041:5118   */\ntag_85:\n    /* \"#utility.yul\":5144:5211   */\n  tag_86\n    /* \"#utility.yul\":5204:5210   */\n  dup6\n    /* \"#utility.yul\":5197:5202   */\n  dup3\n    /* \"#utility.yul\":5144:5211   */\n  tag_30\n  jump\t// in\ntag_86:\n    /* \"#utility.yul\":5138:5142   */\n  dup7\n    /* \"#utility.yul\":5131:5212   */\n  sstore\n    /* \"#utility.yul\":5000:5222   */\n  pop\n    /* \"#utility.yul\":4335:5222   */\n  jump(tag_83)\n    /* \"#utility.yul\":4365:4983   */\ntag_84:\n    /* \"#utility.yul\":4417:4421   */\n  0x1f\n    /* \"#utility.yul\":4413:4422   */\n  not\n    /* \"#utility.yul\":4405:4411   */\n  dup5\n    /* \"#utility.yul\":4401:4423   */\n  and\n    /* \"#utility.yul\":4451:4488   */\n  tag_87\n    /* \"#utility.yul\":4483:4487   */\n  dup7\n    /* \"#utility.yul\":4451:4488   */\n  tag_15\n  jump\t// in\ntag_87:\n    /* \"#utility.yul\":4510:4511   */\n  0x00\n    /* \"#utility.yul\":4524:4732   */\ntag_88:\n    /* \"#utility.yul\":4538:4545   */\n  dup3\n    /* \"#utility.yul\":4535:4536   */\n  dup2\n    /* \"#utility.yul\":4532:4546   */\n  lt\n    /* \"#utility.yul\":4524:4732   */\n  iszero\n  tag_90\n  jumpi\n    /* \"#utility.yul\":4617:4626   */\n  dup5\n    /* \"#utility.yul\":4612:4615   */\n  dup10\n    /* \"#utility.yul\":4608:4627   */\n  add\n    /* \"#utility.yul\":4602:4628   */\n  mload\n    /* \"#utility.yul\":4594:4600   */\n  dup3\n    /* \"#utility.yul\":4587:4629   */\n  sstore\n    /* \"#utility.yul\":4668:4669   */\n  0x01\n    /* \"#utility.yul\":4660:4666   */\n  dup3\n    /* \"#utility.yul\":4656:4670   */\n  add\n    /* \"#utility.yul\":4646:4670   */\n  swap2\n  pop\n    /* \"#utility.yul\":4715:4717   */\n  0x20\n    /* \"#utility.yul\":4704:4713   */\n  dup6\n    /* \"#utility.yul\":4700:4718   */\n  add\n    /* \"#utility.yul\":4687:4718   */\n  swap5\n  pop\n    /* \"#utility.yul\":4561:4565   */\n  0x20\n    /* \"#utility.yul\":4558:4559   */\n  dup2\n    /* \"#utility.yul\":4554:4566   */\n  add\n    /* \"#utility.yul\":4549:4566   */\n  swap1\n  pop\n    /* \"#utility.yul\":4524:4732   */\n  jump(tag_88)\ntag_90:\n    /* \"#utility.yul\":4760:4766   */\n  dup7\n    /* \"#utility.yul\":4751:4758   */\n  dup4\n    /* \"#utility.yul\":4748:4767   */\n  lt\n    /* \"#utility.yul\":4745:4924   */\n  iszero\n  tag_91\n  jumpi\n    /* \"#utility.yul\":4818:4827   */\n  dup5\n    /* \"#utility.yul\":4813:4816   */\n  dup10\n    /* \"#utility.yul\":4809:4828   */\n  add\n    /* \"#utility.yul\":4803:4829   */\n  mload\n    /* \"#utility.yul\":4861:4909   */\n  tag_92\n    /* \"#utility.yul\":4903:4907   */\n  0x1f\n    /* \"#utility.yul\":4895:4901   */\n  dup10\n    /* \"#utility.yul\":4891:4908   */\n  and\n    /* \"#utility.yul\":4880:4889   */\n  dup3\n    /* \"#utility.yul\":4861:4909   */\n  tag_29\n  jump\t// in\ntag_92:\n    /* \"#utility.yul\":4853:4859   */\n  dup4\n    /* \"#utility.yul\":4846:4910   */\n  sstore\n    /* \"#utility.yul\":4768:4924   */\n  pop\n    /* \"#utility.yul\":4745:4924   */\ntag_91:\n    /* \"#utility.yul\":4970:4971   */\n  0x01\n    /* \"#utility.yul\":4966:4967   */\n  0x02\n    /* \"#utility.yul\":4958:4964   */\n  dup9\n    /* \"#utility.yul\":4954:4968   */\n  mul\n    /* \"#utility.yul\":4950:4972   */\n  add\n    /* \"#utility.yul\":4944:4948   */\n  dup9\n    /* \"#utility.yul\":4937:4973   */\n  sstore\n    /* \"#utility.yul\":4372:4983   */\n  pop\n  pop\n  pop\n    /* \"#utility.yul\":4335:5222   */\ntag_83:\n  pop\n    /* \"#utility.yul\":3925:5228   */\n  pop\n  pop\n  pop\n    /* \"#utility.yul\":3833:5228   */\n  pop\n  pop\n  jump\t// out\n    /* \"contracts/NestedStruct.sol\":57:557  contract NestedStruct {... */\ntag_11:\n  dataSize(sub_0)\n  dup1\n  dataOffset(sub_0)\n  0x00\n  codecopy\n  0x00\n  return\nstop\n\nsub_0: assembly {\n        /* \"contracts/NestedStruct.sol\":57:557  contract NestedStruct {... */\n      mstore(0x40, 0x80)\n      callvalue\n      dup1\n      iszero\n      tag_1\n      jumpi\n      0x00\n      dup1\n      revert\n    tag_1:\n      pop\n      jumpi(tag_2, lt(calldatasize, 0x04))\n      shr(0xe0, calldataload(0x00))\n      dup1\n      0xf31d170c\n      eq\n      tag_3\n      jumpi\n    tag_2:\n      0x00\n      dup1\n      revert\n        /* \"contracts/NestedStruct.sol\":391:553  function valueFromStruct() public view returns(uint age, string memory name) {... */\n    tag_3:\n      tag_4\n      tag_5\n      jump\t// in\n    tag_4:\n      mload(0x40)\n      tag_6\n      swap3\n      swap2\n      swap1\n      tag_7\n      jump\t// in\n    tag_6:\n      mload(0x40)\n      dup1\n      swap2\n      sub\n      swap1\n      return\n    tag_5:\n        /* \"contracts/NestedStruct.sol\":438:446  uint age */\n      0x00\n        /* \"contracts/NestedStruct.sol\":448:466  string memory name */\n      0x60\n        /* \"contracts/NestedStruct.sol\":486:501  nested_identity */\n      0x03\n        /* \"contracts/NestedStruct.sol\":486:510  nested_identity.identity */\n      0x00\n      add\n        /* \"contracts/NestedStruct.sol\":486:514  nested_identity.identity.age */\n      0x00\n      add\n      sload\n        /* \"contracts/NestedStruct.sol\":516:531  nested_identity */\n      0x03\n        /* \"contracts/NestedStruct.sol\":516:540  nested_identity.identity */\n      0x00\n      add\n        /* \"contracts/NestedStruct.sol\":516:545  nested_identity.identity.name */\n      0x01\n      add\n        /* \"contracts/NestedStruct.sol\":478:546  return (nested_identity.identity.age, nested_identity.identity.name) */\n      dup1\n      dup1\n      sload\n      tag_9\n      swap1\n      tag_10\n      jump\t// in\n    tag_9:\n      dup1\n      0x1f\n      add\n      0x20\n      dup1\n      swap2\n      div\n      mul\n      0x20\n      add\n      mload(0x40)\n      swap1\n      dup2\n      add\n      0x40\n      mstore\n      dup1\n      swap3\n      swap2\n      swap1\n      dup2\n      dup2\n      mstore\n      0x20\n      add\n      dup3\n      dup1\n      sload\n      tag_11\n      swap1\n      tag_10\n      jump\t// in\n    tag_11:\n      dup1\n      iszero\n      tag_12\n      jumpi\n      dup1\n      0x1f\n      lt\n      tag_13\n      jumpi\n      0x0100\n      dup1\n      dup4\n      sload\n      div\n      mul\n      dup4\n      mstore\n      swap2\n      0x20\n      add\n      swap2\n      jump(tag_12)\n    tag_13:\n      dup3\n      add\n      swap2\n      swap1\n      0x00\n      mstore\n      keccak256(0x00, 0x20)\n      swap1\n    tag_14:\n      dup2\n      sload\n      dup2\n      mstore\n      swap1\n      0x01\n      add\n      swap1\n      0x20\n      add\n      dup1\n      dup4\n      gt\n      tag_14\n      jumpi\n      dup3\n      swap1\n      sub\n      0x1f\n      and\n      dup3\n      add\n      swap2\n    tag_12:\n      pop\n      pop\n      pop\n      pop\n      pop\n      swap1\n      pop\n      swap2\n      pop\n      swap2\n      pop\n        /* \"contracts/NestedStruct.sol\":391:553  function valueFromStruct() public view returns(uint age, string memory name) {... */\n      swap1\n      swap2\n      jump\t// out\n        /* \"#utility.yul\":7:84   */\n    tag_15:\n        /* \"#utility.yul\":44:51   */\n      0x00\n        /* \"#utility.yul\":73:78   */\n      dup2\n        /* \"#utility.yul\":62:78   */\n      swap1\n      pop\n        /* \"#utility.yul\":7:84   */\n      swap2\n      swap1\n      pop\n      jump\t// out\n        /* \"#utility.yul\":90:208   */\n    tag_16:\n        /* \"#utility.yul\":177:201   */\n      tag_26\n        /* \"#utility.yul\":195:200   */\n      dup2\n        /* \"#utility.yul\":177:201   */\n      tag_15\n      jump\t// in\n    tag_26:\n        /* \"#utility.yul\":172:175   */\n      dup3\n        /* \"#utility.yul\":165:202   */\n      mstore\n        /* \"#utility.yul\":90:208   */\n      pop\n      pop\n      jump\t// out\n        /* \"#utility.yul\":214:313   */\n    tag_17:\n        /* \"#utility.yul\":266:272   */\n      0x00\n        /* \"#utility.yul\":300:305   */\n      dup2\n        /* \"#utility.yul\":294:306   */\n      mload\n        /* \"#utility.yul\":284:306   */\n      swap1\n      pop\n        /* \"#utility.yul\":214:313   */\n      swap2\n      swap1\n      pop\n      jump\t// out\n        /* \"#utility.yul\":319:488   */\n    tag_18:\n        /* \"#utility.yul\":403:414   */\n      0x00\n        /* \"#utility.yul\":437:443   */\n      dup3\n        /* \"#utility.yul\":432:435   */\n      dup3\n        /* \"#utility.yul\":425:444   */\n      mstore\n        /* \"#utility.yul\":477:481   */\n      0x20\n        /* \"#utility.yul\":472:475   */\n      dup3\n        /* \"#utility.yul\":468:482   */\n      add\n        /* \"#utility.yul\":453:482   */\n      swap1\n      pop\n        /* \"#utility.yul\":319:488   */\n      swap3\n      swap2\n      pop\n      pop\n      jump\t// out\n        /* \"#utility.yul\":494:740   */\n    tag_19:\n        /* \"#utility.yul\":575:576   */\n      0x00\n        /* \"#utility.yul\":585:698   */\n    tag_30:\n        /* \"#utility.yul\":599:605   */\n      dup4\n        /* \"#utility.yul\":596:597   */\n      dup2\n        /* \"#utility.yul\":593:606   */\n      lt\n        /* \"#utility.yul\":585:698   */\n      iszero\n      tag_32\n      jumpi\n        /* \"#utility.yul\":684:685   */\n      dup1\n        /* \"#utility.yul\":679:682   */\n      dup3\n        /* \"#utility.yul\":675:686   */\n      add\n        /* \"#utility.yul\":669:687   */\n      mload\n        /* \"#utility.yul\":665:666   */\n      dup2\n        /* \"#utility.yul\":660:663   */\n      dup5\n        /* \"#utility.yul\":656:667   */\n      add\n        /* \"#utility.yul\":649:688   */\n      mstore\n        /* \"#utility.yul\":621:623   */\n      0x20\n        /* \"#utility.yul\":618:619   */\n      dup2\n        /* \"#utility.yul\":614:624   */\n      add\n        /* \"#utility.yul\":609:624   */\n      swap1\n      pop\n        /* \"#utility.yul\":585:698   */\n      jump(tag_30)\n    tag_32:\n        /* \"#utility.yul\":732:733   */\n      0x00\n        /* \"#utility.yul\":723:729   */\n      dup5\n        /* \"#utility.yul\":718:721   */\n      dup5\n        /* \"#utility.yul\":714:730   */\n      add\n        /* \"#utility.yul\":707:734   */\n      mstore\n        /* \"#utility.yul\":556:740   */\n      pop\n        /* \"#utility.yul\":494:740   */\n      pop\n      pop\n      pop\n      jump\t// out\n        /* \"#utility.yul\":746:848   */\n    tag_20:\n        /* \"#utility.yul\":787:793   */\n      0x00\n        /* \"#utility.yul\":838:840   */\n      0x1f\n        /* \"#utility.yul\":834:841   */\n      not\n        /* \"#utility.yul\":829:831   */\n      0x1f\n        /* \"#utility.yul\":822:827   */\n      dup4\n        /* \"#utility.yul\":818:832   */\n      add\n        /* \"#utility.yul\":814:842   */\n      and\n        /* \"#utility.yul\":804:842   */\n      swap1\n      pop\n        /* \"#utility.yul\":746:848   */\n      swap2\n      swap1\n      pop\n      jump\t// out\n        /* \"#utility.yul\":854:1231   */\n    tag_21:\n        /* \"#utility.yul\":942:945   */\n      0x00\n        /* \"#utility.yul\":970:1009   */\n      tag_35\n        /* \"#utility.yul\":1003:1008   */\n      dup3\n        /* \"#utility.yul\":970:1009   */\n      tag_17\n      jump\t// in\n    tag_35:\n        /* \"#utility.yul\":1025:1096   */\n      tag_36\n        /* \"#utility.yul\":1089:1095   */\n      dup2\n        /* \"#utility.yul\":1084:1087   */\n      dup6\n        /* \"#utility.yul\":1025:1096   */\n      tag_18\n      jump\t// in\n    tag_36:\n        /* \"#utility.yul\":1018:1096   */\n      swap4\n      pop\n        /* \"#utility.yul\":1105:1170   */\n      tag_37\n        /* \"#utility.yul\":1163:1169   */\n      dup2\n        /* \"#utility.yul\":1158:1161   */\n      dup6\n        /* \"#utility.yul\":1151:1155   */\n      0x20\n        /* \"#utility.yul\":1144:1149   */\n      dup7\n        /* \"#utility.yul\":1140:1156   */\n      add\n        /* \"#utility.yul\":1105:1170   */\n      tag_19\n      jump\t// in\n    tag_37:\n        /* \"#utility.yul\":1195:1224   */\n      tag_38\n        /* \"#utility.yul\":1217:1223   */\n      dup2\n        /* \"#utility.yul\":1195:1224   */\n      tag_20\n      jump\t// in\n    tag_38:\n        /* \"#utility.yul\":1190:1193   */\n      dup5\n        /* \"#utility.yul\":1186:1225   */\n      add\n        /* \"#utility.yul\":1179:1225   */\n      swap2\n      pop\n        /* \"#utility.yul\":946:1231   */\n      pop\n        /* \"#utility.yul\":854:1231   */\n      swap3\n      swap2\n      pop\n      pop\n      jump\t// out\n        /* \"#utility.yul\":1237:1660   */\n    tag_7:\n        /* \"#utility.yul\":1378:1382   */\n      0x00\n        /* \"#utility.yul\":1416:1418   */\n      0x40\n        /* \"#utility.yul\":1405:1414   */\n      dup3\n        /* \"#utility.yul\":1401:1419   */\n      add\n        /* \"#utility.yul\":1393:1419   */\n      swap1\n      pop\n        /* \"#utility.yul\":1429:1500   */\n      tag_40\n        /* \"#utility.yul\":1497:1498   */\n      0x00\n        /* \"#utility.yul\":1486:1495   */\n      dup4\n        /* \"#utility.yul\":1482:1499   */\n      add\n        /* \"#utility.yul\":1473:1479   */\n      dup6\n        /* \"#utility.yul\":1429:1500   */\n      tag_16\n      jump\t// in\n    tag_40:\n        /* \"#utility.yul\":1547:1556   */\n      dup2\n        /* \"#utility.yul\":1541:1545   */\n      dup2\n        /* \"#utility.yul\":1537:1557   */\n      sub\n        /* \"#utility.yul\":1532:1534   */\n      0x20\n        /* \"#utility.yul\":1521:1530   */\n      dup4\n        /* \"#utility.yul\":1517:1535   */\n      add\n        /* \"#utility.yul\":1510:1558   */\n      mstore\n        /* \"#utility.yul\":1575:1653   */\n      tag_41\n        /* \"#utility.yul\":1648:1652   */\n      dup2\n        /* \"#utility.yul\":1639:1645   */\n      dup5\n        /* \"#utility.yul\":1575:1653   */\n      tag_21\n      jump\t// in\n    tag_41:\n        /* \"#utility.yul\":1567:1653   */\n      swap1\n      pop\n        /* \"#utility.yul\":1237:1660   */\n      swap4\n      swap3\n      pop\n      pop\n      pop\n      jump\t// out\n        /* \"#utility.yul\":1666:1846   */\n    tag_22:\n        /* \"#utility.yul\":1714:1791   */\n      0x4e487b7100000000000000000000000000000000000000000000000000000000\n        /* \"#utility.yul\":1711:1712   */\n      0x00\n        /* \"#utility.yul\":1704:1792   */\n      mstore\n        /* \"#utility.yul\":1811:1815   */\n      0x22\n        /* \"#utility.yul\":1808:1809   */\n      0x04\n        /* \"#utility.yul\":1801:1816   */\n      mstore\n        /* \"#utility.yul\":1835:1839   */\n      0x24\n        /* \"#utility.yul\":1832:1833   */\n      0x00\n        /* \"#utility.yul\":1825:1840   */\n      revert\n        /* \"#utility.yul\":1852:2172   */\n    tag_10:\n        /* \"#utility.yul\":1896:1902   */\n      0x00\n        /* \"#utility.yul\":1933:1934   */\n      0x02\n        /* \"#utility.yul\":1927:1931   */\n      dup3\n        /* \"#utility.yul\":1923:1935   */\n      div\n        /* \"#utility.yul\":1913:1935   */\n      swap1\n      pop\n        /* \"#utility.yul\":1980:1981   */\n      0x01\n        /* \"#utility.yul\":1974:1978   */\n      dup3\n        /* \"#utility.yul\":1970:1982   */\n      and\n        /* \"#utility.yul\":2001:2019   */\n      dup1\n        /* \"#utility.yul\":1991:2072   */\n      tag_44\n      jumpi\n        /* \"#utility.yul\":2057:2061   */\n      0x7f\n        /* \"#utility.yul\":2049:2055   */\n      dup3\n        /* \"#utility.yul\":2045:2062   */\n      and\n        /* \"#utility.yul\":2035:2062   */\n      swap2\n      pop\n        /* \"#utility.yul\":1991:2072   */\n    tag_44:\n        /* \"#utility.yul\":2119:2121   */\n      0x20\n        /* \"#utility.yul\":2111:2117   */\n      dup3\n        /* \"#utility.yul\":2108:2122   */\n      lt\n        /* \"#utility.yul\":2088:2106   */\n      dup2\n        /* \"#utility.yul\":2085:2123   */\n      sub\n        /* \"#utility.yul\":2082:2166   */\n      tag_45\n      jumpi\n        /* \"#utility.yul\":2138:2156   */\n      tag_46\n      tag_22\n      jump\t// in\n    tag_46:\n        /* \"#utility.yul\":2082:2166   */\n    tag_45:\n        /* \"#utility.yul\":1903:2172   */\n      pop\n        /* \"#utility.yul\":1852:2172   */\n      swap2\n      swap1\n      pop\n      jump\t// out\n\n    auxdata: 0xa26469706673582212204fa4ba175aae018ca3536956109bfb96b24e9e73726ea1e316974bd888203e9b64736f6c63430008110033\n}\n",
				"bytecode": {
					"linkReferences": {},
					"object": "60806040526040518060400160405280601d81526020016040518060400160405280600d81526020017f4973736569204b756d6167616900000000000000000000000000000000000000815250815250600160008201518160000155602082015181600101908161007091906103bb565b50505060405180602001604052806001604051806040016040529081600082015481526020016001820180546100a5906101d4565b80601f01602080910402602001604051908101604052809291908181526020018280546100d1906101d4565b801561011e5780601f106100f35761010080835404028352916020019161011e565b820191906000526020600020905b81548152906001019060200180831161010157829003601f168201915b505050505081525050815250600360008201518160000160008201518160000155602082015181600101908161015491906103bb565b505050505034801561016557600080fd5b5061048d565b600081519050919050565b7f4e487b7100000000000000000000000000000000000000000000000000000000600052604160045260246000fd5b7f4e487b7100000000000000000000000000000000000000000000000000000000600052602260045260246000fd5b600060028204905060018216806101ec57607f821691505b6020821081036101ff576101fe6101a5565b5b50919050565b60008190508160005260206000209050919050565b60006020601f8301049050919050565b600082821b905092915050565b6000600883026102677fffffffffffffffffffffffffffffffffffffffffffffffffffffffffffffffff8261022a565b610271868361022a565b95508019841693508086168417925050509392505050565b6000819050919050565b6000819050919050565b60006102b86102b36102ae84610289565b610293565b610289565b9050919050565b6000819050919050565b6102d28361029d565b6102e66102de826102bf565b848454610237565b825550505050565b600090565b6102fb6102ee565b6103068184846102c9565b505050565b5b8181101561032a5761031f6000826102f3565b60018101905061030c565b5050565b601f82111561036f5761034081610205565b6103498461021a565b81016020851015610358578190505b61036c6103648561021a565b83018261030b565b50505b505050565b600082821c905092915050565b600061039260001984600802610374565b1980831691505092915050565b60006103ab8383610381565b9150826002028217905092915050565b6103c48261016b565b67ffffffffffffffff8111156103dd576103dc610176565b5b6103e782546101d4565b6103f282828561032e565b600060209050601f8311600181146104255760008415610413578287015190505b61041d858261039f565b865550610485565b601f19841661043386610205565b60005b8281101561045b57848901518255600182019150602085019450602081019050610436565b868310156104785784890151610474601f891682610381565b8355505b6001600288020188555050505b505050505050565b6102678061049c6000396000f3fe608060405234801561001057600080fd5b506004361061002b5760003560e01c8063f31d170c14610030575b600080fd5b61003861004f565b6040516100469291906101a1565b60405180910390f35b60006060600360000160000154600360000160010180805461007090610200565b80601f016020809104026020016040519081016040528092919081815260200182805461009c90610200565b80156100e95780601f106100be576101008083540402835291602001916100e9565b820191906000526020600020905b8154815290600101906020018083116100cc57829003601f168201915b50505050509050915091509091565b6000819050919050565b61010b816100f8565b82525050565b600081519050919050565b600082825260208201905092915050565b60005b8381101561014b578082015181840152602081019050610130565b60008484015250505050565b6000601f19601f8301169050919050565b600061017382610111565b61017d818561011c565b935061018d81856020860161012d565b61019681610157565b840191505092915050565b60006040820190506101b66000830185610102565b81810360208301526101c88184610168565b90509392505050565b7f4e487b7100000000000000000000000000000000000000000000000000000000600052602260045260246000fd5b6000600282049050600182168061021857607f821691505b60208210810361022b5761022a6101d1565b5b5091905056fea26469706673582212204fa4ba175aae018ca3536956109bfb96b24e9e73726ea1e316974bd888203e9b64736f6c63430008110033",
					"opcodes": "PUSH1 0x80 PUSH1 0x40 MSTORE PUSH1 0x40 MLOAD DUP1 PUSH1 0x40 ADD PUSH1 0x40 MSTORE DUP1 PUSH1 0x1D DUP2 MSTORE PUSH1 0x20 ADD PUSH1 0x40 MLOAD DUP1 PUSH1 0x40 ADD PUSH1 0x40 MSTORE DUP1 PUSH1 0xD DUP2 MSTORE PUSH1 0x20 ADD PUSH32 0x4973736569204B756D6167616900000000000000000000000000000000000000 DUP2 MSTORE POP DUP2 MSTORE POP PUSH1 0x1 PUSH1 0x0 DUP3 ADD MLOAD DUP2 PUSH1 0x0 ADD SSTORE PUSH1 0x20 DUP3 ADD MLOAD DUP2 PUSH1 0x1 ADD SWAP1 DUP2 PUSH2 0x70 SWAP2 SWAP1 PUSH2 0x3BB JUMP JUMPDEST POP POP POP PUSH1 0x40 MLOAD DUP1 PUSH1 0x20 ADD PUSH1 0x40 MSTORE DUP1 PUSH1 0x1 PUSH1 0x40 MLOAD DUP1 PUSH1 0x40 ADD PUSH1 0x40 MSTORE SWAP1 DUP2 PUSH1 0x0 DUP3 ADD SLOAD DUP2 MSTORE PUSH1 0x20 ADD PUSH1 0x1 DUP3 ADD DUP1 SLOAD PUSH2 0xA5 SWAP1 PUSH2 0x1D4 JUMP JUMPDEST DUP1 PUSH1 0x1F ADD PUSH1 0x20 DUP1 SWAP2 DIV MUL PUSH1 0x20 ADD PUSH1 0x40 MLOAD SWAP1 DUP2 ADD PUSH1 0x40 MSTORE DUP1 SWAP3 SWAP2 SWAP1 DUP2 DUP2 MSTORE PUSH1 0x20 ADD DUP3 DUP1 SLOAD PUSH2 0xD1 SWAP1 PUSH2 0x1D4 JUMP JUMPDEST DUP1 ISZERO PUSH2 0x11E JUMPI DUP1 PUSH1 0x1F LT PUSH2 0xF3 JUMPI PUSH2 0x100 DUP1 DUP4 SLOAD DIV MUL DUP4 MSTORE SWAP2 PUSH1 0x20 ADD SWAP2 PUSH2 0x11E JUMP JUMPDEST DUP3 ADD SWAP2 SWAP1 PUSH1 0x0 MSTORE PUSH1 0x20 PUSH1 0x0 KECCAK256 SWAP1 JUMPDEST DUP2 SLOAD DUP2 MSTORE SWAP1 PUSH1 0x1 ADD SWAP1 PUSH1 0x20 ADD DUP1 DUP4 GT PUSH2 0x101 JUMPI DUP3 SWAP1 SUB PUSH1 0x1F AND DUP3 ADD SWAP2 JUMPDEST POP POP POP POP POP DUP2 MSTORE POP POP DUP2 MSTORE POP PUSH1 0x3 PUSH1 0x0 DUP3 ADD MLOAD DUP2 PUSH1 0x0 ADD PUSH1 0x0 DUP3 ADD MLOAD DUP2 PUSH1 0x0 ADD SSTORE PUSH1 0x20 DUP3 ADD MLOAD DUP2 PUSH1 0x1 ADD SWAP1 DUP2 PUSH2 0x154 SWAP2 SWAP1 PUSH2 0x3BB JUMP JUMPDEST POP POP POP POP POP CALLVALUE DUP1 ISZERO PUSH2 0x165 JUMPI PUSH1 0x0 DUP1 REVERT JUMPDEST POP PUSH2 0x48D JUMP JUMPDEST PUSH1 0x0 DUP2 MLOAD SWAP1 POP SWAP2 SWAP1 POP JUMP JUMPDEST PUSH32 0x4E487B7100000000000000000000000000000000000000000000000000000000 PUSH1 0x0 MSTORE PUSH1 0x41 PUSH1 0x4 MSTORE PUSH1 0x24 PUSH1 0x0 REVERT JUMPDEST PUSH32 0x4E487B7100000000000000000000000000000000000000000000000000000000 PUSH1 0x0 MSTORE PUSH1 0x22 PUSH1 0x4 MSTORE PUSH1 0x24 PUSH1 0x0 REVERT JUMPDEST PUSH1 0x0 PUSH1 0x2 DUP3 DIV SWAP1 POP PUSH1 0x1 DUP3 AND DUP1 PUSH2 0x1EC JUMPI PUSH1 0x7F DUP3 AND SWAP2 POP JUMPDEST PUSH1 0x20 DUP3 LT DUP2 SUB PUSH2 0x1FF JUMPI PUSH2 0x1FE PUSH2 0x1A5 JUMP JUMPDEST JUMPDEST POP SWAP2 SWAP1 POP JUMP JUMPDEST PUSH1 0x0 DUP2 SWAP1 POP DUP2 PUSH1 0x0 MSTORE PUSH1 0x20 PUSH1 0x0 KECCAK256 SWAP1 POP SWAP2 SWAP1 POP JUMP JUMPDEST PUSH1 0x0 PUSH1 0x20 PUSH1 0x1F DUP4 ADD DIV SWAP1 POP SWAP2 SWAP1 POP JUMP JUMPDEST PUSH1 0x0 DUP3 DUP3 SHL SWAP1 POP SWAP3 SWAP2 POP POP JUMP JUMPDEST PUSH1 0x0 PUSH1 0x8 DUP4 MUL PUSH2 0x267 PUSH32 0xFFFFFFFFFFFFFFFFFFFFFFFFFFFFFFFFFFFFFFFFFFFFFFFFFFFFFFFFFFFFFFFF DUP3 PUSH2 0x22A JUMP JUMPDEST PUSH2 0x271 DUP7 DUP4 PUSH2 0x22A JUMP JUMPDEST SWAP6 POP DUP1 NOT DUP5 AND SWAP4 POP DUP1 DUP7 AND DUP5 OR SWAP3 POP POP POP SWAP4 SWAP3 POP POP POP JUMP JUMPDEST PUSH1 0x0 DUP2 SWAP1 POP SWAP2 SWAP1 POP JUMP JUMPDEST PUSH1 0x0 DUP2 SWAP1 POP SWAP2 SWAP1 POP JUMP JUMPDEST PUSH1 0x0 PUSH2 0x2B8 PUSH2 0x2B3 PUSH2 0x2AE DUP5 PUSH2 0x289 JUMP JUMPDEST PUSH2 0x293 JUMP JUMPDEST PUSH2 0x289 JUMP JUMPDEST SWAP1 POP SWAP2 SWAP1 POP JUMP JUMPDEST PUSH1 0x0 DUP2 SWAP1 POP SWAP2 SWAP1 POP JUMP JUMPDEST PUSH2 0x2D2 DUP4 PUSH2 0x29D JUMP JUMPDEST PUSH2 0x2E6 PUSH2 0x2DE DUP3 PUSH2 0x2BF JUMP JUMPDEST DUP5 DUP5 SLOAD PUSH2 0x237 JUMP JUMPDEST DUP3 SSTORE POP POP POP POP JUMP JUMPDEST PUSH1 0x0 SWAP1 JUMP JUMPDEST PUSH2 0x2FB PUSH2 0x2EE JUMP JUMPDEST PUSH2 0x306 DUP2 DUP5 DUP5 PUSH2 0x2C9 JUMP JUMPDEST POP POP POP JUMP JUMPDEST JUMPDEST DUP2 DUP2 LT ISZERO PUSH2 0x32A JUMPI PUSH2 0x31F PUSH1 0x0 DUP3 PUSH2 0x2F3 JUMP JUMPDEST PUSH1 0x1 DUP2 ADD SWAP1 POP PUSH2 0x30C JUMP JUMPDEST POP POP JUMP JUMPDEST PUSH1 0x1F DUP3 GT ISZERO PUSH2 0x36F JUMPI PUSH2 0x340 DUP2 PUSH2 0x205 JUMP JUMPDEST PUSH2 0x349 DUP5 PUSH2 0x21A JUMP JUMPDEST DUP2 ADD PUSH1 0x20 DUP6 LT ISZERO PUSH2 0x358 JUMPI DUP2 SWAP1 POP JUMPDEST PUSH2 0x36C PUSH2 0x364 DUP6 PUSH2 0x21A JUMP JUMPDEST DUP4 ADD DUP3 PUSH2 0x30B JUMP JUMPDEST POP POP JUMPDEST POP POP POP JUMP JUMPDEST PUSH1 0x0 DUP3 DUP3 SHR SWAP1 POP SWAP3 SWAP2 POP POP JUMP JUMPDEST PUSH1 0x0 PUSH2 0x392 PUSH1 0x0 NOT DUP5 PUSH1 0x8 MUL PUSH2 0x374 JUMP JUMPDEST NOT DUP1 DUP4 AND SWAP2 POP POP SWAP3 SWAP2 POP POP JUMP JUMPDEST PUSH1 0x0 PUSH2 0x3AB DUP4 DUP4 PUSH2 0x381 JUMP JUMPDEST SWAP2 POP DUP3 PUSH1 0x2 MUL DUP3 OR SWAP1 POP SWAP3 SWAP2 POP POP JUMP JUMPDEST PUSH2 0x3C4 DUP3 PUSH2 0x16B JUMP JUMPDEST PUSH8 0xFFFFFFFFFFFFFFFF DUP2 GT ISZERO PUSH2 0x3DD JUMPI PUSH2 0x3DC PUSH2 0x176 JUMP JUMPDEST JUMPDEST PUSH2 0x3E7 DUP3 SLOAD PUSH2 0x1D4 JUMP JUMPDEST PUSH2 0x3F2 DUP3 DUP3 DUP6 PUSH2 0x32E JUMP JUMPDEST PUSH1 0x0 PUSH1 0x20 SWAP1 POP PUSH1 0x1F DUP4 GT PUSH1 0x1 DUP2 EQ PUSH2 0x425 JUMPI PUSH1 0x0 DUP5 ISZERO PUSH2 0x413 JUMPI DUP3 DUP8 ADD MLOAD SWAP1 POP JUMPDEST PUSH2 0x41D DUP6 DUP3 PUSH2 0x39F JUMP JUMPDEST DUP7 SSTORE POP PUSH2 0x485 JUMP JUMPDEST PUSH1 0x1F NOT DUP5 AND PUSH2 0x433 DUP7 PUSH2 0x205 JUMP JUMPDEST PUSH1 0x0 JUMPDEST DUP3 DUP2 LT ISZERO PUSH2 0x45B JUMPI DUP5 DUP10 ADD MLOAD DUP3 SSTORE PUSH1 0x1 DUP3 ADD SWAP2 POP PUSH1 0x20 DUP6 ADD SWAP5 POP PUSH1 0x20 DUP2 ADD SWAP1 POP PUSH2 0x436 JUMP JUMPDEST DUP7 DUP4 LT ISZERO PUSH2 0x478 JUMPI DUP5 DUP10 ADD MLOAD PUSH2 0x474 PUSH1 0x1F DUP10 AND DUP3 PUSH2 0x381 JUMP JUMPDEST DUP4 SSTORE POP JUMPDEST PUSH1 0x1 PUSH1 0x2 DUP9 MUL ADD DUP9 SSTORE POP POP POP JUMPDEST POP POP POP POP POP POP JUMP JUMPDEST PUSH2 0x267 DUP1 PUSH2 0x49C PUSH1 0x0 CODECOPY PUSH1 0x0 RETURN INVALID PUSH1 0x80 PUSH1 0x40 MSTORE CALLVALUE DUP1 ISZERO PUSH2 0x10 JUMPI PUSH1 0x0 DUP1 REVERT JUMPDEST POP PUSH1 0x4 CALLDATASIZE LT PUSH2 0x2B JUMPI PUSH1 0x0 CALLDATALOAD PUSH1 0xE0 SHR DUP1 PUSH4 0xF31D170C EQ PUSH2 0x30 JUMPI JUMPDEST PUSH1 0x0 DUP1 REVERT JUMPDEST PUSH2 0x38 PUSH2 0x4F JUMP JUMPDEST PUSH1 0x40 MLOAD PUSH2 0x46 SWAP3 SWAP2 SWAP1 PUSH2 0x1A1 JUMP JUMPDEST PUSH1 0x40 MLOAD DUP1 SWAP2 SUB SWAP1 RETURN JUMPDEST PUSH1 0x0 PUSH1 0x60 PUSH1 0x3 PUSH1 0x0 ADD PUSH1 0x0 ADD SLOAD PUSH1 0x3 PUSH1 0x0 ADD PUSH1 0x1 ADD DUP1 DUP1 SLOAD PUSH2 0x70 SWAP1 PUSH2 0x200 JUMP JUMPDEST DUP1 PUSH1 0x1F ADD PUSH1 0x20 DUP1 SWAP2 DIV MUL PUSH1 0x20 ADD PUSH1 0x40 MLOAD SWAP1 DUP2 ADD PUSH1 0x40 MSTORE DUP1 SWAP3 SWAP2 SWAP1 DUP2 DUP2 MSTORE PUSH1 0x20 ADD DUP3 DUP1 SLOAD PUSH2 0x9C SWAP1 PUSH2 0x200 JUMP JUMPDEST DUP1 ISZERO PUSH2 0xE9 JUMPI DUP1 PUSH1 0x1F LT PUSH2 0xBE JUMPI PUSH2 0x100 DUP1 DUP4 SLOAD DIV MUL DUP4 MSTORE SWAP2 PUSH1 0x20 ADD SWAP2 PUSH2 0xE9 JUMP JUMPDEST DUP3 ADD SWAP2 SWAP1 PUSH1 0x0 MSTORE PUSH1 0x20 PUSH1 0x0 KECCAK256 SWAP1 JUMPDEST DUP2 SLOAD DUP2 MSTORE SWAP1 PUSH1 0x1 ADD SWAP1 PUSH1 0x20 ADD DUP1 DUP4 GT PUSH2 0xCC JUMPI DUP3 SWAP1 SUB PUSH1 0x1F AND DUP3 ADD SWAP2 JUMPDEST POP POP POP POP POP SWAP1 POP SWAP2 POP SWAP2 POP SWAP1 SWAP2 JUMP JUMPDEST PUSH1 0x0 DUP2 SWAP1 POP SWAP2 SWAP1 POP JUMP JUMPDEST PUSH2 0x10B DUP2 PUSH2 0xF8 JUMP JUMPDEST DUP3 MSTORE POP POP JUMP JUMPDEST PUSH1 0x0 DUP2 MLOAD SWAP1 POP SWAP2 SWAP1 POP JUMP JUMPDEST PUSH1 0x0 DUP3 DUP3 MSTORE PUSH1 0x20 DUP3 ADD SWAP1 POP SWAP3 SWAP2 POP POP JUMP JUMPDEST PUSH1 0x0 JUMPDEST DUP4 DUP2 LT ISZERO PUSH2 0x14B JUMPI DUP1 DUP3 ADD MLOAD DUP2 DUP5 ADD MSTORE PUSH1 0x20 DUP2 ADD SWAP1 POP PUSH2 0x130 JUMP JUMPDEST PUSH1 0x0 DUP5 DUP5 ADD MSTORE POP POP POP POP JUMP JUMPDEST PUSH1 0x0 PUSH1 0x1F NOT PUSH1 0x1F DUP4 ADD AND SWAP1 POP SWAP2 SWAP1 POP JUMP JUMPDEST PUSH1 0x0 PUSH2 0x173 DUP3 PUSH2 0x111 JUMP JUMPDEST PUSH2 0x17D DUP2 DUP6 PUSH2 0x11C JUMP JUMPDEST SWAP4 POP PUSH2 0x18D DUP2 DUP6 PUSH1 0x20 DUP7 ADD PUSH2 0x12D JUMP JUMPDEST PUSH2 0x196 DUP2 PUSH2 0x157 JUMP JUMPDEST DUP5 ADD SWAP2 POP POP SWAP3 SWAP2 POP POP JUMP JUMPDEST PUSH1 0x0 PUSH1 0x40 DUP3 ADD SWAP1 POP PUSH2 0x1B6 PUSH1 0x0 DUP4 ADD DUP6 PUSH2 0x102 JUMP JUMPDEST DUP2 DUP2 SUB PUSH1 0x20 DUP4 ADD MSTORE PUSH2 0x1C8 DUP2 DUP5 PUSH2 0x168 JUMP JUMPDEST SWAP1 POP SWAP4 SWAP3 POP POP POP JUMP JUMPDEST PUSH32 0x4E487B7100000000000000000000000000000000000000000000000000000000 PUSH1 0x0 MSTORE PUSH1 0x22 PUSH1 0x4 MSTORE PUSH1 0x24 PUSH1 0x0 REVERT JUMPDEST PUSH1 0x0 PUSH1 0x2 DUP3 DIV SWAP1 POP PUSH1 0x1 DUP3 AND DUP1 PUSH2 0x218 JUMPI PUSH1 0x7F DUP3 AND SWAP2 POP JUMPDEST PUSH1 0x20 DUP3 LT DUP2 SUB PUSH2 0x22B JUMPI PUSH2 0x22A PUSH2 0x1D1 JUMP JUMPDEST JUMPDEST POP SWAP2 SWAP1 POP JUMP INVALID LOG2 PUSH5 0x6970667358 0x22 SLT KECCAK256 0x4F LOG4 0xBA OR GAS 0xAE ADD DUP13 LOG3 MSTORE8 PUSH10 0x56109BFB96B24E9E7372 PUSH15 0xA1E316974BD888203E9B64736F6C63 NUMBER STOP ADDMOD GT STOP CALLER "
				},
				"gasEstimates": {
					"creation": {
						"codeDepositCost": "123000",
						"executionCost": "infinite",
						"totalCost": "infinite"
					},
					"external": {
						"valueFromStruct()": "infinite"
					}
				},
				"methodIdentifiers": {
					"valueFromStruct()": "f31d170c"
				}
			},
			"storageLayout": {
				"storage": [
					{
						"astId": 15,
						"contract": "contracts/NestedStruct.sol:NestedStruct",
						"label": "id",
						"offset": 0,
						"slot": "0",
						"type": "t_mapping(t_uint256,t_struct(Identity)6_storage)"
					},
					{
						"astId": 22,
						"contract": "contracts/NestedStruct.sol:NestedStruct",
						"label": "identity",
						"offset": 0,
						"slot": "1",
						"type": "t_struct(Identity)6_storage"
					},
					{
						"astId": 28,
						"contract": "contracts/NestedStruct.sol:NestedStruct",
						"label": "nested_identity",
						"offset": 0,
						"slot": "3",
						"type": "t_struct(NestedIdentity)10_storage"
					}
				],
				"types": {
					"t_mapping(t_uint256,t_struct(Identity)6_storage)": {
						"encoding": "mapping",
						"key": "t_uint256",
						"label": "mapping(uint256 => struct NestedStruct.Identity)",
						"numberOfBytes": "32",
						"value": "t_struct(Identity)6_storage"
					},
					"t_string_storage": {
						"encoding": "bytes",
						"label": "string",
						"numberOfBytes": "32"
					},
					"t_struct(Identity)6_storage": {
						"encoding": "inplace",
						"label": "struct NestedStruct.Identity",
						"members": [
							{
								"astId": 3,
								"contract": "contracts/NestedStruct.sol:NestedStruct",
								"label": "age",
								"offset": 0,
								"slot": "0",
								"type": "t_uint256"
							},
							{
								"astId": 5,
								"contract": "contracts/NestedStruct.sol:NestedStruct",
								"label": "name",
								"offset": 0,
								"slot": "1",
								"type": "t_string_storage"
							}
						],
						"numberOfBytes": "64"
					},
					"t_struct(NestedIdentity)10_storage": {
						"encoding": "inplace",
						"label": "struct NestedStruct.NestedIdentity",
						"members": [
							{
								"astId": 9,
								"contract": "contracts/NestedStruct.sol:NestedStruct",
								"label": "identity",
								"offset": 0,
								"slot": "0",
								"type": "t_struct(Identity)6_storage"
							}
						],
						"numberOfBytes": "64"
					},
					"t_uint256": {
						"encoding": "inplace",
						"label": "uint256",
						"numberOfBytes": "32"
					}
				}
			},
			"userdoc": {
				"kind": "user",
				"methods": {},
				"version": 1
			}
		}
	}
}