{
	"contracts/self_destruct.sol": {
		"EtherGame": {
			"abi": [
				{
					"inputs": [],
					"name": "claimReward",
					"outputs": [],
					"stateMutability": "nonpayable",
					"type": "function"
				},
				{
					"inputs": [],
					"name": "play",
					"outputs": [],
					"stateMutability": "payable",
					"type": "function"
				},
				{
					"inputs": [],
					"name": "targetAmount",
					"outputs": [
						{
							"internalType": "uint256",
							"name": "",
							"type": "uint256"
						}
					],
					"stateMutability": "view",
					"type": "function"
				},
				{
					"inputs": [],
					"name": "winner",
					"outputs": [
						{
							"internalType": "address",
							"name": "",
							"type": "address"
						}
					],
					"stateMutability": "view",
					"type": "function"
				}
			],
			"devdoc": {
				"kind": "dev",
				"methods": {},
				"version": 1
			},
			"evm": {
				"assembly": "    /* \"contracts/self_destruct.sol\":60:686  contract EtherGame {... */\n  mstore(0x40, 0x80)\n    /* \"contracts/self_destruct.sol\":112:119  5 ether */\n  0x4563918244f40000\n    /* \"contracts/self_destruct.sol\":85:119  uint public targetAmount = 5 ether */\n  0x00\n  sstore\n    /* \"contracts/self_destruct.sol\":60:686  contract EtherGame {... */\n  callvalue\n  dup1\n  iszero\n  tag_1\n  jumpi\n  0x00\n  dup1\n  revert\ntag_1:\n  pop\n  dataSize(sub_0)\n  dup1\n  dataOffset(sub_0)\n  0x00\n  codecopy\n  0x00\n  return\nstop\n\nsub_0: assembly {\n        /* \"contracts/self_destruct.sol\":60:686  contract EtherGame {... */\n      mstore(0x40, 0x80)\n      jumpi(tag_1, lt(calldatasize, 0x04))\n      shr(0xe0, calldataload(0x00))\n      dup1\n      0x93e84cd9\n      eq\n      tag_2\n      jumpi\n      dup1\n      0x953b8fb8\n      eq\n      tag_3\n      jumpi\n      dup1\n      0xb88a802f\n      eq\n      tag_4\n      jumpi\n      dup1\n      0xdfbf53ae\n      eq\n      tag_5\n      jumpi\n    tag_1:\n      0x00\n      dup1\n      revert\n        /* \"contracts/self_destruct.sol\":153:447  function play() public payable {... */\n    tag_2:\n      tag_6\n      tag_7\n      jump\t// in\n    tag_6:\n      stop\n        /* \"contracts/self_destruct.sol\":85:119  uint public targetAmount = 5 ether */\n    tag_3:\n      callvalue\n      dup1\n      iszero\n      tag_8\n      jumpi\n      0x00\n      dup1\n      revert\n    tag_8:\n      pop\n      tag_9\n      tag_10\n      jump\t// in\n    tag_9:\n      mload(0x40)\n      tag_11\n      swap2\n      swap1\n      tag_12\n      jump\t// in\n    tag_11:\n      mload(0x40)\n      dup1\n      swap2\n      sub\n      swap1\n      return\n        /* \"contracts/self_destruct.sol\":453:683  function claimReward() public {... */\n    tag_4:\n      callvalue\n      dup1\n      iszero\n      tag_13\n      jumpi\n      0x00\n      dup1\n      revert\n    tag_13:\n      pop\n      tag_14\n      tag_15\n      jump\t// in\n    tag_14:\n      stop\n        /* \"contracts/self_destruct.sol\":125:146  address public winner */\n    tag_5:\n      callvalue\n      dup1\n      iszero\n      tag_16\n      jumpi\n      0x00\n      dup1\n      revert\n    tag_16:\n      pop\n      tag_17\n      tag_18\n      jump\t// in\n    tag_17:\n      mload(0x40)\n      tag_19\n      swap2\n      swap1\n      tag_20\n      jump\t// in\n    tag_19:\n      mload(0x40)\n      dup1\n      swap2\n      sub\n      swap1\n      return\n        /* \"contracts/self_destruct.sol\":153:447  function play() public payable {... */\n    tag_7:\n        /* \"contracts/self_destruct.sol\":215:222  1 ether */\n      0x0de0b6b3a7640000\n        /* \"contracts/self_destruct.sol\":202:211  msg.value */\n      callvalue\n        /* \"contracts/self_destruct.sol\":202:222  msg.value == 1 ether */\n      eq\n        /* \"contracts/self_destruct.sol\":194:252  require(msg.value == 1 ether, \"You can only send 1 Ether\") */\n      tag_22\n      jumpi\n      mload(0x40)\n      0x08c379a000000000000000000000000000000000000000000000000000000000\n      dup2\n      mstore\n      0x04\n      add\n      tag_23\n      swap1\n      tag_24\n      jump\t// in\n    tag_23:\n      mload(0x40)\n      dup1\n      swap2\n      sub\n      swap1\n      revert\n    tag_22:\n        /* \"contracts/self_destruct.sol\":263:275  uint balance */\n      0x00\n        /* \"contracts/self_destruct.sol\":278:299  address(this).balance */\n      selfbalance\n        /* \"contracts/self_destruct.sol\":263:299  uint balance = address(this).balance */\n      swap1\n      pop\n        /* \"contracts/self_destruct.sol\":328:340  targetAmount */\n      sload(0x00)\n        /* \"contracts/self_destruct.sol\":317:324  balance */\n      dup2\n        /* \"contracts/self_destruct.sol\":317:340  balance <= targetAmount */\n      gt\n      iszero\n        /* \"contracts/self_destruct.sol\":309:357  require(balance <= targetAmount, \"Game is over\") */\n      tag_25\n      jumpi\n      mload(0x40)\n      0x08c379a000000000000000000000000000000000000000000000000000000000\n      dup2\n      mstore\n      0x04\n      add\n      tag_26\n      swap1\n      tag_27\n      jump\t// in\n    tag_26:\n      mload(0x40)\n      dup1\n      swap2\n      sub\n      swap1\n      revert\n    tag_25:\n        /* \"contracts/self_destruct.sol\":383:395  targetAmount */\n      sload(0x00)\n        /* \"contracts/self_destruct.sol\":372:379  balance */\n      dup2\n        /* \"contracts/self_destruct.sol\":372:395  balance == targetAmount */\n      sub\n        /* \"contracts/self_destruct.sol\":368:441  if (balance == targetAmount) {... */\n      tag_28\n      jumpi\n        /* \"contracts/self_destruct.sol\":420:430  msg.sender */\n      caller\n        /* \"contracts/self_destruct.sol\":411:417  winner */\n      0x01\n      0x00\n        /* \"contracts/self_destruct.sol\":411:430  winner = msg.sender */\n      0x0100\n      exp\n      dup2\n      sload\n      dup2\n      0xffffffffffffffffffffffffffffffffffffffff\n      mul\n      not\n      and\n      swap1\n      dup4\n      0xffffffffffffffffffffffffffffffffffffffff\n      and\n      mul\n      or\n      swap1\n      sstore\n      pop\n        /* \"contracts/self_destruct.sol\":368:441  if (balance == targetAmount) {... */\n    tag_28:\n        /* \"contracts/self_destruct.sol\":184:447  {... */\n      pop\n        /* \"contracts/self_destruct.sol\":153:447  function play() public payable {... */\n      jump\t// out\n        /* \"contracts/self_destruct.sol\":85:119  uint public targetAmount = 5 ether */\n    tag_10:\n      sload(0x00)\n      dup2\n      jump\t// out\n        /* \"contracts/self_destruct.sol\":453:683  function claimReward() public {... */\n    tag_15:\n        /* \"contracts/self_destruct.sol\":515:521  winner */\n      0x01\n      0x00\n      swap1\n      sload\n      swap1\n      0x0100\n      exp\n      swap1\n      div\n      0xffffffffffffffffffffffffffffffffffffffff\n      and\n        /* \"contracts/self_destruct.sol\":501:521  msg.sender == winner */\n      0xffffffffffffffffffffffffffffffffffffffff\n      and\n        /* \"contracts/self_destruct.sol\":501:511  msg.sender */\n      caller\n        /* \"contracts/self_destruct.sol\":501:521  msg.sender == winner */\n      0xffffffffffffffffffffffffffffffffffffffff\n      and\n      eq\n        /* \"contracts/self_destruct.sol\":493:536  require(msg.sender == winner, \"Not winner\") */\n      tag_30\n      jumpi\n      mload(0x40)\n      0x08c379a000000000000000000000000000000000000000000000000000000000\n      dup2\n      mstore\n      0x04\n      add\n      tag_31\n      swap1\n      tag_32\n      jump\t// in\n    tag_31:\n      mload(0x40)\n      dup1\n      swap2\n      sub\n      swap1\n      revert\n    tag_30:\n        /* \"contracts/self_destruct.sol\":547:556  bool sent */\n      0x00\n        /* \"contracts/self_destruct.sol\":557:576  bytes memory result */\n      dup1\n        /* \"contracts/self_destruct.sol\":580:590  msg.sender */\n      caller\n        /* \"contracts/self_destruct.sol\":580:595  msg.sender.call */\n      0xffffffffffffffffffffffffffffffffffffffff\n      and\n        /* \"contracts/self_destruct.sol\":603:624  address(this).balance */\n      selfbalance\n        /* \"contracts/self_destruct.sol\":580:629  msg.sender.call{value: address(this).balance}(\"\") */\n      mload(0x40)\n      tag_33\n      swap1\n      tag_34\n      jump\t// in\n    tag_33:\n      0x00\n      mload(0x40)\n      dup1\n      dup4\n      sub\n      dup2\n      dup6\n      dup8\n      gas\n      call\n      swap3\n      pop\n      pop\n      pop\n      returndatasize\n      dup1\n      0x00\n      dup2\n      eq\n      tag_37\n      jumpi\n      mload(0x40)\n      swap2\n      pop\n      and(add(returndatasize, 0x3f), not(0x1f))\n      dup3\n      add\n      0x40\n      mstore\n      returndatasize\n      dup3\n      mstore\n      returndatasize\n      0x00\n      0x20\n      dup5\n      add\n      returndatacopy\n      jump(tag_36)\n    tag_37:\n      0x60\n      swap2\n      pop\n    tag_36:\n      pop\n        /* \"contracts/self_destruct.sol\":546:629  (bool sent,bytes memory result) = msg.sender.call{value: address(this).balance}(\"\") */\n      swap2\n      pop\n      swap2\n      pop\n        /* \"contracts/self_destruct.sol\":647:651  sent */\n      dup2\n        /* \"contracts/self_destruct.sol\":639:676  require(sent, \"Failed to send Ether\") */\n      tag_38\n      jumpi\n      mload(0x40)\n      0x08c379a000000000000000000000000000000000000000000000000000000000\n      dup2\n      mstore\n      0x04\n      add\n      tag_39\n      swap1\n      tag_40\n      jump\t// in\n    tag_39:\n      mload(0x40)\n      dup1\n      swap2\n      sub\n      swap1\n      revert\n    tag_38:\n        /* \"contracts/self_destruct.sol\":483:683  {... */\n      pop\n      pop\n        /* \"contracts/self_destruct.sol\":453:683  function claimReward() public {... */\n      jump\t// out\n        /* \"contracts/self_destruct.sol\":125:146  address public winner */\n    tag_18:\n      0x01\n      0x00\n      swap1\n      sload\n      swap1\n      0x0100\n      exp\n      swap1\n      div\n      0xffffffffffffffffffffffffffffffffffffffff\n      and\n      dup2\n      jump\t// out\n        /* \"#utility.yul\":7:84   */\n    tag_41:\n        /* \"#utility.yul\":44:51   */\n      0x00\n        /* \"#utility.yul\":73:78   */\n      dup2\n        /* \"#utility.yul\":62:78   */\n      swap1\n      pop\n        /* \"#utility.yul\":7:84   */\n      swap2\n      swap1\n      pop\n      jump\t// out\n        /* \"#utility.yul\":90:208   */\n    tag_42:\n        /* \"#utility.yul\":177:201   */\n      tag_61\n        /* \"#utility.yul\":195:200   */\n      dup2\n        /* \"#utility.yul\":177:201   */\n      tag_41\n      jump\t// in\n    tag_61:\n        /* \"#utility.yul\":172:175   */\n      dup3\n        /* \"#utility.yul\":165:202   */\n      mstore\n        /* \"#utility.yul\":90:208   */\n      pop\n      pop\n      jump\t// out\n        /* \"#utility.yul\":214:436   */\n    tag_12:\n        /* \"#utility.yul\":307:311   */\n      0x00\n        /* \"#utility.yul\":345:347   */\n      0x20\n        /* \"#utility.yul\":334:343   */\n      dup3\n        /* \"#utility.yul\":330:348   */\n      add\n        /* \"#utility.yul\":322:348   */\n      swap1\n      pop\n        /* \"#utility.yul\":358:429   */\n      tag_63\n        /* \"#utility.yul\":426:427   */\n      0x00\n        /* \"#utility.yul\":415:424   */\n      dup4\n        /* \"#utility.yul\":411:428   */\n      add\n        /* \"#utility.yul\":402:408   */\n      dup5\n        /* \"#utility.yul\":358:429   */\n      tag_42\n      jump\t// in\n    tag_63:\n        /* \"#utility.yul\":214:436   */\n      swap3\n      swap2\n      pop\n      pop\n      jump\t// out\n        /* \"#utility.yul\":442:568   */\n    tag_43:\n        /* \"#utility.yul\":479:486   */\n      0x00\n        /* \"#utility.yul\":519:561   */\n      0xffffffffffffffffffffffffffffffffffffffff\n        /* \"#utility.yul\":512:517   */\n      dup3\n        /* \"#utility.yul\":508:562   */\n      and\n        /* \"#utility.yul\":497:562   */\n      swap1\n      pop\n        /* \"#utility.yul\":442:568   */\n      swap2\n      swap1\n      pop\n      jump\t// out\n        /* \"#utility.yul\":574:670   */\n    tag_44:\n        /* \"#utility.yul\":611:618   */\n      0x00\n        /* \"#utility.yul\":640:664   */\n      tag_66\n        /* \"#utility.yul\":658:663   */\n      dup3\n        /* \"#utility.yul\":640:664   */\n      tag_43\n      jump\t// in\n    tag_66:\n        /* \"#utility.yul\":629:664   */\n      swap1\n      pop\n        /* \"#utility.yul\":574:670   */\n      swap2\n      swap1\n      pop\n      jump\t// out\n        /* \"#utility.yul\":676:794   */\n    tag_45:\n        /* \"#utility.yul\":763:787   */\n      tag_68\n        /* \"#utility.yul\":781:786   */\n      dup2\n        /* \"#utility.yul\":763:787   */\n      tag_44\n      jump\t// in\n    tag_68:\n        /* \"#utility.yul\":758:761   */\n      dup3\n        /* \"#utility.yul\":751:788   */\n      mstore\n        /* \"#utility.yul\":676:794   */\n      pop\n      pop\n      jump\t// out\n        /* \"#utility.yul\":800:1022   */\n    tag_20:\n        /* \"#utility.yul\":893:897   */\n      0x00\n        /* \"#utility.yul\":931:933   */\n      0x20\n        /* \"#utility.yul\":920:929   */\n      dup3\n        /* \"#utility.yul\":916:934   */\n      add\n        /* \"#utility.yul\":908:934   */\n      swap1\n      pop\n        /* \"#utility.yul\":944:1015   */\n      tag_70\n        /* \"#utility.yul\":1012:1013   */\n      0x00\n        /* \"#utility.yul\":1001:1010   */\n      dup4\n        /* \"#utility.yul\":997:1014   */\n      add\n        /* \"#utility.yul\":988:994   */\n      dup5\n        /* \"#utility.yul\":944:1015   */\n      tag_45\n      jump\t// in\n    tag_70:\n        /* \"#utility.yul\":800:1022   */\n      swap3\n      swap2\n      pop\n      pop\n      jump\t// out\n        /* \"#utility.yul\":1028:1197   */\n    tag_46:\n        /* \"#utility.yul\":1112:1123   */\n      0x00\n        /* \"#utility.yul\":1146:1152   */\n      dup3\n        /* \"#utility.yul\":1141:1144   */\n      dup3\n        /* \"#utility.yul\":1134:1153   */\n      mstore\n        /* \"#utility.yul\":1186:1190   */\n      0x20\n        /* \"#utility.yul\":1181:1184   */\n      dup3\n        /* \"#utility.yul\":1177:1191   */\n      add\n        /* \"#utility.yul\":1162:1191   */\n      swap1\n      pop\n        /* \"#utility.yul\":1028:1197   */\n      swap3\n      swap2\n      pop\n      pop\n      jump\t// out\n        /* \"#utility.yul\":1203:1378   */\n    tag_47:\n        /* \"#utility.yul\":1343:1370   */\n      0x596f752063616e206f6e6c792073656e64203120457468657200000000000000\n        /* \"#utility.yul\":1339:1340   */\n      0x00\n        /* \"#utility.yul\":1331:1337   */\n      dup3\n        /* \"#utility.yul\":1327:1341   */\n      add\n        /* \"#utility.yul\":1320:1371   */\n      mstore\n        /* \"#utility.yul\":1203:1378   */\n      pop\n      jump\t// out\n        /* \"#utility.yul\":1384:1750   */\n    tag_48:\n        /* \"#utility.yul\":1526:1529   */\n      0x00\n        /* \"#utility.yul\":1547:1614   */\n      tag_74\n        /* \"#utility.yul\":1611:1613   */\n      0x19\n        /* \"#utility.yul\":1606:1609   */\n      dup4\n        /* \"#utility.yul\":1547:1614   */\n      tag_46\n      jump\t// in\n    tag_74:\n        /* \"#utility.yul\":1540:1614   */\n      swap2\n      pop\n        /* \"#utility.yul\":1623:1716   */\n      tag_75\n        /* \"#utility.yul\":1712:1715   */\n      dup3\n        /* \"#utility.yul\":1623:1716   */\n      tag_47\n      jump\t// in\n    tag_75:\n        /* \"#utility.yul\":1741:1743   */\n      0x20\n        /* \"#utility.yul\":1736:1739   */\n      dup3\n        /* \"#utility.yul\":1732:1744   */\n      add\n        /* \"#utility.yul\":1725:1744   */\n      swap1\n      pop\n        /* \"#utility.yul\":1384:1750   */\n      swap2\n      swap1\n      pop\n      jump\t// out\n        /* \"#utility.yul\":1756:2175   */\n    tag_24:\n        /* \"#utility.yul\":1922:1926   */\n      0x00\n        /* \"#utility.yul\":1960:1962   */\n      0x20\n        /* \"#utility.yul\":1949:1958   */\n      dup3\n        /* \"#utility.yul\":1945:1963   */\n      add\n        /* \"#utility.yul\":1937:1963   */\n      swap1\n      pop\n        /* \"#utility.yul\":2009:2018   */\n      dup2\n        /* \"#utility.yul\":2003:2007   */\n      dup2\n        /* \"#utility.yul\":1999:2019   */\n      sub\n        /* \"#utility.yul\":1995:1996   */\n      0x00\n        /* \"#utility.yul\":1984:1993   */\n      dup4\n        /* \"#utility.yul\":1980:1997   */\n      add\n        /* \"#utility.yul\":1973:2020   */\n      mstore\n        /* \"#utility.yul\":2037:2168   */\n      tag_77\n        /* \"#utility.yul\":2163:2167   */\n      dup2\n        /* \"#utility.yul\":2037:2168   */\n      tag_48\n      jump\t// in\n    tag_77:\n        /* \"#utility.yul\":2029:2168   */\n      swap1\n      pop\n        /* \"#utility.yul\":1756:2175   */\n      swap2\n      swap1\n      pop\n      jump\t// out\n        /* \"#utility.yul\":2181:2343   */\n    tag_49:\n        /* \"#utility.yul\":2321:2335   */\n      0x47616d65206973206f7665720000000000000000000000000000000000000000\n        /* \"#utility.yul\":2317:2318   */\n      0x00\n        /* \"#utility.yul\":2309:2315   */\n      dup3\n        /* \"#utility.yul\":2305:2319   */\n      add\n        /* \"#utility.yul\":2298:2336   */\n      mstore\n        /* \"#utility.yul\":2181:2343   */\n      pop\n      jump\t// out\n        /* \"#utility.yul\":2349:2715   */\n    tag_50:\n        /* \"#utility.yul\":2491:2494   */\n      0x00\n        /* \"#utility.yul\":2512:2579   */\n      tag_80\n        /* \"#utility.yul\":2576:2578   */\n      0x0c\n        /* \"#utility.yul\":2571:2574   */\n      dup4\n        /* \"#utility.yul\":2512:2579   */\n      tag_46\n      jump\t// in\n    tag_80:\n        /* \"#utility.yul\":2505:2579   */\n      swap2\n      pop\n        /* \"#utility.yul\":2588:2681   */\n      tag_81\n        /* \"#utility.yul\":2677:2680   */\n      dup3\n        /* \"#utility.yul\":2588:2681   */\n      tag_49\n      jump\t// in\n    tag_81:\n        /* \"#utility.yul\":2706:2708   */\n      0x20\n        /* \"#utility.yul\":2701:2704   */\n      dup3\n        /* \"#utility.yul\":2697:2709   */\n      add\n        /* \"#utility.yul\":2690:2709   */\n      swap1\n      pop\n        /* \"#utility.yul\":2349:2715   */\n      swap2\n      swap1\n      pop\n      jump\t// out\n        /* \"#utility.yul\":2721:3140   */\n    tag_27:\n        /* \"#utility.yul\":2887:2891   */\n      0x00\n        /* \"#utility.yul\":2925:2927   */\n      0x20\n        /* \"#utility.yul\":2914:2923   */\n      dup3\n        /* \"#utility.yul\":2910:2928   */\n      add\n        /* \"#utility.yul\":2902:2928   */\n      swap1\n      pop\n        /* \"#utility.yul\":2974:2983   */\n      dup2\n        /* \"#utility.yul\":2968:2972   */\n      dup2\n        /* \"#utility.yul\":2964:2984   */\n      sub\n        /* \"#utility.yul\":2960:2961   */\n      0x00\n        /* \"#utility.yul\":2949:2958   */\n      dup4\n        /* \"#utility.yul\":2945:2962   */\n      add\n        /* \"#utility.yul\":2938:2985   */\n      mstore\n        /* \"#utility.yul\":3002:3133   */\n      tag_83\n        /* \"#utility.yul\":3128:3132   */\n      dup2\n        /* \"#utility.yul\":3002:3133   */\n      tag_50\n      jump\t// in\n    tag_83:\n        /* \"#utility.yul\":2994:3133   */\n      swap1\n      pop\n        /* \"#utility.yul\":2721:3140   */\n      swap2\n      swap1\n      pop\n      jump\t// out\n        /* \"#utility.yul\":3146:3306   */\n    tag_51:\n        /* \"#utility.yul\":3286:3298   */\n      0x4e6f742077696e6e657200000000000000000000000000000000000000000000\n        /* \"#utility.yul\":3282:3283   */\n      0x00\n        /* \"#utility.yul\":3274:3280   */\n      dup3\n        /* \"#utility.yul\":3270:3284   */\n      add\n        /* \"#utility.yul\":3263:3299   */\n      mstore\n        /* \"#utility.yul\":3146:3306   */\n      pop\n      jump\t// out\n        /* \"#utility.yul\":3312:3678   */\n    tag_52:\n        /* \"#utility.yul\":3454:3457   */\n      0x00\n        /* \"#utility.yul\":3475:3542   */\n      tag_86\n        /* \"#utility.yul\":3539:3541   */\n      0x0a\n        /* \"#utility.yul\":3534:3537   */\n      dup4\n        /* \"#utility.yul\":3475:3542   */\n      tag_46\n      jump\t// in\n    tag_86:\n        /* \"#utility.yul\":3468:3542   */\n      swap2\n      pop\n        /* \"#utility.yul\":3551:3644   */\n      tag_87\n        /* \"#utility.yul\":3640:3643   */\n      dup3\n        /* \"#utility.yul\":3551:3644   */\n      tag_51\n      jump\t// in\n    tag_87:\n        /* \"#utility.yul\":3669:3671   */\n      0x20\n        /* \"#utility.yul\":3664:3667   */\n      dup3\n        /* \"#utility.yul\":3660:3672   */\n      add\n        /* \"#utility.yul\":3653:3672   */\n      swap1\n      pop\n        /* \"#utility.yul\":3312:3678   */\n      swap2\n      swap1\n      pop\n      jump\t// out\n        /* \"#utility.yul\":3684:4103   */\n    tag_32:\n        /* \"#utility.yul\":3850:3854   */\n      0x00\n        /* \"#utility.yul\":3888:3890   */\n      0x20\n        /* \"#utility.yul\":3877:3886   */\n      dup3\n        /* \"#utility.yul\":3873:3891   */\n      add\n        /* \"#utility.yul\":3865:3891   */\n      swap1\n      pop\n        /* \"#utility.yul\":3937:3946   */\n      dup2\n        /* \"#utility.yul\":3931:3935   */\n      dup2\n        /* \"#utility.yul\":3927:3947   */\n      sub\n        /* \"#utility.yul\":3923:3924   */\n      0x00\n        /* \"#utility.yul\":3912:3921   */\n      dup4\n        /* \"#utility.yul\":3908:3925   */\n      add\n        /* \"#utility.yul\":3901:3948   */\n      mstore\n        /* \"#utility.yul\":3965:4096   */\n      tag_89\n        /* \"#utility.yul\":4091:4095   */\n      dup2\n        /* \"#utility.yul\":3965:4096   */\n      tag_52\n      jump\t// in\n    tag_89:\n        /* \"#utility.yul\":3957:4096   */\n      swap1\n      pop\n        /* \"#utility.yul\":3684:4103   */\n      swap2\n      swap1\n      pop\n      jump\t// out\n        /* \"#utility.yul\":4109:4256   */\n    tag_53:\n        /* \"#utility.yul\":4210:4221   */\n      0x00\n        /* \"#utility.yul\":4247:4250   */\n      dup2\n        /* \"#utility.yul\":4232:4250   */\n      swap1\n      pop\n        /* \"#utility.yul\":4109:4256   */\n      swap3\n      swap2\n      pop\n      pop\n      jump\t// out\n        /* \"#utility.yul\":4262:4376   */\n    tag_54:\n      pop\n      jump\t// out\n        /* \"#utility.yul\":4382:4780   */\n    tag_55:\n        /* \"#utility.yul\":4541:4544   */\n      0x00\n        /* \"#utility.yul\":4562:4645   */\n      tag_93\n        /* \"#utility.yul\":4643:4644   */\n      0x00\n        /* \"#utility.yul\":4638:4641   */\n      dup4\n        /* \"#utility.yul\":4562:4645   */\n      tag_53\n      jump\t// in\n    tag_93:\n        /* \"#utility.yul\":4555:4645   */\n      swap2\n      pop\n        /* \"#utility.yul\":4654:4747   */\n      tag_94\n        /* \"#utility.yul\":4743:4746   */\n      dup3\n        /* \"#utility.yul\":4654:4747   */\n      tag_54\n      jump\t// in\n    tag_94:\n        /* \"#utility.yul\":4772:4773   */\n      0x00\n        /* \"#utility.yul\":4767:4770   */\n      dup3\n        /* \"#utility.yul\":4763:4774   */\n      add\n        /* \"#utility.yul\":4756:4774   */\n      swap1\n      pop\n        /* \"#utility.yul\":4382:4780   */\n      swap2\n      swap1\n      pop\n      jump\t// out\n        /* \"#utility.yul\":4786:5165   */\n    tag_34:\n        /* \"#utility.yul\":4970:4973   */\n      0x00\n        /* \"#utility.yul\":4992:5139   */\n      tag_96\n        /* \"#utility.yul\":5135:5138   */\n      dup3\n        /* \"#utility.yul\":4992:5139   */\n      tag_55\n      jump\t// in\n    tag_96:\n        /* \"#utility.yul\":4985:5139   */\n      swap2\n      pop\n        /* \"#utility.yul\":5156:5159   */\n      dup2\n        /* \"#utility.yul\":5149:5159   */\n      swap1\n      pop\n        /* \"#utility.yul\":4786:5165   */\n      swap2\n      swap1\n      pop\n      jump\t// out\n        /* \"#utility.yul\":5171:5341   */\n    tag_56:\n        /* \"#utility.yul\":5311:5333   */\n      0x4661696c656420746f2073656e64204574686572000000000000000000000000\n        /* \"#utility.yul\":5307:5308   */\n      0x00\n        /* \"#utility.yul\":5299:5305   */\n      dup3\n        /* \"#utility.yul\":5295:5309   */\n      add\n        /* \"#utility.yul\":5288:5334   */\n      mstore\n        /* \"#utility.yul\":5171:5341   */\n      pop\n      jump\t// out\n        /* \"#utility.yul\":5347:5713   */\n    tag_57:\n        /* \"#utility.yul\":5489:5492   */\n      0x00\n        /* \"#utility.yul\":5510:5577   */\n      tag_99\n        /* \"#utility.yul\":5574:5576   */\n      0x14\n        /* \"#utility.yul\":5569:5572   */\n      dup4\n        /* \"#utility.yul\":5510:5577   */\n      tag_46\n      jump\t// in\n    tag_99:\n        /* \"#utility.yul\":5503:5577   */\n      swap2\n      pop\n        /* \"#utility.yul\":5586:5679   */\n      tag_100\n        /* \"#utility.yul\":5675:5678   */\n      dup3\n        /* \"#utility.yul\":5586:5679   */\n      tag_56\n      jump\t// in\n    tag_100:\n        /* \"#utility.yul\":5704:5706   */\n      0x20\n        /* \"#utility.yul\":5699:5702   */\n      dup3\n        /* \"#utility.yul\":5695:5707   */\n      add\n        /* \"#utility.yul\":5688:5707   */\n      swap1\n      pop\n        /* \"#utility.yul\":5347:5713   */\n      swap2\n      swap1\n      pop\n      jump\t// out\n        /* \"#utility.yul\":5719:6138   */\n    tag_40:\n        /* \"#utility.yul\":5885:5889   */\n      0x00\n        /* \"#utility.yul\":5923:5925   */\n      0x20\n        /* \"#utility.yul\":5912:5921   */\n      dup3\n        /* \"#utility.yul\":5908:5926   */\n      add\n        /* \"#utility.yul\":5900:5926   */\n      swap1\n      pop\n        /* \"#utility.yul\":5972:5981   */\n      dup2\n        /* \"#utility.yul\":5966:5970   */\n      dup2\n        /* \"#utility.yul\":5962:5982   */\n      sub\n        /* \"#utility.yul\":5958:5959   */\n      0x00\n        /* \"#utility.yul\":5947:5956   */\n      dup4\n        /* \"#utility.yul\":5943:5960   */\n      add\n        /* \"#utility.yul\":5936:5983   */\n      mstore\n        /* \"#utility.yul\":6000:6131   */\n      tag_102\n        /* \"#utility.yul\":6126:6130   */\n      dup2\n        /* \"#utility.yul\":6000:6131   */\n      tag_57\n      jump\t// in\n    tag_102:\n        /* \"#utility.yul\":5992:6131   */\n      swap1\n      pop\n        /* \"#utility.yul\":5719:6138   */\n      swap2\n      swap1\n      pop\n      jump\t// out\n\n    auxdata: 0xa264697066735822122001eeb8c2726b01beab4ac819a897756fe88101034368afd9c51aed5e516516eb64736f6c63430008100033\n}\n",
				"bytecode": {
					"linkReferences": {},
					"object": "6080604052674563918244f4000060005534801561001c57600080fd5b506105d88061002c6000396000f3fe60806040526004361061003f5760003560e01c806393e84cd914610044578063953b8fb81461004e578063b88a802f14610079578063dfbf53ae14610090575b600080fd5b61004c6100bb565b005b34801561005a57600080fd5b5061006361019d565b6040516100709190610324565b60405180910390f35b34801561008557600080fd5b5061008e6101a3565b005b34801561009c57600080fd5b506100a56102e5565b6040516100b29190610380565b60405180910390f35b670de0b6b3a76400003414610105576040517f08c379a00000000000000000000000000000000000000000000000000000000081526004016100fc906103f8565b60405180910390fd5b600047905060005481111561014f576040517f08c379a000000000000000000000000000000000000000000000000000000000815260040161014690610464565b60405180910390fd5b600054810361019a5733600160006101000a81548173ffffffffffffffffffffffffffffffffffffffff021916908373ffffffffffffffffffffffffffffffffffffffff1602179055505b50565b60005481565b600160009054906101000a900473ffffffffffffffffffffffffffffffffffffffff1673ffffffffffffffffffffffffffffffffffffffff163373ffffffffffffffffffffffffffffffffffffffff1614610233576040517f08c379a000000000000000000000000000000000000000000000000000000000815260040161022a906104d0565b60405180910390fd5b6000803373ffffffffffffffffffffffffffffffffffffffff164760405161025a90610521565b60006040518083038185875af1925050503d8060008114610297576040519150601f19603f3d011682016040523d82523d6000602084013e61029c565b606091505b5091509150816102e1576040517f08c379a00000000000000000000000000000000000000000000000000000000081526004016102d890610582565b60405180910390fd5b5050565b600160009054906101000a900473ffffffffffffffffffffffffffffffffffffffff1681565b6000819050919050565b61031e8161030b565b82525050565b60006020820190506103396000830184610315565b92915050565b600073ffffffffffffffffffffffffffffffffffffffff82169050919050565b600061036a8261033f565b9050919050565b61037a8161035f565b82525050565b60006020820190506103956000830184610371565b92915050565b600082825260208201905092915050565b7f596f752063616e206f6e6c792073656e64203120457468657200000000000000600082015250565b60006103e260198361039b565b91506103ed826103ac565b602082019050919050565b60006020820190508181036000830152610411816103d5565b9050919050565b7f47616d65206973206f7665720000000000000000000000000000000000000000600082015250565b600061044e600c8361039b565b915061045982610418565b602082019050919050565b6000602082019050818103600083015261047d81610441565b9050919050565b7f4e6f742077696e6e657200000000000000000000000000000000000000000000600082015250565b60006104ba600a8361039b565b91506104c582610484565b602082019050919050565b600060208201905081810360008301526104e9816104ad565b9050919050565b600081905092915050565b50565b600061050b6000836104f0565b9150610516826104fb565b600082019050919050565b600061052c826104fe565b9150819050919050565b7f4661696c656420746f2073656e64204574686572000000000000000000000000600082015250565b600061056c60148361039b565b915061057782610536565b602082019050919050565b6000602082019050818103600083015261059b8161055f565b905091905056fea264697066735822122001eeb8c2726b01beab4ac819a897756fe88101034368afd9c51aed5e516516eb64736f6c63430008100033",
					"opcodes": "PUSH1 0x80 PUSH1 0x40 MSTORE PUSH8 0x4563918244F40000 PUSH1 0x0 SSTORE CALLVALUE DUP1 ISZERO PUSH2 0x1C JUMPI PUSH1 0x0 DUP1 REVERT JUMPDEST POP PUSH2 0x5D8 DUP1 PUSH2 0x2C PUSH1 0x0 CODECOPY PUSH1 0x0 RETURN INVALID PUSH1 0x80 PUSH1 0x40 MSTORE PUSH1 0x4 CALLDATASIZE LT PUSH2 0x3F JUMPI PUSH1 0x0 CALLDATALOAD PUSH1 0xE0 SHR DUP1 PUSH4 0x93E84CD9 EQ PUSH2 0x44 JUMPI DUP1 PUSH4 0x953B8FB8 EQ PUSH2 0x4E JUMPI DUP1 PUSH4 0xB88A802F EQ PUSH2 0x79 JUMPI DUP1 PUSH4 0xDFBF53AE EQ PUSH2 0x90 JUMPI JUMPDEST PUSH1 0x0 DUP1 REVERT JUMPDEST PUSH2 0x4C PUSH2 0xBB JUMP JUMPDEST STOP JUMPDEST CALLVALUE DUP1 ISZERO PUSH2 0x5A JUMPI PUSH1 0x0 DUP1 REVERT JUMPDEST POP PUSH2 0x63 PUSH2 0x19D JUMP JUMPDEST PUSH1 0x40 MLOAD PUSH2 0x70 SWAP2 SWAP1 PUSH2 0x324 JUMP JUMPDEST PUSH1 0x40 MLOAD DUP1 SWAP2 SUB SWAP1 RETURN JUMPDEST CALLVALUE DUP1 ISZERO PUSH2 0x85 JUMPI PUSH1 0x0 DUP1 REVERT JUMPDEST POP PUSH2 0x8E PUSH2 0x1A3 JUMP JUMPDEST STOP JUMPDEST CALLVALUE DUP1 ISZERO PUSH2 0x9C JUMPI PUSH1 0x0 DUP1 REVERT JUMPDEST POP PUSH2 0xA5 PUSH2 0x2E5 JUMP JUMPDEST PUSH1 0x40 MLOAD PUSH2 0xB2 SWAP2 SWAP1 PUSH2 0x380 JUMP JUMPDEST PUSH1 0x40 MLOAD DUP1 SWAP2 SUB SWAP1 RETURN JUMPDEST PUSH8 0xDE0B6B3A7640000 CALLVALUE EQ PUSH2 0x105 JUMPI PUSH1 0x40 MLOAD PUSH32 0x8C379A000000000000000000000000000000000000000000000000000000000 DUP2 MSTORE PUSH1 0x4 ADD PUSH2 0xFC SWAP1 PUSH2 0x3F8 JUMP JUMPDEST PUSH1 0x40 MLOAD DUP1 SWAP2 SUB SWAP1 REVERT JUMPDEST PUSH1 0x0 SELFBALANCE SWAP1 POP PUSH1 0x0 SLOAD DUP2 GT ISZERO PUSH2 0x14F JUMPI PUSH1 0x40 MLOAD PUSH32 0x8C379A000000000000000000000000000000000000000000000000000000000 DUP2 MSTORE PUSH1 0x4 ADD PUSH2 0x146 SWAP1 PUSH2 0x464 JUMP JUMPDEST PUSH1 0x40 MLOAD DUP1 SWAP2 SUB SWAP1 REVERT JUMPDEST PUSH1 0x0 SLOAD DUP2 SUB PUSH2 0x19A JUMPI CALLER PUSH1 0x1 PUSH1 0x0 PUSH2 0x100 EXP DUP2 SLOAD DUP2 PUSH20 0xFFFFFFFFFFFFFFFFFFFFFFFFFFFFFFFFFFFFFFFF MUL NOT AND SWAP1 DUP4 PUSH20 0xFFFFFFFFFFFFFFFFFFFFFFFFFFFFFFFFFFFFFFFF AND MUL OR SWAP1 SSTORE POP JUMPDEST POP JUMP JUMPDEST PUSH1 0x0 SLOAD DUP2 JUMP JUMPDEST PUSH1 0x1 PUSH1 0x0 SWAP1 SLOAD SWAP1 PUSH2 0x100 EXP SWAP1 DIV PUSH20 0xFFFFFFFFFFFFFFFFFFFFFFFFFFFFFFFFFFFFFFFF AND PUSH20 0xFFFFFFFFFFFFFFFFFFFFFFFFFFFFFFFFFFFFFFFF AND CALLER PUSH20 0xFFFFFFFFFFFFFFFFFFFFFFFFFFFFFFFFFFFFFFFF AND EQ PUSH2 0x233 JUMPI PUSH1 0x40 MLOAD PUSH32 0x8C379A000000000000000000000000000000000000000000000000000000000 DUP2 MSTORE PUSH1 0x4 ADD PUSH2 0x22A SWAP1 PUSH2 0x4D0 JUMP JUMPDEST PUSH1 0x40 MLOAD DUP1 SWAP2 SUB SWAP1 REVERT JUMPDEST PUSH1 0x0 DUP1 CALLER PUSH20 0xFFFFFFFFFFFFFFFFFFFFFFFFFFFFFFFFFFFFFFFF AND SELFBALANCE PUSH1 0x40 MLOAD PUSH2 0x25A SWAP1 PUSH2 0x521 JUMP JUMPDEST PUSH1 0x0 PUSH1 0x40 MLOAD DUP1 DUP4 SUB DUP2 DUP6 DUP8 GAS CALL SWAP3 POP POP POP RETURNDATASIZE DUP1 PUSH1 0x0 DUP2 EQ PUSH2 0x297 JUMPI PUSH1 0x40 MLOAD SWAP2 POP PUSH1 0x1F NOT PUSH1 0x3F RETURNDATASIZE ADD AND DUP3 ADD PUSH1 0x40 MSTORE RETURNDATASIZE DUP3 MSTORE RETURNDATASIZE PUSH1 0x0 PUSH1 0x20 DUP5 ADD RETURNDATACOPY PUSH2 0x29C JUMP JUMPDEST PUSH1 0x60 SWAP2 POP JUMPDEST POP SWAP2 POP SWAP2 POP DUP2 PUSH2 0x2E1 JUMPI PUSH1 0x40 MLOAD PUSH32 0x8C379A000000000000000000000000000000000000000000000000000000000 DUP2 MSTORE PUSH1 0x4 ADD PUSH2 0x2D8 SWAP1 PUSH2 0x582 JUMP JUMPDEST PUSH1 0x40 MLOAD DUP1 SWAP2 SUB SWAP1 REVERT JUMPDEST POP POP JUMP JUMPDEST PUSH1 0x1 PUSH1 0x0 SWAP1 SLOAD SWAP1 PUSH2 0x100 EXP SWAP1 DIV PUSH20 0xFFFFFFFFFFFFFFFFFFFFFFFFFFFFFFFFFFFFFFFF AND DUP2 JUMP JUMPDEST PUSH1 0x0 DUP2 SWAP1 POP SWAP2 SWAP1 POP JUMP JUMPDEST PUSH2 0x31E DUP2 PUSH2 0x30B JUMP JUMPDEST DUP3 MSTORE POP POP JUMP JUMPDEST PUSH1 0x0 PUSH1 0x20 DUP3 ADD SWAP1 POP PUSH2 0x339 PUSH1 0x0 DUP4 ADD DUP5 PUSH2 0x315 JUMP JUMPDEST SWAP3 SWAP2 POP POP JUMP JUMPDEST PUSH1 0x0 PUSH20 0xFFFFFFFFFFFFFFFFFFFFFFFFFFFFFFFFFFFFFFFF DUP3 AND SWAP1 POP SWAP2 SWAP1 POP JUMP JUMPDEST PUSH1 0x0 PUSH2 0x36A DUP3 PUSH2 0x33F JUMP JUMPDEST SWAP1 POP SWAP2 SWAP1 POP JUMP JUMPDEST PUSH2 0x37A DUP2 PUSH2 0x35F JUMP JUMPDEST DUP3 MSTORE POP POP JUMP JUMPDEST PUSH1 0x0 PUSH1 0x20 DUP3 ADD SWAP1 POP PUSH2 0x395 PUSH1 0x0 DUP4 ADD DUP5 PUSH2 0x371 JUMP JUMPDEST SWAP3 SWAP2 POP POP JUMP JUMPDEST PUSH1 0x0 DUP3 DUP3 MSTORE PUSH1 0x20 DUP3 ADD SWAP1 POP SWAP3 SWAP2 POP POP JUMP JUMPDEST PUSH32 0x596F752063616E206F6E6C792073656E64203120457468657200000000000000 PUSH1 0x0 DUP3 ADD MSTORE POP JUMP JUMPDEST PUSH1 0x0 PUSH2 0x3E2 PUSH1 0x19 DUP4 PUSH2 0x39B JUMP JUMPDEST SWAP2 POP PUSH2 0x3ED DUP3 PUSH2 0x3AC JUMP JUMPDEST PUSH1 0x20 DUP3 ADD SWAP1 POP SWAP2 SWAP1 POP JUMP JUMPDEST PUSH1 0x0 PUSH1 0x20 DUP3 ADD SWAP1 POP DUP2 DUP2 SUB PUSH1 0x0 DUP4 ADD MSTORE PUSH2 0x411 DUP2 PUSH2 0x3D5 JUMP JUMPDEST SWAP1 POP SWAP2 SWAP1 POP JUMP JUMPDEST PUSH32 0x47616D65206973206F7665720000000000000000000000000000000000000000 PUSH1 0x0 DUP3 ADD MSTORE POP JUMP JUMPDEST PUSH1 0x0 PUSH2 0x44E PUSH1 0xC DUP4 PUSH2 0x39B JUMP JUMPDEST SWAP2 POP PUSH2 0x459 DUP3 PUSH2 0x418 JUMP JUMPDEST PUSH1 0x20 DUP3 ADD SWAP1 POP SWAP2 SWAP1 POP JUMP JUMPDEST PUSH1 0x0 PUSH1 0x20 DUP3 ADD SWAP1 POP DUP2 DUP2 SUB PUSH1 0x0 DUP4 ADD MSTORE PUSH2 0x47D DUP2 PUSH2 0x441 JUMP JUMPDEST SWAP1 POP SWAP2 SWAP1 POP JUMP JUMPDEST PUSH32 0x4E6F742077696E6E657200000000000000000000000000000000000000000000 PUSH1 0x0 DUP3 ADD MSTORE POP JUMP JUMPDEST PUSH1 0x0 PUSH2 0x4BA PUSH1 0xA DUP4 PUSH2 0x39B JUMP JUMPDEST SWAP2 POP PUSH2 0x4C5 DUP3 PUSH2 0x484 JUMP JUMPDEST PUSH1 0x20 DUP3 ADD SWAP1 POP SWAP2 SWAP1 POP JUMP JUMPDEST PUSH1 0x0 PUSH1 0x20 DUP3 ADD SWAP1 POP DUP2 DUP2 SUB PUSH1 0x0 DUP4 ADD MSTORE PUSH2 0x4E9 DUP2 PUSH2 0x4AD JUMP JUMPDEST SWAP1 POP SWAP2 SWAP1 POP JUMP JUMPDEST PUSH1 0x0 DUP2 SWAP1 POP SWAP3 SWAP2 POP POP JUMP JUMPDEST POP JUMP JUMPDEST PUSH1 0x0 PUSH2 0x50B PUSH1 0x0 DUP4 PUSH2 0x4F0 JUMP JUMPDEST SWAP2 POP PUSH2 0x516 DUP3 PUSH2 0x4FB JUMP JUMPDEST PUSH1 0x0 DUP3 ADD SWAP1 POP SWAP2 SWAP1 POP JUMP JUMPDEST PUSH1 0x0 PUSH2 0x52C DUP3 PUSH2 0x4FE JUMP JUMPDEST SWAP2 POP DUP2 SWAP1 POP SWAP2 SWAP1 POP JUMP JUMPDEST PUSH32 0x4661696C656420746F2073656E64204574686572000000000000000000000000 PUSH1 0x0 DUP3 ADD MSTORE POP JUMP JUMPDEST PUSH1 0x0 PUSH2 0x56C PUSH1 0x14 DUP4 PUSH2 0x39B JUMP JUMPDEST SWAP2 POP PUSH2 0x577 DUP3 PUSH2 0x536 JUMP JUMPDEST PUSH1 0x20 DUP3 ADD SWAP1 POP SWAP2 SWAP1 POP JUMP JUMPDEST PUSH1 0x0 PUSH1 0x20 DUP3 ADD SWAP1 POP DUP2 DUP2 SUB PUSH1 0x0 DUP4 ADD MSTORE PUSH2 0x59B DUP2 PUSH2 0x55F JUMP JUMPDEST SWAP1 POP SWAP2 SWAP1 POP JUMP INVALID LOG2 PUSH5 0x6970667358 0x22 SLT KECCAK256 ADD 0xEE 0xB8 0xC2 PUSH19 0x6B01BEAB4AC819A897756FE88101034368AFD9 0xC5 BYTE 0xED 0x5E MLOAD PUSH6 0x16EB64736F6C PUSH4 0x43000810 STOP CALLER "
				},
				"gasEstimates": {
					"creation": {
						"codeDepositCost": "299200",
						"executionCost": "22443",
						"totalCost": "321643"
					},
					"external": {
						"claimReward()": "infinite",
						"play()": "28650",
						"targetAmount()": "2429",
						"winner()": "2558"
					}
				},
				"methodIdentifiers": {
					"claimReward()": "b88a802f",
					"play()": "93e84cd9",
					"targetAmount()": "953b8fb8",
					"winner()": "dfbf53ae"
				}
			},
			"storageLayout": {
				"storage": [
					{
						"astId": 4,
						"contract": "contracts/self_destruct.sol:EtherGame",
						"label": "targetAmount",
						"offset": 0,
						"slot": "0",
						"type": "t_uint256"
					},
					{
						"astId": 6,
						"contract": "contracts/self_destruct.sol:EtherGame",
						"label": "winner",
						"offset": 0,
						"slot": "1",
						"type": "t_address"
					}
				],
				"types": {
					"t_address": {
						"encoding": "inplace",
						"label": "address",
						"numberOfBytes": "20"
					},
					"t_uint256": {
						"encoding": "inplace",
						"label": "uint256",
						"numberOfBytes": "32"
					}
				}
			},
			"userdoc": {
				"kind": "user",
				"methods": {},
				"version": 1
			}
		}
	}
}