{
	"contracts/chainlink/GasPrice.sol": {
		"GetGasPrice": {
			"abi": [
				{
					"inputs": [],
					"stateMutability": "nonpayable",
					"type": "constructor"
				},
				{
					"anonymous": false,
					"inputs": [
						{
							"indexed": true,
							"internalType": "bytes32",
							"name": "id",
							"type": "bytes32"
						}
					],
					"name": "ChainlinkCancelled",
					"type": "event"
				},
				{
					"anonymous": false,
					"inputs": [
						{
							"indexed": true,
							"internalType": "bytes32",
							"name": "id",
							"type": "bytes32"
						}
					],
					"name": "ChainlinkFulfilled",
					"type": "event"
				},
				{
					"anonymous": false,
					"inputs": [
						{
							"indexed": true,
							"internalType": "bytes32",
							"name": "id",
							"type": "bytes32"
						}
					],
					"name": "ChainlinkRequested",
					"type": "event"
				},
				{
					"anonymous": false,
					"inputs": [
						{
							"indexed": true,
							"internalType": "address",
							"name": "from",
							"type": "address"
						},
						{
							"indexed": true,
							"internalType": "address",
							"name": "to",
							"type": "address"
						}
					],
					"name": "OwnershipTransferRequested",
					"type": "event"
				},
				{
					"anonymous": false,
					"inputs": [
						{
							"indexed": true,
							"internalType": "address",
							"name": "from",
							"type": "address"
						},
						{
							"indexed": true,
							"internalType": "address",
							"name": "to",
							"type": "address"
						}
					],
					"name": "OwnershipTransferred",
					"type": "event"
				},
				{
					"anonymous": false,
					"inputs": [
						{
							"indexed": true,
							"internalType": "bytes32",
							"name": "requestId",
							"type": "bytes32"
						},
						{
							"indexed": false,
							"internalType": "uint256",
							"name": "gasPriceFast",
							"type": "uint256"
						},
						{
							"indexed": false,
							"internalType": "uint256",
							"name": "gasPriceAverage",
							"type": "uint256"
						},
						{
							"indexed": false,
							"internalType": "uint256",
							"name": "gasPriceSafe",
							"type": "uint256"
						}
					],
					"name": "RequestGasPrice",
					"type": "event"
				},
				{
					"inputs": [],
					"name": "acceptOwnership",
					"outputs": [],
					"stateMutability": "nonpayable",
					"type": "function"
				},
				{
					"inputs": [
						{
							"internalType": "bytes32",
							"name": "_requestId",
							"type": "bytes32"
						},
						{
							"internalType": "uint256",
							"name": "_gasPriceFast",
							"type": "uint256"
						},
						{
							"internalType": "uint256",
							"name": "_gasPriceAverage",
							"type": "uint256"
						},
						{
							"internalType": "uint256",
							"name": "_gasPriceSafe",
							"type": "uint256"
						}
					],
					"name": "fulfill",
					"outputs": [],
					"stateMutability": "nonpayable",
					"type": "function"
				},
				{
					"inputs": [],
					"name": "gasPriceAverage",
					"outputs": [
						{
							"internalType": "uint256",
							"name": "",
							"type": "uint256"
						}
					],
					"stateMutability": "view",
					"type": "function"
				},
				{
					"inputs": [],
					"name": "gasPriceFast",
					"outputs": [
						{
							"internalType": "uint256",
							"name": "",
							"type": "uint256"
						}
					],
					"stateMutability": "view",
					"type": "function"
				},
				{
					"inputs": [],
					"name": "gasPriceSafe",
					"outputs": [
						{
							"internalType": "uint256",
							"name": "",
							"type": "uint256"
						}
					],
					"stateMutability": "view",
					"type": "function"
				},
				{
					"inputs": [],
					"name": "owner",
					"outputs": [
						{
							"internalType": "address",
							"name": "",
							"type": "address"
						}
					],
					"stateMutability": "view",
					"type": "function"
				},
				{
					"inputs": [],
					"name": "requestGasPrice",
					"outputs": [
						{
							"internalType": "bytes32",
							"name": "requestId",
							"type": "bytes32"
						}
					],
					"stateMutability": "nonpayable",
					"type": "function"
				},
				{
					"inputs": [
						{
							"internalType": "address",
							"name": "to",
							"type": "address"
						}
					],
					"name": "transferOwnership",
					"outputs": [],
					"stateMutability": "nonpayable",
					"type": "function"
				},
				{
					"inputs": [],
					"name": "withdrawLink",
					"outputs": [],
					"stateMutability": "nonpayable",
					"type": "function"
				}
			],
			"devdoc": {
				"kind": "dev",
				"methods": {},
				"version": 1
			},
			"evm": {
				"assembly": "    /* \"contracts/chainlink/GasPrice.sol\":570:2793  contract GetGasPrice is ChainlinkClient, ConfirmedOwner {... */\n  mstore(0x40, 0x80)\n    /* \"@chainlink/contracts/src/v0.8/ChainlinkClient.sol\":1291:1292  1 */\n  0x01\n    /* \"@chainlink/contracts/src/v0.8/ChainlinkClient.sol\":1258:1292  uint256 private s_requestCount = 1 */\n  0x04\n  sstore\n    /* \"contracts/chainlink/GasPrice.sol\":1300:1631  constructor() ConfirmedOwner(msg.sender) {... */\n  callvalue\n  dup1\n  iszero\n  tag_1\n  jumpi\n  0x00\n  dup1\n  revert\ntag_1:\n  pop\n    /* \"contracts/chainlink/GasPrice.sol\":1329:1339  msg.sender */\n  caller\n    /* \"@chainlink/contracts/src/v0.8/ConfirmedOwner.sol\":327:335  newOwner */\n  dup1\n    /* \"@chainlink/contracts/src/v0.8/ConfirmedOwner.sol\":345:346  0 */\n  0x00\n    /* \"@chainlink/contracts/src/v0.8/ConfirmedOwnerWithProposal.sol\":572:573  0 */\n  dup1\n    /* \"@chainlink/contracts/src/v0.8/ConfirmedOwnerWithProposal.sol\":552:574  newOwner != address(0) */\n  0xffffffffffffffffffffffffffffffffffffffff\n  and\n    /* \"@chainlink/contracts/src/v0.8/ConfirmedOwnerWithProposal.sol\":552:560  newOwner */\n  dup3\n    /* \"@chainlink/contracts/src/v0.8/ConfirmedOwnerWithProposal.sol\":552:574  newOwner != address(0) */\n  0xffffffffffffffffffffffffffffffffffffffff\n  and\n  sub\n    /* \"@chainlink/contracts/src/v0.8/ConfirmedOwnerWithProposal.sol\":544:603  require(newOwner != address(0), \"Cannot set owner to zero\") */\n  tag_6\n  jumpi\n  mload(0x40)\n  0x08c379a000000000000000000000000000000000000000000000000000000000\n  dup2\n  mstore\n  0x04\n  add\n  tag_7\n  swap1\n  tag_8\n  jump\t// in\ntag_7:\n  mload(0x40)\n  dup1\n  swap2\n  sub\n  swap1\n  revert\ntag_6:\n    /* \"@chainlink/contracts/src/v0.8/ConfirmedOwnerWithProposal.sol\":620:628  newOwner */\n  dup2\n    /* \"@chainlink/contracts/src/v0.8/ConfirmedOwnerWithProposal.sol\":610:617  s_owner */\n  0x06\n  0x00\n    /* \"@chainlink/contracts/src/v0.8/ConfirmedOwnerWithProposal.sol\":610:628  s_owner = newOwner */\n  0x0100\n  exp\n  dup2\n  sload\n  dup2\n  0xffffffffffffffffffffffffffffffffffffffff\n  mul\n  not\n  and\n  swap1\n  dup4\n  0xffffffffffffffffffffffffffffffffffffffff\n  and\n  mul\n  or\n  swap1\n  sstore\n  pop\n    /* \"@chainlink/contracts/src/v0.8/ConfirmedOwnerWithProposal.sol\":662:663  0 */\n  0x00\n    /* \"@chainlink/contracts/src/v0.8/ConfirmedOwnerWithProposal.sol\":638:664  pendingOwner != address(0) */\n  0xffffffffffffffffffffffffffffffffffffffff\n  and\n    /* \"@chainlink/contracts/src/v0.8/ConfirmedOwnerWithProposal.sol\":638:650  pendingOwner */\n  dup2\n    /* \"@chainlink/contracts/src/v0.8/ConfirmedOwnerWithProposal.sol\":638:664  pendingOwner != address(0) */\n  0xffffffffffffffffffffffffffffffffffffffff\n  and\n  eq\n    /* \"@chainlink/contracts/src/v0.8/ConfirmedOwnerWithProposal.sol\":634:713  if (pendingOwner != address(0)) {... */\n  tag_9\n  jumpi\n    /* \"@chainlink/contracts/src/v0.8/ConfirmedOwnerWithProposal.sol\":674:706  _transferOwnership(pendingOwner) */\n  tag_10\n    /* \"@chainlink/contracts/src/v0.8/ConfirmedOwnerWithProposal.sol\":693:705  pendingOwner */\n  dup2\n    /* \"@chainlink/contracts/src/v0.8/ConfirmedOwnerWithProposal.sol\":674:692  _transferOwnership */\n  shl(0x20, tag_11)\n    /* \"@chainlink/contracts/src/v0.8/ConfirmedOwnerWithProposal.sol\":674:706  _transferOwnership(pendingOwner) */\n  0x20\n  shr\n  jump\t// in\ntag_10:\n    /* \"@chainlink/contracts/src/v0.8/ConfirmedOwnerWithProposal.sol\":634:713  if (pendingOwner != address(0)) {... */\ntag_9:\n    /* \"@chainlink/contracts/src/v0.8/ConfirmedOwnerWithProposal.sol\":486:717  constructor(address newOwner, address pendingOwner) {... */\n  pop\n  pop\n    /* \"@chainlink/contracts/src/v0.8/ConfirmedOwner.sol\":270:351  constructor(address newOwner) ConfirmedOwnerWithProposal(newOwner, address(0)) {} */\n  pop\n    /* \"contracts/chainlink/GasPrice.sol\":1351:1412  setChainlinkToken(0x326C977E6efc84E512bB9C30f76E30c160eD06FB) */\n  tag_14\n    /* \"contracts/chainlink/GasPrice.sol\":1369:1411  0x326C977E6efc84E512bB9C30f76E30c160eD06FB */\n  0x326c977e6efc84e512bb9c30f76e30c160ed06fb\n    /* \"contracts/chainlink/GasPrice.sol\":1351:1368  setChainlinkToken */\n  shl(0x20, tag_15)\n    /* \"contracts/chainlink/GasPrice.sol\":1351:1412  setChainlinkToken(0x326C977E6efc84E512bB9C30f76E30c160eD06FB) */\n  0x20\n  shr\n  jump\t// in\ntag_14:\n    /* \"contracts/chainlink/GasPrice.sol\":1422:1484  setChainlinkOracle(0xCC79157eb46F5624204f47AB42b3906cAA40eaB7) */\n  tag_16\n    /* \"contracts/chainlink/GasPrice.sol\":1441:1483  0xCC79157eb46F5624204f47AB42b3906cAA40eaB7 */\n  0xcc79157eb46f5624204f47ab42b3906caa40eab7\n    /* \"contracts/chainlink/GasPrice.sol\":1422:1440  setChainlinkOracle */\n  shl(0x20, tag_17)\n    /* \"contracts/chainlink/GasPrice.sol\":1422:1484  setChainlinkOracle(0xCC79157eb46F5624204f47AB42b3906cAA40eaB7) */\n  0x20\n  shr\n  jump\t// in\ntag_16:\n    /* \"contracts/chainlink/GasPrice.sol\":1494:1536  jobId = '7223acbd01654282865b678924126013' */\n  0x3732323361636264303136353432383238363562363738393234313236303133\n    /* \"contracts/chainlink/GasPrice.sol\":1494:1499  jobId */\n  0x0b\n    /* \"contracts/chainlink/GasPrice.sol\":1494:1536  jobId = '7223acbd01654282865b678924126013' */\n  dup2\n  swap1\n  sstore\n  pop\n    /* \"contracts/chainlink/GasPrice.sol\":1578:1580  10 */\n  0x0a\n    /* \"@chainlink/contracts/src/v0.8/ChainlinkClient.sol\":675:681  10**18 */\n  0x0de0b6b3a7640000\n    /* \"contracts/chainlink/GasPrice.sol\":1553:1554  1 */\n  0x01\n    /* \"contracts/chainlink/GasPrice.sol\":1553:1574  1 * LINK_DIVISIBILITY */\n  tag_18\n  swap2\n  swap1\n  tag_19\n  jump\t// in\ntag_18:\n    /* \"contracts/chainlink/GasPrice.sol\":1552:1580  (1 * LINK_DIVISIBILITY) / 10 */\n  tag_20\n  swap2\n  swap1\n  tag_21\n  jump\t// in\ntag_20:\n    /* \"contracts/chainlink/GasPrice.sol\":1546:1549  fee */\n  0x0c\n    /* \"contracts/chainlink/GasPrice.sol\":1546:1580  fee = (1 * LINK_DIVISIBILITY) / 10 */\n  dup2\n  swap1\n  sstore\n  pop\n    /* \"contracts/chainlink/GasPrice.sol\":570:2793  contract GetGasPrice is ChainlinkClient, ConfirmedOwner {... */\n  jump(tag_22)\n    /* \"@chainlink/contracts/src/v0.8/ConfirmedOwnerWithProposal.sol\":1497:1685  function _transferOwnership(address to) private {... */\ntag_11:\n    /* \"@chainlink/contracts/src/v0.8/ConfirmedOwnerWithProposal.sol\":1565:1575  msg.sender */\n  caller\n    /* \"@chainlink/contracts/src/v0.8/ConfirmedOwnerWithProposal.sol\":1559:1575  to != msg.sender */\n  0xffffffffffffffffffffffffffffffffffffffff\n  and\n    /* \"@chainlink/contracts/src/v0.8/ConfirmedOwnerWithProposal.sol\":1559:1561  to */\n  dup2\n    /* \"@chainlink/contracts/src/v0.8/ConfirmedOwnerWithProposal.sol\":1559:1575  to != msg.sender */\n  0xffffffffffffffffffffffffffffffffffffffff\n  and\n  sub\n    /* \"@chainlink/contracts/src/v0.8/ConfirmedOwnerWithProposal.sol\":1551:1603  require(to != msg.sender, \"Cannot transfer to self\") */\n  tag_24\n  jumpi\n  mload(0x40)\n  0x08c379a000000000000000000000000000000000000000000000000000000000\n  dup2\n  mstore\n  0x04\n  add\n  tag_25\n  swap1\n  tag_26\n  jump\t// in\ntag_25:\n  mload(0x40)\n  dup1\n  swap2\n  sub\n  swap1\n  revert\ntag_24:\n    /* \"@chainlink/contracts/src/v0.8/ConfirmedOwnerWithProposal.sol\":1627:1629  to */\n  dup1\n    /* \"@chainlink/contracts/src/v0.8/ConfirmedOwnerWithProposal.sol\":1610:1624  s_pendingOwner */\n  0x07\n  0x00\n    /* \"@chainlink/contracts/src/v0.8/ConfirmedOwnerWithProposal.sol\":1610:1629  s_pendingOwner = to */\n  0x0100\n  exp\n  dup2\n  sload\n  dup2\n  0xffffffffffffffffffffffffffffffffffffffff\n  mul\n  not\n  and\n  swap1\n  dup4\n  0xffffffffffffffffffffffffffffffffffffffff\n  and\n  mul\n  or\n  swap1\n  sstore\n  pop\n    /* \"@chainlink/contracts/src/v0.8/ConfirmedOwnerWithProposal.sol\":1677:1679  to */\n  dup1\n    /* \"@chainlink/contracts/src/v0.8/ConfirmedOwnerWithProposal.sol\":1641:1680  OwnershipTransferRequested(s_owner, to) */\n  0xffffffffffffffffffffffffffffffffffffffff\n  and\n    /* \"@chainlink/contracts/src/v0.8/ConfirmedOwnerWithProposal.sol\":1668:1675  s_owner */\n  0x06\n  0x00\n  swap1\n  sload\n  swap1\n  0x0100\n  exp\n  swap1\n  div\n  0xffffffffffffffffffffffffffffffffffffffff\n  and\n    /* \"@chainlink/contracts/src/v0.8/ConfirmedOwnerWithProposal.sol\":1641:1680  OwnershipTransferRequested(s_owner, to) */\n  0xffffffffffffffffffffffffffffffffffffffff\n  and\n  0xed8889f560326eb138920d842192f0eb3dd22b4f139c87a2c57538e05bae1278\n  mload(0x40)\n  mload(0x40)\n  dup1\n  swap2\n  sub\n  swap1\n  log3\n    /* \"@chainlink/contracts/src/v0.8/ConfirmedOwnerWithProposal.sol\":1497:1685  function _transferOwnership(address to) private {... */\n  pop\n  jump\t// out\n    /* \"@chainlink/contracts/src/v0.8/ChainlinkClient.sol\":8625:8733  function setChainlinkToken(address linkAddress) internal {... */\ntag_15:\n    /* \"@chainlink/contracts/src/v0.8/ChainlinkClient.sol\":8716:8727  linkAddress */\n  dup1\n    /* \"@chainlink/contracts/src/v0.8/ChainlinkClient.sol\":8688:8694  s_link */\n  0x02\n  0x00\n    /* \"@chainlink/contracts/src/v0.8/ChainlinkClient.sol\":8688:8728  s_link = LinkTokenInterface(linkAddress) */\n  0x0100\n  exp\n  dup2\n  sload\n  dup2\n  0xffffffffffffffffffffffffffffffffffffffff\n  mul\n  not\n  and\n  swap1\n  dup4\n  0xffffffffffffffffffffffffffffffffffffffff\n  and\n  mul\n  or\n  swap1\n  sstore\n  pop\n    /* \"@chainlink/contracts/src/v0.8/ChainlinkClient.sol\":8625:8733  function setChainlinkToken(address linkAddress) internal {... */\n  pop\n  jump\t// out\n    /* \"@chainlink/contracts/src/v0.8/ChainlinkClient.sol\":8391:8505  function setChainlinkOracle(address oracleAddress) internal {... */\ntag_17:\n    /* \"@chainlink/contracts/src/v0.8/ChainlinkClient.sol\":8486:8499  oracleAddress */\n  dup1\n    /* \"@chainlink/contracts/src/v0.8/ChainlinkClient.sol\":8457:8465  s_oracle */\n  0x03\n  0x00\n    /* \"@chainlink/contracts/src/v0.8/ChainlinkClient.sol\":8457:8500  s_oracle = OperatorInterface(oracleAddress) */\n  0x0100\n  exp\n  dup2\n  sload\n  dup2\n  0xffffffffffffffffffffffffffffffffffffffff\n  mul\n  not\n  and\n  swap1\n  dup4\n  0xffffffffffffffffffffffffffffffffffffffff\n  and\n  mul\n  or\n  swap1\n  sstore\n  pop\n    /* \"@chainlink/contracts/src/v0.8/ChainlinkClient.sol\":8391:8505  function setChainlinkOracle(address oracleAddress) internal {... */\n  pop\n  jump\t// out\n    /* \"#utility.yul\":7:176   */\ntag_29:\n    /* \"#utility.yul\":91:102   */\n  0x00\n    /* \"#utility.yul\":125:131   */\n  dup3\n    /* \"#utility.yul\":120:123   */\n  dup3\n    /* \"#utility.yul\":113:132   */\n  mstore\n    /* \"#utility.yul\":165:169   */\n  0x20\n    /* \"#utility.yul\":160:163   */\n  dup3\n    /* \"#utility.yul\":156:170   */\n  add\n    /* \"#utility.yul\":141:170   */\n  swap1\n  pop\n    /* \"#utility.yul\":7:176   */\n  swap3\n  swap2\n  pop\n  pop\n  jump\t// out\n    /* \"#utility.yul\":182:356   */\ntag_30:\n    /* \"#utility.yul\":322:348   */\n  0x43616e6e6f7420736574206f776e657220746f207a65726f0000000000000000\n    /* \"#utility.yul\":318:319   */\n  0x00\n    /* \"#utility.yul\":310:316   */\n  dup3\n    /* \"#utility.yul\":306:320   */\n  add\n    /* \"#utility.yul\":299:349   */\n  mstore\n    /* \"#utility.yul\":182:356   */\n  pop\n  jump\t// out\n    /* \"#utility.yul\":362:728   */\ntag_31:\n    /* \"#utility.yul\":504:507   */\n  0x00\n    /* \"#utility.yul\":525:592   */\n  tag_41\n    /* \"#utility.yul\":589:591   */\n  0x18\n    /* \"#utility.yul\":584:587   */\n  dup4\n    /* \"#utility.yul\":525:592   */\n  tag_29\n  jump\t// in\ntag_41:\n    /* \"#utility.yul\":518:592   */\n  swap2\n  pop\n    /* \"#utility.yul\":601:694   */\n  tag_42\n    /* \"#utility.yul\":690:693   */\n  dup3\n    /* \"#utility.yul\":601:694   */\n  tag_30\n  jump\t// in\ntag_42:\n    /* \"#utility.yul\":719:721   */\n  0x20\n    /* \"#utility.yul\":714:717   */\n  dup3\n    /* \"#utility.yul\":710:722   */\n  add\n    /* \"#utility.yul\":703:722   */\n  swap1\n  pop\n    /* \"#utility.yul\":362:728   */\n  swap2\n  swap1\n  pop\n  jump\t// out\n    /* \"#utility.yul\":734:1153   */\ntag_8:\n    /* \"#utility.yul\":900:904   */\n  0x00\n    /* \"#utility.yul\":938:940   */\n  0x20\n    /* \"#utility.yul\":927:936   */\n  dup3\n    /* \"#utility.yul\":923:941   */\n  add\n    /* \"#utility.yul\":915:941   */\n  swap1\n  pop\n    /* \"#utility.yul\":987:996   */\n  dup2\n    /* \"#utility.yul\":981:985   */\n  dup2\n    /* \"#utility.yul\":977:997   */\n  sub\n    /* \"#utility.yul\":973:974   */\n  0x00\n    /* \"#utility.yul\":962:971   */\n  dup4\n    /* \"#utility.yul\":958:975   */\n  add\n    /* \"#utility.yul\":951:998   */\n  mstore\n    /* \"#utility.yul\":1015:1146   */\n  tag_44\n    /* \"#utility.yul\":1141:1145   */\n  dup2\n    /* \"#utility.yul\":1015:1146   */\n  tag_31\n  jump\t// in\ntag_44:\n    /* \"#utility.yul\":1007:1146   */\n  swap1\n  pop\n    /* \"#utility.yul\":734:1153   */\n  swap2\n  swap1\n  pop\n  jump\t// out\n    /* \"#utility.yul\":1159:1236   */\ntag_32:\n    /* \"#utility.yul\":1196:1203   */\n  0x00\n    /* \"#utility.yul\":1225:1230   */\n  dup2\n    /* \"#utility.yul\":1214:1230   */\n  swap1\n  pop\n    /* \"#utility.yul\":1159:1236   */\n  swap2\n  swap1\n  pop\n  jump\t// out\n    /* \"#utility.yul\":1242:1422   */\ntag_33:\n    /* \"#utility.yul\":1290:1367   */\n  0x4e487b7100000000000000000000000000000000000000000000000000000000\n    /* \"#utility.yul\":1287:1288   */\n  0x00\n    /* \"#utility.yul\":1280:1368   */\n  mstore\n    /* \"#utility.yul\":1387:1391   */\n  0x11\n    /* \"#utility.yul\":1384:1385   */\n  0x04\n    /* \"#utility.yul\":1377:1392   */\n  mstore\n    /* \"#utility.yul\":1411:1415   */\n  0x24\n    /* \"#utility.yul\":1408:1409   */\n  0x00\n    /* \"#utility.yul\":1401:1416   */\n  revert\n    /* \"#utility.yul\":1428:1776   */\ntag_19:\n    /* \"#utility.yul\":1468:1475   */\n  0x00\n    /* \"#utility.yul\":1491:1511   */\n  tag_48\n    /* \"#utility.yul\":1509:1510   */\n  dup3\n    /* \"#utility.yul\":1491:1511   */\n  tag_32\n  jump\t// in\ntag_48:\n    /* \"#utility.yul\":1486:1511   */\n  swap2\n  pop\n    /* \"#utility.yul\":1525:1545   */\n  tag_49\n    /* \"#utility.yul\":1543:1544   */\n  dup4\n    /* \"#utility.yul\":1525:1545   */\n  tag_32\n  jump\t// in\ntag_49:\n    /* \"#utility.yul\":1520:1545   */\n  swap3\n  pop\n    /* \"#utility.yul\":1713:1714   */\n  dup2\n    /* \"#utility.yul\":1645:1711   */\n  0xffffffffffffffffffffffffffffffffffffffffffffffffffffffffffffffff\n    /* \"#utility.yul\":1641:1715   */\n  div\n    /* \"#utility.yul\":1638:1639   */\n  dup4\n    /* \"#utility.yul\":1635:1716   */\n  gt\n    /* \"#utility.yul\":1630:1631   */\n  dup3\n    /* \"#utility.yul\":1623:1632   */\n  iszero\n    /* \"#utility.yul\":1616:1633   */\n  iszero\n    /* \"#utility.yul\":1612:1717   */\n  and\n    /* \"#utility.yul\":1609:1740   */\n  iszero\n  tag_50\n  jumpi\n    /* \"#utility.yul\":1720:1738   */\n  tag_51\n  tag_33\n  jump\t// in\ntag_51:\n    /* \"#utility.yul\":1609:1740   */\ntag_50:\n    /* \"#utility.yul\":1768:1769   */\n  dup3\n    /* \"#utility.yul\":1765:1766   */\n  dup3\n    /* \"#utility.yul\":1761:1770   */\n  mul\n    /* \"#utility.yul\":1750:1770   */\n  swap1\n  pop\n    /* \"#utility.yul\":1428:1776   */\n  swap3\n  swap2\n  pop\n  pop\n  jump\t// out\n    /* \"#utility.yul\":1782:1962   */\ntag_34:\n    /* \"#utility.yul\":1830:1907   */\n  0x4e487b7100000000000000000000000000000000000000000000000000000000\n    /* \"#utility.yul\":1827:1828   */\n  0x00\n    /* \"#utility.yul\":1820:1908   */\n  mstore\n    /* \"#utility.yul\":1927:1931   */\n  0x12\n    /* \"#utility.yul\":1924:1925   */\n  0x04\n    /* \"#utility.yul\":1917:1932   */\n  mstore\n    /* \"#utility.yul\":1951:1955   */\n  0x24\n    /* \"#utility.yul\":1948:1949   */\n  0x00\n    /* \"#utility.yul\":1941:1956   */\n  revert\n    /* \"#utility.yul\":1968:2153   */\ntag_21:\n    /* \"#utility.yul\":2008:2009   */\n  0x00\n    /* \"#utility.yul\":2025:2045   */\n  tag_54\n    /* \"#utility.yul\":2043:2044   */\n  dup3\n    /* \"#utility.yul\":2025:2045   */\n  tag_32\n  jump\t// in\ntag_54:\n    /* \"#utility.yul\":2020:2045   */\n  swap2\n  pop\n    /* \"#utility.yul\":2059:2079   */\n  tag_55\n    /* \"#utility.yul\":2077:2078   */\n  dup4\n    /* \"#utility.yul\":2059:2079   */\n  tag_32\n  jump\t// in\ntag_55:\n    /* \"#utility.yul\":2054:2079   */\n  swap3\n  pop\n    /* \"#utility.yul\":2098:2099   */\n  dup3\n    /* \"#utility.yul\":2088:2123   */\n  tag_56\n  jumpi\n    /* \"#utility.yul\":2103:2121   */\n  tag_57\n  tag_34\n  jump\t// in\ntag_57:\n    /* \"#utility.yul\":2088:2123   */\ntag_56:\n    /* \"#utility.yul\":2145:2146   */\n  dup3\n    /* \"#utility.yul\":2142:2143   */\n  dup3\n    /* \"#utility.yul\":2138:2147   */\n  div\n    /* \"#utility.yul\":2133:2147   */\n  swap1\n  pop\n    /* \"#utility.yul\":1968:2153   */\n  swap3\n  swap2\n  pop\n  pop\n  jump\t// out\n    /* \"#utility.yul\":2159:2332   */\ntag_35:\n    /* \"#utility.yul\":2299:2324   */\n  0x43616e6e6f74207472616e7366657220746f2073656c66000000000000000000\n    /* \"#utility.yul\":2295:2296   */\n  0x00\n    /* \"#utility.yul\":2287:2293   */\n  dup3\n    /* \"#utility.yul\":2283:2297   */\n  add\n    /* \"#utility.yul\":2276:2325   */\n  mstore\n    /* \"#utility.yul\":2159:2332   */\n  pop\n  jump\t// out\n    /* \"#utility.yul\":2338:2704   */\ntag_36:\n    /* \"#utility.yul\":2480:2483   */\n  0x00\n    /* \"#utility.yul\":2501:2568   */\n  tag_60\n    /* \"#utility.yul\":2565:2567   */\n  0x17\n    /* \"#utility.yul\":2560:2563   */\n  dup4\n    /* \"#utility.yul\":2501:2568   */\n  tag_29\n  jump\t// in\ntag_60:\n    /* \"#utility.yul\":2494:2568   */\n  swap2\n  pop\n    /* \"#utility.yul\":2577:2670   */\n  tag_61\n    /* \"#utility.yul\":2666:2669   */\n  dup3\n    /* \"#utility.yul\":2577:2670   */\n  tag_35\n  jump\t// in\ntag_61:\n    /* \"#utility.yul\":2695:2697   */\n  0x20\n    /* \"#utility.yul\":2690:2693   */\n  dup3\n    /* \"#utility.yul\":2686:2698   */\n  add\n    /* \"#utility.yul\":2679:2698   */\n  swap1\n  pop\n    /* \"#utility.yul\":2338:2704   */\n  swap2\n  swap1\n  pop\n  jump\t// out\n    /* \"#utility.yul\":2710:3129   */\ntag_26:\n    /* \"#utility.yul\":2876:2880   */\n  0x00\n    /* \"#utility.yul\":2914:2916   */\n  0x20\n    /* \"#utility.yul\":2903:2912   */\n  dup3\n    /* \"#utility.yul\":2899:2917   */\n  add\n    /* \"#utility.yul\":2891:2917   */\n  swap1\n  pop\n    /* \"#utility.yul\":2963:2972   */\n  dup2\n    /* \"#utility.yul\":2957:2961   */\n  dup2\n    /* \"#utility.yul\":2953:2973   */\n  sub\n    /* \"#utility.yul\":2949:2950   */\n  0x00\n    /* \"#utility.yul\":2938:2947   */\n  dup4\n    /* \"#utility.yul\":2934:2951   */\n  add\n    /* \"#utility.yul\":2927:2974   */\n  mstore\n    /* \"#utility.yul\":2991:3122   */\n  tag_63\n    /* \"#utility.yul\":3117:3121   */\n  dup2\n    /* \"#utility.yul\":2991:3122   */\n  tag_36\n  jump\t// in\ntag_63:\n    /* \"#utility.yul\":2983:3122   */\n  swap1\n  pop\n    /* \"#utility.yul\":2710:3129   */\n  swap2\n  swap1\n  pop\n  jump\t// out\n    /* \"contracts/chainlink/GasPrice.sol\":570:2793  contract GetGasPrice is ChainlinkClient, ConfirmedOwner {... */\ntag_22:\n  dataSize(sub_0)\n  dup1\n  dataOffset(sub_0)\n  0x00\n  codecopy\n  0x00\n  return\nstop\n\nsub_0: assembly {\n        /* \"contracts/chainlink/GasPrice.sol\":570:2793  contract GetGasPrice is ChainlinkClient, ConfirmedOwner {... */\n      mstore(0x40, 0x80)\n      callvalue\n      dup1\n      iszero\n      tag_1\n      jumpi\n      0x00\n      dup1\n      revert\n    tag_1:\n      pop\n      jumpi(tag_2, lt(calldatasize, 0x04))\n      shr(0xe0, calldataload(0x00))\n      dup1\n      0x7a92df2d\n      gt\n      tag_12\n      jumpi\n      dup1\n      0x7a92df2d\n      eq\n      tag_7\n      jumpi\n      dup1\n      0x8da5cb5b\n      eq\n      tag_8\n      jumpi\n      dup1\n      0x8dc654a2\n      eq\n      tag_9\n      jumpi\n      dup1\n      0xf2fde38b\n      eq\n      tag_10\n      jumpi\n      dup1\n      0xfd97ebd7\n      eq\n      tag_11\n      jumpi\n      jump(tag_2)\n    tag_12:\n      dup1\n      0x7f4d88\n      eq\n      tag_3\n      jumpi\n      dup1\n      0x37db7fae\n      eq\n      tag_4\n      jumpi\n      dup1\n      0x49002a91\n      eq\n      tag_5\n      jumpi\n      dup1\n      0x79ba5097\n      eq\n      tag_6\n      jumpi\n    tag_2:\n      0x00\n      dup1\n      revert\n        /* \"contracts/chainlink/GasPrice.sol\":1716:2006  function requestGasPrice() public returns (bytes32 requestId) {... */\n    tag_3:\n      tag_13\n      tag_14\n      jump\t// in\n    tag_13:\n      mload(0x40)\n      tag_15\n      swap2\n      swap1\n      tag_16\n      jump\t// in\n    tag_15:\n      mload(0x40)\n      dup1\n      swap2\n      sub\n      swap1\n      return\n        /* \"contracts/chainlink/GasPrice.sol\":2080:2490  function fulfill(... */\n    tag_4:\n      tag_17\n      0x04\n      dup1\n      calldatasize\n      sub\n      dup2\n      add\n      swap1\n      tag_18\n      swap2\n      swap1\n      tag_19\n      jump\t// in\n    tag_18:\n      tag_20\n      jump\t// in\n    tag_17:\n      stop\n        /* \"contracts/chainlink/GasPrice.sol\":676:703  uint256 public gasPriceFast */\n    tag_5:\n      tag_21\n      tag_22\n      jump\t// in\n    tag_21:\n      mload(0x40)\n      tag_23\n      swap2\n      swap1\n      tag_24\n      jump\t// in\n    tag_23:\n      mload(0x40)\n      dup1\n      swap2\n      sub\n      swap1\n      return\n        /* \"@chainlink/contracts/src/v0.8/ConfirmedOwnerWithProposal.sol\":1016:1281  function acceptOwnership() external override {... */\n    tag_6:\n      tag_25\n      tag_26\n      jump\t// in\n    tag_25:\n      stop\n        /* \"contracts/chainlink/GasPrice.sol\":709:739  uint256 public gasPriceAverage */\n    tag_7:\n      tag_27\n      tag_28\n      jump\t// in\n    tag_27:\n      mload(0x40)\n      tag_29\n      swap2\n      swap1\n      tag_24\n      jump\t// in\n    tag_29:\n      mload(0x40)\n      dup1\n      swap2\n      sub\n      swap1\n      return\n        /* \"@chainlink/contracts/src/v0.8/ConfirmedOwnerWithProposal.sol\":1332:1413  function owner() public view override returns (address) {... */\n    tag_8:\n      tag_30\n      tag_31\n      jump\t// in\n    tag_30:\n      mload(0x40)\n      tag_32\n      swap2\n      swap1\n      tag_33\n      jump\t// in\n    tag_32:\n      mload(0x40)\n      dup1\n      swap2\n      sub\n      swap1\n      return\n        /* \"contracts/chainlink/GasPrice.sol\":2567:2791  function withdrawLink() public onlyOwner {... */\n    tag_9:\n      tag_34\n      tag_35\n      jump\t// in\n    tag_34:\n      stop\n        /* \"@chainlink/contracts/src/v0.8/ConfirmedOwnerWithProposal.sol\":826:924  function transferOwnership(address to) public override onlyOwner {... */\n    tag_10:\n      tag_36\n      0x04\n      dup1\n      calldatasize\n      sub\n      dup2\n      add\n      swap1\n      tag_37\n      swap2\n      swap1\n      tag_38\n      jump\t// in\n    tag_37:\n      tag_39\n      jump\t// in\n    tag_36:\n      stop\n        /* \"contracts/chainlink/GasPrice.sol\":745:772  uint256 public gasPriceSafe */\n    tag_11:\n      tag_40\n      tag_41\n      jump\t// in\n    tag_40:\n      mload(0x40)\n      tag_42\n      swap2\n      swap1\n      tag_24\n      jump\t// in\n    tag_42:\n      mload(0x40)\n      dup1\n      swap2\n      sub\n      swap1\n      return\n        /* \"contracts/chainlink/GasPrice.sol\":1716:2006  function requestGasPrice() public returns (bytes32 requestId) {... */\n    tag_14:\n        /* \"contracts/chainlink/GasPrice.sol\":1759:1776  bytes32 requestId */\n      0x00\n        /* \"contracts/chainlink/GasPrice.sol\":1788:1816  Chainlink.Request memory req */\n      dup1\n        /* \"contracts/chainlink/GasPrice.sol\":1819:1885  buildChainlinkRequest(jobId, address(this), this.fulfill.selector) */\n      tag_44\n        /* \"contracts/chainlink/GasPrice.sol\":1841:1846  jobId */\n      sload(0x0b)\n        /* \"contracts/chainlink/GasPrice.sol\":1856:1860  this */\n      address\n        /* \"contracts/chainlink/GasPrice.sol\":1863:1884  this.fulfill.selector */\n      shl(0xe0, 0x37db7fae)\n        /* \"contracts/chainlink/GasPrice.sol\":1819:1840  buildChainlinkRequest */\n      tag_45\n        /* \"contracts/chainlink/GasPrice.sol\":1819:1885  buildChainlinkRequest(jobId, address(this), this.fulfill.selector) */\n      jump\t// in\n    tag_44:\n        /* \"contracts/chainlink/GasPrice.sol\":1788:1885  Chainlink.Request memory req = buildChainlinkRequest(jobId, address(this), this.fulfill.selector) */\n      swap1\n      pop\n        /* \"contracts/chainlink/GasPrice.sol\":1969:1999  sendChainlinkRequest(req, fee) */\n      tag_46\n        /* \"contracts/chainlink/GasPrice.sol\":1990:1993  req */\n      dup2\n        /* \"contracts/chainlink/GasPrice.sol\":1995:1998  fee */\n      sload(0x0c)\n        /* \"contracts/chainlink/GasPrice.sol\":1969:1989  sendChainlinkRequest */\n      tag_47\n        /* \"contracts/chainlink/GasPrice.sol\":1969:1999  sendChainlinkRequest(req, fee) */\n      jump\t// in\n    tag_46:\n        /* \"contracts/chainlink/GasPrice.sol\":1962:1999  return sendChainlinkRequest(req, fee) */\n      swap2\n      pop\n      pop\n        /* \"contracts/chainlink/GasPrice.sol\":1716:2006  function requestGasPrice() public returns (bytes32 requestId) {... */\n      swap1\n      jump\t// out\n        /* \"contracts/chainlink/GasPrice.sol\":2080:2490  function fulfill(... */\n    tag_20:\n        /* \"contracts/chainlink/GasPrice.sol\":2261:2271  _requestId */\n      dup4\n        /* \"@chainlink/contracts/src/v0.8/ChainlinkClient.sol\":11663:11680  s_pendingRequests */\n      0x05\n        /* \"@chainlink/contracts/src/v0.8/ChainlinkClient.sol\":11663:11691  s_pendingRequests[requestId] */\n      0x00\n        /* \"@chainlink/contracts/src/v0.8/ChainlinkClient.sol\":11681:11690  requestId */\n      dup3\n        /* \"@chainlink/contracts/src/v0.8/ChainlinkClient.sol\":11663:11691  s_pendingRequests[requestId] */\n      dup2\n      mstore\n      0x20\n      add\n      swap1\n      dup2\n      mstore\n      0x20\n      add\n      0x00\n      keccak256\n      0x00\n      swap1\n      sload\n      swap1\n      0x0100\n      exp\n      swap1\n      div\n      0xffffffffffffffffffffffffffffffffffffffff\n      and\n        /* \"@chainlink/contracts/src/v0.8/ChainlinkClient.sol\":11649:11691  msg.sender == s_pendingRequests[requestId] */\n      0xffffffffffffffffffffffffffffffffffffffff\n      and\n        /* \"@chainlink/contracts/src/v0.8/ChainlinkClient.sol\":11649:11659  msg.sender */\n      caller\n        /* \"@chainlink/contracts/src/v0.8/ChainlinkClient.sol\":11649:11691  msg.sender == s_pendingRequests[requestId] */\n      0xffffffffffffffffffffffffffffffffffffffff\n      and\n      eq\n        /* \"@chainlink/contracts/src/v0.8/ChainlinkClient.sol\":11641:11736  require(msg.sender == s_pendingRequests[requestId], \"Source must be the oracle of the request\") */\n      tag_49\n      jumpi\n      mload(0x40)\n      0x08c379a000000000000000000000000000000000000000000000000000000000\n      dup2\n      mstore\n      0x04\n      add\n      tag_50\n      swap1\n      tag_51\n      jump\t// in\n    tag_50:\n      mload(0x40)\n      dup1\n      swap2\n      sub\n      swap1\n      revert\n    tag_49:\n        /* \"@chainlink/contracts/src/v0.8/ChainlinkClient.sol\":11749:11766  s_pendingRequests */\n      0x05\n        /* \"@chainlink/contracts/src/v0.8/ChainlinkClient.sol\":11749:11777  s_pendingRequests[requestId] */\n      0x00\n        /* \"@chainlink/contracts/src/v0.8/ChainlinkClient.sol\":11767:11776  requestId */\n      dup3\n        /* \"@chainlink/contracts/src/v0.8/ChainlinkClient.sol\":11749:11777  s_pendingRequests[requestId] */\n      dup2\n      mstore\n      0x20\n      add\n      swap1\n      dup2\n      mstore\n      0x20\n      add\n      0x00\n      keccak256\n      0x00\n        /* \"@chainlink/contracts/src/v0.8/ChainlinkClient.sol\":11742:11777  delete s_pendingRequests[requestId] */\n      0x0100\n      exp\n      dup2\n      sload\n      swap1\n      0xffffffffffffffffffffffffffffffffffffffff\n      mul\n      not\n      and\n      swap1\n      sstore\n        /* \"@chainlink/contracts/src/v0.8/ChainlinkClient.sol\":11807:11816  requestId */\n      dup1\n        /* \"@chainlink/contracts/src/v0.8/ChainlinkClient.sol\":11788:11817  ChainlinkFulfilled(requestId) */\n      0x7cc135e0cebb02c3480ae5d74d377283180a2601f8f644edf7987b009316c63a\n      mload(0x40)\n      mload(0x40)\n      dup1\n      swap2\n      sub\n      swap1\n      log2\n        /* \"contracts/chainlink/GasPrice.sol\":2304:2314  _requestId */\n      dup5\n        /* \"contracts/chainlink/GasPrice.sol\":2288:2363  RequestGasPrice(_requestId, _gasPriceFast, _gasPriceAverage, _gasPriceSafe) */\n      0x458cd9a25f5ca29f3c8e905ff5f0063c17307ada260bf1c3481748bc1c264180\n        /* \"contracts/chainlink/GasPrice.sol\":2316:2329  _gasPriceFast */\n      dup6\n        /* \"contracts/chainlink/GasPrice.sol\":2331:2347  _gasPriceAverage */\n      dup6\n        /* \"contracts/chainlink/GasPrice.sol\":2349:2362  _gasPriceSafe */\n      dup6\n        /* \"contracts/chainlink/GasPrice.sol\":2288:2363  RequestGasPrice(_requestId, _gasPriceFast, _gasPriceAverage, _gasPriceSafe) */\n      mload(0x40)\n      tag_53\n      swap4\n      swap3\n      swap2\n      swap1\n      tag_54\n      jump\t// in\n    tag_53:\n      mload(0x40)\n      dup1\n      swap2\n      sub\n      swap1\n      log2\n        /* \"contracts/chainlink/GasPrice.sol\":2388:2401  _gasPriceFast */\n      dup4\n        /* \"contracts/chainlink/GasPrice.sol\":2373:2385  gasPriceFast */\n      0x08\n        /* \"contracts/chainlink/GasPrice.sol\":2373:2401  gasPriceFast = _gasPriceFast */\n      dup2\n      swap1\n      sstore\n      pop\n        /* \"contracts/chainlink/GasPrice.sol\":2429:2445  _gasPriceAverage */\n      dup3\n        /* \"contracts/chainlink/GasPrice.sol\":2411:2426  gasPriceAverage */\n      0x09\n        /* \"contracts/chainlink/GasPrice.sol\":2411:2445  gasPriceAverage = _gasPriceAverage */\n      dup2\n      swap1\n      sstore\n      pop\n        /* \"contracts/chainlink/GasPrice.sol\":2470:2483  _gasPriceSafe */\n      dup2\n        /* \"contracts/chainlink/GasPrice.sol\":2455:2467  gasPriceSafe */\n      0x0a\n        /* \"contracts/chainlink/GasPrice.sol\":2455:2483  gasPriceSafe = _gasPriceSafe */\n      dup2\n      swap1\n      sstore\n      pop\n        /* \"contracts/chainlink/GasPrice.sol\":2080:2490  function fulfill(... */\n      pop\n      pop\n      pop\n      pop\n      pop\n      jump\t// out\n        /* \"contracts/chainlink/GasPrice.sol\":676:703  uint256 public gasPriceFast */\n    tag_22:\n      sload(0x08)\n      dup2\n      jump\t// out\n        /* \"@chainlink/contracts/src/v0.8/ConfirmedOwnerWithProposal.sol\":1016:1281  function acceptOwnership() external override {... */\n    tag_26:\n        /* \"@chainlink/contracts/src/v0.8/ConfirmedOwnerWithProposal.sol\":1089:1103  s_pendingOwner */\n      0x07\n      0x00\n      swap1\n      sload\n      swap1\n      0x0100\n      exp\n      swap1\n      div\n      0xffffffffffffffffffffffffffffffffffffffff\n      and\n        /* \"@chainlink/contracts/src/v0.8/ConfirmedOwnerWithProposal.sol\":1075:1103  msg.sender == s_pendingOwner */\n      0xffffffffffffffffffffffffffffffffffffffff\n      and\n        /* \"@chainlink/contracts/src/v0.8/ConfirmedOwnerWithProposal.sol\":1075:1085  msg.sender */\n      caller\n        /* \"@chainlink/contracts/src/v0.8/ConfirmedOwnerWithProposal.sol\":1075:1103  msg.sender == s_pendingOwner */\n      0xffffffffffffffffffffffffffffffffffffffff\n      and\n      eq\n        /* \"@chainlink/contracts/src/v0.8/ConfirmedOwnerWithProposal.sol\":1067:1130  require(msg.sender == s_pendingOwner, \"Must be proposed owner\") */\n      tag_56\n      jumpi\n      mload(0x40)\n      0x08c379a000000000000000000000000000000000000000000000000000000000\n      dup2\n      mstore\n      0x04\n      add\n      tag_57\n      swap1\n      tag_58\n      jump\t// in\n    tag_57:\n      mload(0x40)\n      dup1\n      swap2\n      sub\n      swap1\n      revert\n    tag_56:\n        /* \"@chainlink/contracts/src/v0.8/ConfirmedOwnerWithProposal.sol\":1137:1153  address oldOwner */\n      0x00\n        /* \"@chainlink/contracts/src/v0.8/ConfirmedOwnerWithProposal.sol\":1156:1163  s_owner */\n      0x06\n      0x00\n      swap1\n      sload\n      swap1\n      0x0100\n      exp\n      swap1\n      div\n      0xffffffffffffffffffffffffffffffffffffffff\n      and\n        /* \"@chainlink/contracts/src/v0.8/ConfirmedOwnerWithProposal.sol\":1137:1163  address oldOwner = s_owner */\n      swap1\n      pop\n        /* \"@chainlink/contracts/src/v0.8/ConfirmedOwnerWithProposal.sol\":1179:1189  msg.sender */\n      caller\n        /* \"@chainlink/contracts/src/v0.8/ConfirmedOwnerWithProposal.sol\":1169:1176  s_owner */\n      0x06\n      0x00\n        /* \"@chainlink/contracts/src/v0.8/ConfirmedOwnerWithProposal.sol\":1169:1189  s_owner = msg.sender */\n      0x0100\n      exp\n      dup2\n      sload\n      dup2\n      0xffffffffffffffffffffffffffffffffffffffff\n      mul\n      not\n      and\n      swap1\n      dup4\n      0xffffffffffffffffffffffffffffffffffffffff\n      and\n      mul\n      or\n      swap1\n      sstore\n      pop\n        /* \"@chainlink/contracts/src/v0.8/ConfirmedOwnerWithProposal.sol\":1220:1221  0 */\n      0x00\n        /* \"@chainlink/contracts/src/v0.8/ConfirmedOwnerWithProposal.sol\":1195:1209  s_pendingOwner */\n      0x07\n      0x00\n        /* \"@chainlink/contracts/src/v0.8/ConfirmedOwnerWithProposal.sol\":1195:1222  s_pendingOwner = address(0) */\n      0x0100\n      exp\n      dup2\n      sload\n      dup2\n      0xffffffffffffffffffffffffffffffffffffffff\n      mul\n      not\n      and\n      swap1\n      dup4\n      0xffffffffffffffffffffffffffffffffffffffff\n      and\n      mul\n      or\n      swap1\n      sstore\n      pop\n        /* \"@chainlink/contracts/src/v0.8/ConfirmedOwnerWithProposal.sol\":1265:1275  msg.sender */\n      caller\n        /* \"@chainlink/contracts/src/v0.8/ConfirmedOwnerWithProposal.sol\":1234:1276  OwnershipTransferred(oldOwner, msg.sender) */\n      0xffffffffffffffffffffffffffffffffffffffff\n      and\n        /* \"@chainlink/contracts/src/v0.8/ConfirmedOwnerWithProposal.sol\":1255:1263  oldOwner */\n      dup2\n        /* \"@chainlink/contracts/src/v0.8/ConfirmedOwnerWithProposal.sol\":1234:1276  OwnershipTransferred(oldOwner, msg.sender) */\n      0xffffffffffffffffffffffffffffffffffffffff\n      and\n      0x8be0079c531659141344cd1fd0a4f28419497f9722a3daafe3b4186f6b6457e0\n      mload(0x40)\n      mload(0x40)\n      dup1\n      swap2\n      sub\n      swap1\n      log3\n        /* \"@chainlink/contracts/src/v0.8/ConfirmedOwnerWithProposal.sol\":1061:1281  {... */\n      pop\n        /* \"@chainlink/contracts/src/v0.8/ConfirmedOwnerWithProposal.sol\":1016:1281  function acceptOwnership() external override {... */\n      jump\t// out\n        /* \"contracts/chainlink/GasPrice.sol\":709:739  uint256 public gasPriceAverage */\n    tag_28:\n      sload(0x09)\n      dup2\n      jump\t// out\n        /* \"@chainlink/contracts/src/v0.8/ConfirmedOwnerWithProposal.sol\":1332:1413  function owner() public view override returns (address) {... */\n    tag_31:\n        /* \"@chainlink/contracts/src/v0.8/ConfirmedOwnerWithProposal.sol\":1379:1386  address */\n      0x00\n        /* \"@chainlink/contracts/src/v0.8/ConfirmedOwnerWithProposal.sol\":1401:1408  s_owner */\n      0x06\n      0x00\n      swap1\n      sload\n      swap1\n      0x0100\n      exp\n      swap1\n      div\n      0xffffffffffffffffffffffffffffffffffffffff\n      and\n        /* \"@chainlink/contracts/src/v0.8/ConfirmedOwnerWithProposal.sol\":1394:1408  return s_owner */\n      swap1\n      pop\n        /* \"@chainlink/contracts/src/v0.8/ConfirmedOwnerWithProposal.sol\":1332:1413  function owner() public view override returns (address) {... */\n      swap1\n      jump\t// out\n        /* \"contracts/chainlink/GasPrice.sol\":2567:2791  function withdrawLink() public onlyOwner {... */\n    tag_35:\n        /* \"@chainlink/contracts/src/v0.8/ConfirmedOwnerWithProposal.sol\":1956:1976  _validateOwnership() */\n      tag_61\n        /* \"@chainlink/contracts/src/v0.8/ConfirmedOwnerWithProposal.sol\":1956:1974  _validateOwnership */\n      tag_62\n        /* \"@chainlink/contracts/src/v0.8/ConfirmedOwnerWithProposal.sol\":1956:1976  _validateOwnership() */\n      jump\t// in\n    tag_61:\n        /* \"contracts/chainlink/GasPrice.sol\":2618:2641  LinkTokenInterface link */\n      0x00\n        /* \"contracts/chainlink/GasPrice.sol\":2663:2686  chainlinkTokenAddress() */\n      tag_64\n        /* \"contracts/chainlink/GasPrice.sol\":2663:2684  chainlinkTokenAddress */\n      tag_65\n        /* \"contracts/chainlink/GasPrice.sol\":2663:2686  chainlinkTokenAddress() */\n      jump\t// in\n    tag_64:\n        /* \"contracts/chainlink/GasPrice.sol\":2618:2687  LinkTokenInterface link = LinkTokenInterface(chainlinkTokenAddress()) */\n      swap1\n      pop\n        /* \"contracts/chainlink/GasPrice.sol\":2705:2709  link */\n      dup1\n        /* \"contracts/chainlink/GasPrice.sol\":2705:2718  link.transfer */\n      0xffffffffffffffffffffffffffffffffffffffff\n      and\n      0xa9059cbb\n        /* \"contracts/chainlink/GasPrice.sol\":2719:2729  msg.sender */\n      caller\n        /* \"contracts/chainlink/GasPrice.sol\":2731:2735  link */\n      dup4\n        /* \"contracts/chainlink/GasPrice.sol\":2731:2745  link.balanceOf */\n      0xffffffffffffffffffffffffffffffffffffffff\n      and\n      0x70a08231\n        /* \"contracts/chainlink/GasPrice.sol\":2754:2758  this */\n      address\n        /* \"contracts/chainlink/GasPrice.sol\":2731:2760  link.balanceOf(address(this)) */\n      mload(0x40)\n      dup3\n      0xffffffff\n      and\n      0xe0\n      shl\n      dup2\n      mstore\n      0x04\n      add\n      tag_66\n      swap2\n      swap1\n      tag_33\n      jump\t// in\n    tag_66:\n      0x20\n      mload(0x40)\n      dup1\n      dup4\n      sub\n      dup2\n      dup7\n      gas\n      staticcall\n      iszero\n      dup1\n      iszero\n      tag_68\n      jumpi\n      returndatasize\n      0x00\n      dup1\n      returndatacopy\n      revert(0x00, returndatasize)\n    tag_68:\n      pop\n      pop\n      pop\n      pop\n      mload(0x40)\n      returndatasize\n      not(0x1f)\n      0x1f\n      dup3\n      add\n      and\n      dup3\n      add\n      dup1\n      0x40\n      mstore\n      pop\n      dup2\n      add\n      swap1\n      tag_69\n      swap2\n      swap1\n      tag_70\n      jump\t// in\n    tag_69:\n        /* \"contracts/chainlink/GasPrice.sol\":2705:2761  link.transfer(msg.sender, link.balanceOf(address(this))) */\n      mload(0x40)\n      dup4\n      0xffffffff\n      and\n      0xe0\n      shl\n      dup2\n      mstore\n      0x04\n      add\n      tag_71\n      swap3\n      swap2\n      swap1\n      tag_72\n      jump\t// in\n    tag_71:\n      0x20\n      mload(0x40)\n      dup1\n      dup4\n      sub\n      dup2\n      0x00\n      dup8\n      gas\n      call\n      iszero\n      dup1\n      iszero\n      tag_74\n      jumpi\n      returndatasize\n      0x00\n      dup1\n      returndatacopy\n      revert(0x00, returndatasize)\n    tag_74:\n      pop\n      pop\n      pop\n      pop\n      mload(0x40)\n      returndatasize\n      not(0x1f)\n      0x1f\n      dup3\n      add\n      and\n      dup3\n      add\n      dup1\n      0x40\n      mstore\n      pop\n      dup2\n      add\n      swap1\n      tag_75\n      swap2\n      swap1\n      tag_76\n      jump\t// in\n    tag_75:\n        /* \"contracts/chainlink/GasPrice.sol\":2697:2784  require(link.transfer(msg.sender, link.balanceOf(address(this))), 'Unable to transfer') */\n      tag_77\n      jumpi\n      mload(0x40)\n      0x08c379a000000000000000000000000000000000000000000000000000000000\n      dup2\n      mstore\n      0x04\n      add\n      tag_78\n      swap1\n      tag_79\n      jump\t// in\n    tag_78:\n      mload(0x40)\n      dup1\n      swap2\n      sub\n      swap1\n      revert\n    tag_77:\n        /* \"contracts/chainlink/GasPrice.sol\":2608:2791  {... */\n      pop\n        /* \"contracts/chainlink/GasPrice.sol\":2567:2791  function withdrawLink() public onlyOwner {... */\n      jump\t// out\n        /* \"@chainlink/contracts/src/v0.8/ConfirmedOwnerWithProposal.sol\":826:924  function transferOwnership(address to) public override onlyOwner {... */\n    tag_39:\n        /* \"@chainlink/contracts/src/v0.8/ConfirmedOwnerWithProposal.sol\":1956:1976  _validateOwnership() */\n      tag_81\n        /* \"@chainlink/contracts/src/v0.8/ConfirmedOwnerWithProposal.sol\":1956:1974  _validateOwnership */\n      tag_62\n        /* \"@chainlink/contracts/src/v0.8/ConfirmedOwnerWithProposal.sol\":1956:1976  _validateOwnership() */\n      jump\t// in\n    tag_81:\n        /* \"@chainlink/contracts/src/v0.8/ConfirmedOwnerWithProposal.sol\":897:919  _transferOwnership(to) */\n      tag_83\n        /* \"@chainlink/contracts/src/v0.8/ConfirmedOwnerWithProposal.sol\":916:918  to */\n      dup2\n        /* \"@chainlink/contracts/src/v0.8/ConfirmedOwnerWithProposal.sol\":897:915  _transferOwnership */\n      tag_84\n        /* \"@chainlink/contracts/src/v0.8/ConfirmedOwnerWithProposal.sol\":897:919  _transferOwnership(to) */\n      jump\t// in\n    tag_83:\n        /* \"@chainlink/contracts/src/v0.8/ConfirmedOwnerWithProposal.sol\":826:924  function transferOwnership(address to) public override onlyOwner {... */\n      pop\n      jump\t// out\n        /* \"contracts/chainlink/GasPrice.sol\":745:772  uint256 public gasPriceSafe */\n    tag_41:\n      sload(0x0a)\n      dup2\n      jump\t// out\n        /* \"@chainlink/contracts/src/v0.8/ChainlinkClient.sol\":1850:2133  function buildChainlinkRequest(... */\n    tag_45:\n        /* \"@chainlink/contracts/src/v0.8/ChainlinkClient.sol\":1992:2016  Chainlink.Request memory */\n      tag_85\n      tag_86\n      jump\t// in\n    tag_85:\n        /* \"@chainlink/contracts/src/v0.8/ChainlinkClient.sol\":2024:2052  Chainlink.Request memory req */\n      tag_88\n      tag_86\n      jump\t// in\n    tag_88:\n        /* \"@chainlink/contracts/src/v0.8/ChainlinkClient.sol\":2065:2128  req.initialize(specId, callbackAddr, callbackFunctionSignature) */\n      tag_89\n        /* \"@chainlink/contracts/src/v0.8/ChainlinkClient.sol\":2080:2086  specId */\n      dup6\n        /* \"@chainlink/contracts/src/v0.8/ChainlinkClient.sol\":2088:2100  callbackAddr */\n      dup6\n        /* \"@chainlink/contracts/src/v0.8/ChainlinkClient.sol\":2102:2127  callbackFunctionSignature */\n      dup6\n        /* \"@chainlink/contracts/src/v0.8/ChainlinkClient.sol\":2065:2068  req */\n      dup5\n        /* \"@chainlink/contracts/src/v0.8/ChainlinkClient.sol\":2065:2079  req.initialize */\n      tag_90\n      swap1\n        /* \"@chainlink/contracts/src/v0.8/ChainlinkClient.sol\":2065:2128  req.initialize(specId, callbackAddr, callbackFunctionSignature) */\n      swap4\n      swap3\n      swap2\n      swap1\n      0xffffffff\n      and\n      jump\t// in\n    tag_89:\n        /* \"@chainlink/contracts/src/v0.8/ChainlinkClient.sol\":2058:2128  return req.initialize(specId, callbackAddr, callbackFunctionSignature) */\n      swap2\n      pop\n      pop\n        /* \"@chainlink/contracts/src/v0.8/ChainlinkClient.sol\":1850:2133  function buildChainlinkRequest(... */\n      swap4\n      swap3\n      pop\n      pop\n      pop\n      jump\t// out\n        /* \"@chainlink/contracts/src/v0.8/ChainlinkClient.sol\":2992:3169  function sendChainlinkRequest(Chainlink.Request memory req, uint256 payment) internal returns (bytes32) {... */\n    tag_47:\n        /* \"@chainlink/contracts/src/v0.8/ChainlinkClient.sol\":3087:3094  bytes32 */\n      0x00\n        /* \"@chainlink/contracts/src/v0.8/ChainlinkClient.sol\":3109:3164  sendChainlinkRequestTo(address(s_oracle), req, payment) */\n      tag_92\n        /* \"@chainlink/contracts/src/v0.8/ChainlinkClient.sol\":3140:3148  s_oracle */\n      0x03\n      0x00\n      swap1\n      sload\n      swap1\n      0x0100\n      exp\n      swap1\n      div\n      0xffffffffffffffffffffffffffffffffffffffff\n      and\n        /* \"@chainlink/contracts/src/v0.8/ChainlinkClient.sol\":3151:3154  req */\n      dup5\n        /* \"@chainlink/contracts/src/v0.8/ChainlinkClient.sol\":3156:3163  payment */\n      dup5\n        /* \"@chainlink/contracts/src/v0.8/ChainlinkClient.sol\":3109:3131  sendChainlinkRequestTo */\n      tag_93\n        /* \"@chainlink/contracts/src/v0.8/ChainlinkClient.sol\":3109:3164  sendChainlinkRequestTo(address(s_oracle), req, payment) */\n      jump\t// in\n    tag_92:\n        /* \"@chainlink/contracts/src/v0.8/ChainlinkClient.sol\":3102:3164  return sendChainlinkRequestTo(address(s_oracle), req, payment) */\n      swap1\n      pop\n        /* \"@chainlink/contracts/src/v0.8/ChainlinkClient.sol\":2992:3169  function sendChainlinkRequest(Chainlink.Request memory req, uint256 payment) internal returns (bytes32) {... */\n      swap3\n      swap2\n      pop\n      pop\n      jump\t// out\n        /* \"@chainlink/contracts/src/v0.8/ConfirmedOwnerWithProposal.sol\":1730:1841  function _validateOwnership() internal view {... */\n    tag_62:\n        /* \"@chainlink/contracts/src/v0.8/ConfirmedOwnerWithProposal.sol\":1802:1809  s_owner */\n      0x06\n      0x00\n      swap1\n      sload\n      swap1\n      0x0100\n      exp\n      swap1\n      div\n      0xffffffffffffffffffffffffffffffffffffffff\n      and\n        /* \"@chainlink/contracts/src/v0.8/ConfirmedOwnerWithProposal.sol\":1788:1809  msg.sender == s_owner */\n      0xffffffffffffffffffffffffffffffffffffffff\n      and\n        /* \"@chainlink/contracts/src/v0.8/ConfirmedOwnerWithProposal.sol\":1788:1798  msg.sender */\n      caller\n        /* \"@chainlink/contracts/src/v0.8/ConfirmedOwnerWithProposal.sol\":1788:1809  msg.sender == s_owner */\n      0xffffffffffffffffffffffffffffffffffffffff\n      and\n      eq\n        /* \"@chainlink/contracts/src/v0.8/ConfirmedOwnerWithProposal.sol\":1780:1836  require(msg.sender == s_owner, \"Only callable by owner\") */\n      tag_95\n      jumpi\n      mload(0x40)\n      0x08c379a000000000000000000000000000000000000000000000000000000000\n      dup2\n      mstore\n      0x04\n      add\n      tag_96\n      swap1\n      tag_97\n      jump\t// in\n    tag_96:\n      mload(0x40)\n      dup1\n      swap2\n      sub\n      swap1\n      revert\n    tag_95:\n        /* \"@chainlink/contracts/src/v0.8/ConfirmedOwnerWithProposal.sol\":1730:1841  function _validateOwnership() internal view {... */\n      jump\t// out\n        /* \"@chainlink/contracts/src/v0.8/ChainlinkClient.sol\":9098:9196  function chainlinkTokenAddress() internal view returns (address) {... */\n    tag_65:\n        /* \"@chainlink/contracts/src/v0.8/ChainlinkClient.sol\":9154:9161  address */\n      0x00\n        /* \"@chainlink/contracts/src/v0.8/ChainlinkClient.sol\":9184:9190  s_link */\n      0x02\n      0x00\n      swap1\n      sload\n      swap1\n      0x0100\n      exp\n      swap1\n      div\n      0xffffffffffffffffffffffffffffffffffffffff\n      and\n        /* \"@chainlink/contracts/src/v0.8/ChainlinkClient.sol\":9169:9191  return address(s_link) */\n      swap1\n      pop\n        /* \"@chainlink/contracts/src/v0.8/ChainlinkClient.sol\":9098:9196  function chainlinkTokenAddress() internal view returns (address) {... */\n      swap1\n      jump\t// out\n        /* \"@chainlink/contracts/src/v0.8/ConfirmedOwnerWithProposal.sol\":1497:1685  function _transferOwnership(address to) private {... */\n    tag_84:\n        /* \"@chainlink/contracts/src/v0.8/ConfirmedOwnerWithProposal.sol\":1565:1575  msg.sender */\n      caller\n        /* \"@chainlink/contracts/src/v0.8/ConfirmedOwnerWithProposal.sol\":1559:1575  to != msg.sender */\n      0xffffffffffffffffffffffffffffffffffffffff\n      and\n        /* \"@chainlink/contracts/src/v0.8/ConfirmedOwnerWithProposal.sol\":1559:1561  to */\n      dup2\n        /* \"@chainlink/contracts/src/v0.8/ConfirmedOwnerWithProposal.sol\":1559:1575  to != msg.sender */\n      0xffffffffffffffffffffffffffffffffffffffff\n      and\n      sub\n        /* \"@chainlink/contracts/src/v0.8/ConfirmedOwnerWithProposal.sol\":1551:1603  require(to != msg.sender, \"Cannot transfer to self\") */\n      tag_100\n      jumpi\n      mload(0x40)\n      0x08c379a000000000000000000000000000000000000000000000000000000000\n      dup2\n      mstore\n      0x04\n      add\n      tag_101\n      swap1\n      tag_102\n      jump\t// in\n    tag_101:\n      mload(0x40)\n      dup1\n      swap2\n      sub\n      swap1\n      revert\n    tag_100:\n        /* \"@chainlink/contracts/src/v0.8/ConfirmedOwnerWithProposal.sol\":1627:1629  to */\n      dup1\n        /* \"@chainlink/contracts/src/v0.8/ConfirmedOwnerWithProposal.sol\":1610:1624  s_pendingOwner */\n      0x07\n      0x00\n        /* \"@chainlink/contracts/src/v0.8/ConfirmedOwnerWithProposal.sol\":1610:1629  s_pendingOwner = to */\n      0x0100\n      exp\n      dup2\n      sload\n      dup2\n      0xffffffffffffffffffffffffffffffffffffffff\n      mul\n      not\n      and\n      swap1\n      dup4\n      0xffffffffffffffffffffffffffffffffffffffff\n      and\n      mul\n      or\n      swap1\n      sstore\n      pop\n        /* \"@chainlink/contracts/src/v0.8/ConfirmedOwnerWithProposal.sol\":1677:1679  to */\n      dup1\n        /* \"@chainlink/contracts/src/v0.8/ConfirmedOwnerWithProposal.sol\":1641:1680  OwnershipTransferRequested(s_owner, to) */\n      0xffffffffffffffffffffffffffffffffffffffff\n      and\n        /* \"@chainlink/contracts/src/v0.8/ConfirmedOwnerWithProposal.sol\":1668:1675  s_owner */\n      0x06\n      0x00\n      swap1\n      sload\n      swap1\n      0x0100\n      exp\n      swap1\n      div\n      0xffffffffffffffffffffffffffffffffffffffff\n      and\n        /* \"@chainlink/contracts/src/v0.8/ConfirmedOwnerWithProposal.sol\":1641:1680  OwnershipTransferRequested(s_owner, to) */\n      0xffffffffffffffffffffffffffffffffffffffff\n      and\n      0xed8889f560326eb138920d842192f0eb3dd22b4f139c87a2c57538e05bae1278\n      mload(0x40)\n      mload(0x40)\n      dup1\n      swap2\n      sub\n      swap1\n      log3\n        /* \"@chainlink/contracts/src/v0.8/ConfirmedOwnerWithProposal.sol\":1497:1685  function _transferOwnership(address to) private {... */\n      pop\n      jump\t// out\n        /* \"@chainlink/contracts/src/v0.8/Chainlink.sol\":987:1338  function initialize(... */\n    tag_90:\n        /* \"@chainlink/contracts/src/v0.8/Chainlink.sol\":1129:1153  Chainlink.Request memory */\n      tag_103\n      tag_86\n      jump\t// in\n    tag_103:\n        /* \"@chainlink/contracts/src/v0.8/Chainlink.sol\":1161:1210  BufferChainlink.init(self.buf, defaultBufferSize) */\n      tag_105\n        /* \"@chainlink/contracts/src/v0.8/Chainlink.sol\":1182:1186  self */\n      dup6\n        /* \"@chainlink/contracts/src/v0.8/Chainlink.sol\":1182:1190  self.buf */\n      0x80\n      add\n      mload\n        /* \"@chainlink/contracts/src/v0.8/Chainlink.sol\":361:364  256 */\n      0x0100\n        /* \"@chainlink/contracts/src/v0.8/Chainlink.sol\":1161:1181  BufferChainlink.init */\n      tag_106\n        /* \"@chainlink/contracts/src/v0.8/Chainlink.sol\":1161:1210  BufferChainlink.init(self.buf, defaultBufferSize) */\n      jump\t// in\n    tag_105:\n      pop\n        /* \"@chainlink/contracts/src/v0.8/Chainlink.sol\":1226:1231  jobId */\n      dup4\n        /* \"@chainlink/contracts/src/v0.8/Chainlink.sol\":1216:1220  self */\n      dup6\n        /* \"@chainlink/contracts/src/v0.8/Chainlink.sol\":1216:1223  self.id */\n      0x00\n      add\n        /* \"@chainlink/contracts/src/v0.8/Chainlink.sol\":1216:1231  self.id = jobId */\n      dup2\n      dup2\n      mstore\n      pop\n      pop\n        /* \"@chainlink/contracts/src/v0.8/Chainlink.sol\":1260:1272  callbackAddr */\n      dup3\n        /* \"@chainlink/contracts/src/v0.8/Chainlink.sol\":1237:1241  self */\n      dup6\n        /* \"@chainlink/contracts/src/v0.8/Chainlink.sol\":1237:1257  self.callbackAddress */\n      0x20\n      add\n        /* \"@chainlink/contracts/src/v0.8/Chainlink.sol\":1237:1272  self.callbackAddress = callbackAddr */\n      swap1\n      0xffffffffffffffffffffffffffffffffffffffff\n      and\n      swap1\n      dup2\n      0xffffffffffffffffffffffffffffffffffffffff\n      and\n      dup2\n      mstore\n      pop\n      pop\n        /* \"@chainlink/contracts/src/v0.8/Chainlink.sol\":1304:1316  callbackFunc */\n      dup2\n        /* \"@chainlink/contracts/src/v0.8/Chainlink.sol\":1278:1282  self */\n      dup6\n        /* \"@chainlink/contracts/src/v0.8/Chainlink.sol\":1278:1301  self.callbackFunctionId */\n      0x40\n      add\n        /* \"@chainlink/contracts/src/v0.8/Chainlink.sol\":1278:1316  self.callbackFunctionId = callbackFunc */\n      swap1\n      not(0xffffffffffffffffffffffffffffffffffffffffffffffffffffffff)\n      and\n      swap1\n      dup2\n      not(0xffffffffffffffffffffffffffffffffffffffffffffffffffffffff)\n      and\n      dup2\n      mstore\n      pop\n      pop\n        /* \"@chainlink/contracts/src/v0.8/Chainlink.sol\":1329:1333  self */\n      dup5\n        /* \"@chainlink/contracts/src/v0.8/Chainlink.sol\":1322:1333  return self */\n      swap1\n      pop\n        /* \"@chainlink/contracts/src/v0.8/Chainlink.sol\":987:1338  function initialize(... */\n      swap5\n      swap4\n      pop\n      pop\n      pop\n      pop\n      jump\t// out\n        /* \"@chainlink/contracts/src/v0.8/ChainlinkClient.sol\":3687:4443  function sendChainlinkRequestTo(... */\n    tag_93:\n        /* \"@chainlink/contracts/src/v0.8/ChainlinkClient.sol\":3823:3840  bytes32 requestId */\n      0x00\n        /* \"@chainlink/contracts/src/v0.8/ChainlinkClient.sol\":3848:3861  uint256 nonce */\n      dup1\n        /* \"@chainlink/contracts/src/v0.8/ChainlinkClient.sol\":3864:3878  s_requestCount */\n      sload(0x04)\n        /* \"@chainlink/contracts/src/v0.8/ChainlinkClient.sol\":3848:3878  uint256 nonce = s_requestCount */\n      swap1\n      pop\n        /* \"@chainlink/contracts/src/v0.8/ChainlinkClient.sol\":3909:3910  1 */\n      0x01\n        /* \"@chainlink/contracts/src/v0.8/ChainlinkClient.sol\":3901:3906  nonce */\n      dup2\n        /* \"@chainlink/contracts/src/v0.8/ChainlinkClient.sol\":3901:3910  nonce + 1 */\n      tag_108\n      swap2\n      swap1\n      tag_109\n      jump\t// in\n    tag_108:\n        /* \"@chainlink/contracts/src/v0.8/ChainlinkClient.sol\":3884:3898  s_requestCount */\n      0x04\n        /* \"@chainlink/contracts/src/v0.8/ChainlinkClient.sol\":3884:3910  s_requestCount = nonce + 1 */\n      dup2\n      swap1\n      sstore\n      pop\n        /* \"@chainlink/contracts/src/v0.8/ChainlinkClient.sol\":3916:3943  bytes memory encodedRequest */\n      0x00\n        /* \"@chainlink/contracts/src/v0.8/ChainlinkClient.sol\":3976:4024  ChainlinkRequestInterface.oracleRequest.selector */\n      shl(0xe0, 0x40429946)\n        /* \"@chainlink/contracts/src/v0.8/ChainlinkClient.sol\":784:785  0 */\n      0x00\n        /* \"@chainlink/contracts/src/v0.8/ChainlinkClient.sol\":728:729  0 */\n      dup1\n        /* \"@chainlink/contracts/src/v0.8/ChainlinkClient.sol\":4245:4248  req */\n      dup8\n        /* \"@chainlink/contracts/src/v0.8/ChainlinkClient.sol\":4245:4251  req.id */\n      0x00\n      add\n      mload\n        /* \"@chainlink/contracts/src/v0.8/ChainlinkClient.sol\":4267:4271  this */\n      address\n        /* \"@chainlink/contracts/src/v0.8/ChainlinkClient.sol\":4280:4283  req */\n      dup10\n        /* \"@chainlink/contracts/src/v0.8/ChainlinkClient.sol\":4280:4302  req.callbackFunctionId */\n      0x40\n      add\n      mload\n        /* \"@chainlink/contracts/src/v0.8/ChainlinkClient.sol\":4310:4315  nonce */\n      dup8\n        /* \"@chainlink/contracts/src/v0.8/ChainlinkClient.sol\":837:838  1 */\n      0x01\n        /* \"@chainlink/contracts/src/v0.8/ChainlinkClient.sol\":4350:4353  req */\n      dup13\n        /* \"@chainlink/contracts/src/v0.8/ChainlinkClient.sol\":4350:4357  req.buf */\n      0x80\n      add\n      mload\n        /* \"@chainlink/contracts/src/v0.8/ChainlinkClient.sol\":4350:4361  req.buf.buf */\n      0x00\n      add\n      mload\n        /* \"@chainlink/contracts/src/v0.8/ChainlinkClient.sol\":3946:4367  abi.encodeWithSelector(... */\n      add(0x24, mload(0x40))\n      tag_110\n      swap9\n      swap8\n      swap7\n      swap6\n      swap5\n      swap4\n      swap3\n      swap2\n      swap1\n      tag_111\n      jump\t// in\n    tag_110:\n      mload(0x40)\n      0x20\n      dup2\n      dup4\n      sub\n      sub\n      dup2\n      mstore\n      swap1\n      0x40\n      mstore\n      swap1\n      not(0xffffffffffffffffffffffffffffffffffffffffffffffffffffffff)\n      and\n      0x20\n      dup3\n      add\n      dup1\n      mload\n      0xffffffffffffffffffffffffffffffffffffffffffffffffffffffff\n      dup4\n      dup2\n      dup4\n      and\n      or\n      dup4\n      mstore\n      pop\n      pop\n      pop\n      pop\n        /* \"@chainlink/contracts/src/v0.8/ChainlinkClient.sol\":3916:4367  bytes memory encodedRequest = abi.encodeWithSelector(... */\n      swap1\n      pop\n        /* \"@chainlink/contracts/src/v0.8/ChainlinkClient.sol\":4380:4438  _rawRequest(oracleAddress, nonce, payment, encodedRequest) */\n      tag_112\n        /* \"@chainlink/contracts/src/v0.8/ChainlinkClient.sol\":4392:4405  oracleAddress */\n      dup7\n        /* \"@chainlink/contracts/src/v0.8/ChainlinkClient.sol\":4407:4412  nonce */\n      dup4\n        /* \"@chainlink/contracts/src/v0.8/ChainlinkClient.sol\":4414:4421  payment */\n      dup7\n        /* \"@chainlink/contracts/src/v0.8/ChainlinkClient.sol\":4423:4437  encodedRequest */\n      dup5\n        /* \"@chainlink/contracts/src/v0.8/ChainlinkClient.sol\":4380:4391  _rawRequest */\n      tag_113\n        /* \"@chainlink/contracts/src/v0.8/ChainlinkClient.sol\":4380:4438  _rawRequest(oracleAddress, nonce, payment, encodedRequest) */\n      jump\t// in\n    tag_112:\n        /* \"@chainlink/contracts/src/v0.8/ChainlinkClient.sol\":4373:4438  return _rawRequest(oracleAddress, nonce, payment, encodedRequest) */\n      swap3\n      pop\n      pop\n      pop\n        /* \"@chainlink/contracts/src/v0.8/ChainlinkClient.sol\":3687:4443  function sendChainlinkRequestTo(... */\n      swap4\n      swap3\n      pop\n      pop\n      pop\n      jump\t// out\n        /* \"@chainlink/contracts/src/v0.8/vendor/BufferChainlink.sol\":1001:1400  function init(buffer memory buf, uint256 capacity) internal pure returns (buffer memory) {... */\n    tag_106:\n        /* \"@chainlink/contracts/src/v0.8/vendor/BufferChainlink.sol\":1075:1088  buffer memory */\n      tag_114\n      tag_115\n      jump\t// in\n    tag_114:\n        /* \"@chainlink/contracts/src/v0.8/vendor/BufferChainlink.sol\":1117:1118  0 */\n      0x00\n        /* \"@chainlink/contracts/src/v0.8/vendor/BufferChainlink.sol\":1111:1113  32 */\n      0x20\n        /* \"@chainlink/contracts/src/v0.8/vendor/BufferChainlink.sol\":1100:1108  capacity */\n      dup4\n        /* \"@chainlink/contracts/src/v0.8/vendor/BufferChainlink.sol\":1100:1113  capacity % 32 */\n      tag_117\n      swap2\n      swap1\n      tag_118\n      jump\t// in\n    tag_117:\n        /* \"@chainlink/contracts/src/v0.8/vendor/BufferChainlink.sol\":1100:1118  capacity % 32 != 0 */\n      eq\n        /* \"@chainlink/contracts/src/v0.8/vendor/BufferChainlink.sol\":1096:1167  if (capacity % 32 != 0) {... */\n      tag_119\n      jumpi\n        /* \"@chainlink/contracts/src/v0.8/vendor/BufferChainlink.sol\":1157:1159  32 */\n      0x20\n        /* \"@chainlink/contracts/src/v0.8/vendor/BufferChainlink.sol\":1146:1154  capacity */\n      dup3\n        /* \"@chainlink/contracts/src/v0.8/vendor/BufferChainlink.sol\":1146:1159  capacity % 32 */\n      tag_120\n      swap2\n      swap1\n      tag_118\n      jump\t// in\n    tag_120:\n        /* \"@chainlink/contracts/src/v0.8/vendor/BufferChainlink.sol\":1140:1142  32 */\n      0x20\n        /* \"@chainlink/contracts/src/v0.8/vendor/BufferChainlink.sol\":1140:1160  32 - (capacity % 32) */\n      tag_121\n      swap2\n      swap1\n      tag_122\n      jump\t// in\n    tag_121:\n        /* \"@chainlink/contracts/src/v0.8/vendor/BufferChainlink.sol\":1128:1160  capacity += 32 - (capacity % 32) */\n      dup3\n      tag_123\n      swap2\n      swap1\n      tag_109\n      jump\t// in\n    tag_123:\n      swap2\n      pop\n        /* \"@chainlink/contracts/src/v0.8/vendor/BufferChainlink.sol\":1096:1167  if (capacity % 32 != 0) {... */\n    tag_119:\n        /* \"@chainlink/contracts/src/v0.8/vendor/BufferChainlink.sol\":1229:1237  capacity */\n      dup2\n        /* \"@chainlink/contracts/src/v0.8/vendor/BufferChainlink.sol\":1214:1217  buf */\n      dup4\n        /* \"@chainlink/contracts/src/v0.8/vendor/BufferChainlink.sol\":1214:1226  buf.capacity */\n      0x20\n      add\n        /* \"@chainlink/contracts/src/v0.8/vendor/BufferChainlink.sol\":1214:1237  buf.capacity = capacity */\n      dup2\n      dup2\n      mstore\n      pop\n      pop\n        /* \"@chainlink/contracts/src/v0.8/vendor/BufferChainlink.sol\":1277:1281  0x40 */\n      0x40\n        /* \"@chainlink/contracts/src/v0.8/vendor/BufferChainlink.sol\":1271:1282  mload(0x40) */\n      mload\n        /* \"@chainlink/contracts/src/v0.8/vendor/BufferChainlink.sol\":1301:1304  ptr */\n      dup1\n        /* \"@chainlink/contracts/src/v0.8/vendor/BufferChainlink.sol\":1296:1299  buf */\n      dup5\n        /* \"@chainlink/contracts/src/v0.8/vendor/BufferChainlink.sol\":1289:1305  mstore(buf, ptr) */\n      mstore\n        /* \"@chainlink/contracts/src/v0.8/vendor/BufferChainlink.sol\":1324:1325  0 */\n      0x00\n        /* \"@chainlink/contracts/src/v0.8/vendor/BufferChainlink.sol\":1319:1322  ptr */\n      dup2\n        /* \"@chainlink/contracts/src/v0.8/vendor/BufferChainlink.sol\":1312:1326  mstore(ptr, 0) */\n      mstore\n        /* \"@chainlink/contracts/src/v0.8/vendor/BufferChainlink.sol\":1363:1371  capacity */\n      dup3\n        /* \"@chainlink/contracts/src/v0.8/vendor/BufferChainlink.sol\":1358:1361  ptr */\n      dup2\n        /* \"@chainlink/contracts/src/v0.8/vendor/BufferChainlink.sol\":1354:1372  add(ptr, capacity) */\n      add\n        /* \"@chainlink/contracts/src/v0.8/vendor/BufferChainlink.sol\":1350:1352  32 */\n      0x20\n        /* \"@chainlink/contracts/src/v0.8/vendor/BufferChainlink.sol\":1346:1373  add(32, add(ptr, capacity)) */\n      add\n        /* \"@chainlink/contracts/src/v0.8/vendor/BufferChainlink.sol\":1340:1344  0x40 */\n      0x40\n        /* \"@chainlink/contracts/src/v0.8/vendor/BufferChainlink.sol\":1333:1374  mstore(0x40, add(32, add(ptr, capacity))) */\n      mstore\n        /* \"@chainlink/contracts/src/v0.8/vendor/BufferChainlink.sol\":1252:1380  {... */\n      pop\n        /* \"@chainlink/contracts/src/v0.8/vendor/BufferChainlink.sol\":1392:1395  buf */\n      dup3\n        /* \"@chainlink/contracts/src/v0.8/vendor/BufferChainlink.sol\":1385:1395  return buf */\n      swap1\n      pop\n        /* \"@chainlink/contracts/src/v0.8/vendor/BufferChainlink.sol\":1001:1400  function init(buffer memory buf, uint256 capacity) internal pure returns (buffer memory) {... */\n      swap3\n      swap2\n      pop\n      pop\n      jump\t// out\n        /* \"@chainlink/contracts/src/v0.8/ChainlinkClient.sol\":6629:7059  function _rawRequest(... */\n    tag_113:\n        /* \"@chainlink/contracts/src/v0.8/ChainlinkClient.sol\":6771:6788  bytes32 requestId */\n      0x00\n        /* \"@chainlink/contracts/src/v0.8/ChainlinkClient.sol\":6835:6839  this */\n      address\n        /* \"@chainlink/contracts/src/v0.8/ChainlinkClient.sol\":6841:6846  nonce */\n      dup5\n        /* \"@chainlink/contracts/src/v0.8/ChainlinkClient.sol\":6818:6847  abi.encodePacked(this, nonce) */\n      add(0x20, mload(0x40))\n      tag_125\n      swap3\n      swap2\n      swap1\n      tag_126\n      jump\t// in\n    tag_125:\n      mload(0x40)\n      0x20\n      dup2\n      dup4\n      sub\n      sub\n      dup2\n      mstore\n      swap1\n      0x40\n      mstore\n        /* \"@chainlink/contracts/src/v0.8/ChainlinkClient.sol\":6808:6848  keccak256(abi.encodePacked(this, nonce)) */\n      dup1\n      mload\n      swap1\n      0x20\n      add\n      keccak256\n        /* \"@chainlink/contracts/src/v0.8/ChainlinkClient.sol\":6796:6848  requestId = keccak256(abi.encodePacked(this, nonce)) */\n      swap1\n      pop\n        /* \"@chainlink/contracts/src/v0.8/ChainlinkClient.sol\":6885:6898  oracleAddress */\n      dup5\n        /* \"@chainlink/contracts/src/v0.8/ChainlinkClient.sol\":6854:6871  s_pendingRequests */\n      0x05\n        /* \"@chainlink/contracts/src/v0.8/ChainlinkClient.sol\":6854:6882  s_pendingRequests[requestId] */\n      0x00\n        /* \"@chainlink/contracts/src/v0.8/ChainlinkClient.sol\":6872:6881  requestId */\n      dup4\n        /* \"@chainlink/contracts/src/v0.8/ChainlinkClient.sol\":6854:6882  s_pendingRequests[requestId] */\n      dup2\n      mstore\n      0x20\n      add\n      swap1\n      dup2\n      mstore\n      0x20\n      add\n      0x00\n      keccak256\n      0x00\n        /* \"@chainlink/contracts/src/v0.8/ChainlinkClient.sol\":6854:6898  s_pendingRequests[requestId] = oracleAddress */\n      0x0100\n      exp\n      dup2\n      sload\n      dup2\n      0xffffffffffffffffffffffffffffffffffffffff\n      mul\n      not\n      and\n      swap1\n      dup4\n      0xffffffffffffffffffffffffffffffffffffffff\n      and\n      mul\n      or\n      swap1\n      sstore\n      pop\n        /* \"@chainlink/contracts/src/v0.8/ChainlinkClient.sol\":6928:6937  requestId */\n      dup1\n        /* \"@chainlink/contracts/src/v0.8/ChainlinkClient.sol\":6909:6938  ChainlinkRequested(requestId) */\n      0xb5e6e01e79f91267dc17b4e6314d5d4d03593d2ceee0fbb452b750bd70ea5af9\n      mload(0x40)\n      mload(0x40)\n      dup1\n      swap2\n      sub\n      swap1\n      log2\n        /* \"@chainlink/contracts/src/v0.8/ChainlinkClient.sol\":6952:6958  s_link */\n      0x02\n      0x00\n      swap1\n      sload\n      swap1\n      0x0100\n      exp\n      swap1\n      div\n      0xffffffffffffffffffffffffffffffffffffffff\n      and\n        /* \"@chainlink/contracts/src/v0.8/ChainlinkClient.sol\":6952:6974  s_link.transferAndCall */\n      0xffffffffffffffffffffffffffffffffffffffff\n      and\n      0x4000aea0\n        /* \"@chainlink/contracts/src/v0.8/ChainlinkClient.sol\":6975:6988  oracleAddress */\n      dup7\n        /* \"@chainlink/contracts/src/v0.8/ChainlinkClient.sol\":6990:6997  payment */\n      dup6\n        /* \"@chainlink/contracts/src/v0.8/ChainlinkClient.sol\":6999:7013  encodedRequest */\n      dup6\n        /* \"@chainlink/contracts/src/v0.8/ChainlinkClient.sol\":6952:7014  s_link.transferAndCall(oracleAddress, payment, encodedRequest) */\n      mload(0x40)\n      dup5\n      0xffffffff\n      and\n      0xe0\n      shl\n      dup2\n      mstore\n      0x04\n      add\n      tag_127\n      swap4\n      swap3\n      swap2\n      swap1\n      tag_128\n      jump\t// in\n    tag_127:\n      0x20\n      mload(0x40)\n      dup1\n      dup4\n      sub\n      dup2\n      0x00\n      dup8\n      gas\n      call\n      iszero\n      dup1\n      iszero\n      tag_130\n      jumpi\n      returndatasize\n      0x00\n      dup1\n      returndatacopy\n      revert(0x00, returndatasize)\n    tag_130:\n      pop\n      pop\n      pop\n      pop\n      mload(0x40)\n      returndatasize\n      not(0x1f)\n      0x1f\n      dup3\n      add\n      and\n      dup3\n      add\n      dup1\n      0x40\n      mstore\n      pop\n      dup2\n      add\n      swap1\n      tag_131\n      swap2\n      swap1\n      tag_76\n      jump\t// in\n    tag_131:\n        /* \"@chainlink/contracts/src/v0.8/ChainlinkClient.sol\":6944:7054  require(s_link.transferAndCall(oracleAddress, payment, encodedRequest), \"unable to transferAndCall to oracle\") */\n      tag_132\n      jumpi\n      mload(0x40)\n      0x08c379a000000000000000000000000000000000000000000000000000000000\n      dup2\n      mstore\n      0x04\n      add\n      tag_133\n      swap1\n      tag_134\n      jump\t// in\n    tag_133:\n      mload(0x40)\n      dup1\n      swap2\n      sub\n      swap1\n      revert\n    tag_132:\n        /* \"@chainlink/contracts/src/v0.8/ChainlinkClient.sol\":6629:7059  function _rawRequest(... */\n      swap5\n      swap4\n      pop\n      pop\n      pop\n      pop\n      jump\t// out\n    tag_86:\n      mload(0x40)\n      dup1\n      0xa0\n      add\n      0x40\n      mstore\n      dup1\n      0x00\n      dup1\n      not\n      and\n      dup2\n      mstore\n      0x20\n      add\n      and(0xffffffffffffffffffffffffffffffffffffffff, 0x00)\n      dup2\n      mstore\n      0x20\n      add\n      and(not(0xffffffffffffffffffffffffffffffffffffffffffffffffffffffff), 0x00)\n      dup2\n      mstore\n      0x20\n      add\n      0x00\n      dup2\n      mstore\n      0x20\n      add\n      tag_135\n      tag_115\n      jump\t// in\n    tag_135:\n      dup2\n      mstore\n      pop\n      swap1\n      jump\t// out\n    tag_115:\n      mload(0x40)\n      dup1\n      0x40\n      add\n      0x40\n      mstore\n      dup1\n      0x60\n      dup2\n      mstore\n      0x20\n      add\n      0x00\n      dup2\n      mstore\n      pop\n      swap1\n      jump\t// out\n        /* \"#utility.yul\":7:84   */\n    tag_136:\n        /* \"#utility.yul\":44:51   */\n      0x00\n        /* \"#utility.yul\":73:78   */\n      dup2\n        /* \"#utility.yul\":62:78   */\n      swap1\n      pop\n        /* \"#utility.yul\":7:84   */\n      swap2\n      swap1\n      pop\n      jump\t// out\n        /* \"#utility.yul\":90:208   */\n    tag_137:\n        /* \"#utility.yul\":177:201   */\n      tag_191\n        /* \"#utility.yul\":195:200   */\n      dup2\n        /* \"#utility.yul\":177:201   */\n      tag_136\n      jump\t// in\n    tag_191:\n        /* \"#utility.yul\":172:175   */\n      dup3\n        /* \"#utility.yul\":165:202   */\n      mstore\n        /* \"#utility.yul\":90:208   */\n      pop\n      pop\n      jump\t// out\n        /* \"#utility.yul\":214:436   */\n    tag_16:\n        /* \"#utility.yul\":307:311   */\n      0x00\n        /* \"#utility.yul\":345:347   */\n      0x20\n        /* \"#utility.yul\":334:343   */\n      dup3\n        /* \"#utility.yul\":330:348   */\n      add\n        /* \"#utility.yul\":322:348   */\n      swap1\n      pop\n        /* \"#utility.yul\":358:429   */\n      tag_193\n        /* \"#utility.yul\":426:427   */\n      0x00\n        /* \"#utility.yul\":415:424   */\n      dup4\n        /* \"#utility.yul\":411:428   */\n      add\n        /* \"#utility.yul\":402:408   */\n      dup5\n        /* \"#utility.yul\":358:429   */\n      tag_137\n      jump\t// in\n    tag_193:\n        /* \"#utility.yul\":214:436   */\n      swap3\n      swap2\n      pop\n      pop\n      jump\t// out\n        /* \"#utility.yul\":523:640   */\n    tag_139:\n        /* \"#utility.yul\":632:633   */\n      0x00\n        /* \"#utility.yul\":629:630   */\n      dup1\n        /* \"#utility.yul\":622:634   */\n      revert\n        /* \"#utility.yul\":769:891   */\n    tag_141:\n        /* \"#utility.yul\":842:866   */\n      tag_198\n        /* \"#utility.yul\":860:865   */\n      dup2\n        /* \"#utility.yul\":842:866   */\n      tag_136\n      jump\t// in\n    tag_198:\n        /* \"#utility.yul\":835:840   */\n      dup2\n        /* \"#utility.yul\":832:867   */\n      eq\n        /* \"#utility.yul\":822:885   */\n      tag_199\n      jumpi\n        /* \"#utility.yul\":881:882   */\n      0x00\n        /* \"#utility.yul\":878:879   */\n      dup1\n        /* \"#utility.yul\":871:883   */\n      revert\n        /* \"#utility.yul\":822:885   */\n    tag_199:\n        /* \"#utility.yul\":769:891   */\n      pop\n      jump\t// out\n        /* \"#utility.yul\":897:1036   */\n    tag_142:\n        /* \"#utility.yul\":943:948   */\n      0x00\n        /* \"#utility.yul\":981:987   */\n      dup2\n        /* \"#utility.yul\":968:988   */\n      calldataload\n        /* \"#utility.yul\":959:988   */\n      swap1\n      pop\n        /* \"#utility.yul\":997:1030   */\n      tag_201\n        /* \"#utility.yul\":1024:1029   */\n      dup2\n        /* \"#utility.yul\":997:1030   */\n      tag_141\n      jump\t// in\n    tag_201:\n        /* \"#utility.yul\":897:1036   */\n      swap3\n      swap2\n      pop\n      pop\n      jump\t// out\n        /* \"#utility.yul\":1042:1119   */\n    tag_143:\n        /* \"#utility.yul\":1079:1086   */\n      0x00\n        /* \"#utility.yul\":1108:1113   */\n      dup2\n        /* \"#utility.yul\":1097:1113   */\n      swap1\n      pop\n        /* \"#utility.yul\":1042:1119   */\n      swap2\n      swap1\n      pop\n      jump\t// out\n        /* \"#utility.yul\":1125:1247   */\n    tag_144:\n        /* \"#utility.yul\":1198:1222   */\n      tag_204\n        /* \"#utility.yul\":1216:1221   */\n      dup2\n        /* \"#utility.yul\":1198:1222   */\n      tag_143\n      jump\t// in\n    tag_204:\n        /* \"#utility.yul\":1191:1196   */\n      dup2\n        /* \"#utility.yul\":1188:1223   */\n      eq\n        /* \"#utility.yul\":1178:1241   */\n      tag_205\n      jumpi\n        /* \"#utility.yul\":1237:1238   */\n      0x00\n        /* \"#utility.yul\":1234:1235   */\n      dup1\n        /* \"#utility.yul\":1227:1239   */\n      revert\n        /* \"#utility.yul\":1178:1241   */\n    tag_205:\n        /* \"#utility.yul\":1125:1247   */\n      pop\n      jump\t// out\n        /* \"#utility.yul\":1253:1392   */\n    tag_145:\n        /* \"#utility.yul\":1299:1304   */\n      0x00\n        /* \"#utility.yul\":1337:1343   */\n      dup2\n        /* \"#utility.yul\":1324:1344   */\n      calldataload\n        /* \"#utility.yul\":1315:1344   */\n      swap1\n      pop\n        /* \"#utility.yul\":1353:1386   */\n      tag_207\n        /* \"#utility.yul\":1380:1385   */\n      dup2\n        /* \"#utility.yul\":1353:1386   */\n      tag_144\n      jump\t// in\n    tag_207:\n        /* \"#utility.yul\":1253:1392   */\n      swap3\n      swap2\n      pop\n      pop\n      jump\t// out\n        /* \"#utility.yul\":1398:2163   */\n    tag_19:\n        /* \"#utility.yul\":1484:1490   */\n      0x00\n        /* \"#utility.yul\":1492:1498   */\n      dup1\n        /* \"#utility.yul\":1500:1506   */\n      0x00\n        /* \"#utility.yul\":1508:1514   */\n      dup1\n        /* \"#utility.yul\":1557:1560   */\n      0x80\n        /* \"#utility.yul\":1545:1554   */\n      dup6\n        /* \"#utility.yul\":1536:1543   */\n      dup8\n        /* \"#utility.yul\":1532:1555   */\n      sub\n        /* \"#utility.yul\":1528:1561   */\n      slt\n        /* \"#utility.yul\":1525:1645   */\n      iszero\n      tag_209\n      jumpi\n        /* \"#utility.yul\":1564:1643   */\n      tag_210\n      tag_139\n      jump\t// in\n    tag_210:\n        /* \"#utility.yul\":1525:1645   */\n    tag_209:\n        /* \"#utility.yul\":1684:1685   */\n      0x00\n        /* \"#utility.yul\":1709:1762   */\n      tag_211\n        /* \"#utility.yul\":1754:1761   */\n      dup8\n        /* \"#utility.yul\":1745:1751   */\n      dup3\n        /* \"#utility.yul\":1734:1743   */\n      dup9\n        /* \"#utility.yul\":1730:1752   */\n      add\n        /* \"#utility.yul\":1709:1762   */\n      tag_142\n      jump\t// in\n    tag_211:\n        /* \"#utility.yul\":1699:1762   */\n      swap5\n      pop\n        /* \"#utility.yul\":1655:1772   */\n      pop\n        /* \"#utility.yul\":1811:1813   */\n      0x20\n        /* \"#utility.yul\":1837:1890   */\n      tag_212\n        /* \"#utility.yul\":1882:1889   */\n      dup8\n        /* \"#utility.yul\":1873:1879   */\n      dup3\n        /* \"#utility.yul\":1862:1871   */\n      dup9\n        /* \"#utility.yul\":1858:1880   */\n      add\n        /* \"#utility.yul\":1837:1890   */\n      tag_145\n      jump\t// in\n    tag_212:\n        /* \"#utility.yul\":1827:1890   */\n      swap4\n      pop\n        /* \"#utility.yul\":1782:1900   */\n      pop\n        /* \"#utility.yul\":1939:1941   */\n      0x40\n        /* \"#utility.yul\":1965:2018   */\n      tag_213\n        /* \"#utility.yul\":2010:2017   */\n      dup8\n        /* \"#utility.yul\":2001:2007   */\n      dup3\n        /* \"#utility.yul\":1990:1999   */\n      dup9\n        /* \"#utility.yul\":1986:2008   */\n      add\n        /* \"#utility.yul\":1965:2018   */\n      tag_145\n      jump\t// in\n    tag_213:\n        /* \"#utility.yul\":1955:2018   */\n      swap3\n      pop\n        /* \"#utility.yul\":1910:2028   */\n      pop\n        /* \"#utility.yul\":2067:2069   */\n      0x60\n        /* \"#utility.yul\":2093:2146   */\n      tag_214\n        /* \"#utility.yul\":2138:2145   */\n      dup8\n        /* \"#utility.yul\":2129:2135   */\n      dup3\n        /* \"#utility.yul\":2118:2127   */\n      dup9\n        /* \"#utility.yul\":2114:2136   */\n      add\n        /* \"#utility.yul\":2093:2146   */\n      tag_145\n      jump\t// in\n    tag_214:\n        /* \"#utility.yul\":2083:2146   */\n      swap2\n      pop\n        /* \"#utility.yul\":2038:2156   */\n      pop\n        /* \"#utility.yul\":1398:2163   */\n      swap3\n      swap6\n      swap2\n      swap5\n      pop\n      swap3\n      pop\n      jump\t// out\n        /* \"#utility.yul\":2169:2287   */\n    tag_146:\n        /* \"#utility.yul\":2256:2280   */\n      tag_216\n        /* \"#utility.yul\":2274:2279   */\n      dup2\n        /* \"#utility.yul\":2256:2280   */\n      tag_143\n      jump\t// in\n    tag_216:\n        /* \"#utility.yul\":2251:2254   */\n      dup3\n        /* \"#utility.yul\":2244:2281   */\n      mstore\n        /* \"#utility.yul\":2169:2287   */\n      pop\n      pop\n      jump\t// out\n        /* \"#utility.yul\":2293:2515   */\n    tag_24:\n        /* \"#utility.yul\":2386:2390   */\n      0x00\n        /* \"#utility.yul\":2424:2426   */\n      0x20\n        /* \"#utility.yul\":2413:2422   */\n      dup3\n        /* \"#utility.yul\":2409:2427   */\n      add\n        /* \"#utility.yul\":2401:2427   */\n      swap1\n      pop\n        /* \"#utility.yul\":2437:2508   */\n      tag_218\n        /* \"#utility.yul\":2505:2506   */\n      0x00\n        /* \"#utility.yul\":2494:2503   */\n      dup4\n        /* \"#utility.yul\":2490:2507   */\n      add\n        /* \"#utility.yul\":2481:2487   */\n      dup5\n        /* \"#utility.yul\":2437:2508   */\n      tag_146\n      jump\t// in\n    tag_218:\n        /* \"#utility.yul\":2293:2515   */\n      swap3\n      swap2\n      pop\n      pop\n      jump\t// out\n        /* \"#utility.yul\":2521:2647   */\n    tag_147:\n        /* \"#utility.yul\":2558:2565   */\n      0x00\n        /* \"#utility.yul\":2598:2640   */\n      0xffffffffffffffffffffffffffffffffffffffff\n        /* \"#utility.yul\":2591:2596   */\n      dup3\n        /* \"#utility.yul\":2587:2641   */\n      and\n        /* \"#utility.yul\":2576:2641   */\n      swap1\n      pop\n        /* \"#utility.yul\":2521:2647   */\n      swap2\n      swap1\n      pop\n      jump\t// out\n        /* \"#utility.yul\":2653:2749   */\n    tag_148:\n        /* \"#utility.yul\":2690:2697   */\n      0x00\n        /* \"#utility.yul\":2719:2743   */\n      tag_221\n        /* \"#utility.yul\":2737:2742   */\n      dup3\n        /* \"#utility.yul\":2719:2743   */\n      tag_147\n      jump\t// in\n    tag_221:\n        /* \"#utility.yul\":2708:2743   */\n      swap1\n      pop\n        /* \"#utility.yul\":2653:2749   */\n      swap2\n      swap1\n      pop\n      jump\t// out\n        /* \"#utility.yul\":2755:2873   */\n    tag_149:\n        /* \"#utility.yul\":2842:2866   */\n      tag_223\n        /* \"#utility.yul\":2860:2865   */\n      dup2\n        /* \"#utility.yul\":2842:2866   */\n      tag_148\n      jump\t// in\n    tag_223:\n        /* \"#utility.yul\":2837:2840   */\n      dup3\n        /* \"#utility.yul\":2830:2867   */\n      mstore\n        /* \"#utility.yul\":2755:2873   */\n      pop\n      pop\n      jump\t// out\n        /* \"#utility.yul\":2879:3101   */\n    tag_33:\n        /* \"#utility.yul\":2972:2976   */\n      0x00\n        /* \"#utility.yul\":3010:3012   */\n      0x20\n        /* \"#utility.yul\":2999:3008   */\n      dup3\n        /* \"#utility.yul\":2995:3013   */\n      add\n        /* \"#utility.yul\":2987:3013   */\n      swap1\n      pop\n        /* \"#utility.yul\":3023:3094   */\n      tag_225\n        /* \"#utility.yul\":3091:3092   */\n      0x00\n        /* \"#utility.yul\":3080:3089   */\n      dup4\n        /* \"#utility.yul\":3076:3093   */\n      add\n        /* \"#utility.yul\":3067:3073   */\n      dup5\n        /* \"#utility.yul\":3023:3094   */\n      tag_149\n      jump\t// in\n    tag_225:\n        /* \"#utility.yul\":2879:3101   */\n      swap3\n      swap2\n      pop\n      pop\n      jump\t// out\n        /* \"#utility.yul\":3107:3229   */\n    tag_150:\n        /* \"#utility.yul\":3180:3204   */\n      tag_227\n        /* \"#utility.yul\":3198:3203   */\n      dup2\n        /* \"#utility.yul\":3180:3204   */\n      tag_148\n      jump\t// in\n    tag_227:\n        /* \"#utility.yul\":3173:3178   */\n      dup2\n        /* \"#utility.yul\":3170:3205   */\n      eq\n        /* \"#utility.yul\":3160:3223   */\n      tag_228\n      jumpi\n        /* \"#utility.yul\":3219:3220   */\n      0x00\n        /* \"#utility.yul\":3216:3217   */\n      dup1\n        /* \"#utility.yul\":3209:3221   */\n      revert\n        /* \"#utility.yul\":3160:3223   */\n    tag_228:\n        /* \"#utility.yul\":3107:3229   */\n      pop\n      jump\t// out\n        /* \"#utility.yul\":3235:3374   */\n    tag_151:\n        /* \"#utility.yul\":3281:3286   */\n      0x00\n        /* \"#utility.yul\":3319:3325   */\n      dup2\n        /* \"#utility.yul\":3306:3326   */\n      calldataload\n        /* \"#utility.yul\":3297:3326   */\n      swap1\n      pop\n        /* \"#utility.yul\":3335:3368   */\n      tag_230\n        /* \"#utility.yul\":3362:3367   */\n      dup2\n        /* \"#utility.yul\":3335:3368   */\n      tag_150\n      jump\t// in\n    tag_230:\n        /* \"#utility.yul\":3235:3374   */\n      swap3\n      swap2\n      pop\n      pop\n      jump\t// out\n        /* \"#utility.yul\":3380:3709   */\n    tag_38:\n        /* \"#utility.yul\":3439:3445   */\n      0x00\n        /* \"#utility.yul\":3488:3490   */\n      0x20\n        /* \"#utility.yul\":3476:3485   */\n      dup3\n        /* \"#utility.yul\":3467:3474   */\n      dup5\n        /* \"#utility.yul\":3463:3486   */\n      sub\n        /* \"#utility.yul\":3459:3491   */\n      slt\n        /* \"#utility.yul\":3456:3575   */\n      iszero\n      tag_232\n      jumpi\n        /* \"#utility.yul\":3494:3573   */\n      tag_233\n      tag_139\n      jump\t// in\n    tag_233:\n        /* \"#utility.yul\":3456:3575   */\n    tag_232:\n        /* \"#utility.yul\":3614:3615   */\n      0x00\n        /* \"#utility.yul\":3639:3692   */\n      tag_234\n        /* \"#utility.yul\":3684:3691   */\n      dup5\n        /* \"#utility.yul\":3675:3681   */\n      dup3\n        /* \"#utility.yul\":3664:3673   */\n      dup6\n        /* \"#utility.yul\":3660:3682   */\n      add\n        /* \"#utility.yul\":3639:3692   */\n      tag_151\n      jump\t// in\n    tag_234:\n        /* \"#utility.yul\":3629:3692   */\n      swap2\n      pop\n        /* \"#utility.yul\":3585:3702   */\n      pop\n        /* \"#utility.yul\":3380:3709   */\n      swap3\n      swap2\n      pop\n      pop\n      jump\t// out\n        /* \"#utility.yul\":3715:3884   */\n    tag_152:\n        /* \"#utility.yul\":3799:3810   */\n      0x00\n        /* \"#utility.yul\":3833:3839   */\n      dup3\n        /* \"#utility.yul\":3828:3831   */\n      dup3\n        /* \"#utility.yul\":3821:3840   */\n      mstore\n        /* \"#utility.yul\":3873:3877   */\n      0x20\n        /* \"#utility.yul\":3868:3871   */\n      dup3\n        /* \"#utility.yul\":3864:3878   */\n      add\n        /* \"#utility.yul\":3849:3878   */\n      swap1\n      pop\n        /* \"#utility.yul\":3715:3884   */\n      swap3\n      swap2\n      pop\n      pop\n      jump\t// out\n        /* \"#utility.yul\":3890:4117   */\n    tag_153:\n        /* \"#utility.yul\":4030:4064   */\n      0x536f75726365206d75737420626520746865206f7261636c65206f6620746865\n        /* \"#utility.yul\":4026:4027   */\n      0x00\n        /* \"#utility.yul\":4018:4024   */\n      dup3\n        /* \"#utility.yul\":4014:4028   */\n      add\n        /* \"#utility.yul\":4007:4065   */\n      mstore\n        /* \"#utility.yul\":4099:4109   */\n      0x2072657175657374000000000000000000000000000000000000000000000000\n        /* \"#utility.yul\":4094:4096   */\n      0x20\n        /* \"#utility.yul\":4086:4092   */\n      dup3\n        /* \"#utility.yul\":4082:4097   */\n      add\n        /* \"#utility.yul\":4075:4110   */\n      mstore\n        /* \"#utility.yul\":3890:4117   */\n      pop\n      jump\t// out\n        /* \"#utility.yul\":4123:4489   */\n    tag_154:\n        /* \"#utility.yul\":4265:4268   */\n      0x00\n        /* \"#utility.yul\":4286:4353   */\n      tag_238\n        /* \"#utility.yul\":4350:4352   */\n      0x28\n        /* \"#utility.yul\":4345:4348   */\n      dup4\n        /* \"#utility.yul\":4286:4353   */\n      tag_152\n      jump\t// in\n    tag_238:\n        /* \"#utility.yul\":4279:4353   */\n      swap2\n      pop\n        /* \"#utility.yul\":4362:4455   */\n      tag_239\n        /* \"#utility.yul\":4451:4454   */\n      dup3\n        /* \"#utility.yul\":4362:4455   */\n      tag_153\n      jump\t// in\n    tag_239:\n        /* \"#utility.yul\":4480:4482   */\n      0x40\n        /* \"#utility.yul\":4475:4478   */\n      dup3\n        /* \"#utility.yul\":4471:4483   */\n      add\n        /* \"#utility.yul\":4464:4483   */\n      swap1\n      pop\n        /* \"#utility.yul\":4123:4489   */\n      swap2\n      swap1\n      pop\n      jump\t// out\n        /* \"#utility.yul\":4495:4914   */\n    tag_51:\n        /* \"#utility.yul\":4661:4665   */\n      0x00\n        /* \"#utility.yul\":4699:4701   */\n      0x20\n        /* \"#utility.yul\":4688:4697   */\n      dup3\n        /* \"#utility.yul\":4684:4702   */\n      add\n        /* \"#utility.yul\":4676:4702   */\n      swap1\n      pop\n        /* \"#utility.yul\":4748:4757   */\n      dup2\n        /* \"#utility.yul\":4742:4746   */\n      dup2\n        /* \"#utility.yul\":4738:4758   */\n      sub\n        /* \"#utility.yul\":4734:4735   */\n      0x00\n        /* \"#utility.yul\":4723:4732   */\n      dup4\n        /* \"#utility.yul\":4719:4736   */\n      add\n        /* \"#utility.yul\":4712:4759   */\n      mstore\n        /* \"#utility.yul\":4776:4907   */\n      tag_241\n        /* \"#utility.yul\":4902:4906   */\n      dup2\n        /* \"#utility.yul\":4776:4907   */\n      tag_154\n      jump\t// in\n    tag_241:\n        /* \"#utility.yul\":4768:4907   */\n      swap1\n      pop\n        /* \"#utility.yul\":4495:4914   */\n      swap2\n      swap1\n      pop\n      jump\t// out\n        /* \"#utility.yul\":4920:5362   */\n    tag_54:\n        /* \"#utility.yul\":5069:5073   */\n      0x00\n        /* \"#utility.yul\":5107:5109   */\n      0x60\n        /* \"#utility.yul\":5096:5105   */\n      dup3\n        /* \"#utility.yul\":5092:5110   */\n      add\n        /* \"#utility.yul\":5084:5110   */\n      swap1\n      pop\n        /* \"#utility.yul\":5120:5191   */\n      tag_243\n        /* \"#utility.yul\":5188:5189   */\n      0x00\n        /* \"#utility.yul\":5177:5186   */\n      dup4\n        /* \"#utility.yul\":5173:5190   */\n      add\n        /* \"#utility.yul\":5164:5170   */\n      dup7\n        /* \"#utility.yul\":5120:5191   */\n      tag_146\n      jump\t// in\n    tag_243:\n        /* \"#utility.yul\":5201:5273   */\n      tag_244\n        /* \"#utility.yul\":5269:5271   */\n      0x20\n        /* \"#utility.yul\":5258:5267   */\n      dup4\n        /* \"#utility.yul\":5254:5272   */\n      add\n        /* \"#utility.yul\":5245:5251   */\n      dup6\n        /* \"#utility.yul\":5201:5273   */\n      tag_146\n      jump\t// in\n    tag_244:\n        /* \"#utility.yul\":5283:5355   */\n      tag_245\n        /* \"#utility.yul\":5351:5353   */\n      0x40\n        /* \"#utility.yul\":5340:5349   */\n      dup4\n        /* \"#utility.yul\":5336:5354   */\n      add\n        /* \"#utility.yul\":5327:5333   */\n      dup5\n        /* \"#utility.yul\":5283:5355   */\n      tag_146\n      jump\t// in\n    tag_245:\n        /* \"#utility.yul\":4920:5362   */\n      swap5\n      swap4\n      pop\n      pop\n      pop\n      pop\n      jump\t// out\n        /* \"#utility.yul\":5368:5540   */\n    tag_155:\n        /* \"#utility.yul\":5508:5532   */\n      0x4d7573742062652070726f706f736564206f776e657200000000000000000000\n        /* \"#utility.yul\":5504:5505   */\n      0x00\n        /* \"#utility.yul\":5496:5502   */\n      dup3\n        /* \"#utility.yul\":5492:5506   */\n      add\n        /* \"#utility.yul\":5485:5533   */\n      mstore\n        /* \"#utility.yul\":5368:5540   */\n      pop\n      jump\t// out\n        /* \"#utility.yul\":5546:5912   */\n    tag_156:\n        /* \"#utility.yul\":5688:5691   */\n      0x00\n        /* \"#utility.yul\":5709:5776   */\n      tag_248\n        /* \"#utility.yul\":5773:5775   */\n      0x16\n        /* \"#utility.yul\":5768:5771   */\n      dup4\n        /* \"#utility.yul\":5709:5776   */\n      tag_152\n      jump\t// in\n    tag_248:\n        /* \"#utility.yul\":5702:5776   */\n      swap2\n      pop\n        /* \"#utility.yul\":5785:5878   */\n      tag_249\n        /* \"#utility.yul\":5874:5877   */\n      dup3\n        /* \"#utility.yul\":5785:5878   */\n      tag_155\n      jump\t// in\n    tag_249:\n        /* \"#utility.yul\":5903:5905   */\n      0x20\n        /* \"#utility.yul\":5898:5901   */\n      dup3\n        /* \"#utility.yul\":5894:5906   */\n      add\n        /* \"#utility.yul\":5887:5906   */\n      swap1\n      pop\n        /* \"#utility.yul\":5546:5912   */\n      swap2\n      swap1\n      pop\n      jump\t// out\n        /* \"#utility.yul\":5918:6337   */\n    tag_58:\n        /* \"#utility.yul\":6084:6088   */\n      0x00\n        /* \"#utility.yul\":6122:6124   */\n      0x20\n        /* \"#utility.yul\":6111:6120   */\n      dup3\n        /* \"#utility.yul\":6107:6125   */\n      add\n        /* \"#utility.yul\":6099:6125   */\n      swap1\n      pop\n        /* \"#utility.yul\":6171:6180   */\n      dup2\n        /* \"#utility.yul\":6165:6169   */\n      dup2\n        /* \"#utility.yul\":6161:6181   */\n      sub\n        /* \"#utility.yul\":6157:6158   */\n      0x00\n        /* \"#utility.yul\":6146:6155   */\n      dup4\n        /* \"#utility.yul\":6142:6159   */\n      add\n        /* \"#utility.yul\":6135:6182   */\n      mstore\n        /* \"#utility.yul\":6199:6330   */\n      tag_251\n        /* \"#utility.yul\":6325:6329   */\n      dup2\n        /* \"#utility.yul\":6199:6330   */\n      tag_156\n      jump\t// in\n    tag_251:\n        /* \"#utility.yul\":6191:6330   */\n      swap1\n      pop\n        /* \"#utility.yul\":5918:6337   */\n      swap2\n      swap1\n      pop\n      jump\t// out\n        /* \"#utility.yul\":6343:6486   */\n    tag_157:\n        /* \"#utility.yul\":6400:6405   */\n      0x00\n        /* \"#utility.yul\":6431:6437   */\n      dup2\n        /* \"#utility.yul\":6425:6438   */\n      mload\n        /* \"#utility.yul\":6416:6438   */\n      swap1\n      pop\n        /* \"#utility.yul\":6447:6480   */\n      tag_253\n        /* \"#utility.yul\":6474:6479   */\n      dup2\n        /* \"#utility.yul\":6447:6480   */\n      tag_144\n      jump\t// in\n    tag_253:\n        /* \"#utility.yul\":6343:6486   */\n      swap3\n      swap2\n      pop\n      pop\n      jump\t// out\n        /* \"#utility.yul\":6492:6843   */\n    tag_70:\n        /* \"#utility.yul\":6562:6568   */\n      0x00\n        /* \"#utility.yul\":6611:6613   */\n      0x20\n        /* \"#utility.yul\":6599:6608   */\n      dup3\n        /* \"#utility.yul\":6590:6597   */\n      dup5\n        /* \"#utility.yul\":6586:6609   */\n      sub\n        /* \"#utility.yul\":6582:6614   */\n      slt\n        /* \"#utility.yul\":6579:6698   */\n      iszero\n      tag_255\n      jumpi\n        /* \"#utility.yul\":6617:6696   */\n      tag_256\n      tag_139\n      jump\t// in\n    tag_256:\n        /* \"#utility.yul\":6579:6698   */\n    tag_255:\n        /* \"#utility.yul\":6737:6738   */\n      0x00\n        /* \"#utility.yul\":6762:6826   */\n      tag_257\n        /* \"#utility.yul\":6818:6825   */\n      dup5\n        /* \"#utility.yul\":6809:6815   */\n      dup3\n        /* \"#utility.yul\":6798:6807   */\n      dup6\n        /* \"#utility.yul\":6794:6816   */\n      add\n        /* \"#utility.yul\":6762:6826   */\n      tag_157\n      jump\t// in\n    tag_257:\n        /* \"#utility.yul\":6752:6826   */\n      swap2\n      pop\n        /* \"#utility.yul\":6708:6836   */\n      pop\n        /* \"#utility.yul\":6492:6843   */\n      swap3\n      swap2\n      pop\n      pop\n      jump\t// out\n        /* \"#utility.yul\":6849:7181   */\n    tag_72:\n        /* \"#utility.yul\":6970:6974   */\n      0x00\n        /* \"#utility.yul\":7008:7010   */\n      0x40\n        /* \"#utility.yul\":6997:7006   */\n      dup3\n        /* \"#utility.yul\":6993:7011   */\n      add\n        /* \"#utility.yul\":6985:7011   */\n      swap1\n      pop\n        /* \"#utility.yul\":7021:7092   */\n      tag_259\n        /* \"#utility.yul\":7089:7090   */\n      0x00\n        /* \"#utility.yul\":7078:7087   */\n      dup4\n        /* \"#utility.yul\":7074:7091   */\n      add\n        /* \"#utility.yul\":7065:7071   */\n      dup6\n        /* \"#utility.yul\":7021:7092   */\n      tag_149\n      jump\t// in\n    tag_259:\n        /* \"#utility.yul\":7102:7174   */\n      tag_260\n        /* \"#utility.yul\":7170:7172   */\n      0x20\n        /* \"#utility.yul\":7159:7168   */\n      dup4\n        /* \"#utility.yul\":7155:7173   */\n      add\n        /* \"#utility.yul\":7146:7152   */\n      dup5\n        /* \"#utility.yul\":7102:7174   */\n      tag_146\n      jump\t// in\n    tag_260:\n        /* \"#utility.yul\":6849:7181   */\n      swap4\n      swap3\n      pop\n      pop\n      pop\n      jump\t// out\n        /* \"#utility.yul\":7187:7277   */\n    tag_158:\n        /* \"#utility.yul\":7221:7228   */\n      0x00\n        /* \"#utility.yul\":7264:7269   */\n      dup2\n        /* \"#utility.yul\":7257:7270   */\n      iszero\n        /* \"#utility.yul\":7250:7271   */\n      iszero\n        /* \"#utility.yul\":7239:7271   */\n      swap1\n      pop\n        /* \"#utility.yul\":7187:7277   */\n      swap2\n      swap1\n      pop\n      jump\t// out\n        /* \"#utility.yul\":7283:7399   */\n    tag_159:\n        /* \"#utility.yul\":7353:7374   */\n      tag_263\n        /* \"#utility.yul\":7368:7373   */\n      dup2\n        /* \"#utility.yul\":7353:7374   */\n      tag_158\n      jump\t// in\n    tag_263:\n        /* \"#utility.yul\":7346:7351   */\n      dup2\n        /* \"#utility.yul\":7343:7375   */\n      eq\n        /* \"#utility.yul\":7333:7393   */\n      tag_264\n      jumpi\n        /* \"#utility.yul\":7389:7390   */\n      0x00\n        /* \"#utility.yul\":7386:7387   */\n      dup1\n        /* \"#utility.yul\":7379:7391   */\n      revert\n        /* \"#utility.yul\":7333:7393   */\n    tag_264:\n        /* \"#utility.yul\":7283:7399   */\n      pop\n      jump\t// out\n        /* \"#utility.yul\":7405:7542   */\n    tag_160:\n        /* \"#utility.yul\":7459:7464   */\n      0x00\n        /* \"#utility.yul\":7490:7496   */\n      dup2\n        /* \"#utility.yul\":7484:7497   */\n      mload\n        /* \"#utility.yul\":7475:7497   */\n      swap1\n      pop\n        /* \"#utility.yul\":7506:7536   */\n      tag_266\n        /* \"#utility.yul\":7530:7535   */\n      dup2\n        /* \"#utility.yul\":7506:7536   */\n      tag_159\n      jump\t// in\n    tag_266:\n        /* \"#utility.yul\":7405:7542   */\n      swap3\n      swap2\n      pop\n      pop\n      jump\t// out\n        /* \"#utility.yul\":7548:7893   */\n    tag_76:\n        /* \"#utility.yul\":7615:7621   */\n      0x00\n        /* \"#utility.yul\":7664:7666   */\n      0x20\n        /* \"#utility.yul\":7652:7661   */\n      dup3\n        /* \"#utility.yul\":7643:7650   */\n      dup5\n        /* \"#utility.yul\":7639:7662   */\n      sub\n        /* \"#utility.yul\":7635:7667   */\n      slt\n        /* \"#utility.yul\":7632:7751   */\n      iszero\n      tag_268\n      jumpi\n        /* \"#utility.yul\":7670:7749   */\n      tag_269\n      tag_139\n      jump\t// in\n    tag_269:\n        /* \"#utility.yul\":7632:7751   */\n    tag_268:\n        /* \"#utility.yul\":7790:7791   */\n      0x00\n        /* \"#utility.yul\":7815:7876   */\n      tag_270\n        /* \"#utility.yul\":7868:7875   */\n      dup5\n        /* \"#utility.yul\":7859:7865   */\n      dup3\n        /* \"#utility.yul\":7848:7857   */\n      dup6\n        /* \"#utility.yul\":7844:7866   */\n      add\n        /* \"#utility.yul\":7815:7876   */\n      tag_160\n      jump\t// in\n    tag_270:\n        /* \"#utility.yul\":7805:7876   */\n      swap2\n      pop\n        /* \"#utility.yul\":7761:7886   */\n      pop\n        /* \"#utility.yul\":7548:7893   */\n      swap3\n      swap2\n      pop\n      pop\n      jump\t// out\n        /* \"#utility.yul\":7899:8067   */\n    tag_161:\n        /* \"#utility.yul\":8039:8059   */\n      0x556e61626c6520746f207472616e736665720000000000000000000000000000\n        /* \"#utility.yul\":8035:8036   */\n      0x00\n        /* \"#utility.yul\":8027:8033   */\n      dup3\n        /* \"#utility.yul\":8023:8037   */\n      add\n        /* \"#utility.yul\":8016:8060   */\n      mstore\n        /* \"#utility.yul\":7899:8067   */\n      pop\n      jump\t// out\n        /* \"#utility.yul\":8073:8439   */\n    tag_162:\n        /* \"#utility.yul\":8215:8218   */\n      0x00\n        /* \"#utility.yul\":8236:8303   */\n      tag_273\n        /* \"#utility.yul\":8300:8302   */\n      0x12\n        /* \"#utility.yul\":8295:8298   */\n      dup4\n        /* \"#utility.yul\":8236:8303   */\n      tag_152\n      jump\t// in\n    tag_273:\n        /* \"#utility.yul\":8229:8303   */\n      swap2\n      pop\n        /* \"#utility.yul\":8312:8405   */\n      tag_274\n        /* \"#utility.yul\":8401:8404   */\n      dup3\n        /* \"#utility.yul\":8312:8405   */\n      tag_161\n      jump\t// in\n    tag_274:\n        /* \"#utility.yul\":8430:8432   */\n      0x20\n        /* \"#utility.yul\":8425:8428   */\n      dup3\n        /* \"#utility.yul\":8421:8433   */\n      add\n        /* \"#utility.yul\":8414:8433   */\n      swap1\n      pop\n        /* \"#utility.yul\":8073:8439   */\n      swap2\n      swap1\n      pop\n      jump\t// out\n        /* \"#utility.yul\":8445:8864   */\n    tag_79:\n        /* \"#utility.yul\":8611:8615   */\n      0x00\n        /* \"#utility.yul\":8649:8651   */\n      0x20\n        /* \"#utility.yul\":8638:8647   */\n      dup3\n        /* \"#utility.yul\":8634:8652   */\n      add\n        /* \"#utility.yul\":8626:8652   */\n      swap1\n      pop\n        /* \"#utility.yul\":8698:8707   */\n      dup2\n        /* \"#utility.yul\":8692:8696   */\n      dup2\n        /* \"#utility.yul\":8688:8708   */\n      sub\n        /* \"#utility.yul\":8684:8685   */\n      0x00\n        /* \"#utility.yul\":8673:8682   */\n      dup4\n        /* \"#utility.yul\":8669:8686   */\n      add\n        /* \"#utility.yul\":8662:8709   */\n      mstore\n        /* \"#utility.yul\":8726:8857   */\n      tag_276\n        /* \"#utility.yul\":8852:8856   */\n      dup2\n        /* \"#utility.yul\":8726:8857   */\n      tag_162\n      jump\t// in\n    tag_276:\n        /* \"#utility.yul\":8718:8857   */\n      swap1\n      pop\n        /* \"#utility.yul\":8445:8864   */\n      swap2\n      swap1\n      pop\n      jump\t// out\n        /* \"#utility.yul\":8870:9042   */\n    tag_163:\n        /* \"#utility.yul\":9010:9034   */\n      0x4f6e6c792063616c6c61626c65206279206f776e657200000000000000000000\n        /* \"#utility.yul\":9006:9007   */\n      0x00\n        /* \"#utility.yul\":8998:9004   */\n      dup3\n        /* \"#utility.yul\":8994:9008   */\n      add\n        /* \"#utility.yul\":8987:9035   */\n      mstore\n        /* \"#utility.yul\":8870:9042   */\n      pop\n      jump\t// out\n        /* \"#utility.yul\":9048:9414   */\n    tag_164:\n        /* \"#utility.yul\":9190:9193   */\n      0x00\n        /* \"#utility.yul\":9211:9278   */\n      tag_279\n        /* \"#utility.yul\":9275:9277   */\n      0x16\n        /* \"#utility.yul\":9270:9273   */\n      dup4\n        /* \"#utility.yul\":9211:9278   */\n      tag_152\n      jump\t// in\n    tag_279:\n        /* \"#utility.yul\":9204:9278   */\n      swap2\n      pop\n        /* \"#utility.yul\":9287:9380   */\n      tag_280\n        /* \"#utility.yul\":9376:9379   */\n      dup3\n        /* \"#utility.yul\":9287:9380   */\n      tag_163\n      jump\t// in\n    tag_280:\n        /* \"#utility.yul\":9405:9407   */\n      0x20\n        /* \"#utility.yul\":9400:9403   */\n      dup3\n        /* \"#utility.yul\":9396:9408   */\n      add\n        /* \"#utility.yul\":9389:9408   */\n      swap1\n      pop\n        /* \"#utility.yul\":9048:9414   */\n      swap2\n      swap1\n      pop\n      jump\t// out\n        /* \"#utility.yul\":9420:9839   */\n    tag_97:\n        /* \"#utility.yul\":9586:9590   */\n      0x00\n        /* \"#utility.yul\":9624:9626   */\n      0x20\n        /* \"#utility.yul\":9613:9622   */\n      dup3\n        /* \"#utility.yul\":9609:9627   */\n      add\n        /* \"#utility.yul\":9601:9627   */\n      swap1\n      pop\n        /* \"#utility.yul\":9673:9682   */\n      dup2\n        /* \"#utility.yul\":9667:9671   */\n      dup2\n        /* \"#utility.yul\":9663:9683   */\n      sub\n        /* \"#utility.yul\":9659:9660   */\n      0x00\n        /* \"#utility.yul\":9648:9657   */\n      dup4\n        /* \"#utility.yul\":9644:9661   */\n      add\n        /* \"#utility.yul\":9637:9684   */\n      mstore\n        /* \"#utility.yul\":9701:9832   */\n      tag_282\n        /* \"#utility.yul\":9827:9831   */\n      dup2\n        /* \"#utility.yul\":9701:9832   */\n      tag_164\n      jump\t// in\n    tag_282:\n        /* \"#utility.yul\":9693:9832   */\n      swap1\n      pop\n        /* \"#utility.yul\":9420:9839   */\n      swap2\n      swap1\n      pop\n      jump\t// out\n        /* \"#utility.yul\":9845:10018   */\n    tag_165:\n        /* \"#utility.yul\":9985:10010   */\n      0x43616e6e6f74207472616e7366657220746f2073656c66000000000000000000\n        /* \"#utility.yul\":9981:9982   */\n      0x00\n        /* \"#utility.yul\":9973:9979   */\n      dup3\n        /* \"#utility.yul\":9969:9983   */\n      add\n        /* \"#utility.yul\":9962:10011   */\n      mstore\n        /* \"#utility.yul\":9845:10018   */\n      pop\n      jump\t// out\n        /* \"#utility.yul\":10024:10390   */\n    tag_166:\n        /* \"#utility.yul\":10166:10169   */\n      0x00\n        /* \"#utility.yul\":10187:10254   */\n      tag_285\n        /* \"#utility.yul\":10251:10253   */\n      0x17\n        /* \"#utility.yul\":10246:10249   */\n      dup4\n        /* \"#utility.yul\":10187:10254   */\n      tag_152\n      jump\t// in\n    tag_285:\n        /* \"#utility.yul\":10180:10254   */\n      swap2\n      pop\n        /* \"#utility.yul\":10263:10356   */\n      tag_286\n        /* \"#utility.yul\":10352:10355   */\n      dup3\n        /* \"#utility.yul\":10263:10356   */\n      tag_165\n      jump\t// in\n    tag_286:\n        /* \"#utility.yul\":10381:10383   */\n      0x20\n        /* \"#utility.yul\":10376:10379   */\n      dup3\n        /* \"#utility.yul\":10372:10384   */\n      add\n        /* \"#utility.yul\":10365:10384   */\n      swap1\n      pop\n        /* \"#utility.yul\":10024:10390   */\n      swap2\n      swap1\n      pop\n      jump\t// out\n        /* \"#utility.yul\":10396:10815   */\n    tag_102:\n        /* \"#utility.yul\":10562:10566   */\n      0x00\n        /* \"#utility.yul\":10600:10602   */\n      0x20\n        /* \"#utility.yul\":10589:10598   */\n      dup3\n        /* \"#utility.yul\":10585:10603   */\n      add\n        /* \"#utility.yul\":10577:10603   */\n      swap1\n      pop\n        /* \"#utility.yul\":10649:10658   */\n      dup2\n        /* \"#utility.yul\":10643:10647   */\n      dup2\n        /* \"#utility.yul\":10639:10659   */\n      sub\n        /* \"#utility.yul\":10635:10636   */\n      0x00\n        /* \"#utility.yul\":10624:10633   */\n      dup4\n        /* \"#utility.yul\":10620:10637   */\n      add\n        /* \"#utility.yul\":10613:10660   */\n      mstore\n        /* \"#utility.yul\":10677:10808   */\n      tag_288\n        /* \"#utility.yul\":10803:10807   */\n      dup2\n        /* \"#utility.yul\":10677:10808   */\n      tag_166\n      jump\t// in\n    tag_288:\n        /* \"#utility.yul\":10669:10808   */\n      swap1\n      pop\n        /* \"#utility.yul\":10396:10815   */\n      swap2\n      swap1\n      pop\n      jump\t// out\n        /* \"#utility.yul\":10821:11001   */\n    tag_167:\n        /* \"#utility.yul\":10869:10946   */\n      0x4e487b7100000000000000000000000000000000000000000000000000000000\n        /* \"#utility.yul\":10866:10867   */\n      0x00\n        /* \"#utility.yul\":10859:10947   */\n      mstore\n        /* \"#utility.yul\":10966:10970   */\n      0x11\n        /* \"#utility.yul\":10963:10964   */\n      0x04\n        /* \"#utility.yul\":10956:10971   */\n      mstore\n        /* \"#utility.yul\":10990:10994   */\n      0x24\n        /* \"#utility.yul\":10987:10988   */\n      0x00\n        /* \"#utility.yul\":10980:10995   */\n      revert\n        /* \"#utility.yul\":11007:11312   */\n    tag_109:\n        /* \"#utility.yul\":11047:11050   */\n      0x00\n        /* \"#utility.yul\":11066:11086   */\n      tag_291\n        /* \"#utility.yul\":11084:11085   */\n      dup3\n        /* \"#utility.yul\":11066:11086   */\n      tag_143\n      jump\t// in\n    tag_291:\n        /* \"#utility.yul\":11061:11086   */\n      swap2\n      pop\n        /* \"#utility.yul\":11100:11120   */\n      tag_292\n        /* \"#utility.yul\":11118:11119   */\n      dup4\n        /* \"#utility.yul\":11100:11120   */\n      tag_143\n      jump\t// in\n    tag_292:\n        /* \"#utility.yul\":11095:11120   */\n      swap3\n      pop\n        /* \"#utility.yul\":11254:11255   */\n      dup3\n        /* \"#utility.yul\":11186:11252   */\n      0xffffffffffffffffffffffffffffffffffffffffffffffffffffffffffffffff\n        /* \"#utility.yul\":11182:11256   */\n      sub\n        /* \"#utility.yul\":11179:11180   */\n      dup3\n        /* \"#utility.yul\":11176:11257   */\n      gt\n        /* \"#utility.yul\":11173:11280   */\n      iszero\n      tag_293\n      jumpi\n        /* \"#utility.yul\":11260:11278   */\n      tag_294\n      tag_167\n      jump\t// in\n    tag_294:\n        /* \"#utility.yul\":11173:11280   */\n    tag_293:\n        /* \"#utility.yul\":11304:11305   */\n      dup3\n        /* \"#utility.yul\":11301:11302   */\n      dup3\n        /* \"#utility.yul\":11297:11306   */\n      add\n        /* \"#utility.yul\":11290:11306   */\n      swap1\n      pop\n        /* \"#utility.yul\":11007:11312   */\n      swap3\n      swap2\n      pop\n      pop\n      jump\t// out\n        /* \"#utility.yul\":11318:11467   */\n    tag_168:\n        /* \"#utility.yul\":11354:11361   */\n      0x00\n        /* \"#utility.yul\":11394:11460   */\n      0xffffffff00000000000000000000000000000000000000000000000000000000\n        /* \"#utility.yul\":11387:11392   */\n      dup3\n        /* \"#utility.yul\":11383:11461   */\n      and\n        /* \"#utility.yul\":11372:11461   */\n      swap1\n      pop\n        /* \"#utility.yul\":11318:11467   */\n      swap2\n      swap1\n      pop\n      jump\t// out\n        /* \"#utility.yul\":11473:11588   */\n    tag_169:\n        /* \"#utility.yul\":11558:11581   */\n      tag_297\n        /* \"#utility.yul\":11575:11580   */\n      dup2\n        /* \"#utility.yul\":11558:11581   */\n      tag_168\n      jump\t// in\n    tag_297:\n        /* \"#utility.yul\":11553:11556   */\n      dup3\n        /* \"#utility.yul\":11546:11582   */\n      mstore\n        /* \"#utility.yul\":11473:11588   */\n      pop\n      pop\n      jump\t// out\n        /* \"#utility.yul\":11594:11692   */\n    tag_170:\n        /* \"#utility.yul\":11645:11651   */\n      0x00\n        /* \"#utility.yul\":11679:11684   */\n      dup2\n        /* \"#utility.yul\":11673:11685   */\n      mload\n        /* \"#utility.yul\":11663:11685   */\n      swap1\n      pop\n        /* \"#utility.yul\":11594:11692   */\n      swap2\n      swap1\n      pop\n      jump\t// out\n        /* \"#utility.yul\":11698:11866   */\n    tag_171:\n        /* \"#utility.yul\":11781:11792   */\n      0x00\n        /* \"#utility.yul\":11815:11821   */\n      dup3\n        /* \"#utility.yul\":11810:11813   */\n      dup3\n        /* \"#utility.yul\":11803:11822   */\n      mstore\n        /* \"#utility.yul\":11855:11859   */\n      0x20\n        /* \"#utility.yul\":11850:11853   */\n      dup3\n        /* \"#utility.yul\":11846:11860   */\n      add\n        /* \"#utility.yul\":11831:11860   */\n      swap1\n      pop\n        /* \"#utility.yul\":11698:11866   */\n      swap3\n      swap2\n      pop\n      pop\n      jump\t// out\n        /* \"#utility.yul\":11872:12179   */\n    tag_172:\n        /* \"#utility.yul\":11940:11941   */\n      0x00\n        /* \"#utility.yul\":11950:12063   */\n    tag_301:\n        /* \"#utility.yul\":11964:11970   */\n      dup4\n        /* \"#utility.yul\":11961:11962   */\n      dup2\n        /* \"#utility.yul\":11958:11971   */\n      lt\n        /* \"#utility.yul\":11950:12063   */\n      iszero\n      tag_303\n      jumpi\n        /* \"#utility.yul\":12049:12050   */\n      dup1\n        /* \"#utility.yul\":12044:12047   */\n      dup3\n        /* \"#utility.yul\":12040:12051   */\n      add\n        /* \"#utility.yul\":12034:12052   */\n      mload\n        /* \"#utility.yul\":12030:12031   */\n      dup2\n        /* \"#utility.yul\":12025:12028   */\n      dup5\n        /* \"#utility.yul\":12021:12032   */\n      add\n        /* \"#utility.yul\":12014:12053   */\n      mstore\n        /* \"#utility.yul\":11986:11988   */\n      0x20\n        /* \"#utility.yul\":11983:11984   */\n      dup2\n        /* \"#utility.yul\":11979:11989   */\n      add\n        /* \"#utility.yul\":11974:11989   */\n      swap1\n      pop\n        /* \"#utility.yul\":11950:12063   */\n      jump(tag_301)\n    tag_303:\n        /* \"#utility.yul\":12081:12087   */\n      dup4\n        /* \"#utility.yul\":12078:12079   */\n      dup2\n        /* \"#utility.yul\":12075:12088   */\n      gt\n        /* \"#utility.yul\":12072:12173   */\n      iszero\n      tag_304\n      jumpi\n        /* \"#utility.yul\":12161:12162   */\n      0x00\n        /* \"#utility.yul\":12152:12158   */\n      dup5\n        /* \"#utility.yul\":12147:12150   */\n      dup5\n        /* \"#utility.yul\":12143:12159   */\n      add\n        /* \"#utility.yul\":12136:12163   */\n      mstore\n        /* \"#utility.yul\":12072:12173   */\n    tag_304:\n        /* \"#utility.yul\":11921:12179   */\n      pop\n        /* \"#utility.yul\":11872:12179   */\n      pop\n      pop\n      pop\n      jump\t// out\n        /* \"#utility.yul\":12185:12287   */\n    tag_173:\n        /* \"#utility.yul\":12226:12232   */\n      0x00\n        /* \"#utility.yul\":12277:12279   */\n      0x1f\n        /* \"#utility.yul\":12273:12280   */\n      not\n        /* \"#utility.yul\":12268:12270   */\n      0x1f\n        /* \"#utility.yul\":12261:12266   */\n      dup4\n        /* \"#utility.yul\":12257:12271   */\n      add\n        /* \"#utility.yul\":12253:12281   */\n      and\n        /* \"#utility.yul\":12243:12281   */\n      swap1\n      pop\n        /* \"#utility.yul\":12185:12287   */\n      swap2\n      swap1\n      pop\n      jump\t// out\n        /* \"#utility.yul\":12293:12653   */\n    tag_174:\n        /* \"#utility.yul\":12379:12382   */\n      0x00\n        /* \"#utility.yul\":12407:12445   */\n      tag_307\n        /* \"#utility.yul\":12439:12444   */\n      dup3\n        /* \"#utility.yul\":12407:12445   */\n      tag_170\n      jump\t// in\n    tag_307:\n        /* \"#utility.yul\":12461:12531   */\n      tag_308\n        /* \"#utility.yul\":12524:12530   */\n      dup2\n        /* \"#utility.yul\":12519:12522   */\n      dup6\n        /* \"#utility.yul\":12461:12531   */\n      tag_171\n      jump\t// in\n    tag_308:\n        /* \"#utility.yul\":12454:12531   */\n      swap4\n      pop\n        /* \"#utility.yul\":12540:12592   */\n      tag_309\n        /* \"#utility.yul\":12585:12591   */\n      dup2\n        /* \"#utility.yul\":12580:12583   */\n      dup6\n        /* \"#utility.yul\":12573:12577   */\n      0x20\n        /* \"#utility.yul\":12566:12571   */\n      dup7\n        /* \"#utility.yul\":12562:12578   */\n      add\n        /* \"#utility.yul\":12540:12592   */\n      tag_172\n      jump\t// in\n    tag_309:\n        /* \"#utility.yul\":12617:12646   */\n      tag_310\n        /* \"#utility.yul\":12639:12645   */\n      dup2\n        /* \"#utility.yul\":12617:12646   */\n      tag_173\n      jump\t// in\n    tag_310:\n        /* \"#utility.yul\":12612:12615   */\n      dup5\n        /* \"#utility.yul\":12608:12647   */\n      add\n        /* \"#utility.yul\":12601:12647   */\n      swap2\n      pop\n        /* \"#utility.yul\":12383:12653   */\n      pop\n        /* \"#utility.yul\":12293:12653   */\n      swap3\n      swap2\n      pop\n      pop\n      jump\t// out\n        /* \"#utility.yul\":12659:13739   */\n    tag_111:\n        /* \"#utility.yul\":12964:12968   */\n      0x00\n        /* \"#utility.yul\":13002:13005   */\n      0x0100\n        /* \"#utility.yul\":12991:13000   */\n      dup3\n        /* \"#utility.yul\":12987:13006   */\n      add\n        /* \"#utility.yul\":12979:13006   */\n      swap1\n      pop\n        /* \"#utility.yul\":13016:13087   */\n      tag_312\n        /* \"#utility.yul\":13084:13085   */\n      0x00\n        /* \"#utility.yul\":13073:13082   */\n      dup4\n        /* \"#utility.yul\":13069:13086   */\n      add\n        /* \"#utility.yul\":13060:13066   */\n      dup12\n        /* \"#utility.yul\":13016:13087   */\n      tag_149\n      jump\t// in\n    tag_312:\n        /* \"#utility.yul\":13097:13169   */\n      tag_313\n        /* \"#utility.yul\":13165:13167   */\n      0x20\n        /* \"#utility.yul\":13154:13163   */\n      dup4\n        /* \"#utility.yul\":13150:13168   */\n      add\n        /* \"#utility.yul\":13141:13147   */\n      dup11\n        /* \"#utility.yul\":13097:13169   */\n      tag_146\n      jump\t// in\n    tag_313:\n        /* \"#utility.yul\":13179:13251   */\n      tag_314\n        /* \"#utility.yul\":13247:13249   */\n      0x40\n        /* \"#utility.yul\":13236:13245   */\n      dup4\n        /* \"#utility.yul\":13232:13250   */\n      add\n        /* \"#utility.yul\":13223:13229   */\n      dup10\n        /* \"#utility.yul\":13179:13251   */\n      tag_137\n      jump\t// in\n    tag_314:\n        /* \"#utility.yul\":13261:13333   */\n      tag_315\n        /* \"#utility.yul\":13329:13331   */\n      0x60\n        /* \"#utility.yul\":13318:13327   */\n      dup4\n        /* \"#utility.yul\":13314:13332   */\n      add\n        /* \"#utility.yul\":13305:13311   */\n      dup9\n        /* \"#utility.yul\":13261:13333   */\n      tag_149\n      jump\t// in\n    tag_315:\n        /* \"#utility.yul\":13343:13414   */\n      tag_316\n        /* \"#utility.yul\":13409:13412   */\n      0x80\n        /* \"#utility.yul\":13398:13407   */\n      dup4\n        /* \"#utility.yul\":13394:13413   */\n      add\n        /* \"#utility.yul\":13385:13391   */\n      dup8\n        /* \"#utility.yul\":13343:13414   */\n      tag_169\n      jump\t// in\n    tag_316:\n        /* \"#utility.yul\":13424:13497   */\n      tag_317\n        /* \"#utility.yul\":13492:13495   */\n      0xa0\n        /* \"#utility.yul\":13481:13490   */\n      dup4\n        /* \"#utility.yul\":13477:13496   */\n      add\n        /* \"#utility.yul\":13468:13474   */\n      dup7\n        /* \"#utility.yul\":13424:13497   */\n      tag_146\n      jump\t// in\n    tag_317:\n        /* \"#utility.yul\":13507:13580   */\n      tag_318\n        /* \"#utility.yul\":13575:13578   */\n      0xc0\n        /* \"#utility.yul\":13564:13573   */\n      dup4\n        /* \"#utility.yul\":13560:13579   */\n      add\n        /* \"#utility.yul\":13551:13557   */\n      dup6\n        /* \"#utility.yul\":13507:13580   */\n      tag_146\n      jump\t// in\n    tag_318:\n        /* \"#utility.yul\":13628:13637   */\n      dup2\n        /* \"#utility.yul\":13622:13626   */\n      dup2\n        /* \"#utility.yul\":13618:13638   */\n      sub\n        /* \"#utility.yul\":13612:13615   */\n      0xe0\n        /* \"#utility.yul\":13601:13610   */\n      dup4\n        /* \"#utility.yul\":13597:13616   */\n      add\n        /* \"#utility.yul\":13590:13639   */\n      mstore\n        /* \"#utility.yul\":13656:13732   */\n      tag_319\n        /* \"#utility.yul\":13727:13731   */\n      dup2\n        /* \"#utility.yul\":13718:13724   */\n      dup5\n        /* \"#utility.yul\":13656:13732   */\n      tag_174\n      jump\t// in\n    tag_319:\n        /* \"#utility.yul\":13648:13732   */\n      swap1\n      pop\n        /* \"#utility.yul\":12659:13739   */\n      swap10\n      swap9\n      pop\n      pop\n      pop\n      pop\n      pop\n      pop\n      pop\n      pop\n      pop\n      jump\t// out\n        /* \"#utility.yul\":13745:13925   */\n    tag_175:\n        /* \"#utility.yul\":13793:13870   */\n      0x4e487b7100000000000000000000000000000000000000000000000000000000\n        /* \"#utility.yul\":13790:13791   */\n      0x00\n        /* \"#utility.yul\":13783:13871   */\n      mstore\n        /* \"#utility.yul\":13890:13894   */\n      0x12\n        /* \"#utility.yul\":13887:13888   */\n      0x04\n        /* \"#utility.yul\":13880:13895   */\n      mstore\n        /* \"#utility.yul\":13914:13918   */\n      0x24\n        /* \"#utility.yul\":13911:13912   */\n      0x00\n        /* \"#utility.yul\":13904:13919   */\n      revert\n        /* \"#utility.yul\":13931:14107   */\n    tag_118:\n        /* \"#utility.yul\":13963:13964   */\n      0x00\n        /* \"#utility.yul\":13980:14000   */\n      tag_322\n        /* \"#utility.yul\":13998:13999   */\n      dup3\n        /* \"#utility.yul\":13980:14000   */\n      tag_143\n      jump\t// in\n    tag_322:\n        /* \"#utility.yul\":13975:14000   */\n      swap2\n      pop\n        /* \"#utility.yul\":14014:14034   */\n      tag_323\n        /* \"#utility.yul\":14032:14033   */\n      dup4\n        /* \"#utility.yul\":14014:14034   */\n      tag_143\n      jump\t// in\n    tag_323:\n        /* \"#utility.yul\":14009:14034   */\n      swap3\n      pop\n        /* \"#utility.yul\":14053:14054   */\n      dup3\n        /* \"#utility.yul\":14043:14078   */\n      tag_324\n      jumpi\n        /* \"#utility.yul\":14058:14076   */\n      tag_325\n      tag_175\n      jump\t// in\n    tag_325:\n        /* \"#utility.yul\":14043:14078   */\n    tag_324:\n        /* \"#utility.yul\":14099:14100   */\n      dup3\n        /* \"#utility.yul\":14096:14097   */\n      dup3\n        /* \"#utility.yul\":14092:14101   */\n      mod\n        /* \"#utility.yul\":14087:14101   */\n      swap1\n      pop\n        /* \"#utility.yul\":13931:14107   */\n      swap3\n      swap2\n      pop\n      pop\n      jump\t// out\n        /* \"#utility.yul\":14113:14304   */\n    tag_122:\n        /* \"#utility.yul\":14153:14157   */\n      0x00\n        /* \"#utility.yul\":14173:14193   */\n      tag_327\n        /* \"#utility.yul\":14191:14192   */\n      dup3\n        /* \"#utility.yul\":14173:14193   */\n      tag_143\n      jump\t// in\n    tag_327:\n        /* \"#utility.yul\":14168:14193   */\n      swap2\n      pop\n        /* \"#utility.yul\":14207:14227   */\n      tag_328\n        /* \"#utility.yul\":14225:14226   */\n      dup4\n        /* \"#utility.yul\":14207:14227   */\n      tag_143\n      jump\t// in\n    tag_328:\n        /* \"#utility.yul\":14202:14227   */\n      swap3\n      pop\n        /* \"#utility.yul\":14246:14247   */\n      dup3\n        /* \"#utility.yul\":14243:14244   */\n      dup3\n        /* \"#utility.yul\":14240:14248   */\n      lt\n        /* \"#utility.yul\":14237:14271   */\n      iszero\n      tag_329\n      jumpi\n        /* \"#utility.yul\":14251:14269   */\n      tag_330\n      tag_167\n      jump\t// in\n    tag_330:\n        /* \"#utility.yul\":14237:14271   */\n    tag_329:\n        /* \"#utility.yul\":14296:14297   */\n      dup3\n        /* \"#utility.yul\":14293:14294   */\n      dup3\n        /* \"#utility.yul\":14289:14298   */\n      sub\n        /* \"#utility.yul\":14281:14298   */\n      swap1\n      pop\n        /* \"#utility.yul\":14113:14304   */\n      swap3\n      swap2\n      pop\n      pop\n      jump\t// out\n        /* \"#utility.yul\":14310:14370   */\n    tag_176:\n        /* \"#utility.yul\":14338:14341   */\n      0x00\n        /* \"#utility.yul\":14359:14364   */\n      dup2\n        /* \"#utility.yul\":14352:14364   */\n      swap1\n      pop\n        /* \"#utility.yul\":14310:14370   */\n      swap2\n      swap1\n      pop\n      jump\t// out\n        /* \"#utility.yul\":14376:14518   */\n    tag_177:\n        /* \"#utility.yul\":14426:14435   */\n      0x00\n        /* \"#utility.yul\":14459:14512   */\n      tag_333\n        /* \"#utility.yul\":14477:14511   */\n      tag_334\n        /* \"#utility.yul\":14486:14510   */\n      tag_335\n        /* \"#utility.yul\":14504:14509   */\n      dup5\n        /* \"#utility.yul\":14486:14510   */\n      tag_147\n      jump\t// in\n    tag_335:\n        /* \"#utility.yul\":14477:14511   */\n      tag_176\n      jump\t// in\n    tag_334:\n        /* \"#utility.yul\":14459:14512   */\n      tag_147\n      jump\t// in\n    tag_333:\n        /* \"#utility.yul\":14446:14512   */\n      swap1\n      pop\n        /* \"#utility.yul\":14376:14518   */\n      swap2\n      swap1\n      pop\n      jump\t// out\n        /* \"#utility.yul\":14524:14650   */\n    tag_178:\n        /* \"#utility.yul\":14574:14583   */\n      0x00\n        /* \"#utility.yul\":14607:14644   */\n      tag_337\n        /* \"#utility.yul\":14638:14643   */\n      dup3\n        /* \"#utility.yul\":14607:14644   */\n      tag_177\n      jump\t// in\n    tag_337:\n        /* \"#utility.yul\":14594:14644   */\n      swap1\n      pop\n        /* \"#utility.yul\":14524:14650   */\n      swap2\n      swap1\n      pop\n      jump\t// out\n        /* \"#utility.yul\":14656:14805   */\n    tag_179:\n        /* \"#utility.yul\":14729:14738   */\n      0x00\n        /* \"#utility.yul\":14762:14799   */\n      tag_339\n        /* \"#utility.yul\":14793:14798   */\n      dup3\n        /* \"#utility.yul\":14762:14799   */\n      tag_178\n      jump\t// in\n    tag_339:\n        /* \"#utility.yul\":14749:14799   */\n      swap1\n      pop\n        /* \"#utility.yul\":14656:14805   */\n      swap2\n      swap1\n      pop\n      jump\t// out\n        /* \"#utility.yul\":14811:14905   */\n    tag_180:\n        /* \"#utility.yul\":14844:14852   */\n      0x00\n        /* \"#utility.yul\":14892:14897   */\n      dup2\n        /* \"#utility.yul\":14888:14890   */\n      0x60\n        /* \"#utility.yul\":14884:14898   */\n      shl\n        /* \"#utility.yul\":14863:14898   */\n      swap1\n      pop\n        /* \"#utility.yul\":14811:14905   */\n      swap2\n      swap1\n      pop\n      jump\t// out\n        /* \"#utility.yul\":14911:15005   */\n    tag_181:\n        /* \"#utility.yul\":14950:14957   */\n      0x00\n        /* \"#utility.yul\":14979:14999   */\n      tag_342\n        /* \"#utility.yul\":14993:14998   */\n      dup3\n        /* \"#utility.yul\":14979:14999   */\n      tag_180\n      jump\t// in\n    tag_342:\n        /* \"#utility.yul\":14968:14999   */\n      swap1\n      pop\n        /* \"#utility.yul\":14911:15005   */\n      swap2\n      swap1\n      pop\n      jump\t// out\n        /* \"#utility.yul\":15011:15111   */\n    tag_182:\n        /* \"#utility.yul\":15050:15057   */\n      0x00\n        /* \"#utility.yul\":15079:15105   */\n      tag_344\n        /* \"#utility.yul\":15099:15104   */\n      dup3\n        /* \"#utility.yul\":15079:15105   */\n      tag_181\n      jump\t// in\n    tag_344:\n        /* \"#utility.yul\":15068:15105   */\n      swap1\n      pop\n        /* \"#utility.yul\":15011:15111   */\n      swap2\n      swap1\n      pop\n      jump\t// out\n        /* \"#utility.yul\":15117:15333   */\n    tag_183:\n        /* \"#utility.yul\":15245:15326   */\n      tag_346\n        /* \"#utility.yul\":15265:15325   */\n      tag_347\n        /* \"#utility.yul\":15319:15324   */\n      dup3\n        /* \"#utility.yul\":15265:15325   */\n      tag_179\n      jump\t// in\n    tag_347:\n        /* \"#utility.yul\":15245:15326   */\n      tag_182\n      jump\t// in\n    tag_346:\n        /* \"#utility.yul\":15240:15243   */\n      dup3\n        /* \"#utility.yul\":15233:15327   */\n      mstore\n        /* \"#utility.yul\":15117:15333   */\n      pop\n      pop\n      jump\t// out\n        /* \"#utility.yul\":15339:15418   */\n    tag_184:\n        /* \"#utility.yul\":15378:15385   */\n      0x00\n        /* \"#utility.yul\":15407:15412   */\n      dup2\n        /* \"#utility.yul\":15396:15412   */\n      swap1\n      pop\n        /* \"#utility.yul\":15339:15418   */\n      swap2\n      swap1\n      pop\n      jump\t// out\n        /* \"#utility.yul\":15424:15581   */\n    tag_185:\n        /* \"#utility.yul\":15529:15574   */\n      tag_350\n        /* \"#utility.yul\":15549:15573   */\n      tag_351\n        /* \"#utility.yul\":15567:15572   */\n      dup3\n        /* \"#utility.yul\":15549:15573   */\n      tag_143\n      jump\t// in\n    tag_351:\n        /* \"#utility.yul\":15529:15574   */\n      tag_184\n      jump\t// in\n    tag_350:\n        /* \"#utility.yul\":15524:15527   */\n      dup3\n        /* \"#utility.yul\":15517:15575   */\n      mstore\n        /* \"#utility.yul\":15424:15581   */\n      pop\n      pop\n      jump\t// out\n        /* \"#utility.yul\":15587:16030   */\n    tag_126:\n        /* \"#utility.yul\":15750:15753   */\n      0x00\n        /* \"#utility.yul\":15765:15863   */\n      tag_353\n        /* \"#utility.yul\":15859:15862   */\n      dup3\n        /* \"#utility.yul\":15850:15856   */\n      dup6\n        /* \"#utility.yul\":15765:15863   */\n      tag_183\n      jump\t// in\n    tag_353:\n        /* \"#utility.yul\":15888:15890   */\n      0x14\n        /* \"#utility.yul\":15883:15886   */\n      dup3\n        /* \"#utility.yul\":15879:15891   */\n      add\n        /* \"#utility.yul\":15872:15891   */\n      swap2\n      pop\n        /* \"#utility.yul\":15901:15976   */\n      tag_354\n        /* \"#utility.yul\":15972:15975   */\n      dup3\n        /* \"#utility.yul\":15963:15969   */\n      dup5\n        /* \"#utility.yul\":15901:15976   */\n      tag_185\n      jump\t// in\n    tag_354:\n        /* \"#utility.yul\":16001:16003   */\n      0x20\n        /* \"#utility.yul\":15996:15999   */\n      dup3\n        /* \"#utility.yul\":15992:16004   */\n      add\n        /* \"#utility.yul\":15985:16004   */\n      swap2\n      pop\n        /* \"#utility.yul\":16021:16024   */\n      dup2\n        /* \"#utility.yul\":16014:16024   */\n      swap1\n      pop\n        /* \"#utility.yul\":15587:16030   */\n      swap4\n      swap3\n      pop\n      pop\n      pop\n      jump\t// out\n        /* \"#utility.yul\":16036:16565   */\n    tag_128:\n        /* \"#utility.yul\":16203:16207   */\n      0x00\n        /* \"#utility.yul\":16241:16243   */\n      0x60\n        /* \"#utility.yul\":16230:16239   */\n      dup3\n        /* \"#utility.yul\":16226:16244   */\n      add\n        /* \"#utility.yul\":16218:16244   */\n      swap1\n      pop\n        /* \"#utility.yul\":16254:16325   */\n      tag_356\n        /* \"#utility.yul\":16322:16323   */\n      0x00\n        /* \"#utility.yul\":16311:16320   */\n      dup4\n        /* \"#utility.yul\":16307:16324   */\n      add\n        /* \"#utility.yul\":16298:16304   */\n      dup7\n        /* \"#utility.yul\":16254:16325   */\n      tag_149\n      jump\t// in\n    tag_356:\n        /* \"#utility.yul\":16335:16407   */\n      tag_357\n        /* \"#utility.yul\":16403:16405   */\n      0x20\n        /* \"#utility.yul\":16392:16401   */\n      dup4\n        /* \"#utility.yul\":16388:16406   */\n      add\n        /* \"#utility.yul\":16379:16385   */\n      dup6\n        /* \"#utility.yul\":16335:16407   */\n      tag_146\n      jump\t// in\n    tag_357:\n        /* \"#utility.yul\":16454:16463   */\n      dup2\n        /* \"#utility.yul\":16448:16452   */\n      dup2\n        /* \"#utility.yul\":16444:16464   */\n      sub\n        /* \"#utility.yul\":16439:16441   */\n      0x40\n        /* \"#utility.yul\":16428:16437   */\n      dup4\n        /* \"#utility.yul\":16424:16442   */\n      add\n        /* \"#utility.yul\":16417:16465   */\n      mstore\n        /* \"#utility.yul\":16482:16558   */\n      tag_358\n        /* \"#utility.yul\":16553:16557   */\n      dup2\n        /* \"#utility.yul\":16544:16550   */\n      dup5\n        /* \"#utility.yul\":16482:16558   */\n      tag_174\n      jump\t// in\n    tag_358:\n        /* \"#utility.yul\":16474:16558   */\n      swap1\n      pop\n        /* \"#utility.yul\":16036:16565   */\n      swap5\n      swap4\n      pop\n      pop\n      pop\n      pop\n      jump\t// out\n        /* \"#utility.yul\":16571:16793   */\n    tag_186:\n        /* \"#utility.yul\":16711:16745   */\n      0x756e61626c6520746f207472616e73666572416e6443616c6c20746f206f7261\n        /* \"#utility.yul\":16707:16708   */\n      0x00\n        /* \"#utility.yul\":16699:16705   */\n      dup3\n        /* \"#utility.yul\":16695:16709   */\n      add\n        /* \"#utility.yul\":16688:16746   */\n      mstore\n        /* \"#utility.yul\":16780:16785   */\n      0x636c650000000000000000000000000000000000000000000000000000000000\n        /* \"#utility.yul\":16775:16777   */\n      0x20\n        /* \"#utility.yul\":16767:16773   */\n      dup3\n        /* \"#utility.yul\":16763:16778   */\n      add\n        /* \"#utility.yul\":16756:16786   */\n      mstore\n        /* \"#utility.yul\":16571:16793   */\n      pop\n      jump\t// out\n        /* \"#utility.yul\":16799:17165   */\n    tag_187:\n        /* \"#utility.yul\":16941:16944   */\n      0x00\n        /* \"#utility.yul\":16962:17029   */\n      tag_361\n        /* \"#utility.yul\":17026:17028   */\n      0x23\n        /* \"#utility.yul\":17021:17024   */\n      dup4\n        /* \"#utility.yul\":16962:17029   */\n      tag_152\n      jump\t// in\n    tag_361:\n        /* \"#utility.yul\":16955:17029   */\n      swap2\n      pop\n        /* \"#utility.yul\":17038:17131   */\n      tag_362\n        /* \"#utility.yul\":17127:17130   */\n      dup3\n        /* \"#utility.yul\":17038:17131   */\n      tag_186\n      jump\t// in\n    tag_362:\n        /* \"#utility.yul\":17156:17158   */\n      0x40\n        /* \"#utility.yul\":17151:17154   */\n      dup3\n        /* \"#utility.yul\":17147:17159   */\n      add\n        /* \"#utility.yul\":17140:17159   */\n      swap1\n      pop\n        /* \"#utility.yul\":16799:17165   */\n      swap2\n      swap1\n      pop\n      jump\t// out\n        /* \"#utility.yul\":17171:17590   */\n    tag_134:\n        /* \"#utility.yul\":17337:17341   */\n      0x00\n        /* \"#utility.yul\":17375:17377   */\n      0x20\n        /* \"#utility.yul\":17364:17373   */\n      dup3\n        /* \"#utility.yul\":17360:17378   */\n      add\n        /* \"#utility.yul\":17352:17378   */\n      swap1\n      pop\n        /* \"#utility.yul\":17424:17433   */\n      dup2\n        /* \"#utility.yul\":17418:17422   */\n      dup2\n        /* \"#utility.yul\":17414:17434   */\n      sub\n        /* \"#utility.yul\":17410:17411   */\n      0x00\n        /* \"#utility.yul\":17399:17408   */\n      dup4\n        /* \"#utility.yul\":17395:17412   */\n      add\n        /* \"#utility.yul\":17388:17435   */\n      mstore\n        /* \"#utility.yul\":17452:17583   */\n      tag_364\n        /* \"#utility.yul\":17578:17582   */\n      dup2\n        /* \"#utility.yul\":17452:17583   */\n      tag_187\n      jump\t// in\n    tag_364:\n        /* \"#utility.yul\":17444:17583   */\n      swap1\n      pop\n        /* \"#utility.yul\":17171:17590   */\n      swap2\n      swap1\n      pop\n      jump\t// out\n\n    auxdata: 0xa26469706673582212206d3c78e440235ebc6aab47e5b7dd46578971829bac0219ce1390d3efbafbdaba64736f6c634300080d0033\n}\n",
				"bytecode": {
					"linkReferences": {},
					"object": "608060405260016004553480156200001657600080fd5b50338060008073ffffffffffffffffffffffffffffffffffffffff168273ffffffffffffffffffffffffffffffffffffffff16036200008c576040517f08c379a00000000000000000000000000000000000000000000000000000000081526004016200008390620003d3565b60405180910390fd5b81600660006101000a81548173ffffffffffffffffffffffffffffffffffffffff021916908373ffffffffffffffffffffffffffffffffffffffff160217905550600073ffffffffffffffffffffffffffffffffffffffff168173ffffffffffffffffffffffffffffffffffffffff161462000114576200011381620001b960201b60201c565b5b5050506200013c73326c977e6efc84e512bb9c30f76e30c160ed06fb620002ea60201b60201c565b6200016173cc79157eb46f5624204f47ab42b3906caa40eab76200032e60201b60201c565b7f3732323361636264303136353432383238363562363738393234313236303133600b81905550600a670de0b6b3a76400006001620001a191906200042e565b620001ad9190620004be565b600c8190555062000568565b3373ffffffffffffffffffffffffffffffffffffffff168173ffffffffffffffffffffffffffffffffffffffff16036200022a576040517f08c379a0000000000000000000000000000000000000000000000000000000008152600401620002219062000546565b60405180910390fd5b80600760006101000a81548173ffffffffffffffffffffffffffffffffffffffff021916908373ffffffffffffffffffffffffffffffffffffffff1602179055508073ffffffffffffffffffffffffffffffffffffffff16600660009054906101000a900473ffffffffffffffffffffffffffffffffffffffff1673ffffffffffffffffffffffffffffffffffffffff167fed8889f560326eb138920d842192f0eb3dd22b4f139c87a2c57538e05bae127860405160405180910390a350565b80600260006101000a81548173ffffffffffffffffffffffffffffffffffffffff021916908373ffffffffffffffffffffffffffffffffffffffff16021790555050565b80600360006101000a81548173ffffffffffffffffffffffffffffffffffffffff021916908373ffffffffffffffffffffffffffffffffffffffff16021790555050565b600082825260208201905092915050565b7f43616e6e6f7420736574206f776e657220746f207a65726f0000000000000000600082015250565b6000620003bb60188362000372565b9150620003c88262000383565b602082019050919050565b60006020820190508181036000830152620003ee81620003ac565b9050919050565b6000819050919050565b7f4e487b7100000000000000000000000000000000000000000000000000000000600052601160045260246000fd5b60006200043b82620003f5565b91506200044883620003f5565b9250817fffffffffffffffffffffffffffffffffffffffffffffffffffffffffffffffff0483118215151615620004845762000483620003ff565b5b828202905092915050565b7f4e487b7100000000000000000000000000000000000000000000000000000000600052601260045260246000fd5b6000620004cb82620003f5565b9150620004d883620003f5565b925082620004eb57620004ea6200048f565b5b828204905092915050565b7f43616e6e6f74207472616e7366657220746f2073656c66000000000000000000600082015250565b60006200052e60178362000372565b91506200053b82620004f6565b602082019050919050565b6000602082019050818103600083015262000561816200051f565b9050919050565b61162180620005786000396000f3fe608060405234801561001057600080fd5b50600436106100925760003560e01c80637a92df2d116100665780637a92df2d146100f95780638da5cb5b146101175780638dc654a214610135578063f2fde38b1461013f578063fd97ebd71461015b57610092565b80627f4d881461009757806337db7fae146100b557806349002a91146100d157806379ba5097146100ef575b600080fd5b61009f610179565b6040516100ac9190610ca2565b60405180910390f35b6100cf60048036038101906100ca9190610d24565b6101a4565b005b6100d9610301565b6040516100e69190610d9a565b60405180910390f35b6100f7610307565b005b61010161049e565b60405161010e9190610d9a565b60405180910390f35b61011f6104a4565b60405161012c9190610df6565b60405180910390f35b61013d6104ce565b005b61015960048036038101906101549190610e3d565b61061b565b005b61016361062f565b6040516101709190610d9a565b60405180910390f35b600080610190600b54306337db7fae60e01b610635565b905061019e81600c54610666565b91505090565b836005600082815260200190815260200160002060009054906101000a900473ffffffffffffffffffffffffffffffffffffffff1673ffffffffffffffffffffffffffffffffffffffff163373ffffffffffffffffffffffffffffffffffffffff1614610246576040517f08c379a000000000000000000000000000000000000000000000000000000000815260040161023d90610eed565b60405180910390fd5b6005600082815260200190815260200160002060006101000a81549073ffffffffffffffffffffffffffffffffffffffff0219169055807f7cc135e0cebb02c3480ae5d74d377283180a2601f8f644edf7987b009316c63a60405160405180910390a2847f458cd9a25f5ca29f3c8e905ff5f0063c17307ada260bf1c3481748bc1c2641808585856040516102dd93929190610f0d565b60405180910390a2836008819055508260098190555081600a819055505050505050565b60085481565b600760009054906101000a900473ffffffffffffffffffffffffffffffffffffffff1673ffffffffffffffffffffffffffffffffffffffff163373ffffffffffffffffffffffffffffffffffffffff1614610397576040517f08c379a000000000000000000000000000000000000000000000000000000000815260040161038e90610f90565b60405180910390fd5b6000600660009054906101000a900473ffffffffffffffffffffffffffffffffffffffff16905033600660006101000a81548173ffffffffffffffffffffffffffffffffffffffff021916908373ffffffffffffffffffffffffffffffffffffffff1602179055506000600760006101000a81548173ffffffffffffffffffffffffffffffffffffffff021916908373ffffffffffffffffffffffffffffffffffffffff1602179055503373ffffffffffffffffffffffffffffffffffffffff168173ffffffffffffffffffffffffffffffffffffffff167f8be0079c531659141344cd1fd0a4f28419497f9722a3daafe3b4186f6b6457e060405160405180910390a350565b60095481565b6000600660009054906101000a900473ffffffffffffffffffffffffffffffffffffffff16905090565b6104d661069d565b60006104e061072f565b90508073ffffffffffffffffffffffffffffffffffffffff1663a9059cbb338373ffffffffffffffffffffffffffffffffffffffff166370a08231306040518263ffffffff1660e01b81526004016105389190610df6565b602060405180830381865afa158015610555573d6000803e3d6000fd5b505050506040513d601f19601f820116820180604052508101906105799190610fc5565b6040518363ffffffff1660e01b8152600401610596929190610ff2565b6020604051808303816000875af11580156105b5573d6000803e3d6000fd5b505050506040513d601f19601f820116820180604052508101906105d99190611053565b610618576040517f08c379a000000000000000000000000000000000000000000000000000000000815260040161060f906110cc565b60405180910390fd5b50565b61062361069d565b61062c81610759565b50565b600a5481565b61063d610c02565b610645610c02565b61065c85858584610887909392919063ffffffff16565b9150509392505050565b6000610695600360009054906101000a900473ffffffffffffffffffffffffffffffffffffffff168484610937565b905092915050565b600660009054906101000a900473ffffffffffffffffffffffffffffffffffffffff1673ffffffffffffffffffffffffffffffffffffffff163373ffffffffffffffffffffffffffffffffffffffff161461072d576040517f08c379a000000000000000000000000000000000000000000000000000000000815260040161072490611138565b60405180910390fd5b565b6000600260009054906101000a900473ffffffffffffffffffffffffffffffffffffffff16905090565b3373ffffffffffffffffffffffffffffffffffffffff168173ffffffffffffffffffffffffffffffffffffffff16036107c7576040517f08c379a00000000000000000000000000000000000000000000000000000000081526004016107be906111a4565b60405180910390fd5b80600760006101000a81548173ffffffffffffffffffffffffffffffffffffffff021916908373ffffffffffffffffffffffffffffffffffffffff1602179055508073ffffffffffffffffffffffffffffffffffffffff16600660009054906101000a900473ffffffffffffffffffffffffffffffffffffffff1673ffffffffffffffffffffffffffffffffffffffff167fed8889f560326eb138920d842192f0eb3dd22b4f139c87a2c57538e05bae127860405160405180910390a350565b61088f610c02565b61089f8560800151610100610a03565b508385600001818152505082856020019073ffffffffffffffffffffffffffffffffffffffff16908173ffffffffffffffffffffffffffffffffffffffff16815250508185604001907bffffffffffffffffffffffffffffffffffffffffffffffffffffffff191690817bffffffffffffffffffffffffffffffffffffffffffffffffffffffff191681525050849050949350505050565b600080600454905060018161094c91906111f3565b6004819055506000634042994660e01b60008087600001513089604001518760018c608001516000015160405160240161098d98979695949392919061131d565b604051602081830303815290604052907bffffffffffffffffffffffffffffffffffffffffffffffffffffffff19166020820180517bffffffffffffffffffffffffffffffffffffffffffffffffffffffff838183161783525050505090506109f886838684610a6d565b925050509392505050565b610a0b610c6f565b6000602083610a1a91906113d1565b14610a4657602082610a2c91906113d1565b6020610a389190611402565b82610a4391906111f3565b91505b81836020018181525050604051808452600081528281016020016040525082905092915050565b60003084604051602001610a829291906114ef565b604051602081830303815290604052805190602001209050846005600083815260200190815260200160002060006101000a81548173ffffffffffffffffffffffffffffffffffffffff021916908373ffffffffffffffffffffffffffffffffffffffff160217905550807fb5e6e01e79f91267dc17b4e6314d5d4d03593d2ceee0fbb452b750bd70ea5af960405160405180910390a2600260009054906101000a900473ffffffffffffffffffffffffffffffffffffffff1673ffffffffffffffffffffffffffffffffffffffff16634000aea08685856040518463ffffffff1660e01b8152600401610b789392919061151b565b6020604051808303816000875af1158015610b97573d6000803e3d6000fd5b505050506040513d601f19601f82011682018060405250810190610bbb9190611053565b610bfa576040517f08c379a0000000000000000000000000000000000000000000000000000000008152600401610bf1906115cb565b60405180910390fd5b949350505050565b6040518060a0016040528060008019168152602001600073ffffffffffffffffffffffffffffffffffffffff16815260200160007bffffffffffffffffffffffffffffffffffffffffffffffffffffffff1916815260200160008152602001610c69610c6f565b81525090565b604051806040016040528060608152602001600081525090565b6000819050919050565b610c9c81610c89565b82525050565b6000602082019050610cb76000830184610c93565b92915050565b600080fd5b610ccb81610c89565b8114610cd657600080fd5b50565b600081359050610ce881610cc2565b92915050565b6000819050919050565b610d0181610cee565b8114610d0c57600080fd5b50565b600081359050610d1e81610cf8565b92915050565b60008060008060808587031215610d3e57610d3d610cbd565b5b6000610d4c87828801610cd9565b9450506020610d5d87828801610d0f565b9350506040610d6e87828801610d0f565b9250506060610d7f87828801610d0f565b91505092959194509250565b610d9481610cee565b82525050565b6000602082019050610daf6000830184610d8b565b92915050565b600073ffffffffffffffffffffffffffffffffffffffff82169050919050565b6000610de082610db5565b9050919050565b610df081610dd5565b82525050565b6000602082019050610e0b6000830184610de7565b92915050565b610e1a81610dd5565b8114610e2557600080fd5b50565b600081359050610e3781610e11565b92915050565b600060208284031215610e5357610e52610cbd565b5b6000610e6184828501610e28565b91505092915050565b600082825260208201905092915050565b7f536f75726365206d75737420626520746865206f7261636c65206f662074686560008201527f2072657175657374000000000000000000000000000000000000000000000000602082015250565b6000610ed7602883610e6a565b9150610ee282610e7b565b604082019050919050565b60006020820190508181036000830152610f0681610eca565b9050919050565b6000606082019050610f226000830186610d8b565b610f2f6020830185610d8b565b610f3c6040830184610d8b565b949350505050565b7f4d7573742062652070726f706f736564206f776e657200000000000000000000600082015250565b6000610f7a601683610e6a565b9150610f8582610f44565b602082019050919050565b60006020820190508181036000830152610fa981610f6d565b9050919050565b600081519050610fbf81610cf8565b92915050565b600060208284031215610fdb57610fda610cbd565b5b6000610fe984828501610fb0565b91505092915050565b60006040820190506110076000830185610de7565b6110146020830184610d8b565b9392505050565b60008115159050919050565b6110308161101b565b811461103b57600080fd5b50565b60008151905061104d81611027565b92915050565b60006020828403121561106957611068610cbd565b5b60006110778482850161103e565b91505092915050565b7f556e61626c6520746f207472616e736665720000000000000000000000000000600082015250565b60006110b6601283610e6a565b91506110c182611080565b602082019050919050565b600060208201905081810360008301526110e5816110a9565b9050919050565b7f4f6e6c792063616c6c61626c65206279206f776e657200000000000000000000600082015250565b6000611122601683610e6a565b915061112d826110ec565b602082019050919050565b6000602082019050818103600083015261115181611115565b9050919050565b7f43616e6e6f74207472616e7366657220746f2073656c66000000000000000000600082015250565b600061118e601783610e6a565b915061119982611158565b602082019050919050565b600060208201905081810360008301526111bd81611181565b9050919050565b7f4e487b7100000000000000000000000000000000000000000000000000000000600052601160045260246000fd5b60006111fe82610cee565b915061120983610cee565b9250827fffffffffffffffffffffffffffffffffffffffffffffffffffffffffffffffff0382111561123e5761123d6111c4565b5b828201905092915050565b60007fffffffff0000000000000000000000000000000000000000000000000000000082169050919050565b61127e81611249565b82525050565b600081519050919050565b600082825260208201905092915050565b60005b838110156112be5780820151818401526020810190506112a3565b838111156112cd576000848401525b50505050565b6000601f19601f8301169050919050565b60006112ef82611284565b6112f9818561128f565b93506113098185602086016112a0565b611312816112d3565b840191505092915050565b600061010082019050611333600083018b610de7565b611340602083018a610d8b565b61134d6040830189610c93565b61135a6060830188610de7565b6113676080830187611275565b61137460a0830186610d8b565b61138160c0830185610d8b565b81810360e083015261139381846112e4565b90509998505050505050505050565b7f4e487b7100000000000000000000000000000000000000000000000000000000600052601260045260246000fd5b60006113dc82610cee565b91506113e783610cee565b9250826113f7576113f66113a2565b5b828206905092915050565b600061140d82610cee565b915061141883610cee565b92508282101561142b5761142a6111c4565b5b828203905092915050565b6000819050919050565b600061145b61145661145184610db5565b611436565b610db5565b9050919050565b600061146d82611440565b9050919050565b600061147f82611462565b9050919050565b60008160601b9050919050565b600061149e82611486565b9050919050565b60006114b082611493565b9050919050565b6114c86114c382611474565b6114a5565b82525050565b6000819050919050565b6114e96114e482610cee565b6114ce565b82525050565b60006114fb82856114b7565b60148201915061150b82846114d8565b6020820191508190509392505050565b60006060820190506115306000830186610de7565b61153d6020830185610d8b565b818103604083015261154f81846112e4565b9050949350505050565b7f756e61626c6520746f207472616e73666572416e6443616c6c20746f206f726160008201527f636c650000000000000000000000000000000000000000000000000000000000602082015250565b60006115b5602383610e6a565b91506115c082611559565b604082019050919050565b600060208201905081810360008301526115e4816115a8565b905091905056fea26469706673582212206d3c78e440235ebc6aab47e5b7dd46578971829bac0219ce1390d3efbafbdaba64736f6c634300080d0033",
					"opcodes": "PUSH1 0x80 PUSH1 0x40 MSTORE PUSH1 0x1 PUSH1 0x4 SSTORE CALLVALUE DUP1 ISZERO PUSH3 0x16 JUMPI PUSH1 0x0 DUP1 REVERT JUMPDEST POP CALLER DUP1 PUSH1 0x0 DUP1 PUSH20 0xFFFFFFFFFFFFFFFFFFFFFFFFFFFFFFFFFFFFFFFF AND DUP3 PUSH20 0xFFFFFFFFFFFFFFFFFFFFFFFFFFFFFFFFFFFFFFFF AND SUB PUSH3 0x8C JUMPI PUSH1 0x40 MLOAD PUSH32 0x8C379A000000000000000000000000000000000000000000000000000000000 DUP2 MSTORE PUSH1 0x4 ADD PUSH3 0x83 SWAP1 PUSH3 0x3D3 JUMP JUMPDEST PUSH1 0x40 MLOAD DUP1 SWAP2 SUB SWAP1 REVERT JUMPDEST DUP2 PUSH1 0x6 PUSH1 0x0 PUSH2 0x100 EXP DUP2 SLOAD DUP2 PUSH20 0xFFFFFFFFFFFFFFFFFFFFFFFFFFFFFFFFFFFFFFFF MUL NOT AND SWAP1 DUP4 PUSH20 0xFFFFFFFFFFFFFFFFFFFFFFFFFFFFFFFFFFFFFFFF AND MUL OR SWAP1 SSTORE POP PUSH1 0x0 PUSH20 0xFFFFFFFFFFFFFFFFFFFFFFFFFFFFFFFFFFFFFFFF AND DUP2 PUSH20 0xFFFFFFFFFFFFFFFFFFFFFFFFFFFFFFFFFFFFFFFF AND EQ PUSH3 0x114 JUMPI PUSH3 0x113 DUP2 PUSH3 0x1B9 PUSH1 0x20 SHL PUSH1 0x20 SHR JUMP JUMPDEST JUMPDEST POP POP POP PUSH3 0x13C PUSH20 0x326C977E6EFC84E512BB9C30F76E30C160ED06FB PUSH3 0x2EA PUSH1 0x20 SHL PUSH1 0x20 SHR JUMP JUMPDEST PUSH3 0x161 PUSH20 0xCC79157EB46F5624204F47AB42B3906CAA40EAB7 PUSH3 0x32E PUSH1 0x20 SHL PUSH1 0x20 SHR JUMP JUMPDEST PUSH32 0x3732323361636264303136353432383238363562363738393234313236303133 PUSH1 0xB DUP2 SWAP1 SSTORE POP PUSH1 0xA PUSH8 0xDE0B6B3A7640000 PUSH1 0x1 PUSH3 0x1A1 SWAP2 SWAP1 PUSH3 0x42E JUMP JUMPDEST PUSH3 0x1AD SWAP2 SWAP1 PUSH3 0x4BE JUMP JUMPDEST PUSH1 0xC DUP2 SWAP1 SSTORE POP PUSH3 0x568 JUMP JUMPDEST CALLER PUSH20 0xFFFFFFFFFFFFFFFFFFFFFFFFFFFFFFFFFFFFFFFF AND DUP2 PUSH20 0xFFFFFFFFFFFFFFFFFFFFFFFFFFFFFFFFFFFFFFFF AND SUB PUSH3 0x22A JUMPI PUSH1 0x40 MLOAD PUSH32 0x8C379A000000000000000000000000000000000000000000000000000000000 DUP2 MSTORE PUSH1 0x4 ADD PUSH3 0x221 SWAP1 PUSH3 0x546 JUMP JUMPDEST PUSH1 0x40 MLOAD DUP1 SWAP2 SUB SWAP1 REVERT JUMPDEST DUP1 PUSH1 0x7 PUSH1 0x0 PUSH2 0x100 EXP DUP2 SLOAD DUP2 PUSH20 0xFFFFFFFFFFFFFFFFFFFFFFFFFFFFFFFFFFFFFFFF MUL NOT AND SWAP1 DUP4 PUSH20 0xFFFFFFFFFFFFFFFFFFFFFFFFFFFFFFFFFFFFFFFF AND MUL OR SWAP1 SSTORE POP DUP1 PUSH20 0xFFFFFFFFFFFFFFFFFFFFFFFFFFFFFFFFFFFFFFFF AND PUSH1 0x6 PUSH1 0x0 SWAP1 SLOAD SWAP1 PUSH2 0x100 EXP SWAP1 DIV PUSH20 0xFFFFFFFFFFFFFFFFFFFFFFFFFFFFFFFFFFFFFFFF AND PUSH20 0xFFFFFFFFFFFFFFFFFFFFFFFFFFFFFFFFFFFFFFFF AND PUSH32 0xED8889F560326EB138920D842192F0EB3DD22B4F139C87A2C57538E05BAE1278 PUSH1 0x40 MLOAD PUSH1 0x40 MLOAD DUP1 SWAP2 SUB SWAP1 LOG3 POP JUMP JUMPDEST DUP1 PUSH1 0x2 PUSH1 0x0 PUSH2 0x100 EXP DUP2 SLOAD DUP2 PUSH20 0xFFFFFFFFFFFFFFFFFFFFFFFFFFFFFFFFFFFFFFFF MUL NOT AND SWAP1 DUP4 PUSH20 0xFFFFFFFFFFFFFFFFFFFFFFFFFFFFFFFFFFFFFFFF AND MUL OR SWAP1 SSTORE POP POP JUMP JUMPDEST DUP1 PUSH1 0x3 PUSH1 0x0 PUSH2 0x100 EXP DUP2 SLOAD DUP2 PUSH20 0xFFFFFFFFFFFFFFFFFFFFFFFFFFFFFFFFFFFFFFFF MUL NOT AND SWAP1 DUP4 PUSH20 0xFFFFFFFFFFFFFFFFFFFFFFFFFFFFFFFFFFFFFFFF AND MUL OR SWAP1 SSTORE POP POP JUMP JUMPDEST PUSH1 0x0 DUP3 DUP3 MSTORE PUSH1 0x20 DUP3 ADD SWAP1 POP SWAP3 SWAP2 POP POP JUMP JUMPDEST PUSH32 0x43616E6E6F7420736574206F776E657220746F207A65726F0000000000000000 PUSH1 0x0 DUP3 ADD MSTORE POP JUMP JUMPDEST PUSH1 0x0 PUSH3 0x3BB PUSH1 0x18 DUP4 PUSH3 0x372 JUMP JUMPDEST SWAP2 POP PUSH3 0x3C8 DUP3 PUSH3 0x383 JUMP JUMPDEST PUSH1 0x20 DUP3 ADD SWAP1 POP SWAP2 SWAP1 POP JUMP JUMPDEST PUSH1 0x0 PUSH1 0x20 DUP3 ADD SWAP1 POP DUP2 DUP2 SUB PUSH1 0x0 DUP4 ADD MSTORE PUSH3 0x3EE DUP2 PUSH3 0x3AC JUMP JUMPDEST SWAP1 POP SWAP2 SWAP1 POP JUMP JUMPDEST PUSH1 0x0 DUP2 SWAP1 POP SWAP2 SWAP1 POP JUMP JUMPDEST PUSH32 0x4E487B7100000000000000000000000000000000000000000000000000000000 PUSH1 0x0 MSTORE PUSH1 0x11 PUSH1 0x4 MSTORE PUSH1 0x24 PUSH1 0x0 REVERT JUMPDEST PUSH1 0x0 PUSH3 0x43B DUP3 PUSH3 0x3F5 JUMP JUMPDEST SWAP2 POP PUSH3 0x448 DUP4 PUSH3 0x3F5 JUMP JUMPDEST SWAP3 POP DUP2 PUSH32 0xFFFFFFFFFFFFFFFFFFFFFFFFFFFFFFFFFFFFFFFFFFFFFFFFFFFFFFFFFFFFFFFF DIV DUP4 GT DUP3 ISZERO ISZERO AND ISZERO PUSH3 0x484 JUMPI PUSH3 0x483 PUSH3 0x3FF JUMP JUMPDEST JUMPDEST DUP3 DUP3 MUL SWAP1 POP SWAP3 SWAP2 POP POP JUMP JUMPDEST PUSH32 0x4E487B7100000000000000000000000000000000000000000000000000000000 PUSH1 0x0 MSTORE PUSH1 0x12 PUSH1 0x4 MSTORE PUSH1 0x24 PUSH1 0x0 REVERT JUMPDEST PUSH1 0x0 PUSH3 0x4CB DUP3 PUSH3 0x3F5 JUMP JUMPDEST SWAP2 POP PUSH3 0x4D8 DUP4 PUSH3 0x3F5 JUMP JUMPDEST SWAP3 POP DUP3 PUSH3 0x4EB JUMPI PUSH3 0x4EA PUSH3 0x48F JUMP JUMPDEST JUMPDEST DUP3 DUP3 DIV SWAP1 POP SWAP3 SWAP2 POP POP JUMP JUMPDEST PUSH32 0x43616E6E6F74207472616E7366657220746F2073656C66000000000000000000 PUSH1 0x0 DUP3 ADD MSTORE POP JUMP JUMPDEST PUSH1 0x0 PUSH3 0x52E PUSH1 0x17 DUP4 PUSH3 0x372 JUMP JUMPDEST SWAP2 POP PUSH3 0x53B DUP3 PUSH3 0x4F6 JUMP JUMPDEST PUSH1 0x20 DUP3 ADD SWAP1 POP SWAP2 SWAP1 POP JUMP JUMPDEST PUSH1 0x0 PUSH1 0x20 DUP3 ADD SWAP1 POP DUP2 DUP2 SUB PUSH1 0x0 DUP4 ADD MSTORE PUSH3 0x561 DUP2 PUSH3 0x51F JUMP JUMPDEST SWAP1 POP SWAP2 SWAP1 POP JUMP JUMPDEST PUSH2 0x1621 DUP1 PUSH3 0x578 PUSH1 0x0 CODECOPY PUSH1 0x0 RETURN INVALID PUSH1 0x80 PUSH1 0x40 MSTORE CALLVALUE DUP1 ISZERO PUSH2 0x10 JUMPI PUSH1 0x0 DUP1 REVERT JUMPDEST POP PUSH1 0x4 CALLDATASIZE LT PUSH2 0x92 JUMPI PUSH1 0x0 CALLDATALOAD PUSH1 0xE0 SHR DUP1 PUSH4 0x7A92DF2D GT PUSH2 0x66 JUMPI DUP1 PUSH4 0x7A92DF2D EQ PUSH2 0xF9 JUMPI DUP1 PUSH4 0x8DA5CB5B EQ PUSH2 0x117 JUMPI DUP1 PUSH4 0x8DC654A2 EQ PUSH2 0x135 JUMPI DUP1 PUSH4 0xF2FDE38B EQ PUSH2 0x13F JUMPI DUP1 PUSH4 0xFD97EBD7 EQ PUSH2 0x15B JUMPI PUSH2 0x92 JUMP JUMPDEST DUP1 PUSH3 0x7F4D88 EQ PUSH2 0x97 JUMPI DUP1 PUSH4 0x37DB7FAE EQ PUSH2 0xB5 JUMPI DUP1 PUSH4 0x49002A91 EQ PUSH2 0xD1 JUMPI DUP1 PUSH4 0x79BA5097 EQ PUSH2 0xEF JUMPI JUMPDEST PUSH1 0x0 DUP1 REVERT JUMPDEST PUSH2 0x9F PUSH2 0x179 JUMP JUMPDEST PUSH1 0x40 MLOAD PUSH2 0xAC SWAP2 SWAP1 PUSH2 0xCA2 JUMP JUMPDEST PUSH1 0x40 MLOAD DUP1 SWAP2 SUB SWAP1 RETURN JUMPDEST PUSH2 0xCF PUSH1 0x4 DUP1 CALLDATASIZE SUB DUP2 ADD SWAP1 PUSH2 0xCA SWAP2 SWAP1 PUSH2 0xD24 JUMP JUMPDEST PUSH2 0x1A4 JUMP JUMPDEST STOP JUMPDEST PUSH2 0xD9 PUSH2 0x301 JUMP JUMPDEST PUSH1 0x40 MLOAD PUSH2 0xE6 SWAP2 SWAP1 PUSH2 0xD9A JUMP JUMPDEST PUSH1 0x40 MLOAD DUP1 SWAP2 SUB SWAP1 RETURN JUMPDEST PUSH2 0xF7 PUSH2 0x307 JUMP JUMPDEST STOP JUMPDEST PUSH2 0x101 PUSH2 0x49E JUMP JUMPDEST PUSH1 0x40 MLOAD PUSH2 0x10E SWAP2 SWAP1 PUSH2 0xD9A JUMP JUMPDEST PUSH1 0x40 MLOAD DUP1 SWAP2 SUB SWAP1 RETURN JUMPDEST PUSH2 0x11F PUSH2 0x4A4 JUMP JUMPDEST PUSH1 0x40 MLOAD PUSH2 0x12C SWAP2 SWAP1 PUSH2 0xDF6 JUMP JUMPDEST PUSH1 0x40 MLOAD DUP1 SWAP2 SUB SWAP1 RETURN JUMPDEST PUSH2 0x13D PUSH2 0x4CE JUMP JUMPDEST STOP JUMPDEST PUSH2 0x159 PUSH1 0x4 DUP1 CALLDATASIZE SUB DUP2 ADD SWAP1 PUSH2 0x154 SWAP2 SWAP1 PUSH2 0xE3D JUMP JUMPDEST PUSH2 0x61B JUMP JUMPDEST STOP JUMPDEST PUSH2 0x163 PUSH2 0x62F JUMP JUMPDEST PUSH1 0x40 MLOAD PUSH2 0x170 SWAP2 SWAP1 PUSH2 0xD9A JUMP JUMPDEST PUSH1 0x40 MLOAD DUP1 SWAP2 SUB SWAP1 RETURN JUMPDEST PUSH1 0x0 DUP1 PUSH2 0x190 PUSH1 0xB SLOAD ADDRESS PUSH4 0x37DB7FAE PUSH1 0xE0 SHL PUSH2 0x635 JUMP JUMPDEST SWAP1 POP PUSH2 0x19E DUP2 PUSH1 0xC SLOAD PUSH2 0x666 JUMP JUMPDEST SWAP2 POP POP SWAP1 JUMP JUMPDEST DUP4 PUSH1 0x5 PUSH1 0x0 DUP3 DUP2 MSTORE PUSH1 0x20 ADD SWAP1 DUP2 MSTORE PUSH1 0x20 ADD PUSH1 0x0 KECCAK256 PUSH1 0x0 SWAP1 SLOAD SWAP1 PUSH2 0x100 EXP SWAP1 DIV PUSH20 0xFFFFFFFFFFFFFFFFFFFFFFFFFFFFFFFFFFFFFFFF AND PUSH20 0xFFFFFFFFFFFFFFFFFFFFFFFFFFFFFFFFFFFFFFFF AND CALLER PUSH20 0xFFFFFFFFFFFFFFFFFFFFFFFFFFFFFFFFFFFFFFFF AND EQ PUSH2 0x246 JUMPI PUSH1 0x40 MLOAD PUSH32 0x8C379A000000000000000000000000000000000000000000000000000000000 DUP2 MSTORE PUSH1 0x4 ADD PUSH2 0x23D SWAP1 PUSH2 0xEED JUMP JUMPDEST PUSH1 0x40 MLOAD DUP1 SWAP2 SUB SWAP1 REVERT JUMPDEST PUSH1 0x5 PUSH1 0x0 DUP3 DUP2 MSTORE PUSH1 0x20 ADD SWAP1 DUP2 MSTORE PUSH1 0x20 ADD PUSH1 0x0 KECCAK256 PUSH1 0x0 PUSH2 0x100 EXP DUP2 SLOAD SWAP1 PUSH20 0xFFFFFFFFFFFFFFFFFFFFFFFFFFFFFFFFFFFFFFFF MUL NOT AND SWAP1 SSTORE DUP1 PUSH32 0x7CC135E0CEBB02C3480AE5D74D377283180A2601F8F644EDF7987B009316C63A PUSH1 0x40 MLOAD PUSH1 0x40 MLOAD DUP1 SWAP2 SUB SWAP1 LOG2 DUP5 PUSH32 0x458CD9A25F5CA29F3C8E905FF5F0063C17307ADA260BF1C3481748BC1C264180 DUP6 DUP6 DUP6 PUSH1 0x40 MLOAD PUSH2 0x2DD SWAP4 SWAP3 SWAP2 SWAP1 PUSH2 0xF0D JUMP JUMPDEST PUSH1 0x40 MLOAD DUP1 SWAP2 SUB SWAP1 LOG2 DUP4 PUSH1 0x8 DUP2 SWAP1 SSTORE POP DUP3 PUSH1 0x9 DUP2 SWAP1 SSTORE POP DUP2 PUSH1 0xA DUP2 SWAP1 SSTORE POP POP POP POP POP POP JUMP JUMPDEST PUSH1 0x8 SLOAD DUP2 JUMP JUMPDEST PUSH1 0x7 PUSH1 0x0 SWAP1 SLOAD SWAP1 PUSH2 0x100 EXP SWAP1 DIV PUSH20 0xFFFFFFFFFFFFFFFFFFFFFFFFFFFFFFFFFFFFFFFF AND PUSH20 0xFFFFFFFFFFFFFFFFFFFFFFFFFFFFFFFFFFFFFFFF AND CALLER PUSH20 0xFFFFFFFFFFFFFFFFFFFFFFFFFFFFFFFFFFFFFFFF AND EQ PUSH2 0x397 JUMPI PUSH1 0x40 MLOAD PUSH32 0x8C379A000000000000000000000000000000000000000000000000000000000 DUP2 MSTORE PUSH1 0x4 ADD PUSH2 0x38E SWAP1 PUSH2 0xF90 JUMP JUMPDEST PUSH1 0x40 MLOAD DUP1 SWAP2 SUB SWAP1 REVERT JUMPDEST PUSH1 0x0 PUSH1 0x6 PUSH1 0x0 SWAP1 SLOAD SWAP1 PUSH2 0x100 EXP SWAP1 DIV PUSH20 0xFFFFFFFFFFFFFFFFFFFFFFFFFFFFFFFFFFFFFFFF AND SWAP1 POP CALLER PUSH1 0x6 PUSH1 0x0 PUSH2 0x100 EXP DUP2 SLOAD DUP2 PUSH20 0xFFFFFFFFFFFFFFFFFFFFFFFFFFFFFFFFFFFFFFFF MUL NOT AND SWAP1 DUP4 PUSH20 0xFFFFFFFFFFFFFFFFFFFFFFFFFFFFFFFFFFFFFFFF AND MUL OR SWAP1 SSTORE POP PUSH1 0x0 PUSH1 0x7 PUSH1 0x0 PUSH2 0x100 EXP DUP2 SLOAD DUP2 PUSH20 0xFFFFFFFFFFFFFFFFFFFFFFFFFFFFFFFFFFFFFFFF MUL NOT AND SWAP1 DUP4 PUSH20 0xFFFFFFFFFFFFFFFFFFFFFFFFFFFFFFFFFFFFFFFF AND MUL OR SWAP1 SSTORE POP CALLER PUSH20 0xFFFFFFFFFFFFFFFFFFFFFFFFFFFFFFFFFFFFFFFF AND DUP2 PUSH20 0xFFFFFFFFFFFFFFFFFFFFFFFFFFFFFFFFFFFFFFFF AND PUSH32 0x8BE0079C531659141344CD1FD0A4F28419497F9722A3DAAFE3B4186F6B6457E0 PUSH1 0x40 MLOAD PUSH1 0x40 MLOAD DUP1 SWAP2 SUB SWAP1 LOG3 POP JUMP JUMPDEST PUSH1 0x9 SLOAD DUP2 JUMP JUMPDEST PUSH1 0x0 PUSH1 0x6 PUSH1 0x0 SWAP1 SLOAD SWAP1 PUSH2 0x100 EXP SWAP1 DIV PUSH20 0xFFFFFFFFFFFFFFFFFFFFFFFFFFFFFFFFFFFFFFFF AND SWAP1 POP SWAP1 JUMP JUMPDEST PUSH2 0x4D6 PUSH2 0x69D JUMP JUMPDEST PUSH1 0x0 PUSH2 0x4E0 PUSH2 0x72F JUMP JUMPDEST SWAP1 POP DUP1 PUSH20 0xFFFFFFFFFFFFFFFFFFFFFFFFFFFFFFFFFFFFFFFF AND PUSH4 0xA9059CBB CALLER DUP4 PUSH20 0xFFFFFFFFFFFFFFFFFFFFFFFFFFFFFFFFFFFFFFFF AND PUSH4 0x70A08231 ADDRESS PUSH1 0x40 MLOAD DUP3 PUSH4 0xFFFFFFFF AND PUSH1 0xE0 SHL DUP2 MSTORE PUSH1 0x4 ADD PUSH2 0x538 SWAP2 SWAP1 PUSH2 0xDF6 JUMP JUMPDEST PUSH1 0x20 PUSH1 0x40 MLOAD DUP1 DUP4 SUB DUP2 DUP7 GAS STATICCALL ISZERO DUP1 ISZERO PUSH2 0x555 JUMPI RETURNDATASIZE PUSH1 0x0 DUP1 RETURNDATACOPY RETURNDATASIZE PUSH1 0x0 REVERT JUMPDEST POP POP POP POP PUSH1 0x40 MLOAD RETURNDATASIZE PUSH1 0x1F NOT PUSH1 0x1F DUP3 ADD AND DUP3 ADD DUP1 PUSH1 0x40 MSTORE POP DUP2 ADD SWAP1 PUSH2 0x579 SWAP2 SWAP1 PUSH2 0xFC5 JUMP JUMPDEST PUSH1 0x40 MLOAD DUP4 PUSH4 0xFFFFFFFF AND PUSH1 0xE0 SHL DUP2 MSTORE PUSH1 0x4 ADD PUSH2 0x596 SWAP3 SWAP2 SWAP1 PUSH2 0xFF2 JUMP JUMPDEST PUSH1 0x20 PUSH1 0x40 MLOAD DUP1 DUP4 SUB DUP2 PUSH1 0x0 DUP8 GAS CALL ISZERO DUP1 ISZERO PUSH2 0x5B5 JUMPI RETURNDATASIZE PUSH1 0x0 DUP1 RETURNDATACOPY RETURNDATASIZE PUSH1 0x0 REVERT JUMPDEST POP POP POP POP PUSH1 0x40 MLOAD RETURNDATASIZE PUSH1 0x1F NOT PUSH1 0x1F DUP3 ADD AND DUP3 ADD DUP1 PUSH1 0x40 MSTORE POP DUP2 ADD SWAP1 PUSH2 0x5D9 SWAP2 SWAP1 PUSH2 0x1053 JUMP JUMPDEST PUSH2 0x618 JUMPI PUSH1 0x40 MLOAD PUSH32 0x8C379A000000000000000000000000000000000000000000000000000000000 DUP2 MSTORE PUSH1 0x4 ADD PUSH2 0x60F SWAP1 PUSH2 0x10CC JUMP JUMPDEST PUSH1 0x40 MLOAD DUP1 SWAP2 SUB SWAP1 REVERT JUMPDEST POP JUMP JUMPDEST PUSH2 0x623 PUSH2 0x69D JUMP JUMPDEST PUSH2 0x62C DUP2 PUSH2 0x759 JUMP JUMPDEST POP JUMP JUMPDEST PUSH1 0xA SLOAD DUP2 JUMP JUMPDEST PUSH2 0x63D PUSH2 0xC02 JUMP JUMPDEST PUSH2 0x645 PUSH2 0xC02 JUMP JUMPDEST PUSH2 0x65C DUP6 DUP6 DUP6 DUP5 PUSH2 0x887 SWAP1 SWAP4 SWAP3 SWAP2 SWAP1 PUSH4 0xFFFFFFFF AND JUMP JUMPDEST SWAP2 POP POP SWAP4 SWAP3 POP POP POP JUMP JUMPDEST PUSH1 0x0 PUSH2 0x695 PUSH1 0x3 PUSH1 0x0 SWAP1 SLOAD SWAP1 PUSH2 0x100 EXP SWAP1 DIV PUSH20 0xFFFFFFFFFFFFFFFFFFFFFFFFFFFFFFFFFFFFFFFF AND DUP5 DUP5 PUSH2 0x937 JUMP JUMPDEST SWAP1 POP SWAP3 SWAP2 POP POP JUMP JUMPDEST PUSH1 0x6 PUSH1 0x0 SWAP1 SLOAD SWAP1 PUSH2 0x100 EXP SWAP1 DIV PUSH20 0xFFFFFFFFFFFFFFFFFFFFFFFFFFFFFFFFFFFFFFFF AND PUSH20 0xFFFFFFFFFFFFFFFFFFFFFFFFFFFFFFFFFFFFFFFF AND CALLER PUSH20 0xFFFFFFFFFFFFFFFFFFFFFFFFFFFFFFFFFFFFFFFF AND EQ PUSH2 0x72D JUMPI PUSH1 0x40 MLOAD PUSH32 0x8C379A000000000000000000000000000000000000000000000000000000000 DUP2 MSTORE PUSH1 0x4 ADD PUSH2 0x724 SWAP1 PUSH2 0x1138 JUMP JUMPDEST PUSH1 0x40 MLOAD DUP1 SWAP2 SUB SWAP1 REVERT JUMPDEST JUMP JUMPDEST PUSH1 0x0 PUSH1 0x2 PUSH1 0x0 SWAP1 SLOAD SWAP1 PUSH2 0x100 EXP SWAP1 DIV PUSH20 0xFFFFFFFFFFFFFFFFFFFFFFFFFFFFFFFFFFFFFFFF AND SWAP1 POP SWAP1 JUMP JUMPDEST CALLER PUSH20 0xFFFFFFFFFFFFFFFFFFFFFFFFFFFFFFFFFFFFFFFF AND DUP2 PUSH20 0xFFFFFFFFFFFFFFFFFFFFFFFFFFFFFFFFFFFFFFFF AND SUB PUSH2 0x7C7 JUMPI PUSH1 0x40 MLOAD PUSH32 0x8C379A000000000000000000000000000000000000000000000000000000000 DUP2 MSTORE PUSH1 0x4 ADD PUSH2 0x7BE SWAP1 PUSH2 0x11A4 JUMP JUMPDEST PUSH1 0x40 MLOAD DUP1 SWAP2 SUB SWAP1 REVERT JUMPDEST DUP1 PUSH1 0x7 PUSH1 0x0 PUSH2 0x100 EXP DUP2 SLOAD DUP2 PUSH20 0xFFFFFFFFFFFFFFFFFFFFFFFFFFFFFFFFFFFFFFFF MUL NOT AND SWAP1 DUP4 PUSH20 0xFFFFFFFFFFFFFFFFFFFFFFFFFFFFFFFFFFFFFFFF AND MUL OR SWAP1 SSTORE POP DUP1 PUSH20 0xFFFFFFFFFFFFFFFFFFFFFFFFFFFFFFFFFFFFFFFF AND PUSH1 0x6 PUSH1 0x0 SWAP1 SLOAD SWAP1 PUSH2 0x100 EXP SWAP1 DIV PUSH20 0xFFFFFFFFFFFFFFFFFFFFFFFFFFFFFFFFFFFFFFFF AND PUSH20 0xFFFFFFFFFFFFFFFFFFFFFFFFFFFFFFFFFFFFFFFF AND PUSH32 0xED8889F560326EB138920D842192F0EB3DD22B4F139C87A2C57538E05BAE1278 PUSH1 0x40 MLOAD PUSH1 0x40 MLOAD DUP1 SWAP2 SUB SWAP1 LOG3 POP JUMP JUMPDEST PUSH2 0x88F PUSH2 0xC02 JUMP JUMPDEST PUSH2 0x89F DUP6 PUSH1 0x80 ADD MLOAD PUSH2 0x100 PUSH2 0xA03 JUMP JUMPDEST POP DUP4 DUP6 PUSH1 0x0 ADD DUP2 DUP2 MSTORE POP POP DUP3 DUP6 PUSH1 0x20 ADD SWAP1 PUSH20 0xFFFFFFFFFFFFFFFFFFFFFFFFFFFFFFFFFFFFFFFF AND SWAP1 DUP2 PUSH20 0xFFFFFFFFFFFFFFFFFFFFFFFFFFFFFFFFFFFFFFFF AND DUP2 MSTORE POP POP DUP2 DUP6 PUSH1 0x40 ADD SWAP1 PUSH28 0xFFFFFFFFFFFFFFFFFFFFFFFFFFFFFFFFFFFFFFFFFFFFFFFFFFFFFFFF NOT AND SWAP1 DUP2 PUSH28 0xFFFFFFFFFFFFFFFFFFFFFFFFFFFFFFFFFFFFFFFFFFFFFFFFFFFFFFFF NOT AND DUP2 MSTORE POP POP DUP5 SWAP1 POP SWAP5 SWAP4 POP POP POP POP JUMP JUMPDEST PUSH1 0x0 DUP1 PUSH1 0x4 SLOAD SWAP1 POP PUSH1 0x1 DUP2 PUSH2 0x94C SWAP2 SWAP1 PUSH2 0x11F3 JUMP JUMPDEST PUSH1 0x4 DUP2 SWAP1 SSTORE POP PUSH1 0x0 PUSH4 0x40429946 PUSH1 0xE0 SHL PUSH1 0x0 DUP1 DUP8 PUSH1 0x0 ADD MLOAD ADDRESS DUP10 PUSH1 0x40 ADD MLOAD DUP8 PUSH1 0x1 DUP13 PUSH1 0x80 ADD MLOAD PUSH1 0x0 ADD MLOAD PUSH1 0x40 MLOAD PUSH1 0x24 ADD PUSH2 0x98D SWAP9 SWAP8 SWAP7 SWAP6 SWAP5 SWAP4 SWAP3 SWAP2 SWAP1 PUSH2 0x131D JUMP JUMPDEST PUSH1 0x40 MLOAD PUSH1 0x20 DUP2 DUP4 SUB SUB DUP2 MSTORE SWAP1 PUSH1 0x40 MSTORE SWAP1 PUSH28 0xFFFFFFFFFFFFFFFFFFFFFFFFFFFFFFFFFFFFFFFFFFFFFFFFFFFFFFFF NOT AND PUSH1 0x20 DUP3 ADD DUP1 MLOAD PUSH28 0xFFFFFFFFFFFFFFFFFFFFFFFFFFFFFFFFFFFFFFFFFFFFFFFFFFFFFFFF DUP4 DUP2 DUP4 AND OR DUP4 MSTORE POP POP POP POP SWAP1 POP PUSH2 0x9F8 DUP7 DUP4 DUP7 DUP5 PUSH2 0xA6D JUMP JUMPDEST SWAP3 POP POP POP SWAP4 SWAP3 POP POP POP JUMP JUMPDEST PUSH2 0xA0B PUSH2 0xC6F JUMP JUMPDEST PUSH1 0x0 PUSH1 0x20 DUP4 PUSH2 0xA1A SWAP2 SWAP1 PUSH2 0x13D1 JUMP JUMPDEST EQ PUSH2 0xA46 JUMPI PUSH1 0x20 DUP3 PUSH2 0xA2C SWAP2 SWAP1 PUSH2 0x13D1 JUMP JUMPDEST PUSH1 0x20 PUSH2 0xA38 SWAP2 SWAP1 PUSH2 0x1402 JUMP JUMPDEST DUP3 PUSH2 0xA43 SWAP2 SWAP1 PUSH2 0x11F3 JUMP JUMPDEST SWAP2 POP JUMPDEST DUP2 DUP4 PUSH1 0x20 ADD DUP2 DUP2 MSTORE POP POP PUSH1 0x40 MLOAD DUP1 DUP5 MSTORE PUSH1 0x0 DUP2 MSTORE DUP3 DUP2 ADD PUSH1 0x20 ADD PUSH1 0x40 MSTORE POP DUP3 SWAP1 POP SWAP3 SWAP2 POP POP JUMP JUMPDEST PUSH1 0x0 ADDRESS DUP5 PUSH1 0x40 MLOAD PUSH1 0x20 ADD PUSH2 0xA82 SWAP3 SWAP2 SWAP1 PUSH2 0x14EF JUMP JUMPDEST PUSH1 0x40 MLOAD PUSH1 0x20 DUP2 DUP4 SUB SUB DUP2 MSTORE SWAP1 PUSH1 0x40 MSTORE DUP1 MLOAD SWAP1 PUSH1 0x20 ADD KECCAK256 SWAP1 POP DUP5 PUSH1 0x5 PUSH1 0x0 DUP4 DUP2 MSTORE PUSH1 0x20 ADD SWAP1 DUP2 MSTORE PUSH1 0x20 ADD PUSH1 0x0 KECCAK256 PUSH1 0x0 PUSH2 0x100 EXP DUP2 SLOAD DUP2 PUSH20 0xFFFFFFFFFFFFFFFFFFFFFFFFFFFFFFFFFFFFFFFF MUL NOT AND SWAP1 DUP4 PUSH20 0xFFFFFFFFFFFFFFFFFFFFFFFFFFFFFFFFFFFFFFFF AND MUL OR SWAP1 SSTORE POP DUP1 PUSH32 0xB5E6E01E79F91267DC17B4E6314D5D4D03593D2CEEE0FBB452B750BD70EA5AF9 PUSH1 0x40 MLOAD PUSH1 0x40 MLOAD DUP1 SWAP2 SUB SWAP1 LOG2 PUSH1 0x2 PUSH1 0x0 SWAP1 SLOAD SWAP1 PUSH2 0x100 EXP SWAP1 DIV PUSH20 0xFFFFFFFFFFFFFFFFFFFFFFFFFFFFFFFFFFFFFFFF AND PUSH20 0xFFFFFFFFFFFFFFFFFFFFFFFFFFFFFFFFFFFFFFFF AND PUSH4 0x4000AEA0 DUP7 DUP6 DUP6 PUSH1 0x40 MLOAD DUP5 PUSH4 0xFFFFFFFF AND PUSH1 0xE0 SHL DUP2 MSTORE PUSH1 0x4 ADD PUSH2 0xB78 SWAP4 SWAP3 SWAP2 SWAP1 PUSH2 0x151B JUMP JUMPDEST PUSH1 0x20 PUSH1 0x40 MLOAD DUP1 DUP4 SUB DUP2 PUSH1 0x0 DUP8 GAS CALL ISZERO DUP1 ISZERO PUSH2 0xB97 JUMPI RETURNDATASIZE PUSH1 0x0 DUP1 RETURNDATACOPY RETURNDATASIZE PUSH1 0x0 REVERT JUMPDEST POP POP POP POP PUSH1 0x40 MLOAD RETURNDATASIZE PUSH1 0x1F NOT PUSH1 0x1F DUP3 ADD AND DUP3 ADD DUP1 PUSH1 0x40 MSTORE POP DUP2 ADD SWAP1 PUSH2 0xBBB SWAP2 SWAP1 PUSH2 0x1053 JUMP JUMPDEST PUSH2 0xBFA JUMPI PUSH1 0x40 MLOAD PUSH32 0x8C379A000000000000000000000000000000000000000000000000000000000 DUP2 MSTORE PUSH1 0x4 ADD PUSH2 0xBF1 SWAP1 PUSH2 0x15CB JUMP JUMPDEST PUSH1 0x40 MLOAD DUP1 SWAP2 SUB SWAP1 REVERT JUMPDEST SWAP5 SWAP4 POP POP POP POP JUMP JUMPDEST PUSH1 0x40 MLOAD DUP1 PUSH1 0xA0 ADD PUSH1 0x40 MSTORE DUP1 PUSH1 0x0 DUP1 NOT AND DUP2 MSTORE PUSH1 0x20 ADD PUSH1 0x0 PUSH20 0xFFFFFFFFFFFFFFFFFFFFFFFFFFFFFFFFFFFFFFFF AND DUP2 MSTORE PUSH1 0x20 ADD PUSH1 0x0 PUSH28 0xFFFFFFFFFFFFFFFFFFFFFFFFFFFFFFFFFFFFFFFFFFFFFFFFFFFFFFFF NOT AND DUP2 MSTORE PUSH1 0x20 ADD PUSH1 0x0 DUP2 MSTORE PUSH1 0x20 ADD PUSH2 0xC69 PUSH2 0xC6F JUMP JUMPDEST DUP2 MSTORE POP SWAP1 JUMP JUMPDEST PUSH1 0x40 MLOAD DUP1 PUSH1 0x40 ADD PUSH1 0x40 MSTORE DUP1 PUSH1 0x60 DUP2 MSTORE PUSH1 0x20 ADD PUSH1 0x0 DUP2 MSTORE POP SWAP1 JUMP JUMPDEST PUSH1 0x0 DUP2 SWAP1 POP SWAP2 SWAP1 POP JUMP JUMPDEST PUSH2 0xC9C DUP2 PUSH2 0xC89 JUMP JUMPDEST DUP3 MSTORE POP POP JUMP JUMPDEST PUSH1 0x0 PUSH1 0x20 DUP3 ADD SWAP1 POP PUSH2 0xCB7 PUSH1 0x0 DUP4 ADD DUP5 PUSH2 0xC93 JUMP JUMPDEST SWAP3 SWAP2 POP POP JUMP JUMPDEST PUSH1 0x0 DUP1 REVERT JUMPDEST PUSH2 0xCCB DUP2 PUSH2 0xC89 JUMP JUMPDEST DUP2 EQ PUSH2 0xCD6 JUMPI PUSH1 0x0 DUP1 REVERT JUMPDEST POP JUMP JUMPDEST PUSH1 0x0 DUP2 CALLDATALOAD SWAP1 POP PUSH2 0xCE8 DUP2 PUSH2 0xCC2 JUMP JUMPDEST SWAP3 SWAP2 POP POP JUMP JUMPDEST PUSH1 0x0 DUP2 SWAP1 POP SWAP2 SWAP1 POP JUMP JUMPDEST PUSH2 0xD01 DUP2 PUSH2 0xCEE JUMP JUMPDEST DUP2 EQ PUSH2 0xD0C JUMPI PUSH1 0x0 DUP1 REVERT JUMPDEST POP JUMP JUMPDEST PUSH1 0x0 DUP2 CALLDATALOAD SWAP1 POP PUSH2 0xD1E DUP2 PUSH2 0xCF8 JUMP JUMPDEST SWAP3 SWAP2 POP POP JUMP JUMPDEST PUSH1 0x0 DUP1 PUSH1 0x0 DUP1 PUSH1 0x80 DUP6 DUP8 SUB SLT ISZERO PUSH2 0xD3E JUMPI PUSH2 0xD3D PUSH2 0xCBD JUMP JUMPDEST JUMPDEST PUSH1 0x0 PUSH2 0xD4C DUP8 DUP3 DUP9 ADD PUSH2 0xCD9 JUMP JUMPDEST SWAP5 POP POP PUSH1 0x20 PUSH2 0xD5D DUP8 DUP3 DUP9 ADD PUSH2 0xD0F JUMP JUMPDEST SWAP4 POP POP PUSH1 0x40 PUSH2 0xD6E DUP8 DUP3 DUP9 ADD PUSH2 0xD0F JUMP JUMPDEST SWAP3 POP POP PUSH1 0x60 PUSH2 0xD7F DUP8 DUP3 DUP9 ADD PUSH2 0xD0F JUMP JUMPDEST SWAP2 POP POP SWAP3 SWAP6 SWAP2 SWAP5 POP SWAP3 POP JUMP JUMPDEST PUSH2 0xD94 DUP2 PUSH2 0xCEE JUMP JUMPDEST DUP3 MSTORE POP POP JUMP JUMPDEST PUSH1 0x0 PUSH1 0x20 DUP3 ADD SWAP1 POP PUSH2 0xDAF PUSH1 0x0 DUP4 ADD DUP5 PUSH2 0xD8B JUMP JUMPDEST SWAP3 SWAP2 POP POP JUMP JUMPDEST PUSH1 0x0 PUSH20 0xFFFFFFFFFFFFFFFFFFFFFFFFFFFFFFFFFFFFFFFF DUP3 AND SWAP1 POP SWAP2 SWAP1 POP JUMP JUMPDEST PUSH1 0x0 PUSH2 0xDE0 DUP3 PUSH2 0xDB5 JUMP JUMPDEST SWAP1 POP SWAP2 SWAP1 POP JUMP JUMPDEST PUSH2 0xDF0 DUP2 PUSH2 0xDD5 JUMP JUMPDEST DUP3 MSTORE POP POP JUMP JUMPDEST PUSH1 0x0 PUSH1 0x20 DUP3 ADD SWAP1 POP PUSH2 0xE0B PUSH1 0x0 DUP4 ADD DUP5 PUSH2 0xDE7 JUMP JUMPDEST SWAP3 SWAP2 POP POP JUMP JUMPDEST PUSH2 0xE1A DUP2 PUSH2 0xDD5 JUMP JUMPDEST DUP2 EQ PUSH2 0xE25 JUMPI PUSH1 0x0 DUP1 REVERT JUMPDEST POP JUMP JUMPDEST PUSH1 0x0 DUP2 CALLDATALOAD SWAP1 POP PUSH2 0xE37 DUP2 PUSH2 0xE11 JUMP JUMPDEST SWAP3 SWAP2 POP POP JUMP JUMPDEST PUSH1 0x0 PUSH1 0x20 DUP3 DUP5 SUB SLT ISZERO PUSH2 0xE53 JUMPI PUSH2 0xE52 PUSH2 0xCBD JUMP JUMPDEST JUMPDEST PUSH1 0x0 PUSH2 0xE61 DUP5 DUP3 DUP6 ADD PUSH2 0xE28 JUMP JUMPDEST SWAP2 POP POP SWAP3 SWAP2 POP POP JUMP JUMPDEST PUSH1 0x0 DUP3 DUP3 MSTORE PUSH1 0x20 DUP3 ADD SWAP1 POP SWAP3 SWAP2 POP POP JUMP JUMPDEST PUSH32 0x536F75726365206D75737420626520746865206F7261636C65206F6620746865 PUSH1 0x0 DUP3 ADD MSTORE PUSH32 0x2072657175657374000000000000000000000000000000000000000000000000 PUSH1 0x20 DUP3 ADD MSTORE POP JUMP JUMPDEST PUSH1 0x0 PUSH2 0xED7 PUSH1 0x28 DUP4 PUSH2 0xE6A JUMP JUMPDEST SWAP2 POP PUSH2 0xEE2 DUP3 PUSH2 0xE7B JUMP JUMPDEST PUSH1 0x40 DUP3 ADD SWAP1 POP SWAP2 SWAP1 POP JUMP JUMPDEST PUSH1 0x0 PUSH1 0x20 DUP3 ADD SWAP1 POP DUP2 DUP2 SUB PUSH1 0x0 DUP4 ADD MSTORE PUSH2 0xF06 DUP2 PUSH2 0xECA JUMP JUMPDEST SWAP1 POP SWAP2 SWAP1 POP JUMP JUMPDEST PUSH1 0x0 PUSH1 0x60 DUP3 ADD SWAP1 POP PUSH2 0xF22 PUSH1 0x0 DUP4 ADD DUP7 PUSH2 0xD8B JUMP JUMPDEST PUSH2 0xF2F PUSH1 0x20 DUP4 ADD DUP6 PUSH2 0xD8B JUMP JUMPDEST PUSH2 0xF3C PUSH1 0x40 DUP4 ADD DUP5 PUSH2 0xD8B JUMP JUMPDEST SWAP5 SWAP4 POP POP POP POP JUMP JUMPDEST PUSH32 0x4D7573742062652070726F706F736564206F776E657200000000000000000000 PUSH1 0x0 DUP3 ADD MSTORE POP JUMP JUMPDEST PUSH1 0x0 PUSH2 0xF7A PUSH1 0x16 DUP4 PUSH2 0xE6A JUMP JUMPDEST SWAP2 POP PUSH2 0xF85 DUP3 PUSH2 0xF44 JUMP JUMPDEST PUSH1 0x20 DUP3 ADD SWAP1 POP SWAP2 SWAP1 POP JUMP JUMPDEST PUSH1 0x0 PUSH1 0x20 DUP3 ADD SWAP1 POP DUP2 DUP2 SUB PUSH1 0x0 DUP4 ADD MSTORE PUSH2 0xFA9 DUP2 PUSH2 0xF6D JUMP JUMPDEST SWAP1 POP SWAP2 SWAP1 POP JUMP JUMPDEST PUSH1 0x0 DUP2 MLOAD SWAP1 POP PUSH2 0xFBF DUP2 PUSH2 0xCF8 JUMP JUMPDEST SWAP3 SWAP2 POP POP JUMP JUMPDEST PUSH1 0x0 PUSH1 0x20 DUP3 DUP5 SUB SLT ISZERO PUSH2 0xFDB JUMPI PUSH2 0xFDA PUSH2 0xCBD JUMP JUMPDEST JUMPDEST PUSH1 0x0 PUSH2 0xFE9 DUP5 DUP3 DUP6 ADD PUSH2 0xFB0 JUMP JUMPDEST SWAP2 POP POP SWAP3 SWAP2 POP POP JUMP JUMPDEST PUSH1 0x0 PUSH1 0x40 DUP3 ADD SWAP1 POP PUSH2 0x1007 PUSH1 0x0 DUP4 ADD DUP6 PUSH2 0xDE7 JUMP JUMPDEST PUSH2 0x1014 PUSH1 0x20 DUP4 ADD DUP5 PUSH2 0xD8B JUMP JUMPDEST SWAP4 SWAP3 POP POP POP JUMP JUMPDEST PUSH1 0x0 DUP2 ISZERO ISZERO SWAP1 POP SWAP2 SWAP1 POP JUMP JUMPDEST PUSH2 0x1030 DUP2 PUSH2 0x101B JUMP JUMPDEST DUP2 EQ PUSH2 0x103B JUMPI PUSH1 0x0 DUP1 REVERT JUMPDEST POP JUMP JUMPDEST PUSH1 0x0 DUP2 MLOAD SWAP1 POP PUSH2 0x104D DUP2 PUSH2 0x1027 JUMP JUMPDEST SWAP3 SWAP2 POP POP JUMP JUMPDEST PUSH1 0x0 PUSH1 0x20 DUP3 DUP5 SUB SLT ISZERO PUSH2 0x1069 JUMPI PUSH2 0x1068 PUSH2 0xCBD JUMP JUMPDEST JUMPDEST PUSH1 0x0 PUSH2 0x1077 DUP5 DUP3 DUP6 ADD PUSH2 0x103E JUMP JUMPDEST SWAP2 POP POP SWAP3 SWAP2 POP POP JUMP JUMPDEST PUSH32 0x556E61626C6520746F207472616E736665720000000000000000000000000000 PUSH1 0x0 DUP3 ADD MSTORE POP JUMP JUMPDEST PUSH1 0x0 PUSH2 0x10B6 PUSH1 0x12 DUP4 PUSH2 0xE6A JUMP JUMPDEST SWAP2 POP PUSH2 0x10C1 DUP3 PUSH2 0x1080 JUMP JUMPDEST PUSH1 0x20 DUP3 ADD SWAP1 POP SWAP2 SWAP1 POP JUMP JUMPDEST PUSH1 0x0 PUSH1 0x20 DUP3 ADD SWAP1 POP DUP2 DUP2 SUB PUSH1 0x0 DUP4 ADD MSTORE PUSH2 0x10E5 DUP2 PUSH2 0x10A9 JUMP JUMPDEST SWAP1 POP SWAP2 SWAP1 POP JUMP JUMPDEST PUSH32 0x4F6E6C792063616C6C61626C65206279206F776E657200000000000000000000 PUSH1 0x0 DUP3 ADD MSTORE POP JUMP JUMPDEST PUSH1 0x0 PUSH2 0x1122 PUSH1 0x16 DUP4 PUSH2 0xE6A JUMP JUMPDEST SWAP2 POP PUSH2 0x112D DUP3 PUSH2 0x10EC JUMP JUMPDEST PUSH1 0x20 DUP3 ADD SWAP1 POP SWAP2 SWAP1 POP JUMP JUMPDEST PUSH1 0x0 PUSH1 0x20 DUP3 ADD SWAP1 POP DUP2 DUP2 SUB PUSH1 0x0 DUP4 ADD MSTORE PUSH2 0x1151 DUP2 PUSH2 0x1115 JUMP JUMPDEST SWAP1 POP SWAP2 SWAP1 POP JUMP JUMPDEST PUSH32 0x43616E6E6F74207472616E7366657220746F2073656C66000000000000000000 PUSH1 0x0 DUP3 ADD MSTORE POP JUMP JUMPDEST PUSH1 0x0 PUSH2 0x118E PUSH1 0x17 DUP4 PUSH2 0xE6A JUMP JUMPDEST SWAP2 POP PUSH2 0x1199 DUP3 PUSH2 0x1158 JUMP JUMPDEST PUSH1 0x20 DUP3 ADD SWAP1 POP SWAP2 SWAP1 POP JUMP JUMPDEST PUSH1 0x0 PUSH1 0x20 DUP3 ADD SWAP1 POP DUP2 DUP2 SUB PUSH1 0x0 DUP4 ADD MSTORE PUSH2 0x11BD DUP2 PUSH2 0x1181 JUMP JUMPDEST SWAP1 POP SWAP2 SWAP1 POP JUMP JUMPDEST PUSH32 0x4E487B7100000000000000000000000000000000000000000000000000000000 PUSH1 0x0 MSTORE PUSH1 0x11 PUSH1 0x4 MSTORE PUSH1 0x24 PUSH1 0x0 REVERT JUMPDEST PUSH1 0x0 PUSH2 0x11FE DUP3 PUSH2 0xCEE JUMP JUMPDEST SWAP2 POP PUSH2 0x1209 DUP4 PUSH2 0xCEE JUMP JUMPDEST SWAP3 POP DUP3 PUSH32 0xFFFFFFFFFFFFFFFFFFFFFFFFFFFFFFFFFFFFFFFFFFFFFFFFFFFFFFFFFFFFFFFF SUB DUP3 GT ISZERO PUSH2 0x123E JUMPI PUSH2 0x123D PUSH2 0x11C4 JUMP JUMPDEST JUMPDEST DUP3 DUP3 ADD SWAP1 POP SWAP3 SWAP2 POP POP JUMP JUMPDEST PUSH1 0x0 PUSH32 0xFFFFFFFF00000000000000000000000000000000000000000000000000000000 DUP3 AND SWAP1 POP SWAP2 SWAP1 POP JUMP JUMPDEST PUSH2 0x127E DUP2 PUSH2 0x1249 JUMP JUMPDEST DUP3 MSTORE POP POP JUMP JUMPDEST PUSH1 0x0 DUP2 MLOAD SWAP1 POP SWAP2 SWAP1 POP JUMP JUMPDEST PUSH1 0x0 DUP3 DUP3 MSTORE PUSH1 0x20 DUP3 ADD SWAP1 POP SWAP3 SWAP2 POP POP JUMP JUMPDEST PUSH1 0x0 JUMPDEST DUP4 DUP2 LT ISZERO PUSH2 0x12BE JUMPI DUP1 DUP3 ADD MLOAD DUP2 DUP5 ADD MSTORE PUSH1 0x20 DUP2 ADD SWAP1 POP PUSH2 0x12A3 JUMP JUMPDEST DUP4 DUP2 GT ISZERO PUSH2 0x12CD JUMPI PUSH1 0x0 DUP5 DUP5 ADD MSTORE JUMPDEST POP POP POP POP JUMP JUMPDEST PUSH1 0x0 PUSH1 0x1F NOT PUSH1 0x1F DUP4 ADD AND SWAP1 POP SWAP2 SWAP1 POP JUMP JUMPDEST PUSH1 0x0 PUSH2 0x12EF DUP3 PUSH2 0x1284 JUMP JUMPDEST PUSH2 0x12F9 DUP2 DUP6 PUSH2 0x128F JUMP JUMPDEST SWAP4 POP PUSH2 0x1309 DUP2 DUP6 PUSH1 0x20 DUP7 ADD PUSH2 0x12A0 JUMP JUMPDEST PUSH2 0x1312 DUP2 PUSH2 0x12D3 JUMP JUMPDEST DUP5 ADD SWAP2 POP POP SWAP3 SWAP2 POP POP JUMP JUMPDEST PUSH1 0x0 PUSH2 0x100 DUP3 ADD SWAP1 POP PUSH2 0x1333 PUSH1 0x0 DUP4 ADD DUP12 PUSH2 0xDE7 JUMP JUMPDEST PUSH2 0x1340 PUSH1 0x20 DUP4 ADD DUP11 PUSH2 0xD8B JUMP JUMPDEST PUSH2 0x134D PUSH1 0x40 DUP4 ADD DUP10 PUSH2 0xC93 JUMP JUMPDEST PUSH2 0x135A PUSH1 0x60 DUP4 ADD DUP9 PUSH2 0xDE7 JUMP JUMPDEST PUSH2 0x1367 PUSH1 0x80 DUP4 ADD DUP8 PUSH2 0x1275 JUMP JUMPDEST PUSH2 0x1374 PUSH1 0xA0 DUP4 ADD DUP7 PUSH2 0xD8B JUMP JUMPDEST PUSH2 0x1381 PUSH1 0xC0 DUP4 ADD DUP6 PUSH2 0xD8B JUMP JUMPDEST DUP2 DUP2 SUB PUSH1 0xE0 DUP4 ADD MSTORE PUSH2 0x1393 DUP2 DUP5 PUSH2 0x12E4 JUMP JUMPDEST SWAP1 POP SWAP10 SWAP9 POP POP POP POP POP POP POP POP POP JUMP JUMPDEST PUSH32 0x4E487B7100000000000000000000000000000000000000000000000000000000 PUSH1 0x0 MSTORE PUSH1 0x12 PUSH1 0x4 MSTORE PUSH1 0x24 PUSH1 0x0 REVERT JUMPDEST PUSH1 0x0 PUSH2 0x13DC DUP3 PUSH2 0xCEE JUMP JUMPDEST SWAP2 POP PUSH2 0x13E7 DUP4 PUSH2 0xCEE JUMP JUMPDEST SWAP3 POP DUP3 PUSH2 0x13F7 JUMPI PUSH2 0x13F6 PUSH2 0x13A2 JUMP JUMPDEST JUMPDEST DUP3 DUP3 MOD SWAP1 POP SWAP3 SWAP2 POP POP JUMP JUMPDEST PUSH1 0x0 PUSH2 0x140D DUP3 PUSH2 0xCEE JUMP JUMPDEST SWAP2 POP PUSH2 0x1418 DUP4 PUSH2 0xCEE JUMP JUMPDEST SWAP3 POP DUP3 DUP3 LT ISZERO PUSH2 0x142B JUMPI PUSH2 0x142A PUSH2 0x11C4 JUMP JUMPDEST JUMPDEST DUP3 DUP3 SUB SWAP1 POP SWAP3 SWAP2 POP POP JUMP JUMPDEST PUSH1 0x0 DUP2 SWAP1 POP SWAP2 SWAP1 POP JUMP JUMPDEST PUSH1 0x0 PUSH2 0x145B PUSH2 0x1456 PUSH2 0x1451 DUP5 PUSH2 0xDB5 JUMP JUMPDEST PUSH2 0x1436 JUMP JUMPDEST PUSH2 0xDB5 JUMP JUMPDEST SWAP1 POP SWAP2 SWAP1 POP JUMP JUMPDEST PUSH1 0x0 PUSH2 0x146D DUP3 PUSH2 0x1440 JUMP JUMPDEST SWAP1 POP SWAP2 SWAP1 POP JUMP JUMPDEST PUSH1 0x0 PUSH2 0x147F DUP3 PUSH2 0x1462 JUMP JUMPDEST SWAP1 POP SWAP2 SWAP1 POP JUMP JUMPDEST PUSH1 0x0 DUP2 PUSH1 0x60 SHL SWAP1 POP SWAP2 SWAP1 POP JUMP JUMPDEST PUSH1 0x0 PUSH2 0x149E DUP3 PUSH2 0x1486 JUMP JUMPDEST SWAP1 POP SWAP2 SWAP1 POP JUMP JUMPDEST PUSH1 0x0 PUSH2 0x14B0 DUP3 PUSH2 0x1493 JUMP JUMPDEST SWAP1 POP SWAP2 SWAP1 POP JUMP JUMPDEST PUSH2 0x14C8 PUSH2 0x14C3 DUP3 PUSH2 0x1474 JUMP JUMPDEST PUSH2 0x14A5 JUMP JUMPDEST DUP3 MSTORE POP POP JUMP JUMPDEST PUSH1 0x0 DUP2 SWAP1 POP SWAP2 SWAP1 POP JUMP JUMPDEST PUSH2 0x14E9 PUSH2 0x14E4 DUP3 PUSH2 0xCEE JUMP JUMPDEST PUSH2 0x14CE JUMP JUMPDEST DUP3 MSTORE POP POP JUMP JUMPDEST PUSH1 0x0 PUSH2 0x14FB DUP3 DUP6 PUSH2 0x14B7 JUMP JUMPDEST PUSH1 0x14 DUP3 ADD SWAP2 POP PUSH2 0x150B DUP3 DUP5 PUSH2 0x14D8 JUMP JUMPDEST PUSH1 0x20 DUP3 ADD SWAP2 POP DUP2 SWAP1 POP SWAP4 SWAP3 POP POP POP JUMP JUMPDEST PUSH1 0x0 PUSH1 0x60 DUP3 ADD SWAP1 POP PUSH2 0x1530 PUSH1 0x0 DUP4 ADD DUP7 PUSH2 0xDE7 JUMP JUMPDEST PUSH2 0x153D PUSH1 0x20 DUP4 ADD DUP6 PUSH2 0xD8B JUMP JUMPDEST DUP2 DUP2 SUB PUSH1 0x40 DUP4 ADD MSTORE PUSH2 0x154F DUP2 DUP5 PUSH2 0x12E4 JUMP JUMPDEST SWAP1 POP SWAP5 SWAP4 POP POP POP POP JUMP JUMPDEST PUSH32 0x756E61626C6520746F207472616E73666572416E6443616C6C20746F206F7261 PUSH1 0x0 DUP3 ADD MSTORE PUSH32 0x636C650000000000000000000000000000000000000000000000000000000000 PUSH1 0x20 DUP3 ADD MSTORE POP JUMP JUMPDEST PUSH1 0x0 PUSH2 0x15B5 PUSH1 0x23 DUP4 PUSH2 0xE6A JUMP JUMPDEST SWAP2 POP PUSH2 0x15C0 DUP3 PUSH2 0x1559 JUMP JUMPDEST PUSH1 0x40 DUP3 ADD SWAP1 POP SWAP2 SWAP1 POP JUMP JUMPDEST PUSH1 0x0 PUSH1 0x20 DUP3 ADD SWAP1 POP DUP2 DUP2 SUB PUSH1 0x0 DUP4 ADD MSTORE PUSH2 0x15E4 DUP2 PUSH2 0x15A8 JUMP JUMPDEST SWAP1 POP SWAP2 SWAP1 POP JUMP INVALID LOG2 PUSH5 0x6970667358 0x22 SLT KECCAK256 PUSH14 0x3C78E440235EBC6AAB47E5B7DD46 JUMPI DUP10 PUSH18 0x829BAC0219CE1390D3EFBAFBDABA64736F6C PUSH4 0x4300080D STOP CALLER "
				},
				"gasEstimates": {
					"creation": {
						"codeDepositCost": "1133000",
						"executionCost": "infinite",
						"totalCost": "infinite"
					},
					"external": {
						"acceptOwnership()": "54607",
						"fulfill(bytes32,uint256,uint256,uint256)": "infinite",
						"gasPriceAverage()": "2429",
						"gasPriceFast()": "2474",
						"gasPriceSafe()": "2517",
						"owner()": "2544",
						"requestGasPrice()": "infinite",
						"transferOwnership(address)": "30726",
						"withdrawLink()": "infinite"
					}
				},
				"methodIdentifiers": {
					"acceptOwnership()": "79ba5097",
					"fulfill(bytes32,uint256,uint256,uint256)": "37db7fae",
					"gasPriceAverage()": "7a92df2d",
					"gasPriceFast()": "49002a91",
					"gasPriceSafe()": "fd97ebd7",
					"owner()": "8da5cb5b",
					"requestGasPrice()": "007f4d88",
					"transferOwnership(address)": "f2fde38b",
					"withdrawLink()": "8dc654a2"
				}
			},
			"storageLayout": {
				"storage": [
					{
						"astId": 319,
						"contract": "contracts/chainlink/GasPrice.sol:GetGasPrice",
						"label": "s_ens",
						"offset": 0,
						"slot": "0",
						"type": "t_contract(ENSInterface)1156"
					},
					{
						"astId": 321,
						"contract": "contracts/chainlink/GasPrice.sol:GetGasPrice",
						"label": "s_ensNode",
						"offset": 0,
						"slot": "1",
						"type": "t_bytes32"
					},
					{
						"astId": 324,
						"contract": "contracts/chainlink/GasPrice.sol:GetGasPrice",
						"label": "s_link",
						"offset": 0,
						"slot": "2",
						"type": "t_contract(LinkTokenInterface)1251"
					},
					{
						"astId": 327,
						"contract": "contracts/chainlink/GasPrice.sol:GetGasPrice",
						"label": "s_oracle",
						"offset": 0,
						"slot": "3",
						"type": "t_contract(OperatorInterface)1331"
					},
					{
						"astId": 330,
						"contract": "contracts/chainlink/GasPrice.sol:GetGasPrice",
						"label": "s_requestCount",
						"offset": 0,
						"slot": "4",
						"type": "t_uint256"
					},
					{
						"astId": 334,
						"contract": "contracts/chainlink/GasPrice.sol:GetGasPrice",
						"label": "s_pendingRequests",
						"offset": 0,
						"slot": "5",
						"type": "t_mapping(t_bytes32,t_address)"
					},
					{
						"astId": 889,
						"contract": "contracts/chainlink/GasPrice.sol:GetGasPrice",
						"label": "s_owner",
						"offset": 0,
						"slot": "6",
						"type": "t_address"
					},
					{
						"astId": 891,
						"contract": "contracts/chainlink/GasPrice.sol:GetGasPrice",
						"label": "s_pendingOwner",
						"offset": 0,
						"slot": "7",
						"type": "t_address"
					},
					{
						"astId": 2388,
						"contract": "contracts/chainlink/GasPrice.sol:GetGasPrice",
						"label": "gasPriceFast",
						"offset": 0,
						"slot": "8",
						"type": "t_uint256"
					},
					{
						"astId": 2390,
						"contract": "contracts/chainlink/GasPrice.sol:GetGasPrice",
						"label": "gasPriceAverage",
						"offset": 0,
						"slot": "9",
						"type": "t_uint256"
					},
					{
						"astId": 2392,
						"contract": "contracts/chainlink/GasPrice.sol:GetGasPrice",
						"label": "gasPriceSafe",
						"offset": 0,
						"slot": "10",
						"type": "t_uint256"
					},
					{
						"astId": 2394,
						"contract": "contracts/chainlink/GasPrice.sol:GetGasPrice",
						"label": "jobId",
						"offset": 0,
						"slot": "11",
						"type": "t_bytes32"
					},
					{
						"astId": 2396,
						"contract": "contracts/chainlink/GasPrice.sol:GetGasPrice",
						"label": "fee",
						"offset": 0,
						"slot": "12",
						"type": "t_uint256"
					}
				],
				"types": {
					"t_address": {
						"encoding": "inplace",
						"label": "address",
						"numberOfBytes": "20"
					},
					"t_bytes32": {
						"encoding": "inplace",
						"label": "bytes32",
						"numberOfBytes": "32"
					},
					"t_contract(ENSInterface)1156": {
						"encoding": "inplace",
						"label": "contract ENSInterface",
						"numberOfBytes": "20"
					},
					"t_contract(LinkTokenInterface)1251": {
						"encoding": "inplace",
						"label": "contract LinkTokenInterface",
						"numberOfBytes": "20"
					},
					"t_contract(OperatorInterface)1331": {
						"encoding": "inplace",
						"label": "contract OperatorInterface",
						"numberOfBytes": "20"
					},
					"t_mapping(t_bytes32,t_address)": {
						"encoding": "mapping",
						"key": "t_bytes32",
						"label": "mapping(bytes32 => address)",
						"numberOfBytes": "32",
						"value": "t_address"
					},
					"t_uint256": {
						"encoding": "inplace",
						"label": "uint256",
						"numberOfBytes": "32"
					}
				}
			},
			"userdoc": {
				"kind": "user",
				"methods": {
					"acceptOwnership()": {
						"notice": "Allows an ownership transfer to be completed by the recipient."
					},
					"constructor": {
						"notice": "Initialize the link token and target oracle Goerli Testnet details: Link Token: 0x326C977E6efc84E512bB9C30f76E30c160eD06FB Oracle: 0xCC79157eb46F5624204f47AB42b3906cAA40eaB7 (Chainlink DevRel) jobId: 7223acbd01654282865b678924126013"
					},
					"fulfill(bytes32,uint256,uint256,uint256)": {
						"notice": "Receive the responses in the form of uint256"
					},
					"owner()": {
						"notice": "Get the current owner"
					},
					"requestGasPrice()": {
						"notice": "Create a Chainlink request the gas price from Etherscan"
					},
					"transferOwnership(address)": {
						"notice": "Allows an owner to begin transferring ownership to a new address, pending."
					},
					"withdrawLink()": {
						"notice": "Allow withdraw of Link tokens from the contract"
					}
				},
				"notice": "THIS IS AN EXAMPLE CONTRACT THAT USES HARDCODED VALUES FOR CLARITY. THIS IS AN EXAMPLE CONTRACT THAT USES UN-AUDITED CODE. DO NOT USE THIS CODE IN PRODUCTION.",
				"version": 1
			}
		}
	}
}