{
	"data": {
		"bytecode": {
			"linkReferences": {},
			"object": "608060405234801561001057600080fd5b5061012a806100206000396000f3fe6080604052348015600f57600080fd5b506004361060285760003560e01c80638e86b12514602d575b600080fd5b60436004803603810190603f91906095565b6057565b604051604e919060db565b60405180910390f35b600092915050565b600080fd5b6000819050919050565b6075816064565b8114607f57600080fd5b50565b600081359050608f81606e565b92915050565b6000806040838503121560a95760a8605f565b5b600060b5858286016082565b925050602060c4858286016082565b9150509250929050565b60d5816064565b82525050565b600060208201905060ee600083018460ce565b9291505056fea2646970667358221220c6903e2352a88c3d468777223d015a9c6cc158ce842297302b4371bd2ab9090064736f6c634300080d0033",
			"opcodes": "PUSH1 0x80 PUSH1 0x40 MSTORE CALLVALUE DUP1 ISZERO PUSH2 0x10 JUMPI PUSH1 0x0 DUP1 REVERT JUMPDEST POP PUSH2 0x12A DUP1 PUSH2 0x20 PUSH1 0x0 CODECOPY PUSH1 0x0 RETURN INVALID PUSH1 0x80 PUSH1 0x40 MSTORE CALLVALUE DUP1 ISZERO PUSH1 0xF JUMPI PUSH1 0x0 DUP1 REVERT JUMPDEST POP PUSH1 0x4 CALLDATASIZE LT PUSH1 0x28 JUMPI PUSH1 0x0 CALLDATALOAD PUSH1 0xE0 SHR DUP1 PUSH4 0x8E86B125 EQ PUSH1 0x2D JUMPI JUMPDEST PUSH1 0x0 DUP1 REVERT JUMPDEST PUSH1 0x43 PUSH1 0x4 DUP1 CALLDATASIZE SUB DUP2 ADD SWAP1 PUSH1 0x3F SWAP2 SWAP1 PUSH1 0x95 JUMP JUMPDEST PUSH1 0x57 JUMP JUMPDEST PUSH1 0x40 MLOAD PUSH1 0x4E SWAP2 SWAP1 PUSH1 0xDB JUMP JUMPDEST PUSH1 0x40 MLOAD DUP1 SWAP2 SUB SWAP1 RETURN JUMPDEST PUSH1 0x0 SWAP3 SWAP2 POP POP JUMP JUMPDEST PUSH1 0x0 DUP1 REVERT JUMPDEST PUSH1 0x0 DUP2 SWAP1 POP SWAP2 SWAP1 POP JUMP JUMPDEST PUSH1 0x75 DUP2 PUSH1 0x64 JUMP JUMPDEST DUP2 EQ PUSH1 0x7F JUMPI PUSH1 0x0 DUP1 REVERT JUMPDEST POP JUMP JUMPDEST PUSH1 0x0 DUP2 CALLDATALOAD SWAP1 POP PUSH1 0x8F DUP2 PUSH1 0x6E JUMP JUMPDEST SWAP3 SWAP2 POP POP JUMP JUMPDEST PUSH1 0x0 DUP1 PUSH1 0x40 DUP4 DUP6 SUB SLT ISZERO PUSH1 0xA9 JUMPI PUSH1 0xA8 PUSH1 0x5F JUMP JUMPDEST JUMPDEST PUSH1 0x0 PUSH1 0xB5 DUP6 DUP3 DUP7 ADD PUSH1 0x82 JUMP JUMPDEST SWAP3 POP POP PUSH1 0x20 PUSH1 0xC4 DUP6 DUP3 DUP7 ADD PUSH1 0x82 JUMP JUMPDEST SWAP2 POP POP SWAP3 POP SWAP3 SWAP1 POP JUMP JUMPDEST PUSH1 0xD5 DUP2 PUSH1 0x64 JUMP JUMPDEST DUP3 MSTORE POP POP JUMP JUMPDEST PUSH1 0x0 PUSH1 0x20 DUP3 ADD SWAP1 POP PUSH1 0xEE PUSH1 0x0 DUP4 ADD DUP5 PUSH1 0xCE JUMP JUMPDEST SWAP3 SWAP2 POP POP JUMP INVALID LOG2 PUSH5 0x6970667358 0x22 SLT KECCAK256 0xC6 SWAP1 RETURNDATACOPY 0x23 MSTORE 0xA8 DUP13 RETURNDATASIZE CHAINID DUP8 PUSH24 0x223D015A9C6CC158CE842297302B4371BD2AB9090064736F PUSH13 0x634300080D0033000000000000 "
		},
		"gasEstimates": {
			"creation": {
				"codeDepositCost": "59600",
				"executionCost": "111",
				"totalCost": "59711"
			},
			"external": {
				"getSum(uint256,uint256)": "infinite"
			}
		},
		"methodIdentifiers": {
			"getSum(uint256,uint256)": "8e86b125"
		}
	},
	"abi": [
		{
			"inputs": [
				{
					"internalType": "uint256",
					"name": "firstNumber",
					"type": "uint256"
				},
				{
					"internalType": "uint256",
					"name": "secondNumber",
					"type": "uint256"
				}
			],
			"name": "getSum",
			"outputs": [
				{
					"internalType": "uint256",
					"name": "",
					"type": "uint256"
				}
			],
			"stateMutability": "pure",
			"type": "function"
		}
	]
}