{
	"data": {
		"bytecode": {
			"linkReferences": {},
			"object": "608060405234801561001057600080fd5b506102c5806100206000396000f3fe608060405234801561001057600080fd5b50600436106100365760003560e01c806377fab3911461003b578063ab3545e51461006b575b600080fd5b61005560048036038101906100509190610192565b61009c565b6040516100629190610200565b60405180910390f35b6100856004803603810190610080919061021b565b6100e3565b604051610093929190610266565b60405180910390f35b600082600080868152602001908152602001600020600001600001819055508160008086815260200190815260200160002060000160010181905550600190509392505050565b600080600080848152602001908152602001600020600001600001546000808581526020019081526020016000206000016001015491509150915091565b600080fd5b6000819050919050565b61013981610126565b811461014457600080fd5b50565b60008135905061015681610130565b92915050565b6000819050919050565b61016f8161015c565b811461017a57600080fd5b50565b60008135905061018c81610166565b92915050565b6000806000606084860312156101ab576101aa610121565b5b60006101b986828701610147565b93505060206101ca8682870161017d565b92505060406101db86828701610147565b9150509250925092565b60008115159050919050565b6101fa816101e5565b82525050565b600060208201905061021560008301846101f1565b92915050565b60006020828403121561023157610230610121565b5b600061023f84828501610147565b91505092915050565b6102518161015c565b82525050565b61026081610126565b82525050565b600060408201905061027b6000830185610248565b6102886020830184610257565b939250505056fea26469706673582212209c398b742193a1eaa6fc75b6ee54099ad2680516c0d5f26ecb213ddecf4ce5c364736f6c63430008110033",
			"opcodes": "PUSH1 0x80 PUSH1 0x40 MSTORE CALLVALUE DUP1 ISZERO PUSH2 0x10 JUMPI PUSH1 0x0 DUP1 REVERT JUMPDEST POP PUSH2 0x2C5 DUP1 PUSH2 0x20 PUSH1 0x0 CODECOPY PUSH1 0x0 RETURN INVALID PUSH1 0x80 PUSH1 0x40 MSTORE CALLVALUE DUP1 ISZERO PUSH2 0x10 JUMPI PUSH1 0x0 DUP1 REVERT JUMPDEST POP PUSH1 0x4 CALLDATASIZE LT PUSH2 0x36 JUMPI PUSH1 0x0 CALLDATALOAD PUSH1 0xE0 SHR DUP1 PUSH4 0x77FAB391 EQ PUSH2 0x3B JUMPI DUP1 PUSH4 0xAB3545E5 EQ PUSH2 0x6B JUMPI JUMPDEST PUSH1 0x0 DUP1 REVERT JUMPDEST PUSH2 0x55 PUSH1 0x4 DUP1 CALLDATASIZE SUB DUP2 ADD SWAP1 PUSH2 0x50 SWAP2 SWAP1 PUSH2 0x192 JUMP JUMPDEST PUSH2 0x9C JUMP JUMPDEST PUSH1 0x40 MLOAD PUSH2 0x62 SWAP2 SWAP1 PUSH2 0x200 JUMP JUMPDEST PUSH1 0x40 MLOAD DUP1 SWAP2 SUB SWAP1 RETURN JUMPDEST PUSH2 0x85 PUSH1 0x4 DUP1 CALLDATASIZE SUB DUP2 ADD SWAP1 PUSH2 0x80 SWAP2 SWAP1 PUSH2 0x21B JUMP JUMPDEST PUSH2 0xE3 JUMP JUMPDEST PUSH1 0x40 MLOAD PUSH2 0x93 SWAP3 SWAP2 SWAP1 PUSH2 0x266 JUMP JUMPDEST PUSH1 0x40 MLOAD DUP1 SWAP2 SUB SWAP1 RETURN JUMPDEST PUSH1 0x0 DUP3 PUSH1 0x0 DUP1 DUP7 DUP2 MSTORE PUSH1 0x20 ADD SWAP1 DUP2 MSTORE PUSH1 0x20 ADD PUSH1 0x0 KECCAK256 PUSH1 0x0 ADD PUSH1 0x0 ADD DUP2 SWAP1 SSTORE POP DUP2 PUSH1 0x0 DUP1 DUP7 DUP2 MSTORE PUSH1 0x20 ADD SWAP1 DUP2 MSTORE PUSH1 0x20 ADD PUSH1 0x0 KECCAK256 PUSH1 0x0 ADD PUSH1 0x1 ADD DUP2 SWAP1 SSTORE POP PUSH1 0x1 SWAP1 POP SWAP4 SWAP3 POP POP POP JUMP JUMPDEST PUSH1 0x0 DUP1 PUSH1 0x0 DUP1 DUP5 DUP2 MSTORE PUSH1 0x20 ADD SWAP1 DUP2 MSTORE PUSH1 0x20 ADD PUSH1 0x0 KECCAK256 PUSH1 0x0 ADD PUSH1 0x0 ADD SLOAD PUSH1 0x0 DUP1 DUP6 DUP2 MSTORE PUSH1 0x20 ADD SWAP1 DUP2 MSTORE PUSH1 0x20 ADD PUSH1 0x0 KECCAK256 PUSH1 0x0 ADD PUSH1 0x1 ADD SLOAD SWAP2 POP SWAP2 POP SWAP2 POP SWAP2 JUMP JUMPDEST PUSH1 0x0 DUP1 REVERT JUMPDEST PUSH1 0x0 DUP2 SWAP1 POP SWAP2 SWAP1 POP JUMP JUMPDEST PUSH2 0x139 DUP2 PUSH2 0x126 JUMP JUMPDEST DUP2 EQ PUSH2 0x144 JUMPI PUSH1 0x0 DUP1 REVERT JUMPDEST POP JUMP JUMPDEST PUSH1 0x0 DUP2 CALLDATALOAD SWAP1 POP PUSH2 0x156 DUP2 PUSH2 0x130 JUMP JUMPDEST SWAP3 SWAP2 POP POP JUMP JUMPDEST PUSH1 0x0 DUP2 SWAP1 POP SWAP2 SWAP1 POP JUMP JUMPDEST PUSH2 0x16F DUP2 PUSH2 0x15C JUMP JUMPDEST DUP2 EQ PUSH2 0x17A JUMPI PUSH1 0x0 DUP1 REVERT JUMPDEST POP JUMP JUMPDEST PUSH1 0x0 DUP2 CALLDATALOAD SWAP1 POP PUSH2 0x18C DUP2 PUSH2 0x166 JUMP JUMPDEST SWAP3 SWAP2 POP POP JUMP JUMPDEST PUSH1 0x0 DUP1 PUSH1 0x0 PUSH1 0x60 DUP5 DUP7 SUB SLT ISZERO PUSH2 0x1AB JUMPI PUSH2 0x1AA PUSH2 0x121 JUMP JUMPDEST JUMPDEST PUSH1 0x0 PUSH2 0x1B9 DUP7 DUP3 DUP8 ADD PUSH2 0x147 JUMP JUMPDEST SWAP4 POP POP PUSH1 0x20 PUSH2 0x1CA DUP7 DUP3 DUP8 ADD PUSH2 0x17D JUMP JUMPDEST SWAP3 POP POP PUSH1 0x40 PUSH2 0x1DB DUP7 DUP3 DUP8 ADD PUSH2 0x147 JUMP JUMPDEST SWAP2 POP POP SWAP3 POP SWAP3 POP SWAP3 JUMP JUMPDEST PUSH1 0x0 DUP2 ISZERO ISZERO SWAP1 POP SWAP2 SWAP1 POP JUMP JUMPDEST PUSH2 0x1FA DUP2 PUSH2 0x1E5 JUMP JUMPDEST DUP3 MSTORE POP POP JUMP JUMPDEST PUSH1 0x0 PUSH1 0x20 DUP3 ADD SWAP1 POP PUSH2 0x215 PUSH1 0x0 DUP4 ADD DUP5 PUSH2 0x1F1 JUMP JUMPDEST SWAP3 SWAP2 POP POP JUMP JUMPDEST PUSH1 0x0 PUSH1 0x20 DUP3 DUP5 SUB SLT ISZERO PUSH2 0x231 JUMPI PUSH2 0x230 PUSH2 0x121 JUMP JUMPDEST JUMPDEST PUSH1 0x0 PUSH2 0x23F DUP5 DUP3 DUP6 ADD PUSH2 0x147 JUMP JUMPDEST SWAP2 POP POP SWAP3 SWAP2 POP POP JUMP JUMPDEST PUSH2 0x251 DUP2 PUSH2 0x15C JUMP JUMPDEST DUP3 MSTORE POP POP JUMP JUMPDEST PUSH2 0x260 DUP2 PUSH2 0x126 JUMP JUMPDEST DUP3 MSTORE POP POP JUMP JUMPDEST PUSH1 0x0 PUSH1 0x40 DUP3 ADD SWAP1 POP PUSH2 0x27B PUSH1 0x0 DUP4 ADD DUP6 PUSH2 0x248 JUMP JUMPDEST PUSH2 0x288 PUSH1 0x20 DUP4 ADD DUP5 PUSH2 0x257 JUMP JUMPDEST SWAP4 SWAP3 POP POP POP JUMP INVALID LOG2 PUSH5 0x6970667358 0x22 SLT KECCAK256 SWAP13 CODECOPY DUP12 PUSH21 0x2193A1EAA6FC75B6EE54099AD2680516C0D5F26ECB 0x21 RETURNDATASIZE 0xDE 0xCF 0x4C 0xE5 0xC3 PUSH5 0x736F6C6343 STOP ADDMOD GT STOP CALLER "
		},
		"gasEstimates": {
			"creation": {
				"codeDepositCost": "141800",
				"executionCost": "190",
				"totalCost": "141990"
			},
			"external": {
				"addMember(uint256,bytes32,uint256)": "infinite",
				"getMember(uint256)": "infinite"
			}
		},
		"methodIdentifiers": {
			"addMember(uint256,bytes32,uint256)": "77fab391",
			"getMember(uint256)": "ab3545e5"
		}
	},
	"abi": [
		{
			"inputs": [
				{
					"internalType": "uint256",
					"name": "id",
					"type": "uint256"
				},
				{
					"internalType": "bytes32",
					"name": "hash",
					"type": "bytes32"
				},
				{
					"internalType": "uint256",
					"name": "size",
					"type": "uint256"
				}
			],
			"name": "addMember",
			"outputs": [
				{
					"internalType": "bool",
					"name": "success",
					"type": "bool"
				}
			],
			"stateMutability": "nonpayable",
			"type": "function"
		},
		{
			"inputs": [
				{
					"internalType": "uint256",
					"name": "id",
					"type": "uint256"
				}
			],
			"name": "getMember",
			"outputs": [
				{
					"internalType": "bytes32",
					"name": "hash",
					"type": "bytes32"
				},
				{
					"internalType": "uint256",
					"name": "hashSize",
					"type": "uint256"
				}
			],
			"stateMutability": "view",
			"type": "function"
		}
	]
}