{
	"contracts/delegation_medium_sample.sol": {
		"Calculator": {
			"abi": [
				{
					"constant": true,
					"inputs": [],
					"name": "user",
					"outputs": [
						{
							"name": "",
							"type": "address"
						}
					],
					"payable": false,
					"stateMutability": "view",
					"type": "function"
				},
				{
					"constant": true,
					"inputs": [],
					"name": "calculateResult",
					"outputs": [
						{
							"name": "",
							"type": "uint256"
						}
					],
					"payable": false,
					"stateMutability": "view",
					"type": "function"
				},
				{
					"constant": false,
					"inputs": [
						{
							"name": "a",
							"type": "uint256"
						},
						{
							"name": "b",
							"type": "uint256"
						}
					],
					"name": "add",
					"outputs": [
						{
							"name": "",
							"type": "uint256"
						}
					],
					"payable": false,
					"stateMutability": "nonpayable",
					"type": "function"
				},
				{
					"anonymous": false,
					"inputs": [
						{
							"indexed": false,
							"name": "a",
							"type": "uint256"
						},
						{
							"indexed": false,
							"name": "b",
							"type": "uint256"
						}
					],
					"name": "Add",
					"type": "event"
				}
			],
			"devdoc": {
				"methods": {}
			},
			"evm": {
				"assembly": "    /* \"contracts/delegation_medium_sample.sol\":1435:1815  contract Calculator {... */\n  mstore(0x40, 0x80)\n  callvalue\n    /* \"--CODEGEN--\":8:17   */\n  dup1\n    /* \"--CODEGEN--\":5:7   */\n  iszero\n  tag_1\n  jumpi\n    /* \"--CODEGEN--\":30:31   */\n  0x00\n    /* \"--CODEGEN--\":27:28   */\n  dup1\n    /* \"--CODEGEN--\":20:32   */\n  revert\n    /* \"--CODEGEN--\":5:7   */\ntag_1:\n    /* \"contracts/delegation_medium_sample.sol\":1435:1815  contract Calculator {... */\n  pop\n  dataSize(sub_0)\n  dup1\n  dataOffset(sub_0)\n  0x00\n  codecopy\n  0x00\n  return\nstop\n\nsub_0: assembly {\n        /* \"contracts/delegation_medium_sample.sol\":1435:1815  contract Calculator {... */\n      mstore(0x40, 0x80)\n      callvalue\n        /* \"--CODEGEN--\":8:17   */\n      dup1\n        /* \"--CODEGEN--\":5:7   */\n      iszero\n      tag_1\n      jumpi\n        /* \"--CODEGEN--\":30:31   */\n      0x00\n        /* \"--CODEGEN--\":27:28   */\n      dup1\n        /* \"--CODEGEN--\":20:32   */\n      revert\n        /* \"--CODEGEN--\":5:7   */\n    tag_1:\n        /* \"contracts/delegation_medium_sample.sol\":1435:1815  contract Calculator {... */\n      pop\n      jumpi(tag_2, lt(calldatasize, 0x04))\n      shr(0xe0, calldataload(0x00))\n      dup1\n      0x4f8632ba\n      eq\n      tag_3\n      jumpi\n      dup1\n      0x6e008b35\n      eq\n      tag_4\n      jumpi\n      dup1\n      0x771602f7\n      eq\n      tag_5\n      jumpi\n    tag_2:\n      0x00\n      dup1\n      revert\n        /* \"contracts/delegation_medium_sample.sol\":1502:1521  address public user */\n    tag_3:\n      tag_6\n      tag_7\n      jump\t// in\n    tag_6:\n      mload(0x40)\n      dup1\n      dup3\n      0xffffffffffffffffffffffffffffffffffffffff\n      and\n      0xffffffffffffffffffffffffffffffffffffffff\n      and\n      dup2\n      mstore\n      0x20\n      add\n      swap2\n      pop\n      pop\n      mload(0x40)\n      dup1\n      swap2\n      sub\n      swap1\n      return\n        /* \"contracts/delegation_medium_sample.sol\":1461:1491  uint256 public calculateResult */\n    tag_4:\n      tag_8\n      tag_9\n      jump\t// in\n    tag_8:\n      mload(0x40)\n      dup1\n      dup3\n      dup2\n      mstore\n      0x20\n      add\n      swap2\n      pop\n      pop\n      mload(0x40)\n      dup1\n      swap2\n      sub\n      swap1\n      return\n        /* \"contracts/delegation_medium_sample.sol\":1574:1813  function add(uint256 a, uint256 b) public returns (uint256) {... */\n    tag_5:\n      tag_10\n      0x04\n      dup1\n      calldatasize\n      sub\n        /* \"--CODEGEN--\":13:15   */\n      0x40\n        /* \"--CODEGEN--\":8:11   */\n      dup2\n        /* \"--CODEGEN--\":5:16   */\n      lt\n        /* \"--CODEGEN--\":2:4   */\n      iszero\n      tag_11\n      jumpi\n        /* \"--CODEGEN--\":29:30   */\n      0x00\n        /* \"--CODEGEN--\":26:27   */\n      dup1\n        /* \"--CODEGEN--\":19:31   */\n      revert\n        /* \"--CODEGEN--\":2:4   */\n    tag_11:\n        /* \"contracts/delegation_medium_sample.sol\":1574:1813  function add(uint256 a, uint256 b) public returns (uint256) {... */\n      dup2\n      add\n      swap1\n      dup1\n      dup1\n      calldataload\n      swap1\n      0x20\n      add\n      swap1\n      swap3\n      swap2\n      swap1\n      dup1\n      calldataload\n      swap1\n      0x20\n      add\n      swap1\n      swap3\n      swap2\n      swap1\n      pop\n      pop\n      pop\n      tag_12\n      jump\t// in\n    tag_10:\n      mload(0x40)\n      dup1\n      dup3\n      dup2\n      mstore\n      0x20\n      add\n      swap2\n      pop\n      pop\n      mload(0x40)\n      dup1\n      swap2\n      sub\n      swap1\n      return\n        /* \"contracts/delegation_medium_sample.sol\":1502:1521  address public user */\n    tag_7:\n      0x01\n      0x00\n      swap1\n      sload\n      swap1\n      0x0100\n      exp\n      swap1\n      div\n      0xffffffffffffffffffffffffffffffffffffffff\n      and\n      dup2\n      jump\t// out\n        /* \"contracts/delegation_medium_sample.sol\":1461:1491  uint256 public calculateResult */\n    tag_9:\n      sload(0x00)\n      dup2\n      jump\t// out\n        /* \"contracts/delegation_medium_sample.sol\":1574:1813  function add(uint256 a, uint256 b) public returns (uint256) {... */\n    tag_12:\n        /* \"contracts/delegation_medium_sample.sol\":1625:1632  uint256 */\n      0x00\n        /* \"contracts/delegation_medium_sample.sol\":1666:1667  b */\n      dup2\n        /* \"contracts/delegation_medium_sample.sol\":1662:1663  a */\n      dup4\n        /* \"contracts/delegation_medium_sample.sol\":1662:1667  a + b */\n      add\n        /* \"contracts/delegation_medium_sample.sol\":1644:1659  calculateResult */\n      0x00\n        /* \"contracts/delegation_medium_sample.sol\":1644:1667  calculateResult = a + b */\n      dup2\n      swap1\n      sstore\n      pop\n        /* \"contracts/delegation_medium_sample.sol\":1703:1704  a */\n      dup3\n        /* \"contracts/delegation_medium_sample.sol\":1684:1699  calculateResult */\n      sload(0x00)\n        /* \"contracts/delegation_medium_sample.sol\":1684:1704  calculateResult >= a */\n      lt\n      iszero\n        /* \"contracts/delegation_medium_sample.sol\":1677:1705  assert(calculateResult >= a) */\n      tag_14\n      jumpi\n      invalid\n    tag_14:\n        /* \"contracts/delegation_medium_sample.sol\":1729:1738  Add(a, b) */\n      0x7afbe4f1c55b5f72ea356f5b4d5615831867af31454a5ca5557f315e6d11a369\n        /* \"contracts/delegation_medium_sample.sol\":1733:1734  a */\n      dup4\n        /* \"contracts/delegation_medium_sample.sol\":1736:1737  b */\n      dup4\n        /* \"contracts/delegation_medium_sample.sol\":1729:1738  Add(a, b) */\n      mload(0x40)\n      dup1\n      dup4\n      dup2\n      mstore\n      0x20\n      add\n      dup3\n      dup2\n      mstore\n      0x20\n      add\n      swap3\n      pop\n      pop\n      pop\n      mload(0x40)\n      dup1\n      swap2\n      sub\n      swap1\n      log1\n        /* \"contracts/delegation_medium_sample.sol\":1755:1765  msg.sender */\n      caller\n        /* \"contracts/delegation_medium_sample.sol\":1748:1752  user */\n      0x01\n      0x00\n        /* \"contracts/delegation_medium_sample.sol\":1748:1765  user = msg.sender */\n      0x0100\n      exp\n      dup2\n      sload\n      dup2\n      0xffffffffffffffffffffffffffffffffffffffff\n      mul\n      not\n      and\n      swap1\n      dup4\n      0xffffffffffffffffffffffffffffffffffffffff\n      and\n      mul\n      or\n      swap1\n      sstore\n      pop\n        /* \"contracts/delegation_medium_sample.sol\":1791:1806  calculateResult */\n      sload(0x00)\n        /* \"contracts/delegation_medium_sample.sol\":1784:1806  return calculateResult */\n      swap1\n      pop\n        /* \"contracts/delegation_medium_sample.sol\":1574:1813  function add(uint256 a, uint256 b) public returns (uint256) {... */\n      swap3\n      swap2\n      pop\n      pop\n      jump\t// out\n\n    auxdata: 0xa265627a7a7230582006d3c722b479a0fc53f04de9aca38a3615abd5db160b2c93744fa653fbef05c564736f6c63430005090032\n}\n",
				"bytecode": {
					"linkReferences": {},
					"object": "608060405234801561001057600080fd5b506101fd806100206000396000f3fe608060405234801561001057600080fd5b50600436106100415760003560e01c80634f8632ba146100465780636e008b3514610090578063771602f7146100ae575b600080fd5b61004e6100fa565b604051808273ffffffffffffffffffffffffffffffffffffffff1673ffffffffffffffffffffffffffffffffffffffff16815260200191505060405180910390f35b610098610120565b6040518082815260200191505060405180910390f35b6100e4600480360360408110156100c457600080fd5b810190808035906020019092919080359060200190929190505050610126565b6040518082815260200191505060405180910390f35b600160009054906101000a900473ffffffffffffffffffffffffffffffffffffffff1681565b60005481565b600081830160008190555082600054101561013d57fe5b7f7afbe4f1c55b5f72ea356f5b4d5615831867af31454a5ca5557f315e6d11a3698383604051808381526020018281526020019250505060405180910390a133600160006101000a81548173ffffffffffffffffffffffffffffffffffffffff021916908373ffffffffffffffffffffffffffffffffffffffff16021790555060005490509291505056fea265627a7a7230582006d3c722b479a0fc53f04de9aca38a3615abd5db160b2c93744fa653fbef05c564736f6c63430005090032",
					"opcodes": "PUSH1 0x80 PUSH1 0x40 MSTORE CALLVALUE DUP1 ISZERO PUSH2 0x10 JUMPI PUSH1 0x0 DUP1 REVERT JUMPDEST POP PUSH2 0x1FD DUP1 PUSH2 0x20 PUSH1 0x0 CODECOPY PUSH1 0x0 RETURN INVALID PUSH1 0x80 PUSH1 0x40 MSTORE CALLVALUE DUP1 ISZERO PUSH2 0x10 JUMPI PUSH1 0x0 DUP1 REVERT JUMPDEST POP PUSH1 0x4 CALLDATASIZE LT PUSH2 0x41 JUMPI PUSH1 0x0 CALLDATALOAD PUSH1 0xE0 SHR DUP1 PUSH4 0x4F8632BA EQ PUSH2 0x46 JUMPI DUP1 PUSH4 0x6E008B35 EQ PUSH2 0x90 JUMPI DUP1 PUSH4 0x771602F7 EQ PUSH2 0xAE JUMPI JUMPDEST PUSH1 0x0 DUP1 REVERT JUMPDEST PUSH2 0x4E PUSH2 0xFA JUMP JUMPDEST PUSH1 0x40 MLOAD DUP1 DUP3 PUSH20 0xFFFFFFFFFFFFFFFFFFFFFFFFFFFFFFFFFFFFFFFF AND PUSH20 0xFFFFFFFFFFFFFFFFFFFFFFFFFFFFFFFFFFFFFFFF AND DUP2 MSTORE PUSH1 0x20 ADD SWAP2 POP POP PUSH1 0x40 MLOAD DUP1 SWAP2 SUB SWAP1 RETURN JUMPDEST PUSH2 0x98 PUSH2 0x120 JUMP JUMPDEST PUSH1 0x40 MLOAD DUP1 DUP3 DUP2 MSTORE PUSH1 0x20 ADD SWAP2 POP POP PUSH1 0x40 MLOAD DUP1 SWAP2 SUB SWAP1 RETURN JUMPDEST PUSH2 0xE4 PUSH1 0x4 DUP1 CALLDATASIZE SUB PUSH1 0x40 DUP2 LT ISZERO PUSH2 0xC4 JUMPI PUSH1 0x0 DUP1 REVERT JUMPDEST DUP2 ADD SWAP1 DUP1 DUP1 CALLDATALOAD SWAP1 PUSH1 0x20 ADD SWAP1 SWAP3 SWAP2 SWAP1 DUP1 CALLDATALOAD SWAP1 PUSH1 0x20 ADD SWAP1 SWAP3 SWAP2 SWAP1 POP POP POP PUSH2 0x126 JUMP JUMPDEST PUSH1 0x40 MLOAD DUP1 DUP3 DUP2 MSTORE PUSH1 0x20 ADD SWAP2 POP POP PUSH1 0x40 MLOAD DUP1 SWAP2 SUB SWAP1 RETURN JUMPDEST PUSH1 0x1 PUSH1 0x0 SWAP1 SLOAD SWAP1 PUSH2 0x100 EXP SWAP1 DIV PUSH20 0xFFFFFFFFFFFFFFFFFFFFFFFFFFFFFFFFFFFFFFFF AND DUP2 JUMP JUMPDEST PUSH1 0x0 SLOAD DUP2 JUMP JUMPDEST PUSH1 0x0 DUP2 DUP4 ADD PUSH1 0x0 DUP2 SWAP1 SSTORE POP DUP3 PUSH1 0x0 SLOAD LT ISZERO PUSH2 0x13D JUMPI INVALID JUMPDEST PUSH32 0x7AFBE4F1C55B5F72EA356F5B4D5615831867AF31454A5CA5557F315E6D11A369 DUP4 DUP4 PUSH1 0x40 MLOAD DUP1 DUP4 DUP2 MSTORE PUSH1 0x20 ADD DUP3 DUP2 MSTORE PUSH1 0x20 ADD SWAP3 POP POP POP PUSH1 0x40 MLOAD DUP1 SWAP2 SUB SWAP1 LOG1 CALLER PUSH1 0x1 PUSH1 0x0 PUSH2 0x100 EXP DUP2 SLOAD DUP2 PUSH20 0xFFFFFFFFFFFFFFFFFFFFFFFFFFFFFFFFFFFFFFFF MUL NOT AND SWAP1 DUP4 PUSH20 0xFFFFFFFFFFFFFFFFFFFFFFFFFFFFFFFFFFFFFFFF AND MUL OR SWAP1 SSTORE POP PUSH1 0x0 SLOAD SWAP1 POP SWAP3 SWAP2 POP POP JUMP INVALID LOG2 PUSH6 0x627A7A723058 KECCAK256 MOD 0xd3 0xc7 0x22 0xb4 PUSH26 0xA0FC53F04DE9ACA38A3615ABD5DB160B2C93744FA653FBEF05C5 PUSH5 0x736F6C6343 STOP SDIV MULMOD STOP ORIGIN "
				},
				"gasEstimates": {
					"creation": {
						"codeDepositCost": "101800",
						"executionCost": "147",
						"totalCost": "101947"
					},
					"external": {
						"add(uint256,uint256)": "42403",
						"calculateResult()": "405",
						"user()": "431"
					}
				},
				"methodIdentifiers": {
					"add(uint256,uint256)": "771602f7",
					"calculateResult()": "6e008b35",
					"user()": "4f8632ba"
				}
			},
			"userdoc": {
				"methods": {}
			}
		}
	}
}