{
	"contracts/DeStore/GatedAppSimple.sol": {
		"GatedAPP": {
			"abi": [
				{
					"inputs": [],
					"stateMutability": "nonpayable",
					"type": "constructor"
				},
				{
					"anonymous": false,
					"inputs": [
						{
							"indexed": true,
							"internalType": "address",
							"name": "owner",
							"type": "address"
						},
						{
							"indexed": true,
							"internalType": "address",
							"name": "approved",
							"type": "address"
						},
						{
							"indexed": true,
							"internalType": "uint256",
							"name": "tokenId",
							"type": "uint256"
						}
					],
					"name": "Approval",
					"type": "event"
				},
				{
					"anonymous": false,
					"inputs": [
						{
							"indexed": true,
							"internalType": "address",
							"name": "owner",
							"type": "address"
						},
						{
							"indexed": true,
							"internalType": "address",
							"name": "operator",
							"type": "address"
						},
						{
							"indexed": false,
							"internalType": "bool",
							"name": "approved",
							"type": "bool"
						}
					],
					"name": "ApprovalForAll",
					"type": "event"
				},
				{
					"anonymous": false,
					"inputs": [
						{
							"indexed": true,
							"internalType": "address",
							"name": "from",
							"type": "address"
						},
						{
							"indexed": true,
							"internalType": "address",
							"name": "to",
							"type": "address"
						},
						{
							"indexed": true,
							"internalType": "uint256",
							"name": "tokenId",
							"type": "uint256"
						}
					],
					"name": "Transfer",
					"type": "event"
				},
				{
					"inputs": [
						{
							"internalType": "address",
							"name": "to",
							"type": "address"
						},
						{
							"internalType": "uint256",
							"name": "tokenId",
							"type": "uint256"
						}
					],
					"name": "approve",
					"outputs": [],
					"stateMutability": "nonpayable",
					"type": "function"
				},
				{
					"inputs": [
						{
							"internalType": "address",
							"name": "owner",
							"type": "address"
						}
					],
					"name": "balanceOf",
					"outputs": [
						{
							"internalType": "uint256",
							"name": "",
							"type": "uint256"
						}
					],
					"stateMutability": "view",
					"type": "function"
				},
				{
					"inputs": [],
					"name": "claimToken",
					"outputs": [
						{
							"internalType": "bool",
							"name": "",
							"type": "bool"
						}
					],
					"stateMutability": "payable",
					"type": "function"
				},
				{
					"inputs": [
						{
							"internalType": "uint256",
							"name": "tokenId",
							"type": "uint256"
						}
					],
					"name": "getApproved",
					"outputs": [
						{
							"internalType": "address",
							"name": "",
							"type": "address"
						}
					],
					"stateMutability": "view",
					"type": "function"
				},
				{
					"inputs": [
						{
							"internalType": "address",
							"name": "owner",
							"type": "address"
						},
						{
							"internalType": "address",
							"name": "operator",
							"type": "address"
						}
					],
					"name": "isApprovedForAll",
					"outputs": [
						{
							"internalType": "bool",
							"name": "",
							"type": "bool"
						}
					],
					"stateMutability": "view",
					"type": "function"
				},
				{
					"inputs": [],
					"name": "maxTokens",
					"outputs": [
						{
							"internalType": "uint8",
							"name": "",
							"type": "uint8"
						}
					],
					"stateMutability": "view",
					"type": "function"
				},
				{
					"inputs": [],
					"name": "name",
					"outputs": [
						{
							"internalType": "string",
							"name": "",
							"type": "string"
						}
					],
					"stateMutability": "view",
					"type": "function"
				},
				{
					"inputs": [
						{
							"internalType": "uint256",
							"name": "tokenId",
							"type": "uint256"
						}
					],
					"name": "ownerOf",
					"outputs": [
						{
							"internalType": "address",
							"name": "",
							"type": "address"
						}
					],
					"stateMutability": "view",
					"type": "function"
				},
				{
					"inputs": [
						{
							"internalType": "address",
							"name": "from",
							"type": "address"
						},
						{
							"internalType": "address",
							"name": "to",
							"type": "address"
						},
						{
							"internalType": "uint256",
							"name": "tokenId",
							"type": "uint256"
						}
					],
					"name": "safeTransferFrom",
					"outputs": [],
					"stateMutability": "nonpayable",
					"type": "function"
				},
				{
					"inputs": [
						{
							"internalType": "address",
							"name": "from",
							"type": "address"
						},
						{
							"internalType": "address",
							"name": "to",
							"type": "address"
						},
						{
							"internalType": "uint256",
							"name": "tokenId",
							"type": "uint256"
						},
						{
							"internalType": "bytes",
							"name": "data",
							"type": "bytes"
						}
					],
					"name": "safeTransferFrom",
					"outputs": [],
					"stateMutability": "nonpayable",
					"type": "function"
				},
				{
					"inputs": [
						{
							"internalType": "address",
							"name": "operator",
							"type": "address"
						},
						{
							"internalType": "bool",
							"name": "approved",
							"type": "bool"
						}
					],
					"name": "setApprovalForAll",
					"outputs": [],
					"stateMutability": "nonpayable",
					"type": "function"
				},
				{
					"inputs": [
						{
							"internalType": "bytes4",
							"name": "interfaceId",
							"type": "bytes4"
						}
					],
					"name": "supportsInterface",
					"outputs": [
						{
							"internalType": "bool",
							"name": "",
							"type": "bool"
						}
					],
					"stateMutability": "view",
					"type": "function"
				},
				{
					"inputs": [],
					"name": "symbol",
					"outputs": [
						{
							"internalType": "string",
							"name": "",
							"type": "string"
						}
					],
					"stateMutability": "view",
					"type": "function"
				},
				{
					"inputs": [],
					"name": "tokenCount",
					"outputs": [
						{
							"internalType": "uint8",
							"name": "",
							"type": "uint8"
						}
					],
					"stateMutability": "view",
					"type": "function"
				},
				{
					"inputs": [
						{
							"internalType": "uint256",
							"name": "tokenId",
							"type": "uint256"
						}
					],
					"name": "tokenURI",
					"outputs": [
						{
							"internalType": "string",
							"name": "",
							"type": "string"
						}
					],
					"stateMutability": "view",
					"type": "function"
				},
				{
					"inputs": [],
					"name": "totalTokenOwners",
					"outputs": [
						{
							"internalType": "uint8",
							"name": "",
							"type": "uint8"
						}
					],
					"stateMutability": "view",
					"type": "function"
				},
				{
					"inputs": [
						{
							"internalType": "address",
							"name": "from",
							"type": "address"
						},
						{
							"internalType": "address",
							"name": "to",
							"type": "address"
						},
						{
							"internalType": "uint256",
							"name": "tokenId",
							"type": "uint256"
						}
					],
					"name": "transferFrom",
					"outputs": [],
					"stateMutability": "nonpayable",
					"type": "function"
				},
				{
					"inputs": [],
					"name": "unclaimedTokens",
					"outputs": [
						{
							"internalType": "uint8",
							"name": "",
							"type": "uint8"
						}
					],
					"stateMutability": "view",
					"type": "function"
				}
			],
			"devdoc": {
				"kind": "dev",
				"methods": {
					"approve(address,uint256)": {
						"details": "See {IERC721-approve}."
					},
					"balanceOf(address)": {
						"details": "See {IERC721-balanceOf}."
					},
					"getApproved(uint256)": {
						"details": "See {IERC721-getApproved}."
					},
					"isApprovedForAll(address,address)": {
						"details": "See {IERC721-isApprovedForAll}."
					},
					"name()": {
						"details": "See {IERC721Metadata-name}."
					},
					"ownerOf(uint256)": {
						"details": "See {IERC721-ownerOf}."
					},
					"safeTransferFrom(address,address,uint256)": {
						"details": "See {IERC721-safeTransferFrom}."
					},
					"safeTransferFrom(address,address,uint256,bytes)": {
						"details": "See {IERC721-safeTransferFrom}."
					},
					"setApprovalForAll(address,bool)": {
						"details": "See {IERC721-setApprovalForAll}."
					},
					"supportsInterface(bytes4)": {
						"details": "See {IERC165-supportsInterface}."
					},
					"symbol()": {
						"details": "See {IERC721Metadata-symbol}."
					},
					"tokenURI(uint256)": {
						"details": "See {IERC721Metadata-tokenURI}."
					},
					"transferFrom(address,address,uint256)": {
						"details": "See {IERC721-transferFrom}."
					}
				},
				"version": 1
			},
			"evm": {
				"assembly": "    /* \"contracts/DeStore/GatedAppSimple.sol\":116:828  contract GatedAPP is ERC721(\"GatedAPP\", \"GC\") {... */\n  mstore(0x40, 0x80)\n    /* \"contracts/DeStore/GatedAppSimple.sol\":204:205  0 */\n  0x00\n    /* \"contracts/DeStore/GatedAppSimple.sol\":178:205  uint8 public tokenCount = 0 */\n  0x06\n  exp(0x0100, 0x00)\n  dup2\n  sload\n  dup2\n  0xff\n  mul\n  not\n  and\n  swap1\n  dup4\n  0xff\n  and\n  mul\n  or\n  swap1\n  sstore\n  pop\n    /* \"contracts/DeStore/GatedAppSimple.sol\":236:239  100 */\n  0x64\n    /* \"contracts/DeStore/GatedAppSimple.sol\":211:239  uint8 public maxTokens = 100 */\n  0x06\n  exp(0x0100, 0x01)\n  dup2\n  sload\n  dup2\n  0xff\n  mul\n  not\n  and\n  swap1\n  dup4\n  0xff\n  and\n  mul\n  or\n  swap1\n  sstore\n  pop\n    /* \"contracts/DeStore/GatedAppSimple.sol\":273:291  100000000000000000 */\n  0x016345785d8a0000\n    /* \"contracts/DeStore/GatedAppSimple.sol\":245:291  uint256 initialTokenPrice = 100000000000000000 */\n  0x07\n  sstore\n    /* \"contracts/DeStore/GatedAppSimple.sol\":302:339  constructor() public {... */\n  callvalue\n  dup1\n  iszero\n  tag_1\n  jumpi\n  0x00\n  dup1\n  revert\ntag_1:\n  pop\n    /* \"@openzeppelin/contracts/token/ERC721/ERC721.sol\":1390:1503  constructor(string memory name_, string memory symbol_) {... */\n  mload(0x40)\n  dup1\n  0x40\n  add\n  0x40\n  mstore\n  dup1\n  0x08\n  dup2\n  mstore\n  0x20\n  add\n  0x4761746564415050000000000000000000000000000000000000000000000000\n  dup2\n  mstore\n  pop\n  mload(0x40)\n  dup1\n  0x40\n  add\n  0x40\n  mstore\n  dup1\n  0x02\n  dup2\n  mstore\n  0x20\n  add\n  0x4743000000000000000000000000000000000000000000000000000000000000\n  dup2\n  mstore\n  pop\n    /* \"@openzeppelin/contracts/token/ERC721/ERC721.sol\":1464:1469  name_ */\n  dup2\n    /* \"@openzeppelin/contracts/token/ERC721/ERC721.sol\":1456:1461  _name */\n  0x00\n    /* \"@openzeppelin/contracts/token/ERC721/ERC721.sol\":1456:1469  _name = name_ */\n  swap1\n  dup1\n  mload\n  swap1\n  0x20\n  add\n  swap1\n  tag_5\n  swap3\n  swap2\n  swap1\n  tag_6\n  jump\t// in\ntag_5:\n  pop\n    /* \"@openzeppelin/contracts/token/ERC721/ERC721.sol\":1489:1496  symbol_ */\n  dup1\n    /* \"@openzeppelin/contracts/token/ERC721/ERC721.sol\":1479:1486  _symbol */\n  0x01\n    /* \"@openzeppelin/contracts/token/ERC721/ERC721.sol\":1479:1496  _symbol = symbol_ */\n  swap1\n  dup1\n  mload\n  swap1\n  0x20\n  add\n  swap1\n  tag_7\n  swap3\n  swap2\n  swap1\n  tag_6\n  jump\t// in\ntag_7:\n  pop\n    /* \"@openzeppelin/contracts/token/ERC721/ERC721.sol\":1390:1503  constructor(string memory name_, string memory symbol_) {... */\n  pop\n  pop\n    /* \"contracts/DeStore/GatedAppSimple.sol\":116:828  contract GatedAPP is ERC721(\"GatedAPP\", \"GC\") {... */\n  jump(tag_9)\ntag_6:\n  dup3\n  dup1\n  sload\n  tag_10\n  swap1\n  tag_11\n  jump\t// in\ntag_10:\n  swap1\n  0x00\n  mstore\n  keccak256(0x00, 0x20)\n  swap1\n  0x1f\n  add\n  0x20\n  swap1\n  div\n  dup2\n  add\n  swap3\n  dup3\n  tag_13\n  jumpi\n  0x00\n  dup6\n  sstore\n  jump(tag_12)\ntag_13:\n  dup3\n  0x1f\n  lt\n  tag_14\n  jumpi\n  dup1\n  mload\n  not(0xff)\n  and\n  dup4\n  dup1\n  add\n  or\n  dup6\n  sstore\n  jump(tag_12)\ntag_14:\n  dup3\n  dup1\n  add\n  0x01\n  add\n  dup6\n  sstore\n  dup3\n  iszero\n  tag_12\n  jumpi\n  swap2\n  dup3\n  add\ntag_15:\n  dup3\n  dup2\n  gt\n  iszero\n  tag_16\n  jumpi\n  dup3\n  mload\n  dup3\n  sstore\n  swap2\n  0x20\n  add\n  swap2\n  swap1\n  0x01\n  add\n  swap1\n  jump(tag_15)\ntag_16:\ntag_12:\n  pop\n  swap1\n  pop\n  tag_17\n  swap2\n  swap1\n  tag_18\n  jump\t// in\ntag_17:\n  pop\n  swap1\n  jump\t// out\ntag_18:\ntag_19:\n  dup1\n  dup3\n  gt\n  iszero\n  tag_20\n  jumpi\n  0x00\n  dup2\n  0x00\n  swap1\n  sstore\n  pop\n  0x01\n  add\n  jump(tag_19)\ntag_20:\n  pop\n  swap1\n  jump\t// out\n    /* \"#utility.yul\":7:187   */\ntag_21:\n    /* \"#utility.yul\":55:132   */\n  0x4e487b7100000000000000000000000000000000000000000000000000000000\n    /* \"#utility.yul\":52:53   */\n  0x00\n    /* \"#utility.yul\":45:133   */\n  mstore\n    /* \"#utility.yul\":152:156   */\n  0x22\n    /* \"#utility.yul\":149:150   */\n  0x04\n    /* \"#utility.yul\":142:157   */\n  mstore\n    /* \"#utility.yul\":176:180   */\n  0x24\n    /* \"#utility.yul\":173:174   */\n  0x00\n    /* \"#utility.yul\":166:181   */\n  revert\n    /* \"#utility.yul\":193:513   */\ntag_11:\n    /* \"#utility.yul\":237:243   */\n  0x00\n    /* \"#utility.yul\":274:275   */\n  0x02\n    /* \"#utility.yul\":268:272   */\n  dup3\n    /* \"#utility.yul\":264:276   */\n  div\n    /* \"#utility.yul\":254:276   */\n  swap1\n  pop\n    /* \"#utility.yul\":321:322   */\n  0x01\n    /* \"#utility.yul\":315:319   */\n  dup3\n    /* \"#utility.yul\":311:323   */\n  and\n    /* \"#utility.yul\":342:360   */\n  dup1\n    /* \"#utility.yul\":332:413   */\n  tag_25\n  jumpi\n    /* \"#utility.yul\":398:402   */\n  0x7f\n    /* \"#utility.yul\":390:396   */\n  dup3\n    /* \"#utility.yul\":386:403   */\n  and\n    /* \"#utility.yul\":376:403   */\n  swap2\n  pop\n    /* \"#utility.yul\":332:413   */\ntag_25:\n    /* \"#utility.yul\":460:462   */\n  0x20\n    /* \"#utility.yul\":452:458   */\n  dup3\n    /* \"#utility.yul\":449:463   */\n  lt\n    /* \"#utility.yul\":429:447   */\n  dup2\n    /* \"#utility.yul\":426:464   */\n  sub\n    /* \"#utility.yul\":423:507   */\n  tag_26\n  jumpi\n    /* \"#utility.yul\":479:497   */\n  tag_27\n  tag_21\n  jump\t// in\ntag_27:\n    /* \"#utility.yul\":423:507   */\ntag_26:\n    /* \"#utility.yul\":244:513   */\n  pop\n    /* \"#utility.yul\":193:513   */\n  swap2\n  swap1\n  pop\n  jump\t// out\n    /* \"contracts/DeStore/GatedAppSimple.sol\":116:828  contract GatedAPP is ERC721(\"GatedAPP\", \"GC\") {... */\ntag_9:\n  dataSize(sub_0)\n  dup1\n  dataOffset(sub_0)\n  0x00\n  codecopy\n  0x00\n  return\nstop\n\nsub_0: assembly {\n        /* \"contracts/DeStore/GatedAppSimple.sol\":116:828  contract GatedAPP is ERC721(\"GatedAPP\", \"GC\") {... */\n      mstore(0x40, 0x80)\n      jumpi(tag_1, lt(calldatasize, 0x04))\n      shr(0xe0, calldataload(0x00))\n      dup1\n      0x70a08231\n      gt\n      tag_20\n      jumpi\n      dup1\n      0xb88d4fde\n      gt\n      tag_21\n      jumpi\n      dup1\n      0xb88d4fde\n      eq\n      tag_15\n      jumpi\n      dup1\n      0xc394f6cb\n      eq\n      tag_16\n      jumpi\n      dup1\n      0xc87b56dd\n      eq\n      tag_17\n      jumpi\n      dup1\n      0xe8315742\n      eq\n      tag_18\n      jumpi\n      dup1\n      0xe985e9c5\n      eq\n      tag_19\n      jumpi\n      jump(tag_1)\n    tag_21:\n      dup1\n      0x70a08231\n      eq\n      tag_11\n      jumpi\n      dup1\n      0x95d89b41\n      eq\n      tag_12\n      jumpi\n      dup1\n      0x9f181b5e\n      eq\n      tag_13\n      jumpi\n      dup1\n      0xa22cb465\n      eq\n      tag_14\n      jumpi\n      jump(tag_1)\n    tag_20:\n      dup1\n      0x23b872dd\n      gt\n      tag_22\n      jumpi\n      dup1\n      0x23b872dd\n      eq\n      tag_6\n      jumpi\n      dup1\n      0x2cabbfe2\n      eq\n      tag_7\n      jumpi\n      dup1\n      0x42842e0e\n      eq\n      tag_8\n      jumpi\n      dup1\n      0x4451d89f\n      eq\n      tag_9\n      jumpi\n      dup1\n      0x6352211e\n      eq\n      tag_10\n      jumpi\n      jump(tag_1)\n    tag_22:\n      dup1\n      0x01ffc9a7\n      eq\n      tag_2\n      jumpi\n      dup1\n      0x06fdde03\n      eq\n      tag_3\n      jumpi\n      dup1\n      0x081812fc\n      eq\n      tag_4\n      jumpi\n      dup1\n      0x095ea7b3\n      eq\n      tag_5\n      jumpi\n    tag_1:\n      0x00\n      dup1\n      revert\n        /* \"@openzeppelin/contracts/token/ERC721/ERC721.sol\":1570:1870  function supportsInterface(bytes4 interfaceId) public view virtual override(ERC165, IERC165) returns (bool) {... */\n    tag_2:\n      callvalue\n      dup1\n      iszero\n      tag_23\n      jumpi\n      0x00\n      dup1\n      revert\n    tag_23:\n      pop\n      tag_24\n      0x04\n      dup1\n      calldatasize\n      sub\n      dup2\n      add\n      swap1\n      tag_25\n      swap2\n      swap1\n      tag_26\n      jump\t// in\n    tag_25:\n      tag_27\n      jump\t// in\n    tag_24:\n      mload(0x40)\n      tag_28\n      swap2\n      swap1\n      tag_29\n      jump\t// in\n    tag_28:\n      mload(0x40)\n      dup1\n      swap2\n      sub\n      swap1\n      return\n        /* \"@openzeppelin/contracts/token/ERC721/ERC721.sol\":2470:2568  function name() public view virtual override returns (string memory) {... */\n    tag_3:\n      callvalue\n      dup1\n      iszero\n      tag_30\n      jumpi\n      0x00\n      dup1\n      revert\n    tag_30:\n      pop\n      tag_31\n      tag_32\n      jump\t// in\n    tag_31:\n      mload(0x40)\n      tag_33\n      swap2\n      swap1\n      tag_34\n      jump\t// in\n    tag_33:\n      mload(0x40)\n      dup1\n      swap2\n      sub\n      swap1\n      return\n        /* \"@openzeppelin/contracts/token/ERC721/ERC721.sol\":3935:4102  function getApproved(uint256 tokenId) public view virtual override returns (address) {... */\n    tag_4:\n      callvalue\n      dup1\n      iszero\n      tag_35\n      jumpi\n      0x00\n      dup1\n      revert\n    tag_35:\n      pop\n      tag_36\n      0x04\n      dup1\n      calldatasize\n      sub\n      dup2\n      add\n      swap1\n      tag_37\n      swap2\n      swap1\n      tag_38\n      jump\t// in\n    tag_37:\n      tag_39\n      jump\t// in\n    tag_36:\n      mload(0x40)\n      tag_40\n      swap2\n      swap1\n      tag_41\n      jump\t// in\n    tag_40:\n      mload(0x40)\n      dup1\n      swap2\n      sub\n      swap1\n      return\n        /* \"@openzeppelin/contracts/token/ERC721/ERC721.sol\":3467:3874  function approve(address to, uint256 tokenId) public virtual override {... */\n    tag_5:\n      callvalue\n      dup1\n      iszero\n      tag_42\n      jumpi\n      0x00\n      dup1\n      revert\n    tag_42:\n      pop\n      tag_43\n      0x04\n      dup1\n      calldatasize\n      sub\n      dup2\n      add\n      swap1\n      tag_44\n      swap2\n      swap1\n      tag_45\n      jump\t// in\n    tag_44:\n      tag_46\n      jump\t// in\n    tag_43:\n      stop\n        /* \"@openzeppelin/contracts/token/ERC721/ERC721.sol\":4612:4939  function transferFrom(... */\n    tag_6:\n      callvalue\n      dup1\n      iszero\n      tag_47\n      jumpi\n      0x00\n      dup1\n      revert\n    tag_47:\n      pop\n      tag_48\n      0x04\n      dup1\n      calldatasize\n      sub\n      dup2\n      add\n      swap1\n      tag_49\n      swap2\n      swap1\n      tag_50\n      jump\t// in\n    tag_49:\n      tag_51\n      jump\t// in\n    tag_48:\n      stop\n        /* \"contracts/DeStore/GatedAppSimple.sol\":737:825  function totalTokenOwners() public view returns(uint8){... */\n    tag_7:\n      callvalue\n      dup1\n      iszero\n      tag_52\n      jumpi\n      0x00\n      dup1\n      revert\n    tag_52:\n      pop\n      tag_53\n      tag_54\n      jump\t// in\n    tag_53:\n      mload(0x40)\n      tag_55\n      swap2\n      swap1\n      tag_56\n      jump\t// in\n    tag_55:\n      mload(0x40)\n      dup1\n      swap2\n      sub\n      swap1\n      return\n        /* \"@openzeppelin/contracts/token/ERC721/ERC721.sol\":5005:5184  function safeTransferFrom(... */\n    tag_8:\n      callvalue\n      dup1\n      iszero\n      tag_57\n      jumpi\n      0x00\n      dup1\n      revert\n    tag_57:\n      pop\n      tag_58\n      0x04\n      dup1\n      calldatasize\n      sub\n      dup2\n      add\n      swap1\n      tag_59\n      swap2\n      swap1\n      tag_50\n      jump\t// in\n    tag_59:\n      tag_60\n      jump\t// in\n    tag_58:\n      stop\n        /* \"contracts/DeStore/GatedAppSimple.sol\":345:626  function claimToken() public payable returns(bool) {... */\n    tag_9:\n      tag_61\n      tag_62\n      jump\t// in\n    tag_61:\n      mload(0x40)\n      tag_63\n      swap2\n      swap1\n      tag_29\n      jump\t// in\n    tag_63:\n      mload(0x40)\n      dup1\n      swap2\n      sub\n      swap1\n      return\n        /* \"@openzeppelin/contracts/token/ERC721/ERC721.sol\":2190:2408  function ownerOf(uint256 tokenId) public view virtual override returns (address) {... */\n    tag_10:\n      callvalue\n      dup1\n      iszero\n      tag_64\n      jumpi\n      0x00\n      dup1\n      revert\n    tag_64:\n      pop\n      tag_65\n      0x04\n      dup1\n      calldatasize\n      sub\n      dup2\n      add\n      swap1\n      tag_66\n      swap2\n      swap1\n      tag_38\n      jump\t// in\n    tag_66:\n      tag_67\n      jump\t// in\n    tag_65:\n      mload(0x40)\n      tag_68\n      swap2\n      swap1\n      tag_41\n      jump\t// in\n    tag_68:\n      mload(0x40)\n      dup1\n      swap2\n      sub\n      swap1\n      return\n        /* \"@openzeppelin/contracts/token/ERC721/ERC721.sol\":1929:2133  function balanceOf(address owner) public view virtual override returns (uint256) {... */\n    tag_11:\n      callvalue\n      dup1\n      iszero\n      tag_69\n      jumpi\n      0x00\n      dup1\n      revert\n    tag_69:\n      pop\n      tag_70\n      0x04\n      dup1\n      calldatasize\n      sub\n      dup2\n      add\n      swap1\n      tag_71\n      swap2\n      swap1\n      tag_72\n      jump\t// in\n    tag_71:\n      tag_73\n      jump\t// in\n    tag_70:\n      mload(0x40)\n      tag_74\n      swap2\n      swap1\n      tag_75\n      jump\t// in\n    tag_74:\n      mload(0x40)\n      dup1\n      swap2\n      sub\n      swap1\n      return\n        /* \"@openzeppelin/contracts/token/ERC721/ERC721.sol\":2632:2734  function symbol() public view virtual override returns (string memory) {... */\n    tag_12:\n      callvalue\n      dup1\n      iszero\n      tag_76\n      jumpi\n      0x00\n      dup1\n      revert\n    tag_76:\n      pop\n      tag_77\n      tag_78\n      jump\t// in\n    tag_77:\n      mload(0x40)\n      tag_79\n      swap2\n      swap1\n      tag_34\n      jump\t// in\n    tag_79:\n      mload(0x40)\n      dup1\n      swap2\n      sub\n      swap1\n      return\n        /* \"contracts/DeStore/GatedAppSimple.sol\":178:205  uint8 public tokenCount = 0 */\n    tag_13:\n      callvalue\n      dup1\n      iszero\n      tag_80\n      jumpi\n      0x00\n      dup1\n      revert\n    tag_80:\n      pop\n      tag_81\n      tag_82\n      jump\t// in\n    tag_81:\n      mload(0x40)\n      tag_83\n      swap2\n      swap1\n      tag_56\n      jump\t// in\n    tag_83:\n      mload(0x40)\n      dup1\n      swap2\n      sub\n      swap1\n      return\n        /* \"@openzeppelin/contracts/token/ERC721/ERC721.sol\":4169:4322  function setApprovalForAll(address operator, bool approved) public virtual override {... */\n    tag_14:\n      callvalue\n      dup1\n      iszero\n      tag_84\n      jumpi\n      0x00\n      dup1\n      revert\n    tag_84:\n      pop\n      tag_85\n      0x04\n      dup1\n      calldatasize\n      sub\n      dup2\n      add\n      swap1\n      tag_86\n      swap2\n      swap1\n      tag_87\n      jump\t// in\n    tag_86:\n      tag_88\n      jump\t// in\n    tag_85:\n      stop\n        /* \"@openzeppelin/contracts/token/ERC721/ERC721.sol\":5250:5565  function safeTransferFrom(... */\n    tag_15:\n      callvalue\n      dup1\n      iszero\n      tag_89\n      jumpi\n      0x00\n      dup1\n      revert\n    tag_89:\n      pop\n      tag_90\n      0x04\n      dup1\n      calldatasize\n      sub\n      dup2\n      add\n      swap1\n      tag_91\n      swap2\n      swap1\n      tag_92\n      jump\t// in\n    tag_91:\n      tag_93\n      jump\t// in\n    tag_90:\n      stop\n        /* \"contracts/DeStore/GatedAppSimple.sol\":632:731  function unclaimedTokens() public view returns(uint8){... */\n    tag_16:\n      callvalue\n      dup1\n      iszero\n      tag_94\n      jumpi\n      0x00\n      dup1\n      revert\n    tag_94:\n      pop\n      tag_95\n      tag_96\n      jump\t// in\n    tag_95:\n      mload(0x40)\n      tag_97\n      swap2\n      swap1\n      tag_56\n      jump\t// in\n    tag_97:\n      mload(0x40)\n      dup1\n      swap2\n      sub\n      swap1\n      return\n        /* \"@openzeppelin/contracts/token/ERC721/ERC721.sol\":2800:3076  function tokenURI(uint256 tokenId) public view virtual override returns (string memory) {... */\n    tag_17:\n      callvalue\n      dup1\n      iszero\n      tag_98\n      jumpi\n      0x00\n      dup1\n      revert\n    tag_98:\n      pop\n      tag_99\n      0x04\n      dup1\n      calldatasize\n      sub\n      dup2\n      add\n      swap1\n      tag_100\n      swap2\n      swap1\n      tag_38\n      jump\t// in\n    tag_100:\n      tag_101\n      jump\t// in\n    tag_99:\n      mload(0x40)\n      tag_102\n      swap2\n      swap1\n      tag_34\n      jump\t// in\n    tag_102:\n      mload(0x40)\n      dup1\n      swap2\n      sub\n      swap1\n      return\n        /* \"contracts/DeStore/GatedAppSimple.sol\":211:239  uint8 public maxTokens = 100 */\n    tag_18:\n      callvalue\n      dup1\n      iszero\n      tag_103\n      jumpi\n      0x00\n      dup1\n      revert\n    tag_103:\n      pop\n      tag_104\n      tag_105\n      jump\t// in\n    tag_104:\n      mload(0x40)\n      tag_106\n      swap2\n      swap1\n      tag_56\n      jump\t// in\n    tag_106:\n      mload(0x40)\n      dup1\n      swap2\n      sub\n      swap1\n      return\n        /* \"@openzeppelin/contracts/token/ERC721/ERC721.sol\":4388:4550  function isApprovedForAll(address owner, address operator) public view virtual override returns (bool) {... */\n    tag_19:\n      callvalue\n      dup1\n      iszero\n      tag_107\n      jumpi\n      0x00\n      dup1\n      revert\n    tag_107:\n      pop\n      tag_108\n      0x04\n      dup1\n      calldatasize\n      sub\n      dup2\n      add\n      swap1\n      tag_109\n      swap2\n      swap1\n      tag_110\n      jump\t// in\n    tag_109:\n      tag_111\n      jump\t// in\n    tag_108:\n      mload(0x40)\n      tag_112\n      swap2\n      swap1\n      tag_29\n      jump\t// in\n    tag_112:\n      mload(0x40)\n      dup1\n      swap2\n      sub\n      swap1\n      return\n        /* \"@openzeppelin/contracts/token/ERC721/ERC721.sol\":1570:1870  function supportsInterface(bytes4 interfaceId) public view virtual override(ERC165, IERC165) returns (bool) {... */\n    tag_27:\n        /* \"@openzeppelin/contracts/token/ERC721/ERC721.sol\":1672:1676  bool */\n      0x00\n        /* \"@openzeppelin/contracts/token/ERC721/ERC721.sol\":1722:1747  type(IERC721).interfaceId */\n      0x80ac58cd00000000000000000000000000000000000000000000000000000000\n        /* \"@openzeppelin/contracts/token/ERC721/ERC721.sol\":1707:1747  interfaceId == type(IERC721).interfaceId */\n      not(0xffffffffffffffffffffffffffffffffffffffffffffffffffffffff)\n      and\n        /* \"@openzeppelin/contracts/token/ERC721/ERC721.sol\":1707:1718  interfaceId */\n      dup3\n        /* \"@openzeppelin/contracts/token/ERC721/ERC721.sol\":1707:1747  interfaceId == type(IERC721).interfaceId */\n      not(0xffffffffffffffffffffffffffffffffffffffffffffffffffffffff)\n      and\n      eq\n        /* \"@openzeppelin/contracts/token/ERC721/ERC721.sol\":1707:1811  interfaceId == type(IERC721).interfaceId ||... */\n      dup1\n      tag_114\n      jumpi\n      pop\n        /* \"@openzeppelin/contracts/token/ERC721/ERC721.sol\":1778:1811  type(IERC721Metadata).interfaceId */\n      0x5b5e139f00000000000000000000000000000000000000000000000000000000\n        /* \"@openzeppelin/contracts/token/ERC721/ERC721.sol\":1763:1811  interfaceId == type(IERC721Metadata).interfaceId */\n      not(0xffffffffffffffffffffffffffffffffffffffffffffffffffffffff)\n      and\n        /* \"@openzeppelin/contracts/token/ERC721/ERC721.sol\":1763:1774  interfaceId */\n      dup3\n        /* \"@openzeppelin/contracts/token/ERC721/ERC721.sol\":1763:1811  interfaceId == type(IERC721Metadata).interfaceId */\n      not(0xffffffffffffffffffffffffffffffffffffffffffffffffffffffff)\n      and\n      eq\n        /* \"@openzeppelin/contracts/token/ERC721/ERC721.sol\":1707:1811  interfaceId == type(IERC721).interfaceId ||... */\n    tag_114:\n        /* \"@openzeppelin/contracts/token/ERC721/ERC721.sol\":1707:1863  interfaceId == type(IERC721).interfaceId ||... */\n      dup1\n      tag_115\n      jumpi\n      pop\n        /* \"@openzeppelin/contracts/token/ERC721/ERC721.sol\":1827:1863  super.supportsInterface(interfaceId) */\n      tag_116\n        /* \"@openzeppelin/contracts/token/ERC721/ERC721.sol\":1851:1862  interfaceId */\n      dup3\n        /* \"@openzeppelin/contracts/token/ERC721/ERC721.sol\":1827:1850  super.supportsInterface */\n      tag_117\n        /* \"@openzeppelin/contracts/token/ERC721/ERC721.sol\":1827:1863  super.supportsInterface(interfaceId) */\n      jump\t// in\n    tag_116:\n        /* \"@openzeppelin/contracts/token/ERC721/ERC721.sol\":1707:1863  interfaceId == type(IERC721).interfaceId ||... */\n    tag_115:\n        /* \"@openzeppelin/contracts/token/ERC721/ERC721.sol\":1688:1863  return... */\n      swap1\n      pop\n        /* \"@openzeppelin/contracts/token/ERC721/ERC721.sol\":1570:1870  function supportsInterface(bytes4 interfaceId) public view virtual override(ERC165, IERC165) returns (bool) {... */\n      swap2\n      swap1\n      pop\n      jump\t// out\n        /* \"@openzeppelin/contracts/token/ERC721/ERC721.sol\":2470:2568  function name() public view virtual override returns (string memory) {... */\n    tag_32:\n        /* \"@openzeppelin/contracts/token/ERC721/ERC721.sol\":2524:2537  string memory */\n      0x60\n        /* \"@openzeppelin/contracts/token/ERC721/ERC721.sol\":2556:2561  _name */\n      0x00\n        /* \"@openzeppelin/contracts/token/ERC721/ERC721.sol\":2549:2561  return _name */\n      dup1\n      sload\n      tag_119\n      swap1\n      tag_120\n      jump\t// in\n    tag_119:\n      dup1\n      0x1f\n      add\n      0x20\n      dup1\n      swap2\n      div\n      mul\n      0x20\n      add\n      mload(0x40)\n      swap1\n      dup2\n      add\n      0x40\n      mstore\n      dup1\n      swap3\n      swap2\n      swap1\n      dup2\n      dup2\n      mstore\n      0x20\n      add\n      dup3\n      dup1\n      sload\n      tag_121\n      swap1\n      tag_120\n      jump\t// in\n    tag_121:\n      dup1\n      iszero\n      tag_122\n      jumpi\n      dup1\n      0x1f\n      lt\n      tag_123\n      jumpi\n      0x0100\n      dup1\n      dup4\n      sload\n      div\n      mul\n      dup4\n      mstore\n      swap2\n      0x20\n      add\n      swap2\n      jump(tag_122)\n    tag_123:\n      dup3\n      add\n      swap2\n      swap1\n      0x00\n      mstore\n      keccak256(0x00, 0x20)\n      swap1\n    tag_124:\n      dup2\n      sload\n      dup2\n      mstore\n      swap1\n      0x01\n      add\n      swap1\n      0x20\n      add\n      dup1\n      dup4\n      gt\n      tag_124\n      jumpi\n      dup3\n      swap1\n      sub\n      0x1f\n      and\n      dup3\n      add\n      swap2\n    tag_122:\n      pop\n      pop\n      pop\n      pop\n      pop\n      swap1\n      pop\n        /* \"@openzeppelin/contracts/token/ERC721/ERC721.sol\":2470:2568  function name() public view virtual override returns (string memory) {... */\n      swap1\n      jump\t// out\n        /* \"@openzeppelin/contracts/token/ERC721/ERC721.sol\":3935:4102  function getApproved(uint256 tokenId) public view virtual override returns (address) {... */\n    tag_39:\n        /* \"@openzeppelin/contracts/token/ERC721/ERC721.sol\":4011:4018  address */\n      0x00\n        /* \"@openzeppelin/contracts/token/ERC721/ERC721.sol\":4030:4053  _requireMinted(tokenId) */\n      tag_126\n        /* \"@openzeppelin/contracts/token/ERC721/ERC721.sol\":4045:4052  tokenId */\n      dup3\n        /* \"@openzeppelin/contracts/token/ERC721/ERC721.sol\":4030:4044  _requireMinted */\n      tag_127\n        /* \"@openzeppelin/contracts/token/ERC721/ERC721.sol\":4030:4053  _requireMinted(tokenId) */\n      jump\t// in\n    tag_126:\n        /* \"@openzeppelin/contracts/token/ERC721/ERC721.sol\":4071:4086  _tokenApprovals */\n      0x04\n        /* \"@openzeppelin/contracts/token/ERC721/ERC721.sol\":4071:4095  _tokenApprovals[tokenId] */\n      0x00\n        /* \"@openzeppelin/contracts/token/ERC721/ERC721.sol\":4087:4094  tokenId */\n      dup4\n        /* \"@openzeppelin/contracts/token/ERC721/ERC721.sol\":4071:4095  _tokenApprovals[tokenId] */\n      dup2\n      mstore\n      0x20\n      add\n      swap1\n      dup2\n      mstore\n      0x20\n      add\n      0x00\n      keccak256\n      0x00\n      swap1\n      sload\n      swap1\n      0x0100\n      exp\n      swap1\n      div\n      0xffffffffffffffffffffffffffffffffffffffff\n      and\n        /* \"@openzeppelin/contracts/token/ERC721/ERC721.sol\":4064:4095  return _tokenApprovals[tokenId] */\n      swap1\n      pop\n        /* \"@openzeppelin/contracts/token/ERC721/ERC721.sol\":3935:4102  function getApproved(uint256 tokenId) public view virtual override returns (address) {... */\n      swap2\n      swap1\n      pop\n      jump\t// out\n        /* \"@openzeppelin/contracts/token/ERC721/ERC721.sol\":3467:3874  function approve(address to, uint256 tokenId) public virtual override {... */\n    tag_46:\n        /* \"@openzeppelin/contracts/token/ERC721/ERC721.sol\":3547:3560  address owner */\n      0x00\n        /* \"@openzeppelin/contracts/token/ERC721/ERC721.sol\":3563:3586  ERC721.ownerOf(tokenId) */\n      tag_129\n        /* \"@openzeppelin/contracts/token/ERC721/ERC721.sol\":3578:3585  tokenId */\n      dup3\n        /* \"@openzeppelin/contracts/token/ERC721/ERC721.sol\":3563:3577  ERC721.ownerOf */\n      tag_67\n        /* \"@openzeppelin/contracts/token/ERC721/ERC721.sol\":3563:3586  ERC721.ownerOf(tokenId) */\n      jump\t// in\n    tag_129:\n        /* \"@openzeppelin/contracts/token/ERC721/ERC721.sol\":3547:3586  address owner = ERC721.ownerOf(tokenId) */\n      swap1\n      pop\n        /* \"@openzeppelin/contracts/token/ERC721/ERC721.sol\":3610:3615  owner */\n      dup1\n        /* \"@openzeppelin/contracts/token/ERC721/ERC721.sol\":3604:3615  to != owner */\n      0xffffffffffffffffffffffffffffffffffffffff\n      and\n        /* \"@openzeppelin/contracts/token/ERC721/ERC721.sol\":3604:3606  to */\n      dup4\n        /* \"@openzeppelin/contracts/token/ERC721/ERC721.sol\":3604:3615  to != owner */\n      0xffffffffffffffffffffffffffffffffffffffff\n      and\n      sub\n        /* \"@openzeppelin/contracts/token/ERC721/ERC721.sol\":3596:3653  require(to != owner, \"ERC721: approval to current owner\") */\n      tag_130\n      jumpi\n      mload(0x40)\n      0x08c379a000000000000000000000000000000000000000000000000000000000\n      dup2\n      mstore\n      0x04\n      add\n      tag_131\n      swap1\n      tag_132\n      jump\t// in\n    tag_131:\n      mload(0x40)\n      dup1\n      swap2\n      sub\n      swap1\n      revert\n    tag_130:\n        /* \"@openzeppelin/contracts/token/ERC721/ERC721.sol\":3701:3706  owner */\n      dup1\n        /* \"@openzeppelin/contracts/token/ERC721/ERC721.sol\":3685:3706  _msgSender() == owner */\n      0xffffffffffffffffffffffffffffffffffffffff\n      and\n        /* \"@openzeppelin/contracts/token/ERC721/ERC721.sol\":3685:3697  _msgSender() */\n      tag_133\n        /* \"@openzeppelin/contracts/token/ERC721/ERC721.sol\":3685:3695  _msgSender */\n      tag_134\n        /* \"@openzeppelin/contracts/token/ERC721/ERC721.sol\":3685:3697  _msgSender() */\n      jump\t// in\n    tag_133:\n        /* \"@openzeppelin/contracts/token/ERC721/ERC721.sol\":3685:3706  _msgSender() == owner */\n      0xffffffffffffffffffffffffffffffffffffffff\n      and\n      eq\n        /* \"@openzeppelin/contracts/token/ERC721/ERC721.sol\":3685:3747  _msgSender() == owner || isApprovedForAll(owner, _msgSender()) */\n      dup1\n      tag_135\n      jumpi\n      pop\n        /* \"@openzeppelin/contracts/token/ERC721/ERC721.sol\":3710:3747  isApprovedForAll(owner, _msgSender()) */\n      tag_136\n        /* \"@openzeppelin/contracts/token/ERC721/ERC721.sol\":3727:3732  owner */\n      dup2\n        /* \"@openzeppelin/contracts/token/ERC721/ERC721.sol\":3734:3746  _msgSender() */\n      tag_137\n        /* \"@openzeppelin/contracts/token/ERC721/ERC721.sol\":3734:3744  _msgSender */\n      tag_134\n        /* \"@openzeppelin/contracts/token/ERC721/ERC721.sol\":3734:3746  _msgSender() */\n      jump\t// in\n    tag_137:\n        /* \"@openzeppelin/contracts/token/ERC721/ERC721.sol\":3710:3726  isApprovedForAll */\n      tag_111\n        /* \"@openzeppelin/contracts/token/ERC721/ERC721.sol\":3710:3747  isApprovedForAll(owner, _msgSender()) */\n      jump\t// in\n    tag_136:\n        /* \"@openzeppelin/contracts/token/ERC721/ERC721.sol\":3685:3747  _msgSender() == owner || isApprovedForAll(owner, _msgSender()) */\n    tag_135:\n        /* \"@openzeppelin/contracts/token/ERC721/ERC721.sol\":3664:3835  require(... */\n      tag_138\n      jumpi\n      mload(0x40)\n      0x08c379a000000000000000000000000000000000000000000000000000000000\n      dup2\n      mstore\n      0x04\n      add\n      tag_139\n      swap1\n      tag_140\n      jump\t// in\n    tag_139:\n      mload(0x40)\n      dup1\n      swap2\n      sub\n      swap1\n      revert\n    tag_138:\n        /* \"@openzeppelin/contracts/token/ERC721/ERC721.sol\":3846:3867  _approve(to, tokenId) */\n      tag_141\n        /* \"@openzeppelin/contracts/token/ERC721/ERC721.sol\":3855:3857  to */\n      dup4\n        /* \"@openzeppelin/contracts/token/ERC721/ERC721.sol\":3859:3866  tokenId */\n      dup4\n        /* \"@openzeppelin/contracts/token/ERC721/ERC721.sol\":3846:3854  _approve */\n      tag_142\n        /* \"@openzeppelin/contracts/token/ERC721/ERC721.sol\":3846:3867  _approve(to, tokenId) */\n      jump\t// in\n    tag_141:\n        /* \"@openzeppelin/contracts/token/ERC721/ERC721.sol\":3537:3874  {... */\n      pop\n        /* \"@openzeppelin/contracts/token/ERC721/ERC721.sol\":3467:3874  function approve(address to, uint256 tokenId) public virtual override {... */\n      pop\n      pop\n      jump\t// out\n        /* \"@openzeppelin/contracts/token/ERC721/ERC721.sol\":4612:4939  function transferFrom(... */\n    tag_51:\n        /* \"@openzeppelin/contracts/token/ERC721/ERC721.sol\":4801:4842  _isApprovedOrOwner(_msgSender(), tokenId) */\n      tag_144\n        /* \"@openzeppelin/contracts/token/ERC721/ERC721.sol\":4820:4832  _msgSender() */\n      tag_145\n        /* \"@openzeppelin/contracts/token/ERC721/ERC721.sol\":4820:4830  _msgSender */\n      tag_134\n        /* \"@openzeppelin/contracts/token/ERC721/ERC721.sol\":4820:4832  _msgSender() */\n      jump\t// in\n    tag_145:\n        /* \"@openzeppelin/contracts/token/ERC721/ERC721.sol\":4834:4841  tokenId */\n      dup3\n        /* \"@openzeppelin/contracts/token/ERC721/ERC721.sol\":4801:4819  _isApprovedOrOwner */\n      tag_146\n        /* \"@openzeppelin/contracts/token/ERC721/ERC721.sol\":4801:4842  _isApprovedOrOwner(_msgSender(), tokenId) */\n      jump\t// in\n    tag_144:\n        /* \"@openzeppelin/contracts/token/ERC721/ERC721.sol\":4793:4893  require(_isApprovedOrOwner(_msgSender(), tokenId), \"ERC721: caller is not token owner nor approved\") */\n      tag_147\n      jumpi\n      mload(0x40)\n      0x08c379a000000000000000000000000000000000000000000000000000000000\n      dup2\n      mstore\n      0x04\n      add\n      tag_148\n      swap1\n      tag_149\n      jump\t// in\n    tag_148:\n      mload(0x40)\n      dup1\n      swap2\n      sub\n      swap1\n      revert\n    tag_147:\n        /* \"@openzeppelin/contracts/token/ERC721/ERC721.sol\":4904:4932  _transfer(from, to, tokenId) */\n      tag_150\n        /* \"@openzeppelin/contracts/token/ERC721/ERC721.sol\":4914:4918  from */\n      dup4\n        /* \"@openzeppelin/contracts/token/ERC721/ERC721.sol\":4920:4922  to */\n      dup4\n        /* \"@openzeppelin/contracts/token/ERC721/ERC721.sol\":4924:4931  tokenId */\n      dup4\n        /* \"@openzeppelin/contracts/token/ERC721/ERC721.sol\":4904:4913  _transfer */\n      tag_151\n        /* \"@openzeppelin/contracts/token/ERC721/ERC721.sol\":4904:4932  _transfer(from, to, tokenId) */\n      jump\t// in\n    tag_150:\n        /* \"@openzeppelin/contracts/token/ERC721/ERC721.sol\":4612:4939  function transferFrom(... */\n      pop\n      pop\n      pop\n      jump\t// out\n        /* \"contracts/DeStore/GatedAppSimple.sol\":737:825  function totalTokenOwners() public view returns(uint8){... */\n    tag_54:\n        /* \"contracts/DeStore/GatedAppSimple.sol\":785:790  uint8 */\n      0x00\n        /* \"contracts/DeStore/GatedAppSimple.sol\":808:818  tokenCount */\n      0x06\n      0x00\n      swap1\n      sload\n      swap1\n      0x0100\n      exp\n      swap1\n      div\n      0xff\n      and\n        /* \"contracts/DeStore/GatedAppSimple.sol\":801:818  return tokenCount */\n      swap1\n      pop\n        /* \"contracts/DeStore/GatedAppSimple.sol\":737:825  function totalTokenOwners() public view returns(uint8){... */\n      swap1\n      jump\t// out\n        /* \"@openzeppelin/contracts/token/ERC721/ERC721.sol\":5005:5184  function safeTransferFrom(... */\n    tag_60:\n        /* \"@openzeppelin/contracts/token/ERC721/ERC721.sol\":5138:5177  safeTransferFrom(from, to, tokenId, \"\") */\n      tag_154\n        /* \"@openzeppelin/contracts/token/ERC721/ERC721.sol\":5155:5159  from */\n      dup4\n        /* \"@openzeppelin/contracts/token/ERC721/ERC721.sol\":5161:5163  to */\n      dup4\n        /* \"@openzeppelin/contracts/token/ERC721/ERC721.sol\":5165:5172  tokenId */\n      dup4\n        /* \"@openzeppelin/contracts/token/ERC721/ERC721.sol\":5138:5177  safeTransferFrom(from, to, tokenId, \"\") */\n      mload(0x40)\n      dup1\n      0x20\n      add\n      0x40\n      mstore\n      dup1\n      0x00\n      dup2\n      mstore\n      pop\n        /* \"@openzeppelin/contracts/token/ERC721/ERC721.sol\":5138:5154  safeTransferFrom */\n      tag_93\n        /* \"@openzeppelin/contracts/token/ERC721/ERC721.sol\":5138:5177  safeTransferFrom(from, to, tokenId, \"\") */\n      jump\t// in\n    tag_154:\n        /* \"@openzeppelin/contracts/token/ERC721/ERC721.sol\":5005:5184  function safeTransferFrom(... */\n      pop\n      pop\n      pop\n      jump\t// out\n        /* \"contracts/DeStore/GatedAppSimple.sol\":345:626  function claimToken() public payable returns(bool) {... */\n    tag_62:\n        /* \"contracts/DeStore/GatedAppSimple.sol\":390:394  bool */\n      0x00\n        /* \"contracts/DeStore/GatedAppSimple.sol\":427:444  initialTokenPrice */\n      sload(0x07)\n        /* \"contracts/DeStore/GatedAppSimple.sol\":414:423  msg.value */\n      callvalue\n        /* \"contracts/DeStore/GatedAppSimple.sol\":414:444  msg.value == initialTokenPrice */\n      eq\n        /* \"contracts/DeStore/GatedAppSimple.sol\":406:445  require(msg.value == initialTokenPrice) */\n      tag_156\n      jumpi\n      0x00\n      dup1\n      revert\n    tag_156:\n        /* \"contracts/DeStore/GatedAppSimple.sol\":473:482  maxTokens */\n      0x06\n      0x01\n      swap1\n      sload\n      swap1\n      0x0100\n      exp\n      swap1\n      div\n      0xff\n      and\n        /* \"contracts/DeStore/GatedAppSimple.sol\":460:482  tokenCount < maxTokens */\n      0xff\n      and\n        /* \"contracts/DeStore/GatedAppSimple.sol\":460:470  tokenCount */\n      0x06\n      0x00\n      swap1\n      sload\n      swap1\n      0x0100\n      exp\n      swap1\n      div\n      0xff\n      and\n        /* \"contracts/DeStore/GatedAppSimple.sol\":460:482  tokenCount < maxTokens */\n      0xff\n      and\n      lt\n        /* \"contracts/DeStore/GatedAppSimple.sol\":459:515  (tokenCount < maxTokens) && (balanceOf(msg.sender) == 0) */\n      dup1\n      iszero\n      tag_157\n      jumpi\n      pop\n        /* \"contracts/DeStore/GatedAppSimple.sol\":513:514  0 */\n      0x00\n        /* \"contracts/DeStore/GatedAppSimple.sol\":488:509  balanceOf(msg.sender) */\n      tag_158\n        /* \"contracts/DeStore/GatedAppSimple.sol\":498:508  msg.sender */\n      caller\n        /* \"contracts/DeStore/GatedAppSimple.sol\":488:497  balanceOf */\n      tag_73\n        /* \"contracts/DeStore/GatedAppSimple.sol\":488:509  balanceOf(msg.sender) */\n      jump\t// in\n    tag_158:\n        /* \"contracts/DeStore/GatedAppSimple.sol\":488:514  balanceOf(msg.sender) == 0 */\n      eq\n        /* \"contracts/DeStore/GatedAppSimple.sol\":459:515  (tokenCount < maxTokens) && (balanceOf(msg.sender) == 0) */\n    tag_157:\n        /* \"contracts/DeStore/GatedAppSimple.sol\":455:599  if ((tokenCount < maxTokens) && (balanceOf(msg.sender) == 0)){... */\n      iszero\n      tag_159\n      jumpi\n        /* \"contracts/DeStore/GatedAppSimple.sol\":530:559  _mint(msg.sender, tokenCount) */\n      tag_160\n        /* \"contracts/DeStore/GatedAppSimple.sol\":536:546  msg.sender */\n      caller\n        /* \"contracts/DeStore/GatedAppSimple.sol\":548:558  tokenCount */\n      0x06\n      0x00\n      swap1\n      sload\n      swap1\n      0x0100\n      exp\n      swap1\n      div\n      0xff\n      and\n        /* \"contracts/DeStore/GatedAppSimple.sol\":530:559  _mint(msg.sender, tokenCount) */\n      0xff\n      and\n        /* \"contracts/DeStore/GatedAppSimple.sol\":530:535  _mint */\n      tag_161\n        /* \"contracts/DeStore/GatedAppSimple.sol\":530:559  _mint(msg.sender, tokenCount) */\n      jump\t// in\n    tag_160:\n        /* \"contracts/DeStore/GatedAppSimple.sol\":587:588  1 */\n      0x01\n        /* \"contracts/DeStore/GatedAppSimple.sol\":573:583  tokenCount */\n      0x06\n      0x00\n        /* \"contracts/DeStore/GatedAppSimple.sol\":573:588  tokenCount += 1 */\n      dup3\n      dup3\n      dup3\n      swap1\n      sload\n      swap1\n      0x0100\n      exp\n      swap1\n      div\n      0xff\n      and\n      tag_162\n      swap2\n      swap1\n      tag_163\n      jump\t// in\n    tag_162:\n      swap3\n      pop\n      0x0100\n      exp\n      dup2\n      sload\n      dup2\n      0xff\n      mul\n      not\n      and\n      swap1\n      dup4\n      0xff\n      and\n      mul\n      or\n      swap1\n      sstore\n      pop\n        /* \"contracts/DeStore/GatedAppSimple.sol\":455:599  if ((tokenCount < maxTokens) && (balanceOf(msg.sender) == 0)){... */\n    tag_159:\n        /* \"contracts/DeStore/GatedAppSimple.sol\":615:619  true */\n      0x01\n        /* \"contracts/DeStore/GatedAppSimple.sol\":608:619  return true */\n      swap1\n      pop\n        /* \"contracts/DeStore/GatedAppSimple.sol\":345:626  function claimToken() public payable returns(bool) {... */\n      swap1\n      jump\t// out\n        /* \"@openzeppelin/contracts/token/ERC721/ERC721.sol\":2190:2408  function ownerOf(uint256 tokenId) public view virtual override returns (address) {... */\n    tag_67:\n        /* \"@openzeppelin/contracts/token/ERC721/ERC721.sol\":2262:2269  address */\n      0x00\n        /* \"@openzeppelin/contracts/token/ERC721/ERC721.sol\":2281:2294  address owner */\n      dup1\n        /* \"@openzeppelin/contracts/token/ERC721/ERC721.sol\":2297:2304  _owners */\n      0x02\n        /* \"@openzeppelin/contracts/token/ERC721/ERC721.sol\":2297:2313  _owners[tokenId] */\n      0x00\n        /* \"@openzeppelin/contracts/token/ERC721/ERC721.sol\":2305:2312  tokenId */\n      dup5\n        /* \"@openzeppelin/contracts/token/ERC721/ERC721.sol\":2297:2313  _owners[tokenId] */\n      dup2\n      mstore\n      0x20\n      add\n      swap1\n      dup2\n      mstore\n      0x20\n      add\n      0x00\n      keccak256\n      0x00\n      swap1\n      sload\n      swap1\n      0x0100\n      exp\n      swap1\n      div\n      0xffffffffffffffffffffffffffffffffffffffff\n      and\n        /* \"@openzeppelin/contracts/token/ERC721/ERC721.sol\":2281:2313  address owner = _owners[tokenId] */\n      swap1\n      pop\n        /* \"@openzeppelin/contracts/token/ERC721/ERC721.sol\":2348:2349  0 */\n      0x00\n        /* \"@openzeppelin/contracts/token/ERC721/ERC721.sol\":2331:2350  owner != address(0) */\n      0xffffffffffffffffffffffffffffffffffffffff\n      and\n        /* \"@openzeppelin/contracts/token/ERC721/ERC721.sol\":2331:2336  owner */\n      dup2\n        /* \"@openzeppelin/contracts/token/ERC721/ERC721.sol\":2331:2350  owner != address(0) */\n      0xffffffffffffffffffffffffffffffffffffffff\n      and\n      sub\n        /* \"@openzeppelin/contracts/token/ERC721/ERC721.sol\":2323:2379  require(owner != address(0), \"ERC721: invalid token ID\") */\n      tag_165\n      jumpi\n      mload(0x40)\n      0x08c379a000000000000000000000000000000000000000000000000000000000\n      dup2\n      mstore\n      0x04\n      add\n      tag_166\n      swap1\n      tag_167\n      jump\t// in\n    tag_166:\n      mload(0x40)\n      dup1\n      swap2\n      sub\n      swap1\n      revert\n    tag_165:\n        /* \"@openzeppelin/contracts/token/ERC721/ERC721.sol\":2396:2401  owner */\n      dup1\n        /* \"@openzeppelin/contracts/token/ERC721/ERC721.sol\":2389:2401  return owner */\n      swap2\n      pop\n      pop\n        /* \"@openzeppelin/contracts/token/ERC721/ERC721.sol\":2190:2408  function ownerOf(uint256 tokenId) public view virtual override returns (address) {... */\n      swap2\n      swap1\n      pop\n      jump\t// out\n        /* \"@openzeppelin/contracts/token/ERC721/ERC721.sol\":1929:2133  function balanceOf(address owner) public view virtual override returns (uint256) {... */\n    tag_73:\n        /* \"@openzeppelin/contracts/token/ERC721/ERC721.sol\":2001:2008  uint256 */\n      0x00\n        /* \"@openzeppelin/contracts/token/ERC721/ERC721.sol\":2045:2046  0 */\n      dup1\n        /* \"@openzeppelin/contracts/token/ERC721/ERC721.sol\":2028:2047  owner != address(0) */\n      0xffffffffffffffffffffffffffffffffffffffff\n      and\n        /* \"@openzeppelin/contracts/token/ERC721/ERC721.sol\":2028:2033  owner */\n      dup3\n        /* \"@openzeppelin/contracts/token/ERC721/ERC721.sol\":2028:2047  owner != address(0) */\n      0xffffffffffffffffffffffffffffffffffffffff\n      and\n      sub\n        /* \"@openzeppelin/contracts/token/ERC721/ERC721.sol\":2020:2093  require(owner != address(0), \"ERC721: address zero is not a valid owner\") */\n      tag_169\n      jumpi\n      mload(0x40)\n      0x08c379a000000000000000000000000000000000000000000000000000000000\n      dup2\n      mstore\n      0x04\n      add\n      tag_170\n      swap1\n      tag_171\n      jump\t// in\n    tag_170:\n      mload(0x40)\n      dup1\n      swap2\n      sub\n      swap1\n      revert\n    tag_169:\n        /* \"@openzeppelin/contracts/token/ERC721/ERC721.sol\":2110:2119  _balances */\n      0x03\n        /* \"@openzeppelin/contracts/token/ERC721/ERC721.sol\":2110:2126  _balances[owner] */\n      0x00\n        /* \"@openzeppelin/contracts/token/ERC721/ERC721.sol\":2120:2125  owner */\n      dup4\n        /* \"@openzeppelin/contracts/token/ERC721/ERC721.sol\":2110:2126  _balances[owner] */\n      0xffffffffffffffffffffffffffffffffffffffff\n      and\n      0xffffffffffffffffffffffffffffffffffffffff\n      and\n      dup2\n      mstore\n      0x20\n      add\n      swap1\n      dup2\n      mstore\n      0x20\n      add\n      0x00\n      keccak256\n      sload\n        /* \"@openzeppelin/contracts/token/ERC721/ERC721.sol\":2103:2126  return _balances[owner] */\n      swap1\n      pop\n        /* \"@openzeppelin/contracts/token/ERC721/ERC721.sol\":1929:2133  function balanceOf(address owner) public view virtual override returns (uint256) {... */\n      swap2\n      swap1\n      pop\n      jump\t// out\n        /* \"@openzeppelin/contracts/token/ERC721/ERC721.sol\":2632:2734  function symbol() public view virtual override returns (string memory) {... */\n    tag_78:\n        /* \"@openzeppelin/contracts/token/ERC721/ERC721.sol\":2688:2701  string memory */\n      0x60\n        /* \"@openzeppelin/contracts/token/ERC721/ERC721.sol\":2720:2727  _symbol */\n      0x01\n        /* \"@openzeppelin/contracts/token/ERC721/ERC721.sol\":2713:2727  return _symbol */\n      dup1\n      sload\n      tag_173\n      swap1\n      tag_120\n      jump\t// in\n    tag_173:\n      dup1\n      0x1f\n      add\n      0x20\n      dup1\n      swap2\n      div\n      mul\n      0x20\n      add\n      mload(0x40)\n      swap1\n      dup2\n      add\n      0x40\n      mstore\n      dup1\n      swap3\n      swap2\n      swap1\n      dup2\n      dup2\n      mstore\n      0x20\n      add\n      dup3\n      dup1\n      sload\n      tag_174\n      swap1\n      tag_120\n      jump\t// in\n    tag_174:\n      dup1\n      iszero\n      tag_175\n      jumpi\n      dup1\n      0x1f\n      lt\n      tag_176\n      jumpi\n      0x0100\n      dup1\n      dup4\n      sload\n      div\n      mul\n      dup4\n      mstore\n      swap2\n      0x20\n      add\n      swap2\n      jump(tag_175)\n    tag_176:\n      dup3\n      add\n      swap2\n      swap1\n      0x00\n      mstore\n      keccak256(0x00, 0x20)\n      swap1\n    tag_177:\n      dup2\n      sload\n      dup2\n      mstore\n      swap1\n      0x01\n      add\n      swap1\n      0x20\n      add\n      dup1\n      dup4\n      gt\n      tag_177\n      jumpi\n      dup3\n      swap1\n      sub\n      0x1f\n      and\n      dup3\n      add\n      swap2\n    tag_175:\n      pop\n      pop\n      pop\n      pop\n      pop\n      swap1\n      pop\n        /* \"@openzeppelin/contracts/token/ERC721/ERC721.sol\":2632:2734  function symbol() public view virtual override returns (string memory) {... */\n      swap1\n      jump\t// out\n        /* \"contracts/DeStore/GatedAppSimple.sol\":178:205  uint8 public tokenCount = 0 */\n    tag_82:\n      0x06\n      0x00\n      swap1\n      sload\n      swap1\n      0x0100\n      exp\n      swap1\n      div\n      0xff\n      and\n      dup2\n      jump\t// out\n        /* \"@openzeppelin/contracts/token/ERC721/ERC721.sol\":4169:4322  function setApprovalForAll(address operator, bool approved) public virtual override {... */\n    tag_88:\n        /* \"@openzeppelin/contracts/token/ERC721/ERC721.sol\":4263:4315  _setApprovalForAll(_msgSender(), operator, approved) */\n      tag_179\n        /* \"@openzeppelin/contracts/token/ERC721/ERC721.sol\":4282:4294  _msgSender() */\n      tag_180\n        /* \"@openzeppelin/contracts/token/ERC721/ERC721.sol\":4282:4292  _msgSender */\n      tag_134\n        /* \"@openzeppelin/contracts/token/ERC721/ERC721.sol\":4282:4294  _msgSender() */\n      jump\t// in\n    tag_180:\n        /* \"@openzeppelin/contracts/token/ERC721/ERC721.sol\":4296:4304  operator */\n      dup4\n        /* \"@openzeppelin/contracts/token/ERC721/ERC721.sol\":4306:4314  approved */\n      dup4\n        /* \"@openzeppelin/contracts/token/ERC721/ERC721.sol\":4263:4281  _setApprovalForAll */\n      tag_181\n        /* \"@openzeppelin/contracts/token/ERC721/ERC721.sol\":4263:4315  _setApprovalForAll(_msgSender(), operator, approved) */\n      jump\t// in\n    tag_179:\n        /* \"@openzeppelin/contracts/token/ERC721/ERC721.sol\":4169:4322  function setApprovalForAll(address operator, bool approved) public virtual override {... */\n      pop\n      pop\n      jump\t// out\n        /* \"@openzeppelin/contracts/token/ERC721/ERC721.sol\":5250:5565  function safeTransferFrom(... */\n    tag_93:\n        /* \"@openzeppelin/contracts/token/ERC721/ERC721.sol\":5418:5459  _isApprovedOrOwner(_msgSender(), tokenId) */\n      tag_183\n        /* \"@openzeppelin/contracts/token/ERC721/ERC721.sol\":5437:5449  _msgSender() */\n      tag_184\n        /* \"@openzeppelin/contracts/token/ERC721/ERC721.sol\":5437:5447  _msgSender */\n      tag_134\n        /* \"@openzeppelin/contracts/token/ERC721/ERC721.sol\":5437:5449  _msgSender() */\n      jump\t// in\n    tag_184:\n        /* \"@openzeppelin/contracts/token/ERC721/ERC721.sol\":5451:5458  tokenId */\n      dup4\n        /* \"@openzeppelin/contracts/token/ERC721/ERC721.sol\":5418:5436  _isApprovedOrOwner */\n      tag_146\n        /* \"@openzeppelin/contracts/token/ERC721/ERC721.sol\":5418:5459  _isApprovedOrOwner(_msgSender(), tokenId) */\n      jump\t// in\n    tag_183:\n        /* \"@openzeppelin/contracts/token/ERC721/ERC721.sol\":5410:5510  require(_isApprovedOrOwner(_msgSender(), tokenId), \"ERC721: caller is not token owner nor approved\") */\n      tag_185\n      jumpi\n      mload(0x40)\n      0x08c379a000000000000000000000000000000000000000000000000000000000\n      dup2\n      mstore\n      0x04\n      add\n      tag_186\n      swap1\n      tag_149\n      jump\t// in\n    tag_186:\n      mload(0x40)\n      dup1\n      swap2\n      sub\n      swap1\n      revert\n    tag_185:\n        /* \"@openzeppelin/contracts/token/ERC721/ERC721.sol\":5520:5558  _safeTransfer(from, to, tokenId, data) */\n      tag_187\n        /* \"@openzeppelin/contracts/token/ERC721/ERC721.sol\":5534:5538  from */\n      dup5\n        /* \"@openzeppelin/contracts/token/ERC721/ERC721.sol\":5540:5542  to */\n      dup5\n        /* \"@openzeppelin/contracts/token/ERC721/ERC721.sol\":5544:5551  tokenId */\n      dup5\n        /* \"@openzeppelin/contracts/token/ERC721/ERC721.sol\":5553:5557  data */\n      dup5\n        /* \"@openzeppelin/contracts/token/ERC721/ERC721.sol\":5520:5533  _safeTransfer */\n      tag_188\n        /* \"@openzeppelin/contracts/token/ERC721/ERC721.sol\":5520:5558  _safeTransfer(from, to, tokenId, data) */\n      jump\t// in\n    tag_187:\n        /* \"@openzeppelin/contracts/token/ERC721/ERC721.sol\":5250:5565  function safeTransferFrom(... */\n      pop\n      pop\n      pop\n      pop\n      jump\t// out\n        /* \"contracts/DeStore/GatedAppSimple.sol\":632:731  function unclaimedTokens() public view returns(uint8){... */\n    tag_96:\n        /* \"contracts/DeStore/GatedAppSimple.sol\":679:684  uint8 */\n      0x00\n        /* \"contracts/DeStore/GatedAppSimple.sol\":714:724  tokenCount */\n      0x06\n      0x00\n      swap1\n      sload\n      swap1\n      0x0100\n      exp\n      swap1\n      div\n      0xff\n      and\n        /* \"contracts/DeStore/GatedAppSimple.sol\":702:711  maxTokens */\n      0x06\n      0x01\n      swap1\n      sload\n      swap1\n      0x0100\n      exp\n      swap1\n      div\n      0xff\n      and\n        /* \"contracts/DeStore/GatedAppSimple.sol\":702:724  maxTokens - tokenCount */\n      tag_190\n      swap2\n      swap1\n      tag_191\n      jump\t// in\n    tag_190:\n        /* \"contracts/DeStore/GatedAppSimple.sol\":695:724  return maxTokens - tokenCount */\n      swap1\n      pop\n        /* \"contracts/DeStore/GatedAppSimple.sol\":632:731  function unclaimedTokens() public view returns(uint8){... */\n      swap1\n      jump\t// out\n        /* \"@openzeppelin/contracts/token/ERC721/ERC721.sol\":2800:3076  function tokenURI(uint256 tokenId) public view virtual override returns (string memory) {... */\n    tag_101:\n        /* \"@openzeppelin/contracts/token/ERC721/ERC721.sol\":2873:2886  string memory */\n      0x60\n        /* \"@openzeppelin/contracts/token/ERC721/ERC721.sol\":2898:2921  _requireMinted(tokenId) */\n      tag_193\n        /* \"@openzeppelin/contracts/token/ERC721/ERC721.sol\":2913:2920  tokenId */\n      dup3\n        /* \"@openzeppelin/contracts/token/ERC721/ERC721.sol\":2898:2912  _requireMinted */\n      tag_127\n        /* \"@openzeppelin/contracts/token/ERC721/ERC721.sol\":2898:2921  _requireMinted(tokenId) */\n      jump\t// in\n    tag_193:\n        /* \"@openzeppelin/contracts/token/ERC721/ERC721.sol\":2932:2953  string memory baseURI */\n      0x00\n        /* \"@openzeppelin/contracts/token/ERC721/ERC721.sol\":2956:2966  _baseURI() */\n      tag_194\n        /* \"@openzeppelin/contracts/token/ERC721/ERC721.sol\":2956:2964  _baseURI */\n      tag_195\n        /* \"@openzeppelin/contracts/token/ERC721/ERC721.sol\":2956:2966  _baseURI() */\n      jump\t// in\n    tag_194:\n        /* \"@openzeppelin/contracts/token/ERC721/ERC721.sol\":2932:2966  string memory baseURI = _baseURI() */\n      swap1\n      pop\n        /* \"@openzeppelin/contracts/token/ERC721/ERC721.sol\":3007:3008  0 */\n      0x00\n        /* \"@openzeppelin/contracts/token/ERC721/ERC721.sol\":2989:2996  baseURI */\n      dup2\n        /* \"@openzeppelin/contracts/token/ERC721/ERC721.sol\":2983:3004  bytes(baseURI).length */\n      mload\n        /* \"@openzeppelin/contracts/token/ERC721/ERC721.sol\":2983:3008  bytes(baseURI).length > 0 */\n      gt\n        /* \"@openzeppelin/contracts/token/ERC721/ERC721.sol\":2983:3069  bytes(baseURI).length > 0 ? string(abi.encodePacked(baseURI, tokenId.toString())) : \"\" */\n      tag_196\n      jumpi\n      mload(0x40)\n      dup1\n      0x20\n      add\n      0x40\n      mstore\n      dup1\n      0x00\n      dup2\n      mstore\n      pop\n      jump(tag_197)\n    tag_196:\n        /* \"@openzeppelin/contracts/token/ERC721/ERC721.sol\":3035:3042  baseURI */\n      dup1\n        /* \"@openzeppelin/contracts/token/ERC721/ERC721.sol\":3044:3062  tokenId.toString() */\n      tag_198\n        /* \"@openzeppelin/contracts/token/ERC721/ERC721.sol\":3044:3051  tokenId */\n      dup5\n        /* \"@openzeppelin/contracts/token/ERC721/ERC721.sol\":3044:3060  tokenId.toString */\n      tag_199\n        /* \"@openzeppelin/contracts/token/ERC721/ERC721.sol\":3044:3062  tokenId.toString() */\n      jump\t// in\n    tag_198:\n        /* \"@openzeppelin/contracts/token/ERC721/ERC721.sol\":3018:3063  abi.encodePacked(baseURI, tokenId.toString()) */\n      add(0x20, mload(0x40))\n      tag_200\n      swap3\n      swap2\n      swap1\n      tag_201\n      jump\t// in\n    tag_200:\n      mload(0x40)\n      0x20\n      dup2\n      dup4\n      sub\n      sub\n      dup2\n      mstore\n      swap1\n      0x40\n      mstore\n        /* \"@openzeppelin/contracts/token/ERC721/ERC721.sol\":2983:3069  bytes(baseURI).length > 0 ? string(abi.encodePacked(baseURI, tokenId.toString())) : \"\" */\n    tag_197:\n        /* \"@openzeppelin/contracts/token/ERC721/ERC721.sol\":2976:3069  return bytes(baseURI).length > 0 ? string(abi.encodePacked(baseURI, tokenId.toString())) : \"\" */\n      swap2\n      pop\n      pop\n        /* \"@openzeppelin/contracts/token/ERC721/ERC721.sol\":2800:3076  function tokenURI(uint256 tokenId) public view virtual override returns (string memory) {... */\n      swap2\n      swap1\n      pop\n      jump\t// out\n        /* \"contracts/DeStore/GatedAppSimple.sol\":211:239  uint8 public maxTokens = 100 */\n    tag_105:\n      0x06\n      0x01\n      swap1\n      sload\n      swap1\n      0x0100\n      exp\n      swap1\n      div\n      0xff\n      and\n      dup2\n      jump\t// out\n        /* \"@openzeppelin/contracts/token/ERC721/ERC721.sol\":4388:4550  function isApprovedForAll(address owner, address operator) public view virtual override returns (bool) {... */\n    tag_111:\n        /* \"@openzeppelin/contracts/token/ERC721/ERC721.sol\":4485:4489  bool */\n      0x00\n        /* \"@openzeppelin/contracts/token/ERC721/ERC721.sol\":4508:4526  _operatorApprovals */\n      0x05\n        /* \"@openzeppelin/contracts/token/ERC721/ERC721.sol\":4508:4533  _operatorApprovals[owner] */\n      0x00\n        /* \"@openzeppelin/contracts/token/ERC721/ERC721.sol\":4527:4532  owner */\n      dup5\n        /* \"@openzeppelin/contracts/token/ERC721/ERC721.sol\":4508:4533  _operatorApprovals[owner] */\n      0xffffffffffffffffffffffffffffffffffffffff\n      and\n      0xffffffffffffffffffffffffffffffffffffffff\n      and\n      dup2\n      mstore\n      0x20\n      add\n      swap1\n      dup2\n      mstore\n      0x20\n      add\n      0x00\n      keccak256\n        /* \"@openzeppelin/contracts/token/ERC721/ERC721.sol\":4508:4543  _operatorApprovals[owner][operator] */\n      0x00\n        /* \"@openzeppelin/contracts/token/ERC721/ERC721.sol\":4534:4542  operator */\n      dup4\n        /* \"@openzeppelin/contracts/token/ERC721/ERC721.sol\":4508:4543  _operatorApprovals[owner][operator] */\n      0xffffffffffffffffffffffffffffffffffffffff\n      and\n      0xffffffffffffffffffffffffffffffffffffffff\n      and\n      dup2\n      mstore\n      0x20\n      add\n      swap1\n      dup2\n      mstore\n      0x20\n      add\n      0x00\n      keccak256\n      0x00\n      swap1\n      sload\n      swap1\n      0x0100\n      exp\n      swap1\n      div\n      0xff\n      and\n        /* \"@openzeppelin/contracts/token/ERC721/ERC721.sol\":4501:4543  return _operatorApprovals[owner][operator] */\n      swap1\n      pop\n        /* \"@openzeppelin/contracts/token/ERC721/ERC721.sol\":4388:4550  function isApprovedForAll(address owner, address operator) public view virtual override returns (bool) {... */\n      swap3\n      swap2\n      pop\n      pop\n      jump\t// out\n        /* \"@openzeppelin/contracts/utils/introspection/ERC165.sol\":829:984  function supportsInterface(bytes4 interfaceId) public view virtual override returns (bool) {... */\n    tag_117:\n        /* \"@openzeppelin/contracts/utils/introspection/ERC165.sol\":914:918  bool */\n      0x00\n        /* \"@openzeppelin/contracts/utils/introspection/ERC165.sol\":952:977  type(IERC165).interfaceId */\n      0x01ffc9a700000000000000000000000000000000000000000000000000000000\n        /* \"@openzeppelin/contracts/utils/introspection/ERC165.sol\":937:977  interfaceId == type(IERC165).interfaceId */\n      not(0xffffffffffffffffffffffffffffffffffffffffffffffffffffffff)\n      and\n        /* \"@openzeppelin/contracts/utils/introspection/ERC165.sol\":937:948  interfaceId */\n      dup3\n        /* \"@openzeppelin/contracts/utils/introspection/ERC165.sol\":937:977  interfaceId == type(IERC165).interfaceId */\n      not(0xffffffffffffffffffffffffffffffffffffffffffffffffffffffff)\n      and\n      eq\n        /* \"@openzeppelin/contracts/utils/introspection/ERC165.sol\":930:977  return interfaceId == type(IERC165).interfaceId */\n      swap1\n      pop\n        /* \"@openzeppelin/contracts/utils/introspection/ERC165.sol\":829:984  function supportsInterface(bytes4 interfaceId) public view virtual override returns (bool) {... */\n      swap2\n      swap1\n      pop\n      jump\t// out\n        /* \"@openzeppelin/contracts/token/ERC721/ERC721.sol\":11657:11790  function _requireMinted(uint256 tokenId) internal view virtual {... */\n    tag_127:\n        /* \"@openzeppelin/contracts/token/ERC721/ERC721.sol\":11738:11754  _exists(tokenId) */\n      tag_205\n        /* \"@openzeppelin/contracts/token/ERC721/ERC721.sol\":11746:11753  tokenId */\n      dup2\n        /* \"@openzeppelin/contracts/token/ERC721/ERC721.sol\":11738:11745  _exists */\n      tag_206\n        /* \"@openzeppelin/contracts/token/ERC721/ERC721.sol\":11738:11754  _exists(tokenId) */\n      jump\t// in\n    tag_205:\n        /* \"@openzeppelin/contracts/token/ERC721/ERC721.sol\":11730:11783  require(_exists(tokenId), \"ERC721: invalid token ID\") */\n      tag_207\n      jumpi\n      mload(0x40)\n      0x08c379a000000000000000000000000000000000000000000000000000000000\n      dup2\n      mstore\n      0x04\n      add\n      tag_208\n      swap1\n      tag_167\n      jump\t// in\n    tag_208:\n      mload(0x40)\n      dup1\n      swap2\n      sub\n      swap1\n      revert\n    tag_207:\n        /* \"@openzeppelin/contracts/token/ERC721/ERC721.sol\":11657:11790  function _requireMinted(uint256 tokenId) internal view virtual {... */\n      pop\n      jump\t// out\n        /* \"@openzeppelin/contracts/utils/Context.sol\":640:736  function _msgSender() internal view virtual returns (address) {... */\n    tag_134:\n        /* \"@openzeppelin/contracts/utils/Context.sol\":693:700  address */\n      0x00\n        /* \"@openzeppelin/contracts/utils/Context.sol\":719:729  msg.sender */\n      caller\n        /* \"@openzeppelin/contracts/utils/Context.sol\":712:729  return msg.sender */\n      swap1\n      pop\n        /* \"@openzeppelin/contracts/utils/Context.sol\":640:736  function _msgSender() internal view virtual returns (address) {... */\n      swap1\n      jump\t// out\n        /* \"@openzeppelin/contracts/token/ERC721/ERC721.sol\":10959:11130  function _approve(address to, uint256 tokenId) internal virtual {... */\n    tag_142:\n        /* \"@openzeppelin/contracts/token/ERC721/ERC721.sol\":11060:11062  to */\n      dup2\n        /* \"@openzeppelin/contracts/token/ERC721/ERC721.sol\":11033:11048  _tokenApprovals */\n      0x04\n        /* \"@openzeppelin/contracts/token/ERC721/ERC721.sol\":11033:11057  _tokenApprovals[tokenId] */\n      0x00\n        /* \"@openzeppelin/contracts/token/ERC721/ERC721.sol\":11049:11056  tokenId */\n      dup4\n        /* \"@openzeppelin/contracts/token/ERC721/ERC721.sol\":11033:11057  _tokenApprovals[tokenId] */\n      dup2\n      mstore\n      0x20\n      add\n      swap1\n      dup2\n      mstore\n      0x20\n      add\n      0x00\n      keccak256\n      0x00\n        /* \"@openzeppelin/contracts/token/ERC721/ERC721.sol\":11033:11062  _tokenApprovals[tokenId] = to */\n      0x0100\n      exp\n      dup2\n      sload\n      dup2\n      0xffffffffffffffffffffffffffffffffffffffff\n      mul\n      not\n      and\n      swap1\n      dup4\n      0xffffffffffffffffffffffffffffffffffffffff\n      and\n      mul\n      or\n      swap1\n      sstore\n      pop\n        /* \"@openzeppelin/contracts/token/ERC721/ERC721.sol\":11115:11122  tokenId */\n      dup1\n        /* \"@openzeppelin/contracts/token/ERC721/ERC721.sol\":11111:11113  to */\n      dup3\n        /* \"@openzeppelin/contracts/token/ERC721/ERC721.sol\":11077:11123  Approval(ERC721.ownerOf(tokenId), to, tokenId) */\n      0xffffffffffffffffffffffffffffffffffffffff\n      and\n        /* \"@openzeppelin/contracts/token/ERC721/ERC721.sol\":11086:11109  ERC721.ownerOf(tokenId) */\n      tag_211\n        /* \"@openzeppelin/contracts/token/ERC721/ERC721.sol\":11101:11108  tokenId */\n      dup4\n        /* \"@openzeppelin/contracts/token/ERC721/ERC721.sol\":11086:11100  ERC721.ownerOf */\n      tag_67\n        /* \"@openzeppelin/contracts/token/ERC721/ERC721.sol\":11086:11109  ERC721.ownerOf(tokenId) */\n      jump\t// in\n    tag_211:\n        /* \"@openzeppelin/contracts/token/ERC721/ERC721.sol\":11077:11123  Approval(ERC721.ownerOf(tokenId), to, tokenId) */\n      0xffffffffffffffffffffffffffffffffffffffff\n      and\n      0x8c5be1e5ebec7d5bd14f71427d1e84f3dd0314c0f7b2291e5b200ac8c7c3b925\n      mload(0x40)\n      mload(0x40)\n      dup1\n      swap2\n      sub\n      swap1\n      log4\n        /* \"@openzeppelin/contracts/token/ERC721/ERC721.sol\":10959:11130  function _approve(address to, uint256 tokenId) internal virtual {... */\n      pop\n      pop\n      jump\t// out\n        /* \"@openzeppelin/contracts/token/ERC721/ERC721.sol\":7317:7578  function _isApprovedOrOwner(address spender, uint256 tokenId) internal view virtual returns (bool) {... */\n    tag_146:\n        /* \"@openzeppelin/contracts/token/ERC721/ERC721.sol\":7410:7414  bool */\n      0x00\n        /* \"@openzeppelin/contracts/token/ERC721/ERC721.sol\":7426:7439  address owner */\n      dup1\n        /* \"@openzeppelin/contracts/token/ERC721/ERC721.sol\":7442:7465  ERC721.ownerOf(tokenId) */\n      tag_213\n        /* \"@openzeppelin/contracts/token/ERC721/ERC721.sol\":7457:7464  tokenId */\n      dup4\n        /* \"@openzeppelin/contracts/token/ERC721/ERC721.sol\":7442:7456  ERC721.ownerOf */\n      tag_67\n        /* \"@openzeppelin/contracts/token/ERC721/ERC721.sol\":7442:7465  ERC721.ownerOf(tokenId) */\n      jump\t// in\n    tag_213:\n        /* \"@openzeppelin/contracts/token/ERC721/ERC721.sol\":7426:7465  address owner = ERC721.ownerOf(tokenId) */\n      swap1\n      pop\n        /* \"@openzeppelin/contracts/token/ERC721/ERC721.sol\":7494:7499  owner */\n      dup1\n        /* \"@openzeppelin/contracts/token/ERC721/ERC721.sol\":7483:7499  spender == owner */\n      0xffffffffffffffffffffffffffffffffffffffff\n      and\n        /* \"@openzeppelin/contracts/token/ERC721/ERC721.sol\":7483:7490  spender */\n      dup5\n        /* \"@openzeppelin/contracts/token/ERC721/ERC721.sol\":7483:7499  spender == owner */\n      0xffffffffffffffffffffffffffffffffffffffff\n      and\n      eq\n        /* \"@openzeppelin/contracts/token/ERC721/ERC721.sol\":7483:7535  spender == owner || isApprovedForAll(owner, spender) */\n      dup1\n      tag_214\n      jumpi\n      pop\n        /* \"@openzeppelin/contracts/token/ERC721/ERC721.sol\":7503:7535  isApprovedForAll(owner, spender) */\n      tag_215\n        /* \"@openzeppelin/contracts/token/ERC721/ERC721.sol\":7520:7525  owner */\n      dup2\n        /* \"@openzeppelin/contracts/token/ERC721/ERC721.sol\":7527:7534  spender */\n      dup6\n        /* \"@openzeppelin/contracts/token/ERC721/ERC721.sol\":7503:7519  isApprovedForAll */\n      tag_111\n        /* \"@openzeppelin/contracts/token/ERC721/ERC721.sol\":7503:7535  isApprovedForAll(owner, spender) */\n      jump\t// in\n    tag_215:\n        /* \"@openzeppelin/contracts/token/ERC721/ERC721.sol\":7483:7535  spender == owner || isApprovedForAll(owner, spender) */\n    tag_214:\n        /* \"@openzeppelin/contracts/token/ERC721/ERC721.sol\":7483:7570  spender == owner || isApprovedForAll(owner, spender) || getApproved(tokenId) == spender */\n      dup1\n      tag_216\n      jumpi\n      pop\n        /* \"@openzeppelin/contracts/token/ERC721/ERC721.sol\":7563:7570  spender */\n      dup4\n        /* \"@openzeppelin/contracts/token/ERC721/ERC721.sol\":7539:7570  getApproved(tokenId) == spender */\n      0xffffffffffffffffffffffffffffffffffffffff\n      and\n        /* \"@openzeppelin/contracts/token/ERC721/ERC721.sol\":7539:7559  getApproved(tokenId) */\n      tag_217\n        /* \"@openzeppelin/contracts/token/ERC721/ERC721.sol\":7551:7558  tokenId */\n      dup5\n        /* \"@openzeppelin/contracts/token/ERC721/ERC721.sol\":7539:7550  getApproved */\n      tag_39\n        /* \"@openzeppelin/contracts/token/ERC721/ERC721.sol\":7539:7559  getApproved(tokenId) */\n      jump\t// in\n    tag_217:\n        /* \"@openzeppelin/contracts/token/ERC721/ERC721.sol\":7539:7570  getApproved(tokenId) == spender */\n      0xffffffffffffffffffffffffffffffffffffffff\n      and\n      eq\n        /* \"@openzeppelin/contracts/token/ERC721/ERC721.sol\":7483:7570  spender == owner || isApprovedForAll(owner, spender) || getApproved(tokenId) == spender */\n    tag_216:\n        /* \"@openzeppelin/contracts/token/ERC721/ERC721.sol\":7475:7571  return (spender == owner || isApprovedForAll(owner, spender) || getApproved(tokenId) == spender) */\n      swap2\n      pop\n      pop\n        /* \"@openzeppelin/contracts/token/ERC721/ERC721.sol\":7317:7578  function _isApprovedOrOwner(address spender, uint256 tokenId) internal view virtual returns (bool) {... */\n      swap3\n      swap2\n      pop\n      pop\n      jump\t// out\n        /* \"@openzeppelin/contracts/token/ERC721/ERC721.sol\":10242:10847  function _transfer(... */\n    tag_151:\n        /* \"@openzeppelin/contracts/token/ERC721/ERC721.sol\":10396:10400  from */\n      dup3\n        /* \"@openzeppelin/contracts/token/ERC721/ERC721.sol\":10369:10400  ERC721.ownerOf(tokenId) == from */\n      0xffffffffffffffffffffffffffffffffffffffff\n      and\n        /* \"@openzeppelin/contracts/token/ERC721/ERC721.sol\":10369:10392  ERC721.ownerOf(tokenId) */\n      tag_219\n        /* \"@openzeppelin/contracts/token/ERC721/ERC721.sol\":10384:10391  tokenId */\n      dup3\n        /* \"@openzeppelin/contracts/token/ERC721/ERC721.sol\":10369:10383  ERC721.ownerOf */\n      tag_67\n        /* \"@openzeppelin/contracts/token/ERC721/ERC721.sol\":10369:10392  ERC721.ownerOf(tokenId) */\n      jump\t// in\n    tag_219:\n        /* \"@openzeppelin/contracts/token/ERC721/ERC721.sol\":10369:10400  ERC721.ownerOf(tokenId) == from */\n      0xffffffffffffffffffffffffffffffffffffffff\n      and\n      eq\n        /* \"@openzeppelin/contracts/token/ERC721/ERC721.sol\":10361:10442  require(ERC721.ownerOf(tokenId) == from, \"ERC721: transfer from incorrect owner\") */\n      tag_220\n      jumpi\n      mload(0x40)\n      0x08c379a000000000000000000000000000000000000000000000000000000000\n      dup2\n      mstore\n      0x04\n      add\n      tag_221\n      swap1\n      tag_222\n      jump\t// in\n    tag_221:\n      mload(0x40)\n      dup1\n      swap2\n      sub\n      swap1\n      revert\n    tag_220:\n        /* \"@openzeppelin/contracts/token/ERC721/ERC721.sol\":10474:10475  0 */\n      0x00\n        /* \"@openzeppelin/contracts/token/ERC721/ERC721.sol\":10460:10476  to != address(0) */\n      0xffffffffffffffffffffffffffffffffffffffff\n      and\n        /* \"@openzeppelin/contracts/token/ERC721/ERC721.sol\":10460:10462  to */\n      dup3\n        /* \"@openzeppelin/contracts/token/ERC721/ERC721.sol\":10460:10476  to != address(0) */\n      0xffffffffffffffffffffffffffffffffffffffff\n      and\n      sub\n        /* \"@openzeppelin/contracts/token/ERC721/ERC721.sol\":10452:10517  require(to != address(0), \"ERC721: transfer to the zero address\") */\n      tag_223\n      jumpi\n      mload(0x40)\n      0x08c379a000000000000000000000000000000000000000000000000000000000\n      dup2\n      mstore\n      0x04\n      add\n      tag_224\n      swap1\n      tag_225\n      jump\t// in\n    tag_224:\n      mload(0x40)\n      dup1\n      swap2\n      sub\n      swap1\n      revert\n    tag_223:\n        /* \"@openzeppelin/contracts/token/ERC721/ERC721.sol\":10528:10567  _beforeTokenTransfer(from, to, tokenId) */\n      tag_226\n        /* \"@openzeppelin/contracts/token/ERC721/ERC721.sol\":10549:10553  from */\n      dup4\n        /* \"@openzeppelin/contracts/token/ERC721/ERC721.sol\":10555:10557  to */\n      dup4\n        /* \"@openzeppelin/contracts/token/ERC721/ERC721.sol\":10559:10566  tokenId */\n      dup4\n        /* \"@openzeppelin/contracts/token/ERC721/ERC721.sol\":10528:10548  _beforeTokenTransfer */\n      tag_227\n        /* \"@openzeppelin/contracts/token/ERC721/ERC721.sol\":10528:10567  _beforeTokenTransfer(from, to, tokenId) */\n      jump\t// in\n    tag_226:\n        /* \"@openzeppelin/contracts/token/ERC721/ERC721.sol\":10629:10658  _approve(address(0), tokenId) */\n      tag_228\n        /* \"@openzeppelin/contracts/token/ERC721/ERC721.sol\":10646:10647  0 */\n      0x00\n        /* \"@openzeppelin/contracts/token/ERC721/ERC721.sol\":10650:10657  tokenId */\n      dup3\n        /* \"@openzeppelin/contracts/token/ERC721/ERC721.sol\":10629:10637  _approve */\n      tag_142\n        /* \"@openzeppelin/contracts/token/ERC721/ERC721.sol\":10629:10658  _approve(address(0), tokenId) */\n      jump\t// in\n    tag_228:\n        /* \"@openzeppelin/contracts/token/ERC721/ERC721.sol\":10688:10689  1 */\n      0x01\n        /* \"@openzeppelin/contracts/token/ERC721/ERC721.sol\":10669:10678  _balances */\n      0x03\n        /* \"@openzeppelin/contracts/token/ERC721/ERC721.sol\":10669:10684  _balances[from] */\n      0x00\n        /* \"@openzeppelin/contracts/token/ERC721/ERC721.sol\":10679:10683  from */\n      dup6\n        /* \"@openzeppelin/contracts/token/ERC721/ERC721.sol\":10669:10684  _balances[from] */\n      0xffffffffffffffffffffffffffffffffffffffff\n      and\n      0xffffffffffffffffffffffffffffffffffffffff\n      and\n      dup2\n      mstore\n      0x20\n      add\n      swap1\n      dup2\n      mstore\n      0x20\n      add\n      0x00\n      keccak256\n      0x00\n        /* \"@openzeppelin/contracts/token/ERC721/ERC721.sol\":10669:10689  _balances[from] -= 1 */\n      dup3\n      dup3\n      sload\n      tag_229\n      swap2\n      swap1\n      tag_230\n      jump\t// in\n    tag_229:\n      swap3\n      pop\n      pop\n      dup2\n      swap1\n      sstore\n      pop\n        /* \"@openzeppelin/contracts/token/ERC721/ERC721.sol\":10716:10717  1 */\n      0x01\n        /* \"@openzeppelin/contracts/token/ERC721/ERC721.sol\":10699:10708  _balances */\n      0x03\n        /* \"@openzeppelin/contracts/token/ERC721/ERC721.sol\":10699:10712  _balances[to] */\n      0x00\n        /* \"@openzeppelin/contracts/token/ERC721/ERC721.sol\":10709:10711  to */\n      dup5\n        /* \"@openzeppelin/contracts/token/ERC721/ERC721.sol\":10699:10712  _balances[to] */\n      0xffffffffffffffffffffffffffffffffffffffff\n      and\n      0xffffffffffffffffffffffffffffffffffffffff\n      and\n      dup2\n      mstore\n      0x20\n      add\n      swap1\n      dup2\n      mstore\n      0x20\n      add\n      0x00\n      keccak256\n      0x00\n        /* \"@openzeppelin/contracts/token/ERC721/ERC721.sol\":10699:10717  _balances[to] += 1 */\n      dup3\n      dup3\n      sload\n      tag_231\n      swap2\n      swap1\n      tag_232\n      jump\t// in\n    tag_231:\n      swap3\n      pop\n      pop\n      dup2\n      swap1\n      sstore\n      pop\n        /* \"@openzeppelin/contracts/token/ERC721/ERC721.sol\":10746:10748  to */\n      dup2\n        /* \"@openzeppelin/contracts/token/ERC721/ERC721.sol\":10727:10734  _owners */\n      0x02\n        /* \"@openzeppelin/contracts/token/ERC721/ERC721.sol\":10727:10743  _owners[tokenId] */\n      0x00\n        /* \"@openzeppelin/contracts/token/ERC721/ERC721.sol\":10735:10742  tokenId */\n      dup4\n        /* \"@openzeppelin/contracts/token/ERC721/ERC721.sol\":10727:10743  _owners[tokenId] */\n      dup2\n      mstore\n      0x20\n      add\n      swap1\n      dup2\n      mstore\n      0x20\n      add\n      0x00\n      keccak256\n      0x00\n        /* \"@openzeppelin/contracts/token/ERC721/ERC721.sol\":10727:10748  _owners[tokenId] = to */\n      0x0100\n      exp\n      dup2\n      sload\n      dup2\n      0xffffffffffffffffffffffffffffffffffffffff\n      mul\n      not\n      and\n      swap1\n      dup4\n      0xffffffffffffffffffffffffffffffffffffffff\n      and\n      mul\n      or\n      swap1\n      sstore\n      pop\n        /* \"@openzeppelin/contracts/token/ERC721/ERC721.sol\":10783:10790  tokenId */\n      dup1\n        /* \"@openzeppelin/contracts/token/ERC721/ERC721.sol\":10779:10781  to */\n      dup3\n        /* \"@openzeppelin/contracts/token/ERC721/ERC721.sol\":10764:10791  Transfer(from, to, tokenId) */\n      0xffffffffffffffffffffffffffffffffffffffff\n      and\n        /* \"@openzeppelin/contracts/token/ERC721/ERC721.sol\":10773:10777  from */\n      dup5\n        /* \"@openzeppelin/contracts/token/ERC721/ERC721.sol\":10764:10791  Transfer(from, to, tokenId) */\n      0xffffffffffffffffffffffffffffffffffffffff\n      and\n      0xddf252ad1be2c89b69c2b068fc378daa952ba7f163c4a11628f55a4df523b3ef\n      mload(0x40)\n      mload(0x40)\n      dup1\n      swap2\n      sub\n      swap1\n      log4\n        /* \"@openzeppelin/contracts/token/ERC721/ERC721.sol\":10802:10840  _afterTokenTransfer(from, to, tokenId) */\n      tag_233\n        /* \"@openzeppelin/contracts/token/ERC721/ERC721.sol\":10822:10826  from */\n      dup4\n        /* \"@openzeppelin/contracts/token/ERC721/ERC721.sol\":10828:10830  to */\n      dup4\n        /* \"@openzeppelin/contracts/token/ERC721/ERC721.sol\":10832:10839  tokenId */\n      dup4\n        /* \"@openzeppelin/contracts/token/ERC721/ERC721.sol\":10802:10821  _afterTokenTransfer */\n      tag_234\n        /* \"@openzeppelin/contracts/token/ERC721/ERC721.sol\":10802:10840  _afterTokenTransfer(from, to, tokenId) */\n      jump\t// in\n    tag_233:\n        /* \"@openzeppelin/contracts/token/ERC721/ERC721.sol\":10242:10847  function _transfer(... */\n      pop\n      pop\n      pop\n      jump\t// out\n        /* \"@openzeppelin/contracts/token/ERC721/ERC721.sol\":8868:9295  function _mint(address to, uint256 tokenId) internal virtual {... */\n    tag_161:\n        /* \"@openzeppelin/contracts/token/ERC721/ERC721.sol\":8961:8962  0 */\n      0x00\n        /* \"@openzeppelin/contracts/token/ERC721/ERC721.sol\":8947:8963  to != address(0) */\n      0xffffffffffffffffffffffffffffffffffffffff\n      and\n        /* \"@openzeppelin/contracts/token/ERC721/ERC721.sol\":8947:8949  to */\n      dup3\n        /* \"@openzeppelin/contracts/token/ERC721/ERC721.sol\":8947:8963  to != address(0) */\n      0xffffffffffffffffffffffffffffffffffffffff\n      and\n      sub\n        /* \"@openzeppelin/contracts/token/ERC721/ERC721.sol\":8939:9000  require(to != address(0), \"ERC721: mint to the zero address\") */\n      tag_236\n      jumpi\n      mload(0x40)\n      0x08c379a000000000000000000000000000000000000000000000000000000000\n      dup2\n      mstore\n      0x04\n      add\n      tag_237\n      swap1\n      tag_238\n      jump\t// in\n    tag_237:\n      mload(0x40)\n      dup1\n      swap2\n      sub\n      swap1\n      revert\n    tag_236:\n        /* \"@openzeppelin/contracts/token/ERC721/ERC721.sol\":9019:9035  _exists(tokenId) */\n      tag_239\n        /* \"@openzeppelin/contracts/token/ERC721/ERC721.sol\":9027:9034  tokenId */\n      dup2\n        /* \"@openzeppelin/contracts/token/ERC721/ERC721.sol\":9019:9026  _exists */\n      tag_206\n        /* \"@openzeppelin/contracts/token/ERC721/ERC721.sol\":9019:9035  _exists(tokenId) */\n      jump\t// in\n    tag_239:\n        /* \"@openzeppelin/contracts/token/ERC721/ERC721.sol\":9018:9035  !_exists(tokenId) */\n      iszero\n        /* \"@openzeppelin/contracts/token/ERC721/ERC721.sol\":9010:9068  require(!_exists(tokenId), \"ERC721: token already minted\") */\n      tag_240\n      jumpi\n      mload(0x40)\n      0x08c379a000000000000000000000000000000000000000000000000000000000\n      dup2\n      mstore\n      0x04\n      add\n      tag_241\n      swap1\n      tag_242\n      jump\t// in\n    tag_241:\n      mload(0x40)\n      dup1\n      swap2\n      sub\n      swap1\n      revert\n    tag_240:\n        /* \"@openzeppelin/contracts/token/ERC721/ERC721.sol\":9079:9124  _beforeTokenTransfer(address(0), to, tokenId) */\n      tag_243\n        /* \"@openzeppelin/contracts/token/ERC721/ERC721.sol\":9108:9109  0 */\n      0x00\n        /* \"@openzeppelin/contracts/token/ERC721/ERC721.sol\":9112:9114  to */\n      dup4\n        /* \"@openzeppelin/contracts/token/ERC721/ERC721.sol\":9116:9123  tokenId */\n      dup4\n        /* \"@openzeppelin/contracts/token/ERC721/ERC721.sol\":9079:9099  _beforeTokenTransfer */\n      tag_227\n        /* \"@openzeppelin/contracts/token/ERC721/ERC721.sol\":9079:9124  _beforeTokenTransfer(address(0), to, tokenId) */\n      jump\t// in\n    tag_243:\n        /* \"@openzeppelin/contracts/token/ERC721/ERC721.sol\":9152:9153  1 */\n      0x01\n        /* \"@openzeppelin/contracts/token/ERC721/ERC721.sol\":9135:9144  _balances */\n      0x03\n        /* \"@openzeppelin/contracts/token/ERC721/ERC721.sol\":9135:9148  _balances[to] */\n      0x00\n        /* \"@openzeppelin/contracts/token/ERC721/ERC721.sol\":9145:9147  to */\n      dup5\n        /* \"@openzeppelin/contracts/token/ERC721/ERC721.sol\":9135:9148  _balances[to] */\n      0xffffffffffffffffffffffffffffffffffffffff\n      and\n      0xffffffffffffffffffffffffffffffffffffffff\n      and\n      dup2\n      mstore\n      0x20\n      add\n      swap1\n      dup2\n      mstore\n      0x20\n      add\n      0x00\n      keccak256\n      0x00\n        /* \"@openzeppelin/contracts/token/ERC721/ERC721.sol\":9135:9153  _balances[to] += 1 */\n      dup3\n      dup3\n      sload\n      tag_244\n      swap2\n      swap1\n      tag_232\n      jump\t// in\n    tag_244:\n      swap3\n      pop\n      pop\n      dup2\n      swap1\n      sstore\n      pop\n        /* \"@openzeppelin/contracts/token/ERC721/ERC721.sol\":9182:9184  to */\n      dup2\n        /* \"@openzeppelin/contracts/token/ERC721/ERC721.sol\":9163:9170  _owners */\n      0x02\n        /* \"@openzeppelin/contracts/token/ERC721/ERC721.sol\":9163:9179  _owners[tokenId] */\n      0x00\n        /* \"@openzeppelin/contracts/token/ERC721/ERC721.sol\":9171:9178  tokenId */\n      dup4\n        /* \"@openzeppelin/contracts/token/ERC721/ERC721.sol\":9163:9179  _owners[tokenId] */\n      dup2\n      mstore\n      0x20\n      add\n      swap1\n      dup2\n      mstore\n      0x20\n      add\n      0x00\n      keccak256\n      0x00\n        /* \"@openzeppelin/contracts/token/ERC721/ERC721.sol\":9163:9184  _owners[tokenId] = to */\n      0x0100\n      exp\n      dup2\n      sload\n      dup2\n      0xffffffffffffffffffffffffffffffffffffffff\n      mul\n      not\n      and\n      swap1\n      dup4\n      0xffffffffffffffffffffffffffffffffffffffff\n      and\n      mul\n      or\n      swap1\n      sstore\n      pop\n        /* \"@openzeppelin/contracts/token/ERC721/ERC721.sol\":9225:9232  tokenId */\n      dup1\n        /* \"@openzeppelin/contracts/token/ERC721/ERC721.sol\":9221:9223  to */\n      dup3\n        /* \"@openzeppelin/contracts/token/ERC721/ERC721.sol\":9200:9233  Transfer(address(0), to, tokenId) */\n      0xffffffffffffffffffffffffffffffffffffffff\n      and\n        /* \"@openzeppelin/contracts/token/ERC721/ERC721.sol\":9217:9218  0 */\n      0x00\n        /* \"@openzeppelin/contracts/token/ERC721/ERC721.sol\":9200:9233  Transfer(address(0), to, tokenId) */\n      0xffffffffffffffffffffffffffffffffffffffff\n      and\n      0xddf252ad1be2c89b69c2b068fc378daa952ba7f163c4a11628f55a4df523b3ef\n      mload(0x40)\n      mload(0x40)\n      dup1\n      swap2\n      sub\n      swap1\n      log4\n        /* \"@openzeppelin/contracts/token/ERC721/ERC721.sol\":9244:9288  _afterTokenTransfer(address(0), to, tokenId) */\n      tag_245\n        /* \"@openzeppelin/contracts/token/ERC721/ERC721.sol\":9272:9273  0 */\n      0x00\n        /* \"@openzeppelin/contracts/token/ERC721/ERC721.sol\":9276:9278  to */\n      dup4\n        /* \"@openzeppelin/contracts/token/ERC721/ERC721.sol\":9280:9287  tokenId */\n      dup4\n        /* \"@openzeppelin/contracts/token/ERC721/ERC721.sol\":9244:9263  _afterTokenTransfer */\n      tag_234\n        /* \"@openzeppelin/contracts/token/ERC721/ERC721.sol\":9244:9288  _afterTokenTransfer(address(0), to, tokenId) */\n      jump\t// in\n    tag_245:\n        /* \"@openzeppelin/contracts/token/ERC721/ERC721.sol\":8868:9295  function _mint(address to, uint256 tokenId) internal virtual {... */\n      pop\n      pop\n      jump\t// out\n        /* \"@openzeppelin/contracts/token/ERC721/ERC721.sol\":11266:11573  function _setApprovalForAll(... */\n    tag_181:\n        /* \"@openzeppelin/contracts/token/ERC721/ERC721.sol\":11416:11424  operator */\n      dup2\n        /* \"@openzeppelin/contracts/token/ERC721/ERC721.sol\":11407:11424  owner != operator */\n      0xffffffffffffffffffffffffffffffffffffffff\n      and\n        /* \"@openzeppelin/contracts/token/ERC721/ERC721.sol\":11407:11412  owner */\n      dup4\n        /* \"@openzeppelin/contracts/token/ERC721/ERC721.sol\":11407:11424  owner != operator */\n      0xffffffffffffffffffffffffffffffffffffffff\n      and\n      sub\n        /* \"@openzeppelin/contracts/token/ERC721/ERC721.sol\":11399:11454  require(owner != operator, \"ERC721: approve to caller\") */\n      tag_247\n      jumpi\n      mload(0x40)\n      0x08c379a000000000000000000000000000000000000000000000000000000000\n      dup2\n      mstore\n      0x04\n      add\n      tag_248\n      swap1\n      tag_249\n      jump\t// in\n    tag_248:\n      mload(0x40)\n      dup1\n      swap2\n      sub\n      swap1\n      revert\n    tag_247:\n        /* \"@openzeppelin/contracts/token/ERC721/ERC721.sol\":11502:11510  approved */\n      dup1\n        /* \"@openzeppelin/contracts/token/ERC721/ERC721.sol\":11464:11482  _operatorApprovals */\n      0x05\n        /* \"@openzeppelin/contracts/token/ERC721/ERC721.sol\":11464:11489  _operatorApprovals[owner] */\n      0x00\n        /* \"@openzeppelin/contracts/token/ERC721/ERC721.sol\":11483:11488  owner */\n      dup6\n        /* \"@openzeppelin/contracts/token/ERC721/ERC721.sol\":11464:11489  _operatorApprovals[owner] */\n      0xffffffffffffffffffffffffffffffffffffffff\n      and\n      0xffffffffffffffffffffffffffffffffffffffff\n      and\n      dup2\n      mstore\n      0x20\n      add\n      swap1\n      dup2\n      mstore\n      0x20\n      add\n      0x00\n      keccak256\n        /* \"@openzeppelin/contracts/token/ERC721/ERC721.sol\":11464:11499  _operatorApprovals[owner][operator] */\n      0x00\n        /* \"@openzeppelin/contracts/token/ERC721/ERC721.sol\":11490:11498  operator */\n      dup5\n        /* \"@openzeppelin/contracts/token/ERC721/ERC721.sol\":11464:11499  _operatorApprovals[owner][operator] */\n      0xffffffffffffffffffffffffffffffffffffffff\n      and\n      0xffffffffffffffffffffffffffffffffffffffff\n      and\n      dup2\n      mstore\n      0x20\n      add\n      swap1\n      dup2\n      mstore\n      0x20\n      add\n      0x00\n      keccak256\n      0x00\n        /* \"@openzeppelin/contracts/token/ERC721/ERC721.sol\":11464:11510  _operatorApprovals[owner][operator] = approved */\n      0x0100\n      exp\n      dup2\n      sload\n      dup2\n      0xff\n      mul\n      not\n      and\n      swap1\n      dup4\n      iszero\n      iszero\n      mul\n      or\n      swap1\n      sstore\n      pop\n        /* \"@openzeppelin/contracts/token/ERC721/ERC721.sol\":11547:11555  operator */\n      dup2\n        /* \"@openzeppelin/contracts/token/ERC721/ERC721.sol\":11525:11566  ApprovalForAll(owner, operator, approved) */\n      0xffffffffffffffffffffffffffffffffffffffff\n      and\n        /* \"@openzeppelin/contracts/token/ERC721/ERC721.sol\":11540:11545  owner */\n      dup4\n        /* \"@openzeppelin/contracts/token/ERC721/ERC721.sol\":11525:11566  ApprovalForAll(owner, operator, approved) */\n      0xffffffffffffffffffffffffffffffffffffffff\n      and\n      0x17307eab39ab6107e8899845ad3d59bd9653f200f220920489ca2b5937696c31\n        /* \"@openzeppelin/contracts/token/ERC721/ERC721.sol\":11557:11565  approved */\n      dup4\n        /* \"@openzeppelin/contracts/token/ERC721/ERC721.sol\":11525:11566  ApprovalForAll(owner, operator, approved) */\n      mload(0x40)\n      tag_250\n      swap2\n      swap1\n      tag_29\n      jump\t// in\n    tag_250:\n      mload(0x40)\n      dup1\n      swap2\n      sub\n      swap1\n      log3\n        /* \"@openzeppelin/contracts/token/ERC721/ERC721.sol\":11266:11573  function _setApprovalForAll(... */\n      pop\n      pop\n      pop\n      jump\t// out\n        /* \"@openzeppelin/contracts/token/ERC721/ERC721.sol\":6426:6731  function _safeTransfer(... */\n    tag_188:\n        /* \"@openzeppelin/contracts/token/ERC721/ERC721.sol\":6576:6604  _transfer(from, to, tokenId) */\n      tag_252\n        /* \"@openzeppelin/contracts/token/ERC721/ERC721.sol\":6586:6590  from */\n      dup5\n        /* \"@openzeppelin/contracts/token/ERC721/ERC721.sol\":6592:6594  to */\n      dup5\n        /* \"@openzeppelin/contracts/token/ERC721/ERC721.sol\":6596:6603  tokenId */\n      dup5\n        /* \"@openzeppelin/contracts/token/ERC721/ERC721.sol\":6576:6585  _transfer */\n      tag_151\n        /* \"@openzeppelin/contracts/token/ERC721/ERC721.sol\":6576:6604  _transfer(from, to, tokenId) */\n      jump\t// in\n    tag_252:\n        /* \"@openzeppelin/contracts/token/ERC721/ERC721.sol\":6622:6669  _checkOnERC721Received(from, to, tokenId, data) */\n      tag_253\n        /* \"@openzeppelin/contracts/token/ERC721/ERC721.sol\":6645:6649  from */\n      dup5\n        /* \"@openzeppelin/contracts/token/ERC721/ERC721.sol\":6651:6653  to */\n      dup5\n        /* \"@openzeppelin/contracts/token/ERC721/ERC721.sol\":6655:6662  tokenId */\n      dup5\n        /* \"@openzeppelin/contracts/token/ERC721/ERC721.sol\":6664:6668  data */\n      dup5\n        /* \"@openzeppelin/contracts/token/ERC721/ERC721.sol\":6622:6644  _checkOnERC721Received */\n      tag_254\n        /* \"@openzeppelin/contracts/token/ERC721/ERC721.sol\":6622:6669  _checkOnERC721Received(from, to, tokenId, data) */\n      jump\t// in\n    tag_253:\n        /* \"@openzeppelin/contracts/token/ERC721/ERC721.sol\":6614:6724  require(_checkOnERC721Received(from, to, tokenId, data), \"ERC721: transfer to non ERC721Receiver implementer\") */\n      tag_255\n      jumpi\n      mload(0x40)\n      0x08c379a000000000000000000000000000000000000000000000000000000000\n      dup2\n      mstore\n      0x04\n      add\n      tag_256\n      swap1\n      tag_257\n      jump\t// in\n    tag_256:\n      mload(0x40)\n      dup1\n      swap2\n      sub\n      swap1\n      revert\n    tag_255:\n        /* \"@openzeppelin/contracts/token/ERC721/ERC721.sol\":6426:6731  function _safeTransfer(... */\n      pop\n      pop\n      pop\n      pop\n      jump\t// out\n        /* \"@openzeppelin/contracts/token/ERC721/ERC721.sol\":3318:3410  function _baseURI() internal view virtual returns (string memory) {... */\n    tag_195:\n        /* \"@openzeppelin/contracts/token/ERC721/ERC721.sol\":3369:3382  string memory */\n      0x60\n        /* \"@openzeppelin/contracts/token/ERC721/ERC721.sol\":3394:3403  return \"\" */\n      mload(0x40)\n      dup1\n      0x20\n      add\n      0x40\n      mstore\n      dup1\n      0x00\n      dup2\n      mstore\n      pop\n      swap1\n      pop\n        /* \"@openzeppelin/contracts/token/ERC721/ERC721.sol\":3318:3410  function _baseURI() internal view virtual returns (string memory) {... */\n      swap1\n      jump\t// out\n        /* \"@openzeppelin/contracts/utils/Strings.sol\":392:1095  function toString(uint256 value) internal pure returns (string memory) {... */\n    tag_199:\n        /* \"@openzeppelin/contracts/utils/Strings.sol\":448:461  string memory */\n      0x60\n        /* \"@openzeppelin/contracts/utils/Strings.sol\":674:675  0 */\n      0x00\n        /* \"@openzeppelin/contracts/utils/Strings.sol\":665:670  value */\n      dup3\n        /* \"@openzeppelin/contracts/utils/Strings.sol\":665:675  value == 0 */\n      sub\n        /* \"@openzeppelin/contracts/utils/Strings.sol\":661:712  if (value == 0) {... */\n      tag_260\n      jumpi\n        /* \"@openzeppelin/contracts/utils/Strings.sol\":691:701  return \"0\" */\n      mload(0x40)\n      dup1\n      0x40\n      add\n      0x40\n      mstore\n      dup1\n      0x01\n      dup2\n      mstore\n      0x20\n      add\n      0x3000000000000000000000000000000000000000000000000000000000000000\n      dup2\n      mstore\n      pop\n      swap1\n      pop\n      jump(tag_259)\n        /* \"@openzeppelin/contracts/utils/Strings.sol\":661:712  if (value == 0) {... */\n    tag_260:\n        /* \"@openzeppelin/contracts/utils/Strings.sol\":721:733  uint256 temp */\n      0x00\n        /* \"@openzeppelin/contracts/utils/Strings.sol\":736:741  value */\n      dup3\n        /* \"@openzeppelin/contracts/utils/Strings.sol\":721:741  uint256 temp = value */\n      swap1\n      pop\n        /* \"@openzeppelin/contracts/utils/Strings.sol\":751:765  uint256 digits */\n      0x00\n        /* \"@openzeppelin/contracts/utils/Strings.sol\":775:850  while (temp != 0) {... */\n    tag_261:\n        /* \"@openzeppelin/contracts/utils/Strings.sol\":790:791  0 */\n      0x00\n        /* \"@openzeppelin/contracts/utils/Strings.sol\":782:786  temp */\n      dup3\n        /* \"@openzeppelin/contracts/utils/Strings.sol\":782:791  temp != 0 */\n      eq\n        /* \"@openzeppelin/contracts/utils/Strings.sol\":775:850  while (temp != 0) {... */\n      tag_262\n      jumpi\n        /* \"@openzeppelin/contracts/utils/Strings.sol\":807:815  digits++ */\n      dup1\n      dup1\n      tag_263\n      swap1\n      tag_264\n      jump\t// in\n    tag_263:\n      swap2\n      pop\n      pop\n        /* \"@openzeppelin/contracts/utils/Strings.sol\":837:839  10 */\n      0x0a\n        /* \"@openzeppelin/contracts/utils/Strings.sol\":829:839  temp /= 10 */\n      dup3\n      tag_265\n      swap2\n      swap1\n      tag_266\n      jump\t// in\n    tag_265:\n      swap2\n      pop\n        /* \"@openzeppelin/contracts/utils/Strings.sol\":775:850  while (temp != 0) {... */\n      jump(tag_261)\n    tag_262:\n        /* \"@openzeppelin/contracts/utils/Strings.sol\":859:878  bytes memory buffer */\n      0x00\n        /* \"@openzeppelin/contracts/utils/Strings.sol\":891:897  digits */\n      dup2\n        /* \"@openzeppelin/contracts/utils/Strings.sol\":881:898  new bytes(digits) */\n      0xffffffffffffffff\n      dup2\n      gt\n      iszero\n      tag_267\n      jumpi\n      tag_268\n      tag_269\n      jump\t// in\n    tag_268:\n    tag_267:\n      mload(0x40)\n      swap1\n      dup1\n      dup3\n      mstore\n      dup1\n      0x1f\n      add\n      not(0x1f)\n      and\n      0x20\n      add\n      dup3\n      add\n      0x40\n      mstore\n      dup1\n      iszero\n      tag_270\n      jumpi\n      dup2\n      0x20\n      add\n      0x01\n      dup3\n      mul\n      dup1\n      calldatasize\n      dup4\n      calldatacopy\n      dup1\n      dup3\n      add\n      swap2\n      pop\n      pop\n      swap1\n      pop\n    tag_270:\n      pop\n        /* \"@openzeppelin/contracts/utils/Strings.sol\":859:898  bytes memory buffer = new bytes(digits) */\n      swap1\n      pop\n        /* \"@openzeppelin/contracts/utils/Strings.sol\":908:1058  while (value != 0) {... */\n    tag_271:\n        /* \"@openzeppelin/contracts/utils/Strings.sol\":924:925  0 */\n      0x00\n        /* \"@openzeppelin/contracts/utils/Strings.sol\":915:920  value */\n      dup6\n        /* \"@openzeppelin/contracts/utils/Strings.sol\":915:925  value != 0 */\n      eq\n        /* \"@openzeppelin/contracts/utils/Strings.sol\":908:1058  while (value != 0) {... */\n      tag_272\n      jumpi\n        /* \"@openzeppelin/contracts/utils/Strings.sol\":951:952  1 */\n      0x01\n        /* \"@openzeppelin/contracts/utils/Strings.sol\":941:952  digits -= 1 */\n      dup3\n      tag_273\n      swap2\n      swap1\n      tag_230\n      jump\t// in\n    tag_273:\n      swap2\n      pop\n        /* \"@openzeppelin/contracts/utils/Strings.sol\":1017:1019  10 */\n      0x0a\n        /* \"@openzeppelin/contracts/utils/Strings.sol\":1009:1014  value */\n      dup6\n        /* \"@openzeppelin/contracts/utils/Strings.sol\":1009:1019  value % 10 */\n      tag_274\n      swap2\n      swap1\n      tag_275\n      jump\t// in\n    tag_274:\n        /* \"@openzeppelin/contracts/utils/Strings.sol\":996:998  48 */\n      0x30\n        /* \"@openzeppelin/contracts/utils/Strings.sol\":996:1020  48 + uint256(value % 10) */\n      tag_276\n      swap2\n      swap1\n      tag_232\n      jump\t// in\n    tag_276:\n        /* \"@openzeppelin/contracts/utils/Strings.sol\":983:1022  bytes1(uint8(48 + uint256(value % 10))) */\n      0xf8\n      shl\n        /* \"@openzeppelin/contracts/utils/Strings.sol\":966:972  buffer */\n      dup2\n        /* \"@openzeppelin/contracts/utils/Strings.sol\":973:979  digits */\n      dup4\n        /* \"@openzeppelin/contracts/utils/Strings.sol\":966:980  buffer[digits] */\n      dup2\n      mload\n      dup2\n      lt\n      tag_277\n      jumpi\n      tag_278\n      tag_279\n      jump\t// in\n    tag_278:\n    tag_277:\n      0x20\n      add\n      add\n        /* \"@openzeppelin/contracts/utils/Strings.sol\":966:1022  buffer[digits] = bytes1(uint8(48 + uint256(value % 10))) */\n      swap1\n      not(0xffffffffffffffffffffffffffffffffffffffffffffffffffffffffffffff)\n      and\n      swap1\n      dup2\n      0x00\n      byte\n      swap1\n      mstore8\n      pop\n        /* \"@openzeppelin/contracts/utils/Strings.sol\":1045:1047  10 */\n      0x0a\n        /* \"@openzeppelin/contracts/utils/Strings.sol\":1036:1047  value /= 10 */\n      dup6\n      tag_280\n      swap2\n      swap1\n      tag_266\n      jump\t// in\n    tag_280:\n      swap5\n      pop\n        /* \"@openzeppelin/contracts/utils/Strings.sol\":908:1058  while (value != 0) {... */\n      jump(tag_271)\n    tag_272:\n        /* \"@openzeppelin/contracts/utils/Strings.sol\":1081:1087  buffer */\n      dup1\n        /* \"@openzeppelin/contracts/utils/Strings.sol\":1067:1088  return string(buffer) */\n      swap4\n      pop\n      pop\n      pop\n      pop\n        /* \"@openzeppelin/contracts/utils/Strings.sol\":392:1095  function toString(uint256 value) internal pure returns (string memory) {... */\n    tag_259:\n      swap2\n      swap1\n      pop\n      jump\t// out\n        /* \"@openzeppelin/contracts/token/ERC721/ERC721.sol\":7034:7159  function _exists(uint256 tokenId) internal view virtual returns (bool) {... */\n    tag_206:\n        /* \"@openzeppelin/contracts/token/ERC721/ERC721.sol\":7099:7103  bool */\n      0x00\n        /* \"@openzeppelin/contracts/token/ERC721/ERC721.sol\":7150:7151  0 */\n      dup1\n        /* \"@openzeppelin/contracts/token/ERC721/ERC721.sol\":7122:7152  _owners[tokenId] != address(0) */\n      0xffffffffffffffffffffffffffffffffffffffff\n      and\n        /* \"@openzeppelin/contracts/token/ERC721/ERC721.sol\":7122:7129  _owners */\n      0x02\n        /* \"@openzeppelin/contracts/token/ERC721/ERC721.sol\":7122:7138  _owners[tokenId] */\n      0x00\n        /* \"@openzeppelin/contracts/token/ERC721/ERC721.sol\":7130:7137  tokenId */\n      dup5\n        /* \"@openzeppelin/contracts/token/ERC721/ERC721.sol\":7122:7138  _owners[tokenId] */\n      dup2\n      mstore\n      0x20\n      add\n      swap1\n      dup2\n      mstore\n      0x20\n      add\n      0x00\n      keccak256\n      0x00\n      swap1\n      sload\n      swap1\n      0x0100\n      exp\n      swap1\n      div\n      0xffffffffffffffffffffffffffffffffffffffff\n      and\n        /* \"@openzeppelin/contracts/token/ERC721/ERC721.sol\":7122:7152  _owners[tokenId] != address(0) */\n      0xffffffffffffffffffffffffffffffffffffffff\n      and\n      eq\n      iszero\n        /* \"@openzeppelin/contracts/token/ERC721/ERC721.sol\":7115:7152  return _owners[tokenId] != address(0) */\n      swap1\n      pop\n        /* \"@openzeppelin/contracts/token/ERC721/ERC721.sol\":7034:7159  function _exists(uint256 tokenId) internal view virtual returns (bool) {... */\n      swap2\n      swap1\n      pop\n      jump\t// out\n        /* \"@openzeppelin/contracts/token/ERC721/ERC721.sol\":13729:13851  function _beforeTokenTransfer(... */\n    tag_227:\n      pop\n      pop\n      pop\n      jump\t// out\n        /* \"@openzeppelin/contracts/token/ERC721/ERC721.sol\":14223:14344  function _afterTokenTransfer(... */\n    tag_234:\n      pop\n      pop\n      pop\n      jump\t// out\n        /* \"@openzeppelin/contracts/token/ERC721/ERC721.sol\":12342:13173  function _checkOnERC721Received(... */\n    tag_254:\n        /* \"@openzeppelin/contracts/token/ERC721/ERC721.sol\":12491:12495  bool */\n      0x00\n        /* \"@openzeppelin/contracts/token/ERC721/ERC721.sol\":12511:12526  to.isContract() */\n      tag_285\n        /* \"@openzeppelin/contracts/token/ERC721/ERC721.sol\":12511:12513  to */\n      dup5\n        /* \"@openzeppelin/contracts/token/ERC721/ERC721.sol\":12511:12524  to.isContract */\n      0xffffffffffffffffffffffffffffffffffffffff\n      and\n      tag_286\n        /* \"@openzeppelin/contracts/token/ERC721/ERC721.sol\":12511:12526  to.isContract() */\n      jump\t// in\n    tag_285:\n        /* \"@openzeppelin/contracts/token/ERC721/ERC721.sol\":12507:13167  if (to.isContract()) {... */\n      iszero\n      tag_287\n      jumpi\n        /* \"@openzeppelin/contracts/token/ERC721/ERC721.sol\":12562:12564  to */\n      dup4\n        /* \"@openzeppelin/contracts/token/ERC721/ERC721.sol\":12546:12582  IERC721Receiver(to).onERC721Received */\n      0xffffffffffffffffffffffffffffffffffffffff\n      and\n      0x150b7a02\n        /* \"@openzeppelin/contracts/token/ERC721/ERC721.sol\":12583:12595  _msgSender() */\n      tag_288\n        /* \"@openzeppelin/contracts/token/ERC721/ERC721.sol\":12583:12593  _msgSender */\n      tag_134\n        /* \"@openzeppelin/contracts/token/ERC721/ERC721.sol\":12583:12595  _msgSender() */\n      jump\t// in\n    tag_288:\n        /* \"@openzeppelin/contracts/token/ERC721/ERC721.sol\":12597:12601  from */\n      dup8\n        /* \"@openzeppelin/contracts/token/ERC721/ERC721.sol\":12603:12610  tokenId */\n      dup7\n        /* \"@openzeppelin/contracts/token/ERC721/ERC721.sol\":12612:12616  data */\n      dup7\n        /* \"@openzeppelin/contracts/token/ERC721/ERC721.sol\":12546:12617  IERC721Receiver(to).onERC721Received(_msgSender(), from, tokenId, data) */\n      mload(0x40)\n      dup6\n      0xffffffff\n      and\n      0xe0\n      shl\n      dup2\n      mstore\n      0x04\n      add\n      tag_289\n      swap5\n      swap4\n      swap3\n      swap2\n      swap1\n      tag_290\n      jump\t// in\n    tag_289:\n      0x20\n      mload(0x40)\n      dup1\n      dup4\n      sub\n      dup2\n      0x00\n      dup8\n      gas\n      call\n      swap3\n      pop\n      pop\n      pop\n      dup1\n      iszero\n      tag_291\n      jumpi\n      pop\n      mload(0x40)\n      returndatasize\n      not(0x1f)\n      0x1f\n      dup3\n      add\n      and\n      dup3\n      add\n      dup1\n      0x40\n      mstore\n      pop\n      dup2\n      add\n      swap1\n      tag_292\n      swap2\n      swap1\n      tag_293\n      jump\t// in\n    tag_292:\n      0x01\n    tag_291:\n        /* \"@openzeppelin/contracts/token/ERC721/ERC721.sol\":12542:13115  try IERC721Receiver(to).onERC721Received(_msgSender(), from, tokenId, data) returns (bytes4 retval) {... */\n      tag_294\n      jumpi\n      returndatasize\n      dup1\n      0x00\n      dup2\n      eq\n      tag_299\n      jumpi\n      mload(0x40)\n      swap2\n      pop\n      and(add(returndatasize, 0x3f), not(0x1f))\n      dup3\n      add\n      0x40\n      mstore\n      returndatasize\n      dup3\n      mstore\n      returndatasize\n      0x00\n      0x20\n      dup5\n      add\n      returndatacopy\n      jump(tag_298)\n    tag_299:\n      0x60\n      swap2\n      pop\n    tag_298:\n      pop\n        /* \"@openzeppelin/contracts/token/ERC721/ERC721.sol\":12801:12802  0 */\n      0x00\n        /* \"@openzeppelin/contracts/token/ERC721/ERC721.sol\":12784:12790  reason */\n      dup2\n        /* \"@openzeppelin/contracts/token/ERC721/ERC721.sol\":12784:12797  reason.length */\n      mload\n        /* \"@openzeppelin/contracts/token/ERC721/ERC721.sol\":12784:12802  reason.length == 0 */\n      sub\n        /* \"@openzeppelin/contracts/token/ERC721/ERC721.sol\":12780:13101  if (reason.length == 0) {... */\n      tag_300\n      jumpi\n        /* \"@openzeppelin/contracts/token/ERC721/ERC721.sol\":12826:12886  revert(\"ERC721: transfer to non ERC721Receiver implementer\") */\n      mload(0x40)\n      0x08c379a000000000000000000000000000000000000000000000000000000000\n      dup2\n      mstore\n      0x04\n      add\n      tag_301\n      swap1\n      tag_257\n      jump\t// in\n    tag_301:\n      mload(0x40)\n      dup1\n      swap2\n      sub\n      swap1\n      revert\n        /* \"@openzeppelin/contracts/token/ERC721/ERC721.sol\":12780:13101  if (reason.length == 0) {... */\n    tag_300:\n        /* \"@openzeppelin/contracts/token/ERC721/ERC721.sol\":13053:13059  reason */\n      dup1\n        /* \"@openzeppelin/contracts/token/ERC721/ERC721.sol\":13047:13060  mload(reason) */\n      mload\n        /* \"@openzeppelin/contracts/token/ERC721/ERC721.sol\":13038:13044  reason */\n      dup2\n        /* \"@openzeppelin/contracts/token/ERC721/ERC721.sol\":13034:13036  32 */\n      0x20\n        /* \"@openzeppelin/contracts/token/ERC721/ERC721.sol\":13030:13045  add(32, reason) */\n      add\n        /* \"@openzeppelin/contracts/token/ERC721/ERC721.sol\":13023:13061  revert(add(32, reason), mload(reason)) */\n      revert\n        /* \"@openzeppelin/contracts/token/ERC721/ERC721.sol\":12542:13115  try IERC721Receiver(to).onERC721Received(_msgSender(), from, tokenId, data) returns (bytes4 retval) {... */\n    tag_294:\n        /* \"@openzeppelin/contracts/token/ERC721/ERC721.sol\":12677:12718  IERC721Receiver.onERC721Received.selector */\n      shl(0xe0, 0x150b7a02)\n        /* \"@openzeppelin/contracts/token/ERC721/ERC721.sol\":12667:12718  retval == IERC721Receiver.onERC721Received.selector */\n      not(0xffffffffffffffffffffffffffffffffffffffffffffffffffffffff)\n      and\n        /* \"@openzeppelin/contracts/token/ERC721/ERC721.sol\":12667:12673  retval */\n      dup2\n        /* \"@openzeppelin/contracts/token/ERC721/ERC721.sol\":12667:12718  retval == IERC721Receiver.onERC721Received.selector */\n      not(0xffffffffffffffffffffffffffffffffffffffffffffffffffffffff)\n      and\n      eq\n        /* \"@openzeppelin/contracts/token/ERC721/ERC721.sol\":12660:12718  return retval == IERC721Receiver.onERC721Received.selector */\n      swap2\n      pop\n      pop\n      jump(tag_284)\n        /* \"@openzeppelin/contracts/token/ERC721/ERC721.sol\":12507:13167  if (to.isContract()) {... */\n    tag_287:\n        /* \"@openzeppelin/contracts/token/ERC721/ERC721.sol\":13152:13156  true */\n      0x01\n        /* \"@openzeppelin/contracts/token/ERC721/ERC721.sol\":13145:13156  return true */\n      swap1\n      pop\n        /* \"@openzeppelin/contracts/token/ERC721/ERC721.sol\":12342:13173  function _checkOnERC721Received(... */\n    tag_284:\n      swap5\n      swap4\n      pop\n      pop\n      pop\n      pop\n      jump\t// out\n        /* \"@openzeppelin/contracts/utils/Address.sol\":1175:1495  function isContract(address account) internal view returns (bool) {... */\n    tag_286:\n        /* \"@openzeppelin/contracts/utils/Address.sol\":1235:1239  bool */\n      0x00\n        /* \"@openzeppelin/contracts/utils/Address.sol\":1487:1488  0 */\n      dup1\n        /* \"@openzeppelin/contracts/utils/Address.sol\":1465:1472  account */\n      dup3\n        /* \"@openzeppelin/contracts/utils/Address.sol\":1465:1484  account.code.length */\n      0xffffffffffffffffffffffffffffffffffffffff\n      and\n      extcodesize\n        /* \"@openzeppelin/contracts/utils/Address.sol\":1465:1488  account.code.length > 0 */\n      gt\n        /* \"@openzeppelin/contracts/utils/Address.sol\":1458:1488  return account.code.length > 0 */\n      swap1\n      pop\n        /* \"@openzeppelin/contracts/utils/Address.sol\":1175:1495  function isContract(address account) internal view returns (bool) {... */\n      swap2\n      swap1\n      pop\n      jump\t// out\n        /* \"#utility.yul\":7:82   */\n    tag_306:\n        /* \"#utility.yul\":40:46   */\n      0x00\n        /* \"#utility.yul\":73:75   */\n      0x40\n        /* \"#utility.yul\":67:76   */\n      mload\n        /* \"#utility.yul\":57:76   */\n      swap1\n      pop\n        /* \"#utility.yul\":7:82   */\n      swap1\n      jump\t// out\n        /* \"#utility.yul\":88:205   */\n    tag_307:\n        /* \"#utility.yul\":197:198   */\n      0x00\n        /* \"#utility.yul\":194:195   */\n      dup1\n        /* \"#utility.yul\":187:199   */\n      revert\n        /* \"#utility.yul\":211:328   */\n    tag_308:\n        /* \"#utility.yul\":320:321   */\n      0x00\n        /* \"#utility.yul\":317:318   */\n      dup1\n        /* \"#utility.yul\":310:322   */\n      revert\n        /* \"#utility.yul\":334:483   */\n    tag_309:\n        /* \"#utility.yul\":370:377   */\n      0x00\n        /* \"#utility.yul\":410:476   */\n      0xffffffff00000000000000000000000000000000000000000000000000000000\n        /* \"#utility.yul\":403:408   */\n      dup3\n        /* \"#utility.yul\":399:477   */\n      and\n        /* \"#utility.yul\":388:477   */\n      swap1\n      pop\n        /* \"#utility.yul\":334:483   */\n      swap2\n      swap1\n      pop\n      jump\t// out\n        /* \"#utility.yul\":489:609   */\n    tag_310:\n        /* \"#utility.yul\":561:584   */\n      tag_377\n        /* \"#utility.yul\":578:583   */\n      dup2\n        /* \"#utility.yul\":561:584   */\n      tag_309\n      jump\t// in\n    tag_377:\n        /* \"#utility.yul\":554:559   */\n      dup2\n        /* \"#utility.yul\":551:585   */\n      eq\n        /* \"#utility.yul\":541:603   */\n      tag_378\n      jumpi\n        /* \"#utility.yul\":599:600   */\n      0x00\n        /* \"#utility.yul\":596:597   */\n      dup1\n        /* \"#utility.yul\":589:601   */\n      revert\n        /* \"#utility.yul\":541:603   */\n    tag_378:\n        /* \"#utility.yul\":489:609   */\n      pop\n      jump\t// out\n        /* \"#utility.yul\":615:752   */\n    tag_311:\n        /* \"#utility.yul\":660:665   */\n      0x00\n        /* \"#utility.yul\":698:704   */\n      dup2\n        /* \"#utility.yul\":685:705   */\n      calldataload\n        /* \"#utility.yul\":676:705   */\n      swap1\n      pop\n        /* \"#utility.yul\":714:746   */\n      tag_380\n        /* \"#utility.yul\":740:745   */\n      dup2\n        /* \"#utility.yul\":714:746   */\n      tag_310\n      jump\t// in\n    tag_380:\n        /* \"#utility.yul\":615:752   */\n      swap3\n      swap2\n      pop\n      pop\n      jump\t// out\n        /* \"#utility.yul\":758:1085   */\n    tag_26:\n        /* \"#utility.yul\":816:822   */\n      0x00\n        /* \"#utility.yul\":865:867   */\n      0x20\n        /* \"#utility.yul\":853:862   */\n      dup3\n        /* \"#utility.yul\":844:851   */\n      dup5\n        /* \"#utility.yul\":840:863   */\n      sub\n        /* \"#utility.yul\":836:868   */\n      slt\n        /* \"#utility.yul\":833:952   */\n      iszero\n      tag_382\n      jumpi\n        /* \"#utility.yul\":871:950   */\n      tag_383\n      tag_307\n      jump\t// in\n    tag_383:\n        /* \"#utility.yul\":833:952   */\n    tag_382:\n        /* \"#utility.yul\":991:992   */\n      0x00\n        /* \"#utility.yul\":1016:1068   */\n      tag_384\n        /* \"#utility.yul\":1060:1067   */\n      dup5\n        /* \"#utility.yul\":1051:1057   */\n      dup3\n        /* \"#utility.yul\":1040:1049   */\n      dup6\n        /* \"#utility.yul\":1036:1058   */\n      add\n        /* \"#utility.yul\":1016:1068   */\n      tag_311\n      jump\t// in\n    tag_384:\n        /* \"#utility.yul\":1006:1068   */\n      swap2\n      pop\n        /* \"#utility.yul\":962:1078   */\n      pop\n        /* \"#utility.yul\":758:1085   */\n      swap3\n      swap2\n      pop\n      pop\n      jump\t// out\n        /* \"#utility.yul\":1091:1181   */\n    tag_312:\n        /* \"#utility.yul\":1125:1132   */\n      0x00\n        /* \"#utility.yul\":1168:1173   */\n      dup2\n        /* \"#utility.yul\":1161:1174   */\n      iszero\n        /* \"#utility.yul\":1154:1175   */\n      iszero\n        /* \"#utility.yul\":1143:1175   */\n      swap1\n      pop\n        /* \"#utility.yul\":1091:1181   */\n      swap2\n      swap1\n      pop\n      jump\t// out\n        /* \"#utility.yul\":1187:1296   */\n    tag_313:\n        /* \"#utility.yul\":1268:1289   */\n      tag_387\n        /* \"#utility.yul\":1283:1288   */\n      dup2\n        /* \"#utility.yul\":1268:1289   */\n      tag_312\n      jump\t// in\n    tag_387:\n        /* \"#utility.yul\":1263:1266   */\n      dup3\n        /* \"#utility.yul\":1256:1290   */\n      mstore\n        /* \"#utility.yul\":1187:1296   */\n      pop\n      pop\n      jump\t// out\n        /* \"#utility.yul\":1302:1512   */\n    tag_29:\n        /* \"#utility.yul\":1389:1393   */\n      0x00\n        /* \"#utility.yul\":1427:1429   */\n      0x20\n        /* \"#utility.yul\":1416:1425   */\n      dup3\n        /* \"#utility.yul\":1412:1430   */\n      add\n        /* \"#utility.yul\":1404:1430   */\n      swap1\n      pop\n        /* \"#utility.yul\":1440:1505   */\n      tag_389\n        /* \"#utility.yul\":1502:1503   */\n      0x00\n        /* \"#utility.yul\":1491:1500   */\n      dup4\n        /* \"#utility.yul\":1487:1504   */\n      add\n        /* \"#utility.yul\":1478:1484   */\n      dup5\n        /* \"#utility.yul\":1440:1505   */\n      tag_313\n      jump\t// in\n    tag_389:\n        /* \"#utility.yul\":1302:1512   */\n      swap3\n      swap2\n      pop\n      pop\n      jump\t// out\n        /* \"#utility.yul\":1518:1617   */\n    tag_314:\n        /* \"#utility.yul\":1570:1576   */\n      0x00\n        /* \"#utility.yul\":1604:1609   */\n      dup2\n        /* \"#utility.yul\":1598:1610   */\n      mload\n        /* \"#utility.yul\":1588:1610   */\n      swap1\n      pop\n        /* \"#utility.yul\":1518:1617   */\n      swap2\n      swap1\n      pop\n      jump\t// out\n        /* \"#utility.yul\":1623:1792   */\n    tag_315:\n        /* \"#utility.yul\":1707:1718   */\n      0x00\n        /* \"#utility.yul\":1741:1747   */\n      dup3\n        /* \"#utility.yul\":1736:1739   */\n      dup3\n        /* \"#utility.yul\":1729:1748   */\n      mstore\n        /* \"#utility.yul\":1781:1785   */\n      0x20\n        /* \"#utility.yul\":1776:1779   */\n      dup3\n        /* \"#utility.yul\":1772:1786   */\n      add\n        /* \"#utility.yul\":1757:1786   */\n      swap1\n      pop\n        /* \"#utility.yul\":1623:1792   */\n      swap3\n      swap2\n      pop\n      pop\n      jump\t// out\n        /* \"#utility.yul\":1798:2105   */\n    tag_316:\n        /* \"#utility.yul\":1866:1867   */\n      0x00\n        /* \"#utility.yul\":1876:1989   */\n    tag_393:\n        /* \"#utility.yul\":1890:1896   */\n      dup4\n        /* \"#utility.yul\":1887:1888   */\n      dup2\n        /* \"#utility.yul\":1884:1897   */\n      lt\n        /* \"#utility.yul\":1876:1989   */\n      iszero\n      tag_395\n      jumpi\n        /* \"#utility.yul\":1975:1976   */\n      dup1\n        /* \"#utility.yul\":1970:1973   */\n      dup3\n        /* \"#utility.yul\":1966:1977   */\n      add\n        /* \"#utility.yul\":1960:1978   */\n      mload\n        /* \"#utility.yul\":1956:1957   */\n      dup2\n        /* \"#utility.yul\":1951:1954   */\n      dup5\n        /* \"#utility.yul\":1947:1958   */\n      add\n        /* \"#utility.yul\":1940:1979   */\n      mstore\n        /* \"#utility.yul\":1912:1914   */\n      0x20\n        /* \"#utility.yul\":1909:1910   */\n      dup2\n        /* \"#utility.yul\":1905:1915   */\n      add\n        /* \"#utility.yul\":1900:1915   */\n      swap1\n      pop\n        /* \"#utility.yul\":1876:1989   */\n      jump(tag_393)\n    tag_395:\n        /* \"#utility.yul\":2007:2013   */\n      dup4\n        /* \"#utility.yul\":2004:2005   */\n      dup2\n        /* \"#utility.yul\":2001:2014   */\n      gt\n        /* \"#utility.yul\":1998:2099   */\n      iszero\n      tag_396\n      jumpi\n        /* \"#utility.yul\":2087:2088   */\n      0x00\n        /* \"#utility.yul\":2078:2084   */\n      dup5\n        /* \"#utility.yul\":2073:2076   */\n      dup5\n        /* \"#utility.yul\":2069:2085   */\n      add\n        /* \"#utility.yul\":2062:2089   */\n      mstore\n        /* \"#utility.yul\":1998:2099   */\n    tag_396:\n        /* \"#utility.yul\":1847:2105   */\n      pop\n        /* \"#utility.yul\":1798:2105   */\n      pop\n      pop\n      pop\n      jump\t// out\n        /* \"#utility.yul\":2111:2213   */\n    tag_317:\n        /* \"#utility.yul\":2152:2158   */\n      0x00\n        /* \"#utility.yul\":2203:2205   */\n      0x1f\n        /* \"#utility.yul\":2199:2206   */\n      not\n        /* \"#utility.yul\":2194:2196   */\n      0x1f\n        /* \"#utility.yul\":2187:2192   */\n      dup4\n        /* \"#utility.yul\":2183:2197   */\n      add\n        /* \"#utility.yul\":2179:2207   */\n      and\n        /* \"#utility.yul\":2169:2207   */\n      swap1\n      pop\n        /* \"#utility.yul\":2111:2213   */\n      swap2\n      swap1\n      pop\n      jump\t// out\n        /* \"#utility.yul\":2219:2583   */\n    tag_318:\n        /* \"#utility.yul\":2307:2310   */\n      0x00\n        /* \"#utility.yul\":2335:2374   */\n      tag_399\n        /* \"#utility.yul\":2368:2373   */\n      dup3\n        /* \"#utility.yul\":2335:2374   */\n      tag_314\n      jump\t// in\n    tag_399:\n        /* \"#utility.yul\":2390:2461   */\n      tag_400\n        /* \"#utility.yul\":2454:2460   */\n      dup2\n        /* \"#utility.yul\":2449:2452   */\n      dup6\n        /* \"#utility.yul\":2390:2461   */\n      tag_315\n      jump\t// in\n    tag_400:\n        /* \"#utility.yul\":2383:2461   */\n      swap4\n      pop\n        /* \"#utility.yul\":2470:2522   */\n      tag_401\n        /* \"#utility.yul\":2515:2521   */\n      dup2\n        /* \"#utility.yul\":2510:2513   */\n      dup6\n        /* \"#utility.yul\":2503:2507   */\n      0x20\n        /* \"#utility.yul\":2496:2501   */\n      dup7\n        /* \"#utility.yul\":2492:2508   */\n      add\n        /* \"#utility.yul\":2470:2522   */\n      tag_316\n      jump\t// in\n    tag_401:\n        /* \"#utility.yul\":2547:2576   */\n      tag_402\n        /* \"#utility.yul\":2569:2575   */\n      dup2\n        /* \"#utility.yul\":2547:2576   */\n      tag_317\n      jump\t// in\n    tag_402:\n        /* \"#utility.yul\":2542:2545   */\n      dup5\n        /* \"#utility.yul\":2538:2577   */\n      add\n        /* \"#utility.yul\":2531:2577   */\n      swap2\n      pop\n        /* \"#utility.yul\":2311:2583   */\n      pop\n        /* \"#utility.yul\":2219:2583   */\n      swap3\n      swap2\n      pop\n      pop\n      jump\t// out\n        /* \"#utility.yul\":2589:2902   */\n    tag_34:\n        /* \"#utility.yul\":2702:2706   */\n      0x00\n        /* \"#utility.yul\":2740:2742   */\n      0x20\n        /* \"#utility.yul\":2729:2738   */\n      dup3\n        /* \"#utility.yul\":2725:2743   */\n      add\n        /* \"#utility.yul\":2717:2743   */\n      swap1\n      pop\n        /* \"#utility.yul\":2789:2798   */\n      dup2\n        /* \"#utility.yul\":2783:2787   */\n      dup2\n        /* \"#utility.yul\":2779:2799   */\n      sub\n        /* \"#utility.yul\":2775:2776   */\n      0x00\n        /* \"#utility.yul\":2764:2773   */\n      dup4\n        /* \"#utility.yul\":2760:2777   */\n      add\n        /* \"#utility.yul\":2753:2800   */\n      mstore\n        /* \"#utility.yul\":2817:2895   */\n      tag_404\n        /* \"#utility.yul\":2890:2894   */\n      dup2\n        /* \"#utility.yul\":2881:2887   */\n      dup5\n        /* \"#utility.yul\":2817:2895   */\n      tag_318\n      jump\t// in\n    tag_404:\n        /* \"#utility.yul\":2809:2895   */\n      swap1\n      pop\n        /* \"#utility.yul\":2589:2902   */\n      swap3\n      swap2\n      pop\n      pop\n      jump\t// out\n        /* \"#utility.yul\":2908:2985   */\n    tag_319:\n        /* \"#utility.yul\":2945:2952   */\n      0x00\n        /* \"#utility.yul\":2974:2979   */\n      dup2\n        /* \"#utility.yul\":2963:2979   */\n      swap1\n      pop\n        /* \"#utility.yul\":2908:2985   */\n      swap2\n      swap1\n      pop\n      jump\t// out\n        /* \"#utility.yul\":2991:3113   */\n    tag_320:\n        /* \"#utility.yul\":3064:3088   */\n      tag_407\n        /* \"#utility.yul\":3082:3087   */\n      dup2\n        /* \"#utility.yul\":3064:3088   */\n      tag_319\n      jump\t// in\n    tag_407:\n        /* \"#utility.yul\":3057:3062   */\n      dup2\n        /* \"#utility.yul\":3054:3089   */\n      eq\n        /* \"#utility.yul\":3044:3107   */\n      tag_408\n      jumpi\n        /* \"#utility.yul\":3103:3104   */\n      0x00\n        /* \"#utility.yul\":3100:3101   */\n      dup1\n        /* \"#utility.yul\":3093:3105   */\n      revert\n        /* \"#utility.yul\":3044:3107   */\n    tag_408:\n        /* \"#utility.yul\":2991:3113   */\n      pop\n      jump\t// out\n        /* \"#utility.yul\":3119:3258   */\n    tag_321:\n        /* \"#utility.yul\":3165:3170   */\n      0x00\n        /* \"#utility.yul\":3203:3209   */\n      dup2\n        /* \"#utility.yul\":3190:3210   */\n      calldataload\n        /* \"#utility.yul\":3181:3210   */\n      swap1\n      pop\n        /* \"#utility.yul\":3219:3252   */\n      tag_410\n        /* \"#utility.yul\":3246:3251   */\n      dup2\n        /* \"#utility.yul\":3219:3252   */\n      tag_320\n      jump\t// in\n    tag_410:\n        /* \"#utility.yul\":3119:3258   */\n      swap3\n      swap2\n      pop\n      pop\n      jump\t// out\n        /* \"#utility.yul\":3264:3593   */\n    tag_38:\n        /* \"#utility.yul\":3323:3329   */\n      0x00\n        /* \"#utility.yul\":3372:3374   */\n      0x20\n        /* \"#utility.yul\":3360:3369   */\n      dup3\n        /* \"#utility.yul\":3351:3358   */\n      dup5\n        /* \"#utility.yul\":3347:3370   */\n      sub\n        /* \"#utility.yul\":3343:3375   */\n      slt\n        /* \"#utility.yul\":3340:3459   */\n      iszero\n      tag_412\n      jumpi\n        /* \"#utility.yul\":3378:3457   */\n      tag_413\n      tag_307\n      jump\t// in\n    tag_413:\n        /* \"#utility.yul\":3340:3459   */\n    tag_412:\n        /* \"#utility.yul\":3498:3499   */\n      0x00\n        /* \"#utility.yul\":3523:3576   */\n      tag_414\n        /* \"#utility.yul\":3568:3575   */\n      dup5\n        /* \"#utility.yul\":3559:3565   */\n      dup3\n        /* \"#utility.yul\":3548:3557   */\n      dup6\n        /* \"#utility.yul\":3544:3566   */\n      add\n        /* \"#utility.yul\":3523:3576   */\n      tag_321\n      jump\t// in\n    tag_414:\n        /* \"#utility.yul\":3513:3576   */\n      swap2\n      pop\n        /* \"#utility.yul\":3469:3586   */\n      pop\n        /* \"#utility.yul\":3264:3593   */\n      swap3\n      swap2\n      pop\n      pop\n      jump\t// out\n        /* \"#utility.yul\":3599:3725   */\n    tag_322:\n        /* \"#utility.yul\":3636:3643   */\n      0x00\n        /* \"#utility.yul\":3676:3718   */\n      0xffffffffffffffffffffffffffffffffffffffff\n        /* \"#utility.yul\":3669:3674   */\n      dup3\n        /* \"#utility.yul\":3665:3719   */\n      and\n        /* \"#utility.yul\":3654:3719   */\n      swap1\n      pop\n        /* \"#utility.yul\":3599:3725   */\n      swap2\n      swap1\n      pop\n      jump\t// out\n        /* \"#utility.yul\":3731:3827   */\n    tag_323:\n        /* \"#utility.yul\":3768:3775   */\n      0x00\n        /* \"#utility.yul\":3797:3821   */\n      tag_417\n        /* \"#utility.yul\":3815:3820   */\n      dup3\n        /* \"#utility.yul\":3797:3821   */\n      tag_322\n      jump\t// in\n    tag_417:\n        /* \"#utility.yul\":3786:3821   */\n      swap1\n      pop\n        /* \"#utility.yul\":3731:3827   */\n      swap2\n      swap1\n      pop\n      jump\t// out\n        /* \"#utility.yul\":3833:3951   */\n    tag_324:\n        /* \"#utility.yul\":3920:3944   */\n      tag_419\n        /* \"#utility.yul\":3938:3943   */\n      dup2\n        /* \"#utility.yul\":3920:3944   */\n      tag_323\n      jump\t// in\n    tag_419:\n        /* \"#utility.yul\":3915:3918   */\n      dup3\n        /* \"#utility.yul\":3908:3945   */\n      mstore\n        /* \"#utility.yul\":3833:3951   */\n      pop\n      pop\n      jump\t// out\n        /* \"#utility.yul\":3957:4179   */\n    tag_41:\n        /* \"#utility.yul\":4050:4054   */\n      0x00\n        /* \"#utility.yul\":4088:4090   */\n      0x20\n        /* \"#utility.yul\":4077:4086   */\n      dup3\n        /* \"#utility.yul\":4073:4091   */\n      add\n        /* \"#utility.yul\":4065:4091   */\n      swap1\n      pop\n        /* \"#utility.yul\":4101:4172   */\n      tag_421\n        /* \"#utility.yul\":4169:4170   */\n      0x00\n        /* \"#utility.yul\":4158:4167   */\n      dup4\n        /* \"#utility.yul\":4154:4171   */\n      add\n        /* \"#utility.yul\":4145:4151   */\n      dup5\n        /* \"#utility.yul\":4101:4172   */\n      tag_324\n      jump\t// in\n    tag_421:\n        /* \"#utility.yul\":3957:4179   */\n      swap3\n      swap2\n      pop\n      pop\n      jump\t// out\n        /* \"#utility.yul\":4185:4307   */\n    tag_325:\n        /* \"#utility.yul\":4258:4282   */\n      tag_423\n        /* \"#utility.yul\":4276:4281   */\n      dup2\n        /* \"#utility.yul\":4258:4282   */\n      tag_323\n      jump\t// in\n    tag_423:\n        /* \"#utility.yul\":4251:4256   */\n      dup2\n        /* \"#utility.yul\":4248:4283   */\n      eq\n        /* \"#utility.yul\":4238:4301   */\n      tag_424\n      jumpi\n        /* \"#utility.yul\":4297:4298   */\n      0x00\n        /* \"#utility.yul\":4294:4295   */\n      dup1\n        /* \"#utility.yul\":4287:4299   */\n      revert\n        /* \"#utility.yul\":4238:4301   */\n    tag_424:\n        /* \"#utility.yul\":4185:4307   */\n      pop\n      jump\t// out\n        /* \"#utility.yul\":4313:4452   */\n    tag_326:\n        /* \"#utility.yul\":4359:4364   */\n      0x00\n        /* \"#utility.yul\":4397:4403   */\n      dup2\n        /* \"#utility.yul\":4384:4404   */\n      calldataload\n        /* \"#utility.yul\":4375:4404   */\n      swap1\n      pop\n        /* \"#utility.yul\":4413:4446   */\n      tag_426\n        /* \"#utility.yul\":4440:4445   */\n      dup2\n        /* \"#utility.yul\":4413:4446   */\n      tag_325\n      jump\t// in\n    tag_426:\n        /* \"#utility.yul\":4313:4452   */\n      swap3\n      swap2\n      pop\n      pop\n      jump\t// out\n        /* \"#utility.yul\":4458:4932   */\n    tag_45:\n        /* \"#utility.yul\":4526:4532   */\n      0x00\n        /* \"#utility.yul\":4534:4540   */\n      dup1\n        /* \"#utility.yul\":4583:4585   */\n      0x40\n        /* \"#utility.yul\":4571:4580   */\n      dup4\n        /* \"#utility.yul\":4562:4569   */\n      dup6\n        /* \"#utility.yul\":4558:4581   */\n      sub\n        /* \"#utility.yul\":4554:4586   */\n      slt\n        /* \"#utility.yul\":4551:4670   */\n      iszero\n      tag_428\n      jumpi\n        /* \"#utility.yul\":4589:4668   */\n      tag_429\n      tag_307\n      jump\t// in\n    tag_429:\n        /* \"#utility.yul\":4551:4670   */\n    tag_428:\n        /* \"#utility.yul\":4709:4710   */\n      0x00\n        /* \"#utility.yul\":4734:4787   */\n      tag_430\n        /* \"#utility.yul\":4779:4786   */\n      dup6\n        /* \"#utility.yul\":4770:4776   */\n      dup3\n        /* \"#utility.yul\":4759:4768   */\n      dup7\n        /* \"#utility.yul\":4755:4777   */\n      add\n        /* \"#utility.yul\":4734:4787   */\n      tag_326\n      jump\t// in\n    tag_430:\n        /* \"#utility.yul\":4724:4787   */\n      swap3\n      pop\n        /* \"#utility.yul\":4680:4797   */\n      pop\n        /* \"#utility.yul\":4836:4838   */\n      0x20\n        /* \"#utility.yul\":4862:4915   */\n      tag_431\n        /* \"#utility.yul\":4907:4914   */\n      dup6\n        /* \"#utility.yul\":4898:4904   */\n      dup3\n        /* \"#utility.yul\":4887:4896   */\n      dup7\n        /* \"#utility.yul\":4883:4905   */\n      add\n        /* \"#utility.yul\":4862:4915   */\n      tag_321\n      jump\t// in\n    tag_431:\n        /* \"#utility.yul\":4852:4915   */\n      swap2\n      pop\n        /* \"#utility.yul\":4807:4925   */\n      pop\n        /* \"#utility.yul\":4458:4932   */\n      swap3\n      pop\n      swap3\n      swap1\n      pop\n      jump\t// out\n        /* \"#utility.yul\":4938:5557   */\n    tag_50:\n        /* \"#utility.yul\":5015:5021   */\n      0x00\n        /* \"#utility.yul\":5023:5029   */\n      dup1\n        /* \"#utility.yul\":5031:5037   */\n      0x00\n        /* \"#utility.yul\":5080:5082   */\n      0x60\n        /* \"#utility.yul\":5068:5077   */\n      dup5\n        /* \"#utility.yul\":5059:5066   */\n      dup7\n        /* \"#utility.yul\":5055:5078   */\n      sub\n        /* \"#utility.yul\":5051:5083   */\n      slt\n        /* \"#utility.yul\":5048:5167   */\n      iszero\n      tag_433\n      jumpi\n        /* \"#utility.yul\":5086:5165   */\n      tag_434\n      tag_307\n      jump\t// in\n    tag_434:\n        /* \"#utility.yul\":5048:5167   */\n    tag_433:\n        /* \"#utility.yul\":5206:5207   */\n      0x00\n        /* \"#utility.yul\":5231:5284   */\n      tag_435\n        /* \"#utility.yul\":5276:5283   */\n      dup7\n        /* \"#utility.yul\":5267:5273   */\n      dup3\n        /* \"#utility.yul\":5256:5265   */\n      dup8\n        /* \"#utility.yul\":5252:5274   */\n      add\n        /* \"#utility.yul\":5231:5284   */\n      tag_326\n      jump\t// in\n    tag_435:\n        /* \"#utility.yul\":5221:5284   */\n      swap4\n      pop\n        /* \"#utility.yul\":5177:5294   */\n      pop\n        /* \"#utility.yul\":5333:5335   */\n      0x20\n        /* \"#utility.yul\":5359:5412   */\n      tag_436\n        /* \"#utility.yul\":5404:5411   */\n      dup7\n        /* \"#utility.yul\":5395:5401   */\n      dup3\n        /* \"#utility.yul\":5384:5393   */\n      dup8\n        /* \"#utility.yul\":5380:5402   */\n      add\n        /* \"#utility.yul\":5359:5412   */\n      tag_326\n      jump\t// in\n    tag_436:\n        /* \"#utility.yul\":5349:5412   */\n      swap3\n      pop\n        /* \"#utility.yul\":5304:5422   */\n      pop\n        /* \"#utility.yul\":5461:5463   */\n      0x40\n        /* \"#utility.yul\":5487:5540   */\n      tag_437\n        /* \"#utility.yul\":5532:5539   */\n      dup7\n        /* \"#utility.yul\":5523:5529   */\n      dup3\n        /* \"#utility.yul\":5512:5521   */\n      dup8\n        /* \"#utility.yul\":5508:5530   */\n      add\n        /* \"#utility.yul\":5487:5540   */\n      tag_321\n      jump\t// in\n    tag_437:\n        /* \"#utility.yul\":5477:5540   */\n      swap2\n      pop\n        /* \"#utility.yul\":5432:5550   */\n      pop\n        /* \"#utility.yul\":4938:5557   */\n      swap3\n      pop\n      swap3\n      pop\n      swap3\n      jump\t// out\n        /* \"#utility.yul\":5563:5649   */\n    tag_327:\n        /* \"#utility.yul\":5598:5605   */\n      0x00\n        /* \"#utility.yul\":5638:5642   */\n      0xff\n        /* \"#utility.yul\":5631:5636   */\n      dup3\n        /* \"#utility.yul\":5627:5643   */\n      and\n        /* \"#utility.yul\":5616:5643   */\n      swap1\n      pop\n        /* \"#utility.yul\":5563:5649   */\n      swap2\n      swap1\n      pop\n      jump\t// out\n        /* \"#utility.yul\":5655:5767   */\n    tag_328:\n        /* \"#utility.yul\":5738:5760   */\n      tag_440\n        /* \"#utility.yul\":5754:5759   */\n      dup2\n        /* \"#utility.yul\":5738:5760   */\n      tag_327\n      jump\t// in\n    tag_440:\n        /* \"#utility.yul\":5733:5736   */\n      dup3\n        /* \"#utility.yul\":5726:5761   */\n      mstore\n        /* \"#utility.yul\":5655:5767   */\n      pop\n      pop\n      jump\t// out\n        /* \"#utility.yul\":5773:5987   */\n    tag_56:\n        /* \"#utility.yul\":5862:5866   */\n      0x00\n        /* \"#utility.yul\":5900:5902   */\n      0x20\n        /* \"#utility.yul\":5889:5898   */\n      dup3\n        /* \"#utility.yul\":5885:5903   */\n      add\n        /* \"#utility.yul\":5877:5903   */\n      swap1\n      pop\n        /* \"#utility.yul\":5913:5980   */\n      tag_442\n        /* \"#utility.yul\":5977:5978   */\n      0x00\n        /* \"#utility.yul\":5966:5975   */\n      dup4\n        /* \"#utility.yul\":5962:5979   */\n      add\n        /* \"#utility.yul\":5953:5959   */\n      dup5\n        /* \"#utility.yul\":5913:5980   */\n      tag_328\n      jump\t// in\n    tag_442:\n        /* \"#utility.yul\":5773:5987   */\n      swap3\n      swap2\n      pop\n      pop\n      jump\t// out\n        /* \"#utility.yul\":5993:6322   */\n    tag_72:\n        /* \"#utility.yul\":6052:6058   */\n      0x00\n        /* \"#utility.yul\":6101:6103   */\n      0x20\n        /* \"#utility.yul\":6089:6098   */\n      dup3\n        /* \"#utility.yul\":6080:6087   */\n      dup5\n        /* \"#utility.yul\":6076:6099   */\n      sub\n        /* \"#utility.yul\":6072:6104   */\n      slt\n        /* \"#utility.yul\":6069:6188   */\n      iszero\n      tag_444\n      jumpi\n        /* \"#utility.yul\":6107:6186   */\n      tag_445\n      tag_307\n      jump\t// in\n    tag_445:\n        /* \"#utility.yul\":6069:6188   */\n    tag_444:\n        /* \"#utility.yul\":6227:6228   */\n      0x00\n        /* \"#utility.yul\":6252:6305   */\n      tag_446\n        /* \"#utility.yul\":6297:6304   */\n      dup5\n        /* \"#utility.yul\":6288:6294   */\n      dup3\n        /* \"#utility.yul\":6277:6286   */\n      dup6\n        /* \"#utility.yul\":6273:6295   */\n      add\n        /* \"#utility.yul\":6252:6305   */\n      tag_326\n      jump\t// in\n    tag_446:\n        /* \"#utility.yul\":6242:6305   */\n      swap2\n      pop\n        /* \"#utility.yul\":6198:6315   */\n      pop\n        /* \"#utility.yul\":5993:6322   */\n      swap3\n      swap2\n      pop\n      pop\n      jump\t// out\n        /* \"#utility.yul\":6328:6446   */\n    tag_329:\n        /* \"#utility.yul\":6415:6439   */\n      tag_448\n        /* \"#utility.yul\":6433:6438   */\n      dup2\n        /* \"#utility.yul\":6415:6439   */\n      tag_319\n      jump\t// in\n    tag_448:\n        /* \"#utility.yul\":6410:6413   */\n      dup3\n        /* \"#utility.yul\":6403:6440   */\n      mstore\n        /* \"#utility.yul\":6328:6446   */\n      pop\n      pop\n      jump\t// out\n        /* \"#utility.yul\":6452:6674   */\n    tag_75:\n        /* \"#utility.yul\":6545:6549   */\n      0x00\n        /* \"#utility.yul\":6583:6585   */\n      0x20\n        /* \"#utility.yul\":6572:6581   */\n      dup3\n        /* \"#utility.yul\":6568:6586   */\n      add\n        /* \"#utility.yul\":6560:6586   */\n      swap1\n      pop\n        /* \"#utility.yul\":6596:6667   */\n      tag_450\n        /* \"#utility.yul\":6664:6665   */\n      0x00\n        /* \"#utility.yul\":6653:6662   */\n      dup4\n        /* \"#utility.yul\":6649:6666   */\n      add\n        /* \"#utility.yul\":6640:6646   */\n      dup5\n        /* \"#utility.yul\":6596:6667   */\n      tag_329\n      jump\t// in\n    tag_450:\n        /* \"#utility.yul\":6452:6674   */\n      swap3\n      swap2\n      pop\n      pop\n      jump\t// out\n        /* \"#utility.yul\":6680:6796   */\n    tag_330:\n        /* \"#utility.yul\":6750:6771   */\n      tag_452\n        /* \"#utility.yul\":6765:6770   */\n      dup2\n        /* \"#utility.yul\":6750:6771   */\n      tag_312\n      jump\t// in\n    tag_452:\n        /* \"#utility.yul\":6743:6748   */\n      dup2\n        /* \"#utility.yul\":6740:6772   */\n      eq\n        /* \"#utility.yul\":6730:6790   */\n      tag_453\n      jumpi\n        /* \"#utility.yul\":6786:6787   */\n      0x00\n        /* \"#utility.yul\":6783:6784   */\n      dup1\n        /* \"#utility.yul\":6776:6788   */\n      revert\n        /* \"#utility.yul\":6730:6790   */\n    tag_453:\n        /* \"#utility.yul\":6680:6796   */\n      pop\n      jump\t// out\n        /* \"#utility.yul\":6802:6935   */\n    tag_331:\n        /* \"#utility.yul\":6845:6850   */\n      0x00\n        /* \"#utility.yul\":6883:6889   */\n      dup2\n        /* \"#utility.yul\":6870:6890   */\n      calldataload\n        /* \"#utility.yul\":6861:6890   */\n      swap1\n      pop\n        /* \"#utility.yul\":6899:6929   */\n      tag_455\n        /* \"#utility.yul\":6923:6928   */\n      dup2\n        /* \"#utility.yul\":6899:6929   */\n      tag_330\n      jump\t// in\n    tag_455:\n        /* \"#utility.yul\":6802:6935   */\n      swap3\n      swap2\n      pop\n      pop\n      jump\t// out\n        /* \"#utility.yul\":6941:7409   */\n    tag_87:\n        /* \"#utility.yul\":7006:7012   */\n      0x00\n        /* \"#utility.yul\":7014:7020   */\n      dup1\n        /* \"#utility.yul\":7063:7065   */\n      0x40\n        /* \"#utility.yul\":7051:7060   */\n      dup4\n        /* \"#utility.yul\":7042:7049   */\n      dup6\n        /* \"#utility.yul\":7038:7061   */\n      sub\n        /* \"#utility.yul\":7034:7066   */\n      slt\n        /* \"#utility.yul\":7031:7150   */\n      iszero\n      tag_457\n      jumpi\n        /* \"#utility.yul\":7069:7148   */\n      tag_458\n      tag_307\n      jump\t// in\n    tag_458:\n        /* \"#utility.yul\":7031:7150   */\n    tag_457:\n        /* \"#utility.yul\":7189:7190   */\n      0x00\n        /* \"#utility.yul\":7214:7267   */\n      tag_459\n        /* \"#utility.yul\":7259:7266   */\n      dup6\n        /* \"#utility.yul\":7250:7256   */\n      dup3\n        /* \"#utility.yul\":7239:7248   */\n      dup7\n        /* \"#utility.yul\":7235:7257   */\n      add\n        /* \"#utility.yul\":7214:7267   */\n      tag_326\n      jump\t// in\n    tag_459:\n        /* \"#utility.yul\":7204:7267   */\n      swap3\n      pop\n        /* \"#utility.yul\":7160:7277   */\n      pop\n        /* \"#utility.yul\":7316:7318   */\n      0x20\n        /* \"#utility.yul\":7342:7392   */\n      tag_460\n        /* \"#utility.yul\":7384:7391   */\n      dup6\n        /* \"#utility.yul\":7375:7381   */\n      dup3\n        /* \"#utility.yul\":7364:7373   */\n      dup7\n        /* \"#utility.yul\":7360:7382   */\n      add\n        /* \"#utility.yul\":7342:7392   */\n      tag_331\n      jump\t// in\n    tag_460:\n        /* \"#utility.yul\":7332:7392   */\n      swap2\n      pop\n        /* \"#utility.yul\":7287:7402   */\n      pop\n        /* \"#utility.yul\":6941:7409   */\n      swap3\n      pop\n      swap3\n      swap1\n      pop\n      jump\t// out\n        /* \"#utility.yul\":7415:7532   */\n    tag_332:\n        /* \"#utility.yul\":7524:7525   */\n      0x00\n        /* \"#utility.yul\":7521:7522   */\n      dup1\n        /* \"#utility.yul\":7514:7526   */\n      revert\n        /* \"#utility.yul\":7538:7655   */\n    tag_333:\n        /* \"#utility.yul\":7647:7648   */\n      0x00\n        /* \"#utility.yul\":7644:7645   */\n      dup1\n        /* \"#utility.yul\":7637:7649   */\n      revert\n        /* \"#utility.yul\":7661:7841   */\n    tag_269:\n        /* \"#utility.yul\":7709:7786   */\n      0x4e487b7100000000000000000000000000000000000000000000000000000000\n        /* \"#utility.yul\":7706:7707   */\n      0x00\n        /* \"#utility.yul\":7699:7787   */\n      mstore\n        /* \"#utility.yul\":7806:7810   */\n      0x41\n        /* \"#utility.yul\":7803:7804   */\n      0x04\n        /* \"#utility.yul\":7796:7811   */\n      mstore\n        /* \"#utility.yul\":7830:7834   */\n      0x24\n        /* \"#utility.yul\":7827:7828   */\n      0x00\n        /* \"#utility.yul\":7820:7835   */\n      revert\n        /* \"#utility.yul\":7847:8128   */\n    tag_334:\n        /* \"#utility.yul\":7930:7957   */\n      tag_465\n        /* \"#utility.yul\":7952:7956   */\n      dup3\n        /* \"#utility.yul\":7930:7957   */\n      tag_317\n      jump\t// in\n    tag_465:\n        /* \"#utility.yul\":7922:7928   */\n      dup2\n        /* \"#utility.yul\":7918:7958   */\n      add\n        /* \"#utility.yul\":8060:8066   */\n      dup2\n        /* \"#utility.yul\":8048:8058   */\n      dup2\n        /* \"#utility.yul\":8045:8067   */\n      lt\n        /* \"#utility.yul\":8024:8042   */\n      0xffffffffffffffff\n        /* \"#utility.yul\":8012:8022   */\n      dup3\n        /* \"#utility.yul\":8009:8043   */\n      gt\n        /* \"#utility.yul\":8006:8068   */\n      or\n        /* \"#utility.yul\":8003:8091   */\n      iszero\n      tag_466\n      jumpi\n        /* \"#utility.yul\":8071:8089   */\n      tag_467\n      tag_269\n      jump\t// in\n    tag_467:\n        /* \"#utility.yul\":8003:8091   */\n    tag_466:\n        /* \"#utility.yul\":8111:8121   */\n      dup1\n        /* \"#utility.yul\":8107:8109   */\n      0x40\n        /* \"#utility.yul\":8100:8122   */\n      mstore\n        /* \"#utility.yul\":7890:8128   */\n      pop\n        /* \"#utility.yul\":7847:8128   */\n      pop\n      pop\n      jump\t// out\n        /* \"#utility.yul\":8134:8263   */\n    tag_335:\n        /* \"#utility.yul\":8168:8174   */\n      0x00\n        /* \"#utility.yul\":8195:8215   */\n      tag_469\n      tag_306\n      jump\t// in\n    tag_469:\n        /* \"#utility.yul\":8185:8215   */\n      swap1\n      pop\n        /* \"#utility.yul\":8224:8257   */\n      tag_470\n        /* \"#utility.yul\":8252:8256   */\n      dup3\n        /* \"#utility.yul\":8244:8250   */\n      dup3\n        /* \"#utility.yul\":8224:8257   */\n      tag_334\n      jump\t// in\n    tag_470:\n        /* \"#utility.yul\":8134:8263   */\n      swap2\n      swap1\n      pop\n      jump\t// out\n        /* \"#utility.yul\":8269:8576   */\n    tag_336:\n        /* \"#utility.yul\":8330:8334   */\n      0x00\n        /* \"#utility.yul\":8420:8438   */\n      0xffffffffffffffff\n        /* \"#utility.yul\":8412:8418   */\n      dup3\n        /* \"#utility.yul\":8409:8439   */\n      gt\n        /* \"#utility.yul\":8406:8462   */\n      iszero\n      tag_472\n      jumpi\n        /* \"#utility.yul\":8442:8460   */\n      tag_473\n      tag_269\n      jump\t// in\n    tag_473:\n        /* \"#utility.yul\":8406:8462   */\n    tag_472:\n        /* \"#utility.yul\":8480:8509   */\n      tag_474\n        /* \"#utility.yul\":8502:8508   */\n      dup3\n        /* \"#utility.yul\":8480:8509   */\n      tag_317\n      jump\t// in\n    tag_474:\n        /* \"#utility.yul\":8472:8509   */\n      swap1\n      pop\n        /* \"#utility.yul\":8564:8568   */\n      0x20\n        /* \"#utility.yul\":8558:8562   */\n      dup2\n        /* \"#utility.yul\":8554:8569   */\n      add\n        /* \"#utility.yul\":8546:8569   */\n      swap1\n      pop\n        /* \"#utility.yul\":8269:8576   */\n      swap2\n      swap1\n      pop\n      jump\t// out\n        /* \"#utility.yul\":8582:8736   */\n    tag_337:\n        /* \"#utility.yul\":8666:8672   */\n      dup3\n        /* \"#utility.yul\":8661:8664   */\n      dup2\n        /* \"#utility.yul\":8656:8659   */\n      dup4\n        /* \"#utility.yul\":8643:8673   */\n      calldatacopy\n        /* \"#utility.yul\":8728:8729   */\n      0x00\n        /* \"#utility.yul\":8719:8725   */\n      dup4\n        /* \"#utility.yul\":8714:8717   */\n      dup4\n        /* \"#utility.yul\":8710:8726   */\n      add\n        /* \"#utility.yul\":8703:8730   */\n      mstore\n        /* \"#utility.yul\":8582:8736   */\n      pop\n      pop\n      pop\n      jump\t// out\n        /* \"#utility.yul\":8742:9152   */\n    tag_338:\n        /* \"#utility.yul\":8819:8824   */\n      0x00\n        /* \"#utility.yul\":8844:8909   */\n      tag_477\n        /* \"#utility.yul\":8860:8908   */\n      tag_478\n        /* \"#utility.yul\":8901:8907   */\n      dup5\n        /* \"#utility.yul\":8860:8908   */\n      tag_336\n      jump\t// in\n    tag_478:\n        /* \"#utility.yul\":8844:8909   */\n      tag_335\n      jump\t// in\n    tag_477:\n        /* \"#utility.yul\":8835:8909   */\n      swap1\n      pop\n        /* \"#utility.yul\":8932:8938   */\n      dup3\n        /* \"#utility.yul\":8925:8930   */\n      dup2\n        /* \"#utility.yul\":8918:8939   */\n      mstore\n        /* \"#utility.yul\":8970:8974   */\n      0x20\n        /* \"#utility.yul\":8963:8968   */\n      dup2\n        /* \"#utility.yul\":8959:8975   */\n      add\n        /* \"#utility.yul\":9008:9011   */\n      dup5\n        /* \"#utility.yul\":8999:9005   */\n      dup5\n        /* \"#utility.yul\":8994:8997   */\n      dup5\n        /* \"#utility.yul\":8990:9006   */\n      add\n        /* \"#utility.yul\":8987:9012   */\n      gt\n        /* \"#utility.yul\":8984:9096   */\n      iszero\n      tag_479\n      jumpi\n        /* \"#utility.yul\":9015:9094   */\n      tag_480\n      tag_333\n      jump\t// in\n    tag_480:\n        /* \"#utility.yul\":8984:9096   */\n    tag_479:\n        /* \"#utility.yul\":9105:9146   */\n      tag_481\n        /* \"#utility.yul\":9139:9145   */\n      dup5\n        /* \"#utility.yul\":9134:9137   */\n      dup3\n        /* \"#utility.yul\":9129:9132   */\n      dup6\n        /* \"#utility.yul\":9105:9146   */\n      tag_337\n      jump\t// in\n    tag_481:\n        /* \"#utility.yul\":8825:9152   */\n      pop\n        /* \"#utility.yul\":8742:9152   */\n      swap4\n      swap3\n      pop\n      pop\n      pop\n      jump\t// out\n        /* \"#utility.yul\":9171:9509   */\n    tag_339:\n        /* \"#utility.yul\":9226:9231   */\n      0x00\n        /* \"#utility.yul\":9275:9278   */\n      dup3\n        /* \"#utility.yul\":9268:9272   */\n      0x1f\n        /* \"#utility.yul\":9260:9266   */\n      dup4\n        /* \"#utility.yul\":9256:9273   */\n      add\n        /* \"#utility.yul\":9252:9279   */\n      slt\n        /* \"#utility.yul\":9242:9364   */\n      tag_483\n      jumpi\n        /* \"#utility.yul\":9283:9362   */\n      tag_484\n      tag_332\n      jump\t// in\n    tag_484:\n        /* \"#utility.yul\":9242:9364   */\n    tag_483:\n        /* \"#utility.yul\":9400:9406   */\n      dup2\n        /* \"#utility.yul\":9387:9407   */\n      calldataload\n        /* \"#utility.yul\":9425:9503   */\n      tag_485\n        /* \"#utility.yul\":9499:9502   */\n      dup5\n        /* \"#utility.yul\":9491:9497   */\n      dup3\n        /* \"#utility.yul\":9484:9488   */\n      0x20\n        /* \"#utility.yul\":9476:9482   */\n      dup7\n        /* \"#utility.yul\":9472:9489   */\n      add\n        /* \"#utility.yul\":9425:9503   */\n      tag_338\n      jump\t// in\n    tag_485:\n        /* \"#utility.yul\":9416:9503   */\n      swap2\n      pop\n        /* \"#utility.yul\":9232:9509   */\n      pop\n        /* \"#utility.yul\":9171:9509   */\n      swap3\n      swap2\n      pop\n      pop\n      jump\t// out\n        /* \"#utility.yul\":9515:10458   */\n    tag_92:\n        /* \"#utility.yul\":9610:9616   */\n      0x00\n        /* \"#utility.yul\":9618:9624   */\n      dup1\n        /* \"#utility.yul\":9626:9632   */\n      0x00\n        /* \"#utility.yul\":9634:9640   */\n      dup1\n        /* \"#utility.yul\":9683:9686   */\n      0x80\n        /* \"#utility.yul\":9671:9680   */\n      dup6\n        /* \"#utility.yul\":9662:9669   */\n      dup8\n        /* \"#utility.yul\":9658:9681   */\n      sub\n        /* \"#utility.yul\":9654:9687   */\n      slt\n        /* \"#utility.yul\":9651:9771   */\n      iszero\n      tag_487\n      jumpi\n        /* \"#utility.yul\":9690:9769   */\n      tag_488\n      tag_307\n      jump\t// in\n    tag_488:\n        /* \"#utility.yul\":9651:9771   */\n    tag_487:\n        /* \"#utility.yul\":9810:9811   */\n      0x00\n        /* \"#utility.yul\":9835:9888   */\n      tag_489\n        /* \"#utility.yul\":9880:9887   */\n      dup8\n        /* \"#utility.yul\":9871:9877   */\n      dup3\n        /* \"#utility.yul\":9860:9869   */\n      dup9\n        /* \"#utility.yul\":9856:9878   */\n      add\n        /* \"#utility.yul\":9835:9888   */\n      tag_326\n      jump\t// in\n    tag_489:\n        /* \"#utility.yul\":9825:9888   */\n      swap5\n      pop\n        /* \"#utility.yul\":9781:9898   */\n      pop\n        /* \"#utility.yul\":9937:9939   */\n      0x20\n        /* \"#utility.yul\":9963:10016   */\n      tag_490\n        /* \"#utility.yul\":10008:10015   */\n      dup8\n        /* \"#utility.yul\":9999:10005   */\n      dup3\n        /* \"#utility.yul\":9988:9997   */\n      dup9\n        /* \"#utility.yul\":9984:10006   */\n      add\n        /* \"#utility.yul\":9963:10016   */\n      tag_326\n      jump\t// in\n    tag_490:\n        /* \"#utility.yul\":9953:10016   */\n      swap4\n      pop\n        /* \"#utility.yul\":9908:10026   */\n      pop\n        /* \"#utility.yul\":10065:10067   */\n      0x40\n        /* \"#utility.yul\":10091:10144   */\n      tag_491\n        /* \"#utility.yul\":10136:10143   */\n      dup8\n        /* \"#utility.yul\":10127:10133   */\n      dup3\n        /* \"#utility.yul\":10116:10125   */\n      dup9\n        /* \"#utility.yul\":10112:10134   */\n      add\n        /* \"#utility.yul\":10091:10144   */\n      tag_321\n      jump\t// in\n    tag_491:\n        /* \"#utility.yul\":10081:10144   */\n      swap3\n      pop\n        /* \"#utility.yul\":10036:10154   */\n      pop\n        /* \"#utility.yul\":10221:10223   */\n      0x60\n        /* \"#utility.yul\":10210:10219   */\n      dup6\n        /* \"#utility.yul\":10206:10224   */\n      add\n        /* \"#utility.yul\":10193:10225   */\n      calldataload\n        /* \"#utility.yul\":10252:10270   */\n      0xffffffffffffffff\n        /* \"#utility.yul\":10244:10250   */\n      dup2\n        /* \"#utility.yul\":10241:10271   */\n      gt\n        /* \"#utility.yul\":10238:10355   */\n      iszero\n      tag_492\n      jumpi\n        /* \"#utility.yul\":10274:10353   */\n      tag_493\n      tag_308\n      jump\t// in\n    tag_493:\n        /* \"#utility.yul\":10238:10355   */\n    tag_492:\n        /* \"#utility.yul\":10379:10441   */\n      tag_494\n        /* \"#utility.yul\":10433:10440   */\n      dup8\n        /* \"#utility.yul\":10424:10430   */\n      dup3\n        /* \"#utility.yul\":10413:10422   */\n      dup9\n        /* \"#utility.yul\":10409:10431   */\n      add\n        /* \"#utility.yul\":10379:10441   */\n      tag_339\n      jump\t// in\n    tag_494:\n        /* \"#utility.yul\":10369:10441   */\n      swap2\n      pop\n        /* \"#utility.yul\":10164:10451   */\n      pop\n        /* \"#utility.yul\":9515:10458   */\n      swap3\n      swap6\n      swap2\n      swap5\n      pop\n      swap3\n      pop\n      jump\t// out\n        /* \"#utility.yul\":10464:10938   */\n    tag_110:\n        /* \"#utility.yul\":10532:10538   */\n      0x00\n        /* \"#utility.yul\":10540:10546   */\n      dup1\n        /* \"#utility.yul\":10589:10591   */\n      0x40\n        /* \"#utility.yul\":10577:10586   */\n      dup4\n        /* \"#utility.yul\":10568:10575   */\n      dup6\n        /* \"#utility.yul\":10564:10587   */\n      sub\n        /* \"#utility.yul\":10560:10592   */\n      slt\n        /* \"#utility.yul\":10557:10676   */\n      iszero\n      tag_496\n      jumpi\n        /* \"#utility.yul\":10595:10674   */\n      tag_497\n      tag_307\n      jump\t// in\n    tag_497:\n        /* \"#utility.yul\":10557:10676   */\n    tag_496:\n        /* \"#utility.yul\":10715:10716   */\n      0x00\n        /* \"#utility.yul\":10740:10793   */\n      tag_498\n        /* \"#utility.yul\":10785:10792   */\n      dup6\n        /* \"#utility.yul\":10776:10782   */\n      dup3\n        /* \"#utility.yul\":10765:10774   */\n      dup7\n        /* \"#utility.yul\":10761:10783   */\n      add\n        /* \"#utility.yul\":10740:10793   */\n      tag_326\n      jump\t// in\n    tag_498:\n        /* \"#utility.yul\":10730:10793   */\n      swap3\n      pop\n        /* \"#utility.yul\":10686:10803   */\n      pop\n        /* \"#utility.yul\":10842:10844   */\n      0x20\n        /* \"#utility.yul\":10868:10921   */\n      tag_499\n        /* \"#utility.yul\":10913:10920   */\n      dup6\n        /* \"#utility.yul\":10904:10910   */\n      dup3\n        /* \"#utility.yul\":10893:10902   */\n      dup7\n        /* \"#utility.yul\":10889:10911   */\n      add\n        /* \"#utility.yul\":10868:10921   */\n      tag_326\n      jump\t// in\n    tag_499:\n        /* \"#utility.yul\":10858:10921   */\n      swap2\n      pop\n        /* \"#utility.yul\":10813:10931   */\n      pop\n        /* \"#utility.yul\":10464:10938   */\n      swap3\n      pop\n      swap3\n      swap1\n      pop\n      jump\t// out\n        /* \"#utility.yul\":10944:11124   */\n    tag_340:\n        /* \"#utility.yul\":10992:11069   */\n      0x4e487b7100000000000000000000000000000000000000000000000000000000\n        /* \"#utility.yul\":10989:10990   */\n      0x00\n        /* \"#utility.yul\":10982:11070   */\n      mstore\n        /* \"#utility.yul\":11089:11093   */\n      0x22\n        /* \"#utility.yul\":11086:11087   */\n      0x04\n        /* \"#utility.yul\":11079:11094   */\n      mstore\n        /* \"#utility.yul\":11113:11117   */\n      0x24\n        /* \"#utility.yul\":11110:11111   */\n      0x00\n        /* \"#utility.yul\":11103:11118   */\n      revert\n        /* \"#utility.yul\":11130:11450   */\n    tag_120:\n        /* \"#utility.yul\":11174:11180   */\n      0x00\n        /* \"#utility.yul\":11211:11212   */\n      0x02\n        /* \"#utility.yul\":11205:11209   */\n      dup3\n        /* \"#utility.yul\":11201:11213   */\n      div\n        /* \"#utility.yul\":11191:11213   */\n      swap1\n      pop\n        /* \"#utility.yul\":11258:11259   */\n      0x01\n        /* \"#utility.yul\":11252:11256   */\n      dup3\n        /* \"#utility.yul\":11248:11260   */\n      and\n        /* \"#utility.yul\":11279:11297   */\n      dup1\n        /* \"#utility.yul\":11269:11350   */\n      tag_502\n      jumpi\n        /* \"#utility.yul\":11335:11339   */\n      0x7f\n        /* \"#utility.yul\":11327:11333   */\n      dup3\n        /* \"#utility.yul\":11323:11340   */\n      and\n        /* \"#utility.yul\":11313:11340   */\n      swap2\n      pop\n        /* \"#utility.yul\":11269:11350   */\n    tag_502:\n        /* \"#utility.yul\":11397:11399   */\n      0x20\n        /* \"#utility.yul\":11389:11395   */\n      dup3\n        /* \"#utility.yul\":11386:11400   */\n      lt\n        /* \"#utility.yul\":11366:11384   */\n      dup2\n        /* \"#utility.yul\":11363:11401   */\n      sub\n        /* \"#utility.yul\":11360:11444   */\n      tag_503\n      jumpi\n        /* \"#utility.yul\":11416:11434   */\n      tag_504\n      tag_340\n      jump\t// in\n    tag_504:\n        /* \"#utility.yul\":11360:11444   */\n    tag_503:\n        /* \"#utility.yul\":11181:11450   */\n      pop\n        /* \"#utility.yul\":11130:11450   */\n      swap2\n      swap1\n      pop\n      jump\t// out\n        /* \"#utility.yul\":11456:11676   */\n    tag_341:\n        /* \"#utility.yul\":11596:11630   */\n      0x4552433732313a20617070726f76616c20746f2063757272656e74206f776e65\n        /* \"#utility.yul\":11592:11593   */\n      0x00\n        /* \"#utility.yul\":11584:11590   */\n      dup3\n        /* \"#utility.yul\":11580:11594   */\n      add\n        /* \"#utility.yul\":11573:11631   */\n      mstore\n        /* \"#utility.yul\":11665:11668   */\n      0x7200000000000000000000000000000000000000000000000000000000000000\n        /* \"#utility.yul\":11660:11662   */\n      0x20\n        /* \"#utility.yul\":11652:11658   */\n      dup3\n        /* \"#utility.yul\":11648:11663   */\n      add\n        /* \"#utility.yul\":11641:11669   */\n      mstore\n        /* \"#utility.yul\":11456:11676   */\n      pop\n      jump\t// out\n        /* \"#utility.yul\":11682:12048   */\n    tag_342:\n        /* \"#utility.yul\":11824:11827   */\n      0x00\n        /* \"#utility.yul\":11845:11912   */\n      tag_507\n        /* \"#utility.yul\":11909:11911   */\n      0x21\n        /* \"#utility.yul\":11904:11907   */\n      dup4\n        /* \"#utility.yul\":11845:11912   */\n      tag_315\n      jump\t// in\n    tag_507:\n        /* \"#utility.yul\":11838:11912   */\n      swap2\n      pop\n        /* \"#utility.yul\":11921:12014   */\n      tag_508\n        /* \"#utility.yul\":12010:12013   */\n      dup3\n        /* \"#utility.yul\":11921:12014   */\n      tag_341\n      jump\t// in\n    tag_508:\n        /* \"#utility.yul\":12039:12041   */\n      0x40\n        /* \"#utility.yul\":12034:12037   */\n      dup3\n        /* \"#utility.yul\":12030:12042   */\n      add\n        /* \"#utility.yul\":12023:12042   */\n      swap1\n      pop\n        /* \"#utility.yul\":11682:12048   */\n      swap2\n      swap1\n      pop\n      jump\t// out\n        /* \"#utility.yul\":12054:12473   */\n    tag_132:\n        /* \"#utility.yul\":12220:12224   */\n      0x00\n        /* \"#utility.yul\":12258:12260   */\n      0x20\n        /* \"#utility.yul\":12247:12256   */\n      dup3\n        /* \"#utility.yul\":12243:12261   */\n      add\n        /* \"#utility.yul\":12235:12261   */\n      swap1\n      pop\n        /* \"#utility.yul\":12307:12316   */\n      dup2\n        /* \"#utility.yul\":12301:12305   */\n      dup2\n        /* \"#utility.yul\":12297:12317   */\n      sub\n        /* \"#utility.yul\":12293:12294   */\n      0x00\n        /* \"#utility.yul\":12282:12291   */\n      dup4\n        /* \"#utility.yul\":12278:12295   */\n      add\n        /* \"#utility.yul\":12271:12318   */\n      mstore\n        /* \"#utility.yul\":12335:12466   */\n      tag_510\n        /* \"#utility.yul\":12461:12465   */\n      dup2\n        /* \"#utility.yul\":12335:12466   */\n      tag_342\n      jump\t// in\n    tag_510:\n        /* \"#utility.yul\":12327:12466   */\n      swap1\n      pop\n        /* \"#utility.yul\":12054:12473   */\n      swap2\n      swap1\n      pop\n      jump\t// out\n        /* \"#utility.yul\":12479:12728   */\n    tag_343:\n        /* \"#utility.yul\":12619:12653   */\n      0x4552433732313a20617070726f76652063616c6c6572206973206e6f7420746f\n        /* \"#utility.yul\":12615:12616   */\n      0x00\n        /* \"#utility.yul\":12607:12613   */\n      dup3\n        /* \"#utility.yul\":12603:12617   */\n      add\n        /* \"#utility.yul\":12596:12654   */\n      mstore\n        /* \"#utility.yul\":12688:12720   */\n      0x6b656e206f776e6572206e6f7220617070726f76656420666f7220616c6c0000\n        /* \"#utility.yul\":12683:12685   */\n      0x20\n        /* \"#utility.yul\":12675:12681   */\n      dup3\n        /* \"#utility.yul\":12671:12686   */\n      add\n        /* \"#utility.yul\":12664:12721   */\n      mstore\n        /* \"#utility.yul\":12479:12728   */\n      pop\n      jump\t// out\n        /* \"#utility.yul\":12734:13100   */\n    tag_344:\n        /* \"#utility.yul\":12876:12879   */\n      0x00\n        /* \"#utility.yul\":12897:12964   */\n      tag_513\n        /* \"#utility.yul\":12961:12963   */\n      0x3e\n        /* \"#utility.yul\":12956:12959   */\n      dup4\n        /* \"#utility.yul\":12897:12964   */\n      tag_315\n      jump\t// in\n    tag_513:\n        /* \"#utility.yul\":12890:12964   */\n      swap2\n      pop\n        /* \"#utility.yul\":12973:13066   */\n      tag_514\n        /* \"#utility.yul\":13062:13065   */\n      dup3\n        /* \"#utility.yul\":12973:13066   */\n      tag_343\n      jump\t// in\n    tag_514:\n        /* \"#utility.yul\":13091:13093   */\n      0x40\n        /* \"#utility.yul\":13086:13089   */\n      dup3\n        /* \"#utility.yul\":13082:13094   */\n      add\n        /* \"#utility.yul\":13075:13094   */\n      swap1\n      pop\n        /* \"#utility.yul\":12734:13100   */\n      swap2\n      swap1\n      pop\n      jump\t// out\n        /* \"#utility.yul\":13106:13525   */\n    tag_140:\n        /* \"#utility.yul\":13272:13276   */\n      0x00\n        /* \"#utility.yul\":13310:13312   */\n      0x20\n        /* \"#utility.yul\":13299:13308   */\n      dup3\n        /* \"#utility.yul\":13295:13313   */\n      add\n        /* \"#utility.yul\":13287:13313   */\n      swap1\n      pop\n        /* \"#utility.yul\":13359:13368   */\n      dup2\n        /* \"#utility.yul\":13353:13357   */\n      dup2\n        /* \"#utility.yul\":13349:13369   */\n      sub\n        /* \"#utility.yul\":13345:13346   */\n      0x00\n        /* \"#utility.yul\":13334:13343   */\n      dup4\n        /* \"#utility.yul\":13330:13347   */\n      add\n        /* \"#utility.yul\":13323:13370   */\n      mstore\n        /* \"#utility.yul\":13387:13518   */\n      tag_516\n        /* \"#utility.yul\":13513:13517   */\n      dup2\n        /* \"#utility.yul\":13387:13518   */\n      tag_344\n      jump\t// in\n    tag_516:\n        /* \"#utility.yul\":13379:13518   */\n      swap1\n      pop\n        /* \"#utility.yul\":13106:13525   */\n      swap2\n      swap1\n      pop\n      jump\t// out\n        /* \"#utility.yul\":13531:13764   */\n    tag_345:\n        /* \"#utility.yul\":13671:13705   */\n      0x4552433732313a2063616c6c6572206973206e6f7420746f6b656e206f776e65\n        /* \"#utility.yul\":13667:13668   */\n      0x00\n        /* \"#utility.yul\":13659:13665   */\n      dup3\n        /* \"#utility.yul\":13655:13669   */\n      add\n        /* \"#utility.yul\":13648:13706   */\n      mstore\n        /* \"#utility.yul\":13740:13756   */\n      0x72206e6f7220617070726f766564000000000000000000000000000000000000\n        /* \"#utility.yul\":13735:13737   */\n      0x20\n        /* \"#utility.yul\":13727:13733   */\n      dup3\n        /* \"#utility.yul\":13723:13738   */\n      add\n        /* \"#utility.yul\":13716:13757   */\n      mstore\n        /* \"#utility.yul\":13531:13764   */\n      pop\n      jump\t// out\n        /* \"#utility.yul\":13770:14136   */\n    tag_346:\n        /* \"#utility.yul\":13912:13915   */\n      0x00\n        /* \"#utility.yul\":13933:14000   */\n      tag_519\n        /* \"#utility.yul\":13997:13999   */\n      0x2e\n        /* \"#utility.yul\":13992:13995   */\n      dup4\n        /* \"#utility.yul\":13933:14000   */\n      tag_315\n      jump\t// in\n    tag_519:\n        /* \"#utility.yul\":13926:14000   */\n      swap2\n      pop\n        /* \"#utility.yul\":14009:14102   */\n      tag_520\n        /* \"#utility.yul\":14098:14101   */\n      dup3\n        /* \"#utility.yul\":14009:14102   */\n      tag_345\n      jump\t// in\n    tag_520:\n        /* \"#utility.yul\":14127:14129   */\n      0x40\n        /* \"#utility.yul\":14122:14125   */\n      dup3\n        /* \"#utility.yul\":14118:14130   */\n      add\n        /* \"#utility.yul\":14111:14130   */\n      swap1\n      pop\n        /* \"#utility.yul\":13770:14136   */\n      swap2\n      swap1\n      pop\n      jump\t// out\n        /* \"#utility.yul\":14142:14561   */\n    tag_149:\n        /* \"#utility.yul\":14308:14312   */\n      0x00\n        /* \"#utility.yul\":14346:14348   */\n      0x20\n        /* \"#utility.yul\":14335:14344   */\n      dup3\n        /* \"#utility.yul\":14331:14349   */\n      add\n        /* \"#utility.yul\":14323:14349   */\n      swap1\n      pop\n        /* \"#utility.yul\":14395:14404   */\n      dup2\n        /* \"#utility.yul\":14389:14393   */\n      dup2\n        /* \"#utility.yul\":14385:14405   */\n      sub\n        /* \"#utility.yul\":14381:14382   */\n      0x00\n        /* \"#utility.yul\":14370:14379   */\n      dup4\n        /* \"#utility.yul\":14366:14383   */\n      add\n        /* \"#utility.yul\":14359:14406   */\n      mstore\n        /* \"#utility.yul\":14423:14554   */\n      tag_522\n        /* \"#utility.yul\":14549:14553   */\n      dup2\n        /* \"#utility.yul\":14423:14554   */\n      tag_346\n      jump\t// in\n    tag_522:\n        /* \"#utility.yul\":14415:14554   */\n      swap1\n      pop\n        /* \"#utility.yul\":14142:14561   */\n      swap2\n      swap1\n      pop\n      jump\t// out\n        /* \"#utility.yul\":14567:14747   */\n    tag_347:\n        /* \"#utility.yul\":14615:14692   */\n      0x4e487b7100000000000000000000000000000000000000000000000000000000\n        /* \"#utility.yul\":14612:14613   */\n      0x00\n        /* \"#utility.yul\":14605:14693   */\n      mstore\n        /* \"#utility.yul\":14712:14716   */\n      0x11\n        /* \"#utility.yul\":14709:14710   */\n      0x04\n        /* \"#utility.yul\":14702:14717   */\n      mstore\n        /* \"#utility.yul\":14736:14740   */\n      0x24\n        /* \"#utility.yul\":14733:14734   */\n      0x00\n        /* \"#utility.yul\":14726:14741   */\n      revert\n        /* \"#utility.yul\":14753:14990   */\n    tag_163:\n        /* \"#utility.yul\":14791:14794   */\n      0x00\n        /* \"#utility.yul\":14810:14828   */\n      tag_525\n        /* \"#utility.yul\":14826:14827   */\n      dup3\n        /* \"#utility.yul\":14810:14828   */\n      tag_327\n      jump\t// in\n    tag_525:\n        /* \"#utility.yul\":14805:14828   */\n      swap2\n      pop\n        /* \"#utility.yul\":14842:14860   */\n      tag_526\n        /* \"#utility.yul\":14858:14859   */\n      dup4\n        /* \"#utility.yul\":14842:14860   */\n      tag_327\n      jump\t// in\n    tag_526:\n        /* \"#utility.yul\":14837:14860   */\n      swap3\n      pop\n        /* \"#utility.yul\":14932:14933   */\n      dup3\n        /* \"#utility.yul\":14926:14930   */\n      0xff\n        /* \"#utility.yul\":14922:14934   */\n      sub\n        /* \"#utility.yul\":14919:14920   */\n      dup3\n        /* \"#utility.yul\":14916:14935   */\n      gt\n        /* \"#utility.yul\":14913:14958   */\n      iszero\n      tag_527\n      jumpi\n        /* \"#utility.yul\":14938:14956   */\n      tag_528\n      tag_347\n      jump\t// in\n    tag_528:\n        /* \"#utility.yul\":14913:14958   */\n    tag_527:\n        /* \"#utility.yul\":14982:14983   */\n      dup3\n        /* \"#utility.yul\":14979:14980   */\n      dup3\n        /* \"#utility.yul\":14975:14984   */\n      add\n        /* \"#utility.yul\":14968:14984   */\n      swap1\n      pop\n        /* \"#utility.yul\":14753:14990   */\n      swap3\n      swap2\n      pop\n      pop\n      jump\t// out\n        /* \"#utility.yul\":14996:15170   */\n    tag_348:\n        /* \"#utility.yul\":15136:15162   */\n      0x4552433732313a20696e76616c696420746f6b656e2049440000000000000000\n        /* \"#utility.yul\":15132:15133   */\n      0x00\n        /* \"#utility.yul\":15124:15130   */\n      dup3\n        /* \"#utility.yul\":15120:15134   */\n      add\n        /* \"#utility.yul\":15113:15163   */\n      mstore\n        /* \"#utility.yul\":14996:15170   */\n      pop\n      jump\t// out\n        /* \"#utility.yul\":15176:15542   */\n    tag_349:\n        /* \"#utility.yul\":15318:15321   */\n      0x00\n        /* \"#utility.yul\":15339:15406   */\n      tag_531\n        /* \"#utility.yul\":15403:15405   */\n      0x18\n        /* \"#utility.yul\":15398:15401   */\n      dup4\n        /* \"#utility.yul\":15339:15406   */\n      tag_315\n      jump\t// in\n    tag_531:\n        /* \"#utility.yul\":15332:15406   */\n      swap2\n      pop\n        /* \"#utility.yul\":15415:15508   */\n      tag_532\n        /* \"#utility.yul\":15504:15507   */\n      dup3\n        /* \"#utility.yul\":15415:15508   */\n      tag_348\n      jump\t// in\n    tag_532:\n        /* \"#utility.yul\":15533:15535   */\n      0x20\n        /* \"#utility.yul\":15528:15531   */\n      dup3\n        /* \"#utility.yul\":15524:15536   */\n      add\n        /* \"#utility.yul\":15517:15536   */\n      swap1\n      pop\n        /* \"#utility.yul\":15176:15542   */\n      swap2\n      swap1\n      pop\n      jump\t// out\n        /* \"#utility.yul\":15548:15967   */\n    tag_167:\n        /* \"#utility.yul\":15714:15718   */\n      0x00\n        /* \"#utility.yul\":15752:15754   */\n      0x20\n        /* \"#utility.yul\":15741:15750   */\n      dup3\n        /* \"#utility.yul\":15737:15755   */\n      add\n        /* \"#utility.yul\":15729:15755   */\n      swap1\n      pop\n        /* \"#utility.yul\":15801:15810   */\n      dup2\n        /* \"#utility.yul\":15795:15799   */\n      dup2\n        /* \"#utility.yul\":15791:15811   */\n      sub\n        /* \"#utility.yul\":15787:15788   */\n      0x00\n        /* \"#utility.yul\":15776:15785   */\n      dup4\n        /* \"#utility.yul\":15772:15789   */\n      add\n        /* \"#utility.yul\":15765:15812   */\n      mstore\n        /* \"#utility.yul\":15829:15960   */\n      tag_534\n        /* \"#utility.yul\":15955:15959   */\n      dup2\n        /* \"#utility.yul\":15829:15960   */\n      tag_349\n      jump\t// in\n    tag_534:\n        /* \"#utility.yul\":15821:15960   */\n      swap1\n      pop\n        /* \"#utility.yul\":15548:15967   */\n      swap2\n      swap1\n      pop\n      jump\t// out\n        /* \"#utility.yul\":15973:16201   */\n    tag_350:\n        /* \"#utility.yul\":16113:16147   */\n      0x4552433732313a2061646472657373207a65726f206973206e6f742061207661\n        /* \"#utility.yul\":16109:16110   */\n      0x00\n        /* \"#utility.yul\":16101:16107   */\n      dup3\n        /* \"#utility.yul\":16097:16111   */\n      add\n        /* \"#utility.yul\":16090:16148   */\n      mstore\n        /* \"#utility.yul\":16182:16193   */\n      0x6c6964206f776e65720000000000000000000000000000000000000000000000\n        /* \"#utility.yul\":16177:16179   */\n      0x20\n        /* \"#utility.yul\":16169:16175   */\n      dup3\n        /* \"#utility.yul\":16165:16180   */\n      add\n        /* \"#utility.yul\":16158:16194   */\n      mstore\n        /* \"#utility.yul\":15973:16201   */\n      pop\n      jump\t// out\n        /* \"#utility.yul\":16207:16573   */\n    tag_351:\n        /* \"#utility.yul\":16349:16352   */\n      0x00\n        /* \"#utility.yul\":16370:16437   */\n      tag_537\n        /* \"#utility.yul\":16434:16436   */\n      0x29\n        /* \"#utility.yul\":16429:16432   */\n      dup4\n        /* \"#utility.yul\":16370:16437   */\n      tag_315\n      jump\t// in\n    tag_537:\n        /* \"#utility.yul\":16363:16437   */\n      swap2\n      pop\n        /* \"#utility.yul\":16446:16539   */\n      tag_538\n        /* \"#utility.yul\":16535:16538   */\n      dup3\n        /* \"#utility.yul\":16446:16539   */\n      tag_350\n      jump\t// in\n    tag_538:\n        /* \"#utility.yul\":16564:16566   */\n      0x40\n        /* \"#utility.yul\":16559:16562   */\n      dup3\n        /* \"#utility.yul\":16555:16567   */\n      add\n        /* \"#utility.yul\":16548:16567   */\n      swap1\n      pop\n        /* \"#utility.yul\":16207:16573   */\n      swap2\n      swap1\n      pop\n      jump\t// out\n        /* \"#utility.yul\":16579:16998   */\n    tag_171:\n        /* \"#utility.yul\":16745:16749   */\n      0x00\n        /* \"#utility.yul\":16783:16785   */\n      0x20\n        /* \"#utility.yul\":16772:16781   */\n      dup3\n        /* \"#utility.yul\":16768:16786   */\n      add\n        /* \"#utility.yul\":16760:16786   */\n      swap1\n      pop\n        /* \"#utility.yul\":16832:16841   */\n      dup2\n        /* \"#utility.yul\":16826:16830   */\n      dup2\n        /* \"#utility.yul\":16822:16842   */\n      sub\n        /* \"#utility.yul\":16818:16819   */\n      0x00\n        /* \"#utility.yul\":16807:16816   */\n      dup4\n        /* \"#utility.yul\":16803:16820   */\n      add\n        /* \"#utility.yul\":16796:16843   */\n      mstore\n        /* \"#utility.yul\":16860:16991   */\n      tag_540\n        /* \"#utility.yul\":16986:16990   */\n      dup2\n        /* \"#utility.yul\":16860:16991   */\n      tag_351\n      jump\t// in\n    tag_540:\n        /* \"#utility.yul\":16852:16991   */\n      swap1\n      pop\n        /* \"#utility.yul\":16579:16998   */\n      swap2\n      swap1\n      pop\n      jump\t// out\n        /* \"#utility.yul\":17004:17189   */\n    tag_191:\n        /* \"#utility.yul\":17042:17046   */\n      0x00\n        /* \"#utility.yul\":17062:17080   */\n      tag_542\n        /* \"#utility.yul\":17078:17079   */\n      dup3\n        /* \"#utility.yul\":17062:17080   */\n      tag_327\n      jump\t// in\n    tag_542:\n        /* \"#utility.yul\":17057:17080   */\n      swap2\n      pop\n        /* \"#utility.yul\":17094:17112   */\n      tag_543\n        /* \"#utility.yul\":17110:17111   */\n      dup4\n        /* \"#utility.yul\":17094:17112   */\n      tag_327\n      jump\t// in\n    tag_543:\n        /* \"#utility.yul\":17089:17112   */\n      swap3\n      pop\n        /* \"#utility.yul\":17131:17132   */\n      dup3\n        /* \"#utility.yul\":17128:17129   */\n      dup3\n        /* \"#utility.yul\":17125:17133   */\n      lt\n        /* \"#utility.yul\":17122:17156   */\n      iszero\n      tag_544\n      jumpi\n        /* \"#utility.yul\":17136:17154   */\n      tag_545\n      tag_347\n      jump\t// in\n    tag_545:\n        /* \"#utility.yul\":17122:17156   */\n    tag_544:\n        /* \"#utility.yul\":17181:17182   */\n      dup3\n        /* \"#utility.yul\":17178:17179   */\n      dup3\n        /* \"#utility.yul\":17174:17183   */\n      sub\n        /* \"#utility.yul\":17166:17183   */\n      swap1\n      pop\n        /* \"#utility.yul\":17004:17189   */\n      swap3\n      swap2\n      pop\n      pop\n      jump\t// out\n        /* \"#utility.yul\":17195:17343   */\n    tag_352:\n        /* \"#utility.yul\":17297:17308   */\n      0x00\n        /* \"#utility.yul\":17334:17337   */\n      dup2\n        /* \"#utility.yul\":17319:17337   */\n      swap1\n      pop\n        /* \"#utility.yul\":17195:17343   */\n      swap3\n      swap2\n      pop\n      pop\n      jump\t// out\n        /* \"#utility.yul\":17349:17726   */\n    tag_353:\n        /* \"#utility.yul\":17455:17458   */\n      0x00\n        /* \"#utility.yul\":17483:17522   */\n      tag_548\n        /* \"#utility.yul\":17516:17521   */\n      dup3\n        /* \"#utility.yul\":17483:17522   */\n      tag_314\n      jump\t// in\n    tag_548:\n        /* \"#utility.yul\":17538:17627   */\n      tag_549\n        /* \"#utility.yul\":17620:17626   */\n      dup2\n        /* \"#utility.yul\":17615:17618   */\n      dup6\n        /* \"#utility.yul\":17538:17627   */\n      tag_352\n      jump\t// in\n    tag_549:\n        /* \"#utility.yul\":17531:17627   */\n      swap4\n      pop\n        /* \"#utility.yul\":17636:17688   */\n      tag_550\n        /* \"#utility.yul\":17681:17687   */\n      dup2\n        /* \"#utility.yul\":17676:17679   */\n      dup6\n        /* \"#utility.yul\":17669:17673   */\n      0x20\n        /* \"#utility.yul\":17662:17667   */\n      dup7\n        /* \"#utility.yul\":17658:17674   */\n      add\n        /* \"#utility.yul\":17636:17688   */\n      tag_316\n      jump\t// in\n    tag_550:\n        /* \"#utility.yul\":17713:17719   */\n      dup1\n        /* \"#utility.yul\":17708:17711   */\n      dup5\n        /* \"#utility.yul\":17704:17720   */\n      add\n        /* \"#utility.yul\":17697:17720   */\n      swap2\n      pop\n        /* \"#utility.yul\":17459:17726   */\n      pop\n        /* \"#utility.yul\":17349:17726   */\n      swap3\n      swap2\n      pop\n      pop\n      jump\t// out\n        /* \"#utility.yul\":17732:18167   */\n    tag_201:\n        /* \"#utility.yul\":17912:17915   */\n      0x00\n        /* \"#utility.yul\":17934:18029   */\n      tag_552\n        /* \"#utility.yul\":18025:18028   */\n      dup3\n        /* \"#utility.yul\":18016:18022   */\n      dup6\n        /* \"#utility.yul\":17934:18029   */\n      tag_353\n      jump\t// in\n    tag_552:\n        /* \"#utility.yul\":17927:18029   */\n      swap2\n      pop\n        /* \"#utility.yul\":18046:18141   */\n      tag_553\n        /* \"#utility.yul\":18137:18140   */\n      dup3\n        /* \"#utility.yul\":18128:18134   */\n      dup5\n        /* \"#utility.yul\":18046:18141   */\n      tag_353\n      jump\t// in\n    tag_553:\n        /* \"#utility.yul\":18039:18141   */\n      swap2\n      pop\n        /* \"#utility.yul\":18158:18161   */\n      dup2\n        /* \"#utility.yul\":18151:18161   */\n      swap1\n      pop\n        /* \"#utility.yul\":17732:18167   */\n      swap4\n      swap3\n      pop\n      pop\n      pop\n      jump\t// out\n        /* \"#utility.yul\":18173:18397   */\n    tag_354:\n        /* \"#utility.yul\":18313:18347   */\n      0x4552433732313a207472616e736665722066726f6d20696e636f727265637420\n        /* \"#utility.yul\":18309:18310   */\n      0x00\n        /* \"#utility.yul\":18301:18307   */\n      dup3\n        /* \"#utility.yul\":18297:18311   */\n      add\n        /* \"#utility.yul\":18290:18348   */\n      mstore\n        /* \"#utility.yul\":18382:18389   */\n      0x6f776e6572000000000000000000000000000000000000000000000000000000\n        /* \"#utility.yul\":18377:18379   */\n      0x20\n        /* \"#utility.yul\":18369:18375   */\n      dup3\n        /* \"#utility.yul\":18365:18380   */\n      add\n        /* \"#utility.yul\":18358:18390   */\n      mstore\n        /* \"#utility.yul\":18173:18397   */\n      pop\n      jump\t// out\n        /* \"#utility.yul\":18403:18769   */\n    tag_355:\n        /* \"#utility.yul\":18545:18548   */\n      0x00\n        /* \"#utility.yul\":18566:18633   */\n      tag_556\n        /* \"#utility.yul\":18630:18632   */\n      0x25\n        /* \"#utility.yul\":18625:18628   */\n      dup4\n        /* \"#utility.yul\":18566:18633   */\n      tag_315\n      jump\t// in\n    tag_556:\n        /* \"#utility.yul\":18559:18633   */\n      swap2\n      pop\n        /* \"#utility.yul\":18642:18735   */\n      tag_557\n        /* \"#utility.yul\":18731:18734   */\n      dup3\n        /* \"#utility.yul\":18642:18735   */\n      tag_354\n      jump\t// in\n    tag_557:\n        /* \"#utility.yul\":18760:18762   */\n      0x40\n        /* \"#utility.yul\":18755:18758   */\n      dup3\n        /* \"#utility.yul\":18751:18763   */\n      add\n        /* \"#utility.yul\":18744:18763   */\n      swap1\n      pop\n        /* \"#utility.yul\":18403:18769   */\n      swap2\n      swap1\n      pop\n      jump\t// out\n        /* \"#utility.yul\":18775:19194   */\n    tag_222:\n        /* \"#utility.yul\":18941:18945   */\n      0x00\n        /* \"#utility.yul\":18979:18981   */\n      0x20\n        /* \"#utility.yul\":18968:18977   */\n      dup3\n        /* \"#utility.yul\":18964:18982   */\n      add\n        /* \"#utility.yul\":18956:18982   */\n      swap1\n      pop\n        /* \"#utility.yul\":19028:19037   */\n      dup2\n        /* \"#utility.yul\":19022:19026   */\n      dup2\n        /* \"#utility.yul\":19018:19038   */\n      sub\n        /* \"#utility.yul\":19014:19015   */\n      0x00\n        /* \"#utility.yul\":19003:19012   */\n      dup4\n        /* \"#utility.yul\":18999:19016   */\n      add\n        /* \"#utility.yul\":18992:19039   */\n      mstore\n        /* \"#utility.yul\":19056:19187   */\n      tag_559\n        /* \"#utility.yul\":19182:19186   */\n      dup2\n        /* \"#utility.yul\":19056:19187   */\n      tag_355\n      jump\t// in\n    tag_559:\n        /* \"#utility.yul\":19048:19187   */\n      swap1\n      pop\n        /* \"#utility.yul\":18775:19194   */\n      swap2\n      swap1\n      pop\n      jump\t// out\n        /* \"#utility.yul\":19200:19423   */\n    tag_356:\n        /* \"#utility.yul\":19340:19374   */\n      0x4552433732313a207472616e7366657220746f20746865207a65726f20616464\n        /* \"#utility.yul\":19336:19337   */\n      0x00\n        /* \"#utility.yul\":19328:19334   */\n      dup3\n        /* \"#utility.yul\":19324:19338   */\n      add\n        /* \"#utility.yul\":19317:19375   */\n      mstore\n        /* \"#utility.yul\":19409:19415   */\n      0x7265737300000000000000000000000000000000000000000000000000000000\n        /* \"#utility.yul\":19404:19406   */\n      0x20\n        /* \"#utility.yul\":19396:19402   */\n      dup3\n        /* \"#utility.yul\":19392:19407   */\n      add\n        /* \"#utility.yul\":19385:19416   */\n      mstore\n        /* \"#utility.yul\":19200:19423   */\n      pop\n      jump\t// out\n        /* \"#utility.yul\":19429:19795   */\n    tag_357:\n        /* \"#utility.yul\":19571:19574   */\n      0x00\n        /* \"#utility.yul\":19592:19659   */\n      tag_562\n        /* \"#utility.yul\":19656:19658   */\n      0x24\n        /* \"#utility.yul\":19651:19654   */\n      dup4\n        /* \"#utility.yul\":19592:19659   */\n      tag_315\n      jump\t// in\n    tag_562:\n        /* \"#utility.yul\":19585:19659   */\n      swap2\n      pop\n        /* \"#utility.yul\":19668:19761   */\n      tag_563\n        /* \"#utility.yul\":19757:19760   */\n      dup3\n        /* \"#utility.yul\":19668:19761   */\n      tag_356\n      jump\t// in\n    tag_563:\n        /* \"#utility.yul\":19786:19788   */\n      0x40\n        /* \"#utility.yul\":19781:19784   */\n      dup3\n        /* \"#utility.yul\":19777:19789   */\n      add\n        /* \"#utility.yul\":19770:19789   */\n      swap1\n      pop\n        /* \"#utility.yul\":19429:19795   */\n      swap2\n      swap1\n      pop\n      jump\t// out\n        /* \"#utility.yul\":19801:20220   */\n    tag_225:\n        /* \"#utility.yul\":19967:19971   */\n      0x00\n        /* \"#utility.yul\":20005:20007   */\n      0x20\n        /* \"#utility.yul\":19994:20003   */\n      dup3\n        /* \"#utility.yul\":19990:20008   */\n      add\n        /* \"#utility.yul\":19982:20008   */\n      swap1\n      pop\n        /* \"#utility.yul\":20054:20063   */\n      dup2\n        /* \"#utility.yul\":20048:20052   */\n      dup2\n        /* \"#utility.yul\":20044:20064   */\n      sub\n        /* \"#utility.yul\":20040:20041   */\n      0x00\n        /* \"#utility.yul\":20029:20038   */\n      dup4\n        /* \"#utility.yul\":20025:20042   */\n      add\n        /* \"#utility.yul\":20018:20065   */\n      mstore\n        /* \"#utility.yul\":20082:20213   */\n      tag_565\n        /* \"#utility.yul\":20208:20212   */\n      dup2\n        /* \"#utility.yul\":20082:20213   */\n      tag_357\n      jump\t// in\n    tag_565:\n        /* \"#utility.yul\":20074:20213   */\n      swap1\n      pop\n        /* \"#utility.yul\":19801:20220   */\n      swap2\n      swap1\n      pop\n      jump\t// out\n        /* \"#utility.yul\":20226:20417   */\n    tag_230:\n        /* \"#utility.yul\":20266:20270   */\n      0x00\n        /* \"#utility.yul\":20286:20306   */\n      tag_567\n        /* \"#utility.yul\":20304:20305   */\n      dup3\n        /* \"#utility.yul\":20286:20306   */\n      tag_319\n      jump\t// in\n    tag_567:\n        /* \"#utility.yul\":20281:20306   */\n      swap2\n      pop\n        /* \"#utility.yul\":20320:20340   */\n      tag_568\n        /* \"#utility.yul\":20338:20339   */\n      dup4\n        /* \"#utility.yul\":20320:20340   */\n      tag_319\n      jump\t// in\n    tag_568:\n        /* \"#utility.yul\":20315:20340   */\n      swap3\n      pop\n        /* \"#utility.yul\":20359:20360   */\n      dup3\n        /* \"#utility.yul\":20356:20357   */\n      dup3\n        /* \"#utility.yul\":20353:20361   */\n      lt\n        /* \"#utility.yul\":20350:20384   */\n      iszero\n      tag_569\n      jumpi\n        /* \"#utility.yul\":20364:20382   */\n      tag_570\n      tag_347\n      jump\t// in\n    tag_570:\n        /* \"#utility.yul\":20350:20384   */\n    tag_569:\n        /* \"#utility.yul\":20409:20410   */\n      dup3\n        /* \"#utility.yul\":20406:20407   */\n      dup3\n        /* \"#utility.yul\":20402:20411   */\n      sub\n        /* \"#utility.yul\":20394:20411   */\n      swap1\n      pop\n        /* \"#utility.yul\":20226:20417   */\n      swap3\n      swap2\n      pop\n      pop\n      jump\t// out\n        /* \"#utility.yul\":20423:20728   */\n    tag_232:\n        /* \"#utility.yul\":20463:20466   */\n      0x00\n        /* \"#utility.yul\":20482:20502   */\n      tag_572\n        /* \"#utility.yul\":20500:20501   */\n      dup3\n        /* \"#utility.yul\":20482:20502   */\n      tag_319\n      jump\t// in\n    tag_572:\n        /* \"#utility.yul\":20477:20502   */\n      swap2\n      pop\n        /* \"#utility.yul\":20516:20536   */\n      tag_573\n        /* \"#utility.yul\":20534:20535   */\n      dup4\n        /* \"#utility.yul\":20516:20536   */\n      tag_319\n      jump\t// in\n    tag_573:\n        /* \"#utility.yul\":20511:20536   */\n      swap3\n      pop\n        /* \"#utility.yul\":20670:20671   */\n      dup3\n        /* \"#utility.yul\":20602:20668   */\n      0xffffffffffffffffffffffffffffffffffffffffffffffffffffffffffffffff\n        /* \"#utility.yul\":20598:20672   */\n      sub\n        /* \"#utility.yul\":20595:20596   */\n      dup3\n        /* \"#utility.yul\":20592:20673   */\n      gt\n        /* \"#utility.yul\":20589:20696   */\n      iszero\n      tag_574\n      jumpi\n        /* \"#utility.yul\":20676:20694   */\n      tag_575\n      tag_347\n      jump\t// in\n    tag_575:\n        /* \"#utility.yul\":20589:20696   */\n    tag_574:\n        /* \"#utility.yul\":20720:20721   */\n      dup3\n        /* \"#utility.yul\":20717:20718   */\n      dup3\n        /* \"#utility.yul\":20713:20722   */\n      add\n        /* \"#utility.yul\":20706:20722   */\n      swap1\n      pop\n        /* \"#utility.yul\":20423:20728   */\n      swap3\n      swap2\n      pop\n      pop\n      jump\t// out\n        /* \"#utility.yul\":20734:20916   */\n    tag_358:\n        /* \"#utility.yul\":20874:20908   */\n      0x4552433732313a206d696e7420746f20746865207a65726f2061646472657373\n        /* \"#utility.yul\":20870:20871   */\n      0x00\n        /* \"#utility.yul\":20862:20868   */\n      dup3\n        /* \"#utility.yul\":20858:20872   */\n      add\n        /* \"#utility.yul\":20851:20909   */\n      mstore\n        /* \"#utility.yul\":20734:20916   */\n      pop\n      jump\t// out\n        /* \"#utility.yul\":20922:21288   */\n    tag_359:\n        /* \"#utility.yul\":21064:21067   */\n      0x00\n        /* \"#utility.yul\":21085:21152   */\n      tag_578\n        /* \"#utility.yul\":21149:21151   */\n      0x20\n        /* \"#utility.yul\":21144:21147   */\n      dup4\n        /* \"#utility.yul\":21085:21152   */\n      tag_315\n      jump\t// in\n    tag_578:\n        /* \"#utility.yul\":21078:21152   */\n      swap2\n      pop\n        /* \"#utility.yul\":21161:21254   */\n      tag_579\n        /* \"#utility.yul\":21250:21253   */\n      dup3\n        /* \"#utility.yul\":21161:21254   */\n      tag_358\n      jump\t// in\n    tag_579:\n        /* \"#utility.yul\":21279:21281   */\n      0x20\n        /* \"#utility.yul\":21274:21277   */\n      dup3\n        /* \"#utility.yul\":21270:21282   */\n      add\n        /* \"#utility.yul\":21263:21282   */\n      swap1\n      pop\n        /* \"#utility.yul\":20922:21288   */\n      swap2\n      swap1\n      pop\n      jump\t// out\n        /* \"#utility.yul\":21294:21713   */\n    tag_238:\n        /* \"#utility.yul\":21460:21464   */\n      0x00\n        /* \"#utility.yul\":21498:21500   */\n      0x20\n        /* \"#utility.yul\":21487:21496   */\n      dup3\n        /* \"#utility.yul\":21483:21501   */\n      add\n        /* \"#utility.yul\":21475:21501   */\n      swap1\n      pop\n        /* \"#utility.yul\":21547:21556   */\n      dup2\n        /* \"#utility.yul\":21541:21545   */\n      dup2\n        /* \"#utility.yul\":21537:21557   */\n      sub\n        /* \"#utility.yul\":21533:21534   */\n      0x00\n        /* \"#utility.yul\":21522:21531   */\n      dup4\n        /* \"#utility.yul\":21518:21535   */\n      add\n        /* \"#utility.yul\":21511:21558   */\n      mstore\n        /* \"#utility.yul\":21575:21706   */\n      tag_581\n        /* \"#utility.yul\":21701:21705   */\n      dup2\n        /* \"#utility.yul\":21575:21706   */\n      tag_359\n      jump\t// in\n    tag_581:\n        /* \"#utility.yul\":21567:21706   */\n      swap1\n      pop\n        /* \"#utility.yul\":21294:21713   */\n      swap2\n      swap1\n      pop\n      jump\t// out\n        /* \"#utility.yul\":21719:21897   */\n    tag_360:\n        /* \"#utility.yul\":21859:21889   */\n      0x4552433732313a20746f6b656e20616c7265616479206d696e74656400000000\n        /* \"#utility.yul\":21855:21856   */\n      0x00\n        /* \"#utility.yul\":21847:21853   */\n      dup3\n        /* \"#utility.yul\":21843:21857   */\n      add\n        /* \"#utility.yul\":21836:21890   */\n      mstore\n        /* \"#utility.yul\":21719:21897   */\n      pop\n      jump\t// out\n        /* \"#utility.yul\":21903:22269   */\n    tag_361:\n        /* \"#utility.yul\":22045:22048   */\n      0x00\n        /* \"#utility.yul\":22066:22133   */\n      tag_584\n        /* \"#utility.yul\":22130:22132   */\n      0x1c\n        /* \"#utility.yul\":22125:22128   */\n      dup4\n        /* \"#utility.yul\":22066:22133   */\n      tag_315\n      jump\t// in\n    tag_584:\n        /* \"#utility.yul\":22059:22133   */\n      swap2\n      pop\n        /* \"#utility.yul\":22142:22235   */\n      tag_585\n        /* \"#utility.yul\":22231:22234   */\n      dup3\n        /* \"#utility.yul\":22142:22235   */\n      tag_360\n      jump\t// in\n    tag_585:\n        /* \"#utility.yul\":22260:22262   */\n      0x20\n        /* \"#utility.yul\":22255:22258   */\n      dup3\n        /* \"#utility.yul\":22251:22263   */\n      add\n        /* \"#utility.yul\":22244:22263   */\n      swap1\n      pop\n        /* \"#utility.yul\":21903:22269   */\n      swap2\n      swap1\n      pop\n      jump\t// out\n        /* \"#utility.yul\":22275:22694   */\n    tag_242:\n        /* \"#utility.yul\":22441:22445   */\n      0x00\n        /* \"#utility.yul\":22479:22481   */\n      0x20\n        /* \"#utility.yul\":22468:22477   */\n      dup3\n        /* \"#utility.yul\":22464:22482   */\n      add\n        /* \"#utility.yul\":22456:22482   */\n      swap1\n      pop\n        /* \"#utility.yul\":22528:22537   */\n      dup2\n        /* \"#utility.yul\":22522:22526   */\n      dup2\n        /* \"#utility.yul\":22518:22538   */\n      sub\n        /* \"#utility.yul\":22514:22515   */\n      0x00\n        /* \"#utility.yul\":22503:22512   */\n      dup4\n        /* \"#utility.yul\":22499:22516   */\n      add\n        /* \"#utility.yul\":22492:22539   */\n      mstore\n        /* \"#utility.yul\":22556:22687   */\n      tag_587\n        /* \"#utility.yul\":22682:22686   */\n      dup2\n        /* \"#utility.yul\":22556:22687   */\n      tag_361\n      jump\t// in\n    tag_587:\n        /* \"#utility.yul\":22548:22687   */\n      swap1\n      pop\n        /* \"#utility.yul\":22275:22694   */\n      swap2\n      swap1\n      pop\n      jump\t// out\n        /* \"#utility.yul\":22700:22875   */\n    tag_362:\n        /* \"#utility.yul\":22840:22867   */\n      0x4552433732313a20617070726f766520746f2063616c6c657200000000000000\n        /* \"#utility.yul\":22836:22837   */\n      0x00\n        /* \"#utility.yul\":22828:22834   */\n      dup3\n        /* \"#utility.yul\":22824:22838   */\n      add\n        /* \"#utility.yul\":22817:22868   */\n      mstore\n        /* \"#utility.yul\":22700:22875   */\n      pop\n      jump\t// out\n        /* \"#utility.yul\":22881:23247   */\n    tag_363:\n        /* \"#utility.yul\":23023:23026   */\n      0x00\n        /* \"#utility.yul\":23044:23111   */\n      tag_590\n        /* \"#utility.yul\":23108:23110   */\n      0x19\n        /* \"#utility.yul\":23103:23106   */\n      dup4\n        /* \"#utility.yul\":23044:23111   */\n      tag_315\n      jump\t// in\n    tag_590:\n        /* \"#utility.yul\":23037:23111   */\n      swap2\n      pop\n        /* \"#utility.yul\":23120:23213   */\n      tag_591\n        /* \"#utility.yul\":23209:23212   */\n      dup3\n        /* \"#utility.yul\":23120:23213   */\n      tag_362\n      jump\t// in\n    tag_591:\n        /* \"#utility.yul\":23238:23240   */\n      0x20\n        /* \"#utility.yul\":23233:23236   */\n      dup3\n        /* \"#utility.yul\":23229:23241   */\n      add\n        /* \"#utility.yul\":23222:23241   */\n      swap1\n      pop\n        /* \"#utility.yul\":22881:23247   */\n      swap2\n      swap1\n      pop\n      jump\t// out\n        /* \"#utility.yul\":23253:23672   */\n    tag_249:\n        /* \"#utility.yul\":23419:23423   */\n      0x00\n        /* \"#utility.yul\":23457:23459   */\n      0x20\n        /* \"#utility.yul\":23446:23455   */\n      dup3\n        /* \"#utility.yul\":23442:23460   */\n      add\n        /* \"#utility.yul\":23434:23460   */\n      swap1\n      pop\n        /* \"#utility.yul\":23506:23515   */\n      dup2\n        /* \"#utility.yul\":23500:23504   */\n      dup2\n        /* \"#utility.yul\":23496:23516   */\n      sub\n        /* \"#utility.yul\":23492:23493   */\n      0x00\n        /* \"#utility.yul\":23481:23490   */\n      dup4\n        /* \"#utility.yul\":23477:23494   */\n      add\n        /* \"#utility.yul\":23470:23517   */\n      mstore\n        /* \"#utility.yul\":23534:23665   */\n      tag_593\n        /* \"#utility.yul\":23660:23664   */\n      dup2\n        /* \"#utility.yul\":23534:23665   */\n      tag_363\n      jump\t// in\n    tag_593:\n        /* \"#utility.yul\":23526:23665   */\n      swap1\n      pop\n        /* \"#utility.yul\":23253:23672   */\n      swap2\n      swap1\n      pop\n      jump\t// out\n        /* \"#utility.yul\":23678:23915   */\n    tag_364:\n        /* \"#utility.yul\":23818:23852   */\n      0x4552433732313a207472616e7366657220746f206e6f6e204552433732315265\n        /* \"#utility.yul\":23814:23815   */\n      0x00\n        /* \"#utility.yul\":23806:23812   */\n      dup3\n        /* \"#utility.yul\":23802:23816   */\n      add\n        /* \"#utility.yul\":23795:23853   */\n      mstore\n        /* \"#utility.yul\":23887:23907   */\n      0x63656976657220696d706c656d656e7465720000000000000000000000000000\n        /* \"#utility.yul\":23882:23884   */\n      0x20\n        /* \"#utility.yul\":23874:23880   */\n      dup3\n        /* \"#utility.yul\":23870:23885   */\n      add\n        /* \"#utility.yul\":23863:23908   */\n      mstore\n        /* \"#utility.yul\":23678:23915   */\n      pop\n      jump\t// out\n        /* \"#utility.yul\":23921:24287   */\n    tag_365:\n        /* \"#utility.yul\":24063:24066   */\n      0x00\n        /* \"#utility.yul\":24084:24151   */\n      tag_596\n        /* \"#utility.yul\":24148:24150   */\n      0x32\n        /* \"#utility.yul\":24143:24146   */\n      dup4\n        /* \"#utility.yul\":24084:24151   */\n      tag_315\n      jump\t// in\n    tag_596:\n        /* \"#utility.yul\":24077:24151   */\n      swap2\n      pop\n        /* \"#utility.yul\":24160:24253   */\n      tag_597\n        /* \"#utility.yul\":24249:24252   */\n      dup3\n        /* \"#utility.yul\":24160:24253   */\n      tag_364\n      jump\t// in\n    tag_597:\n        /* \"#utility.yul\":24278:24280   */\n      0x40\n        /* \"#utility.yul\":24273:24276   */\n      dup3\n        /* \"#utility.yul\":24269:24281   */\n      add\n        /* \"#utility.yul\":24262:24281   */\n      swap1\n      pop\n        /* \"#utility.yul\":23921:24287   */\n      swap2\n      swap1\n      pop\n      jump\t// out\n        /* \"#utility.yul\":24293:24712   */\n    tag_257:\n        /* \"#utility.yul\":24459:24463   */\n      0x00\n        /* \"#utility.yul\":24497:24499   */\n      0x20\n        /* \"#utility.yul\":24486:24495   */\n      dup3\n        /* \"#utility.yul\":24482:24500   */\n      add\n        /* \"#utility.yul\":24474:24500   */\n      swap1\n      pop\n        /* \"#utility.yul\":24546:24555   */\n      dup2\n        /* \"#utility.yul\":24540:24544   */\n      dup2\n        /* \"#utility.yul\":24536:24556   */\n      sub\n        /* \"#utility.yul\":24532:24533   */\n      0x00\n        /* \"#utility.yul\":24521:24530   */\n      dup4\n        /* \"#utility.yul\":24517:24534   */\n      add\n        /* \"#utility.yul\":24510:24557   */\n      mstore\n        /* \"#utility.yul\":24574:24705   */\n      tag_599\n        /* \"#utility.yul\":24700:24704   */\n      dup2\n        /* \"#utility.yul\":24574:24705   */\n      tag_365\n      jump\t// in\n    tag_599:\n        /* \"#utility.yul\":24566:24705   */\n      swap1\n      pop\n        /* \"#utility.yul\":24293:24712   */\n      swap2\n      swap1\n      pop\n      jump\t// out\n        /* \"#utility.yul\":24718:24951   */\n    tag_264:\n        /* \"#utility.yul\":24757:24760   */\n      0x00\n        /* \"#utility.yul\":24780:24804   */\n      tag_601\n        /* \"#utility.yul\":24798:24803   */\n      dup3\n        /* \"#utility.yul\":24780:24804   */\n      tag_319\n      jump\t// in\n    tag_601:\n        /* \"#utility.yul\":24771:24804   */\n      swap2\n      pop\n        /* \"#utility.yul\":24826:24892   */\n      0xffffffffffffffffffffffffffffffffffffffffffffffffffffffffffffffff\n        /* \"#utility.yul\":24819:24824   */\n      dup3\n        /* \"#utility.yul\":24816:24893   */\n      sub\n        /* \"#utility.yul\":24813:24916   */\n      tag_602\n      jumpi\n        /* \"#utility.yul\":24896:24914   */\n      tag_603\n      tag_347\n      jump\t// in\n    tag_603:\n        /* \"#utility.yul\":24813:24916   */\n    tag_602:\n        /* \"#utility.yul\":24943:24944   */\n      0x01\n        /* \"#utility.yul\":24936:24941   */\n      dup3\n        /* \"#utility.yul\":24932:24945   */\n      add\n        /* \"#utility.yul\":24925:24945   */\n      swap1\n      pop\n        /* \"#utility.yul\":24718:24951   */\n      swap2\n      swap1\n      pop\n      jump\t// out\n        /* \"#utility.yul\":24957:25137   */\n    tag_366:\n        /* \"#utility.yul\":25005:25082   */\n      0x4e487b7100000000000000000000000000000000000000000000000000000000\n        /* \"#utility.yul\":25002:25003   */\n      0x00\n        /* \"#utility.yul\":24995:25083   */\n      mstore\n        /* \"#utility.yul\":25102:25106   */\n      0x12\n        /* \"#utility.yul\":25099:25100   */\n      0x04\n        /* \"#utility.yul\":25092:25107   */\n      mstore\n        /* \"#utility.yul\":25126:25130   */\n      0x24\n        /* \"#utility.yul\":25123:25124   */\n      0x00\n        /* \"#utility.yul\":25116:25131   */\n      revert\n        /* \"#utility.yul\":25143:25328   */\n    tag_266:\n        /* \"#utility.yul\":25183:25184   */\n      0x00\n        /* \"#utility.yul\":25200:25220   */\n      tag_606\n        /* \"#utility.yul\":25218:25219   */\n      dup3\n        /* \"#utility.yul\":25200:25220   */\n      tag_319\n      jump\t// in\n    tag_606:\n        /* \"#utility.yul\":25195:25220   */\n      swap2\n      pop\n        /* \"#utility.yul\":25234:25254   */\n      tag_607\n        /* \"#utility.yul\":25252:25253   */\n      dup4\n        /* \"#utility.yul\":25234:25254   */\n      tag_319\n      jump\t// in\n    tag_607:\n        /* \"#utility.yul\":25229:25254   */\n      swap3\n      pop\n        /* \"#utility.yul\":25273:25274   */\n      dup3\n        /* \"#utility.yul\":25263:25298   */\n      tag_608\n      jumpi\n        /* \"#utility.yul\":25278:25296   */\n      tag_609\n      tag_366\n      jump\t// in\n    tag_609:\n        /* \"#utility.yul\":25263:25298   */\n    tag_608:\n        /* \"#utility.yul\":25320:25321   */\n      dup3\n        /* \"#utility.yul\":25317:25318   */\n      dup3\n        /* \"#utility.yul\":25313:25322   */\n      div\n        /* \"#utility.yul\":25308:25322   */\n      swap1\n      pop\n        /* \"#utility.yul\":25143:25328   */\n      swap3\n      swap2\n      pop\n      pop\n      jump\t// out\n        /* \"#utility.yul\":25334:25510   */\n    tag_275:\n        /* \"#utility.yul\":25366:25367   */\n      0x00\n        /* \"#utility.yul\":25383:25403   */\n      tag_611\n        /* \"#utility.yul\":25401:25402   */\n      dup3\n        /* \"#utility.yul\":25383:25403   */\n      tag_319\n      jump\t// in\n    tag_611:\n        /* \"#utility.yul\":25378:25403   */\n      swap2\n      pop\n        /* \"#utility.yul\":25417:25437   */\n      tag_612\n        /* \"#utility.yul\":25435:25436   */\n      dup4\n        /* \"#utility.yul\":25417:25437   */\n      tag_319\n      jump\t// in\n    tag_612:\n        /* \"#utility.yul\":25412:25437   */\n      swap3\n      pop\n        /* \"#utility.yul\":25456:25457   */\n      dup3\n        /* \"#utility.yul\":25446:25481   */\n      tag_613\n      jumpi\n        /* \"#utility.yul\":25461:25479   */\n      tag_614\n      tag_366\n      jump\t// in\n    tag_614:\n        /* \"#utility.yul\":25446:25481   */\n    tag_613:\n        /* \"#utility.yul\":25502:25503   */\n      dup3\n        /* \"#utility.yul\":25499:25500   */\n      dup3\n        /* \"#utility.yul\":25495:25504   */\n      mod\n        /* \"#utility.yul\":25490:25504   */\n      swap1\n      pop\n        /* \"#utility.yul\":25334:25510   */\n      swap3\n      swap2\n      pop\n      pop\n      jump\t// out\n        /* \"#utility.yul\":25516:25696   */\n    tag_279:\n        /* \"#utility.yul\":25564:25641   */\n      0x4e487b7100000000000000000000000000000000000000000000000000000000\n        /* \"#utility.yul\":25561:25562   */\n      0x00\n        /* \"#utility.yul\":25554:25642   */\n      mstore\n        /* \"#utility.yul\":25661:25665   */\n      0x32\n        /* \"#utility.yul\":25658:25659   */\n      0x04\n        /* \"#utility.yul\":25651:25666   */\n      mstore\n        /* \"#utility.yul\":25685:25689   */\n      0x24\n        /* \"#utility.yul\":25682:25683   */\n      0x00\n        /* \"#utility.yul\":25675:25690   */\n      revert\n        /* \"#utility.yul\":25702:25800   */\n    tag_367:\n        /* \"#utility.yul\":25753:25759   */\n      0x00\n        /* \"#utility.yul\":25787:25792   */\n      dup2\n        /* \"#utility.yul\":25781:25793   */\n      mload\n        /* \"#utility.yul\":25771:25793   */\n      swap1\n      pop\n        /* \"#utility.yul\":25702:25800   */\n      swap2\n      swap1\n      pop\n      jump\t// out\n        /* \"#utility.yul\":25806:25974   */\n    tag_368:\n        /* \"#utility.yul\":25889:25900   */\n      0x00\n        /* \"#utility.yul\":25923:25929   */\n      dup3\n        /* \"#utility.yul\":25918:25921   */\n      dup3\n        /* \"#utility.yul\":25911:25930   */\n      mstore\n        /* \"#utility.yul\":25963:25967   */\n      0x20\n        /* \"#utility.yul\":25958:25961   */\n      dup3\n        /* \"#utility.yul\":25954:25968   */\n      add\n        /* \"#utility.yul\":25939:25968   */\n      swap1\n      pop\n        /* \"#utility.yul\":25806:25974   */\n      swap3\n      swap2\n      pop\n      pop\n      jump\t// out\n        /* \"#utility.yul\":25980:26340   */\n    tag_369:\n        /* \"#utility.yul\":26066:26069   */\n      0x00\n        /* \"#utility.yul\":26094:26132   */\n      tag_619\n        /* \"#utility.yul\":26126:26131   */\n      dup3\n        /* \"#utility.yul\":26094:26132   */\n      tag_367\n      jump\t// in\n    tag_619:\n        /* \"#utility.yul\":26148:26218   */\n      tag_620\n        /* \"#utility.yul\":26211:26217   */\n      dup2\n        /* \"#utility.yul\":26206:26209   */\n      dup6\n        /* \"#utility.yul\":26148:26218   */\n      tag_368\n      jump\t// in\n    tag_620:\n        /* \"#utility.yul\":26141:26218   */\n      swap4\n      pop\n        /* \"#utility.yul\":26227:26279   */\n      tag_621\n        /* \"#utility.yul\":26272:26278   */\n      dup2\n        /* \"#utility.yul\":26267:26270   */\n      dup6\n        /* \"#utility.yul\":26260:26264   */\n      0x20\n        /* \"#utility.yul\":26253:26258   */\n      dup7\n        /* \"#utility.yul\":26249:26265   */\n      add\n        /* \"#utility.yul\":26227:26279   */\n      tag_316\n      jump\t// in\n    tag_621:\n        /* \"#utility.yul\":26304:26333   */\n      tag_622\n        /* \"#utility.yul\":26326:26332   */\n      dup2\n        /* \"#utility.yul\":26304:26333   */\n      tag_317\n      jump\t// in\n    tag_622:\n        /* \"#utility.yul\":26299:26302   */\n      dup5\n        /* \"#utility.yul\":26295:26334   */\n      add\n        /* \"#utility.yul\":26288:26334   */\n      swap2\n      pop\n        /* \"#utility.yul\":26070:26340   */\n      pop\n        /* \"#utility.yul\":25980:26340   */\n      swap3\n      swap2\n      pop\n      pop\n      jump\t// out\n        /* \"#utility.yul\":26346:26986   */\n    tag_290:\n        /* \"#utility.yul\":26541:26545   */\n      0x00\n        /* \"#utility.yul\":26579:26582   */\n      0x80\n        /* \"#utility.yul\":26568:26577   */\n      dup3\n        /* \"#utility.yul\":26564:26583   */\n      add\n        /* \"#utility.yul\":26556:26583   */\n      swap1\n      pop\n        /* \"#utility.yul\":26593:26664   */\n      tag_624\n        /* \"#utility.yul\":26661:26662   */\n      0x00\n        /* \"#utility.yul\":26650:26659   */\n      dup4\n        /* \"#utility.yul\":26646:26663   */\n      add\n        /* \"#utility.yul\":26637:26643   */\n      dup8\n        /* \"#utility.yul\":26593:26664   */\n      tag_324\n      jump\t// in\n    tag_624:\n        /* \"#utility.yul\":26674:26746   */\n      tag_625\n        /* \"#utility.yul\":26742:26744   */\n      0x20\n        /* \"#utility.yul\":26731:26740   */\n      dup4\n        /* \"#utility.yul\":26727:26745   */\n      add\n        /* \"#utility.yul\":26718:26724   */\n      dup7\n        /* \"#utility.yul\":26674:26746   */\n      tag_324\n      jump\t// in\n    tag_625:\n        /* \"#utility.yul\":26756:26828   */\n      tag_626\n        /* \"#utility.yul\":26824:26826   */\n      0x40\n        /* \"#utility.yul\":26813:26822   */\n      dup4\n        /* \"#utility.yul\":26809:26827   */\n      add\n        /* \"#utility.yul\":26800:26806   */\n      dup6\n        /* \"#utility.yul\":26756:26828   */\n      tag_329\n      jump\t// in\n    tag_626:\n        /* \"#utility.yul\":26875:26884   */\n      dup2\n        /* \"#utility.yul\":26869:26873   */\n      dup2\n        /* \"#utility.yul\":26865:26885   */\n      sub\n        /* \"#utility.yul\":26860:26862   */\n      0x60\n        /* \"#utility.yul\":26849:26858   */\n      dup4\n        /* \"#utility.yul\":26845:26863   */\n      add\n        /* \"#utility.yul\":26838:26886   */\n      mstore\n        /* \"#utility.yul\":26903:26979   */\n      tag_627\n        /* \"#utility.yul\":26974:26978   */\n      dup2\n        /* \"#utility.yul\":26965:26971   */\n      dup5\n        /* \"#utility.yul\":26903:26979   */\n      tag_369\n      jump\t// in\n    tag_627:\n        /* \"#utility.yul\":26895:26979   */\n      swap1\n      pop\n        /* \"#utility.yul\":26346:26986   */\n      swap6\n      swap5\n      pop\n      pop\n      pop\n      pop\n      pop\n      jump\t// out\n        /* \"#utility.yul\":26992:27133   */\n    tag_370:\n        /* \"#utility.yul\":27048:27053   */\n      0x00\n        /* \"#utility.yul\":27079:27085   */\n      dup2\n        /* \"#utility.yul\":27073:27086   */\n      mload\n        /* \"#utility.yul\":27064:27086   */\n      swap1\n      pop\n        /* \"#utility.yul\":27095:27127   */\n      tag_629\n        /* \"#utility.yul\":27121:27126   */\n      dup2\n        /* \"#utility.yul\":27095:27127   */\n      tag_310\n      jump\t// in\n    tag_629:\n        /* \"#utility.yul\":26992:27133   */\n      swap3\n      swap2\n      pop\n      pop\n      jump\t// out\n        /* \"#utility.yul\":27139:27488   */\n    tag_293:\n        /* \"#utility.yul\":27208:27214   */\n      0x00\n        /* \"#utility.yul\":27257:27259   */\n      0x20\n        /* \"#utility.yul\":27245:27254   */\n      dup3\n        /* \"#utility.yul\":27236:27243   */\n      dup5\n        /* \"#utility.yul\":27232:27255   */\n      sub\n        /* \"#utility.yul\":27228:27260   */\n      slt\n        /* \"#utility.yul\":27225:27344   */\n      iszero\n      tag_631\n      jumpi\n        /* \"#utility.yul\":27263:27342   */\n      tag_632\n      tag_307\n      jump\t// in\n    tag_632:\n        /* \"#utility.yul\":27225:27344   */\n    tag_631:\n        /* \"#utility.yul\":27383:27384   */\n      0x00\n        /* \"#utility.yul\":27408:27471   */\n      tag_633\n        /* \"#utility.yul\":27463:27470   */\n      dup5\n        /* \"#utility.yul\":27454:27460   */\n      dup3\n        /* \"#utility.yul\":27443:27452   */\n      dup6\n        /* \"#utility.yul\":27439:27461   */\n      add\n        /* \"#utility.yul\":27408:27471   */\n      tag_370\n      jump\t// in\n    tag_633:\n        /* \"#utility.yul\":27398:27471   */\n      swap2\n      pop\n        /* \"#utility.yul\":27354:27481   */\n      pop\n        /* \"#utility.yul\":27139:27488   */\n      swap3\n      swap2\n      pop\n      pop\n      jump\t// out\n\n    auxdata: 0xa26469706673582212201b56174af4056880e9880994aa3990ba1b7b45f19be47d2a95a314bbab04e5a864736f6c634300080d0033\n}\n",
				"bytecode": {
					"linkReferences": {},
					"object": "60806040526000600660006101000a81548160ff021916908360ff1602179055506064600660016101000a81548160ff021916908360ff16021790555067016345785d8a00006007553480156200005557600080fd5b506040518060400160405280600881526020017f47617465644150500000000000000000000000000000000000000000000000008152506040518060400160405280600281526020017f47430000000000000000000000000000000000000000000000000000000000008152508160009080519060200190620000da929190620000fc565b508060019080519060200190620000f3929190620000fc565b50505062000210565b8280546200010a90620001db565b90600052602060002090601f0160209004810192826200012e57600085556200017a565b82601f106200014957805160ff19168380011785556200017a565b828001600101855582156200017a579182015b82811115620001795782518255916020019190600101906200015c565b5b5090506200018991906200018d565b5090565b5b80821115620001a85760008160009055506001016200018e565b5090565b7f4e487b7100000000000000000000000000000000000000000000000000000000600052602260045260246000fd5b60006002820490506001821680620001f457607f821691505b6020821081036200020a5762000209620001ac565b5b50919050565b61279780620002206000396000f3fe6080604052600436106101095760003560e01c806370a0823111610095578063b88d4fde11610064578063b88d4fde14610370578063c394f6cb14610399578063c87b56dd146103c4578063e831574214610401578063e985e9c51461042c57610109565b806370a08231146102b457806395d89b41146102f15780639f181b5e1461031c578063a22cb4651461034757610109565b806323b872dd116100dc57806323b872dd146101dc5780632cabbfe21461020557806342842e0e146102305780634451d89f146102595780636352211e1461027757610109565b806301ffc9a71461010e57806306fdde031461014b578063081812fc14610176578063095ea7b3146101b3575b600080fd5b34801561011a57600080fd5b5061013560048036038101906101309190611856565b610469565b604051610142919061189e565b60405180910390f35b34801561015757600080fd5b5061016061054b565b60405161016d9190611952565b60405180910390f35b34801561018257600080fd5b5061019d600480360381019061019891906119aa565b6105dd565b6040516101aa9190611a18565b60405180910390f35b3480156101bf57600080fd5b506101da60048036038101906101d59190611a5f565b610623565b005b3480156101e857600080fd5b5061020360048036038101906101fe9190611a9f565b61073a565b005b34801561021157600080fd5b5061021a61079a565b6040516102279190611b0e565b60405180910390f35b34801561023c57600080fd5b5061025760048036038101906102529190611a9f565b6107b1565b005b6102616107d1565b60405161026e919061189e565b60405180910390f35b34801561028357600080fd5b5061029e600480360381019061029991906119aa565b61087c565b6040516102ab9190611a18565b60405180910390f35b3480156102c057600080fd5b506102db60048036038101906102d69190611b29565b61092d565b6040516102e89190611b65565b60405180910390f35b3480156102fd57600080fd5b506103066109e4565b6040516103139190611952565b60405180910390f35b34801561032857600080fd5b50610331610a76565b60405161033e9190611b0e565b60405180910390f35b34801561035357600080fd5b5061036e60048036038101906103699190611bac565b610a89565b005b34801561037c57600080fd5b5061039760048036038101906103929190611d21565b610a9f565b005b3480156103a557600080fd5b506103ae610b01565b6040516103bb9190611b0e565b60405180910390f35b3480156103d057600080fd5b506103eb60048036038101906103e691906119aa565b610b32565b6040516103f89190611952565b60405180910390f35b34801561040d57600080fd5b50610416610b9a565b6040516104239190611b0e565b60405180910390f35b34801561043857600080fd5b50610453600480360381019061044e9190611da4565b610bad565b604051610460919061189e565b60405180910390f35b60007f80ac58cd000000000000000000000000000000000000000000000000000000007bffffffffffffffffffffffffffffffffffffffffffffffffffffffff1916827bffffffffffffffffffffffffffffffffffffffffffffffffffffffff1916148061053457507f5b5e139f000000000000000000000000000000000000000000000000000000007bffffffffffffffffffffffffffffffffffffffffffffffffffffffff1916827bffffffffffffffffffffffffffffffffffffffffffffffffffffffff1916145b80610544575061054382610c41565b5b9050919050565b60606000805461055a90611e13565b80601f016020809104026020016040519081016040528092919081815260200182805461058690611e13565b80156105d35780601f106105a8576101008083540402835291602001916105d3565b820191906000526020600020905b8154815290600101906020018083116105b657829003601f168201915b5050505050905090565b60006105e882610cab565b6004600083815260200190815260200160002060009054906101000a900473ffffffffffffffffffffffffffffffffffffffff169050919050565b600061062e8261087c565b90508073ffffffffffffffffffffffffffffffffffffffff168373ffffffffffffffffffffffffffffffffffffffff160361069e576040517f08c379a000000000000000000000000000000000000000000000000000000000815260040161069590611eb6565b60405180910390fd5b8073ffffffffffffffffffffffffffffffffffffffff166106bd610cf6565b73ffffffffffffffffffffffffffffffffffffffff1614806106ec57506106eb816106e6610cf6565b610bad565b5b61072b576040517f08c379a000000000000000000000000000000000000000000000000000000000815260040161072290611f48565b60405180910390fd5b6107358383610cfe565b505050565b61074b610745610cf6565b82610db7565b61078a576040517f08c379a000000000000000000000000000000000000000000000000000000000815260040161078190611fda565b60405180910390fd5b610795838383610e4c565b505050565b6000600660009054906101000a900460ff16905090565b6107cc83838360405180602001604052806000815250610a9f565b505050565b600060075434146107e157600080fd5b600660019054906101000a900460ff1660ff16600660009054906101000a900460ff1660ff1610801561081c5750600061081a3361092d565b145b156108755761083d33600660009054906101000a900460ff1660ff166110b2565b6001600660008282829054906101000a900460ff1661085c9190612029565b92506101000a81548160ff021916908360ff1602179055505b6001905090565b6000806002600084815260200190815260200160002060009054906101000a900473ffffffffffffffffffffffffffffffffffffffff169050600073ffffffffffffffffffffffffffffffffffffffff168173ffffffffffffffffffffffffffffffffffffffff1603610924576040517f08c379a000000000000000000000000000000000000000000000000000000000815260040161091b906120ac565b60405180910390fd5b80915050919050565b60008073ffffffffffffffffffffffffffffffffffffffff168273ffffffffffffffffffffffffffffffffffffffff160361099d576040517f08c379a00000000000000000000000000000000000000000000000000000000081526004016109949061213e565b60405180910390fd5b600360008373ffffffffffffffffffffffffffffffffffffffff1673ffffffffffffffffffffffffffffffffffffffff168152602001908152602001600020549050919050565b6060600180546109f390611e13565b80601f0160208091040260200160405190810160405280929190818152602001828054610a1f90611e13565b8015610a6c5780601f10610a4157610100808354040283529160200191610a6c565b820191906000526020600020905b815481529060010190602001808311610a4f57829003601f168201915b5050505050905090565b600660009054906101000a900460ff1681565b610a9b610a94610cf6565b838361128b565b5050565b610ab0610aaa610cf6565b83610db7565b610aef576040517f08c379a0000000000000000000000000000000000000000000000000000000008152600401610ae690611fda565b60405180910390fd5b610afb848484846113f7565b50505050565b6000600660009054906101000a900460ff16600660019054906101000a900460ff16610b2d919061215e565b905090565b6060610b3d82610cab565b6000610b47611453565b90506000815111610b675760405180602001604052806000815250610b92565b80610b718461146a565b604051602001610b829291906121ce565b6040516020818303038152906040525b915050919050565b600660019054906101000a900460ff1681565b6000600560008473ffffffffffffffffffffffffffffffffffffffff1673ffffffffffffffffffffffffffffffffffffffff16815260200190815260200160002060008373ffffffffffffffffffffffffffffffffffffffff1673ffffffffffffffffffffffffffffffffffffffff16815260200190815260200160002060009054906101000a900460ff16905092915050565b60007f01ffc9a7000000000000000000000000000000000000000000000000000000007bffffffffffffffffffffffffffffffffffffffffffffffffffffffff1916827bffffffffffffffffffffffffffffffffffffffffffffffffffffffff1916149050919050565b610cb4816115ca565b610cf3576040517f08c379a0000000000000000000000000000000000000000000000000000000008152600401610cea906120ac565b60405180910390fd5b50565b600033905090565b816004600083815260200190815260200160002060006101000a81548173ffffffffffffffffffffffffffffffffffffffff021916908373ffffffffffffffffffffffffffffffffffffffff160217905550808273ffffffffffffffffffffffffffffffffffffffff16610d718361087c565b73ffffffffffffffffffffffffffffffffffffffff167f8c5be1e5ebec7d5bd14f71427d1e84f3dd0314c0f7b2291e5b200ac8c7c3b92560405160405180910390a45050565b600080610dc38361087c565b90508073ffffffffffffffffffffffffffffffffffffffff168473ffffffffffffffffffffffffffffffffffffffff161480610e055750610e048185610bad565b5b80610e4357508373ffffffffffffffffffffffffffffffffffffffff16610e2b846105dd565b73ffffffffffffffffffffffffffffffffffffffff16145b91505092915050565b8273ffffffffffffffffffffffffffffffffffffffff16610e6c8261087c565b73ffffffffffffffffffffffffffffffffffffffff1614610ec2576040517f08c379a0000000000000000000000000000000000000000000000000000000008152600401610eb990612264565b60405180910390fd5b600073ffffffffffffffffffffffffffffffffffffffff168273ffffffffffffffffffffffffffffffffffffffff1603610f31576040517f08c379a0000000000000000000000000000000000000000000000000000000008152600401610f28906122f6565b60405180910390fd5b610f3c838383611636565b610f47600082610cfe565b6001600360008573ffffffffffffffffffffffffffffffffffffffff1673ffffffffffffffffffffffffffffffffffffffff1681526020019081526020016000206000828254610f979190612316565b925050819055506001600360008473ffffffffffffffffffffffffffffffffffffffff1673ffffffffffffffffffffffffffffffffffffffff1681526020019081526020016000206000828254610fee919061234a565b92505081905550816002600083815260200190815260200160002060006101000a81548173ffffffffffffffffffffffffffffffffffffffff021916908373ffffffffffffffffffffffffffffffffffffffff160217905550808273ffffffffffffffffffffffffffffffffffffffff168473ffffffffffffffffffffffffffffffffffffffff167fddf252ad1be2c89b69c2b068fc378daa952ba7f163c4a11628f55a4df523b3ef60405160405180910390a46110ad83838361163b565b505050565b600073ffffffffffffffffffffffffffffffffffffffff168273ffffffffffffffffffffffffffffffffffffffff1603611121576040517f08c379a0000000000000000000000000000000000000000000000000000000008152600401611118906123ec565b60405180910390fd5b61112a816115ca565b1561116a576040517f08c379a000000000000000000000000000000000000000000000000000000000815260040161116190612458565b60405180910390fd5b61117660008383611636565b6001600360008473ffffffffffffffffffffffffffffffffffffffff1673ffffffffffffffffffffffffffffffffffffffff16815260200190815260200160002060008282546111c6919061234a565b92505081905550816002600083815260200190815260200160002060006101000a81548173ffffffffffffffffffffffffffffffffffffffff021916908373ffffffffffffffffffffffffffffffffffffffff160217905550808273ffffffffffffffffffffffffffffffffffffffff16600073ffffffffffffffffffffffffffffffffffffffff167fddf252ad1be2c89b69c2b068fc378daa952ba7f163c4a11628f55a4df523b3ef60405160405180910390a46112876000838361163b565b5050565b8173ffffffffffffffffffffffffffffffffffffffff168373ffffffffffffffffffffffffffffffffffffffff16036112f9576040517f08c379a00000000000000000000000000000000000000000000000000000000081526004016112f0906124c4565b60405180910390fd5b80600560008573ffffffffffffffffffffffffffffffffffffffff1673ffffffffffffffffffffffffffffffffffffffff16815260200190815260200160002060008473ffffffffffffffffffffffffffffffffffffffff1673ffffffffffffffffffffffffffffffffffffffff16815260200190815260200160002060006101000a81548160ff0219169083151502179055508173ffffffffffffffffffffffffffffffffffffffff168373ffffffffffffffffffffffffffffffffffffffff167f17307eab39ab6107e8899845ad3d59bd9653f200f220920489ca2b5937696c31836040516113ea919061189e565b60405180910390a3505050565b611402848484610e4c565b61140e84848484611640565b61144d576040517f08c379a000000000000000000000000000000000000000000000000000000000815260040161144490612556565b60405180910390fd5b50505050565b606060405180602001604052806000815250905090565b6060600082036114b1576040518060400160405280600181526020017f300000000000000000000000000000000000000000000000000000000000000081525090506115c5565b600082905060005b600082146114e35780806114cc90612576565b915050600a826114dc91906125ed565b91506114b9565b60008167ffffffffffffffff8111156114ff576114fe611bf6565b5b6040519080825280601f01601f1916602001820160405280156115315781602001600182028036833780820191505090505b5090505b600085146115be5760018261154a9190612316565b9150600a85611559919061261e565b6030611565919061234a565b60f81b81838151811061157b5761157a61264f565b5b60200101907effffffffffffffffffffffffffffffffffffffffffffffffffffffffffffff1916908160001a905350600a856115b791906125ed565b9450611535565b8093505050505b919050565b60008073ffffffffffffffffffffffffffffffffffffffff166002600084815260200190815260200160002060009054906101000a900473ffffffffffffffffffffffffffffffffffffffff1673ffffffffffffffffffffffffffffffffffffffff1614159050919050565b505050565b505050565b60006116618473ffffffffffffffffffffffffffffffffffffffff166117c7565b156117ba578373ffffffffffffffffffffffffffffffffffffffff1663150b7a0261168a610cf6565b8786866040518563ffffffff1660e01b81526004016116ac94939291906126d3565b6020604051808303816000875af19250505080156116e857506040513d601f19601f820116820180604052508101906116e59190612734565b60015b61176a573d8060008114611718576040519150601f19603f3d011682016040523d82523d6000602084013e61171d565b606091505b506000815103611762576040517f08c379a000000000000000000000000000000000000000000000000000000000815260040161175990612556565b60405180910390fd5b805181602001fd5b63150b7a0260e01b7bffffffffffffffffffffffffffffffffffffffffffffffffffffffff1916817bffffffffffffffffffffffffffffffffffffffffffffffffffffffff1916149150506117bf565b600190505b949350505050565b6000808273ffffffffffffffffffffffffffffffffffffffff163b119050919050565b6000604051905090565b600080fd5b600080fd5b60007fffffffff0000000000000000000000000000000000000000000000000000000082169050919050565b611833816117fe565b811461183e57600080fd5b50565b6000813590506118508161182a565b92915050565b60006020828403121561186c5761186b6117f4565b5b600061187a84828501611841565b91505092915050565b60008115159050919050565b61189881611883565b82525050565b60006020820190506118b3600083018461188f565b92915050565b600081519050919050565b600082825260208201905092915050565b60005b838110156118f35780820151818401526020810190506118d8565b83811115611902576000848401525b50505050565b6000601f19601f8301169050919050565b6000611924826118b9565b61192e81856118c4565b935061193e8185602086016118d5565b61194781611908565b840191505092915050565b6000602082019050818103600083015261196c8184611919565b905092915050565b6000819050919050565b61198781611974565b811461199257600080fd5b50565b6000813590506119a48161197e565b92915050565b6000602082840312156119c0576119bf6117f4565b5b60006119ce84828501611995565b91505092915050565b600073ffffffffffffffffffffffffffffffffffffffff82169050919050565b6000611a02826119d7565b9050919050565b611a12816119f7565b82525050565b6000602082019050611a2d6000830184611a09565b92915050565b611a3c816119f7565b8114611a4757600080fd5b50565b600081359050611a5981611a33565b92915050565b60008060408385031215611a7657611a756117f4565b5b6000611a8485828601611a4a565b9250506020611a9585828601611995565b9150509250929050565b600080600060608486031215611ab857611ab76117f4565b5b6000611ac686828701611a4a565b9350506020611ad786828701611a4a565b9250506040611ae886828701611995565b9150509250925092565b600060ff82169050919050565b611b0881611af2565b82525050565b6000602082019050611b236000830184611aff565b92915050565b600060208284031215611b3f57611b3e6117f4565b5b6000611b4d84828501611a4a565b91505092915050565b611b5f81611974565b82525050565b6000602082019050611b7a6000830184611b56565b92915050565b611b8981611883565b8114611b9457600080fd5b50565b600081359050611ba681611b80565b92915050565b60008060408385031215611bc357611bc26117f4565b5b6000611bd185828601611a4a565b9250506020611be285828601611b97565b9150509250929050565b600080fd5b600080fd5b7f4e487b7100000000000000000000000000000000000000000000000000000000600052604160045260246000fd5b611c2e82611908565b810181811067ffffffffffffffff82111715611c4d57611c4c611bf6565b5b80604052505050565b6000611c606117ea565b9050611c6c8282611c25565b919050565b600067ffffffffffffffff821115611c8c57611c8b611bf6565b5b611c9582611908565b9050602081019050919050565b82818337600083830152505050565b6000611cc4611cbf84611c71565b611c56565b905082815260208101848484011115611ce057611cdf611bf1565b5b611ceb848285611ca2565b509392505050565b600082601f830112611d0857611d07611bec565b5b8135611d18848260208601611cb1565b91505092915050565b60008060008060808587031215611d3b57611d3a6117f4565b5b6000611d4987828801611a4a565b9450506020611d5a87828801611a4a565b9350506040611d6b87828801611995565b925050606085013567ffffffffffffffff811115611d8c57611d8b6117f9565b5b611d9887828801611cf3565b91505092959194509250565b60008060408385031215611dbb57611dba6117f4565b5b6000611dc985828601611a4a565b9250506020611dda85828601611a4a565b9150509250929050565b7f4e487b7100000000000000000000000000000000000000000000000000000000600052602260045260246000fd5b60006002820490506001821680611e2b57607f821691505b602082108103611e3e57611e3d611de4565b5b50919050565b7f4552433732313a20617070726f76616c20746f2063757272656e74206f776e6560008201527f7200000000000000000000000000000000000000000000000000000000000000602082015250565b6000611ea06021836118c4565b9150611eab82611e44565b604082019050919050565b60006020820190508181036000830152611ecf81611e93565b9050919050565b7f4552433732313a20617070726f76652063616c6c6572206973206e6f7420746f60008201527f6b656e206f776e6572206e6f7220617070726f76656420666f7220616c6c0000602082015250565b6000611f32603e836118c4565b9150611f3d82611ed6565b604082019050919050565b60006020820190508181036000830152611f6181611f25565b9050919050565b7f4552433732313a2063616c6c6572206973206e6f7420746f6b656e206f776e6560008201527f72206e6f7220617070726f766564000000000000000000000000000000000000602082015250565b6000611fc4602e836118c4565b9150611fcf82611f68565b604082019050919050565b60006020820190508181036000830152611ff381611fb7565b9050919050565b7f4e487b7100000000000000000000000000000000000000000000000000000000600052601160045260246000fd5b600061203482611af2565b915061203f83611af2565b92508260ff0382111561205557612054611ffa565b5b828201905092915050565b7f4552433732313a20696e76616c696420746f6b656e2049440000000000000000600082015250565b60006120966018836118c4565b91506120a182612060565b602082019050919050565b600060208201905081810360008301526120c581612089565b9050919050565b7f4552433732313a2061646472657373207a65726f206973206e6f74206120766160008201527f6c6964206f776e65720000000000000000000000000000000000000000000000602082015250565b60006121286029836118c4565b9150612133826120cc565b604082019050919050565b600060208201905081810360008301526121578161211b565b9050919050565b600061216982611af2565b915061217483611af2565b92508282101561218757612186611ffa565b5b828203905092915050565b600081905092915050565b60006121a8826118b9565b6121b28185612192565b93506121c28185602086016118d5565b80840191505092915050565b60006121da828561219d565b91506121e6828461219d565b91508190509392505050565b7f4552433732313a207472616e736665722066726f6d20696e636f72726563742060008201527f6f776e6572000000000000000000000000000000000000000000000000000000602082015250565b600061224e6025836118c4565b9150612259826121f2565b604082019050919050565b6000602082019050818103600083015261227d81612241565b9050919050565b7f4552433732313a207472616e7366657220746f20746865207a65726f2061646460008201527f7265737300000000000000000000000000000000000000000000000000000000602082015250565b60006122e06024836118c4565b91506122eb82612284565b604082019050919050565b6000602082019050818103600083015261230f816122d3565b9050919050565b600061232182611974565b915061232c83611974565b92508282101561233f5761233e611ffa565b5b828203905092915050565b600061235582611974565b915061236083611974565b9250827fffffffffffffffffffffffffffffffffffffffffffffffffffffffffffffffff0382111561239557612394611ffa565b5b828201905092915050565b7f4552433732313a206d696e7420746f20746865207a65726f2061646472657373600082015250565b60006123d66020836118c4565b91506123e1826123a0565b602082019050919050565b60006020820190508181036000830152612405816123c9565b9050919050565b7f4552433732313a20746f6b656e20616c7265616479206d696e74656400000000600082015250565b6000612442601c836118c4565b915061244d8261240c565b602082019050919050565b6000602082019050818103600083015261247181612435565b9050919050565b7f4552433732313a20617070726f766520746f2063616c6c657200000000000000600082015250565b60006124ae6019836118c4565b91506124b982612478565b602082019050919050565b600060208201905081810360008301526124dd816124a1565b9050919050565b7f4552433732313a207472616e7366657220746f206e6f6e20455243373231526560008201527f63656976657220696d706c656d656e7465720000000000000000000000000000602082015250565b60006125406032836118c4565b915061254b826124e4565b604082019050919050565b6000602082019050818103600083015261256f81612533565b9050919050565b600061258182611974565b91507fffffffffffffffffffffffffffffffffffffffffffffffffffffffffffffffff82036125b3576125b2611ffa565b5b600182019050919050565b7f4e487b7100000000000000000000000000000000000000000000000000000000600052601260045260246000fd5b60006125f882611974565b915061260383611974565b925082612613576126126125be565b5b828204905092915050565b600061262982611974565b915061263483611974565b925082612644576126436125be565b5b828206905092915050565b7f4e487b7100000000000000000000000000000000000000000000000000000000600052603260045260246000fd5b600081519050919050565b600082825260208201905092915050565b60006126a58261267e565b6126af8185612689565b93506126bf8185602086016118d5565b6126c881611908565b840191505092915050565b60006080820190506126e86000830187611a09565b6126f56020830186611a09565b6127026040830185611b56565b8181036060830152612714818461269a565b905095945050505050565b60008151905061272e8161182a565b92915050565b60006020828403121561274a576127496117f4565b5b60006127588482850161271f565b9150509291505056fea26469706673582212201b56174af4056880e9880994aa3990ba1b7b45f19be47d2a95a314bbab04e5a864736f6c634300080d0033",
					"opcodes": "PUSH1 0x80 PUSH1 0x40 MSTORE PUSH1 0x0 PUSH1 0x6 PUSH1 0x0 PUSH2 0x100 EXP DUP2 SLOAD DUP2 PUSH1 0xFF MUL NOT AND SWAP1 DUP4 PUSH1 0xFF AND MUL OR SWAP1 SSTORE POP PUSH1 0x64 PUSH1 0x6 PUSH1 0x1 PUSH2 0x100 EXP DUP2 SLOAD DUP2 PUSH1 0xFF MUL NOT AND SWAP1 DUP4 PUSH1 0xFF AND MUL OR SWAP1 SSTORE POP PUSH8 0x16345785D8A0000 PUSH1 0x7 SSTORE CALLVALUE DUP1 ISZERO PUSH3 0x55 JUMPI PUSH1 0x0 DUP1 REVERT JUMPDEST POP PUSH1 0x40 MLOAD DUP1 PUSH1 0x40 ADD PUSH1 0x40 MSTORE DUP1 PUSH1 0x8 DUP2 MSTORE PUSH1 0x20 ADD PUSH32 0x4761746564415050000000000000000000000000000000000000000000000000 DUP2 MSTORE POP PUSH1 0x40 MLOAD DUP1 PUSH1 0x40 ADD PUSH1 0x40 MSTORE DUP1 PUSH1 0x2 DUP2 MSTORE PUSH1 0x20 ADD PUSH32 0x4743000000000000000000000000000000000000000000000000000000000000 DUP2 MSTORE POP DUP2 PUSH1 0x0 SWAP1 DUP1 MLOAD SWAP1 PUSH1 0x20 ADD SWAP1 PUSH3 0xDA SWAP3 SWAP2 SWAP1 PUSH3 0xFC JUMP JUMPDEST POP DUP1 PUSH1 0x1 SWAP1 DUP1 MLOAD SWAP1 PUSH1 0x20 ADD SWAP1 PUSH3 0xF3 SWAP3 SWAP2 SWAP1 PUSH3 0xFC JUMP JUMPDEST POP POP POP PUSH3 0x210 JUMP JUMPDEST DUP3 DUP1 SLOAD PUSH3 0x10A SWAP1 PUSH3 0x1DB JUMP JUMPDEST SWAP1 PUSH1 0x0 MSTORE PUSH1 0x20 PUSH1 0x0 KECCAK256 SWAP1 PUSH1 0x1F ADD PUSH1 0x20 SWAP1 DIV DUP2 ADD SWAP3 DUP3 PUSH3 0x12E JUMPI PUSH1 0x0 DUP6 SSTORE PUSH3 0x17A JUMP JUMPDEST DUP3 PUSH1 0x1F LT PUSH3 0x149 JUMPI DUP1 MLOAD PUSH1 0xFF NOT AND DUP4 DUP1 ADD OR DUP6 SSTORE PUSH3 0x17A JUMP JUMPDEST DUP3 DUP1 ADD PUSH1 0x1 ADD DUP6 SSTORE DUP3 ISZERO PUSH3 0x17A JUMPI SWAP2 DUP3 ADD JUMPDEST DUP3 DUP2 GT ISZERO PUSH3 0x179 JUMPI DUP3 MLOAD DUP3 SSTORE SWAP2 PUSH1 0x20 ADD SWAP2 SWAP1 PUSH1 0x1 ADD SWAP1 PUSH3 0x15C JUMP JUMPDEST JUMPDEST POP SWAP1 POP PUSH3 0x189 SWAP2 SWAP1 PUSH3 0x18D JUMP JUMPDEST POP SWAP1 JUMP JUMPDEST JUMPDEST DUP1 DUP3 GT ISZERO PUSH3 0x1A8 JUMPI PUSH1 0x0 DUP2 PUSH1 0x0 SWAP1 SSTORE POP PUSH1 0x1 ADD PUSH3 0x18E JUMP JUMPDEST POP SWAP1 JUMP JUMPDEST PUSH32 0x4E487B7100000000000000000000000000000000000000000000000000000000 PUSH1 0x0 MSTORE PUSH1 0x22 PUSH1 0x4 MSTORE PUSH1 0x24 PUSH1 0x0 REVERT JUMPDEST PUSH1 0x0 PUSH1 0x2 DUP3 DIV SWAP1 POP PUSH1 0x1 DUP3 AND DUP1 PUSH3 0x1F4 JUMPI PUSH1 0x7F DUP3 AND SWAP2 POP JUMPDEST PUSH1 0x20 DUP3 LT DUP2 SUB PUSH3 0x20A JUMPI PUSH3 0x209 PUSH3 0x1AC JUMP JUMPDEST JUMPDEST POP SWAP2 SWAP1 POP JUMP JUMPDEST PUSH2 0x2797 DUP1 PUSH3 0x220 PUSH1 0x0 CODECOPY PUSH1 0x0 RETURN INVALID PUSH1 0x80 PUSH1 0x40 MSTORE PUSH1 0x4 CALLDATASIZE LT PUSH2 0x109 JUMPI PUSH1 0x0 CALLDATALOAD PUSH1 0xE0 SHR DUP1 PUSH4 0x70A08231 GT PUSH2 0x95 JUMPI DUP1 PUSH4 0xB88D4FDE GT PUSH2 0x64 JUMPI DUP1 PUSH4 0xB88D4FDE EQ PUSH2 0x370 JUMPI DUP1 PUSH4 0xC394F6CB EQ PUSH2 0x399 JUMPI DUP1 PUSH4 0xC87B56DD EQ PUSH2 0x3C4 JUMPI DUP1 PUSH4 0xE8315742 EQ PUSH2 0x401 JUMPI DUP1 PUSH4 0xE985E9C5 EQ PUSH2 0x42C JUMPI PUSH2 0x109 JUMP JUMPDEST DUP1 PUSH4 0x70A08231 EQ PUSH2 0x2B4 JUMPI DUP1 PUSH4 0x95D89B41 EQ PUSH2 0x2F1 JUMPI DUP1 PUSH4 0x9F181B5E EQ PUSH2 0x31C JUMPI DUP1 PUSH4 0xA22CB465 EQ PUSH2 0x347 JUMPI PUSH2 0x109 JUMP JUMPDEST DUP1 PUSH4 0x23B872DD GT PUSH2 0xDC JUMPI DUP1 PUSH4 0x23B872DD EQ PUSH2 0x1DC JUMPI DUP1 PUSH4 0x2CABBFE2 EQ PUSH2 0x205 JUMPI DUP1 PUSH4 0x42842E0E EQ PUSH2 0x230 JUMPI DUP1 PUSH4 0x4451D89F EQ PUSH2 0x259 JUMPI DUP1 PUSH4 0x6352211E EQ PUSH2 0x277 JUMPI PUSH2 0x109 JUMP JUMPDEST DUP1 PUSH4 0x1FFC9A7 EQ PUSH2 0x10E JUMPI DUP1 PUSH4 0x6FDDE03 EQ PUSH2 0x14B JUMPI DUP1 PUSH4 0x81812FC EQ PUSH2 0x176 JUMPI DUP1 PUSH4 0x95EA7B3 EQ PUSH2 0x1B3 JUMPI JUMPDEST PUSH1 0x0 DUP1 REVERT JUMPDEST CALLVALUE DUP1 ISZERO PUSH2 0x11A JUMPI PUSH1 0x0 DUP1 REVERT JUMPDEST POP PUSH2 0x135 PUSH1 0x4 DUP1 CALLDATASIZE SUB DUP2 ADD SWAP1 PUSH2 0x130 SWAP2 SWAP1 PUSH2 0x1856 JUMP JUMPDEST PUSH2 0x469 JUMP JUMPDEST PUSH1 0x40 MLOAD PUSH2 0x142 SWAP2 SWAP1 PUSH2 0x189E JUMP JUMPDEST PUSH1 0x40 MLOAD DUP1 SWAP2 SUB SWAP1 RETURN JUMPDEST CALLVALUE DUP1 ISZERO PUSH2 0x157 JUMPI PUSH1 0x0 DUP1 REVERT JUMPDEST POP PUSH2 0x160 PUSH2 0x54B JUMP JUMPDEST PUSH1 0x40 MLOAD PUSH2 0x16D SWAP2 SWAP1 PUSH2 0x1952 JUMP JUMPDEST PUSH1 0x40 MLOAD DUP1 SWAP2 SUB SWAP1 RETURN JUMPDEST CALLVALUE DUP1 ISZERO PUSH2 0x182 JUMPI PUSH1 0x0 DUP1 REVERT JUMPDEST POP PUSH2 0x19D PUSH1 0x4 DUP1 CALLDATASIZE SUB DUP2 ADD SWAP1 PUSH2 0x198 SWAP2 SWAP1 PUSH2 0x19AA JUMP JUMPDEST PUSH2 0x5DD JUMP JUMPDEST PUSH1 0x40 MLOAD PUSH2 0x1AA SWAP2 SWAP1 PUSH2 0x1A18 JUMP JUMPDEST PUSH1 0x40 MLOAD DUP1 SWAP2 SUB SWAP1 RETURN JUMPDEST CALLVALUE DUP1 ISZERO PUSH2 0x1BF JUMPI PUSH1 0x0 DUP1 REVERT JUMPDEST POP PUSH2 0x1DA PUSH1 0x4 DUP1 CALLDATASIZE SUB DUP2 ADD SWAP1 PUSH2 0x1D5 SWAP2 SWAP1 PUSH2 0x1A5F JUMP JUMPDEST PUSH2 0x623 JUMP JUMPDEST STOP JUMPDEST CALLVALUE DUP1 ISZERO PUSH2 0x1E8 JUMPI PUSH1 0x0 DUP1 REVERT JUMPDEST POP PUSH2 0x203 PUSH1 0x4 DUP1 CALLDATASIZE SUB DUP2 ADD SWAP1 PUSH2 0x1FE SWAP2 SWAP1 PUSH2 0x1A9F JUMP JUMPDEST PUSH2 0x73A JUMP JUMPDEST STOP JUMPDEST CALLVALUE DUP1 ISZERO PUSH2 0x211 JUMPI PUSH1 0x0 DUP1 REVERT JUMPDEST POP PUSH2 0x21A PUSH2 0x79A JUMP JUMPDEST PUSH1 0x40 MLOAD PUSH2 0x227 SWAP2 SWAP1 PUSH2 0x1B0E JUMP JUMPDEST PUSH1 0x40 MLOAD DUP1 SWAP2 SUB SWAP1 RETURN JUMPDEST CALLVALUE DUP1 ISZERO PUSH2 0x23C JUMPI PUSH1 0x0 DUP1 REVERT JUMPDEST POP PUSH2 0x257 PUSH1 0x4 DUP1 CALLDATASIZE SUB DUP2 ADD SWAP1 PUSH2 0x252 SWAP2 SWAP1 PUSH2 0x1A9F JUMP JUMPDEST PUSH2 0x7B1 JUMP JUMPDEST STOP JUMPDEST PUSH2 0x261 PUSH2 0x7D1 JUMP JUMPDEST PUSH1 0x40 MLOAD PUSH2 0x26E SWAP2 SWAP1 PUSH2 0x189E JUMP JUMPDEST PUSH1 0x40 MLOAD DUP1 SWAP2 SUB SWAP1 RETURN JUMPDEST CALLVALUE DUP1 ISZERO PUSH2 0x283 JUMPI PUSH1 0x0 DUP1 REVERT JUMPDEST POP PUSH2 0x29E PUSH1 0x4 DUP1 CALLDATASIZE SUB DUP2 ADD SWAP1 PUSH2 0x299 SWAP2 SWAP1 PUSH2 0x19AA JUMP JUMPDEST PUSH2 0x87C JUMP JUMPDEST PUSH1 0x40 MLOAD PUSH2 0x2AB SWAP2 SWAP1 PUSH2 0x1A18 JUMP JUMPDEST PUSH1 0x40 MLOAD DUP1 SWAP2 SUB SWAP1 RETURN JUMPDEST CALLVALUE DUP1 ISZERO PUSH2 0x2C0 JUMPI PUSH1 0x0 DUP1 REVERT JUMPDEST POP PUSH2 0x2DB PUSH1 0x4 DUP1 CALLDATASIZE SUB DUP2 ADD SWAP1 PUSH2 0x2D6 SWAP2 SWAP1 PUSH2 0x1B29 JUMP JUMPDEST PUSH2 0x92D JUMP JUMPDEST PUSH1 0x40 MLOAD PUSH2 0x2E8 SWAP2 SWAP1 PUSH2 0x1B65 JUMP JUMPDEST PUSH1 0x40 MLOAD DUP1 SWAP2 SUB SWAP1 RETURN JUMPDEST CALLVALUE DUP1 ISZERO PUSH2 0x2FD JUMPI PUSH1 0x0 DUP1 REVERT JUMPDEST POP PUSH2 0x306 PUSH2 0x9E4 JUMP JUMPDEST PUSH1 0x40 MLOAD PUSH2 0x313 SWAP2 SWAP1 PUSH2 0x1952 JUMP JUMPDEST PUSH1 0x40 MLOAD DUP1 SWAP2 SUB SWAP1 RETURN JUMPDEST CALLVALUE DUP1 ISZERO PUSH2 0x328 JUMPI PUSH1 0x0 DUP1 REVERT JUMPDEST POP PUSH2 0x331 PUSH2 0xA76 JUMP JUMPDEST PUSH1 0x40 MLOAD PUSH2 0x33E SWAP2 SWAP1 PUSH2 0x1B0E JUMP JUMPDEST PUSH1 0x40 MLOAD DUP1 SWAP2 SUB SWAP1 RETURN JUMPDEST CALLVALUE DUP1 ISZERO PUSH2 0x353 JUMPI PUSH1 0x0 DUP1 REVERT JUMPDEST POP PUSH2 0x36E PUSH1 0x4 DUP1 CALLDATASIZE SUB DUP2 ADD SWAP1 PUSH2 0x369 SWAP2 SWAP1 PUSH2 0x1BAC JUMP JUMPDEST PUSH2 0xA89 JUMP JUMPDEST STOP JUMPDEST CALLVALUE DUP1 ISZERO PUSH2 0x37C JUMPI PUSH1 0x0 DUP1 REVERT JUMPDEST POP PUSH2 0x397 PUSH1 0x4 DUP1 CALLDATASIZE SUB DUP2 ADD SWAP1 PUSH2 0x392 SWAP2 SWAP1 PUSH2 0x1D21 JUMP JUMPDEST PUSH2 0xA9F JUMP JUMPDEST STOP JUMPDEST CALLVALUE DUP1 ISZERO PUSH2 0x3A5 JUMPI PUSH1 0x0 DUP1 REVERT JUMPDEST POP PUSH2 0x3AE PUSH2 0xB01 JUMP JUMPDEST PUSH1 0x40 MLOAD PUSH2 0x3BB SWAP2 SWAP1 PUSH2 0x1B0E JUMP JUMPDEST PUSH1 0x40 MLOAD DUP1 SWAP2 SUB SWAP1 RETURN JUMPDEST CALLVALUE DUP1 ISZERO PUSH2 0x3D0 JUMPI PUSH1 0x0 DUP1 REVERT JUMPDEST POP PUSH2 0x3EB PUSH1 0x4 DUP1 CALLDATASIZE SUB DUP2 ADD SWAP1 PUSH2 0x3E6 SWAP2 SWAP1 PUSH2 0x19AA JUMP JUMPDEST PUSH2 0xB32 JUMP JUMPDEST PUSH1 0x40 MLOAD PUSH2 0x3F8 SWAP2 SWAP1 PUSH2 0x1952 JUMP JUMPDEST PUSH1 0x40 MLOAD DUP1 SWAP2 SUB SWAP1 RETURN JUMPDEST CALLVALUE DUP1 ISZERO PUSH2 0x40D JUMPI PUSH1 0x0 DUP1 REVERT JUMPDEST POP PUSH2 0x416 PUSH2 0xB9A JUMP JUMPDEST PUSH1 0x40 MLOAD PUSH2 0x423 SWAP2 SWAP1 PUSH2 0x1B0E JUMP JUMPDEST PUSH1 0x40 MLOAD DUP1 SWAP2 SUB SWAP1 RETURN JUMPDEST CALLVALUE DUP1 ISZERO PUSH2 0x438 JUMPI PUSH1 0x0 DUP1 REVERT JUMPDEST POP PUSH2 0x453 PUSH1 0x4 DUP1 CALLDATASIZE SUB DUP2 ADD SWAP1 PUSH2 0x44E SWAP2 SWAP1 PUSH2 0x1DA4 JUMP JUMPDEST PUSH2 0xBAD JUMP JUMPDEST PUSH1 0x40 MLOAD PUSH2 0x460 SWAP2 SWAP1 PUSH2 0x189E JUMP JUMPDEST PUSH1 0x40 MLOAD DUP1 SWAP2 SUB SWAP1 RETURN JUMPDEST PUSH1 0x0 PUSH32 0x80AC58CD00000000000000000000000000000000000000000000000000000000 PUSH28 0xFFFFFFFFFFFFFFFFFFFFFFFFFFFFFFFFFFFFFFFFFFFFFFFFFFFFFFFF NOT AND DUP3 PUSH28 0xFFFFFFFFFFFFFFFFFFFFFFFFFFFFFFFFFFFFFFFFFFFFFFFFFFFFFFFF NOT AND EQ DUP1 PUSH2 0x534 JUMPI POP PUSH32 0x5B5E139F00000000000000000000000000000000000000000000000000000000 PUSH28 0xFFFFFFFFFFFFFFFFFFFFFFFFFFFFFFFFFFFFFFFFFFFFFFFFFFFFFFFF NOT AND DUP3 PUSH28 0xFFFFFFFFFFFFFFFFFFFFFFFFFFFFFFFFFFFFFFFFFFFFFFFFFFFFFFFF NOT AND EQ JUMPDEST DUP1 PUSH2 0x544 JUMPI POP PUSH2 0x543 DUP3 PUSH2 0xC41 JUMP JUMPDEST JUMPDEST SWAP1 POP SWAP2 SWAP1 POP JUMP JUMPDEST PUSH1 0x60 PUSH1 0x0 DUP1 SLOAD PUSH2 0x55A SWAP1 PUSH2 0x1E13 JUMP JUMPDEST DUP1 PUSH1 0x1F ADD PUSH1 0x20 DUP1 SWAP2 DIV MUL PUSH1 0x20 ADD PUSH1 0x40 MLOAD SWAP1 DUP2 ADD PUSH1 0x40 MSTORE DUP1 SWAP3 SWAP2 SWAP1 DUP2 DUP2 MSTORE PUSH1 0x20 ADD DUP3 DUP1 SLOAD PUSH2 0x586 SWAP1 PUSH2 0x1E13 JUMP JUMPDEST DUP1 ISZERO PUSH2 0x5D3 JUMPI DUP1 PUSH1 0x1F LT PUSH2 0x5A8 JUMPI PUSH2 0x100 DUP1 DUP4 SLOAD DIV MUL DUP4 MSTORE SWAP2 PUSH1 0x20 ADD SWAP2 PUSH2 0x5D3 JUMP JUMPDEST DUP3 ADD SWAP2 SWAP1 PUSH1 0x0 MSTORE PUSH1 0x20 PUSH1 0x0 KECCAK256 SWAP1 JUMPDEST DUP2 SLOAD DUP2 MSTORE SWAP1 PUSH1 0x1 ADD SWAP1 PUSH1 0x20 ADD DUP1 DUP4 GT PUSH2 0x5B6 JUMPI DUP3 SWAP1 SUB PUSH1 0x1F AND DUP3 ADD SWAP2 JUMPDEST POP POP POP POP POP SWAP1 POP SWAP1 JUMP JUMPDEST PUSH1 0x0 PUSH2 0x5E8 DUP3 PUSH2 0xCAB JUMP JUMPDEST PUSH1 0x4 PUSH1 0x0 DUP4 DUP2 MSTORE PUSH1 0x20 ADD SWAP1 DUP2 MSTORE PUSH1 0x20 ADD PUSH1 0x0 KECCAK256 PUSH1 0x0 SWAP1 SLOAD SWAP1 PUSH2 0x100 EXP SWAP1 DIV PUSH20 0xFFFFFFFFFFFFFFFFFFFFFFFFFFFFFFFFFFFFFFFF AND SWAP1 POP SWAP2 SWAP1 POP JUMP JUMPDEST PUSH1 0x0 PUSH2 0x62E DUP3 PUSH2 0x87C JUMP JUMPDEST SWAP1 POP DUP1 PUSH20 0xFFFFFFFFFFFFFFFFFFFFFFFFFFFFFFFFFFFFFFFF AND DUP4 PUSH20 0xFFFFFFFFFFFFFFFFFFFFFFFFFFFFFFFFFFFFFFFF AND SUB PUSH2 0x69E JUMPI PUSH1 0x40 MLOAD PUSH32 0x8C379A000000000000000000000000000000000000000000000000000000000 DUP2 MSTORE PUSH1 0x4 ADD PUSH2 0x695 SWAP1 PUSH2 0x1EB6 JUMP JUMPDEST PUSH1 0x40 MLOAD DUP1 SWAP2 SUB SWAP1 REVERT JUMPDEST DUP1 PUSH20 0xFFFFFFFFFFFFFFFFFFFFFFFFFFFFFFFFFFFFFFFF AND PUSH2 0x6BD PUSH2 0xCF6 JUMP JUMPDEST PUSH20 0xFFFFFFFFFFFFFFFFFFFFFFFFFFFFFFFFFFFFFFFF AND EQ DUP1 PUSH2 0x6EC JUMPI POP PUSH2 0x6EB DUP2 PUSH2 0x6E6 PUSH2 0xCF6 JUMP JUMPDEST PUSH2 0xBAD JUMP JUMPDEST JUMPDEST PUSH2 0x72B JUMPI PUSH1 0x40 MLOAD PUSH32 0x8C379A000000000000000000000000000000000000000000000000000000000 DUP2 MSTORE PUSH1 0x4 ADD PUSH2 0x722 SWAP1 PUSH2 0x1F48 JUMP JUMPDEST PUSH1 0x40 MLOAD DUP1 SWAP2 SUB SWAP1 REVERT JUMPDEST PUSH2 0x735 DUP4 DUP4 PUSH2 0xCFE JUMP JUMPDEST POP POP POP JUMP JUMPDEST PUSH2 0x74B PUSH2 0x745 PUSH2 0xCF6 JUMP JUMPDEST DUP3 PUSH2 0xDB7 JUMP JUMPDEST PUSH2 0x78A JUMPI PUSH1 0x40 MLOAD PUSH32 0x8C379A000000000000000000000000000000000000000000000000000000000 DUP2 MSTORE PUSH1 0x4 ADD PUSH2 0x781 SWAP1 PUSH2 0x1FDA JUMP JUMPDEST PUSH1 0x40 MLOAD DUP1 SWAP2 SUB SWAP1 REVERT JUMPDEST PUSH2 0x795 DUP4 DUP4 DUP4 PUSH2 0xE4C JUMP JUMPDEST POP POP POP JUMP JUMPDEST PUSH1 0x0 PUSH1 0x6 PUSH1 0x0 SWAP1 SLOAD SWAP1 PUSH2 0x100 EXP SWAP1 DIV PUSH1 0xFF AND SWAP1 POP SWAP1 JUMP JUMPDEST PUSH2 0x7CC DUP4 DUP4 DUP4 PUSH1 0x40 MLOAD DUP1 PUSH1 0x20 ADD PUSH1 0x40 MSTORE DUP1 PUSH1 0x0 DUP2 MSTORE POP PUSH2 0xA9F JUMP JUMPDEST POP POP POP JUMP JUMPDEST PUSH1 0x0 PUSH1 0x7 SLOAD CALLVALUE EQ PUSH2 0x7E1 JUMPI PUSH1 0x0 DUP1 REVERT JUMPDEST PUSH1 0x6 PUSH1 0x1 SWAP1 SLOAD SWAP1 PUSH2 0x100 EXP SWAP1 DIV PUSH1 0xFF AND PUSH1 0xFF AND PUSH1 0x6 PUSH1 0x0 SWAP1 SLOAD SWAP1 PUSH2 0x100 EXP SWAP1 DIV PUSH1 0xFF AND PUSH1 0xFF AND LT DUP1 ISZERO PUSH2 0x81C JUMPI POP PUSH1 0x0 PUSH2 0x81A CALLER PUSH2 0x92D JUMP JUMPDEST EQ JUMPDEST ISZERO PUSH2 0x875 JUMPI PUSH2 0x83D CALLER PUSH1 0x6 PUSH1 0x0 SWAP1 SLOAD SWAP1 PUSH2 0x100 EXP SWAP1 DIV PUSH1 0xFF AND PUSH1 0xFF AND PUSH2 0x10B2 JUMP JUMPDEST PUSH1 0x1 PUSH1 0x6 PUSH1 0x0 DUP3 DUP3 DUP3 SWAP1 SLOAD SWAP1 PUSH2 0x100 EXP SWAP1 DIV PUSH1 0xFF AND PUSH2 0x85C SWAP2 SWAP1 PUSH2 0x2029 JUMP JUMPDEST SWAP3 POP PUSH2 0x100 EXP DUP2 SLOAD DUP2 PUSH1 0xFF MUL NOT AND SWAP1 DUP4 PUSH1 0xFF AND MUL OR SWAP1 SSTORE POP JUMPDEST PUSH1 0x1 SWAP1 POP SWAP1 JUMP JUMPDEST PUSH1 0x0 DUP1 PUSH1 0x2 PUSH1 0x0 DUP5 DUP2 MSTORE PUSH1 0x20 ADD SWAP1 DUP2 MSTORE PUSH1 0x20 ADD PUSH1 0x0 KECCAK256 PUSH1 0x0 SWAP1 SLOAD SWAP1 PUSH2 0x100 EXP SWAP1 DIV PUSH20 0xFFFFFFFFFFFFFFFFFFFFFFFFFFFFFFFFFFFFFFFF AND SWAP1 POP PUSH1 0x0 PUSH20 0xFFFFFFFFFFFFFFFFFFFFFFFFFFFFFFFFFFFFFFFF AND DUP2 PUSH20 0xFFFFFFFFFFFFFFFFFFFFFFFFFFFFFFFFFFFFFFFF AND SUB PUSH2 0x924 JUMPI PUSH1 0x40 MLOAD PUSH32 0x8C379A000000000000000000000000000000000000000000000000000000000 DUP2 MSTORE PUSH1 0x4 ADD PUSH2 0x91B SWAP1 PUSH2 0x20AC JUMP JUMPDEST PUSH1 0x40 MLOAD DUP1 SWAP2 SUB SWAP1 REVERT JUMPDEST DUP1 SWAP2 POP POP SWAP2 SWAP1 POP JUMP JUMPDEST PUSH1 0x0 DUP1 PUSH20 0xFFFFFFFFFFFFFFFFFFFFFFFFFFFFFFFFFFFFFFFF AND DUP3 PUSH20 0xFFFFFFFFFFFFFFFFFFFFFFFFFFFFFFFFFFFFFFFF AND SUB PUSH2 0x99D JUMPI PUSH1 0x40 MLOAD PUSH32 0x8C379A000000000000000000000000000000000000000000000000000000000 DUP2 MSTORE PUSH1 0x4 ADD PUSH2 0x994 SWAP1 PUSH2 0x213E JUMP JUMPDEST PUSH1 0x40 MLOAD DUP1 SWAP2 SUB SWAP1 REVERT JUMPDEST PUSH1 0x3 PUSH1 0x0 DUP4 PUSH20 0xFFFFFFFFFFFFFFFFFFFFFFFFFFFFFFFFFFFFFFFF AND PUSH20 0xFFFFFFFFFFFFFFFFFFFFFFFFFFFFFFFFFFFFFFFF AND DUP2 MSTORE PUSH1 0x20 ADD SWAP1 DUP2 MSTORE PUSH1 0x20 ADD PUSH1 0x0 KECCAK256 SLOAD SWAP1 POP SWAP2 SWAP1 POP JUMP JUMPDEST PUSH1 0x60 PUSH1 0x1 DUP1 SLOAD PUSH2 0x9F3 SWAP1 PUSH2 0x1E13 JUMP JUMPDEST DUP1 PUSH1 0x1F ADD PUSH1 0x20 DUP1 SWAP2 DIV MUL PUSH1 0x20 ADD PUSH1 0x40 MLOAD SWAP1 DUP2 ADD PUSH1 0x40 MSTORE DUP1 SWAP3 SWAP2 SWAP1 DUP2 DUP2 MSTORE PUSH1 0x20 ADD DUP3 DUP1 SLOAD PUSH2 0xA1F SWAP1 PUSH2 0x1E13 JUMP JUMPDEST DUP1 ISZERO PUSH2 0xA6C JUMPI DUP1 PUSH1 0x1F LT PUSH2 0xA41 JUMPI PUSH2 0x100 DUP1 DUP4 SLOAD DIV MUL DUP4 MSTORE SWAP2 PUSH1 0x20 ADD SWAP2 PUSH2 0xA6C JUMP JUMPDEST DUP3 ADD SWAP2 SWAP1 PUSH1 0x0 MSTORE PUSH1 0x20 PUSH1 0x0 KECCAK256 SWAP1 JUMPDEST DUP2 SLOAD DUP2 MSTORE SWAP1 PUSH1 0x1 ADD SWAP1 PUSH1 0x20 ADD DUP1 DUP4 GT PUSH2 0xA4F JUMPI DUP3 SWAP1 SUB PUSH1 0x1F AND DUP3 ADD SWAP2 JUMPDEST POP POP POP POP POP SWAP1 POP SWAP1 JUMP JUMPDEST PUSH1 0x6 PUSH1 0x0 SWAP1 SLOAD SWAP1 PUSH2 0x100 EXP SWAP1 DIV PUSH1 0xFF AND DUP2 JUMP JUMPDEST PUSH2 0xA9B PUSH2 0xA94 PUSH2 0xCF6 JUMP JUMPDEST DUP4 DUP4 PUSH2 0x128B JUMP JUMPDEST POP POP JUMP JUMPDEST PUSH2 0xAB0 PUSH2 0xAAA PUSH2 0xCF6 JUMP JUMPDEST DUP4 PUSH2 0xDB7 JUMP JUMPDEST PUSH2 0xAEF JUMPI PUSH1 0x40 MLOAD PUSH32 0x8C379A000000000000000000000000000000000000000000000000000000000 DUP2 MSTORE PUSH1 0x4 ADD PUSH2 0xAE6 SWAP1 PUSH2 0x1FDA JUMP JUMPDEST PUSH1 0x40 MLOAD DUP1 SWAP2 SUB SWAP1 REVERT JUMPDEST PUSH2 0xAFB DUP5 DUP5 DUP5 DUP5 PUSH2 0x13F7 JUMP JUMPDEST POP POP POP POP JUMP JUMPDEST PUSH1 0x0 PUSH1 0x6 PUSH1 0x0 SWAP1 SLOAD SWAP1 PUSH2 0x100 EXP SWAP1 DIV PUSH1 0xFF AND PUSH1 0x6 PUSH1 0x1 SWAP1 SLOAD SWAP1 PUSH2 0x100 EXP SWAP1 DIV PUSH1 0xFF AND PUSH2 0xB2D SWAP2 SWAP1 PUSH2 0x215E JUMP JUMPDEST SWAP1 POP SWAP1 JUMP JUMPDEST PUSH1 0x60 PUSH2 0xB3D DUP3 PUSH2 0xCAB JUMP JUMPDEST PUSH1 0x0 PUSH2 0xB47 PUSH2 0x1453 JUMP JUMPDEST SWAP1 POP PUSH1 0x0 DUP2 MLOAD GT PUSH2 0xB67 JUMPI PUSH1 0x40 MLOAD DUP1 PUSH1 0x20 ADD PUSH1 0x40 MSTORE DUP1 PUSH1 0x0 DUP2 MSTORE POP PUSH2 0xB92 JUMP JUMPDEST DUP1 PUSH2 0xB71 DUP5 PUSH2 0x146A JUMP JUMPDEST PUSH1 0x40 MLOAD PUSH1 0x20 ADD PUSH2 0xB82 SWAP3 SWAP2 SWAP1 PUSH2 0x21CE JUMP JUMPDEST PUSH1 0x40 MLOAD PUSH1 0x20 DUP2 DUP4 SUB SUB DUP2 MSTORE SWAP1 PUSH1 0x40 MSTORE JUMPDEST SWAP2 POP POP SWAP2 SWAP1 POP JUMP JUMPDEST PUSH1 0x6 PUSH1 0x1 SWAP1 SLOAD SWAP1 PUSH2 0x100 EXP SWAP1 DIV PUSH1 0xFF AND DUP2 JUMP JUMPDEST PUSH1 0x0 PUSH1 0x5 PUSH1 0x0 DUP5 PUSH20 0xFFFFFFFFFFFFFFFFFFFFFFFFFFFFFFFFFFFFFFFF AND PUSH20 0xFFFFFFFFFFFFFFFFFFFFFFFFFFFFFFFFFFFFFFFF AND DUP2 MSTORE PUSH1 0x20 ADD SWAP1 DUP2 MSTORE PUSH1 0x20 ADD PUSH1 0x0 KECCAK256 PUSH1 0x0 DUP4 PUSH20 0xFFFFFFFFFFFFFFFFFFFFFFFFFFFFFFFFFFFFFFFF AND PUSH20 0xFFFFFFFFFFFFFFFFFFFFFFFFFFFFFFFFFFFFFFFF AND DUP2 MSTORE PUSH1 0x20 ADD SWAP1 DUP2 MSTORE PUSH1 0x20 ADD PUSH1 0x0 KECCAK256 PUSH1 0x0 SWAP1 SLOAD SWAP1 PUSH2 0x100 EXP SWAP1 DIV PUSH1 0xFF AND SWAP1 POP SWAP3 SWAP2 POP POP JUMP JUMPDEST PUSH1 0x0 PUSH32 0x1FFC9A700000000000000000000000000000000000000000000000000000000 PUSH28 0xFFFFFFFFFFFFFFFFFFFFFFFFFFFFFFFFFFFFFFFFFFFFFFFFFFFFFFFF NOT AND DUP3 PUSH28 0xFFFFFFFFFFFFFFFFFFFFFFFFFFFFFFFFFFFFFFFFFFFFFFFFFFFFFFFF NOT AND EQ SWAP1 POP SWAP2 SWAP1 POP JUMP JUMPDEST PUSH2 0xCB4 DUP2 PUSH2 0x15CA JUMP JUMPDEST PUSH2 0xCF3 JUMPI PUSH1 0x40 MLOAD PUSH32 0x8C379A000000000000000000000000000000000000000000000000000000000 DUP2 MSTORE PUSH1 0x4 ADD PUSH2 0xCEA SWAP1 PUSH2 0x20AC JUMP JUMPDEST PUSH1 0x40 MLOAD DUP1 SWAP2 SUB SWAP1 REVERT JUMPDEST POP JUMP JUMPDEST PUSH1 0x0 CALLER SWAP1 POP SWAP1 JUMP JUMPDEST DUP2 PUSH1 0x4 PUSH1 0x0 DUP4 DUP2 MSTORE PUSH1 0x20 ADD SWAP1 DUP2 MSTORE PUSH1 0x20 ADD PUSH1 0x0 KECCAK256 PUSH1 0x0 PUSH2 0x100 EXP DUP2 SLOAD DUP2 PUSH20 0xFFFFFFFFFFFFFFFFFFFFFFFFFFFFFFFFFFFFFFFF MUL NOT AND SWAP1 DUP4 PUSH20 0xFFFFFFFFFFFFFFFFFFFFFFFFFFFFFFFFFFFFFFFF AND MUL OR SWAP1 SSTORE POP DUP1 DUP3 PUSH20 0xFFFFFFFFFFFFFFFFFFFFFFFFFFFFFFFFFFFFFFFF AND PUSH2 0xD71 DUP4 PUSH2 0x87C JUMP JUMPDEST PUSH20 0xFFFFFFFFFFFFFFFFFFFFFFFFFFFFFFFFFFFFFFFF AND PUSH32 0x8C5BE1E5EBEC7D5BD14F71427D1E84F3DD0314C0F7B2291E5B200AC8C7C3B925 PUSH1 0x40 MLOAD PUSH1 0x40 MLOAD DUP1 SWAP2 SUB SWAP1 LOG4 POP POP JUMP JUMPDEST PUSH1 0x0 DUP1 PUSH2 0xDC3 DUP4 PUSH2 0x87C JUMP JUMPDEST SWAP1 POP DUP1 PUSH20 0xFFFFFFFFFFFFFFFFFFFFFFFFFFFFFFFFFFFFFFFF AND DUP5 PUSH20 0xFFFFFFFFFFFFFFFFFFFFFFFFFFFFFFFFFFFFFFFF AND EQ DUP1 PUSH2 0xE05 JUMPI POP PUSH2 0xE04 DUP2 DUP6 PUSH2 0xBAD JUMP JUMPDEST JUMPDEST DUP1 PUSH2 0xE43 JUMPI POP DUP4 PUSH20 0xFFFFFFFFFFFFFFFFFFFFFFFFFFFFFFFFFFFFFFFF AND PUSH2 0xE2B DUP5 PUSH2 0x5DD JUMP JUMPDEST PUSH20 0xFFFFFFFFFFFFFFFFFFFFFFFFFFFFFFFFFFFFFFFF AND EQ JUMPDEST SWAP2 POP POP SWAP3 SWAP2 POP POP JUMP JUMPDEST DUP3 PUSH20 0xFFFFFFFFFFFFFFFFFFFFFFFFFFFFFFFFFFFFFFFF AND PUSH2 0xE6C DUP3 PUSH2 0x87C JUMP JUMPDEST PUSH20 0xFFFFFFFFFFFFFFFFFFFFFFFFFFFFFFFFFFFFFFFF AND EQ PUSH2 0xEC2 JUMPI PUSH1 0x40 MLOAD PUSH32 0x8C379A000000000000000000000000000000000000000000000000000000000 DUP2 MSTORE PUSH1 0x4 ADD PUSH2 0xEB9 SWAP1 PUSH2 0x2264 JUMP JUMPDEST PUSH1 0x40 MLOAD DUP1 SWAP2 SUB SWAP1 REVERT JUMPDEST PUSH1 0x0 PUSH20 0xFFFFFFFFFFFFFFFFFFFFFFFFFFFFFFFFFFFFFFFF AND DUP3 PUSH20 0xFFFFFFFFFFFFFFFFFFFFFFFFFFFFFFFFFFFFFFFF AND SUB PUSH2 0xF31 JUMPI PUSH1 0x40 MLOAD PUSH32 0x8C379A000000000000000000000000000000000000000000000000000000000 DUP2 MSTORE PUSH1 0x4 ADD PUSH2 0xF28 SWAP1 PUSH2 0x22F6 JUMP JUMPDEST PUSH1 0x40 MLOAD DUP1 SWAP2 SUB SWAP1 REVERT JUMPDEST PUSH2 0xF3C DUP4 DUP4 DUP4 PUSH2 0x1636 JUMP JUMPDEST PUSH2 0xF47 PUSH1 0x0 DUP3 PUSH2 0xCFE JUMP JUMPDEST PUSH1 0x1 PUSH1 0x3 PUSH1 0x0 DUP6 PUSH20 0xFFFFFFFFFFFFFFFFFFFFFFFFFFFFFFFFFFFFFFFF AND PUSH20 0xFFFFFFFFFFFFFFFFFFFFFFFFFFFFFFFFFFFFFFFF AND DUP2 MSTORE PUSH1 0x20 ADD SWAP1 DUP2 MSTORE PUSH1 0x20 ADD PUSH1 0x0 KECCAK256 PUSH1 0x0 DUP3 DUP3 SLOAD PUSH2 0xF97 SWAP2 SWAP1 PUSH2 0x2316 JUMP JUMPDEST SWAP3 POP POP DUP2 SWAP1 SSTORE POP PUSH1 0x1 PUSH1 0x3 PUSH1 0x0 DUP5 PUSH20 0xFFFFFFFFFFFFFFFFFFFFFFFFFFFFFFFFFFFFFFFF AND PUSH20 0xFFFFFFFFFFFFFFFFFFFFFFFFFFFFFFFFFFFFFFFF AND DUP2 MSTORE PUSH1 0x20 ADD SWAP1 DUP2 MSTORE PUSH1 0x20 ADD PUSH1 0x0 KECCAK256 PUSH1 0x0 DUP3 DUP3 SLOAD PUSH2 0xFEE SWAP2 SWAP1 PUSH2 0x234A JUMP JUMPDEST SWAP3 POP POP DUP2 SWAP1 SSTORE POP DUP2 PUSH1 0x2 PUSH1 0x0 DUP4 DUP2 MSTORE PUSH1 0x20 ADD SWAP1 DUP2 MSTORE PUSH1 0x20 ADD PUSH1 0x0 KECCAK256 PUSH1 0x0 PUSH2 0x100 EXP DUP2 SLOAD DUP2 PUSH20 0xFFFFFFFFFFFFFFFFFFFFFFFFFFFFFFFFFFFFFFFF MUL NOT AND SWAP1 DUP4 PUSH20 0xFFFFFFFFFFFFFFFFFFFFFFFFFFFFFFFFFFFFFFFF AND MUL OR SWAP1 SSTORE POP DUP1 DUP3 PUSH20 0xFFFFFFFFFFFFFFFFFFFFFFFFFFFFFFFFFFFFFFFF AND DUP5 PUSH20 0xFFFFFFFFFFFFFFFFFFFFFFFFFFFFFFFFFFFFFFFF AND PUSH32 0xDDF252AD1BE2C89B69C2B068FC378DAA952BA7F163C4A11628F55A4DF523B3EF PUSH1 0x40 MLOAD PUSH1 0x40 MLOAD DUP1 SWAP2 SUB SWAP1 LOG4 PUSH2 0x10AD DUP4 DUP4 DUP4 PUSH2 0x163B JUMP JUMPDEST POP POP POP JUMP JUMPDEST PUSH1 0x0 PUSH20 0xFFFFFFFFFFFFFFFFFFFFFFFFFFFFFFFFFFFFFFFF AND DUP3 PUSH20 0xFFFFFFFFFFFFFFFFFFFFFFFFFFFFFFFFFFFFFFFF AND SUB PUSH2 0x1121 JUMPI PUSH1 0x40 MLOAD PUSH32 0x8C379A000000000000000000000000000000000000000000000000000000000 DUP2 MSTORE PUSH1 0x4 ADD PUSH2 0x1118 SWAP1 PUSH2 0x23EC JUMP JUMPDEST PUSH1 0x40 MLOAD DUP1 SWAP2 SUB SWAP1 REVERT JUMPDEST PUSH2 0x112A DUP2 PUSH2 0x15CA JUMP JUMPDEST ISZERO PUSH2 0x116A JUMPI PUSH1 0x40 MLOAD PUSH32 0x8C379A000000000000000000000000000000000000000000000000000000000 DUP2 MSTORE PUSH1 0x4 ADD PUSH2 0x1161 SWAP1 PUSH2 0x2458 JUMP JUMPDEST PUSH1 0x40 MLOAD DUP1 SWAP2 SUB SWAP1 REVERT JUMPDEST PUSH2 0x1176 PUSH1 0x0 DUP4 DUP4 PUSH2 0x1636 JUMP JUMPDEST PUSH1 0x1 PUSH1 0x3 PUSH1 0x0 DUP5 PUSH20 0xFFFFFFFFFFFFFFFFFFFFFFFFFFFFFFFFFFFFFFFF AND PUSH20 0xFFFFFFFFFFFFFFFFFFFFFFFFFFFFFFFFFFFFFFFF AND DUP2 MSTORE PUSH1 0x20 ADD SWAP1 DUP2 MSTORE PUSH1 0x20 ADD PUSH1 0x0 KECCAK256 PUSH1 0x0 DUP3 DUP3 SLOAD PUSH2 0x11C6 SWAP2 SWAP1 PUSH2 0x234A JUMP JUMPDEST SWAP3 POP POP DUP2 SWAP1 SSTORE POP DUP2 PUSH1 0x2 PUSH1 0x0 DUP4 DUP2 MSTORE PUSH1 0x20 ADD SWAP1 DUP2 MSTORE PUSH1 0x20 ADD PUSH1 0x0 KECCAK256 PUSH1 0x0 PUSH2 0x100 EXP DUP2 SLOAD DUP2 PUSH20 0xFFFFFFFFFFFFFFFFFFFFFFFFFFFFFFFFFFFFFFFF MUL NOT AND SWAP1 DUP4 PUSH20 0xFFFFFFFFFFFFFFFFFFFFFFFFFFFFFFFFFFFFFFFF AND MUL OR SWAP1 SSTORE POP DUP1 DUP3 PUSH20 0xFFFFFFFFFFFFFFFFFFFFFFFFFFFFFFFFFFFFFFFF AND PUSH1 0x0 PUSH20 0xFFFFFFFFFFFFFFFFFFFFFFFFFFFFFFFFFFFFFFFF AND PUSH32 0xDDF252AD1BE2C89B69C2B068FC378DAA952BA7F163C4A11628F55A4DF523B3EF PUSH1 0x40 MLOAD PUSH1 0x40 MLOAD DUP1 SWAP2 SUB SWAP1 LOG4 PUSH2 0x1287 PUSH1 0x0 DUP4 DUP4 PUSH2 0x163B JUMP JUMPDEST POP POP JUMP JUMPDEST DUP2 PUSH20 0xFFFFFFFFFFFFFFFFFFFFFFFFFFFFFFFFFFFFFFFF AND DUP4 PUSH20 0xFFFFFFFFFFFFFFFFFFFFFFFFFFFFFFFFFFFFFFFF AND SUB PUSH2 0x12F9 JUMPI PUSH1 0x40 MLOAD PUSH32 0x8C379A000000000000000000000000000000000000000000000000000000000 DUP2 MSTORE PUSH1 0x4 ADD PUSH2 0x12F0 SWAP1 PUSH2 0x24C4 JUMP JUMPDEST PUSH1 0x40 MLOAD DUP1 SWAP2 SUB SWAP1 REVERT JUMPDEST DUP1 PUSH1 0x5 PUSH1 0x0 DUP6 PUSH20 0xFFFFFFFFFFFFFFFFFFFFFFFFFFFFFFFFFFFFFFFF AND PUSH20 0xFFFFFFFFFFFFFFFFFFFFFFFFFFFFFFFFFFFFFFFF AND DUP2 MSTORE PUSH1 0x20 ADD SWAP1 DUP2 MSTORE PUSH1 0x20 ADD PUSH1 0x0 KECCAK256 PUSH1 0x0 DUP5 PUSH20 0xFFFFFFFFFFFFFFFFFFFFFFFFFFFFFFFFFFFFFFFF AND PUSH20 0xFFFFFFFFFFFFFFFFFFFFFFFFFFFFFFFFFFFFFFFF AND DUP2 MSTORE PUSH1 0x20 ADD SWAP1 DUP2 MSTORE PUSH1 0x20 ADD PUSH1 0x0 KECCAK256 PUSH1 0x0 PUSH2 0x100 EXP DUP2 SLOAD DUP2 PUSH1 0xFF MUL NOT AND SWAP1 DUP4 ISZERO ISZERO MUL OR SWAP1 SSTORE POP DUP2 PUSH20 0xFFFFFFFFFFFFFFFFFFFFFFFFFFFFFFFFFFFFFFFF AND DUP4 PUSH20 0xFFFFFFFFFFFFFFFFFFFFFFFFFFFFFFFFFFFFFFFF AND PUSH32 0x17307EAB39AB6107E8899845AD3D59BD9653F200F220920489CA2B5937696C31 DUP4 PUSH1 0x40 MLOAD PUSH2 0x13EA SWAP2 SWAP1 PUSH2 0x189E JUMP JUMPDEST PUSH1 0x40 MLOAD DUP1 SWAP2 SUB SWAP1 LOG3 POP POP POP JUMP JUMPDEST PUSH2 0x1402 DUP5 DUP5 DUP5 PUSH2 0xE4C JUMP JUMPDEST PUSH2 0x140E DUP5 DUP5 DUP5 DUP5 PUSH2 0x1640 JUMP JUMPDEST PUSH2 0x144D JUMPI PUSH1 0x40 MLOAD PUSH32 0x8C379A000000000000000000000000000000000000000000000000000000000 DUP2 MSTORE PUSH1 0x4 ADD PUSH2 0x1444 SWAP1 PUSH2 0x2556 JUMP JUMPDEST PUSH1 0x40 MLOAD DUP1 SWAP2 SUB SWAP1 REVERT JUMPDEST POP POP POP POP JUMP JUMPDEST PUSH1 0x60 PUSH1 0x40 MLOAD DUP1 PUSH1 0x20 ADD PUSH1 0x40 MSTORE DUP1 PUSH1 0x0 DUP2 MSTORE POP SWAP1 POP SWAP1 JUMP JUMPDEST PUSH1 0x60 PUSH1 0x0 DUP3 SUB PUSH2 0x14B1 JUMPI PUSH1 0x40 MLOAD DUP1 PUSH1 0x40 ADD PUSH1 0x40 MSTORE DUP1 PUSH1 0x1 DUP2 MSTORE PUSH1 0x20 ADD PUSH32 0x3000000000000000000000000000000000000000000000000000000000000000 DUP2 MSTORE POP SWAP1 POP PUSH2 0x15C5 JUMP JUMPDEST PUSH1 0x0 DUP3 SWAP1 POP PUSH1 0x0 JUMPDEST PUSH1 0x0 DUP3 EQ PUSH2 0x14E3 JUMPI DUP1 DUP1 PUSH2 0x14CC SWAP1 PUSH2 0x2576 JUMP JUMPDEST SWAP2 POP POP PUSH1 0xA DUP3 PUSH2 0x14DC SWAP2 SWAP1 PUSH2 0x25ED JUMP JUMPDEST SWAP2 POP PUSH2 0x14B9 JUMP JUMPDEST PUSH1 0x0 DUP2 PUSH8 0xFFFFFFFFFFFFFFFF DUP2 GT ISZERO PUSH2 0x14FF JUMPI PUSH2 0x14FE PUSH2 0x1BF6 JUMP JUMPDEST JUMPDEST PUSH1 0x40 MLOAD SWAP1 DUP1 DUP3 MSTORE DUP1 PUSH1 0x1F ADD PUSH1 0x1F NOT AND PUSH1 0x20 ADD DUP3 ADD PUSH1 0x40 MSTORE DUP1 ISZERO PUSH2 0x1531 JUMPI DUP2 PUSH1 0x20 ADD PUSH1 0x1 DUP3 MUL DUP1 CALLDATASIZE DUP4 CALLDATACOPY DUP1 DUP3 ADD SWAP2 POP POP SWAP1 POP JUMPDEST POP SWAP1 POP JUMPDEST PUSH1 0x0 DUP6 EQ PUSH2 0x15BE JUMPI PUSH1 0x1 DUP3 PUSH2 0x154A SWAP2 SWAP1 PUSH2 0x2316 JUMP JUMPDEST SWAP2 POP PUSH1 0xA DUP6 PUSH2 0x1559 SWAP2 SWAP1 PUSH2 0x261E JUMP JUMPDEST PUSH1 0x30 PUSH2 0x1565 SWAP2 SWAP1 PUSH2 0x234A JUMP JUMPDEST PUSH1 0xF8 SHL DUP2 DUP4 DUP2 MLOAD DUP2 LT PUSH2 0x157B JUMPI PUSH2 0x157A PUSH2 0x264F JUMP JUMPDEST JUMPDEST PUSH1 0x20 ADD ADD SWAP1 PUSH31 0xFFFFFFFFFFFFFFFFFFFFFFFFFFFFFFFFFFFFFFFFFFFFFFFFFFFFFFFFFFFFFF NOT AND SWAP1 DUP2 PUSH1 0x0 BYTE SWAP1 MSTORE8 POP PUSH1 0xA DUP6 PUSH2 0x15B7 SWAP2 SWAP1 PUSH2 0x25ED JUMP JUMPDEST SWAP5 POP PUSH2 0x1535 JUMP JUMPDEST DUP1 SWAP4 POP POP POP POP JUMPDEST SWAP2 SWAP1 POP JUMP JUMPDEST PUSH1 0x0 DUP1 PUSH20 0xFFFFFFFFFFFFFFFFFFFFFFFFFFFFFFFFFFFFFFFF AND PUSH1 0x2 PUSH1 0x0 DUP5 DUP2 MSTORE PUSH1 0x20 ADD SWAP1 DUP2 MSTORE PUSH1 0x20 ADD PUSH1 0x0 KECCAK256 PUSH1 0x0 SWAP1 SLOAD SWAP1 PUSH2 0x100 EXP SWAP1 DIV PUSH20 0xFFFFFFFFFFFFFFFFFFFFFFFFFFFFFFFFFFFFFFFF AND PUSH20 0xFFFFFFFFFFFFFFFFFFFFFFFFFFFFFFFFFFFFFFFF AND EQ ISZERO SWAP1 POP SWAP2 SWAP1 POP JUMP JUMPDEST POP POP POP JUMP JUMPDEST POP POP POP JUMP JUMPDEST PUSH1 0x0 PUSH2 0x1661 DUP5 PUSH20 0xFFFFFFFFFFFFFFFFFFFFFFFFFFFFFFFFFFFFFFFF AND PUSH2 0x17C7 JUMP JUMPDEST ISZERO PUSH2 0x17BA JUMPI DUP4 PUSH20 0xFFFFFFFFFFFFFFFFFFFFFFFFFFFFFFFFFFFFFFFF AND PUSH4 0x150B7A02 PUSH2 0x168A PUSH2 0xCF6 JUMP JUMPDEST DUP8 DUP7 DUP7 PUSH1 0x40 MLOAD DUP6 PUSH4 0xFFFFFFFF AND PUSH1 0xE0 SHL DUP2 MSTORE PUSH1 0x4 ADD PUSH2 0x16AC SWAP5 SWAP4 SWAP3 SWAP2 SWAP1 PUSH2 0x26D3 JUMP JUMPDEST PUSH1 0x20 PUSH1 0x40 MLOAD DUP1 DUP4 SUB DUP2 PUSH1 0x0 DUP8 GAS CALL SWAP3 POP POP POP DUP1 ISZERO PUSH2 0x16E8 JUMPI POP PUSH1 0x40 MLOAD RETURNDATASIZE PUSH1 0x1F NOT PUSH1 0x1F DUP3 ADD AND DUP3 ADD DUP1 PUSH1 0x40 MSTORE POP DUP2 ADD SWAP1 PUSH2 0x16E5 SWAP2 SWAP1 PUSH2 0x2734 JUMP JUMPDEST PUSH1 0x1 JUMPDEST PUSH2 0x176A JUMPI RETURNDATASIZE DUP1 PUSH1 0x0 DUP2 EQ PUSH2 0x1718 JUMPI PUSH1 0x40 MLOAD SWAP2 POP PUSH1 0x1F NOT PUSH1 0x3F RETURNDATASIZE ADD AND DUP3 ADD PUSH1 0x40 MSTORE RETURNDATASIZE DUP3 MSTORE RETURNDATASIZE PUSH1 0x0 PUSH1 0x20 DUP5 ADD RETURNDATACOPY PUSH2 0x171D JUMP JUMPDEST PUSH1 0x60 SWAP2 POP JUMPDEST POP PUSH1 0x0 DUP2 MLOAD SUB PUSH2 0x1762 JUMPI PUSH1 0x40 MLOAD PUSH32 0x8C379A000000000000000000000000000000000000000000000000000000000 DUP2 MSTORE PUSH1 0x4 ADD PUSH2 0x1759 SWAP1 PUSH2 0x2556 JUMP JUMPDEST PUSH1 0x40 MLOAD DUP1 SWAP2 SUB SWAP1 REVERT JUMPDEST DUP1 MLOAD DUP2 PUSH1 0x20 ADD REVERT JUMPDEST PUSH4 0x150B7A02 PUSH1 0xE0 SHL PUSH28 0xFFFFFFFFFFFFFFFFFFFFFFFFFFFFFFFFFFFFFFFFFFFFFFFFFFFFFFFF NOT AND DUP2 PUSH28 0xFFFFFFFFFFFFFFFFFFFFFFFFFFFFFFFFFFFFFFFFFFFFFFFFFFFFFFFF NOT AND EQ SWAP2 POP POP PUSH2 0x17BF JUMP JUMPDEST PUSH1 0x1 SWAP1 POP JUMPDEST SWAP5 SWAP4 POP POP POP POP JUMP JUMPDEST PUSH1 0x0 DUP1 DUP3 PUSH20 0xFFFFFFFFFFFFFFFFFFFFFFFFFFFFFFFFFFFFFFFF AND EXTCODESIZE GT SWAP1 POP SWAP2 SWAP1 POP JUMP JUMPDEST PUSH1 0x0 PUSH1 0x40 MLOAD SWAP1 POP SWAP1 JUMP JUMPDEST PUSH1 0x0 DUP1 REVERT JUMPDEST PUSH1 0x0 DUP1 REVERT JUMPDEST PUSH1 0x0 PUSH32 0xFFFFFFFF00000000000000000000000000000000000000000000000000000000 DUP3 AND SWAP1 POP SWAP2 SWAP1 POP JUMP JUMPDEST PUSH2 0x1833 DUP2 PUSH2 0x17FE JUMP JUMPDEST DUP2 EQ PUSH2 0x183E JUMPI PUSH1 0x0 DUP1 REVERT JUMPDEST POP JUMP JUMPDEST PUSH1 0x0 DUP2 CALLDATALOAD SWAP1 POP PUSH2 0x1850 DUP2 PUSH2 0x182A JUMP JUMPDEST SWAP3 SWAP2 POP POP JUMP JUMPDEST PUSH1 0x0 PUSH1 0x20 DUP3 DUP5 SUB SLT ISZERO PUSH2 0x186C JUMPI PUSH2 0x186B PUSH2 0x17F4 JUMP JUMPDEST JUMPDEST PUSH1 0x0 PUSH2 0x187A DUP5 DUP3 DUP6 ADD PUSH2 0x1841 JUMP JUMPDEST SWAP2 POP POP SWAP3 SWAP2 POP POP JUMP JUMPDEST PUSH1 0x0 DUP2 ISZERO ISZERO SWAP1 POP SWAP2 SWAP1 POP JUMP JUMPDEST PUSH2 0x1898 DUP2 PUSH2 0x1883 JUMP JUMPDEST DUP3 MSTORE POP POP JUMP JUMPDEST PUSH1 0x0 PUSH1 0x20 DUP3 ADD SWAP1 POP PUSH2 0x18B3 PUSH1 0x0 DUP4 ADD DUP5 PUSH2 0x188F JUMP JUMPDEST SWAP3 SWAP2 POP POP JUMP JUMPDEST PUSH1 0x0 DUP2 MLOAD SWAP1 POP SWAP2 SWAP1 POP JUMP JUMPDEST PUSH1 0x0 DUP3 DUP3 MSTORE PUSH1 0x20 DUP3 ADD SWAP1 POP SWAP3 SWAP2 POP POP JUMP JUMPDEST PUSH1 0x0 JUMPDEST DUP4 DUP2 LT ISZERO PUSH2 0x18F3 JUMPI DUP1 DUP3 ADD MLOAD DUP2 DUP5 ADD MSTORE PUSH1 0x20 DUP2 ADD SWAP1 POP PUSH2 0x18D8 JUMP JUMPDEST DUP4 DUP2 GT ISZERO PUSH2 0x1902 JUMPI PUSH1 0x0 DUP5 DUP5 ADD MSTORE JUMPDEST POP POP POP POP JUMP JUMPDEST PUSH1 0x0 PUSH1 0x1F NOT PUSH1 0x1F DUP4 ADD AND SWAP1 POP SWAP2 SWAP1 POP JUMP JUMPDEST PUSH1 0x0 PUSH2 0x1924 DUP3 PUSH2 0x18B9 JUMP JUMPDEST PUSH2 0x192E DUP2 DUP6 PUSH2 0x18C4 JUMP JUMPDEST SWAP4 POP PUSH2 0x193E DUP2 DUP6 PUSH1 0x20 DUP7 ADD PUSH2 0x18D5 JUMP JUMPDEST PUSH2 0x1947 DUP2 PUSH2 0x1908 JUMP JUMPDEST DUP5 ADD SWAP2 POP POP SWAP3 SWAP2 POP POP JUMP JUMPDEST PUSH1 0x0 PUSH1 0x20 DUP3 ADD SWAP1 POP DUP2 DUP2 SUB PUSH1 0x0 DUP4 ADD MSTORE PUSH2 0x196C DUP2 DUP5 PUSH2 0x1919 JUMP JUMPDEST SWAP1 POP SWAP3 SWAP2 POP POP JUMP JUMPDEST PUSH1 0x0 DUP2 SWAP1 POP SWAP2 SWAP1 POP JUMP JUMPDEST PUSH2 0x1987 DUP2 PUSH2 0x1974 JUMP JUMPDEST DUP2 EQ PUSH2 0x1992 JUMPI PUSH1 0x0 DUP1 REVERT JUMPDEST POP JUMP JUMPDEST PUSH1 0x0 DUP2 CALLDATALOAD SWAP1 POP PUSH2 0x19A4 DUP2 PUSH2 0x197E JUMP JUMPDEST SWAP3 SWAP2 POP POP JUMP JUMPDEST PUSH1 0x0 PUSH1 0x20 DUP3 DUP5 SUB SLT ISZERO PUSH2 0x19C0 JUMPI PUSH2 0x19BF PUSH2 0x17F4 JUMP JUMPDEST JUMPDEST PUSH1 0x0 PUSH2 0x19CE DUP5 DUP3 DUP6 ADD PUSH2 0x1995 JUMP JUMPDEST SWAP2 POP POP SWAP3 SWAP2 POP POP JUMP JUMPDEST PUSH1 0x0 PUSH20 0xFFFFFFFFFFFFFFFFFFFFFFFFFFFFFFFFFFFFFFFF DUP3 AND SWAP1 POP SWAP2 SWAP1 POP JUMP JUMPDEST PUSH1 0x0 PUSH2 0x1A02 DUP3 PUSH2 0x19D7 JUMP JUMPDEST SWAP1 POP SWAP2 SWAP1 POP JUMP JUMPDEST PUSH2 0x1A12 DUP2 PUSH2 0x19F7 JUMP JUMPDEST DUP3 MSTORE POP POP JUMP JUMPDEST PUSH1 0x0 PUSH1 0x20 DUP3 ADD SWAP1 POP PUSH2 0x1A2D PUSH1 0x0 DUP4 ADD DUP5 PUSH2 0x1A09 JUMP JUMPDEST SWAP3 SWAP2 POP POP JUMP JUMPDEST PUSH2 0x1A3C DUP2 PUSH2 0x19F7 JUMP JUMPDEST DUP2 EQ PUSH2 0x1A47 JUMPI PUSH1 0x0 DUP1 REVERT JUMPDEST POP JUMP JUMPDEST PUSH1 0x0 DUP2 CALLDATALOAD SWAP1 POP PUSH2 0x1A59 DUP2 PUSH2 0x1A33 JUMP JUMPDEST SWAP3 SWAP2 POP POP JUMP JUMPDEST PUSH1 0x0 DUP1 PUSH1 0x40 DUP4 DUP6 SUB SLT ISZERO PUSH2 0x1A76 JUMPI PUSH2 0x1A75 PUSH2 0x17F4 JUMP JUMPDEST JUMPDEST PUSH1 0x0 PUSH2 0x1A84 DUP6 DUP3 DUP7 ADD PUSH2 0x1A4A JUMP JUMPDEST SWAP3 POP POP PUSH1 0x20 PUSH2 0x1A95 DUP6 DUP3 DUP7 ADD PUSH2 0x1995 JUMP JUMPDEST SWAP2 POP POP SWAP3 POP SWAP3 SWAP1 POP JUMP JUMPDEST PUSH1 0x0 DUP1 PUSH1 0x0 PUSH1 0x60 DUP5 DUP7 SUB SLT ISZERO PUSH2 0x1AB8 JUMPI PUSH2 0x1AB7 PUSH2 0x17F4 JUMP JUMPDEST JUMPDEST PUSH1 0x0 PUSH2 0x1AC6 DUP7 DUP3 DUP8 ADD PUSH2 0x1A4A JUMP JUMPDEST SWAP4 POP POP PUSH1 0x20 PUSH2 0x1AD7 DUP7 DUP3 DUP8 ADD PUSH2 0x1A4A JUMP JUMPDEST SWAP3 POP POP PUSH1 0x40 PUSH2 0x1AE8 DUP7 DUP3 DUP8 ADD PUSH2 0x1995 JUMP JUMPDEST SWAP2 POP POP SWAP3 POP SWAP3 POP SWAP3 JUMP JUMPDEST PUSH1 0x0 PUSH1 0xFF DUP3 AND SWAP1 POP SWAP2 SWAP1 POP JUMP JUMPDEST PUSH2 0x1B08 DUP2 PUSH2 0x1AF2 JUMP JUMPDEST DUP3 MSTORE POP POP JUMP JUMPDEST PUSH1 0x0 PUSH1 0x20 DUP3 ADD SWAP1 POP PUSH2 0x1B23 PUSH1 0x0 DUP4 ADD DUP5 PUSH2 0x1AFF JUMP JUMPDEST SWAP3 SWAP2 POP POP JUMP JUMPDEST PUSH1 0x0 PUSH1 0x20 DUP3 DUP5 SUB SLT ISZERO PUSH2 0x1B3F JUMPI PUSH2 0x1B3E PUSH2 0x17F4 JUMP JUMPDEST JUMPDEST PUSH1 0x0 PUSH2 0x1B4D DUP5 DUP3 DUP6 ADD PUSH2 0x1A4A JUMP JUMPDEST SWAP2 POP POP SWAP3 SWAP2 POP POP JUMP JUMPDEST PUSH2 0x1B5F DUP2 PUSH2 0x1974 JUMP JUMPDEST DUP3 MSTORE POP POP JUMP JUMPDEST PUSH1 0x0 PUSH1 0x20 DUP3 ADD SWAP1 POP PUSH2 0x1B7A PUSH1 0x0 DUP4 ADD DUP5 PUSH2 0x1B56 JUMP JUMPDEST SWAP3 SWAP2 POP POP JUMP JUMPDEST PUSH2 0x1B89 DUP2 PUSH2 0x1883 JUMP JUMPDEST DUP2 EQ PUSH2 0x1B94 JUMPI PUSH1 0x0 DUP1 REVERT JUMPDEST POP JUMP JUMPDEST PUSH1 0x0 DUP2 CALLDATALOAD SWAP1 POP PUSH2 0x1BA6 DUP2 PUSH2 0x1B80 JUMP JUMPDEST SWAP3 SWAP2 POP POP JUMP JUMPDEST PUSH1 0x0 DUP1 PUSH1 0x40 DUP4 DUP6 SUB SLT ISZERO PUSH2 0x1BC3 JUMPI PUSH2 0x1BC2 PUSH2 0x17F4 JUMP JUMPDEST JUMPDEST PUSH1 0x0 PUSH2 0x1BD1 DUP6 DUP3 DUP7 ADD PUSH2 0x1A4A JUMP JUMPDEST SWAP3 POP POP PUSH1 0x20 PUSH2 0x1BE2 DUP6 DUP3 DUP7 ADD PUSH2 0x1B97 JUMP JUMPDEST SWAP2 POP POP SWAP3 POP SWAP3 SWAP1 POP JUMP JUMPDEST PUSH1 0x0 DUP1 REVERT JUMPDEST PUSH1 0x0 DUP1 REVERT JUMPDEST PUSH32 0x4E487B7100000000000000000000000000000000000000000000000000000000 PUSH1 0x0 MSTORE PUSH1 0x41 PUSH1 0x4 MSTORE PUSH1 0x24 PUSH1 0x0 REVERT JUMPDEST PUSH2 0x1C2E DUP3 PUSH2 0x1908 JUMP JUMPDEST DUP2 ADD DUP2 DUP2 LT PUSH8 0xFFFFFFFFFFFFFFFF DUP3 GT OR ISZERO PUSH2 0x1C4D JUMPI PUSH2 0x1C4C PUSH2 0x1BF6 JUMP JUMPDEST JUMPDEST DUP1 PUSH1 0x40 MSTORE POP POP POP JUMP JUMPDEST PUSH1 0x0 PUSH2 0x1C60 PUSH2 0x17EA JUMP JUMPDEST SWAP1 POP PUSH2 0x1C6C DUP3 DUP3 PUSH2 0x1C25 JUMP JUMPDEST SWAP2 SWAP1 POP JUMP JUMPDEST PUSH1 0x0 PUSH8 0xFFFFFFFFFFFFFFFF DUP3 GT ISZERO PUSH2 0x1C8C JUMPI PUSH2 0x1C8B PUSH2 0x1BF6 JUMP JUMPDEST JUMPDEST PUSH2 0x1C95 DUP3 PUSH2 0x1908 JUMP JUMPDEST SWAP1 POP PUSH1 0x20 DUP2 ADD SWAP1 POP SWAP2 SWAP1 POP JUMP JUMPDEST DUP3 DUP2 DUP4 CALLDATACOPY PUSH1 0x0 DUP4 DUP4 ADD MSTORE POP POP POP JUMP JUMPDEST PUSH1 0x0 PUSH2 0x1CC4 PUSH2 0x1CBF DUP5 PUSH2 0x1C71 JUMP JUMPDEST PUSH2 0x1C56 JUMP JUMPDEST SWAP1 POP DUP3 DUP2 MSTORE PUSH1 0x20 DUP2 ADD DUP5 DUP5 DUP5 ADD GT ISZERO PUSH2 0x1CE0 JUMPI PUSH2 0x1CDF PUSH2 0x1BF1 JUMP JUMPDEST JUMPDEST PUSH2 0x1CEB DUP5 DUP3 DUP6 PUSH2 0x1CA2 JUMP JUMPDEST POP SWAP4 SWAP3 POP POP POP JUMP JUMPDEST PUSH1 0x0 DUP3 PUSH1 0x1F DUP4 ADD SLT PUSH2 0x1D08 JUMPI PUSH2 0x1D07 PUSH2 0x1BEC JUMP JUMPDEST JUMPDEST DUP2 CALLDATALOAD PUSH2 0x1D18 DUP5 DUP3 PUSH1 0x20 DUP7 ADD PUSH2 0x1CB1 JUMP JUMPDEST SWAP2 POP POP SWAP3 SWAP2 POP POP JUMP JUMPDEST PUSH1 0x0 DUP1 PUSH1 0x0 DUP1 PUSH1 0x80 DUP6 DUP8 SUB SLT ISZERO PUSH2 0x1D3B JUMPI PUSH2 0x1D3A PUSH2 0x17F4 JUMP JUMPDEST JUMPDEST PUSH1 0x0 PUSH2 0x1D49 DUP8 DUP3 DUP9 ADD PUSH2 0x1A4A JUMP JUMPDEST SWAP5 POP POP PUSH1 0x20 PUSH2 0x1D5A DUP8 DUP3 DUP9 ADD PUSH2 0x1A4A JUMP JUMPDEST SWAP4 POP POP PUSH1 0x40 PUSH2 0x1D6B DUP8 DUP3 DUP9 ADD PUSH2 0x1995 JUMP JUMPDEST SWAP3 POP POP PUSH1 0x60 DUP6 ADD CALLDATALOAD PUSH8 0xFFFFFFFFFFFFFFFF DUP2 GT ISZERO PUSH2 0x1D8C JUMPI PUSH2 0x1D8B PUSH2 0x17F9 JUMP JUMPDEST JUMPDEST PUSH2 0x1D98 DUP8 DUP3 DUP9 ADD PUSH2 0x1CF3 JUMP JUMPDEST SWAP2 POP POP SWAP3 SWAP6 SWAP2 SWAP5 POP SWAP3 POP JUMP JUMPDEST PUSH1 0x0 DUP1 PUSH1 0x40 DUP4 DUP6 SUB SLT ISZERO PUSH2 0x1DBB JUMPI PUSH2 0x1DBA PUSH2 0x17F4 JUMP JUMPDEST JUMPDEST PUSH1 0x0 PUSH2 0x1DC9 DUP6 DUP3 DUP7 ADD PUSH2 0x1A4A JUMP JUMPDEST SWAP3 POP POP PUSH1 0x20 PUSH2 0x1DDA DUP6 DUP3 DUP7 ADD PUSH2 0x1A4A JUMP JUMPDEST SWAP2 POP POP SWAP3 POP SWAP3 SWAP1 POP JUMP JUMPDEST PUSH32 0x4E487B7100000000000000000000000000000000000000000000000000000000 PUSH1 0x0 MSTORE PUSH1 0x22 PUSH1 0x4 MSTORE PUSH1 0x24 PUSH1 0x0 REVERT JUMPDEST PUSH1 0x0 PUSH1 0x2 DUP3 DIV SWAP1 POP PUSH1 0x1 DUP3 AND DUP1 PUSH2 0x1E2B JUMPI PUSH1 0x7F DUP3 AND SWAP2 POP JUMPDEST PUSH1 0x20 DUP3 LT DUP2 SUB PUSH2 0x1E3E JUMPI PUSH2 0x1E3D PUSH2 0x1DE4 JUMP JUMPDEST JUMPDEST POP SWAP2 SWAP1 POP JUMP JUMPDEST PUSH32 0x4552433732313A20617070726F76616C20746F2063757272656E74206F776E65 PUSH1 0x0 DUP3 ADD MSTORE PUSH32 0x7200000000000000000000000000000000000000000000000000000000000000 PUSH1 0x20 DUP3 ADD MSTORE POP JUMP JUMPDEST PUSH1 0x0 PUSH2 0x1EA0 PUSH1 0x21 DUP4 PUSH2 0x18C4 JUMP JUMPDEST SWAP2 POP PUSH2 0x1EAB DUP3 PUSH2 0x1E44 JUMP JUMPDEST PUSH1 0x40 DUP3 ADD SWAP1 POP SWAP2 SWAP1 POP JUMP JUMPDEST PUSH1 0x0 PUSH1 0x20 DUP3 ADD SWAP1 POP DUP2 DUP2 SUB PUSH1 0x0 DUP4 ADD MSTORE PUSH2 0x1ECF DUP2 PUSH2 0x1E93 JUMP JUMPDEST SWAP1 POP SWAP2 SWAP1 POP JUMP JUMPDEST PUSH32 0x4552433732313A20617070726F76652063616C6C6572206973206E6F7420746F PUSH1 0x0 DUP3 ADD MSTORE PUSH32 0x6B656E206F776E6572206E6F7220617070726F76656420666F7220616C6C0000 PUSH1 0x20 DUP3 ADD MSTORE POP JUMP JUMPDEST PUSH1 0x0 PUSH2 0x1F32 PUSH1 0x3E DUP4 PUSH2 0x18C4 JUMP JUMPDEST SWAP2 POP PUSH2 0x1F3D DUP3 PUSH2 0x1ED6 JUMP JUMPDEST PUSH1 0x40 DUP3 ADD SWAP1 POP SWAP2 SWAP1 POP JUMP JUMPDEST PUSH1 0x0 PUSH1 0x20 DUP3 ADD SWAP1 POP DUP2 DUP2 SUB PUSH1 0x0 DUP4 ADD MSTORE PUSH2 0x1F61 DUP2 PUSH2 0x1F25 JUMP JUMPDEST SWAP1 POP SWAP2 SWAP1 POP JUMP JUMPDEST PUSH32 0x4552433732313A2063616C6C6572206973206E6F7420746F6B656E206F776E65 PUSH1 0x0 DUP3 ADD MSTORE PUSH32 0x72206E6F7220617070726F766564000000000000000000000000000000000000 PUSH1 0x20 DUP3 ADD MSTORE POP JUMP JUMPDEST PUSH1 0x0 PUSH2 0x1FC4 PUSH1 0x2E DUP4 PUSH2 0x18C4 JUMP JUMPDEST SWAP2 POP PUSH2 0x1FCF DUP3 PUSH2 0x1F68 JUMP JUMPDEST PUSH1 0x40 DUP3 ADD SWAP1 POP SWAP2 SWAP1 POP JUMP JUMPDEST PUSH1 0x0 PUSH1 0x20 DUP3 ADD SWAP1 POP DUP2 DUP2 SUB PUSH1 0x0 DUP4 ADD MSTORE PUSH2 0x1FF3 DUP2 PUSH2 0x1FB7 JUMP JUMPDEST SWAP1 POP SWAP2 SWAP1 POP JUMP JUMPDEST PUSH32 0x4E487B7100000000000000000000000000000000000000000000000000000000 PUSH1 0x0 MSTORE PUSH1 0x11 PUSH1 0x4 MSTORE PUSH1 0x24 PUSH1 0x0 REVERT JUMPDEST PUSH1 0x0 PUSH2 0x2034 DUP3 PUSH2 0x1AF2 JUMP JUMPDEST SWAP2 POP PUSH2 0x203F DUP4 PUSH2 0x1AF2 JUMP JUMPDEST SWAP3 POP DUP3 PUSH1 0xFF SUB DUP3 GT ISZERO PUSH2 0x2055 JUMPI PUSH2 0x2054 PUSH2 0x1FFA JUMP JUMPDEST JUMPDEST DUP3 DUP3 ADD SWAP1 POP SWAP3 SWAP2 POP POP JUMP JUMPDEST PUSH32 0x4552433732313A20696E76616C696420746F6B656E2049440000000000000000 PUSH1 0x0 DUP3 ADD MSTORE POP JUMP JUMPDEST PUSH1 0x0 PUSH2 0x2096 PUSH1 0x18 DUP4 PUSH2 0x18C4 JUMP JUMPDEST SWAP2 POP PUSH2 0x20A1 DUP3 PUSH2 0x2060 JUMP JUMPDEST PUSH1 0x20 DUP3 ADD SWAP1 POP SWAP2 SWAP1 POP JUMP JUMPDEST PUSH1 0x0 PUSH1 0x20 DUP3 ADD SWAP1 POP DUP2 DUP2 SUB PUSH1 0x0 DUP4 ADD MSTORE PUSH2 0x20C5 DUP2 PUSH2 0x2089 JUMP JUMPDEST SWAP1 POP SWAP2 SWAP1 POP JUMP JUMPDEST PUSH32 0x4552433732313A2061646472657373207A65726F206973206E6F742061207661 PUSH1 0x0 DUP3 ADD MSTORE PUSH32 0x6C6964206F776E65720000000000000000000000000000000000000000000000 PUSH1 0x20 DUP3 ADD MSTORE POP JUMP JUMPDEST PUSH1 0x0 PUSH2 0x2128 PUSH1 0x29 DUP4 PUSH2 0x18C4 JUMP JUMPDEST SWAP2 POP PUSH2 0x2133 DUP3 PUSH2 0x20CC JUMP JUMPDEST PUSH1 0x40 DUP3 ADD SWAP1 POP SWAP2 SWAP1 POP JUMP JUMPDEST PUSH1 0x0 PUSH1 0x20 DUP3 ADD SWAP1 POP DUP2 DUP2 SUB PUSH1 0x0 DUP4 ADD MSTORE PUSH2 0x2157 DUP2 PUSH2 0x211B JUMP JUMPDEST SWAP1 POP SWAP2 SWAP1 POP JUMP JUMPDEST PUSH1 0x0 PUSH2 0x2169 DUP3 PUSH2 0x1AF2 JUMP JUMPDEST SWAP2 POP PUSH2 0x2174 DUP4 PUSH2 0x1AF2 JUMP JUMPDEST SWAP3 POP DUP3 DUP3 LT ISZERO PUSH2 0x2187 JUMPI PUSH2 0x2186 PUSH2 0x1FFA JUMP JUMPDEST JUMPDEST DUP3 DUP3 SUB SWAP1 POP SWAP3 SWAP2 POP POP JUMP JUMPDEST PUSH1 0x0 DUP2 SWAP1 POP SWAP3 SWAP2 POP POP JUMP JUMPDEST PUSH1 0x0 PUSH2 0x21A8 DUP3 PUSH2 0x18B9 JUMP JUMPDEST PUSH2 0x21B2 DUP2 DUP6 PUSH2 0x2192 JUMP JUMPDEST SWAP4 POP PUSH2 0x21C2 DUP2 DUP6 PUSH1 0x20 DUP7 ADD PUSH2 0x18D5 JUMP JUMPDEST DUP1 DUP5 ADD SWAP2 POP POP SWAP3 SWAP2 POP POP JUMP JUMPDEST PUSH1 0x0 PUSH2 0x21DA DUP3 DUP6 PUSH2 0x219D JUMP JUMPDEST SWAP2 POP PUSH2 0x21E6 DUP3 DUP5 PUSH2 0x219D JUMP JUMPDEST SWAP2 POP DUP2 SWAP1 POP SWAP4 SWAP3 POP POP POP JUMP JUMPDEST PUSH32 0x4552433732313A207472616E736665722066726F6D20696E636F727265637420 PUSH1 0x0 DUP3 ADD MSTORE PUSH32 0x6F776E6572000000000000000000000000000000000000000000000000000000 PUSH1 0x20 DUP3 ADD MSTORE POP JUMP JUMPDEST PUSH1 0x0 PUSH2 0x224E PUSH1 0x25 DUP4 PUSH2 0x18C4 JUMP JUMPDEST SWAP2 POP PUSH2 0x2259 DUP3 PUSH2 0x21F2 JUMP JUMPDEST PUSH1 0x40 DUP3 ADD SWAP1 POP SWAP2 SWAP1 POP JUMP JUMPDEST PUSH1 0x0 PUSH1 0x20 DUP3 ADD SWAP1 POP DUP2 DUP2 SUB PUSH1 0x0 DUP4 ADD MSTORE PUSH2 0x227D DUP2 PUSH2 0x2241 JUMP JUMPDEST SWAP1 POP SWAP2 SWAP1 POP JUMP JUMPDEST PUSH32 0x4552433732313A207472616E7366657220746F20746865207A65726F20616464 PUSH1 0x0 DUP3 ADD MSTORE PUSH32 0x7265737300000000000000000000000000000000000000000000000000000000 PUSH1 0x20 DUP3 ADD MSTORE POP JUMP JUMPDEST PUSH1 0x0 PUSH2 0x22E0 PUSH1 0x24 DUP4 PUSH2 0x18C4 JUMP JUMPDEST SWAP2 POP PUSH2 0x22EB DUP3 PUSH2 0x2284 JUMP JUMPDEST PUSH1 0x40 DUP3 ADD SWAP1 POP SWAP2 SWAP1 POP JUMP JUMPDEST PUSH1 0x0 PUSH1 0x20 DUP3 ADD SWAP1 POP DUP2 DUP2 SUB PUSH1 0x0 DUP4 ADD MSTORE PUSH2 0x230F DUP2 PUSH2 0x22D3 JUMP JUMPDEST SWAP1 POP SWAP2 SWAP1 POP JUMP JUMPDEST PUSH1 0x0 PUSH2 0x2321 DUP3 PUSH2 0x1974 JUMP JUMPDEST SWAP2 POP PUSH2 0x232C DUP4 PUSH2 0x1974 JUMP JUMPDEST SWAP3 POP DUP3 DUP3 LT ISZERO PUSH2 0x233F JUMPI PUSH2 0x233E PUSH2 0x1FFA JUMP JUMPDEST JUMPDEST DUP3 DUP3 SUB SWAP1 POP SWAP3 SWAP2 POP POP JUMP JUMPDEST PUSH1 0x0 PUSH2 0x2355 DUP3 PUSH2 0x1974 JUMP JUMPDEST SWAP2 POP PUSH2 0x2360 DUP4 PUSH2 0x1974 JUMP JUMPDEST SWAP3 POP DUP3 PUSH32 0xFFFFFFFFFFFFFFFFFFFFFFFFFFFFFFFFFFFFFFFFFFFFFFFFFFFFFFFFFFFFFFFF SUB DUP3 GT ISZERO PUSH2 0x2395 JUMPI PUSH2 0x2394 PUSH2 0x1FFA JUMP JUMPDEST JUMPDEST DUP3 DUP3 ADD SWAP1 POP SWAP3 SWAP2 POP POP JUMP JUMPDEST PUSH32 0x4552433732313A206D696E7420746F20746865207A65726F2061646472657373 PUSH1 0x0 DUP3 ADD MSTORE POP JUMP JUMPDEST PUSH1 0x0 PUSH2 0x23D6 PUSH1 0x20 DUP4 PUSH2 0x18C4 JUMP JUMPDEST SWAP2 POP PUSH2 0x23E1 DUP3 PUSH2 0x23A0 JUMP JUMPDEST PUSH1 0x20 DUP3 ADD SWAP1 POP SWAP2 SWAP1 POP JUMP JUMPDEST PUSH1 0x0 PUSH1 0x20 DUP3 ADD SWAP1 POP DUP2 DUP2 SUB PUSH1 0x0 DUP4 ADD MSTORE PUSH2 0x2405 DUP2 PUSH2 0x23C9 JUMP JUMPDEST SWAP1 POP SWAP2 SWAP1 POP JUMP JUMPDEST PUSH32 0x4552433732313A20746F6B656E20616C7265616479206D696E74656400000000 PUSH1 0x0 DUP3 ADD MSTORE POP JUMP JUMPDEST PUSH1 0x0 PUSH2 0x2442 PUSH1 0x1C DUP4 PUSH2 0x18C4 JUMP JUMPDEST SWAP2 POP PUSH2 0x244D DUP3 PUSH2 0x240C JUMP JUMPDEST PUSH1 0x20 DUP3 ADD SWAP1 POP SWAP2 SWAP1 POP JUMP JUMPDEST PUSH1 0x0 PUSH1 0x20 DUP3 ADD SWAP1 POP DUP2 DUP2 SUB PUSH1 0x0 DUP4 ADD MSTORE PUSH2 0x2471 DUP2 PUSH2 0x2435 JUMP JUMPDEST SWAP1 POP SWAP2 SWAP1 POP JUMP JUMPDEST PUSH32 0x4552433732313A20617070726F766520746F2063616C6C657200000000000000 PUSH1 0x0 DUP3 ADD MSTORE POP JUMP JUMPDEST PUSH1 0x0 PUSH2 0x24AE PUSH1 0x19 DUP4 PUSH2 0x18C4 JUMP JUMPDEST SWAP2 POP PUSH2 0x24B9 DUP3 PUSH2 0x2478 JUMP JUMPDEST PUSH1 0x20 DUP3 ADD SWAP1 POP SWAP2 SWAP1 POP JUMP JUMPDEST PUSH1 0x0 PUSH1 0x20 DUP3 ADD SWAP1 POP DUP2 DUP2 SUB PUSH1 0x0 DUP4 ADD MSTORE PUSH2 0x24DD DUP2 PUSH2 0x24A1 JUMP JUMPDEST SWAP1 POP SWAP2 SWAP1 POP JUMP JUMPDEST PUSH32 0x4552433732313A207472616E7366657220746F206E6F6E204552433732315265 PUSH1 0x0 DUP3 ADD MSTORE PUSH32 0x63656976657220696D706C656D656E7465720000000000000000000000000000 PUSH1 0x20 DUP3 ADD MSTORE POP JUMP JUMPDEST PUSH1 0x0 PUSH2 0x2540 PUSH1 0x32 DUP4 PUSH2 0x18C4 JUMP JUMPDEST SWAP2 POP PUSH2 0x254B DUP3 PUSH2 0x24E4 JUMP JUMPDEST PUSH1 0x40 DUP3 ADD SWAP1 POP SWAP2 SWAP1 POP JUMP JUMPDEST PUSH1 0x0 PUSH1 0x20 DUP3 ADD SWAP1 POP DUP2 DUP2 SUB PUSH1 0x0 DUP4 ADD MSTORE PUSH2 0x256F DUP2 PUSH2 0x2533 JUMP JUMPDEST SWAP1 POP SWAP2 SWAP1 POP JUMP JUMPDEST PUSH1 0x0 PUSH2 0x2581 DUP3 PUSH2 0x1974 JUMP JUMPDEST SWAP2 POP PUSH32 0xFFFFFFFFFFFFFFFFFFFFFFFFFFFFFFFFFFFFFFFFFFFFFFFFFFFFFFFFFFFFFFFF DUP3 SUB PUSH2 0x25B3 JUMPI PUSH2 0x25B2 PUSH2 0x1FFA JUMP JUMPDEST JUMPDEST PUSH1 0x1 DUP3 ADD SWAP1 POP SWAP2 SWAP1 POP JUMP JUMPDEST PUSH32 0x4E487B7100000000000000000000000000000000000000000000000000000000 PUSH1 0x0 MSTORE PUSH1 0x12 PUSH1 0x4 MSTORE PUSH1 0x24 PUSH1 0x0 REVERT JUMPDEST PUSH1 0x0 PUSH2 0x25F8 DUP3 PUSH2 0x1974 JUMP JUMPDEST SWAP2 POP PUSH2 0x2603 DUP4 PUSH2 0x1974 JUMP JUMPDEST SWAP3 POP DUP3 PUSH2 0x2613 JUMPI PUSH2 0x2612 PUSH2 0x25BE JUMP JUMPDEST JUMPDEST DUP3 DUP3 DIV SWAP1 POP SWAP3 SWAP2 POP POP JUMP JUMPDEST PUSH1 0x0 PUSH2 0x2629 DUP3 PUSH2 0x1974 JUMP JUMPDEST SWAP2 POP PUSH2 0x2634 DUP4 PUSH2 0x1974 JUMP JUMPDEST SWAP3 POP DUP3 PUSH2 0x2644 JUMPI PUSH2 0x2643 PUSH2 0x25BE JUMP JUMPDEST JUMPDEST DUP3 DUP3 MOD SWAP1 POP SWAP3 SWAP2 POP POP JUMP JUMPDEST PUSH32 0x4E487B7100000000000000000000000000000000000000000000000000000000 PUSH1 0x0 MSTORE PUSH1 0x32 PUSH1 0x4 MSTORE PUSH1 0x24 PUSH1 0x0 REVERT JUMPDEST PUSH1 0x0 DUP2 MLOAD SWAP1 POP SWAP2 SWAP1 POP JUMP JUMPDEST PUSH1 0x0 DUP3 DUP3 MSTORE PUSH1 0x20 DUP3 ADD SWAP1 POP SWAP3 SWAP2 POP POP JUMP JUMPDEST PUSH1 0x0 PUSH2 0x26A5 DUP3 PUSH2 0x267E JUMP JUMPDEST PUSH2 0x26AF DUP2 DUP6 PUSH2 0x2689 JUMP JUMPDEST SWAP4 POP PUSH2 0x26BF DUP2 DUP6 PUSH1 0x20 DUP7 ADD PUSH2 0x18D5 JUMP JUMPDEST PUSH2 0x26C8 DUP2 PUSH2 0x1908 JUMP JUMPDEST DUP5 ADD SWAP2 POP POP SWAP3 SWAP2 POP POP JUMP JUMPDEST PUSH1 0x0 PUSH1 0x80 DUP3 ADD SWAP1 POP PUSH2 0x26E8 PUSH1 0x0 DUP4 ADD DUP8 PUSH2 0x1A09 JUMP JUMPDEST PUSH2 0x26F5 PUSH1 0x20 DUP4 ADD DUP7 PUSH2 0x1A09 JUMP JUMPDEST PUSH2 0x2702 PUSH1 0x40 DUP4 ADD DUP6 PUSH2 0x1B56 JUMP JUMPDEST DUP2 DUP2 SUB PUSH1 0x60 DUP4 ADD MSTORE PUSH2 0x2714 DUP2 DUP5 PUSH2 0x269A JUMP JUMPDEST SWAP1 POP SWAP6 SWAP5 POP POP POP POP POP JUMP JUMPDEST PUSH1 0x0 DUP2 MLOAD SWAP1 POP PUSH2 0x272E DUP2 PUSH2 0x182A JUMP JUMPDEST SWAP3 SWAP2 POP POP JUMP JUMPDEST PUSH1 0x0 PUSH1 0x20 DUP3 DUP5 SUB SLT ISZERO PUSH2 0x274A JUMPI PUSH2 0x2749 PUSH2 0x17F4 JUMP JUMPDEST JUMPDEST PUSH1 0x0 PUSH2 0x2758 DUP5 DUP3 DUP6 ADD PUSH2 0x271F JUMP JUMPDEST SWAP2 POP POP SWAP3 SWAP2 POP POP JUMP INVALID LOG2 PUSH5 0x6970667358 0x22 SLT KECCAK256 SHL JUMP OR 0x4A DELEGATECALL SDIV PUSH9 0x80E9880994AA3990BA SHL PUSH28 0x45F19BE47D2A95A314BBAB04E5A864736F6C634300080D0033000000 "
				},
				"gasEstimates": {
					"creation": {
						"codeDepositCost": "2027000",
						"executionCost": "infinite",
						"totalCost": "infinite"
					},
					"external": {
						"approve(address,uint256)": "infinite",
						"balanceOf(address)": "2899",
						"claimToken()": "infinite",
						"getApproved(uint256)": "5257",
						"isApprovedForAll(address,address)": "infinite",
						"maxTokens()": "2609",
						"name()": "infinite",
						"ownerOf(uint256)": "3067",
						"safeTransferFrom(address,address,uint256)": "infinite",
						"safeTransferFrom(address,address,uint256,bytes)": "infinite",
						"setApprovalForAll(address,bool)": "infinite",
						"supportsInterface(bytes4)": "797",
						"symbol()": "infinite",
						"tokenCount()": "2538",
						"tokenURI(uint256)": "3424",
						"totalTokenOwners()": "2524",
						"transferFrom(address,address,uint256)": "infinite",
						"unclaimedTokens()": "infinite"
					}
				},
				"methodIdentifiers": {
					"approve(address,uint256)": "095ea7b3",
					"balanceOf(address)": "70a08231",
					"claimToken()": "4451d89f",
					"getApproved(uint256)": "081812fc",
					"isApprovedForAll(address,address)": "e985e9c5",
					"maxTokens()": "e8315742",
					"name()": "06fdde03",
					"ownerOf(uint256)": "6352211e",
					"safeTransferFrom(address,address,uint256)": "42842e0e",
					"safeTransferFrom(address,address,uint256,bytes)": "b88d4fde",
					"setApprovalForAll(address,bool)": "a22cb465",
					"supportsInterface(bytes4)": "01ffc9a7",
					"symbol()": "95d89b41",
					"tokenCount()": "9f181b5e",
					"tokenURI(uint256)": "c87b56dd",
					"totalTokenOwners()": "2cabbfe2",
					"transferFrom(address,address,uint256)": "23b872dd",
					"unclaimedTokens()": "c394f6cb"
				}
			},
			"storageLayout": {
				"storage": [
					{
						"astId": 25,
						"contract": "contracts/DeStore/GatedAppSimple.sol:GatedAPP",
						"label": "_name",
						"offset": 0,
						"slot": "0",
						"type": "t_string_storage"
					},
					{
						"astId": 27,
						"contract": "contracts/DeStore/GatedAppSimple.sol:GatedAPP",
						"label": "_symbol",
						"offset": 0,
						"slot": "1",
						"type": "t_string_storage"
					},
					{
						"astId": 31,
						"contract": "contracts/DeStore/GatedAppSimple.sol:GatedAPP",
						"label": "_owners",
						"offset": 0,
						"slot": "2",
						"type": "t_mapping(t_uint256,t_address)"
					},
					{
						"astId": 35,
						"contract": "contracts/DeStore/GatedAppSimple.sol:GatedAPP",
						"label": "_balances",
						"offset": 0,
						"slot": "3",
						"type": "t_mapping(t_address,t_uint256)"
					},
					{
						"astId": 39,
						"contract": "contracts/DeStore/GatedAppSimple.sol:GatedAPP",
						"label": "_tokenApprovals",
						"offset": 0,
						"slot": "4",
						"type": "t_mapping(t_uint256,t_address)"
					},
					{
						"astId": 45,
						"contract": "contracts/DeStore/GatedAppSimple.sol:GatedAPP",
						"label": "_operatorApprovals",
						"offset": 0,
						"slot": "5",
						"type": "t_mapping(t_address,t_mapping(t_address,t_bool))"
					},
					{
						"astId": 1616,
						"contract": "contracts/DeStore/GatedAppSimple.sol:GatedAPP",
						"label": "tokenCount",
						"offset": 0,
						"slot": "6",
						"type": "t_uint8"
					},
					{
						"astId": 1619,
						"contract": "contracts/DeStore/GatedAppSimple.sol:GatedAPP",
						"label": "maxTokens",
						"offset": 1,
						"slot": "6",
						"type": "t_uint8"
					},
					{
						"astId": 1622,
						"contract": "contracts/DeStore/GatedAppSimple.sol:GatedAPP",
						"label": "initialTokenPrice",
						"offset": 0,
						"slot": "7",
						"type": "t_uint256"
					}
				],
				"types": {
					"t_address": {
						"encoding": "inplace",
						"label": "address",
						"numberOfBytes": "20"
					},
					"t_bool": {
						"encoding": "inplace",
						"label": "bool",
						"numberOfBytes": "1"
					},
					"t_mapping(t_address,t_bool)": {
						"encoding": "mapping",
						"key": "t_address",
						"label": "mapping(address => bool)",
						"numberOfBytes": "32",
						"value": "t_bool"
					},
					"t_mapping(t_address,t_mapping(t_address,t_bool))": {
						"encoding": "mapping",
						"key": "t_address",
						"label": "mapping(address => mapping(address => bool))",
						"numberOfBytes": "32",
						"value": "t_mapping(t_address,t_bool)"
					},
					"t_mapping(t_address,t_uint256)": {
						"encoding": "mapping",
						"key": "t_address",
						"label": "mapping(address => uint256)",
						"numberOfBytes": "32",
						"value": "t_uint256"
					},
					"t_mapping(t_uint256,t_address)": {
						"encoding": "mapping",
						"key": "t_uint256",
						"label": "mapping(uint256 => address)",
						"numberOfBytes": "32",
						"value": "t_address"
					},
					"t_string_storage": {
						"encoding": "bytes",
						"label": "string",
						"numberOfBytes": "32"
					},
					"t_uint256": {
						"encoding": "inplace",
						"label": "uint256",
						"numberOfBytes": "32"
					},
					"t_uint8": {
						"encoding": "inplace",
						"label": "uint8",
						"numberOfBytes": "1"
					}
				}
			},
			"userdoc": {
				"kind": "user",
				"methods": {},
				"version": 1
			}
		}
	}
}