{
	"contracts/DeStore/GatedAppSimple.sol": {
		"GateApp": {
			"abi": [
				{
					"anonymous": false,
					"inputs": [
						{
							"indexed": true,
							"internalType": "address",
							"name": "owner",
							"type": "address"
						},
						{
							"indexed": true,
							"internalType": "address",
							"name": "approved",
							"type": "address"
						},
						{
							"indexed": true,
							"internalType": "uint256",
							"name": "tokenId",
							"type": "uint256"
						}
					],
					"name": "Approval",
					"type": "event"
				},
				{
					"anonymous": false,
					"inputs": [
						{
							"indexed": true,
							"internalType": "address",
							"name": "owner",
							"type": "address"
						},
						{
							"indexed": true,
							"internalType": "address",
							"name": "operator",
							"type": "address"
						},
						{
							"indexed": false,
							"internalType": "bool",
							"name": "approved",
							"type": "bool"
						}
					],
					"name": "ApprovalForAll",
					"type": "event"
				},
				{
					"anonymous": false,
					"inputs": [
						{
							"indexed": false,
							"internalType": "uint8",
							"name": "version",
							"type": "uint8"
						}
					],
					"name": "Initialized",
					"type": "event"
				},
				{
					"anonymous": false,
					"inputs": [
						{
							"indexed": true,
							"internalType": "address",
							"name": "from",
							"type": "address"
						},
						{
							"indexed": true,
							"internalType": "address",
							"name": "to",
							"type": "address"
						},
						{
							"indexed": true,
							"internalType": "uint256",
							"name": "tokenId",
							"type": "uint256"
						}
					],
					"name": "Transfer",
					"type": "event"
				},
				{
					"inputs": [
						{
							"internalType": "address",
							"name": "to",
							"type": "address"
						},
						{
							"internalType": "uint256",
							"name": "tokenId",
							"type": "uint256"
						}
					],
					"name": "approve",
					"outputs": [],
					"stateMutability": "nonpayable",
					"type": "function"
				},
				{
					"inputs": [
						{
							"internalType": "address",
							"name": "owner",
							"type": "address"
						}
					],
					"name": "balanceOf",
					"outputs": [
						{
							"internalType": "uint256",
							"name": "",
							"type": "uint256"
						}
					],
					"stateMutability": "view",
					"type": "function"
				},
				{
					"inputs": [],
					"name": "claimToken",
					"outputs": [
						{
							"internalType": "bool",
							"name": "",
							"type": "bool"
						}
					],
					"stateMutability": "payable",
					"type": "function"
				},
				{
					"inputs": [
						{
							"internalType": "uint256",
							"name": "tokenId",
							"type": "uint256"
						}
					],
					"name": "getApproved",
					"outputs": [
						{
							"internalType": "address",
							"name": "",
							"type": "address"
						}
					],
					"stateMutability": "view",
					"type": "function"
				},
				{
					"inputs": [],
					"name": "initialize",
					"outputs": [],
					"stateMutability": "nonpayable",
					"type": "function"
				},
				{
					"inputs": [
						{
							"internalType": "address",
							"name": "owner",
							"type": "address"
						},
						{
							"internalType": "address",
							"name": "operator",
							"type": "address"
						}
					],
					"name": "isApprovedForAll",
					"outputs": [
						{
							"internalType": "bool",
							"name": "",
							"type": "bool"
						}
					],
					"stateMutability": "view",
					"type": "function"
				},
				{
					"inputs": [],
					"name": "maxTokens",
					"outputs": [
						{
							"internalType": "uint8",
							"name": "",
							"type": "uint8"
						}
					],
					"stateMutability": "view",
					"type": "function"
				},
				{
					"inputs": [],
					"name": "name",
					"outputs": [
						{
							"internalType": "string",
							"name": "",
							"type": "string"
						}
					],
					"stateMutability": "view",
					"type": "function"
				},
				{
					"inputs": [
						{
							"internalType": "uint256",
							"name": "tokenId",
							"type": "uint256"
						}
					],
					"name": "ownerOf",
					"outputs": [
						{
							"internalType": "address",
							"name": "",
							"type": "address"
						}
					],
					"stateMutability": "view",
					"type": "function"
				},
				{
					"inputs": [
						{
							"internalType": "address",
							"name": "from",
							"type": "address"
						},
						{
							"internalType": "address",
							"name": "to",
							"type": "address"
						},
						{
							"internalType": "uint256",
							"name": "tokenId",
							"type": "uint256"
						}
					],
					"name": "safeTransferFrom",
					"outputs": [],
					"stateMutability": "nonpayable",
					"type": "function"
				},
				{
					"inputs": [
						{
							"internalType": "address",
							"name": "from",
							"type": "address"
						},
						{
							"internalType": "address",
							"name": "to",
							"type": "address"
						},
						{
							"internalType": "uint256",
							"name": "tokenId",
							"type": "uint256"
						},
						{
							"internalType": "bytes",
							"name": "data",
							"type": "bytes"
						}
					],
					"name": "safeTransferFrom",
					"outputs": [],
					"stateMutability": "nonpayable",
					"type": "function"
				},
				{
					"inputs": [
						{
							"internalType": "address",
							"name": "operator",
							"type": "address"
						},
						{
							"internalType": "bool",
							"name": "approved",
							"type": "bool"
						}
					],
					"name": "setApprovalForAll",
					"outputs": [],
					"stateMutability": "nonpayable",
					"type": "function"
				},
				{
					"inputs": [
						{
							"internalType": "bytes4",
							"name": "interfaceId",
							"type": "bytes4"
						}
					],
					"name": "supportsInterface",
					"outputs": [
						{
							"internalType": "bool",
							"name": "",
							"type": "bool"
						}
					],
					"stateMutability": "view",
					"type": "function"
				},
				{
					"inputs": [],
					"name": "symbol",
					"outputs": [
						{
							"internalType": "string",
							"name": "",
							"type": "string"
						}
					],
					"stateMutability": "view",
					"type": "function"
				},
				{
					"inputs": [],
					"name": "tokenCount",
					"outputs": [
						{
							"internalType": "uint8",
							"name": "",
							"type": "uint8"
						}
					],
					"stateMutability": "view",
					"type": "function"
				},
				{
					"inputs": [
						{
							"internalType": "uint256",
							"name": "tokenId",
							"type": "uint256"
						}
					],
					"name": "tokenURI",
					"outputs": [
						{
							"internalType": "string",
							"name": "",
							"type": "string"
						}
					],
					"stateMutability": "view",
					"type": "function"
				},
				{
					"inputs": [],
					"name": "totalTokenOwners",
					"outputs": [
						{
							"internalType": "uint8",
							"name": "",
							"type": "uint8"
						}
					],
					"stateMutability": "view",
					"type": "function"
				},
				{
					"inputs": [
						{
							"internalType": "address",
							"name": "from",
							"type": "address"
						},
						{
							"internalType": "address",
							"name": "to",
							"type": "address"
						},
						{
							"internalType": "uint256",
							"name": "tokenId",
							"type": "uint256"
						}
					],
					"name": "transferFrom",
					"outputs": [],
					"stateMutability": "nonpayable",
					"type": "function"
				},
				{
					"inputs": [],
					"name": "unclaimedTokens",
					"outputs": [
						{
							"internalType": "uint8",
							"name": "",
							"type": "uint8"
						}
					],
					"stateMutability": "view",
					"type": "function"
				}
			],
			"devdoc": {
				"kind": "dev",
				"methods": {
					"approve(address,uint256)": {
						"details": "See {IERC721-approve}."
					},
					"balanceOf(address)": {
						"details": "See {IERC721-balanceOf}."
					},
					"getApproved(uint256)": {
						"details": "See {IERC721-getApproved}."
					},
					"isApprovedForAll(address,address)": {
						"details": "See {IERC721-isApprovedForAll}."
					},
					"name()": {
						"details": "See {IERC721Metadata-name}."
					},
					"ownerOf(uint256)": {
						"details": "See {IERC721-ownerOf}."
					},
					"safeTransferFrom(address,address,uint256)": {
						"details": "See {IERC721-safeTransferFrom}."
					},
					"safeTransferFrom(address,address,uint256,bytes)": {
						"details": "See {IERC721-safeTransferFrom}."
					},
					"setApprovalForAll(address,bool)": {
						"details": "See {IERC721-setApprovalForAll}."
					},
					"supportsInterface(bytes4)": {
						"details": "See {IERC165-supportsInterface}."
					},
					"symbol()": {
						"details": "See {IERC721Metadata-symbol}."
					},
					"tokenURI(uint256)": {
						"details": "See {IERC721Metadata-tokenURI}."
					},
					"transferFrom(address,address,uint256)": {
						"details": "See {IERC721-transferFrom}."
					}
				},
				"version": 1
			},
			"evm": {
				"assembly": "    /* \"contracts/DeStore/GatedAppSimple.sol\":139:926  contract GateApp is ERC721Upgradeable {... */\n  mstore(0x40, 0x80)\n    /* \"contracts/DeStore/GatedAppSimple.sol\":209:210  0 */\n  0x00\n    /* \"contracts/DeStore/GatedAppSimple.sol\":183:210  uint8 public tokenCount = 0 */\n  0x97\n  exp(0x0100, 0x00)\n  dup2\n  sload\n  dup2\n  0xff\n  mul\n  not\n  and\n  swap1\n  dup4\n  0xff\n  and\n  mul\n  or\n  swap1\n  sstore\n  pop\n    /* \"contracts/DeStore/GatedAppSimple.sol\":241:244  100 */\n  0x64\n    /* \"contracts/DeStore/GatedAppSimple.sol\":216:244  uint8 public maxTokens = 100 */\n  0x97\n  exp(0x0100, 0x01)\n  dup2\n  sload\n  dup2\n  0xff\n  mul\n  not\n  and\n  swap1\n  dup4\n  0xff\n  and\n  mul\n  or\n  swap1\n  sstore\n  pop\n    /* \"contracts/DeStore/GatedAppSimple.sol\":278:296  100000000000000000 */\n  0x016345785d8a0000\n    /* \"contracts/DeStore/GatedAppSimple.sol\":250:296  uint256 initialTokenPrice = 100000000000000000 */\n  0x98\n  sstore\n    /* \"contracts/DeStore/GatedAppSimple.sol\":139:926  contract GateApp is ERC721Upgradeable {... */\n  callvalue\n  dup1\n  iszero\n  tag_1\n  jumpi\n  0x00\n  dup1\n  revert\ntag_1:\n  pop\n  dataSize(sub_0)\n  dup1\n  dataOffset(sub_0)\n  0x00\n  codecopy\n  0x00\n  return\nstop\n\nsub_0: assembly {\n        /* \"contracts/DeStore/GatedAppSimple.sol\":139:926  contract GateApp is ERC721Upgradeable {... */\n      mstore(0x40, 0x80)\n      jumpi(tag_1, lt(calldatasize, 0x04))\n      shr(0xe0, calldataload(0x00))\n      dup1\n      0x70a08231\n      gt\n      tag_21\n      jumpi\n      dup1\n      0xb88d4fde\n      gt\n      tag_22\n      jumpi\n      dup1\n      0xb88d4fde\n      eq\n      tag_16\n      jumpi\n      dup1\n      0xc394f6cb\n      eq\n      tag_17\n      jumpi\n      dup1\n      0xc87b56dd\n      eq\n      tag_18\n      jumpi\n      dup1\n      0xe8315742\n      eq\n      tag_19\n      jumpi\n      dup1\n      0xe985e9c5\n      eq\n      tag_20\n      jumpi\n      jump(tag_1)\n    tag_22:\n      dup1\n      0x70a08231\n      eq\n      tag_11\n      jumpi\n      dup1\n      0x8129fc1c\n      eq\n      tag_12\n      jumpi\n      dup1\n      0x95d89b41\n      eq\n      tag_13\n      jumpi\n      dup1\n      0x9f181b5e\n      eq\n      tag_14\n      jumpi\n      dup1\n      0xa22cb465\n      eq\n      tag_15\n      jumpi\n      jump(tag_1)\n    tag_21:\n      dup1\n      0x23b872dd\n      gt\n      tag_23\n      jumpi\n      dup1\n      0x23b872dd\n      eq\n      tag_6\n      jumpi\n      dup1\n      0x2cabbfe2\n      eq\n      tag_7\n      jumpi\n      dup1\n      0x42842e0e\n      eq\n      tag_8\n      jumpi\n      dup1\n      0x4451d89f\n      eq\n      tag_9\n      jumpi\n      dup1\n      0x6352211e\n      eq\n      tag_10\n      jumpi\n      jump(tag_1)\n    tag_23:\n      dup1\n      0x01ffc9a7\n      eq\n      tag_2\n      jumpi\n      dup1\n      0x06fdde03\n      eq\n      tag_3\n      jumpi\n      dup1\n      0x081812fc\n      eq\n      tag_4\n      jumpi\n      dup1\n      0x095ea7b3\n      eq\n      tag_5\n      jumpi\n    tag_1:\n      0x00\n      dup1\n      revert\n        /* \"@openzeppelin/contracts-upgradeable/token/ERC721/ERC721Upgradeable.sol\":1987:2331  function supportsInterface(bytes4 interfaceId) public view virtual override(ERC165Upgradeable, IERC165Upgradeable) returns (bool) {... */\n    tag_2:\n      callvalue\n      dup1\n      iszero\n      tag_24\n      jumpi\n      0x00\n      dup1\n      revert\n    tag_24:\n      pop\n      tag_25\n      0x04\n      dup1\n      calldatasize\n      sub\n      dup2\n      add\n      swap1\n      tag_26\n      swap2\n      swap1\n      tag_27\n      jump\t// in\n    tag_26:\n      tag_28\n      jump\t// in\n    tag_25:\n      mload(0x40)\n      tag_29\n      swap2\n      swap1\n      tag_30\n      jump\t// in\n    tag_29:\n      mload(0x40)\n      dup1\n      swap2\n      sub\n      swap1\n      return\n        /* \"@openzeppelin/contracts-upgradeable/token/ERC721/ERC721Upgradeable.sol\":2931:3029  function name() public view virtual override returns (string memory) {... */\n    tag_3:\n      callvalue\n      dup1\n      iszero\n      tag_31\n      jumpi\n      0x00\n      dup1\n      revert\n    tag_31:\n      pop\n      tag_32\n      tag_33\n      jump\t// in\n    tag_32:\n      mload(0x40)\n      tag_34\n      swap2\n      swap1\n      tag_35\n      jump\t// in\n    tag_34:\n      mload(0x40)\n      dup1\n      swap2\n      sub\n      swap1\n      return\n        /* \"@openzeppelin/contracts-upgradeable/token/ERC721/ERC721Upgradeable.sol\":4407:4574  function getApproved(uint256 tokenId) public view virtual override returns (address) {... */\n    tag_4:\n      callvalue\n      dup1\n      iszero\n      tag_36\n      jumpi\n      0x00\n      dup1\n      revert\n    tag_36:\n      pop\n      tag_37\n      0x04\n      dup1\n      calldatasize\n      sub\n      dup2\n      add\n      swap1\n      tag_38\n      swap2\n      swap1\n      tag_39\n      jump\t// in\n    tag_38:\n      tag_40\n      jump\t// in\n    tag_37:\n      mload(0x40)\n      tag_41\n      swap2\n      swap1\n      tag_42\n      jump\t// in\n    tag_41:\n      mload(0x40)\n      dup1\n      swap2\n      sub\n      swap1\n      return\n        /* \"@openzeppelin/contracts-upgradeable/token/ERC721/ERC721Upgradeable.sol\":3928:4346  function approve(address to, uint256 tokenId) public virtual override {... */\n    tag_5:\n      callvalue\n      dup1\n      iszero\n      tag_43\n      jumpi\n      0x00\n      dup1\n      revert\n    tag_43:\n      pop\n      tag_44\n      0x04\n      dup1\n      calldatasize\n      sub\n      dup2\n      add\n      swap1\n      tag_45\n      swap2\n      swap1\n      tag_46\n      jump\t// in\n    tag_45:\n      tag_47\n      jump\t// in\n    tag_44:\n      stop\n        /* \"@openzeppelin/contracts-upgradeable/token/ERC721/ERC721Upgradeable.sol\":5084:5411  function transferFrom(... */\n    tag_6:\n      callvalue\n      dup1\n      iszero\n      tag_48\n      jumpi\n      0x00\n      dup1\n      revert\n    tag_48:\n      pop\n      tag_49\n      0x04\n      dup1\n      calldatasize\n      sub\n      dup2\n      add\n      swap1\n      tag_50\n      swap2\n      swap1\n      tag_51\n      jump\t// in\n    tag_50:\n      tag_52\n      jump\t// in\n    tag_49:\n      stop\n        /* \"contracts/DeStore/GatedAppSimple.sol\":834:924  function totalTokenOwners() public view returns (uint8) {... */\n    tag_7:\n      callvalue\n      dup1\n      iszero\n      tag_53\n      jumpi\n      0x00\n      dup1\n      revert\n    tag_53:\n      pop\n      tag_54\n      tag_55\n      jump\t// in\n    tag_54:\n      mload(0x40)\n      tag_56\n      swap2\n      swap1\n      tag_57\n      jump\t// in\n    tag_56:\n      mload(0x40)\n      dup1\n      swap2\n      sub\n      swap1\n      return\n        /* \"@openzeppelin/contracts-upgradeable/token/ERC721/ERC721Upgradeable.sol\":5477:5656  function safeTransferFrom(... */\n    tag_8:\n      callvalue\n      dup1\n      iszero\n      tag_58\n      jumpi\n      0x00\n      dup1\n      revert\n    tag_58:\n      pop\n      tag_59\n      0x04\n      dup1\n      calldatasize\n      sub\n      dup2\n      add\n      swap1\n      tag_60\n      swap2\n      swap1\n      tag_51\n      jump\t// in\n    tag_60:\n      tag_61\n      jump\t// in\n    tag_59:\n      stop\n        /* \"contracts/DeStore/GatedAppSimple.sol\":438:721  function claimToken() public payable returns (bool) {... */\n    tag_9:\n      tag_62\n      tag_63\n      jump\t// in\n    tag_62:\n      mload(0x40)\n      tag_64\n      swap2\n      swap1\n      tag_30\n      jump\t// in\n    tag_64:\n      mload(0x40)\n      dup1\n      swap2\n      sub\n      swap1\n      return\n        /* \"@openzeppelin/contracts-upgradeable/token/ERC721/ERC721Upgradeable.sol\":2651:2869  function ownerOf(uint256 tokenId) public view virtual override returns (address) {... */\n    tag_10:\n      callvalue\n      dup1\n      iszero\n      tag_65\n      jumpi\n      0x00\n      dup1\n      revert\n    tag_65:\n      pop\n      tag_66\n      0x04\n      dup1\n      calldatasize\n      sub\n      dup2\n      add\n      swap1\n      tag_67\n      swap2\n      swap1\n      tag_39\n      jump\t// in\n    tag_67:\n      tag_68\n      jump\t// in\n    tag_66:\n      mload(0x40)\n      tag_69\n      swap2\n      swap1\n      tag_42\n      jump\t// in\n    tag_69:\n      mload(0x40)\n      dup1\n      swap2\n      sub\n      swap1\n      return\n        /* \"@openzeppelin/contracts-upgradeable/token/ERC721/ERC721Upgradeable.sol\":2390:2594  function balanceOf(address owner) public view virtual override returns (uint256) {... */\n    tag_11:\n      callvalue\n      dup1\n      iszero\n      tag_70\n      jumpi\n      0x00\n      dup1\n      revert\n    tag_70:\n      pop\n      tag_71\n      0x04\n      dup1\n      calldatasize\n      sub\n      dup2\n      add\n      swap1\n      tag_72\n      swap2\n      swap1\n      tag_73\n      jump\t// in\n    tag_72:\n      tag_74\n      jump\t// in\n    tag_71:\n      mload(0x40)\n      tag_75\n      swap2\n      swap1\n      tag_76\n      jump\t// in\n    tag_75:\n      mload(0x40)\n      dup1\n      swap2\n      sub\n      swap1\n      return\n        /* \"contracts/DeStore/GatedAppSimple.sol\":344:432  function initialize() public initializer {... */\n    tag_12:\n      callvalue\n      dup1\n      iszero\n      tag_77\n      jumpi\n      0x00\n      dup1\n      revert\n    tag_77:\n      pop\n      tag_78\n      tag_79\n      jump\t// in\n    tag_78:\n      stop\n        /* \"@openzeppelin/contracts-upgradeable/token/ERC721/ERC721Upgradeable.sol\":3093:3195  function symbol() public view virtual override returns (string memory) {... */\n    tag_13:\n      callvalue\n      dup1\n      iszero\n      tag_80\n      jumpi\n      0x00\n      dup1\n      revert\n    tag_80:\n      pop\n      tag_81\n      tag_82\n      jump\t// in\n    tag_81:\n      mload(0x40)\n      tag_83\n      swap2\n      swap1\n      tag_35\n      jump\t// in\n    tag_83:\n      mload(0x40)\n      dup1\n      swap2\n      sub\n      swap1\n      return\n        /* \"contracts/DeStore/GatedAppSimple.sol\":183:210  uint8 public tokenCount = 0 */\n    tag_14:\n      callvalue\n      dup1\n      iszero\n      tag_84\n      jumpi\n      0x00\n      dup1\n      revert\n    tag_84:\n      pop\n      tag_85\n      tag_86\n      jump\t// in\n    tag_85:\n      mload(0x40)\n      tag_87\n      swap2\n      swap1\n      tag_57\n      jump\t// in\n    tag_87:\n      mload(0x40)\n      dup1\n      swap2\n      sub\n      swap1\n      return\n        /* \"@openzeppelin/contracts-upgradeable/token/ERC721/ERC721Upgradeable.sol\":4641:4794  function setApprovalForAll(address operator, bool approved) public virtual override {... */\n    tag_15:\n      callvalue\n      dup1\n      iszero\n      tag_88\n      jumpi\n      0x00\n      dup1\n      revert\n    tag_88:\n      pop\n      tag_89\n      0x04\n      dup1\n      calldatasize\n      sub\n      dup2\n      add\n      swap1\n      tag_90\n      swap2\n      swap1\n      tag_91\n      jump\t// in\n    tag_90:\n      tag_92\n      jump\t// in\n    tag_89:\n      stop\n        /* \"@openzeppelin/contracts-upgradeable/token/ERC721/ERC721Upgradeable.sol\":5722:6037  function safeTransferFrom(... */\n    tag_16:\n      callvalue\n      dup1\n      iszero\n      tag_93\n      jumpi\n      0x00\n      dup1\n      revert\n    tag_93:\n      pop\n      tag_94\n      0x04\n      dup1\n      calldatasize\n      sub\n      dup2\n      add\n      swap1\n      tag_95\n      swap2\n      swap1\n      tag_96\n      jump\t// in\n    tag_95:\n      tag_97\n      jump\t// in\n    tag_94:\n      stop\n        /* \"contracts/DeStore/GatedAppSimple.sol\":727:828  function unclaimedTokens() public view returns (uint8) {... */\n    tag_17:\n      callvalue\n      dup1\n      iszero\n      tag_98\n      jumpi\n      0x00\n      dup1\n      revert\n    tag_98:\n      pop\n      tag_99\n      tag_100\n      jump\t// in\n    tag_99:\n      mload(0x40)\n      tag_101\n      swap2\n      swap1\n      tag_57\n      jump\t// in\n    tag_101:\n      mload(0x40)\n      dup1\n      swap2\n      sub\n      swap1\n      return\n        /* \"@openzeppelin/contracts-upgradeable/token/ERC721/ERC721Upgradeable.sol\":3261:3537  function tokenURI(uint256 tokenId) public view virtual override returns (string memory) {... */\n    tag_18:\n      callvalue\n      dup1\n      iszero\n      tag_102\n      jumpi\n      0x00\n      dup1\n      revert\n    tag_102:\n      pop\n      tag_103\n      0x04\n      dup1\n      calldatasize\n      sub\n      dup2\n      add\n      swap1\n      tag_104\n      swap2\n      swap1\n      tag_39\n      jump\t// in\n    tag_104:\n      tag_105\n      jump\t// in\n    tag_103:\n      mload(0x40)\n      tag_106\n      swap2\n      swap1\n      tag_35\n      jump\t// in\n    tag_106:\n      mload(0x40)\n      dup1\n      swap2\n      sub\n      swap1\n      return\n        /* \"contracts/DeStore/GatedAppSimple.sol\":216:244  uint8 public maxTokens = 100 */\n    tag_19:\n      callvalue\n      dup1\n      iszero\n      tag_107\n      jumpi\n      0x00\n      dup1\n      revert\n    tag_107:\n      pop\n      tag_108\n      tag_109\n      jump\t// in\n    tag_108:\n      mload(0x40)\n      tag_110\n      swap2\n      swap1\n      tag_57\n      jump\t// in\n    tag_110:\n      mload(0x40)\n      dup1\n      swap2\n      sub\n      swap1\n      return\n        /* \"@openzeppelin/contracts-upgradeable/token/ERC721/ERC721Upgradeable.sol\":4860:5022  function isApprovedForAll(address owner, address operator) public view virtual override returns (bool) {... */\n    tag_20:\n      callvalue\n      dup1\n      iszero\n      tag_111\n      jumpi\n      0x00\n      dup1\n      revert\n    tag_111:\n      pop\n      tag_112\n      0x04\n      dup1\n      calldatasize\n      sub\n      dup2\n      add\n      swap1\n      tag_113\n      swap2\n      swap1\n      tag_114\n      jump\t// in\n    tag_113:\n      tag_115\n      jump\t// in\n    tag_112:\n      mload(0x40)\n      tag_116\n      swap2\n      swap1\n      tag_30\n      jump\t// in\n    tag_116:\n      mload(0x40)\n      dup1\n      swap2\n      sub\n      swap1\n      return\n        /* \"@openzeppelin/contracts-upgradeable/token/ERC721/ERC721Upgradeable.sol\":1987:2331  function supportsInterface(bytes4 interfaceId) public view virtual override(ERC165Upgradeable, IERC165Upgradeable) returns (bool) {... */\n    tag_28:\n        /* \"@openzeppelin/contracts-upgradeable/token/ERC721/ERC721Upgradeable.sol\":2111:2115  bool */\n      0x00\n        /* \"@openzeppelin/contracts-upgradeable/token/ERC721/ERC721Upgradeable.sol\":2161:2197  type(IERC721Upgradeable).interfaceId */\n      0x80ac58cd00000000000000000000000000000000000000000000000000000000\n        /* \"@openzeppelin/contracts-upgradeable/token/ERC721/ERC721Upgradeable.sol\":2146:2197  interfaceId == type(IERC721Upgradeable).interfaceId */\n      not(0xffffffffffffffffffffffffffffffffffffffffffffffffffffffff)\n      and\n        /* \"@openzeppelin/contracts-upgradeable/token/ERC721/ERC721Upgradeable.sol\":2146:2157  interfaceId */\n      dup3\n        /* \"@openzeppelin/contracts-upgradeable/token/ERC721/ERC721Upgradeable.sol\":2146:2197  interfaceId == type(IERC721Upgradeable).interfaceId */\n      not(0xffffffffffffffffffffffffffffffffffffffffffffffffffffffff)\n      and\n      eq\n        /* \"@openzeppelin/contracts-upgradeable/token/ERC721/ERC721Upgradeable.sol\":2146:2272  interfaceId == type(IERC721Upgradeable).interfaceId ||... */\n      dup1\n      tag_118\n      jumpi\n      pop\n        /* \"@openzeppelin/contracts-upgradeable/token/ERC721/ERC721Upgradeable.sol\":2228:2272  type(IERC721MetadataUpgradeable).interfaceId */\n      0x5b5e139f00000000000000000000000000000000000000000000000000000000\n        /* \"@openzeppelin/contracts-upgradeable/token/ERC721/ERC721Upgradeable.sol\":2213:2272  interfaceId == type(IERC721MetadataUpgradeable).interfaceId */\n      not(0xffffffffffffffffffffffffffffffffffffffffffffffffffffffff)\n      and\n        /* \"@openzeppelin/contracts-upgradeable/token/ERC721/ERC721Upgradeable.sol\":2213:2224  interfaceId */\n      dup3\n        /* \"@openzeppelin/contracts-upgradeable/token/ERC721/ERC721Upgradeable.sol\":2213:2272  interfaceId == type(IERC721MetadataUpgradeable).interfaceId */\n      not(0xffffffffffffffffffffffffffffffffffffffffffffffffffffffff)\n      and\n      eq\n        /* \"@openzeppelin/contracts-upgradeable/token/ERC721/ERC721Upgradeable.sol\":2146:2272  interfaceId == type(IERC721Upgradeable).interfaceId ||... */\n    tag_118:\n        /* \"@openzeppelin/contracts-upgradeable/token/ERC721/ERC721Upgradeable.sol\":2146:2324  interfaceId == type(IERC721Upgradeable).interfaceId ||... */\n      dup1\n      tag_119\n      jumpi\n      pop\n        /* \"@openzeppelin/contracts-upgradeable/token/ERC721/ERC721Upgradeable.sol\":2288:2324  super.supportsInterface(interfaceId) */\n      tag_120\n        /* \"@openzeppelin/contracts-upgradeable/token/ERC721/ERC721Upgradeable.sol\":2312:2323  interfaceId */\n      dup3\n        /* \"@openzeppelin/contracts-upgradeable/token/ERC721/ERC721Upgradeable.sol\":2288:2311  super.supportsInterface */\n      tag_121\n        /* \"@openzeppelin/contracts-upgradeable/token/ERC721/ERC721Upgradeable.sol\":2288:2324  super.supportsInterface(interfaceId) */\n      jump\t// in\n    tag_120:\n        /* \"@openzeppelin/contracts-upgradeable/token/ERC721/ERC721Upgradeable.sol\":2146:2324  interfaceId == type(IERC721Upgradeable).interfaceId ||... */\n    tag_119:\n        /* \"@openzeppelin/contracts-upgradeable/token/ERC721/ERC721Upgradeable.sol\":2127:2324  return... */\n      swap1\n      pop\n        /* \"@openzeppelin/contracts-upgradeable/token/ERC721/ERC721Upgradeable.sol\":1987:2331  function supportsInterface(bytes4 interfaceId) public view virtual override(ERC165Upgradeable, IERC165Upgradeable) returns (bool) {... */\n      swap2\n      swap1\n      pop\n      jump\t// out\n        /* \"@openzeppelin/contracts-upgradeable/token/ERC721/ERC721Upgradeable.sol\":2931:3029  function name() public view virtual override returns (string memory) {... */\n    tag_33:\n        /* \"@openzeppelin/contracts-upgradeable/token/ERC721/ERC721Upgradeable.sol\":2985:2998  string memory */\n      0x60\n        /* \"@openzeppelin/contracts-upgradeable/token/ERC721/ERC721Upgradeable.sol\":3017:3022  _name */\n      0x65\n        /* \"@openzeppelin/contracts-upgradeable/token/ERC721/ERC721Upgradeable.sol\":3010:3022  return _name */\n      dup1\n      sload\n      tag_123\n      swap1\n      tag_124\n      jump\t// in\n    tag_123:\n      dup1\n      0x1f\n      add\n      0x20\n      dup1\n      swap2\n      div\n      mul\n      0x20\n      add\n      mload(0x40)\n      swap1\n      dup2\n      add\n      0x40\n      mstore\n      dup1\n      swap3\n      swap2\n      swap1\n      dup2\n      dup2\n      mstore\n      0x20\n      add\n      dup3\n      dup1\n      sload\n      tag_125\n      swap1\n      tag_124\n      jump\t// in\n    tag_125:\n      dup1\n      iszero\n      tag_126\n      jumpi\n      dup1\n      0x1f\n      lt\n      tag_127\n      jumpi\n      0x0100\n      dup1\n      dup4\n      sload\n      div\n      mul\n      dup4\n      mstore\n      swap2\n      0x20\n      add\n      swap2\n      jump(tag_126)\n    tag_127:\n      dup3\n      add\n      swap2\n      swap1\n      0x00\n      mstore\n      keccak256(0x00, 0x20)\n      swap1\n    tag_128:\n      dup2\n      sload\n      dup2\n      mstore\n      swap1\n      0x01\n      add\n      swap1\n      0x20\n      add\n      dup1\n      dup4\n      gt\n      tag_128\n      jumpi\n      dup3\n      swap1\n      sub\n      0x1f\n      and\n      dup3\n      add\n      swap2\n    tag_126:\n      pop\n      pop\n      pop\n      pop\n      pop\n      swap1\n      pop\n        /* \"@openzeppelin/contracts-upgradeable/token/ERC721/ERC721Upgradeable.sol\":2931:3029  function name() public view virtual override returns (string memory) {... */\n      swap1\n      jump\t// out\n        /* \"@openzeppelin/contracts-upgradeable/token/ERC721/ERC721Upgradeable.sol\":4407:4574  function getApproved(uint256 tokenId) public view virtual override returns (address) {... */\n    tag_40:\n        /* \"@openzeppelin/contracts-upgradeable/token/ERC721/ERC721Upgradeable.sol\":4483:4490  address */\n      0x00\n        /* \"@openzeppelin/contracts-upgradeable/token/ERC721/ERC721Upgradeable.sol\":4502:4525  _requireMinted(tokenId) */\n      tag_130\n        /* \"@openzeppelin/contracts-upgradeable/token/ERC721/ERC721Upgradeable.sol\":4517:4524  tokenId */\n      dup3\n        /* \"@openzeppelin/contracts-upgradeable/token/ERC721/ERC721Upgradeable.sol\":4502:4516  _requireMinted */\n      tag_131\n        /* \"@openzeppelin/contracts-upgradeable/token/ERC721/ERC721Upgradeable.sol\":4502:4525  _requireMinted(tokenId) */\n      jump\t// in\n    tag_130:\n        /* \"@openzeppelin/contracts-upgradeable/token/ERC721/ERC721Upgradeable.sol\":4543:4558  _tokenApprovals */\n      0x69\n        /* \"@openzeppelin/contracts-upgradeable/token/ERC721/ERC721Upgradeable.sol\":4543:4567  _tokenApprovals[tokenId] */\n      0x00\n        /* \"@openzeppelin/contracts-upgradeable/token/ERC721/ERC721Upgradeable.sol\":4559:4566  tokenId */\n      dup4\n        /* \"@openzeppelin/contracts-upgradeable/token/ERC721/ERC721Upgradeable.sol\":4543:4567  _tokenApprovals[tokenId] */\n      dup2\n      mstore\n      0x20\n      add\n      swap1\n      dup2\n      mstore\n      0x20\n      add\n      0x00\n      keccak256\n      0x00\n      swap1\n      sload\n      swap1\n      0x0100\n      exp\n      swap1\n      div\n      0xffffffffffffffffffffffffffffffffffffffff\n      and\n        /* \"@openzeppelin/contracts-upgradeable/token/ERC721/ERC721Upgradeable.sol\":4536:4567  return _tokenApprovals[tokenId] */\n      swap1\n      pop\n        /* \"@openzeppelin/contracts-upgradeable/token/ERC721/ERC721Upgradeable.sol\":4407:4574  function getApproved(uint256 tokenId) public view virtual override returns (address) {... */\n      swap2\n      swap1\n      pop\n      jump\t// out\n        /* \"@openzeppelin/contracts-upgradeable/token/ERC721/ERC721Upgradeable.sol\":3928:4346  function approve(address to, uint256 tokenId) public virtual override {... */\n    tag_47:\n        /* \"@openzeppelin/contracts-upgradeable/token/ERC721/ERC721Upgradeable.sol\":4008:4021  address owner */\n      0x00\n        /* \"@openzeppelin/contracts-upgradeable/token/ERC721/ERC721Upgradeable.sol\":4024:4058  ERC721Upgradeable.ownerOf(tokenId) */\n      tag_133\n        /* \"@openzeppelin/contracts-upgradeable/token/ERC721/ERC721Upgradeable.sol\":4050:4057  tokenId */\n      dup3\n        /* \"@openzeppelin/contracts-upgradeable/token/ERC721/ERC721Upgradeable.sol\":4024:4049  ERC721Upgradeable.ownerOf */\n      tag_68\n        /* \"@openzeppelin/contracts-upgradeable/token/ERC721/ERC721Upgradeable.sol\":4024:4058  ERC721Upgradeable.ownerOf(tokenId) */\n      jump\t// in\n    tag_133:\n        /* \"@openzeppelin/contracts-upgradeable/token/ERC721/ERC721Upgradeable.sol\":4008:4058  address owner = ERC721Upgradeable.ownerOf(tokenId) */\n      swap1\n      pop\n        /* \"@openzeppelin/contracts-upgradeable/token/ERC721/ERC721Upgradeable.sol\":4082:4087  owner */\n      dup1\n        /* \"@openzeppelin/contracts-upgradeable/token/ERC721/ERC721Upgradeable.sol\":4076:4087  to != owner */\n      0xffffffffffffffffffffffffffffffffffffffff\n      and\n        /* \"@openzeppelin/contracts-upgradeable/token/ERC721/ERC721Upgradeable.sol\":4076:4078  to */\n      dup4\n        /* \"@openzeppelin/contracts-upgradeable/token/ERC721/ERC721Upgradeable.sol\":4076:4087  to != owner */\n      0xffffffffffffffffffffffffffffffffffffffff\n      and\n      sub\n        /* \"@openzeppelin/contracts-upgradeable/token/ERC721/ERC721Upgradeable.sol\":4068:4125  require(to != owner, \"ERC721: approval to current owner\") */\n      tag_134\n      jumpi\n      mload(0x40)\n      0x08c379a000000000000000000000000000000000000000000000000000000000\n      dup2\n      mstore\n      0x04\n      add\n      tag_135\n      swap1\n      tag_136\n      jump\t// in\n    tag_135:\n      mload(0x40)\n      dup1\n      swap2\n      sub\n      swap1\n      revert\n    tag_134:\n        /* \"@openzeppelin/contracts-upgradeable/token/ERC721/ERC721Upgradeable.sol\":4173:4178  owner */\n      dup1\n        /* \"@openzeppelin/contracts-upgradeable/token/ERC721/ERC721Upgradeable.sol\":4157:4178  _msgSender() == owner */\n      0xffffffffffffffffffffffffffffffffffffffff\n      and\n        /* \"@openzeppelin/contracts-upgradeable/token/ERC721/ERC721Upgradeable.sol\":4157:4169  _msgSender() */\n      tag_137\n        /* \"@openzeppelin/contracts-upgradeable/token/ERC721/ERC721Upgradeable.sol\":4157:4167  _msgSender */\n      tag_138\n        /* \"@openzeppelin/contracts-upgradeable/token/ERC721/ERC721Upgradeable.sol\":4157:4169  _msgSender() */\n      jump\t// in\n    tag_137:\n        /* \"@openzeppelin/contracts-upgradeable/token/ERC721/ERC721Upgradeable.sol\":4157:4178  _msgSender() == owner */\n      0xffffffffffffffffffffffffffffffffffffffff\n      and\n      eq\n        /* \"@openzeppelin/contracts-upgradeable/token/ERC721/ERC721Upgradeable.sol\":4157:4219  _msgSender() == owner || isApprovedForAll(owner, _msgSender()) */\n      dup1\n      tag_139\n      jumpi\n      pop\n        /* \"@openzeppelin/contracts-upgradeable/token/ERC721/ERC721Upgradeable.sol\":4182:4219  isApprovedForAll(owner, _msgSender()) */\n      tag_140\n        /* \"@openzeppelin/contracts-upgradeable/token/ERC721/ERC721Upgradeable.sol\":4199:4204  owner */\n      dup2\n        /* \"@openzeppelin/contracts-upgradeable/token/ERC721/ERC721Upgradeable.sol\":4206:4218  _msgSender() */\n      tag_141\n        /* \"@openzeppelin/contracts-upgradeable/token/ERC721/ERC721Upgradeable.sol\":4206:4216  _msgSender */\n      tag_138\n        /* \"@openzeppelin/contracts-upgradeable/token/ERC721/ERC721Upgradeable.sol\":4206:4218  _msgSender() */\n      jump\t// in\n    tag_141:\n        /* \"@openzeppelin/contracts-upgradeable/token/ERC721/ERC721Upgradeable.sol\":4182:4198  isApprovedForAll */\n      tag_115\n        /* \"@openzeppelin/contracts-upgradeable/token/ERC721/ERC721Upgradeable.sol\":4182:4219  isApprovedForAll(owner, _msgSender()) */\n      jump\t// in\n    tag_140:\n        /* \"@openzeppelin/contracts-upgradeable/token/ERC721/ERC721Upgradeable.sol\":4157:4219  _msgSender() == owner || isApprovedForAll(owner, _msgSender()) */\n    tag_139:\n        /* \"@openzeppelin/contracts-upgradeable/token/ERC721/ERC721Upgradeable.sol\":4136:4307  require(... */\n      tag_142\n      jumpi\n      mload(0x40)\n      0x08c379a000000000000000000000000000000000000000000000000000000000\n      dup2\n      mstore\n      0x04\n      add\n      tag_143\n      swap1\n      tag_144\n      jump\t// in\n    tag_143:\n      mload(0x40)\n      dup1\n      swap2\n      sub\n      swap1\n      revert\n    tag_142:\n        /* \"@openzeppelin/contracts-upgradeable/token/ERC721/ERC721Upgradeable.sol\":4318:4339  _approve(to, tokenId) */\n      tag_145\n        /* \"@openzeppelin/contracts-upgradeable/token/ERC721/ERC721Upgradeable.sol\":4327:4329  to */\n      dup4\n        /* \"@openzeppelin/contracts-upgradeable/token/ERC721/ERC721Upgradeable.sol\":4331:4338  tokenId */\n      dup4\n        /* \"@openzeppelin/contracts-upgradeable/token/ERC721/ERC721Upgradeable.sol\":4318:4326  _approve */\n      tag_146\n        /* \"@openzeppelin/contracts-upgradeable/token/ERC721/ERC721Upgradeable.sol\":4318:4339  _approve(to, tokenId) */\n      jump\t// in\n    tag_145:\n        /* \"@openzeppelin/contracts-upgradeable/token/ERC721/ERC721Upgradeable.sol\":3998:4346  {... */\n      pop\n        /* \"@openzeppelin/contracts-upgradeable/token/ERC721/ERC721Upgradeable.sol\":3928:4346  function approve(address to, uint256 tokenId) public virtual override {... */\n      pop\n      pop\n      jump\t// out\n        /* \"@openzeppelin/contracts-upgradeable/token/ERC721/ERC721Upgradeable.sol\":5084:5411  function transferFrom(... */\n    tag_52:\n        /* \"@openzeppelin/contracts-upgradeable/token/ERC721/ERC721Upgradeable.sol\":5273:5314  _isApprovedOrOwner(_msgSender(), tokenId) */\n      tag_148\n        /* \"@openzeppelin/contracts-upgradeable/token/ERC721/ERC721Upgradeable.sol\":5292:5304  _msgSender() */\n      tag_149\n        /* \"@openzeppelin/contracts-upgradeable/token/ERC721/ERC721Upgradeable.sol\":5292:5302  _msgSender */\n      tag_138\n        /* \"@openzeppelin/contracts-upgradeable/token/ERC721/ERC721Upgradeable.sol\":5292:5304  _msgSender() */\n      jump\t// in\n    tag_149:\n        /* \"@openzeppelin/contracts-upgradeable/token/ERC721/ERC721Upgradeable.sol\":5306:5313  tokenId */\n      dup3\n        /* \"@openzeppelin/contracts-upgradeable/token/ERC721/ERC721Upgradeable.sol\":5273:5291  _isApprovedOrOwner */\n      tag_150\n        /* \"@openzeppelin/contracts-upgradeable/token/ERC721/ERC721Upgradeable.sol\":5273:5314  _isApprovedOrOwner(_msgSender(), tokenId) */\n      jump\t// in\n    tag_148:\n        /* \"@openzeppelin/contracts-upgradeable/token/ERC721/ERC721Upgradeable.sol\":5265:5365  require(_isApprovedOrOwner(_msgSender(), tokenId), \"ERC721: caller is not token owner nor approved\") */\n      tag_151\n      jumpi\n      mload(0x40)\n      0x08c379a000000000000000000000000000000000000000000000000000000000\n      dup2\n      mstore\n      0x04\n      add\n      tag_152\n      swap1\n      tag_153\n      jump\t// in\n    tag_152:\n      mload(0x40)\n      dup1\n      swap2\n      sub\n      swap1\n      revert\n    tag_151:\n        /* \"@openzeppelin/contracts-upgradeable/token/ERC721/ERC721Upgradeable.sol\":5376:5404  _transfer(from, to, tokenId) */\n      tag_154\n        /* \"@openzeppelin/contracts-upgradeable/token/ERC721/ERC721Upgradeable.sol\":5386:5390  from */\n      dup4\n        /* \"@openzeppelin/contracts-upgradeable/token/ERC721/ERC721Upgradeable.sol\":5392:5394  to */\n      dup4\n        /* \"@openzeppelin/contracts-upgradeable/token/ERC721/ERC721Upgradeable.sol\":5396:5403  tokenId */\n      dup4\n        /* \"@openzeppelin/contracts-upgradeable/token/ERC721/ERC721Upgradeable.sol\":5376:5385  _transfer */\n      tag_155\n        /* \"@openzeppelin/contracts-upgradeable/token/ERC721/ERC721Upgradeable.sol\":5376:5404  _transfer(from, to, tokenId) */\n      jump\t// in\n    tag_154:\n        /* \"@openzeppelin/contracts-upgradeable/token/ERC721/ERC721Upgradeable.sol\":5084:5411  function transferFrom(... */\n      pop\n      pop\n      pop\n      jump\t// out\n        /* \"contracts/DeStore/GatedAppSimple.sol\":834:924  function totalTokenOwners() public view returns (uint8) {... */\n    tag_55:\n        /* \"contracts/DeStore/GatedAppSimple.sol\":883:888  uint8 */\n      0x00\n        /* \"contracts/DeStore/GatedAppSimple.sol\":907:917  tokenCount */\n      0x97\n      0x00\n      swap1\n      sload\n      swap1\n      0x0100\n      exp\n      swap1\n      div\n      0xff\n      and\n        /* \"contracts/DeStore/GatedAppSimple.sol\":900:917  return tokenCount */\n      swap1\n      pop\n        /* \"contracts/DeStore/GatedAppSimple.sol\":834:924  function totalTokenOwners() public view returns (uint8) {... */\n      swap1\n      jump\t// out\n        /* \"@openzeppelin/contracts-upgradeable/token/ERC721/ERC721Upgradeable.sol\":5477:5656  function safeTransferFrom(... */\n    tag_61:\n        /* \"@openzeppelin/contracts-upgradeable/token/ERC721/ERC721Upgradeable.sol\":5610:5649  safeTransferFrom(from, to, tokenId, \"\") */\n      tag_158\n        /* \"@openzeppelin/contracts-upgradeable/token/ERC721/ERC721Upgradeable.sol\":5627:5631  from */\n      dup4\n        /* \"@openzeppelin/contracts-upgradeable/token/ERC721/ERC721Upgradeable.sol\":5633:5635  to */\n      dup4\n        /* \"@openzeppelin/contracts-upgradeable/token/ERC721/ERC721Upgradeable.sol\":5637:5644  tokenId */\n      dup4\n        /* \"@openzeppelin/contracts-upgradeable/token/ERC721/ERC721Upgradeable.sol\":5610:5649  safeTransferFrom(from, to, tokenId, \"\") */\n      mload(0x40)\n      dup1\n      0x20\n      add\n      0x40\n      mstore\n      dup1\n      0x00\n      dup2\n      mstore\n      pop\n        /* \"@openzeppelin/contracts-upgradeable/token/ERC721/ERC721Upgradeable.sol\":5610:5626  safeTransferFrom */\n      tag_97\n        /* \"@openzeppelin/contracts-upgradeable/token/ERC721/ERC721Upgradeable.sol\":5610:5649  safeTransferFrom(from, to, tokenId, \"\") */\n      jump\t// in\n    tag_158:\n        /* \"@openzeppelin/contracts-upgradeable/token/ERC721/ERC721Upgradeable.sol\":5477:5656  function safeTransferFrom(... */\n      pop\n      pop\n      pop\n      jump\t// out\n        /* \"contracts/DeStore/GatedAppSimple.sol\":438:721  function claimToken() public payable returns (bool) {... */\n    tag_63:\n        /* \"contracts/DeStore/GatedAppSimple.sol\":484:488  bool */\n      0x00\n        /* \"contracts/DeStore/GatedAppSimple.sol\":521:538  initialTokenPrice */\n      sload(0x98)\n        /* \"contracts/DeStore/GatedAppSimple.sol\":508:517  msg.value */\n      callvalue\n        /* \"contracts/DeStore/GatedAppSimple.sol\":508:538  msg.value == initialTokenPrice */\n      eq\n        /* \"contracts/DeStore/GatedAppSimple.sol\":500:539  require(msg.value == initialTokenPrice) */\n      tag_160\n      jumpi\n      0x00\n      dup1\n      revert\n    tag_160:\n        /* \"contracts/DeStore/GatedAppSimple.sol\":567:576  maxTokens */\n      0x97\n      0x01\n      swap1\n      sload\n      swap1\n      0x0100\n      exp\n      swap1\n      div\n      0xff\n      and\n        /* \"contracts/DeStore/GatedAppSimple.sol\":554:576  tokenCount < maxTokens */\n      0xff\n      and\n        /* \"contracts/DeStore/GatedAppSimple.sol\":554:564  tokenCount */\n      0x97\n      0x00\n      swap1\n      sload\n      swap1\n      0x0100\n      exp\n      swap1\n      div\n      0xff\n      and\n        /* \"contracts/DeStore/GatedAppSimple.sol\":554:576  tokenCount < maxTokens */\n      0xff\n      and\n      lt\n        /* \"contracts/DeStore/GatedAppSimple.sol\":553:609  (tokenCount < maxTokens) && (balanceOf(msg.sender) == 0) */\n      dup1\n      iszero\n      tag_161\n      jumpi\n      pop\n        /* \"contracts/DeStore/GatedAppSimple.sol\":607:608  0 */\n      0x00\n        /* \"contracts/DeStore/GatedAppSimple.sol\":582:603  balanceOf(msg.sender) */\n      tag_162\n        /* \"contracts/DeStore/GatedAppSimple.sol\":592:602  msg.sender */\n      caller\n        /* \"contracts/DeStore/GatedAppSimple.sol\":582:591  balanceOf */\n      tag_74\n        /* \"contracts/DeStore/GatedAppSimple.sol\":582:603  balanceOf(msg.sender) */\n      jump\t// in\n    tag_162:\n        /* \"contracts/DeStore/GatedAppSimple.sol\":582:608  balanceOf(msg.sender) == 0 */\n      eq\n        /* \"contracts/DeStore/GatedAppSimple.sol\":553:609  (tokenCount < maxTokens) && (balanceOf(msg.sender) == 0) */\n    tag_161:\n        /* \"contracts/DeStore/GatedAppSimple.sol\":549:694  if ((tokenCount < maxTokens) && (balanceOf(msg.sender) == 0)) {... */\n      iszero\n      tag_163\n      jumpi\n        /* \"contracts/DeStore/GatedAppSimple.sol\":625:654  _mint(msg.sender, tokenCount) */\n      tag_164\n        /* \"contracts/DeStore/GatedAppSimple.sol\":631:641  msg.sender */\n      caller\n        /* \"contracts/DeStore/GatedAppSimple.sol\":643:653  tokenCount */\n      0x97\n      0x00\n      swap1\n      sload\n      swap1\n      0x0100\n      exp\n      swap1\n      div\n      0xff\n      and\n        /* \"contracts/DeStore/GatedAppSimple.sol\":625:654  _mint(msg.sender, tokenCount) */\n      0xff\n      and\n        /* \"contracts/DeStore/GatedAppSimple.sol\":625:630  _mint */\n      tag_165\n        /* \"contracts/DeStore/GatedAppSimple.sol\":625:654  _mint(msg.sender, tokenCount) */\n      jump\t// in\n    tag_164:\n        /* \"contracts/DeStore/GatedAppSimple.sol\":682:683  1 */\n      0x01\n        /* \"contracts/DeStore/GatedAppSimple.sol\":668:678  tokenCount */\n      0x97\n      0x00\n        /* \"contracts/DeStore/GatedAppSimple.sol\":668:683  tokenCount += 1 */\n      dup3\n      dup3\n      dup3\n      swap1\n      sload\n      swap1\n      0x0100\n      exp\n      swap1\n      div\n      0xff\n      and\n      tag_166\n      swap2\n      swap1\n      tag_167\n      jump\t// in\n    tag_166:\n      swap3\n      pop\n      0x0100\n      exp\n      dup2\n      sload\n      dup2\n      0xff\n      mul\n      not\n      and\n      swap1\n      dup4\n      0xff\n      and\n      mul\n      or\n      swap1\n      sstore\n      pop\n        /* \"contracts/DeStore/GatedAppSimple.sol\":549:694  if ((tokenCount < maxTokens) && (balanceOf(msg.sender) == 0)) {... */\n    tag_163:\n        /* \"contracts/DeStore/GatedAppSimple.sol\":710:714  true */\n      0x01\n        /* \"contracts/DeStore/GatedAppSimple.sol\":703:714  return true */\n      swap1\n      pop\n        /* \"contracts/DeStore/GatedAppSimple.sol\":438:721  function claimToken() public payable returns (bool) {... */\n      swap1\n      jump\t// out\n        /* \"@openzeppelin/contracts-upgradeable/token/ERC721/ERC721Upgradeable.sol\":2651:2869  function ownerOf(uint256 tokenId) public view virtual override returns (address) {... */\n    tag_68:\n        /* \"@openzeppelin/contracts-upgradeable/token/ERC721/ERC721Upgradeable.sol\":2723:2730  address */\n      0x00\n        /* \"@openzeppelin/contracts-upgradeable/token/ERC721/ERC721Upgradeable.sol\":2742:2755  address owner */\n      dup1\n        /* \"@openzeppelin/contracts-upgradeable/token/ERC721/ERC721Upgradeable.sol\":2758:2765  _owners */\n      0x67\n        /* \"@openzeppelin/contracts-upgradeable/token/ERC721/ERC721Upgradeable.sol\":2758:2774  _owners[tokenId] */\n      0x00\n        /* \"@openzeppelin/contracts-upgradeable/token/ERC721/ERC721Upgradeable.sol\":2766:2773  tokenId */\n      dup5\n        /* \"@openzeppelin/contracts-upgradeable/token/ERC721/ERC721Upgradeable.sol\":2758:2774  _owners[tokenId] */\n      dup2\n      mstore\n      0x20\n      add\n      swap1\n      dup2\n      mstore\n      0x20\n      add\n      0x00\n      keccak256\n      0x00\n      swap1\n      sload\n      swap1\n      0x0100\n      exp\n      swap1\n      div\n      0xffffffffffffffffffffffffffffffffffffffff\n      and\n        /* \"@openzeppelin/contracts-upgradeable/token/ERC721/ERC721Upgradeable.sol\":2742:2774  address owner = _owners[tokenId] */\n      swap1\n      pop\n        /* \"@openzeppelin/contracts-upgradeable/token/ERC721/ERC721Upgradeable.sol\":2809:2810  0 */\n      0x00\n        /* \"@openzeppelin/contracts-upgradeable/token/ERC721/ERC721Upgradeable.sol\":2792:2811  owner != address(0) */\n      0xffffffffffffffffffffffffffffffffffffffff\n      and\n        /* \"@openzeppelin/contracts-upgradeable/token/ERC721/ERC721Upgradeable.sol\":2792:2797  owner */\n      dup2\n        /* \"@openzeppelin/contracts-upgradeable/token/ERC721/ERC721Upgradeable.sol\":2792:2811  owner != address(0) */\n      0xffffffffffffffffffffffffffffffffffffffff\n      and\n      sub\n        /* \"@openzeppelin/contracts-upgradeable/token/ERC721/ERC721Upgradeable.sol\":2784:2840  require(owner != address(0), \"ERC721: invalid token ID\") */\n      tag_169\n      jumpi\n      mload(0x40)\n      0x08c379a000000000000000000000000000000000000000000000000000000000\n      dup2\n      mstore\n      0x04\n      add\n      tag_170\n      swap1\n      tag_171\n      jump\t// in\n    tag_170:\n      mload(0x40)\n      dup1\n      swap2\n      sub\n      swap1\n      revert\n    tag_169:\n        /* \"@openzeppelin/contracts-upgradeable/token/ERC721/ERC721Upgradeable.sol\":2857:2862  owner */\n      dup1\n        /* \"@openzeppelin/contracts-upgradeable/token/ERC721/ERC721Upgradeable.sol\":2850:2862  return owner */\n      swap2\n      pop\n      pop\n        /* \"@openzeppelin/contracts-upgradeable/token/ERC721/ERC721Upgradeable.sol\":2651:2869  function ownerOf(uint256 tokenId) public view virtual override returns (address) {... */\n      swap2\n      swap1\n      pop\n      jump\t// out\n        /* \"@openzeppelin/contracts-upgradeable/token/ERC721/ERC721Upgradeable.sol\":2390:2594  function balanceOf(address owner) public view virtual override returns (uint256) {... */\n    tag_74:\n        /* \"@openzeppelin/contracts-upgradeable/token/ERC721/ERC721Upgradeable.sol\":2462:2469  uint256 */\n      0x00\n        /* \"@openzeppelin/contracts-upgradeable/token/ERC721/ERC721Upgradeable.sol\":2506:2507  0 */\n      dup1\n        /* \"@openzeppelin/contracts-upgradeable/token/ERC721/ERC721Upgradeable.sol\":2489:2508  owner != address(0) */\n      0xffffffffffffffffffffffffffffffffffffffff\n      and\n        /* \"@openzeppelin/contracts-upgradeable/token/ERC721/ERC721Upgradeable.sol\":2489:2494  owner */\n      dup3\n        /* \"@openzeppelin/contracts-upgradeable/token/ERC721/ERC721Upgradeable.sol\":2489:2508  owner != address(0) */\n      0xffffffffffffffffffffffffffffffffffffffff\n      and\n      sub\n        /* \"@openzeppelin/contracts-upgradeable/token/ERC721/ERC721Upgradeable.sol\":2481:2554  require(owner != address(0), \"ERC721: address zero is not a valid owner\") */\n      tag_173\n      jumpi\n      mload(0x40)\n      0x08c379a000000000000000000000000000000000000000000000000000000000\n      dup2\n      mstore\n      0x04\n      add\n      tag_174\n      swap1\n      tag_175\n      jump\t// in\n    tag_174:\n      mload(0x40)\n      dup1\n      swap2\n      sub\n      swap1\n      revert\n    tag_173:\n        /* \"@openzeppelin/contracts-upgradeable/token/ERC721/ERC721Upgradeable.sol\":2571:2580  _balances */\n      0x68\n        /* \"@openzeppelin/contracts-upgradeable/token/ERC721/ERC721Upgradeable.sol\":2571:2587  _balances[owner] */\n      0x00\n        /* \"@openzeppelin/contracts-upgradeable/token/ERC721/ERC721Upgradeable.sol\":2581:2586  owner */\n      dup4\n        /* \"@openzeppelin/contracts-upgradeable/token/ERC721/ERC721Upgradeable.sol\":2571:2587  _balances[owner] */\n      0xffffffffffffffffffffffffffffffffffffffff\n      and\n      0xffffffffffffffffffffffffffffffffffffffff\n      and\n      dup2\n      mstore\n      0x20\n      add\n      swap1\n      dup2\n      mstore\n      0x20\n      add\n      0x00\n      keccak256\n      sload\n        /* \"@openzeppelin/contracts-upgradeable/token/ERC721/ERC721Upgradeable.sol\":2564:2587  return _balances[owner] */\n      swap1\n      pop\n        /* \"@openzeppelin/contracts-upgradeable/token/ERC721/ERC721Upgradeable.sol\":2390:2594  function balanceOf(address owner) public view virtual override returns (uint256) {... */\n      swap2\n      swap1\n      pop\n      jump\t// out\n        /* \"contracts/DeStore/GatedAppSimple.sol\":344:432  function initialize() public initializer {... */\n    tag_79:\n        /* \"@openzeppelin/contracts-upgradeable/proxy/utils/Initializable.sol\":3111:3130  bool isTopLevelCall */\n      0x00\n        /* \"@openzeppelin/contracts-upgradeable/proxy/utils/Initializable.sol\":3134:3147  _initializing */\n      dup1\n      0x01\n      swap1\n      sload\n      swap1\n      0x0100\n      exp\n      swap1\n      div\n      0xff\n      and\n        /* \"@openzeppelin/contracts-upgradeable/proxy/utils/Initializable.sol\":3133:3147  !_initializing */\n      iszero\n        /* \"@openzeppelin/contracts-upgradeable/proxy/utils/Initializable.sol\":3111:3147  bool isTopLevelCall = !_initializing */\n      swap1\n      pop\n        /* \"@openzeppelin/contracts-upgradeable/proxy/utils/Initializable.sol\":3179:3193  isTopLevelCall */\n      dup1\n        /* \"@openzeppelin/contracts-upgradeable/proxy/utils/Initializable.sol\":3179:3213  isTopLevelCall && _initialized < 1 */\n      dup1\n      iszero\n      tag_177\n      jumpi\n      pop\n        /* \"@openzeppelin/contracts-upgradeable/proxy/utils/Initializable.sol\":3212:3213  1 */\n      0x01\n        /* \"@openzeppelin/contracts-upgradeable/proxy/utils/Initializable.sol\":3197:3209  _initialized */\n      0x00\n      dup1\n      sload\n      swap1\n      0x0100\n      exp\n      swap1\n      div\n      0xff\n      and\n        /* \"@openzeppelin/contracts-upgradeable/proxy/utils/Initializable.sol\":3197:3213  _initialized < 1 */\n      0xff\n      and\n      lt\n        /* \"@openzeppelin/contracts-upgradeable/proxy/utils/Initializable.sol\":3179:3213  isTopLevelCall && _initialized < 1 */\n    tag_177:\n        /* \"@openzeppelin/contracts-upgradeable/proxy/utils/Initializable.sol\":3178:3286  (isTopLevelCall && _initialized < 1) || (!AddressUpgradeable.isContract(address(this)) && _initialized == 1) */\n      dup1\n      tag_178\n      jumpi\n      pop\n        /* \"@openzeppelin/contracts-upgradeable/proxy/utils/Initializable.sol\":3220:3264  AddressUpgradeable.isContract(address(this)) */\n      tag_179\n        /* \"@openzeppelin/contracts-upgradeable/proxy/utils/Initializable.sol\":3258:3262  this */\n      address\n        /* \"@openzeppelin/contracts-upgradeable/proxy/utils/Initializable.sol\":3220:3249  AddressUpgradeable.isContract */\n      tag_180\n        /* \"@openzeppelin/contracts-upgradeable/proxy/utils/Initializable.sol\":3220:3264  AddressUpgradeable.isContract(address(this)) */\n      jump\t// in\n    tag_179:\n        /* \"@openzeppelin/contracts-upgradeable/proxy/utils/Initializable.sol\":3219:3264  !AddressUpgradeable.isContract(address(this)) */\n      iszero\n        /* \"@openzeppelin/contracts-upgradeable/proxy/utils/Initializable.sol\":3219:3285  !AddressUpgradeable.isContract(address(this)) && _initialized == 1 */\n      dup1\n      iszero\n      tag_181\n      jumpi\n      pop\n        /* \"@openzeppelin/contracts-upgradeable/proxy/utils/Initializable.sol\":3284:3285  1 */\n      0x01\n        /* \"@openzeppelin/contracts-upgradeable/proxy/utils/Initializable.sol\":3268:3280  _initialized */\n      0x00\n      dup1\n      sload\n      swap1\n      0x0100\n      exp\n      swap1\n      div\n      0xff\n      and\n        /* \"@openzeppelin/contracts-upgradeable/proxy/utils/Initializable.sol\":3268:3285  _initialized == 1 */\n      0xff\n      and\n      eq\n        /* \"@openzeppelin/contracts-upgradeable/proxy/utils/Initializable.sol\":3219:3285  !AddressUpgradeable.isContract(address(this)) && _initialized == 1 */\n    tag_181:\n        /* \"@openzeppelin/contracts-upgradeable/proxy/utils/Initializable.sol\":3178:3286  (isTopLevelCall && _initialized < 1) || (!AddressUpgradeable.isContract(address(this)) && _initialized == 1) */\n    tag_178:\n        /* \"@openzeppelin/contracts-upgradeable/proxy/utils/Initializable.sol\":3157:3358  require(... */\n      tag_182\n      jumpi\n      mload(0x40)\n      0x08c379a000000000000000000000000000000000000000000000000000000000\n      dup2\n      mstore\n      0x04\n      add\n      tag_183\n      swap1\n      tag_184\n      jump\t// in\n    tag_183:\n      mload(0x40)\n      dup1\n      swap2\n      sub\n      swap1\n      revert\n    tag_182:\n        /* \"@openzeppelin/contracts-upgradeable/proxy/utils/Initializable.sol\":3383:3384  1 */\n      0x01\n        /* \"@openzeppelin/contracts-upgradeable/proxy/utils/Initializable.sol\":3368:3380  _initialized */\n      0x00\n      dup1\n        /* \"@openzeppelin/contracts-upgradeable/proxy/utils/Initializable.sol\":3368:3384  _initialized = 1 */\n      0x0100\n      exp\n      dup2\n      sload\n      dup2\n      0xff\n      mul\n      not\n      and\n      swap1\n      dup4\n      0xff\n      and\n      mul\n      or\n      swap1\n      sstore\n      pop\n        /* \"@openzeppelin/contracts-upgradeable/proxy/utils/Initializable.sol\":3398:3412  isTopLevelCall */\n      dup1\n        /* \"@openzeppelin/contracts-upgradeable/proxy/utils/Initializable.sol\":3394:3459  if (isTopLevelCall) {... */\n      iszero\n      tag_185\n      jumpi\n        /* \"@openzeppelin/contracts-upgradeable/proxy/utils/Initializable.sol\":3444:3448  true */\n      0x01\n        /* \"@openzeppelin/contracts-upgradeable/proxy/utils/Initializable.sol\":3428:3441  _initializing */\n      0x00\n      0x01\n        /* \"@openzeppelin/contracts-upgradeable/proxy/utils/Initializable.sol\":3428:3448  _initializing = true */\n      0x0100\n      exp\n      dup2\n      sload\n      dup2\n      0xff\n      mul\n      not\n      and\n      swap1\n      dup4\n      iszero\n      iszero\n      mul\n      or\n      swap1\n      sstore\n      pop\n        /* \"@openzeppelin/contracts-upgradeable/proxy/utils/Initializable.sol\":3394:3459  if (isTopLevelCall) {... */\n    tag_185:\n        /* \"contracts/DeStore/GatedAppSimple.sol\":395:425  __ERC721_init(\"GateApp\", \"GA\") */\n      tag_187\n      mload(0x40)\n      dup1\n      0x40\n      add\n      0x40\n      mstore\n      dup1\n      0x07\n      dup2\n      mstore\n      0x20\n      add\n      0x4761746541707000000000000000000000000000000000000000000000000000\n      dup2\n      mstore\n      pop\n      mload(0x40)\n      dup1\n      0x40\n      add\n      0x40\n      mstore\n      dup1\n      0x02\n      dup2\n      mstore\n      0x20\n      add\n      0x4741000000000000000000000000000000000000000000000000000000000000\n      dup2\n      mstore\n      pop\n        /* \"contracts/DeStore/GatedAppSimple.sol\":395:408  __ERC721_init */\n      tag_188\n        /* \"contracts/DeStore/GatedAppSimple.sol\":395:425  __ERC721_init(\"GateApp\", \"GA\") */\n      jump\t// in\n    tag_187:\n        /* \"@openzeppelin/contracts-upgradeable/proxy/utils/Initializable.sol\":3483:3497  isTopLevelCall */\n      dup1\n        /* \"@openzeppelin/contracts-upgradeable/proxy/utils/Initializable.sol\":3479:3578  if (isTopLevelCall) {... */\n      iszero\n      tag_189\n      jumpi\n        /* \"@openzeppelin/contracts-upgradeable/proxy/utils/Initializable.sol\":3529:3534  false */\n      0x00\n        /* \"@openzeppelin/contracts-upgradeable/proxy/utils/Initializable.sol\":3513:3526  _initializing */\n      dup1\n      0x01\n        /* \"@openzeppelin/contracts-upgradeable/proxy/utils/Initializable.sol\":3513:3534  _initializing = false */\n      0x0100\n      exp\n      dup2\n      sload\n      dup2\n      0xff\n      mul\n      not\n      and\n      swap1\n      dup4\n      iszero\n      iszero\n      mul\n      or\n      swap1\n      sstore\n      pop\n        /* \"@openzeppelin/contracts-upgradeable/proxy/utils/Initializable.sol\":3553:3567  Initialized(1) */\n      0x7f26b83ff96e1f2b6a682f133852f6798a09c465da95921460cefb3847402498\n        /* \"@openzeppelin/contracts-upgradeable/proxy/utils/Initializable.sol\":3565:3566  1 */\n      0x01\n        /* \"@openzeppelin/contracts-upgradeable/proxy/utils/Initializable.sol\":3553:3567  Initialized(1) */\n      mload(0x40)\n      tag_190\n      swap2\n      swap1\n      tag_191\n      jump\t// in\n    tag_190:\n      mload(0x40)\n      dup1\n      swap2\n      sub\n      swap1\n      log1\n        /* \"@openzeppelin/contracts-upgradeable/proxy/utils/Initializable.sol\":3479:3578  if (isTopLevelCall) {... */\n    tag_189:\n        /* \"@openzeppelin/contracts-upgradeable/proxy/utils/Initializable.sol\":3101:3584  {... */\n      pop\n        /* \"contracts/DeStore/GatedAppSimple.sol\":344:432  function initialize() public initializer {... */\n      jump\t// out\n        /* \"@openzeppelin/contracts-upgradeable/token/ERC721/ERC721Upgradeable.sol\":3093:3195  function symbol() public view virtual override returns (string memory) {... */\n    tag_82:\n        /* \"@openzeppelin/contracts-upgradeable/token/ERC721/ERC721Upgradeable.sol\":3149:3162  string memory */\n      0x60\n        /* \"@openzeppelin/contracts-upgradeable/token/ERC721/ERC721Upgradeable.sol\":3181:3188  _symbol */\n      0x66\n        /* \"@openzeppelin/contracts-upgradeable/token/ERC721/ERC721Upgradeable.sol\":3174:3188  return _symbol */\n      dup1\n      sload\n      tag_193\n      swap1\n      tag_124\n      jump\t// in\n    tag_193:\n      dup1\n      0x1f\n      add\n      0x20\n      dup1\n      swap2\n      div\n      mul\n      0x20\n      add\n      mload(0x40)\n      swap1\n      dup2\n      add\n      0x40\n      mstore\n      dup1\n      swap3\n      swap2\n      swap1\n      dup2\n      dup2\n      mstore\n      0x20\n      add\n      dup3\n      dup1\n      sload\n      tag_194\n      swap1\n      tag_124\n      jump\t// in\n    tag_194:\n      dup1\n      iszero\n      tag_195\n      jumpi\n      dup1\n      0x1f\n      lt\n      tag_196\n      jumpi\n      0x0100\n      dup1\n      dup4\n      sload\n      div\n      mul\n      dup4\n      mstore\n      swap2\n      0x20\n      add\n      swap2\n      jump(tag_195)\n    tag_196:\n      dup3\n      add\n      swap2\n      swap1\n      0x00\n      mstore\n      keccak256(0x00, 0x20)\n      swap1\n    tag_197:\n      dup2\n      sload\n      dup2\n      mstore\n      swap1\n      0x01\n      add\n      swap1\n      0x20\n      add\n      dup1\n      dup4\n      gt\n      tag_197\n      jumpi\n      dup3\n      swap1\n      sub\n      0x1f\n      and\n      dup3\n      add\n      swap2\n    tag_195:\n      pop\n      pop\n      pop\n      pop\n      pop\n      swap1\n      pop\n        /* \"@openzeppelin/contracts-upgradeable/token/ERC721/ERC721Upgradeable.sol\":3093:3195  function symbol() public view virtual override returns (string memory) {... */\n      swap1\n      jump\t// out\n        /* \"contracts/DeStore/GatedAppSimple.sol\":183:210  uint8 public tokenCount = 0 */\n    tag_86:\n      0x97\n      0x00\n      swap1\n      sload\n      swap1\n      0x0100\n      exp\n      swap1\n      div\n      0xff\n      and\n      dup2\n      jump\t// out\n        /* \"@openzeppelin/contracts-upgradeable/token/ERC721/ERC721Upgradeable.sol\":4641:4794  function setApprovalForAll(address operator, bool approved) public virtual override {... */\n    tag_92:\n        /* \"@openzeppelin/contracts-upgradeable/token/ERC721/ERC721Upgradeable.sol\":4735:4787  _setApprovalForAll(_msgSender(), operator, approved) */\n      tag_199\n        /* \"@openzeppelin/contracts-upgradeable/token/ERC721/ERC721Upgradeable.sol\":4754:4766  _msgSender() */\n      tag_200\n        /* \"@openzeppelin/contracts-upgradeable/token/ERC721/ERC721Upgradeable.sol\":4754:4764  _msgSender */\n      tag_138\n        /* \"@openzeppelin/contracts-upgradeable/token/ERC721/ERC721Upgradeable.sol\":4754:4766  _msgSender() */\n      jump\t// in\n    tag_200:\n        /* \"@openzeppelin/contracts-upgradeable/token/ERC721/ERC721Upgradeable.sol\":4768:4776  operator */\n      dup4\n        /* \"@openzeppelin/contracts-upgradeable/token/ERC721/ERC721Upgradeable.sol\":4778:4786  approved */\n      dup4\n        /* \"@openzeppelin/contracts-upgradeable/token/ERC721/ERC721Upgradeable.sol\":4735:4753  _setApprovalForAll */\n      tag_201\n        /* \"@openzeppelin/contracts-upgradeable/token/ERC721/ERC721Upgradeable.sol\":4735:4787  _setApprovalForAll(_msgSender(), operator, approved) */\n      jump\t// in\n    tag_199:\n        /* \"@openzeppelin/contracts-upgradeable/token/ERC721/ERC721Upgradeable.sol\":4641:4794  function setApprovalForAll(address operator, bool approved) public virtual override {... */\n      pop\n      pop\n      jump\t// out\n        /* \"@openzeppelin/contracts-upgradeable/token/ERC721/ERC721Upgradeable.sol\":5722:6037  function safeTransferFrom(... */\n    tag_97:\n        /* \"@openzeppelin/contracts-upgradeable/token/ERC721/ERC721Upgradeable.sol\":5890:5931  _isApprovedOrOwner(_msgSender(), tokenId) */\n      tag_203\n        /* \"@openzeppelin/contracts-upgradeable/token/ERC721/ERC721Upgradeable.sol\":5909:5921  _msgSender() */\n      tag_204\n        /* \"@openzeppelin/contracts-upgradeable/token/ERC721/ERC721Upgradeable.sol\":5909:5919  _msgSender */\n      tag_138\n        /* \"@openzeppelin/contracts-upgradeable/token/ERC721/ERC721Upgradeable.sol\":5909:5921  _msgSender() */\n      jump\t// in\n    tag_204:\n        /* \"@openzeppelin/contracts-upgradeable/token/ERC721/ERC721Upgradeable.sol\":5923:5930  tokenId */\n      dup4\n        /* \"@openzeppelin/contracts-upgradeable/token/ERC721/ERC721Upgradeable.sol\":5890:5908  _isApprovedOrOwner */\n      tag_150\n        /* \"@openzeppelin/contracts-upgradeable/token/ERC721/ERC721Upgradeable.sol\":5890:5931  _isApprovedOrOwner(_msgSender(), tokenId) */\n      jump\t// in\n    tag_203:\n        /* \"@openzeppelin/contracts-upgradeable/token/ERC721/ERC721Upgradeable.sol\":5882:5982  require(_isApprovedOrOwner(_msgSender(), tokenId), \"ERC721: caller is not token owner nor approved\") */\n      tag_205\n      jumpi\n      mload(0x40)\n      0x08c379a000000000000000000000000000000000000000000000000000000000\n      dup2\n      mstore\n      0x04\n      add\n      tag_206\n      swap1\n      tag_153\n      jump\t// in\n    tag_206:\n      mload(0x40)\n      dup1\n      swap2\n      sub\n      swap1\n      revert\n    tag_205:\n        /* \"@openzeppelin/contracts-upgradeable/token/ERC721/ERC721Upgradeable.sol\":5992:6030  _safeTransfer(from, to, tokenId, data) */\n      tag_207\n        /* \"@openzeppelin/contracts-upgradeable/token/ERC721/ERC721Upgradeable.sol\":6006:6010  from */\n      dup5\n        /* \"@openzeppelin/contracts-upgradeable/token/ERC721/ERC721Upgradeable.sol\":6012:6014  to */\n      dup5\n        /* \"@openzeppelin/contracts-upgradeable/token/ERC721/ERC721Upgradeable.sol\":6016:6023  tokenId */\n      dup5\n        /* \"@openzeppelin/contracts-upgradeable/token/ERC721/ERC721Upgradeable.sol\":6025:6029  data */\n      dup5\n        /* \"@openzeppelin/contracts-upgradeable/token/ERC721/ERC721Upgradeable.sol\":5992:6005  _safeTransfer */\n      tag_208\n        /* \"@openzeppelin/contracts-upgradeable/token/ERC721/ERC721Upgradeable.sol\":5992:6030  _safeTransfer(from, to, tokenId, data) */\n      jump\t// in\n    tag_207:\n        /* \"@openzeppelin/contracts-upgradeable/token/ERC721/ERC721Upgradeable.sol\":5722:6037  function safeTransferFrom(... */\n      pop\n      pop\n      pop\n      pop\n      jump\t// out\n        /* \"contracts/DeStore/GatedAppSimple.sol\":727:828  function unclaimedTokens() public view returns (uint8) {... */\n    tag_100:\n        /* \"contracts/DeStore/GatedAppSimple.sol\":775:780  uint8 */\n      0x00\n        /* \"contracts/DeStore/GatedAppSimple.sol\":811:821  tokenCount */\n      0x97\n      0x00\n      swap1\n      sload\n      swap1\n      0x0100\n      exp\n      swap1\n      div\n      0xff\n      and\n        /* \"contracts/DeStore/GatedAppSimple.sol\":799:808  maxTokens */\n      0x97\n      0x01\n      swap1\n      sload\n      swap1\n      0x0100\n      exp\n      swap1\n      div\n      0xff\n      and\n        /* \"contracts/DeStore/GatedAppSimple.sol\":799:821  maxTokens - tokenCount */\n      tag_210\n      swap2\n      swap1\n      tag_211\n      jump\t// in\n    tag_210:\n        /* \"contracts/DeStore/GatedAppSimple.sol\":792:821  return maxTokens - tokenCount */\n      swap1\n      pop\n        /* \"contracts/DeStore/GatedAppSimple.sol\":727:828  function unclaimedTokens() public view returns (uint8) {... */\n      swap1\n      jump\t// out\n        /* \"@openzeppelin/contracts-upgradeable/token/ERC721/ERC721Upgradeable.sol\":3261:3537  function tokenURI(uint256 tokenId) public view virtual override returns (string memory) {... */\n    tag_105:\n        /* \"@openzeppelin/contracts-upgradeable/token/ERC721/ERC721Upgradeable.sol\":3334:3347  string memory */\n      0x60\n        /* \"@openzeppelin/contracts-upgradeable/token/ERC721/ERC721Upgradeable.sol\":3359:3382  _requireMinted(tokenId) */\n      tag_213\n        /* \"@openzeppelin/contracts-upgradeable/token/ERC721/ERC721Upgradeable.sol\":3374:3381  tokenId */\n      dup3\n        /* \"@openzeppelin/contracts-upgradeable/token/ERC721/ERC721Upgradeable.sol\":3359:3373  _requireMinted */\n      tag_131\n        /* \"@openzeppelin/contracts-upgradeable/token/ERC721/ERC721Upgradeable.sol\":3359:3382  _requireMinted(tokenId) */\n      jump\t// in\n    tag_213:\n        /* \"@openzeppelin/contracts-upgradeable/token/ERC721/ERC721Upgradeable.sol\":3393:3414  string memory baseURI */\n      0x00\n        /* \"@openzeppelin/contracts-upgradeable/token/ERC721/ERC721Upgradeable.sol\":3417:3427  _baseURI() */\n      tag_214\n        /* \"@openzeppelin/contracts-upgradeable/token/ERC721/ERC721Upgradeable.sol\":3417:3425  _baseURI */\n      tag_215\n        /* \"@openzeppelin/contracts-upgradeable/token/ERC721/ERC721Upgradeable.sol\":3417:3427  _baseURI() */\n      jump\t// in\n    tag_214:\n        /* \"@openzeppelin/contracts-upgradeable/token/ERC721/ERC721Upgradeable.sol\":3393:3427  string memory baseURI = _baseURI() */\n      swap1\n      pop\n        /* \"@openzeppelin/contracts-upgradeable/token/ERC721/ERC721Upgradeable.sol\":3468:3469  0 */\n      0x00\n        /* \"@openzeppelin/contracts-upgradeable/token/ERC721/ERC721Upgradeable.sol\":3450:3457  baseURI */\n      dup2\n        /* \"@openzeppelin/contracts-upgradeable/token/ERC721/ERC721Upgradeable.sol\":3444:3465  bytes(baseURI).length */\n      mload\n        /* \"@openzeppelin/contracts-upgradeable/token/ERC721/ERC721Upgradeable.sol\":3444:3469  bytes(baseURI).length > 0 */\n      gt\n        /* \"@openzeppelin/contracts-upgradeable/token/ERC721/ERC721Upgradeable.sol\":3444:3530  bytes(baseURI).length > 0 ? string(abi.encodePacked(baseURI, tokenId.toString())) : \"\" */\n      tag_216\n      jumpi\n      mload(0x40)\n      dup1\n      0x20\n      add\n      0x40\n      mstore\n      dup1\n      0x00\n      dup2\n      mstore\n      pop\n      jump(tag_217)\n    tag_216:\n        /* \"@openzeppelin/contracts-upgradeable/token/ERC721/ERC721Upgradeable.sol\":3496:3503  baseURI */\n      dup1\n        /* \"@openzeppelin/contracts-upgradeable/token/ERC721/ERC721Upgradeable.sol\":3505:3523  tokenId.toString() */\n      tag_218\n        /* \"@openzeppelin/contracts-upgradeable/token/ERC721/ERC721Upgradeable.sol\":3505:3512  tokenId */\n      dup5\n        /* \"@openzeppelin/contracts-upgradeable/token/ERC721/ERC721Upgradeable.sol\":3505:3521  tokenId.toString */\n      tag_219\n        /* \"@openzeppelin/contracts-upgradeable/token/ERC721/ERC721Upgradeable.sol\":3505:3523  tokenId.toString() */\n      jump\t// in\n    tag_218:\n        /* \"@openzeppelin/contracts-upgradeable/token/ERC721/ERC721Upgradeable.sol\":3479:3524  abi.encodePacked(baseURI, tokenId.toString()) */\n      add(0x20, mload(0x40))\n      tag_220\n      swap3\n      swap2\n      swap1\n      tag_221\n      jump\t// in\n    tag_220:\n      mload(0x40)\n      0x20\n      dup2\n      dup4\n      sub\n      sub\n      dup2\n      mstore\n      swap1\n      0x40\n      mstore\n        /* \"@openzeppelin/contracts-upgradeable/token/ERC721/ERC721Upgradeable.sol\":3444:3530  bytes(baseURI).length > 0 ? string(abi.encodePacked(baseURI, tokenId.toString())) : \"\" */\n    tag_217:\n        /* \"@openzeppelin/contracts-upgradeable/token/ERC721/ERC721Upgradeable.sol\":3437:3530  return bytes(baseURI).length > 0 ? string(abi.encodePacked(baseURI, tokenId.toString())) : \"\" */\n      swap2\n      pop\n      pop\n        /* \"@openzeppelin/contracts-upgradeable/token/ERC721/ERC721Upgradeable.sol\":3261:3537  function tokenURI(uint256 tokenId) public view virtual override returns (string memory) {... */\n      swap2\n      swap1\n      pop\n      jump\t// out\n        /* \"contracts/DeStore/GatedAppSimple.sol\":216:244  uint8 public maxTokens = 100 */\n    tag_109:\n      0x97\n      0x01\n      swap1\n      sload\n      swap1\n      0x0100\n      exp\n      swap1\n      div\n      0xff\n      and\n      dup2\n      jump\t// out\n        /* \"@openzeppelin/contracts-upgradeable/token/ERC721/ERC721Upgradeable.sol\":4860:5022  function isApprovedForAll(address owner, address operator) public view virtual override returns (bool) {... */\n    tag_115:\n        /* \"@openzeppelin/contracts-upgradeable/token/ERC721/ERC721Upgradeable.sol\":4957:4961  bool */\n      0x00\n        /* \"@openzeppelin/contracts-upgradeable/token/ERC721/ERC721Upgradeable.sol\":4980:4998  _operatorApprovals */\n      0x6a\n        /* \"@openzeppelin/contracts-upgradeable/token/ERC721/ERC721Upgradeable.sol\":4980:5005  _operatorApprovals[owner] */\n      0x00\n        /* \"@openzeppelin/contracts-upgradeable/token/ERC721/ERC721Upgradeable.sol\":4999:5004  owner */\n      dup5\n        /* \"@openzeppelin/contracts-upgradeable/token/ERC721/ERC721Upgradeable.sol\":4980:5005  _operatorApprovals[owner] */\n      0xffffffffffffffffffffffffffffffffffffffff\n      and\n      0xffffffffffffffffffffffffffffffffffffffff\n      and\n      dup2\n      mstore\n      0x20\n      add\n      swap1\n      dup2\n      mstore\n      0x20\n      add\n      0x00\n      keccak256\n        /* \"@openzeppelin/contracts-upgradeable/token/ERC721/ERC721Upgradeable.sol\":4980:5015  _operatorApprovals[owner][operator] */\n      0x00\n        /* \"@openzeppelin/contracts-upgradeable/token/ERC721/ERC721Upgradeable.sol\":5006:5014  operator */\n      dup4\n        /* \"@openzeppelin/contracts-upgradeable/token/ERC721/ERC721Upgradeable.sol\":4980:5015  _operatorApprovals[owner][operator] */\n      0xffffffffffffffffffffffffffffffffffffffff\n      and\n      0xffffffffffffffffffffffffffffffffffffffff\n      and\n      dup2\n      mstore\n      0x20\n      add\n      swap1\n      dup2\n      mstore\n      0x20\n      add\n      0x00\n      keccak256\n      0x00\n      swap1\n      sload\n      swap1\n      0x0100\n      exp\n      swap1\n      div\n      0xff\n      and\n        /* \"@openzeppelin/contracts-upgradeable/token/ERC721/ERC721Upgradeable.sol\":4973:5015  return _operatorApprovals[owner][operator] */\n      swap1\n      pop\n        /* \"@openzeppelin/contracts-upgradeable/token/ERC721/ERC721Upgradeable.sol\":4860:5022  function isApprovedForAll(address owner, address operator) public view virtual override returns (bool) {... */\n      swap3\n      swap2\n      pop\n      pop\n      jump\t// out\n        /* \"@openzeppelin/contracts-upgradeable/utils/introspection/ERC165Upgradeable.sol\":1060:1226  function supportsInterface(bytes4 interfaceId) public view virtual override returns (bool) {... */\n    tag_121:\n        /* \"@openzeppelin/contracts-upgradeable/utils/introspection/ERC165Upgradeable.sol\":1145:1149  bool */\n      0x00\n        /* \"@openzeppelin/contracts-upgradeable/utils/introspection/ERC165Upgradeable.sol\":1183:1219  type(IERC165Upgradeable).interfaceId */\n      0x01ffc9a700000000000000000000000000000000000000000000000000000000\n        /* \"@openzeppelin/contracts-upgradeable/utils/introspection/ERC165Upgradeable.sol\":1168:1219  interfaceId == type(IERC165Upgradeable).interfaceId */\n      not(0xffffffffffffffffffffffffffffffffffffffffffffffffffffffff)\n      and\n        /* \"@openzeppelin/contracts-upgradeable/utils/introspection/ERC165Upgradeable.sol\":1168:1179  interfaceId */\n      dup3\n        /* \"@openzeppelin/contracts-upgradeable/utils/introspection/ERC165Upgradeable.sol\":1168:1219  interfaceId == type(IERC165Upgradeable).interfaceId */\n      not(0xffffffffffffffffffffffffffffffffffffffffffffffffffffffff)\n      and\n      eq\n        /* \"@openzeppelin/contracts-upgradeable/utils/introspection/ERC165Upgradeable.sol\":1161:1219  return interfaceId == type(IERC165Upgradeable).interfaceId */\n      swap1\n      pop\n        /* \"@openzeppelin/contracts-upgradeable/utils/introspection/ERC165Upgradeable.sol\":1060:1226  function supportsInterface(bytes4 interfaceId) public view virtual override returns (bool) {... */\n      swap2\n      swap1\n      pop\n      jump\t// out\n        /* \"@openzeppelin/contracts-upgradeable/token/ERC721/ERC721Upgradeable.sol\":12173:12306  function _requireMinted(uint256 tokenId) internal view virtual {... */\n    tag_131:\n        /* \"@openzeppelin/contracts-upgradeable/token/ERC721/ERC721Upgradeable.sol\":12254:12270  _exists(tokenId) */\n      tag_225\n        /* \"@openzeppelin/contracts-upgradeable/token/ERC721/ERC721Upgradeable.sol\":12262:12269  tokenId */\n      dup2\n        /* \"@openzeppelin/contracts-upgradeable/token/ERC721/ERC721Upgradeable.sol\":12254:12261  _exists */\n      tag_226\n        /* \"@openzeppelin/contracts-upgradeable/token/ERC721/ERC721Upgradeable.sol\":12254:12270  _exists(tokenId) */\n      jump\t// in\n    tag_225:\n        /* \"@openzeppelin/contracts-upgradeable/token/ERC721/ERC721Upgradeable.sol\":12246:12299  require(_exists(tokenId), \"ERC721: invalid token ID\") */\n      tag_227\n      jumpi\n      mload(0x40)\n      0x08c379a000000000000000000000000000000000000000000000000000000000\n      dup2\n      mstore\n      0x04\n      add\n      tag_228\n      swap1\n      tag_171\n      jump\t// in\n    tag_228:\n      mload(0x40)\n      dup1\n      swap2\n      sub\n      swap1\n      revert\n    tag_227:\n        /* \"@openzeppelin/contracts-upgradeable/token/ERC721/ERC721Upgradeable.sol\":12173:12306  function _requireMinted(uint256 tokenId) internal view virtual {... */\n      pop\n      jump\t// out\n        /* \"@openzeppelin/contracts-upgradeable/utils/ContextUpgradeable.sol\":850:946  function _msgSender() internal view virtual returns (address) {... */\n    tag_138:\n        /* \"@openzeppelin/contracts-upgradeable/utils/ContextUpgradeable.sol\":903:910  address */\n      0x00\n        /* \"@openzeppelin/contracts-upgradeable/utils/ContextUpgradeable.sol\":929:939  msg.sender */\n      caller\n        /* \"@openzeppelin/contracts-upgradeable/utils/ContextUpgradeable.sol\":922:939  return msg.sender */\n      swap1\n      pop\n        /* \"@openzeppelin/contracts-upgradeable/utils/ContextUpgradeable.sol\":850:946  function _msgSender() internal view virtual returns (address) {... */\n      swap1\n      jump\t// out\n        /* \"@openzeppelin/contracts-upgradeable/token/ERC721/ERC721Upgradeable.sol\":11464:11646  function _approve(address to, uint256 tokenId) internal virtual {... */\n    tag_146:\n        /* \"@openzeppelin/contracts-upgradeable/token/ERC721/ERC721Upgradeable.sol\":11565:11567  to */\n      dup2\n        /* \"@openzeppelin/contracts-upgradeable/token/ERC721/ERC721Upgradeable.sol\":11538:11553  _tokenApprovals */\n      0x69\n        /* \"@openzeppelin/contracts-upgradeable/token/ERC721/ERC721Upgradeable.sol\":11538:11562  _tokenApprovals[tokenId] */\n      0x00\n        /* \"@openzeppelin/contracts-upgradeable/token/ERC721/ERC721Upgradeable.sol\":11554:11561  tokenId */\n      dup4\n        /* \"@openzeppelin/contracts-upgradeable/token/ERC721/ERC721Upgradeable.sol\":11538:11562  _tokenApprovals[tokenId] */\n      dup2\n      mstore\n      0x20\n      add\n      swap1\n      dup2\n      mstore\n      0x20\n      add\n      0x00\n      keccak256\n      0x00\n        /* \"@openzeppelin/contracts-upgradeable/token/ERC721/ERC721Upgradeable.sol\":11538:11567  _tokenApprovals[tokenId] = to */\n      0x0100\n      exp\n      dup2\n      sload\n      dup2\n      0xffffffffffffffffffffffffffffffffffffffff\n      mul\n      not\n      and\n      swap1\n      dup4\n      0xffffffffffffffffffffffffffffffffffffffff\n      and\n      mul\n      or\n      swap1\n      sstore\n      pop\n        /* \"@openzeppelin/contracts-upgradeable/token/ERC721/ERC721Upgradeable.sol\":11631:11638  tokenId */\n      dup1\n        /* \"@openzeppelin/contracts-upgradeable/token/ERC721/ERC721Upgradeable.sol\":11627:11629  to */\n      dup3\n        /* \"@openzeppelin/contracts-upgradeable/token/ERC721/ERC721Upgradeable.sol\":11582:11639  Approval(ERC721Upgradeable.ownerOf(tokenId), to, tokenId) */\n      0xffffffffffffffffffffffffffffffffffffffff\n      and\n        /* \"@openzeppelin/contracts-upgradeable/token/ERC721/ERC721Upgradeable.sol\":11591:11625  ERC721Upgradeable.ownerOf(tokenId) */\n      tag_231\n        /* \"@openzeppelin/contracts-upgradeable/token/ERC721/ERC721Upgradeable.sol\":11617:11624  tokenId */\n      dup4\n        /* \"@openzeppelin/contracts-upgradeable/token/ERC721/ERC721Upgradeable.sol\":11591:11616  ERC721Upgradeable.ownerOf */\n      tag_68\n        /* \"@openzeppelin/contracts-upgradeable/token/ERC721/ERC721Upgradeable.sol\":11591:11625  ERC721Upgradeable.ownerOf(tokenId) */\n      jump\t// in\n    tag_231:\n        /* \"@openzeppelin/contracts-upgradeable/token/ERC721/ERC721Upgradeable.sol\":11582:11639  Approval(ERC721Upgradeable.ownerOf(tokenId), to, tokenId) */\n      0xffffffffffffffffffffffffffffffffffffffff\n      and\n      0x8c5be1e5ebec7d5bd14f71427d1e84f3dd0314c0f7b2291e5b200ac8c7c3b925\n      mload(0x40)\n      mload(0x40)\n      dup1\n      swap2\n      sub\n      swap1\n      log4\n        /* \"@openzeppelin/contracts-upgradeable/token/ERC721/ERC721Upgradeable.sol\":11464:11646  function _approve(address to, uint256 tokenId) internal virtual {... */\n      pop\n      pop\n      jump\t// out\n        /* \"@openzeppelin/contracts-upgradeable/token/ERC721/ERC721Upgradeable.sol\":7789:8061  function _isApprovedOrOwner(address spender, uint256 tokenId) internal view virtual returns (bool) {... */\n    tag_150:\n        /* \"@openzeppelin/contracts-upgradeable/token/ERC721/ERC721Upgradeable.sol\":7882:7886  bool */\n      0x00\n        /* \"@openzeppelin/contracts-upgradeable/token/ERC721/ERC721Upgradeable.sol\":7898:7911  address owner */\n      dup1\n        /* \"@openzeppelin/contracts-upgradeable/token/ERC721/ERC721Upgradeable.sol\":7914:7948  ERC721Upgradeable.ownerOf(tokenId) */\n      tag_233\n        /* \"@openzeppelin/contracts-upgradeable/token/ERC721/ERC721Upgradeable.sol\":7940:7947  tokenId */\n      dup4\n        /* \"@openzeppelin/contracts-upgradeable/token/ERC721/ERC721Upgradeable.sol\":7914:7939  ERC721Upgradeable.ownerOf */\n      tag_68\n        /* \"@openzeppelin/contracts-upgradeable/token/ERC721/ERC721Upgradeable.sol\":7914:7948  ERC721Upgradeable.ownerOf(tokenId) */\n      jump\t// in\n    tag_233:\n        /* \"@openzeppelin/contracts-upgradeable/token/ERC721/ERC721Upgradeable.sol\":7898:7948  address owner = ERC721Upgradeable.ownerOf(tokenId) */\n      swap1\n      pop\n        /* \"@openzeppelin/contracts-upgradeable/token/ERC721/ERC721Upgradeable.sol\":7977:7982  owner */\n      dup1\n        /* \"@openzeppelin/contracts-upgradeable/token/ERC721/ERC721Upgradeable.sol\":7966:7982  spender == owner */\n      0xffffffffffffffffffffffffffffffffffffffff\n      and\n        /* \"@openzeppelin/contracts-upgradeable/token/ERC721/ERC721Upgradeable.sol\":7966:7973  spender */\n      dup5\n        /* \"@openzeppelin/contracts-upgradeable/token/ERC721/ERC721Upgradeable.sol\":7966:7982  spender == owner */\n      0xffffffffffffffffffffffffffffffffffffffff\n      and\n      eq\n        /* \"@openzeppelin/contracts-upgradeable/token/ERC721/ERC721Upgradeable.sol\":7966:8018  spender == owner || isApprovedForAll(owner, spender) */\n      dup1\n      tag_234\n      jumpi\n      pop\n        /* \"@openzeppelin/contracts-upgradeable/token/ERC721/ERC721Upgradeable.sol\":7986:8018  isApprovedForAll(owner, spender) */\n      tag_235\n        /* \"@openzeppelin/contracts-upgradeable/token/ERC721/ERC721Upgradeable.sol\":8003:8008  owner */\n      dup2\n        /* \"@openzeppelin/contracts-upgradeable/token/ERC721/ERC721Upgradeable.sol\":8010:8017  spender */\n      dup6\n        /* \"@openzeppelin/contracts-upgradeable/token/ERC721/ERC721Upgradeable.sol\":7986:8002  isApprovedForAll */\n      tag_115\n        /* \"@openzeppelin/contracts-upgradeable/token/ERC721/ERC721Upgradeable.sol\":7986:8018  isApprovedForAll(owner, spender) */\n      jump\t// in\n    tag_235:\n        /* \"@openzeppelin/contracts-upgradeable/token/ERC721/ERC721Upgradeable.sol\":7966:8018  spender == owner || isApprovedForAll(owner, spender) */\n    tag_234:\n        /* \"@openzeppelin/contracts-upgradeable/token/ERC721/ERC721Upgradeable.sol\":7966:8053  spender == owner || isApprovedForAll(owner, spender) || getApproved(tokenId) == spender */\n      dup1\n      tag_236\n      jumpi\n      pop\n        /* \"@openzeppelin/contracts-upgradeable/token/ERC721/ERC721Upgradeable.sol\":8046:8053  spender */\n      dup4\n        /* \"@openzeppelin/contracts-upgradeable/token/ERC721/ERC721Upgradeable.sol\":8022:8053  getApproved(tokenId) == spender */\n      0xffffffffffffffffffffffffffffffffffffffff\n      and\n        /* \"@openzeppelin/contracts-upgradeable/token/ERC721/ERC721Upgradeable.sol\":8022:8042  getApproved(tokenId) */\n      tag_237\n        /* \"@openzeppelin/contracts-upgradeable/token/ERC721/ERC721Upgradeable.sol\":8034:8041  tokenId */\n      dup5\n        /* \"@openzeppelin/contracts-upgradeable/token/ERC721/ERC721Upgradeable.sol\":8022:8033  getApproved */\n      tag_40\n        /* \"@openzeppelin/contracts-upgradeable/token/ERC721/ERC721Upgradeable.sol\":8022:8042  getApproved(tokenId) */\n      jump\t// in\n    tag_237:\n        /* \"@openzeppelin/contracts-upgradeable/token/ERC721/ERC721Upgradeable.sol\":8022:8053  getApproved(tokenId) == spender */\n      0xffffffffffffffffffffffffffffffffffffffff\n      and\n      eq\n        /* \"@openzeppelin/contracts-upgradeable/token/ERC721/ERC721Upgradeable.sol\":7966:8053  spender == owner || isApprovedForAll(owner, spender) || getApproved(tokenId) == spender */\n    tag_236:\n        /* \"@openzeppelin/contracts-upgradeable/token/ERC721/ERC721Upgradeable.sol\":7958:8054  return (spender == owner || isApprovedForAll(owner, spender) || getApproved(tokenId) == spender) */\n      swap2\n      pop\n      pop\n        /* \"@openzeppelin/contracts-upgradeable/token/ERC721/ERC721Upgradeable.sol\":7789:8061  function _isApprovedOrOwner(address spender, uint256 tokenId) internal view virtual returns (bool) {... */\n      swap3\n      swap2\n      pop\n      pop\n      jump\t// out\n        /* \"@openzeppelin/contracts-upgradeable/token/ERC721/ERC721Upgradeable.sol\":10736:11352  function _transfer(... */\n    tag_155:\n        /* \"@openzeppelin/contracts-upgradeable/token/ERC721/ERC721Upgradeable.sol\":10901:10905  from */\n      dup3\n        /* \"@openzeppelin/contracts-upgradeable/token/ERC721/ERC721Upgradeable.sol\":10863:10905  ERC721Upgradeable.ownerOf(tokenId) == from */\n      0xffffffffffffffffffffffffffffffffffffffff\n      and\n        /* \"@openzeppelin/contracts-upgradeable/token/ERC721/ERC721Upgradeable.sol\":10863:10897  ERC721Upgradeable.ownerOf(tokenId) */\n      tag_239\n        /* \"@openzeppelin/contracts-upgradeable/token/ERC721/ERC721Upgradeable.sol\":10889:10896  tokenId */\n      dup3\n        /* \"@openzeppelin/contracts-upgradeable/token/ERC721/ERC721Upgradeable.sol\":10863:10888  ERC721Upgradeable.ownerOf */\n      tag_68\n        /* \"@openzeppelin/contracts-upgradeable/token/ERC721/ERC721Upgradeable.sol\":10863:10897  ERC721Upgradeable.ownerOf(tokenId) */\n      jump\t// in\n    tag_239:\n        /* \"@openzeppelin/contracts-upgradeable/token/ERC721/ERC721Upgradeable.sol\":10863:10905  ERC721Upgradeable.ownerOf(tokenId) == from */\n      0xffffffffffffffffffffffffffffffffffffffff\n      and\n      eq\n        /* \"@openzeppelin/contracts-upgradeable/token/ERC721/ERC721Upgradeable.sol\":10855:10947  require(ERC721Upgradeable.ownerOf(tokenId) == from, \"ERC721: transfer from incorrect owner\") */\n      tag_240\n      jumpi\n      mload(0x40)\n      0x08c379a000000000000000000000000000000000000000000000000000000000\n      dup2\n      mstore\n      0x04\n      add\n      tag_241\n      swap1\n      tag_242\n      jump\t// in\n    tag_241:\n      mload(0x40)\n      dup1\n      swap2\n      sub\n      swap1\n      revert\n    tag_240:\n        /* \"@openzeppelin/contracts-upgradeable/token/ERC721/ERC721Upgradeable.sol\":10979:10980  0 */\n      0x00\n        /* \"@openzeppelin/contracts-upgradeable/token/ERC721/ERC721Upgradeable.sol\":10965:10981  to != address(0) */\n      0xffffffffffffffffffffffffffffffffffffffff\n      and\n        /* \"@openzeppelin/contracts-upgradeable/token/ERC721/ERC721Upgradeable.sol\":10965:10967  to */\n      dup3\n        /* \"@openzeppelin/contracts-upgradeable/token/ERC721/ERC721Upgradeable.sol\":10965:10981  to != address(0) */\n      0xffffffffffffffffffffffffffffffffffffffff\n      and\n      sub\n        /* \"@openzeppelin/contracts-upgradeable/token/ERC721/ERC721Upgradeable.sol\":10957:11022  require(to != address(0), \"ERC721: transfer to the zero address\") */\n      tag_243\n      jumpi\n      mload(0x40)\n      0x08c379a000000000000000000000000000000000000000000000000000000000\n      dup2\n      mstore\n      0x04\n      add\n      tag_244\n      swap1\n      tag_245\n      jump\t// in\n    tag_244:\n      mload(0x40)\n      dup1\n      swap2\n      sub\n      swap1\n      revert\n    tag_243:\n        /* \"@openzeppelin/contracts-upgradeable/token/ERC721/ERC721Upgradeable.sol\":11033:11072  _beforeTokenTransfer(from, to, tokenId) */\n      tag_246\n        /* \"@openzeppelin/contracts-upgradeable/token/ERC721/ERC721Upgradeable.sol\":11054:11058  from */\n      dup4\n        /* \"@openzeppelin/contracts-upgradeable/token/ERC721/ERC721Upgradeable.sol\":11060:11062  to */\n      dup4\n        /* \"@openzeppelin/contracts-upgradeable/token/ERC721/ERC721Upgradeable.sol\":11064:11071  tokenId */\n      dup4\n        /* \"@openzeppelin/contracts-upgradeable/token/ERC721/ERC721Upgradeable.sol\":11033:11053  _beforeTokenTransfer */\n      tag_247\n        /* \"@openzeppelin/contracts-upgradeable/token/ERC721/ERC721Upgradeable.sol\":11033:11072  _beforeTokenTransfer(from, to, tokenId) */\n      jump\t// in\n    tag_246:\n        /* \"@openzeppelin/contracts-upgradeable/token/ERC721/ERC721Upgradeable.sol\":11134:11163  _approve(address(0), tokenId) */\n      tag_248\n        /* \"@openzeppelin/contracts-upgradeable/token/ERC721/ERC721Upgradeable.sol\":11151:11152  0 */\n      0x00\n        /* \"@openzeppelin/contracts-upgradeable/token/ERC721/ERC721Upgradeable.sol\":11155:11162  tokenId */\n      dup3\n        /* \"@openzeppelin/contracts-upgradeable/token/ERC721/ERC721Upgradeable.sol\":11134:11142  _approve */\n      tag_146\n        /* \"@openzeppelin/contracts-upgradeable/token/ERC721/ERC721Upgradeable.sol\":11134:11163  _approve(address(0), tokenId) */\n      jump\t// in\n    tag_248:\n        /* \"@openzeppelin/contracts-upgradeable/token/ERC721/ERC721Upgradeable.sol\":11193:11194  1 */\n      0x01\n        /* \"@openzeppelin/contracts-upgradeable/token/ERC721/ERC721Upgradeable.sol\":11174:11183  _balances */\n      0x68\n        /* \"@openzeppelin/contracts-upgradeable/token/ERC721/ERC721Upgradeable.sol\":11174:11189  _balances[from] */\n      0x00\n        /* \"@openzeppelin/contracts-upgradeable/token/ERC721/ERC721Upgradeable.sol\":11184:11188  from */\n      dup6\n        /* \"@openzeppelin/contracts-upgradeable/token/ERC721/ERC721Upgradeable.sol\":11174:11189  _balances[from] */\n      0xffffffffffffffffffffffffffffffffffffffff\n      and\n      0xffffffffffffffffffffffffffffffffffffffff\n      and\n      dup2\n      mstore\n      0x20\n      add\n      swap1\n      dup2\n      mstore\n      0x20\n      add\n      0x00\n      keccak256\n      0x00\n        /* \"@openzeppelin/contracts-upgradeable/token/ERC721/ERC721Upgradeable.sol\":11174:11194  _balances[from] -= 1 */\n      dup3\n      dup3\n      sload\n      tag_249\n      swap2\n      swap1\n      tag_250\n      jump\t// in\n    tag_249:\n      swap3\n      pop\n      pop\n      dup2\n      swap1\n      sstore\n      pop\n        /* \"@openzeppelin/contracts-upgradeable/token/ERC721/ERC721Upgradeable.sol\":11221:11222  1 */\n      0x01\n        /* \"@openzeppelin/contracts-upgradeable/token/ERC721/ERC721Upgradeable.sol\":11204:11213  _balances */\n      0x68\n        /* \"@openzeppelin/contracts-upgradeable/token/ERC721/ERC721Upgradeable.sol\":11204:11217  _balances[to] */\n      0x00\n        /* \"@openzeppelin/contracts-upgradeable/token/ERC721/ERC721Upgradeable.sol\":11214:11216  to */\n      dup5\n        /* \"@openzeppelin/contracts-upgradeable/token/ERC721/ERC721Upgradeable.sol\":11204:11217  _balances[to] */\n      0xffffffffffffffffffffffffffffffffffffffff\n      and\n      0xffffffffffffffffffffffffffffffffffffffff\n      and\n      dup2\n      mstore\n      0x20\n      add\n      swap1\n      dup2\n      mstore\n      0x20\n      add\n      0x00\n      keccak256\n      0x00\n        /* \"@openzeppelin/contracts-upgradeable/token/ERC721/ERC721Upgradeable.sol\":11204:11222  _balances[to] += 1 */\n      dup3\n      dup3\n      sload\n      tag_251\n      swap2\n      swap1\n      tag_252\n      jump\t// in\n    tag_251:\n      swap3\n      pop\n      pop\n      dup2\n      swap1\n      sstore\n      pop\n        /* \"@openzeppelin/contracts-upgradeable/token/ERC721/ERC721Upgradeable.sol\":11251:11253  to */\n      dup2\n        /* \"@openzeppelin/contracts-upgradeable/token/ERC721/ERC721Upgradeable.sol\":11232:11239  _owners */\n      0x67\n        /* \"@openzeppelin/contracts-upgradeable/token/ERC721/ERC721Upgradeable.sol\":11232:11248  _owners[tokenId] */\n      0x00\n        /* \"@openzeppelin/contracts-upgradeable/token/ERC721/ERC721Upgradeable.sol\":11240:11247  tokenId */\n      dup4\n        /* \"@openzeppelin/contracts-upgradeable/token/ERC721/ERC721Upgradeable.sol\":11232:11248  _owners[tokenId] */\n      dup2\n      mstore\n      0x20\n      add\n      swap1\n      dup2\n      mstore\n      0x20\n      add\n      0x00\n      keccak256\n      0x00\n        /* \"@openzeppelin/contracts-upgradeable/token/ERC721/ERC721Upgradeable.sol\":11232:11253  _owners[tokenId] = to */\n      0x0100\n      exp\n      dup2\n      sload\n      dup2\n      0xffffffffffffffffffffffffffffffffffffffff\n      mul\n      not\n      and\n      swap1\n      dup4\n      0xffffffffffffffffffffffffffffffffffffffff\n      and\n      mul\n      or\n      swap1\n      sstore\n      pop\n        /* \"@openzeppelin/contracts-upgradeable/token/ERC721/ERC721Upgradeable.sol\":11288:11295  tokenId */\n      dup1\n        /* \"@openzeppelin/contracts-upgradeable/token/ERC721/ERC721Upgradeable.sol\":11284:11286  to */\n      dup3\n        /* \"@openzeppelin/contracts-upgradeable/token/ERC721/ERC721Upgradeable.sol\":11269:11296  Transfer(from, to, tokenId) */\n      0xffffffffffffffffffffffffffffffffffffffff\n      and\n        /* \"@openzeppelin/contracts-upgradeable/token/ERC721/ERC721Upgradeable.sol\":11278:11282  from */\n      dup5\n        /* \"@openzeppelin/contracts-upgradeable/token/ERC721/ERC721Upgradeable.sol\":11269:11296  Transfer(from, to, tokenId) */\n      0xffffffffffffffffffffffffffffffffffffffff\n      and\n      0xddf252ad1be2c89b69c2b068fc378daa952ba7f163c4a11628f55a4df523b3ef\n      mload(0x40)\n      mload(0x40)\n      dup1\n      swap2\n      sub\n      swap1\n      log4\n        /* \"@openzeppelin/contracts-upgradeable/token/ERC721/ERC721Upgradeable.sol\":11307:11345  _afterTokenTransfer(from, to, tokenId) */\n      tag_253\n        /* \"@openzeppelin/contracts-upgradeable/token/ERC721/ERC721Upgradeable.sol\":11327:11331  from */\n      dup4\n        /* \"@openzeppelin/contracts-upgradeable/token/ERC721/ERC721Upgradeable.sol\":11333:11335  to */\n      dup4\n        /* \"@openzeppelin/contracts-upgradeable/token/ERC721/ERC721Upgradeable.sol\":11337:11344  tokenId */\n      dup4\n        /* \"@openzeppelin/contracts-upgradeable/token/ERC721/ERC721Upgradeable.sol\":11307:11326  _afterTokenTransfer */\n      tag_254\n        /* \"@openzeppelin/contracts-upgradeable/token/ERC721/ERC721Upgradeable.sol\":11307:11345  _afterTokenTransfer(from, to, tokenId) */\n      jump\t// in\n    tag_253:\n        /* \"@openzeppelin/contracts-upgradeable/token/ERC721/ERC721Upgradeable.sol\":10736:11352  function _transfer(... */\n      pop\n      pop\n      pop\n      jump\t// out\n        /* \"@openzeppelin/contracts-upgradeable/token/ERC721/ERC721Upgradeable.sol\":9351:9778  function _mint(address to, uint256 tokenId) internal virtual {... */\n    tag_165:\n        /* \"@openzeppelin/contracts-upgradeable/token/ERC721/ERC721Upgradeable.sol\":9444:9445  0 */\n      0x00\n        /* \"@openzeppelin/contracts-upgradeable/token/ERC721/ERC721Upgradeable.sol\":9430:9446  to != address(0) */\n      0xffffffffffffffffffffffffffffffffffffffff\n      and\n        /* \"@openzeppelin/contracts-upgradeable/token/ERC721/ERC721Upgradeable.sol\":9430:9432  to */\n      dup3\n        /* \"@openzeppelin/contracts-upgradeable/token/ERC721/ERC721Upgradeable.sol\":9430:9446  to != address(0) */\n      0xffffffffffffffffffffffffffffffffffffffff\n      and\n      sub\n        /* \"@openzeppelin/contracts-upgradeable/token/ERC721/ERC721Upgradeable.sol\":9422:9483  require(to != address(0), \"ERC721: mint to the zero address\") */\n      tag_256\n      jumpi\n      mload(0x40)\n      0x08c379a000000000000000000000000000000000000000000000000000000000\n      dup2\n      mstore\n      0x04\n      add\n      tag_257\n      swap1\n      tag_258\n      jump\t// in\n    tag_257:\n      mload(0x40)\n      dup1\n      swap2\n      sub\n      swap1\n      revert\n    tag_256:\n        /* \"@openzeppelin/contracts-upgradeable/token/ERC721/ERC721Upgradeable.sol\":9502:9518  _exists(tokenId) */\n      tag_259\n        /* \"@openzeppelin/contracts-upgradeable/token/ERC721/ERC721Upgradeable.sol\":9510:9517  tokenId */\n      dup2\n        /* \"@openzeppelin/contracts-upgradeable/token/ERC721/ERC721Upgradeable.sol\":9502:9509  _exists */\n      tag_226\n        /* \"@openzeppelin/contracts-upgradeable/token/ERC721/ERC721Upgradeable.sol\":9502:9518  _exists(tokenId) */\n      jump\t// in\n    tag_259:\n        /* \"@openzeppelin/contracts-upgradeable/token/ERC721/ERC721Upgradeable.sol\":9501:9518  !_exists(tokenId) */\n      iszero\n        /* \"@openzeppelin/contracts-upgradeable/token/ERC721/ERC721Upgradeable.sol\":9493:9551  require(!_exists(tokenId), \"ERC721: token already minted\") */\n      tag_260\n      jumpi\n      mload(0x40)\n      0x08c379a000000000000000000000000000000000000000000000000000000000\n      dup2\n      mstore\n      0x04\n      add\n      tag_261\n      swap1\n      tag_262\n      jump\t// in\n    tag_261:\n      mload(0x40)\n      dup1\n      swap2\n      sub\n      swap1\n      revert\n    tag_260:\n        /* \"@openzeppelin/contracts-upgradeable/token/ERC721/ERC721Upgradeable.sol\":9562:9607  _beforeTokenTransfer(address(0), to, tokenId) */\n      tag_263\n        /* \"@openzeppelin/contracts-upgradeable/token/ERC721/ERC721Upgradeable.sol\":9591:9592  0 */\n      0x00\n        /* \"@openzeppelin/contracts-upgradeable/token/ERC721/ERC721Upgradeable.sol\":9595:9597  to */\n      dup4\n        /* \"@openzeppelin/contracts-upgradeable/token/ERC721/ERC721Upgradeable.sol\":9599:9606  tokenId */\n      dup4\n        /* \"@openzeppelin/contracts-upgradeable/token/ERC721/ERC721Upgradeable.sol\":9562:9582  _beforeTokenTransfer */\n      tag_247\n        /* \"@openzeppelin/contracts-upgradeable/token/ERC721/ERC721Upgradeable.sol\":9562:9607  _beforeTokenTransfer(address(0), to, tokenId) */\n      jump\t// in\n    tag_263:\n        /* \"@openzeppelin/contracts-upgradeable/token/ERC721/ERC721Upgradeable.sol\":9635:9636  1 */\n      0x01\n        /* \"@openzeppelin/contracts-upgradeable/token/ERC721/ERC721Upgradeable.sol\":9618:9627  _balances */\n      0x68\n        /* \"@openzeppelin/contracts-upgradeable/token/ERC721/ERC721Upgradeable.sol\":9618:9631  _balances[to] */\n      0x00\n        /* \"@openzeppelin/contracts-upgradeable/token/ERC721/ERC721Upgradeable.sol\":9628:9630  to */\n      dup5\n        /* \"@openzeppelin/contracts-upgradeable/token/ERC721/ERC721Upgradeable.sol\":9618:9631  _balances[to] */\n      0xffffffffffffffffffffffffffffffffffffffff\n      and\n      0xffffffffffffffffffffffffffffffffffffffff\n      and\n      dup2\n      mstore\n      0x20\n      add\n      swap1\n      dup2\n      mstore\n      0x20\n      add\n      0x00\n      keccak256\n      0x00\n        /* \"@openzeppelin/contracts-upgradeable/token/ERC721/ERC721Upgradeable.sol\":9618:9636  _balances[to] += 1 */\n      dup3\n      dup3\n      sload\n      tag_264\n      swap2\n      swap1\n      tag_252\n      jump\t// in\n    tag_264:\n      swap3\n      pop\n      pop\n      dup2\n      swap1\n      sstore\n      pop\n        /* \"@openzeppelin/contracts-upgradeable/token/ERC721/ERC721Upgradeable.sol\":9665:9667  to */\n      dup2\n        /* \"@openzeppelin/contracts-upgradeable/token/ERC721/ERC721Upgradeable.sol\":9646:9653  _owners */\n      0x67\n        /* \"@openzeppelin/contracts-upgradeable/token/ERC721/ERC721Upgradeable.sol\":9646:9662  _owners[tokenId] */\n      0x00\n        /* \"@openzeppelin/contracts-upgradeable/token/ERC721/ERC721Upgradeable.sol\":9654:9661  tokenId */\n      dup4\n        /* \"@openzeppelin/contracts-upgradeable/token/ERC721/ERC721Upgradeable.sol\":9646:9662  _owners[tokenId] */\n      dup2\n      mstore\n      0x20\n      add\n      swap1\n      dup2\n      mstore\n      0x20\n      add\n      0x00\n      keccak256\n      0x00\n        /* \"@openzeppelin/contracts-upgradeable/token/ERC721/ERC721Upgradeable.sol\":9646:9667  _owners[tokenId] = to */\n      0x0100\n      exp\n      dup2\n      sload\n      dup2\n      0xffffffffffffffffffffffffffffffffffffffff\n      mul\n      not\n      and\n      swap1\n      dup4\n      0xffffffffffffffffffffffffffffffffffffffff\n      and\n      mul\n      or\n      swap1\n      sstore\n      pop\n        /* \"@openzeppelin/contracts-upgradeable/token/ERC721/ERC721Upgradeable.sol\":9708:9715  tokenId */\n      dup1\n        /* \"@openzeppelin/contracts-upgradeable/token/ERC721/ERC721Upgradeable.sol\":9704:9706  to */\n      dup3\n        /* \"@openzeppelin/contracts-upgradeable/token/ERC721/ERC721Upgradeable.sol\":9683:9716  Transfer(address(0), to, tokenId) */\n      0xffffffffffffffffffffffffffffffffffffffff\n      and\n        /* \"@openzeppelin/contracts-upgradeable/token/ERC721/ERC721Upgradeable.sol\":9700:9701  0 */\n      0x00\n        /* \"@openzeppelin/contracts-upgradeable/token/ERC721/ERC721Upgradeable.sol\":9683:9716  Transfer(address(0), to, tokenId) */\n      0xffffffffffffffffffffffffffffffffffffffff\n      and\n      0xddf252ad1be2c89b69c2b068fc378daa952ba7f163c4a11628f55a4df523b3ef\n      mload(0x40)\n      mload(0x40)\n      dup1\n      swap2\n      sub\n      swap1\n      log4\n        /* \"@openzeppelin/contracts-upgradeable/token/ERC721/ERC721Upgradeable.sol\":9727:9771  _afterTokenTransfer(address(0), to, tokenId) */\n      tag_265\n        /* \"@openzeppelin/contracts-upgradeable/token/ERC721/ERC721Upgradeable.sol\":9755:9756  0 */\n      0x00\n        /* \"@openzeppelin/contracts-upgradeable/token/ERC721/ERC721Upgradeable.sol\":9759:9761  to */\n      dup4\n        /* \"@openzeppelin/contracts-upgradeable/token/ERC721/ERC721Upgradeable.sol\":9763:9770  tokenId */\n      dup4\n        /* \"@openzeppelin/contracts-upgradeable/token/ERC721/ERC721Upgradeable.sol\":9727:9746  _afterTokenTransfer */\n      tag_254\n        /* \"@openzeppelin/contracts-upgradeable/token/ERC721/ERC721Upgradeable.sol\":9727:9771  _afterTokenTransfer(address(0), to, tokenId) */\n      jump\t// in\n    tag_265:\n        /* \"@openzeppelin/contracts-upgradeable/token/ERC721/ERC721Upgradeable.sol\":9351:9778  function _mint(address to, uint256 tokenId) internal virtual {... */\n      pop\n      pop\n      jump\t// out\n        /* \"@openzeppelin/contracts-upgradeable/utils/AddressUpgradeable.sol\":1186:1506  function isContract(address account) internal view returns (bool) {... */\n    tag_180:\n        /* \"@openzeppelin/contracts-upgradeable/utils/AddressUpgradeable.sol\":1246:1250  bool */\n      0x00\n        /* \"@openzeppelin/contracts-upgradeable/utils/AddressUpgradeable.sol\":1498:1499  0 */\n      dup1\n        /* \"@openzeppelin/contracts-upgradeable/utils/AddressUpgradeable.sol\":1476:1483  account */\n      dup3\n        /* \"@openzeppelin/contracts-upgradeable/utils/AddressUpgradeable.sol\":1476:1495  account.code.length */\n      0xffffffffffffffffffffffffffffffffffffffff\n      and\n      extcodesize\n        /* \"@openzeppelin/contracts-upgradeable/utils/AddressUpgradeable.sol\":1476:1499  account.code.length > 0 */\n      gt\n        /* \"@openzeppelin/contracts-upgradeable/utils/AddressUpgradeable.sol\":1469:1499  return account.code.length > 0 */\n      swap1\n      pop\n        /* \"@openzeppelin/contracts-upgradeable/utils/AddressUpgradeable.sol\":1186:1506  function isContract(address account) internal view returns (bool) {... */\n      swap2\n      swap1\n      pop\n      jump\t// out\n        /* \"@openzeppelin/contracts-upgradeable/token/ERC721/ERC721Upgradeable.sol\":1605:1754  function __ERC721_init(string memory name_, string memory symbol_) internal onlyInitializing {... */\n    tag_188:\n        /* \"@openzeppelin/contracts-upgradeable/proxy/utils/Initializable.sol\":4910:4923  _initializing */\n      0x00\n      0x01\n      swap1\n      sload\n      swap1\n      0x0100\n      exp\n      swap1\n      div\n      0xff\n      and\n        /* \"@openzeppelin/contracts-upgradeable/proxy/utils/Initializable.sol\":4902:4971  require(_initializing, \"Initializable: contract is not initializing\") */\n      tag_268\n      jumpi\n      mload(0x40)\n      0x08c379a000000000000000000000000000000000000000000000000000000000\n      dup2\n      mstore\n      0x04\n      add\n      tag_269\n      swap1\n      tag_270\n      jump\t// in\n    tag_269:\n      mload(0x40)\n      dup1\n      swap2\n      sub\n      swap1\n      revert\n    tag_268:\n        /* \"@openzeppelin/contracts-upgradeable/token/ERC721/ERC721Upgradeable.sol\":1708:1747  __ERC721_init_unchained(name_, symbol_) */\n      tag_272\n        /* \"@openzeppelin/contracts-upgradeable/token/ERC721/ERC721Upgradeable.sol\":1732:1737  name_ */\n      dup3\n        /* \"@openzeppelin/contracts-upgradeable/token/ERC721/ERC721Upgradeable.sol\":1739:1746  symbol_ */\n      dup3\n        /* \"@openzeppelin/contracts-upgradeable/token/ERC721/ERC721Upgradeable.sol\":1708:1731  __ERC721_init_unchained */\n      tag_273\n        /* \"@openzeppelin/contracts-upgradeable/token/ERC721/ERC721Upgradeable.sol\":1708:1747  __ERC721_init_unchained(name_, symbol_) */\n      jump\t// in\n    tag_272:\n        /* \"@openzeppelin/contracts-upgradeable/token/ERC721/ERC721Upgradeable.sol\":1605:1754  function __ERC721_init(string memory name_, string memory symbol_) internal onlyInitializing {... */\n      pop\n      pop\n      jump\t// out\n        /* \"@openzeppelin/contracts-upgradeable/token/ERC721/ERC721Upgradeable.sol\":11782:12089  function _setApprovalForAll(... */\n    tag_201:\n        /* \"@openzeppelin/contracts-upgradeable/token/ERC721/ERC721Upgradeable.sol\":11932:11940  operator */\n      dup2\n        /* \"@openzeppelin/contracts-upgradeable/token/ERC721/ERC721Upgradeable.sol\":11923:11940  owner != operator */\n      0xffffffffffffffffffffffffffffffffffffffff\n      and\n        /* \"@openzeppelin/contracts-upgradeable/token/ERC721/ERC721Upgradeable.sol\":11923:11928  owner */\n      dup4\n        /* \"@openzeppelin/contracts-upgradeable/token/ERC721/ERC721Upgradeable.sol\":11923:11940  owner != operator */\n      0xffffffffffffffffffffffffffffffffffffffff\n      and\n      sub\n        /* \"@openzeppelin/contracts-upgradeable/token/ERC721/ERC721Upgradeable.sol\":11915:11970  require(owner != operator, \"ERC721: approve to caller\") */\n      tag_275\n      jumpi\n      mload(0x40)\n      0x08c379a000000000000000000000000000000000000000000000000000000000\n      dup2\n      mstore\n      0x04\n      add\n      tag_276\n      swap1\n      tag_277\n      jump\t// in\n    tag_276:\n      mload(0x40)\n      dup1\n      swap2\n      sub\n      swap1\n      revert\n    tag_275:\n        /* \"@openzeppelin/contracts-upgradeable/token/ERC721/ERC721Upgradeable.sol\":12018:12026  approved */\n      dup1\n        /* \"@openzeppelin/contracts-upgradeable/token/ERC721/ERC721Upgradeable.sol\":11980:11998  _operatorApprovals */\n      0x6a\n        /* \"@openzeppelin/contracts-upgradeable/token/ERC721/ERC721Upgradeable.sol\":11980:12005  _operatorApprovals[owner] */\n      0x00\n        /* \"@openzeppelin/contracts-upgradeable/token/ERC721/ERC721Upgradeable.sol\":11999:12004  owner */\n      dup6\n        /* \"@openzeppelin/contracts-upgradeable/token/ERC721/ERC721Upgradeable.sol\":11980:12005  _operatorApprovals[owner] */\n      0xffffffffffffffffffffffffffffffffffffffff\n      and\n      0xffffffffffffffffffffffffffffffffffffffff\n      and\n      dup2\n      mstore\n      0x20\n      add\n      swap1\n      dup2\n      mstore\n      0x20\n      add\n      0x00\n      keccak256\n        /* \"@openzeppelin/contracts-upgradeable/token/ERC721/ERC721Upgradeable.sol\":11980:12015  _operatorApprovals[owner][operator] */\n      0x00\n        /* \"@openzeppelin/contracts-upgradeable/token/ERC721/ERC721Upgradeable.sol\":12006:12014  operator */\n      dup5\n        /* \"@openzeppelin/contracts-upgradeable/token/ERC721/ERC721Upgradeable.sol\":11980:12015  _operatorApprovals[owner][operator] */\n      0xffffffffffffffffffffffffffffffffffffffff\n      and\n      0xffffffffffffffffffffffffffffffffffffffff\n      and\n      dup2\n      mstore\n      0x20\n      add\n      swap1\n      dup2\n      mstore\n      0x20\n      add\n      0x00\n      keccak256\n      0x00\n        /* \"@openzeppelin/contracts-upgradeable/token/ERC721/ERC721Upgradeable.sol\":11980:12026  _operatorApprovals[owner][operator] = approved */\n      0x0100\n      exp\n      dup2\n      sload\n      dup2\n      0xff\n      mul\n      not\n      and\n      swap1\n      dup4\n      iszero\n      iszero\n      mul\n      or\n      swap1\n      sstore\n      pop\n        /* \"@openzeppelin/contracts-upgradeable/token/ERC721/ERC721Upgradeable.sol\":12063:12071  operator */\n      dup2\n        /* \"@openzeppelin/contracts-upgradeable/token/ERC721/ERC721Upgradeable.sol\":12041:12082  ApprovalForAll(owner, operator, approved) */\n      0xffffffffffffffffffffffffffffffffffffffff\n      and\n        /* \"@openzeppelin/contracts-upgradeable/token/ERC721/ERC721Upgradeable.sol\":12056:12061  owner */\n      dup4\n        /* \"@openzeppelin/contracts-upgradeable/token/ERC721/ERC721Upgradeable.sol\":12041:12082  ApprovalForAll(owner, operator, approved) */\n      0xffffffffffffffffffffffffffffffffffffffff\n      and\n      0x17307eab39ab6107e8899845ad3d59bd9653f200f220920489ca2b5937696c31\n        /* \"@openzeppelin/contracts-upgradeable/token/ERC721/ERC721Upgradeable.sol\":12073:12081  approved */\n      dup4\n        /* \"@openzeppelin/contracts-upgradeable/token/ERC721/ERC721Upgradeable.sol\":12041:12082  ApprovalForAll(owner, operator, approved) */\n      mload(0x40)\n      tag_278\n      swap2\n      swap1\n      tag_30\n      jump\t// in\n    tag_278:\n      mload(0x40)\n      dup1\n      swap2\n      sub\n      swap1\n      log3\n        /* \"@openzeppelin/contracts-upgradeable/token/ERC721/ERC721Upgradeable.sol\":11782:12089  function _setApprovalForAll(... */\n      pop\n      pop\n      pop\n      jump\t// out\n        /* \"@openzeppelin/contracts-upgradeable/token/ERC721/ERC721Upgradeable.sol\":6898:7203  function _safeTransfer(... */\n    tag_208:\n        /* \"@openzeppelin/contracts-upgradeable/token/ERC721/ERC721Upgradeable.sol\":7048:7076  _transfer(from, to, tokenId) */\n      tag_280\n        /* \"@openzeppelin/contracts-upgradeable/token/ERC721/ERC721Upgradeable.sol\":7058:7062  from */\n      dup5\n        /* \"@openzeppelin/contracts-upgradeable/token/ERC721/ERC721Upgradeable.sol\":7064:7066  to */\n      dup5\n        /* \"@openzeppelin/contracts-upgradeable/token/ERC721/ERC721Upgradeable.sol\":7068:7075  tokenId */\n      dup5\n        /* \"@openzeppelin/contracts-upgradeable/token/ERC721/ERC721Upgradeable.sol\":7048:7057  _transfer */\n      tag_155\n        /* \"@openzeppelin/contracts-upgradeable/token/ERC721/ERC721Upgradeable.sol\":7048:7076  _transfer(from, to, tokenId) */\n      jump\t// in\n    tag_280:\n        /* \"@openzeppelin/contracts-upgradeable/token/ERC721/ERC721Upgradeable.sol\":7094:7141  _checkOnERC721Received(from, to, tokenId, data) */\n      tag_281\n        /* \"@openzeppelin/contracts-upgradeable/token/ERC721/ERC721Upgradeable.sol\":7117:7121  from */\n      dup5\n        /* \"@openzeppelin/contracts-upgradeable/token/ERC721/ERC721Upgradeable.sol\":7123:7125  to */\n      dup5\n        /* \"@openzeppelin/contracts-upgradeable/token/ERC721/ERC721Upgradeable.sol\":7127:7134  tokenId */\n      dup5\n        /* \"@openzeppelin/contracts-upgradeable/token/ERC721/ERC721Upgradeable.sol\":7136:7140  data */\n      dup5\n        /* \"@openzeppelin/contracts-upgradeable/token/ERC721/ERC721Upgradeable.sol\":7094:7116  _checkOnERC721Received */\n      tag_282\n        /* \"@openzeppelin/contracts-upgradeable/token/ERC721/ERC721Upgradeable.sol\":7094:7141  _checkOnERC721Received(from, to, tokenId, data) */\n      jump\t// in\n    tag_281:\n        /* \"@openzeppelin/contracts-upgradeable/token/ERC721/ERC721Upgradeable.sol\":7086:7196  require(_checkOnERC721Received(from, to, tokenId, data), \"ERC721: transfer to non ERC721Receiver implementer\") */\n      tag_283\n      jumpi\n      mload(0x40)\n      0x08c379a000000000000000000000000000000000000000000000000000000000\n      dup2\n      mstore\n      0x04\n      add\n      tag_284\n      swap1\n      tag_285\n      jump\t// in\n    tag_284:\n      mload(0x40)\n      dup1\n      swap2\n      sub\n      swap1\n      revert\n    tag_283:\n        /* \"@openzeppelin/contracts-upgradeable/token/ERC721/ERC721Upgradeable.sol\":6898:7203  function _safeTransfer(... */\n      pop\n      pop\n      pop\n      pop\n      jump\t// out\n        /* \"@openzeppelin/contracts-upgradeable/token/ERC721/ERC721Upgradeable.sol\":3779:3871  function _baseURI() internal view virtual returns (string memory) {... */\n    tag_215:\n        /* \"@openzeppelin/contracts-upgradeable/token/ERC721/ERC721Upgradeable.sol\":3830:3843  string memory */\n      0x60\n        /* \"@openzeppelin/contracts-upgradeable/token/ERC721/ERC721Upgradeable.sol\":3855:3864  return \"\" */\n      mload(0x40)\n      dup1\n      0x20\n      add\n      0x40\n      mstore\n      dup1\n      0x00\n      dup2\n      mstore\n      pop\n      swap1\n      pop\n        /* \"@openzeppelin/contracts-upgradeable/token/ERC721/ERC721Upgradeable.sol\":3779:3871  function _baseURI() internal view virtual returns (string memory) {... */\n      swap1\n      jump\t// out\n        /* \"@openzeppelin/contracts-upgradeable/utils/StringsUpgradeable.sol\":403:1106  function toString(uint256 value) internal pure returns (string memory) {... */\n    tag_219:\n        /* \"@openzeppelin/contracts-upgradeable/utils/StringsUpgradeable.sol\":459:472  string memory */\n      0x60\n        /* \"@openzeppelin/contracts-upgradeable/utils/StringsUpgradeable.sol\":685:686  0 */\n      0x00\n        /* \"@openzeppelin/contracts-upgradeable/utils/StringsUpgradeable.sol\":676:681  value */\n      dup3\n        /* \"@openzeppelin/contracts-upgradeable/utils/StringsUpgradeable.sol\":676:686  value == 0 */\n      sub\n        /* \"@openzeppelin/contracts-upgradeable/utils/StringsUpgradeable.sol\":672:723  if (value == 0) {... */\n      tag_288\n      jumpi\n        /* \"@openzeppelin/contracts-upgradeable/utils/StringsUpgradeable.sol\":702:712  return \"0\" */\n      mload(0x40)\n      dup1\n      0x40\n      add\n      0x40\n      mstore\n      dup1\n      0x01\n      dup2\n      mstore\n      0x20\n      add\n      0x3000000000000000000000000000000000000000000000000000000000000000\n      dup2\n      mstore\n      pop\n      swap1\n      pop\n      jump(tag_287)\n        /* \"@openzeppelin/contracts-upgradeable/utils/StringsUpgradeable.sol\":672:723  if (value == 0) {... */\n    tag_288:\n        /* \"@openzeppelin/contracts-upgradeable/utils/StringsUpgradeable.sol\":732:744  uint256 temp */\n      0x00\n        /* \"@openzeppelin/contracts-upgradeable/utils/StringsUpgradeable.sol\":747:752  value */\n      dup3\n        /* \"@openzeppelin/contracts-upgradeable/utils/StringsUpgradeable.sol\":732:752  uint256 temp = value */\n      swap1\n      pop\n        /* \"@openzeppelin/contracts-upgradeable/utils/StringsUpgradeable.sol\":762:776  uint256 digits */\n      0x00\n        /* \"@openzeppelin/contracts-upgradeable/utils/StringsUpgradeable.sol\":786:861  while (temp != 0) {... */\n    tag_289:\n        /* \"@openzeppelin/contracts-upgradeable/utils/StringsUpgradeable.sol\":801:802  0 */\n      0x00\n        /* \"@openzeppelin/contracts-upgradeable/utils/StringsUpgradeable.sol\":793:797  temp */\n      dup3\n        /* \"@openzeppelin/contracts-upgradeable/utils/StringsUpgradeable.sol\":793:802  temp != 0 */\n      eq\n        /* \"@openzeppelin/contracts-upgradeable/utils/StringsUpgradeable.sol\":786:861  while (temp != 0) {... */\n      tag_290\n      jumpi\n        /* \"@openzeppelin/contracts-upgradeable/utils/StringsUpgradeable.sol\":818:826  digits++ */\n      dup1\n      dup1\n      tag_291\n      swap1\n      tag_292\n      jump\t// in\n    tag_291:\n      swap2\n      pop\n      pop\n        /* \"@openzeppelin/contracts-upgradeable/utils/StringsUpgradeable.sol\":848:850  10 */\n      0x0a\n        /* \"@openzeppelin/contracts-upgradeable/utils/StringsUpgradeable.sol\":840:850  temp /= 10 */\n      dup3\n      tag_293\n      swap2\n      swap1\n      tag_294\n      jump\t// in\n    tag_293:\n      swap2\n      pop\n        /* \"@openzeppelin/contracts-upgradeable/utils/StringsUpgradeable.sol\":786:861  while (temp != 0) {... */\n      jump(tag_289)\n    tag_290:\n        /* \"@openzeppelin/contracts-upgradeable/utils/StringsUpgradeable.sol\":870:889  bytes memory buffer */\n      0x00\n        /* \"@openzeppelin/contracts-upgradeable/utils/StringsUpgradeable.sol\":902:908  digits */\n      dup2\n        /* \"@openzeppelin/contracts-upgradeable/utils/StringsUpgradeable.sol\":892:909  new bytes(digits) */\n      0xffffffffffffffff\n      dup2\n      gt\n      iszero\n      tag_295\n      jumpi\n      tag_296\n      tag_297\n      jump\t// in\n    tag_296:\n    tag_295:\n      mload(0x40)\n      swap1\n      dup1\n      dup3\n      mstore\n      dup1\n      0x1f\n      add\n      not(0x1f)\n      and\n      0x20\n      add\n      dup3\n      add\n      0x40\n      mstore\n      dup1\n      iszero\n      tag_298\n      jumpi\n      dup2\n      0x20\n      add\n      0x01\n      dup3\n      mul\n      dup1\n      calldatasize\n      dup4\n      calldatacopy\n      dup1\n      dup3\n      add\n      swap2\n      pop\n      pop\n      swap1\n      pop\n    tag_298:\n      pop\n        /* \"@openzeppelin/contracts-upgradeable/utils/StringsUpgradeable.sol\":870:909  bytes memory buffer = new bytes(digits) */\n      swap1\n      pop\n        /* \"@openzeppelin/contracts-upgradeable/utils/StringsUpgradeable.sol\":919:1069  while (value != 0) {... */\n    tag_299:\n        /* \"@openzeppelin/contracts-upgradeable/utils/StringsUpgradeable.sol\":935:936  0 */\n      0x00\n        /* \"@openzeppelin/contracts-upgradeable/utils/StringsUpgradeable.sol\":926:931  value */\n      dup6\n        /* \"@openzeppelin/contracts-upgradeable/utils/StringsUpgradeable.sol\":926:936  value != 0 */\n      eq\n        /* \"@openzeppelin/contracts-upgradeable/utils/StringsUpgradeable.sol\":919:1069  while (value != 0) {... */\n      tag_300\n      jumpi\n        /* \"@openzeppelin/contracts-upgradeable/utils/StringsUpgradeable.sol\":962:963  1 */\n      0x01\n        /* \"@openzeppelin/contracts-upgradeable/utils/StringsUpgradeable.sol\":952:963  digits -= 1 */\n      dup3\n      tag_301\n      swap2\n      swap1\n      tag_250\n      jump\t// in\n    tag_301:\n      swap2\n      pop\n        /* \"@openzeppelin/contracts-upgradeable/utils/StringsUpgradeable.sol\":1028:1030  10 */\n      0x0a\n        /* \"@openzeppelin/contracts-upgradeable/utils/StringsUpgradeable.sol\":1020:1025  value */\n      dup6\n        /* \"@openzeppelin/contracts-upgradeable/utils/StringsUpgradeable.sol\":1020:1030  value % 10 */\n      tag_302\n      swap2\n      swap1\n      tag_303\n      jump\t// in\n    tag_302:\n        /* \"@openzeppelin/contracts-upgradeable/utils/StringsUpgradeable.sol\":1007:1009  48 */\n      0x30\n        /* \"@openzeppelin/contracts-upgradeable/utils/StringsUpgradeable.sol\":1007:1031  48 + uint256(value % 10) */\n      tag_304\n      swap2\n      swap1\n      tag_252\n      jump\t// in\n    tag_304:\n        /* \"@openzeppelin/contracts-upgradeable/utils/StringsUpgradeable.sol\":994:1033  bytes1(uint8(48 + uint256(value % 10))) */\n      0xf8\n      shl\n        /* \"@openzeppelin/contracts-upgradeable/utils/StringsUpgradeable.sol\":977:983  buffer */\n      dup2\n        /* \"@openzeppelin/contracts-upgradeable/utils/StringsUpgradeable.sol\":984:990  digits */\n      dup4\n        /* \"@openzeppelin/contracts-upgradeable/utils/StringsUpgradeable.sol\":977:991  buffer[digits] */\n      dup2\n      mload\n      dup2\n      lt\n      tag_305\n      jumpi\n      tag_306\n      tag_307\n      jump\t// in\n    tag_306:\n    tag_305:\n      0x20\n      add\n      add\n        /* \"@openzeppelin/contracts-upgradeable/utils/StringsUpgradeable.sol\":977:1033  buffer[digits] = bytes1(uint8(48 + uint256(value % 10))) */\n      swap1\n      not(0xffffffffffffffffffffffffffffffffffffffffffffffffffffffffffffff)\n      and\n      swap1\n      dup2\n      0x00\n      byte\n      swap1\n      mstore8\n      pop\n        /* \"@openzeppelin/contracts-upgradeable/utils/StringsUpgradeable.sol\":1056:1058  10 */\n      0x0a\n        /* \"@openzeppelin/contracts-upgradeable/utils/StringsUpgradeable.sol\":1047:1058  value /= 10 */\n      dup6\n      tag_308\n      swap2\n      swap1\n      tag_294\n      jump\t// in\n    tag_308:\n      swap5\n      pop\n        /* \"@openzeppelin/contracts-upgradeable/utils/StringsUpgradeable.sol\":919:1069  while (value != 0) {... */\n      jump(tag_299)\n    tag_300:\n        /* \"@openzeppelin/contracts-upgradeable/utils/StringsUpgradeable.sol\":1092:1098  buffer */\n      dup1\n        /* \"@openzeppelin/contracts-upgradeable/utils/StringsUpgradeable.sol\":1078:1099  return string(buffer) */\n      swap4\n      pop\n      pop\n      pop\n      pop\n        /* \"@openzeppelin/contracts-upgradeable/utils/StringsUpgradeable.sol\":403:1106  function toString(uint256 value) internal pure returns (string memory) {... */\n    tag_287:\n      swap2\n      swap1\n      pop\n      jump\t// out\n        /* \"@openzeppelin/contracts-upgradeable/token/ERC721/ERC721Upgradeable.sol\":7506:7631  function _exists(uint256 tokenId) internal view virtual returns (bool) {... */\n    tag_226:\n        /* \"@openzeppelin/contracts-upgradeable/token/ERC721/ERC721Upgradeable.sol\":7571:7575  bool */\n      0x00\n        /* \"@openzeppelin/contracts-upgradeable/token/ERC721/ERC721Upgradeable.sol\":7622:7623  0 */\n      dup1\n        /* \"@openzeppelin/contracts-upgradeable/token/ERC721/ERC721Upgradeable.sol\":7594:7624  _owners[tokenId] != address(0) */\n      0xffffffffffffffffffffffffffffffffffffffff\n      and\n        /* \"@openzeppelin/contracts-upgradeable/token/ERC721/ERC721Upgradeable.sol\":7594:7601  _owners */\n      0x67\n        /* \"@openzeppelin/contracts-upgradeable/token/ERC721/ERC721Upgradeable.sol\":7594:7610  _owners[tokenId] */\n      0x00\n        /* \"@openzeppelin/contracts-upgradeable/token/ERC721/ERC721Upgradeable.sol\":7602:7609  tokenId */\n      dup5\n        /* \"@openzeppelin/contracts-upgradeable/token/ERC721/ERC721Upgradeable.sol\":7594:7610  _owners[tokenId] */\n      dup2\n      mstore\n      0x20\n      add\n      swap1\n      dup2\n      mstore\n      0x20\n      add\n      0x00\n      keccak256\n      0x00\n      swap1\n      sload\n      swap1\n      0x0100\n      exp\n      swap1\n      div\n      0xffffffffffffffffffffffffffffffffffffffff\n      and\n        /* \"@openzeppelin/contracts-upgradeable/token/ERC721/ERC721Upgradeable.sol\":7594:7624  _owners[tokenId] != address(0) */\n      0xffffffffffffffffffffffffffffffffffffffff\n      and\n      eq\n      iszero\n        /* \"@openzeppelin/contracts-upgradeable/token/ERC721/ERC721Upgradeable.sol\":7587:7624  return _owners[tokenId] != address(0) */\n      swap1\n      pop\n        /* \"@openzeppelin/contracts-upgradeable/token/ERC721/ERC721Upgradeable.sol\":7506:7631  function _exists(uint256 tokenId) internal view virtual returns (bool) {... */\n      swap2\n      swap1\n      pop\n      jump\t// out\n        /* \"@openzeppelin/contracts-upgradeable/token/ERC721/ERC721Upgradeable.sol\":14267:14389  function _beforeTokenTransfer(... */\n    tag_247:\n      pop\n      pop\n      pop\n      jump\t// out\n        /* \"@openzeppelin/contracts-upgradeable/token/ERC721/ERC721Upgradeable.sol\":14761:14882  function _afterTokenTransfer(... */\n    tag_254:\n      pop\n      pop\n      pop\n      jump\t// out\n        /* \"@openzeppelin/contracts-upgradeable/token/ERC721/ERC721Upgradeable.sol\":1760:1920  function __ERC721_init_unchained(string memory name_, string memory symbol_) internal onlyInitializing {... */\n    tag_273:\n        /* \"@openzeppelin/contracts-upgradeable/proxy/utils/Initializable.sol\":4910:4923  _initializing */\n      0x00\n      0x01\n      swap1\n      sload\n      swap1\n      0x0100\n      exp\n      swap1\n      div\n      0xff\n      and\n        /* \"@openzeppelin/contracts-upgradeable/proxy/utils/Initializable.sol\":4902:4971  require(_initializing, \"Initializable: contract is not initializing\") */\n      tag_313\n      jumpi\n      mload(0x40)\n      0x08c379a000000000000000000000000000000000000000000000000000000000\n      dup2\n      mstore\n      0x04\n      add\n      tag_314\n      swap1\n      tag_270\n      jump\t// in\n    tag_314:\n      mload(0x40)\n      dup1\n      swap2\n      sub\n      swap1\n      revert\n    tag_313:\n        /* \"@openzeppelin/contracts-upgradeable/token/ERC721/ERC721Upgradeable.sol\":1881:1886  name_ */\n      dup2\n        /* \"@openzeppelin/contracts-upgradeable/token/ERC721/ERC721Upgradeable.sol\":1873:1878  _name */\n      0x65\n        /* \"@openzeppelin/contracts-upgradeable/token/ERC721/ERC721Upgradeable.sol\":1873:1886  _name = name_ */\n      swap1\n      dup1\n      mload\n      swap1\n      0x20\n      add\n      swap1\n      tag_316\n      swap3\n      swap2\n      swap1\n      tag_317\n      jump\t// in\n    tag_316:\n      pop\n        /* \"@openzeppelin/contracts-upgradeable/token/ERC721/ERC721Upgradeable.sol\":1906:1913  symbol_ */\n      dup1\n        /* \"@openzeppelin/contracts-upgradeable/token/ERC721/ERC721Upgradeable.sol\":1896:1903  _symbol */\n      0x66\n        /* \"@openzeppelin/contracts-upgradeable/token/ERC721/ERC721Upgradeable.sol\":1896:1913  _symbol = symbol_ */\n      swap1\n      dup1\n      mload\n      swap1\n      0x20\n      add\n      swap1\n      tag_318\n      swap3\n      swap2\n      swap1\n      tag_317\n      jump\t// in\n    tag_318:\n      pop\n        /* \"@openzeppelin/contracts-upgradeable/token/ERC721/ERC721Upgradeable.sol\":1760:1920  function __ERC721_init_unchained(string memory name_, string memory symbol_) internal onlyInitializing {... */\n      pop\n      pop\n      jump\t// out\n        /* \"@openzeppelin/contracts-upgradeable/token/ERC721/ERC721Upgradeable.sol\":12858:13711  function _checkOnERC721Received(... */\n    tag_282:\n        /* \"@openzeppelin/contracts-upgradeable/token/ERC721/ERC721Upgradeable.sol\":13007:13011  bool */\n      0x00\n        /* \"@openzeppelin/contracts-upgradeable/token/ERC721/ERC721Upgradeable.sol\":13027:13042  to.isContract() */\n      tag_320\n        /* \"@openzeppelin/contracts-upgradeable/token/ERC721/ERC721Upgradeable.sol\":13027:13029  to */\n      dup5\n        /* \"@openzeppelin/contracts-upgradeable/token/ERC721/ERC721Upgradeable.sol\":13027:13040  to.isContract */\n      0xffffffffffffffffffffffffffffffffffffffff\n      and\n      tag_180\n        /* \"@openzeppelin/contracts-upgradeable/token/ERC721/ERC721Upgradeable.sol\":13027:13042  to.isContract() */\n      jump\t// in\n    tag_320:\n        /* \"@openzeppelin/contracts-upgradeable/token/ERC721/ERC721Upgradeable.sol\":13023:13705  if (to.isContract()) {... */\n      iszero\n      tag_321\n      jumpi\n        /* \"@openzeppelin/contracts-upgradeable/token/ERC721/ERC721Upgradeable.sol\":13089:13091  to */\n      dup4\n        /* \"@openzeppelin/contracts-upgradeable/token/ERC721/ERC721Upgradeable.sol\":13062:13109  IERC721ReceiverUpgradeable(to).onERC721Received */\n      0xffffffffffffffffffffffffffffffffffffffff\n      and\n      0x150b7a02\n        /* \"@openzeppelin/contracts-upgradeable/token/ERC721/ERC721Upgradeable.sol\":13110:13122  _msgSender() */\n      tag_322\n        /* \"@openzeppelin/contracts-upgradeable/token/ERC721/ERC721Upgradeable.sol\":13110:13120  _msgSender */\n      tag_138\n        /* \"@openzeppelin/contracts-upgradeable/token/ERC721/ERC721Upgradeable.sol\":13110:13122  _msgSender() */\n      jump\t// in\n    tag_322:\n        /* \"@openzeppelin/contracts-upgradeable/token/ERC721/ERC721Upgradeable.sol\":13124:13128  from */\n      dup8\n        /* \"@openzeppelin/contracts-upgradeable/token/ERC721/ERC721Upgradeable.sol\":13130:13137  tokenId */\n      dup7\n        /* \"@openzeppelin/contracts-upgradeable/token/ERC721/ERC721Upgradeable.sol\":13139:13143  data */\n      dup7\n        /* \"@openzeppelin/contracts-upgradeable/token/ERC721/ERC721Upgradeable.sol\":13062:13144  IERC721ReceiverUpgradeable(to).onERC721Received(_msgSender(), from, tokenId, data) */\n      mload(0x40)\n      dup6\n      0xffffffff\n      and\n      0xe0\n      shl\n      dup2\n      mstore\n      0x04\n      add\n      tag_323\n      swap5\n      swap4\n      swap3\n      swap2\n      swap1\n      tag_324\n      jump\t// in\n    tag_323:\n      0x20\n      mload(0x40)\n      dup1\n      dup4\n      sub\n      dup2\n      0x00\n      dup8\n      gas\n      call\n      swap3\n      pop\n      pop\n      pop\n      dup1\n      iszero\n      tag_325\n      jumpi\n      pop\n      mload(0x40)\n      returndatasize\n      not(0x1f)\n      0x1f\n      dup3\n      add\n      and\n      dup3\n      add\n      dup1\n      0x40\n      mstore\n      pop\n      dup2\n      add\n      swap1\n      tag_326\n      swap2\n      swap1\n      tag_327\n      jump\t// in\n    tag_326:\n      0x01\n    tag_325:\n        /* \"@openzeppelin/contracts-upgradeable/token/ERC721/ERC721Upgradeable.sol\":13058:13653  try IERC721ReceiverUpgradeable(to).onERC721Received(_msgSender(), from, tokenId, data) returns (bytes4 retval) {... */\n      tag_328\n      jumpi\n      returndatasize\n      dup1\n      0x00\n      dup2\n      eq\n      tag_333\n      jumpi\n      mload(0x40)\n      swap2\n      pop\n      and(add(returndatasize, 0x3f), not(0x1f))\n      dup3\n      add\n      0x40\n      mstore\n      returndatasize\n      dup3\n      mstore\n      returndatasize\n      0x00\n      0x20\n      dup5\n      add\n      returndatacopy\n      jump(tag_332)\n    tag_333:\n      0x60\n      swap2\n      pop\n    tag_332:\n      pop\n        /* \"@openzeppelin/contracts-upgradeable/token/ERC721/ERC721Upgradeable.sol\":13339:13340  0 */\n      0x00\n        /* \"@openzeppelin/contracts-upgradeable/token/ERC721/ERC721Upgradeable.sol\":13322:13328  reason */\n      dup2\n        /* \"@openzeppelin/contracts-upgradeable/token/ERC721/ERC721Upgradeable.sol\":13322:13335  reason.length */\n      mload\n        /* \"@openzeppelin/contracts-upgradeable/token/ERC721/ERC721Upgradeable.sol\":13322:13340  reason.length == 0 */\n      sub\n        /* \"@openzeppelin/contracts-upgradeable/token/ERC721/ERC721Upgradeable.sol\":13318:13639  if (reason.length == 0) {... */\n      tag_334\n      jumpi\n        /* \"@openzeppelin/contracts-upgradeable/token/ERC721/ERC721Upgradeable.sol\":13364:13424  revert(\"ERC721: transfer to non ERC721Receiver implementer\") */\n      mload(0x40)\n      0x08c379a000000000000000000000000000000000000000000000000000000000\n      dup2\n      mstore\n      0x04\n      add\n      tag_335\n      swap1\n      tag_285\n      jump\t// in\n    tag_335:\n      mload(0x40)\n      dup1\n      swap2\n      sub\n      swap1\n      revert\n        /* \"@openzeppelin/contracts-upgradeable/token/ERC721/ERC721Upgradeable.sol\":13318:13639  if (reason.length == 0) {... */\n    tag_334:\n        /* \"@openzeppelin/contracts-upgradeable/token/ERC721/ERC721Upgradeable.sol\":13591:13597  reason */\n      dup1\n        /* \"@openzeppelin/contracts-upgradeable/token/ERC721/ERC721Upgradeable.sol\":13585:13598  mload(reason) */\n      mload\n        /* \"@openzeppelin/contracts-upgradeable/token/ERC721/ERC721Upgradeable.sol\":13576:13582  reason */\n      dup2\n        /* \"@openzeppelin/contracts-upgradeable/token/ERC721/ERC721Upgradeable.sol\":13572:13574  32 */\n      0x20\n        /* \"@openzeppelin/contracts-upgradeable/token/ERC721/ERC721Upgradeable.sol\":13568:13583  add(32, reason) */\n      add\n        /* \"@openzeppelin/contracts-upgradeable/token/ERC721/ERC721Upgradeable.sol\":13561:13599  revert(add(32, reason), mload(reason)) */\n      revert\n        /* \"@openzeppelin/contracts-upgradeable/token/ERC721/ERC721Upgradeable.sol\":13058:13653  try IERC721ReceiverUpgradeable(to).onERC721Received(_msgSender(), from, tokenId, data) returns (bytes4 retval) {... */\n    tag_328:\n        /* \"@openzeppelin/contracts-upgradeable/token/ERC721/ERC721Upgradeable.sol\":13204:13256  IERC721ReceiverUpgradeable.onERC721Received.selector */\n      shl(0xe0, 0x150b7a02)\n        /* \"@openzeppelin/contracts-upgradeable/token/ERC721/ERC721Upgradeable.sol\":13194:13256  retval == IERC721ReceiverUpgradeable.onERC721Received.selector */\n      not(0xffffffffffffffffffffffffffffffffffffffffffffffffffffffff)\n      and\n        /* \"@openzeppelin/contracts-upgradeable/token/ERC721/ERC721Upgradeable.sol\":13194:13200  retval */\n      dup2\n        /* \"@openzeppelin/contracts-upgradeable/token/ERC721/ERC721Upgradeable.sol\":13194:13256  retval == IERC721ReceiverUpgradeable.onERC721Received.selector */\n      not(0xffffffffffffffffffffffffffffffffffffffffffffffffffffffff)\n      and\n      eq\n        /* \"@openzeppelin/contracts-upgradeable/token/ERC721/ERC721Upgradeable.sol\":13187:13256  return retval == IERC721ReceiverUpgradeable.onERC721Received.selector */\n      swap2\n      pop\n      pop\n      jump(tag_319)\n        /* \"@openzeppelin/contracts-upgradeable/token/ERC721/ERC721Upgradeable.sol\":13023:13705  if (to.isContract()) {... */\n    tag_321:\n        /* \"@openzeppelin/contracts-upgradeable/token/ERC721/ERC721Upgradeable.sol\":13690:13694  true */\n      0x01\n        /* \"@openzeppelin/contracts-upgradeable/token/ERC721/ERC721Upgradeable.sol\":13683:13694  return true */\n      swap1\n      pop\n        /* \"@openzeppelin/contracts-upgradeable/token/ERC721/ERC721Upgradeable.sol\":12858:13711  function _checkOnERC721Received(... */\n    tag_319:\n      swap5\n      swap4\n      pop\n      pop\n      pop\n      pop\n      jump\t// out\n    tag_317:\n      dup3\n      dup1\n      sload\n      tag_339\n      swap1\n      tag_124\n      jump\t// in\n    tag_339:\n      swap1\n      0x00\n      mstore\n      keccak256(0x00, 0x20)\n      swap1\n      0x1f\n      add\n      0x20\n      swap1\n      div\n      dup2\n      add\n      swap3\n      dup3\n      tag_341\n      jumpi\n      0x00\n      dup6\n      sstore\n      jump(tag_340)\n    tag_341:\n      dup3\n      0x1f\n      lt\n      tag_342\n      jumpi\n      dup1\n      mload\n      not(0xff)\n      and\n      dup4\n      dup1\n      add\n      or\n      dup6\n      sstore\n      jump(tag_340)\n    tag_342:\n      dup3\n      dup1\n      add\n      0x01\n      add\n      dup6\n      sstore\n      dup3\n      iszero\n      tag_340\n      jumpi\n      swap2\n      dup3\n      add\n    tag_343:\n      dup3\n      dup2\n      gt\n      iszero\n      tag_344\n      jumpi\n      dup3\n      mload\n      dup3\n      sstore\n      swap2\n      0x20\n      add\n      swap2\n      swap1\n      0x01\n      add\n      swap1\n      jump(tag_343)\n    tag_344:\n    tag_340:\n      pop\n      swap1\n      pop\n      tag_345\n      swap2\n      swap1\n      tag_346\n      jump\t// in\n    tag_345:\n      pop\n      swap1\n      jump\t// out\n    tag_346:\n    tag_347:\n      dup1\n      dup3\n      gt\n      iszero\n      tag_348\n      jumpi\n      0x00\n      dup2\n      0x00\n      swap1\n      sstore\n      pop\n      0x01\n      add\n      jump(tag_347)\n    tag_348:\n      pop\n      swap1\n      jump\t// out\n        /* \"#utility.yul\":7:82   */\n    tag_349:\n        /* \"#utility.yul\":40:46   */\n      0x00\n        /* \"#utility.yul\":73:75   */\n      0x40\n        /* \"#utility.yul\":67:76   */\n      mload\n        /* \"#utility.yul\":57:76   */\n      swap1\n      pop\n        /* \"#utility.yul\":7:82   */\n      swap1\n      jump\t// out\n        /* \"#utility.yul\":88:205   */\n    tag_350:\n        /* \"#utility.yul\":197:198   */\n      0x00\n        /* \"#utility.yul\":194:195   */\n      dup1\n        /* \"#utility.yul\":187:199   */\n      revert\n        /* \"#utility.yul\":211:328   */\n    tag_351:\n        /* \"#utility.yul\":320:321   */\n      0x00\n        /* \"#utility.yul\":317:318   */\n      dup1\n        /* \"#utility.yul\":310:322   */\n      revert\n        /* \"#utility.yul\":334:483   */\n    tag_352:\n        /* \"#utility.yul\":370:377   */\n      0x00\n        /* \"#utility.yul\":410:476   */\n      0xffffffff00000000000000000000000000000000000000000000000000000000\n        /* \"#utility.yul\":403:408   */\n      dup3\n        /* \"#utility.yul\":399:477   */\n      and\n        /* \"#utility.yul\":388:477   */\n      swap1\n      pop\n        /* \"#utility.yul\":334:483   */\n      swap2\n      swap1\n      pop\n      jump\t// out\n        /* \"#utility.yul\":489:609   */\n    tag_353:\n        /* \"#utility.yul\":561:584   */\n      tag_428\n        /* \"#utility.yul\":578:583   */\n      dup2\n        /* \"#utility.yul\":561:584   */\n      tag_352\n      jump\t// in\n    tag_428:\n        /* \"#utility.yul\":554:559   */\n      dup2\n        /* \"#utility.yul\":551:585   */\n      eq\n        /* \"#utility.yul\":541:603   */\n      tag_429\n      jumpi\n        /* \"#utility.yul\":599:600   */\n      0x00\n        /* \"#utility.yul\":596:597   */\n      dup1\n        /* \"#utility.yul\":589:601   */\n      revert\n        /* \"#utility.yul\":541:603   */\n    tag_429:\n        /* \"#utility.yul\":489:609   */\n      pop\n      jump\t// out\n        /* \"#utility.yul\":615:752   */\n    tag_354:\n        /* \"#utility.yul\":660:665   */\n      0x00\n        /* \"#utility.yul\":698:704   */\n      dup2\n        /* \"#utility.yul\":685:705   */\n      calldataload\n        /* \"#utility.yul\":676:705   */\n      swap1\n      pop\n        /* \"#utility.yul\":714:746   */\n      tag_431\n        /* \"#utility.yul\":740:745   */\n      dup2\n        /* \"#utility.yul\":714:746   */\n      tag_353\n      jump\t// in\n    tag_431:\n        /* \"#utility.yul\":615:752   */\n      swap3\n      swap2\n      pop\n      pop\n      jump\t// out\n        /* \"#utility.yul\":758:1085   */\n    tag_27:\n        /* \"#utility.yul\":816:822   */\n      0x00\n        /* \"#utility.yul\":865:867   */\n      0x20\n        /* \"#utility.yul\":853:862   */\n      dup3\n        /* \"#utility.yul\":844:851   */\n      dup5\n        /* \"#utility.yul\":840:863   */\n      sub\n        /* \"#utility.yul\":836:868   */\n      slt\n        /* \"#utility.yul\":833:952   */\n      iszero\n      tag_433\n      jumpi\n        /* \"#utility.yul\":871:950   */\n      tag_434\n      tag_350\n      jump\t// in\n    tag_434:\n        /* \"#utility.yul\":833:952   */\n    tag_433:\n        /* \"#utility.yul\":991:992   */\n      0x00\n        /* \"#utility.yul\":1016:1068   */\n      tag_435\n        /* \"#utility.yul\":1060:1067   */\n      dup5\n        /* \"#utility.yul\":1051:1057   */\n      dup3\n        /* \"#utility.yul\":1040:1049   */\n      dup6\n        /* \"#utility.yul\":1036:1058   */\n      add\n        /* \"#utility.yul\":1016:1068   */\n      tag_354\n      jump\t// in\n    tag_435:\n        /* \"#utility.yul\":1006:1068   */\n      swap2\n      pop\n        /* \"#utility.yul\":962:1078   */\n      pop\n        /* \"#utility.yul\":758:1085   */\n      swap3\n      swap2\n      pop\n      pop\n      jump\t// out\n        /* \"#utility.yul\":1091:1181   */\n    tag_355:\n        /* \"#utility.yul\":1125:1132   */\n      0x00\n        /* \"#utility.yul\":1168:1173   */\n      dup2\n        /* \"#utility.yul\":1161:1174   */\n      iszero\n        /* \"#utility.yul\":1154:1175   */\n      iszero\n        /* \"#utility.yul\":1143:1175   */\n      swap1\n      pop\n        /* \"#utility.yul\":1091:1181   */\n      swap2\n      swap1\n      pop\n      jump\t// out\n        /* \"#utility.yul\":1187:1296   */\n    tag_356:\n        /* \"#utility.yul\":1268:1289   */\n      tag_438\n        /* \"#utility.yul\":1283:1288   */\n      dup2\n        /* \"#utility.yul\":1268:1289   */\n      tag_355\n      jump\t// in\n    tag_438:\n        /* \"#utility.yul\":1263:1266   */\n      dup3\n        /* \"#utility.yul\":1256:1290   */\n      mstore\n        /* \"#utility.yul\":1187:1296   */\n      pop\n      pop\n      jump\t// out\n        /* \"#utility.yul\":1302:1512   */\n    tag_30:\n        /* \"#utility.yul\":1389:1393   */\n      0x00\n        /* \"#utility.yul\":1427:1429   */\n      0x20\n        /* \"#utility.yul\":1416:1425   */\n      dup3\n        /* \"#utility.yul\":1412:1430   */\n      add\n        /* \"#utility.yul\":1404:1430   */\n      swap1\n      pop\n        /* \"#utility.yul\":1440:1505   */\n      tag_440\n        /* \"#utility.yul\":1502:1503   */\n      0x00\n        /* \"#utility.yul\":1491:1500   */\n      dup4\n        /* \"#utility.yul\":1487:1504   */\n      add\n        /* \"#utility.yul\":1478:1484   */\n      dup5\n        /* \"#utility.yul\":1440:1505   */\n      tag_356\n      jump\t// in\n    tag_440:\n        /* \"#utility.yul\":1302:1512   */\n      swap3\n      swap2\n      pop\n      pop\n      jump\t// out\n        /* \"#utility.yul\":1518:1617   */\n    tag_357:\n        /* \"#utility.yul\":1570:1576   */\n      0x00\n        /* \"#utility.yul\":1604:1609   */\n      dup2\n        /* \"#utility.yul\":1598:1610   */\n      mload\n        /* \"#utility.yul\":1588:1610   */\n      swap1\n      pop\n        /* \"#utility.yul\":1518:1617   */\n      swap2\n      swap1\n      pop\n      jump\t// out\n        /* \"#utility.yul\":1623:1792   */\n    tag_358:\n        /* \"#utility.yul\":1707:1718   */\n      0x00\n        /* \"#utility.yul\":1741:1747   */\n      dup3\n        /* \"#utility.yul\":1736:1739   */\n      dup3\n        /* \"#utility.yul\":1729:1748   */\n      mstore\n        /* \"#utility.yul\":1781:1785   */\n      0x20\n        /* \"#utility.yul\":1776:1779   */\n      dup3\n        /* \"#utility.yul\":1772:1786   */\n      add\n        /* \"#utility.yul\":1757:1786   */\n      swap1\n      pop\n        /* \"#utility.yul\":1623:1792   */\n      swap3\n      swap2\n      pop\n      pop\n      jump\t// out\n        /* \"#utility.yul\":1798:2105   */\n    tag_359:\n        /* \"#utility.yul\":1866:1867   */\n      0x00\n        /* \"#utility.yul\":1876:1989   */\n    tag_444:\n        /* \"#utility.yul\":1890:1896   */\n      dup4\n        /* \"#utility.yul\":1887:1888   */\n      dup2\n        /* \"#utility.yul\":1884:1897   */\n      lt\n        /* \"#utility.yul\":1876:1989   */\n      iszero\n      tag_446\n      jumpi\n        /* \"#utility.yul\":1975:1976   */\n      dup1\n        /* \"#utility.yul\":1970:1973   */\n      dup3\n        /* \"#utility.yul\":1966:1977   */\n      add\n        /* \"#utility.yul\":1960:1978   */\n      mload\n        /* \"#utility.yul\":1956:1957   */\n      dup2\n        /* \"#utility.yul\":1951:1954   */\n      dup5\n        /* \"#utility.yul\":1947:1958   */\n      add\n        /* \"#utility.yul\":1940:1979   */\n      mstore\n        /* \"#utility.yul\":1912:1914   */\n      0x20\n        /* \"#utility.yul\":1909:1910   */\n      dup2\n        /* \"#utility.yul\":1905:1915   */\n      add\n        /* \"#utility.yul\":1900:1915   */\n      swap1\n      pop\n        /* \"#utility.yul\":1876:1989   */\n      jump(tag_444)\n    tag_446:\n        /* \"#utility.yul\":2007:2013   */\n      dup4\n        /* \"#utility.yul\":2004:2005   */\n      dup2\n        /* \"#utility.yul\":2001:2014   */\n      gt\n        /* \"#utility.yul\":1998:2099   */\n      iszero\n      tag_447\n      jumpi\n        /* \"#utility.yul\":2087:2088   */\n      0x00\n        /* \"#utility.yul\":2078:2084   */\n      dup5\n        /* \"#utility.yul\":2073:2076   */\n      dup5\n        /* \"#utility.yul\":2069:2085   */\n      add\n        /* \"#utility.yul\":2062:2089   */\n      mstore\n        /* \"#utility.yul\":1998:2099   */\n    tag_447:\n        /* \"#utility.yul\":1847:2105   */\n      pop\n        /* \"#utility.yul\":1798:2105   */\n      pop\n      pop\n      pop\n      jump\t// out\n        /* \"#utility.yul\":2111:2213   */\n    tag_360:\n        /* \"#utility.yul\":2152:2158   */\n      0x00\n        /* \"#utility.yul\":2203:2205   */\n      0x1f\n        /* \"#utility.yul\":2199:2206   */\n      not\n        /* \"#utility.yul\":2194:2196   */\n      0x1f\n        /* \"#utility.yul\":2187:2192   */\n      dup4\n        /* \"#utility.yul\":2183:2197   */\n      add\n        /* \"#utility.yul\":2179:2207   */\n      and\n        /* \"#utility.yul\":2169:2207   */\n      swap1\n      pop\n        /* \"#utility.yul\":2111:2213   */\n      swap2\n      swap1\n      pop\n      jump\t// out\n        /* \"#utility.yul\":2219:2583   */\n    tag_361:\n        /* \"#utility.yul\":2307:2310   */\n      0x00\n        /* \"#utility.yul\":2335:2374   */\n      tag_450\n        /* \"#utility.yul\":2368:2373   */\n      dup3\n        /* \"#utility.yul\":2335:2374   */\n      tag_357\n      jump\t// in\n    tag_450:\n        /* \"#utility.yul\":2390:2461   */\n      tag_451\n        /* \"#utility.yul\":2454:2460   */\n      dup2\n        /* \"#utility.yul\":2449:2452   */\n      dup6\n        /* \"#utility.yul\":2390:2461   */\n      tag_358\n      jump\t// in\n    tag_451:\n        /* \"#utility.yul\":2383:2461   */\n      swap4\n      pop\n        /* \"#utility.yul\":2470:2522   */\n      tag_452\n        /* \"#utility.yul\":2515:2521   */\n      dup2\n        /* \"#utility.yul\":2510:2513   */\n      dup6\n        /* \"#utility.yul\":2503:2507   */\n      0x20\n        /* \"#utility.yul\":2496:2501   */\n      dup7\n        /* \"#utility.yul\":2492:2508   */\n      add\n        /* \"#utility.yul\":2470:2522   */\n      tag_359\n      jump\t// in\n    tag_452:\n        /* \"#utility.yul\":2547:2576   */\n      tag_453\n        /* \"#utility.yul\":2569:2575   */\n      dup2\n        /* \"#utility.yul\":2547:2576   */\n      tag_360\n      jump\t// in\n    tag_453:\n        /* \"#utility.yul\":2542:2545   */\n      dup5\n        /* \"#utility.yul\":2538:2577   */\n      add\n        /* \"#utility.yul\":2531:2577   */\n      swap2\n      pop\n        /* \"#utility.yul\":2311:2583   */\n      pop\n        /* \"#utility.yul\":2219:2583   */\n      swap3\n      swap2\n      pop\n      pop\n      jump\t// out\n        /* \"#utility.yul\":2589:2902   */\n    tag_35:\n        /* \"#utility.yul\":2702:2706   */\n      0x00\n        /* \"#utility.yul\":2740:2742   */\n      0x20\n        /* \"#utility.yul\":2729:2738   */\n      dup3\n        /* \"#utility.yul\":2725:2743   */\n      add\n        /* \"#utility.yul\":2717:2743   */\n      swap1\n      pop\n        /* \"#utility.yul\":2789:2798   */\n      dup2\n        /* \"#utility.yul\":2783:2787   */\n      dup2\n        /* \"#utility.yul\":2779:2799   */\n      sub\n        /* \"#utility.yul\":2775:2776   */\n      0x00\n        /* \"#utility.yul\":2764:2773   */\n      dup4\n        /* \"#utility.yul\":2760:2777   */\n      add\n        /* \"#utility.yul\":2753:2800   */\n      mstore\n        /* \"#utility.yul\":2817:2895   */\n      tag_455\n        /* \"#utility.yul\":2890:2894   */\n      dup2\n        /* \"#utility.yul\":2881:2887   */\n      dup5\n        /* \"#utility.yul\":2817:2895   */\n      tag_361\n      jump\t// in\n    tag_455:\n        /* \"#utility.yul\":2809:2895   */\n      swap1\n      pop\n        /* \"#utility.yul\":2589:2902   */\n      swap3\n      swap2\n      pop\n      pop\n      jump\t// out\n        /* \"#utility.yul\":2908:2985   */\n    tag_362:\n        /* \"#utility.yul\":2945:2952   */\n      0x00\n        /* \"#utility.yul\":2974:2979   */\n      dup2\n        /* \"#utility.yul\":2963:2979   */\n      swap1\n      pop\n        /* \"#utility.yul\":2908:2985   */\n      swap2\n      swap1\n      pop\n      jump\t// out\n        /* \"#utility.yul\":2991:3113   */\n    tag_363:\n        /* \"#utility.yul\":3064:3088   */\n      tag_458\n        /* \"#utility.yul\":3082:3087   */\n      dup2\n        /* \"#utility.yul\":3064:3088   */\n      tag_362\n      jump\t// in\n    tag_458:\n        /* \"#utility.yul\":3057:3062   */\n      dup2\n        /* \"#utility.yul\":3054:3089   */\n      eq\n        /* \"#utility.yul\":3044:3107   */\n      tag_459\n      jumpi\n        /* \"#utility.yul\":3103:3104   */\n      0x00\n        /* \"#utility.yul\":3100:3101   */\n      dup1\n        /* \"#utility.yul\":3093:3105   */\n      revert\n        /* \"#utility.yul\":3044:3107   */\n    tag_459:\n        /* \"#utility.yul\":2991:3113   */\n      pop\n      jump\t// out\n        /* \"#utility.yul\":3119:3258   */\n    tag_364:\n        /* \"#utility.yul\":3165:3170   */\n      0x00\n        /* \"#utility.yul\":3203:3209   */\n      dup2\n        /* \"#utility.yul\":3190:3210   */\n      calldataload\n        /* \"#utility.yul\":3181:3210   */\n      swap1\n      pop\n        /* \"#utility.yul\":3219:3252   */\n      tag_461\n        /* \"#utility.yul\":3246:3251   */\n      dup2\n        /* \"#utility.yul\":3219:3252   */\n      tag_363\n      jump\t// in\n    tag_461:\n        /* \"#utility.yul\":3119:3258   */\n      swap3\n      swap2\n      pop\n      pop\n      jump\t// out\n        /* \"#utility.yul\":3264:3593   */\n    tag_39:\n        /* \"#utility.yul\":3323:3329   */\n      0x00\n        /* \"#utility.yul\":3372:3374   */\n      0x20\n        /* \"#utility.yul\":3360:3369   */\n      dup3\n        /* \"#utility.yul\":3351:3358   */\n      dup5\n        /* \"#utility.yul\":3347:3370   */\n      sub\n        /* \"#utility.yul\":3343:3375   */\n      slt\n        /* \"#utility.yul\":3340:3459   */\n      iszero\n      tag_463\n      jumpi\n        /* \"#utility.yul\":3378:3457   */\n      tag_464\n      tag_350\n      jump\t// in\n    tag_464:\n        /* \"#utility.yul\":3340:3459   */\n    tag_463:\n        /* \"#utility.yul\":3498:3499   */\n      0x00\n        /* \"#utility.yul\":3523:3576   */\n      tag_465\n        /* \"#utility.yul\":3568:3575   */\n      dup5\n        /* \"#utility.yul\":3559:3565   */\n      dup3\n        /* \"#utility.yul\":3548:3557   */\n      dup6\n        /* \"#utility.yul\":3544:3566   */\n      add\n        /* \"#utility.yul\":3523:3576   */\n      tag_364\n      jump\t// in\n    tag_465:\n        /* \"#utility.yul\":3513:3576   */\n      swap2\n      pop\n        /* \"#utility.yul\":3469:3586   */\n      pop\n        /* \"#utility.yul\":3264:3593   */\n      swap3\n      swap2\n      pop\n      pop\n      jump\t// out\n        /* \"#utility.yul\":3599:3725   */\n    tag_365:\n        /* \"#utility.yul\":3636:3643   */\n      0x00\n        /* \"#utility.yul\":3676:3718   */\n      0xffffffffffffffffffffffffffffffffffffffff\n        /* \"#utility.yul\":3669:3674   */\n      dup3\n        /* \"#utility.yul\":3665:3719   */\n      and\n        /* \"#utility.yul\":3654:3719   */\n      swap1\n      pop\n        /* \"#utility.yul\":3599:3725   */\n      swap2\n      swap1\n      pop\n      jump\t// out\n        /* \"#utility.yul\":3731:3827   */\n    tag_366:\n        /* \"#utility.yul\":3768:3775   */\n      0x00\n        /* \"#utility.yul\":3797:3821   */\n      tag_468\n        /* \"#utility.yul\":3815:3820   */\n      dup3\n        /* \"#utility.yul\":3797:3821   */\n      tag_365\n      jump\t// in\n    tag_468:\n        /* \"#utility.yul\":3786:3821   */\n      swap1\n      pop\n        /* \"#utility.yul\":3731:3827   */\n      swap2\n      swap1\n      pop\n      jump\t// out\n        /* \"#utility.yul\":3833:3951   */\n    tag_367:\n        /* \"#utility.yul\":3920:3944   */\n      tag_470\n        /* \"#utility.yul\":3938:3943   */\n      dup2\n        /* \"#utility.yul\":3920:3944   */\n      tag_366\n      jump\t// in\n    tag_470:\n        /* \"#utility.yul\":3915:3918   */\n      dup3\n        /* \"#utility.yul\":3908:3945   */\n      mstore\n        /* \"#utility.yul\":3833:3951   */\n      pop\n      pop\n      jump\t// out\n        /* \"#utility.yul\":3957:4179   */\n    tag_42:\n        /* \"#utility.yul\":4050:4054   */\n      0x00\n        /* \"#utility.yul\":4088:4090   */\n      0x20\n        /* \"#utility.yul\":4077:4086   */\n      dup3\n        /* \"#utility.yul\":4073:4091   */\n      add\n        /* \"#utility.yul\":4065:4091   */\n      swap1\n      pop\n        /* \"#utility.yul\":4101:4172   */\n      tag_472\n        /* \"#utility.yul\":4169:4170   */\n      0x00\n        /* \"#utility.yul\":4158:4167   */\n      dup4\n        /* \"#utility.yul\":4154:4171   */\n      add\n        /* \"#utility.yul\":4145:4151   */\n      dup5\n        /* \"#utility.yul\":4101:4172   */\n      tag_367\n      jump\t// in\n    tag_472:\n        /* \"#utility.yul\":3957:4179   */\n      swap3\n      swap2\n      pop\n      pop\n      jump\t// out\n        /* \"#utility.yul\":4185:4307   */\n    tag_368:\n        /* \"#utility.yul\":4258:4282   */\n      tag_474\n        /* \"#utility.yul\":4276:4281   */\n      dup2\n        /* \"#utility.yul\":4258:4282   */\n      tag_366\n      jump\t// in\n    tag_474:\n        /* \"#utility.yul\":4251:4256   */\n      dup2\n        /* \"#utility.yul\":4248:4283   */\n      eq\n        /* \"#utility.yul\":4238:4301   */\n      tag_475\n      jumpi\n        /* \"#utility.yul\":4297:4298   */\n      0x00\n        /* \"#utility.yul\":4294:4295   */\n      dup1\n        /* \"#utility.yul\":4287:4299   */\n      revert\n        /* \"#utility.yul\":4238:4301   */\n    tag_475:\n        /* \"#utility.yul\":4185:4307   */\n      pop\n      jump\t// out\n        /* \"#utility.yul\":4313:4452   */\n    tag_369:\n        /* \"#utility.yul\":4359:4364   */\n      0x00\n        /* \"#utility.yul\":4397:4403   */\n      dup2\n        /* \"#utility.yul\":4384:4404   */\n      calldataload\n        /* \"#utility.yul\":4375:4404   */\n      swap1\n      pop\n        /* \"#utility.yul\":4413:4446   */\n      tag_477\n        /* \"#utility.yul\":4440:4445   */\n      dup2\n        /* \"#utility.yul\":4413:4446   */\n      tag_368\n      jump\t// in\n    tag_477:\n        /* \"#utility.yul\":4313:4452   */\n      swap3\n      swap2\n      pop\n      pop\n      jump\t// out\n        /* \"#utility.yul\":4458:4932   */\n    tag_46:\n        /* \"#utility.yul\":4526:4532   */\n      0x00\n        /* \"#utility.yul\":4534:4540   */\n      dup1\n        /* \"#utility.yul\":4583:4585   */\n      0x40\n        /* \"#utility.yul\":4571:4580   */\n      dup4\n        /* \"#utility.yul\":4562:4569   */\n      dup6\n        /* \"#utility.yul\":4558:4581   */\n      sub\n        /* \"#utility.yul\":4554:4586   */\n      slt\n        /* \"#utility.yul\":4551:4670   */\n      iszero\n      tag_479\n      jumpi\n        /* \"#utility.yul\":4589:4668   */\n      tag_480\n      tag_350\n      jump\t// in\n    tag_480:\n        /* \"#utility.yul\":4551:4670   */\n    tag_479:\n        /* \"#utility.yul\":4709:4710   */\n      0x00\n        /* \"#utility.yul\":4734:4787   */\n      tag_481\n        /* \"#utility.yul\":4779:4786   */\n      dup6\n        /* \"#utility.yul\":4770:4776   */\n      dup3\n        /* \"#utility.yul\":4759:4768   */\n      dup7\n        /* \"#utility.yul\":4755:4777   */\n      add\n        /* \"#utility.yul\":4734:4787   */\n      tag_369\n      jump\t// in\n    tag_481:\n        /* \"#utility.yul\":4724:4787   */\n      swap3\n      pop\n        /* \"#utility.yul\":4680:4797   */\n      pop\n        /* \"#utility.yul\":4836:4838   */\n      0x20\n        /* \"#utility.yul\":4862:4915   */\n      tag_482\n        /* \"#utility.yul\":4907:4914   */\n      dup6\n        /* \"#utility.yul\":4898:4904   */\n      dup3\n        /* \"#utility.yul\":4887:4896   */\n      dup7\n        /* \"#utility.yul\":4883:4905   */\n      add\n        /* \"#utility.yul\":4862:4915   */\n      tag_364\n      jump\t// in\n    tag_482:\n        /* \"#utility.yul\":4852:4915   */\n      swap2\n      pop\n        /* \"#utility.yul\":4807:4925   */\n      pop\n        /* \"#utility.yul\":4458:4932   */\n      swap3\n      pop\n      swap3\n      swap1\n      pop\n      jump\t// out\n        /* \"#utility.yul\":4938:5557   */\n    tag_51:\n        /* \"#utility.yul\":5015:5021   */\n      0x00\n        /* \"#utility.yul\":5023:5029   */\n      dup1\n        /* \"#utility.yul\":5031:5037   */\n      0x00\n        /* \"#utility.yul\":5080:5082   */\n      0x60\n        /* \"#utility.yul\":5068:5077   */\n      dup5\n        /* \"#utility.yul\":5059:5066   */\n      dup7\n        /* \"#utility.yul\":5055:5078   */\n      sub\n        /* \"#utility.yul\":5051:5083   */\n      slt\n        /* \"#utility.yul\":5048:5167   */\n      iszero\n      tag_484\n      jumpi\n        /* \"#utility.yul\":5086:5165   */\n      tag_485\n      tag_350\n      jump\t// in\n    tag_485:\n        /* \"#utility.yul\":5048:5167   */\n    tag_484:\n        /* \"#utility.yul\":5206:5207   */\n      0x00\n        /* \"#utility.yul\":5231:5284   */\n      tag_486\n        /* \"#utility.yul\":5276:5283   */\n      dup7\n        /* \"#utility.yul\":5267:5273   */\n      dup3\n        /* \"#utility.yul\":5256:5265   */\n      dup8\n        /* \"#utility.yul\":5252:5274   */\n      add\n        /* \"#utility.yul\":5231:5284   */\n      tag_369\n      jump\t// in\n    tag_486:\n        /* \"#utility.yul\":5221:5284   */\n      swap4\n      pop\n        /* \"#utility.yul\":5177:5294   */\n      pop\n        /* \"#utility.yul\":5333:5335   */\n      0x20\n        /* \"#utility.yul\":5359:5412   */\n      tag_487\n        /* \"#utility.yul\":5404:5411   */\n      dup7\n        /* \"#utility.yul\":5395:5401   */\n      dup3\n        /* \"#utility.yul\":5384:5393   */\n      dup8\n        /* \"#utility.yul\":5380:5402   */\n      add\n        /* \"#utility.yul\":5359:5412   */\n      tag_369\n      jump\t// in\n    tag_487:\n        /* \"#utility.yul\":5349:5412   */\n      swap3\n      pop\n        /* \"#utility.yul\":5304:5422   */\n      pop\n        /* \"#utility.yul\":5461:5463   */\n      0x40\n        /* \"#utility.yul\":5487:5540   */\n      tag_488\n        /* \"#utility.yul\":5532:5539   */\n      dup7\n        /* \"#utility.yul\":5523:5529   */\n      dup3\n        /* \"#utility.yul\":5512:5521   */\n      dup8\n        /* \"#utility.yul\":5508:5530   */\n      add\n        /* \"#utility.yul\":5487:5540   */\n      tag_364\n      jump\t// in\n    tag_488:\n        /* \"#utility.yul\":5477:5540   */\n      swap2\n      pop\n        /* \"#utility.yul\":5432:5550   */\n      pop\n        /* \"#utility.yul\":4938:5557   */\n      swap3\n      pop\n      swap3\n      pop\n      swap3\n      jump\t// out\n        /* \"#utility.yul\":5563:5649   */\n    tag_370:\n        /* \"#utility.yul\":5598:5605   */\n      0x00\n        /* \"#utility.yul\":5638:5642   */\n      0xff\n        /* \"#utility.yul\":5631:5636   */\n      dup3\n        /* \"#utility.yul\":5627:5643   */\n      and\n        /* \"#utility.yul\":5616:5643   */\n      swap1\n      pop\n        /* \"#utility.yul\":5563:5649   */\n      swap2\n      swap1\n      pop\n      jump\t// out\n        /* \"#utility.yul\":5655:5767   */\n    tag_371:\n        /* \"#utility.yul\":5738:5760   */\n      tag_491\n        /* \"#utility.yul\":5754:5759   */\n      dup2\n        /* \"#utility.yul\":5738:5760   */\n      tag_370\n      jump\t// in\n    tag_491:\n        /* \"#utility.yul\":5733:5736   */\n      dup3\n        /* \"#utility.yul\":5726:5761   */\n      mstore\n        /* \"#utility.yul\":5655:5767   */\n      pop\n      pop\n      jump\t// out\n        /* \"#utility.yul\":5773:5987   */\n    tag_57:\n        /* \"#utility.yul\":5862:5866   */\n      0x00\n        /* \"#utility.yul\":5900:5902   */\n      0x20\n        /* \"#utility.yul\":5889:5898   */\n      dup3\n        /* \"#utility.yul\":5885:5903   */\n      add\n        /* \"#utility.yul\":5877:5903   */\n      swap1\n      pop\n        /* \"#utility.yul\":5913:5980   */\n      tag_493\n        /* \"#utility.yul\":5977:5978   */\n      0x00\n        /* \"#utility.yul\":5966:5975   */\n      dup4\n        /* \"#utility.yul\":5962:5979   */\n      add\n        /* \"#utility.yul\":5953:5959   */\n      dup5\n        /* \"#utility.yul\":5913:5980   */\n      tag_371\n      jump\t// in\n    tag_493:\n        /* \"#utility.yul\":5773:5987   */\n      swap3\n      swap2\n      pop\n      pop\n      jump\t// out\n        /* \"#utility.yul\":5993:6322   */\n    tag_73:\n        /* \"#utility.yul\":6052:6058   */\n      0x00\n        /* \"#utility.yul\":6101:6103   */\n      0x20\n        /* \"#utility.yul\":6089:6098   */\n      dup3\n        /* \"#utility.yul\":6080:6087   */\n      dup5\n        /* \"#utility.yul\":6076:6099   */\n      sub\n        /* \"#utility.yul\":6072:6104   */\n      slt\n        /* \"#utility.yul\":6069:6188   */\n      iszero\n      tag_495\n      jumpi\n        /* \"#utility.yul\":6107:6186   */\n      tag_496\n      tag_350\n      jump\t// in\n    tag_496:\n        /* \"#utility.yul\":6069:6188   */\n    tag_495:\n        /* \"#utility.yul\":6227:6228   */\n      0x00\n        /* \"#utility.yul\":6252:6305   */\n      tag_497\n        /* \"#utility.yul\":6297:6304   */\n      dup5\n        /* \"#utility.yul\":6288:6294   */\n      dup3\n        /* \"#utility.yul\":6277:6286   */\n      dup6\n        /* \"#utility.yul\":6273:6295   */\n      add\n        /* \"#utility.yul\":6252:6305   */\n      tag_369\n      jump\t// in\n    tag_497:\n        /* \"#utility.yul\":6242:6305   */\n      swap2\n      pop\n        /* \"#utility.yul\":6198:6315   */\n      pop\n        /* \"#utility.yul\":5993:6322   */\n      swap3\n      swap2\n      pop\n      pop\n      jump\t// out\n        /* \"#utility.yul\":6328:6446   */\n    tag_372:\n        /* \"#utility.yul\":6415:6439   */\n      tag_499\n        /* \"#utility.yul\":6433:6438   */\n      dup2\n        /* \"#utility.yul\":6415:6439   */\n      tag_362\n      jump\t// in\n    tag_499:\n        /* \"#utility.yul\":6410:6413   */\n      dup3\n        /* \"#utility.yul\":6403:6440   */\n      mstore\n        /* \"#utility.yul\":6328:6446   */\n      pop\n      pop\n      jump\t// out\n        /* \"#utility.yul\":6452:6674   */\n    tag_76:\n        /* \"#utility.yul\":6545:6549   */\n      0x00\n        /* \"#utility.yul\":6583:6585   */\n      0x20\n        /* \"#utility.yul\":6572:6581   */\n      dup3\n        /* \"#utility.yul\":6568:6586   */\n      add\n        /* \"#utility.yul\":6560:6586   */\n      swap1\n      pop\n        /* \"#utility.yul\":6596:6667   */\n      tag_501\n        /* \"#utility.yul\":6664:6665   */\n      0x00\n        /* \"#utility.yul\":6653:6662   */\n      dup4\n        /* \"#utility.yul\":6649:6666   */\n      add\n        /* \"#utility.yul\":6640:6646   */\n      dup5\n        /* \"#utility.yul\":6596:6667   */\n      tag_372\n      jump\t// in\n    tag_501:\n        /* \"#utility.yul\":6452:6674   */\n      swap3\n      swap2\n      pop\n      pop\n      jump\t// out\n        /* \"#utility.yul\":6680:6796   */\n    tag_373:\n        /* \"#utility.yul\":6750:6771   */\n      tag_503\n        /* \"#utility.yul\":6765:6770   */\n      dup2\n        /* \"#utility.yul\":6750:6771   */\n      tag_355\n      jump\t// in\n    tag_503:\n        /* \"#utility.yul\":6743:6748   */\n      dup2\n        /* \"#utility.yul\":6740:6772   */\n      eq\n        /* \"#utility.yul\":6730:6790   */\n      tag_504\n      jumpi\n        /* \"#utility.yul\":6786:6787   */\n      0x00\n        /* \"#utility.yul\":6783:6784   */\n      dup1\n        /* \"#utility.yul\":6776:6788   */\n      revert\n        /* \"#utility.yul\":6730:6790   */\n    tag_504:\n        /* \"#utility.yul\":6680:6796   */\n      pop\n      jump\t// out\n        /* \"#utility.yul\":6802:6935   */\n    tag_374:\n        /* \"#utility.yul\":6845:6850   */\n      0x00\n        /* \"#utility.yul\":6883:6889   */\n      dup2\n        /* \"#utility.yul\":6870:6890   */\n      calldataload\n        /* \"#utility.yul\":6861:6890   */\n      swap1\n      pop\n        /* \"#utility.yul\":6899:6929   */\n      tag_506\n        /* \"#utility.yul\":6923:6928   */\n      dup2\n        /* \"#utility.yul\":6899:6929   */\n      tag_373\n      jump\t// in\n    tag_506:\n        /* \"#utility.yul\":6802:6935   */\n      swap3\n      swap2\n      pop\n      pop\n      jump\t// out\n        /* \"#utility.yul\":6941:7409   */\n    tag_91:\n        /* \"#utility.yul\":7006:7012   */\n      0x00\n        /* \"#utility.yul\":7014:7020   */\n      dup1\n        /* \"#utility.yul\":7063:7065   */\n      0x40\n        /* \"#utility.yul\":7051:7060   */\n      dup4\n        /* \"#utility.yul\":7042:7049   */\n      dup6\n        /* \"#utility.yul\":7038:7061   */\n      sub\n        /* \"#utility.yul\":7034:7066   */\n      slt\n        /* \"#utility.yul\":7031:7150   */\n      iszero\n      tag_508\n      jumpi\n        /* \"#utility.yul\":7069:7148   */\n      tag_509\n      tag_350\n      jump\t// in\n    tag_509:\n        /* \"#utility.yul\":7031:7150   */\n    tag_508:\n        /* \"#utility.yul\":7189:7190   */\n      0x00\n        /* \"#utility.yul\":7214:7267   */\n      tag_510\n        /* \"#utility.yul\":7259:7266   */\n      dup6\n        /* \"#utility.yul\":7250:7256   */\n      dup3\n        /* \"#utility.yul\":7239:7248   */\n      dup7\n        /* \"#utility.yul\":7235:7257   */\n      add\n        /* \"#utility.yul\":7214:7267   */\n      tag_369\n      jump\t// in\n    tag_510:\n        /* \"#utility.yul\":7204:7267   */\n      swap3\n      pop\n        /* \"#utility.yul\":7160:7277   */\n      pop\n        /* \"#utility.yul\":7316:7318   */\n      0x20\n        /* \"#utility.yul\":7342:7392   */\n      tag_511\n        /* \"#utility.yul\":7384:7391   */\n      dup6\n        /* \"#utility.yul\":7375:7381   */\n      dup3\n        /* \"#utility.yul\":7364:7373   */\n      dup7\n        /* \"#utility.yul\":7360:7382   */\n      add\n        /* \"#utility.yul\":7342:7392   */\n      tag_374\n      jump\t// in\n    tag_511:\n        /* \"#utility.yul\":7332:7392   */\n      swap2\n      pop\n        /* \"#utility.yul\":7287:7402   */\n      pop\n        /* \"#utility.yul\":6941:7409   */\n      swap3\n      pop\n      swap3\n      swap1\n      pop\n      jump\t// out\n        /* \"#utility.yul\":7415:7532   */\n    tag_375:\n        /* \"#utility.yul\":7524:7525   */\n      0x00\n        /* \"#utility.yul\":7521:7522   */\n      dup1\n        /* \"#utility.yul\":7514:7526   */\n      revert\n        /* \"#utility.yul\":7538:7655   */\n    tag_376:\n        /* \"#utility.yul\":7647:7648   */\n      0x00\n        /* \"#utility.yul\":7644:7645   */\n      dup1\n        /* \"#utility.yul\":7637:7649   */\n      revert\n        /* \"#utility.yul\":7661:7841   */\n    tag_297:\n        /* \"#utility.yul\":7709:7786   */\n      0x4e487b7100000000000000000000000000000000000000000000000000000000\n        /* \"#utility.yul\":7706:7707   */\n      0x00\n        /* \"#utility.yul\":7699:7787   */\n      mstore\n        /* \"#utility.yul\":7806:7810   */\n      0x41\n        /* \"#utility.yul\":7803:7804   */\n      0x04\n        /* \"#utility.yul\":7796:7811   */\n      mstore\n        /* \"#utility.yul\":7830:7834   */\n      0x24\n        /* \"#utility.yul\":7827:7828   */\n      0x00\n        /* \"#utility.yul\":7820:7835   */\n      revert\n        /* \"#utility.yul\":7847:8128   */\n    tag_377:\n        /* \"#utility.yul\":7930:7957   */\n      tag_516\n        /* \"#utility.yul\":7952:7956   */\n      dup3\n        /* \"#utility.yul\":7930:7957   */\n      tag_360\n      jump\t// in\n    tag_516:\n        /* \"#utility.yul\":7922:7928   */\n      dup2\n        /* \"#utility.yul\":7918:7958   */\n      add\n        /* \"#utility.yul\":8060:8066   */\n      dup2\n        /* \"#utility.yul\":8048:8058   */\n      dup2\n        /* \"#utility.yul\":8045:8067   */\n      lt\n        /* \"#utility.yul\":8024:8042   */\n      0xffffffffffffffff\n        /* \"#utility.yul\":8012:8022   */\n      dup3\n        /* \"#utility.yul\":8009:8043   */\n      gt\n        /* \"#utility.yul\":8006:8068   */\n      or\n        /* \"#utility.yul\":8003:8091   */\n      iszero\n      tag_517\n      jumpi\n        /* \"#utility.yul\":8071:8089   */\n      tag_518\n      tag_297\n      jump\t// in\n    tag_518:\n        /* \"#utility.yul\":8003:8091   */\n    tag_517:\n        /* \"#utility.yul\":8111:8121   */\n      dup1\n        /* \"#utility.yul\":8107:8109   */\n      0x40\n        /* \"#utility.yul\":8100:8122   */\n      mstore\n        /* \"#utility.yul\":7890:8128   */\n      pop\n        /* \"#utility.yul\":7847:8128   */\n      pop\n      pop\n      jump\t// out\n        /* \"#utility.yul\":8134:8263   */\n    tag_378:\n        /* \"#utility.yul\":8168:8174   */\n      0x00\n        /* \"#utility.yul\":8195:8215   */\n      tag_520\n      tag_349\n      jump\t// in\n    tag_520:\n        /* \"#utility.yul\":8185:8215   */\n      swap1\n      pop\n        /* \"#utility.yul\":8224:8257   */\n      tag_521\n        /* \"#utility.yul\":8252:8256   */\n      dup3\n        /* \"#utility.yul\":8244:8250   */\n      dup3\n        /* \"#utility.yul\":8224:8257   */\n      tag_377\n      jump\t// in\n    tag_521:\n        /* \"#utility.yul\":8134:8263   */\n      swap2\n      swap1\n      pop\n      jump\t// out\n        /* \"#utility.yul\":8269:8576   */\n    tag_379:\n        /* \"#utility.yul\":8330:8334   */\n      0x00\n        /* \"#utility.yul\":8420:8438   */\n      0xffffffffffffffff\n        /* \"#utility.yul\":8412:8418   */\n      dup3\n        /* \"#utility.yul\":8409:8439   */\n      gt\n        /* \"#utility.yul\":8406:8462   */\n      iszero\n      tag_523\n      jumpi\n        /* \"#utility.yul\":8442:8460   */\n      tag_524\n      tag_297\n      jump\t// in\n    tag_524:\n        /* \"#utility.yul\":8406:8462   */\n    tag_523:\n        /* \"#utility.yul\":8480:8509   */\n      tag_525\n        /* \"#utility.yul\":8502:8508   */\n      dup3\n        /* \"#utility.yul\":8480:8509   */\n      tag_360\n      jump\t// in\n    tag_525:\n        /* \"#utility.yul\":8472:8509   */\n      swap1\n      pop\n        /* \"#utility.yul\":8564:8568   */\n      0x20\n        /* \"#utility.yul\":8558:8562   */\n      dup2\n        /* \"#utility.yul\":8554:8569   */\n      add\n        /* \"#utility.yul\":8546:8569   */\n      swap1\n      pop\n        /* \"#utility.yul\":8269:8576   */\n      swap2\n      swap1\n      pop\n      jump\t// out\n        /* \"#utility.yul\":8582:8736   */\n    tag_380:\n        /* \"#utility.yul\":8666:8672   */\n      dup3\n        /* \"#utility.yul\":8661:8664   */\n      dup2\n        /* \"#utility.yul\":8656:8659   */\n      dup4\n        /* \"#utility.yul\":8643:8673   */\n      calldatacopy\n        /* \"#utility.yul\":8728:8729   */\n      0x00\n        /* \"#utility.yul\":8719:8725   */\n      dup4\n        /* \"#utility.yul\":8714:8717   */\n      dup4\n        /* \"#utility.yul\":8710:8726   */\n      add\n        /* \"#utility.yul\":8703:8730   */\n      mstore\n        /* \"#utility.yul\":8582:8736   */\n      pop\n      pop\n      pop\n      jump\t// out\n        /* \"#utility.yul\":8742:9152   */\n    tag_381:\n        /* \"#utility.yul\":8819:8824   */\n      0x00\n        /* \"#utility.yul\":8844:8909   */\n      tag_528\n        /* \"#utility.yul\":8860:8908   */\n      tag_529\n        /* \"#utility.yul\":8901:8907   */\n      dup5\n        /* \"#utility.yul\":8860:8908   */\n      tag_379\n      jump\t// in\n    tag_529:\n        /* \"#utility.yul\":8844:8909   */\n      tag_378\n      jump\t// in\n    tag_528:\n        /* \"#utility.yul\":8835:8909   */\n      swap1\n      pop\n        /* \"#utility.yul\":8932:8938   */\n      dup3\n        /* \"#utility.yul\":8925:8930   */\n      dup2\n        /* \"#utility.yul\":8918:8939   */\n      mstore\n        /* \"#utility.yul\":8970:8974   */\n      0x20\n        /* \"#utility.yul\":8963:8968   */\n      dup2\n        /* \"#utility.yul\":8959:8975   */\n      add\n        /* \"#utility.yul\":9008:9011   */\n      dup5\n        /* \"#utility.yul\":8999:9005   */\n      dup5\n        /* \"#utility.yul\":8994:8997   */\n      dup5\n        /* \"#utility.yul\":8990:9006   */\n      add\n        /* \"#utility.yul\":8987:9012   */\n      gt\n        /* \"#utility.yul\":8984:9096   */\n      iszero\n      tag_530\n      jumpi\n        /* \"#utility.yul\":9015:9094   */\n      tag_531\n      tag_376\n      jump\t// in\n    tag_531:\n        /* \"#utility.yul\":8984:9096   */\n    tag_530:\n        /* \"#utility.yul\":9105:9146   */\n      tag_532\n        /* \"#utility.yul\":9139:9145   */\n      dup5\n        /* \"#utility.yul\":9134:9137   */\n      dup3\n        /* \"#utility.yul\":9129:9132   */\n      dup6\n        /* \"#utility.yul\":9105:9146   */\n      tag_380\n      jump\t// in\n    tag_532:\n        /* \"#utility.yul\":8825:9152   */\n      pop\n        /* \"#utility.yul\":8742:9152   */\n      swap4\n      swap3\n      pop\n      pop\n      pop\n      jump\t// out\n        /* \"#utility.yul\":9171:9509   */\n    tag_382:\n        /* \"#utility.yul\":9226:9231   */\n      0x00\n        /* \"#utility.yul\":9275:9278   */\n      dup3\n        /* \"#utility.yul\":9268:9272   */\n      0x1f\n        /* \"#utility.yul\":9260:9266   */\n      dup4\n        /* \"#utility.yul\":9256:9273   */\n      add\n        /* \"#utility.yul\":9252:9279   */\n      slt\n        /* \"#utility.yul\":9242:9364   */\n      tag_534\n      jumpi\n        /* \"#utility.yul\":9283:9362   */\n      tag_535\n      tag_375\n      jump\t// in\n    tag_535:\n        /* \"#utility.yul\":9242:9364   */\n    tag_534:\n        /* \"#utility.yul\":9400:9406   */\n      dup2\n        /* \"#utility.yul\":9387:9407   */\n      calldataload\n        /* \"#utility.yul\":9425:9503   */\n      tag_536\n        /* \"#utility.yul\":9499:9502   */\n      dup5\n        /* \"#utility.yul\":9491:9497   */\n      dup3\n        /* \"#utility.yul\":9484:9488   */\n      0x20\n        /* \"#utility.yul\":9476:9482   */\n      dup7\n        /* \"#utility.yul\":9472:9489   */\n      add\n        /* \"#utility.yul\":9425:9503   */\n      tag_381\n      jump\t// in\n    tag_536:\n        /* \"#utility.yul\":9416:9503   */\n      swap2\n      pop\n        /* \"#utility.yul\":9232:9509   */\n      pop\n        /* \"#utility.yul\":9171:9509   */\n      swap3\n      swap2\n      pop\n      pop\n      jump\t// out\n        /* \"#utility.yul\":9515:10458   */\n    tag_96:\n        /* \"#utility.yul\":9610:9616   */\n      0x00\n        /* \"#utility.yul\":9618:9624   */\n      dup1\n        /* \"#utility.yul\":9626:9632   */\n      0x00\n        /* \"#utility.yul\":9634:9640   */\n      dup1\n        /* \"#utility.yul\":9683:9686   */\n      0x80\n        /* \"#utility.yul\":9671:9680   */\n      dup6\n        /* \"#utility.yul\":9662:9669   */\n      dup8\n        /* \"#utility.yul\":9658:9681   */\n      sub\n        /* \"#utility.yul\":9654:9687   */\n      slt\n        /* \"#utility.yul\":9651:9771   */\n      iszero\n      tag_538\n      jumpi\n        /* \"#utility.yul\":9690:9769   */\n      tag_539\n      tag_350\n      jump\t// in\n    tag_539:\n        /* \"#utility.yul\":9651:9771   */\n    tag_538:\n        /* \"#utility.yul\":9810:9811   */\n      0x00\n        /* \"#utility.yul\":9835:9888   */\n      tag_540\n        /* \"#utility.yul\":9880:9887   */\n      dup8\n        /* \"#utility.yul\":9871:9877   */\n      dup3\n        /* \"#utility.yul\":9860:9869   */\n      dup9\n        /* \"#utility.yul\":9856:9878   */\n      add\n        /* \"#utility.yul\":9835:9888   */\n      tag_369\n      jump\t// in\n    tag_540:\n        /* \"#utility.yul\":9825:9888   */\n      swap5\n      pop\n        /* \"#utility.yul\":9781:9898   */\n      pop\n        /* \"#utility.yul\":9937:9939   */\n      0x20\n        /* \"#utility.yul\":9963:10016   */\n      tag_541\n        /* \"#utility.yul\":10008:10015   */\n      dup8\n        /* \"#utility.yul\":9999:10005   */\n      dup3\n        /* \"#utility.yul\":9988:9997   */\n      dup9\n        /* \"#utility.yul\":9984:10006   */\n      add\n        /* \"#utility.yul\":9963:10016   */\n      tag_369\n      jump\t// in\n    tag_541:\n        /* \"#utility.yul\":9953:10016   */\n      swap4\n      pop\n        /* \"#utility.yul\":9908:10026   */\n      pop\n        /* \"#utility.yul\":10065:10067   */\n      0x40\n        /* \"#utility.yul\":10091:10144   */\n      tag_542\n        /* \"#utility.yul\":10136:10143   */\n      dup8\n        /* \"#utility.yul\":10127:10133   */\n      dup3\n        /* \"#utility.yul\":10116:10125   */\n      dup9\n        /* \"#utility.yul\":10112:10134   */\n      add\n        /* \"#utility.yul\":10091:10144   */\n      tag_364\n      jump\t// in\n    tag_542:\n        /* \"#utility.yul\":10081:10144   */\n      swap3\n      pop\n        /* \"#utility.yul\":10036:10154   */\n      pop\n        /* \"#utility.yul\":10221:10223   */\n      0x60\n        /* \"#utility.yul\":10210:10219   */\n      dup6\n        /* \"#utility.yul\":10206:10224   */\n      add\n        /* \"#utility.yul\":10193:10225   */\n      calldataload\n        /* \"#utility.yul\":10252:10270   */\n      0xffffffffffffffff\n        /* \"#utility.yul\":10244:10250   */\n      dup2\n        /* \"#utility.yul\":10241:10271   */\n      gt\n        /* \"#utility.yul\":10238:10355   */\n      iszero\n      tag_543\n      jumpi\n        /* \"#utility.yul\":10274:10353   */\n      tag_544\n      tag_351\n      jump\t// in\n    tag_544:\n        /* \"#utility.yul\":10238:10355   */\n    tag_543:\n        /* \"#utility.yul\":10379:10441   */\n      tag_545\n        /* \"#utility.yul\":10433:10440   */\n      dup8\n        /* \"#utility.yul\":10424:10430   */\n      dup3\n        /* \"#utility.yul\":10413:10422   */\n      dup9\n        /* \"#utility.yul\":10409:10431   */\n      add\n        /* \"#utility.yul\":10379:10441   */\n      tag_382\n      jump\t// in\n    tag_545:\n        /* \"#utility.yul\":10369:10441   */\n      swap2\n      pop\n        /* \"#utility.yul\":10164:10451   */\n      pop\n        /* \"#utility.yul\":9515:10458   */\n      swap3\n      swap6\n      swap2\n      swap5\n      pop\n      swap3\n      pop\n      jump\t// out\n        /* \"#utility.yul\":10464:10938   */\n    tag_114:\n        /* \"#utility.yul\":10532:10538   */\n      0x00\n        /* \"#utility.yul\":10540:10546   */\n      dup1\n        /* \"#utility.yul\":10589:10591   */\n      0x40\n        /* \"#utility.yul\":10577:10586   */\n      dup4\n        /* \"#utility.yul\":10568:10575   */\n      dup6\n        /* \"#utility.yul\":10564:10587   */\n      sub\n        /* \"#utility.yul\":10560:10592   */\n      slt\n        /* \"#utility.yul\":10557:10676   */\n      iszero\n      tag_547\n      jumpi\n        /* \"#utility.yul\":10595:10674   */\n      tag_548\n      tag_350\n      jump\t// in\n    tag_548:\n        /* \"#utility.yul\":10557:10676   */\n    tag_547:\n        /* \"#utility.yul\":10715:10716   */\n      0x00\n        /* \"#utility.yul\":10740:10793   */\n      tag_549\n        /* \"#utility.yul\":10785:10792   */\n      dup6\n        /* \"#utility.yul\":10776:10782   */\n      dup3\n        /* \"#utility.yul\":10765:10774   */\n      dup7\n        /* \"#utility.yul\":10761:10783   */\n      add\n        /* \"#utility.yul\":10740:10793   */\n      tag_369\n      jump\t// in\n    tag_549:\n        /* \"#utility.yul\":10730:10793   */\n      swap3\n      pop\n        /* \"#utility.yul\":10686:10803   */\n      pop\n        /* \"#utility.yul\":10842:10844   */\n      0x20\n        /* \"#utility.yul\":10868:10921   */\n      tag_550\n        /* \"#utility.yul\":10913:10920   */\n      dup6\n        /* \"#utility.yul\":10904:10910   */\n      dup3\n        /* \"#utility.yul\":10893:10902   */\n      dup7\n        /* \"#utility.yul\":10889:10911   */\n      add\n        /* \"#utility.yul\":10868:10921   */\n      tag_369\n      jump\t// in\n    tag_550:\n        /* \"#utility.yul\":10858:10921   */\n      swap2\n      pop\n        /* \"#utility.yul\":10813:10931   */\n      pop\n        /* \"#utility.yul\":10464:10938   */\n      swap3\n      pop\n      swap3\n      swap1\n      pop\n      jump\t// out\n        /* \"#utility.yul\":10944:11124   */\n    tag_383:\n        /* \"#utility.yul\":10992:11069   */\n      0x4e487b7100000000000000000000000000000000000000000000000000000000\n        /* \"#utility.yul\":10989:10990   */\n      0x00\n        /* \"#utility.yul\":10982:11070   */\n      mstore\n        /* \"#utility.yul\":11089:11093   */\n      0x22\n        /* \"#utility.yul\":11086:11087   */\n      0x04\n        /* \"#utility.yul\":11079:11094   */\n      mstore\n        /* \"#utility.yul\":11113:11117   */\n      0x24\n        /* \"#utility.yul\":11110:11111   */\n      0x00\n        /* \"#utility.yul\":11103:11118   */\n      revert\n        /* \"#utility.yul\":11130:11450   */\n    tag_124:\n        /* \"#utility.yul\":11174:11180   */\n      0x00\n        /* \"#utility.yul\":11211:11212   */\n      0x02\n        /* \"#utility.yul\":11205:11209   */\n      dup3\n        /* \"#utility.yul\":11201:11213   */\n      div\n        /* \"#utility.yul\":11191:11213   */\n      swap1\n      pop\n        /* \"#utility.yul\":11258:11259   */\n      0x01\n        /* \"#utility.yul\":11252:11256   */\n      dup3\n        /* \"#utility.yul\":11248:11260   */\n      and\n        /* \"#utility.yul\":11279:11297   */\n      dup1\n        /* \"#utility.yul\":11269:11350   */\n      tag_553\n      jumpi\n        /* \"#utility.yul\":11335:11339   */\n      0x7f\n        /* \"#utility.yul\":11327:11333   */\n      dup3\n        /* \"#utility.yul\":11323:11340   */\n      and\n        /* \"#utility.yul\":11313:11340   */\n      swap2\n      pop\n        /* \"#utility.yul\":11269:11350   */\n    tag_553:\n        /* \"#utility.yul\":11397:11399   */\n      0x20\n        /* \"#utility.yul\":11389:11395   */\n      dup3\n        /* \"#utility.yul\":11386:11400   */\n      lt\n        /* \"#utility.yul\":11366:11384   */\n      dup2\n        /* \"#utility.yul\":11363:11401   */\n      sub\n        /* \"#utility.yul\":11360:11444   */\n      tag_554\n      jumpi\n        /* \"#utility.yul\":11416:11434   */\n      tag_555\n      tag_383\n      jump\t// in\n    tag_555:\n        /* \"#utility.yul\":11360:11444   */\n    tag_554:\n        /* \"#utility.yul\":11181:11450   */\n      pop\n        /* \"#utility.yul\":11130:11450   */\n      swap2\n      swap1\n      pop\n      jump\t// out\n        /* \"#utility.yul\":11456:11676   */\n    tag_384:\n        /* \"#utility.yul\":11596:11630   */\n      0x4552433732313a20617070726f76616c20746f2063757272656e74206f776e65\n        /* \"#utility.yul\":11592:11593   */\n      0x00\n        /* \"#utility.yul\":11584:11590   */\n      dup3\n        /* \"#utility.yul\":11580:11594   */\n      add\n        /* \"#utility.yul\":11573:11631   */\n      mstore\n        /* \"#utility.yul\":11665:11668   */\n      0x7200000000000000000000000000000000000000000000000000000000000000\n        /* \"#utility.yul\":11660:11662   */\n      0x20\n        /* \"#utility.yul\":11652:11658   */\n      dup3\n        /* \"#utility.yul\":11648:11663   */\n      add\n        /* \"#utility.yul\":11641:11669   */\n      mstore\n        /* \"#utility.yul\":11456:11676   */\n      pop\n      jump\t// out\n        /* \"#utility.yul\":11682:12048   */\n    tag_385:\n        /* \"#utility.yul\":11824:11827   */\n      0x00\n        /* \"#utility.yul\":11845:11912   */\n      tag_558\n        /* \"#utility.yul\":11909:11911   */\n      0x21\n        /* \"#utility.yul\":11904:11907   */\n      dup4\n        /* \"#utility.yul\":11845:11912   */\n      tag_358\n      jump\t// in\n    tag_558:\n        /* \"#utility.yul\":11838:11912   */\n      swap2\n      pop\n        /* \"#utility.yul\":11921:12014   */\n      tag_559\n        /* \"#utility.yul\":12010:12013   */\n      dup3\n        /* \"#utility.yul\":11921:12014   */\n      tag_384\n      jump\t// in\n    tag_559:\n        /* \"#utility.yul\":12039:12041   */\n      0x40\n        /* \"#utility.yul\":12034:12037   */\n      dup3\n        /* \"#utility.yul\":12030:12042   */\n      add\n        /* \"#utility.yul\":12023:12042   */\n      swap1\n      pop\n        /* \"#utility.yul\":11682:12048   */\n      swap2\n      swap1\n      pop\n      jump\t// out\n        /* \"#utility.yul\":12054:12473   */\n    tag_136:\n        /* \"#utility.yul\":12220:12224   */\n      0x00\n        /* \"#utility.yul\":12258:12260   */\n      0x20\n        /* \"#utility.yul\":12247:12256   */\n      dup3\n        /* \"#utility.yul\":12243:12261   */\n      add\n        /* \"#utility.yul\":12235:12261   */\n      swap1\n      pop\n        /* \"#utility.yul\":12307:12316   */\n      dup2\n        /* \"#utility.yul\":12301:12305   */\n      dup2\n        /* \"#utility.yul\":12297:12317   */\n      sub\n        /* \"#utility.yul\":12293:12294   */\n      0x00\n        /* \"#utility.yul\":12282:12291   */\n      dup4\n        /* \"#utility.yul\":12278:12295   */\n      add\n        /* \"#utility.yul\":12271:12318   */\n      mstore\n        /* \"#utility.yul\":12335:12466   */\n      tag_561\n        /* \"#utility.yul\":12461:12465   */\n      dup2\n        /* \"#utility.yul\":12335:12466   */\n      tag_385\n      jump\t// in\n    tag_561:\n        /* \"#utility.yul\":12327:12466   */\n      swap1\n      pop\n        /* \"#utility.yul\":12054:12473   */\n      swap2\n      swap1\n      pop\n      jump\t// out\n        /* \"#utility.yul\":12479:12728   */\n    tag_386:\n        /* \"#utility.yul\":12619:12653   */\n      0x4552433732313a20617070726f76652063616c6c6572206973206e6f7420746f\n        /* \"#utility.yul\":12615:12616   */\n      0x00\n        /* \"#utility.yul\":12607:12613   */\n      dup3\n        /* \"#utility.yul\":12603:12617   */\n      add\n        /* \"#utility.yul\":12596:12654   */\n      mstore\n        /* \"#utility.yul\":12688:12720   */\n      0x6b656e206f776e6572206e6f7220617070726f76656420666f7220616c6c0000\n        /* \"#utility.yul\":12683:12685   */\n      0x20\n        /* \"#utility.yul\":12675:12681   */\n      dup3\n        /* \"#utility.yul\":12671:12686   */\n      add\n        /* \"#utility.yul\":12664:12721   */\n      mstore\n        /* \"#utility.yul\":12479:12728   */\n      pop\n      jump\t// out\n        /* \"#utility.yul\":12734:13100   */\n    tag_387:\n        /* \"#utility.yul\":12876:12879   */\n      0x00\n        /* \"#utility.yul\":12897:12964   */\n      tag_564\n        /* \"#utility.yul\":12961:12963   */\n      0x3e\n        /* \"#utility.yul\":12956:12959   */\n      dup4\n        /* \"#utility.yul\":12897:12964   */\n      tag_358\n      jump\t// in\n    tag_564:\n        /* \"#utility.yul\":12890:12964   */\n      swap2\n      pop\n        /* \"#utility.yul\":12973:13066   */\n      tag_565\n        /* \"#utility.yul\":13062:13065   */\n      dup3\n        /* \"#utility.yul\":12973:13066   */\n      tag_386\n      jump\t// in\n    tag_565:\n        /* \"#utility.yul\":13091:13093   */\n      0x40\n        /* \"#utility.yul\":13086:13089   */\n      dup3\n        /* \"#utility.yul\":13082:13094   */\n      add\n        /* \"#utility.yul\":13075:13094   */\n      swap1\n      pop\n        /* \"#utility.yul\":12734:13100   */\n      swap2\n      swap1\n      pop\n      jump\t// out\n        /* \"#utility.yul\":13106:13525   */\n    tag_144:\n        /* \"#utility.yul\":13272:13276   */\n      0x00\n        /* \"#utility.yul\":13310:13312   */\n      0x20\n        /* \"#utility.yul\":13299:13308   */\n      dup3\n        /* \"#utility.yul\":13295:13313   */\n      add\n        /* \"#utility.yul\":13287:13313   */\n      swap1\n      pop\n        /* \"#utility.yul\":13359:13368   */\n      dup2\n        /* \"#utility.yul\":13353:13357   */\n      dup2\n        /* \"#utility.yul\":13349:13369   */\n      sub\n        /* \"#utility.yul\":13345:13346   */\n      0x00\n        /* \"#utility.yul\":13334:13343   */\n      dup4\n        /* \"#utility.yul\":13330:13347   */\n      add\n        /* \"#utility.yul\":13323:13370   */\n      mstore\n        /* \"#utility.yul\":13387:13518   */\n      tag_567\n        /* \"#utility.yul\":13513:13517   */\n      dup2\n        /* \"#utility.yul\":13387:13518   */\n      tag_387\n      jump\t// in\n    tag_567:\n        /* \"#utility.yul\":13379:13518   */\n      swap1\n      pop\n        /* \"#utility.yul\":13106:13525   */\n      swap2\n      swap1\n      pop\n      jump\t// out\n        /* \"#utility.yul\":13531:13764   */\n    tag_388:\n        /* \"#utility.yul\":13671:13705   */\n      0x4552433732313a2063616c6c6572206973206e6f7420746f6b656e206f776e65\n        /* \"#utility.yul\":13667:13668   */\n      0x00\n        /* \"#utility.yul\":13659:13665   */\n      dup3\n        /* \"#utility.yul\":13655:13669   */\n      add\n        /* \"#utility.yul\":13648:13706   */\n      mstore\n        /* \"#utility.yul\":13740:13756   */\n      0x72206e6f7220617070726f766564000000000000000000000000000000000000\n        /* \"#utility.yul\":13735:13737   */\n      0x20\n        /* \"#utility.yul\":13727:13733   */\n      dup3\n        /* \"#utility.yul\":13723:13738   */\n      add\n        /* \"#utility.yul\":13716:13757   */\n      mstore\n        /* \"#utility.yul\":13531:13764   */\n      pop\n      jump\t// out\n        /* \"#utility.yul\":13770:14136   */\n    tag_389:\n        /* \"#utility.yul\":13912:13915   */\n      0x00\n        /* \"#utility.yul\":13933:14000   */\n      tag_570\n        /* \"#utility.yul\":13997:13999   */\n      0x2e\n        /* \"#utility.yul\":13992:13995   */\n      dup4\n        /* \"#utility.yul\":13933:14000   */\n      tag_358\n      jump\t// in\n    tag_570:\n        /* \"#utility.yul\":13926:14000   */\n      swap2\n      pop\n        /* \"#utility.yul\":14009:14102   */\n      tag_571\n        /* \"#utility.yul\":14098:14101   */\n      dup3\n        /* \"#utility.yul\":14009:14102   */\n      tag_388\n      jump\t// in\n    tag_571:\n        /* \"#utility.yul\":14127:14129   */\n      0x40\n        /* \"#utility.yul\":14122:14125   */\n      dup3\n        /* \"#utility.yul\":14118:14130   */\n      add\n        /* \"#utility.yul\":14111:14130   */\n      swap1\n      pop\n        /* \"#utility.yul\":13770:14136   */\n      swap2\n      swap1\n      pop\n      jump\t// out\n        /* \"#utility.yul\":14142:14561   */\n    tag_153:\n        /* \"#utility.yul\":14308:14312   */\n      0x00\n        /* \"#utility.yul\":14346:14348   */\n      0x20\n        /* \"#utility.yul\":14335:14344   */\n      dup3\n        /* \"#utility.yul\":14331:14349   */\n      add\n        /* \"#utility.yul\":14323:14349   */\n      swap1\n      pop\n        /* \"#utility.yul\":14395:14404   */\n      dup2\n        /* \"#utility.yul\":14389:14393   */\n      dup2\n        /* \"#utility.yul\":14385:14405   */\n      sub\n        /* \"#utility.yul\":14381:14382   */\n      0x00\n        /* \"#utility.yul\":14370:14379   */\n      dup4\n        /* \"#utility.yul\":14366:14383   */\n      add\n        /* \"#utility.yul\":14359:14406   */\n      mstore\n        /* \"#utility.yul\":14423:14554   */\n      tag_573\n        /* \"#utility.yul\":14549:14553   */\n      dup2\n        /* \"#utility.yul\":14423:14554   */\n      tag_389\n      jump\t// in\n    tag_573:\n        /* \"#utility.yul\":14415:14554   */\n      swap1\n      pop\n        /* \"#utility.yul\":14142:14561   */\n      swap2\n      swap1\n      pop\n      jump\t// out\n        /* \"#utility.yul\":14567:14747   */\n    tag_390:\n        /* \"#utility.yul\":14615:14692   */\n      0x4e487b7100000000000000000000000000000000000000000000000000000000\n        /* \"#utility.yul\":14612:14613   */\n      0x00\n        /* \"#utility.yul\":14605:14693   */\n      mstore\n        /* \"#utility.yul\":14712:14716   */\n      0x11\n        /* \"#utility.yul\":14709:14710   */\n      0x04\n        /* \"#utility.yul\":14702:14717   */\n      mstore\n        /* \"#utility.yul\":14736:14740   */\n      0x24\n        /* \"#utility.yul\":14733:14734   */\n      0x00\n        /* \"#utility.yul\":14726:14741   */\n      revert\n        /* \"#utility.yul\":14753:14990   */\n    tag_167:\n        /* \"#utility.yul\":14791:14794   */\n      0x00\n        /* \"#utility.yul\":14810:14828   */\n      tag_576\n        /* \"#utility.yul\":14826:14827   */\n      dup3\n        /* \"#utility.yul\":14810:14828   */\n      tag_370\n      jump\t// in\n    tag_576:\n        /* \"#utility.yul\":14805:14828   */\n      swap2\n      pop\n        /* \"#utility.yul\":14842:14860   */\n      tag_577\n        /* \"#utility.yul\":14858:14859   */\n      dup4\n        /* \"#utility.yul\":14842:14860   */\n      tag_370\n      jump\t// in\n    tag_577:\n        /* \"#utility.yul\":14837:14860   */\n      swap3\n      pop\n        /* \"#utility.yul\":14932:14933   */\n      dup3\n        /* \"#utility.yul\":14926:14930   */\n      0xff\n        /* \"#utility.yul\":14922:14934   */\n      sub\n        /* \"#utility.yul\":14919:14920   */\n      dup3\n        /* \"#utility.yul\":14916:14935   */\n      gt\n        /* \"#utility.yul\":14913:14958   */\n      iszero\n      tag_578\n      jumpi\n        /* \"#utility.yul\":14938:14956   */\n      tag_579\n      tag_390\n      jump\t// in\n    tag_579:\n        /* \"#utility.yul\":14913:14958   */\n    tag_578:\n        /* \"#utility.yul\":14982:14983   */\n      dup3\n        /* \"#utility.yul\":14979:14980   */\n      dup3\n        /* \"#utility.yul\":14975:14984   */\n      add\n        /* \"#utility.yul\":14968:14984   */\n      swap1\n      pop\n        /* \"#utility.yul\":14753:14990   */\n      swap3\n      swap2\n      pop\n      pop\n      jump\t// out\n        /* \"#utility.yul\":14996:15170   */\n    tag_391:\n        /* \"#utility.yul\":15136:15162   */\n      0x4552433732313a20696e76616c696420746f6b656e2049440000000000000000\n        /* \"#utility.yul\":15132:15133   */\n      0x00\n        /* \"#utility.yul\":15124:15130   */\n      dup3\n        /* \"#utility.yul\":15120:15134   */\n      add\n        /* \"#utility.yul\":15113:15163   */\n      mstore\n        /* \"#utility.yul\":14996:15170   */\n      pop\n      jump\t// out\n        /* \"#utility.yul\":15176:15542   */\n    tag_392:\n        /* \"#utility.yul\":15318:15321   */\n      0x00\n        /* \"#utility.yul\":15339:15406   */\n      tag_582\n        /* \"#utility.yul\":15403:15405   */\n      0x18\n        /* \"#utility.yul\":15398:15401   */\n      dup4\n        /* \"#utility.yul\":15339:15406   */\n      tag_358\n      jump\t// in\n    tag_582:\n        /* \"#utility.yul\":15332:15406   */\n      swap2\n      pop\n        /* \"#utility.yul\":15415:15508   */\n      tag_583\n        /* \"#utility.yul\":15504:15507   */\n      dup3\n        /* \"#utility.yul\":15415:15508   */\n      tag_391\n      jump\t// in\n    tag_583:\n        /* \"#utility.yul\":15533:15535   */\n      0x20\n        /* \"#utility.yul\":15528:15531   */\n      dup3\n        /* \"#utility.yul\":15524:15536   */\n      add\n        /* \"#utility.yul\":15517:15536   */\n      swap1\n      pop\n        /* \"#utility.yul\":15176:15542   */\n      swap2\n      swap1\n      pop\n      jump\t// out\n        /* \"#utility.yul\":15548:15967   */\n    tag_171:\n        /* \"#utility.yul\":15714:15718   */\n      0x00\n        /* \"#utility.yul\":15752:15754   */\n      0x20\n        /* \"#utility.yul\":15741:15750   */\n      dup3\n        /* \"#utility.yul\":15737:15755   */\n      add\n        /* \"#utility.yul\":15729:15755   */\n      swap1\n      pop\n        /* \"#utility.yul\":15801:15810   */\n      dup2\n        /* \"#utility.yul\":15795:15799   */\n      dup2\n        /* \"#utility.yul\":15791:15811   */\n      sub\n        /* \"#utility.yul\":15787:15788   */\n      0x00\n        /* \"#utility.yul\":15776:15785   */\n      dup4\n        /* \"#utility.yul\":15772:15789   */\n      add\n        /* \"#utility.yul\":15765:15812   */\n      mstore\n        /* \"#utility.yul\":15829:15960   */\n      tag_585\n        /* \"#utility.yul\":15955:15959   */\n      dup2\n        /* \"#utility.yul\":15829:15960   */\n      tag_392\n      jump\t// in\n    tag_585:\n        /* \"#utility.yul\":15821:15960   */\n      swap1\n      pop\n        /* \"#utility.yul\":15548:15967   */\n      swap2\n      swap1\n      pop\n      jump\t// out\n        /* \"#utility.yul\":15973:16201   */\n    tag_393:\n        /* \"#utility.yul\":16113:16147   */\n      0x4552433732313a2061646472657373207a65726f206973206e6f742061207661\n        /* \"#utility.yul\":16109:16110   */\n      0x00\n        /* \"#utility.yul\":16101:16107   */\n      dup3\n        /* \"#utility.yul\":16097:16111   */\n      add\n        /* \"#utility.yul\":16090:16148   */\n      mstore\n        /* \"#utility.yul\":16182:16193   */\n      0x6c6964206f776e65720000000000000000000000000000000000000000000000\n        /* \"#utility.yul\":16177:16179   */\n      0x20\n        /* \"#utility.yul\":16169:16175   */\n      dup3\n        /* \"#utility.yul\":16165:16180   */\n      add\n        /* \"#utility.yul\":16158:16194   */\n      mstore\n        /* \"#utility.yul\":15973:16201   */\n      pop\n      jump\t// out\n        /* \"#utility.yul\":16207:16573   */\n    tag_394:\n        /* \"#utility.yul\":16349:16352   */\n      0x00\n        /* \"#utility.yul\":16370:16437   */\n      tag_588\n        /* \"#utility.yul\":16434:16436   */\n      0x29\n        /* \"#utility.yul\":16429:16432   */\n      dup4\n        /* \"#utility.yul\":16370:16437   */\n      tag_358\n      jump\t// in\n    tag_588:\n        /* \"#utility.yul\":16363:16437   */\n      swap2\n      pop\n        /* \"#utility.yul\":16446:16539   */\n      tag_589\n        /* \"#utility.yul\":16535:16538   */\n      dup3\n        /* \"#utility.yul\":16446:16539   */\n      tag_393\n      jump\t// in\n    tag_589:\n        /* \"#utility.yul\":16564:16566   */\n      0x40\n        /* \"#utility.yul\":16559:16562   */\n      dup3\n        /* \"#utility.yul\":16555:16567   */\n      add\n        /* \"#utility.yul\":16548:16567   */\n      swap1\n      pop\n        /* \"#utility.yul\":16207:16573   */\n      swap2\n      swap1\n      pop\n      jump\t// out\n        /* \"#utility.yul\":16579:16998   */\n    tag_175:\n        /* \"#utility.yul\":16745:16749   */\n      0x00\n        /* \"#utility.yul\":16783:16785   */\n      0x20\n        /* \"#utility.yul\":16772:16781   */\n      dup3\n        /* \"#utility.yul\":16768:16786   */\n      add\n        /* \"#utility.yul\":16760:16786   */\n      swap1\n      pop\n        /* \"#utility.yul\":16832:16841   */\n      dup2\n        /* \"#utility.yul\":16826:16830   */\n      dup2\n        /* \"#utility.yul\":16822:16842   */\n      sub\n        /* \"#utility.yul\":16818:16819   */\n      0x00\n        /* \"#utility.yul\":16807:16816   */\n      dup4\n        /* \"#utility.yul\":16803:16820   */\n      add\n        /* \"#utility.yul\":16796:16843   */\n      mstore\n        /* \"#utility.yul\":16860:16991   */\n      tag_591\n        /* \"#utility.yul\":16986:16990   */\n      dup2\n        /* \"#utility.yul\":16860:16991   */\n      tag_394\n      jump\t// in\n    tag_591:\n        /* \"#utility.yul\":16852:16991   */\n      swap1\n      pop\n        /* \"#utility.yul\":16579:16998   */\n      swap2\n      swap1\n      pop\n      jump\t// out\n        /* \"#utility.yul\":17004:17237   */\n    tag_395:\n        /* \"#utility.yul\":17144:17178   */\n      0x496e697469616c697a61626c653a20636f6e747261637420697320616c726561\n        /* \"#utility.yul\":17140:17141   */\n      0x00\n        /* \"#utility.yul\":17132:17138   */\n      dup3\n        /* \"#utility.yul\":17128:17142   */\n      add\n        /* \"#utility.yul\":17121:17179   */\n      mstore\n        /* \"#utility.yul\":17213:17229   */\n      0x647920696e697469616c697a6564000000000000000000000000000000000000\n        /* \"#utility.yul\":17208:17210   */\n      0x20\n        /* \"#utility.yul\":17200:17206   */\n      dup3\n        /* \"#utility.yul\":17196:17211   */\n      add\n        /* \"#utility.yul\":17189:17230   */\n      mstore\n        /* \"#utility.yul\":17004:17237   */\n      pop\n      jump\t// out\n        /* \"#utility.yul\":17243:17609   */\n    tag_396:\n        /* \"#utility.yul\":17385:17388   */\n      0x00\n        /* \"#utility.yul\":17406:17473   */\n      tag_594\n        /* \"#utility.yul\":17470:17472   */\n      0x2e\n        /* \"#utility.yul\":17465:17468   */\n      dup4\n        /* \"#utility.yul\":17406:17473   */\n      tag_358\n      jump\t// in\n    tag_594:\n        /* \"#utility.yul\":17399:17473   */\n      swap2\n      pop\n        /* \"#utility.yul\":17482:17575   */\n      tag_595\n        /* \"#utility.yul\":17571:17574   */\n      dup3\n        /* \"#utility.yul\":17482:17575   */\n      tag_395\n      jump\t// in\n    tag_595:\n        /* \"#utility.yul\":17600:17602   */\n      0x40\n        /* \"#utility.yul\":17595:17598   */\n      dup3\n        /* \"#utility.yul\":17591:17603   */\n      add\n        /* \"#utility.yul\":17584:17603   */\n      swap1\n      pop\n        /* \"#utility.yul\":17243:17609   */\n      swap2\n      swap1\n      pop\n      jump\t// out\n        /* \"#utility.yul\":17615:18034   */\n    tag_184:\n        /* \"#utility.yul\":17781:17785   */\n      0x00\n        /* \"#utility.yul\":17819:17821   */\n      0x20\n        /* \"#utility.yul\":17808:17817   */\n      dup3\n        /* \"#utility.yul\":17804:17822   */\n      add\n        /* \"#utility.yul\":17796:17822   */\n      swap1\n      pop\n        /* \"#utility.yul\":17868:17877   */\n      dup2\n        /* \"#utility.yul\":17862:17866   */\n      dup2\n        /* \"#utility.yul\":17858:17878   */\n      sub\n        /* \"#utility.yul\":17854:17855   */\n      0x00\n        /* \"#utility.yul\":17843:17852   */\n      dup4\n        /* \"#utility.yul\":17839:17856   */\n      add\n        /* \"#utility.yul\":17832:17879   */\n      mstore\n        /* \"#utility.yul\":17896:18027   */\n      tag_597\n        /* \"#utility.yul\":18022:18026   */\n      dup2\n        /* \"#utility.yul\":17896:18027   */\n      tag_396\n      jump\t// in\n    tag_597:\n        /* \"#utility.yul\":17888:18027   */\n      swap1\n      pop\n        /* \"#utility.yul\":17615:18034   */\n      swap2\n      swap1\n      pop\n      jump\t// out\n        /* \"#utility.yul\":18040:18125   */\n    tag_397:\n        /* \"#utility.yul\":18085:18092   */\n      0x00\n        /* \"#utility.yul\":18114:18119   */\n      dup2\n        /* \"#utility.yul\":18103:18119   */\n      swap1\n      pop\n        /* \"#utility.yul\":18040:18125   */\n      swap2\n      swap1\n      pop\n      jump\t// out\n        /* \"#utility.yul\":18131:18191   */\n    tag_398:\n        /* \"#utility.yul\":18159:18162   */\n      0x00\n        /* \"#utility.yul\":18180:18185   */\n      dup2\n        /* \"#utility.yul\":18173:18185   */\n      swap1\n      pop\n        /* \"#utility.yul\":18131:18191   */\n      swap2\n      swap1\n      pop\n      jump\t// out\n        /* \"#utility.yul\":18197:18351   */\n    tag_399:\n        /* \"#utility.yul\":18253:18262   */\n      0x00\n        /* \"#utility.yul\":18286:18345   */\n      tag_601\n        /* \"#utility.yul\":18302:18344   */\n      tag_602\n        /* \"#utility.yul\":18311:18343   */\n      tag_603\n        /* \"#utility.yul\":18337:18342   */\n      dup5\n        /* \"#utility.yul\":18311:18343   */\n      tag_397\n      jump\t// in\n    tag_603:\n        /* \"#utility.yul\":18302:18344   */\n      tag_398\n      jump\t// in\n    tag_602:\n        /* \"#utility.yul\":18286:18345   */\n      tag_370\n      jump\t// in\n    tag_601:\n        /* \"#utility.yul\":18273:18345   */\n      swap1\n      pop\n        /* \"#utility.yul\":18197:18351   */\n      swap2\n      swap1\n      pop\n      jump\t// out\n        /* \"#utility.yul\":18357:18500   */\n    tag_400:\n        /* \"#utility.yul\":18450:18493   */\n      tag_605\n        /* \"#utility.yul\":18487:18492   */\n      dup2\n        /* \"#utility.yul\":18450:18493   */\n      tag_399\n      jump\t// in\n    tag_605:\n        /* \"#utility.yul\":18445:18448   */\n      dup3\n        /* \"#utility.yul\":18438:18494   */\n      mstore\n        /* \"#utility.yul\":18357:18500   */\n      pop\n      pop\n      jump\t// out\n        /* \"#utility.yul\":18506:18740   */\n    tag_191:\n        /* \"#utility.yul\":18605:18609   */\n      0x00\n        /* \"#utility.yul\":18643:18645   */\n      0x20\n        /* \"#utility.yul\":18632:18641   */\n      dup3\n        /* \"#utility.yul\":18628:18646   */\n      add\n        /* \"#utility.yul\":18620:18646   */\n      swap1\n      pop\n        /* \"#utility.yul\":18656:18733   */\n      tag_607\n        /* \"#utility.yul\":18730:18731   */\n      0x00\n        /* \"#utility.yul\":18719:18728   */\n      dup4\n        /* \"#utility.yul\":18715:18732   */\n      add\n        /* \"#utility.yul\":18706:18712   */\n      dup5\n        /* \"#utility.yul\":18656:18733   */\n      tag_400\n      jump\t// in\n    tag_607:\n        /* \"#utility.yul\":18506:18740   */\n      swap3\n      swap2\n      pop\n      pop\n      jump\t// out\n        /* \"#utility.yul\":18746:18931   */\n    tag_211:\n        /* \"#utility.yul\":18784:18788   */\n      0x00\n        /* \"#utility.yul\":18804:18822   */\n      tag_609\n        /* \"#utility.yul\":18820:18821   */\n      dup3\n        /* \"#utility.yul\":18804:18822   */\n      tag_370\n      jump\t// in\n    tag_609:\n        /* \"#utility.yul\":18799:18822   */\n      swap2\n      pop\n        /* \"#utility.yul\":18836:18854   */\n      tag_610\n        /* \"#utility.yul\":18852:18853   */\n      dup4\n        /* \"#utility.yul\":18836:18854   */\n      tag_370\n      jump\t// in\n    tag_610:\n        /* \"#utility.yul\":18831:18854   */\n      swap3\n      pop\n        /* \"#utility.yul\":18873:18874   */\n      dup3\n        /* \"#utility.yul\":18870:18871   */\n      dup3\n        /* \"#utility.yul\":18867:18875   */\n      lt\n        /* \"#utility.yul\":18864:18898   */\n      iszero\n      tag_611\n      jumpi\n        /* \"#utility.yul\":18878:18896   */\n      tag_612\n      tag_390\n      jump\t// in\n    tag_612:\n        /* \"#utility.yul\":18864:18898   */\n    tag_611:\n        /* \"#utility.yul\":18923:18924   */\n      dup3\n        /* \"#utility.yul\":18920:18921   */\n      dup3\n        /* \"#utility.yul\":18916:18925   */\n      sub\n        /* \"#utility.yul\":18908:18925   */\n      swap1\n      pop\n        /* \"#utility.yul\":18746:18931   */\n      swap3\n      swap2\n      pop\n      pop\n      jump\t// out\n        /* \"#utility.yul\":18937:19085   */\n    tag_401:\n        /* \"#utility.yul\":19039:19050   */\n      0x00\n        /* \"#utility.yul\":19076:19079   */\n      dup2\n        /* \"#utility.yul\":19061:19079   */\n      swap1\n      pop\n        /* \"#utility.yul\":18937:19085   */\n      swap3\n      swap2\n      pop\n      pop\n      jump\t// out\n        /* \"#utility.yul\":19091:19468   */\n    tag_402:\n        /* \"#utility.yul\":19197:19200   */\n      0x00\n        /* \"#utility.yul\":19225:19264   */\n      tag_615\n        /* \"#utility.yul\":19258:19263   */\n      dup3\n        /* \"#utility.yul\":19225:19264   */\n      tag_357\n      jump\t// in\n    tag_615:\n        /* \"#utility.yul\":19280:19369   */\n      tag_616\n        /* \"#utility.yul\":19362:19368   */\n      dup2\n        /* \"#utility.yul\":19357:19360   */\n      dup6\n        /* \"#utility.yul\":19280:19369   */\n      tag_401\n      jump\t// in\n    tag_616:\n        /* \"#utility.yul\":19273:19369   */\n      swap4\n      pop\n        /* \"#utility.yul\":19378:19430   */\n      tag_617\n        /* \"#utility.yul\":19423:19429   */\n      dup2\n        /* \"#utility.yul\":19418:19421   */\n      dup6\n        /* \"#utility.yul\":19411:19415   */\n      0x20\n        /* \"#utility.yul\":19404:19409   */\n      dup7\n        /* \"#utility.yul\":19400:19416   */\n      add\n        /* \"#utility.yul\":19378:19430   */\n      tag_359\n      jump\t// in\n    tag_617:\n        /* \"#utility.yul\":19455:19461   */\n      dup1\n        /* \"#utility.yul\":19450:19453   */\n      dup5\n        /* \"#utility.yul\":19446:19462   */\n      add\n        /* \"#utility.yul\":19439:19462   */\n      swap2\n      pop\n        /* \"#utility.yul\":19201:19468   */\n      pop\n        /* \"#utility.yul\":19091:19468   */\n      swap3\n      swap2\n      pop\n      pop\n      jump\t// out\n        /* \"#utility.yul\":19474:19909   */\n    tag_221:\n        /* \"#utility.yul\":19654:19657   */\n      0x00\n        /* \"#utility.yul\":19676:19771   */\n      tag_619\n        /* \"#utility.yul\":19767:19770   */\n      dup3\n        /* \"#utility.yul\":19758:19764   */\n      dup6\n        /* \"#utility.yul\":19676:19771   */\n      tag_402\n      jump\t// in\n    tag_619:\n        /* \"#utility.yul\":19669:19771   */\n      swap2\n      pop\n        /* \"#utility.yul\":19788:19883   */\n      tag_620\n        /* \"#utility.yul\":19879:19882   */\n      dup3\n        /* \"#utility.yul\":19870:19876   */\n      dup5\n        /* \"#utility.yul\":19788:19883   */\n      tag_402\n      jump\t// in\n    tag_620:\n        /* \"#utility.yul\":19781:19883   */\n      swap2\n      pop\n        /* \"#utility.yul\":19900:19903   */\n      dup2\n        /* \"#utility.yul\":19893:19903   */\n      swap1\n      pop\n        /* \"#utility.yul\":19474:19909   */\n      swap4\n      swap3\n      pop\n      pop\n      pop\n      jump\t// out\n        /* \"#utility.yul\":19915:20139   */\n    tag_403:\n        /* \"#utility.yul\":20055:20089   */\n      0x4552433732313a207472616e736665722066726f6d20696e636f727265637420\n        /* \"#utility.yul\":20051:20052   */\n      0x00\n        /* \"#utility.yul\":20043:20049   */\n      dup3\n        /* \"#utility.yul\":20039:20053   */\n      add\n        /* \"#utility.yul\":20032:20090   */\n      mstore\n        /* \"#utility.yul\":20124:20131   */\n      0x6f776e6572000000000000000000000000000000000000000000000000000000\n        /* \"#utility.yul\":20119:20121   */\n      0x20\n        /* \"#utility.yul\":20111:20117   */\n      dup3\n        /* \"#utility.yul\":20107:20122   */\n      add\n        /* \"#utility.yul\":20100:20132   */\n      mstore\n        /* \"#utility.yul\":19915:20139   */\n      pop\n      jump\t// out\n        /* \"#utility.yul\":20145:20511   */\n    tag_404:\n        /* \"#utility.yul\":20287:20290   */\n      0x00\n        /* \"#utility.yul\":20308:20375   */\n      tag_623\n        /* \"#utility.yul\":20372:20374   */\n      0x25\n        /* \"#utility.yul\":20367:20370   */\n      dup4\n        /* \"#utility.yul\":20308:20375   */\n      tag_358\n      jump\t// in\n    tag_623:\n        /* \"#utility.yul\":20301:20375   */\n      swap2\n      pop\n        /* \"#utility.yul\":20384:20477   */\n      tag_624\n        /* \"#utility.yul\":20473:20476   */\n      dup3\n        /* \"#utility.yul\":20384:20477   */\n      tag_403\n      jump\t// in\n    tag_624:\n        /* \"#utility.yul\":20502:20504   */\n      0x40\n        /* \"#utility.yul\":20497:20500   */\n      dup3\n        /* \"#utility.yul\":20493:20505   */\n      add\n        /* \"#utility.yul\":20486:20505   */\n      swap1\n      pop\n        /* \"#utility.yul\":20145:20511   */\n      swap2\n      swap1\n      pop\n      jump\t// out\n        /* \"#utility.yul\":20517:20936   */\n    tag_242:\n        /* \"#utility.yul\":20683:20687   */\n      0x00\n        /* \"#utility.yul\":20721:20723   */\n      0x20\n        /* \"#utility.yul\":20710:20719   */\n      dup3\n        /* \"#utility.yul\":20706:20724   */\n      add\n        /* \"#utility.yul\":20698:20724   */\n      swap1\n      pop\n        /* \"#utility.yul\":20770:20779   */\n      dup2\n        /* \"#utility.yul\":20764:20768   */\n      dup2\n        /* \"#utility.yul\":20760:20780   */\n      sub\n        /* \"#utility.yul\":20756:20757   */\n      0x00\n        /* \"#utility.yul\":20745:20754   */\n      dup4\n        /* \"#utility.yul\":20741:20758   */\n      add\n        /* \"#utility.yul\":20734:20781   */\n      mstore\n        /* \"#utility.yul\":20798:20929   */\n      tag_626\n        /* \"#utility.yul\":20924:20928   */\n      dup2\n        /* \"#utility.yul\":20798:20929   */\n      tag_404\n      jump\t// in\n    tag_626:\n        /* \"#utility.yul\":20790:20929   */\n      swap1\n      pop\n        /* \"#utility.yul\":20517:20936   */\n      swap2\n      swap1\n      pop\n      jump\t// out\n        /* \"#utility.yul\":20942:21165   */\n    tag_405:\n        /* \"#utility.yul\":21082:21116   */\n      0x4552433732313a207472616e7366657220746f20746865207a65726f20616464\n        /* \"#utility.yul\":21078:21079   */\n      0x00\n        /* \"#utility.yul\":21070:21076   */\n      dup3\n        /* \"#utility.yul\":21066:21080   */\n      add\n        /* \"#utility.yul\":21059:21117   */\n      mstore\n        /* \"#utility.yul\":21151:21157   */\n      0x7265737300000000000000000000000000000000000000000000000000000000\n        /* \"#utility.yul\":21146:21148   */\n      0x20\n        /* \"#utility.yul\":21138:21144   */\n      dup3\n        /* \"#utility.yul\":21134:21149   */\n      add\n        /* \"#utility.yul\":21127:21158   */\n      mstore\n        /* \"#utility.yul\":20942:21165   */\n      pop\n      jump\t// out\n        /* \"#utility.yul\":21171:21537   */\n    tag_406:\n        /* \"#utility.yul\":21313:21316   */\n      0x00\n        /* \"#utility.yul\":21334:21401   */\n      tag_629\n        /* \"#utility.yul\":21398:21400   */\n      0x24\n        /* \"#utility.yul\":21393:21396   */\n      dup4\n        /* \"#utility.yul\":21334:21401   */\n      tag_358\n      jump\t// in\n    tag_629:\n        /* \"#utility.yul\":21327:21401   */\n      swap2\n      pop\n        /* \"#utility.yul\":21410:21503   */\n      tag_630\n        /* \"#utility.yul\":21499:21502   */\n      dup3\n        /* \"#utility.yul\":21410:21503   */\n      tag_405\n      jump\t// in\n    tag_630:\n        /* \"#utility.yul\":21528:21530   */\n      0x40\n        /* \"#utility.yul\":21523:21526   */\n      dup3\n        /* \"#utility.yul\":21519:21531   */\n      add\n        /* \"#utility.yul\":21512:21531   */\n      swap1\n      pop\n        /* \"#utility.yul\":21171:21537   */\n      swap2\n      swap1\n      pop\n      jump\t// out\n        /* \"#utility.yul\":21543:21962   */\n    tag_245:\n        /* \"#utility.yul\":21709:21713   */\n      0x00\n        /* \"#utility.yul\":21747:21749   */\n      0x20\n        /* \"#utility.yul\":21736:21745   */\n      dup3\n        /* \"#utility.yul\":21732:21750   */\n      add\n        /* \"#utility.yul\":21724:21750   */\n      swap1\n      pop\n        /* \"#utility.yul\":21796:21805   */\n      dup2\n        /* \"#utility.yul\":21790:21794   */\n      dup2\n        /* \"#utility.yul\":21786:21806   */\n      sub\n        /* \"#utility.yul\":21782:21783   */\n      0x00\n        /* \"#utility.yul\":21771:21780   */\n      dup4\n        /* \"#utility.yul\":21767:21784   */\n      add\n        /* \"#utility.yul\":21760:21807   */\n      mstore\n        /* \"#utility.yul\":21824:21955   */\n      tag_632\n        /* \"#utility.yul\":21950:21954   */\n      dup2\n        /* \"#utility.yul\":21824:21955   */\n      tag_406\n      jump\t// in\n    tag_632:\n        /* \"#utility.yul\":21816:21955   */\n      swap1\n      pop\n        /* \"#utility.yul\":21543:21962   */\n      swap2\n      swap1\n      pop\n      jump\t// out\n        /* \"#utility.yul\":21968:22159   */\n    tag_250:\n        /* \"#utility.yul\":22008:22012   */\n      0x00\n        /* \"#utility.yul\":22028:22048   */\n      tag_634\n        /* \"#utility.yul\":22046:22047   */\n      dup3\n        /* \"#utility.yul\":22028:22048   */\n      tag_362\n      jump\t// in\n    tag_634:\n        /* \"#utility.yul\":22023:22048   */\n      swap2\n      pop\n        /* \"#utility.yul\":22062:22082   */\n      tag_635\n        /* \"#utility.yul\":22080:22081   */\n      dup4\n        /* \"#utility.yul\":22062:22082   */\n      tag_362\n      jump\t// in\n    tag_635:\n        /* \"#utility.yul\":22057:22082   */\n      swap3\n      pop\n        /* \"#utility.yul\":22101:22102   */\n      dup3\n        /* \"#utility.yul\":22098:22099   */\n      dup3\n        /* \"#utility.yul\":22095:22103   */\n      lt\n        /* \"#utility.yul\":22092:22126   */\n      iszero\n      tag_636\n      jumpi\n        /* \"#utility.yul\":22106:22124   */\n      tag_637\n      tag_390\n      jump\t// in\n    tag_637:\n        /* \"#utility.yul\":22092:22126   */\n    tag_636:\n        /* \"#utility.yul\":22151:22152   */\n      dup3\n        /* \"#utility.yul\":22148:22149   */\n      dup3\n        /* \"#utility.yul\":22144:22153   */\n      sub\n        /* \"#utility.yul\":22136:22153   */\n      swap1\n      pop\n        /* \"#utility.yul\":21968:22159   */\n      swap3\n      swap2\n      pop\n      pop\n      jump\t// out\n        /* \"#utility.yul\":22165:22470   */\n    tag_252:\n        /* \"#utility.yul\":22205:22208   */\n      0x00\n        /* \"#utility.yul\":22224:22244   */\n      tag_639\n        /* \"#utility.yul\":22242:22243   */\n      dup3\n        /* \"#utility.yul\":22224:22244   */\n      tag_362\n      jump\t// in\n    tag_639:\n        /* \"#utility.yul\":22219:22244   */\n      swap2\n      pop\n        /* \"#utility.yul\":22258:22278   */\n      tag_640\n        /* \"#utility.yul\":22276:22277   */\n      dup4\n        /* \"#utility.yul\":22258:22278   */\n      tag_362\n      jump\t// in\n    tag_640:\n        /* \"#utility.yul\":22253:22278   */\n      swap3\n      pop\n        /* \"#utility.yul\":22412:22413   */\n      dup3\n        /* \"#utility.yul\":22344:22410   */\n      0xffffffffffffffffffffffffffffffffffffffffffffffffffffffffffffffff\n        /* \"#utility.yul\":22340:22414   */\n      sub\n        /* \"#utility.yul\":22337:22338   */\n      dup3\n        /* \"#utility.yul\":22334:22415   */\n      gt\n        /* \"#utility.yul\":22331:22438   */\n      iszero\n      tag_641\n      jumpi\n        /* \"#utility.yul\":22418:22436   */\n      tag_642\n      tag_390\n      jump\t// in\n    tag_642:\n        /* \"#utility.yul\":22331:22438   */\n    tag_641:\n        /* \"#utility.yul\":22462:22463   */\n      dup3\n        /* \"#utility.yul\":22459:22460   */\n      dup3\n        /* \"#utility.yul\":22455:22464   */\n      add\n        /* \"#utility.yul\":22448:22464   */\n      swap1\n      pop\n        /* \"#utility.yul\":22165:22470   */\n      swap3\n      swap2\n      pop\n      pop\n      jump\t// out\n        /* \"#utility.yul\":22476:22658   */\n    tag_407:\n        /* \"#utility.yul\":22616:22650   */\n      0x4552433732313a206d696e7420746f20746865207a65726f2061646472657373\n        /* \"#utility.yul\":22612:22613   */\n      0x00\n        /* \"#utility.yul\":22604:22610   */\n      dup3\n        /* \"#utility.yul\":22600:22614   */\n      add\n        /* \"#utility.yul\":22593:22651   */\n      mstore\n        /* \"#utility.yul\":22476:22658   */\n      pop\n      jump\t// out\n        /* \"#utility.yul\":22664:23030   */\n    tag_408:\n        /* \"#utility.yul\":22806:22809   */\n      0x00\n        /* \"#utility.yul\":22827:22894   */\n      tag_645\n        /* \"#utility.yul\":22891:22893   */\n      0x20\n        /* \"#utility.yul\":22886:22889   */\n      dup4\n        /* \"#utility.yul\":22827:22894   */\n      tag_358\n      jump\t// in\n    tag_645:\n        /* \"#utility.yul\":22820:22894   */\n      swap2\n      pop\n        /* \"#utility.yul\":22903:22996   */\n      tag_646\n        /* \"#utility.yul\":22992:22995   */\n      dup3\n        /* \"#utility.yul\":22903:22996   */\n      tag_407\n      jump\t// in\n    tag_646:\n        /* \"#utility.yul\":23021:23023   */\n      0x20\n        /* \"#utility.yul\":23016:23019   */\n      dup3\n        /* \"#utility.yul\":23012:23024   */\n      add\n        /* \"#utility.yul\":23005:23024   */\n      swap1\n      pop\n        /* \"#utility.yul\":22664:23030   */\n      swap2\n      swap1\n      pop\n      jump\t// out\n        /* \"#utility.yul\":23036:23455   */\n    tag_258:\n        /* \"#utility.yul\":23202:23206   */\n      0x00\n        /* \"#utility.yul\":23240:23242   */\n      0x20\n        /* \"#utility.yul\":23229:23238   */\n      dup3\n        /* \"#utility.yul\":23225:23243   */\n      add\n        /* \"#utility.yul\":23217:23243   */\n      swap1\n      pop\n        /* \"#utility.yul\":23289:23298   */\n      dup2\n        /* \"#utility.yul\":23283:23287   */\n      dup2\n        /* \"#utility.yul\":23279:23299   */\n      sub\n        /* \"#utility.yul\":23275:23276   */\n      0x00\n        /* \"#utility.yul\":23264:23273   */\n      dup4\n        /* \"#utility.yul\":23260:23277   */\n      add\n        /* \"#utility.yul\":23253:23300   */\n      mstore\n        /* \"#utility.yul\":23317:23448   */\n      tag_648\n        /* \"#utility.yul\":23443:23447   */\n      dup2\n        /* \"#utility.yul\":23317:23448   */\n      tag_408\n      jump\t// in\n    tag_648:\n        /* \"#utility.yul\":23309:23448   */\n      swap1\n      pop\n        /* \"#utility.yul\":23036:23455   */\n      swap2\n      swap1\n      pop\n      jump\t// out\n        /* \"#utility.yul\":23461:23639   */\n    tag_409:\n        /* \"#utility.yul\":23601:23631   */\n      0x4552433732313a20746f6b656e20616c7265616479206d696e74656400000000\n        /* \"#utility.yul\":23597:23598   */\n      0x00\n        /* \"#utility.yul\":23589:23595   */\n      dup3\n        /* \"#utility.yul\":23585:23599   */\n      add\n        /* \"#utility.yul\":23578:23632   */\n      mstore\n        /* \"#utility.yul\":23461:23639   */\n      pop\n      jump\t// out\n        /* \"#utility.yul\":23645:24011   */\n    tag_410:\n        /* \"#utility.yul\":23787:23790   */\n      0x00\n        /* \"#utility.yul\":23808:23875   */\n      tag_651\n        /* \"#utility.yul\":23872:23874   */\n      0x1c\n        /* \"#utility.yul\":23867:23870   */\n      dup4\n        /* \"#utility.yul\":23808:23875   */\n      tag_358\n      jump\t// in\n    tag_651:\n        /* \"#utility.yul\":23801:23875   */\n      swap2\n      pop\n        /* \"#utility.yul\":23884:23977   */\n      tag_652\n        /* \"#utility.yul\":23973:23976   */\n      dup3\n        /* \"#utility.yul\":23884:23977   */\n      tag_409\n      jump\t// in\n    tag_652:\n        /* \"#utility.yul\":24002:24004   */\n      0x20\n        /* \"#utility.yul\":23997:24000   */\n      dup3\n        /* \"#utility.yul\":23993:24005   */\n      add\n        /* \"#utility.yul\":23986:24005   */\n      swap1\n      pop\n        /* \"#utility.yul\":23645:24011   */\n      swap2\n      swap1\n      pop\n      jump\t// out\n        /* \"#utility.yul\":24017:24436   */\n    tag_262:\n        /* \"#utility.yul\":24183:24187   */\n      0x00\n        /* \"#utility.yul\":24221:24223   */\n      0x20\n        /* \"#utility.yul\":24210:24219   */\n      dup3\n        /* \"#utility.yul\":24206:24224   */\n      add\n        /* \"#utility.yul\":24198:24224   */\n      swap1\n      pop\n        /* \"#utility.yul\":24270:24279   */\n      dup2\n        /* \"#utility.yul\":24264:24268   */\n      dup2\n        /* \"#utility.yul\":24260:24280   */\n      sub\n        /* \"#utility.yul\":24256:24257   */\n      0x00\n        /* \"#utility.yul\":24245:24254   */\n      dup4\n        /* \"#utility.yul\":24241:24258   */\n      add\n        /* \"#utility.yul\":24234:24281   */\n      mstore\n        /* \"#utility.yul\":24298:24429   */\n      tag_654\n        /* \"#utility.yul\":24424:24428   */\n      dup2\n        /* \"#utility.yul\":24298:24429   */\n      tag_410\n      jump\t// in\n    tag_654:\n        /* \"#utility.yul\":24290:24429   */\n      swap1\n      pop\n        /* \"#utility.yul\":24017:24436   */\n      swap2\n      swap1\n      pop\n      jump\t// out\n        /* \"#utility.yul\":24442:24672   */\n    tag_411:\n        /* \"#utility.yul\":24582:24616   */\n      0x496e697469616c697a61626c653a20636f6e7472616374206973206e6f742069\n        /* \"#utility.yul\":24578:24579   */\n      0x00\n        /* \"#utility.yul\":24570:24576   */\n      dup3\n        /* \"#utility.yul\":24566:24580   */\n      add\n        /* \"#utility.yul\":24559:24617   */\n      mstore\n        /* \"#utility.yul\":24651:24664   */\n      0x6e697469616c697a696e67000000000000000000000000000000000000000000\n        /* \"#utility.yul\":24646:24648   */\n      0x20\n        /* \"#utility.yul\":24638:24644   */\n      dup3\n        /* \"#utility.yul\":24634:24649   */\n      add\n        /* \"#utility.yul\":24627:24665   */\n      mstore\n        /* \"#utility.yul\":24442:24672   */\n      pop\n      jump\t// out\n        /* \"#utility.yul\":24678:25044   */\n    tag_412:\n        /* \"#utility.yul\":24820:24823   */\n      0x00\n        /* \"#utility.yul\":24841:24908   */\n      tag_657\n        /* \"#utility.yul\":24905:24907   */\n      0x2b\n        /* \"#utility.yul\":24900:24903   */\n      dup4\n        /* \"#utility.yul\":24841:24908   */\n      tag_358\n      jump\t// in\n    tag_657:\n        /* \"#utility.yul\":24834:24908   */\n      swap2\n      pop\n        /* \"#utility.yul\":24917:25010   */\n      tag_658\n        /* \"#utility.yul\":25006:25009   */\n      dup3\n        /* \"#utility.yul\":24917:25010   */\n      tag_411\n      jump\t// in\n    tag_658:\n        /* \"#utility.yul\":25035:25037   */\n      0x40\n        /* \"#utility.yul\":25030:25033   */\n      dup3\n        /* \"#utility.yul\":25026:25038   */\n      add\n        /* \"#utility.yul\":25019:25038   */\n      swap1\n      pop\n        /* \"#utility.yul\":24678:25044   */\n      swap2\n      swap1\n      pop\n      jump\t// out\n        /* \"#utility.yul\":25050:25469   */\n    tag_270:\n        /* \"#utility.yul\":25216:25220   */\n      0x00\n        /* \"#utility.yul\":25254:25256   */\n      0x20\n        /* \"#utility.yul\":25243:25252   */\n      dup3\n        /* \"#utility.yul\":25239:25257   */\n      add\n        /* \"#utility.yul\":25231:25257   */\n      swap1\n      pop\n        /* \"#utility.yul\":25303:25312   */\n      dup2\n        /* \"#utility.yul\":25297:25301   */\n      dup2\n        /* \"#utility.yul\":25293:25313   */\n      sub\n        /* \"#utility.yul\":25289:25290   */\n      0x00\n        /* \"#utility.yul\":25278:25287   */\n      dup4\n        /* \"#utility.yul\":25274:25291   */\n      add\n        /* \"#utility.yul\":25267:25314   */\n      mstore\n        /* \"#utility.yul\":25331:25462   */\n      tag_660\n        /* \"#utility.yul\":25457:25461   */\n      dup2\n        /* \"#utility.yul\":25331:25462   */\n      tag_412\n      jump\t// in\n    tag_660:\n        /* \"#utility.yul\":25323:25462   */\n      swap1\n      pop\n        /* \"#utility.yul\":25050:25469   */\n      swap2\n      swap1\n      pop\n      jump\t// out\n        /* \"#utility.yul\":25475:25650   */\n    tag_413:\n        /* \"#utility.yul\":25615:25642   */\n      0x4552433732313a20617070726f766520746f2063616c6c657200000000000000\n        /* \"#utility.yul\":25611:25612   */\n      0x00\n        /* \"#utility.yul\":25603:25609   */\n      dup3\n        /* \"#utility.yul\":25599:25613   */\n      add\n        /* \"#utility.yul\":25592:25643   */\n      mstore\n        /* \"#utility.yul\":25475:25650   */\n      pop\n      jump\t// out\n        /* \"#utility.yul\":25656:26022   */\n    tag_414:\n        /* \"#utility.yul\":25798:25801   */\n      0x00\n        /* \"#utility.yul\":25819:25886   */\n      tag_663\n        /* \"#utility.yul\":25883:25885   */\n      0x19\n        /* \"#utility.yul\":25878:25881   */\n      dup4\n        /* \"#utility.yul\":25819:25886   */\n      tag_358\n      jump\t// in\n    tag_663:\n        /* \"#utility.yul\":25812:25886   */\n      swap2\n      pop\n        /* \"#utility.yul\":25895:25988   */\n      tag_664\n        /* \"#utility.yul\":25984:25987   */\n      dup3\n        /* \"#utility.yul\":25895:25988   */\n      tag_413\n      jump\t// in\n    tag_664:\n        /* \"#utility.yul\":26013:26015   */\n      0x20\n        /* \"#utility.yul\":26008:26011   */\n      dup3\n        /* \"#utility.yul\":26004:26016   */\n      add\n        /* \"#utility.yul\":25997:26016   */\n      swap1\n      pop\n        /* \"#utility.yul\":25656:26022   */\n      swap2\n      swap1\n      pop\n      jump\t// out\n        /* \"#utility.yul\":26028:26447   */\n    tag_277:\n        /* \"#utility.yul\":26194:26198   */\n      0x00\n        /* \"#utility.yul\":26232:26234   */\n      0x20\n        /* \"#utility.yul\":26221:26230   */\n      dup3\n        /* \"#utility.yul\":26217:26235   */\n      add\n        /* \"#utility.yul\":26209:26235   */\n      swap1\n      pop\n        /* \"#utility.yul\":26281:26290   */\n      dup2\n        /* \"#utility.yul\":26275:26279   */\n      dup2\n        /* \"#utility.yul\":26271:26291   */\n      sub\n        /* \"#utility.yul\":26267:26268   */\n      0x00\n        /* \"#utility.yul\":26256:26265   */\n      dup4\n        /* \"#utility.yul\":26252:26269   */\n      add\n        /* \"#utility.yul\":26245:26292   */\n      mstore\n        /* \"#utility.yul\":26309:26440   */\n      tag_666\n        /* \"#utility.yul\":26435:26439   */\n      dup2\n        /* \"#utility.yul\":26309:26440   */\n      tag_414\n      jump\t// in\n    tag_666:\n        /* \"#utility.yul\":26301:26440   */\n      swap1\n      pop\n        /* \"#utility.yul\":26028:26447   */\n      swap2\n      swap1\n      pop\n      jump\t// out\n        /* \"#utility.yul\":26453:26690   */\n    tag_415:\n        /* \"#utility.yul\":26593:26627   */\n      0x4552433732313a207472616e7366657220746f206e6f6e204552433732315265\n        /* \"#utility.yul\":26589:26590   */\n      0x00\n        /* \"#utility.yul\":26581:26587   */\n      dup3\n        /* \"#utility.yul\":26577:26591   */\n      add\n        /* \"#utility.yul\":26570:26628   */\n      mstore\n        /* \"#utility.yul\":26662:26682   */\n      0x63656976657220696d706c656d656e7465720000000000000000000000000000\n        /* \"#utility.yul\":26657:26659   */\n      0x20\n        /* \"#utility.yul\":26649:26655   */\n      dup3\n        /* \"#utility.yul\":26645:26660   */\n      add\n        /* \"#utility.yul\":26638:26683   */\n      mstore\n        /* \"#utility.yul\":26453:26690   */\n      pop\n      jump\t// out\n        /* \"#utility.yul\":26696:27062   */\n    tag_416:\n        /* \"#utility.yul\":26838:26841   */\n      0x00\n        /* \"#utility.yul\":26859:26926   */\n      tag_669\n        /* \"#utility.yul\":26923:26925   */\n      0x32\n        /* \"#utility.yul\":26918:26921   */\n      dup4\n        /* \"#utility.yul\":26859:26926   */\n      tag_358\n      jump\t// in\n    tag_669:\n        /* \"#utility.yul\":26852:26926   */\n      swap2\n      pop\n        /* \"#utility.yul\":26935:27028   */\n      tag_670\n        /* \"#utility.yul\":27024:27027   */\n      dup3\n        /* \"#utility.yul\":26935:27028   */\n      tag_415\n      jump\t// in\n    tag_670:\n        /* \"#utility.yul\":27053:27055   */\n      0x40\n        /* \"#utility.yul\":27048:27051   */\n      dup3\n        /* \"#utility.yul\":27044:27056   */\n      add\n        /* \"#utility.yul\":27037:27056   */\n      swap1\n      pop\n        /* \"#utility.yul\":26696:27062   */\n      swap2\n      swap1\n      pop\n      jump\t// out\n        /* \"#utility.yul\":27068:27487   */\n    tag_285:\n        /* \"#utility.yul\":27234:27238   */\n      0x00\n        /* \"#utility.yul\":27272:27274   */\n      0x20\n        /* \"#utility.yul\":27261:27270   */\n      dup3\n        /* \"#utility.yul\":27257:27275   */\n      add\n        /* \"#utility.yul\":27249:27275   */\n      swap1\n      pop\n        /* \"#utility.yul\":27321:27330   */\n      dup2\n        /* \"#utility.yul\":27315:27319   */\n      dup2\n        /* \"#utility.yul\":27311:27331   */\n      sub\n        /* \"#utility.yul\":27307:27308   */\n      0x00\n        /* \"#utility.yul\":27296:27305   */\n      dup4\n        /* \"#utility.yul\":27292:27309   */\n      add\n        /* \"#utility.yul\":27285:27332   */\n      mstore\n        /* \"#utility.yul\":27349:27480   */\n      tag_672\n        /* \"#utility.yul\":27475:27479   */\n      dup2\n        /* \"#utility.yul\":27349:27480   */\n      tag_416\n      jump\t// in\n    tag_672:\n        /* \"#utility.yul\":27341:27480   */\n      swap1\n      pop\n        /* \"#utility.yul\":27068:27487   */\n      swap2\n      swap1\n      pop\n      jump\t// out\n        /* \"#utility.yul\":27493:27726   */\n    tag_292:\n        /* \"#utility.yul\":27532:27535   */\n      0x00\n        /* \"#utility.yul\":27555:27579   */\n      tag_674\n        /* \"#utility.yul\":27573:27578   */\n      dup3\n        /* \"#utility.yul\":27555:27579   */\n      tag_362\n      jump\t// in\n    tag_674:\n        /* \"#utility.yul\":27546:27579   */\n      swap2\n      pop\n        /* \"#utility.yul\":27601:27667   */\n      0xffffffffffffffffffffffffffffffffffffffffffffffffffffffffffffffff\n        /* \"#utility.yul\":27594:27599   */\n      dup3\n        /* \"#utility.yul\":27591:27668   */\n      sub\n        /* \"#utility.yul\":27588:27691   */\n      tag_675\n      jumpi\n        /* \"#utility.yul\":27671:27689   */\n      tag_676\n      tag_390\n      jump\t// in\n    tag_676:\n        /* \"#utility.yul\":27588:27691   */\n    tag_675:\n        /* \"#utility.yul\":27718:27719   */\n      0x01\n        /* \"#utility.yul\":27711:27716   */\n      dup3\n        /* \"#utility.yul\":27707:27720   */\n      add\n        /* \"#utility.yul\":27700:27720   */\n      swap1\n      pop\n        /* \"#utility.yul\":27493:27726   */\n      swap2\n      swap1\n      pop\n      jump\t// out\n        /* \"#utility.yul\":27732:27912   */\n    tag_417:\n        /* \"#utility.yul\":27780:27857   */\n      0x4e487b7100000000000000000000000000000000000000000000000000000000\n        /* \"#utility.yul\":27777:27778   */\n      0x00\n        /* \"#utility.yul\":27770:27858   */\n      mstore\n        /* \"#utility.yul\":27877:27881   */\n      0x12\n        /* \"#utility.yul\":27874:27875   */\n      0x04\n        /* \"#utility.yul\":27867:27882   */\n      mstore\n        /* \"#utility.yul\":27901:27905   */\n      0x24\n        /* \"#utility.yul\":27898:27899   */\n      0x00\n        /* \"#utility.yul\":27891:27906   */\n      revert\n        /* \"#utility.yul\":27918:28103   */\n    tag_294:\n        /* \"#utility.yul\":27958:27959   */\n      0x00\n        /* \"#utility.yul\":27975:27995   */\n      tag_679\n        /* \"#utility.yul\":27993:27994   */\n      dup3\n        /* \"#utility.yul\":27975:27995   */\n      tag_362\n      jump\t// in\n    tag_679:\n        /* \"#utility.yul\":27970:27995   */\n      swap2\n      pop\n        /* \"#utility.yul\":28009:28029   */\n      tag_680\n        /* \"#utility.yul\":28027:28028   */\n      dup4\n        /* \"#utility.yul\":28009:28029   */\n      tag_362\n      jump\t// in\n    tag_680:\n        /* \"#utility.yul\":28004:28029   */\n      swap3\n      pop\n        /* \"#utility.yul\":28048:28049   */\n      dup3\n        /* \"#utility.yul\":28038:28073   */\n      tag_681\n      jumpi\n        /* \"#utility.yul\":28053:28071   */\n      tag_682\n      tag_417\n      jump\t// in\n    tag_682:\n        /* \"#utility.yul\":28038:28073   */\n    tag_681:\n        /* \"#utility.yul\":28095:28096   */\n      dup3\n        /* \"#utility.yul\":28092:28093   */\n      dup3\n        /* \"#utility.yul\":28088:28097   */\n      div\n        /* \"#utility.yul\":28083:28097   */\n      swap1\n      pop\n        /* \"#utility.yul\":27918:28103   */\n      swap3\n      swap2\n      pop\n      pop\n      jump\t// out\n        /* \"#utility.yul\":28109:28285   */\n    tag_303:\n        /* \"#utility.yul\":28141:28142   */\n      0x00\n        /* \"#utility.yul\":28158:28178   */\n      tag_684\n        /* \"#utility.yul\":28176:28177   */\n      dup3\n        /* \"#utility.yul\":28158:28178   */\n      tag_362\n      jump\t// in\n    tag_684:\n        /* \"#utility.yul\":28153:28178   */\n      swap2\n      pop\n        /* \"#utility.yul\":28192:28212   */\n      tag_685\n        /* \"#utility.yul\":28210:28211   */\n      dup4\n        /* \"#utility.yul\":28192:28212   */\n      tag_362\n      jump\t// in\n    tag_685:\n        /* \"#utility.yul\":28187:28212   */\n      swap3\n      pop\n        /* \"#utility.yul\":28231:28232   */\n      dup3\n        /* \"#utility.yul\":28221:28256   */\n      tag_686\n      jumpi\n        /* \"#utility.yul\":28236:28254   */\n      tag_687\n      tag_417\n      jump\t// in\n    tag_687:\n        /* \"#utility.yul\":28221:28256   */\n    tag_686:\n        /* \"#utility.yul\":28277:28278   */\n      dup3\n        /* \"#utility.yul\":28274:28275   */\n      dup3\n        /* \"#utility.yul\":28270:28279   */\n      mod\n        /* \"#utility.yul\":28265:28279   */\n      swap1\n      pop\n        /* \"#utility.yul\":28109:28285   */\n      swap3\n      swap2\n      pop\n      pop\n      jump\t// out\n        /* \"#utility.yul\":28291:28471   */\n    tag_307:\n        /* \"#utility.yul\":28339:28416   */\n      0x4e487b7100000000000000000000000000000000000000000000000000000000\n        /* \"#utility.yul\":28336:28337   */\n      0x00\n        /* \"#utility.yul\":28329:28417   */\n      mstore\n        /* \"#utility.yul\":28436:28440   */\n      0x32\n        /* \"#utility.yul\":28433:28434   */\n      0x04\n        /* \"#utility.yul\":28426:28441   */\n      mstore\n        /* \"#utility.yul\":28460:28464   */\n      0x24\n        /* \"#utility.yul\":28457:28458   */\n      0x00\n        /* \"#utility.yul\":28450:28465   */\n      revert\n        /* \"#utility.yul\":28477:28575   */\n    tag_418:\n        /* \"#utility.yul\":28528:28534   */\n      0x00\n        /* \"#utility.yul\":28562:28567   */\n      dup2\n        /* \"#utility.yul\":28556:28568   */\n      mload\n        /* \"#utility.yul\":28546:28568   */\n      swap1\n      pop\n        /* \"#utility.yul\":28477:28575   */\n      swap2\n      swap1\n      pop\n      jump\t// out\n        /* \"#utility.yul\":28581:28749   */\n    tag_419:\n        /* \"#utility.yul\":28664:28675   */\n      0x00\n        /* \"#utility.yul\":28698:28704   */\n      dup3\n        /* \"#utility.yul\":28693:28696   */\n      dup3\n        /* \"#utility.yul\":28686:28705   */\n      mstore\n        /* \"#utility.yul\":28738:28742   */\n      0x20\n        /* \"#utility.yul\":28733:28736   */\n      dup3\n        /* \"#utility.yul\":28729:28743   */\n      add\n        /* \"#utility.yul\":28714:28743   */\n      swap1\n      pop\n        /* \"#utility.yul\":28581:28749   */\n      swap3\n      swap2\n      pop\n      pop\n      jump\t// out\n        /* \"#utility.yul\":28755:29115   */\n    tag_420:\n        /* \"#utility.yul\":28841:28844   */\n      0x00\n        /* \"#utility.yul\":28869:28907   */\n      tag_692\n        /* \"#utility.yul\":28901:28906   */\n      dup3\n        /* \"#utility.yul\":28869:28907   */\n      tag_418\n      jump\t// in\n    tag_692:\n        /* \"#utility.yul\":28923:28993   */\n      tag_693\n        /* \"#utility.yul\":28986:28992   */\n      dup2\n        /* \"#utility.yul\":28981:28984   */\n      dup6\n        /* \"#utility.yul\":28923:28993   */\n      tag_419\n      jump\t// in\n    tag_693:\n        /* \"#utility.yul\":28916:28993   */\n      swap4\n      pop\n        /* \"#utility.yul\":29002:29054   */\n      tag_694\n        /* \"#utility.yul\":29047:29053   */\n      dup2\n        /* \"#utility.yul\":29042:29045   */\n      dup6\n        /* \"#utility.yul\":29035:29039   */\n      0x20\n        /* \"#utility.yul\":29028:29033   */\n      dup7\n        /* \"#utility.yul\":29024:29040   */\n      add\n        /* \"#utility.yul\":29002:29054   */\n      tag_359\n      jump\t// in\n    tag_694:\n        /* \"#utility.yul\":29079:29108   */\n      tag_695\n        /* \"#utility.yul\":29101:29107   */\n      dup2\n        /* \"#utility.yul\":29079:29108   */\n      tag_360\n      jump\t// in\n    tag_695:\n        /* \"#utility.yul\":29074:29077   */\n      dup5\n        /* \"#utility.yul\":29070:29109   */\n      add\n        /* \"#utility.yul\":29063:29109   */\n      swap2\n      pop\n        /* \"#utility.yul\":28845:29115   */\n      pop\n        /* \"#utility.yul\":28755:29115   */\n      swap3\n      swap2\n      pop\n      pop\n      jump\t// out\n        /* \"#utility.yul\":29121:29761   */\n    tag_324:\n        /* \"#utility.yul\":29316:29320   */\n      0x00\n        /* \"#utility.yul\":29354:29357   */\n      0x80\n        /* \"#utility.yul\":29343:29352   */\n      dup3\n        /* \"#utility.yul\":29339:29358   */\n      add\n        /* \"#utility.yul\":29331:29358   */\n      swap1\n      pop\n        /* \"#utility.yul\":29368:29439   */\n      tag_697\n        /* \"#utility.yul\":29436:29437   */\n      0x00\n        /* \"#utility.yul\":29425:29434   */\n      dup4\n        /* \"#utility.yul\":29421:29438   */\n      add\n        /* \"#utility.yul\":29412:29418   */\n      dup8\n        /* \"#utility.yul\":29368:29439   */\n      tag_367\n      jump\t// in\n    tag_697:\n        /* \"#utility.yul\":29449:29521   */\n      tag_698\n        /* \"#utility.yul\":29517:29519   */\n      0x20\n        /* \"#utility.yul\":29506:29515   */\n      dup4\n        /* \"#utility.yul\":29502:29520   */\n      add\n        /* \"#utility.yul\":29493:29499   */\n      dup7\n        /* \"#utility.yul\":29449:29521   */\n      tag_367\n      jump\t// in\n    tag_698:\n        /* \"#utility.yul\":29531:29603   */\n      tag_699\n        /* \"#utility.yul\":29599:29601   */\n      0x40\n        /* \"#utility.yul\":29588:29597   */\n      dup4\n        /* \"#utility.yul\":29584:29602   */\n      add\n        /* \"#utility.yul\":29575:29581   */\n      dup6\n        /* \"#utility.yul\":29531:29603   */\n      tag_372\n      jump\t// in\n    tag_699:\n        /* \"#utility.yul\":29650:29659   */\n      dup2\n        /* \"#utility.yul\":29644:29648   */\n      dup2\n        /* \"#utility.yul\":29640:29660   */\n      sub\n        /* \"#utility.yul\":29635:29637   */\n      0x60\n        /* \"#utility.yul\":29624:29633   */\n      dup4\n        /* \"#utility.yul\":29620:29638   */\n      add\n        /* \"#utility.yul\":29613:29661   */\n      mstore\n        /* \"#utility.yul\":29678:29754   */\n      tag_700\n        /* \"#utility.yul\":29749:29753   */\n      dup2\n        /* \"#utility.yul\":29740:29746   */\n      dup5\n        /* \"#utility.yul\":29678:29754   */\n      tag_420\n      jump\t// in\n    tag_700:\n        /* \"#utility.yul\":29670:29754   */\n      swap1\n      pop\n        /* \"#utility.yul\":29121:29761   */\n      swap6\n      swap5\n      pop\n      pop\n      pop\n      pop\n      pop\n      jump\t// out\n        /* \"#utility.yul\":29767:29908   */\n    tag_421:\n        /* \"#utility.yul\":29823:29828   */\n      0x00\n        /* \"#utility.yul\":29854:29860   */\n      dup2\n        /* \"#utility.yul\":29848:29861   */\n      mload\n        /* \"#utility.yul\":29839:29861   */\n      swap1\n      pop\n        /* \"#utility.yul\":29870:29902   */\n      tag_702\n        /* \"#utility.yul\":29896:29901   */\n      dup2\n        /* \"#utility.yul\":29870:29902   */\n      tag_353\n      jump\t// in\n    tag_702:\n        /* \"#utility.yul\":29767:29908   */\n      swap3\n      swap2\n      pop\n      pop\n      jump\t// out\n        /* \"#utility.yul\":29914:30263   */\n    tag_327:\n        /* \"#utility.yul\":29983:29989   */\n      0x00\n        /* \"#utility.yul\":30032:30034   */\n      0x20\n        /* \"#utility.yul\":30020:30029   */\n      dup3\n        /* \"#utility.yul\":30011:30018   */\n      dup5\n        /* \"#utility.yul\":30007:30030   */\n      sub\n        /* \"#utility.yul\":30003:30035   */\n      slt\n        /* \"#utility.yul\":30000:30119   */\n      iszero\n      tag_704\n      jumpi\n        /* \"#utility.yul\":30038:30117   */\n      tag_705\n      tag_350\n      jump\t// in\n    tag_705:\n        /* \"#utility.yul\":30000:30119   */\n    tag_704:\n        /* \"#utility.yul\":30158:30159   */\n      0x00\n        /* \"#utility.yul\":30183:30246   */\n      tag_706\n        /* \"#utility.yul\":30238:30245   */\n      dup5\n        /* \"#utility.yul\":30229:30235   */\n      dup3\n        /* \"#utility.yul\":30218:30227   */\n      dup6\n        /* \"#utility.yul\":30214:30236   */\n      add\n        /* \"#utility.yul\":30183:30246   */\n      tag_421\n      jump\t// in\n    tag_706:\n        /* \"#utility.yul\":30173:30246   */\n      swap2\n      pop\n        /* \"#utility.yul\":30129:30256   */\n      pop\n        /* \"#utility.yul\":29914:30263   */\n      swap3\n      swap2\n      pop\n      pop\n      jump\t// out\n\n    auxdata: 0xa264697066735822122056716ac2c90c016301c797b943d15229689aca21ccee3dd0b1b1b80d5e34a61864736f6c634300080d0033\n}\n",
				"bytecode": {
					"linkReferences": {},
					"object": "60806040526000609760006101000a81548160ff021916908360ff1602179055506064609760016101000a81548160ff021916908360ff16021790555067016345785d8a000060985534801561005457600080fd5b50612c68806100646000396000f3fe6080604052600436106101145760003560e01c806370a08231116100a0578063b88d4fde11610064578063b88d4fde14610392578063c394f6cb146103bb578063c87b56dd146103e6578063e831574214610423578063e985e9c51461044e57610114565b806370a08231146102bf5780638129fc1c146102fc57806395d89b41146103135780639f181b5e1461033e578063a22cb4651461036957610114565b806323b872dd116100e757806323b872dd146101e75780632cabbfe21461021057806342842e0e1461023b5780634451d89f146102645780636352211e1461028257610114565b806301ffc9a71461011957806306fdde0314610156578063081812fc14610181578063095ea7b3146101be575b600080fd5b34801561012557600080fd5b50610140600480360381019061013b9190611ba3565b61048b565b60405161014d9190611beb565b60405180910390f35b34801561016257600080fd5b5061016b61056d565b6040516101789190611c9f565b60405180910390f35b34801561018d57600080fd5b506101a860048036038101906101a39190611cf7565b6105ff565b6040516101b59190611d65565b60405180910390f35b3480156101ca57600080fd5b506101e560048036038101906101e09190611dac565b610645565b005b3480156101f357600080fd5b5061020e60048036038101906102099190611dec565b61075c565b005b34801561021c57600080fd5b506102256107bc565b6040516102329190611e5b565b60405180910390f35b34801561024757600080fd5b50610262600480360381019061025d9190611dec565b6107d3565b005b61026c6107f3565b6040516102799190611beb565b60405180910390f35b34801561028e57600080fd5b506102a960048036038101906102a49190611cf7565b61089e565b6040516102b69190611d65565b60405180910390f35b3480156102cb57600080fd5b506102e660048036038101906102e19190611e76565b61094f565b6040516102f39190611eb2565b60405180910390f35b34801561030857600080fd5b50610311610a06565b005b34801561031f57600080fd5b50610328610bb0565b6040516103359190611c9f565b60405180910390f35b34801561034a57600080fd5b50610353610c42565b6040516103609190611e5b565b60405180910390f35b34801561037557600080fd5b50610390600480360381019061038b9190611ef9565b610c55565b005b34801561039e57600080fd5b506103b960048036038101906103b4919061206e565b610c6b565b005b3480156103c757600080fd5b506103d0610ccd565b6040516103dd9190611e5b565b60405180910390f35b3480156103f257600080fd5b5061040d60048036038101906104089190611cf7565b610cfe565b60405161041a9190611c9f565b60405180910390f35b34801561042f57600080fd5b50610438610d66565b6040516104459190611e5b565b60405180910390f35b34801561045a57600080fd5b50610475600480360381019061047091906120f1565b610d79565b6040516104829190611beb565b60405180910390f35b60007f80ac58cd000000000000000000000000000000000000000000000000000000007bffffffffffffffffffffffffffffffffffffffffffffffffffffffff1916827bffffffffffffffffffffffffffffffffffffffffffffffffffffffff1916148061055657507f5b5e139f000000000000000000000000000000000000000000000000000000007bffffffffffffffffffffffffffffffffffffffffffffffffffffffff1916827bffffffffffffffffffffffffffffffffffffffffffffffffffffffff1916145b80610566575061056582610e0d565b5b9050919050565b60606065805461057c90612160565b80601f01602080910402602001604051908101604052809291908181526020018280546105a890612160565b80156105f55780601f106105ca576101008083540402835291602001916105f5565b820191906000526020600020905b8154815290600101906020018083116105d857829003601f168201915b5050505050905090565b600061060a82610e77565b6069600083815260200190815260200160002060009054906101000a900473ffffffffffffffffffffffffffffffffffffffff169050919050565b60006106508261089e565b90508073ffffffffffffffffffffffffffffffffffffffff168373ffffffffffffffffffffffffffffffffffffffff16036106c0576040517f08c379a00000000000000000000000000000000000000000000000000000000081526004016106b790612203565b60405180910390fd5b8073ffffffffffffffffffffffffffffffffffffffff166106df610ec2565b73ffffffffffffffffffffffffffffffffffffffff16148061070e575061070d81610708610ec2565b610d79565b5b61074d576040517f08c379a000000000000000000000000000000000000000000000000000000000815260040161074490612295565b60405180910390fd5b6107578383610eca565b505050565b61076d610767610ec2565b82610f83565b6107ac576040517f08c379a00000000000000000000000000000000000000000000000000000000081526004016107a390612327565b60405180910390fd5b6107b7838383611018565b505050565b6000609760009054906101000a900460ff16905090565b6107ee83838360405180602001604052806000815250610c6b565b505050565b6000609854341461080357600080fd5b609760019054906101000a900460ff1660ff16609760009054906101000a900460ff1660ff1610801561083e5750600061083c3361094f565b145b156108975761085f33609760009054906101000a900460ff1660ff1661127e565b6001609760008282829054906101000a900460ff1661087e9190612376565b92506101000a81548160ff021916908360ff1602179055505b6001905090565b6000806067600084815260200190815260200160002060009054906101000a900473ffffffffffffffffffffffffffffffffffffffff169050600073ffffffffffffffffffffffffffffffffffffffff168173ffffffffffffffffffffffffffffffffffffffff1603610946576040517f08c379a000000000000000000000000000000000000000000000000000000000815260040161093d906123f9565b60405180910390fd5b80915050919050565b60008073ffffffffffffffffffffffffffffffffffffffff168273ffffffffffffffffffffffffffffffffffffffff16036109bf576040517f08c379a00000000000000000000000000000000000000000000000000000000081526004016109b69061248b565b60405180910390fd5b606860008373ffffffffffffffffffffffffffffffffffffffff1673ffffffffffffffffffffffffffffffffffffffff168152602001908152602001600020549050919050565b60008060019054906101000a900460ff16159050808015610a375750600160008054906101000a900460ff1660ff16105b80610a645750610a4630611457565b158015610a635750600160008054906101000a900460ff1660ff16145b5b610aa3576040517f08c379a0000000000000000000000000000000000000000000000000000000008152600401610a9a9061251d565b60405180910390fd5b60016000806101000a81548160ff021916908360ff1602179055508015610ae0576001600060016101000a81548160ff0219169083151502179055505b610b546040518060400160405280600781526020017f47617465417070000000000000000000000000000000000000000000000000008152506040518060400160405280600281526020017f474100000000000000000000000000000000000000000000000000000000000081525061147a565b8015610bad5760008060016101000a81548160ff0219169083151502179055507f7f26b83ff96e1f2b6a682f133852f6798a09c465da95921460cefb38474024986001604051610ba49190612582565b60405180910390a15b50565b606060668054610bbf90612160565b80601f0160208091040260200160405190810160405280929190818152602001828054610beb90612160565b8015610c385780601f10610c0d57610100808354040283529160200191610c38565b820191906000526020600020905b815481529060010190602001808311610c1b57829003601f168201915b5050505050905090565b609760009054906101000a900460ff1681565b610c67610c60610ec2565b83836114d7565b5050565b610c7c610c76610ec2565b83610f83565b610cbb576040517f08c379a0000000000000000000000000000000000000000000000000000000008152600401610cb290612327565b60405180910390fd5b610cc784848484611643565b50505050565b6000609760009054906101000a900460ff16609760019054906101000a900460ff16610cf9919061259d565b905090565b6060610d0982610e77565b6000610d1361169f565b90506000815111610d335760405180602001604052806000815250610d5e565b80610d3d846116b6565b604051602001610d4e92919061260d565b6040516020818303038152906040525b915050919050565b609760019054906101000a900460ff1681565b6000606a60008473ffffffffffffffffffffffffffffffffffffffff1673ffffffffffffffffffffffffffffffffffffffff16815260200190815260200160002060008373ffffffffffffffffffffffffffffffffffffffff1673ffffffffffffffffffffffffffffffffffffffff16815260200190815260200160002060009054906101000a900460ff16905092915050565b60007f01ffc9a7000000000000000000000000000000000000000000000000000000007bffffffffffffffffffffffffffffffffffffffffffffffffffffffff1916827bffffffffffffffffffffffffffffffffffffffffffffffffffffffff1916149050919050565b610e8081611816565b610ebf576040517f08c379a0000000000000000000000000000000000000000000000000000000008152600401610eb6906123f9565b60405180910390fd5b50565b600033905090565b816069600083815260200190815260200160002060006101000a81548173ffffffffffffffffffffffffffffffffffffffff021916908373ffffffffffffffffffffffffffffffffffffffff160217905550808273ffffffffffffffffffffffffffffffffffffffff16610f3d8361089e565b73ffffffffffffffffffffffffffffffffffffffff167f8c5be1e5ebec7d5bd14f71427d1e84f3dd0314c0f7b2291e5b200ac8c7c3b92560405160405180910390a45050565b600080610f8f8361089e565b90508073ffffffffffffffffffffffffffffffffffffffff168473ffffffffffffffffffffffffffffffffffffffff161480610fd15750610fd08185610d79565b5b8061100f57508373ffffffffffffffffffffffffffffffffffffffff16610ff7846105ff565b73ffffffffffffffffffffffffffffffffffffffff16145b91505092915050565b8273ffffffffffffffffffffffffffffffffffffffff166110388261089e565b73ffffffffffffffffffffffffffffffffffffffff161461108e576040517f08c379a0000000000000000000000000000000000000000000000000000000008152600401611085906126a3565b60405180910390fd5b600073ffffffffffffffffffffffffffffffffffffffff168273ffffffffffffffffffffffffffffffffffffffff16036110fd576040517f08c379a00000000000000000000000000000000000000000000000000000000081526004016110f490612735565b60405180910390fd5b611108838383611882565b611113600082610eca565b6001606860008573ffffffffffffffffffffffffffffffffffffffff1673ffffffffffffffffffffffffffffffffffffffff16815260200190815260200160002060008282546111639190612755565b925050819055506001606860008473ffffffffffffffffffffffffffffffffffffffff1673ffffffffffffffffffffffffffffffffffffffff16815260200190815260200160002060008282546111ba9190612789565b92505081905550816067600083815260200190815260200160002060006101000a81548173ffffffffffffffffffffffffffffffffffffffff021916908373ffffffffffffffffffffffffffffffffffffffff160217905550808273ffffffffffffffffffffffffffffffffffffffff168473ffffffffffffffffffffffffffffffffffffffff167fddf252ad1be2c89b69c2b068fc378daa952ba7f163c4a11628f55a4df523b3ef60405160405180910390a4611279838383611887565b505050565b600073ffffffffffffffffffffffffffffffffffffffff168273ffffffffffffffffffffffffffffffffffffffff16036112ed576040517f08c379a00000000000000000000000000000000000000000000000000000000081526004016112e49061282b565b60405180910390fd5b6112f681611816565b15611336576040517f08c379a000000000000000000000000000000000000000000000000000000000815260040161132d90612897565b60405180910390fd5b61134260008383611882565b6001606860008473ffffffffffffffffffffffffffffffffffffffff1673ffffffffffffffffffffffffffffffffffffffff16815260200190815260200160002060008282546113929190612789565b92505081905550816067600083815260200190815260200160002060006101000a81548173ffffffffffffffffffffffffffffffffffffffff021916908373ffffffffffffffffffffffffffffffffffffffff160217905550808273ffffffffffffffffffffffffffffffffffffffff16600073ffffffffffffffffffffffffffffffffffffffff167fddf252ad1be2c89b69c2b068fc378daa952ba7f163c4a11628f55a4df523b3ef60405160405180910390a461145360008383611887565b5050565b6000808273ffffffffffffffffffffffffffffffffffffffff163b119050919050565b600060019054906101000a900460ff166114c9576040517f08c379a00000000000000000000000000000000000000000000000000000000081526004016114c090612929565b60405180910390fd5b6114d3828261188c565b5050565b8173ffffffffffffffffffffffffffffffffffffffff168373ffffffffffffffffffffffffffffffffffffffff1603611545576040517f08c379a000000000000000000000000000000000000000000000000000000000815260040161153c90612995565b60405180910390fd5b80606a60008573ffffffffffffffffffffffffffffffffffffffff1673ffffffffffffffffffffffffffffffffffffffff16815260200190815260200160002060008473ffffffffffffffffffffffffffffffffffffffff1673ffffffffffffffffffffffffffffffffffffffff16815260200190815260200160002060006101000a81548160ff0219169083151502179055508173ffffffffffffffffffffffffffffffffffffffff168373ffffffffffffffffffffffffffffffffffffffff167f17307eab39ab6107e8899845ad3d59bd9653f200f220920489ca2b5937696c31836040516116369190611beb565b60405180910390a3505050565b61164e848484611018565b61165a8484848461190d565b611699576040517f08c379a000000000000000000000000000000000000000000000000000000000815260040161169090612a27565b60405180910390fd5b50505050565b606060405180602001604052806000815250905090565b6060600082036116fd576040518060400160405280600181526020017f30000000000000000000000000000000000000000000000000000000000000008152509050611811565b600082905060005b6000821461172f57808061171890612a47565b915050600a826117289190612abe565b9150611705565b60008167ffffffffffffffff81111561174b5761174a611f43565b5b6040519080825280601f01601f19166020018201604052801561177d5781602001600182028036833780820191505090505b5090505b6000851461180a576001826117969190612755565b9150600a856117a59190612aef565b60306117b19190612789565b60f81b8183815181106117c7576117c6612b20565b5b60200101907effffffffffffffffffffffffffffffffffffffffffffffffffffffffffffff1916908160001a905350600a856118039190612abe565b9450611781565b8093505050505b919050565b60008073ffffffffffffffffffffffffffffffffffffffff166067600084815260200190815260200160002060009054906101000a900473ffffffffffffffffffffffffffffffffffffffff1673ffffffffffffffffffffffffffffffffffffffff1614159050919050565b505050565b505050565b600060019054906101000a900460ff166118db576040517f08c379a00000000000000000000000000000000000000000000000000000000081526004016118d290612929565b60405180910390fd5b81606590805190602001906118f1929190611a94565b508060669080519060200190611908929190611a94565b505050565b600061192e8473ffffffffffffffffffffffffffffffffffffffff16611457565b15611a87578373ffffffffffffffffffffffffffffffffffffffff1663150b7a02611957610ec2565b8786866040518563ffffffff1660e01b81526004016119799493929190612ba4565b6020604051808303816000875af19250505080156119b557506040513d601f19601f820116820180604052508101906119b29190612c05565b60015b611a37573d80600081146119e5576040519150601f19603f3d011682016040523d82523d6000602084013e6119ea565b606091505b506000815103611a2f576040517f08c379a0000000000000000000000000000000000000000000000000000000008152600401611a2690612a27565b60405180910390fd5b805181602001fd5b63150b7a0260e01b7bffffffffffffffffffffffffffffffffffffffffffffffffffffffff1916817bffffffffffffffffffffffffffffffffffffffffffffffffffffffff191614915050611a8c565b600190505b949350505050565b828054611aa090612160565b90600052602060002090601f016020900481019282611ac25760008555611b09565b82601f10611adb57805160ff1916838001178555611b09565b82800160010185558215611b09579182015b82811115611b08578251825591602001919060010190611aed565b5b509050611b169190611b1a565b5090565b5b80821115611b33576000816000905550600101611b1b565b5090565b6000604051905090565b600080fd5b600080fd5b60007fffffffff0000000000000000000000000000000000000000000000000000000082169050919050565b611b8081611b4b565b8114611b8b57600080fd5b50565b600081359050611b9d81611b77565b92915050565b600060208284031215611bb957611bb8611b41565b5b6000611bc784828501611b8e565b91505092915050565b60008115159050919050565b611be581611bd0565b82525050565b6000602082019050611c006000830184611bdc565b92915050565b600081519050919050565b600082825260208201905092915050565b60005b83811015611c40578082015181840152602081019050611c25565b83811115611c4f576000848401525b50505050565b6000601f19601f8301169050919050565b6000611c7182611c06565b611c7b8185611c11565b9350611c8b818560208601611c22565b611c9481611c55565b840191505092915050565b60006020820190508181036000830152611cb98184611c66565b905092915050565b6000819050919050565b611cd481611cc1565b8114611cdf57600080fd5b50565b600081359050611cf181611ccb565b92915050565b600060208284031215611d0d57611d0c611b41565b5b6000611d1b84828501611ce2565b91505092915050565b600073ffffffffffffffffffffffffffffffffffffffff82169050919050565b6000611d4f82611d24565b9050919050565b611d5f81611d44565b82525050565b6000602082019050611d7a6000830184611d56565b92915050565b611d8981611d44565b8114611d9457600080fd5b50565b600081359050611da681611d80565b92915050565b60008060408385031215611dc357611dc2611b41565b5b6000611dd185828601611d97565b9250506020611de285828601611ce2565b9150509250929050565b600080600060608486031215611e0557611e04611b41565b5b6000611e1386828701611d97565b9350506020611e2486828701611d97565b9250506040611e3586828701611ce2565b9150509250925092565b600060ff82169050919050565b611e5581611e3f565b82525050565b6000602082019050611e706000830184611e4c565b92915050565b600060208284031215611e8c57611e8b611b41565b5b6000611e9a84828501611d97565b91505092915050565b611eac81611cc1565b82525050565b6000602082019050611ec76000830184611ea3565b92915050565b611ed681611bd0565b8114611ee157600080fd5b50565b600081359050611ef381611ecd565b92915050565b60008060408385031215611f1057611f0f611b41565b5b6000611f1e85828601611d97565b9250506020611f2f85828601611ee4565b9150509250929050565b600080fd5b600080fd5b7f4e487b7100000000000000000000000000000000000000000000000000000000600052604160045260246000fd5b611f7b82611c55565b810181811067ffffffffffffffff82111715611f9a57611f99611f43565b5b80604052505050565b6000611fad611b37565b9050611fb98282611f72565b919050565b600067ffffffffffffffff821115611fd957611fd8611f43565b5b611fe282611c55565b9050602081019050919050565b82818337600083830152505050565b600061201161200c84611fbe565b611fa3565b90508281526020810184848401111561202d5761202c611f3e565b5b612038848285611fef565b509392505050565b600082601f83011261205557612054611f39565b5b8135612065848260208601611ffe565b91505092915050565b6000806000806080858703121561208857612087611b41565b5b600061209687828801611d97565b94505060206120a787828801611d97565b93505060406120b887828801611ce2565b925050606085013567ffffffffffffffff8111156120d9576120d8611b46565b5b6120e587828801612040565b91505092959194509250565b6000806040838503121561210857612107611b41565b5b600061211685828601611d97565b925050602061212785828601611d97565b9150509250929050565b7f4e487b7100000000000000000000000000000000000000000000000000000000600052602260045260246000fd5b6000600282049050600182168061217857607f821691505b60208210810361218b5761218a612131565b5b50919050565b7f4552433732313a20617070726f76616c20746f2063757272656e74206f776e6560008201527f7200000000000000000000000000000000000000000000000000000000000000602082015250565b60006121ed602183611c11565b91506121f882612191565b604082019050919050565b6000602082019050818103600083015261221c816121e0565b9050919050565b7f4552433732313a20617070726f76652063616c6c6572206973206e6f7420746f60008201527f6b656e206f776e6572206e6f7220617070726f76656420666f7220616c6c0000602082015250565b600061227f603e83611c11565b915061228a82612223565b604082019050919050565b600060208201905081810360008301526122ae81612272565b9050919050565b7f4552433732313a2063616c6c6572206973206e6f7420746f6b656e206f776e6560008201527f72206e6f7220617070726f766564000000000000000000000000000000000000602082015250565b6000612311602e83611c11565b915061231c826122b5565b604082019050919050565b6000602082019050818103600083015261234081612304565b9050919050565b7f4e487b7100000000000000000000000000000000000000000000000000000000600052601160045260246000fd5b600061238182611e3f565b915061238c83611e3f565b92508260ff038211156123a2576123a1612347565b5b828201905092915050565b7f4552433732313a20696e76616c696420746f6b656e2049440000000000000000600082015250565b60006123e3601883611c11565b91506123ee826123ad565b602082019050919050565b60006020820190508181036000830152612412816123d6565b9050919050565b7f4552433732313a2061646472657373207a65726f206973206e6f74206120766160008201527f6c6964206f776e65720000000000000000000000000000000000000000000000602082015250565b6000612475602983611c11565b915061248082612419565b604082019050919050565b600060208201905081810360008301526124a481612468565b9050919050565b7f496e697469616c697a61626c653a20636f6e747261637420697320616c72656160008201527f647920696e697469616c697a6564000000000000000000000000000000000000602082015250565b6000612507602e83611c11565b9150612512826124ab565b604082019050919050565b60006020820190508181036000830152612536816124fa565b9050919050565b6000819050919050565b6000819050919050565b600061256c6125676125628461253d565b612547565b611e3f565b9050919050565b61257c81612551565b82525050565b60006020820190506125976000830184612573565b92915050565b60006125a882611e3f565b91506125b383611e3f565b9250828210156125c6576125c5612347565b5b828203905092915050565b600081905092915050565b60006125e782611c06565b6125f181856125d1565b9350612601818560208601611c22565b80840191505092915050565b600061261982856125dc565b915061262582846125dc565b91508190509392505050565b7f4552433732313a207472616e736665722066726f6d20696e636f72726563742060008201527f6f776e6572000000000000000000000000000000000000000000000000000000602082015250565b600061268d602583611c11565b915061269882612631565b604082019050919050565b600060208201905081810360008301526126bc81612680565b9050919050565b7f4552433732313a207472616e7366657220746f20746865207a65726f2061646460008201527f7265737300000000000000000000000000000000000000000000000000000000602082015250565b600061271f602483611c11565b915061272a826126c3565b604082019050919050565b6000602082019050818103600083015261274e81612712565b9050919050565b600061276082611cc1565b915061276b83611cc1565b92508282101561277e5761277d612347565b5b828203905092915050565b600061279482611cc1565b915061279f83611cc1565b9250827fffffffffffffffffffffffffffffffffffffffffffffffffffffffffffffffff038211156127d4576127d3612347565b5b828201905092915050565b7f4552433732313a206d696e7420746f20746865207a65726f2061646472657373600082015250565b6000612815602083611c11565b9150612820826127df565b602082019050919050565b6000602082019050818103600083015261284481612808565b9050919050565b7f4552433732313a20746f6b656e20616c7265616479206d696e74656400000000600082015250565b6000612881601c83611c11565b915061288c8261284b565b602082019050919050565b600060208201905081810360008301526128b081612874565b9050919050565b7f496e697469616c697a61626c653a20636f6e7472616374206973206e6f74206960008201527f6e697469616c697a696e67000000000000000000000000000000000000000000602082015250565b6000612913602b83611c11565b915061291e826128b7565b604082019050919050565b6000602082019050818103600083015261294281612906565b9050919050565b7f4552433732313a20617070726f766520746f2063616c6c657200000000000000600082015250565b600061297f601983611c11565b915061298a82612949565b602082019050919050565b600060208201905081810360008301526129ae81612972565b9050919050565b7f4552433732313a207472616e7366657220746f206e6f6e20455243373231526560008201527f63656976657220696d706c656d656e7465720000000000000000000000000000602082015250565b6000612a11603283611c11565b9150612a1c826129b5565b604082019050919050565b60006020820190508181036000830152612a4081612a04565b9050919050565b6000612a5282611cc1565b91507fffffffffffffffffffffffffffffffffffffffffffffffffffffffffffffffff8203612a8457612a83612347565b5b600182019050919050565b7f4e487b7100000000000000000000000000000000000000000000000000000000600052601260045260246000fd5b6000612ac982611cc1565b9150612ad483611cc1565b925082612ae457612ae3612a8f565b5b828204905092915050565b6000612afa82611cc1565b9150612b0583611cc1565b925082612b1557612b14612a8f565b5b828206905092915050565b7f4e487b7100000000000000000000000000000000000000000000000000000000600052603260045260246000fd5b600081519050919050565b600082825260208201905092915050565b6000612b7682612b4f565b612b808185612b5a565b9350612b90818560208601611c22565b612b9981611c55565b840191505092915050565b6000608082019050612bb96000830187611d56565b612bc66020830186611d56565b612bd36040830185611ea3565b8181036060830152612be58184612b6b565b905095945050505050565b600081519050612bff81611b77565b92915050565b600060208284031215612c1b57612c1a611b41565b5b6000612c2984828501612bf0565b9150509291505056fea264697066735822122056716ac2c90c016301c797b943d15229689aca21ccee3dd0b1b1b80d5e34a61864736f6c634300080d0033",
					"opcodes": "PUSH1 0x80 PUSH1 0x40 MSTORE PUSH1 0x0 PUSH1 0x97 PUSH1 0x0 PUSH2 0x100 EXP DUP2 SLOAD DUP2 PUSH1 0xFF MUL NOT AND SWAP1 DUP4 PUSH1 0xFF AND MUL OR SWAP1 SSTORE POP PUSH1 0x64 PUSH1 0x97 PUSH1 0x1 PUSH2 0x100 EXP DUP2 SLOAD DUP2 PUSH1 0xFF MUL NOT AND SWAP1 DUP4 PUSH1 0xFF AND MUL OR SWAP1 SSTORE POP PUSH8 0x16345785D8A0000 PUSH1 0x98 SSTORE CALLVALUE DUP1 ISZERO PUSH2 0x54 JUMPI PUSH1 0x0 DUP1 REVERT JUMPDEST POP PUSH2 0x2C68 DUP1 PUSH2 0x64 PUSH1 0x0 CODECOPY PUSH1 0x0 RETURN INVALID PUSH1 0x80 PUSH1 0x40 MSTORE PUSH1 0x4 CALLDATASIZE LT PUSH2 0x114 JUMPI PUSH1 0x0 CALLDATALOAD PUSH1 0xE0 SHR DUP1 PUSH4 0x70A08231 GT PUSH2 0xA0 JUMPI DUP1 PUSH4 0xB88D4FDE GT PUSH2 0x64 JUMPI DUP1 PUSH4 0xB88D4FDE EQ PUSH2 0x392 JUMPI DUP1 PUSH4 0xC394F6CB EQ PUSH2 0x3BB JUMPI DUP1 PUSH4 0xC87B56DD EQ PUSH2 0x3E6 JUMPI DUP1 PUSH4 0xE8315742 EQ PUSH2 0x423 JUMPI DUP1 PUSH4 0xE985E9C5 EQ PUSH2 0x44E JUMPI PUSH2 0x114 JUMP JUMPDEST DUP1 PUSH4 0x70A08231 EQ PUSH2 0x2BF JUMPI DUP1 PUSH4 0x8129FC1C EQ PUSH2 0x2FC JUMPI DUP1 PUSH4 0x95D89B41 EQ PUSH2 0x313 JUMPI DUP1 PUSH4 0x9F181B5E EQ PUSH2 0x33E JUMPI DUP1 PUSH4 0xA22CB465 EQ PUSH2 0x369 JUMPI PUSH2 0x114 JUMP JUMPDEST DUP1 PUSH4 0x23B872DD GT PUSH2 0xE7 JUMPI DUP1 PUSH4 0x23B872DD EQ PUSH2 0x1E7 JUMPI DUP1 PUSH4 0x2CABBFE2 EQ PUSH2 0x210 JUMPI DUP1 PUSH4 0x42842E0E EQ PUSH2 0x23B JUMPI DUP1 PUSH4 0x4451D89F EQ PUSH2 0x264 JUMPI DUP1 PUSH4 0x6352211E EQ PUSH2 0x282 JUMPI PUSH2 0x114 JUMP JUMPDEST DUP1 PUSH4 0x1FFC9A7 EQ PUSH2 0x119 JUMPI DUP1 PUSH4 0x6FDDE03 EQ PUSH2 0x156 JUMPI DUP1 PUSH4 0x81812FC EQ PUSH2 0x181 JUMPI DUP1 PUSH4 0x95EA7B3 EQ PUSH2 0x1BE JUMPI JUMPDEST PUSH1 0x0 DUP1 REVERT JUMPDEST CALLVALUE DUP1 ISZERO PUSH2 0x125 JUMPI PUSH1 0x0 DUP1 REVERT JUMPDEST POP PUSH2 0x140 PUSH1 0x4 DUP1 CALLDATASIZE SUB DUP2 ADD SWAP1 PUSH2 0x13B SWAP2 SWAP1 PUSH2 0x1BA3 JUMP JUMPDEST PUSH2 0x48B JUMP JUMPDEST PUSH1 0x40 MLOAD PUSH2 0x14D SWAP2 SWAP1 PUSH2 0x1BEB JUMP JUMPDEST PUSH1 0x40 MLOAD DUP1 SWAP2 SUB SWAP1 RETURN JUMPDEST CALLVALUE DUP1 ISZERO PUSH2 0x162 JUMPI PUSH1 0x0 DUP1 REVERT JUMPDEST POP PUSH2 0x16B PUSH2 0x56D JUMP JUMPDEST PUSH1 0x40 MLOAD PUSH2 0x178 SWAP2 SWAP1 PUSH2 0x1C9F JUMP JUMPDEST PUSH1 0x40 MLOAD DUP1 SWAP2 SUB SWAP1 RETURN JUMPDEST CALLVALUE DUP1 ISZERO PUSH2 0x18D JUMPI PUSH1 0x0 DUP1 REVERT JUMPDEST POP PUSH2 0x1A8 PUSH1 0x4 DUP1 CALLDATASIZE SUB DUP2 ADD SWAP1 PUSH2 0x1A3 SWAP2 SWAP1 PUSH2 0x1CF7 JUMP JUMPDEST PUSH2 0x5FF JUMP JUMPDEST PUSH1 0x40 MLOAD PUSH2 0x1B5 SWAP2 SWAP1 PUSH2 0x1D65 JUMP JUMPDEST PUSH1 0x40 MLOAD DUP1 SWAP2 SUB SWAP1 RETURN JUMPDEST CALLVALUE DUP1 ISZERO PUSH2 0x1CA JUMPI PUSH1 0x0 DUP1 REVERT JUMPDEST POP PUSH2 0x1E5 PUSH1 0x4 DUP1 CALLDATASIZE SUB DUP2 ADD SWAP1 PUSH2 0x1E0 SWAP2 SWAP1 PUSH2 0x1DAC JUMP JUMPDEST PUSH2 0x645 JUMP JUMPDEST STOP JUMPDEST CALLVALUE DUP1 ISZERO PUSH2 0x1F3 JUMPI PUSH1 0x0 DUP1 REVERT JUMPDEST POP PUSH2 0x20E PUSH1 0x4 DUP1 CALLDATASIZE SUB DUP2 ADD SWAP1 PUSH2 0x209 SWAP2 SWAP1 PUSH2 0x1DEC JUMP JUMPDEST PUSH2 0x75C JUMP JUMPDEST STOP JUMPDEST CALLVALUE DUP1 ISZERO PUSH2 0x21C JUMPI PUSH1 0x0 DUP1 REVERT JUMPDEST POP PUSH2 0x225 PUSH2 0x7BC JUMP JUMPDEST PUSH1 0x40 MLOAD PUSH2 0x232 SWAP2 SWAP1 PUSH2 0x1E5B JUMP JUMPDEST PUSH1 0x40 MLOAD DUP1 SWAP2 SUB SWAP1 RETURN JUMPDEST CALLVALUE DUP1 ISZERO PUSH2 0x247 JUMPI PUSH1 0x0 DUP1 REVERT JUMPDEST POP PUSH2 0x262 PUSH1 0x4 DUP1 CALLDATASIZE SUB DUP2 ADD SWAP1 PUSH2 0x25D SWAP2 SWAP1 PUSH2 0x1DEC JUMP JUMPDEST PUSH2 0x7D3 JUMP JUMPDEST STOP JUMPDEST PUSH2 0x26C PUSH2 0x7F3 JUMP JUMPDEST PUSH1 0x40 MLOAD PUSH2 0x279 SWAP2 SWAP1 PUSH2 0x1BEB JUMP JUMPDEST PUSH1 0x40 MLOAD DUP1 SWAP2 SUB SWAP1 RETURN JUMPDEST CALLVALUE DUP1 ISZERO PUSH2 0x28E JUMPI PUSH1 0x0 DUP1 REVERT JUMPDEST POP PUSH2 0x2A9 PUSH1 0x4 DUP1 CALLDATASIZE SUB DUP2 ADD SWAP1 PUSH2 0x2A4 SWAP2 SWAP1 PUSH2 0x1CF7 JUMP JUMPDEST PUSH2 0x89E JUMP JUMPDEST PUSH1 0x40 MLOAD PUSH2 0x2B6 SWAP2 SWAP1 PUSH2 0x1D65 JUMP JUMPDEST PUSH1 0x40 MLOAD DUP1 SWAP2 SUB SWAP1 RETURN JUMPDEST CALLVALUE DUP1 ISZERO PUSH2 0x2CB JUMPI PUSH1 0x0 DUP1 REVERT JUMPDEST POP PUSH2 0x2E6 PUSH1 0x4 DUP1 CALLDATASIZE SUB DUP2 ADD SWAP1 PUSH2 0x2E1 SWAP2 SWAP1 PUSH2 0x1E76 JUMP JUMPDEST PUSH2 0x94F JUMP JUMPDEST PUSH1 0x40 MLOAD PUSH2 0x2F3 SWAP2 SWAP1 PUSH2 0x1EB2 JUMP JUMPDEST PUSH1 0x40 MLOAD DUP1 SWAP2 SUB SWAP1 RETURN JUMPDEST CALLVALUE DUP1 ISZERO PUSH2 0x308 JUMPI PUSH1 0x0 DUP1 REVERT JUMPDEST POP PUSH2 0x311 PUSH2 0xA06 JUMP JUMPDEST STOP JUMPDEST CALLVALUE DUP1 ISZERO PUSH2 0x31F JUMPI PUSH1 0x0 DUP1 REVERT JUMPDEST POP PUSH2 0x328 PUSH2 0xBB0 JUMP JUMPDEST PUSH1 0x40 MLOAD PUSH2 0x335 SWAP2 SWAP1 PUSH2 0x1C9F JUMP JUMPDEST PUSH1 0x40 MLOAD DUP1 SWAP2 SUB SWAP1 RETURN JUMPDEST CALLVALUE DUP1 ISZERO PUSH2 0x34A JUMPI PUSH1 0x0 DUP1 REVERT JUMPDEST POP PUSH2 0x353 PUSH2 0xC42 JUMP JUMPDEST PUSH1 0x40 MLOAD PUSH2 0x360 SWAP2 SWAP1 PUSH2 0x1E5B JUMP JUMPDEST PUSH1 0x40 MLOAD DUP1 SWAP2 SUB SWAP1 RETURN JUMPDEST CALLVALUE DUP1 ISZERO PUSH2 0x375 JUMPI PUSH1 0x0 DUP1 REVERT JUMPDEST POP PUSH2 0x390 PUSH1 0x4 DUP1 CALLDATASIZE SUB DUP2 ADD SWAP1 PUSH2 0x38B SWAP2 SWAP1 PUSH2 0x1EF9 JUMP JUMPDEST PUSH2 0xC55 JUMP JUMPDEST STOP JUMPDEST CALLVALUE DUP1 ISZERO PUSH2 0x39E JUMPI PUSH1 0x0 DUP1 REVERT JUMPDEST POP PUSH2 0x3B9 PUSH1 0x4 DUP1 CALLDATASIZE SUB DUP2 ADD SWAP1 PUSH2 0x3B4 SWAP2 SWAP1 PUSH2 0x206E JUMP JUMPDEST PUSH2 0xC6B JUMP JUMPDEST STOP JUMPDEST CALLVALUE DUP1 ISZERO PUSH2 0x3C7 JUMPI PUSH1 0x0 DUP1 REVERT JUMPDEST POP PUSH2 0x3D0 PUSH2 0xCCD JUMP JUMPDEST PUSH1 0x40 MLOAD PUSH2 0x3DD SWAP2 SWAP1 PUSH2 0x1E5B JUMP JUMPDEST PUSH1 0x40 MLOAD DUP1 SWAP2 SUB SWAP1 RETURN JUMPDEST CALLVALUE DUP1 ISZERO PUSH2 0x3F2 JUMPI PUSH1 0x0 DUP1 REVERT JUMPDEST POP PUSH2 0x40D PUSH1 0x4 DUP1 CALLDATASIZE SUB DUP2 ADD SWAP1 PUSH2 0x408 SWAP2 SWAP1 PUSH2 0x1CF7 JUMP JUMPDEST PUSH2 0xCFE JUMP JUMPDEST PUSH1 0x40 MLOAD PUSH2 0x41A SWAP2 SWAP1 PUSH2 0x1C9F JUMP JUMPDEST PUSH1 0x40 MLOAD DUP1 SWAP2 SUB SWAP1 RETURN JUMPDEST CALLVALUE DUP1 ISZERO PUSH2 0x42F JUMPI PUSH1 0x0 DUP1 REVERT JUMPDEST POP PUSH2 0x438 PUSH2 0xD66 JUMP JUMPDEST PUSH1 0x40 MLOAD PUSH2 0x445 SWAP2 SWAP1 PUSH2 0x1E5B JUMP JUMPDEST PUSH1 0x40 MLOAD DUP1 SWAP2 SUB SWAP1 RETURN JUMPDEST CALLVALUE DUP1 ISZERO PUSH2 0x45A JUMPI PUSH1 0x0 DUP1 REVERT JUMPDEST POP PUSH2 0x475 PUSH1 0x4 DUP1 CALLDATASIZE SUB DUP2 ADD SWAP1 PUSH2 0x470 SWAP2 SWAP1 PUSH2 0x20F1 JUMP JUMPDEST PUSH2 0xD79 JUMP JUMPDEST PUSH1 0x40 MLOAD PUSH2 0x482 SWAP2 SWAP1 PUSH2 0x1BEB JUMP JUMPDEST PUSH1 0x40 MLOAD DUP1 SWAP2 SUB SWAP1 RETURN JUMPDEST PUSH1 0x0 PUSH32 0x80AC58CD00000000000000000000000000000000000000000000000000000000 PUSH28 0xFFFFFFFFFFFFFFFFFFFFFFFFFFFFFFFFFFFFFFFFFFFFFFFFFFFFFFFF NOT AND DUP3 PUSH28 0xFFFFFFFFFFFFFFFFFFFFFFFFFFFFFFFFFFFFFFFFFFFFFFFFFFFFFFFF NOT AND EQ DUP1 PUSH2 0x556 JUMPI POP PUSH32 0x5B5E139F00000000000000000000000000000000000000000000000000000000 PUSH28 0xFFFFFFFFFFFFFFFFFFFFFFFFFFFFFFFFFFFFFFFFFFFFFFFFFFFFFFFF NOT AND DUP3 PUSH28 0xFFFFFFFFFFFFFFFFFFFFFFFFFFFFFFFFFFFFFFFFFFFFFFFFFFFFFFFF NOT AND EQ JUMPDEST DUP1 PUSH2 0x566 JUMPI POP PUSH2 0x565 DUP3 PUSH2 0xE0D JUMP JUMPDEST JUMPDEST SWAP1 POP SWAP2 SWAP1 POP JUMP JUMPDEST PUSH1 0x60 PUSH1 0x65 DUP1 SLOAD PUSH2 0x57C SWAP1 PUSH2 0x2160 JUMP JUMPDEST DUP1 PUSH1 0x1F ADD PUSH1 0x20 DUP1 SWAP2 DIV MUL PUSH1 0x20 ADD PUSH1 0x40 MLOAD SWAP1 DUP2 ADD PUSH1 0x40 MSTORE DUP1 SWAP3 SWAP2 SWAP1 DUP2 DUP2 MSTORE PUSH1 0x20 ADD DUP3 DUP1 SLOAD PUSH2 0x5A8 SWAP1 PUSH2 0x2160 JUMP JUMPDEST DUP1 ISZERO PUSH2 0x5F5 JUMPI DUP1 PUSH1 0x1F LT PUSH2 0x5CA JUMPI PUSH2 0x100 DUP1 DUP4 SLOAD DIV MUL DUP4 MSTORE SWAP2 PUSH1 0x20 ADD SWAP2 PUSH2 0x5F5 JUMP JUMPDEST DUP3 ADD SWAP2 SWAP1 PUSH1 0x0 MSTORE PUSH1 0x20 PUSH1 0x0 KECCAK256 SWAP1 JUMPDEST DUP2 SLOAD DUP2 MSTORE SWAP1 PUSH1 0x1 ADD SWAP1 PUSH1 0x20 ADD DUP1 DUP4 GT PUSH2 0x5D8 JUMPI DUP3 SWAP1 SUB PUSH1 0x1F AND DUP3 ADD SWAP2 JUMPDEST POP POP POP POP POP SWAP1 POP SWAP1 JUMP JUMPDEST PUSH1 0x0 PUSH2 0x60A DUP3 PUSH2 0xE77 JUMP JUMPDEST PUSH1 0x69 PUSH1 0x0 DUP4 DUP2 MSTORE PUSH1 0x20 ADD SWAP1 DUP2 MSTORE PUSH1 0x20 ADD PUSH1 0x0 KECCAK256 PUSH1 0x0 SWAP1 SLOAD SWAP1 PUSH2 0x100 EXP SWAP1 DIV PUSH20 0xFFFFFFFFFFFFFFFFFFFFFFFFFFFFFFFFFFFFFFFF AND SWAP1 POP SWAP2 SWAP1 POP JUMP JUMPDEST PUSH1 0x0 PUSH2 0x650 DUP3 PUSH2 0x89E JUMP JUMPDEST SWAP1 POP DUP1 PUSH20 0xFFFFFFFFFFFFFFFFFFFFFFFFFFFFFFFFFFFFFFFF AND DUP4 PUSH20 0xFFFFFFFFFFFFFFFFFFFFFFFFFFFFFFFFFFFFFFFF AND SUB PUSH2 0x6C0 JUMPI PUSH1 0x40 MLOAD PUSH32 0x8C379A000000000000000000000000000000000000000000000000000000000 DUP2 MSTORE PUSH1 0x4 ADD PUSH2 0x6B7 SWAP1 PUSH2 0x2203 JUMP JUMPDEST PUSH1 0x40 MLOAD DUP1 SWAP2 SUB SWAP1 REVERT JUMPDEST DUP1 PUSH20 0xFFFFFFFFFFFFFFFFFFFFFFFFFFFFFFFFFFFFFFFF AND PUSH2 0x6DF PUSH2 0xEC2 JUMP JUMPDEST PUSH20 0xFFFFFFFFFFFFFFFFFFFFFFFFFFFFFFFFFFFFFFFF AND EQ DUP1 PUSH2 0x70E JUMPI POP PUSH2 0x70D DUP2 PUSH2 0x708 PUSH2 0xEC2 JUMP JUMPDEST PUSH2 0xD79 JUMP JUMPDEST JUMPDEST PUSH2 0x74D JUMPI PUSH1 0x40 MLOAD PUSH32 0x8C379A000000000000000000000000000000000000000000000000000000000 DUP2 MSTORE PUSH1 0x4 ADD PUSH2 0x744 SWAP1 PUSH2 0x2295 JUMP JUMPDEST PUSH1 0x40 MLOAD DUP1 SWAP2 SUB SWAP1 REVERT JUMPDEST PUSH2 0x757 DUP4 DUP4 PUSH2 0xECA JUMP JUMPDEST POP POP POP JUMP JUMPDEST PUSH2 0x76D PUSH2 0x767 PUSH2 0xEC2 JUMP JUMPDEST DUP3 PUSH2 0xF83 JUMP JUMPDEST PUSH2 0x7AC JUMPI PUSH1 0x40 MLOAD PUSH32 0x8C379A000000000000000000000000000000000000000000000000000000000 DUP2 MSTORE PUSH1 0x4 ADD PUSH2 0x7A3 SWAP1 PUSH2 0x2327 JUMP JUMPDEST PUSH1 0x40 MLOAD DUP1 SWAP2 SUB SWAP1 REVERT JUMPDEST PUSH2 0x7B7 DUP4 DUP4 DUP4 PUSH2 0x1018 JUMP JUMPDEST POP POP POP JUMP JUMPDEST PUSH1 0x0 PUSH1 0x97 PUSH1 0x0 SWAP1 SLOAD SWAP1 PUSH2 0x100 EXP SWAP1 DIV PUSH1 0xFF AND SWAP1 POP SWAP1 JUMP JUMPDEST PUSH2 0x7EE DUP4 DUP4 DUP4 PUSH1 0x40 MLOAD DUP1 PUSH1 0x20 ADD PUSH1 0x40 MSTORE DUP1 PUSH1 0x0 DUP2 MSTORE POP PUSH2 0xC6B JUMP JUMPDEST POP POP POP JUMP JUMPDEST PUSH1 0x0 PUSH1 0x98 SLOAD CALLVALUE EQ PUSH2 0x803 JUMPI PUSH1 0x0 DUP1 REVERT JUMPDEST PUSH1 0x97 PUSH1 0x1 SWAP1 SLOAD SWAP1 PUSH2 0x100 EXP SWAP1 DIV PUSH1 0xFF AND PUSH1 0xFF AND PUSH1 0x97 PUSH1 0x0 SWAP1 SLOAD SWAP1 PUSH2 0x100 EXP SWAP1 DIV PUSH1 0xFF AND PUSH1 0xFF AND LT DUP1 ISZERO PUSH2 0x83E JUMPI POP PUSH1 0x0 PUSH2 0x83C CALLER PUSH2 0x94F JUMP JUMPDEST EQ JUMPDEST ISZERO PUSH2 0x897 JUMPI PUSH2 0x85F CALLER PUSH1 0x97 PUSH1 0x0 SWAP1 SLOAD SWAP1 PUSH2 0x100 EXP SWAP1 DIV PUSH1 0xFF AND PUSH1 0xFF AND PUSH2 0x127E JUMP JUMPDEST PUSH1 0x1 PUSH1 0x97 PUSH1 0x0 DUP3 DUP3 DUP3 SWAP1 SLOAD SWAP1 PUSH2 0x100 EXP SWAP1 DIV PUSH1 0xFF AND PUSH2 0x87E SWAP2 SWAP1 PUSH2 0x2376 JUMP JUMPDEST SWAP3 POP PUSH2 0x100 EXP DUP2 SLOAD DUP2 PUSH1 0xFF MUL NOT AND SWAP1 DUP4 PUSH1 0xFF AND MUL OR SWAP1 SSTORE POP JUMPDEST PUSH1 0x1 SWAP1 POP SWAP1 JUMP JUMPDEST PUSH1 0x0 DUP1 PUSH1 0x67 PUSH1 0x0 DUP5 DUP2 MSTORE PUSH1 0x20 ADD SWAP1 DUP2 MSTORE PUSH1 0x20 ADD PUSH1 0x0 KECCAK256 PUSH1 0x0 SWAP1 SLOAD SWAP1 PUSH2 0x100 EXP SWAP1 DIV PUSH20 0xFFFFFFFFFFFFFFFFFFFFFFFFFFFFFFFFFFFFFFFF AND SWAP1 POP PUSH1 0x0 PUSH20 0xFFFFFFFFFFFFFFFFFFFFFFFFFFFFFFFFFFFFFFFF AND DUP2 PUSH20 0xFFFFFFFFFFFFFFFFFFFFFFFFFFFFFFFFFFFFFFFF AND SUB PUSH2 0x946 JUMPI PUSH1 0x40 MLOAD PUSH32 0x8C379A000000000000000000000000000000000000000000000000000000000 DUP2 MSTORE PUSH1 0x4 ADD PUSH2 0x93D SWAP1 PUSH2 0x23F9 JUMP JUMPDEST PUSH1 0x40 MLOAD DUP1 SWAP2 SUB SWAP1 REVERT JUMPDEST DUP1 SWAP2 POP POP SWAP2 SWAP1 POP JUMP JUMPDEST PUSH1 0x0 DUP1 PUSH20 0xFFFFFFFFFFFFFFFFFFFFFFFFFFFFFFFFFFFFFFFF AND DUP3 PUSH20 0xFFFFFFFFFFFFFFFFFFFFFFFFFFFFFFFFFFFFFFFF AND SUB PUSH2 0x9BF JUMPI PUSH1 0x40 MLOAD PUSH32 0x8C379A000000000000000000000000000000000000000000000000000000000 DUP2 MSTORE PUSH1 0x4 ADD PUSH2 0x9B6 SWAP1 PUSH2 0x248B JUMP JUMPDEST PUSH1 0x40 MLOAD DUP1 SWAP2 SUB SWAP1 REVERT JUMPDEST PUSH1 0x68 PUSH1 0x0 DUP4 PUSH20 0xFFFFFFFFFFFFFFFFFFFFFFFFFFFFFFFFFFFFFFFF AND PUSH20 0xFFFFFFFFFFFFFFFFFFFFFFFFFFFFFFFFFFFFFFFF AND DUP2 MSTORE PUSH1 0x20 ADD SWAP1 DUP2 MSTORE PUSH1 0x20 ADD PUSH1 0x0 KECCAK256 SLOAD SWAP1 POP SWAP2 SWAP1 POP JUMP JUMPDEST PUSH1 0x0 DUP1 PUSH1 0x1 SWAP1 SLOAD SWAP1 PUSH2 0x100 EXP SWAP1 DIV PUSH1 0xFF AND ISZERO SWAP1 POP DUP1 DUP1 ISZERO PUSH2 0xA37 JUMPI POP PUSH1 0x1 PUSH1 0x0 DUP1 SLOAD SWAP1 PUSH2 0x100 EXP SWAP1 DIV PUSH1 0xFF AND PUSH1 0xFF AND LT JUMPDEST DUP1 PUSH2 0xA64 JUMPI POP PUSH2 0xA46 ADDRESS PUSH2 0x1457 JUMP JUMPDEST ISZERO DUP1 ISZERO PUSH2 0xA63 JUMPI POP PUSH1 0x1 PUSH1 0x0 DUP1 SLOAD SWAP1 PUSH2 0x100 EXP SWAP1 DIV PUSH1 0xFF AND PUSH1 0xFF AND EQ JUMPDEST JUMPDEST PUSH2 0xAA3 JUMPI PUSH1 0x40 MLOAD PUSH32 0x8C379A000000000000000000000000000000000000000000000000000000000 DUP2 MSTORE PUSH1 0x4 ADD PUSH2 0xA9A SWAP1 PUSH2 0x251D JUMP JUMPDEST PUSH1 0x40 MLOAD DUP1 SWAP2 SUB SWAP1 REVERT JUMPDEST PUSH1 0x1 PUSH1 0x0 DUP1 PUSH2 0x100 EXP DUP2 SLOAD DUP2 PUSH1 0xFF MUL NOT AND SWAP1 DUP4 PUSH1 0xFF AND MUL OR SWAP1 SSTORE POP DUP1 ISZERO PUSH2 0xAE0 JUMPI PUSH1 0x1 PUSH1 0x0 PUSH1 0x1 PUSH2 0x100 EXP DUP2 SLOAD DUP2 PUSH1 0xFF MUL NOT AND SWAP1 DUP4 ISZERO ISZERO MUL OR SWAP1 SSTORE POP JUMPDEST PUSH2 0xB54 PUSH1 0x40 MLOAD DUP1 PUSH1 0x40 ADD PUSH1 0x40 MSTORE DUP1 PUSH1 0x7 DUP2 MSTORE PUSH1 0x20 ADD PUSH32 0x4761746541707000000000000000000000000000000000000000000000000000 DUP2 MSTORE POP PUSH1 0x40 MLOAD DUP1 PUSH1 0x40 ADD PUSH1 0x40 MSTORE DUP1 PUSH1 0x2 DUP2 MSTORE PUSH1 0x20 ADD PUSH32 0x4741000000000000000000000000000000000000000000000000000000000000 DUP2 MSTORE POP PUSH2 0x147A JUMP JUMPDEST DUP1 ISZERO PUSH2 0xBAD JUMPI PUSH1 0x0 DUP1 PUSH1 0x1 PUSH2 0x100 EXP DUP2 SLOAD DUP2 PUSH1 0xFF MUL NOT AND SWAP1 DUP4 ISZERO ISZERO MUL OR SWAP1 SSTORE POP PUSH32 0x7F26B83FF96E1F2B6A682F133852F6798A09C465DA95921460CEFB3847402498 PUSH1 0x1 PUSH1 0x40 MLOAD PUSH2 0xBA4 SWAP2 SWAP1 PUSH2 0x2582 JUMP JUMPDEST PUSH1 0x40 MLOAD DUP1 SWAP2 SUB SWAP1 LOG1 JUMPDEST POP JUMP JUMPDEST PUSH1 0x60 PUSH1 0x66 DUP1 SLOAD PUSH2 0xBBF SWAP1 PUSH2 0x2160 JUMP JUMPDEST DUP1 PUSH1 0x1F ADD PUSH1 0x20 DUP1 SWAP2 DIV MUL PUSH1 0x20 ADD PUSH1 0x40 MLOAD SWAP1 DUP2 ADD PUSH1 0x40 MSTORE DUP1 SWAP3 SWAP2 SWAP1 DUP2 DUP2 MSTORE PUSH1 0x20 ADD DUP3 DUP1 SLOAD PUSH2 0xBEB SWAP1 PUSH2 0x2160 JUMP JUMPDEST DUP1 ISZERO PUSH2 0xC38 JUMPI DUP1 PUSH1 0x1F LT PUSH2 0xC0D JUMPI PUSH2 0x100 DUP1 DUP4 SLOAD DIV MUL DUP4 MSTORE SWAP2 PUSH1 0x20 ADD SWAP2 PUSH2 0xC38 JUMP JUMPDEST DUP3 ADD SWAP2 SWAP1 PUSH1 0x0 MSTORE PUSH1 0x20 PUSH1 0x0 KECCAK256 SWAP1 JUMPDEST DUP2 SLOAD DUP2 MSTORE SWAP1 PUSH1 0x1 ADD SWAP1 PUSH1 0x20 ADD DUP1 DUP4 GT PUSH2 0xC1B JUMPI DUP3 SWAP1 SUB PUSH1 0x1F AND DUP3 ADD SWAP2 JUMPDEST POP POP POP POP POP SWAP1 POP SWAP1 JUMP JUMPDEST PUSH1 0x97 PUSH1 0x0 SWAP1 SLOAD SWAP1 PUSH2 0x100 EXP SWAP1 DIV PUSH1 0xFF AND DUP2 JUMP JUMPDEST PUSH2 0xC67 PUSH2 0xC60 PUSH2 0xEC2 JUMP JUMPDEST DUP4 DUP4 PUSH2 0x14D7 JUMP JUMPDEST POP POP JUMP JUMPDEST PUSH2 0xC7C PUSH2 0xC76 PUSH2 0xEC2 JUMP JUMPDEST DUP4 PUSH2 0xF83 JUMP JUMPDEST PUSH2 0xCBB JUMPI PUSH1 0x40 MLOAD PUSH32 0x8C379A000000000000000000000000000000000000000000000000000000000 DUP2 MSTORE PUSH1 0x4 ADD PUSH2 0xCB2 SWAP1 PUSH2 0x2327 JUMP JUMPDEST PUSH1 0x40 MLOAD DUP1 SWAP2 SUB SWAP1 REVERT JUMPDEST PUSH2 0xCC7 DUP5 DUP5 DUP5 DUP5 PUSH2 0x1643 JUMP JUMPDEST POP POP POP POP JUMP JUMPDEST PUSH1 0x0 PUSH1 0x97 PUSH1 0x0 SWAP1 SLOAD SWAP1 PUSH2 0x100 EXP SWAP1 DIV PUSH1 0xFF AND PUSH1 0x97 PUSH1 0x1 SWAP1 SLOAD SWAP1 PUSH2 0x100 EXP SWAP1 DIV PUSH1 0xFF AND PUSH2 0xCF9 SWAP2 SWAP1 PUSH2 0x259D JUMP JUMPDEST SWAP1 POP SWAP1 JUMP JUMPDEST PUSH1 0x60 PUSH2 0xD09 DUP3 PUSH2 0xE77 JUMP JUMPDEST PUSH1 0x0 PUSH2 0xD13 PUSH2 0x169F JUMP JUMPDEST SWAP1 POP PUSH1 0x0 DUP2 MLOAD GT PUSH2 0xD33 JUMPI PUSH1 0x40 MLOAD DUP1 PUSH1 0x20 ADD PUSH1 0x40 MSTORE DUP1 PUSH1 0x0 DUP2 MSTORE POP PUSH2 0xD5E JUMP JUMPDEST DUP1 PUSH2 0xD3D DUP5 PUSH2 0x16B6 JUMP JUMPDEST PUSH1 0x40 MLOAD PUSH1 0x20 ADD PUSH2 0xD4E SWAP3 SWAP2 SWAP1 PUSH2 0x260D JUMP JUMPDEST PUSH1 0x40 MLOAD PUSH1 0x20 DUP2 DUP4 SUB SUB DUP2 MSTORE SWAP1 PUSH1 0x40 MSTORE JUMPDEST SWAP2 POP POP SWAP2 SWAP1 POP JUMP JUMPDEST PUSH1 0x97 PUSH1 0x1 SWAP1 SLOAD SWAP1 PUSH2 0x100 EXP SWAP1 DIV PUSH1 0xFF AND DUP2 JUMP JUMPDEST PUSH1 0x0 PUSH1 0x6A PUSH1 0x0 DUP5 PUSH20 0xFFFFFFFFFFFFFFFFFFFFFFFFFFFFFFFFFFFFFFFF AND PUSH20 0xFFFFFFFFFFFFFFFFFFFFFFFFFFFFFFFFFFFFFFFF AND DUP2 MSTORE PUSH1 0x20 ADD SWAP1 DUP2 MSTORE PUSH1 0x20 ADD PUSH1 0x0 KECCAK256 PUSH1 0x0 DUP4 PUSH20 0xFFFFFFFFFFFFFFFFFFFFFFFFFFFFFFFFFFFFFFFF AND PUSH20 0xFFFFFFFFFFFFFFFFFFFFFFFFFFFFFFFFFFFFFFFF AND DUP2 MSTORE PUSH1 0x20 ADD SWAP1 DUP2 MSTORE PUSH1 0x20 ADD PUSH1 0x0 KECCAK256 PUSH1 0x0 SWAP1 SLOAD SWAP1 PUSH2 0x100 EXP SWAP1 DIV PUSH1 0xFF AND SWAP1 POP SWAP3 SWAP2 POP POP JUMP JUMPDEST PUSH1 0x0 PUSH32 0x1FFC9A700000000000000000000000000000000000000000000000000000000 PUSH28 0xFFFFFFFFFFFFFFFFFFFFFFFFFFFFFFFFFFFFFFFFFFFFFFFFFFFFFFFF NOT AND DUP3 PUSH28 0xFFFFFFFFFFFFFFFFFFFFFFFFFFFFFFFFFFFFFFFFFFFFFFFFFFFFFFFF NOT AND EQ SWAP1 POP SWAP2 SWAP1 POP JUMP JUMPDEST PUSH2 0xE80 DUP2 PUSH2 0x1816 JUMP JUMPDEST PUSH2 0xEBF JUMPI PUSH1 0x40 MLOAD PUSH32 0x8C379A000000000000000000000000000000000000000000000000000000000 DUP2 MSTORE PUSH1 0x4 ADD PUSH2 0xEB6 SWAP1 PUSH2 0x23F9 JUMP JUMPDEST PUSH1 0x40 MLOAD DUP1 SWAP2 SUB SWAP1 REVERT JUMPDEST POP JUMP JUMPDEST PUSH1 0x0 CALLER SWAP1 POP SWAP1 JUMP JUMPDEST DUP2 PUSH1 0x69 PUSH1 0x0 DUP4 DUP2 MSTORE PUSH1 0x20 ADD SWAP1 DUP2 MSTORE PUSH1 0x20 ADD PUSH1 0x0 KECCAK256 PUSH1 0x0 PUSH2 0x100 EXP DUP2 SLOAD DUP2 PUSH20 0xFFFFFFFFFFFFFFFFFFFFFFFFFFFFFFFFFFFFFFFF MUL NOT AND SWAP1 DUP4 PUSH20 0xFFFFFFFFFFFFFFFFFFFFFFFFFFFFFFFFFFFFFFFF AND MUL OR SWAP1 SSTORE POP DUP1 DUP3 PUSH20 0xFFFFFFFFFFFFFFFFFFFFFFFFFFFFFFFFFFFFFFFF AND PUSH2 0xF3D DUP4 PUSH2 0x89E JUMP JUMPDEST PUSH20 0xFFFFFFFFFFFFFFFFFFFFFFFFFFFFFFFFFFFFFFFF AND PUSH32 0x8C5BE1E5EBEC7D5BD14F71427D1E84F3DD0314C0F7B2291E5B200AC8C7C3B925 PUSH1 0x40 MLOAD PUSH1 0x40 MLOAD DUP1 SWAP2 SUB SWAP1 LOG4 POP POP JUMP JUMPDEST PUSH1 0x0 DUP1 PUSH2 0xF8F DUP4 PUSH2 0x89E JUMP JUMPDEST SWAP1 POP DUP1 PUSH20 0xFFFFFFFFFFFFFFFFFFFFFFFFFFFFFFFFFFFFFFFF AND DUP5 PUSH20 0xFFFFFFFFFFFFFFFFFFFFFFFFFFFFFFFFFFFFFFFF AND EQ DUP1 PUSH2 0xFD1 JUMPI POP PUSH2 0xFD0 DUP2 DUP6 PUSH2 0xD79 JUMP JUMPDEST JUMPDEST DUP1 PUSH2 0x100F JUMPI POP DUP4 PUSH20 0xFFFFFFFFFFFFFFFFFFFFFFFFFFFFFFFFFFFFFFFF AND PUSH2 0xFF7 DUP5 PUSH2 0x5FF JUMP JUMPDEST PUSH20 0xFFFFFFFFFFFFFFFFFFFFFFFFFFFFFFFFFFFFFFFF AND EQ JUMPDEST SWAP2 POP POP SWAP3 SWAP2 POP POP JUMP JUMPDEST DUP3 PUSH20 0xFFFFFFFFFFFFFFFFFFFFFFFFFFFFFFFFFFFFFFFF AND PUSH2 0x1038 DUP3 PUSH2 0x89E JUMP JUMPDEST PUSH20 0xFFFFFFFFFFFFFFFFFFFFFFFFFFFFFFFFFFFFFFFF AND EQ PUSH2 0x108E JUMPI PUSH1 0x40 MLOAD PUSH32 0x8C379A000000000000000000000000000000000000000000000000000000000 DUP2 MSTORE PUSH1 0x4 ADD PUSH2 0x1085 SWAP1 PUSH2 0x26A3 JUMP JUMPDEST PUSH1 0x40 MLOAD DUP1 SWAP2 SUB SWAP1 REVERT JUMPDEST PUSH1 0x0 PUSH20 0xFFFFFFFFFFFFFFFFFFFFFFFFFFFFFFFFFFFFFFFF AND DUP3 PUSH20 0xFFFFFFFFFFFFFFFFFFFFFFFFFFFFFFFFFFFFFFFF AND SUB PUSH2 0x10FD JUMPI PUSH1 0x40 MLOAD PUSH32 0x8C379A000000000000000000000000000000000000000000000000000000000 DUP2 MSTORE PUSH1 0x4 ADD PUSH2 0x10F4 SWAP1 PUSH2 0x2735 JUMP JUMPDEST PUSH1 0x40 MLOAD DUP1 SWAP2 SUB SWAP1 REVERT JUMPDEST PUSH2 0x1108 DUP4 DUP4 DUP4 PUSH2 0x1882 JUMP JUMPDEST PUSH2 0x1113 PUSH1 0x0 DUP3 PUSH2 0xECA JUMP JUMPDEST PUSH1 0x1 PUSH1 0x68 PUSH1 0x0 DUP6 PUSH20 0xFFFFFFFFFFFFFFFFFFFFFFFFFFFFFFFFFFFFFFFF AND PUSH20 0xFFFFFFFFFFFFFFFFFFFFFFFFFFFFFFFFFFFFFFFF AND DUP2 MSTORE PUSH1 0x20 ADD SWAP1 DUP2 MSTORE PUSH1 0x20 ADD PUSH1 0x0 KECCAK256 PUSH1 0x0 DUP3 DUP3 SLOAD PUSH2 0x1163 SWAP2 SWAP1 PUSH2 0x2755 JUMP JUMPDEST SWAP3 POP POP DUP2 SWAP1 SSTORE POP PUSH1 0x1 PUSH1 0x68 PUSH1 0x0 DUP5 PUSH20 0xFFFFFFFFFFFFFFFFFFFFFFFFFFFFFFFFFFFFFFFF AND PUSH20 0xFFFFFFFFFFFFFFFFFFFFFFFFFFFFFFFFFFFFFFFF AND DUP2 MSTORE PUSH1 0x20 ADD SWAP1 DUP2 MSTORE PUSH1 0x20 ADD PUSH1 0x0 KECCAK256 PUSH1 0x0 DUP3 DUP3 SLOAD PUSH2 0x11BA SWAP2 SWAP1 PUSH2 0x2789 JUMP JUMPDEST SWAP3 POP POP DUP2 SWAP1 SSTORE POP DUP2 PUSH1 0x67 PUSH1 0x0 DUP4 DUP2 MSTORE PUSH1 0x20 ADD SWAP1 DUP2 MSTORE PUSH1 0x20 ADD PUSH1 0x0 KECCAK256 PUSH1 0x0 PUSH2 0x100 EXP DUP2 SLOAD DUP2 PUSH20 0xFFFFFFFFFFFFFFFFFFFFFFFFFFFFFFFFFFFFFFFF MUL NOT AND SWAP1 DUP4 PUSH20 0xFFFFFFFFFFFFFFFFFFFFFFFFFFFFFFFFFFFFFFFF AND MUL OR SWAP1 SSTORE POP DUP1 DUP3 PUSH20 0xFFFFFFFFFFFFFFFFFFFFFFFFFFFFFFFFFFFFFFFF AND DUP5 PUSH20 0xFFFFFFFFFFFFFFFFFFFFFFFFFFFFFFFFFFFFFFFF AND PUSH32 0xDDF252AD1BE2C89B69C2B068FC378DAA952BA7F163C4A11628F55A4DF523B3EF PUSH1 0x40 MLOAD PUSH1 0x40 MLOAD DUP1 SWAP2 SUB SWAP1 LOG4 PUSH2 0x1279 DUP4 DUP4 DUP4 PUSH2 0x1887 JUMP JUMPDEST POP POP POP JUMP JUMPDEST PUSH1 0x0 PUSH20 0xFFFFFFFFFFFFFFFFFFFFFFFFFFFFFFFFFFFFFFFF AND DUP3 PUSH20 0xFFFFFFFFFFFFFFFFFFFFFFFFFFFFFFFFFFFFFFFF AND SUB PUSH2 0x12ED JUMPI PUSH1 0x40 MLOAD PUSH32 0x8C379A000000000000000000000000000000000000000000000000000000000 DUP2 MSTORE PUSH1 0x4 ADD PUSH2 0x12E4 SWAP1 PUSH2 0x282B JUMP JUMPDEST PUSH1 0x40 MLOAD DUP1 SWAP2 SUB SWAP1 REVERT JUMPDEST PUSH2 0x12F6 DUP2 PUSH2 0x1816 JUMP JUMPDEST ISZERO PUSH2 0x1336 JUMPI PUSH1 0x40 MLOAD PUSH32 0x8C379A000000000000000000000000000000000000000000000000000000000 DUP2 MSTORE PUSH1 0x4 ADD PUSH2 0x132D SWAP1 PUSH2 0x2897 JUMP JUMPDEST PUSH1 0x40 MLOAD DUP1 SWAP2 SUB SWAP1 REVERT JUMPDEST PUSH2 0x1342 PUSH1 0x0 DUP4 DUP4 PUSH2 0x1882 JUMP JUMPDEST PUSH1 0x1 PUSH1 0x68 PUSH1 0x0 DUP5 PUSH20 0xFFFFFFFFFFFFFFFFFFFFFFFFFFFFFFFFFFFFFFFF AND PUSH20 0xFFFFFFFFFFFFFFFFFFFFFFFFFFFFFFFFFFFFFFFF AND DUP2 MSTORE PUSH1 0x20 ADD SWAP1 DUP2 MSTORE PUSH1 0x20 ADD PUSH1 0x0 KECCAK256 PUSH1 0x0 DUP3 DUP3 SLOAD PUSH2 0x1392 SWAP2 SWAP1 PUSH2 0x2789 JUMP JUMPDEST SWAP3 POP POP DUP2 SWAP1 SSTORE POP DUP2 PUSH1 0x67 PUSH1 0x0 DUP4 DUP2 MSTORE PUSH1 0x20 ADD SWAP1 DUP2 MSTORE PUSH1 0x20 ADD PUSH1 0x0 KECCAK256 PUSH1 0x0 PUSH2 0x100 EXP DUP2 SLOAD DUP2 PUSH20 0xFFFFFFFFFFFFFFFFFFFFFFFFFFFFFFFFFFFFFFFF MUL NOT AND SWAP1 DUP4 PUSH20 0xFFFFFFFFFFFFFFFFFFFFFFFFFFFFFFFFFFFFFFFF AND MUL OR SWAP1 SSTORE POP DUP1 DUP3 PUSH20 0xFFFFFFFFFFFFFFFFFFFFFFFFFFFFFFFFFFFFFFFF AND PUSH1 0x0 PUSH20 0xFFFFFFFFFFFFFFFFFFFFFFFFFFFFFFFFFFFFFFFF AND PUSH32 0xDDF252AD1BE2C89B69C2B068FC378DAA952BA7F163C4A11628F55A4DF523B3EF PUSH1 0x40 MLOAD PUSH1 0x40 MLOAD DUP1 SWAP2 SUB SWAP1 LOG4 PUSH2 0x1453 PUSH1 0x0 DUP4 DUP4 PUSH2 0x1887 JUMP JUMPDEST POP POP JUMP JUMPDEST PUSH1 0x0 DUP1 DUP3 PUSH20 0xFFFFFFFFFFFFFFFFFFFFFFFFFFFFFFFFFFFFFFFF AND EXTCODESIZE GT SWAP1 POP SWAP2 SWAP1 POP JUMP JUMPDEST PUSH1 0x0 PUSH1 0x1 SWAP1 SLOAD SWAP1 PUSH2 0x100 EXP SWAP1 DIV PUSH1 0xFF AND PUSH2 0x14C9 JUMPI PUSH1 0x40 MLOAD PUSH32 0x8C379A000000000000000000000000000000000000000000000000000000000 DUP2 MSTORE PUSH1 0x4 ADD PUSH2 0x14C0 SWAP1 PUSH2 0x2929 JUMP JUMPDEST PUSH1 0x40 MLOAD DUP1 SWAP2 SUB SWAP1 REVERT JUMPDEST PUSH2 0x14D3 DUP3 DUP3 PUSH2 0x188C JUMP JUMPDEST POP POP JUMP JUMPDEST DUP2 PUSH20 0xFFFFFFFFFFFFFFFFFFFFFFFFFFFFFFFFFFFFFFFF AND DUP4 PUSH20 0xFFFFFFFFFFFFFFFFFFFFFFFFFFFFFFFFFFFFFFFF AND SUB PUSH2 0x1545 JUMPI PUSH1 0x40 MLOAD PUSH32 0x8C379A000000000000000000000000000000000000000000000000000000000 DUP2 MSTORE PUSH1 0x4 ADD PUSH2 0x153C SWAP1 PUSH2 0x2995 JUMP JUMPDEST PUSH1 0x40 MLOAD DUP1 SWAP2 SUB SWAP1 REVERT JUMPDEST DUP1 PUSH1 0x6A PUSH1 0x0 DUP6 PUSH20 0xFFFFFFFFFFFFFFFFFFFFFFFFFFFFFFFFFFFFFFFF AND PUSH20 0xFFFFFFFFFFFFFFFFFFFFFFFFFFFFFFFFFFFFFFFF AND DUP2 MSTORE PUSH1 0x20 ADD SWAP1 DUP2 MSTORE PUSH1 0x20 ADD PUSH1 0x0 KECCAK256 PUSH1 0x0 DUP5 PUSH20 0xFFFFFFFFFFFFFFFFFFFFFFFFFFFFFFFFFFFFFFFF AND PUSH20 0xFFFFFFFFFFFFFFFFFFFFFFFFFFFFFFFFFFFFFFFF AND DUP2 MSTORE PUSH1 0x20 ADD SWAP1 DUP2 MSTORE PUSH1 0x20 ADD PUSH1 0x0 KECCAK256 PUSH1 0x0 PUSH2 0x100 EXP DUP2 SLOAD DUP2 PUSH1 0xFF MUL NOT AND SWAP1 DUP4 ISZERO ISZERO MUL OR SWAP1 SSTORE POP DUP2 PUSH20 0xFFFFFFFFFFFFFFFFFFFFFFFFFFFFFFFFFFFFFFFF AND DUP4 PUSH20 0xFFFFFFFFFFFFFFFFFFFFFFFFFFFFFFFFFFFFFFFF AND PUSH32 0x17307EAB39AB6107E8899845AD3D59BD9653F200F220920489CA2B5937696C31 DUP4 PUSH1 0x40 MLOAD PUSH2 0x1636 SWAP2 SWAP1 PUSH2 0x1BEB JUMP JUMPDEST PUSH1 0x40 MLOAD DUP1 SWAP2 SUB SWAP1 LOG3 POP POP POP JUMP JUMPDEST PUSH2 0x164E DUP5 DUP5 DUP5 PUSH2 0x1018 JUMP JUMPDEST PUSH2 0x165A DUP5 DUP5 DUP5 DUP5 PUSH2 0x190D JUMP JUMPDEST PUSH2 0x1699 JUMPI PUSH1 0x40 MLOAD PUSH32 0x8C379A000000000000000000000000000000000000000000000000000000000 DUP2 MSTORE PUSH1 0x4 ADD PUSH2 0x1690 SWAP1 PUSH2 0x2A27 JUMP JUMPDEST PUSH1 0x40 MLOAD DUP1 SWAP2 SUB SWAP1 REVERT JUMPDEST POP POP POP POP JUMP JUMPDEST PUSH1 0x60 PUSH1 0x40 MLOAD DUP1 PUSH1 0x20 ADD PUSH1 0x40 MSTORE DUP1 PUSH1 0x0 DUP2 MSTORE POP SWAP1 POP SWAP1 JUMP JUMPDEST PUSH1 0x60 PUSH1 0x0 DUP3 SUB PUSH2 0x16FD JUMPI PUSH1 0x40 MLOAD DUP1 PUSH1 0x40 ADD PUSH1 0x40 MSTORE DUP1 PUSH1 0x1 DUP2 MSTORE PUSH1 0x20 ADD PUSH32 0x3000000000000000000000000000000000000000000000000000000000000000 DUP2 MSTORE POP SWAP1 POP PUSH2 0x1811 JUMP JUMPDEST PUSH1 0x0 DUP3 SWAP1 POP PUSH1 0x0 JUMPDEST PUSH1 0x0 DUP3 EQ PUSH2 0x172F JUMPI DUP1 DUP1 PUSH2 0x1718 SWAP1 PUSH2 0x2A47 JUMP JUMPDEST SWAP2 POP POP PUSH1 0xA DUP3 PUSH2 0x1728 SWAP2 SWAP1 PUSH2 0x2ABE JUMP JUMPDEST SWAP2 POP PUSH2 0x1705 JUMP JUMPDEST PUSH1 0x0 DUP2 PUSH8 0xFFFFFFFFFFFFFFFF DUP2 GT ISZERO PUSH2 0x174B JUMPI PUSH2 0x174A PUSH2 0x1F43 JUMP JUMPDEST JUMPDEST PUSH1 0x40 MLOAD SWAP1 DUP1 DUP3 MSTORE DUP1 PUSH1 0x1F ADD PUSH1 0x1F NOT AND PUSH1 0x20 ADD DUP3 ADD PUSH1 0x40 MSTORE DUP1 ISZERO PUSH2 0x177D JUMPI DUP2 PUSH1 0x20 ADD PUSH1 0x1 DUP3 MUL DUP1 CALLDATASIZE DUP4 CALLDATACOPY DUP1 DUP3 ADD SWAP2 POP POP SWAP1 POP JUMPDEST POP SWAP1 POP JUMPDEST PUSH1 0x0 DUP6 EQ PUSH2 0x180A JUMPI PUSH1 0x1 DUP3 PUSH2 0x1796 SWAP2 SWAP1 PUSH2 0x2755 JUMP JUMPDEST SWAP2 POP PUSH1 0xA DUP6 PUSH2 0x17A5 SWAP2 SWAP1 PUSH2 0x2AEF JUMP JUMPDEST PUSH1 0x30 PUSH2 0x17B1 SWAP2 SWAP1 PUSH2 0x2789 JUMP JUMPDEST PUSH1 0xF8 SHL DUP2 DUP4 DUP2 MLOAD DUP2 LT PUSH2 0x17C7 JUMPI PUSH2 0x17C6 PUSH2 0x2B20 JUMP JUMPDEST JUMPDEST PUSH1 0x20 ADD ADD SWAP1 PUSH31 0xFFFFFFFFFFFFFFFFFFFFFFFFFFFFFFFFFFFFFFFFFFFFFFFFFFFFFFFFFFFFFF NOT AND SWAP1 DUP2 PUSH1 0x0 BYTE SWAP1 MSTORE8 POP PUSH1 0xA DUP6 PUSH2 0x1803 SWAP2 SWAP1 PUSH2 0x2ABE JUMP JUMPDEST SWAP5 POP PUSH2 0x1781 JUMP JUMPDEST DUP1 SWAP4 POP POP POP POP JUMPDEST SWAP2 SWAP1 POP JUMP JUMPDEST PUSH1 0x0 DUP1 PUSH20 0xFFFFFFFFFFFFFFFFFFFFFFFFFFFFFFFFFFFFFFFF AND PUSH1 0x67 PUSH1 0x0 DUP5 DUP2 MSTORE PUSH1 0x20 ADD SWAP1 DUP2 MSTORE PUSH1 0x20 ADD PUSH1 0x0 KECCAK256 PUSH1 0x0 SWAP1 SLOAD SWAP1 PUSH2 0x100 EXP SWAP1 DIV PUSH20 0xFFFFFFFFFFFFFFFFFFFFFFFFFFFFFFFFFFFFFFFF AND PUSH20 0xFFFFFFFFFFFFFFFFFFFFFFFFFFFFFFFFFFFFFFFF AND EQ ISZERO SWAP1 POP SWAP2 SWAP1 POP JUMP JUMPDEST POP POP POP JUMP JUMPDEST POP POP POP JUMP JUMPDEST PUSH1 0x0 PUSH1 0x1 SWAP1 SLOAD SWAP1 PUSH2 0x100 EXP SWAP1 DIV PUSH1 0xFF AND PUSH2 0x18DB JUMPI PUSH1 0x40 MLOAD PUSH32 0x8C379A000000000000000000000000000000000000000000000000000000000 DUP2 MSTORE PUSH1 0x4 ADD PUSH2 0x18D2 SWAP1 PUSH2 0x2929 JUMP JUMPDEST PUSH1 0x40 MLOAD DUP1 SWAP2 SUB SWAP1 REVERT JUMPDEST DUP2 PUSH1 0x65 SWAP1 DUP1 MLOAD SWAP1 PUSH1 0x20 ADD SWAP1 PUSH2 0x18F1 SWAP3 SWAP2 SWAP1 PUSH2 0x1A94 JUMP JUMPDEST POP DUP1 PUSH1 0x66 SWAP1 DUP1 MLOAD SWAP1 PUSH1 0x20 ADD SWAP1 PUSH2 0x1908 SWAP3 SWAP2 SWAP1 PUSH2 0x1A94 JUMP JUMPDEST POP POP POP JUMP JUMPDEST PUSH1 0x0 PUSH2 0x192E DUP5 PUSH20 0xFFFFFFFFFFFFFFFFFFFFFFFFFFFFFFFFFFFFFFFF AND PUSH2 0x1457 JUMP JUMPDEST ISZERO PUSH2 0x1A87 JUMPI DUP4 PUSH20 0xFFFFFFFFFFFFFFFFFFFFFFFFFFFFFFFFFFFFFFFF AND PUSH4 0x150B7A02 PUSH2 0x1957 PUSH2 0xEC2 JUMP JUMPDEST DUP8 DUP7 DUP7 PUSH1 0x40 MLOAD DUP6 PUSH4 0xFFFFFFFF AND PUSH1 0xE0 SHL DUP2 MSTORE PUSH1 0x4 ADD PUSH2 0x1979 SWAP5 SWAP4 SWAP3 SWAP2 SWAP1 PUSH2 0x2BA4 JUMP JUMPDEST PUSH1 0x20 PUSH1 0x40 MLOAD DUP1 DUP4 SUB DUP2 PUSH1 0x0 DUP8 GAS CALL SWAP3 POP POP POP DUP1 ISZERO PUSH2 0x19B5 JUMPI POP PUSH1 0x40 MLOAD RETURNDATASIZE PUSH1 0x1F NOT PUSH1 0x1F DUP3 ADD AND DUP3 ADD DUP1 PUSH1 0x40 MSTORE POP DUP2 ADD SWAP1 PUSH2 0x19B2 SWAP2 SWAP1 PUSH2 0x2C05 JUMP JUMPDEST PUSH1 0x1 JUMPDEST PUSH2 0x1A37 JUMPI RETURNDATASIZE DUP1 PUSH1 0x0 DUP2 EQ PUSH2 0x19E5 JUMPI PUSH1 0x40 MLOAD SWAP2 POP PUSH1 0x1F NOT PUSH1 0x3F RETURNDATASIZE ADD AND DUP3 ADD PUSH1 0x40 MSTORE RETURNDATASIZE DUP3 MSTORE RETURNDATASIZE PUSH1 0x0 PUSH1 0x20 DUP5 ADD RETURNDATACOPY PUSH2 0x19EA JUMP JUMPDEST PUSH1 0x60 SWAP2 POP JUMPDEST POP PUSH1 0x0 DUP2 MLOAD SUB PUSH2 0x1A2F JUMPI PUSH1 0x40 MLOAD PUSH32 0x8C379A000000000000000000000000000000000000000000000000000000000 DUP2 MSTORE PUSH1 0x4 ADD PUSH2 0x1A26 SWAP1 PUSH2 0x2A27 JUMP JUMPDEST PUSH1 0x40 MLOAD DUP1 SWAP2 SUB SWAP1 REVERT JUMPDEST DUP1 MLOAD DUP2 PUSH1 0x20 ADD REVERT JUMPDEST PUSH4 0x150B7A02 PUSH1 0xE0 SHL PUSH28 0xFFFFFFFFFFFFFFFFFFFFFFFFFFFFFFFFFFFFFFFFFFFFFFFFFFFFFFFF NOT AND DUP2 PUSH28 0xFFFFFFFFFFFFFFFFFFFFFFFFFFFFFFFFFFFFFFFFFFFFFFFFFFFFFFFF NOT AND EQ SWAP2 POP POP PUSH2 0x1A8C JUMP JUMPDEST PUSH1 0x1 SWAP1 POP JUMPDEST SWAP5 SWAP4 POP POP POP POP JUMP JUMPDEST DUP3 DUP1 SLOAD PUSH2 0x1AA0 SWAP1 PUSH2 0x2160 JUMP JUMPDEST SWAP1 PUSH1 0x0 MSTORE PUSH1 0x20 PUSH1 0x0 KECCAK256 SWAP1 PUSH1 0x1F ADD PUSH1 0x20 SWAP1 DIV DUP2 ADD SWAP3 DUP3 PUSH2 0x1AC2 JUMPI PUSH1 0x0 DUP6 SSTORE PUSH2 0x1B09 JUMP JUMPDEST DUP3 PUSH1 0x1F LT PUSH2 0x1ADB JUMPI DUP1 MLOAD PUSH1 0xFF NOT AND DUP4 DUP1 ADD OR DUP6 SSTORE PUSH2 0x1B09 JUMP JUMPDEST DUP3 DUP1 ADD PUSH1 0x1 ADD DUP6 SSTORE DUP3 ISZERO PUSH2 0x1B09 JUMPI SWAP2 DUP3 ADD JUMPDEST DUP3 DUP2 GT ISZERO PUSH2 0x1B08 JUMPI DUP3 MLOAD DUP3 SSTORE SWAP2 PUSH1 0x20 ADD SWAP2 SWAP1 PUSH1 0x1 ADD SWAP1 PUSH2 0x1AED JUMP JUMPDEST JUMPDEST POP SWAP1 POP PUSH2 0x1B16 SWAP2 SWAP1 PUSH2 0x1B1A JUMP JUMPDEST POP SWAP1 JUMP JUMPDEST JUMPDEST DUP1 DUP3 GT ISZERO PUSH2 0x1B33 JUMPI PUSH1 0x0 DUP2 PUSH1 0x0 SWAP1 SSTORE POP PUSH1 0x1 ADD PUSH2 0x1B1B JUMP JUMPDEST POP SWAP1 JUMP JUMPDEST PUSH1 0x0 PUSH1 0x40 MLOAD SWAP1 POP SWAP1 JUMP JUMPDEST PUSH1 0x0 DUP1 REVERT JUMPDEST PUSH1 0x0 DUP1 REVERT JUMPDEST PUSH1 0x0 PUSH32 0xFFFFFFFF00000000000000000000000000000000000000000000000000000000 DUP3 AND SWAP1 POP SWAP2 SWAP1 POP JUMP JUMPDEST PUSH2 0x1B80 DUP2 PUSH2 0x1B4B JUMP JUMPDEST DUP2 EQ PUSH2 0x1B8B JUMPI PUSH1 0x0 DUP1 REVERT JUMPDEST POP JUMP JUMPDEST PUSH1 0x0 DUP2 CALLDATALOAD SWAP1 POP PUSH2 0x1B9D DUP2 PUSH2 0x1B77 JUMP JUMPDEST SWAP3 SWAP2 POP POP JUMP JUMPDEST PUSH1 0x0 PUSH1 0x20 DUP3 DUP5 SUB SLT ISZERO PUSH2 0x1BB9 JUMPI PUSH2 0x1BB8 PUSH2 0x1B41 JUMP JUMPDEST JUMPDEST PUSH1 0x0 PUSH2 0x1BC7 DUP5 DUP3 DUP6 ADD PUSH2 0x1B8E JUMP JUMPDEST SWAP2 POP POP SWAP3 SWAP2 POP POP JUMP JUMPDEST PUSH1 0x0 DUP2 ISZERO ISZERO SWAP1 POP SWAP2 SWAP1 POP JUMP JUMPDEST PUSH2 0x1BE5 DUP2 PUSH2 0x1BD0 JUMP JUMPDEST DUP3 MSTORE POP POP JUMP JUMPDEST PUSH1 0x0 PUSH1 0x20 DUP3 ADD SWAP1 POP PUSH2 0x1C00 PUSH1 0x0 DUP4 ADD DUP5 PUSH2 0x1BDC JUMP JUMPDEST SWAP3 SWAP2 POP POP JUMP JUMPDEST PUSH1 0x0 DUP2 MLOAD SWAP1 POP SWAP2 SWAP1 POP JUMP JUMPDEST PUSH1 0x0 DUP3 DUP3 MSTORE PUSH1 0x20 DUP3 ADD SWAP1 POP SWAP3 SWAP2 POP POP JUMP JUMPDEST PUSH1 0x0 JUMPDEST DUP4 DUP2 LT ISZERO PUSH2 0x1C40 JUMPI DUP1 DUP3 ADD MLOAD DUP2 DUP5 ADD MSTORE PUSH1 0x20 DUP2 ADD SWAP1 POP PUSH2 0x1C25 JUMP JUMPDEST DUP4 DUP2 GT ISZERO PUSH2 0x1C4F JUMPI PUSH1 0x0 DUP5 DUP5 ADD MSTORE JUMPDEST POP POP POP POP JUMP JUMPDEST PUSH1 0x0 PUSH1 0x1F NOT PUSH1 0x1F DUP4 ADD AND SWAP1 POP SWAP2 SWAP1 POP JUMP JUMPDEST PUSH1 0x0 PUSH2 0x1C71 DUP3 PUSH2 0x1C06 JUMP JUMPDEST PUSH2 0x1C7B DUP2 DUP6 PUSH2 0x1C11 JUMP JUMPDEST SWAP4 POP PUSH2 0x1C8B DUP2 DUP6 PUSH1 0x20 DUP7 ADD PUSH2 0x1C22 JUMP JUMPDEST PUSH2 0x1C94 DUP2 PUSH2 0x1C55 JUMP JUMPDEST DUP5 ADD SWAP2 POP POP SWAP3 SWAP2 POP POP JUMP JUMPDEST PUSH1 0x0 PUSH1 0x20 DUP3 ADD SWAP1 POP DUP2 DUP2 SUB PUSH1 0x0 DUP4 ADD MSTORE PUSH2 0x1CB9 DUP2 DUP5 PUSH2 0x1C66 JUMP JUMPDEST SWAP1 POP SWAP3 SWAP2 POP POP JUMP JUMPDEST PUSH1 0x0 DUP2 SWAP1 POP SWAP2 SWAP1 POP JUMP JUMPDEST PUSH2 0x1CD4 DUP2 PUSH2 0x1CC1 JUMP JUMPDEST DUP2 EQ PUSH2 0x1CDF JUMPI PUSH1 0x0 DUP1 REVERT JUMPDEST POP JUMP JUMPDEST PUSH1 0x0 DUP2 CALLDATALOAD SWAP1 POP PUSH2 0x1CF1 DUP2 PUSH2 0x1CCB JUMP JUMPDEST SWAP3 SWAP2 POP POP JUMP JUMPDEST PUSH1 0x0 PUSH1 0x20 DUP3 DUP5 SUB SLT ISZERO PUSH2 0x1D0D JUMPI PUSH2 0x1D0C PUSH2 0x1B41 JUMP JUMPDEST JUMPDEST PUSH1 0x0 PUSH2 0x1D1B DUP5 DUP3 DUP6 ADD PUSH2 0x1CE2 JUMP JUMPDEST SWAP2 POP POP SWAP3 SWAP2 POP POP JUMP JUMPDEST PUSH1 0x0 PUSH20 0xFFFFFFFFFFFFFFFFFFFFFFFFFFFFFFFFFFFFFFFF DUP3 AND SWAP1 POP SWAP2 SWAP1 POP JUMP JUMPDEST PUSH1 0x0 PUSH2 0x1D4F DUP3 PUSH2 0x1D24 JUMP JUMPDEST SWAP1 POP SWAP2 SWAP1 POP JUMP JUMPDEST PUSH2 0x1D5F DUP2 PUSH2 0x1D44 JUMP JUMPDEST DUP3 MSTORE POP POP JUMP JUMPDEST PUSH1 0x0 PUSH1 0x20 DUP3 ADD SWAP1 POP PUSH2 0x1D7A PUSH1 0x0 DUP4 ADD DUP5 PUSH2 0x1D56 JUMP JUMPDEST SWAP3 SWAP2 POP POP JUMP JUMPDEST PUSH2 0x1D89 DUP2 PUSH2 0x1D44 JUMP JUMPDEST DUP2 EQ PUSH2 0x1D94 JUMPI PUSH1 0x0 DUP1 REVERT JUMPDEST POP JUMP JUMPDEST PUSH1 0x0 DUP2 CALLDATALOAD SWAP1 POP PUSH2 0x1DA6 DUP2 PUSH2 0x1D80 JUMP JUMPDEST SWAP3 SWAP2 POP POP JUMP JUMPDEST PUSH1 0x0 DUP1 PUSH1 0x40 DUP4 DUP6 SUB SLT ISZERO PUSH2 0x1DC3 JUMPI PUSH2 0x1DC2 PUSH2 0x1B41 JUMP JUMPDEST JUMPDEST PUSH1 0x0 PUSH2 0x1DD1 DUP6 DUP3 DUP7 ADD PUSH2 0x1D97 JUMP JUMPDEST SWAP3 POP POP PUSH1 0x20 PUSH2 0x1DE2 DUP6 DUP3 DUP7 ADD PUSH2 0x1CE2 JUMP JUMPDEST SWAP2 POP POP SWAP3 POP SWAP3 SWAP1 POP JUMP JUMPDEST PUSH1 0x0 DUP1 PUSH1 0x0 PUSH1 0x60 DUP5 DUP7 SUB SLT ISZERO PUSH2 0x1E05 JUMPI PUSH2 0x1E04 PUSH2 0x1B41 JUMP JUMPDEST JUMPDEST PUSH1 0x0 PUSH2 0x1E13 DUP7 DUP3 DUP8 ADD PUSH2 0x1D97 JUMP JUMPDEST SWAP4 POP POP PUSH1 0x20 PUSH2 0x1E24 DUP7 DUP3 DUP8 ADD PUSH2 0x1D97 JUMP JUMPDEST SWAP3 POP POP PUSH1 0x40 PUSH2 0x1E35 DUP7 DUP3 DUP8 ADD PUSH2 0x1CE2 JUMP JUMPDEST SWAP2 POP POP SWAP3 POP SWAP3 POP SWAP3 JUMP JUMPDEST PUSH1 0x0 PUSH1 0xFF DUP3 AND SWAP1 POP SWAP2 SWAP1 POP JUMP JUMPDEST PUSH2 0x1E55 DUP2 PUSH2 0x1E3F JUMP JUMPDEST DUP3 MSTORE POP POP JUMP JUMPDEST PUSH1 0x0 PUSH1 0x20 DUP3 ADD SWAP1 POP PUSH2 0x1E70 PUSH1 0x0 DUP4 ADD DUP5 PUSH2 0x1E4C JUMP JUMPDEST SWAP3 SWAP2 POP POP JUMP JUMPDEST PUSH1 0x0 PUSH1 0x20 DUP3 DUP5 SUB SLT ISZERO PUSH2 0x1E8C JUMPI PUSH2 0x1E8B PUSH2 0x1B41 JUMP JUMPDEST JUMPDEST PUSH1 0x0 PUSH2 0x1E9A DUP5 DUP3 DUP6 ADD PUSH2 0x1D97 JUMP JUMPDEST SWAP2 POP POP SWAP3 SWAP2 POP POP JUMP JUMPDEST PUSH2 0x1EAC DUP2 PUSH2 0x1CC1 JUMP JUMPDEST DUP3 MSTORE POP POP JUMP JUMPDEST PUSH1 0x0 PUSH1 0x20 DUP3 ADD SWAP1 POP PUSH2 0x1EC7 PUSH1 0x0 DUP4 ADD DUP5 PUSH2 0x1EA3 JUMP JUMPDEST SWAP3 SWAP2 POP POP JUMP JUMPDEST PUSH2 0x1ED6 DUP2 PUSH2 0x1BD0 JUMP JUMPDEST DUP2 EQ PUSH2 0x1EE1 JUMPI PUSH1 0x0 DUP1 REVERT JUMPDEST POP JUMP JUMPDEST PUSH1 0x0 DUP2 CALLDATALOAD SWAP1 POP PUSH2 0x1EF3 DUP2 PUSH2 0x1ECD JUMP JUMPDEST SWAP3 SWAP2 POP POP JUMP JUMPDEST PUSH1 0x0 DUP1 PUSH1 0x40 DUP4 DUP6 SUB SLT ISZERO PUSH2 0x1F10 JUMPI PUSH2 0x1F0F PUSH2 0x1B41 JUMP JUMPDEST JUMPDEST PUSH1 0x0 PUSH2 0x1F1E DUP6 DUP3 DUP7 ADD PUSH2 0x1D97 JUMP JUMPDEST SWAP3 POP POP PUSH1 0x20 PUSH2 0x1F2F DUP6 DUP3 DUP7 ADD PUSH2 0x1EE4 JUMP JUMPDEST SWAP2 POP POP SWAP3 POP SWAP3 SWAP1 POP JUMP JUMPDEST PUSH1 0x0 DUP1 REVERT JUMPDEST PUSH1 0x0 DUP1 REVERT JUMPDEST PUSH32 0x4E487B7100000000000000000000000000000000000000000000000000000000 PUSH1 0x0 MSTORE PUSH1 0x41 PUSH1 0x4 MSTORE PUSH1 0x24 PUSH1 0x0 REVERT JUMPDEST PUSH2 0x1F7B DUP3 PUSH2 0x1C55 JUMP JUMPDEST DUP2 ADD DUP2 DUP2 LT PUSH8 0xFFFFFFFFFFFFFFFF DUP3 GT OR ISZERO PUSH2 0x1F9A JUMPI PUSH2 0x1F99 PUSH2 0x1F43 JUMP JUMPDEST JUMPDEST DUP1 PUSH1 0x40 MSTORE POP POP POP JUMP JUMPDEST PUSH1 0x0 PUSH2 0x1FAD PUSH2 0x1B37 JUMP JUMPDEST SWAP1 POP PUSH2 0x1FB9 DUP3 DUP3 PUSH2 0x1F72 JUMP JUMPDEST SWAP2 SWAP1 POP JUMP JUMPDEST PUSH1 0x0 PUSH8 0xFFFFFFFFFFFFFFFF DUP3 GT ISZERO PUSH2 0x1FD9 JUMPI PUSH2 0x1FD8 PUSH2 0x1F43 JUMP JUMPDEST JUMPDEST PUSH2 0x1FE2 DUP3 PUSH2 0x1C55 JUMP JUMPDEST SWAP1 POP PUSH1 0x20 DUP2 ADD SWAP1 POP SWAP2 SWAP1 POP JUMP JUMPDEST DUP3 DUP2 DUP4 CALLDATACOPY PUSH1 0x0 DUP4 DUP4 ADD MSTORE POP POP POP JUMP JUMPDEST PUSH1 0x0 PUSH2 0x2011 PUSH2 0x200C DUP5 PUSH2 0x1FBE JUMP JUMPDEST PUSH2 0x1FA3 JUMP JUMPDEST SWAP1 POP DUP3 DUP2 MSTORE PUSH1 0x20 DUP2 ADD DUP5 DUP5 DUP5 ADD GT ISZERO PUSH2 0x202D JUMPI PUSH2 0x202C PUSH2 0x1F3E JUMP JUMPDEST JUMPDEST PUSH2 0x2038 DUP5 DUP3 DUP6 PUSH2 0x1FEF JUMP JUMPDEST POP SWAP4 SWAP3 POP POP POP JUMP JUMPDEST PUSH1 0x0 DUP3 PUSH1 0x1F DUP4 ADD SLT PUSH2 0x2055 JUMPI PUSH2 0x2054 PUSH2 0x1F39 JUMP JUMPDEST JUMPDEST DUP2 CALLDATALOAD PUSH2 0x2065 DUP5 DUP3 PUSH1 0x20 DUP7 ADD PUSH2 0x1FFE JUMP JUMPDEST SWAP2 POP POP SWAP3 SWAP2 POP POP JUMP JUMPDEST PUSH1 0x0 DUP1 PUSH1 0x0 DUP1 PUSH1 0x80 DUP6 DUP8 SUB SLT ISZERO PUSH2 0x2088 JUMPI PUSH2 0x2087 PUSH2 0x1B41 JUMP JUMPDEST JUMPDEST PUSH1 0x0 PUSH2 0x2096 DUP8 DUP3 DUP9 ADD PUSH2 0x1D97 JUMP JUMPDEST SWAP5 POP POP PUSH1 0x20 PUSH2 0x20A7 DUP8 DUP3 DUP9 ADD PUSH2 0x1D97 JUMP JUMPDEST SWAP4 POP POP PUSH1 0x40 PUSH2 0x20B8 DUP8 DUP3 DUP9 ADD PUSH2 0x1CE2 JUMP JUMPDEST SWAP3 POP POP PUSH1 0x60 DUP6 ADD CALLDATALOAD PUSH8 0xFFFFFFFFFFFFFFFF DUP2 GT ISZERO PUSH2 0x20D9 JUMPI PUSH2 0x20D8 PUSH2 0x1B46 JUMP JUMPDEST JUMPDEST PUSH2 0x20E5 DUP8 DUP3 DUP9 ADD PUSH2 0x2040 JUMP JUMPDEST SWAP2 POP POP SWAP3 SWAP6 SWAP2 SWAP5 POP SWAP3 POP JUMP JUMPDEST PUSH1 0x0 DUP1 PUSH1 0x40 DUP4 DUP6 SUB SLT ISZERO PUSH2 0x2108 JUMPI PUSH2 0x2107 PUSH2 0x1B41 JUMP JUMPDEST JUMPDEST PUSH1 0x0 PUSH2 0x2116 DUP6 DUP3 DUP7 ADD PUSH2 0x1D97 JUMP JUMPDEST SWAP3 POP POP PUSH1 0x20 PUSH2 0x2127 DUP6 DUP3 DUP7 ADD PUSH2 0x1D97 JUMP JUMPDEST SWAP2 POP POP SWAP3 POP SWAP3 SWAP1 POP JUMP JUMPDEST PUSH32 0x4E487B7100000000000000000000000000000000000000000000000000000000 PUSH1 0x0 MSTORE PUSH1 0x22 PUSH1 0x4 MSTORE PUSH1 0x24 PUSH1 0x0 REVERT JUMPDEST PUSH1 0x0 PUSH1 0x2 DUP3 DIV SWAP1 POP PUSH1 0x1 DUP3 AND DUP1 PUSH2 0x2178 JUMPI PUSH1 0x7F DUP3 AND SWAP2 POP JUMPDEST PUSH1 0x20 DUP3 LT DUP2 SUB PUSH2 0x218B JUMPI PUSH2 0x218A PUSH2 0x2131 JUMP JUMPDEST JUMPDEST POP SWAP2 SWAP1 POP JUMP JUMPDEST PUSH32 0x4552433732313A20617070726F76616C20746F2063757272656E74206F776E65 PUSH1 0x0 DUP3 ADD MSTORE PUSH32 0x7200000000000000000000000000000000000000000000000000000000000000 PUSH1 0x20 DUP3 ADD MSTORE POP JUMP JUMPDEST PUSH1 0x0 PUSH2 0x21ED PUSH1 0x21 DUP4 PUSH2 0x1C11 JUMP JUMPDEST SWAP2 POP PUSH2 0x21F8 DUP3 PUSH2 0x2191 JUMP JUMPDEST PUSH1 0x40 DUP3 ADD SWAP1 POP SWAP2 SWAP1 POP JUMP JUMPDEST PUSH1 0x0 PUSH1 0x20 DUP3 ADD SWAP1 POP DUP2 DUP2 SUB PUSH1 0x0 DUP4 ADD MSTORE PUSH2 0x221C DUP2 PUSH2 0x21E0 JUMP JUMPDEST SWAP1 POP SWAP2 SWAP1 POP JUMP JUMPDEST PUSH32 0x4552433732313A20617070726F76652063616C6C6572206973206E6F7420746F PUSH1 0x0 DUP3 ADD MSTORE PUSH32 0x6B656E206F776E6572206E6F7220617070726F76656420666F7220616C6C0000 PUSH1 0x20 DUP3 ADD MSTORE POP JUMP JUMPDEST PUSH1 0x0 PUSH2 0x227F PUSH1 0x3E DUP4 PUSH2 0x1C11 JUMP JUMPDEST SWAP2 POP PUSH2 0x228A DUP3 PUSH2 0x2223 JUMP JUMPDEST PUSH1 0x40 DUP3 ADD SWAP1 POP SWAP2 SWAP1 POP JUMP JUMPDEST PUSH1 0x0 PUSH1 0x20 DUP3 ADD SWAP1 POP DUP2 DUP2 SUB PUSH1 0x0 DUP4 ADD MSTORE PUSH2 0x22AE DUP2 PUSH2 0x2272 JUMP JUMPDEST SWAP1 POP SWAP2 SWAP1 POP JUMP JUMPDEST PUSH32 0x4552433732313A2063616C6C6572206973206E6F7420746F6B656E206F776E65 PUSH1 0x0 DUP3 ADD MSTORE PUSH32 0x72206E6F7220617070726F766564000000000000000000000000000000000000 PUSH1 0x20 DUP3 ADD MSTORE POP JUMP JUMPDEST PUSH1 0x0 PUSH2 0x2311 PUSH1 0x2E DUP4 PUSH2 0x1C11 JUMP JUMPDEST SWAP2 POP PUSH2 0x231C DUP3 PUSH2 0x22B5 JUMP JUMPDEST PUSH1 0x40 DUP3 ADD SWAP1 POP SWAP2 SWAP1 POP JUMP JUMPDEST PUSH1 0x0 PUSH1 0x20 DUP3 ADD SWAP1 POP DUP2 DUP2 SUB PUSH1 0x0 DUP4 ADD MSTORE PUSH2 0x2340 DUP2 PUSH2 0x2304 JUMP JUMPDEST SWAP1 POP SWAP2 SWAP1 POP JUMP JUMPDEST PUSH32 0x4E487B7100000000000000000000000000000000000000000000000000000000 PUSH1 0x0 MSTORE PUSH1 0x11 PUSH1 0x4 MSTORE PUSH1 0x24 PUSH1 0x0 REVERT JUMPDEST PUSH1 0x0 PUSH2 0x2381 DUP3 PUSH2 0x1E3F JUMP JUMPDEST SWAP2 POP PUSH2 0x238C DUP4 PUSH2 0x1E3F JUMP JUMPDEST SWAP3 POP DUP3 PUSH1 0xFF SUB DUP3 GT ISZERO PUSH2 0x23A2 JUMPI PUSH2 0x23A1 PUSH2 0x2347 JUMP JUMPDEST JUMPDEST DUP3 DUP3 ADD SWAP1 POP SWAP3 SWAP2 POP POP JUMP JUMPDEST PUSH32 0x4552433732313A20696E76616C696420746F6B656E2049440000000000000000 PUSH1 0x0 DUP3 ADD MSTORE POP JUMP JUMPDEST PUSH1 0x0 PUSH2 0x23E3 PUSH1 0x18 DUP4 PUSH2 0x1C11 JUMP JUMPDEST SWAP2 POP PUSH2 0x23EE DUP3 PUSH2 0x23AD JUMP JUMPDEST PUSH1 0x20 DUP3 ADD SWAP1 POP SWAP2 SWAP1 POP JUMP JUMPDEST PUSH1 0x0 PUSH1 0x20 DUP3 ADD SWAP1 POP DUP2 DUP2 SUB PUSH1 0x0 DUP4 ADD MSTORE PUSH2 0x2412 DUP2 PUSH2 0x23D6 JUMP JUMPDEST SWAP1 POP SWAP2 SWAP1 POP JUMP JUMPDEST PUSH32 0x4552433732313A2061646472657373207A65726F206973206E6F742061207661 PUSH1 0x0 DUP3 ADD MSTORE PUSH32 0x6C6964206F776E65720000000000000000000000000000000000000000000000 PUSH1 0x20 DUP3 ADD MSTORE POP JUMP JUMPDEST PUSH1 0x0 PUSH2 0x2475 PUSH1 0x29 DUP4 PUSH2 0x1C11 JUMP JUMPDEST SWAP2 POP PUSH2 0x2480 DUP3 PUSH2 0x2419 JUMP JUMPDEST PUSH1 0x40 DUP3 ADD SWAP1 POP SWAP2 SWAP1 POP JUMP JUMPDEST PUSH1 0x0 PUSH1 0x20 DUP3 ADD SWAP1 POP DUP2 DUP2 SUB PUSH1 0x0 DUP4 ADD MSTORE PUSH2 0x24A4 DUP2 PUSH2 0x2468 JUMP JUMPDEST SWAP1 POP SWAP2 SWAP1 POP JUMP JUMPDEST PUSH32 0x496E697469616C697A61626C653A20636F6E747261637420697320616C726561 PUSH1 0x0 DUP3 ADD MSTORE PUSH32 0x647920696E697469616C697A6564000000000000000000000000000000000000 PUSH1 0x20 DUP3 ADD MSTORE POP JUMP JUMPDEST PUSH1 0x0 PUSH2 0x2507 PUSH1 0x2E DUP4 PUSH2 0x1C11 JUMP JUMPDEST SWAP2 POP PUSH2 0x2512 DUP3 PUSH2 0x24AB JUMP JUMPDEST PUSH1 0x40 DUP3 ADD SWAP1 POP SWAP2 SWAP1 POP JUMP JUMPDEST PUSH1 0x0 PUSH1 0x20 DUP3 ADD SWAP1 POP DUP2 DUP2 SUB PUSH1 0x0 DUP4 ADD MSTORE PUSH2 0x2536 DUP2 PUSH2 0x24FA JUMP JUMPDEST SWAP1 POP SWAP2 SWAP1 POP JUMP JUMPDEST PUSH1 0x0 DUP2 SWAP1 POP SWAP2 SWAP1 POP JUMP JUMPDEST PUSH1 0x0 DUP2 SWAP1 POP SWAP2 SWAP1 POP JUMP JUMPDEST PUSH1 0x0 PUSH2 0x256C PUSH2 0x2567 PUSH2 0x2562 DUP5 PUSH2 0x253D JUMP JUMPDEST PUSH2 0x2547 JUMP JUMPDEST PUSH2 0x1E3F JUMP JUMPDEST SWAP1 POP SWAP2 SWAP1 POP JUMP JUMPDEST PUSH2 0x257C DUP2 PUSH2 0x2551 JUMP JUMPDEST DUP3 MSTORE POP POP JUMP JUMPDEST PUSH1 0x0 PUSH1 0x20 DUP3 ADD SWAP1 POP PUSH2 0x2597 PUSH1 0x0 DUP4 ADD DUP5 PUSH2 0x2573 JUMP JUMPDEST SWAP3 SWAP2 POP POP JUMP JUMPDEST PUSH1 0x0 PUSH2 0x25A8 DUP3 PUSH2 0x1E3F JUMP JUMPDEST SWAP2 POP PUSH2 0x25B3 DUP4 PUSH2 0x1E3F JUMP JUMPDEST SWAP3 POP DUP3 DUP3 LT ISZERO PUSH2 0x25C6 JUMPI PUSH2 0x25C5 PUSH2 0x2347 JUMP JUMPDEST JUMPDEST DUP3 DUP3 SUB SWAP1 POP SWAP3 SWAP2 POP POP JUMP JUMPDEST PUSH1 0x0 DUP2 SWAP1 POP SWAP3 SWAP2 POP POP JUMP JUMPDEST PUSH1 0x0 PUSH2 0x25E7 DUP3 PUSH2 0x1C06 JUMP JUMPDEST PUSH2 0x25F1 DUP2 DUP6 PUSH2 0x25D1 JUMP JUMPDEST SWAP4 POP PUSH2 0x2601 DUP2 DUP6 PUSH1 0x20 DUP7 ADD PUSH2 0x1C22 JUMP JUMPDEST DUP1 DUP5 ADD SWAP2 POP POP SWAP3 SWAP2 POP POP JUMP JUMPDEST PUSH1 0x0 PUSH2 0x2619 DUP3 DUP6 PUSH2 0x25DC JUMP JUMPDEST SWAP2 POP PUSH2 0x2625 DUP3 DUP5 PUSH2 0x25DC JUMP JUMPDEST SWAP2 POP DUP2 SWAP1 POP SWAP4 SWAP3 POP POP POP JUMP JUMPDEST PUSH32 0x4552433732313A207472616E736665722066726F6D20696E636F727265637420 PUSH1 0x0 DUP3 ADD MSTORE PUSH32 0x6F776E6572000000000000000000000000000000000000000000000000000000 PUSH1 0x20 DUP3 ADD MSTORE POP JUMP JUMPDEST PUSH1 0x0 PUSH2 0x268D PUSH1 0x25 DUP4 PUSH2 0x1C11 JUMP JUMPDEST SWAP2 POP PUSH2 0x2698 DUP3 PUSH2 0x2631 JUMP JUMPDEST PUSH1 0x40 DUP3 ADD SWAP1 POP SWAP2 SWAP1 POP JUMP JUMPDEST PUSH1 0x0 PUSH1 0x20 DUP3 ADD SWAP1 POP DUP2 DUP2 SUB PUSH1 0x0 DUP4 ADD MSTORE PUSH2 0x26BC DUP2 PUSH2 0x2680 JUMP JUMPDEST SWAP1 POP SWAP2 SWAP1 POP JUMP JUMPDEST PUSH32 0x4552433732313A207472616E7366657220746F20746865207A65726F20616464 PUSH1 0x0 DUP3 ADD MSTORE PUSH32 0x7265737300000000000000000000000000000000000000000000000000000000 PUSH1 0x20 DUP3 ADD MSTORE POP JUMP JUMPDEST PUSH1 0x0 PUSH2 0x271F PUSH1 0x24 DUP4 PUSH2 0x1C11 JUMP JUMPDEST SWAP2 POP PUSH2 0x272A DUP3 PUSH2 0x26C3 JUMP JUMPDEST PUSH1 0x40 DUP3 ADD SWAP1 POP SWAP2 SWAP1 POP JUMP JUMPDEST PUSH1 0x0 PUSH1 0x20 DUP3 ADD SWAP1 POP DUP2 DUP2 SUB PUSH1 0x0 DUP4 ADD MSTORE PUSH2 0x274E DUP2 PUSH2 0x2712 JUMP JUMPDEST SWAP1 POP SWAP2 SWAP1 POP JUMP JUMPDEST PUSH1 0x0 PUSH2 0x2760 DUP3 PUSH2 0x1CC1 JUMP JUMPDEST SWAP2 POP PUSH2 0x276B DUP4 PUSH2 0x1CC1 JUMP JUMPDEST SWAP3 POP DUP3 DUP3 LT ISZERO PUSH2 0x277E JUMPI PUSH2 0x277D PUSH2 0x2347 JUMP JUMPDEST JUMPDEST DUP3 DUP3 SUB SWAP1 POP SWAP3 SWAP2 POP POP JUMP JUMPDEST PUSH1 0x0 PUSH2 0x2794 DUP3 PUSH2 0x1CC1 JUMP JUMPDEST SWAP2 POP PUSH2 0x279F DUP4 PUSH2 0x1CC1 JUMP JUMPDEST SWAP3 POP DUP3 PUSH32 0xFFFFFFFFFFFFFFFFFFFFFFFFFFFFFFFFFFFFFFFFFFFFFFFFFFFFFFFFFFFFFFFF SUB DUP3 GT ISZERO PUSH2 0x27D4 JUMPI PUSH2 0x27D3 PUSH2 0x2347 JUMP JUMPDEST JUMPDEST DUP3 DUP3 ADD SWAP1 POP SWAP3 SWAP2 POP POP JUMP JUMPDEST PUSH32 0x4552433732313A206D696E7420746F20746865207A65726F2061646472657373 PUSH1 0x0 DUP3 ADD MSTORE POP JUMP JUMPDEST PUSH1 0x0 PUSH2 0x2815 PUSH1 0x20 DUP4 PUSH2 0x1C11 JUMP JUMPDEST SWAP2 POP PUSH2 0x2820 DUP3 PUSH2 0x27DF JUMP JUMPDEST PUSH1 0x20 DUP3 ADD SWAP1 POP SWAP2 SWAP1 POP JUMP JUMPDEST PUSH1 0x0 PUSH1 0x20 DUP3 ADD SWAP1 POP DUP2 DUP2 SUB PUSH1 0x0 DUP4 ADD MSTORE PUSH2 0x2844 DUP2 PUSH2 0x2808 JUMP JUMPDEST SWAP1 POP SWAP2 SWAP1 POP JUMP JUMPDEST PUSH32 0x4552433732313A20746F6B656E20616C7265616479206D696E74656400000000 PUSH1 0x0 DUP3 ADD MSTORE POP JUMP JUMPDEST PUSH1 0x0 PUSH2 0x2881 PUSH1 0x1C DUP4 PUSH2 0x1C11 JUMP JUMPDEST SWAP2 POP PUSH2 0x288C DUP3 PUSH2 0x284B JUMP JUMPDEST PUSH1 0x20 DUP3 ADD SWAP1 POP SWAP2 SWAP1 POP JUMP JUMPDEST PUSH1 0x0 PUSH1 0x20 DUP3 ADD SWAP1 POP DUP2 DUP2 SUB PUSH1 0x0 DUP4 ADD MSTORE PUSH2 0x28B0 DUP2 PUSH2 0x2874 JUMP JUMPDEST SWAP1 POP SWAP2 SWAP1 POP JUMP JUMPDEST PUSH32 0x496E697469616C697A61626C653A20636F6E7472616374206973206E6F742069 PUSH1 0x0 DUP3 ADD MSTORE PUSH32 0x6E697469616C697A696E67000000000000000000000000000000000000000000 PUSH1 0x20 DUP3 ADD MSTORE POP JUMP JUMPDEST PUSH1 0x0 PUSH2 0x2913 PUSH1 0x2B DUP4 PUSH2 0x1C11 JUMP JUMPDEST SWAP2 POP PUSH2 0x291E DUP3 PUSH2 0x28B7 JUMP JUMPDEST PUSH1 0x40 DUP3 ADD SWAP1 POP SWAP2 SWAP1 POP JUMP JUMPDEST PUSH1 0x0 PUSH1 0x20 DUP3 ADD SWAP1 POP DUP2 DUP2 SUB PUSH1 0x0 DUP4 ADD MSTORE PUSH2 0x2942 DUP2 PUSH2 0x2906 JUMP JUMPDEST SWAP1 POP SWAP2 SWAP1 POP JUMP JUMPDEST PUSH32 0x4552433732313A20617070726F766520746F2063616C6C657200000000000000 PUSH1 0x0 DUP3 ADD MSTORE POP JUMP JUMPDEST PUSH1 0x0 PUSH2 0x297F PUSH1 0x19 DUP4 PUSH2 0x1C11 JUMP JUMPDEST SWAP2 POP PUSH2 0x298A DUP3 PUSH2 0x2949 JUMP JUMPDEST PUSH1 0x20 DUP3 ADD SWAP1 POP SWAP2 SWAP1 POP JUMP JUMPDEST PUSH1 0x0 PUSH1 0x20 DUP3 ADD SWAP1 POP DUP2 DUP2 SUB PUSH1 0x0 DUP4 ADD MSTORE PUSH2 0x29AE DUP2 PUSH2 0x2972 JUMP JUMPDEST SWAP1 POP SWAP2 SWAP1 POP JUMP JUMPDEST PUSH32 0x4552433732313A207472616E7366657220746F206E6F6E204552433732315265 PUSH1 0x0 DUP3 ADD MSTORE PUSH32 0x63656976657220696D706C656D656E7465720000000000000000000000000000 PUSH1 0x20 DUP3 ADD MSTORE POP JUMP JUMPDEST PUSH1 0x0 PUSH2 0x2A11 PUSH1 0x32 DUP4 PUSH2 0x1C11 JUMP JUMPDEST SWAP2 POP PUSH2 0x2A1C DUP3 PUSH2 0x29B5 JUMP JUMPDEST PUSH1 0x40 DUP3 ADD SWAP1 POP SWAP2 SWAP1 POP JUMP JUMPDEST PUSH1 0x0 PUSH1 0x20 DUP3 ADD SWAP1 POP DUP2 DUP2 SUB PUSH1 0x0 DUP4 ADD MSTORE PUSH2 0x2A40 DUP2 PUSH2 0x2A04 JUMP JUMPDEST SWAP1 POP SWAP2 SWAP1 POP JUMP JUMPDEST PUSH1 0x0 PUSH2 0x2A52 DUP3 PUSH2 0x1CC1 JUMP JUMPDEST SWAP2 POP PUSH32 0xFFFFFFFFFFFFFFFFFFFFFFFFFFFFFFFFFFFFFFFFFFFFFFFFFFFFFFFFFFFFFFFF DUP3 SUB PUSH2 0x2A84 JUMPI PUSH2 0x2A83 PUSH2 0x2347 JUMP JUMPDEST JUMPDEST PUSH1 0x1 DUP3 ADD SWAP1 POP SWAP2 SWAP1 POP JUMP JUMPDEST PUSH32 0x4E487B7100000000000000000000000000000000000000000000000000000000 PUSH1 0x0 MSTORE PUSH1 0x12 PUSH1 0x4 MSTORE PUSH1 0x24 PUSH1 0x0 REVERT JUMPDEST PUSH1 0x0 PUSH2 0x2AC9 DUP3 PUSH2 0x1CC1 JUMP JUMPDEST SWAP2 POP PUSH2 0x2AD4 DUP4 PUSH2 0x1CC1 JUMP JUMPDEST SWAP3 POP DUP3 PUSH2 0x2AE4 JUMPI PUSH2 0x2AE3 PUSH2 0x2A8F JUMP JUMPDEST JUMPDEST DUP3 DUP3 DIV SWAP1 POP SWAP3 SWAP2 POP POP JUMP JUMPDEST PUSH1 0x0 PUSH2 0x2AFA DUP3 PUSH2 0x1CC1 JUMP JUMPDEST SWAP2 POP PUSH2 0x2B05 DUP4 PUSH2 0x1CC1 JUMP JUMPDEST SWAP3 POP DUP3 PUSH2 0x2B15 JUMPI PUSH2 0x2B14 PUSH2 0x2A8F JUMP JUMPDEST JUMPDEST DUP3 DUP3 MOD SWAP1 POP SWAP3 SWAP2 POP POP JUMP JUMPDEST PUSH32 0x4E487B7100000000000000000000000000000000000000000000000000000000 PUSH1 0x0 MSTORE PUSH1 0x32 PUSH1 0x4 MSTORE PUSH1 0x24 PUSH1 0x0 REVERT JUMPDEST PUSH1 0x0 DUP2 MLOAD SWAP1 POP SWAP2 SWAP1 POP JUMP JUMPDEST PUSH1 0x0 DUP3 DUP3 MSTORE PUSH1 0x20 DUP3 ADD SWAP1 POP SWAP3 SWAP2 POP POP JUMP JUMPDEST PUSH1 0x0 PUSH2 0x2B76 DUP3 PUSH2 0x2B4F JUMP JUMPDEST PUSH2 0x2B80 DUP2 DUP6 PUSH2 0x2B5A JUMP JUMPDEST SWAP4 POP PUSH2 0x2B90 DUP2 DUP6 PUSH1 0x20 DUP7 ADD PUSH2 0x1C22 JUMP JUMPDEST PUSH2 0x2B99 DUP2 PUSH2 0x1C55 JUMP JUMPDEST DUP5 ADD SWAP2 POP POP SWAP3 SWAP2 POP POP JUMP JUMPDEST PUSH1 0x0 PUSH1 0x80 DUP3 ADD SWAP1 POP PUSH2 0x2BB9 PUSH1 0x0 DUP4 ADD DUP8 PUSH2 0x1D56 JUMP JUMPDEST PUSH2 0x2BC6 PUSH1 0x20 DUP4 ADD DUP7 PUSH2 0x1D56 JUMP JUMPDEST PUSH2 0x2BD3 PUSH1 0x40 DUP4 ADD DUP6 PUSH2 0x1EA3 JUMP JUMPDEST DUP2 DUP2 SUB PUSH1 0x60 DUP4 ADD MSTORE PUSH2 0x2BE5 DUP2 DUP5 PUSH2 0x2B6B JUMP JUMPDEST SWAP1 POP SWAP6 SWAP5 POP POP POP POP POP JUMP JUMPDEST PUSH1 0x0 DUP2 MLOAD SWAP1 POP PUSH2 0x2BFF DUP2 PUSH2 0x1B77 JUMP JUMPDEST SWAP3 SWAP2 POP POP JUMP JUMPDEST PUSH1 0x0 PUSH1 0x20 DUP3 DUP5 SUB SLT ISZERO PUSH2 0x2C1B JUMPI PUSH2 0x2C1A PUSH2 0x1B41 JUMP JUMPDEST JUMPDEST PUSH1 0x0 PUSH2 0x2C29 DUP5 DUP3 DUP6 ADD PUSH2 0x2BF0 JUMP JUMPDEST SWAP2 POP POP SWAP3 SWAP2 POP POP JUMP INVALID LOG2 PUSH5 0x6970667358 0x22 SLT KECCAK256 JUMP PUSH18 0x6AC2C90C016301C797B943D15229689ACA21 0xCC 0xEE RETURNDATASIZE 0xD0 0xB1 0xB1 0xB8 0xD 0x5E CALLVALUE 0xA6 XOR PUSH5 0x736F6C6343 STOP ADDMOD 0xD STOP CALLER "
				},
				"gasEstimates": {
					"creation": {
						"codeDepositCost": "2273600",
						"executionCost": "73124",
						"totalCost": "2346724"
					},
					"external": {
						"approve(address,uint256)": "infinite",
						"balanceOf(address)": "2899",
						"claimToken()": "infinite",
						"getApproved(uint256)": "5257",
						"initialize()": "infinite",
						"isApprovedForAll(address,address)": "infinite",
						"maxTokens()": "2609",
						"name()": "infinite",
						"ownerOf(uint256)": "3067",
						"safeTransferFrom(address,address,uint256)": "infinite",
						"safeTransferFrom(address,address,uint256,bytes)": "infinite",
						"setApprovalForAll(address,bool)": "infinite",
						"supportsInterface(bytes4)": "797",
						"symbol()": "infinite",
						"tokenCount()": "2560",
						"tokenURI(uint256)": "3424",
						"totalTokenOwners()": "2524",
						"transferFrom(address,address,uint256)": "infinite",
						"unclaimedTokens()": "infinite"
					}
				},
				"methodIdentifiers": {
					"approve(address,uint256)": "095ea7b3",
					"balanceOf(address)": "70a08231",
					"claimToken()": "4451d89f",
					"getApproved(uint256)": "081812fc",
					"initialize()": "8129fc1c",
					"isApprovedForAll(address,address)": "e985e9c5",
					"maxTokens()": "e8315742",
					"name()": "06fdde03",
					"ownerOf(uint256)": "6352211e",
					"safeTransferFrom(address,address,uint256)": "42842e0e",
					"safeTransferFrom(address,address,uint256,bytes)": "b88d4fde",
					"setApprovalForAll(address,bool)": "a22cb465",
					"supportsInterface(bytes4)": "01ffc9a7",
					"symbol()": "95d89b41",
					"tokenCount()": "9f181b5e",
					"tokenURI(uint256)": "c87b56dd",
					"totalTokenOwners()": "2cabbfe2",
					"transferFrom(address,address,uint256)": "23b872dd",
					"unclaimedTokens()": "c394f6cb"
				}
			},
			"storageLayout": {
				"storage": [
					{
						"astId": 6,
						"contract": "contracts/DeStore/GatedAppSimple.sol:GateApp",
						"label": "_initialized",
						"offset": 0,
						"slot": "0",
						"type": "t_uint8"
					},
					{
						"astId": 9,
						"contract": "contracts/DeStore/GatedAppSimple.sol:GateApp",
						"label": "_initializing",
						"offset": 1,
						"slot": "0",
						"type": "t_bool"
					},
					{
						"astId": 1487,
						"contract": "contracts/DeStore/GatedAppSimple.sol:GateApp",
						"label": "__gap",
						"offset": 0,
						"slot": "1",
						"type": "t_array(t_uint256)50_storage"
					},
					{
						"astId": 1757,
						"contract": "contracts/DeStore/GatedAppSimple.sol:GateApp",
						"label": "__gap",
						"offset": 0,
						"slot": "51",
						"type": "t_array(t_uint256)50_storage"
					},
					{
						"astId": 179,
						"contract": "contracts/DeStore/GatedAppSimple.sol:GateApp",
						"label": "_name",
						"offset": 0,
						"slot": "101",
						"type": "t_string_storage"
					},
					{
						"astId": 181,
						"contract": "contracts/DeStore/GatedAppSimple.sol:GateApp",
						"label": "_symbol",
						"offset": 0,
						"slot": "102",
						"type": "t_string_storage"
					},
					{
						"astId": 185,
						"contract": "contracts/DeStore/GatedAppSimple.sol:GateApp",
						"label": "_owners",
						"offset": 0,
						"slot": "103",
						"type": "t_mapping(t_uint256,t_address)"
					},
					{
						"astId": 189,
						"contract": "contracts/DeStore/GatedAppSimple.sol:GateApp",
						"label": "_balances",
						"offset": 0,
						"slot": "104",
						"type": "t_mapping(t_address,t_uint256)"
					},
					{
						"astId": 193,
						"contract": "contracts/DeStore/GatedAppSimple.sol:GateApp",
						"label": "_tokenApprovals",
						"offset": 0,
						"slot": "105",
						"type": "t_mapping(t_uint256,t_address)"
					},
					{
						"astId": 199,
						"contract": "contracts/DeStore/GatedAppSimple.sol:GateApp",
						"label": "_operatorApprovals",
						"offset": 0,
						"slot": "106",
						"type": "t_mapping(t_address,t_mapping(t_address,t_bool))"
					},
					{
						"astId": 1041,
						"contract": "contracts/DeStore/GatedAppSimple.sol:GateApp",
						"label": "__gap",
						"offset": 0,
						"slot": "107",
						"type": "t_array(t_uint256)44_storage"
					},
					{
						"astId": 1778,
						"contract": "contracts/DeStore/GatedAppSimple.sol:GateApp",
						"label": "tokenCount",
						"offset": 0,
						"slot": "151",
						"type": "t_uint8"
					},
					{
						"astId": 1781,
						"contract": "contracts/DeStore/GatedAppSimple.sol:GateApp",
						"label": "maxTokens",
						"offset": 1,
						"slot": "151",
						"type": "t_uint8"
					},
					{
						"astId": 1784,
						"contract": "contracts/DeStore/GatedAppSimple.sol:GateApp",
						"label": "initialTokenPrice",
						"offset": 0,
						"slot": "152",
						"type": "t_uint256"
					}
				],
				"types": {
					"t_address": {
						"encoding": "inplace",
						"label": "address",
						"numberOfBytes": "20"
					},
					"t_array(t_uint256)44_storage": {
						"base": "t_uint256",
						"encoding": "inplace",
						"label": "uint256[44]",
						"numberOfBytes": "1408"
					},
					"t_array(t_uint256)50_storage": {
						"base": "t_uint256",
						"encoding": "inplace",
						"label": "uint256[50]",
						"numberOfBytes": "1600"
					},
					"t_bool": {
						"encoding": "inplace",
						"label": "bool",
						"numberOfBytes": "1"
					},
					"t_mapping(t_address,t_bool)": {
						"encoding": "mapping",
						"key": "t_address",
						"label": "mapping(address => bool)",
						"numberOfBytes": "32",
						"value": "t_bool"
					},
					"t_mapping(t_address,t_mapping(t_address,t_bool))": {
						"encoding": "mapping",
						"key": "t_address",
						"label": "mapping(address => mapping(address => bool))",
						"numberOfBytes": "32",
						"value": "t_mapping(t_address,t_bool)"
					},
					"t_mapping(t_address,t_uint256)": {
						"encoding": "mapping",
						"key": "t_address",
						"label": "mapping(address => uint256)",
						"numberOfBytes": "32",
						"value": "t_uint256"
					},
					"t_mapping(t_uint256,t_address)": {
						"encoding": "mapping",
						"key": "t_uint256",
						"label": "mapping(uint256 => address)",
						"numberOfBytes": "32",
						"value": "t_address"
					},
					"t_string_storage": {
						"encoding": "bytes",
						"label": "string",
						"numberOfBytes": "32"
					},
					"t_uint256": {
						"encoding": "inplace",
						"label": "uint256",
						"numberOfBytes": "32"
					},
					"t_uint8": {
						"encoding": "inplace",
						"label": "uint8",
						"numberOfBytes": "1"
					}
				}
			},
			"userdoc": {
				"kind": "user",
				"methods": {},
				"version": 1
			}
		}
	}
}