{
	"contracts/DeStore/Store.sol": {
		"Store": {
			"abi": [
				{
					"anonymous": false,
					"inputs": [
						{
							"indexed": true,
							"internalType": "address",
							"name": "previousOwner",
							"type": "address"
						},
						{
							"indexed": true,
							"internalType": "address",
							"name": "newOwner",
							"type": "address"
						}
					],
					"name": "OwnershipTransferred",
					"type": "event"
				},
				{
					"inputs": [
						{
							"internalType": "uint256",
							"name": "squareId",
							"type": "uint256"
						}
					],
					"name": "getStore",
					"outputs": [
						{
							"components": [
								{
									"components": [
										{
											"internalType": "string",
											"name": "storeName",
											"type": "string"
										},
										{
											"internalType": "string",
											"name": "addressLine1",
											"type": "string"
										},
										{
											"internalType": "string",
											"name": "country",
											"type": "string"
										},
										{
											"internalType": "string",
											"name": "postalCode",
											"type": "string"
										}
									],
									"internalType": "struct Store.StoreOnSquare",
									"name": "squareId",
									"type": "tuple"
								}
							],
							"internalType": "struct Store.Square",
							"name": "_stores",
							"type": "tuple"
						}
					],
					"stateMutability": "view",
					"type": "function"
				},
				{
					"inputs": [],
					"name": "owner",
					"outputs": [
						{
							"internalType": "address",
							"name": "",
							"type": "address"
						}
					],
					"stateMutability": "view",
					"type": "function"
				},
				{
					"inputs": [
						{
							"internalType": "uint256",
							"name": "squareId",
							"type": "uint256"
						},
						{
							"components": [
								{
									"internalType": "string",
									"name": "storeName",
									"type": "string"
								},
								{
									"internalType": "string",
									"name": "addressLine1",
									"type": "string"
								},
								{
									"internalType": "string",
									"name": "country",
									"type": "string"
								},
								{
									"internalType": "string",
									"name": "postalCode",
									"type": "string"
								}
							],
							"internalType": "struct Store.StoreOnSquare",
							"name": "_stores",
							"type": "tuple"
						}
					],
					"name": "registSquare",
					"outputs": [
						{
							"internalType": "bool",
							"name": "success",
							"type": "bool"
						}
					],
					"stateMutability": "nonpayable",
					"type": "function"
				},
				{
					"inputs": [],
					"name": "renounceOwnership",
					"outputs": [],
					"stateMutability": "nonpayable",
					"type": "function"
				},
				{
					"inputs": [
						{
							"internalType": "address",
							"name": "newOwner",
							"type": "address"
						}
					],
					"name": "transferOwnership",
					"outputs": [],
					"stateMutability": "nonpayable",
					"type": "function"
				}
			],
			"devdoc": {
				"kind": "dev",
				"methods": {
					"owner()": {
						"details": "Returns the address of the current owner."
					},
					"renounceOwnership()": {
						"details": "Leaves the contract without owner. It will not be possible to call `onlyOwner` functions anymore. Can only be called by the current owner. NOTE: Renouncing ownership will leave the contract without an owner, thereby removing any functionality that is only available to the owner."
					},
					"transferOwnership(address)": {
						"details": "Transfers ownership of the contract to a new account (`newOwner`). Can only be called by the current owner."
					}
				},
				"version": 1
			},
			"evm": {
				"assembly": "    /* \"contracts/DeStore/Store.sol\":152:1145  contract Store is Ownable{... */\n  mstore(0x40, 0x80)\n  callvalue\n  dup1\n  iszero\n  tag_1\n  jumpi\n  0x00\n  dup1\n  revert\ntag_1:\n  pop\n    /* \"openzeppelin-solidity/contracts/access/Ownable.sol\":921:953  _transferOwnership(_msgSender()) */\n  tag_4\n    /* \"openzeppelin-solidity/contracts/access/Ownable.sol\":940:952  _msgSender() */\n  tag_5\n    /* \"openzeppelin-solidity/contracts/access/Ownable.sol\":940:950  _msgSender */\n  shl(0x20, tag_6)\n    /* \"openzeppelin-solidity/contracts/access/Ownable.sol\":940:952  _msgSender() */\n  0x20\n  shr\n  jump\t// in\ntag_5:\n    /* \"openzeppelin-solidity/contracts/access/Ownable.sol\":921:939  _transferOwnership */\n  shl(0x20, tag_7)\n    /* \"openzeppelin-solidity/contracts/access/Ownable.sol\":921:953  _transferOwnership(_msgSender()) */\n  0x20\n  shr\n  jump\t// in\ntag_4:\n    /* \"contracts/DeStore/Store.sol\":152:1145  contract Store is Ownable{... */\n  jump(tag_8)\n    /* \"openzeppelin-solidity/contracts/utils/Context.sol\":640:736  function _msgSender() internal view virtual returns (address) {... */\ntag_6:\n    /* \"openzeppelin-solidity/contracts/utils/Context.sol\":693:700  address */\n  0x00\n    /* \"openzeppelin-solidity/contracts/utils/Context.sol\":719:729  msg.sender */\n  caller\n    /* \"openzeppelin-solidity/contracts/utils/Context.sol\":712:729  return msg.sender */\n  swap1\n  pop\n    /* \"openzeppelin-solidity/contracts/utils/Context.sol\":640:736  function _msgSender() internal view virtual returns (address) {... */\n  swap1\n  jump\t// out\n    /* \"openzeppelin-solidity/contracts/access/Ownable.sol\":2270:2457  function _transferOwnership(address newOwner) internal virtual {... */\ntag_7:\n    /* \"openzeppelin-solidity/contracts/access/Ownable.sol\":2343:2359  address oldOwner */\n  0x00\n    /* \"openzeppelin-solidity/contracts/access/Ownable.sol\":2362:2368  _owner */\n  dup1\n  0x00\n  swap1\n  sload\n  swap1\n  0x0100\n  exp\n  swap1\n  div\n  0xffffffffffffffffffffffffffffffffffffffff\n  and\n    /* \"openzeppelin-solidity/contracts/access/Ownable.sol\":2343:2368  address oldOwner = _owner */\n  swap1\n  pop\n    /* \"openzeppelin-solidity/contracts/access/Ownable.sol\":2387:2395  newOwner */\n  dup2\n    /* \"openzeppelin-solidity/contracts/access/Ownable.sol\":2378:2384  _owner */\n  0x00\n  dup1\n    /* \"openzeppelin-solidity/contracts/access/Ownable.sol\":2378:2395  _owner = newOwner */\n  0x0100\n  exp\n  dup2\n  sload\n  dup2\n  0xffffffffffffffffffffffffffffffffffffffff\n  mul\n  not\n  and\n  swap1\n  dup4\n  0xffffffffffffffffffffffffffffffffffffffff\n  and\n  mul\n  or\n  swap1\n  sstore\n  pop\n    /* \"openzeppelin-solidity/contracts/access/Ownable.sol\":2441:2449  newOwner */\n  dup2\n    /* \"openzeppelin-solidity/contracts/access/Ownable.sol\":2410:2450  OwnershipTransferred(oldOwner, newOwner) */\n  0xffffffffffffffffffffffffffffffffffffffff\n  and\n    /* \"openzeppelin-solidity/contracts/access/Ownable.sol\":2431:2439  oldOwner */\n  dup2\n    /* \"openzeppelin-solidity/contracts/access/Ownable.sol\":2410:2450  OwnershipTransferred(oldOwner, newOwner) */\n  0xffffffffffffffffffffffffffffffffffffffff\n  and\n  0x8be0079c531659141344cd1fd0a4f28419497f9722a3daafe3b4186f6b6457e0\n  mload(0x40)\n  mload(0x40)\n  dup1\n  swap2\n  sub\n  swap1\n  log3\n    /* \"openzeppelin-solidity/contracts/access/Ownable.sol\":2333:2457  {... */\n  pop\n    /* \"openzeppelin-solidity/contracts/access/Ownable.sol\":2270:2457  function _transferOwnership(address newOwner) internal virtual {... */\n  pop\n  jump\t// out\n    /* \"contracts/DeStore/Store.sol\":152:1145  contract Store is Ownable{... */\ntag_8:\n  dataSize(sub_0)\n  dup1\n  dataOffset(sub_0)\n  0x00\n  codecopy\n  0x00\n  return\nstop\n\nsub_0: assembly {\n        /* \"contracts/DeStore/Store.sol\":152:1145  contract Store is Ownable{... */\n      mstore(0x40, 0x80)\n      callvalue\n      dup1\n      iszero\n      tag_1\n      jumpi\n      0x00\n      dup1\n      revert\n    tag_1:\n      pop\n      jumpi(tag_2, lt(calldatasize, 0x04))\n      shr(0xe0, calldataload(0x00))\n      dup1\n      0x2908ac\n      eq\n      tag_3\n      jumpi\n      dup1\n      0x715018a6\n      eq\n      tag_4\n      jumpi\n      dup1\n      0x83403120\n      eq\n      tag_5\n      jumpi\n      dup1\n      0x8da5cb5b\n      eq\n      tag_6\n      jumpi\n      dup1\n      0xf2fde38b\n      eq\n      tag_7\n      jumpi\n    tag_2:\n      0x00\n      dup1\n      revert\n        /* \"contracts/DeStore/Store.sol\":594:1016  function registSquare(uint squareId, StoreOnSquare memory _stores) public onlyOwner returns(bool success){... */\n    tag_3:\n      tag_8\n      0x04\n      dup1\n      calldatasize\n      sub\n      dup2\n      add\n      swap1\n      tag_9\n      swap2\n      swap1\n      tag_10\n      jump\t// in\n    tag_9:\n      tag_11\n      jump\t// in\n    tag_8:\n      mload(0x40)\n      tag_12\n      swap2\n      swap1\n      tag_13\n      jump\t// in\n    tag_12:\n      mload(0x40)\n      dup1\n      swap2\n      sub\n      swap1\n      return\n        /* \"openzeppelin-solidity/contracts/access/Ownable.sol\":1668:1769  function renounceOwnership() public virtual onlyOwner {... */\n    tag_4:\n      tag_14\n      tag_15\n      jump\t// in\n    tag_14:\n      stop\n        /* \"contracts/DeStore/Store.sol\":1022:1143  function getStore(uint squareId) public view returns(Square memory _stores){... */\n    tag_5:\n      tag_16\n      0x04\n      dup1\n      calldatasize\n      sub\n      dup2\n      add\n      swap1\n      tag_17\n      swap2\n      swap1\n      tag_18\n      jump\t// in\n    tag_17:\n      tag_19\n      jump\t// in\n    tag_16:\n      mload(0x40)\n      tag_20\n      swap2\n      swap1\n      tag_21\n      jump\t// in\n    tag_20:\n      mload(0x40)\n      dup1\n      swap2\n      sub\n      swap1\n      return\n        /* \"openzeppelin-solidity/contracts/access/Ownable.sol\":1036:1121  function owner() public view virtual returns (address) {... */\n    tag_6:\n      tag_22\n      tag_23\n      jump\t// in\n    tag_22:\n      mload(0x40)\n      tag_24\n      swap2\n      swap1\n      tag_25\n      jump\t// in\n    tag_24:\n      mload(0x40)\n      dup1\n      swap2\n      sub\n      swap1\n      return\n        /* \"openzeppelin-solidity/contracts/access/Ownable.sol\":1918:2116  function transferOwnership(address newOwner) public virtual onlyOwner {... */\n    tag_7:\n      tag_26\n      0x04\n      dup1\n      calldatasize\n      sub\n      dup2\n      add\n      swap1\n      tag_27\n      swap2\n      swap1\n      tag_28\n      jump\t// in\n    tag_27:\n      tag_29\n      jump\t// in\n    tag_26:\n      stop\n        /* \"contracts/DeStore/Store.sol\":594:1016  function registSquare(uint squareId, StoreOnSquare memory _stores) public onlyOwner returns(bool success){... */\n    tag_11:\n        /* \"contracts/DeStore/Store.sol\":686:698  bool success */\n      0x00\n        /* \"openzeppelin-solidity/contracts/access/Ownable.sol\":1259:1271  _msgSender() */\n      tag_31\n        /* \"openzeppelin-solidity/contracts/access/Ownable.sol\":1259:1269  _msgSender */\n      tag_32\n        /* \"openzeppelin-solidity/contracts/access/Ownable.sol\":1259:1271  _msgSender() */\n      jump\t// in\n    tag_31:\n        /* \"openzeppelin-solidity/contracts/access/Ownable.sol\":1248:1271  owner() == _msgSender() */\n      0xffffffffffffffffffffffffffffffffffffffff\n      and\n        /* \"openzeppelin-solidity/contracts/access/Ownable.sol\":1248:1255  owner() */\n      tag_33\n        /* \"openzeppelin-solidity/contracts/access/Ownable.sol\":1248:1253  owner */\n      tag_23\n        /* \"openzeppelin-solidity/contracts/access/Ownable.sol\":1248:1255  owner() */\n      jump\t// in\n    tag_33:\n        /* \"openzeppelin-solidity/contracts/access/Ownable.sol\":1248:1271  owner() == _msgSender() */\n      0xffffffffffffffffffffffffffffffffffffffff\n      and\n      eq\n        /* \"openzeppelin-solidity/contracts/access/Ownable.sol\":1240:1308  require(owner() == _msgSender(), \"Ownable: caller is not the owner\") */\n      tag_34\n      jumpi\n      mload(0x40)\n      0x08c379a000000000000000000000000000000000000000000000000000000000\n      dup2\n      mstore\n      0x04\n      add\n      tag_35\n      swap1\n      tag_36\n      jump\t// in\n    tag_35:\n      mload(0x40)\n      dup1\n      swap2\n      sub\n      swap1\n      revert\n    tag_34:\n        /* \"contracts/DeStore/Store.sol\":753:760  _stores */\n      dup2\n        /* \"contracts/DeStore/Store.sol\":753:770  _stores.storeName */\n      0x00\n      add\n      mload\n        /* \"contracts/DeStore/Store.sol\":709:721  squareStores */\n      0x01\n        /* \"contracts/DeStore/Store.sol\":709:731  squareStores[squareId] */\n      0x00\n        /* \"contracts/DeStore/Store.sol\":722:730  squareId */\n      dup6\n        /* \"contracts/DeStore/Store.sol\":709:731  squareStores[squareId] */\n      dup2\n      mstore\n      0x20\n      add\n      swap1\n      dup2\n      mstore\n      0x20\n      add\n      0x00\n      keccak256\n        /* \"contracts/DeStore/Store.sol\":709:740  squareStores[squareId].squareId */\n      0x00\n      add\n        /* \"contracts/DeStore/Store.sol\":709:750  squareStores[squareId].squareId.storeName */\n      0x00\n      add\n        /* \"contracts/DeStore/Store.sol\":709:770  squareStores[squareId].squareId.storeName = _stores.storeName */\n      swap1\n      dup2\n      tag_38\n      swap2\n      swap1\n      tag_39\n      jump\t// in\n    tag_38:\n      pop\n        /* \"contracts/DeStore/Store.sol\":827:834  _stores */\n      dup2\n        /* \"contracts/DeStore/Store.sol\":827:847  _stores.addressLine1 */\n      0x20\n      add\n      mload\n        /* \"contracts/DeStore/Store.sol\":780:792  squareStores */\n      0x01\n        /* \"contracts/DeStore/Store.sol\":780:802  squareStores[squareId] */\n      0x00\n        /* \"contracts/DeStore/Store.sol\":793:801  squareId */\n      dup6\n        /* \"contracts/DeStore/Store.sol\":780:802  squareStores[squareId] */\n      dup2\n      mstore\n      0x20\n      add\n      swap1\n      dup2\n      mstore\n      0x20\n      add\n      0x00\n      keccak256\n        /* \"contracts/DeStore/Store.sol\":780:811  squareStores[squareId].squareId */\n      0x00\n      add\n        /* \"contracts/DeStore/Store.sol\":780:824  squareStores[squareId].squareId.addressLine1 */\n      0x01\n      add\n        /* \"contracts/DeStore/Store.sol\":780:847  squareStores[squareId].squareId.addressLine1 = _stores.addressLine1 */\n      swap1\n      dup2\n      tag_40\n      swap2\n      swap1\n      tag_39\n      jump\t// in\n    tag_40:\n      pop\n        /* \"contracts/DeStore/Store.sol\":899:906  _stores */\n      dup2\n        /* \"contracts/DeStore/Store.sol\":899:914  _stores.country */\n      0x40\n      add\n      mload\n        /* \"contracts/DeStore/Store.sol\":857:869  squareStores */\n      0x01\n        /* \"contracts/DeStore/Store.sol\":857:879  squareStores[squareId] */\n      0x00\n        /* \"contracts/DeStore/Store.sol\":870:878  squareId */\n      dup6\n        /* \"contracts/DeStore/Store.sol\":857:879  squareStores[squareId] */\n      dup2\n      mstore\n      0x20\n      add\n      swap1\n      dup2\n      mstore\n      0x20\n      add\n      0x00\n      keccak256\n        /* \"contracts/DeStore/Store.sol\":857:888  squareStores[squareId].squareId */\n      0x00\n      add\n        /* \"contracts/DeStore/Store.sol\":857:896  squareStores[squareId].squareId.country */\n      0x02\n      add\n        /* \"contracts/DeStore/Store.sol\":857:914  squareStores[squareId].squareId.country = _stores.country */\n      swap1\n      dup2\n      tag_41\n      swap2\n      swap1\n      tag_39\n      jump\t// in\n    tag_41:\n      pop\n        /* \"contracts/DeStore/Store.sol\":969:976  _stores */\n      dup2\n        /* \"contracts/DeStore/Store.sol\":969:987  _stores.postalCode */\n      0x60\n      add\n      mload\n        /* \"contracts/DeStore/Store.sol\":924:936  squareStores */\n      0x01\n        /* \"contracts/DeStore/Store.sol\":924:946  squareStores[squareId] */\n      0x00\n        /* \"contracts/DeStore/Store.sol\":937:945  squareId */\n      dup6\n        /* \"contracts/DeStore/Store.sol\":924:946  squareStores[squareId] */\n      dup2\n      mstore\n      0x20\n      add\n      swap1\n      dup2\n      mstore\n      0x20\n      add\n      0x00\n      keccak256\n        /* \"contracts/DeStore/Store.sol\":924:955  squareStores[squareId].squareId */\n      0x00\n      add\n        /* \"contracts/DeStore/Store.sol\":924:966  squareStores[squareId].squareId.postalCode */\n      0x03\n      add\n        /* \"contracts/DeStore/Store.sol\":924:987  squareStores[squareId].squareId.postalCode = _stores.postalCode */\n      swap1\n      dup2\n      tag_42\n      swap2\n      swap1\n      tag_39\n      jump\t// in\n    tag_42:\n      pop\n        /* \"contracts/DeStore/Store.sol\":1005:1009  true */\n      0x01\n        /* \"contracts/DeStore/Store.sol\":998:1009  return true */\n      swap1\n      pop\n        /* \"contracts/DeStore/Store.sol\":594:1016  function registSquare(uint squareId, StoreOnSquare memory _stores) public onlyOwner returns(bool success){... */\n      swap3\n      swap2\n      pop\n      pop\n      jump\t// out\n        /* \"openzeppelin-solidity/contracts/access/Ownable.sol\":1668:1769  function renounceOwnership() public virtual onlyOwner {... */\n    tag_15:\n        /* \"openzeppelin-solidity/contracts/access/Ownable.sol\":1259:1271  _msgSender() */\n      tag_44\n        /* \"openzeppelin-solidity/contracts/access/Ownable.sol\":1259:1269  _msgSender */\n      tag_32\n        /* \"openzeppelin-solidity/contracts/access/Ownable.sol\":1259:1271  _msgSender() */\n      jump\t// in\n    tag_44:\n        /* \"openzeppelin-solidity/contracts/access/Ownable.sol\":1248:1271  owner() == _msgSender() */\n      0xffffffffffffffffffffffffffffffffffffffff\n      and\n        /* \"openzeppelin-solidity/contracts/access/Ownable.sol\":1248:1255  owner() */\n      tag_45\n        /* \"openzeppelin-solidity/contracts/access/Ownable.sol\":1248:1253  owner */\n      tag_23\n        /* \"openzeppelin-solidity/contracts/access/Ownable.sol\":1248:1255  owner() */\n      jump\t// in\n    tag_45:\n        /* \"openzeppelin-solidity/contracts/access/Ownable.sol\":1248:1271  owner() == _msgSender() */\n      0xffffffffffffffffffffffffffffffffffffffff\n      and\n      eq\n        /* \"openzeppelin-solidity/contracts/access/Ownable.sol\":1240:1308  require(owner() == _msgSender(), \"Ownable: caller is not the owner\") */\n      tag_46\n      jumpi\n      mload(0x40)\n      0x08c379a000000000000000000000000000000000000000000000000000000000\n      dup2\n      mstore\n      0x04\n      add\n      tag_47\n      swap1\n      tag_36\n      jump\t// in\n    tag_47:\n      mload(0x40)\n      dup1\n      swap2\n      sub\n      swap1\n      revert\n    tag_46:\n        /* \"openzeppelin-solidity/contracts/access/Ownable.sol\":1732:1762  _transferOwnership(address(0)) */\n      tag_49\n        /* \"openzeppelin-solidity/contracts/access/Ownable.sol\":1759:1760  0 */\n      0x00\n        /* \"openzeppelin-solidity/contracts/access/Ownable.sol\":1732:1750  _transferOwnership */\n      tag_50\n        /* \"openzeppelin-solidity/contracts/access/Ownable.sol\":1732:1762  _transferOwnership(address(0)) */\n      jump\t// in\n    tag_49:\n        /* \"openzeppelin-solidity/contracts/access/Ownable.sol\":1668:1769  function renounceOwnership() public virtual onlyOwner {... */\n      jump\t// out\n        /* \"contracts/DeStore/Store.sol\":1022:1143  function getStore(uint squareId) public view returns(Square memory _stores){... */\n    tag_19:\n        /* \"contracts/DeStore/Store.sol\":1075:1096  Square memory _stores */\n      tag_51\n      tag_52\n      jump\t// in\n    tag_51:\n        /* \"contracts/DeStore/Store.sol\":1114:1126  squareStores */\n      0x01\n        /* \"contracts/DeStore/Store.sol\":1114:1136  squareStores[squareId] */\n      0x00\n        /* \"contracts/DeStore/Store.sol\":1127:1135  squareId */\n      dup4\n        /* \"contracts/DeStore/Store.sol\":1114:1136  squareStores[squareId] */\n      dup2\n      mstore\n      0x20\n      add\n      swap1\n      dup2\n      mstore\n      0x20\n      add\n      0x00\n      keccak256\n        /* \"contracts/DeStore/Store.sol\":1107:1136  return squareStores[squareId] */\n      mload(0x40)\n      dup1\n      0x20\n      add\n      0x40\n      mstore\n      swap1\n      dup2\n      0x00\n      dup3\n      add\n      mload(0x40)\n      dup1\n      0x80\n      add\n      0x40\n      mstore\n      swap1\n      dup2\n      0x00\n      dup3\n      add\n      dup1\n      sload\n      tag_54\n      swap1\n      tag_55\n      jump\t// in\n    tag_54:\n      dup1\n      0x1f\n      add\n      0x20\n      dup1\n      swap2\n      div\n      mul\n      0x20\n      add\n      mload(0x40)\n      swap1\n      dup2\n      add\n      0x40\n      mstore\n      dup1\n      swap3\n      swap2\n      swap1\n      dup2\n      dup2\n      mstore\n      0x20\n      add\n      dup3\n      dup1\n      sload\n      tag_56\n      swap1\n      tag_55\n      jump\t// in\n    tag_56:\n      dup1\n      iszero\n      tag_57\n      jumpi\n      dup1\n      0x1f\n      lt\n      tag_58\n      jumpi\n      0x0100\n      dup1\n      dup4\n      sload\n      div\n      mul\n      dup4\n      mstore\n      swap2\n      0x20\n      add\n      swap2\n      jump(tag_57)\n    tag_58:\n      dup3\n      add\n      swap2\n      swap1\n      0x00\n      mstore\n      keccak256(0x00, 0x20)\n      swap1\n    tag_59:\n      dup2\n      sload\n      dup2\n      mstore\n      swap1\n      0x01\n      add\n      swap1\n      0x20\n      add\n      dup1\n      dup4\n      gt\n      tag_59\n      jumpi\n      dup3\n      swap1\n      sub\n      0x1f\n      and\n      dup3\n      add\n      swap2\n    tag_57:\n      pop\n      pop\n      pop\n      pop\n      pop\n      dup2\n      mstore\n      0x20\n      add\n      0x01\n      dup3\n      add\n      dup1\n      sload\n      tag_60\n      swap1\n      tag_55\n      jump\t// in\n    tag_60:\n      dup1\n      0x1f\n      add\n      0x20\n      dup1\n      swap2\n      div\n      mul\n      0x20\n      add\n      mload(0x40)\n      swap1\n      dup2\n      add\n      0x40\n      mstore\n      dup1\n      swap3\n      swap2\n      swap1\n      dup2\n      dup2\n      mstore\n      0x20\n      add\n      dup3\n      dup1\n      sload\n      tag_61\n      swap1\n      tag_55\n      jump\t// in\n    tag_61:\n      dup1\n      iszero\n      tag_62\n      jumpi\n      dup1\n      0x1f\n      lt\n      tag_63\n      jumpi\n      0x0100\n      dup1\n      dup4\n      sload\n      div\n      mul\n      dup4\n      mstore\n      swap2\n      0x20\n      add\n      swap2\n      jump(tag_62)\n    tag_63:\n      dup3\n      add\n      swap2\n      swap1\n      0x00\n      mstore\n      keccak256(0x00, 0x20)\n      swap1\n    tag_64:\n      dup2\n      sload\n      dup2\n      mstore\n      swap1\n      0x01\n      add\n      swap1\n      0x20\n      add\n      dup1\n      dup4\n      gt\n      tag_64\n      jumpi\n      dup3\n      swap1\n      sub\n      0x1f\n      and\n      dup3\n      add\n      swap2\n    tag_62:\n      pop\n      pop\n      pop\n      pop\n      pop\n      dup2\n      mstore\n      0x20\n      add\n      0x02\n      dup3\n      add\n      dup1\n      sload\n      tag_65\n      swap1\n      tag_55\n      jump\t// in\n    tag_65:\n      dup1\n      0x1f\n      add\n      0x20\n      dup1\n      swap2\n      div\n      mul\n      0x20\n      add\n      mload(0x40)\n      swap1\n      dup2\n      add\n      0x40\n      mstore\n      dup1\n      swap3\n      swap2\n      swap1\n      dup2\n      dup2\n      mstore\n      0x20\n      add\n      dup3\n      dup1\n      sload\n      tag_66\n      swap1\n      tag_55\n      jump\t// in\n    tag_66:\n      dup1\n      iszero\n      tag_67\n      jumpi\n      dup1\n      0x1f\n      lt\n      tag_68\n      jumpi\n      0x0100\n      dup1\n      dup4\n      sload\n      div\n      mul\n      dup4\n      mstore\n      swap2\n      0x20\n      add\n      swap2\n      jump(tag_67)\n    tag_68:\n      dup3\n      add\n      swap2\n      swap1\n      0x00\n      mstore\n      keccak256(0x00, 0x20)\n      swap1\n    tag_69:\n      dup2\n      sload\n      dup2\n      mstore\n      swap1\n      0x01\n      add\n      swap1\n      0x20\n      add\n      dup1\n      dup4\n      gt\n      tag_69\n      jumpi\n      dup3\n      swap1\n      sub\n      0x1f\n      and\n      dup3\n      add\n      swap2\n    tag_67:\n      pop\n      pop\n      pop\n      pop\n      pop\n      dup2\n      mstore\n      0x20\n      add\n      0x03\n      dup3\n      add\n      dup1\n      sload\n      tag_70\n      swap1\n      tag_55\n      jump\t// in\n    tag_70:\n      dup1\n      0x1f\n      add\n      0x20\n      dup1\n      swap2\n      div\n      mul\n      0x20\n      add\n      mload(0x40)\n      swap1\n      dup2\n      add\n      0x40\n      mstore\n      dup1\n      swap3\n      swap2\n      swap1\n      dup2\n      dup2\n      mstore\n      0x20\n      add\n      dup3\n      dup1\n      sload\n      tag_71\n      swap1\n      tag_55\n      jump\t// in\n    tag_71:\n      dup1\n      iszero\n      tag_72\n      jumpi\n      dup1\n      0x1f\n      lt\n      tag_73\n      jumpi\n      0x0100\n      dup1\n      dup4\n      sload\n      div\n      mul\n      dup4\n      mstore\n      swap2\n      0x20\n      add\n      swap2\n      jump(tag_72)\n    tag_73:\n      dup3\n      add\n      swap2\n      swap1\n      0x00\n      mstore\n      keccak256(0x00, 0x20)\n      swap1\n    tag_74:\n      dup2\n      sload\n      dup2\n      mstore\n      swap1\n      0x01\n      add\n      swap1\n      0x20\n      add\n      dup1\n      dup4\n      gt\n      tag_74\n      jumpi\n      dup3\n      swap1\n      sub\n      0x1f\n      and\n      dup3\n      add\n      swap2\n    tag_72:\n      pop\n      pop\n      pop\n      pop\n      pop\n      dup2\n      mstore\n      pop\n      pop\n      dup2\n      mstore\n      pop\n      pop\n      swap1\n      pop\n        /* \"contracts/DeStore/Store.sol\":1022:1143  function getStore(uint squareId) public view returns(Square memory _stores){... */\n      swap2\n      swap1\n      pop\n      jump\t// out\n        /* \"openzeppelin-solidity/contracts/access/Ownable.sol\":1036:1121  function owner() public view virtual returns (address) {... */\n    tag_23:\n        /* \"openzeppelin-solidity/contracts/access/Ownable.sol\":1082:1089  address */\n      0x00\n        /* \"openzeppelin-solidity/contracts/access/Ownable.sol\":1108:1114  _owner */\n      dup1\n      0x00\n      swap1\n      sload\n      swap1\n      0x0100\n      exp\n      swap1\n      div\n      0xffffffffffffffffffffffffffffffffffffffff\n      and\n        /* \"openzeppelin-solidity/contracts/access/Ownable.sol\":1101:1114  return _owner */\n      swap1\n      pop\n        /* \"openzeppelin-solidity/contracts/access/Ownable.sol\":1036:1121  function owner() public view virtual returns (address) {... */\n      swap1\n      jump\t// out\n        /* \"openzeppelin-solidity/contracts/access/Ownable.sol\":1918:2116  function transferOwnership(address newOwner) public virtual onlyOwner {... */\n    tag_29:\n        /* \"openzeppelin-solidity/contracts/access/Ownable.sol\":1259:1271  _msgSender() */\n      tag_77\n        /* \"openzeppelin-solidity/contracts/access/Ownable.sol\":1259:1269  _msgSender */\n      tag_32\n        /* \"openzeppelin-solidity/contracts/access/Ownable.sol\":1259:1271  _msgSender() */\n      jump\t// in\n    tag_77:\n        /* \"openzeppelin-solidity/contracts/access/Ownable.sol\":1248:1271  owner() == _msgSender() */\n      0xffffffffffffffffffffffffffffffffffffffff\n      and\n        /* \"openzeppelin-solidity/contracts/access/Ownable.sol\":1248:1255  owner() */\n      tag_78\n        /* \"openzeppelin-solidity/contracts/access/Ownable.sol\":1248:1253  owner */\n      tag_23\n        /* \"openzeppelin-solidity/contracts/access/Ownable.sol\":1248:1255  owner() */\n      jump\t// in\n    tag_78:\n        /* \"openzeppelin-solidity/contracts/access/Ownable.sol\":1248:1271  owner() == _msgSender() */\n      0xffffffffffffffffffffffffffffffffffffffff\n      and\n      eq\n        /* \"openzeppelin-solidity/contracts/access/Ownable.sol\":1240:1308  require(owner() == _msgSender(), \"Ownable: caller is not the owner\") */\n      tag_79\n      jumpi\n      mload(0x40)\n      0x08c379a000000000000000000000000000000000000000000000000000000000\n      dup2\n      mstore\n      0x04\n      add\n      tag_80\n      swap1\n      tag_36\n      jump\t// in\n    tag_80:\n      mload(0x40)\n      dup1\n      swap2\n      sub\n      swap1\n      revert\n    tag_79:\n        /* \"openzeppelin-solidity/contracts/access/Ownable.sol\":2026:2027  0 */\n      0x00\n        /* \"openzeppelin-solidity/contracts/access/Ownable.sol\":2006:2028  newOwner != address(0) */\n      0xffffffffffffffffffffffffffffffffffffffff\n      and\n        /* \"openzeppelin-solidity/contracts/access/Ownable.sol\":2006:2014  newOwner */\n      dup2\n        /* \"openzeppelin-solidity/contracts/access/Ownable.sol\":2006:2028  newOwner != address(0) */\n      0xffffffffffffffffffffffffffffffffffffffff\n      and\n      sub\n        /* \"openzeppelin-solidity/contracts/access/Ownable.sol\":1998:2071  require(newOwner != address(0), \"Ownable: new owner is the zero address\") */\n      tag_82\n      jumpi\n      mload(0x40)\n      0x08c379a000000000000000000000000000000000000000000000000000000000\n      dup2\n      mstore\n      0x04\n      add\n      tag_83\n      swap1\n      tag_84\n      jump\t// in\n    tag_83:\n      mload(0x40)\n      dup1\n      swap2\n      sub\n      swap1\n      revert\n    tag_82:\n        /* \"openzeppelin-solidity/contracts/access/Ownable.sol\":2081:2109  _transferOwnership(newOwner) */\n      tag_85\n        /* \"openzeppelin-solidity/contracts/access/Ownable.sol\":2100:2108  newOwner */\n      dup2\n        /* \"openzeppelin-solidity/contracts/access/Ownable.sol\":2081:2099  _transferOwnership */\n      tag_50\n        /* \"openzeppelin-solidity/contracts/access/Ownable.sol\":2081:2109  _transferOwnership(newOwner) */\n      jump\t// in\n    tag_85:\n        /* \"openzeppelin-solidity/contracts/access/Ownable.sol\":1918:2116  function transferOwnership(address newOwner) public virtual onlyOwner {... */\n      pop\n      jump\t// out\n        /* \"openzeppelin-solidity/contracts/utils/Context.sol\":640:736  function _msgSender() internal view virtual returns (address) {... */\n    tag_32:\n        /* \"openzeppelin-solidity/contracts/utils/Context.sol\":693:700  address */\n      0x00\n        /* \"openzeppelin-solidity/contracts/utils/Context.sol\":719:729  msg.sender */\n      caller\n        /* \"openzeppelin-solidity/contracts/utils/Context.sol\":712:729  return msg.sender */\n      swap1\n      pop\n        /* \"openzeppelin-solidity/contracts/utils/Context.sol\":640:736  function _msgSender() internal view virtual returns (address) {... */\n      swap1\n      jump\t// out\n        /* \"openzeppelin-solidity/contracts/access/Ownable.sol\":2270:2457  function _transferOwnership(address newOwner) internal virtual {... */\n    tag_50:\n        /* \"openzeppelin-solidity/contracts/access/Ownable.sol\":2343:2359  address oldOwner */\n      0x00\n        /* \"openzeppelin-solidity/contracts/access/Ownable.sol\":2362:2368  _owner */\n      dup1\n      0x00\n      swap1\n      sload\n      swap1\n      0x0100\n      exp\n      swap1\n      div\n      0xffffffffffffffffffffffffffffffffffffffff\n      and\n        /* \"openzeppelin-solidity/contracts/access/Ownable.sol\":2343:2368  address oldOwner = _owner */\n      swap1\n      pop\n        /* \"openzeppelin-solidity/contracts/access/Ownable.sol\":2387:2395  newOwner */\n      dup2\n        /* \"openzeppelin-solidity/contracts/access/Ownable.sol\":2378:2384  _owner */\n      0x00\n      dup1\n        /* \"openzeppelin-solidity/contracts/access/Ownable.sol\":2378:2395  _owner = newOwner */\n      0x0100\n      exp\n      dup2\n      sload\n      dup2\n      0xffffffffffffffffffffffffffffffffffffffff\n      mul\n      not\n      and\n      swap1\n      dup4\n      0xffffffffffffffffffffffffffffffffffffffff\n      and\n      mul\n      or\n      swap1\n      sstore\n      pop\n        /* \"openzeppelin-solidity/contracts/access/Ownable.sol\":2441:2449  newOwner */\n      dup2\n        /* \"openzeppelin-solidity/contracts/access/Ownable.sol\":2410:2450  OwnershipTransferred(oldOwner, newOwner) */\n      0xffffffffffffffffffffffffffffffffffffffff\n      and\n        /* \"openzeppelin-solidity/contracts/access/Ownable.sol\":2431:2439  oldOwner */\n      dup2\n        /* \"openzeppelin-solidity/contracts/access/Ownable.sol\":2410:2450  OwnershipTransferred(oldOwner, newOwner) */\n      0xffffffffffffffffffffffffffffffffffffffff\n      and\n      0x8be0079c531659141344cd1fd0a4f28419497f9722a3daafe3b4186f6b6457e0\n      mload(0x40)\n      mload(0x40)\n      dup1\n      swap2\n      sub\n      swap1\n      log3\n        /* \"openzeppelin-solidity/contracts/access/Ownable.sol\":2333:2457  {... */\n      pop\n        /* \"openzeppelin-solidity/contracts/access/Ownable.sol\":2270:2457  function _transferOwnership(address newOwner) internal virtual {... */\n      pop\n      jump\t// out\n    tag_52:\n      mload(0x40)\n      dup1\n      0x20\n      add\n      0x40\n      mstore\n      dup1\n      tag_88\n      tag_89\n      jump\t// in\n    tag_88:\n      dup2\n      mstore\n      pop\n      swap1\n      jump\t// out\n    tag_89:\n      mload(0x40)\n      dup1\n      0x80\n      add\n      0x40\n      mstore\n      dup1\n      0x60\n      dup2\n      mstore\n      0x20\n      add\n      0x60\n      dup2\n      mstore\n      0x20\n      add\n      0x60\n      dup2\n      mstore\n      0x20\n      add\n      0x60\n      dup2\n      mstore\n      pop\n      swap1\n      jump\t// out\n        /* \"#utility.yul\":7:82   */\n    tag_90:\n        /* \"#utility.yul\":40:46   */\n      0x00\n        /* \"#utility.yul\":73:75   */\n      0x40\n        /* \"#utility.yul\":67:76   */\n      mload\n        /* \"#utility.yul\":57:76   */\n      swap1\n      pop\n        /* \"#utility.yul\":7:82   */\n      swap1\n      jump\t// out\n        /* \"#utility.yul\":88:205   */\n    tag_91:\n        /* \"#utility.yul\":197:198   */\n      0x00\n        /* \"#utility.yul\":194:195   */\n      dup1\n        /* \"#utility.yul\":187:199   */\n      revert\n        /* \"#utility.yul\":211:328   */\n    tag_92:\n        /* \"#utility.yul\":320:321   */\n      0x00\n        /* \"#utility.yul\":317:318   */\n      dup1\n        /* \"#utility.yul\":310:322   */\n      revert\n        /* \"#utility.yul\":334:411   */\n    tag_93:\n        /* \"#utility.yul\":371:378   */\n      0x00\n        /* \"#utility.yul\":400:405   */\n      dup2\n        /* \"#utility.yul\":389:405   */\n      swap1\n      pop\n        /* \"#utility.yul\":334:411   */\n      swap2\n      swap1\n      pop\n      jump\t// out\n        /* \"#utility.yul\":417:539   */\n    tag_94:\n        /* \"#utility.yul\":490:514   */\n      tag_149\n        /* \"#utility.yul\":508:513   */\n      dup2\n        /* \"#utility.yul\":490:514   */\n      tag_93\n      jump\t// in\n    tag_149:\n        /* \"#utility.yul\":483:488   */\n      dup2\n        /* \"#utility.yul\":480:515   */\n      eq\n        /* \"#utility.yul\":470:533   */\n      tag_150\n      jumpi\n        /* \"#utility.yul\":529:530   */\n      0x00\n        /* \"#utility.yul\":526:527   */\n      dup1\n        /* \"#utility.yul\":519:531   */\n      revert\n        /* \"#utility.yul\":470:533   */\n    tag_150:\n        /* \"#utility.yul\":417:539   */\n      pop\n      jump\t// out\n        /* \"#utility.yul\":545:684   */\n    tag_95:\n        /* \"#utility.yul\":591:596   */\n      0x00\n        /* \"#utility.yul\":629:635   */\n      dup2\n        /* \"#utility.yul\":616:636   */\n      calldataload\n        /* \"#utility.yul\":607:636   */\n      swap1\n      pop\n        /* \"#utility.yul\":645:678   */\n      tag_152\n        /* \"#utility.yul\":672:677   */\n      dup2\n        /* \"#utility.yul\":645:678   */\n      tag_94\n      jump\t// in\n    tag_152:\n        /* \"#utility.yul\":545:684   */\n      swap3\n      swap2\n      pop\n      pop\n      jump\t// out\n        /* \"#utility.yul\":690:807   */\n    tag_96:\n        /* \"#utility.yul\":799:800   */\n      0x00\n        /* \"#utility.yul\":796:797   */\n      dup1\n        /* \"#utility.yul\":789:801   */\n      revert\n        /* \"#utility.yul\":813:915   */\n    tag_97:\n        /* \"#utility.yul\":854:860   */\n      0x00\n        /* \"#utility.yul\":905:907   */\n      0x1f\n        /* \"#utility.yul\":901:908   */\n      not\n        /* \"#utility.yul\":896:898   */\n      0x1f\n        /* \"#utility.yul\":889:894   */\n      dup4\n        /* \"#utility.yul\":885:899   */\n      add\n        /* \"#utility.yul\":881:909   */\n      and\n        /* \"#utility.yul\":871:909   */\n      swap1\n      pop\n        /* \"#utility.yul\":813:915   */\n      swap2\n      swap1\n      pop\n      jump\t// out\n        /* \"#utility.yul\":921:1101   */\n    tag_98:\n        /* \"#utility.yul\":969:1046   */\n      0x4e487b7100000000000000000000000000000000000000000000000000000000\n        /* \"#utility.yul\":966:967   */\n      0x00\n        /* \"#utility.yul\":959:1047   */\n      mstore\n        /* \"#utility.yul\":1066:1070   */\n      0x41\n        /* \"#utility.yul\":1063:1064   */\n      0x04\n        /* \"#utility.yul\":1056:1071   */\n      mstore\n        /* \"#utility.yul\":1090:1094   */\n      0x24\n        /* \"#utility.yul\":1087:1088   */\n      0x00\n        /* \"#utility.yul\":1080:1095   */\n      revert\n        /* \"#utility.yul\":1107:1388   */\n    tag_99:\n        /* \"#utility.yul\":1190:1217   */\n      tag_157\n        /* \"#utility.yul\":1212:1216   */\n      dup3\n        /* \"#utility.yul\":1190:1217   */\n      tag_97\n      jump\t// in\n    tag_157:\n        /* \"#utility.yul\":1182:1188   */\n      dup2\n        /* \"#utility.yul\":1178:1218   */\n      add\n        /* \"#utility.yul\":1320:1326   */\n      dup2\n        /* \"#utility.yul\":1308:1318   */\n      dup2\n        /* \"#utility.yul\":1305:1327   */\n      lt\n        /* \"#utility.yul\":1284:1302   */\n      0xffffffffffffffff\n        /* \"#utility.yul\":1272:1282   */\n      dup3\n        /* \"#utility.yul\":1269:1303   */\n      gt\n        /* \"#utility.yul\":1266:1328   */\n      or\n        /* \"#utility.yul\":1263:1351   */\n      iszero\n      tag_158\n      jumpi\n        /* \"#utility.yul\":1331:1349   */\n      tag_159\n      tag_98\n      jump\t// in\n    tag_159:\n        /* \"#utility.yul\":1263:1351   */\n    tag_158:\n        /* \"#utility.yul\":1371:1381   */\n      dup1\n        /* \"#utility.yul\":1367:1369   */\n      0x40\n        /* \"#utility.yul\":1360:1382   */\n      mstore\n        /* \"#utility.yul\":1150:1388   */\n      pop\n        /* \"#utility.yul\":1107:1388   */\n      pop\n      pop\n      jump\t// out\n        /* \"#utility.yul\":1394:1523   */\n    tag_100:\n        /* \"#utility.yul\":1428:1434   */\n      0x00\n        /* \"#utility.yul\":1455:1475   */\n      tag_161\n      tag_90\n      jump\t// in\n    tag_161:\n        /* \"#utility.yul\":1445:1475   */\n      swap1\n      pop\n        /* \"#utility.yul\":1484:1517   */\n      tag_162\n        /* \"#utility.yul\":1512:1516   */\n      dup3\n        /* \"#utility.yul\":1504:1510   */\n      dup3\n        /* \"#utility.yul\":1484:1517   */\n      tag_99\n      jump\t// in\n    tag_162:\n        /* \"#utility.yul\":1394:1523   */\n      swap2\n      swap1\n      pop\n      jump\t// out\n        /* \"#utility.yul\":1529:1646   */\n    tag_101:\n        /* \"#utility.yul\":1638:1639   */\n      0x00\n        /* \"#utility.yul\":1635:1636   */\n      dup1\n        /* \"#utility.yul\":1628:1640   */\n      revert\n        /* \"#utility.yul\":1652:1769   */\n    tag_102:\n        /* \"#utility.yul\":1761:1762   */\n      0x00\n        /* \"#utility.yul\":1758:1759   */\n      dup1\n        /* \"#utility.yul\":1751:1763   */\n      revert\n        /* \"#utility.yul\":1775:1892   */\n    tag_103:\n        /* \"#utility.yul\":1884:1885   */\n      0x00\n        /* \"#utility.yul\":1881:1882   */\n      dup1\n        /* \"#utility.yul\":1874:1886   */\n      revert\n        /* \"#utility.yul\":1898:2206   */\n    tag_104:\n        /* \"#utility.yul\":1960:1964   */\n      0x00\n        /* \"#utility.yul\":2050:2068   */\n      0xffffffffffffffff\n        /* \"#utility.yul\":2042:2048   */\n      dup3\n        /* \"#utility.yul\":2039:2069   */\n      gt\n        /* \"#utility.yul\":2036:2092   */\n      iszero\n      tag_167\n      jumpi\n        /* \"#utility.yul\":2072:2090   */\n      tag_168\n      tag_98\n      jump\t// in\n    tag_168:\n        /* \"#utility.yul\":2036:2092   */\n    tag_167:\n        /* \"#utility.yul\":2110:2139   */\n      tag_169\n        /* \"#utility.yul\":2132:2138   */\n      dup3\n        /* \"#utility.yul\":2110:2139   */\n      tag_97\n      jump\t// in\n    tag_169:\n        /* \"#utility.yul\":2102:2139   */\n      swap1\n      pop\n        /* \"#utility.yul\":2194:2198   */\n      0x20\n        /* \"#utility.yul\":2188:2192   */\n      dup2\n        /* \"#utility.yul\":2184:2199   */\n      add\n        /* \"#utility.yul\":2176:2199   */\n      swap1\n      pop\n        /* \"#utility.yul\":1898:2206   */\n      swap2\n      swap1\n      pop\n      jump\t// out\n        /* \"#utility.yul\":2212:2358   */\n    tag_105:\n        /* \"#utility.yul\":2309:2315   */\n      dup3\n        /* \"#utility.yul\":2304:2307   */\n      dup2\n        /* \"#utility.yul\":2299:2302   */\n      dup4\n        /* \"#utility.yul\":2286:2316   */\n      calldatacopy\n        /* \"#utility.yul\":2350:2351   */\n      0x00\n        /* \"#utility.yul\":2341:2347   */\n      dup4\n        /* \"#utility.yul\":2336:2339   */\n      dup4\n        /* \"#utility.yul\":2332:2348   */\n      add\n        /* \"#utility.yul\":2325:2352   */\n      mstore\n        /* \"#utility.yul\":2212:2358   */\n      pop\n      pop\n      pop\n      jump\t// out\n        /* \"#utility.yul\":2364:2789   */\n    tag_106:\n        /* \"#utility.yul\":2442:2447   */\n      0x00\n        /* \"#utility.yul\":2467:2533   */\n      tag_172\n        /* \"#utility.yul\":2483:2532   */\n      tag_173\n        /* \"#utility.yul\":2525:2531   */\n      dup5\n        /* \"#utility.yul\":2483:2532   */\n      tag_104\n      jump\t// in\n    tag_173:\n        /* \"#utility.yul\":2467:2533   */\n      tag_100\n      jump\t// in\n    tag_172:\n        /* \"#utility.yul\":2458:2533   */\n      swap1\n      pop\n        /* \"#utility.yul\":2556:2562   */\n      dup3\n        /* \"#utility.yul\":2549:2554   */\n      dup2\n        /* \"#utility.yul\":2542:2563   */\n      mstore\n        /* \"#utility.yul\":2594:2598   */\n      0x20\n        /* \"#utility.yul\":2587:2592   */\n      dup2\n        /* \"#utility.yul\":2583:2599   */\n      add\n        /* \"#utility.yul\":2632:2635   */\n      dup5\n        /* \"#utility.yul\":2623:2629   */\n      dup5\n        /* \"#utility.yul\":2618:2621   */\n      dup5\n        /* \"#utility.yul\":2614:2630   */\n      add\n        /* \"#utility.yul\":2611:2636   */\n      gt\n        /* \"#utility.yul\":2608:2720   */\n      iszero\n      tag_174\n      jumpi\n        /* \"#utility.yul\":2639:2718   */\n      tag_175\n      tag_103\n      jump\t// in\n    tag_175:\n        /* \"#utility.yul\":2608:2720   */\n    tag_174:\n        /* \"#utility.yul\":2729:2783   */\n      tag_176\n        /* \"#utility.yul\":2776:2782   */\n      dup5\n        /* \"#utility.yul\":2771:2774   */\n      dup3\n        /* \"#utility.yul\":2766:2769   */\n      dup6\n        /* \"#utility.yul\":2729:2783   */\n      tag_105\n      jump\t// in\n    tag_176:\n        /* \"#utility.yul\":2448:2789   */\n      pop\n        /* \"#utility.yul\":2364:2789   */\n      swap4\n      swap3\n      pop\n      pop\n      pop\n      jump\t// out\n        /* \"#utility.yul\":2809:3149   */\n    tag_107:\n        /* \"#utility.yul\":2865:2870   */\n      0x00\n        /* \"#utility.yul\":2914:2917   */\n      dup3\n        /* \"#utility.yul\":2907:2911   */\n      0x1f\n        /* \"#utility.yul\":2899:2905   */\n      dup4\n        /* \"#utility.yul\":2895:2912   */\n      add\n        /* \"#utility.yul\":2891:2918   */\n      slt\n        /* \"#utility.yul\":2881:3003   */\n      tag_178\n      jumpi\n        /* \"#utility.yul\":2922:3001   */\n      tag_179\n      tag_102\n      jump\t// in\n    tag_179:\n        /* \"#utility.yul\":2881:3003   */\n    tag_178:\n        /* \"#utility.yul\":3039:3045   */\n      dup2\n        /* \"#utility.yul\":3026:3046   */\n      calldataload\n        /* \"#utility.yul\":3064:3143   */\n      tag_180\n        /* \"#utility.yul\":3139:3142   */\n      dup5\n        /* \"#utility.yul\":3131:3137   */\n      dup3\n        /* \"#utility.yul\":3124:3128   */\n      0x20\n        /* \"#utility.yul\":3116:3122   */\n      dup7\n        /* \"#utility.yul\":3112:3129   */\n      add\n        /* \"#utility.yul\":3064:3143   */\n      tag_106\n      jump\t// in\n    tag_180:\n        /* \"#utility.yul\":3055:3143   */\n      swap2\n      pop\n        /* \"#utility.yul\":2871:3149   */\n      pop\n        /* \"#utility.yul\":2809:3149   */\n      swap3\n      swap2\n      pop\n      pop\n      jump\t// out\n        /* \"#utility.yul\":3189:4791   */\n    tag_108:\n        /* \"#utility.yul\":3267:3272   */\n      0x00\n        /* \"#utility.yul\":3311:3315   */\n      0x80\n        /* \"#utility.yul\":3299:3308   */\n      dup3\n        /* \"#utility.yul\":3294:3297   */\n      dup5\n        /* \"#utility.yul\":3290:3309   */\n      sub\n        /* \"#utility.yul\":3286:3316   */\n      slt\n        /* \"#utility.yul\":3283:3400   */\n      iszero\n      tag_182\n      jumpi\n        /* \"#utility.yul\":3319:3398   */\n      tag_183\n      tag_96\n      jump\t// in\n    tag_183:\n        /* \"#utility.yul\":3283:3400   */\n    tag_182:\n        /* \"#utility.yul\":3418:3439   */\n      tag_184\n        /* \"#utility.yul\":3434:3438   */\n      0x80\n        /* \"#utility.yul\":3418:3439   */\n      tag_100\n      jump\t// in\n    tag_184:\n        /* \"#utility.yul\":3409:3439   */\n      swap1\n      pop\n        /* \"#utility.yul\":3531:3532   */\n      0x00\n        /* \"#utility.yul\":3520:3529   */\n      dup3\n        /* \"#utility.yul\":3516:3533   */\n      add\n        /* \"#utility.yul\":3503:3534   */\n      calldataload\n        /* \"#utility.yul\":3561:3579   */\n      0xffffffffffffffff\n        /* \"#utility.yul\":3553:3559   */\n      dup2\n        /* \"#utility.yul\":3550:3580   */\n      gt\n        /* \"#utility.yul\":3547:3664   */\n      iszero\n      tag_185\n      jumpi\n        /* \"#utility.yul\":3583:3662   */\n      tag_186\n      tag_101\n      jump\t// in\n    tag_186:\n        /* \"#utility.yul\":3547:3664   */\n    tag_185:\n        /* \"#utility.yul\":3703:3762   */\n      tag_187\n        /* \"#utility.yul\":3758:3761   */\n      dup5\n        /* \"#utility.yul\":3749:3755   */\n      dup3\n        /* \"#utility.yul\":3738:3747   */\n      dup6\n        /* \"#utility.yul\":3734:3756   */\n      add\n        /* \"#utility.yul\":3703:3762   */\n      tag_107\n      jump\t// in\n    tag_187:\n        /* \"#utility.yul\":3696:3700   */\n      0x00\n        /* \"#utility.yul\":3689:3694   */\n      dup4\n        /* \"#utility.yul\":3685:3701   */\n      add\n        /* \"#utility.yul\":3678:3763   */\n      mstore\n        /* \"#utility.yul\":3449:3774   */\n      pop\n        /* \"#utility.yul\":3869:3871   */\n      0x20\n        /* \"#utility.yul\":3858:3867   */\n      dup3\n        /* \"#utility.yul\":3854:3872   */\n      add\n        /* \"#utility.yul\":3841:3873   */\n      calldataload\n        /* \"#utility.yul\":3900:3918   */\n      0xffffffffffffffff\n        /* \"#utility.yul\":3892:3898   */\n      dup2\n        /* \"#utility.yul\":3889:3919   */\n      gt\n        /* \"#utility.yul\":3886:4003   */\n      iszero\n      tag_188\n      jumpi\n        /* \"#utility.yul\":3922:4001   */\n      tag_189\n      tag_101\n      jump\t// in\n    tag_189:\n        /* \"#utility.yul\":3886:4003   */\n    tag_188:\n        /* \"#utility.yul\":4042:4101   */\n      tag_190\n        /* \"#utility.yul\":4097:4100   */\n      dup5\n        /* \"#utility.yul\":4088:4094   */\n      dup3\n        /* \"#utility.yul\":4077:4086   */\n      dup6\n        /* \"#utility.yul\":4073:4095   */\n      add\n        /* \"#utility.yul\":4042:4101   */\n      tag_107\n      jump\t// in\n    tag_190:\n        /* \"#utility.yul\":4035:4039   */\n      0x20\n        /* \"#utility.yul\":4028:4033   */\n      dup4\n        /* \"#utility.yul\":4024:4040   */\n      add\n        /* \"#utility.yul\":4017:4102   */\n      mstore\n        /* \"#utility.yul\":3784:4113   */\n      pop\n        /* \"#utility.yul\":4203:4205   */\n      0x40\n        /* \"#utility.yul\":4192:4201   */\n      dup3\n        /* \"#utility.yul\":4188:4206   */\n      add\n        /* \"#utility.yul\":4175:4207   */\n      calldataload\n        /* \"#utility.yul\":4234:4252   */\n      0xffffffffffffffff\n        /* \"#utility.yul\":4226:4232   */\n      dup2\n        /* \"#utility.yul\":4223:4253   */\n      gt\n        /* \"#utility.yul\":4220:4337   */\n      iszero\n      tag_191\n      jumpi\n        /* \"#utility.yul\":4256:4335   */\n      tag_192\n      tag_101\n      jump\t// in\n    tag_192:\n        /* \"#utility.yul\":4220:4337   */\n    tag_191:\n        /* \"#utility.yul\":4376:4435   */\n      tag_193\n        /* \"#utility.yul\":4431:4434   */\n      dup5\n        /* \"#utility.yul\":4422:4428   */\n      dup3\n        /* \"#utility.yul\":4411:4420   */\n      dup6\n        /* \"#utility.yul\":4407:4429   */\n      add\n        /* \"#utility.yul\":4376:4435   */\n      tag_107\n      jump\t// in\n    tag_193:\n        /* \"#utility.yul\":4369:4373   */\n      0x40\n        /* \"#utility.yul\":4362:4367   */\n      dup4\n        /* \"#utility.yul\":4358:4374   */\n      add\n        /* \"#utility.yul\":4351:4436   */\n      mstore\n        /* \"#utility.yul\":4123:4447   */\n      pop\n        /* \"#utility.yul\":4540:4542   */\n      0x60\n        /* \"#utility.yul\":4529:4538   */\n      dup3\n        /* \"#utility.yul\":4525:4543   */\n      add\n        /* \"#utility.yul\":4512:4544   */\n      calldataload\n        /* \"#utility.yul\":4571:4589   */\n      0xffffffffffffffff\n        /* \"#utility.yul\":4563:4569   */\n      dup2\n        /* \"#utility.yul\":4560:4590   */\n      gt\n        /* \"#utility.yul\":4557:4674   */\n      iszero\n      tag_194\n      jumpi\n        /* \"#utility.yul\":4593:4672   */\n      tag_195\n      tag_101\n      jump\t// in\n    tag_195:\n        /* \"#utility.yul\":4557:4674   */\n    tag_194:\n        /* \"#utility.yul\":4713:4772   */\n      tag_196\n        /* \"#utility.yul\":4768:4771   */\n      dup5\n        /* \"#utility.yul\":4759:4765   */\n      dup3\n        /* \"#utility.yul\":4748:4757   */\n      dup6\n        /* \"#utility.yul\":4744:4766   */\n      add\n        /* \"#utility.yul\":4713:4772   */\n      tag_107\n      jump\t// in\n    tag_196:\n        /* \"#utility.yul\":4706:4710   */\n      0x60\n        /* \"#utility.yul\":4699:4704   */\n      dup4\n        /* \"#utility.yul\":4695:4711   */\n      add\n        /* \"#utility.yul\":4688:4773   */\n      mstore\n        /* \"#utility.yul\":4457:4784   */\n      pop\n        /* \"#utility.yul\":3189:4791   */\n      swap3\n      swap2\n      pop\n      pop\n      jump\t// out\n        /* \"#utility.yul\":4797:5489   */\n    tag_10:\n        /* \"#utility.yul\":4894:4900   */\n      0x00\n        /* \"#utility.yul\":4902:4908   */\n      dup1\n        /* \"#utility.yul\":4951:4953   */\n      0x40\n        /* \"#utility.yul\":4939:4948   */\n      dup4\n        /* \"#utility.yul\":4930:4937   */\n      dup6\n        /* \"#utility.yul\":4926:4949   */\n      sub\n        /* \"#utility.yul\":4922:4954   */\n      slt\n        /* \"#utility.yul\":4919:5038   */\n      iszero\n      tag_198\n      jumpi\n        /* \"#utility.yul\":4957:5036   */\n      tag_199\n      tag_91\n      jump\t// in\n    tag_199:\n        /* \"#utility.yul\":4919:5038   */\n    tag_198:\n        /* \"#utility.yul\":5077:5078   */\n      0x00\n        /* \"#utility.yul\":5102:5155   */\n      tag_200\n        /* \"#utility.yul\":5147:5154   */\n      dup6\n        /* \"#utility.yul\":5138:5144   */\n      dup3\n        /* \"#utility.yul\":5127:5136   */\n      dup7\n        /* \"#utility.yul\":5123:5145   */\n      add\n        /* \"#utility.yul\":5102:5155   */\n      tag_95\n      jump\t// in\n    tag_200:\n        /* \"#utility.yul\":5092:5155   */\n      swap3\n      pop\n        /* \"#utility.yul\":5048:5165   */\n      pop\n        /* \"#utility.yul\":5232:5234   */\n      0x20\n        /* \"#utility.yul\":5221:5230   */\n      dup4\n        /* \"#utility.yul\":5217:5235   */\n      add\n        /* \"#utility.yul\":5204:5236   */\n      calldataload\n        /* \"#utility.yul\":5263:5281   */\n      0xffffffffffffffff\n        /* \"#utility.yul\":5255:5261   */\n      dup2\n        /* \"#utility.yul\":5252:5282   */\n      gt\n        /* \"#utility.yul\":5249:5366   */\n      iszero\n      tag_201\n      jumpi\n        /* \"#utility.yul\":5285:5364   */\n      tag_202\n      tag_92\n      jump\t// in\n    tag_202:\n        /* \"#utility.yul\":5249:5366   */\n    tag_201:\n        /* \"#utility.yul\":5390:5472   */\n      tag_203\n        /* \"#utility.yul\":5464:5471   */\n      dup6\n        /* \"#utility.yul\":5455:5461   */\n      dup3\n        /* \"#utility.yul\":5444:5453   */\n      dup7\n        /* \"#utility.yul\":5440:5462   */\n      add\n        /* \"#utility.yul\":5390:5472   */\n      tag_108\n      jump\t// in\n    tag_203:\n        /* \"#utility.yul\":5380:5472   */\n      swap2\n      pop\n        /* \"#utility.yul\":5175:5482   */\n      pop\n        /* \"#utility.yul\":4797:5489   */\n      swap3\n      pop\n      swap3\n      swap1\n      pop\n      jump\t// out\n        /* \"#utility.yul\":5495:5585   */\n    tag_109:\n        /* \"#utility.yul\":5529:5536   */\n      0x00\n        /* \"#utility.yul\":5572:5577   */\n      dup2\n        /* \"#utility.yul\":5565:5578   */\n      iszero\n        /* \"#utility.yul\":5558:5579   */\n      iszero\n        /* \"#utility.yul\":5547:5579   */\n      swap1\n      pop\n        /* \"#utility.yul\":5495:5585   */\n      swap2\n      swap1\n      pop\n      jump\t// out\n        /* \"#utility.yul\":5591:5700   */\n    tag_110:\n        /* \"#utility.yul\":5672:5693   */\n      tag_206\n        /* \"#utility.yul\":5687:5692   */\n      dup2\n        /* \"#utility.yul\":5672:5693   */\n      tag_109\n      jump\t// in\n    tag_206:\n        /* \"#utility.yul\":5667:5670   */\n      dup3\n        /* \"#utility.yul\":5660:5694   */\n      mstore\n        /* \"#utility.yul\":5591:5700   */\n      pop\n      pop\n      jump\t// out\n        /* \"#utility.yul\":5706:5916   */\n    tag_13:\n        /* \"#utility.yul\":5793:5797   */\n      0x00\n        /* \"#utility.yul\":5831:5833   */\n      0x20\n        /* \"#utility.yul\":5820:5829   */\n      dup3\n        /* \"#utility.yul\":5816:5834   */\n      add\n        /* \"#utility.yul\":5808:5834   */\n      swap1\n      pop\n        /* \"#utility.yul\":5844:5909   */\n      tag_208\n        /* \"#utility.yul\":5906:5907   */\n      0x00\n        /* \"#utility.yul\":5895:5904   */\n      dup4\n        /* \"#utility.yul\":5891:5908   */\n      add\n        /* \"#utility.yul\":5882:5888   */\n      dup5\n        /* \"#utility.yul\":5844:5909   */\n      tag_110\n      jump\t// in\n    tag_208:\n        /* \"#utility.yul\":5706:5916   */\n      swap3\n      swap2\n      pop\n      pop\n      jump\t// out\n        /* \"#utility.yul\":5922:6251   */\n    tag_18:\n        /* \"#utility.yul\":5981:5987   */\n      0x00\n        /* \"#utility.yul\":6030:6032   */\n      0x20\n        /* \"#utility.yul\":6018:6027   */\n      dup3\n        /* \"#utility.yul\":6009:6016   */\n      dup5\n        /* \"#utility.yul\":6005:6028   */\n      sub\n        /* \"#utility.yul\":6001:6033   */\n      slt\n        /* \"#utility.yul\":5998:6117   */\n      iszero\n      tag_210\n      jumpi\n        /* \"#utility.yul\":6036:6115   */\n      tag_211\n      tag_91\n      jump\t// in\n    tag_211:\n        /* \"#utility.yul\":5998:6117   */\n    tag_210:\n        /* \"#utility.yul\":6156:6157   */\n      0x00\n        /* \"#utility.yul\":6181:6234   */\n      tag_212\n        /* \"#utility.yul\":6226:6233   */\n      dup5\n        /* \"#utility.yul\":6217:6223   */\n      dup3\n        /* \"#utility.yul\":6206:6215   */\n      dup6\n        /* \"#utility.yul\":6202:6224   */\n      add\n        /* \"#utility.yul\":6181:6234   */\n      tag_95\n      jump\t// in\n    tag_212:\n        /* \"#utility.yul\":6171:6234   */\n      swap2\n      pop\n        /* \"#utility.yul\":6127:6244   */\n      pop\n        /* \"#utility.yul\":5922:6251   */\n      swap3\n      swap2\n      pop\n      pop\n      jump\t// out\n        /* \"#utility.yul\":6257:6356   */\n    tag_111:\n        /* \"#utility.yul\":6309:6315   */\n      0x00\n        /* \"#utility.yul\":6343:6348   */\n      dup2\n        /* \"#utility.yul\":6337:6349   */\n      mload\n        /* \"#utility.yul\":6327:6349   */\n      swap1\n      pop\n        /* \"#utility.yul\":6257:6356   */\n      swap2\n      swap1\n      pop\n      jump\t// out\n        /* \"#utility.yul\":6362:6521   */\n    tag_112:\n        /* \"#utility.yul\":6436:6447   */\n      0x00\n        /* \"#utility.yul\":6470:6476   */\n      dup3\n        /* \"#utility.yul\":6465:6468   */\n      dup3\n        /* \"#utility.yul\":6458:6477   */\n      mstore\n        /* \"#utility.yul\":6510:6514   */\n      0x20\n        /* \"#utility.yul\":6505:6508   */\n      dup3\n        /* \"#utility.yul\":6501:6515   */\n      add\n        /* \"#utility.yul\":6486:6515   */\n      swap1\n      pop\n        /* \"#utility.yul\":6362:6521   */\n      swap3\n      swap2\n      pop\n      pop\n      jump\t// out\n        /* \"#utility.yul\":6527:6773   */\n    tag_113:\n        /* \"#utility.yul\":6608:6609   */\n      0x00\n        /* \"#utility.yul\":6618:6731   */\n    tag_216:\n        /* \"#utility.yul\":6632:6638   */\n      dup4\n        /* \"#utility.yul\":6629:6630   */\n      dup2\n        /* \"#utility.yul\":6626:6639   */\n      lt\n        /* \"#utility.yul\":6618:6731   */\n      iszero\n      tag_218\n      jumpi\n        /* \"#utility.yul\":6717:6718   */\n      dup1\n        /* \"#utility.yul\":6712:6715   */\n      dup3\n        /* \"#utility.yul\":6708:6719   */\n      add\n        /* \"#utility.yul\":6702:6720   */\n      mload\n        /* \"#utility.yul\":6698:6699   */\n      dup2\n        /* \"#utility.yul\":6693:6696   */\n      dup5\n        /* \"#utility.yul\":6689:6700   */\n      add\n        /* \"#utility.yul\":6682:6721   */\n      mstore\n        /* \"#utility.yul\":6654:6656   */\n      0x20\n        /* \"#utility.yul\":6651:6652   */\n      dup2\n        /* \"#utility.yul\":6647:6657   */\n      add\n        /* \"#utility.yul\":6642:6657   */\n      swap1\n      pop\n        /* \"#utility.yul\":6618:6731   */\n      jump(tag_216)\n    tag_218:\n        /* \"#utility.yul\":6765:6766   */\n      0x00\n        /* \"#utility.yul\":6756:6762   */\n      dup5\n        /* \"#utility.yul\":6751:6754   */\n      dup5\n        /* \"#utility.yul\":6747:6763   */\n      add\n        /* \"#utility.yul\":6740:6767   */\n      mstore\n        /* \"#utility.yul\":6589:6773   */\n      pop\n        /* \"#utility.yul\":6527:6773   */\n      pop\n      pop\n      pop\n      jump\t// out\n        /* \"#utility.yul\":6779:7136   */\n    tag_114:\n        /* \"#utility.yul\":6857:6860   */\n      0x00\n        /* \"#utility.yul\":6885:6924   */\n      tag_220\n        /* \"#utility.yul\":6918:6923   */\n      dup3\n        /* \"#utility.yul\":6885:6924   */\n      tag_111\n      jump\t// in\n    tag_220:\n        /* \"#utility.yul\":6940:7001   */\n      tag_221\n        /* \"#utility.yul\":6994:7000   */\n      dup2\n        /* \"#utility.yul\":6989:6992   */\n      dup6\n        /* \"#utility.yul\":6940:7001   */\n      tag_112\n      jump\t// in\n    tag_221:\n        /* \"#utility.yul\":6933:7001   */\n      swap4\n      pop\n        /* \"#utility.yul\":7010:7075   */\n      tag_222\n        /* \"#utility.yul\":7068:7074   */\n      dup2\n        /* \"#utility.yul\":7063:7066   */\n      dup6\n        /* \"#utility.yul\":7056:7060   */\n      0x20\n        /* \"#utility.yul\":7049:7054   */\n      dup7\n        /* \"#utility.yul\":7045:7061   */\n      add\n        /* \"#utility.yul\":7010:7075   */\n      tag_113\n      jump\t// in\n    tag_222:\n        /* \"#utility.yul\":7100:7129   */\n      tag_223\n        /* \"#utility.yul\":7122:7128   */\n      dup2\n        /* \"#utility.yul\":7100:7129   */\n      tag_97\n      jump\t// in\n    tag_223:\n        /* \"#utility.yul\":7095:7098   */\n      dup5\n        /* \"#utility.yul\":7091:7130   */\n      add\n        /* \"#utility.yul\":7084:7130   */\n      swap2\n      pop\n        /* \"#utility.yul\":6861:7136   */\n      pop\n        /* \"#utility.yul\":6779:7136   */\n      swap3\n      swap2\n      pop\n      pop\n      jump\t// out\n        /* \"#utility.yul\":7206:8393   */\n    tag_115:\n        /* \"#utility.yul\":7323:7326   */\n      0x00\n        /* \"#utility.yul\":7359:7363   */\n      0x80\n        /* \"#utility.yul\":7354:7357   */\n      dup4\n        /* \"#utility.yul\":7350:7364   */\n      add\n        /* \"#utility.yul\":7451:7455   */\n      0x00\n        /* \"#utility.yul\":7444:7449   */\n      dup4\n        /* \"#utility.yul\":7440:7456   */\n      add\n        /* \"#utility.yul\":7434:7457   */\n      mload\n        /* \"#utility.yul\":7504:7507   */\n      dup5\n        /* \"#utility.yul\":7498:7502   */\n      dup3\n        /* \"#utility.yul\":7494:7508   */\n      sub\n        /* \"#utility.yul\":7487:7491   */\n      0x00\n        /* \"#utility.yul\":7482:7485   */\n      dup7\n        /* \"#utility.yul\":7478:7492   */\n      add\n        /* \"#utility.yul\":7471:7509   */\n      mstore\n        /* \"#utility.yul\":7530:7603   */\n      tag_225\n        /* \"#utility.yul\":7598:7602   */\n      dup3\n        /* \"#utility.yul\":7584:7596   */\n      dup3\n        /* \"#utility.yul\":7530:7603   */\n      tag_114\n      jump\t// in\n    tag_225:\n        /* \"#utility.yul\":7522:7603   */\n      swap2\n      pop\n        /* \"#utility.yul\":7374:7614   */\n      pop\n        /* \"#utility.yul\":7704:7708   */\n      0x20\n        /* \"#utility.yul\":7697:7702   */\n      dup4\n        /* \"#utility.yul\":7693:7709   */\n      add\n        /* \"#utility.yul\":7687:7710   */\n      mload\n        /* \"#utility.yul\":7757:7760   */\n      dup5\n        /* \"#utility.yul\":7751:7755   */\n      dup3\n        /* \"#utility.yul\":7747:7761   */\n      sub\n        /* \"#utility.yul\":7740:7744   */\n      0x20\n        /* \"#utility.yul\":7735:7738   */\n      dup7\n        /* \"#utility.yul\":7731:7745   */\n      add\n        /* \"#utility.yul\":7724:7762   */\n      mstore\n        /* \"#utility.yul\":7783:7856   */\n      tag_226\n        /* \"#utility.yul\":7851:7855   */\n      dup3\n        /* \"#utility.yul\":7837:7849   */\n      dup3\n        /* \"#utility.yul\":7783:7856   */\n      tag_114\n      jump\t// in\n    tag_226:\n        /* \"#utility.yul\":7775:7856   */\n      swap2\n      pop\n        /* \"#utility.yul\":7624:7867   */\n      pop\n        /* \"#utility.yul\":7952:7956   */\n      0x40\n        /* \"#utility.yul\":7945:7950   */\n      dup4\n        /* \"#utility.yul\":7941:7957   */\n      add\n        /* \"#utility.yul\":7935:7958   */\n      mload\n        /* \"#utility.yul\":8005:8008   */\n      dup5\n        /* \"#utility.yul\":7999:8003   */\n      dup3\n        /* \"#utility.yul\":7995:8009   */\n      sub\n        /* \"#utility.yul\":7988:7992   */\n      0x40\n        /* \"#utility.yul\":7983:7986   */\n      dup7\n        /* \"#utility.yul\":7979:7993   */\n      add\n        /* \"#utility.yul\":7972:8010   */\n      mstore\n        /* \"#utility.yul\":8031:8104   */\n      tag_227\n        /* \"#utility.yul\":8099:8103   */\n      dup3\n        /* \"#utility.yul\":8085:8097   */\n      dup3\n        /* \"#utility.yul\":8031:8104   */\n      tag_114\n      jump\t// in\n    tag_227:\n        /* \"#utility.yul\":8023:8104   */\n      swap2\n      pop\n        /* \"#utility.yul\":7877:8115   */\n      pop\n        /* \"#utility.yul\":8203:8207   */\n      0x60\n        /* \"#utility.yul\":8196:8201   */\n      dup4\n        /* \"#utility.yul\":8192:8208   */\n      add\n        /* \"#utility.yul\":8186:8209   */\n      mload\n        /* \"#utility.yul\":8256:8259   */\n      dup5\n        /* \"#utility.yul\":8250:8254   */\n      dup3\n        /* \"#utility.yul\":8246:8260   */\n      sub\n        /* \"#utility.yul\":8239:8243   */\n      0x60\n        /* \"#utility.yul\":8234:8237   */\n      dup7\n        /* \"#utility.yul\":8230:8244   */\n      add\n        /* \"#utility.yul\":8223:8261   */\n      mstore\n        /* \"#utility.yul\":8282:8355   */\n      tag_228\n        /* \"#utility.yul\":8350:8354   */\n      dup3\n        /* \"#utility.yul\":8336:8348   */\n      dup3\n        /* \"#utility.yul\":8282:8355   */\n      tag_114\n      jump\t// in\n    tag_228:\n        /* \"#utility.yul\":8274:8355   */\n      swap2\n      pop\n        /* \"#utility.yul\":8125:8366   */\n      pop\n        /* \"#utility.yul\":8383:8387   */\n      dup1\n        /* \"#utility.yul\":8376:8387   */\n      swap2\n      pop\n        /* \"#utility.yul\":7328:8393   */\n      pop\n        /* \"#utility.yul\":7206:8393   */\n      swap3\n      swap2\n      pop\n      pop\n      jump\t// out\n        /* \"#utility.yul\":8449:8917   */\n    tag_116:\n        /* \"#utility.yul\":8562:8565   */\n      0x00\n        /* \"#utility.yul\":8598:8602   */\n      0x20\n        /* \"#utility.yul\":8593:8596   */\n      dup4\n        /* \"#utility.yul\":8589:8603   */\n      add\n        /* \"#utility.yul\":8689:8693   */\n      0x00\n        /* \"#utility.yul\":8682:8687   */\n      dup4\n        /* \"#utility.yul\":8678:8694   */\n      add\n        /* \"#utility.yul\":8672:8695   */\n      mload\n        /* \"#utility.yul\":8742:8745   */\n      dup5\n        /* \"#utility.yul\":8736:8740   */\n      dup3\n        /* \"#utility.yul\":8732:8746   */\n      sub\n        /* \"#utility.yul\":8725:8729   */\n      0x00\n        /* \"#utility.yul\":8720:8723   */\n      dup7\n        /* \"#utility.yul\":8716:8730   */\n      add\n        /* \"#utility.yul\":8709:8747   */\n      mstore\n        /* \"#utility.yul\":8768:8879   */\n      tag_230\n        /* \"#utility.yul\":8874:8878   */\n      dup3\n        /* \"#utility.yul\":8860:8872   */\n      dup3\n        /* \"#utility.yul\":8768:8879   */\n      tag_115\n      jump\t// in\n    tag_230:\n        /* \"#utility.yul\":8760:8879   */\n      swap2\n      pop\n        /* \"#utility.yul\":8613:8890   */\n      pop\n        /* \"#utility.yul\":8907:8911   */\n      dup1\n        /* \"#utility.yul\":8900:8911   */\n      swap2\n      pop\n        /* \"#utility.yul\":8567:8917   */\n      pop\n        /* \"#utility.yul\":8449:8917   */\n      swap3\n      swap2\n      pop\n      pop\n      jump\t// out\n        /* \"#utility.yul\":8923:9284   */\n    tag_21:\n        /* \"#utility.yul\":9060:9064   */\n      0x00\n        /* \"#utility.yul\":9098:9100   */\n      0x20\n        /* \"#utility.yul\":9087:9096   */\n      dup3\n        /* \"#utility.yul\":9083:9101   */\n      add\n        /* \"#utility.yul\":9075:9101   */\n      swap1\n      pop\n        /* \"#utility.yul\":9147:9156   */\n      dup2\n        /* \"#utility.yul\":9141:9145   */\n      dup2\n        /* \"#utility.yul\":9137:9157   */\n      sub\n        /* \"#utility.yul\":9133:9134   */\n      0x00\n        /* \"#utility.yul\":9122:9131   */\n      dup4\n        /* \"#utility.yul\":9118:9135   */\n      add\n        /* \"#utility.yul\":9111:9158   */\n      mstore\n        /* \"#utility.yul\":9175:9277   */\n      tag_232\n        /* \"#utility.yul\":9272:9276   */\n      dup2\n        /* \"#utility.yul\":9263:9269   */\n      dup5\n        /* \"#utility.yul\":9175:9277   */\n      tag_116\n      jump\t// in\n    tag_232:\n        /* \"#utility.yul\":9167:9277   */\n      swap1\n      pop\n        /* \"#utility.yul\":8923:9284   */\n      swap3\n      swap2\n      pop\n      pop\n      jump\t// out\n        /* \"#utility.yul\":9290:9416   */\n    tag_117:\n        /* \"#utility.yul\":9327:9334   */\n      0x00\n        /* \"#utility.yul\":9367:9409   */\n      0xffffffffffffffffffffffffffffffffffffffff\n        /* \"#utility.yul\":9360:9365   */\n      dup3\n        /* \"#utility.yul\":9356:9410   */\n      and\n        /* \"#utility.yul\":9345:9410   */\n      swap1\n      pop\n        /* \"#utility.yul\":9290:9416   */\n      swap2\n      swap1\n      pop\n      jump\t// out\n        /* \"#utility.yul\":9422:9518   */\n    tag_118:\n        /* \"#utility.yul\":9459:9466   */\n      0x00\n        /* \"#utility.yul\":9488:9512   */\n      tag_235\n        /* \"#utility.yul\":9506:9511   */\n      dup3\n        /* \"#utility.yul\":9488:9512   */\n      tag_117\n      jump\t// in\n    tag_235:\n        /* \"#utility.yul\":9477:9512   */\n      swap1\n      pop\n        /* \"#utility.yul\":9422:9518   */\n      swap2\n      swap1\n      pop\n      jump\t// out\n        /* \"#utility.yul\":9524:9642   */\n    tag_119:\n        /* \"#utility.yul\":9611:9635   */\n      tag_237\n        /* \"#utility.yul\":9629:9634   */\n      dup2\n        /* \"#utility.yul\":9611:9635   */\n      tag_118\n      jump\t// in\n    tag_237:\n        /* \"#utility.yul\":9606:9609   */\n      dup3\n        /* \"#utility.yul\":9599:9636   */\n      mstore\n        /* \"#utility.yul\":9524:9642   */\n      pop\n      pop\n      jump\t// out\n        /* \"#utility.yul\":9648:9870   */\n    tag_25:\n        /* \"#utility.yul\":9741:9745   */\n      0x00\n        /* \"#utility.yul\":9779:9781   */\n      0x20\n        /* \"#utility.yul\":9768:9777   */\n      dup3\n        /* \"#utility.yul\":9764:9782   */\n      add\n        /* \"#utility.yul\":9756:9782   */\n      swap1\n      pop\n        /* \"#utility.yul\":9792:9863   */\n      tag_239\n        /* \"#utility.yul\":9860:9861   */\n      0x00\n        /* \"#utility.yul\":9849:9858   */\n      dup4\n        /* \"#utility.yul\":9845:9862   */\n      add\n        /* \"#utility.yul\":9836:9842   */\n      dup5\n        /* \"#utility.yul\":9792:9863   */\n      tag_119\n      jump\t// in\n    tag_239:\n        /* \"#utility.yul\":9648:9870   */\n      swap3\n      swap2\n      pop\n      pop\n      jump\t// out\n        /* \"#utility.yul\":9876:9998   */\n    tag_120:\n        /* \"#utility.yul\":9949:9973   */\n      tag_241\n        /* \"#utility.yul\":9967:9972   */\n      dup2\n        /* \"#utility.yul\":9949:9973   */\n      tag_118\n      jump\t// in\n    tag_241:\n        /* \"#utility.yul\":9942:9947   */\n      dup2\n        /* \"#utility.yul\":9939:9974   */\n      eq\n        /* \"#utility.yul\":9929:9992   */\n      tag_242\n      jumpi\n        /* \"#utility.yul\":9988:9989   */\n      0x00\n        /* \"#utility.yul\":9985:9986   */\n      dup1\n        /* \"#utility.yul\":9978:9990   */\n      revert\n        /* \"#utility.yul\":9929:9992   */\n    tag_242:\n        /* \"#utility.yul\":9876:9998   */\n      pop\n      jump\t// out\n        /* \"#utility.yul\":10004:10143   */\n    tag_121:\n        /* \"#utility.yul\":10050:10055   */\n      0x00\n        /* \"#utility.yul\":10088:10094   */\n      dup2\n        /* \"#utility.yul\":10075:10095   */\n      calldataload\n        /* \"#utility.yul\":10066:10095   */\n      swap1\n      pop\n        /* \"#utility.yul\":10104:10137   */\n      tag_244\n        /* \"#utility.yul\":10131:10136   */\n      dup2\n        /* \"#utility.yul\":10104:10137   */\n      tag_120\n      jump\t// in\n    tag_244:\n        /* \"#utility.yul\":10004:10143   */\n      swap3\n      swap2\n      pop\n      pop\n      jump\t// out\n        /* \"#utility.yul\":10149:10478   */\n    tag_28:\n        /* \"#utility.yul\":10208:10214   */\n      0x00\n        /* \"#utility.yul\":10257:10259   */\n      0x20\n        /* \"#utility.yul\":10245:10254   */\n      dup3\n        /* \"#utility.yul\":10236:10243   */\n      dup5\n        /* \"#utility.yul\":10232:10255   */\n      sub\n        /* \"#utility.yul\":10228:10260   */\n      slt\n        /* \"#utility.yul\":10225:10344   */\n      iszero\n      tag_246\n      jumpi\n        /* \"#utility.yul\":10263:10342   */\n      tag_247\n      tag_91\n      jump\t// in\n    tag_247:\n        /* \"#utility.yul\":10225:10344   */\n    tag_246:\n        /* \"#utility.yul\":10383:10384   */\n      0x00\n        /* \"#utility.yul\":10408:10461   */\n      tag_248\n        /* \"#utility.yul\":10453:10460   */\n      dup5\n        /* \"#utility.yul\":10444:10450   */\n      dup3\n        /* \"#utility.yul\":10433:10442   */\n      dup6\n        /* \"#utility.yul\":10429:10451   */\n      add\n        /* \"#utility.yul\":10408:10461   */\n      tag_121\n      jump\t// in\n    tag_248:\n        /* \"#utility.yul\":10398:10461   */\n      swap2\n      pop\n        /* \"#utility.yul\":10354:10471   */\n      pop\n        /* \"#utility.yul\":10149:10478   */\n      swap3\n      swap2\n      pop\n      pop\n      jump\t// out\n        /* \"#utility.yul\":10484:10653   */\n    tag_122:\n        /* \"#utility.yul\":10568:10579   */\n      0x00\n        /* \"#utility.yul\":10602:10608   */\n      dup3\n        /* \"#utility.yul\":10597:10600   */\n      dup3\n        /* \"#utility.yul\":10590:10609   */\n      mstore\n        /* \"#utility.yul\":10642:10646   */\n      0x20\n        /* \"#utility.yul\":10637:10640   */\n      dup3\n        /* \"#utility.yul\":10633:10647   */\n      add\n        /* \"#utility.yul\":10618:10647   */\n      swap1\n      pop\n        /* \"#utility.yul\":10484:10653   */\n      swap3\n      swap2\n      pop\n      pop\n      jump\t// out\n        /* \"#utility.yul\":10659:10841   */\n    tag_123:\n        /* \"#utility.yul\":10799:10833   */\n      0x4f776e61626c653a2063616c6c6572206973206e6f7420746865206f776e6572\n        /* \"#utility.yul\":10795:10796   */\n      0x00\n        /* \"#utility.yul\":10787:10793   */\n      dup3\n        /* \"#utility.yul\":10783:10797   */\n      add\n        /* \"#utility.yul\":10776:10834   */\n      mstore\n        /* \"#utility.yul\":10659:10841   */\n      pop\n      jump\t// out\n        /* \"#utility.yul\":10847:11213   */\n    tag_124:\n        /* \"#utility.yul\":10989:10992   */\n      0x00\n        /* \"#utility.yul\":11010:11077   */\n      tag_252\n        /* \"#utility.yul\":11074:11076   */\n      0x20\n        /* \"#utility.yul\":11069:11072   */\n      dup4\n        /* \"#utility.yul\":11010:11077   */\n      tag_122\n      jump\t// in\n    tag_252:\n        /* \"#utility.yul\":11003:11077   */\n      swap2\n      pop\n        /* \"#utility.yul\":11086:11179   */\n      tag_253\n        /* \"#utility.yul\":11175:11178   */\n      dup3\n        /* \"#utility.yul\":11086:11179   */\n      tag_123\n      jump\t// in\n    tag_253:\n        /* \"#utility.yul\":11204:11206   */\n      0x20\n        /* \"#utility.yul\":11199:11202   */\n      dup3\n        /* \"#utility.yul\":11195:11207   */\n      add\n        /* \"#utility.yul\":11188:11207   */\n      swap1\n      pop\n        /* \"#utility.yul\":10847:11213   */\n      swap2\n      swap1\n      pop\n      jump\t// out\n        /* \"#utility.yul\":11219:11638   */\n    tag_36:\n        /* \"#utility.yul\":11385:11389   */\n      0x00\n        /* \"#utility.yul\":11423:11425   */\n      0x20\n        /* \"#utility.yul\":11412:11421   */\n      dup3\n        /* \"#utility.yul\":11408:11426   */\n      add\n        /* \"#utility.yul\":11400:11426   */\n      swap1\n      pop\n        /* \"#utility.yul\":11472:11481   */\n      dup2\n        /* \"#utility.yul\":11466:11470   */\n      dup2\n        /* \"#utility.yul\":11462:11482   */\n      sub\n        /* \"#utility.yul\":11458:11459   */\n      0x00\n        /* \"#utility.yul\":11447:11456   */\n      dup4\n        /* \"#utility.yul\":11443:11460   */\n      add\n        /* \"#utility.yul\":11436:11483   */\n      mstore\n        /* \"#utility.yul\":11500:11631   */\n      tag_255\n        /* \"#utility.yul\":11626:11630   */\n      dup2\n        /* \"#utility.yul\":11500:11631   */\n      tag_124\n      jump\t// in\n    tag_255:\n        /* \"#utility.yul\":11492:11631   */\n      swap1\n      pop\n        /* \"#utility.yul\":11219:11638   */\n      swap2\n      swap1\n      pop\n      jump\t// out\n        /* \"#utility.yul\":11644:11824   */\n    tag_125:\n        /* \"#utility.yul\":11692:11769   */\n      0x4e487b7100000000000000000000000000000000000000000000000000000000\n        /* \"#utility.yul\":11689:11690   */\n      0x00\n        /* \"#utility.yul\":11682:11770   */\n      mstore\n        /* \"#utility.yul\":11789:11793   */\n      0x22\n        /* \"#utility.yul\":11786:11787   */\n      0x04\n        /* \"#utility.yul\":11779:11794   */\n      mstore\n        /* \"#utility.yul\":11813:11817   */\n      0x24\n        /* \"#utility.yul\":11810:11811   */\n      0x00\n        /* \"#utility.yul\":11803:11818   */\n      revert\n        /* \"#utility.yul\":11830:12150   */\n    tag_55:\n        /* \"#utility.yul\":11874:11880   */\n      0x00\n        /* \"#utility.yul\":11911:11912   */\n      0x02\n        /* \"#utility.yul\":11905:11909   */\n      dup3\n        /* \"#utility.yul\":11901:11913   */\n      div\n        /* \"#utility.yul\":11891:11913   */\n      swap1\n      pop\n        /* \"#utility.yul\":11958:11959   */\n      0x01\n        /* \"#utility.yul\":11952:11956   */\n      dup3\n        /* \"#utility.yul\":11948:11960   */\n      and\n        /* \"#utility.yul\":11979:11997   */\n      dup1\n        /* \"#utility.yul\":11969:12050   */\n      tag_258\n      jumpi\n        /* \"#utility.yul\":12035:12039   */\n      0x7f\n        /* \"#utility.yul\":12027:12033   */\n      dup3\n        /* \"#utility.yul\":12023:12040   */\n      and\n        /* \"#utility.yul\":12013:12040   */\n      swap2\n      pop\n        /* \"#utility.yul\":11969:12050   */\n    tag_258:\n        /* \"#utility.yul\":12097:12099   */\n      0x20\n        /* \"#utility.yul\":12089:12095   */\n      dup3\n        /* \"#utility.yul\":12086:12100   */\n      lt\n        /* \"#utility.yul\":12066:12084   */\n      dup2\n        /* \"#utility.yul\":12063:12101   */\n      sub\n        /* \"#utility.yul\":12060:12144   */\n      tag_259\n      jumpi\n        /* \"#utility.yul\":12116:12134   */\n      tag_260\n      tag_125\n      jump\t// in\n    tag_260:\n        /* \"#utility.yul\":12060:12144   */\n    tag_259:\n        /* \"#utility.yul\":11881:12150   */\n      pop\n        /* \"#utility.yul\":11830:12150   */\n      swap2\n      swap1\n      pop\n      jump\t// out\n        /* \"#utility.yul\":12156:12297   */\n    tag_126:\n        /* \"#utility.yul\":12205:12209   */\n      0x00\n        /* \"#utility.yul\":12228:12231   */\n      dup2\n        /* \"#utility.yul\":12220:12231   */\n      swap1\n      pop\n        /* \"#utility.yul\":12251:12254   */\n      dup2\n        /* \"#utility.yul\":12248:12249   */\n      0x00\n        /* \"#utility.yul\":12241:12255   */\n      mstore\n        /* \"#utility.yul\":12285:12289   */\n      0x20\n        /* \"#utility.yul\":12282:12283   */\n      0x00\n        /* \"#utility.yul\":12272:12290   */\n      keccak256\n        /* \"#utility.yul\":12264:12290   */\n      swap1\n      pop\n        /* \"#utility.yul\":12156:12297   */\n      swap2\n      swap1\n      pop\n      jump\t// out\n        /* \"#utility.yul\":12303:12396   */\n    tag_127:\n        /* \"#utility.yul\":12340:12346   */\n      0x00\n        /* \"#utility.yul\":12387:12389   */\n      0x20\n        /* \"#utility.yul\":12382:12384   */\n      0x1f\n        /* \"#utility.yul\":12375:12380   */\n      dup4\n        /* \"#utility.yul\":12371:12385   */\n      add\n        /* \"#utility.yul\":12367:12390   */\n      div\n        /* \"#utility.yul\":12357:12390   */\n      swap1\n      pop\n        /* \"#utility.yul\":12303:12396   */\n      swap2\n      swap1\n      pop\n      jump\t// out\n        /* \"#utility.yul\":12402:12509   */\n    tag_128:\n        /* \"#utility.yul\":12446:12454   */\n      0x00\n        /* \"#utility.yul\":12496:12501   */\n      dup3\n        /* \"#utility.yul\":12490:12494   */\n      dup3\n        /* \"#utility.yul\":12486:12502   */\n      shl\n        /* \"#utility.yul\":12465:12502   */\n      swap1\n      pop\n        /* \"#utility.yul\":12402:12509   */\n      swap3\n      swap2\n      pop\n      pop\n      jump\t// out\n        /* \"#utility.yul\":12515:12908   */\n    tag_129:\n        /* \"#utility.yul\":12584:12590   */\n      0x00\n        /* \"#utility.yul\":12634:12635   */\n      0x08\n        /* \"#utility.yul\":12622:12632   */\n      dup4\n        /* \"#utility.yul\":12618:12636   */\n      mul\n        /* \"#utility.yul\":12657:12754   */\n      tag_265\n        /* \"#utility.yul\":12687:12753   */\n      0xffffffffffffffffffffffffffffffffffffffffffffffffffffffffffffffff\n        /* \"#utility.yul\":12676:12685   */\n      dup3\n        /* \"#utility.yul\":12657:12754   */\n      tag_128\n      jump\t// in\n    tag_265:\n        /* \"#utility.yul\":12775:12814   */\n      tag_266\n        /* \"#utility.yul\":12805:12813   */\n      dup7\n        /* \"#utility.yul\":12794:12803   */\n      dup4\n        /* \"#utility.yul\":12775:12814   */\n      tag_128\n      jump\t// in\n    tag_266:\n        /* \"#utility.yul\":12763:12814   */\n      swap6\n      pop\n        /* \"#utility.yul\":12847:12851   */\n      dup1\n        /* \"#utility.yul\":12843:12852   */\n      not\n        /* \"#utility.yul\":12836:12841   */\n      dup5\n        /* \"#utility.yul\":12832:12853   */\n      and\n        /* \"#utility.yul\":12823:12853   */\n      swap4\n      pop\n        /* \"#utility.yul\":12896:12900   */\n      dup1\n        /* \"#utility.yul\":12886:12894   */\n      dup7\n        /* \"#utility.yul\":12882:12901   */\n      and\n        /* \"#utility.yul\":12875:12880   */\n      dup5\n        /* \"#utility.yul\":12872:12902   */\n      or\n        /* \"#utility.yul\":12862:12902   */\n      swap3\n      pop\n        /* \"#utility.yul\":12591:12908   */\n      pop\n      pop\n        /* \"#utility.yul\":12515:12908   */\n      swap4\n      swap3\n      pop\n      pop\n      pop\n      jump\t// out\n        /* \"#utility.yul\":12914:12974   */\n    tag_130:\n        /* \"#utility.yul\":12942:12945   */\n      0x00\n        /* \"#utility.yul\":12963:12968   */\n      dup2\n        /* \"#utility.yul\":12956:12968   */\n      swap1\n      pop\n        /* \"#utility.yul\":12914:12974   */\n      swap2\n      swap1\n      pop\n      jump\t// out\n        /* \"#utility.yul\":12980:13122   */\n    tag_131:\n        /* \"#utility.yul\":13030:13039   */\n      0x00\n        /* \"#utility.yul\":13063:13116   */\n      tag_269\n        /* \"#utility.yul\":13081:13115   */\n      tag_270\n        /* \"#utility.yul\":13090:13114   */\n      tag_271\n        /* \"#utility.yul\":13108:13113   */\n      dup5\n        /* \"#utility.yul\":13090:13114   */\n      tag_93\n      jump\t// in\n    tag_271:\n        /* \"#utility.yul\":13081:13115   */\n      tag_130\n      jump\t// in\n    tag_270:\n        /* \"#utility.yul\":13063:13116   */\n      tag_93\n      jump\t// in\n    tag_269:\n        /* \"#utility.yul\":13050:13116   */\n      swap1\n      pop\n        /* \"#utility.yul\":12980:13122   */\n      swap2\n      swap1\n      pop\n      jump\t// out\n        /* \"#utility.yul\":13128:13203   */\n    tag_132:\n        /* \"#utility.yul\":13171:13174   */\n      0x00\n        /* \"#utility.yul\":13192:13197   */\n      dup2\n        /* \"#utility.yul\":13185:13197   */\n      swap1\n      pop\n        /* \"#utility.yul\":13128:13203   */\n      swap2\n      swap1\n      pop\n      jump\t// out\n        /* \"#utility.yul\":13209:13478   */\n    tag_133:\n        /* \"#utility.yul\":13319:13358   */\n      tag_274\n        /* \"#utility.yul\":13350:13357   */\n      dup4\n        /* \"#utility.yul\":13319:13358   */\n      tag_131\n      jump\t// in\n    tag_274:\n        /* \"#utility.yul\":13380:13471   */\n      tag_275\n        /* \"#utility.yul\":13429:13470   */\n      tag_276\n        /* \"#utility.yul\":13453:13469   */\n      dup3\n        /* \"#utility.yul\":13429:13470   */\n      tag_132\n      jump\t// in\n    tag_276:\n        /* \"#utility.yul\":13421:13427   */\n      dup5\n        /* \"#utility.yul\":13414:13418   */\n      dup5\n        /* \"#utility.yul\":13408:13419   */\n      sload\n        /* \"#utility.yul\":13380:13471   */\n      tag_129\n      jump\t// in\n    tag_275:\n        /* \"#utility.yul\":13374:13378   */\n      dup3\n        /* \"#utility.yul\":13367:13472   */\n      sstore\n        /* \"#utility.yul\":13285:13478   */\n      pop\n        /* \"#utility.yul\":13209:13478   */\n      pop\n      pop\n      pop\n      jump\t// out\n        /* \"#utility.yul\":13484:13557   */\n    tag_134:\n        /* \"#utility.yul\":13529:13532   */\n      0x00\n        /* \"#utility.yul\":13484:13557   */\n      swap1\n      jump\t// out\n        /* \"#utility.yul\":13563:13752   */\n    tag_135:\n        /* \"#utility.yul\":13640:13672   */\n      tag_279\n      tag_134\n      jump\t// in\n    tag_279:\n        /* \"#utility.yul\":13681:13746   */\n      tag_280\n        /* \"#utility.yul\":13739:13745   */\n      dup2\n        /* \"#utility.yul\":13731:13737   */\n      dup5\n        /* \"#utility.yul\":13725:13729   */\n      dup5\n        /* \"#utility.yul\":13681:13746   */\n      tag_133\n      jump\t// in\n    tag_280:\n        /* \"#utility.yul\":13616:13752   */\n      pop\n        /* \"#utility.yul\":13563:13752   */\n      pop\n      pop\n      jump\t// out\n        /* \"#utility.yul\":13758:13944   */\n    tag_136:\n        /* \"#utility.yul\":13818:13938   */\n    tag_282:\n        /* \"#utility.yul\":13835:13838   */\n      dup2\n        /* \"#utility.yul\":13828:13833   */\n      dup2\n        /* \"#utility.yul\":13825:13839   */\n      lt\n        /* \"#utility.yul\":13818:13938   */\n      iszero\n      tag_284\n      jumpi\n        /* \"#utility.yul\":13889:13928   */\n      tag_285\n        /* \"#utility.yul\":13926:13927   */\n      0x00\n        /* \"#utility.yul\":13919:13924   */\n      dup3\n        /* \"#utility.yul\":13889:13928   */\n      tag_135\n      jump\t// in\n    tag_285:\n        /* \"#utility.yul\":13862:13863   */\n      0x01\n        /* \"#utility.yul\":13855:13860   */\n      dup2\n        /* \"#utility.yul\":13851:13864   */\n      add\n        /* \"#utility.yul\":13842:13864   */\n      swap1\n      pop\n        /* \"#utility.yul\":13818:13938   */\n      jump(tag_282)\n    tag_284:\n        /* \"#utility.yul\":13758:13944   */\n      pop\n      pop\n      jump\t// out\n        /* \"#utility.yul\":13950:14493   */\n    tag_137:\n        /* \"#utility.yul\":14051:14053   */\n      0x1f\n        /* \"#utility.yul\":14046:14049   */\n      dup3\n        /* \"#utility.yul\":14043:14054   */\n      gt\n        /* \"#utility.yul\":14040:14486   */\n      iszero\n      tag_287\n      jumpi\n        /* \"#utility.yul\":14085:14123   */\n      tag_288\n        /* \"#utility.yul\":14117:14122   */\n      dup2\n        /* \"#utility.yul\":14085:14123   */\n      tag_126\n      jump\t// in\n    tag_288:\n        /* \"#utility.yul\":14169:14198   */\n      tag_289\n        /* \"#utility.yul\":14187:14197   */\n      dup5\n        /* \"#utility.yul\":14169:14198   */\n      tag_127\n      jump\t// in\n    tag_289:\n        /* \"#utility.yul\":14159:14167   */\n      dup2\n        /* \"#utility.yul\":14155:14199   */\n      add\n        /* \"#utility.yul\":14352:14354   */\n      0x20\n        /* \"#utility.yul\":14340:14350   */\n      dup6\n        /* \"#utility.yul\":14337:14355   */\n      lt\n        /* \"#utility.yul\":14334:14383   */\n      iszero\n      tag_290\n      jumpi\n        /* \"#utility.yul\":14373:14381   */\n      dup2\n        /* \"#utility.yul\":14358:14381   */\n      swap1\n      pop\n        /* \"#utility.yul\":14334:14383   */\n    tag_290:\n        /* \"#utility.yul\":14396:14476   */\n      tag_291\n        /* \"#utility.yul\":14452:14474   */\n      tag_292\n        /* \"#utility.yul\":14470:14473   */\n      dup6\n        /* \"#utility.yul\":14452:14474   */\n      tag_127\n      jump\t// in\n    tag_292:\n        /* \"#utility.yul\":14442:14450   */\n      dup4\n        /* \"#utility.yul\":14438:14475   */\n      add\n        /* \"#utility.yul\":14425:14436   */\n      dup3\n        /* \"#utility.yul\":14396:14476   */\n      tag_136\n      jump\t// in\n    tag_291:\n        /* \"#utility.yul\":14055:14486   */\n      pop\n      pop\n        /* \"#utility.yul\":14040:14486   */\n    tag_287:\n        /* \"#utility.yul\":13950:14493   */\n      pop\n      pop\n      pop\n      jump\t// out\n        /* \"#utility.yul\":14499:14616   */\n    tag_138:\n        /* \"#utility.yul\":14553:14561   */\n      0x00\n        /* \"#utility.yul\":14603:14608   */\n      dup3\n        /* \"#utility.yul\":14597:14601   */\n      dup3\n        /* \"#utility.yul\":14593:14609   */\n      shr\n        /* \"#utility.yul\":14572:14609   */\n      swap1\n      pop\n        /* \"#utility.yul\":14499:14616   */\n      swap3\n      swap2\n      pop\n      pop\n      jump\t// out\n        /* \"#utility.yul\":14622:14791   */\n    tag_139:\n        /* \"#utility.yul\":14666:14672   */\n      0x00\n        /* \"#utility.yul\":14699:14750   */\n      tag_295\n        /* \"#utility.yul\":14747:14748   */\n      0x00\n        /* \"#utility.yul\":14743:14749   */\n      not\n        /* \"#utility.yul\":14735:14740   */\n      dup5\n        /* \"#utility.yul\":14732:14733   */\n      0x08\n        /* \"#utility.yul\":14728:14741   */\n      mul\n        /* \"#utility.yul\":14699:14750   */\n      tag_138\n      jump\t// in\n    tag_295:\n        /* \"#utility.yul\":14695:14751   */\n      not\n        /* \"#utility.yul\":14780:14784   */\n      dup1\n        /* \"#utility.yul\":14774:14778   */\n      dup4\n        /* \"#utility.yul\":14770:14785   */\n      and\n        /* \"#utility.yul\":14760:14785   */\n      swap2\n      pop\n        /* \"#utility.yul\":14673:14791   */\n      pop\n        /* \"#utility.yul\":14622:14791   */\n      swap3\n      swap2\n      pop\n      pop\n      jump\t// out\n        /* \"#utility.yul\":14796:15091   */\n    tag_140:\n        /* \"#utility.yul\":14872:14876   */\n      0x00\n        /* \"#utility.yul\":15018:15047   */\n      tag_297\n        /* \"#utility.yul\":15043:15046   */\n      dup4\n        /* \"#utility.yul\":15037:15041   */\n      dup4\n        /* \"#utility.yul\":15018:15047   */\n      tag_139\n      jump\t// in\n    tag_297:\n        /* \"#utility.yul\":15010:15047   */\n      swap2\n      pop\n        /* \"#utility.yul\":15080:15083   */\n      dup3\n        /* \"#utility.yul\":15077:15078   */\n      0x02\n        /* \"#utility.yul\":15073:15084   */\n      mul\n        /* \"#utility.yul\":15067:15071   */\n      dup3\n        /* \"#utility.yul\":15064:15085   */\n      or\n        /* \"#utility.yul\":15056:15085   */\n      swap1\n      pop\n        /* \"#utility.yul\":14796:15091   */\n      swap3\n      swap2\n      pop\n      pop\n      jump\t// out\n        /* \"#utility.yul\":15096:16491   */\n    tag_39:\n        /* \"#utility.yul\":15213:15250   */\n      tag_299\n        /* \"#utility.yul\":15246:15249   */\n      dup3\n        /* \"#utility.yul\":15213:15250   */\n      tag_111\n      jump\t// in\n    tag_299:\n        /* \"#utility.yul\":15315:15333   */\n      0xffffffffffffffff\n        /* \"#utility.yul\":15307:15313   */\n      dup2\n        /* \"#utility.yul\":15304:15334   */\n      gt\n        /* \"#utility.yul\":15301:15357   */\n      iszero\n      tag_300\n      jumpi\n        /* \"#utility.yul\":15337:15355   */\n      tag_301\n      tag_98\n      jump\t// in\n    tag_301:\n        /* \"#utility.yul\":15301:15357   */\n    tag_300:\n        /* \"#utility.yul\":15381:15419   */\n      tag_302\n        /* \"#utility.yul\":15413:15417   */\n      dup3\n        /* \"#utility.yul\":15407:15418   */\n      sload\n        /* \"#utility.yul\":15381:15419   */\n      tag_55\n      jump\t// in\n    tag_302:\n        /* \"#utility.yul\":15466:15533   */\n      tag_303\n        /* \"#utility.yul\":15526:15532   */\n      dup3\n        /* \"#utility.yul\":15518:15524   */\n      dup3\n        /* \"#utility.yul\":15512:15516   */\n      dup6\n        /* \"#utility.yul\":15466:15533   */\n      tag_137\n      jump\t// in\n    tag_303:\n        /* \"#utility.yul\":15560:15561   */\n      0x00\n        /* \"#utility.yul\":15584:15588   */\n      0x20\n        /* \"#utility.yul\":15571:15588   */\n      swap1\n      pop\n        /* \"#utility.yul\":15616:15618   */\n      0x1f\n        /* \"#utility.yul\":15608:15614   */\n      dup4\n        /* \"#utility.yul\":15605:15619   */\n      gt\n        /* \"#utility.yul\":15633:15634   */\n      0x01\n        /* \"#utility.yul\":15628:16246   */\n      dup2\n      eq\n      tag_305\n      jumpi\n        /* \"#utility.yul\":16290:16291   */\n      0x00\n        /* \"#utility.yul\":16307:16313   */\n      dup5\n        /* \"#utility.yul\":16304:16381   */\n      iszero\n      tag_306\n      jumpi\n        /* \"#utility.yul\":16356:16365   */\n      dup3\n        /* \"#utility.yul\":16351:16354   */\n      dup8\n        /* \"#utility.yul\":16347:16366   */\n      add\n        /* \"#utility.yul\":16341:16367   */\n      mload\n        /* \"#utility.yul\":16332:16367   */\n      swap1\n      pop\n        /* \"#utility.yul\":16304:16381   */\n    tag_306:\n        /* \"#utility.yul\":16407:16474   */\n      tag_307\n        /* \"#utility.yul\":16467:16473   */\n      dup6\n        /* \"#utility.yul\":16460:16465   */\n      dup3\n        /* \"#utility.yul\":16407:16474   */\n      tag_140\n      jump\t// in\n    tag_307:\n        /* \"#utility.yul\":16401:16405   */\n      dup7\n        /* \"#utility.yul\":16394:16475   */\n      sstore\n        /* \"#utility.yul\":16263:16485   */\n      pop\n        /* \"#utility.yul\":15598:16485   */\n      jump(tag_304)\n        /* \"#utility.yul\":15628:16246   */\n    tag_305:\n        /* \"#utility.yul\":15680:15684   */\n      0x1f\n        /* \"#utility.yul\":15676:15685   */\n      not\n        /* \"#utility.yul\":15668:15674   */\n      dup5\n        /* \"#utility.yul\":15664:15686   */\n      and\n        /* \"#utility.yul\":15714:15751   */\n      tag_308\n        /* \"#utility.yul\":15746:15750   */\n      dup7\n        /* \"#utility.yul\":15714:15751   */\n      tag_126\n      jump\t// in\n    tag_308:\n        /* \"#utility.yul\":15773:15774   */\n      0x00\n        /* \"#utility.yul\":15787:15995   */\n    tag_309:\n        /* \"#utility.yul\":15801:15808   */\n      dup3\n        /* \"#utility.yul\":15798:15799   */\n      dup2\n        /* \"#utility.yul\":15795:15809   */\n      lt\n        /* \"#utility.yul\":15787:15995   */\n      iszero\n      tag_311\n      jumpi\n        /* \"#utility.yul\":15880:15889   */\n      dup5\n        /* \"#utility.yul\":15875:15878   */\n      dup10\n        /* \"#utility.yul\":15871:15890   */\n      add\n        /* \"#utility.yul\":15865:15891   */\n      mload\n        /* \"#utility.yul\":15857:15863   */\n      dup3\n        /* \"#utility.yul\":15850:15892   */\n      sstore\n        /* \"#utility.yul\":15931:15932   */\n      0x01\n        /* \"#utility.yul\":15923:15929   */\n      dup3\n        /* \"#utility.yul\":15919:15933   */\n      add\n        /* \"#utility.yul\":15909:15933   */\n      swap2\n      pop\n        /* \"#utility.yul\":15978:15980   */\n      0x20\n        /* \"#utility.yul\":15967:15976   */\n      dup6\n        /* \"#utility.yul\":15963:15981   */\n      add\n        /* \"#utility.yul\":15950:15981   */\n      swap5\n      pop\n        /* \"#utility.yul\":15824:15828   */\n      0x20\n        /* \"#utility.yul\":15821:15822   */\n      dup2\n        /* \"#utility.yul\":15817:15829   */\n      add\n        /* \"#utility.yul\":15812:15829   */\n      swap1\n      pop\n        /* \"#utility.yul\":15787:15995   */\n      jump(tag_309)\n    tag_311:\n        /* \"#utility.yul\":16023:16029   */\n      dup7\n        /* \"#utility.yul\":16014:16021   */\n      dup4\n        /* \"#utility.yul\":16011:16030   */\n      lt\n        /* \"#utility.yul\":16008:16187   */\n      iszero\n      tag_312\n      jumpi\n        /* \"#utility.yul\":16081:16090   */\n      dup5\n        /* \"#utility.yul\":16076:16079   */\n      dup10\n        /* \"#utility.yul\":16072:16091   */\n      add\n        /* \"#utility.yul\":16066:16092   */\n      mload\n        /* \"#utility.yul\":16124:16172   */\n      tag_313\n        /* \"#utility.yul\":16166:16170   */\n      0x1f\n        /* \"#utility.yul\":16158:16164   */\n      dup10\n        /* \"#utility.yul\":16154:16171   */\n      and\n        /* \"#utility.yul\":16143:16152   */\n      dup3\n        /* \"#utility.yul\":16124:16172   */\n      tag_139\n      jump\t// in\n    tag_313:\n        /* \"#utility.yul\":16116:16122   */\n      dup4\n        /* \"#utility.yul\":16109:16173   */\n      sstore\n        /* \"#utility.yul\":16031:16187   */\n      pop\n        /* \"#utility.yul\":16008:16187   */\n    tag_312:\n        /* \"#utility.yul\":16233:16234   */\n      0x01\n        /* \"#utility.yul\":16229:16230   */\n      0x02\n        /* \"#utility.yul\":16221:16227   */\n      dup9\n        /* \"#utility.yul\":16217:16231   */\n      mul\n        /* \"#utility.yul\":16213:16235   */\n      add\n        /* \"#utility.yul\":16207:16211   */\n      dup9\n        /* \"#utility.yul\":16200:16236   */\n      sstore\n        /* \"#utility.yul\":15635:16246   */\n      pop\n      pop\n      pop\n        /* \"#utility.yul\":15598:16485   */\n    tag_304:\n      pop\n        /* \"#utility.yul\":15188:16491   */\n      pop\n      pop\n      pop\n        /* \"#utility.yul\":15096:16491   */\n      pop\n      pop\n      jump\t// out\n        /* \"#utility.yul\":16497:16722   */\n    tag_141:\n        /* \"#utility.yul\":16637:16671   */\n      0x4f776e61626c653a206e6577206f776e657220697320746865207a65726f2061\n        /* \"#utility.yul\":16633:16634   */\n      0x00\n        /* \"#utility.yul\":16625:16631   */\n      dup3\n        /* \"#utility.yul\":16621:16635   */\n      add\n        /* \"#utility.yul\":16614:16672   */\n      mstore\n        /* \"#utility.yul\":16706:16714   */\n      0x6464726573730000000000000000000000000000000000000000000000000000\n        /* \"#utility.yul\":16701:16703   */\n      0x20\n        /* \"#utility.yul\":16693:16699   */\n      dup3\n        /* \"#utility.yul\":16689:16704   */\n      add\n        /* \"#utility.yul\":16682:16715   */\n      mstore\n        /* \"#utility.yul\":16497:16722   */\n      pop\n      jump\t// out\n        /* \"#utility.yul\":16728:17094   */\n    tag_142:\n        /* \"#utility.yul\":16870:16873   */\n      0x00\n        /* \"#utility.yul\":16891:16958   */\n      tag_316\n        /* \"#utility.yul\":16955:16957   */\n      0x26\n        /* \"#utility.yul\":16950:16953   */\n      dup4\n        /* \"#utility.yul\":16891:16958   */\n      tag_122\n      jump\t// in\n    tag_316:\n        /* \"#utility.yul\":16884:16958   */\n      swap2\n      pop\n        /* \"#utility.yul\":16967:17060   */\n      tag_317\n        /* \"#utility.yul\":17056:17059   */\n      dup3\n        /* \"#utility.yul\":16967:17060   */\n      tag_141\n      jump\t// in\n    tag_317:\n        /* \"#utility.yul\":17085:17087   */\n      0x40\n        /* \"#utility.yul\":17080:17083   */\n      dup3\n        /* \"#utility.yul\":17076:17088   */\n      add\n        /* \"#utility.yul\":17069:17088   */\n      swap1\n      pop\n        /* \"#utility.yul\":16728:17094   */\n      swap2\n      swap1\n      pop\n      jump\t// out\n        /* \"#utility.yul\":17100:17519   */\n    tag_84:\n        /* \"#utility.yul\":17266:17270   */\n      0x00\n        /* \"#utility.yul\":17304:17306   */\n      0x20\n        /* \"#utility.yul\":17293:17302   */\n      dup3\n        /* \"#utility.yul\":17289:17307   */\n      add\n        /* \"#utility.yul\":17281:17307   */\n      swap1\n      pop\n        /* \"#utility.yul\":17353:17362   */\n      dup2\n        /* \"#utility.yul\":17347:17351   */\n      dup2\n        /* \"#utility.yul\":17343:17363   */\n      sub\n        /* \"#utility.yul\":17339:17340   */\n      0x00\n        /* \"#utility.yul\":17328:17337   */\n      dup4\n        /* \"#utility.yul\":17324:17341   */\n      add\n        /* \"#utility.yul\":17317:17364   */\n      mstore\n        /* \"#utility.yul\":17381:17512   */\n      tag_319\n        /* \"#utility.yul\":17507:17511   */\n      dup2\n        /* \"#utility.yul\":17381:17512   */\n      tag_142\n      jump\t// in\n    tag_319:\n        /* \"#utility.yul\":17373:17512   */\n      swap1\n      pop\n        /* \"#utility.yul\":17100:17519   */\n      swap2\n      swap1\n      pop\n      jump\t// out\n\n    auxdata: 0xa2646970667358221220904b8070e76d3e18b0b895bb92fc95e1055f4b9c42106f258ee326a529e031e264736f6c63430008110033\n}\n",
				"bytecode": {
					"linkReferences": {},
					"object": "608060405234801561001057600080fd5b5061002d61002261003260201b60201c565b61003a60201b60201c565b6100fe565b600033905090565b60008060009054906101000a900473ffffffffffffffffffffffffffffffffffffffff169050816000806101000a81548173ffffffffffffffffffffffffffffffffffffffff021916908373ffffffffffffffffffffffffffffffffffffffff1602179055508173ffffffffffffffffffffffffffffffffffffffff168173ffffffffffffffffffffffffffffffffffffffff167f8be0079c531659141344cd1fd0a4f28419497f9722a3daafe3b4186f6b6457e060405160405180910390a35050565b6110cd8061010d6000396000f3fe608060405234801561001057600080fd5b50600436106100565760003560e01c80622908ac1461005b578063715018a61461008b57806383403120146100955780638da5cb5b146100c5578063f2fde38b146100e3575b600080fd5b610075600480360381019061007091906109f3565b6100ff565b6040516100829190610a6a565b60405180910390f35b610093610233565b005b6100af60048036038101906100aa9190610a85565b6102bb565b6040516100bc9190610bd3565b60405180910390f35b6100cd610544565b6040516100da9190610c36565b60405180910390f35b6100fd60048036038101906100f89190610c7d565b61056d565b005b6000610109610664565b73ffffffffffffffffffffffffffffffffffffffff16610127610544565b73ffffffffffffffffffffffffffffffffffffffff161461017d576040517f08c379a000000000000000000000000000000000000000000000000000000000815260040161017490610d07565b60405180910390fd5b81600001516001600085815260200190815260200160002060000160000190816101a79190610f33565b5081602001516001600085815260200190815260200160002060000160010190816101d29190610f33565b5081604001516001600085815260200190815260200160002060000160020190816101fd9190610f33565b5081606001516001600085815260200190815260200160002060000160030190816102289190610f33565b506001905092915050565b61023b610664565b73ffffffffffffffffffffffffffffffffffffffff16610259610544565b73ffffffffffffffffffffffffffffffffffffffff16146102af576040517f08c379a00000000000000000000000000000000000000000000000000000000081526004016102a690610d07565b60405180910390fd5b6102b9600061066c565b565b6102c3610730565b600160008381526020019081526020016000206040518060200160405290816000820160405180608001604052908160008201805461030190610d56565b80601f016020809104026020016040519081016040528092919081815260200182805461032d90610d56565b801561037a5780601f1061034f5761010080835404028352916020019161037a565b820191906000526020600020905b81548152906001019060200180831161035d57829003601f168201915b5050505050815260200160018201805461039390610d56565b80601f01602080910402602001604051908101604052809291908181526020018280546103bf90610d56565b801561040c5780601f106103e15761010080835404028352916020019161040c565b820191906000526020600020905b8154815290600101906020018083116103ef57829003601f168201915b5050505050815260200160028201805461042590610d56565b80601f016020809104026020016040519081016040528092919081815260200182805461045190610d56565b801561049e5780601f106104735761010080835404028352916020019161049e565b820191906000526020600020905b81548152906001019060200180831161048157829003601f168201915b505050505081526020016003820180546104b790610d56565b80601f01602080910402602001604051908101604052809291908181526020018280546104e390610d56565b80156105305780601f1061050557610100808354040283529160200191610530565b820191906000526020600020905b81548152906001019060200180831161051357829003601f168201915b505050505081525050815250509050919050565b60008060009054906101000a900473ffffffffffffffffffffffffffffffffffffffff16905090565b610575610664565b73ffffffffffffffffffffffffffffffffffffffff16610593610544565b73ffffffffffffffffffffffffffffffffffffffff16146105e9576040517f08c379a00000000000000000000000000000000000000000000000000000000081526004016105e090610d07565b60405180910390fd5b600073ffffffffffffffffffffffffffffffffffffffff168173ffffffffffffffffffffffffffffffffffffffff1603610658576040517f08c379a000000000000000000000000000000000000000000000000000000000815260040161064f90611077565b60405180910390fd5b6106618161066c565b50565b600033905090565b60008060009054906101000a900473ffffffffffffffffffffffffffffffffffffffff169050816000806101000a81548173ffffffffffffffffffffffffffffffffffffffff021916908373ffffffffffffffffffffffffffffffffffffffff1602179055508173ffffffffffffffffffffffffffffffffffffffff168173ffffffffffffffffffffffffffffffffffffffff167f8be0079c531659141344cd1fd0a4f28419497f9722a3daafe3b4186f6b6457e060405160405180910390a35050565b6040518060200160405280610743610749565b81525090565b6040518060800160405280606081526020016060815260200160608152602001606081525090565b6000604051905090565b600080fd5b600080fd5b6000819050919050565b61079881610785565b81146107a357600080fd5b50565b6000813590506107b58161078f565b92915050565b600080fd5b6000601f19601f8301169050919050565b7f4e487b7100000000000000000000000000000000000000000000000000000000600052604160045260246000fd5b610809826107c0565b810181811067ffffffffffffffff82111715610828576108276107d1565b5b80604052505050565b600061083b610771565b90506108478282610800565b919050565b600080fd5b600080fd5b600080fd5b600067ffffffffffffffff821115610876576108756107d1565b5b61087f826107c0565b9050602081019050919050565b82818337600083830152505050565b60006108ae6108a98461085b565b610831565b9050828152602081018484840111156108ca576108c9610856565b5b6108d584828561088c565b509392505050565b600082601f8301126108f2576108f1610851565b5b813561090284826020860161089b565b91505092915050565b600060808284031215610921576109206107bb565b5b61092b6080610831565b9050600082013567ffffffffffffffff81111561094b5761094a61084c565b5b610957848285016108dd565b600083015250602082013567ffffffffffffffff81111561097b5761097a61084c565b5b610987848285016108dd565b602083015250604082013567ffffffffffffffff8111156109ab576109aa61084c565b5b6109b7848285016108dd565b604083015250606082013567ffffffffffffffff8111156109db576109da61084c565b5b6109e7848285016108dd565b60608301525092915050565b60008060408385031215610a0a57610a0961077b565b5b6000610a18858286016107a6565b925050602083013567ffffffffffffffff811115610a3957610a38610780565b5b610a458582860161090b565b9150509250929050565b60008115159050919050565b610a6481610a4f565b82525050565b6000602082019050610a7f6000830184610a5b565b92915050565b600060208284031215610a9b57610a9a61077b565b5b6000610aa9848285016107a6565b91505092915050565b600081519050919050565b600082825260208201905092915050565b60005b83811015610aec578082015181840152602081019050610ad1565b60008484015250505050565b6000610b0382610ab2565b610b0d8185610abd565b9350610b1d818560208601610ace565b610b26816107c0565b840191505092915050565b60006080830160008301518482036000860152610b4e8282610af8565b91505060208301518482036020860152610b688282610af8565b91505060408301518482036040860152610b828282610af8565b91505060608301518482036060860152610b9c8282610af8565b9150508091505092915050565b60006020830160008301518482036000860152610bc68282610b31565b9150508091505092915050565b60006020820190508181036000830152610bed8184610ba9565b905092915050565b600073ffffffffffffffffffffffffffffffffffffffff82169050919050565b6000610c2082610bf5565b9050919050565b610c3081610c15565b82525050565b6000602082019050610c4b6000830184610c27565b92915050565b610c5a81610c15565b8114610c6557600080fd5b50565b600081359050610c7781610c51565b92915050565b600060208284031215610c9357610c9261077b565b5b6000610ca184828501610c68565b91505092915050565b600082825260208201905092915050565b7f4f776e61626c653a2063616c6c6572206973206e6f7420746865206f776e6572600082015250565b6000610cf1602083610caa565b9150610cfc82610cbb565b602082019050919050565b60006020820190508181036000830152610d2081610ce4565b9050919050565b7f4e487b7100000000000000000000000000000000000000000000000000000000600052602260045260246000fd5b60006002820490506001821680610d6e57607f821691505b602082108103610d8157610d80610d27565b5b50919050565b60008190508160005260206000209050919050565b60006020601f8301049050919050565b600082821b905092915050565b600060088302610de97fffffffffffffffffffffffffffffffffffffffffffffffffffffffffffffffff82610dac565b610df38683610dac565b95508019841693508086168417925050509392505050565b6000819050919050565b6000610e30610e2b610e2684610785565b610e0b565b610785565b9050919050565b6000819050919050565b610e4a83610e15565b610e5e610e5682610e37565b848454610db9565b825550505050565b600090565b610e73610e66565b610e7e818484610e41565b505050565b5b81811015610ea257610e97600082610e6b565b600181019050610e84565b5050565b601f821115610ee757610eb881610d87565b610ec184610d9c565b81016020851015610ed0578190505b610ee4610edc85610d9c565b830182610e83565b50505b505050565b600082821c905092915050565b6000610f0a60001984600802610eec565b1980831691505092915050565b6000610f238383610ef9565b9150826002028217905092915050565b610f3c82610ab2565b67ffffffffffffffff811115610f5557610f546107d1565b5b610f5f8254610d56565b610f6a828285610ea6565b600060209050601f831160018114610f9d5760008415610f8b578287015190505b610f958582610f17565b865550610ffd565b601f198416610fab86610d87565b60005b82811015610fd357848901518255600182019150602085019450602081019050610fae565b86831015610ff05784890151610fec601f891682610ef9565b8355505b6001600288020188555050505b505050505050565b7f4f776e61626c653a206e6577206f776e657220697320746865207a65726f206160008201527f6464726573730000000000000000000000000000000000000000000000000000602082015250565b6000611061602683610caa565b915061106c82611005565b604082019050919050565b6000602082019050818103600083015261109081611054565b905091905056fea2646970667358221220904b8070e76d3e18b0b895bb92fc95e1055f4b9c42106f258ee326a529e031e264736f6c63430008110033",
					"opcodes": "PUSH1 0x80 PUSH1 0x40 MSTORE CALLVALUE DUP1 ISZERO PUSH2 0x10 JUMPI PUSH1 0x0 DUP1 REVERT JUMPDEST POP PUSH2 0x2D PUSH2 0x22 PUSH2 0x32 PUSH1 0x20 SHL PUSH1 0x20 SHR JUMP JUMPDEST PUSH2 0x3A PUSH1 0x20 SHL PUSH1 0x20 SHR JUMP JUMPDEST PUSH2 0xFE JUMP JUMPDEST PUSH1 0x0 CALLER SWAP1 POP SWAP1 JUMP JUMPDEST PUSH1 0x0 DUP1 PUSH1 0x0 SWAP1 SLOAD SWAP1 PUSH2 0x100 EXP SWAP1 DIV PUSH20 0xFFFFFFFFFFFFFFFFFFFFFFFFFFFFFFFFFFFFFFFF AND SWAP1 POP DUP2 PUSH1 0x0 DUP1 PUSH2 0x100 EXP DUP2 SLOAD DUP2 PUSH20 0xFFFFFFFFFFFFFFFFFFFFFFFFFFFFFFFFFFFFFFFF MUL NOT AND SWAP1 DUP4 PUSH20 0xFFFFFFFFFFFFFFFFFFFFFFFFFFFFFFFFFFFFFFFF AND MUL OR SWAP1 SSTORE POP DUP2 PUSH20 0xFFFFFFFFFFFFFFFFFFFFFFFFFFFFFFFFFFFFFFFF AND DUP2 PUSH20 0xFFFFFFFFFFFFFFFFFFFFFFFFFFFFFFFFFFFFFFFF AND PUSH32 0x8BE0079C531659141344CD1FD0A4F28419497F9722A3DAAFE3B4186F6B6457E0 PUSH1 0x40 MLOAD PUSH1 0x40 MLOAD DUP1 SWAP2 SUB SWAP1 LOG3 POP POP JUMP JUMPDEST PUSH2 0x10CD DUP1 PUSH2 0x10D PUSH1 0x0 CODECOPY PUSH1 0x0 RETURN INVALID PUSH1 0x80 PUSH1 0x40 MSTORE CALLVALUE DUP1 ISZERO PUSH2 0x10 JUMPI PUSH1 0x0 DUP1 REVERT JUMPDEST POP PUSH1 0x4 CALLDATASIZE LT PUSH2 0x56 JUMPI PUSH1 0x0 CALLDATALOAD PUSH1 0xE0 SHR DUP1 PUSH3 0x2908AC EQ PUSH2 0x5B JUMPI DUP1 PUSH4 0x715018A6 EQ PUSH2 0x8B JUMPI DUP1 PUSH4 0x83403120 EQ PUSH2 0x95 JUMPI DUP1 PUSH4 0x8DA5CB5B EQ PUSH2 0xC5 JUMPI DUP1 PUSH4 0xF2FDE38B EQ PUSH2 0xE3 JUMPI JUMPDEST PUSH1 0x0 DUP1 REVERT JUMPDEST PUSH2 0x75 PUSH1 0x4 DUP1 CALLDATASIZE SUB DUP2 ADD SWAP1 PUSH2 0x70 SWAP2 SWAP1 PUSH2 0x9F3 JUMP JUMPDEST PUSH2 0xFF JUMP JUMPDEST PUSH1 0x40 MLOAD PUSH2 0x82 SWAP2 SWAP1 PUSH2 0xA6A JUMP JUMPDEST PUSH1 0x40 MLOAD DUP1 SWAP2 SUB SWAP1 RETURN JUMPDEST PUSH2 0x93 PUSH2 0x233 JUMP JUMPDEST STOP JUMPDEST PUSH2 0xAF PUSH1 0x4 DUP1 CALLDATASIZE SUB DUP2 ADD SWAP1 PUSH2 0xAA SWAP2 SWAP1 PUSH2 0xA85 JUMP JUMPDEST PUSH2 0x2BB JUMP JUMPDEST PUSH1 0x40 MLOAD PUSH2 0xBC SWAP2 SWAP1 PUSH2 0xBD3 JUMP JUMPDEST PUSH1 0x40 MLOAD DUP1 SWAP2 SUB SWAP1 RETURN JUMPDEST PUSH2 0xCD PUSH2 0x544 JUMP JUMPDEST PUSH1 0x40 MLOAD PUSH2 0xDA SWAP2 SWAP1 PUSH2 0xC36 JUMP JUMPDEST PUSH1 0x40 MLOAD DUP1 SWAP2 SUB SWAP1 RETURN JUMPDEST PUSH2 0xFD PUSH1 0x4 DUP1 CALLDATASIZE SUB DUP2 ADD SWAP1 PUSH2 0xF8 SWAP2 SWAP1 PUSH2 0xC7D JUMP JUMPDEST PUSH2 0x56D JUMP JUMPDEST STOP JUMPDEST PUSH1 0x0 PUSH2 0x109 PUSH2 0x664 JUMP JUMPDEST PUSH20 0xFFFFFFFFFFFFFFFFFFFFFFFFFFFFFFFFFFFFFFFF AND PUSH2 0x127 PUSH2 0x544 JUMP JUMPDEST PUSH20 0xFFFFFFFFFFFFFFFFFFFFFFFFFFFFFFFFFFFFFFFF AND EQ PUSH2 0x17D JUMPI PUSH1 0x40 MLOAD PUSH32 0x8C379A000000000000000000000000000000000000000000000000000000000 DUP2 MSTORE PUSH1 0x4 ADD PUSH2 0x174 SWAP1 PUSH2 0xD07 JUMP JUMPDEST PUSH1 0x40 MLOAD DUP1 SWAP2 SUB SWAP1 REVERT JUMPDEST DUP2 PUSH1 0x0 ADD MLOAD PUSH1 0x1 PUSH1 0x0 DUP6 DUP2 MSTORE PUSH1 0x20 ADD SWAP1 DUP2 MSTORE PUSH1 0x20 ADD PUSH1 0x0 KECCAK256 PUSH1 0x0 ADD PUSH1 0x0 ADD SWAP1 DUP2 PUSH2 0x1A7 SWAP2 SWAP1 PUSH2 0xF33 JUMP JUMPDEST POP DUP2 PUSH1 0x20 ADD MLOAD PUSH1 0x1 PUSH1 0x0 DUP6 DUP2 MSTORE PUSH1 0x20 ADD SWAP1 DUP2 MSTORE PUSH1 0x20 ADD PUSH1 0x0 KECCAK256 PUSH1 0x0 ADD PUSH1 0x1 ADD SWAP1 DUP2 PUSH2 0x1D2 SWAP2 SWAP1 PUSH2 0xF33 JUMP JUMPDEST POP DUP2 PUSH1 0x40 ADD MLOAD PUSH1 0x1 PUSH1 0x0 DUP6 DUP2 MSTORE PUSH1 0x20 ADD SWAP1 DUP2 MSTORE PUSH1 0x20 ADD PUSH1 0x0 KECCAK256 PUSH1 0x0 ADD PUSH1 0x2 ADD SWAP1 DUP2 PUSH2 0x1FD SWAP2 SWAP1 PUSH2 0xF33 JUMP JUMPDEST POP DUP2 PUSH1 0x60 ADD MLOAD PUSH1 0x1 PUSH1 0x0 DUP6 DUP2 MSTORE PUSH1 0x20 ADD SWAP1 DUP2 MSTORE PUSH1 0x20 ADD PUSH1 0x0 KECCAK256 PUSH1 0x0 ADD PUSH1 0x3 ADD SWAP1 DUP2 PUSH2 0x228 SWAP2 SWAP1 PUSH2 0xF33 JUMP JUMPDEST POP PUSH1 0x1 SWAP1 POP SWAP3 SWAP2 POP POP JUMP JUMPDEST PUSH2 0x23B PUSH2 0x664 JUMP JUMPDEST PUSH20 0xFFFFFFFFFFFFFFFFFFFFFFFFFFFFFFFFFFFFFFFF AND PUSH2 0x259 PUSH2 0x544 JUMP JUMPDEST PUSH20 0xFFFFFFFFFFFFFFFFFFFFFFFFFFFFFFFFFFFFFFFF AND EQ PUSH2 0x2AF JUMPI PUSH1 0x40 MLOAD PUSH32 0x8C379A000000000000000000000000000000000000000000000000000000000 DUP2 MSTORE PUSH1 0x4 ADD PUSH2 0x2A6 SWAP1 PUSH2 0xD07 JUMP JUMPDEST PUSH1 0x40 MLOAD DUP1 SWAP2 SUB SWAP1 REVERT JUMPDEST PUSH2 0x2B9 PUSH1 0x0 PUSH2 0x66C JUMP JUMPDEST JUMP JUMPDEST PUSH2 0x2C3 PUSH2 0x730 JUMP JUMPDEST PUSH1 0x1 PUSH1 0x0 DUP4 DUP2 MSTORE PUSH1 0x20 ADD SWAP1 DUP2 MSTORE PUSH1 0x20 ADD PUSH1 0x0 KECCAK256 PUSH1 0x40 MLOAD DUP1 PUSH1 0x20 ADD PUSH1 0x40 MSTORE SWAP1 DUP2 PUSH1 0x0 DUP3 ADD PUSH1 0x40 MLOAD DUP1 PUSH1 0x80 ADD PUSH1 0x40 MSTORE SWAP1 DUP2 PUSH1 0x0 DUP3 ADD DUP1 SLOAD PUSH2 0x301 SWAP1 PUSH2 0xD56 JUMP JUMPDEST DUP1 PUSH1 0x1F ADD PUSH1 0x20 DUP1 SWAP2 DIV MUL PUSH1 0x20 ADD PUSH1 0x40 MLOAD SWAP1 DUP2 ADD PUSH1 0x40 MSTORE DUP1 SWAP3 SWAP2 SWAP1 DUP2 DUP2 MSTORE PUSH1 0x20 ADD DUP3 DUP1 SLOAD PUSH2 0x32D SWAP1 PUSH2 0xD56 JUMP JUMPDEST DUP1 ISZERO PUSH2 0x37A JUMPI DUP1 PUSH1 0x1F LT PUSH2 0x34F JUMPI PUSH2 0x100 DUP1 DUP4 SLOAD DIV MUL DUP4 MSTORE SWAP2 PUSH1 0x20 ADD SWAP2 PUSH2 0x37A JUMP JUMPDEST DUP3 ADD SWAP2 SWAP1 PUSH1 0x0 MSTORE PUSH1 0x20 PUSH1 0x0 KECCAK256 SWAP1 JUMPDEST DUP2 SLOAD DUP2 MSTORE SWAP1 PUSH1 0x1 ADD SWAP1 PUSH1 0x20 ADD DUP1 DUP4 GT PUSH2 0x35D JUMPI DUP3 SWAP1 SUB PUSH1 0x1F AND DUP3 ADD SWAP2 JUMPDEST POP POP POP POP POP DUP2 MSTORE PUSH1 0x20 ADD PUSH1 0x1 DUP3 ADD DUP1 SLOAD PUSH2 0x393 SWAP1 PUSH2 0xD56 JUMP JUMPDEST DUP1 PUSH1 0x1F ADD PUSH1 0x20 DUP1 SWAP2 DIV MUL PUSH1 0x20 ADD PUSH1 0x40 MLOAD SWAP1 DUP2 ADD PUSH1 0x40 MSTORE DUP1 SWAP3 SWAP2 SWAP1 DUP2 DUP2 MSTORE PUSH1 0x20 ADD DUP3 DUP1 SLOAD PUSH2 0x3BF SWAP1 PUSH2 0xD56 JUMP JUMPDEST DUP1 ISZERO PUSH2 0x40C JUMPI DUP1 PUSH1 0x1F LT PUSH2 0x3E1 JUMPI PUSH2 0x100 DUP1 DUP4 SLOAD DIV MUL DUP4 MSTORE SWAP2 PUSH1 0x20 ADD SWAP2 PUSH2 0x40C JUMP JUMPDEST DUP3 ADD SWAP2 SWAP1 PUSH1 0x0 MSTORE PUSH1 0x20 PUSH1 0x0 KECCAK256 SWAP1 JUMPDEST DUP2 SLOAD DUP2 MSTORE SWAP1 PUSH1 0x1 ADD SWAP1 PUSH1 0x20 ADD DUP1 DUP4 GT PUSH2 0x3EF JUMPI DUP3 SWAP1 SUB PUSH1 0x1F AND DUP3 ADD SWAP2 JUMPDEST POP POP POP POP POP DUP2 MSTORE PUSH1 0x20 ADD PUSH1 0x2 DUP3 ADD DUP1 SLOAD PUSH2 0x425 SWAP1 PUSH2 0xD56 JUMP JUMPDEST DUP1 PUSH1 0x1F ADD PUSH1 0x20 DUP1 SWAP2 DIV MUL PUSH1 0x20 ADD PUSH1 0x40 MLOAD SWAP1 DUP2 ADD PUSH1 0x40 MSTORE DUP1 SWAP3 SWAP2 SWAP1 DUP2 DUP2 MSTORE PUSH1 0x20 ADD DUP3 DUP1 SLOAD PUSH2 0x451 SWAP1 PUSH2 0xD56 JUMP JUMPDEST DUP1 ISZERO PUSH2 0x49E JUMPI DUP1 PUSH1 0x1F LT PUSH2 0x473 JUMPI PUSH2 0x100 DUP1 DUP4 SLOAD DIV MUL DUP4 MSTORE SWAP2 PUSH1 0x20 ADD SWAP2 PUSH2 0x49E JUMP JUMPDEST DUP3 ADD SWAP2 SWAP1 PUSH1 0x0 MSTORE PUSH1 0x20 PUSH1 0x0 KECCAK256 SWAP1 JUMPDEST DUP2 SLOAD DUP2 MSTORE SWAP1 PUSH1 0x1 ADD SWAP1 PUSH1 0x20 ADD DUP1 DUP4 GT PUSH2 0x481 JUMPI DUP3 SWAP1 SUB PUSH1 0x1F AND DUP3 ADD SWAP2 JUMPDEST POP POP POP POP POP DUP2 MSTORE PUSH1 0x20 ADD PUSH1 0x3 DUP3 ADD DUP1 SLOAD PUSH2 0x4B7 SWAP1 PUSH2 0xD56 JUMP JUMPDEST DUP1 PUSH1 0x1F ADD PUSH1 0x20 DUP1 SWAP2 DIV MUL PUSH1 0x20 ADD PUSH1 0x40 MLOAD SWAP1 DUP2 ADD PUSH1 0x40 MSTORE DUP1 SWAP3 SWAP2 SWAP1 DUP2 DUP2 MSTORE PUSH1 0x20 ADD DUP3 DUP1 SLOAD PUSH2 0x4E3 SWAP1 PUSH2 0xD56 JUMP JUMPDEST DUP1 ISZERO PUSH2 0x530 JUMPI DUP1 PUSH1 0x1F LT PUSH2 0x505 JUMPI PUSH2 0x100 DUP1 DUP4 SLOAD DIV MUL DUP4 MSTORE SWAP2 PUSH1 0x20 ADD SWAP2 PUSH2 0x530 JUMP JUMPDEST DUP3 ADD SWAP2 SWAP1 PUSH1 0x0 MSTORE PUSH1 0x20 PUSH1 0x0 KECCAK256 SWAP1 JUMPDEST DUP2 SLOAD DUP2 MSTORE SWAP1 PUSH1 0x1 ADD SWAP1 PUSH1 0x20 ADD DUP1 DUP4 GT PUSH2 0x513 JUMPI DUP3 SWAP1 SUB PUSH1 0x1F AND DUP3 ADD SWAP2 JUMPDEST POP POP POP POP POP DUP2 MSTORE POP POP DUP2 MSTORE POP POP SWAP1 POP SWAP2 SWAP1 POP JUMP JUMPDEST PUSH1 0x0 DUP1 PUSH1 0x0 SWAP1 SLOAD SWAP1 PUSH2 0x100 EXP SWAP1 DIV PUSH20 0xFFFFFFFFFFFFFFFFFFFFFFFFFFFFFFFFFFFFFFFF AND SWAP1 POP SWAP1 JUMP JUMPDEST PUSH2 0x575 PUSH2 0x664 JUMP JUMPDEST PUSH20 0xFFFFFFFFFFFFFFFFFFFFFFFFFFFFFFFFFFFFFFFF AND PUSH2 0x593 PUSH2 0x544 JUMP JUMPDEST PUSH20 0xFFFFFFFFFFFFFFFFFFFFFFFFFFFFFFFFFFFFFFFF AND EQ PUSH2 0x5E9 JUMPI PUSH1 0x40 MLOAD PUSH32 0x8C379A000000000000000000000000000000000000000000000000000000000 DUP2 MSTORE PUSH1 0x4 ADD PUSH2 0x5E0 SWAP1 PUSH2 0xD07 JUMP JUMPDEST PUSH1 0x40 MLOAD DUP1 SWAP2 SUB SWAP1 REVERT JUMPDEST PUSH1 0x0 PUSH20 0xFFFFFFFFFFFFFFFFFFFFFFFFFFFFFFFFFFFFFFFF AND DUP2 PUSH20 0xFFFFFFFFFFFFFFFFFFFFFFFFFFFFFFFFFFFFFFFF AND SUB PUSH2 0x658 JUMPI PUSH1 0x40 MLOAD PUSH32 0x8C379A000000000000000000000000000000000000000000000000000000000 DUP2 MSTORE PUSH1 0x4 ADD PUSH2 0x64F SWAP1 PUSH2 0x1077 JUMP JUMPDEST PUSH1 0x40 MLOAD DUP1 SWAP2 SUB SWAP1 REVERT JUMPDEST PUSH2 0x661 DUP2 PUSH2 0x66C JUMP JUMPDEST POP JUMP JUMPDEST PUSH1 0x0 CALLER SWAP1 POP SWAP1 JUMP JUMPDEST PUSH1 0x0 DUP1 PUSH1 0x0 SWAP1 SLOAD SWAP1 PUSH2 0x100 EXP SWAP1 DIV PUSH20 0xFFFFFFFFFFFFFFFFFFFFFFFFFFFFFFFFFFFFFFFF AND SWAP1 POP DUP2 PUSH1 0x0 DUP1 PUSH2 0x100 EXP DUP2 SLOAD DUP2 PUSH20 0xFFFFFFFFFFFFFFFFFFFFFFFFFFFFFFFFFFFFFFFF MUL NOT AND SWAP1 DUP4 PUSH20 0xFFFFFFFFFFFFFFFFFFFFFFFFFFFFFFFFFFFFFFFF AND MUL OR SWAP1 SSTORE POP DUP2 PUSH20 0xFFFFFFFFFFFFFFFFFFFFFFFFFFFFFFFFFFFFFFFF AND DUP2 PUSH20 0xFFFFFFFFFFFFFFFFFFFFFFFFFFFFFFFFFFFFFFFF AND PUSH32 0x8BE0079C531659141344CD1FD0A4F28419497F9722A3DAAFE3B4186F6B6457E0 PUSH1 0x40 MLOAD PUSH1 0x40 MLOAD DUP1 SWAP2 SUB SWAP1 LOG3 POP POP JUMP JUMPDEST PUSH1 0x40 MLOAD DUP1 PUSH1 0x20 ADD PUSH1 0x40 MSTORE DUP1 PUSH2 0x743 PUSH2 0x749 JUMP JUMPDEST DUP2 MSTORE POP SWAP1 JUMP JUMPDEST PUSH1 0x40 MLOAD DUP1 PUSH1 0x80 ADD PUSH1 0x40 MSTORE DUP1 PUSH1 0x60 DUP2 MSTORE PUSH1 0x20 ADD PUSH1 0x60 DUP2 MSTORE PUSH1 0x20 ADD PUSH1 0x60 DUP2 MSTORE PUSH1 0x20 ADD PUSH1 0x60 DUP2 MSTORE POP SWAP1 JUMP JUMPDEST PUSH1 0x0 PUSH1 0x40 MLOAD SWAP1 POP SWAP1 JUMP JUMPDEST PUSH1 0x0 DUP1 REVERT JUMPDEST PUSH1 0x0 DUP1 REVERT JUMPDEST PUSH1 0x0 DUP2 SWAP1 POP SWAP2 SWAP1 POP JUMP JUMPDEST PUSH2 0x798 DUP2 PUSH2 0x785 JUMP JUMPDEST DUP2 EQ PUSH2 0x7A3 JUMPI PUSH1 0x0 DUP1 REVERT JUMPDEST POP JUMP JUMPDEST PUSH1 0x0 DUP2 CALLDATALOAD SWAP1 POP PUSH2 0x7B5 DUP2 PUSH2 0x78F JUMP JUMPDEST SWAP3 SWAP2 POP POP JUMP JUMPDEST PUSH1 0x0 DUP1 REVERT JUMPDEST PUSH1 0x0 PUSH1 0x1F NOT PUSH1 0x1F DUP4 ADD AND SWAP1 POP SWAP2 SWAP1 POP JUMP JUMPDEST PUSH32 0x4E487B7100000000000000000000000000000000000000000000000000000000 PUSH1 0x0 MSTORE PUSH1 0x41 PUSH1 0x4 MSTORE PUSH1 0x24 PUSH1 0x0 REVERT JUMPDEST PUSH2 0x809 DUP3 PUSH2 0x7C0 JUMP JUMPDEST DUP2 ADD DUP2 DUP2 LT PUSH8 0xFFFFFFFFFFFFFFFF DUP3 GT OR ISZERO PUSH2 0x828 JUMPI PUSH2 0x827 PUSH2 0x7D1 JUMP JUMPDEST JUMPDEST DUP1 PUSH1 0x40 MSTORE POP POP POP JUMP JUMPDEST PUSH1 0x0 PUSH2 0x83B PUSH2 0x771 JUMP JUMPDEST SWAP1 POP PUSH2 0x847 DUP3 DUP3 PUSH2 0x800 JUMP JUMPDEST SWAP2 SWAP1 POP JUMP JUMPDEST PUSH1 0x0 DUP1 REVERT JUMPDEST PUSH1 0x0 DUP1 REVERT JUMPDEST PUSH1 0x0 DUP1 REVERT JUMPDEST PUSH1 0x0 PUSH8 0xFFFFFFFFFFFFFFFF DUP3 GT ISZERO PUSH2 0x876 JUMPI PUSH2 0x875 PUSH2 0x7D1 JUMP JUMPDEST JUMPDEST PUSH2 0x87F DUP3 PUSH2 0x7C0 JUMP JUMPDEST SWAP1 POP PUSH1 0x20 DUP2 ADD SWAP1 POP SWAP2 SWAP1 POP JUMP JUMPDEST DUP3 DUP2 DUP4 CALLDATACOPY PUSH1 0x0 DUP4 DUP4 ADD MSTORE POP POP POP JUMP JUMPDEST PUSH1 0x0 PUSH2 0x8AE PUSH2 0x8A9 DUP5 PUSH2 0x85B JUMP JUMPDEST PUSH2 0x831 JUMP JUMPDEST SWAP1 POP DUP3 DUP2 MSTORE PUSH1 0x20 DUP2 ADD DUP5 DUP5 DUP5 ADD GT ISZERO PUSH2 0x8CA JUMPI PUSH2 0x8C9 PUSH2 0x856 JUMP JUMPDEST JUMPDEST PUSH2 0x8D5 DUP5 DUP3 DUP6 PUSH2 0x88C JUMP JUMPDEST POP SWAP4 SWAP3 POP POP POP JUMP JUMPDEST PUSH1 0x0 DUP3 PUSH1 0x1F DUP4 ADD SLT PUSH2 0x8F2 JUMPI PUSH2 0x8F1 PUSH2 0x851 JUMP JUMPDEST JUMPDEST DUP2 CALLDATALOAD PUSH2 0x902 DUP5 DUP3 PUSH1 0x20 DUP7 ADD PUSH2 0x89B JUMP JUMPDEST SWAP2 POP POP SWAP3 SWAP2 POP POP JUMP JUMPDEST PUSH1 0x0 PUSH1 0x80 DUP3 DUP5 SUB SLT ISZERO PUSH2 0x921 JUMPI PUSH2 0x920 PUSH2 0x7BB JUMP JUMPDEST JUMPDEST PUSH2 0x92B PUSH1 0x80 PUSH2 0x831 JUMP JUMPDEST SWAP1 POP PUSH1 0x0 DUP3 ADD CALLDATALOAD PUSH8 0xFFFFFFFFFFFFFFFF DUP2 GT ISZERO PUSH2 0x94B JUMPI PUSH2 0x94A PUSH2 0x84C JUMP JUMPDEST JUMPDEST PUSH2 0x957 DUP5 DUP3 DUP6 ADD PUSH2 0x8DD JUMP JUMPDEST PUSH1 0x0 DUP4 ADD MSTORE POP PUSH1 0x20 DUP3 ADD CALLDATALOAD PUSH8 0xFFFFFFFFFFFFFFFF DUP2 GT ISZERO PUSH2 0x97B JUMPI PUSH2 0x97A PUSH2 0x84C JUMP JUMPDEST JUMPDEST PUSH2 0x987 DUP5 DUP3 DUP6 ADD PUSH2 0x8DD JUMP JUMPDEST PUSH1 0x20 DUP4 ADD MSTORE POP PUSH1 0x40 DUP3 ADD CALLDATALOAD PUSH8 0xFFFFFFFFFFFFFFFF DUP2 GT ISZERO PUSH2 0x9AB JUMPI PUSH2 0x9AA PUSH2 0x84C JUMP JUMPDEST JUMPDEST PUSH2 0x9B7 DUP5 DUP3 DUP6 ADD PUSH2 0x8DD JUMP JUMPDEST PUSH1 0x40 DUP4 ADD MSTORE POP PUSH1 0x60 DUP3 ADD CALLDATALOAD PUSH8 0xFFFFFFFFFFFFFFFF DUP2 GT ISZERO PUSH2 0x9DB JUMPI PUSH2 0x9DA PUSH2 0x84C JUMP JUMPDEST JUMPDEST PUSH2 0x9E7 DUP5 DUP3 DUP6 ADD PUSH2 0x8DD JUMP JUMPDEST PUSH1 0x60 DUP4 ADD MSTORE POP SWAP3 SWAP2 POP POP JUMP JUMPDEST PUSH1 0x0 DUP1 PUSH1 0x40 DUP4 DUP6 SUB SLT ISZERO PUSH2 0xA0A JUMPI PUSH2 0xA09 PUSH2 0x77B JUMP JUMPDEST JUMPDEST PUSH1 0x0 PUSH2 0xA18 DUP6 DUP3 DUP7 ADD PUSH2 0x7A6 JUMP JUMPDEST SWAP3 POP POP PUSH1 0x20 DUP4 ADD CALLDATALOAD PUSH8 0xFFFFFFFFFFFFFFFF DUP2 GT ISZERO PUSH2 0xA39 JUMPI PUSH2 0xA38 PUSH2 0x780 JUMP JUMPDEST JUMPDEST PUSH2 0xA45 DUP6 DUP3 DUP7 ADD PUSH2 0x90B JUMP JUMPDEST SWAP2 POP POP SWAP3 POP SWAP3 SWAP1 POP JUMP JUMPDEST PUSH1 0x0 DUP2 ISZERO ISZERO SWAP1 POP SWAP2 SWAP1 POP JUMP JUMPDEST PUSH2 0xA64 DUP2 PUSH2 0xA4F JUMP JUMPDEST DUP3 MSTORE POP POP JUMP JUMPDEST PUSH1 0x0 PUSH1 0x20 DUP3 ADD SWAP1 POP PUSH2 0xA7F PUSH1 0x0 DUP4 ADD DUP5 PUSH2 0xA5B JUMP JUMPDEST SWAP3 SWAP2 POP POP JUMP JUMPDEST PUSH1 0x0 PUSH1 0x20 DUP3 DUP5 SUB SLT ISZERO PUSH2 0xA9B JUMPI PUSH2 0xA9A PUSH2 0x77B JUMP JUMPDEST JUMPDEST PUSH1 0x0 PUSH2 0xAA9 DUP5 DUP3 DUP6 ADD PUSH2 0x7A6 JUMP JUMPDEST SWAP2 POP POP SWAP3 SWAP2 POP POP JUMP JUMPDEST PUSH1 0x0 DUP2 MLOAD SWAP1 POP SWAP2 SWAP1 POP JUMP JUMPDEST PUSH1 0x0 DUP3 DUP3 MSTORE PUSH1 0x20 DUP3 ADD SWAP1 POP SWAP3 SWAP2 POP POP JUMP JUMPDEST PUSH1 0x0 JUMPDEST DUP4 DUP2 LT ISZERO PUSH2 0xAEC JUMPI DUP1 DUP3 ADD MLOAD DUP2 DUP5 ADD MSTORE PUSH1 0x20 DUP2 ADD SWAP1 POP PUSH2 0xAD1 JUMP JUMPDEST PUSH1 0x0 DUP5 DUP5 ADD MSTORE POP POP POP POP JUMP JUMPDEST PUSH1 0x0 PUSH2 0xB03 DUP3 PUSH2 0xAB2 JUMP JUMPDEST PUSH2 0xB0D DUP2 DUP6 PUSH2 0xABD JUMP JUMPDEST SWAP4 POP PUSH2 0xB1D DUP2 DUP6 PUSH1 0x20 DUP7 ADD PUSH2 0xACE JUMP JUMPDEST PUSH2 0xB26 DUP2 PUSH2 0x7C0 JUMP JUMPDEST DUP5 ADD SWAP2 POP POP SWAP3 SWAP2 POP POP JUMP JUMPDEST PUSH1 0x0 PUSH1 0x80 DUP4 ADD PUSH1 0x0 DUP4 ADD MLOAD DUP5 DUP3 SUB PUSH1 0x0 DUP7 ADD MSTORE PUSH2 0xB4E DUP3 DUP3 PUSH2 0xAF8 JUMP JUMPDEST SWAP2 POP POP PUSH1 0x20 DUP4 ADD MLOAD DUP5 DUP3 SUB PUSH1 0x20 DUP7 ADD MSTORE PUSH2 0xB68 DUP3 DUP3 PUSH2 0xAF8 JUMP JUMPDEST SWAP2 POP POP PUSH1 0x40 DUP4 ADD MLOAD DUP5 DUP3 SUB PUSH1 0x40 DUP7 ADD MSTORE PUSH2 0xB82 DUP3 DUP3 PUSH2 0xAF8 JUMP JUMPDEST SWAP2 POP POP PUSH1 0x60 DUP4 ADD MLOAD DUP5 DUP3 SUB PUSH1 0x60 DUP7 ADD MSTORE PUSH2 0xB9C DUP3 DUP3 PUSH2 0xAF8 JUMP JUMPDEST SWAP2 POP POP DUP1 SWAP2 POP POP SWAP3 SWAP2 POP POP JUMP JUMPDEST PUSH1 0x0 PUSH1 0x20 DUP4 ADD PUSH1 0x0 DUP4 ADD MLOAD DUP5 DUP3 SUB PUSH1 0x0 DUP7 ADD MSTORE PUSH2 0xBC6 DUP3 DUP3 PUSH2 0xB31 JUMP JUMPDEST SWAP2 POP POP DUP1 SWAP2 POP POP SWAP3 SWAP2 POP POP JUMP JUMPDEST PUSH1 0x0 PUSH1 0x20 DUP3 ADD SWAP1 POP DUP2 DUP2 SUB PUSH1 0x0 DUP4 ADD MSTORE PUSH2 0xBED DUP2 DUP5 PUSH2 0xBA9 JUMP JUMPDEST SWAP1 POP SWAP3 SWAP2 POP POP JUMP JUMPDEST PUSH1 0x0 PUSH20 0xFFFFFFFFFFFFFFFFFFFFFFFFFFFFFFFFFFFFFFFF DUP3 AND SWAP1 POP SWAP2 SWAP1 POP JUMP JUMPDEST PUSH1 0x0 PUSH2 0xC20 DUP3 PUSH2 0xBF5 JUMP JUMPDEST SWAP1 POP SWAP2 SWAP1 POP JUMP JUMPDEST PUSH2 0xC30 DUP2 PUSH2 0xC15 JUMP JUMPDEST DUP3 MSTORE POP POP JUMP JUMPDEST PUSH1 0x0 PUSH1 0x20 DUP3 ADD SWAP1 POP PUSH2 0xC4B PUSH1 0x0 DUP4 ADD DUP5 PUSH2 0xC27 JUMP JUMPDEST SWAP3 SWAP2 POP POP JUMP JUMPDEST PUSH2 0xC5A DUP2 PUSH2 0xC15 JUMP JUMPDEST DUP2 EQ PUSH2 0xC65 JUMPI PUSH1 0x0 DUP1 REVERT JUMPDEST POP JUMP JUMPDEST PUSH1 0x0 DUP2 CALLDATALOAD SWAP1 POP PUSH2 0xC77 DUP2 PUSH2 0xC51 JUMP JUMPDEST SWAP3 SWAP2 POP POP JUMP JUMPDEST PUSH1 0x0 PUSH1 0x20 DUP3 DUP5 SUB SLT ISZERO PUSH2 0xC93 JUMPI PUSH2 0xC92 PUSH2 0x77B JUMP JUMPDEST JUMPDEST PUSH1 0x0 PUSH2 0xCA1 DUP5 DUP3 DUP6 ADD PUSH2 0xC68 JUMP JUMPDEST SWAP2 POP POP SWAP3 SWAP2 POP POP JUMP JUMPDEST PUSH1 0x0 DUP3 DUP3 MSTORE PUSH1 0x20 DUP3 ADD SWAP1 POP SWAP3 SWAP2 POP POP JUMP JUMPDEST PUSH32 0x4F776E61626C653A2063616C6C6572206973206E6F7420746865206F776E6572 PUSH1 0x0 DUP3 ADD MSTORE POP JUMP JUMPDEST PUSH1 0x0 PUSH2 0xCF1 PUSH1 0x20 DUP4 PUSH2 0xCAA JUMP JUMPDEST SWAP2 POP PUSH2 0xCFC DUP3 PUSH2 0xCBB JUMP JUMPDEST PUSH1 0x20 DUP3 ADD SWAP1 POP SWAP2 SWAP1 POP JUMP JUMPDEST PUSH1 0x0 PUSH1 0x20 DUP3 ADD SWAP1 POP DUP2 DUP2 SUB PUSH1 0x0 DUP4 ADD MSTORE PUSH2 0xD20 DUP2 PUSH2 0xCE4 JUMP JUMPDEST SWAP1 POP SWAP2 SWAP1 POP JUMP JUMPDEST PUSH32 0x4E487B7100000000000000000000000000000000000000000000000000000000 PUSH1 0x0 MSTORE PUSH1 0x22 PUSH1 0x4 MSTORE PUSH1 0x24 PUSH1 0x0 REVERT JUMPDEST PUSH1 0x0 PUSH1 0x2 DUP3 DIV SWAP1 POP PUSH1 0x1 DUP3 AND DUP1 PUSH2 0xD6E JUMPI PUSH1 0x7F DUP3 AND SWAP2 POP JUMPDEST PUSH1 0x20 DUP3 LT DUP2 SUB PUSH2 0xD81 JUMPI PUSH2 0xD80 PUSH2 0xD27 JUMP JUMPDEST JUMPDEST POP SWAP2 SWAP1 POP JUMP JUMPDEST PUSH1 0x0 DUP2 SWAP1 POP DUP2 PUSH1 0x0 MSTORE PUSH1 0x20 PUSH1 0x0 KECCAK256 SWAP1 POP SWAP2 SWAP1 POP JUMP JUMPDEST PUSH1 0x0 PUSH1 0x20 PUSH1 0x1F DUP4 ADD DIV SWAP1 POP SWAP2 SWAP1 POP JUMP JUMPDEST PUSH1 0x0 DUP3 DUP3 SHL SWAP1 POP SWAP3 SWAP2 POP POP JUMP JUMPDEST PUSH1 0x0 PUSH1 0x8 DUP4 MUL PUSH2 0xDE9 PUSH32 0xFFFFFFFFFFFFFFFFFFFFFFFFFFFFFFFFFFFFFFFFFFFFFFFFFFFFFFFFFFFFFFFF DUP3 PUSH2 0xDAC JUMP JUMPDEST PUSH2 0xDF3 DUP7 DUP4 PUSH2 0xDAC JUMP JUMPDEST SWAP6 POP DUP1 NOT DUP5 AND SWAP4 POP DUP1 DUP7 AND DUP5 OR SWAP3 POP POP POP SWAP4 SWAP3 POP POP POP JUMP JUMPDEST PUSH1 0x0 DUP2 SWAP1 POP SWAP2 SWAP1 POP JUMP JUMPDEST PUSH1 0x0 PUSH2 0xE30 PUSH2 0xE2B PUSH2 0xE26 DUP5 PUSH2 0x785 JUMP JUMPDEST PUSH2 0xE0B JUMP JUMPDEST PUSH2 0x785 JUMP JUMPDEST SWAP1 POP SWAP2 SWAP1 POP JUMP JUMPDEST PUSH1 0x0 DUP2 SWAP1 POP SWAP2 SWAP1 POP JUMP JUMPDEST PUSH2 0xE4A DUP4 PUSH2 0xE15 JUMP JUMPDEST PUSH2 0xE5E PUSH2 0xE56 DUP3 PUSH2 0xE37 JUMP JUMPDEST DUP5 DUP5 SLOAD PUSH2 0xDB9 JUMP JUMPDEST DUP3 SSTORE POP POP POP POP JUMP JUMPDEST PUSH1 0x0 SWAP1 JUMP JUMPDEST PUSH2 0xE73 PUSH2 0xE66 JUMP JUMPDEST PUSH2 0xE7E DUP2 DUP5 DUP5 PUSH2 0xE41 JUMP JUMPDEST POP POP POP JUMP JUMPDEST JUMPDEST DUP2 DUP2 LT ISZERO PUSH2 0xEA2 JUMPI PUSH2 0xE97 PUSH1 0x0 DUP3 PUSH2 0xE6B JUMP JUMPDEST PUSH1 0x1 DUP2 ADD SWAP1 POP PUSH2 0xE84 JUMP JUMPDEST POP POP JUMP JUMPDEST PUSH1 0x1F DUP3 GT ISZERO PUSH2 0xEE7 JUMPI PUSH2 0xEB8 DUP2 PUSH2 0xD87 JUMP JUMPDEST PUSH2 0xEC1 DUP5 PUSH2 0xD9C JUMP JUMPDEST DUP2 ADD PUSH1 0x20 DUP6 LT ISZERO PUSH2 0xED0 JUMPI DUP2 SWAP1 POP JUMPDEST PUSH2 0xEE4 PUSH2 0xEDC DUP6 PUSH2 0xD9C JUMP JUMPDEST DUP4 ADD DUP3 PUSH2 0xE83 JUMP JUMPDEST POP POP JUMPDEST POP POP POP JUMP JUMPDEST PUSH1 0x0 DUP3 DUP3 SHR SWAP1 POP SWAP3 SWAP2 POP POP JUMP JUMPDEST PUSH1 0x0 PUSH2 0xF0A PUSH1 0x0 NOT DUP5 PUSH1 0x8 MUL PUSH2 0xEEC JUMP JUMPDEST NOT DUP1 DUP4 AND SWAP2 POP POP SWAP3 SWAP2 POP POP JUMP JUMPDEST PUSH1 0x0 PUSH2 0xF23 DUP4 DUP4 PUSH2 0xEF9 JUMP JUMPDEST SWAP2 POP DUP3 PUSH1 0x2 MUL DUP3 OR SWAP1 POP SWAP3 SWAP2 POP POP JUMP JUMPDEST PUSH2 0xF3C DUP3 PUSH2 0xAB2 JUMP JUMPDEST PUSH8 0xFFFFFFFFFFFFFFFF DUP2 GT ISZERO PUSH2 0xF55 JUMPI PUSH2 0xF54 PUSH2 0x7D1 JUMP JUMPDEST JUMPDEST PUSH2 0xF5F DUP3 SLOAD PUSH2 0xD56 JUMP JUMPDEST PUSH2 0xF6A DUP3 DUP3 DUP6 PUSH2 0xEA6 JUMP JUMPDEST PUSH1 0x0 PUSH1 0x20 SWAP1 POP PUSH1 0x1F DUP4 GT PUSH1 0x1 DUP2 EQ PUSH2 0xF9D JUMPI PUSH1 0x0 DUP5 ISZERO PUSH2 0xF8B JUMPI DUP3 DUP8 ADD MLOAD SWAP1 POP JUMPDEST PUSH2 0xF95 DUP6 DUP3 PUSH2 0xF17 JUMP JUMPDEST DUP7 SSTORE POP PUSH2 0xFFD JUMP JUMPDEST PUSH1 0x1F NOT DUP5 AND PUSH2 0xFAB DUP7 PUSH2 0xD87 JUMP JUMPDEST PUSH1 0x0 JUMPDEST DUP3 DUP2 LT ISZERO PUSH2 0xFD3 JUMPI DUP5 DUP10 ADD MLOAD DUP3 SSTORE PUSH1 0x1 DUP3 ADD SWAP2 POP PUSH1 0x20 DUP6 ADD SWAP5 POP PUSH1 0x20 DUP2 ADD SWAP1 POP PUSH2 0xFAE JUMP JUMPDEST DUP7 DUP4 LT ISZERO PUSH2 0xFF0 JUMPI DUP5 DUP10 ADD MLOAD PUSH2 0xFEC PUSH1 0x1F DUP10 AND DUP3 PUSH2 0xEF9 JUMP JUMPDEST DUP4 SSTORE POP JUMPDEST PUSH1 0x1 PUSH1 0x2 DUP9 MUL ADD DUP9 SSTORE POP POP POP JUMPDEST POP POP POP POP POP POP JUMP JUMPDEST PUSH32 0x4F776E61626C653A206E6577206F776E657220697320746865207A65726F2061 PUSH1 0x0 DUP3 ADD MSTORE PUSH32 0x6464726573730000000000000000000000000000000000000000000000000000 PUSH1 0x20 DUP3 ADD MSTORE POP JUMP JUMPDEST PUSH1 0x0 PUSH2 0x1061 PUSH1 0x26 DUP4 PUSH2 0xCAA JUMP JUMPDEST SWAP2 POP PUSH2 0x106C DUP3 PUSH2 0x1005 JUMP JUMPDEST PUSH1 0x40 DUP3 ADD SWAP1 POP SWAP2 SWAP1 POP JUMP JUMPDEST PUSH1 0x0 PUSH1 0x20 DUP3 ADD SWAP1 POP DUP2 DUP2 SUB PUSH1 0x0 DUP4 ADD MSTORE PUSH2 0x1090 DUP2 PUSH2 0x1054 JUMP JUMPDEST SWAP1 POP SWAP2 SWAP1 POP JUMP INVALID LOG2 PUSH5 0x6970667358 0x22 SLT KECCAK256 SWAP1 0x4B DUP1 PUSH17 0xE76D3E18B0B895BB92FC95E1055F4B9C42 LT PUSH16 0x258EE326A529E031E264736F6C634300 ADDMOD GT STOP CALLER "
				},
				"gasEstimates": {
					"creation": {
						"codeDepositCost": "860200",
						"executionCost": "infinite",
						"totalCost": "infinite"
					},
					"external": {
						"getStore(uint256)": "infinite",
						"owner()": "2566",
						"registSquare(uint256,(string,string,string,string))": "infinite",
						"renounceOwnership()": "30374",
						"transferOwnership(address)": "30786"
					}
				},
				"methodIdentifiers": {
					"getStore(uint256)": "83403120",
					"owner()": "8da5cb5b",
					"registSquare(uint256,(string,string,string,string))": "002908ac",
					"renounceOwnership()": "715018a6",
					"transferOwnership(address)": "f2fde38b"
				}
			},
			"storageLayout": {
				"storage": [
					{
						"astId": 96,
						"contract": "contracts/DeStore/Store.sol:Store",
						"label": "_owner",
						"offset": 0,
						"slot": "0",
						"type": "t_address"
					},
					{
						"astId": 23,
						"contract": "contracts/DeStore/Store.sol:Store",
						"label": "squareStores",
						"offset": 0,
						"slot": "1",
						"type": "t_mapping(t_uint256,t_struct(Square)18_storage)"
					}
				],
				"types": {
					"t_address": {
						"encoding": "inplace",
						"label": "address",
						"numberOfBytes": "20"
					},
					"t_mapping(t_uint256,t_struct(Square)18_storage)": {
						"encoding": "mapping",
						"key": "t_uint256",
						"label": "mapping(uint256 => struct Store.Square)",
						"numberOfBytes": "32",
						"value": "t_struct(Square)18_storage"
					},
					"t_string_storage": {
						"encoding": "bytes",
						"label": "string",
						"numberOfBytes": "32"
					},
					"t_struct(Square)18_storage": {
						"encoding": "inplace",
						"label": "struct Store.Square",
						"members": [
							{
								"astId": 17,
								"contract": "contracts/DeStore/Store.sol:Store",
								"label": "squareId",
								"offset": 0,
								"slot": "0",
								"type": "t_struct(StoreOnSquare)14_storage"
							}
						],
						"numberOfBytes": "128"
					},
					"t_struct(StoreOnSquare)14_storage": {
						"encoding": "inplace",
						"label": "struct Store.StoreOnSquare",
						"members": [
							{
								"astId": 7,
								"contract": "contracts/DeStore/Store.sol:Store",
								"label": "storeName",
								"offset": 0,
								"slot": "0",
								"type": "t_string_storage"
							},
							{
								"astId": 9,
								"contract": "contracts/DeStore/Store.sol:Store",
								"label": "addressLine1",
								"offset": 0,
								"slot": "1",
								"type": "t_string_storage"
							},
							{
								"astId": 11,
								"contract": "contracts/DeStore/Store.sol:Store",
								"label": "country",
								"offset": 0,
								"slot": "2",
								"type": "t_string_storage"
							},
							{
								"astId": 13,
								"contract": "contracts/DeStore/Store.sol:Store",
								"label": "postalCode",
								"offset": 0,
								"slot": "3",
								"type": "t_string_storage"
							}
						],
						"numberOfBytes": "128"
					},
					"t_uint256": {
						"encoding": "inplace",
						"label": "uint256",
						"numberOfBytes": "32"
					}
				}
			},
			"userdoc": {
				"kind": "user",
				"methods": {},
				"version": 1
			}
		}
	}
}